{
	"solidity/contracts/Fake_L2_AmmWrapper.sol": {
		"Fake_L2_AmmWrapper": {
			"abi": [
				{
					"inputs": [],
					"stateMutability": "nonpayable",
					"type": "constructor"
				},
				{
					"inputs": [
						{
							"internalType": "uint256",
							"name": "chainId",
							"type": "uint256"
						},
						{
							"internalType": "address",
							"name": "recipient",
							"type": "address"
						},
						{
							"internalType": "uint256",
							"name": "amount",
							"type": "uint256"
						},
						{
							"internalType": "uint256",
							"name": "bonderFee",
							"type": "uint256"
						},
						{
							"components": [
								{
									"internalType": "uint8",
									"name": "tokenIndex",
									"type": "uint8"
								},
								{
									"internalType": "uint256",
									"name": "amountOutMin",
									"type": "uint256"
								},
								{
									"internalType": "uint256",
									"name": "deadline",
									"type": "uint256"
								}
							],
							"internalType": "struct SwapData",
							"name": "swapData",
							"type": "tuple"
						},
						{
							"components": [
								{
									"internalType": "uint8",
									"name": "tokenIndex",
									"type": "uint8"
								},
								{
									"internalType": "uint256",
									"name": "amountOutMin",
									"type": "uint256"
								},
								{
									"internalType": "uint256",
									"name": "deadline",
									"type": "uint256"
								}
							],
							"internalType": "struct SwapData",
							"name": "destinationSwapData",
							"type": "tuple"
						},
						{
							"internalType": "address",
							"name": "bonder",
							"type": "address"
						}
					],
					"name": "swapAndSend",
					"outputs": [],
					"stateMutability": "payable",
					"type": "function"
				}
			],
			"devdoc": {
				"custom:security-contact": "bridge-when-cheap@gmail.com",
				"kind": "dev",
				"methods": {},
				"version": 1
			},
			"evm": {
				"assembly": "    /* \"solidity/contracts/Fake_L2_AmmWrapper.sol\":135:459  contract Fake_L2_AmmWrapper {... */\n  mstore(0x40, 0x80)\n    /* \"solidity/contracts/Fake_L2_AmmWrapper.sol\":169:185  constructor() {} */\n  callvalue\n  dup1\n  iszero\n  tag_1\n  jumpi\n  0x00\n  dup1\n  revert\ntag_1:\n  pop\n    /* \"solidity/contracts/Fake_L2_AmmWrapper.sol\":135:459  contract Fake_L2_AmmWrapper {... */\n  dataSize(sub_0)\n  dup1\n  dataOffset(sub_0)\n  0x00\n  codecopy\n  0x00\n  return\nstop\n\nsub_0: assembly {\n        /* \"solidity/contracts/Fake_L2_AmmWrapper.sol\":135:459  contract Fake_L2_AmmWrapper {... */\n      mstore(0x40, 0x80)\n      jumpi(tag_1, lt(calldatasize, 0x04))\n      shr(0xe0, calldataload(0x00))\n      dup1\n      0x38e981aa\n      eq\n      tag_2\n      jumpi\n    tag_1:\n      0x00\n      dup1\n      revert\n        /* \"solidity/contracts/Fake_L2_AmmWrapper.sol\":191:457  function swapAndSend(... */\n    tag_2:\n      tag_3\n      0x04\n      dup1\n      calldatasize\n      sub\n      dup2\n      add\n      swap1\n      tag_4\n      swap2\n      swap1\n      tag_5\n      jump\t// in\n    tag_4:\n      tag_6\n      jump\t// in\n    tag_3:\n      stop\n    tag_6:\n      pop\n      pop\n      pop\n      pop\n      pop\n      pop\n      pop\n      jump\t// out\n        /* \"#utility.yul\":7:82   */\n    tag_8:\n        /* \"#utility.yul\":40:46   */\n      0x00\n        /* \"#utility.yul\":73:75   */\n      0x40\n        /* \"#utility.yul\":67:76   */\n      mload\n        /* \"#utility.yul\":57:76   */\n      swap1\n      pop\n        /* \"#utility.yul\":7:82   */\n      swap1\n      jump\t// out\n        /* \"#utility.yul\":88:205   */\n    tag_9:\n        /* \"#utility.yul\":197:198   */\n      0x00\n        /* \"#utility.yul\":194:195   */\n      dup1\n        /* \"#utility.yul\":187:199   */\n      revert\n        /* \"#utility.yul\":334:411   */\n    tag_11:\n        /* \"#utility.yul\":371:378   */\n      0x00\n        /* \"#utility.yul\":400:405   */\n      dup2\n        /* \"#utility.yul\":389:405   */\n      swap1\n      pop\n        /* \"#utility.yul\":334:411   */\n      swap2\n      swap1\n      pop\n      jump\t// out\n        /* \"#utility.yul\":417:539   */\n    tag_12:\n        /* \"#utility.yul\":490:514   */\n      tag_34\n        /* \"#utility.yul\":508:513   */\n      dup2\n        /* \"#utility.yul\":490:514   */\n      tag_11\n      jump\t// in\n    tag_34:\n        /* \"#utility.yul\":483:488   */\n      dup2\n        /* \"#utility.yul\":480:515   */\n      eq\n        /* \"#utility.yul\":470:533   */\n      tag_35\n      jumpi\n        /* \"#utility.yul\":529:530   */\n      0x00\n        /* \"#utility.yul\":526:527   */\n      dup1\n        /* \"#utility.yul\":519:531   */\n      revert\n        /* \"#utility.yul\":470:533   */\n    tag_35:\n        /* \"#utility.yul\":417:539   */\n      pop\n      jump\t// out\n        /* \"#utility.yul\":545:684   */\n    tag_13:\n        /* \"#utility.yul\":591:596   */\n      0x00\n        /* \"#utility.yul\":629:635   */\n      dup2\n        /* \"#utility.yul\":616:636   */\n      calldataload\n        /* \"#utility.yul\":607:636   */\n      swap1\n      pop\n        /* \"#utility.yul\":645:678   */\n      tag_37\n        /* \"#utility.yul\":672:677   */\n      dup2\n        /* \"#utility.yul\":645:678   */\n      tag_12\n      jump\t// in\n    tag_37:\n        /* \"#utility.yul\":545:684   */\n      swap3\n      swap2\n      pop\n      pop\n      jump\t// out\n        /* \"#utility.yul\":690:816   */\n    tag_14:\n        /* \"#utility.yul\":727:734   */\n      0x00\n        /* \"#utility.yul\":767:809   */\n      0xffffffffffffffffffffffffffffffffffffffff\n        /* \"#utility.yul\":760:765   */\n      dup3\n        /* \"#utility.yul\":756:810   */\n      and\n        /* \"#utility.yul\":745:810   */\n      swap1\n      pop\n        /* \"#utility.yul\":690:816   */\n      swap2\n      swap1\n      pop\n      jump\t// out\n        /* \"#utility.yul\":822:918   */\n    tag_15:\n        /* \"#utility.yul\":859:866   */\n      0x00\n        /* \"#utility.yul\":888:912   */\n      tag_40\n        /* \"#utility.yul\":906:911   */\n      dup3\n        /* \"#utility.yul\":888:912   */\n      tag_14\n      jump\t// in\n    tag_40:\n        /* \"#utility.yul\":877:912   */\n      swap1\n      pop\n        /* \"#utility.yul\":822:918   */\n      swap2\n      swap1\n      pop\n      jump\t// out\n        /* \"#utility.yul\":924:1046   */\n    tag_16:\n        /* \"#utility.yul\":997:1021   */\n      tag_42\n        /* \"#utility.yul\":1015:1020   */\n      dup2\n        /* \"#utility.yul\":997:1021   */\n      tag_15\n      jump\t// in\n    tag_42:\n        /* \"#utility.yul\":990:995   */\n      dup2\n        /* \"#utility.yul\":987:1022   */\n      eq\n        /* \"#utility.yul\":977:1040   */\n      tag_43\n      jumpi\n        /* \"#utility.yul\":1036:1037   */\n      0x00\n        /* \"#utility.yul\":1033:1034   */\n      dup1\n        /* \"#utility.yul\":1026:1038   */\n      revert\n        /* \"#utility.yul\":977:1040   */\n    tag_43:\n        /* \"#utility.yul\":924:1046   */\n      pop\n      jump\t// out\n        /* \"#utility.yul\":1052:1191   */\n    tag_17:\n        /* \"#utility.yul\":1098:1103   */\n      0x00\n        /* \"#utility.yul\":1136:1142   */\n      dup2\n        /* \"#utility.yul\":1123:1143   */\n      calldataload\n        /* \"#utility.yul\":1114:1143   */\n      swap1\n      pop\n        /* \"#utility.yul\":1152:1185   */\n      tag_45\n        /* \"#utility.yul\":1179:1184   */\n      dup2\n        /* \"#utility.yul\":1152:1185   */\n      tag_16\n      jump\t// in\n    tag_45:\n        /* \"#utility.yul\":1052:1191   */\n      swap3\n      swap2\n      pop\n      pop\n      jump\t// out\n        /* \"#utility.yul\":1197:1314   */\n    tag_18:\n        /* \"#utility.yul\":1306:1307   */\n      0x00\n        /* \"#utility.yul\":1303:1304   */\n      dup1\n        /* \"#utility.yul\":1296:1308   */\n      revert\n        /* \"#utility.yul\":1320:1422   */\n    tag_19:\n        /* \"#utility.yul\":1361:1367   */\n      0x00\n        /* \"#utility.yul\":1412:1414   */\n      0x1f\n        /* \"#utility.yul\":1408:1415   */\n      not\n        /* \"#utility.yul\":1403:1405   */\n      0x1f\n        /* \"#utility.yul\":1396:1401   */\n      dup4\n        /* \"#utility.yul\":1392:1406   */\n      add\n        /* \"#utility.yul\":1388:1416   */\n      and\n        /* \"#utility.yul\":1378:1416   */\n      swap1\n      pop\n        /* \"#utility.yul\":1320:1422   */\n      swap2\n      swap1\n      pop\n      jump\t// out\n        /* \"#utility.yul\":1428:1608   */\n    tag_20:\n        /* \"#utility.yul\":1476:1553   */\n      0x4e487b7100000000000000000000000000000000000000000000000000000000\n        /* \"#utility.yul\":1473:1474   */\n      0x00\n        /* \"#utility.yul\":1466:1554   */\n      mstore\n        /* \"#utility.yul\":1573:1577   */\n      0x41\n        /* \"#utility.yul\":1570:1571   */\n      0x04\n        /* \"#utility.yul\":1563:1578   */\n      mstore\n        /* \"#utility.yul\":1597:1601   */\n      0x24\n        /* \"#utility.yul\":1594:1595   */\n      0x00\n        /* \"#utility.yul\":1587:1602   */\n      revert\n        /* \"#utility.yul\":1614:1895   */\n    tag_21:\n        /* \"#utility.yul\":1697:1724   */\n      tag_50\n        /* \"#utility.yul\":1719:1723   */\n      dup3\n        /* \"#utility.yul\":1697:1724   */\n      tag_19\n      jump\t// in\n    tag_50:\n        /* \"#utility.yul\":1689:1695   */\n      dup2\n        /* \"#utility.yul\":1685:1725   */\n      add\n        /* \"#utility.yul\":1827:1833   */\n      dup2\n        /* \"#utility.yul\":1815:1825   */\n      dup2\n        /* \"#utility.yul\":1812:1834   */\n      lt\n        /* \"#utility.yul\":1791:1809   */\n      0xffffffffffffffff\n        /* \"#utility.yul\":1779:1789   */\n      dup3\n        /* \"#utility.yul\":1776:1810   */\n      gt\n        /* \"#utility.yul\":1773:1835   */\n      or\n        /* \"#utility.yul\":1770:1858   */\n      iszero\n      tag_51\n      jumpi\n        /* \"#utility.yul\":1838:1856   */\n      tag_52\n      tag_20\n      jump\t// in\n    tag_52:\n        /* \"#utility.yul\":1770:1858   */\n    tag_51:\n        /* \"#utility.yul\":1878:1888   */\n      dup1\n        /* \"#utility.yul\":1874:1876   */\n      0x40\n        /* \"#utility.yul\":1867:1889   */\n      mstore\n        /* \"#utility.yul\":1657:1895   */\n      pop\n        /* \"#utility.yul\":1614:1895   */\n      pop\n      pop\n      jump\t// out\n        /* \"#utility.yul\":1901:2030   */\n    tag_22:\n        /* \"#utility.yul\":1935:1941   */\n      0x00\n        /* \"#utility.yul\":1962:1982   */\n      tag_54\n      tag_8\n      jump\t// in\n    tag_54:\n        /* \"#utility.yul\":1952:1982   */\n      swap1\n      pop\n        /* \"#utility.yul\":1991:2024   */\n      tag_55\n        /* \"#utility.yul\":2019:2023   */\n      dup3\n        /* \"#utility.yul\":2011:2017   */\n      dup3\n        /* \"#utility.yul\":1991:2024   */\n      tag_21\n      jump\t// in\n    tag_55:\n        /* \"#utility.yul\":1901:2030   */\n      swap2\n      swap1\n      pop\n      jump\t// out\n        /* \"#utility.yul\":2159:2245   */\n    tag_24:\n        /* \"#utility.yul\":2194:2201   */\n      0x00\n        /* \"#utility.yul\":2234:2238   */\n      0xff\n        /* \"#utility.yul\":2227:2232   */\n      dup3\n        /* \"#utility.yul\":2223:2239   */\n      and\n        /* \"#utility.yul\":2212:2239   */\n      swap1\n      pop\n        /* \"#utility.yul\":2159:2245   */\n      swap2\n      swap1\n      pop\n      jump\t// out\n        /* \"#utility.yul\":2251:2369   */\n    tag_25:\n        /* \"#utility.yul\":2322:2344   */\n      tag_59\n        /* \"#utility.yul\":2338:2343   */\n      dup2\n        /* \"#utility.yul\":2322:2344   */\n      tag_24\n      jump\t// in\n    tag_59:\n        /* \"#utility.yul\":2315:2320   */\n      dup2\n        /* \"#utility.yul\":2312:2345   */\n      eq\n        /* \"#utility.yul\":2302:2363   */\n      tag_60\n      jumpi\n        /* \"#utility.yul\":2359:2360   */\n      0x00\n        /* \"#utility.yul\":2356:2357   */\n      dup1\n        /* \"#utility.yul\":2349:2361   */\n      revert\n        /* \"#utility.yul\":2302:2363   */\n    tag_60:\n        /* \"#utility.yul\":2251:2369   */\n      pop\n      jump\t// out\n        /* \"#utility.yul\":2375:2510   */\n    tag_26:\n        /* \"#utility.yul\":2419:2424   */\n      0x00\n        /* \"#utility.yul\":2457:2463   */\n      dup2\n        /* \"#utility.yul\":2444:2464   */\n      calldataload\n        /* \"#utility.yul\":2435:2464   */\n      swap1\n      pop\n        /* \"#utility.yul\":2473:2504   */\n      tag_62\n        /* \"#utility.yul\":2498:2503   */\n      dup2\n        /* \"#utility.yul\":2473:2504   */\n      tag_25\n      jump\t// in\n    tag_62:\n        /* \"#utility.yul\":2375:2510   */\n      swap3\n      swap2\n      pop\n      pop\n      jump\t// out\n        /* \"#utility.yul\":2539:3289   */\n    tag_27:\n        /* \"#utility.yul\":2612:2617   */\n      0x00\n        /* \"#utility.yul\":2656:2660   */\n      0x60\n        /* \"#utility.yul\":2644:2653   */\n      dup3\n        /* \"#utility.yul\":2639:2642   */\n      dup5\n        /* \"#utility.yul\":2635:2654   */\n      sub\n        /* \"#utility.yul\":2631:2661   */\n      slt\n        /* \"#utility.yul\":2628:2745   */\n      iszero\n      tag_64\n      jumpi\n        /* \"#utility.yul\":2664:2743   */\n      tag_65\n      tag_18\n      jump\t// in\n    tag_65:\n        /* \"#utility.yul\":2628:2745   */\n    tag_64:\n        /* \"#utility.yul\":2763:2784   */\n      tag_66\n        /* \"#utility.yul\":2779:2783   */\n      0x60\n        /* \"#utility.yul\":2763:2784   */\n      tag_22\n      jump\t// in\n    tag_66:\n        /* \"#utility.yul\":2754:2784   */\n      swap1\n      pop\n        /* \"#utility.yul\":2849:2850   */\n      0x00\n        /* \"#utility.yul\":2889:2936   */\n      tag_67\n        /* \"#utility.yul\":2932:2935   */\n      dup5\n        /* \"#utility.yul\":2923:2929   */\n      dup3\n        /* \"#utility.yul\":2912:2921   */\n      dup6\n        /* \"#utility.yul\":2908:2930   */\n      add\n        /* \"#utility.yul\":2889:2936   */\n      tag_26\n      jump\t// in\n    tag_67:\n        /* \"#utility.yul\":2882:2886   */\n      0x00\n        /* \"#utility.yul\":2875:2880   */\n      dup4\n        /* \"#utility.yul\":2871:2887   */\n      add\n        /* \"#utility.yul\":2864:2937   */\n      mstore\n        /* \"#utility.yul\":2794:2948   */\n      pop\n        /* \"#utility.yul\":3015:3017   */\n      0x20\n        /* \"#utility.yul\":3056:3105   */\n      tag_68\n        /* \"#utility.yul\":3101:3104   */\n      dup5\n        /* \"#utility.yul\":3092:3098   */\n      dup3\n        /* \"#utility.yul\":3081:3090   */\n      dup6\n        /* \"#utility.yul\":3077:3099   */\n      add\n        /* \"#utility.yul\":3056:3105   */\n      tag_13\n      jump\t// in\n    tag_68:\n        /* \"#utility.yul\":3049:3053   */\n      0x20\n        /* \"#utility.yul\":3042:3047   */\n      dup4\n        /* \"#utility.yul\":3038:3054   */\n      add\n        /* \"#utility.yul\":3031:3106   */\n      mstore\n        /* \"#utility.yul\":2958:3117   */\n      pop\n        /* \"#utility.yul\":3180:3182   */\n      0x40\n        /* \"#utility.yul\":3221:3270   */\n      tag_69\n        /* \"#utility.yul\":3266:3269   */\n      dup5\n        /* \"#utility.yul\":3257:3263   */\n      dup3\n        /* \"#utility.yul\":3246:3255   */\n      dup6\n        /* \"#utility.yul\":3242:3264   */\n      add\n        /* \"#utility.yul\":3221:3270   */\n      tag_13\n      jump\t// in\n    tag_69:\n        /* \"#utility.yul\":3214:3218   */\n      0x40\n        /* \"#utility.yul\":3207:3212   */\n      dup4\n        /* \"#utility.yul\":3203:3219   */\n      add\n        /* \"#utility.yul\":3196:3271   */\n      mstore\n        /* \"#utility.yul\":3127:3282   */\n      pop\n        /* \"#utility.yul\":2539:3289   */\n      swap3\n      swap2\n      pop\n      pop\n      jump\t// out\n        /* \"#utility.yul\":3295:4594   */\n    tag_5:\n        /* \"#utility.yul\":3456:3462   */\n      0x00\n        /* \"#utility.yul\":3464:3470   */\n      dup1\n        /* \"#utility.yul\":3472:3478   */\n      0x00\n        /* \"#utility.yul\":3480:3486   */\n      dup1\n        /* \"#utility.yul\":3488:3494   */\n      0x00\n        /* \"#utility.yul\":3496:3502   */\n      dup1\n        /* \"#utility.yul\":3504:3510   */\n      0x00\n        /* \"#utility.yul\":3553:3556   */\n      0x0160\n        /* \"#utility.yul\":3541:3550   */\n      dup9\n        /* \"#utility.yul\":3532:3539   */\n      dup11\n        /* \"#utility.yul\":3528:3551   */\n      sub\n        /* \"#utility.yul\":3524:3557   */\n      slt\n        /* \"#utility.yul\":3521:3641   */\n      iszero\n      tag_71\n      jumpi\n        /* \"#utility.yul\":3560:3639   */\n      tag_72\n      tag_9\n      jump\t// in\n    tag_72:\n        /* \"#utility.yul\":3521:3641   */\n    tag_71:\n        /* \"#utility.yul\":3680:3681   */\n      0x00\n        /* \"#utility.yul\":3705:3758   */\n      tag_73\n        /* \"#utility.yul\":3750:3757   */\n      dup11\n        /* \"#utility.yul\":3741:3747   */\n      dup3\n        /* \"#utility.yul\":3730:3739   */\n      dup12\n        /* \"#utility.yul\":3726:3748   */\n      add\n        /* \"#utility.yul\":3705:3758   */\n      tag_13\n      jump\t// in\n    tag_73:\n        /* \"#utility.yul\":3695:3758   */\n      swap8\n      pop\n        /* \"#utility.yul\":3651:3768   */\n      pop\n        /* \"#utility.yul\":3807:3809   */\n      0x20\n        /* \"#utility.yul\":3833:3886   */\n      tag_74\n        /* \"#utility.yul\":3878:3885   */\n      dup11\n        /* \"#utility.yul\":3869:3875   */\n      dup3\n        /* \"#utility.yul\":3858:3867   */\n      dup12\n        /* \"#utility.yul\":3854:3876   */\n      add\n        /* \"#utility.yul\":3833:3886   */\n      tag_17\n      jump\t// in\n    tag_74:\n        /* \"#utility.yul\":3823:3886   */\n      swap7\n      pop\n        /* \"#utility.yul\":3778:3896   */\n      pop\n        /* \"#utility.yul\":3935:3937   */\n      0x40\n        /* \"#utility.yul\":3961:4014   */\n      tag_75\n        /* \"#utility.yul\":4006:4013   */\n      dup11\n        /* \"#utility.yul\":3997:4003   */\n      dup3\n        /* \"#utility.yul\":3986:3995   */\n      dup12\n        /* \"#utility.yul\":3982:4004   */\n      add\n        /* \"#utility.yul\":3961:4014   */\n      tag_13\n      jump\t// in\n    tag_75:\n        /* \"#utility.yul\":3951:4014   */\n      swap6\n      pop\n        /* \"#utility.yul\":3906:4024   */\n      pop\n        /* \"#utility.yul\":4063:4065   */\n      0x60\n        /* \"#utility.yul\":4089:4142   */\n      tag_76\n        /* \"#utility.yul\":4134:4141   */\n      dup11\n        /* \"#utility.yul\":4125:4131   */\n      dup3\n        /* \"#utility.yul\":4114:4123   */\n      dup12\n        /* \"#utility.yul\":4110:4132   */\n      add\n        /* \"#utility.yul\":4089:4142   */\n      tag_13\n      jump\t// in\n    tag_76:\n        /* \"#utility.yul\":4079:4142   */\n      swap5\n      pop\n        /* \"#utility.yul\":4034:4152   */\n      pop\n        /* \"#utility.yul\":4191:4194   */\n      0x80\n        /* \"#utility.yul\":4218:4295   */\n      tag_77\n        /* \"#utility.yul\":4287:4294   */\n      dup11\n        /* \"#utility.yul\":4278:4284   */\n      dup3\n        /* \"#utility.yul\":4267:4276   */\n      dup12\n        /* \"#utility.yul\":4263:4285   */\n      add\n        /* \"#utility.yul\":4218:4295   */\n      tag_27\n      jump\t// in\n    tag_77:\n        /* \"#utility.yul\":4208:4295   */\n      swap4\n      pop\n        /* \"#utility.yul\":4162:4305   */\n      pop\n        /* \"#utility.yul\":4344:4347   */\n      0xe0\n        /* \"#utility.yul\":4371:4448   */\n      tag_78\n        /* \"#utility.yul\":4440:4447   */\n      dup11\n        /* \"#utility.yul\":4431:4437   */\n      dup3\n        /* \"#utility.yul\":4420:4429   */\n      dup12\n        /* \"#utility.yul\":4416:4438   */\n      add\n        /* \"#utility.yul\":4371:4448   */\n      tag_27\n      jump\t// in\n    tag_78:\n        /* \"#utility.yul\":4361:4448   */\n      swap3\n      pop\n        /* \"#utility.yul\":4315:4458   */\n      pop\n        /* \"#utility.yul\":4497:4500   */\n      0x0140\n        /* \"#utility.yul\":4524:4577   */\n      tag_79\n        /* \"#utility.yul\":4569:4576   */\n      dup11\n        /* \"#utility.yul\":4560:4566   */\n      dup3\n        /* \"#utility.yul\":4549:4558   */\n      dup12\n        /* \"#utility.yul\":4545:4567   */\n      add\n        /* \"#utility.yul\":4524:4577   */\n      tag_17\n      jump\t// in\n    tag_79:\n        /* \"#utility.yul\":4514:4577   */\n      swap2\n      pop\n        /* \"#utility.yul\":4468:4587   */\n      pop\n        /* \"#utility.yul\":3295:4594   */\n      swap3\n      swap6\n      swap9\n      swap2\n      swap5\n      swap8\n      pop\n      swap3\n      swap6\n      pop\n      jump\t// out\n\n    auxdata: 0xa264697066735822122030a33c97410f22b29cfac0306d332c0ab3691014d4698d9cfc4503f3d136de5864736f6c63430008130033\n}\n",
				"bytecode": {
					"linkReferences": {},
					"object": "608060405234801561001057600080fd5b506102f3806100206000396000f3fe60806040526004361061001e5760003560e01c806338e981aa14610023575b600080fd5b61003d60048036038101906100389190610219565b61003f565b005b50505050505050565b6000604051905090565b600080fd5b6000819050919050565b61006a81610057565b811461007557600080fd5b50565b60008135905061008781610061565b92915050565b600073ffffffffffffffffffffffffffffffffffffffff82169050919050565b60006100b88261008d565b9050919050565b6100c8816100ad565b81146100d357600080fd5b50565b6000813590506100e5816100bf565b92915050565b600080fd5b6000601f19601f8301169050919050565b7f4e487b7100000000000000000000000000000000000000000000000000000000600052604160045260246000fd5b610139826100f0565b810181811067ffffffffffffffff8211171561015857610157610101565b5b80604052505050565b600061016b610048565b90506101778282610130565b919050565b600060ff82169050919050565b6101928161017c565b811461019d57600080fd5b50565b6000813590506101af81610189565b92915050565b6000606082840312156101cb576101ca6100eb565b5b6101d56060610161565b905060006101e5848285016101a0565b60008301525060206101f984828501610078565b602083015250604061020d84828501610078565b60408301525092915050565b6000806000806000806000610160888a03121561023957610238610052565b5b60006102478a828b01610078565b97505060206102588a828b016100d6565b96505060406102698a828b01610078565b955050606061027a8a828b01610078565b945050608061028b8a828b016101b5565b93505060e061029c8a828b016101b5565b9250506101406102ae8a828b016100d6565b9150509295989194975092955056fea264697066735822122030a33c97410f22b29cfac0306d332c0ab3691014d4698d9cfc4503f3d136de5864736f6c63430008130033",
					"opcodes": "PUSH1 0x80 PUSH1 0x40 MSTORE CALLVALUE DUP1 ISZERO PUSH2 0x10 JUMPI PUSH1 0x0 DUP1 REVERT JUMPDEST POP PUSH2 0x2F3 DUP1 PUSH2 0x20 PUSH1 0x0 CODECOPY PUSH1 0x0 RETURN INVALID PUSH1 0x80 PUSH1 0x40 MSTORE PUSH1 0x4 CALLDATASIZE LT PUSH2 0x1E JUMPI PUSH1 0x0 CALLDATALOAD PUSH1 0xE0 SHR DUP1 PUSH4 0x38E981AA EQ PUSH2 0x23 JUMPI JUMPDEST PUSH1 0x0 DUP1 REVERT JUMPDEST PUSH2 0x3D PUSH1 0x4 DUP1 CALLDATASIZE SUB DUP2 ADD SWAP1 PUSH2 0x38 SWAP2 SWAP1 PUSH2 0x219 JUMP JUMPDEST PUSH2 0x3F JUMP JUMPDEST STOP JUMPDEST POP POP POP POP POP POP POP JUMP JUMPDEST PUSH1 0x0 PUSH1 0x40 MLOAD SWAP1 POP SWAP1 JUMP JUMPDEST PUSH1 0x0 DUP1 REVERT JUMPDEST PUSH1 0x0 DUP2 SWAP1 POP SWAP2 SWAP1 POP JUMP JUMPDEST PUSH2 0x6A DUP2 PUSH2 0x57 JUMP JUMPDEST DUP2 EQ PUSH2 0x75 JUMPI PUSH1 0x0 DUP1 REVERT JUMPDEST POP JUMP JUMPDEST PUSH1 0x0 DUP2 CALLDATALOAD SWAP1 POP PUSH2 0x87 DUP2 PUSH2 0x61 JUMP JUMPDEST SWAP3 SWAP2 POP POP JUMP JUMPDEST PUSH1 0x0 PUSH20 0xFFFFFFFFFFFFFFFFFFFFFFFFFFFFFFFFFFFFFFFF DUP3 AND SWAP1 POP SWAP2 SWAP1 POP JUMP JUMPDEST PUSH1 0x0 PUSH2 0xB8 DUP3 PUSH2 0x8D JUMP JUMPDEST SWAP1 POP SWAP2 SWAP1 POP JUMP JUMPDEST PUSH2 0xC8 DUP2 PUSH2 0xAD JUMP JUMPDEST DUP2 EQ PUSH2 0xD3 JUMPI PUSH1 0x0 DUP1 REVERT JUMPDEST POP JUMP JUMPDEST PUSH1 0x0 DUP2 CALLDATALOAD SWAP1 POP PUSH2 0xE5 DUP2 PUSH2 0xBF JUMP JUMPDEST SWAP3 SWAP2 POP POP JUMP JUMPDEST PUSH1 0x0 DUP1 REVERT JUMPDEST PUSH1 0x0 PUSH1 0x1F NOT PUSH1 0x1F DUP4 ADD AND SWAP1 POP SWAP2 SWAP1 POP JUMP JUMPDEST PUSH32 0x4E487B7100000000000000000000000000000000000000000000000000000000 PUSH1 0x0 MSTORE PUSH1 0x41 PUSH1 0x4 MSTORE PUSH1 0x24 PUSH1 0x0 REVERT JUMPDEST PUSH2 0x139 DUP3 PUSH2 0xF0 JUMP JUMPDEST DUP2 ADD DUP2 DUP2 LT PUSH8 0xFFFFFFFFFFFFFFFF DUP3 GT OR ISZERO PUSH2 0x158 JUMPI PUSH2 0x157 PUSH2 0x101 JUMP JUMPDEST JUMPDEST DUP1 PUSH1 0x40 MSTORE POP POP POP JUMP JUMPDEST PUSH1 0x0 PUSH2 0x16B PUSH2 0x48 JUMP JUMPDEST SWAP1 POP PUSH2 0x177 DUP3 DUP3 PUSH2 0x130 JUMP JUMPDEST SWAP2 SWAP1 POP JUMP JUMPDEST PUSH1 0x0 PUSH1 0xFF DUP3 AND SWAP1 POP SWAP2 SWAP1 POP JUMP JUMPDEST PUSH2 0x192 DUP2 PUSH2 0x17C JUMP JUMPDEST DUP2 EQ PUSH2 0x19D JUMPI PUSH1 0x0 DUP1 REVERT JUMPDEST POP JUMP JUMPDEST PUSH1 0x0 DUP2 CALLDATALOAD SWAP1 POP PUSH2 0x1AF DUP2 PUSH2 0x189 JUMP JUMPDEST SWAP3 SWAP2 POP POP JUMP JUMPDEST PUSH1 0x0 PUSH1 0x60 DUP3 DUP5 SUB SLT ISZERO PUSH2 0x1CB JUMPI PUSH2 0x1CA PUSH2 0xEB JUMP JUMPDEST JUMPDEST PUSH2 0x1D5 PUSH1 0x60 PUSH2 0x161 JUMP JUMPDEST SWAP1 POP PUSH1 0x0 PUSH2 0x1E5 DUP5 DUP3 DUP6 ADD PUSH2 0x1A0 JUMP JUMPDEST PUSH1 0x0 DUP4 ADD MSTORE POP PUSH1 0x20 PUSH2 0x1F9 DUP5 DUP3 DUP6 ADD PUSH2 0x78 JUMP JUMPDEST PUSH1 0x20 DUP4 ADD MSTORE POP PUSH1 0x40 PUSH2 0x20D DUP5 DUP3 DUP6 ADD PUSH2 0x78 JUMP JUMPDEST PUSH1 0x40 DUP4 ADD MSTORE POP SWAP3 SWAP2 POP POP JUMP JUMPDEST PUSH1 0x0 DUP1 PUSH1 0x0 DUP1 PUSH1 0x0 DUP1 PUSH1 0x0 PUSH2 0x160 DUP9 DUP11 SUB SLT ISZERO PUSH2 0x239 JUMPI PUSH2 0x238 PUSH2 0x52 JUMP JUMPDEST JUMPDEST PUSH1 0x0 PUSH2 0x247 DUP11 DUP3 DUP12 ADD PUSH2 0x78 JUMP JUMPDEST SWAP8 POP POP PUSH1 0x20 PUSH2 0x258 DUP11 DUP3 DUP12 ADD PUSH2 0xD6 JUMP JUMPDEST SWAP7 POP POP PUSH1 0x40 PUSH2 0x269 DUP11 DUP3 DUP12 ADD PUSH2 0x78 JUMP JUMPDEST SWAP6 POP POP PUSH1 0x60 PUSH2 0x27A DUP11 DUP3 DUP12 ADD PUSH2 0x78 JUMP JUMPDEST SWAP5 POP POP PUSH1 0x80 PUSH2 0x28B DUP11 DUP3 DUP12 ADD PUSH2 0x1B5 JUMP JUMPDEST SWAP4 POP POP PUSH1 0xE0 PUSH2 0x29C DUP11 DUP3 DUP12 ADD PUSH2 0x1B5 JUMP JUMPDEST SWAP3 POP POP PUSH2 0x140 PUSH2 0x2AE DUP11 DUP3 DUP12 ADD PUSH2 0xD6 JUMP JUMPDEST SWAP2 POP POP SWAP3 SWAP6 SWAP9 SWAP2 SWAP5 SWAP8 POP SWAP3 SWAP6 POP JUMP INVALID LOG2 PUSH5 0x6970667358 0x22 SLT KECCAK256 ADDRESS LOG3 EXTCODECOPY SWAP8 COINBASE 0xF 0x22 0xB2 SWAP13 STATICCALL 0xC0 ADDRESS PUSH14 0x332C0AB3691014D4698D9CFC4503 RETURN 0xD1 CALLDATASIZE 0xDE PC PUSH5 0x736F6C6343 STOP ADDMOD SGT STOP CALLER "
				},
				"gasEstimates": {
					"creation": {
						"codeDepositCost": "151000",
						"executionCost": "196",
						"totalCost": "151196"
					},
					"external": {
						"swapAndSend(uint256,address,uint256,uint256,(uint8,uint256,uint256),(uint8,uint256,uint256),address)": "infinite"
					}
				},
				"methodIdentifiers": {
					"swapAndSend(uint256,address,uint256,uint256,(uint8,uint256,uint256),(uint8,uint256,uint256),address)": "38e981aa"
				}
			},
			"storageLayout": {
				"storage": [],
				"types": null
			},
			"userdoc": {
				"kind": "user",
				"methods": {},
				"version": 1
			}
		}
	}
}