{
	"solidity/contracts/BridgewhenCheap.sol": {
		"BridgeWhenCheap": {
			"abi": [
				{
					"inputs": [
						{
							"internalType": "uint256",
							"name": "_executionGasRequirement",
							"type": "uint256"
						},
						{
							"internalType": "uint256",
							"name": "_serviceFee",
							"type": "uint256"
						},
						{
							"internalType": "address",
							"name": "_l2HopBridgeAmmWrapper",
							"type": "address"
						},
						{
							"internalType": "uint256",
							"name": "_layer1ChainId",
							"type": "uint256"
						}
					],
					"stateMutability": "nonpayable",
					"type": "constructor"
				},
				{
					"anonymous": false,
					"inputs": [
						{
							"indexed": true,
							"internalType": "address",
							"name": "previousOwner",
							"type": "address"
						},
						{
							"indexed": true,
							"internalType": "address",
							"name": "newOwner",
							"type": "address"
						}
					],
					"name": "OwnershipTransferred",
					"type": "event"
				},
				{
					"inputs": [],
					"name": "collectedNonGasServiceFee",
					"outputs": [
						{
							"internalType": "uint256",
							"name": "",
							"type": "uint256"
						}
					],
					"stateMutability": "view",
					"type": "function"
				},
				{
					"inputs": [
						{
							"internalType": "uint256",
							"name": "requestId",
							"type": "uint256"
						},
						{
							"internalType": "address",
							"name": "destination",
							"type": "address"
						},
						{
							"internalType": "uint256",
							"name": "wantedL1GasPrice",
							"type": "uint256"
						},
						{
							"internalType": "uint256",
							"name": "amountOutMin",
							"type": "uint256"
						}
					],
					"name": "deposit",
					"outputs": [],
					"stateMutability": "payable",
					"type": "function"
				},
				{
					"inputs": [
						{
							"internalType": "address",
							"name": "requestor",
							"type": "address"
						},
						{
							"internalType": "uint256",
							"name": "requestId",
							"type": "uint256"
						},
						{
							"internalType": "uint256",
							"name": "bonderFee",
							"type": "uint256"
						},
						{
							"internalType": "uint256",
							"name": "amountOutMin",
							"type": "uint256"
						},
						{
							"internalType": "uint256",
							"name": "deadline",
							"type": "uint256"
						},
						{
							"internalType": "uint256",
							"name": "destAmountOutMin",
							"type": "uint256"
						},
						{
							"internalType": "uint256",
							"name": "destDeadline",
							"type": "uint256"
						}
					],
					"name": "executeRequest",
					"outputs": [],
					"stateMutability": "nonpayable",
					"type": "function"
				},
				{
					"inputs": [],
					"name": "executionGasRequirement",
					"outputs": [
						{
							"internalType": "uint256",
							"name": "",
							"type": "uint256"
						}
					],
					"stateMutability": "view",
					"type": "function"
				},
				{
					"inputs": [],
					"name": "l2HopBridgeAmmWrapper",
					"outputs": [
						{
							"internalType": "address",
							"name": "",
							"type": "address"
						}
					],
					"stateMutability": "view",
					"type": "function"
				},
				{
					"inputs": [],
					"name": "layer1ChainId",
					"outputs": [
						{
							"internalType": "uint256",
							"name": "",
							"type": "uint256"
						}
					],
					"stateMutability": "view",
					"type": "function"
				},
				{
					"inputs": [],
					"name": "owner",
					"outputs": [
						{
							"internalType": "address",
							"name": "",
							"type": "address"
						}
					],
					"stateMutability": "view",
					"type": "function"
				},
				{
					"inputs": [],
					"name": "ownerDeposit",
					"outputs": [],
					"stateMutability": "payable",
					"type": "function"
				},
				{
					"inputs": [
						{
							"internalType": "uint256",
							"name": "amount",
							"type": "uint256"
						}
					],
					"name": "ownerWithdraw",
					"outputs": [],
					"stateMutability": "nonpayable",
					"type": "function"
				},
				{
					"inputs": [],
					"name": "renounceOwnership",
					"outputs": [],
					"stateMutability": "nonpayable",
					"type": "function"
				},
				{
					"inputs": [
						{
							"internalType": "address",
							"name": "",
							"type": "address"
						},
						{
							"internalType": "uint256",
							"name": "",
							"type": "uint256"
						}
					],
					"name": "requests",
					"outputs": [
						{
							"internalType": "address",
							"name": "source",
							"type": "address"
						},
						{
							"internalType": "address",
							"name": "destination",
							"type": "address"
						},
						{
							"internalType": "uint256",
							"name": "amount",
							"type": "uint256"
						},
						{
							"internalType": "uint256",
							"name": "amountOutMin",
							"type": "uint256"
						},
						{
							"internalType": "uint256",
							"name": "wantedL1GasPrice",
							"type": "uint256"
						}
					],
					"stateMutability": "view",
					"type": "function"
				},
				{
					"inputs": [],
					"name": "serviceFee",
					"outputs": [
						{
							"internalType": "uint256",
							"name": "",
							"type": "uint256"
						}
					],
					"stateMutability": "view",
					"type": "function"
				},
				{
					"inputs": [
						{
							"internalType": "uint256",
							"name": "amount",
							"type": "uint256"
						}
					],
					"name": "setExecutionGasRequirement",
					"outputs": [],
					"stateMutability": "nonpayable",
					"type": "function"
				},
				{
					"inputs": [
						{
							"internalType": "uint256",
							"name": "amount",
							"type": "uint256"
						}
					],
					"name": "setserviceFee",
					"outputs": [],
					"stateMutability": "nonpayable",
					"type": "function"
				},
				{
					"inputs": [
						{
							"internalType": "address",
							"name": "newOwner",
							"type": "address"
						}
					],
					"name": "transferOwnership",
					"outputs": [],
					"stateMutability": "nonpayable",
					"type": "function"
				},
				{
					"inputs": [
						{
							"internalType": "uint256",
							"name": "requestId",
							"type": "uint256"
						}
					],
					"name": "withdraw",
					"outputs": [],
					"stateMutability": "nonpayable",
					"type": "function"
				}
			],
			"devdoc": {
				"custom:security-contact": "bridge-when-cheap@gmail.com",
				"kind": "dev",
				"methods": {
					"owner()": {
						"details": "Returns the address of the current owner."
					},
					"renounceOwnership()": {
						"details": "Leaves the contract without owner. It will not be possible to call `onlyOwner` functions anymore. Can only be called by the current owner. NOTE: Renouncing ownership will leave the contract without an owner, thereby removing any functionality that is only available to the owner."
					},
					"transferOwnership(address)": {
						"details": "Transfers ownership of the contract to a new account (`newOwner`). Can only be called by the current owner."
					}
				},
				"version": 1
			},
			"evm": {
				"assembly": "    /* \"solidity/contracts/BridgewhenCheap.sol\":696:7522  contract BridgeWhenCheap is Ownable, ReentrancyGuard {... */\n  mstore(0x40, 0x80)\n    /* \"solidity/contracts/BridgewhenCheap.sol\":1945:2362  constructor(... */\n  callvalue\n  dup1\n  iszero\n  tag_1\n  jumpi\n  0x00\n  dup1\n  revert\ntag_1:\n  pop\n  mload(0x40)\n  sub(codesize, bytecodeSize)\n  dup1\n  bytecodeSize\n  dup4\n  codecopy\n  dup2\n  dup2\n  add\n  0x40\n  mstore\n  dup2\n  add\n  swap1\n  tag_2\n  swap2\n  swap1\n  tag_3\n  jump\t// in\ntag_2:\n    /* \"@openzeppelin/contracts/access/Ownable.sol\":936:968  _transferOwnership(_msgSender()) */\n  tag_8\n    /* \"@openzeppelin/contracts/access/Ownable.sol\":955:967  _msgSender() */\n  tag_9\n    /* \"@openzeppelin/contracts/access/Ownable.sol\":955:965  _msgSender */\n  shl(0x20, tag_10)\n    /* \"@openzeppelin/contracts/access/Ownable.sol\":955:967  _msgSender() */\n  0x20\n  shr\n  jump\t// in\ntag_9:\n    /* \"@openzeppelin/contracts/access/Ownable.sol\":936:954  _transferOwnership */\n  shl(0x20, tag_11)\n    /* \"@openzeppelin/contracts/access/Ownable.sol\":936:968  _transferOwnership(_msgSender()) */\n  0x20\n  shr\n  jump\t// in\ntag_8:\n    /* \"@openzeppelin/contracts/security/ReentrancyGuard.sol\":1716:1717  1 */\n  0x01\n    /* \"@openzeppelin/contracts/security/ReentrancyGuard.sol\":1821:1828  _status */\n  dup1\n    /* \"@openzeppelin/contracts/security/ReentrancyGuard.sol\":1821:1843  _status = _NOT_ENTERED */\n  dup2\n  swap1\n  sstore\n  pop\n    /* \"solidity/contracts/BridgewhenCheap.sol\":2171:2195  _executionGasRequirement */\n  dup4\n    /* \"solidity/contracts/BridgewhenCheap.sol\":2145:2168  executionGasRequirement */\n  0x02\n    /* \"solidity/contracts/BridgewhenCheap.sol\":2145:2195  executionGasRequirement = _executionGasRequirement */\n  dup2\n  swap1\n  sstore\n  pop\n    /* \"solidity/contracts/BridgewhenCheap.sol\":2218:2229  _serviceFee */\n  dup3\n    /* \"solidity/contracts/BridgewhenCheap.sol\":2205:2215  serviceFee */\n  0x03\n    /* \"solidity/contracts/BridgewhenCheap.sol\":2205:2229  serviceFee = _serviceFee */\n  dup2\n  swap1\n  sstore\n  pop\n    /* \"solidity/contracts/BridgewhenCheap.sol\":2263:2285  _l2HopBridgeAmmWrapper */\n  dup2\n    /* \"solidity/contracts/BridgewhenCheap.sol\":2239:2260  l2HopBridgeAmmWrapper */\n  0x05\n  0x00\n    /* \"solidity/contracts/BridgewhenCheap.sol\":2239:2285  l2HopBridgeAmmWrapper = _l2HopBridgeAmmWrapper */\n  0x0100\n  exp\n  dup2\n  sload\n  dup2\n  0xffffffffffffffffffffffffffffffffffffffff\n  mul\n  not\n  and\n  swap1\n  dup4\n  0xffffffffffffffffffffffffffffffffffffffff\n  and\n  mul\n  or\n  swap1\n  sstore\n  pop\n    /* \"solidity/contracts/BridgewhenCheap.sol\":2311:2325  _layer1ChainId */\n  dup1\n    /* \"solidity/contracts/BridgewhenCheap.sol\":2295:2308  layer1ChainId */\n  0x07\n    /* \"solidity/contracts/BridgewhenCheap.sol\":2295:2325  layer1ChainId = _layer1ChainId */\n  dup2\n  swap1\n  sstore\n  pop\n    /* \"solidity/contracts/BridgewhenCheap.sol\":2335:2355  checkFeeInvariants() */\n  tag_14\n    /* \"solidity/contracts/BridgewhenCheap.sol\":2335:2353  checkFeeInvariants */\n  shl(0x20, tag_15)\n    /* \"solidity/contracts/BridgewhenCheap.sol\":2335:2355  checkFeeInvariants() */\n  0x20\n  shr\n  jump\t// in\ntag_14:\n    /* \"solidity/contracts/BridgewhenCheap.sol\":1945:2362  constructor(... */\n  pop\n  pop\n  pop\n  pop\n    /* \"solidity/contracts/BridgewhenCheap.sol\":696:7522  contract BridgeWhenCheap is Ownable, ReentrancyGuard {... */\n  jump(tag_16)\n    /* \"@openzeppelin/contracts/utils/Context.sol\":640:736  function _msgSender() internal view virtual returns (address) {... */\ntag_10:\n    /* \"@openzeppelin/contracts/utils/Context.sol\":693:700  address */\n  0x00\n    /* \"@openzeppelin/contracts/utils/Context.sol\":719:729  msg.sender */\n  caller\n    /* \"@openzeppelin/contracts/utils/Context.sol\":712:729  return msg.sender */\n  swap1\n  pop\n    /* \"@openzeppelin/contracts/utils/Context.sol\":640:736  function _msgSender() internal view virtual returns (address) {... */\n  swap1\n  jump\t// out\n    /* \"@openzeppelin/contracts/access/Ownable.sol\":2433:2620  function _transferOwnership(address newOwner) internal virtual {... */\ntag_11:\n    /* \"@openzeppelin/contracts/access/Ownable.sol\":2506:2522  address oldOwner */\n  0x00\n    /* \"@openzeppelin/contracts/access/Ownable.sol\":2525:2531  _owner */\n  dup1\n  0x00\n  swap1\n  sload\n  swap1\n  0x0100\n  exp\n  swap1\n  div\n  0xffffffffffffffffffffffffffffffffffffffff\n  and\n    /* \"@openzeppelin/contracts/access/Ownable.sol\":2506:2531  address oldOwner = _owner */\n  swap1\n  pop\n    /* \"@openzeppelin/contracts/access/Ownable.sol\":2550:2558  newOwner */\n  dup2\n    /* \"@openzeppelin/contracts/access/Ownable.sol\":2541:2547  _owner */\n  0x00\n  dup1\n    /* \"@openzeppelin/contracts/access/Ownable.sol\":2541:2558  _owner = newOwner */\n  0x0100\n  exp\n  dup2\n  sload\n  dup2\n  0xffffffffffffffffffffffffffffffffffffffff\n  mul\n  not\n  and\n  swap1\n  dup4\n  0xffffffffffffffffffffffffffffffffffffffff\n  and\n  mul\n  or\n  swap1\n  sstore\n  pop\n    /* \"@openzeppelin/contracts/access/Ownable.sol\":2604:2612  newOwner */\n  dup2\n    /* \"@openzeppelin/contracts/access/Ownable.sol\":2573:2613  OwnershipTransferred(oldOwner, newOwner) */\n  0xffffffffffffffffffffffffffffffffffffffff\n  and\n    /* \"@openzeppelin/contracts/access/Ownable.sol\":2594:2602  oldOwner */\n  dup2\n    /* \"@openzeppelin/contracts/access/Ownable.sol\":2573:2613  OwnershipTransferred(oldOwner, newOwner) */\n  0xffffffffffffffffffffffffffffffffffffffff\n  and\n  0x8be0079c531659141344cd1fd0a4f28419497f9722a3daafe3b4186f6b6457e0\n  mload(0x40)\n  mload(0x40)\n  dup1\n  swap2\n  sub\n  swap1\n  log3\n    /* \"@openzeppelin/contracts/access/Ownable.sol\":2496:2620  {... */\n  pop\n    /* \"@openzeppelin/contracts/access/Ownable.sol\":2433:2620  function _transferOwnership(address newOwner) internal virtual {... */\n  pop\n  jump\t// out\n    /* \"solidity/contracts/BridgewhenCheap.sol\":6984:7156  function checkFeeInvariants() internal view {... */\ntag_15:\n    /* \"solidity/contracts/BridgewhenCheap.sol\":7060:7083  executionGasRequirement */\n  sload(0x02)\n    /* \"solidity/contracts/BridgewhenCheap.sol\":7046:7056  serviceFee */\n  sload(0x03)\n    /* \"solidity/contracts/BridgewhenCheap.sol\":7046:7083  serviceFee >= executionGasRequirement */\n  lt\n  iszero\n    /* \"solidity/contracts/BridgewhenCheap.sol\":7038:7149  require(serviceFee >= executionGasRequirement, \"service fee must cover at least the execution gas requirement\") */\n  tag_20\n  jumpi\n  mload(0x40)\n  0x08c379a000000000000000000000000000000000000000000000000000000000\n  dup2\n  mstore\n  0x04\n  add\n  tag_21\n  swap1\n  tag_22\n  jump\t// in\ntag_21:\n  mload(0x40)\n  dup1\n  swap2\n  sub\n  swap1\n  revert\ntag_20:\n    /* \"solidity/contracts/BridgewhenCheap.sol\":6984:7156  function checkFeeInvariants() internal view {... */\n  jump\t// out\n    /* \"#utility.yul\":88:205   */\ntag_24:\n    /* \"#utility.yul\":197:198   */\n  0x00\n    /* \"#utility.yul\":194:195   */\n  dup1\n    /* \"#utility.yul\":187:199   */\n  revert\n    /* \"#utility.yul\":334:411   */\ntag_26:\n    /* \"#utility.yul\":371:378   */\n  0x00\n    /* \"#utility.yul\":400:405   */\n  dup2\n    /* \"#utility.yul\":389:405   */\n  swap1\n  pop\n    /* \"#utility.yul\":334:411   */\n  swap2\n  swap1\n  pop\n  jump\t// out\n    /* \"#utility.yul\":417:539   */\ntag_27:\n    /* \"#utility.yul\":490:514   */\n  tag_42\n    /* \"#utility.yul\":508:513   */\n  dup2\n    /* \"#utility.yul\":490:514   */\n  tag_26\n  jump\t// in\ntag_42:\n    /* \"#utility.yul\":483:488   */\n  dup2\n    /* \"#utility.yul\":480:515   */\n  eq\n    /* \"#utility.yul\":470:533   */\n  tag_43\n  jumpi\n    /* \"#utility.yul\":529:530   */\n  0x00\n    /* \"#utility.yul\":526:527   */\n  dup1\n    /* \"#utility.yul\":519:531   */\n  revert\n    /* \"#utility.yul\":470:533   */\ntag_43:\n    /* \"#utility.yul\":417:539   */\n  pop\n  jump\t// out\n    /* \"#utility.yul\":545:688   */\ntag_28:\n    /* \"#utility.yul\":602:607   */\n  0x00\n    /* \"#utility.yul\":633:639   */\n  dup2\n    /* \"#utility.yul\":627:640   */\n  mload\n    /* \"#utility.yul\":618:640   */\n  swap1\n  pop\n    /* \"#utility.yul\":649:682   */\n  tag_45\n    /* \"#utility.yul\":676:681   */\n  dup2\n    /* \"#utility.yul\":649:682   */\n  tag_27\n  jump\t// in\ntag_45:\n    /* \"#utility.yul\":545:688   */\n  swap3\n  swap2\n  pop\n  pop\n  jump\t// out\n    /* \"#utility.yul\":694:820   */\ntag_29:\n    /* \"#utility.yul\":731:738   */\n  0x00\n    /* \"#utility.yul\":771:813   */\n  0xffffffffffffffffffffffffffffffffffffffff\n    /* \"#utility.yul\":764:769   */\n  dup3\n    /* \"#utility.yul\":760:814   */\n  and\n    /* \"#utility.yul\":749:814   */\n  swap1\n  pop\n    /* \"#utility.yul\":694:820   */\n  swap2\n  swap1\n  pop\n  jump\t// out\n    /* \"#utility.yul\":826:922   */\ntag_30:\n    /* \"#utility.yul\":863:870   */\n  0x00\n    /* \"#utility.yul\":892:916   */\n  tag_48\n    /* \"#utility.yul\":910:915   */\n  dup3\n    /* \"#utility.yul\":892:916   */\n  tag_29\n  jump\t// in\ntag_48:\n    /* \"#utility.yul\":881:916   */\n  swap1\n  pop\n    /* \"#utility.yul\":826:922   */\n  swap2\n  swap1\n  pop\n  jump\t// out\n    /* \"#utility.yul\":928:1050   */\ntag_31:\n    /* \"#utility.yul\":1001:1025   */\n  tag_50\n    /* \"#utility.yul\":1019:1024   */\n  dup2\n    /* \"#utility.yul\":1001:1025   */\n  tag_30\n  jump\t// in\ntag_50:\n    /* \"#utility.yul\":994:999   */\n  dup2\n    /* \"#utility.yul\":991:1026   */\n  eq\n    /* \"#utility.yul\":981:1044   */\n  tag_51\n  jumpi\n    /* \"#utility.yul\":1040:1041   */\n  0x00\n    /* \"#utility.yul\":1037:1038   */\n  dup1\n    /* \"#utility.yul\":1030:1042   */\n  revert\n    /* \"#utility.yul\":981:1044   */\ntag_51:\n    /* \"#utility.yul\":928:1050   */\n  pop\n  jump\t// out\n    /* \"#utility.yul\":1056:1199   */\ntag_32:\n    /* \"#utility.yul\":1113:1118   */\n  0x00\n    /* \"#utility.yul\":1144:1150   */\n  dup2\n    /* \"#utility.yul\":1138:1151   */\n  mload\n    /* \"#utility.yul\":1129:1151   */\n  swap1\n  pop\n    /* \"#utility.yul\":1160:1193   */\n  tag_53\n    /* \"#utility.yul\":1187:1192   */\n  dup2\n    /* \"#utility.yul\":1160:1193   */\n  tag_31\n  jump\t// in\ntag_53:\n    /* \"#utility.yul\":1056:1199   */\n  swap3\n  swap2\n  pop\n  pop\n  jump\t// out\n    /* \"#utility.yul\":1205:2025   */\ntag_3:\n    /* \"#utility.yul\":1302:1308   */\n  0x00\n    /* \"#utility.yul\":1310:1316   */\n  dup1\n    /* \"#utility.yul\":1318:1324   */\n  0x00\n    /* \"#utility.yul\":1326:1332   */\n  dup1\n    /* \"#utility.yul\":1375:1378   */\n  0x80\n    /* \"#utility.yul\":1363:1372   */\n  dup6\n    /* \"#utility.yul\":1354:1361   */\n  dup8\n    /* \"#utility.yul\":1350:1373   */\n  sub\n    /* \"#utility.yul\":1346:1379   */\n  slt\n    /* \"#utility.yul\":1343:1463   */\n  iszero\n  tag_55\n  jumpi\n    /* \"#utility.yul\":1382:1461   */\n  tag_56\n  tag_24\n  jump\t// in\ntag_56:\n    /* \"#utility.yul\":1343:1463   */\ntag_55:\n    /* \"#utility.yul\":1502:1503   */\n  0x00\n    /* \"#utility.yul\":1527:1591   */\n  tag_57\n    /* \"#utility.yul\":1583:1590   */\n  dup8\n    /* \"#utility.yul\":1574:1580   */\n  dup3\n    /* \"#utility.yul\":1563:1572   */\n  dup9\n    /* \"#utility.yul\":1559:1581   */\n  add\n    /* \"#utility.yul\":1527:1591   */\n  tag_28\n  jump\t// in\ntag_57:\n    /* \"#utility.yul\":1517:1591   */\n  swap5\n  pop\n    /* \"#utility.yul\":1473:1601   */\n  pop\n    /* \"#utility.yul\":1640:1642   */\n  0x20\n    /* \"#utility.yul\":1666:1730   */\n  tag_58\n    /* \"#utility.yul\":1722:1729   */\n  dup8\n    /* \"#utility.yul\":1713:1719   */\n  dup3\n    /* \"#utility.yul\":1702:1711   */\n  dup9\n    /* \"#utility.yul\":1698:1720   */\n  add\n    /* \"#utility.yul\":1666:1730   */\n  tag_28\n  jump\t// in\ntag_58:\n    /* \"#utility.yul\":1656:1730   */\n  swap4\n  pop\n    /* \"#utility.yul\":1611:1740   */\n  pop\n    /* \"#utility.yul\":1779:1781   */\n  0x40\n    /* \"#utility.yul\":1805:1869   */\n  tag_59\n    /* \"#utility.yul\":1861:1868   */\n  dup8\n    /* \"#utility.yul\":1852:1858   */\n  dup3\n    /* \"#utility.yul\":1841:1850   */\n  dup9\n    /* \"#utility.yul\":1837:1859   */\n  add\n    /* \"#utility.yul\":1805:1869   */\n  tag_32\n  jump\t// in\ntag_59:\n    /* \"#utility.yul\":1795:1869   */\n  swap3\n  pop\n    /* \"#utility.yul\":1750:1879   */\n  pop\n    /* \"#utility.yul\":1918:1920   */\n  0x60\n    /* \"#utility.yul\":1944:2008   */\n  tag_60\n    /* \"#utility.yul\":2000:2007   */\n  dup8\n    /* \"#utility.yul\":1991:1997   */\n  dup3\n    /* \"#utility.yul\":1980:1989   */\n  dup9\n    /* \"#utility.yul\":1976:1998   */\n  add\n    /* \"#utility.yul\":1944:2008   */\n  tag_28\n  jump\t// in\ntag_60:\n    /* \"#utility.yul\":1934:2008   */\n  swap2\n  pop\n    /* \"#utility.yul\":1889:2018   */\n  pop\n    /* \"#utility.yul\":1205:2025   */\n  swap3\n  swap6\n  swap2\n  swap5\n  pop\n  swap3\n  pop\n  jump\t// out\n    /* \"#utility.yul\":2031:2200   */\ntag_33:\n    /* \"#utility.yul\":2115:2126   */\n  0x00\n    /* \"#utility.yul\":2149:2155   */\n  dup3\n    /* \"#utility.yul\":2144:2147   */\n  dup3\n    /* \"#utility.yul\":2137:2156   */\n  mstore\n    /* \"#utility.yul\":2189:2193   */\n  0x20\n    /* \"#utility.yul\":2184:2187   */\n  dup3\n    /* \"#utility.yul\":2180:2194   */\n  add\n    /* \"#utility.yul\":2165:2194   */\n  swap1\n  pop\n    /* \"#utility.yul\":2031:2200   */\n  swap3\n  swap2\n  pop\n  pop\n  jump\t// out\n    /* \"#utility.yul\":2206:2454   */\ntag_34:\n    /* \"#utility.yul\":2346:2380   */\n  0x7365727669636520666565206d75737420636f766572206174206c6561737420\n    /* \"#utility.yul\":2342:2343   */\n  0x00\n    /* \"#utility.yul\":2334:2340   */\n  dup3\n    /* \"#utility.yul\":2330:2344   */\n  add\n    /* \"#utility.yul\":2323:2381   */\n  mstore\n    /* \"#utility.yul\":2415:2446   */\n  0x74686520657865637574696f6e2067617320726571756972656d656e74000000\n    /* \"#utility.yul\":2410:2412   */\n  0x20\n    /* \"#utility.yul\":2402:2408   */\n  dup3\n    /* \"#utility.yul\":2398:2413   */\n  add\n    /* \"#utility.yul\":2391:2447   */\n  mstore\n    /* \"#utility.yul\":2206:2454   */\n  pop\n  jump\t// out\n    /* \"#utility.yul\":2460:2826   */\ntag_35:\n    /* \"#utility.yul\":2602:2605   */\n  0x00\n    /* \"#utility.yul\":2623:2690   */\n  tag_64\n    /* \"#utility.yul\":2687:2689   */\n  0x3d\n    /* \"#utility.yul\":2682:2685   */\n  dup4\n    /* \"#utility.yul\":2623:2690   */\n  tag_33\n  jump\t// in\ntag_64:\n    /* \"#utility.yul\":2616:2690   */\n  swap2\n  pop\n    /* \"#utility.yul\":2699:2792   */\n  tag_65\n    /* \"#utility.yul\":2788:2791   */\n  dup3\n    /* \"#utility.yul\":2699:2792   */\n  tag_34\n  jump\t// in\ntag_65:\n    /* \"#utility.yul\":2817:2819   */\n  0x40\n    /* \"#utility.yul\":2812:2815   */\n  dup3\n    /* \"#utility.yul\":2808:2820   */\n  add\n    /* \"#utility.yul\":2801:2820   */\n  swap1\n  pop\n    /* \"#utility.yul\":2460:2826   */\n  swap2\n  swap1\n  pop\n  jump\t// out\n    /* \"#utility.yul\":2832:3251   */\ntag_22:\n    /* \"#utility.yul\":2998:3002   */\n  0x00\n    /* \"#utility.yul\":3036:3038   */\n  0x20\n    /* \"#utility.yul\":3025:3034   */\n  dup3\n    /* \"#utility.yul\":3021:3039   */\n  add\n    /* \"#utility.yul\":3013:3039   */\n  swap1\n  pop\n    /* \"#utility.yul\":3085:3094   */\n  dup2\n    /* \"#utility.yul\":3079:3083   */\n  dup2\n    /* \"#utility.yul\":3075:3095   */\n  sub\n    /* \"#utility.yul\":3071:3072   */\n  0x00\n    /* \"#utility.yul\":3060:3069   */\n  dup4\n    /* \"#utility.yul\":3056:3073   */\n  add\n    /* \"#utility.yul\":3049:3096   */\n  mstore\n    /* \"#utility.yul\":3113:3244   */\n  tag_67\n    /* \"#utility.yul\":3239:3243   */\n  dup2\n    /* \"#utility.yul\":3113:3244   */\n  tag_35\n  jump\t// in\ntag_67:\n    /* \"#utility.yul\":3105:3244   */\n  swap1\n  pop\n    /* \"#utility.yul\":2832:3251   */\n  swap2\n  swap1\n  pop\n  jump\t// out\n    /* \"solidity/contracts/BridgewhenCheap.sol\":696:7522  contract BridgeWhenCheap is Ownable, ReentrancyGuard {... */\ntag_16:\n  dataSize(sub_0)\n  dup1\n  dataOffset(sub_0)\n  0x00\n  codecopy\n  0x00\n  return\nstop\n\nsub_0: assembly {\n        /* \"solidity/contracts/BridgewhenCheap.sol\":696:7522  contract BridgeWhenCheap is Ownable, ReentrancyGuard {... */\n      mstore(0x40, 0x80)\n      jumpi(tag_1, lt(calldatasize, 0x04))\n      shr(0xe0, calldataload(0x00))\n      dup1\n      0x8abdf5aa\n      gt\n      tag_18\n      jumpi\n      dup1\n      0xa191078a\n      gt\n      tag_19\n      jumpi\n      dup1\n      0xa191078a\n      eq\n      tag_14\n      jumpi\n      dup1\n      0xb6502943\n      eq\n      tag_15\n      jumpi\n      dup1\n      0xd043ba19\n      eq\n      tag_16\n      jumpi\n      dup1\n      0xf2fde38b\n      eq\n      tag_17\n      jumpi\n      jump(tag_1)\n    tag_19:\n      dup1\n      0x8abdf5aa\n      eq\n      tag_10\n      jumpi\n      dup1\n      0x8cfff8c3\n      eq\n      tag_11\n      jumpi\n      dup1\n      0x8da5cb5b\n      eq\n      tag_12\n      jumpi\n      dup1\n      0x9ecebe2a\n      eq\n      tag_13\n      jumpi\n      jump(tag_1)\n    tag_18:\n      dup1\n      0x6f0372af\n      gt\n      tag_20\n      jumpi\n      dup1\n      0x6f0372af\n      eq\n      tag_6\n      jumpi\n      dup1\n      0x715018a6\n      eq\n      tag_7\n      jumpi\n      dup1\n      0x7b1aa45f\n      eq\n      tag_8\n      jumpi\n      dup1\n      0x8429b045\n      eq\n      tag_9\n      jumpi\n      jump(tag_1)\n    tag_20:\n      dup1\n      0x25608185\n      eq\n      tag_2\n      jumpi\n      dup1\n      0x2e1a7d4d\n      eq\n      tag_3\n      jumpi\n      dup1\n      0x33f707d1\n      eq\n      tag_4\n      jumpi\n      dup1\n      0x54caef7d\n      eq\n      tag_5\n      jumpi\n    tag_1:\n      0x00\n      dup1\n      revert\n        /* \"solidity/contracts/BridgewhenCheap.sol\":1503:1539  address public l2HopBridgeAmmWrapper */\n    tag_2:\n      callvalue\n      dup1\n      iszero\n      tag_21\n      jumpi\n      0x00\n      dup1\n      revert\n    tag_21:\n      pop\n      tag_22\n      tag_23\n      jump\t// in\n    tag_22:\n      mload(0x40)\n      tag_24\n      swap2\n      swap1\n      tag_25\n      jump\t// in\n    tag_24:\n      mload(0x40)\n      dup1\n      swap2\n      sub\n      swap1\n      return\n        /* \"solidity/contracts/BridgewhenCheap.sol\":4204:4687  function withdraw(uint256 requestId) external nonReentrant {... */\n    tag_3:\n      callvalue\n      dup1\n      iszero\n      tag_26\n      jumpi\n      0x00\n      dup1\n      revert\n    tag_26:\n      pop\n      tag_27\n      0x04\n      dup1\n      calldatasize\n      sub\n      dup2\n      add\n      swap1\n      tag_28\n      swap2\n      swap1\n      tag_29\n      jump\t// in\n    tag_28:\n      tag_30\n      jump\t// in\n    tag_27:\n      stop\n        /* \"solidity/contracts/BridgewhenCheap.sol\":6271:6527  function ownerWithdraw(uint256 amount) external onlyOwner nonReentrant {... */\n    tag_4:\n      callvalue\n      dup1\n      iszero\n      tag_31\n      jumpi\n      0x00\n      dup1\n      revert\n    tag_31:\n      pop\n      tag_32\n      0x04\n      dup1\n      calldatasize\n      sub\n      dup2\n      add\n      swap1\n      tag_33\n      swap2\n      swap1\n      tag_29\n      jump\t// in\n    tag_33:\n      tag_34\n      jump\t// in\n    tag_32:\n      stop\n        /* \"solidity/contracts/BridgewhenCheap.sol\":6650:6800  function setExecutionGasRequirement(uint256 amount) external onlyOwner {... */\n    tag_5:\n      callvalue\n      dup1\n      iszero\n      tag_35\n      jumpi\n      0x00\n      dup1\n      revert\n    tag_35:\n      pop\n      tag_36\n      0x04\n      dup1\n      calldatasize\n      sub\n      dup2\n      add\n      swap1\n      tag_37\n      swap2\n      swap1\n      tag_29\n      jump\t// in\n    tag_37:\n      tag_38\n      jump\t// in\n    tag_36:\n      stop\n        /* \"solidity/contracts/BridgewhenCheap.sol\":2758:4148  function deposit(... */\n    tag_6:\n      tag_39\n      0x04\n      dup1\n      calldatasize\n      sub\n      dup2\n      add\n      swap1\n      tag_40\n      swap2\n      swap1\n      tag_41\n      jump\t// in\n    tag_40:\n      tag_42\n      jump\t// in\n    tag_39:\n      stop\n        /* \"@openzeppelin/contracts/access/Ownable.sol\":1831:1932  function renounceOwnership() public virtual onlyOwner {... */\n    tag_7:\n      callvalue\n      dup1\n      iszero\n      tag_43\n      jumpi\n      0x00\n      dup1\n      revert\n    tag_43:\n      pop\n      tag_44\n      tag_45\n      jump\t// in\n    tag_44:\n      stop\n        /* \"solidity/contracts/BridgewhenCheap.sol\":6211:6265  function ownerDeposit() external payable onlyOwner { } */\n    tag_8:\n      tag_46\n      tag_47\n      jump\t// in\n    tag_46:\n      stop\n        /* \"solidity/contracts/BridgewhenCheap.sol\":933:971  uint256 public executionGasRequirement */\n    tag_9:\n      callvalue\n      dup1\n      iszero\n      tag_48\n      jumpi\n      0x00\n      dup1\n      revert\n    tag_48:\n      pop\n      tag_49\n      tag_50\n      jump\t// in\n    tag_49:\n      mload(0x40)\n      tag_51\n      swap2\n      swap1\n      tag_52\n      jump\t// in\n    tag_51:\n      mload(0x40)\n      dup1\n      swap2\n      sub\n      swap1\n      return\n        /* \"solidity/contracts/BridgewhenCheap.sol\":1161:1186  uint256 public serviceFee */\n    tag_10:\n      callvalue\n      dup1\n      iszero\n      tag_53\n      jumpi\n      0x00\n      dup1\n      revert\n    tag_53:\n      pop\n      tag_54\n      tag_55\n      jump\t// in\n    tag_54:\n      mload(0x40)\n      tag_56\n      swap2\n      swap1\n      tag_52\n      jump\t// in\n    tag_56:\n      mload(0x40)\n      dup1\n      swap2\n      sub\n      swap1\n      return\n        /* \"solidity/contracts/BridgewhenCheap.sol\":1381:1421  uint256 public collectedNonGasServiceFee */\n    tag_11:\n      callvalue\n      dup1\n      iszero\n      tag_57\n      jumpi\n      0x00\n      dup1\n      revert\n    tag_57:\n      pop\n      tag_58\n      tag_59\n      jump\t// in\n    tag_58:\n      mload(0x40)\n      tag_60\n      swap2\n      swap1\n      tag_52\n      jump\t// in\n    tag_60:\n      mload(0x40)\n      dup1\n      swap2\n      sub\n      swap1\n      return\n        /* \"@openzeppelin/contracts/access/Ownable.sol\":1201:1286  function owner() public view virtual returns (address) {... */\n    tag_12:\n      callvalue\n      dup1\n      iszero\n      tag_61\n      jumpi\n      0x00\n      dup1\n      revert\n    tag_61:\n      pop\n      tag_62\n      tag_63\n      jump\t// in\n    tag_62:\n      mload(0x40)\n      tag_64\n      swap2\n      swap1\n      tag_25\n      jump\t// in\n    tag_64:\n      mload(0x40)\n      dup1\n      swap2\n      sub\n      swap1\n      return\n        /* \"solidity/contracts/BridgewhenCheap.sol\":1807:1876  mapping(address => mapping(uint256 => BridgeRequest)) public requests */\n    tag_13:\n      callvalue\n      dup1\n      iszero\n      tag_65\n      jumpi\n      0x00\n      dup1\n      revert\n    tag_65:\n      pop\n      tag_66\n      0x04\n      dup1\n      calldatasize\n      sub\n      dup2\n      add\n      swap1\n      tag_67\n      swap2\n      swap1\n      tag_68\n      jump\t// in\n    tag_67:\n      tag_69\n      jump\t// in\n    tag_66:\n      mload(0x40)\n      tag_70\n      swap6\n      swap5\n      swap4\n      swap3\n      swap2\n      swap1\n      tag_71\n      jump\t// in\n    tag_70:\n      mload(0x40)\n      dup1\n      swap2\n      sub\n      swap1\n      return\n        /* \"solidity/contracts/BridgewhenCheap.sol\":6806:6930  function setserviceFee(uint256 amount) external onlyOwner {... */\n    tag_14:\n      callvalue\n      dup1\n      iszero\n      tag_72\n      jumpi\n      0x00\n      dup1\n      revert\n    tag_72:\n      pop\n      tag_73\n      0x04\n      dup1\n      calldatasize\n      sub\n      dup2\n      add\n      swap1\n      tag_74\n      swap2\n      swap1\n      tag_29\n      jump\t// in\n    tag_74:\n      tag_75\n      jump\t// in\n    tag_73:\n      stop\n        /* \"solidity/contracts/BridgewhenCheap.sol\":1883:1911  uint256 public layer1ChainId */\n    tag_15:\n      callvalue\n      dup1\n      iszero\n      tag_76\n      jumpi\n      0x00\n      dup1\n      revert\n    tag_76:\n      pop\n      tag_77\n      tag_78\n      jump\t// in\n    tag_77:\n      mload(0x40)\n      tag_79\n      swap2\n      swap1\n      tag_52\n      jump\t// in\n    tag_79:\n      mload(0x40)\n      dup1\n      swap2\n      sub\n      swap1\n      return\n        /* \"solidity/contracts/BridgewhenCheap.sol\":4860:6047  function executeRequest(... */\n    tag_16:\n      callvalue\n      dup1\n      iszero\n      tag_80\n      jumpi\n      0x00\n      dup1\n      revert\n    tag_80:\n      pop\n      tag_81\n      0x04\n      dup1\n      calldatasize\n      sub\n      dup2\n      add\n      swap1\n      tag_82\n      swap2\n      swap1\n      tag_83\n      jump\t// in\n    tag_82:\n      tag_84\n      jump\t// in\n    tag_81:\n      stop\n        /* \"@openzeppelin/contracts/access/Ownable.sol\":2081:2279  function transferOwnership(address newOwner) public virtual onlyOwner {... */\n    tag_17:\n      callvalue\n      dup1\n      iszero\n      tag_85\n      jumpi\n      0x00\n      dup1\n      revert\n    tag_85:\n      pop\n      tag_86\n      0x04\n      dup1\n      calldatasize\n      sub\n      dup2\n      add\n      swap1\n      tag_87\n      swap2\n      swap1\n      tag_88\n      jump\t// in\n    tag_87:\n      tag_89\n      jump\t// in\n    tag_86:\n      stop\n        /* \"solidity/contracts/BridgewhenCheap.sol\":1503:1539  address public l2HopBridgeAmmWrapper */\n    tag_23:\n      0x05\n      0x00\n      swap1\n      sload\n      swap1\n      0x0100\n      exp\n      swap1\n      div\n      0xffffffffffffffffffffffffffffffffffffffff\n      and\n      dup2\n      jump\t// out\n        /* \"solidity/contracts/BridgewhenCheap.sol\":4204:4687  function withdraw(uint256 requestId) external nonReentrant {... */\n    tag_30:\n        /* \"@openzeppelin/contracts/security/ReentrancyGuard.sol\":2261:2282  _nonReentrantBefore() */\n      tag_91\n        /* \"@openzeppelin/contracts/security/ReentrancyGuard.sol\":2261:2280  _nonReentrantBefore */\n      tag_92\n        /* \"@openzeppelin/contracts/security/ReentrancyGuard.sol\":2261:2282  _nonReentrantBefore() */\n      jump\t// in\n    tag_91:\n        /* \"solidity/contracts/BridgewhenCheap.sol\":4273:4309  BridgeRequest memory obsoleteRequest */\n      0x00\n        /* \"solidity/contracts/BridgewhenCheap.sol\":4312:4320  requests */\n      0x06\n        /* \"solidity/contracts/BridgewhenCheap.sol\":4312:4332  requests[msg.sender] */\n      0x00\n        /* \"solidity/contracts/BridgewhenCheap.sol\":4321:4331  msg.sender */\n      caller\n        /* \"solidity/contracts/BridgewhenCheap.sol\":4312:4332  requests[msg.sender] */\n      0xffffffffffffffffffffffffffffffffffffffff\n      and\n      0xffffffffffffffffffffffffffffffffffffffff\n      and\n      dup2\n      mstore\n      0x20\n      add\n      swap1\n      dup2\n      mstore\n      0x20\n      add\n      0x00\n      keccak256\n        /* \"solidity/contracts/BridgewhenCheap.sol\":4312:4343  requests[msg.sender][requestId] */\n      0x00\n        /* \"solidity/contracts/BridgewhenCheap.sol\":4333:4342  requestId */\n      dup4\n        /* \"solidity/contracts/BridgewhenCheap.sol\":4312:4343  requests[msg.sender][requestId] */\n      dup2\n      mstore\n      0x20\n      add\n      swap1\n      dup2\n      mstore\n      0x20\n      add\n      0x00\n      keccak256\n        /* \"solidity/contracts/BridgewhenCheap.sol\":4273:4343  BridgeRequest memory obsoleteRequest = requests[msg.sender][requestId] */\n      mload(0x40)\n      dup1\n      0xa0\n      add\n      0x40\n      mstore\n      swap1\n      dup2\n      0x00\n      dup3\n      add\n      0x00\n      swap1\n      sload\n      swap1\n      0x0100\n      exp\n      swap1\n      div\n      0xffffffffffffffffffffffffffffffffffffffff\n      and\n      0xffffffffffffffffffffffffffffffffffffffff\n      and\n      0xffffffffffffffffffffffffffffffffffffffff\n      and\n      dup2\n      mstore\n      0x20\n      add\n      0x01\n      dup3\n      add\n      0x00\n      swap1\n      sload\n      swap1\n      0x0100\n      exp\n      swap1\n      div\n      0xffffffffffffffffffffffffffffffffffffffff\n      and\n      0xffffffffffffffffffffffffffffffffffffffff\n      and\n      0xffffffffffffffffffffffffffffffffffffffff\n      and\n      dup2\n      mstore\n      0x20\n      add\n      0x02\n      dup3\n      add\n      sload\n      dup2\n      mstore\n      0x20\n      add\n      0x03\n      dup3\n      add\n      sload\n      dup2\n      mstore\n      0x20\n      add\n      0x04\n      dup3\n      add\n      sload\n      dup2\n      mstore\n      pop\n      pop\n      swap1\n      pop\n        /* \"solidity/contracts/BridgewhenCheap.sol\":4397:4423  isDefined(obsoleteRequest) */\n      tag_94\n        /* \"solidity/contracts/BridgewhenCheap.sol\":4407:4422  obsoleteRequest */\n      dup2\n        /* \"solidity/contracts/BridgewhenCheap.sol\":4397:4406  isDefined */\n      tag_95\n        /* \"solidity/contracts/BridgewhenCheap.sol\":4397:4423  isDefined(obsoleteRequest) */\n      jump\t// in\n    tag_94:\n        /* \"solidity/contracts/BridgewhenCheap.sol\":4389:4450  require(isDefined(obsoleteRequest), \"No request to withdraw\") */\n      tag_96\n      jumpi\n      mload(0x40)\n      0x08c379a000000000000000000000000000000000000000000000000000000000\n      dup2\n      mstore\n      0x04\n      add\n      tag_97\n      swap1\n      tag_98\n      jump\t// in\n    tag_97:\n      mload(0x40)\n      dup1\n      swap2\n      sub\n      swap1\n      revert\n    tag_96:\n        /* \"solidity/contracts/BridgewhenCheap.sol\":4493:4503  msg.sender */\n      caller\n        /* \"solidity/contracts/BridgewhenCheap.sol\":4467:4503  obsoleteRequest.source == msg.sender */\n      0xffffffffffffffffffffffffffffffffffffffff\n      and\n        /* \"solidity/contracts/BridgewhenCheap.sol\":4467:4482  obsoleteRequest */\n      dup2\n        /* \"solidity/contracts/BridgewhenCheap.sol\":4467:4489  obsoleteRequest.source */\n      0x00\n      add\n      mload\n        /* \"solidity/contracts/BridgewhenCheap.sol\":4467:4503  obsoleteRequest.source == msg.sender */\n      0xffffffffffffffffffffffffffffffffffffffff\n      and\n      eq\n        /* \"solidity/contracts/BridgewhenCheap.sol\":4460:4504  assert(obsoleteRequest.source == msg.sender) */\n      tag_99\n      jumpi\n      tag_100\n      tag_101\n      jump\t// in\n    tag_100:\n    tag_99:\n        /* \"solidity/contracts/BridgewhenCheap.sol\":4522:4530  requests */\n      0x06\n        /* \"solidity/contracts/BridgewhenCheap.sol\":4522:4542  requests[msg.sender] */\n      0x00\n        /* \"solidity/contracts/BridgewhenCheap.sol\":4531:4541  msg.sender */\n      caller\n        /* \"solidity/contracts/BridgewhenCheap.sol\":4522:4542  requests[msg.sender] */\n      0xffffffffffffffffffffffffffffffffffffffff\n      and\n      0xffffffffffffffffffffffffffffffffffffffff\n      and\n      dup2\n      mstore\n      0x20\n      add\n      swap1\n      dup2\n      mstore\n      0x20\n      add\n      0x00\n      keccak256\n        /* \"solidity/contracts/BridgewhenCheap.sol\":4522:4553  requests[msg.sender][requestId] */\n      0x00\n        /* \"solidity/contracts/BridgewhenCheap.sol\":4543:4552  requestId */\n      dup4\n        /* \"solidity/contracts/BridgewhenCheap.sol\":4522:4553  requests[msg.sender][requestId] */\n      dup2\n      mstore\n      0x20\n      add\n      swap1\n      dup2\n      mstore\n      0x20\n      add\n      0x00\n      keccak256\n      0x00\n        /* \"solidity/contracts/BridgewhenCheap.sol\":4515:4553  delete requests[msg.sender][requestId] */\n      dup1\n      dup3\n      add\n      exp(0x0100, 0x00)\n      dup2\n      sload\n      swap1\n      0xffffffffffffffffffffffffffffffffffffffff\n      mul\n      not\n      and\n      swap1\n      sstore\n      0x01\n      dup3\n      add\n      exp(0x0100, 0x00)\n      dup2\n      sload\n      swap1\n      0xffffffffffffffffffffffffffffffffffffffff\n      mul\n      not\n      and\n      swap1\n      sstore\n      0x02\n      dup3\n      add\n      0x00\n      swap1\n      sstore\n      0x03\n      dup3\n      add\n      0x00\n      swap1\n      sstore\n      0x04\n      dup3\n      add\n      0x00\n      swap1\n      sstore\n      pop\n      pop\n        /* \"solidity/contracts/BridgewhenCheap.sol\":4581:4591  msg.sender */\n      caller\n        /* \"solidity/contracts/BridgewhenCheap.sol\":4573:4597  payable(msg.sender).send */\n      0xffffffffffffffffffffffffffffffffffffffff\n      and\n        /* \"solidity/contracts/BridgewhenCheap.sol\":4573:4621  payable(msg.sender).send(obsoleteRequest.amount) */\n      0x08fc\n        /* \"solidity/contracts/BridgewhenCheap.sol\":4598:4613  obsoleteRequest */\n      dup3\n        /* \"solidity/contracts/BridgewhenCheap.sol\":4598:4620  obsoleteRequest.amount */\n      0x40\n      add\n      mload\n        /* \"solidity/contracts/BridgewhenCheap.sol\":4573:4621  payable(msg.sender).send(obsoleteRequest.amount) */\n      swap1\n      dup2\n      iszero\n      mul\n      swap1\n      mload(0x40)\n      0x00\n      mload(0x40)\n      dup1\n      dup4\n      sub\n      dup2\n      dup6\n      dup9\n      dup9\n      call\n      swap4\n      pop\n      pop\n      pop\n      pop\n        /* \"solidity/contracts/BridgewhenCheap.sol\":4564:4623  require( payable(msg.sender).send(obsoleteRequest.amount) ) */\n      tag_103\n      jumpi\n      0x00\n      dup1\n      revert\n    tag_103:\n        /* \"solidity/contracts/BridgewhenCheap.sol\":4263:4687  {... */\n      pop\n        /* \"@openzeppelin/contracts/security/ReentrancyGuard.sol\":2303:2323  _nonReentrantAfter() */\n      tag_104\n        /* \"@openzeppelin/contracts/security/ReentrancyGuard.sol\":2303:2321  _nonReentrantAfter */\n      tag_105\n        /* \"@openzeppelin/contracts/security/ReentrancyGuard.sol\":2303:2323  _nonReentrantAfter() */\n      jump\t// in\n    tag_104:\n        /* \"solidity/contracts/BridgewhenCheap.sol\":4204:4687  function withdraw(uint256 requestId) external nonReentrant {... */\n      pop\n      jump\t// out\n        /* \"solidity/contracts/BridgewhenCheap.sol\":6271:6527  function ownerWithdraw(uint256 amount) external onlyOwner nonReentrant {... */\n    tag_34:\n        /* \"@openzeppelin/contracts/access/Ownable.sol\":1094:1107  _checkOwner() */\n      tag_107\n        /* \"@openzeppelin/contracts/access/Ownable.sol\":1094:1105  _checkOwner */\n      tag_108\n        /* \"@openzeppelin/contracts/access/Ownable.sol\":1094:1107  _checkOwner() */\n      jump\t// in\n    tag_107:\n        /* \"@openzeppelin/contracts/security/ReentrancyGuard.sol\":2261:2282  _nonReentrantBefore() */\n      tag_110\n        /* \"@openzeppelin/contracts/security/ReentrancyGuard.sol\":2261:2280  _nonReentrantBefore */\n      tag_92\n        /* \"@openzeppelin/contracts/security/ReentrancyGuard.sol\":2261:2282  _nonReentrantBefore() */\n      jump\t// in\n    tag_110:\n        /* \"solidity/contracts/BridgewhenCheap.sol\":6389:6395  amount */\n      dup1\n        /* \"solidity/contracts/BridgewhenCheap.sol\":6360:6385  collectedNonGasServiceFee */\n      sload(0x04)\n        /* \"solidity/contracts/BridgewhenCheap.sol\":6360:6395  collectedNonGasServiceFee >= amount */\n      lt\n      iszero\n        /* \"solidity/contracts/BridgewhenCheap.sol\":6352:6467  require(collectedNonGasServiceFee >= amount, \"Cannot withdraw more funds than the collected non gas service fees.\") */\n      tag_112\n      jumpi\n      mload(0x40)\n      0x08c379a000000000000000000000000000000000000000000000000000000000\n      dup2\n      mstore\n      0x04\n      add\n      tag_113\n      swap1\n      tag_114\n      jump\t// in\n    tag_113:\n      mload(0x40)\n      dup1\n      swap2\n      sub\n      swap1\n      revert\n    tag_112:\n        /* \"solidity/contracts/BridgewhenCheap.sol\":6494:6504  msg.sender */\n      caller\n        /* \"solidity/contracts/BridgewhenCheap.sol\":6486:6510  payable(msg.sender).send */\n      0xffffffffffffffffffffffffffffffffffffffff\n      and\n        /* \"solidity/contracts/BridgewhenCheap.sol\":6486:6518  payable(msg.sender).send(amount) */\n      0x08fc\n        /* \"solidity/contracts/BridgewhenCheap.sol\":6511:6517  amount */\n      dup3\n        /* \"solidity/contracts/BridgewhenCheap.sol\":6486:6518  payable(msg.sender).send(amount) */\n      swap1\n      dup2\n      iszero\n      mul\n      swap1\n      mload(0x40)\n      0x00\n      mload(0x40)\n      dup1\n      dup4\n      sub\n      dup2\n      dup6\n      dup9\n      dup9\n      call\n      swap4\n      pop\n      pop\n      pop\n      pop\n        /* \"solidity/contracts/BridgewhenCheap.sol\":6477:6520  require( payable(msg.sender).send(amount) ) */\n      tag_116\n      jumpi\n      0x00\n      dup1\n      revert\n    tag_116:\n        /* \"@openzeppelin/contracts/security/ReentrancyGuard.sol\":2303:2323  _nonReentrantAfter() */\n      tag_117\n        /* \"@openzeppelin/contracts/security/ReentrancyGuard.sol\":2303:2321  _nonReentrantAfter */\n      tag_105\n        /* \"@openzeppelin/contracts/security/ReentrancyGuard.sol\":2303:2323  _nonReentrantAfter() */\n      jump\t// in\n    tag_117:\n        /* \"solidity/contracts/BridgewhenCheap.sol\":6271:6527  function ownerWithdraw(uint256 amount) external onlyOwner nonReentrant {... */\n      pop\n      jump\t// out\n        /* \"solidity/contracts/BridgewhenCheap.sol\":6650:6800  function setExecutionGasRequirement(uint256 amount) external onlyOwner {... */\n    tag_38:\n        /* \"@openzeppelin/contracts/access/Ownable.sol\":1094:1107  _checkOwner() */\n      tag_119\n        /* \"@openzeppelin/contracts/access/Ownable.sol\":1094:1105  _checkOwner */\n      tag_108\n        /* \"@openzeppelin/contracts/access/Ownable.sol\":1094:1107  _checkOwner() */\n      jump\t// in\n    tag_119:\n        /* \"solidity/contracts/BridgewhenCheap.sol\":6757:6763  amount */\n      dup1\n        /* \"solidity/contracts/BridgewhenCheap.sol\":6731:6754  executionGasRequirement */\n      0x02\n        /* \"solidity/contracts/BridgewhenCheap.sol\":6731:6763  executionGasRequirement = amount */\n      dup2\n      swap1\n      sstore\n      pop\n        /* \"solidity/contracts/BridgewhenCheap.sol\":6773:6793  checkFeeInvariants() */\n      tag_121\n        /* \"solidity/contracts/BridgewhenCheap.sol\":6773:6791  checkFeeInvariants */\n      tag_122\n        /* \"solidity/contracts/BridgewhenCheap.sol\":6773:6793  checkFeeInvariants() */\n      jump\t// in\n    tag_121:\n        /* \"solidity/contracts/BridgewhenCheap.sol\":6650:6800  function setExecutionGasRequirement(uint256 amount) external onlyOwner {... */\n      pop\n      jump\t// out\n        /* \"solidity/contracts/BridgewhenCheap.sol\":2758:4148  function deposit(... */\n    tag_42:\n        /* \"solidity/contracts/BridgewhenCheap.sol\":2958:2959  0 */\n      0x00\n        /* \"solidity/contracts/BridgewhenCheap.sol\":2936:2960  msg.sender != address(0) */\n      0xffffffffffffffffffffffffffffffffffffffff\n      and\n        /* \"solidity/contracts/BridgewhenCheap.sol\":2936:2946  msg.sender */\n      caller\n        /* \"solidity/contracts/BridgewhenCheap.sol\":2936:2960  msg.sender != address(0) */\n      0xffffffffffffffffffffffffffffffffffffffff\n      and\n      sub\n        /* \"solidity/contracts/BridgewhenCheap.sol\":2928:2992  require(msg.sender != address(0), \"Sender may not be 0 address\") */\n      tag_124\n      jumpi\n      mload(0x40)\n      0x08c379a000000000000000000000000000000000000000000000000000000000\n      dup2\n      mstore\n      0x04\n      add\n      tag_125\n      swap1\n      tag_126\n      jump\t// in\n    tag_125:\n      mload(0x40)\n      dup1\n      swap2\n      sub\n      swap1\n      revert\n    tag_124:\n        /* \"solidity/contracts/BridgewhenCheap.sol\":3046:3047  0 */\n      0x00\n        /* \"solidity/contracts/BridgewhenCheap.sol\":3023:3048  destination != address(0) */\n      0xffffffffffffffffffffffffffffffffffffffff\n      and\n        /* \"solidity/contracts/BridgewhenCheap.sol\":3023:3034  destination */\n      dup4\n        /* \"solidity/contracts/BridgewhenCheap.sol\":3023:3048  destination != address(0) */\n      0xffffffffffffffffffffffffffffffffffffffff\n      and\n      sub\n        /* \"solidity/contracts/BridgewhenCheap.sol\":3002:3114  require(... */\n      tag_127\n      jumpi\n      mload(0x40)\n      0x08c379a000000000000000000000000000000000000000000000000000000000\n      dup2\n      mstore\n      0x04\n      add\n      tag_128\n      swap1\n      tag_129\n      jump\t// in\n    tag_128:\n      mload(0x40)\n      dup1\n      swap2\n      sub\n      swap1\n      revert\n    tag_127:\n        /* \"solidity/contracts/BridgewhenCheap.sol\":3164:3165  0 */\n      0x00\n        /* \"solidity/contracts/BridgewhenCheap.sol\":3145:3161  wantedL1GasPrice */\n      dup3\n        /* \"solidity/contracts/BridgewhenCheap.sol\":3145:3165  wantedL1GasPrice > 0 */\n      gt\n        /* \"solidity/contracts/BridgewhenCheap.sol\":3124:3236  require(... */\n      tag_130\n      jumpi\n      mload(0x40)\n      0x08c379a000000000000000000000000000000000000000000000000000000000\n      dup2\n      mstore\n      0x04\n      add\n      tag_131\n      swap1\n      tag_132\n      jump\t// in\n    tag_131:\n      mload(0x40)\n      dup1\n      swap2\n      sub\n      swap1\n      revert\n    tag_130:\n        /* \"solidity/contracts/BridgewhenCheap.sol\":3280:3290  serviceFee */\n      sload(0x03)\n        /* \"solidity/contracts/BridgewhenCheap.sol\":3267:3276  msg.value */\n      callvalue\n        /* \"solidity/contracts/BridgewhenCheap.sol\":3267:3290  msg.value >= serviceFee */\n      lt\n      iszero\n        /* \"solidity/contracts/BridgewhenCheap.sol\":3246:3361  require(... */\n      tag_133\n      jumpi\n      mload(0x40)\n      0x08c379a000000000000000000000000000000000000000000000000000000000\n      dup2\n      mstore\n      0x04\n      add\n      tag_134\n      swap1\n      tag_135\n      jump\t// in\n    tag_134:\n      mload(0x40)\n      dup1\n      swap2\n      sub\n      swap1\n      revert\n    tag_133:\n        /* \"solidity/contracts/BridgewhenCheap.sol\":3372:3390  uint256 sentAmount */\n      0x00\n        /* \"solidity/contracts/BridgewhenCheap.sol\":3405:3415  serviceFee */\n      sload(0x03)\n        /* \"solidity/contracts/BridgewhenCheap.sol\":3393:3402  msg.value */\n      callvalue\n        /* \"solidity/contracts/BridgewhenCheap.sol\":3393:3415  msg.value - serviceFee */\n      tag_136\n      swap2\n      swap1\n      tag_137\n      jump\t// in\n    tag_136:\n        /* \"solidity/contracts/BridgewhenCheap.sol\":3372:3415  uint256 sentAmount = msg.value - serviceFee */\n      swap1\n      pop\n        /* \"solidity/contracts/BridgewhenCheap.sol\":3553:3565  amountOutMin */\n      dup2\n        /* \"solidity/contracts/BridgewhenCheap.sol\":3539:3549  sentAmount */\n      dup2\n        /* \"solidity/contracts/BridgewhenCheap.sol\":3539:3565  sentAmount >= amountOutMin */\n      lt\n      iszero\n        /* \"solidity/contracts/BridgewhenCheap.sol\":3518:3686  require(... */\n      tag_138\n      jumpi\n      mload(0x40)\n      0x08c379a000000000000000000000000000000000000000000000000000000000\n      dup2\n      mstore\n      0x04\n      add\n      tag_139\n      swap1\n      tag_140\n      jump\t// in\n    tag_139:\n      mload(0x40)\n      dup1\n      swap2\n      sub\n      swap1\n      revert\n    tag_138:\n        /* \"solidity/contracts/BridgewhenCheap.sol\":3719:3761  isDefined(requests[msg.sender][requestId]) */\n      tag_141\n        /* \"solidity/contracts/BridgewhenCheap.sol\":3729:3737  requests */\n      0x06\n        /* \"solidity/contracts/BridgewhenCheap.sol\":3729:3749  requests[msg.sender] */\n      0x00\n        /* \"solidity/contracts/BridgewhenCheap.sol\":3738:3748  msg.sender */\n      caller\n        /* \"solidity/contracts/BridgewhenCheap.sol\":3729:3749  requests[msg.sender] */\n      0xffffffffffffffffffffffffffffffffffffffff\n      and\n      0xffffffffffffffffffffffffffffffffffffffff\n      and\n      dup2\n      mstore\n      0x20\n      add\n      swap1\n      dup2\n      mstore\n      0x20\n      add\n      0x00\n      keccak256\n        /* \"solidity/contracts/BridgewhenCheap.sol\":3729:3760  requests[msg.sender][requestId] */\n      0x00\n        /* \"solidity/contracts/BridgewhenCheap.sol\":3750:3759  requestId */\n      dup8\n        /* \"solidity/contracts/BridgewhenCheap.sol\":3729:3760  requests[msg.sender][requestId] */\n      dup2\n      mstore\n      0x20\n      add\n      swap1\n      dup2\n      mstore\n      0x20\n      add\n      0x00\n      keccak256\n        /* \"solidity/contracts/BridgewhenCheap.sol\":3719:3761  isDefined(requests[msg.sender][requestId]) */\n      mload(0x40)\n      dup1\n      0xa0\n      add\n      0x40\n      mstore\n      swap1\n      dup2\n      0x00\n      dup3\n      add\n      0x00\n      swap1\n      sload\n      swap1\n      0x0100\n      exp\n      swap1\n      div\n      0xffffffffffffffffffffffffffffffffffffffff\n      and\n      0xffffffffffffffffffffffffffffffffffffffff\n      and\n      0xffffffffffffffffffffffffffffffffffffffff\n      and\n      dup2\n      mstore\n      0x20\n      add\n      0x01\n      dup3\n      add\n      0x00\n      swap1\n      sload\n      swap1\n      0x0100\n      exp\n      swap1\n      div\n      0xffffffffffffffffffffffffffffffffffffffff\n      and\n      0xffffffffffffffffffffffffffffffffffffffff\n      and\n      0xffffffffffffffffffffffffffffffffffffffff\n      and\n      dup2\n      mstore\n      0x20\n      add\n      0x02\n      dup3\n      add\n      sload\n      dup2\n      mstore\n      0x20\n      add\n      0x03\n      dup3\n      add\n      sload\n      dup2\n      mstore\n      0x20\n      add\n      0x04\n      dup3\n      add\n      sload\n      dup2\n      mstore\n      pop\n      pop\n        /* \"solidity/contracts/BridgewhenCheap.sol\":3719:3728  isDefined */\n      tag_95\n        /* \"solidity/contracts/BridgewhenCheap.sol\":3719:3761  isDefined(requests[msg.sender][requestId]) */\n      jump\t// in\n    tag_141:\n        /* \"solidity/contracts/BridgewhenCheap.sol\":3718:3761  !isDefined(requests[msg.sender][requestId]) */\n      iszero\n        /* \"solidity/contracts/BridgewhenCheap.sol\":3697:3845  require(... */\n      tag_142\n      jumpi\n      mload(0x40)\n      0x08c379a000000000000000000000000000000000000000000000000000000000\n      dup2\n      mstore\n      0x04\n      add\n      tag_143\n      swap1\n      tag_144\n      jump\t// in\n    tag_143:\n      mload(0x40)\n      dup1\n      swap2\n      sub\n      swap1\n      revert\n    tag_142:\n        /* \"solidity/contracts/BridgewhenCheap.sol\":3856:3881  collectNonGasServiceFee() */\n      tag_145\n        /* \"solidity/contracts/BridgewhenCheap.sol\":3856:3879  collectNonGasServiceFee */\n      tag_146\n        /* \"solidity/contracts/BridgewhenCheap.sol\":3856:3881  collectNonGasServiceFee() */\n      jump\t// in\n    tag_145:\n        /* \"solidity/contracts/BridgewhenCheap.sol\":3926:4141  BridgeRequest({... */\n      mload(0x40)\n      dup1\n      0xa0\n      add\n      0x40\n      mstore\n      dup1\n        /* \"solidity/contracts/BridgewhenCheap.sol\":3962:3972  msg.sender */\n      caller\n        /* \"solidity/contracts/BridgewhenCheap.sol\":3926:4141  BridgeRequest({... */\n      0xffffffffffffffffffffffffffffffffffffffff\n      and\n      dup2\n      mstore\n      0x20\n      add\n        /* \"solidity/contracts/BridgewhenCheap.sol\":3999:4010  destination */\n      dup6\n        /* \"solidity/contracts/BridgewhenCheap.sol\":3926:4141  BridgeRequest({... */\n      0xffffffffffffffffffffffffffffffffffffffff\n      and\n      dup2\n      mstore\n      0x20\n      add\n        /* \"solidity/contracts/BridgewhenCheap.sol\":4032:4042  sentAmount */\n      dup3\n        /* \"solidity/contracts/BridgewhenCheap.sol\":3926:4141  BridgeRequest({... */\n      dup2\n      mstore\n      0x20\n      add\n        /* \"solidity/contracts/BridgewhenCheap.sol\":4070:4082  amountOutMin */\n      dup4\n        /* \"solidity/contracts/BridgewhenCheap.sol\":3926:4141  BridgeRequest({... */\n      dup2\n      mstore\n      0x20\n      add\n        /* \"solidity/contracts/BridgewhenCheap.sol\":4114:4130  wantedL1GasPrice */\n      dup5\n        /* \"solidity/contracts/BridgewhenCheap.sol\":3926:4141  BridgeRequest({... */\n      dup2\n      mstore\n      pop\n        /* \"solidity/contracts/BridgewhenCheap.sol\":3892:3900  requests */\n      0x06\n        /* \"solidity/contracts/BridgewhenCheap.sol\":3892:3912  requests[msg.sender] */\n      0x00\n        /* \"solidity/contracts/BridgewhenCheap.sol\":3901:3911  msg.sender */\n      caller\n        /* \"solidity/contracts/BridgewhenCheap.sol\":3892:3912  requests[msg.sender] */\n      0xffffffffffffffffffffffffffffffffffffffff\n      and\n      0xffffffffffffffffffffffffffffffffffffffff\n      and\n      dup2\n      mstore\n      0x20\n      add\n      swap1\n      dup2\n      mstore\n      0x20\n      add\n      0x00\n      keccak256\n        /* \"solidity/contracts/BridgewhenCheap.sol\":3892:3923  requests[msg.sender][requestId] */\n      0x00\n        /* \"solidity/contracts/BridgewhenCheap.sol\":3913:3922  requestId */\n      dup8\n        /* \"solidity/contracts/BridgewhenCheap.sol\":3892:3923  requests[msg.sender][requestId] */\n      dup2\n      mstore\n      0x20\n      add\n      swap1\n      dup2\n      mstore\n      0x20\n      add\n      0x00\n      keccak256\n        /* \"solidity/contracts/BridgewhenCheap.sol\":3892:4141  requests[msg.sender][requestId] = BridgeRequest({... */\n      0x00\n      dup3\n      add\n      mload\n      dup2\n      0x00\n      add\n      exp(0x0100, 0x00)\n      dup2\n      sload\n      dup2\n      0xffffffffffffffffffffffffffffffffffffffff\n      mul\n      not\n      and\n      swap1\n      dup4\n      0xffffffffffffffffffffffffffffffffffffffff\n      and\n      mul\n      or\n      swap1\n      sstore\n      pop\n      0x20\n      dup3\n      add\n      mload\n      dup2\n      0x01\n      add\n      exp(0x0100, 0x00)\n      dup2\n      sload\n      dup2\n      0xffffffffffffffffffffffffffffffffffffffff\n      mul\n      not\n      and\n      swap1\n      dup4\n      0xffffffffffffffffffffffffffffffffffffffff\n      and\n      mul\n      or\n      swap1\n      sstore\n      pop\n      0x40\n      dup3\n      add\n      mload\n      dup2\n      0x02\n      add\n      sstore\n      0x60\n      dup3\n      add\n      mload\n      dup2\n      0x03\n      add\n      sstore\n      0x80\n      dup3\n      add\n      mload\n      dup2\n      0x04\n      add\n      sstore\n      swap1\n      pop\n      pop\n        /* \"solidity/contracts/BridgewhenCheap.sol\":2918:4148  {... */\n      pop\n        /* \"solidity/contracts/BridgewhenCheap.sol\":2758:4148  function deposit(... */\n      pop\n      pop\n      pop\n      pop\n      jump\t// out\n        /* \"@openzeppelin/contracts/access/Ownable.sol\":1831:1932  function renounceOwnership() public virtual onlyOwner {... */\n    tag_45:\n        /* \"@openzeppelin/contracts/access/Ownable.sol\":1094:1107  _checkOwner() */\n      tag_148\n        /* \"@openzeppelin/contracts/access/Ownable.sol\":1094:1105  _checkOwner */\n      tag_108\n        /* \"@openzeppelin/contracts/access/Ownable.sol\":1094:1107  _checkOwner() */\n      jump\t// in\n    tag_148:\n        /* \"@openzeppelin/contracts/access/Ownable.sol\":1895:1925  _transferOwnership(address(0)) */\n      tag_150\n        /* \"@openzeppelin/contracts/access/Ownable.sol\":1922:1923  0 */\n      0x00\n        /* \"@openzeppelin/contracts/access/Ownable.sol\":1895:1913  _transferOwnership */\n      tag_151\n        /* \"@openzeppelin/contracts/access/Ownable.sol\":1895:1925  _transferOwnership(address(0)) */\n      jump\t// in\n    tag_150:\n        /* \"@openzeppelin/contracts/access/Ownable.sol\":1831:1932  function renounceOwnership() public virtual onlyOwner {... */\n      jump\t// out\n        /* \"solidity/contracts/BridgewhenCheap.sol\":6211:6265  function ownerDeposit() external payable onlyOwner { } */\n    tag_47:\n        /* \"@openzeppelin/contracts/access/Ownable.sol\":1094:1107  _checkOwner() */\n      tag_153\n        /* \"@openzeppelin/contracts/access/Ownable.sol\":1094:1105  _checkOwner */\n      tag_108\n        /* \"@openzeppelin/contracts/access/Ownable.sol\":1094:1107  _checkOwner() */\n      jump\t// in\n    tag_153:\n        /* \"solidity/contracts/BridgewhenCheap.sol\":6211:6265  function ownerDeposit() external payable onlyOwner { } */\n      jump\t// out\n        /* \"solidity/contracts/BridgewhenCheap.sol\":933:971  uint256 public executionGasRequirement */\n    tag_50:\n      sload(0x02)\n      dup2\n      jump\t// out\n        /* \"solidity/contracts/BridgewhenCheap.sol\":1161:1186  uint256 public serviceFee */\n    tag_55:\n      sload(0x03)\n      dup2\n      jump\t// out\n        /* \"solidity/contracts/BridgewhenCheap.sol\":1381:1421  uint256 public collectedNonGasServiceFee */\n    tag_59:\n      sload(0x04)\n      dup2\n      jump\t// out\n        /* \"@openzeppelin/contracts/access/Ownable.sol\":1201:1286  function owner() public view virtual returns (address) {... */\n    tag_63:\n        /* \"@openzeppelin/contracts/access/Ownable.sol\":1247:1254  address */\n      0x00\n        /* \"@openzeppelin/contracts/access/Ownable.sol\":1273:1279  _owner */\n      dup1\n      0x00\n      swap1\n      sload\n      swap1\n      0x0100\n      exp\n      swap1\n      div\n      0xffffffffffffffffffffffffffffffffffffffff\n      and\n        /* \"@openzeppelin/contracts/access/Ownable.sol\":1266:1279  return _owner */\n      swap1\n      pop\n        /* \"@openzeppelin/contracts/access/Ownable.sol\":1201:1286  function owner() public view virtual returns (address) {... */\n      swap1\n      jump\t// out\n        /* \"solidity/contracts/BridgewhenCheap.sol\":1807:1876  mapping(address => mapping(uint256 => BridgeRequest)) public requests */\n    tag_69:\n      mstore(0x20, 0x06)\n      dup2\n      0x00\n      mstore\n      mstore(0x20, keccak256(0x00, 0x40))\n      dup1\n      0x00\n      mstore\n      keccak256(0x00, 0x40)\n      0x00\n      swap2\n      pop\n      swap2\n      pop\n      pop\n      dup1\n      0x00\n      add\n      0x00\n      swap1\n      sload\n      swap1\n      0x0100\n      exp\n      swap1\n      div\n      0xffffffffffffffffffffffffffffffffffffffff\n      and\n      swap1\n      dup1\n      0x01\n      add\n      0x00\n      swap1\n      sload\n      swap1\n      0x0100\n      exp\n      swap1\n      div\n      0xffffffffffffffffffffffffffffffffffffffff\n      and\n      swap1\n      dup1\n      0x02\n      add\n      sload\n      swap1\n      dup1\n      0x03\n      add\n      sload\n      swap1\n      dup1\n      0x04\n      add\n      sload\n      swap1\n      pop\n      dup6\n      jump\t// out\n        /* \"solidity/contracts/BridgewhenCheap.sol\":6806:6930  function setserviceFee(uint256 amount) external onlyOwner {... */\n    tag_75:\n        /* \"@openzeppelin/contracts/access/Ownable.sol\":1094:1107  _checkOwner() */\n      tag_157\n        /* \"@openzeppelin/contracts/access/Ownable.sol\":1094:1105  _checkOwner */\n      tag_108\n        /* \"@openzeppelin/contracts/access/Ownable.sol\":1094:1107  _checkOwner() */\n      jump\t// in\n    tag_157:\n        /* \"solidity/contracts/BridgewhenCheap.sol\":6887:6893  amount */\n      dup1\n        /* \"solidity/contracts/BridgewhenCheap.sol\":6874:6884  serviceFee */\n      0x03\n        /* \"solidity/contracts/BridgewhenCheap.sol\":6874:6893  serviceFee = amount */\n      dup2\n      swap1\n      sstore\n      pop\n        /* \"solidity/contracts/BridgewhenCheap.sol\":6903:6923  checkFeeInvariants() */\n      tag_159\n        /* \"solidity/contracts/BridgewhenCheap.sol\":6903:6921  checkFeeInvariants */\n      tag_122\n        /* \"solidity/contracts/BridgewhenCheap.sol\":6903:6923  checkFeeInvariants() */\n      jump\t// in\n    tag_159:\n        /* \"solidity/contracts/BridgewhenCheap.sol\":6806:6930  function setserviceFee(uint256 amount) external onlyOwner {... */\n      pop\n      jump\t// out\n        /* \"solidity/contracts/BridgewhenCheap.sol\":1883:1911  uint256 public layer1ChainId */\n    tag_78:\n      sload(0x07)\n      dup2\n      jump\t// out\n        /* \"solidity/contracts/BridgewhenCheap.sol\":4860:6047  function executeRequest(... */\n    tag_84:\n        /* \"@openzeppelin/contracts/access/Ownable.sol\":1094:1107  _checkOwner() */\n      tag_161\n        /* \"@openzeppelin/contracts/access/Ownable.sol\":1094:1105  _checkOwner */\n      tag_108\n        /* \"@openzeppelin/contracts/access/Ownable.sol\":1094:1107  _checkOwner() */\n      jump\t// in\n    tag_161:\n        /* \"@openzeppelin/contracts/security/ReentrancyGuard.sol\":2261:2282  _nonReentrantBefore() */\n      tag_163\n        /* \"@openzeppelin/contracts/security/ReentrancyGuard.sol\":2261:2280  _nonReentrantBefore */\n      tag_92\n        /* \"@openzeppelin/contracts/security/ReentrancyGuard.sol\":2261:2282  _nonReentrantBefore() */\n      jump\t// in\n    tag_163:\n        /* \"solidity/contracts/BridgewhenCheap.sol\":5264:5303  BridgeRequest memory toBeBridgedRequest */\n      0x00\n        /* \"solidity/contracts/BridgewhenCheap.sol\":5306:5314  requests */\n      0x06\n        /* \"solidity/contracts/BridgewhenCheap.sol\":5306:5325  requests[requestor] */\n      0x00\n        /* \"solidity/contracts/BridgewhenCheap.sol\":5315:5324  requestor */\n      dup10\n        /* \"solidity/contracts/BridgewhenCheap.sol\":5306:5325  requests[requestor] */\n      0xffffffffffffffffffffffffffffffffffffffff\n      and\n      0xffffffffffffffffffffffffffffffffffffffff\n      and\n      dup2\n      mstore\n      0x20\n      add\n      swap1\n      dup2\n      mstore\n      0x20\n      add\n      0x00\n      keccak256\n        /* \"solidity/contracts/BridgewhenCheap.sol\":5306:5336  requests[requestor][requestId] */\n      0x00\n        /* \"solidity/contracts/BridgewhenCheap.sol\":5326:5335  requestId */\n      dup9\n        /* \"solidity/contracts/BridgewhenCheap.sol\":5306:5336  requests[requestor][requestId] */\n      dup2\n      mstore\n      0x20\n      add\n      swap1\n      dup2\n      mstore\n      0x20\n      add\n      0x00\n      keccak256\n        /* \"solidity/contracts/BridgewhenCheap.sol\":5264:5336  BridgeRequest memory toBeBridgedRequest = requests[requestor][requestId] */\n      mload(0x40)\n      dup1\n      0xa0\n      add\n      0x40\n      mstore\n      swap1\n      dup2\n      0x00\n      dup3\n      add\n      0x00\n      swap1\n      sload\n      swap1\n      0x0100\n      exp\n      swap1\n      div\n      0xffffffffffffffffffffffffffffffffffffffff\n      and\n      0xffffffffffffffffffffffffffffffffffffffff\n      and\n      0xffffffffffffffffffffffffffffffffffffffff\n      and\n      dup2\n      mstore\n      0x20\n      add\n      0x01\n      dup3\n      add\n      0x00\n      swap1\n      sload\n      swap1\n      0x0100\n      exp\n      swap1\n      div\n      0xffffffffffffffffffffffffffffffffffffffff\n      and\n      0xffffffffffffffffffffffffffffffffffffffff\n      and\n      0xffffffffffffffffffffffffffffffffffffffff\n      and\n      dup2\n      mstore\n      0x20\n      add\n      0x02\n      dup3\n      add\n      sload\n      dup2\n      mstore\n      0x20\n      add\n      0x03\n      dup3\n      add\n      sload\n      dup2\n      mstore\n      0x20\n      add\n      0x04\n      dup3\n      add\n      sload\n      dup2\n      mstore\n      pop\n      pop\n      swap1\n      pop\n        /* \"solidity/contracts/BridgewhenCheap.sol\":5354:5383  isDefined(toBeBridgedRequest) */\n      tag_165\n        /* \"solidity/contracts/BridgewhenCheap.sol\":5364:5382  toBeBridgedRequest */\n      dup2\n        /* \"solidity/contracts/BridgewhenCheap.sol\":5354:5363  isDefined */\n      tag_95\n        /* \"solidity/contracts/BridgewhenCheap.sol\":5354:5383  isDefined(toBeBridgedRequest) */\n      jump\t// in\n    tag_165:\n        /* \"solidity/contracts/BridgewhenCheap.sol\":5346:5409  require(isDefined(toBeBridgedRequest), \"No request to process\") */\n      tag_166\n      jumpi\n      mload(0x40)\n      0x08c379a000000000000000000000000000000000000000000000000000000000\n      dup2\n      mstore\n      0x04\n      add\n      tag_167\n      swap1\n      tag_168\n      jump\t// in\n    tag_167:\n      mload(0x40)\n      dup1\n      swap2\n      sub\n      swap1\n      revert\n    tag_166:\n        /* \"solidity/contracts/BridgewhenCheap.sol\":5469:5478  bonderFee */\n      dup6\n        /* \"solidity/contracts/BridgewhenCheap.sol\":5440:5458  toBeBridgedRequest */\n      dup2\n        /* \"solidity/contracts/BridgewhenCheap.sol\":5440:5465  toBeBridgedRequest.amount */\n      0x40\n      add\n      mload\n        /* \"solidity/contracts/BridgewhenCheap.sol\":5440:5478  toBeBridgedRequest.amount >= bonderFee */\n      lt\n      iszero\n        /* \"solidity/contracts/BridgewhenCheap.sol\":5419:5536  require(... */\n      tag_169\n      jumpi\n      mload(0x40)\n      0x08c379a000000000000000000000000000000000000000000000000000000000\n      dup2\n      mstore\n      0x04\n      add\n      tag_170\n      swap1\n      tag_171\n      jump\t// in\n    tag_170:\n      mload(0x40)\n      dup1\n      swap2\n      sub\n      swap1\n      revert\n    tag_169:\n        /* \"solidity/contracts/BridgewhenCheap.sol\":5554:5562  requests */\n      0x06\n        /* \"solidity/contracts/BridgewhenCheap.sol\":5554:5573  requests[requestor] */\n      0x00\n        /* \"solidity/contracts/BridgewhenCheap.sol\":5563:5572  requestor */\n      dup10\n        /* \"solidity/contracts/BridgewhenCheap.sol\":5554:5573  requests[requestor] */\n      0xffffffffffffffffffffffffffffffffffffffff\n      and\n      0xffffffffffffffffffffffffffffffffffffffff\n      and\n      dup2\n      mstore\n      0x20\n      add\n      swap1\n      dup2\n      mstore\n      0x20\n      add\n      0x00\n      keccak256\n        /* \"solidity/contracts/BridgewhenCheap.sol\":5554:5584  requests[requestor][requestId] */\n      0x00\n        /* \"solidity/contracts/BridgewhenCheap.sol\":5574:5583  requestId */\n      dup9\n        /* \"solidity/contracts/BridgewhenCheap.sol\":5554:5584  requests[requestor][requestId] */\n      dup2\n      mstore\n      0x20\n      add\n      swap1\n      dup2\n      mstore\n      0x20\n      add\n      0x00\n      keccak256\n      0x00\n        /* \"solidity/contracts/BridgewhenCheap.sol\":5547:5584  delete requests[requestor][requestId] */\n      dup1\n      dup3\n      add\n      exp(0x0100, 0x00)\n      dup2\n      sload\n      swap1\n      0xffffffffffffffffffffffffffffffffffffffff\n      mul\n      not\n      and\n      swap1\n      sstore\n      0x01\n      dup3\n      add\n      exp(0x0100, 0x00)\n      dup2\n      sload\n      swap1\n      0xffffffffffffffffffffffffffffffffffffffff\n      mul\n      not\n      and\n      swap1\n      sstore\n      0x02\n      dup3\n      add\n      0x00\n      swap1\n      sstore\n      0x03\n      dup3\n      add\n      0x00\n      swap1\n      sstore\n      0x04\n      dup3\n      add\n      0x00\n      swap1\n      sstore\n      pop\n      pop\n        /* \"solidity/contracts/BridgewhenCheap.sol\":5654:5664  msg.sender */\n      caller\n        /* \"solidity/contracts/BridgewhenCheap.sol\":5646:5670  payable(msg.sender).send */\n      0xffffffffffffffffffffffffffffffffffffffff\n      and\n        /* \"solidity/contracts/BridgewhenCheap.sol\":5646:5695  payable(msg.sender).send(executionGasRequirement) */\n      0x08fc\n        /* \"solidity/contracts/BridgewhenCheap.sol\":5671:5694  executionGasRequirement */\n      sload(0x02)\n        /* \"solidity/contracts/BridgewhenCheap.sol\":5646:5695  payable(msg.sender).send(executionGasRequirement) */\n      swap1\n      dup2\n      iszero\n      mul\n      swap1\n      mload(0x40)\n      0x00\n      mload(0x40)\n      dup1\n      dup4\n      sub\n      dup2\n      dup6\n      dup9\n      dup9\n      call\n      swap4\n      pop\n      pop\n      pop\n      pop\n        /* \"solidity/contracts/BridgewhenCheap.sol\":5637:5697  require( payable(msg.sender).send(executionGasRequirement) ) */\n      tag_173\n      jumpi\n      0x00\n      dup1\n      revert\n    tag_173:\n        /* \"solidity/contracts/BridgewhenCheap.sol\":5722:5743  l2HopBridgeAmmWrapper */\n      0x05\n      0x00\n      swap1\n      sload\n      swap1\n      0x0100\n      exp\n      swap1\n      div\n      0xffffffffffffffffffffffffffffffffffffffff\n      and\n        /* \"solidity/contracts/BridgewhenCheap.sol\":5708:5756  L2_AmmWrapper(l2HopBridgeAmmWrapper).swapAndSend */\n      0xffffffffffffffffffffffffffffffffffffffff\n      and\n      0xeea0d7b2\n        /* \"solidity/contracts/BridgewhenCheap.sol\":5765:5783  toBeBridgedRequest */\n      dup3\n        /* \"solidity/contracts/BridgewhenCheap.sol\":5765:5790  toBeBridgedRequest.amount */\n      0x40\n      add\n      mload\n        /* \"solidity/contracts/BridgewhenCheap.sol\":5807:5820  layer1ChainId */\n      sload(0x07)\n        /* \"solidity/contracts/BridgewhenCheap.sol\":5834:5852  toBeBridgedRequest */\n      dup5\n        /* \"solidity/contracts/BridgewhenCheap.sol\":5834:5864  toBeBridgedRequest.destination */\n      0x20\n      add\n      mload\n        /* \"solidity/contracts/BridgewhenCheap.sol\":5878:5896  toBeBridgedRequest */\n      dup6\n        /* \"solidity/contracts/BridgewhenCheap.sol\":5878:5903  toBeBridgedRequest.amount */\n      0x40\n      add\n      mload\n        /* \"solidity/contracts/BridgewhenCheap.sol\":5917:5926  bonderFee */\n      dup12\n        /* \"solidity/contracts/BridgewhenCheap.sol\":5940:5952  amountOutMin */\n      dup12\n        /* \"solidity/contracts/BridgewhenCheap.sol\":5966:5974  deadline */\n      dup12\n        /* \"solidity/contracts/BridgewhenCheap.sol\":5988:6004  destAmountOutMin */\n      dup12\n        /* \"solidity/contracts/BridgewhenCheap.sol\":6018:6030  destDeadline */\n      dup12\n        /* \"solidity/contracts/BridgewhenCheap.sol\":5708:6040  L2_AmmWrapper(l2HopBridgeAmmWrapper).swapAndSend{ value: toBeBridgedRequest.amount } (... */\n      mload(0x40)\n      dup11\n      0xffffffff\n      and\n      0xe0\n      shl\n      dup2\n      mstore\n      0x04\n      add\n      tag_174\n      swap9\n      swap8\n      swap7\n      swap6\n      swap5\n      swap4\n      swap3\n      swap2\n      swap1\n      tag_175\n      jump\t// in\n    tag_174:\n      0x00\n      mload(0x40)\n      dup1\n      dup4\n      sub\n      dup2\n      dup6\n      dup9\n      dup1\n      extcodesize\n      iszero\n      dup1\n      iszero\n      tag_176\n      jumpi\n      0x00\n      dup1\n      revert\n    tag_176:\n      pop\n      gas\n      call\n      iszero\n      dup1\n      iszero\n      tag_178\n      jumpi\n      returndatasize\n      0x00\n      dup1\n      returndatacopy\n      revert(0x00, returndatasize)\n    tag_178:\n      pop\n      pop\n      pop\n      pop\n      pop\n        /* \"solidity/contracts/BridgewhenCheap.sol\":5254:6047  {... */\n      pop\n        /* \"@openzeppelin/contracts/security/ReentrancyGuard.sol\":2303:2323  _nonReentrantAfter() */\n      tag_179\n        /* \"@openzeppelin/contracts/security/ReentrancyGuard.sol\":2303:2321  _nonReentrantAfter */\n      tag_105\n        /* \"@openzeppelin/contracts/security/ReentrancyGuard.sol\":2303:2323  _nonReentrantAfter() */\n      jump\t// in\n    tag_179:\n        /* \"solidity/contracts/BridgewhenCheap.sol\":4860:6047  function executeRequest(... */\n      pop\n      pop\n      pop\n      pop\n      pop\n      pop\n      pop\n      jump\t// out\n        /* \"@openzeppelin/contracts/access/Ownable.sol\":2081:2279  function transferOwnership(address newOwner) public virtual onlyOwner {... */\n    tag_89:\n        /* \"@openzeppelin/contracts/access/Ownable.sol\":1094:1107  _checkOwner() */\n      tag_181\n        /* \"@openzeppelin/contracts/access/Ownable.sol\":1094:1105  _checkOwner */\n      tag_108\n        /* \"@openzeppelin/contracts/access/Ownable.sol\":1094:1107  _checkOwner() */\n      jump\t// in\n    tag_181:\n        /* \"@openzeppelin/contracts/access/Ownable.sol\":2189:2190  0 */\n      0x00\n        /* \"@openzeppelin/contracts/access/Ownable.sol\":2169:2191  newOwner != address(0) */\n      0xffffffffffffffffffffffffffffffffffffffff\n      and\n        /* \"@openzeppelin/contracts/access/Ownable.sol\":2169:2177  newOwner */\n      dup2\n        /* \"@openzeppelin/contracts/access/Ownable.sol\":2169:2191  newOwner != address(0) */\n      0xffffffffffffffffffffffffffffffffffffffff\n      and\n      sub\n        /* \"@openzeppelin/contracts/access/Ownable.sol\":2161:2234  require(newOwner != address(0), \"Ownable: new owner is the zero address\") */\n      tag_183\n      jumpi\n      mload(0x40)\n      0x08c379a000000000000000000000000000000000000000000000000000000000\n      dup2\n      mstore\n      0x04\n      add\n      tag_184\n      swap1\n      tag_185\n      jump\t// in\n    tag_184:\n      mload(0x40)\n      dup1\n      swap2\n      sub\n      swap1\n      revert\n    tag_183:\n        /* \"@openzeppelin/contracts/access/Ownable.sol\":2244:2272  _transferOwnership(newOwner) */\n      tag_186\n        /* \"@openzeppelin/contracts/access/Ownable.sol\":2263:2271  newOwner */\n      dup2\n        /* \"@openzeppelin/contracts/access/Ownable.sol\":2244:2262  _transferOwnership */\n      tag_151\n        /* \"@openzeppelin/contracts/access/Ownable.sol\":2244:2272  _transferOwnership(newOwner) */\n      jump\t// in\n    tag_186:\n        /* \"@openzeppelin/contracts/access/Ownable.sol\":2081:2279  function transferOwnership(address newOwner) public virtual onlyOwner {... */\n      pop\n      jump\t// out\n        /* \"@openzeppelin/contracts/security/ReentrancyGuard.sol\":2336:2623  function _nonReentrantBefore() private {... */\n    tag_92:\n        /* \"@openzeppelin/contracts/security/ReentrancyGuard.sol\":1759:1760  2 */\n      0x02\n        /* \"@openzeppelin/contracts/security/ReentrancyGuard.sol\":2468:2475  _status */\n      sload(0x01)\n        /* \"@openzeppelin/contracts/security/ReentrancyGuard.sol\":2468:2487  _status != _ENTERED */\n      sub\n        /* \"@openzeppelin/contracts/security/ReentrancyGuard.sol\":2460:2523  require(_status != _ENTERED, \"ReentrancyGuard: reentrant call\") */\n      tag_188\n      jumpi\n      mload(0x40)\n      0x08c379a000000000000000000000000000000000000000000000000000000000\n      dup2\n      mstore\n      0x04\n      add\n      tag_189\n      swap1\n      tag_190\n      jump\t// in\n    tag_189:\n      mload(0x40)\n      dup1\n      swap2\n      sub\n      swap1\n      revert\n    tag_188:\n        /* \"@openzeppelin/contracts/security/ReentrancyGuard.sol\":1759:1760  2 */\n      0x02\n        /* \"@openzeppelin/contracts/security/ReentrancyGuard.sol\":2598:2605  _status */\n      0x01\n        /* \"@openzeppelin/contracts/security/ReentrancyGuard.sol\":2598:2616  _status = _ENTERED */\n      dup2\n      swap1\n      sstore\n      pop\n        /* \"@openzeppelin/contracts/security/ReentrancyGuard.sol\":2336:2623  function _nonReentrantBefore() private {... */\n      jump\t// out\n        /* \"solidity/contracts/BridgewhenCheap.sol\":7362:7520  function isDefined(BridgeRequest memory request)... */\n    tag_95:\n        /* \"solidity/contracts/BridgewhenCheap.sol\":7458:7462  bool */\n      0x00\n        /* \"solidity/contracts/BridgewhenCheap.sol\":7511:7512  0 */\n      dup1\n        /* \"solidity/contracts/BridgewhenCheap.sol\":7485:7513  request.source != address(0) */\n      0xffffffffffffffffffffffffffffffffffffffff\n      and\n        /* \"solidity/contracts/BridgewhenCheap.sol\":7485:7492  request */\n      dup3\n        /* \"solidity/contracts/BridgewhenCheap.sol\":7485:7499  request.source */\n      0x00\n      add\n      mload\n        /* \"solidity/contracts/BridgewhenCheap.sol\":7485:7513  request.source != address(0) */\n      0xffffffffffffffffffffffffffffffffffffffff\n      and\n      eq\n      iszero\n        /* \"solidity/contracts/BridgewhenCheap.sol\":7478:7513  return request.source != address(0) */\n      swap1\n      pop\n        /* \"solidity/contracts/BridgewhenCheap.sol\":7362:7520  function isDefined(BridgeRequest memory request)... */\n      swap2\n      swap1\n      pop\n      jump\t// out\n        /* \"@openzeppelin/contracts/security/ReentrancyGuard.sol\":2629:2838  function _nonReentrantAfter() private {... */\n    tag_105:\n        /* \"@openzeppelin/contracts/security/ReentrancyGuard.sol\":1716:1717  1 */\n      0x01\n        /* \"@openzeppelin/contracts/security/ReentrancyGuard.sol\":2809:2816  _status */\n      dup1\n        /* \"@openzeppelin/contracts/security/ReentrancyGuard.sol\":2809:2831  _status = _NOT_ENTERED */\n      dup2\n      swap1\n      sstore\n      pop\n        /* \"@openzeppelin/contracts/security/ReentrancyGuard.sol\":2629:2838  function _nonReentrantAfter() private {... */\n      jump\t// out\n        /* \"@openzeppelin/contracts/access/Ownable.sol\":1359:1489  function _checkOwner() internal view virtual {... */\n    tag_108:\n        /* \"@openzeppelin/contracts/access/Ownable.sol\":1433:1445  _msgSender() */\n      tag_194\n        /* \"@openzeppelin/contracts/access/Ownable.sol\":1433:1443  _msgSender */\n      tag_195\n        /* \"@openzeppelin/contracts/access/Ownable.sol\":1433:1445  _msgSender() */\n      jump\t// in\n    tag_194:\n        /* \"@openzeppelin/contracts/access/Ownable.sol\":1422:1445  owner() == _msgSender() */\n      0xffffffffffffffffffffffffffffffffffffffff\n      and\n        /* \"@openzeppelin/contracts/access/Ownable.sol\":1422:1429  owner() */\n      tag_196\n        /* \"@openzeppelin/contracts/access/Ownable.sol\":1422:1427  owner */\n      tag_63\n        /* \"@openzeppelin/contracts/access/Ownable.sol\":1422:1429  owner() */\n      jump\t// in\n    tag_196:\n        /* \"@openzeppelin/contracts/access/Ownable.sol\":1422:1445  owner() == _msgSender() */\n      0xffffffffffffffffffffffffffffffffffffffff\n      and\n      eq\n        /* \"@openzeppelin/contracts/access/Ownable.sol\":1414:1482  require(owner() == _msgSender(), \"Ownable: caller is not the owner\") */\n      tag_197\n      jumpi\n      mload(0x40)\n      0x08c379a000000000000000000000000000000000000000000000000000000000\n      dup2\n      mstore\n      0x04\n      add\n      tag_198\n      swap1\n      tag_199\n      jump\t// in\n    tag_198:\n      mload(0x40)\n      dup1\n      swap2\n      sub\n      swap1\n      revert\n    tag_197:\n        /* \"@openzeppelin/contracts/access/Ownable.sol\":1359:1489  function _checkOwner() internal view virtual {... */\n      jump\t// out\n        /* \"solidity/contracts/BridgewhenCheap.sol\":6984:7156  function checkFeeInvariants() internal view {... */\n    tag_122:\n        /* \"solidity/contracts/BridgewhenCheap.sol\":7060:7083  executionGasRequirement */\n      sload(0x02)\n        /* \"solidity/contracts/BridgewhenCheap.sol\":7046:7056  serviceFee */\n      sload(0x03)\n        /* \"solidity/contracts/BridgewhenCheap.sol\":7046:7083  serviceFee >= executionGasRequirement */\n      lt\n      iszero\n        /* \"solidity/contracts/BridgewhenCheap.sol\":7038:7149  require(serviceFee >= executionGasRequirement, \"service fee must cover at least the execution gas requirement\") */\n      tag_201\n      jumpi\n      mload(0x40)\n      0x08c379a000000000000000000000000000000000000000000000000000000000\n      dup2\n      mstore\n      0x04\n      add\n      tag_202\n      swap1\n      tag_203\n      jump\t// in\n    tag_202:\n      mload(0x40)\n      dup1\n      swap2\n      sub\n      swap1\n      revert\n    tag_201:\n        /* \"solidity/contracts/BridgewhenCheap.sol\":6984:7156  function checkFeeInvariants() internal view {... */\n      jump\t// out\n        /* \"solidity/contracts/BridgewhenCheap.sol\":7162:7288  function collectNonGasServiceFee() internal {... */\n    tag_146:\n        /* \"solidity/contracts/BridgewhenCheap.sol\":7258:7281  executionGasRequirement */\n      sload(0x02)\n        /* \"solidity/contracts/BridgewhenCheap.sol\":7245:7255  serviceFee */\n      sload(0x03)\n        /* \"solidity/contracts/BridgewhenCheap.sol\":7245:7281  serviceFee - executionGasRequirement */\n      tag_205\n      swap2\n      swap1\n      tag_137\n      jump\t// in\n    tag_205:\n        /* \"solidity/contracts/BridgewhenCheap.sol\":7216:7241  collectedNonGasServiceFee */\n      0x04\n      0x00\n        /* \"solidity/contracts/BridgewhenCheap.sol\":7216:7281  collectedNonGasServiceFee += serviceFee - executionGasRequirement */\n      dup3\n      dup3\n      sload\n      tag_206\n      swap2\n      swap1\n      tag_207\n      jump\t// in\n    tag_206:\n      swap3\n      pop\n      pop\n      dup2\n      swap1\n      sstore\n      pop\n        /* \"solidity/contracts/BridgewhenCheap.sol\":7162:7288  function collectNonGasServiceFee() internal {... */\n      jump\t// out\n        /* \"@openzeppelin/contracts/access/Ownable.sol\":2433:2620  function _transferOwnership(address newOwner) internal virtual {... */\n    tag_151:\n        /* \"@openzeppelin/contracts/access/Ownable.sol\":2506:2522  address oldOwner */\n      0x00\n        /* \"@openzeppelin/contracts/access/Ownable.sol\":2525:2531  _owner */\n      dup1\n      0x00\n      swap1\n      sload\n      swap1\n      0x0100\n      exp\n      swap1\n      div\n      0xffffffffffffffffffffffffffffffffffffffff\n      and\n        /* \"@openzeppelin/contracts/access/Ownable.sol\":2506:2531  address oldOwner = _owner */\n      swap1\n      pop\n        /* \"@openzeppelin/contracts/access/Ownable.sol\":2550:2558  newOwner */\n      dup2\n        /* \"@openzeppelin/contracts/access/Ownable.sol\":2541:2547  _owner */\n      0x00\n      dup1\n        /* \"@openzeppelin/contracts/access/Ownable.sol\":2541:2558  _owner = newOwner */\n      0x0100\n      exp\n      dup2\n      sload\n      dup2\n      0xffffffffffffffffffffffffffffffffffffffff\n      mul\n      not\n      and\n      swap1\n      dup4\n      0xffffffffffffffffffffffffffffffffffffffff\n      and\n      mul\n      or\n      swap1\n      sstore\n      pop\n        /* \"@openzeppelin/contracts/access/Ownable.sol\":2604:2612  newOwner */\n      dup2\n        /* \"@openzeppelin/contracts/access/Ownable.sol\":2573:2613  OwnershipTransferred(oldOwner, newOwner) */\n      0xffffffffffffffffffffffffffffffffffffffff\n      and\n        /* \"@openzeppelin/contracts/access/Ownable.sol\":2594:2602  oldOwner */\n      dup2\n        /* \"@openzeppelin/contracts/access/Ownable.sol\":2573:2613  OwnershipTransferred(oldOwner, newOwner) */\n      0xffffffffffffffffffffffffffffffffffffffff\n      and\n      0x8be0079c531659141344cd1fd0a4f28419497f9722a3daafe3b4186f6b6457e0\n      mload(0x40)\n      mload(0x40)\n      dup1\n      swap2\n      sub\n      swap1\n      log3\n        /* \"@openzeppelin/contracts/access/Ownable.sol\":2496:2620  {... */\n      pop\n        /* \"@openzeppelin/contracts/access/Ownable.sol\":2433:2620  function _transferOwnership(address newOwner) internal virtual {... */\n      pop\n      jump\t// out\n        /* \"@openzeppelin/contracts/utils/Context.sol\":640:736  function _msgSender() internal view virtual returns (address) {... */\n    tag_195:\n        /* \"@openzeppelin/contracts/utils/Context.sol\":693:700  address */\n      0x00\n        /* \"@openzeppelin/contracts/utils/Context.sol\":719:729  msg.sender */\n      caller\n        /* \"@openzeppelin/contracts/utils/Context.sol\":712:729  return msg.sender */\n      swap1\n      pop\n        /* \"@openzeppelin/contracts/utils/Context.sol\":640:736  function _msgSender() internal view virtual returns (address) {... */\n      swap1\n      jump\t// out\n        /* \"#utility.yul\":7:133   */\n    tag_210:\n        /* \"#utility.yul\":44:51   */\n      0x00\n        /* \"#utility.yul\":84:126   */\n      0xffffffffffffffffffffffffffffffffffffffff\n        /* \"#utility.yul\":77:82   */\n      dup3\n        /* \"#utility.yul\":73:127   */\n      and\n        /* \"#utility.yul\":62:127   */\n      swap1\n      pop\n        /* \"#utility.yul\":7:133   */\n      swap2\n      swap1\n      pop\n      jump\t// out\n        /* \"#utility.yul\":139:235   */\n    tag_211:\n        /* \"#utility.yul\":176:183   */\n      0x00\n        /* \"#utility.yul\":205:229   */\n      tag_255\n        /* \"#utility.yul\":223:228   */\n      dup3\n        /* \"#utility.yul\":205:229   */\n      tag_210\n      jump\t// in\n    tag_255:\n        /* \"#utility.yul\":194:229   */\n      swap1\n      pop\n        /* \"#utility.yul\":139:235   */\n      swap2\n      swap1\n      pop\n      jump\t// out\n        /* \"#utility.yul\":241:359   */\n    tag_212:\n        /* \"#utility.yul\":328:352   */\n      tag_257\n        /* \"#utility.yul\":346:351   */\n      dup2\n        /* \"#utility.yul\":328:352   */\n      tag_211\n      jump\t// in\n    tag_257:\n        /* \"#utility.yul\":323:326   */\n      dup3\n        /* \"#utility.yul\":316:353   */\n      mstore\n        /* \"#utility.yul\":241:359   */\n      pop\n      pop\n      jump\t// out\n        /* \"#utility.yul\":365:587   */\n    tag_25:\n        /* \"#utility.yul\":458:462   */\n      0x00\n        /* \"#utility.yul\":496:498   */\n      0x20\n        /* \"#utility.yul\":485:494   */\n      dup3\n        /* \"#utility.yul\":481:499   */\n      add\n        /* \"#utility.yul\":473:499   */\n      swap1\n      pop\n        /* \"#utility.yul\":509:580   */\n      tag_259\n        /* \"#utility.yul\":577:578   */\n      0x00\n        /* \"#utility.yul\":566:575   */\n      dup4\n        /* \"#utility.yul\":562:579   */\n      add\n        /* \"#utility.yul\":553:559   */\n      dup5\n        /* \"#utility.yul\":509:580   */\n      tag_212\n      jump\t// in\n    tag_259:\n        /* \"#utility.yul\":365:587   */\n      swap3\n      swap2\n      pop\n      pop\n      jump\t// out\n        /* \"#utility.yul\":674:791   */\n    tag_214:\n        /* \"#utility.yul\":783:784   */\n      0x00\n        /* \"#utility.yul\":780:781   */\n      dup1\n        /* \"#utility.yul\":773:785   */\n      revert\n        /* \"#utility.yul\":920:997   */\n    tag_216:\n        /* \"#utility.yul\":957:964   */\n      0x00\n        /* \"#utility.yul\":986:991   */\n      dup2\n        /* \"#utility.yul\":975:991   */\n      swap1\n      pop\n        /* \"#utility.yul\":920:997   */\n      swap2\n      swap1\n      pop\n      jump\t// out\n        /* \"#utility.yul\":1003:1125   */\n    tag_217:\n        /* \"#utility.yul\":1076:1100   */\n      tag_265\n        /* \"#utility.yul\":1094:1099   */\n      dup2\n        /* \"#utility.yul\":1076:1100   */\n      tag_216\n      jump\t// in\n    tag_265:\n        /* \"#utility.yul\":1069:1074   */\n      dup2\n        /* \"#utility.yul\":1066:1101   */\n      eq\n        /* \"#utility.yul\":1056:1119   */\n      tag_266\n      jumpi\n        /* \"#utility.yul\":1115:1116   */\n      0x00\n        /* \"#utility.yul\":1112:1113   */\n      dup1\n        /* \"#utility.yul\":1105:1117   */\n      revert\n        /* \"#utility.yul\":1056:1119   */\n    tag_266:\n        /* \"#utility.yul\":1003:1125   */\n      pop\n      jump\t// out\n        /* \"#utility.yul\":1131:1270   */\n    tag_218:\n        /* \"#utility.yul\":1177:1182   */\n      0x00\n        /* \"#utility.yul\":1215:1221   */\n      dup2\n        /* \"#utility.yul\":1202:1222   */\n      calldataload\n        /* \"#utility.yul\":1193:1222   */\n      swap1\n      pop\n        /* \"#utility.yul\":1231:1264   */\n      tag_268\n        /* \"#utility.yul\":1258:1263   */\n      dup2\n        /* \"#utility.yul\":1231:1264   */\n      tag_217\n      jump\t// in\n    tag_268:\n        /* \"#utility.yul\":1131:1270   */\n      swap3\n      swap2\n      pop\n      pop\n      jump\t// out\n        /* \"#utility.yul\":1276:1605   */\n    tag_29:\n        /* \"#utility.yul\":1335:1341   */\n      0x00\n        /* \"#utility.yul\":1384:1386   */\n      0x20\n        /* \"#utility.yul\":1372:1381   */\n      dup3\n        /* \"#utility.yul\":1363:1370   */\n      dup5\n        /* \"#utility.yul\":1359:1382   */\n      sub\n        /* \"#utility.yul\":1355:1387   */\n      slt\n        /* \"#utility.yul\":1352:1471   */\n      iszero\n      tag_270\n      jumpi\n        /* \"#utility.yul\":1390:1469   */\n      tag_271\n      tag_214\n      jump\t// in\n    tag_271:\n        /* \"#utility.yul\":1352:1471   */\n    tag_270:\n        /* \"#utility.yul\":1510:1511   */\n      0x00\n        /* \"#utility.yul\":1535:1588   */\n      tag_272\n        /* \"#utility.yul\":1580:1587   */\n      dup5\n        /* \"#utility.yul\":1571:1577   */\n      dup3\n        /* \"#utility.yul\":1560:1569   */\n      dup6\n        /* \"#utility.yul\":1556:1578   */\n      add\n        /* \"#utility.yul\":1535:1588   */\n      tag_218\n      jump\t// in\n    tag_272:\n        /* \"#utility.yul\":1525:1588   */\n      swap2\n      pop\n        /* \"#utility.yul\":1481:1598   */\n      pop\n        /* \"#utility.yul\":1276:1605   */\n      swap3\n      swap2\n      pop\n      pop\n      jump\t// out\n        /* \"#utility.yul\":1611:1733   */\n    tag_219:\n        /* \"#utility.yul\":1684:1708   */\n      tag_274\n        /* \"#utility.yul\":1702:1707   */\n      dup2\n        /* \"#utility.yul\":1684:1708   */\n      tag_211\n      jump\t// in\n    tag_274:\n        /* \"#utility.yul\":1677:1682   */\n      dup2\n        /* \"#utility.yul\":1674:1709   */\n      eq\n        /* \"#utility.yul\":1664:1727   */\n      tag_275\n      jumpi\n        /* \"#utility.yul\":1723:1724   */\n      0x00\n        /* \"#utility.yul\":1720:1721   */\n      dup1\n        /* \"#utility.yul\":1713:1725   */\n      revert\n        /* \"#utility.yul\":1664:1727   */\n    tag_275:\n        /* \"#utility.yul\":1611:1733   */\n      pop\n      jump\t// out\n        /* \"#utility.yul\":1739:1878   */\n    tag_220:\n        /* \"#utility.yul\":1785:1790   */\n      0x00\n        /* \"#utility.yul\":1823:1829   */\n      dup2\n        /* \"#utility.yul\":1810:1830   */\n      calldataload\n        /* \"#utility.yul\":1801:1830   */\n      swap1\n      pop\n        /* \"#utility.yul\":1839:1872   */\n      tag_277\n        /* \"#utility.yul\":1866:1871   */\n      dup2\n        /* \"#utility.yul\":1839:1872   */\n      tag_219\n      jump\t// in\n    tag_277:\n        /* \"#utility.yul\":1739:1878   */\n      swap3\n      swap2\n      pop\n      pop\n      jump\t// out\n        /* \"#utility.yul\":1884:2649   */\n    tag_41:\n        /* \"#utility.yul\":1970:1976   */\n      0x00\n        /* \"#utility.yul\":1978:1984   */\n      dup1\n        /* \"#utility.yul\":1986:1992   */\n      0x00\n        /* \"#utility.yul\":1994:2000   */\n      dup1\n        /* \"#utility.yul\":2043:2046   */\n      0x80\n        /* \"#utility.yul\":2031:2040   */\n      dup6\n        /* \"#utility.yul\":2022:2029   */\n      dup8\n        /* \"#utility.yul\":2018:2041   */\n      sub\n        /* \"#utility.yul\":2014:2047   */\n      slt\n        /* \"#utility.yul\":2011:2131   */\n      iszero\n      tag_279\n      jumpi\n        /* \"#utility.yul\":2050:2129   */\n      tag_280\n      tag_214\n      jump\t// in\n    tag_280:\n        /* \"#utility.yul\":2011:2131   */\n    tag_279:\n        /* \"#utility.yul\":2170:2171   */\n      0x00\n        /* \"#utility.yul\":2195:2248   */\n      tag_281\n        /* \"#utility.yul\":2240:2247   */\n      dup8\n        /* \"#utility.yul\":2231:2237   */\n      dup3\n        /* \"#utility.yul\":2220:2229   */\n      dup9\n        /* \"#utility.yul\":2216:2238   */\n      add\n        /* \"#utility.yul\":2195:2248   */\n      tag_218\n      jump\t// in\n    tag_281:\n        /* \"#utility.yul\":2185:2248   */\n      swap5\n      pop\n        /* \"#utility.yul\":2141:2258   */\n      pop\n        /* \"#utility.yul\":2297:2299   */\n      0x20\n        /* \"#utility.yul\":2323:2376   */\n      tag_282\n        /* \"#utility.yul\":2368:2375   */\n      dup8\n        /* \"#utility.yul\":2359:2365   */\n      dup3\n        /* \"#utility.yul\":2348:2357   */\n      dup9\n        /* \"#utility.yul\":2344:2366   */\n      add\n        /* \"#utility.yul\":2323:2376   */\n      tag_220\n      jump\t// in\n    tag_282:\n        /* \"#utility.yul\":2313:2376   */\n      swap4\n      pop\n        /* \"#utility.yul\":2268:2386   */\n      pop\n        /* \"#utility.yul\":2425:2427   */\n      0x40\n        /* \"#utility.yul\":2451:2504   */\n      tag_283\n        /* \"#utility.yul\":2496:2503   */\n      dup8\n        /* \"#utility.yul\":2487:2493   */\n      dup3\n        /* \"#utility.yul\":2476:2485   */\n      dup9\n        /* \"#utility.yul\":2472:2494   */\n      add\n        /* \"#utility.yul\":2451:2504   */\n      tag_218\n      jump\t// in\n    tag_283:\n        /* \"#utility.yul\":2441:2504   */\n      swap3\n      pop\n        /* \"#utility.yul\":2396:2514   */\n      pop\n        /* \"#utility.yul\":2553:2555   */\n      0x60\n        /* \"#utility.yul\":2579:2632   */\n      tag_284\n        /* \"#utility.yul\":2624:2631   */\n      dup8\n        /* \"#utility.yul\":2615:2621   */\n      dup3\n        /* \"#utility.yul\":2604:2613   */\n      dup9\n        /* \"#utility.yul\":2600:2622   */\n      add\n        /* \"#utility.yul\":2579:2632   */\n      tag_218\n      jump\t// in\n    tag_284:\n        /* \"#utility.yul\":2569:2632   */\n      swap2\n      pop\n        /* \"#utility.yul\":2524:2642   */\n      pop\n        /* \"#utility.yul\":1884:2649   */\n      swap3\n      swap6\n      swap2\n      swap5\n      pop\n      swap3\n      pop\n      jump\t// out\n        /* \"#utility.yul\":2655:2773   */\n    tag_221:\n        /* \"#utility.yul\":2742:2766   */\n      tag_286\n        /* \"#utility.yul\":2760:2765   */\n      dup2\n        /* \"#utility.yul\":2742:2766   */\n      tag_216\n      jump\t// in\n    tag_286:\n        /* \"#utility.yul\":2737:2740   */\n      dup3\n        /* \"#utility.yul\":2730:2767   */\n      mstore\n        /* \"#utility.yul\":2655:2773   */\n      pop\n      pop\n      jump\t// out\n        /* \"#utility.yul\":2779:3001   */\n    tag_52:\n        /* \"#utility.yul\":2872:2876   */\n      0x00\n        /* \"#utility.yul\":2910:2912   */\n      0x20\n        /* \"#utility.yul\":2899:2908   */\n      dup3\n        /* \"#utility.yul\":2895:2913   */\n      add\n        /* \"#utility.yul\":2887:2913   */\n      swap1\n      pop\n        /* \"#utility.yul\":2923:2994   */\n      tag_288\n        /* \"#utility.yul\":2991:2992   */\n      0x00\n        /* \"#utility.yul\":2980:2989   */\n      dup4\n        /* \"#utility.yul\":2976:2993   */\n      add\n        /* \"#utility.yul\":2967:2973   */\n      dup5\n        /* \"#utility.yul\":2923:2994   */\n      tag_221\n      jump\t// in\n    tag_288:\n        /* \"#utility.yul\":2779:3001   */\n      swap3\n      swap2\n      pop\n      pop\n      jump\t// out\n        /* \"#utility.yul\":3007:3481   */\n    tag_68:\n        /* \"#utility.yul\":3075:3081   */\n      0x00\n        /* \"#utility.yul\":3083:3089   */\n      dup1\n        /* \"#utility.yul\":3132:3134   */\n      0x40\n        /* \"#utility.yul\":3120:3129   */\n      dup4\n        /* \"#utility.yul\":3111:3118   */\n      dup6\n        /* \"#utility.yul\":3107:3130   */\n      sub\n        /* \"#utility.yul\":3103:3135   */\n      slt\n        /* \"#utility.yul\":3100:3219   */\n      iszero\n      tag_290\n      jumpi\n        /* \"#utility.yul\":3138:3217   */\n      tag_291\n      tag_214\n      jump\t// in\n    tag_291:\n        /* \"#utility.yul\":3100:3219   */\n    tag_290:\n        /* \"#utility.yul\":3258:3259   */\n      0x00\n        /* \"#utility.yul\":3283:3336   */\n      tag_292\n        /* \"#utility.yul\":3328:3335   */\n      dup6\n        /* \"#utility.yul\":3319:3325   */\n      dup3\n        /* \"#utility.yul\":3308:3317   */\n      dup7\n        /* \"#utility.yul\":3304:3326   */\n      add\n        /* \"#utility.yul\":3283:3336   */\n      tag_220\n      jump\t// in\n    tag_292:\n        /* \"#utility.yul\":3273:3336   */\n      swap3\n      pop\n        /* \"#utility.yul\":3229:3346   */\n      pop\n        /* \"#utility.yul\":3385:3387   */\n      0x20\n        /* \"#utility.yul\":3411:3464   */\n      tag_293\n        /* \"#utility.yul\":3456:3463   */\n      dup6\n        /* \"#utility.yul\":3447:3453   */\n      dup3\n        /* \"#utility.yul\":3436:3445   */\n      dup7\n        /* \"#utility.yul\":3432:3454   */\n      add\n        /* \"#utility.yul\":3411:3464   */\n      tag_218\n      jump\t// in\n    tag_293:\n        /* \"#utility.yul\":3401:3464   */\n      swap2\n      pop\n        /* \"#utility.yul\":3356:3474   */\n      pop\n        /* \"#utility.yul\":3007:3481   */\n      swap3\n      pop\n      swap3\n      swap1\n      pop\n      jump\t// out\n        /* \"#utility.yul\":3487:4151   */\n    tag_71:\n        /* \"#utility.yul\":3692:3696   */\n      0x00\n        /* \"#utility.yul\":3730:3733   */\n      0xa0\n        /* \"#utility.yul\":3719:3728   */\n      dup3\n        /* \"#utility.yul\":3715:3734   */\n      add\n        /* \"#utility.yul\":3707:3734   */\n      swap1\n      pop\n        /* \"#utility.yul\":3744:3815   */\n      tag_295\n        /* \"#utility.yul\":3812:3813   */\n      0x00\n        /* \"#utility.yul\":3801:3810   */\n      dup4\n        /* \"#utility.yul\":3797:3814   */\n      add\n        /* \"#utility.yul\":3788:3794   */\n      dup9\n        /* \"#utility.yul\":3744:3815   */\n      tag_212\n      jump\t// in\n    tag_295:\n        /* \"#utility.yul\":3825:3897   */\n      tag_296\n        /* \"#utility.yul\":3893:3895   */\n      0x20\n        /* \"#utility.yul\":3882:3891   */\n      dup4\n        /* \"#utility.yul\":3878:3896   */\n      add\n        /* \"#utility.yul\":3869:3875   */\n      dup8\n        /* \"#utility.yul\":3825:3897   */\n      tag_212\n      jump\t// in\n    tag_296:\n        /* \"#utility.yul\":3907:3979   */\n      tag_297\n        /* \"#utility.yul\":3975:3977   */\n      0x40\n        /* \"#utility.yul\":3964:3973   */\n      dup4\n        /* \"#utility.yul\":3960:3978   */\n      add\n        /* \"#utility.yul\":3951:3957   */\n      dup7\n        /* \"#utility.yul\":3907:3979   */\n      tag_221\n      jump\t// in\n    tag_297:\n        /* \"#utility.yul\":3989:4061   */\n      tag_298\n        /* \"#utility.yul\":4057:4059   */\n      0x60\n        /* \"#utility.yul\":4046:4055   */\n      dup4\n        /* \"#utility.yul\":4042:4060   */\n      add\n        /* \"#utility.yul\":4033:4039   */\n      dup6\n        /* \"#utility.yul\":3989:4061   */\n      tag_221\n      jump\t// in\n    tag_298:\n        /* \"#utility.yul\":4071:4144   */\n      tag_299\n        /* \"#utility.yul\":4139:4142   */\n      0x80\n        /* \"#utility.yul\":4128:4137   */\n      dup4\n        /* \"#utility.yul\":4124:4143   */\n      add\n        /* \"#utility.yul\":4115:4121   */\n      dup5\n        /* \"#utility.yul\":4071:4144   */\n      tag_221\n      jump\t// in\n    tag_299:\n        /* \"#utility.yul\":3487:4151   */\n      swap7\n      swap6\n      pop\n      pop\n      pop\n      pop\n      pop\n      pop\n      jump\t// out\n        /* \"#utility.yul\":4157:5360   */\n    tag_83:\n        /* \"#utility.yul\":4270:4276   */\n      0x00\n        /* \"#utility.yul\":4278:4284   */\n      dup1\n        /* \"#utility.yul\":4286:4292   */\n      0x00\n        /* \"#utility.yul\":4294:4300   */\n      dup1\n        /* \"#utility.yul\":4302:4308   */\n      0x00\n        /* \"#utility.yul\":4310:4316   */\n      dup1\n        /* \"#utility.yul\":4318:4324   */\n      0x00\n        /* \"#utility.yul\":4367:4370   */\n      0xe0\n        /* \"#utility.yul\":4355:4364   */\n      dup9\n        /* \"#utility.yul\":4346:4353   */\n      dup11\n        /* \"#utility.yul\":4342:4365   */\n      sub\n        /* \"#utility.yul\":4338:4371   */\n      slt\n        /* \"#utility.yul\":4335:4455   */\n      iszero\n      tag_301\n      jumpi\n        /* \"#utility.yul\":4374:4453   */\n      tag_302\n      tag_214\n      jump\t// in\n    tag_302:\n        /* \"#utility.yul\":4335:4455   */\n    tag_301:\n        /* \"#utility.yul\":4494:4495   */\n      0x00\n        /* \"#utility.yul\":4519:4572   */\n      tag_303\n        /* \"#utility.yul\":4564:4571   */\n      dup11\n        /* \"#utility.yul\":4555:4561   */\n      dup3\n        /* \"#utility.yul\":4544:4553   */\n      dup12\n        /* \"#utility.yul\":4540:4562   */\n      add\n        /* \"#utility.yul\":4519:4572   */\n      tag_220\n      jump\t// in\n    tag_303:\n        /* \"#utility.yul\":4509:4572   */\n      swap8\n      pop\n        /* \"#utility.yul\":4465:4582   */\n      pop\n        /* \"#utility.yul\":4621:4623   */\n      0x20\n        /* \"#utility.yul\":4647:4700   */\n      tag_304\n        /* \"#utility.yul\":4692:4699   */\n      dup11\n        /* \"#utility.yul\":4683:4689   */\n      dup3\n        /* \"#utility.yul\":4672:4681   */\n      dup12\n        /* \"#utility.yul\":4668:4690   */\n      add\n        /* \"#utility.yul\":4647:4700   */\n      tag_218\n      jump\t// in\n    tag_304:\n        /* \"#utility.yul\":4637:4700   */\n      swap7\n      pop\n        /* \"#utility.yul\":4592:4710   */\n      pop\n        /* \"#utility.yul\":4749:4751   */\n      0x40\n        /* \"#utility.yul\":4775:4828   */\n      tag_305\n        /* \"#utility.yul\":4820:4827   */\n      dup11\n        /* \"#utility.yul\":4811:4817   */\n      dup3\n        /* \"#utility.yul\":4800:4809   */\n      dup12\n        /* \"#utility.yul\":4796:4818   */\n      add\n        /* \"#utility.yul\":4775:4828   */\n      tag_218\n      jump\t// in\n    tag_305:\n        /* \"#utility.yul\":4765:4828   */\n      swap6\n      pop\n        /* \"#utility.yul\":4720:4838   */\n      pop\n        /* \"#utility.yul\":4877:4879   */\n      0x60\n        /* \"#utility.yul\":4903:4956   */\n      tag_306\n        /* \"#utility.yul\":4948:4955   */\n      dup11\n        /* \"#utility.yul\":4939:4945   */\n      dup3\n        /* \"#utility.yul\":4928:4937   */\n      dup12\n        /* \"#utility.yul\":4924:4946   */\n      add\n        /* \"#utility.yul\":4903:4956   */\n      tag_218\n      jump\t// in\n    tag_306:\n        /* \"#utility.yul\":4893:4956   */\n      swap5\n      pop\n        /* \"#utility.yul\":4848:4966   */\n      pop\n        /* \"#utility.yul\":5005:5008   */\n      0x80\n        /* \"#utility.yul\":5032:5085   */\n      tag_307\n        /* \"#utility.yul\":5077:5084   */\n      dup11\n        /* \"#utility.yul\":5068:5074   */\n      dup3\n        /* \"#utility.yul\":5057:5066   */\n      dup12\n        /* \"#utility.yul\":5053:5075   */\n      add\n        /* \"#utility.yul\":5032:5085   */\n      tag_218\n      jump\t// in\n    tag_307:\n        /* \"#utility.yul\":5022:5085   */\n      swap4\n      pop\n        /* \"#utility.yul\":4976:5095   */\n      pop\n        /* \"#utility.yul\":5134:5137   */\n      0xa0\n        /* \"#utility.yul\":5161:5214   */\n      tag_308\n        /* \"#utility.yul\":5206:5213   */\n      dup11\n        /* \"#utility.yul\":5197:5203   */\n      dup3\n        /* \"#utility.yul\":5186:5195   */\n      dup12\n        /* \"#utility.yul\":5182:5204   */\n      add\n        /* \"#utility.yul\":5161:5214   */\n      tag_218\n      jump\t// in\n    tag_308:\n        /* \"#utility.yul\":5151:5214   */\n      swap3\n      pop\n        /* \"#utility.yul\":5105:5224   */\n      pop\n        /* \"#utility.yul\":5263:5266   */\n      0xc0\n        /* \"#utility.yul\":5290:5343   */\n      tag_309\n        /* \"#utility.yul\":5335:5342   */\n      dup11\n        /* \"#utility.yul\":5326:5332   */\n      dup3\n        /* \"#utility.yul\":5315:5324   */\n      dup12\n        /* \"#utility.yul\":5311:5333   */\n      add\n        /* \"#utility.yul\":5290:5343   */\n      tag_218\n      jump\t// in\n    tag_309:\n        /* \"#utility.yul\":5280:5343   */\n      swap2\n      pop\n        /* \"#utility.yul\":5234:5353   */\n      pop\n        /* \"#utility.yul\":4157:5360   */\n      swap3\n      swap6\n      swap9\n      swap2\n      swap5\n      swap8\n      pop\n      swap3\n      swap6\n      pop\n      jump\t// out\n        /* \"#utility.yul\":5366:5695   */\n    tag_88:\n        /* \"#utility.yul\":5425:5431   */\n      0x00\n        /* \"#utility.yul\":5474:5476   */\n      0x20\n        /* \"#utility.yul\":5462:5471   */\n      dup3\n        /* \"#utility.yul\":5453:5460   */\n      dup5\n        /* \"#utility.yul\":5449:5472   */\n      sub\n        /* \"#utility.yul\":5445:5477   */\n      slt\n        /* \"#utility.yul\":5442:5561   */\n      iszero\n      tag_311\n      jumpi\n        /* \"#utility.yul\":5480:5559   */\n      tag_312\n      tag_214\n      jump\t// in\n    tag_312:\n        /* \"#utility.yul\":5442:5561   */\n    tag_311:\n        /* \"#utility.yul\":5600:5601   */\n      0x00\n        /* \"#utility.yul\":5625:5678   */\n      tag_313\n        /* \"#utility.yul\":5670:5677   */\n      dup5\n        /* \"#utility.yul\":5661:5667   */\n      dup3\n        /* \"#utility.yul\":5650:5659   */\n      dup6\n        /* \"#utility.yul\":5646:5668   */\n      add\n        /* \"#utility.yul\":5625:5678   */\n      tag_220\n      jump\t// in\n    tag_313:\n        /* \"#utility.yul\":5615:5678   */\n      swap2\n      pop\n        /* \"#utility.yul\":5571:5688   */\n      pop\n        /* \"#utility.yul\":5366:5695   */\n      swap3\n      swap2\n      pop\n      pop\n      jump\t// out\n        /* \"#utility.yul\":5701:5870   */\n    tag_222:\n        /* \"#utility.yul\":5785:5796   */\n      0x00\n        /* \"#utility.yul\":5819:5825   */\n      dup3\n        /* \"#utility.yul\":5814:5817   */\n      dup3\n        /* \"#utility.yul\":5807:5826   */\n      mstore\n        /* \"#utility.yul\":5859:5863   */\n      0x20\n        /* \"#utility.yul\":5854:5857   */\n      dup3\n        /* \"#utility.yul\":5850:5864   */\n      add\n        /* \"#utility.yul\":5835:5864   */\n      swap1\n      pop\n        /* \"#utility.yul\":5701:5870   */\n      swap3\n      swap2\n      pop\n      pop\n      jump\t// out\n        /* \"#utility.yul\":5876:6048   */\n    tag_223:\n        /* \"#utility.yul\":6016:6040   */\n      0x4e6f207265717565737420746f20776974686472617700000000000000000000\n        /* \"#utility.yul\":6012:6013   */\n      0x00\n        /* \"#utility.yul\":6004:6010   */\n      dup3\n        /* \"#utility.yul\":6000:6014   */\n      add\n        /* \"#utility.yul\":5993:6041   */\n      mstore\n        /* \"#utility.yul\":5876:6048   */\n      pop\n      jump\t// out\n        /* \"#utility.yul\":6054:6420   */\n    tag_224:\n        /* \"#utility.yul\":6196:6199   */\n      0x00\n        /* \"#utility.yul\":6217:6284   */\n      tag_317\n        /* \"#utility.yul\":6281:6283   */\n      0x16\n        /* \"#utility.yul\":6276:6279   */\n      dup4\n        /* \"#utility.yul\":6217:6284   */\n      tag_222\n      jump\t// in\n    tag_317:\n        /* \"#utility.yul\":6210:6284   */\n      swap2\n      pop\n        /* \"#utility.yul\":6293:6386   */\n      tag_318\n        /* \"#utility.yul\":6382:6385   */\n      dup3\n        /* \"#utility.yul\":6293:6386   */\n      tag_223\n      jump\t// in\n    tag_318:\n        /* \"#utility.yul\":6411:6413   */\n      0x20\n        /* \"#utility.yul\":6406:6409   */\n      dup3\n        /* \"#utility.yul\":6402:6414   */\n      add\n        /* \"#utility.yul\":6395:6414   */\n      swap1\n      pop\n        /* \"#utility.yul\":6054:6420   */\n      swap2\n      swap1\n      pop\n      jump\t// out\n        /* \"#utility.yul\":6426:6845   */\n    tag_98:\n        /* \"#utility.yul\":6592:6596   */\n      0x00\n        /* \"#utility.yul\":6630:6632   */\n      0x20\n        /* \"#utility.yul\":6619:6628   */\n      dup3\n        /* \"#utility.yul\":6615:6633   */\n      add\n        /* \"#utility.yul\":6607:6633   */\n      swap1\n      pop\n        /* \"#utility.yul\":6679:6688   */\n      dup2\n        /* \"#utility.yul\":6673:6677   */\n      dup2\n        /* \"#utility.yul\":6669:6689   */\n      sub\n        /* \"#utility.yul\":6665:6666   */\n      0x00\n        /* \"#utility.yul\":6654:6663   */\n      dup4\n        /* \"#utility.yul\":6650:6667   */\n      add\n        /* \"#utility.yul\":6643:6690   */\n      mstore\n        /* \"#utility.yul\":6707:6838   */\n      tag_320\n        /* \"#utility.yul\":6833:6837   */\n      dup2\n        /* \"#utility.yul\":6707:6838   */\n      tag_224\n      jump\t// in\n    tag_320:\n        /* \"#utility.yul\":6699:6838   */\n      swap1\n      pop\n        /* \"#utility.yul\":6426:6845   */\n      swap2\n      swap1\n      pop\n      jump\t// out\n        /* \"#utility.yul\":6851:7031   */\n    tag_101:\n        /* \"#utility.yul\":6899:6976   */\n      0x4e487b7100000000000000000000000000000000000000000000000000000000\n        /* \"#utility.yul\":6896:6897   */\n      0x00\n        /* \"#utility.yul\":6889:6977   */\n      mstore\n        /* \"#utility.yul\":6996:7000   */\n      0x01\n        /* \"#utility.yul\":6993:6994   */\n      0x04\n        /* \"#utility.yul\":6986:7001   */\n      mstore\n        /* \"#utility.yul\":7020:7024   */\n      0x24\n        /* \"#utility.yul\":7017:7018   */\n      0x00\n        /* \"#utility.yul\":7010:7025   */\n      revert\n        /* \"#utility.yul\":7037:7328   */\n    tag_225:\n        /* \"#utility.yul\":7177:7211   */\n      0x43616e6e6f74207769746864726177206d6f72652066756e6473207468616e20\n        /* \"#utility.yul\":7173:7174   */\n      0x00\n        /* \"#utility.yul\":7165:7171   */\n      dup3\n        /* \"#utility.yul\":7161:7175   */\n      add\n        /* \"#utility.yul\":7154:7212   */\n      mstore\n        /* \"#utility.yul\":7246:7280   */\n      0x74686520636f6c6c6563746564206e6f6e206761732073657276696365206665\n        /* \"#utility.yul\":7241:7243   */\n      0x20\n        /* \"#utility.yul\":7233:7239   */\n      dup3\n        /* \"#utility.yul\":7229:7244   */\n      add\n        /* \"#utility.yul\":7222:7281   */\n      mstore\n        /* \"#utility.yul\":7315:7320   */\n      0x65732e0000000000000000000000000000000000000000000000000000000000\n        /* \"#utility.yul\":7310:7312   */\n      0x40\n        /* \"#utility.yul\":7302:7308   */\n      dup3\n        /* \"#utility.yul\":7298:7313   */\n      add\n        /* \"#utility.yul\":7291:7321   */\n      mstore\n        /* \"#utility.yul\":7037:7328   */\n      pop\n      jump\t// out\n        /* \"#utility.yul\":7334:7700   */\n    tag_226:\n        /* \"#utility.yul\":7476:7479   */\n      0x00\n        /* \"#utility.yul\":7497:7564   */\n      tag_324\n        /* \"#utility.yul\":7561:7563   */\n      0x43\n        /* \"#utility.yul\":7556:7559   */\n      dup4\n        /* \"#utility.yul\":7497:7564   */\n      tag_222\n      jump\t// in\n    tag_324:\n        /* \"#utility.yul\":7490:7564   */\n      swap2\n      pop\n        /* \"#utility.yul\":7573:7666   */\n      tag_325\n        /* \"#utility.yul\":7662:7665   */\n      dup3\n        /* \"#utility.yul\":7573:7666   */\n      tag_225\n      jump\t// in\n    tag_325:\n        /* \"#utility.yul\":7691:7693   */\n      0x60\n        /* \"#utility.yul\":7686:7689   */\n      dup3\n        /* \"#utility.yul\":7682:7694   */\n      add\n        /* \"#utility.yul\":7675:7694   */\n      swap1\n      pop\n        /* \"#utility.yul\":7334:7700   */\n      swap2\n      swap1\n      pop\n      jump\t// out\n        /* \"#utility.yul\":7706:8125   */\n    tag_114:\n        /* \"#utility.yul\":7872:7876   */\n      0x00\n        /* \"#utility.yul\":7910:7912   */\n      0x20\n        /* \"#utility.yul\":7899:7908   */\n      dup3\n        /* \"#utility.yul\":7895:7913   */\n      add\n        /* \"#utility.yul\":7887:7913   */\n      swap1\n      pop\n        /* \"#utility.yul\":7959:7968   */\n      dup2\n        /* \"#utility.yul\":7953:7957   */\n      dup2\n        /* \"#utility.yul\":7949:7969   */\n      sub\n        /* \"#utility.yul\":7945:7946   */\n      0x00\n        /* \"#utility.yul\":7934:7943   */\n      dup4\n        /* \"#utility.yul\":7930:7947   */\n      add\n        /* \"#utility.yul\":7923:7970   */\n      mstore\n        /* \"#utility.yul\":7987:8118   */\n      tag_327\n        /* \"#utility.yul\":8113:8117   */\n      dup2\n        /* \"#utility.yul\":7987:8118   */\n      tag_226\n      jump\t// in\n    tag_327:\n        /* \"#utility.yul\":7979:8118   */\n      swap1\n      pop\n        /* \"#utility.yul\":7706:8125   */\n      swap2\n      swap1\n      pop\n      jump\t// out\n        /* \"#utility.yul\":8131:8308   */\n    tag_227:\n        /* \"#utility.yul\":8271:8300   */\n      0x53656e646572206d6179206e6f74206265203020616464726573730000000000\n        /* \"#utility.yul\":8267:8268   */\n      0x00\n        /* \"#utility.yul\":8259:8265   */\n      dup3\n        /* \"#utility.yul\":8255:8269   */\n      add\n        /* \"#utility.yul\":8248:8301   */\n      mstore\n        /* \"#utility.yul\":8131:8308   */\n      pop\n      jump\t// out\n        /* \"#utility.yul\":8314:8680   */\n    tag_228:\n        /* \"#utility.yul\":8456:8459   */\n      0x00\n        /* \"#utility.yul\":8477:8544   */\n      tag_330\n        /* \"#utility.yul\":8541:8543   */\n      0x1b\n        /* \"#utility.yul\":8536:8539   */\n      dup4\n        /* \"#utility.yul\":8477:8544   */\n      tag_222\n      jump\t// in\n    tag_330:\n        /* \"#utility.yul\":8470:8544   */\n      swap2\n      pop\n        /* \"#utility.yul\":8553:8646   */\n      tag_331\n        /* \"#utility.yul\":8642:8645   */\n      dup3\n        /* \"#utility.yul\":8553:8646   */\n      tag_227\n      jump\t// in\n    tag_331:\n        /* \"#utility.yul\":8671:8673   */\n      0x20\n        /* \"#utility.yul\":8666:8669   */\n      dup3\n        /* \"#utility.yul\":8662:8674   */\n      add\n        /* \"#utility.yul\":8655:8674   */\n      swap1\n      pop\n        /* \"#utility.yul\":8314:8680   */\n      swap2\n      swap1\n      pop\n      jump\t// out\n        /* \"#utility.yul\":8686:9105   */\n    tag_126:\n        /* \"#utility.yul\":8852:8856   */\n      0x00\n        /* \"#utility.yul\":8890:8892   */\n      0x20\n        /* \"#utility.yul\":8879:8888   */\n      dup3\n        /* \"#utility.yul\":8875:8893   */\n      add\n        /* \"#utility.yul\":8867:8893   */\n      swap1\n      pop\n        /* \"#utility.yul\":8939:8948   */\n      dup2\n        /* \"#utility.yul\":8933:8937   */\n      dup2\n        /* \"#utility.yul\":8929:8949   */\n      sub\n        /* \"#utility.yul\":8925:8926   */\n      0x00\n        /* \"#utility.yul\":8914:8923   */\n      dup4\n        /* \"#utility.yul\":8910:8927   */\n      add\n        /* \"#utility.yul\":8903:8950   */\n      mstore\n        /* \"#utility.yul\":8967:9098   */\n      tag_333\n        /* \"#utility.yul\":9093:9097   */\n      dup2\n        /* \"#utility.yul\":8967:9098   */\n      tag_228\n      jump\t// in\n    tag_333:\n        /* \"#utility.yul\":8959:9098   */\n      swap1\n      pop\n        /* \"#utility.yul\":8686:9105   */\n      swap2\n      swap1\n      pop\n      jump\t// out\n        /* \"#utility.yul\":9111:9338   */\n    tag_229:\n        /* \"#utility.yul\":9251:9285   */\n      0x44657374696e6174696f6e2061646472657373206d6179206e6f742062652030\n        /* \"#utility.yul\":9247:9248   */\n      0x00\n        /* \"#utility.yul\":9239:9245   */\n      dup3\n        /* \"#utility.yul\":9235:9249   */\n      add\n        /* \"#utility.yul\":9228:9286   */\n      mstore\n        /* \"#utility.yul\":9320:9330   */\n      0x2061646472657373000000000000000000000000000000000000000000000000\n        /* \"#utility.yul\":9315:9317   */\n      0x20\n        /* \"#utility.yul\":9307:9313   */\n      dup3\n        /* \"#utility.yul\":9303:9318   */\n      add\n        /* \"#utility.yul\":9296:9331   */\n      mstore\n        /* \"#utility.yul\":9111:9338   */\n      pop\n      jump\t// out\n        /* \"#utility.yul\":9344:9710   */\n    tag_230:\n        /* \"#utility.yul\":9486:9489   */\n      0x00\n        /* \"#utility.yul\":9507:9574   */\n      tag_336\n        /* \"#utility.yul\":9571:9573   */\n      0x28\n        /* \"#utility.yul\":9566:9569   */\n      dup4\n        /* \"#utility.yul\":9507:9574   */\n      tag_222\n      jump\t// in\n    tag_336:\n        /* \"#utility.yul\":9500:9574   */\n      swap2\n      pop\n        /* \"#utility.yul\":9583:9676   */\n      tag_337\n        /* \"#utility.yul\":9672:9675   */\n      dup3\n        /* \"#utility.yul\":9583:9676   */\n      tag_229\n      jump\t// in\n    tag_337:\n        /* \"#utility.yul\":9701:9703   */\n      0x40\n        /* \"#utility.yul\":9696:9699   */\n      dup3\n        /* \"#utility.yul\":9692:9704   */\n      add\n        /* \"#utility.yul\":9685:9704   */\n      swap1\n      pop\n        /* \"#utility.yul\":9344:9710   */\n      swap2\n      swap1\n      pop\n      jump\t// out\n        /* \"#utility.yul\":9716:10135   */\n    tag_129:\n        /* \"#utility.yul\":9882:9886   */\n      0x00\n        /* \"#utility.yul\":9920:9922   */\n      0x20\n        /* \"#utility.yul\":9909:9918   */\n      dup3\n        /* \"#utility.yul\":9905:9923   */\n      add\n        /* \"#utility.yul\":9897:9923   */\n      swap1\n      pop\n        /* \"#utility.yul\":9969:9978   */\n      dup2\n        /* \"#utility.yul\":9963:9967   */\n      dup2\n        /* \"#utility.yul\":9959:9979   */\n      sub\n        /* \"#utility.yul\":9955:9956   */\n      0x00\n        /* \"#utility.yul\":9944:9953   */\n      dup4\n        /* \"#utility.yul\":9940:9957   */\n      add\n        /* \"#utility.yul\":9933:9980   */\n      mstore\n        /* \"#utility.yul\":9997:10128   */\n      tag_339\n        /* \"#utility.yul\":10123:10127   */\n      dup2\n        /* \"#utility.yul\":9997:10128   */\n      tag_230\n      jump\t// in\n    tag_339:\n        /* \"#utility.yul\":9989:10128   */\n      swap1\n      pop\n        /* \"#utility.yul\":9716:10135   */\n      swap2\n      swap1\n      pop\n      jump\t// out\n        /* \"#utility.yul\":10141:10373   */\n    tag_231:\n        /* \"#utility.yul\":10281:10315   */\n      0x57616e746564204c3120676173207072696365206d7573742062652073747269\n        /* \"#utility.yul\":10277:10278   */\n      0x00\n        /* \"#utility.yul\":10269:10275   */\n      dup3\n        /* \"#utility.yul\":10265:10279   */\n      add\n        /* \"#utility.yul\":10258:10316   */\n      mstore\n        /* \"#utility.yul\":10350:10365   */\n      0x63746c7920706f73697469766500000000000000000000000000000000000000\n        /* \"#utility.yul\":10345:10347   */\n      0x20\n        /* \"#utility.yul\":10337:10343   */\n      dup3\n        /* \"#utility.yul\":10333:10348   */\n      add\n        /* \"#utility.yul\":10326:10366   */\n      mstore\n        /* \"#utility.yul\":10141:10373   */\n      pop\n      jump\t// out\n        /* \"#utility.yul\":10379:10745   */\n    tag_232:\n        /* \"#utility.yul\":10521:10524   */\n      0x00\n        /* \"#utility.yul\":10542:10609   */\n      tag_342\n        /* \"#utility.yul\":10606:10608   */\n      0x2d\n        /* \"#utility.yul\":10601:10604   */\n      dup4\n        /* \"#utility.yul\":10542:10609   */\n      tag_222\n      jump\t// in\n    tag_342:\n        /* \"#utility.yul\":10535:10609   */\n      swap2\n      pop\n        /* \"#utility.yul\":10618:10711   */\n      tag_343\n        /* \"#utility.yul\":10707:10710   */\n      dup3\n        /* \"#utility.yul\":10618:10711   */\n      tag_231\n      jump\t// in\n    tag_343:\n        /* \"#utility.yul\":10736:10738   */\n      0x40\n        /* \"#utility.yul\":10731:10734   */\n      dup3\n        /* \"#utility.yul\":10727:10739   */\n      add\n        /* \"#utility.yul\":10720:10739   */\n      swap1\n      pop\n        /* \"#utility.yul\":10379:10745   */\n      swap2\n      swap1\n      pop\n      jump\t// out\n        /* \"#utility.yul\":10751:11170   */\n    tag_132:\n        /* \"#utility.yul\":10917:10921   */\n      0x00\n        /* \"#utility.yul\":10955:10957   */\n      0x20\n        /* \"#utility.yul\":10944:10953   */\n      dup3\n        /* \"#utility.yul\":10940:10958   */\n      add\n        /* \"#utility.yul\":10932:10958   */\n      swap1\n      pop\n        /* \"#utility.yul\":11004:11013   */\n      dup2\n        /* \"#utility.yul\":10998:11002   */\n      dup2\n        /* \"#utility.yul\":10994:11014   */\n      sub\n        /* \"#utility.yul\":10990:10991   */\n      0x00\n        /* \"#utility.yul\":10979:10988   */\n      dup4\n        /* \"#utility.yul\":10975:10992   */\n      add\n        /* \"#utility.yul\":10968:11015   */\n      mstore\n        /* \"#utility.yul\":11032:11163   */\n      tag_345\n        /* \"#utility.yul\":11158:11162   */\n      dup2\n        /* \"#utility.yul\":11032:11163   */\n      tag_232\n      jump\t// in\n    tag_345:\n        /* \"#utility.yul\":11024:11163   */\n      swap1\n      pop\n        /* \"#utility.yul\":10751:11170   */\n      swap2\n      swap1\n      pop\n      jump\t// out\n        /* \"#utility.yul\":11176:11408   */\n    tag_233:\n        /* \"#utility.yul\":11316:11350   */\n      0x4e6f7420656e6f7567682066756e647320746f2070617920666f722064656c61\n        /* \"#utility.yul\":11312:11313   */\n      0x00\n        /* \"#utility.yul\":11304:11310   */\n      dup3\n        /* \"#utility.yul\":11300:11314   */\n      add\n        /* \"#utility.yul\":11293:11351   */\n      mstore\n        /* \"#utility.yul\":11385:11400   */\n      0x79656420657865637574696f6e00000000000000000000000000000000000000\n        /* \"#utility.yul\":11380:11382   */\n      0x20\n        /* \"#utility.yul\":11372:11378   */\n      dup3\n        /* \"#utility.yul\":11368:11383   */\n      add\n        /* \"#utility.yul\":11361:11401   */\n      mstore\n        /* \"#utility.yul\":11176:11408   */\n      pop\n      jump\t// out\n        /* \"#utility.yul\":11414:11780   */\n    tag_234:\n        /* \"#utility.yul\":11556:11559   */\n      0x00\n        /* \"#utility.yul\":11577:11644   */\n      tag_348\n        /* \"#utility.yul\":11641:11643   */\n      0x2d\n        /* \"#utility.yul\":11636:11639   */\n      dup4\n        /* \"#utility.yul\":11577:11644   */\n      tag_222\n      jump\t// in\n    tag_348:\n        /* \"#utility.yul\":11570:11644   */\n      swap2\n      pop\n        /* \"#utility.yul\":11653:11746   */\n      tag_349\n        /* \"#utility.yul\":11742:11745   */\n      dup3\n        /* \"#utility.yul\":11653:11746   */\n      tag_233\n      jump\t// in\n    tag_349:\n        /* \"#utility.yul\":11771:11773   */\n      0x40\n        /* \"#utility.yul\":11766:11769   */\n      dup3\n        /* \"#utility.yul\":11762:11774   */\n      add\n        /* \"#utility.yul\":11755:11774   */\n      swap1\n      pop\n        /* \"#utility.yul\":11414:11780   */\n      swap2\n      swap1\n      pop\n      jump\t// out\n        /* \"#utility.yul\":11786:12205   */\n    tag_135:\n        /* \"#utility.yul\":11952:11956   */\n      0x00\n        /* \"#utility.yul\":11990:11992   */\n      0x20\n        /* \"#utility.yul\":11979:11988   */\n      dup3\n        /* \"#utility.yul\":11975:11993   */\n      add\n        /* \"#utility.yul\":11967:11993   */\n      swap1\n      pop\n        /* \"#utility.yul\":12039:12048   */\n      dup2\n        /* \"#utility.yul\":12033:12037   */\n      dup2\n        /* \"#utility.yul\":12029:12049   */\n      sub\n        /* \"#utility.yul\":12025:12026   */\n      0x00\n        /* \"#utility.yul\":12014:12023   */\n      dup4\n        /* \"#utility.yul\":12010:12027   */\n      add\n        /* \"#utility.yul\":12003:12050   */\n      mstore\n        /* \"#utility.yul\":12067:12198   */\n      tag_351\n        /* \"#utility.yul\":12193:12197   */\n      dup2\n        /* \"#utility.yul\":12067:12198   */\n      tag_234\n      jump\t// in\n    tag_351:\n        /* \"#utility.yul\":12059:12198   */\n      swap1\n      pop\n        /* \"#utility.yul\":11786:12205   */\n      swap2\n      swap1\n      pop\n      jump\t// out\n        /* \"#utility.yul\":12211:12391   */\n    tag_235:\n        /* \"#utility.yul\":12259:12336   */\n      0x4e487b7100000000000000000000000000000000000000000000000000000000\n        /* \"#utility.yul\":12256:12257   */\n      0x00\n        /* \"#utility.yul\":12249:12337   */\n      mstore\n        /* \"#utility.yul\":12356:12360   */\n      0x11\n        /* \"#utility.yul\":12353:12354   */\n      0x04\n        /* \"#utility.yul\":12346:12361   */\n      mstore\n        /* \"#utility.yul\":12380:12384   */\n      0x24\n        /* \"#utility.yul\":12377:12378   */\n      0x00\n        /* \"#utility.yul\":12370:12385   */\n      revert\n        /* \"#utility.yul\":12397:12591   */\n    tag_137:\n        /* \"#utility.yul\":12437:12441   */\n      0x00\n        /* \"#utility.yul\":12457:12477   */\n      tag_354\n        /* \"#utility.yul\":12475:12476   */\n      dup3\n        /* \"#utility.yul\":12457:12477   */\n      tag_216\n      jump\t// in\n    tag_354:\n        /* \"#utility.yul\":12452:12477   */\n      swap2\n      pop\n        /* \"#utility.yul\":12491:12511   */\n      tag_355\n        /* \"#utility.yul\":12509:12510   */\n      dup4\n        /* \"#utility.yul\":12491:12511   */\n      tag_216\n      jump\t// in\n    tag_355:\n        /* \"#utility.yul\":12486:12511   */\n      swap3\n      pop\n        /* \"#utility.yul\":12535:12536   */\n      dup3\n        /* \"#utility.yul\":12532:12533   */\n      dup3\n        /* \"#utility.yul\":12528:12537   */\n      sub\n        /* \"#utility.yul\":12520:12537   */\n      swap1\n      pop\n        /* \"#utility.yul\":12559:12560   */\n      dup2\n        /* \"#utility.yul\":12553:12557   */\n      dup2\n        /* \"#utility.yul\":12550:12561   */\n      gt\n        /* \"#utility.yul\":12547:12584   */\n      iszero\n      tag_356\n      jumpi\n        /* \"#utility.yul\":12564:12582   */\n      tag_357\n      tag_235\n      jump\t// in\n    tag_357:\n        /* \"#utility.yul\":12547:12584   */\n    tag_356:\n        /* \"#utility.yul\":12397:12591   */\n      swap3\n      swap2\n      pop\n      pop\n      jump\t// out\n        /* \"#utility.yul\":12597:12916   */\n    tag_236:\n        /* \"#utility.yul\":12737:12771   */\n      0x43616c63756c617465642073656e7420616d6f756e74206d757374206265206c\n        /* \"#utility.yul\":12733:12734   */\n      0x00\n        /* \"#utility.yul\":12725:12731   */\n      dup3\n        /* \"#utility.yul\":12721:12735   */\n      add\n        /* \"#utility.yul\":12714:12772   */\n      mstore\n        /* \"#utility.yul\":12806:12840   */\n      0x6172676572207468616e20746865207265717569726564206d696e696d756d20\n        /* \"#utility.yul\":12801:12803   */\n      0x20\n        /* \"#utility.yul\":12793:12799   */\n      dup3\n        /* \"#utility.yul\":12789:12804   */\n      add\n        /* \"#utility.yul\":12782:12841   */\n      mstore\n        /* \"#utility.yul\":12875:12908   */\n      0x616d6f756e74206172726976696e672061742064657374696e6174696f6e2e00\n        /* \"#utility.yul\":12870:12872   */\n      0x40\n        /* \"#utility.yul\":12862:12868   */\n      dup3\n        /* \"#utility.yul\":12858:12873   */\n      add\n        /* \"#utility.yul\":12851:12909   */\n      mstore\n        /* \"#utility.yul\":12597:12916   */\n      pop\n      jump\t// out\n        /* \"#utility.yul\":12922:13288   */\n    tag_237:\n        /* \"#utility.yul\":13064:13067   */\n      0x00\n        /* \"#utility.yul\":13085:13152   */\n      tag_360\n        /* \"#utility.yul\":13149:13151   */\n      0x5f\n        /* \"#utility.yul\":13144:13147   */\n      dup4\n        /* \"#utility.yul\":13085:13152   */\n      tag_222\n      jump\t// in\n    tag_360:\n        /* \"#utility.yul\":13078:13152   */\n      swap2\n      pop\n        /* \"#utility.yul\":13161:13254   */\n      tag_361\n        /* \"#utility.yul\":13250:13253   */\n      dup3\n        /* \"#utility.yul\":13161:13254   */\n      tag_236\n      jump\t// in\n    tag_361:\n        /* \"#utility.yul\":13279:13281   */\n      0x60\n        /* \"#utility.yul\":13274:13277   */\n      dup3\n        /* \"#utility.yul\":13270:13282   */\n      add\n        /* \"#utility.yul\":13263:13282   */\n      swap1\n      pop\n        /* \"#utility.yul\":12922:13288   */\n      swap2\n      swap1\n      pop\n      jump\t// out\n        /* \"#utility.yul\":13294:13713   */\n    tag_140:\n        /* \"#utility.yul\":13460:13464   */\n      0x00\n        /* \"#utility.yul\":13498:13500   */\n      0x20\n        /* \"#utility.yul\":13487:13496   */\n      dup3\n        /* \"#utility.yul\":13483:13501   */\n      add\n        /* \"#utility.yul\":13475:13501   */\n      swap1\n      pop\n        /* \"#utility.yul\":13547:13556   */\n      dup2\n        /* \"#utility.yul\":13541:13545   */\n      dup2\n        /* \"#utility.yul\":13537:13557   */\n      sub\n        /* \"#utility.yul\":13533:13534   */\n      0x00\n        /* \"#utility.yul\":13522:13531   */\n      dup4\n        /* \"#utility.yul\":13518:13535   */\n      add\n        /* \"#utility.yul\":13511:13558   */\n      mstore\n        /* \"#utility.yul\":13575:13706   */\n      tag_363\n        /* \"#utility.yul\":13701:13705   */\n      dup2\n        /* \"#utility.yul\":13575:13706   */\n      tag_237\n      jump\t// in\n    tag_363:\n        /* \"#utility.yul\":13567:13706   */\n      swap1\n      pop\n        /* \"#utility.yul\":13294:13713   */\n      swap2\n      swap1\n      pop\n      jump\t// out\n        /* \"#utility.yul\":13719:13964   */\n    tag_238:\n        /* \"#utility.yul\":13859:13893   */\n      0x726571756573742077697468207468652073616d6520696420666f7220746865\n        /* \"#utility.yul\":13855:13856   */\n      0x00\n        /* \"#utility.yul\":13847:13853   */\n      dup3\n        /* \"#utility.yul\":13843:13857   */\n      add\n        /* \"#utility.yul\":13836:13894   */\n      mstore\n        /* \"#utility.yul\":13928:13956   */\n      0x20726571756573746f7220616c7265616479206578697374732e000000000000\n        /* \"#utility.yul\":13923:13925   */\n      0x20\n        /* \"#utility.yul\":13915:13921   */\n      dup3\n        /* \"#utility.yul\":13911:13926   */\n      add\n        /* \"#utility.yul\":13904:13957   */\n      mstore\n        /* \"#utility.yul\":13719:13964   */\n      pop\n      jump\t// out\n        /* \"#utility.yul\":13970:14336   */\n    tag_239:\n        /* \"#utility.yul\":14112:14115   */\n      0x00\n        /* \"#utility.yul\":14133:14200   */\n      tag_366\n        /* \"#utility.yul\":14197:14199   */\n      0x3a\n        /* \"#utility.yul\":14192:14195   */\n      dup4\n        /* \"#utility.yul\":14133:14200   */\n      tag_222\n      jump\t// in\n    tag_366:\n        /* \"#utility.yul\":14126:14200   */\n      swap2\n      pop\n        /* \"#utility.yul\":14209:14302   */\n      tag_367\n        /* \"#utility.yul\":14298:14301   */\n      dup3\n        /* \"#utility.yul\":14209:14302   */\n      tag_238\n      jump\t// in\n    tag_367:\n        /* \"#utility.yul\":14327:14329   */\n      0x40\n        /* \"#utility.yul\":14322:14325   */\n      dup3\n        /* \"#utility.yul\":14318:14330   */\n      add\n        /* \"#utility.yul\":14311:14330   */\n      swap1\n      pop\n        /* \"#utility.yul\":13970:14336   */\n      swap2\n      swap1\n      pop\n      jump\t// out\n        /* \"#utility.yul\":14342:14761   */\n    tag_144:\n        /* \"#utility.yul\":14508:14512   */\n      0x00\n        /* \"#utility.yul\":14546:14548   */\n      0x20\n        /* \"#utility.yul\":14535:14544   */\n      dup3\n        /* \"#utility.yul\":14531:14549   */\n      add\n        /* \"#utility.yul\":14523:14549   */\n      swap1\n      pop\n        /* \"#utility.yul\":14595:14604   */\n      dup2\n        /* \"#utility.yul\":14589:14593   */\n      dup2\n        /* \"#utility.yul\":14585:14605   */\n      sub\n        /* \"#utility.yul\":14581:14582   */\n      0x00\n        /* \"#utility.yul\":14570:14579   */\n      dup4\n        /* \"#utility.yul\":14566:14583   */\n      add\n        /* \"#utility.yul\":14559:14606   */\n      mstore\n        /* \"#utility.yul\":14623:14754   */\n      tag_369\n        /* \"#utility.yul\":14749:14753   */\n      dup2\n        /* \"#utility.yul\":14623:14754   */\n      tag_239\n      jump\t// in\n    tag_369:\n        /* \"#utility.yul\":14615:14754   */\n      swap1\n      pop\n        /* \"#utility.yul\":14342:14761   */\n      swap2\n      swap1\n      pop\n      jump\t// out\n        /* \"#utility.yul\":14767:14938   */\n    tag_240:\n        /* \"#utility.yul\":14907:14930   */\n      0x4e6f207265717565737420746f2070726f636573730000000000000000000000\n        /* \"#utility.yul\":14903:14904   */\n      0x00\n        /* \"#utility.yul\":14895:14901   */\n      dup3\n        /* \"#utility.yul\":14891:14905   */\n      add\n        /* \"#utility.yul\":14884:14931   */\n      mstore\n        /* \"#utility.yul\":14767:14938   */\n      pop\n      jump\t// out\n        /* \"#utility.yul\":14944:15310   */\n    tag_241:\n        /* \"#utility.yul\":15086:15089   */\n      0x00\n        /* \"#utility.yul\":15107:15174   */\n      tag_372\n        /* \"#utility.yul\":15171:15173   */\n      0x15\n        /* \"#utility.yul\":15166:15169   */\n      dup4\n        /* \"#utility.yul\":15107:15174   */\n      tag_222\n      jump\t// in\n    tag_372:\n        /* \"#utility.yul\":15100:15174   */\n      swap2\n      pop\n        /* \"#utility.yul\":15183:15276   */\n      tag_373\n        /* \"#utility.yul\":15272:15275   */\n      dup3\n        /* \"#utility.yul\":15183:15276   */\n      tag_240\n      jump\t// in\n    tag_373:\n        /* \"#utility.yul\":15301:15303   */\n      0x20\n        /* \"#utility.yul\":15296:15299   */\n      dup3\n        /* \"#utility.yul\":15292:15304   */\n      add\n        /* \"#utility.yul\":15285:15304   */\n      swap1\n      pop\n        /* \"#utility.yul\":14944:15310   */\n      swap2\n      swap1\n      pop\n      jump\t// out\n        /* \"#utility.yul\":15316:15735   */\n    tag_168:\n        /* \"#utility.yul\":15482:15486   */\n      0x00\n        /* \"#utility.yul\":15520:15522   */\n      0x20\n        /* \"#utility.yul\":15509:15518   */\n      dup3\n        /* \"#utility.yul\":15505:15523   */\n      add\n        /* \"#utility.yul\":15497:15523   */\n      swap1\n      pop\n        /* \"#utility.yul\":15569:15578   */\n      dup2\n        /* \"#utility.yul\":15563:15567   */\n      dup2\n        /* \"#utility.yul\":15559:15579   */\n      sub\n        /* \"#utility.yul\":15555:15556   */\n      0x00\n        /* \"#utility.yul\":15544:15553   */\n      dup4\n        /* \"#utility.yul\":15540:15557   */\n      add\n        /* \"#utility.yul\":15533:15580   */\n      mstore\n        /* \"#utility.yul\":15597:15728   */\n      tag_375\n        /* \"#utility.yul\":15723:15727   */\n      dup2\n        /* \"#utility.yul\":15597:15728   */\n      tag_241\n      jump\t// in\n    tag_375:\n        /* \"#utility.yul\":15589:15728   */\n      swap1\n      pop\n        /* \"#utility.yul\":15316:15735   */\n      swap2\n      swap1\n      pop\n      jump\t// out\n        /* \"#utility.yul\":15741:15923   */\n    tag_242:\n        /* \"#utility.yul\":15881:15915   */\n      0x426f6e646572206665652063616e6e6f742065786365656420616d6f756e742e\n        /* \"#utility.yul\":15877:15878   */\n      0x00\n        /* \"#utility.yul\":15869:15875   */\n      dup3\n        /* \"#utility.yul\":15865:15879   */\n      add\n        /* \"#utility.yul\":15858:15916   */\n      mstore\n        /* \"#utility.yul\":15741:15923   */\n      pop\n      jump\t// out\n        /* \"#utility.yul\":15929:16295   */\n    tag_243:\n        /* \"#utility.yul\":16071:16074   */\n      0x00\n        /* \"#utility.yul\":16092:16159   */\n      tag_378\n        /* \"#utility.yul\":16156:16158   */\n      0x20\n        /* \"#utility.yul\":16151:16154   */\n      dup4\n        /* \"#utility.yul\":16092:16159   */\n      tag_222\n      jump\t// in\n    tag_378:\n        /* \"#utility.yul\":16085:16159   */\n      swap2\n      pop\n        /* \"#utility.yul\":16168:16261   */\n      tag_379\n        /* \"#utility.yul\":16257:16260   */\n      dup3\n        /* \"#utility.yul\":16168:16261   */\n      tag_242\n      jump\t// in\n    tag_379:\n        /* \"#utility.yul\":16286:16288   */\n      0x20\n        /* \"#utility.yul\":16281:16284   */\n      dup3\n        /* \"#utility.yul\":16277:16289   */\n      add\n        /* \"#utility.yul\":16270:16289   */\n      swap1\n      pop\n        /* \"#utility.yul\":15929:16295   */\n      swap2\n      swap1\n      pop\n      jump\t// out\n        /* \"#utility.yul\":16301:16720   */\n    tag_171:\n        /* \"#utility.yul\":16467:16471   */\n      0x00\n        /* \"#utility.yul\":16505:16507   */\n      0x20\n        /* \"#utility.yul\":16494:16503   */\n      dup3\n        /* \"#utility.yul\":16490:16508   */\n      add\n        /* \"#utility.yul\":16482:16508   */\n      swap1\n      pop\n        /* \"#utility.yul\":16554:16563   */\n      dup2\n        /* \"#utility.yul\":16548:16552   */\n      dup2\n        /* \"#utility.yul\":16544:16564   */\n      sub\n        /* \"#utility.yul\":16540:16541   */\n      0x00\n        /* \"#utility.yul\":16529:16538   */\n      dup4\n        /* \"#utility.yul\":16525:16542   */\n      add\n        /* \"#utility.yul\":16518:16565   */\n      mstore\n        /* \"#utility.yul\":16582:16713   */\n      tag_381\n        /* \"#utility.yul\":16708:16712   */\n      dup2\n        /* \"#utility.yul\":16582:16713   */\n      tag_243\n      jump\t// in\n    tag_381:\n        /* \"#utility.yul\":16574:16713   */\n      swap1\n      pop\n        /* \"#utility.yul\":16301:16720   */\n      swap2\n      swap1\n      pop\n      jump\t// out\n        /* \"#utility.yul\":16726:17723   */\n    tag_175:\n        /* \"#utility.yul\":17015:17019   */\n      0x00\n        /* \"#utility.yul\":17053:17056   */\n      0x0100\n        /* \"#utility.yul\":17042:17051   */\n      dup3\n        /* \"#utility.yul\":17038:17057   */\n      add\n        /* \"#utility.yul\":17030:17057   */\n      swap1\n      pop\n        /* \"#utility.yul\":17067:17138   */\n      tag_383\n        /* \"#utility.yul\":17135:17136   */\n      0x00\n        /* \"#utility.yul\":17124:17133   */\n      dup4\n        /* \"#utility.yul\":17120:17137   */\n      add\n        /* \"#utility.yul\":17111:17117   */\n      dup12\n        /* \"#utility.yul\":17067:17138   */\n      tag_221\n      jump\t// in\n    tag_383:\n        /* \"#utility.yul\":17148:17220   */\n      tag_384\n        /* \"#utility.yul\":17216:17218   */\n      0x20\n        /* \"#utility.yul\":17205:17214   */\n      dup4\n        /* \"#utility.yul\":17201:17219   */\n      add\n        /* \"#utility.yul\":17192:17198   */\n      dup11\n        /* \"#utility.yul\":17148:17220   */\n      tag_212\n      jump\t// in\n    tag_384:\n        /* \"#utility.yul\":17230:17302   */\n      tag_385\n        /* \"#utility.yul\":17298:17300   */\n      0x40\n        /* \"#utility.yul\":17287:17296   */\n      dup4\n        /* \"#utility.yul\":17283:17301   */\n      add\n        /* \"#utility.yul\":17274:17280   */\n      dup10\n        /* \"#utility.yul\":17230:17302   */\n      tag_221\n      jump\t// in\n    tag_385:\n        /* \"#utility.yul\":17312:17384   */\n      tag_386\n        /* \"#utility.yul\":17380:17382   */\n      0x60\n        /* \"#utility.yul\":17369:17378   */\n      dup4\n        /* \"#utility.yul\":17365:17383   */\n      add\n        /* \"#utility.yul\":17356:17362   */\n      dup9\n        /* \"#utility.yul\":17312:17384   */\n      tag_221\n      jump\t// in\n    tag_386:\n        /* \"#utility.yul\":17394:17467   */\n      tag_387\n        /* \"#utility.yul\":17462:17465   */\n      0x80\n        /* \"#utility.yul\":17451:17460   */\n      dup4\n        /* \"#utility.yul\":17447:17466   */\n      add\n        /* \"#utility.yul\":17438:17444   */\n      dup8\n        /* \"#utility.yul\":17394:17467   */\n      tag_221\n      jump\t// in\n    tag_387:\n        /* \"#utility.yul\":17477:17550   */\n      tag_388\n        /* \"#utility.yul\":17545:17548   */\n      0xa0\n        /* \"#utility.yul\":17534:17543   */\n      dup4\n        /* \"#utility.yul\":17530:17549   */\n      add\n        /* \"#utility.yul\":17521:17527   */\n      dup7\n        /* \"#utility.yul\":17477:17550   */\n      tag_221\n      jump\t// in\n    tag_388:\n        /* \"#utility.yul\":17560:17633   */\n      tag_389\n        /* \"#utility.yul\":17628:17631   */\n      0xc0\n        /* \"#utility.yul\":17617:17626   */\n      dup4\n        /* \"#utility.yul\":17613:17632   */\n      add\n        /* \"#utility.yul\":17604:17610   */\n      dup6\n        /* \"#utility.yul\":17560:17633   */\n      tag_221\n      jump\t// in\n    tag_389:\n        /* \"#utility.yul\":17643:17716   */\n      tag_390\n        /* \"#utility.yul\":17711:17714   */\n      0xe0\n        /* \"#utility.yul\":17700:17709   */\n      dup4\n        /* \"#utility.yul\":17696:17715   */\n      add\n        /* \"#utility.yul\":17687:17693   */\n      dup5\n        /* \"#utility.yul\":17643:17716   */\n      tag_221\n      jump\t// in\n    tag_390:\n        /* \"#utility.yul\":16726:17723   */\n      swap10\n      swap9\n      pop\n      pop\n      pop\n      pop\n      pop\n      pop\n      pop\n      pop\n      pop\n      jump\t// out\n        /* \"#utility.yul\":17729:17954   */\n    tag_244:\n        /* \"#utility.yul\":17869:17903   */\n      0x4f776e61626c653a206e6577206f776e657220697320746865207a65726f2061\n        /* \"#utility.yul\":17865:17866   */\n      0x00\n        /* \"#utility.yul\":17857:17863   */\n      dup3\n        /* \"#utility.yul\":17853:17867   */\n      add\n        /* \"#utility.yul\":17846:17904   */\n      mstore\n        /* \"#utility.yul\":17938:17946   */\n      0x6464726573730000000000000000000000000000000000000000000000000000\n        /* \"#utility.yul\":17933:17935   */\n      0x20\n        /* \"#utility.yul\":17925:17931   */\n      dup3\n        /* \"#utility.yul\":17921:17936   */\n      add\n        /* \"#utility.yul\":17914:17947   */\n      mstore\n        /* \"#utility.yul\":17729:17954   */\n      pop\n      jump\t// out\n        /* \"#utility.yul\":17960:18326   */\n    tag_245:\n        /* \"#utility.yul\":18102:18105   */\n      0x00\n        /* \"#utility.yul\":18123:18190   */\n      tag_393\n        /* \"#utility.yul\":18187:18189   */\n      0x26\n        /* \"#utility.yul\":18182:18185   */\n      dup4\n        /* \"#utility.yul\":18123:18190   */\n      tag_222\n      jump\t// in\n    tag_393:\n        /* \"#utility.yul\":18116:18190   */\n      swap2\n      pop\n        /* \"#utility.yul\":18199:18292   */\n      tag_394\n        /* \"#utility.yul\":18288:18291   */\n      dup3\n        /* \"#utility.yul\":18199:18292   */\n      tag_244\n      jump\t// in\n    tag_394:\n        /* \"#utility.yul\":18317:18319   */\n      0x40\n        /* \"#utility.yul\":18312:18315   */\n      dup3\n        /* \"#utility.yul\":18308:18320   */\n      add\n        /* \"#utility.yul\":18301:18320   */\n      swap1\n      pop\n        /* \"#utility.yul\":17960:18326   */\n      swap2\n      swap1\n      pop\n      jump\t// out\n        /* \"#utility.yul\":18332:18751   */\n    tag_185:\n        /* \"#utility.yul\":18498:18502   */\n      0x00\n        /* \"#utility.yul\":18536:18538   */\n      0x20\n        /* \"#utility.yul\":18525:18534   */\n      dup3\n        /* \"#utility.yul\":18521:18539   */\n      add\n        /* \"#utility.yul\":18513:18539   */\n      swap1\n      pop\n        /* \"#utility.yul\":18585:18594   */\n      dup2\n        /* \"#utility.yul\":18579:18583   */\n      dup2\n        /* \"#utility.yul\":18575:18595   */\n      sub\n        /* \"#utility.yul\":18571:18572   */\n      0x00\n        /* \"#utility.yul\":18560:18569   */\n      dup4\n        /* \"#utility.yul\":18556:18573   */\n      add\n        /* \"#utility.yul\":18549:18596   */\n      mstore\n        /* \"#utility.yul\":18613:18744   */\n      tag_396\n        /* \"#utility.yul\":18739:18743   */\n      dup2\n        /* \"#utility.yul\":18613:18744   */\n      tag_245\n      jump\t// in\n    tag_396:\n        /* \"#utility.yul\":18605:18744   */\n      swap1\n      pop\n        /* \"#utility.yul\":18332:18751   */\n      swap2\n      swap1\n      pop\n      jump\t// out\n        /* \"#utility.yul\":18757:18938   */\n    tag_246:\n        /* \"#utility.yul\":18897:18930   */\n      0x5265656e7472616e637947756172643a207265656e7472616e742063616c6c00\n        /* \"#utility.yul\":18893:18894   */\n      0x00\n        /* \"#utility.yul\":18885:18891   */\n      dup3\n        /* \"#utility.yul\":18881:18895   */\n      add\n        /* \"#utility.yul\":18874:18931   */\n      mstore\n        /* \"#utility.yul\":18757:18938   */\n      pop\n      jump\t// out\n        /* \"#utility.yul\":18944:19310   */\n    tag_247:\n        /* \"#utility.yul\":19086:19089   */\n      0x00\n        /* \"#utility.yul\":19107:19174   */\n      tag_399\n        /* \"#utility.yul\":19171:19173   */\n      0x1f\n        /* \"#utility.yul\":19166:19169   */\n      dup4\n        /* \"#utility.yul\":19107:19174   */\n      tag_222\n      jump\t// in\n    tag_399:\n        /* \"#utility.yul\":19100:19174   */\n      swap2\n      pop\n        /* \"#utility.yul\":19183:19276   */\n      tag_400\n        /* \"#utility.yul\":19272:19275   */\n      dup3\n        /* \"#utility.yul\":19183:19276   */\n      tag_246\n      jump\t// in\n    tag_400:\n        /* \"#utility.yul\":19301:19303   */\n      0x20\n        /* \"#utility.yul\":19296:19299   */\n      dup3\n        /* \"#utility.yul\":19292:19304   */\n      add\n        /* \"#utility.yul\":19285:19304   */\n      swap1\n      pop\n        /* \"#utility.yul\":18944:19310   */\n      swap2\n      swap1\n      pop\n      jump\t// out\n        /* \"#utility.yul\":19316:19735   */\n    tag_190:\n        /* \"#utility.yul\":19482:19486   */\n      0x00\n        /* \"#utility.yul\":19520:19522   */\n      0x20\n        /* \"#utility.yul\":19509:19518   */\n      dup3\n        /* \"#utility.yul\":19505:19523   */\n      add\n        /* \"#utility.yul\":19497:19523   */\n      swap1\n      pop\n        /* \"#utility.yul\":19569:19578   */\n      dup2\n        /* \"#utility.yul\":19563:19567   */\n      dup2\n        /* \"#utility.yul\":19559:19579   */\n      sub\n        /* \"#utility.yul\":19555:19556   */\n      0x00\n        /* \"#utility.yul\":19544:19553   */\n      dup4\n        /* \"#utility.yul\":19540:19557   */\n      add\n        /* \"#utility.yul\":19533:19580   */\n      mstore\n        /* \"#utility.yul\":19597:19728   */\n      tag_402\n        /* \"#utility.yul\":19723:19727   */\n      dup2\n        /* \"#utility.yul\":19597:19728   */\n      tag_247\n      jump\t// in\n    tag_402:\n        /* \"#utility.yul\":19589:19728   */\n      swap1\n      pop\n        /* \"#utility.yul\":19316:19735   */\n      swap2\n      swap1\n      pop\n      jump\t// out\n        /* \"#utility.yul\":19741:19923   */\n    tag_248:\n        /* \"#utility.yul\":19881:19915   */\n      0x4f776e61626c653a2063616c6c6572206973206e6f7420746865206f776e6572\n        /* \"#utility.yul\":19877:19878   */\n      0x00\n        /* \"#utility.yul\":19869:19875   */\n      dup3\n        /* \"#utility.yul\":19865:19879   */\n      add\n        /* \"#utility.yul\":19858:19916   */\n      mstore\n        /* \"#utility.yul\":19741:19923   */\n      pop\n      jump\t// out\n        /* \"#utility.yul\":19929:20295   */\n    tag_249:\n        /* \"#utility.yul\":20071:20074   */\n      0x00\n        /* \"#utility.yul\":20092:20159   */\n      tag_405\n        /* \"#utility.yul\":20156:20158   */\n      0x20\n        /* \"#utility.yul\":20151:20154   */\n      dup4\n        /* \"#utility.yul\":20092:20159   */\n      tag_222\n      jump\t// in\n    tag_405:\n        /* \"#utility.yul\":20085:20159   */\n      swap2\n      pop\n        /* \"#utility.yul\":20168:20261   */\n      tag_406\n        /* \"#utility.yul\":20257:20260   */\n      dup3\n        /* \"#utility.yul\":20168:20261   */\n      tag_248\n      jump\t// in\n    tag_406:\n        /* \"#utility.yul\":20286:20288   */\n      0x20\n        /* \"#utility.yul\":20281:20284   */\n      dup3\n        /* \"#utility.yul\":20277:20289   */\n      add\n        /* \"#utility.yul\":20270:20289   */\n      swap1\n      pop\n        /* \"#utility.yul\":19929:20295   */\n      swap2\n      swap1\n      pop\n      jump\t// out\n        /* \"#utility.yul\":20301:20720   */\n    tag_199:\n        /* \"#utility.yul\":20467:20471   */\n      0x00\n        /* \"#utility.yul\":20505:20507   */\n      0x20\n        /* \"#utility.yul\":20494:20503   */\n      dup3\n        /* \"#utility.yul\":20490:20508   */\n      add\n        /* \"#utility.yul\":20482:20508   */\n      swap1\n      pop\n        /* \"#utility.yul\":20554:20563   */\n      dup2\n        /* \"#utility.yul\":20548:20552   */\n      dup2\n        /* \"#utility.yul\":20544:20564   */\n      sub\n        /* \"#utility.yul\":20540:20541   */\n      0x00\n        /* \"#utility.yul\":20529:20538   */\n      dup4\n        /* \"#utility.yul\":20525:20542   */\n      add\n        /* \"#utility.yul\":20518:20565   */\n      mstore\n        /* \"#utility.yul\":20582:20713   */\n      tag_408\n        /* \"#utility.yul\":20708:20712   */\n      dup2\n        /* \"#utility.yul\":20582:20713   */\n      tag_249\n      jump\t// in\n    tag_408:\n        /* \"#utility.yul\":20574:20713   */\n      swap1\n      pop\n        /* \"#utility.yul\":20301:20720   */\n      swap2\n      swap1\n      pop\n      jump\t// out\n        /* \"#utility.yul\":20726:20974   */\n    tag_250:\n        /* \"#utility.yul\":20866:20900   */\n      0x7365727669636520666565206d75737420636f766572206174206c6561737420\n        /* \"#utility.yul\":20862:20863   */\n      0x00\n        /* \"#utility.yul\":20854:20860   */\n      dup3\n        /* \"#utility.yul\":20850:20864   */\n      add\n        /* \"#utility.yul\":20843:20901   */\n      mstore\n        /* \"#utility.yul\":20935:20966   */\n      0x74686520657865637574696f6e2067617320726571756972656d656e74000000\n        /* \"#utility.yul\":20930:20932   */\n      0x20\n        /* \"#utility.yul\":20922:20928   */\n      dup3\n        /* \"#utility.yul\":20918:20933   */\n      add\n        /* \"#utility.yul\":20911:20967   */\n      mstore\n        /* \"#utility.yul\":20726:20974   */\n      pop\n      jump\t// out\n        /* \"#utility.yul\":20980:21346   */\n    tag_251:\n        /* \"#utility.yul\":21122:21125   */\n      0x00\n        /* \"#utility.yul\":21143:21210   */\n      tag_411\n        /* \"#utility.yul\":21207:21209   */\n      0x3d\n        /* \"#utility.yul\":21202:21205   */\n      dup4\n        /* \"#utility.yul\":21143:21210   */\n      tag_222\n      jump\t// in\n    tag_411:\n        /* \"#utility.yul\":21136:21210   */\n      swap2\n      pop\n        /* \"#utility.yul\":21219:21312   */\n      tag_412\n        /* \"#utility.yul\":21308:21311   */\n      dup3\n        /* \"#utility.yul\":21219:21312   */\n      tag_250\n      jump\t// in\n    tag_412:\n        /* \"#utility.yul\":21337:21339   */\n      0x40\n        /* \"#utility.yul\":21332:21335   */\n      dup3\n        /* \"#utility.yul\":21328:21340   */\n      add\n        /* \"#utility.yul\":21321:21340   */\n      swap1\n      pop\n        /* \"#utility.yul\":20980:21346   */\n      swap2\n      swap1\n      pop\n      jump\t// out\n        /* \"#utility.yul\":21352:21771   */\n    tag_203:\n        /* \"#utility.yul\":21518:21522   */\n      0x00\n        /* \"#utility.yul\":21556:21558   */\n      0x20\n        /* \"#utility.yul\":21545:21554   */\n      dup3\n        /* \"#utility.yul\":21541:21559   */\n      add\n        /* \"#utility.yul\":21533:21559   */\n      swap1\n      pop\n        /* \"#utility.yul\":21605:21614   */\n      dup2\n        /* \"#utility.yul\":21599:21603   */\n      dup2\n        /* \"#utility.yul\":21595:21615   */\n      sub\n        /* \"#utility.yul\":21591:21592   */\n      0x00\n        /* \"#utility.yul\":21580:21589   */\n      dup4\n        /* \"#utility.yul\":21576:21593   */\n      add\n        /* \"#utility.yul\":21569:21616   */\n      mstore\n        /* \"#utility.yul\":21633:21764   */\n      tag_414\n        /* \"#utility.yul\":21759:21763   */\n      dup2\n        /* \"#utility.yul\":21633:21764   */\n      tag_251\n      jump\t// in\n    tag_414:\n        /* \"#utility.yul\":21625:21764   */\n      swap1\n      pop\n        /* \"#utility.yul\":21352:21771   */\n      swap2\n      swap1\n      pop\n      jump\t// out\n        /* \"#utility.yul\":21777:21968   */\n    tag_207:\n        /* \"#utility.yul\":21817:21820   */\n      0x00\n        /* \"#utility.yul\":21836:21856   */\n      tag_416\n        /* \"#utility.yul\":21854:21855   */\n      dup3\n        /* \"#utility.yul\":21836:21856   */\n      tag_216\n      jump\t// in\n    tag_416:\n        /* \"#utility.yul\":21831:21856   */\n      swap2\n      pop\n        /* \"#utility.yul\":21870:21890   */\n      tag_417\n        /* \"#utility.yul\":21888:21889   */\n      dup4\n        /* \"#utility.yul\":21870:21890   */\n      tag_216\n      jump\t// in\n    tag_417:\n        /* \"#utility.yul\":21865:21890   */\n      swap3\n      pop\n        /* \"#utility.yul\":21913:21914   */\n      dup3\n        /* \"#utility.yul\":21910:21911   */\n      dup3\n        /* \"#utility.yul\":21906:21915   */\n      add\n        /* \"#utility.yul\":21899:21915   */\n      swap1\n      pop\n        /* \"#utility.yul\":21934:21937   */\n      dup1\n        /* \"#utility.yul\":21931:21932   */\n      dup3\n        /* \"#utility.yul\":21928:21938   */\n      gt\n        /* \"#utility.yul\":21925:21961   */\n      iszero\n      tag_418\n      jumpi\n        /* \"#utility.yul\":21941:21959   */\n      tag_419\n      tag_235\n      jump\t// in\n    tag_419:\n        /* \"#utility.yul\":21925:21961   */\n    tag_418:\n        /* \"#utility.yul\":21777:21968   */\n      swap3\n      swap2\n      pop\n      pop\n      jump\t// out\n\n    auxdata: 0xa2646970667358221220e4b5543c05e9110b6d7d7341f9b90533e90c69be741ff4e02c50670726aca3ab64736f6c63430008120033\n}\n",
				"bytecode": {
					"linkReferences": {},
					"object": "60806040523480156200001157600080fd5b506040516200226b3803806200226b83398181016040528101906200003791906200028b565b620000576200004b620000ce60201b60201c565b620000d660201b60201c565b60018081905550836002819055508260038190555081600560006101000a81548173ffffffffffffffffffffffffffffffffffffffff021916908373ffffffffffffffffffffffffffffffffffffffff16021790555080600781905550620000c46200019a60201b60201c565b50505050620003a6565b600033905090565b60008060009054906101000a900473ffffffffffffffffffffffffffffffffffffffff169050816000806101000a81548173ffffffffffffffffffffffffffffffffffffffff021916908373ffffffffffffffffffffffffffffffffffffffff1602179055508173ffffffffffffffffffffffffffffffffffffffff168173ffffffffffffffffffffffffffffffffffffffff167f8be0079c531659141344cd1fd0a4f28419497f9722a3daafe3b4186f6b6457e060405160405180910390a35050565b6002546003541015620001e4576040517f08c379a0000000000000000000000000000000000000000000000000000000008152600401620001db9062000384565b60405180910390fd5b565b600080fd5b6000819050919050565b6200020081620001eb565b81146200020c57600080fd5b50565b6000815190506200022081620001f5565b92915050565b600073ffffffffffffffffffffffffffffffffffffffff82169050919050565b6000620002538262000226565b9050919050565b620002658162000246565b81146200027157600080fd5b50565b60008151905062000285816200025a565b92915050565b60008060008060808587031215620002a857620002a7620001e6565b5b6000620002b8878288016200020f565b9450506020620002cb878288016200020f565b9350506040620002de8782880162000274565b9250506060620002f1878288016200020f565b91505092959194509250565b600082825260208201905092915050565b7f7365727669636520666565206d75737420636f766572206174206c656173742060008201527f74686520657865637574696f6e2067617320726571756972656d656e74000000602082015250565b60006200036c603d83620002fd565b915062000379826200030e565b604082019050919050565b600060208201905081810360008301526200039f816200035d565b9050919050565b611eb580620003b66000396000f3fe6080604052600436106100f35760003560e01c80638abdf5aa1161008a578063a191078a11610059578063a191078a146102c8578063b6502943146102f1578063d043ba191461031c578063f2fde38b14610345576100f3565b80638abdf5aa146102065780638cfff8c3146102315780638da5cb5b1461025c5780639ecebe2a14610287576100f3565b80636f0372af116100c65780636f0372af1461019e578063715018a6146101ba5780637b1aa45f146101d15780638429b045146101db576100f3565b806325608185146100f85780632e1a7d4d1461012357806333f707d11461014c57806354caef7d14610175575b600080fd5b34801561010457600080fd5b5061010d61036e565b60405161011a9190611324565b60405180910390f35b34801561012f57600080fd5b5061014a6004803603810190610145919061137a565b610394565b005b34801561015857600080fd5b50610173600480360381019061016e919061137a565b610654565b005b34801561018157600080fd5b5061019c6004803603810190610197919061137a565b6106f2565b005b6101b860048036038101906101b391906113d3565b61070c565b005b3480156101c657600080fd5b506101cf610b95565b005b6101d9610ba9565b005b3480156101e757600080fd5b506101f0610bb3565b6040516101fd9190611449565b60405180910390f35b34801561021257600080fd5b5061021b610bb9565b6040516102289190611449565b60405180910390f35b34801561023d57600080fd5b50610246610bbf565b6040516102539190611449565b60405180910390f35b34801561026857600080fd5b50610271610bc5565b60405161027e9190611324565b60405180910390f35b34801561029357600080fd5b506102ae60048036038101906102a99190611464565b610bee565b6040516102bf9594939291906114a4565b60405180910390f35b3480156102d457600080fd5b506102ef60048036038101906102ea919061137a565b610c71565b005b3480156102fd57600080fd5b50610306610c8b565b6040516103139190611449565b60405180910390f35b34801561032857600080fd5b50610343600480360381019061033e91906114f7565b610c91565b005b34801561035157600080fd5b5061036c60048036038101906103679190611599565b61100e565b005b600560009054906101000a900473ffffffffffffffffffffffffffffffffffffffff1681565b61039c611091565b6000600660003373ffffffffffffffffffffffffffffffffffffffff1673ffffffffffffffffffffffffffffffffffffffff16815260200190815260200160002060008381526020019081526020016000206040518060a00160405290816000820160009054906101000a900473ffffffffffffffffffffffffffffffffffffffff1673ffffffffffffffffffffffffffffffffffffffff1673ffffffffffffffffffffffffffffffffffffffff1681526020016001820160009054906101000a900473ffffffffffffffffffffffffffffffffffffffff1673ffffffffffffffffffffffffffffffffffffffff1673ffffffffffffffffffffffffffffffffffffffff168152602001600282015481526020016003820154815260200160048201548152505090506104ce816110e0565b61050d576040517f08c379a000000000000000000000000000000000000000000000000000000000815260040161050490611623565b60405180910390fd5b3373ffffffffffffffffffffffffffffffffffffffff16816000015173ffffffffffffffffffffffffffffffffffffffff161461054d5761054c611643565b5b600660003373ffffffffffffffffffffffffffffffffffffffff1673ffffffffffffffffffffffffffffffffffffffff1681526020019081526020016000206000838152602001908152602001600020600080820160006101000a81549073ffffffffffffffffffffffffffffffffffffffff02191690556001820160006101000a81549073ffffffffffffffffffffffffffffffffffffffff021916905560028201600090556003820160009055600482016000905550503373ffffffffffffffffffffffffffffffffffffffff166108fc82604001519081150290604051600060405180830381858888f1935050505061064857600080fd5b5061065161111d565b50565b61065c611126565b610664611091565b8060045410156106a9576040517f08c379a00000000000000000000000000000000000000000000000000000000081526004016106a09061170a565b60405180910390fd5b3373ffffffffffffffffffffffffffffffffffffffff166108fc829081150290604051600060405180830381858888f193505050506106e757600080fd5b6106ef61111d565b50565b6106fa611126565b806002819055506107096111a4565b50565b600073ffffffffffffffffffffffffffffffffffffffff163373ffffffffffffffffffffffffffffffffffffffff160361077b576040517f08c379a000000000000000000000000000000000000000000000000000000000815260040161077290611776565b60405180910390fd5b600073ffffffffffffffffffffffffffffffffffffffff168373ffffffffffffffffffffffffffffffffffffffff16036107ea576040517f08c379a00000000000000000000000000000000000000000000000000000000081526004016107e190611808565b60405180910390fd5b6000821161082d576040517f08c379a00000000000000000000000000000000000000000000000000000000081526004016108249061189a565b60405180910390fd5b600354341015610872576040517f08c379a00000000000000000000000000000000000000000000000000000000081526004016108699061192c565b60405180910390fd5b600060035434610882919061197b565b9050818110156108c7576040517f08c379a00000000000000000000000000000000000000000000000000000000081526004016108be90611a47565b60405180910390fd5b6109f4600660003373ffffffffffffffffffffffffffffffffffffffff1673ffffffffffffffffffffffffffffffffffffffff16815260200190815260200160002060008781526020019081526020016000206040518060a00160405290816000820160009054906101000a900473ffffffffffffffffffffffffffffffffffffffff1673ffffffffffffffffffffffffffffffffffffffff1673ffffffffffffffffffffffffffffffffffffffff1681526020016001820160009054906101000a900473ffffffffffffffffffffffffffffffffffffffff1673ffffffffffffffffffffffffffffffffffffffff1673ffffffffffffffffffffffffffffffffffffffff16815260200160028201548152602001600382015481526020016004820154815250506110e0565b15610a34576040517f08c379a0000000000000000000000000000000000000000000000000000000008152600401610a2b90611ad9565b60405180910390fd5b610a3c6111ed565b6040518060a001604052803373ffffffffffffffffffffffffffffffffffffffff1681526020018573ffffffffffffffffffffffffffffffffffffffff16815260200182815260200183815260200184815250600660003373ffffffffffffffffffffffffffffffffffffffff1673ffffffffffffffffffffffffffffffffffffffff168152602001908152602001600020600087815260200190815260200160002060008201518160000160006101000a81548173ffffffffffffffffffffffffffffffffffffffff021916908373ffffffffffffffffffffffffffffffffffffffff16021790555060208201518160010160006101000a81548173ffffffffffffffffffffffffffffffffffffffff021916908373ffffffffffffffffffffffffffffffffffffffff1602179055506040820151816002015560608201518160030155608082015181600401559050505050505050565b610b9d611126565b610ba76000611217565b565b610bb1611126565b565b60025481565b60035481565b60045481565b60008060009054906101000a900473ffffffffffffffffffffffffffffffffffffffff16905090565b6006602052816000526040600020602052806000526040600020600091509150508060000160009054906101000a900473ffffffffffffffffffffffffffffffffffffffff16908060010160009054906101000a900473ffffffffffffffffffffffffffffffffffffffff16908060020154908060030154908060040154905085565b610c79611126565b80600381905550610c886111a4565b50565b60075481565b610c99611126565b610ca1611091565b6000600660008973ffffffffffffffffffffffffffffffffffffffff1673ffffffffffffffffffffffffffffffffffffffff16815260200190815260200160002060008881526020019081526020016000206040518060a00160405290816000820160009054906101000a900473ffffffffffffffffffffffffffffffffffffffff1673ffffffffffffffffffffffffffffffffffffffff1673ffffffffffffffffffffffffffffffffffffffff1681526020016001820160009054906101000a900473ffffffffffffffffffffffffffffffffffffffff1673ffffffffffffffffffffffffffffffffffffffff1673ffffffffffffffffffffffffffffffffffffffff16815260200160028201548152602001600382015481526020016004820154815250509050610dd3816110e0565b610e12576040517f08c379a0000000000000000000000000000000000000000000000000000000008152600401610e0990611b45565b60405180910390fd5b8581604001511015610e59576040517f08c379a0000000000000000000000000000000000000000000000000000000008152600401610e5090611bb1565b60405180910390fd5b600660008973ffffffffffffffffffffffffffffffffffffffff1673ffffffffffffffffffffffffffffffffffffffff1681526020019081526020016000206000888152602001908152602001600020600080820160006101000a81549073ffffffffffffffffffffffffffffffffffffffff02191690556001820160006101000a81549073ffffffffffffffffffffffffffffffffffffffff021916905560028201600090556003820160009055600482016000905550503373ffffffffffffffffffffffffffffffffffffffff166108fc6002549081150290604051600060405180830381858888f19350505050610f5257600080fd5b600560009054906101000a900473ffffffffffffffffffffffffffffffffffffffff1673ffffffffffffffffffffffffffffffffffffffff1663eea0d7b28260400151600754846020015185604001518b8b8b8b8b6040518a63ffffffff1660e01b8152600401610fca989796959493929190611bd1565b6000604051808303818588803b158015610fe357600080fd5b505af1158015610ff7573d6000803e3d6000fd5b50505050505061100561111d565b50505050505050565b611016611126565b600073ffffffffffffffffffffffffffffffffffffffff168173ffffffffffffffffffffffffffffffffffffffff1603611085576040517f08c379a000000000000000000000000000000000000000000000000000000000815260040161107c90611cc1565b60405180910390fd5b61108e81611217565b50565b6002600154036110d6576040517f08c379a00000000000000000000000000000000000000000000000000000000081526004016110cd90611d2d565b60405180910390fd5b6002600181905550565b60008073ffffffffffffffffffffffffffffffffffffffff16826000015173ffffffffffffffffffffffffffffffffffffffff1614159050919050565b60018081905550565b61112e6112db565b73ffffffffffffffffffffffffffffffffffffffff1661114c610bc5565b73ffffffffffffffffffffffffffffffffffffffff16146111a2576040517f08c379a000000000000000000000000000000000000000000000000000000000815260040161119990611d99565b60405180910390fd5b565b60025460035410156111eb576040517f08c379a00000000000000000000000000000000000000000000000000000000081526004016111e290611e2b565b60405180910390fd5b565b6002546003546111fd919061197b565b6004600082825461120e9190611e4b565b92505081905550565b60008060009054906101000a900473ffffffffffffffffffffffffffffffffffffffff169050816000806101000a81548173ffffffffffffffffffffffffffffffffffffffff021916908373ffffffffffffffffffffffffffffffffffffffff1602179055508173ffffffffffffffffffffffffffffffffffffffff168173ffffffffffffffffffffffffffffffffffffffff167f8be0079c531659141344cd1fd0a4f28419497f9722a3daafe3b4186f6b6457e060405160405180910390a35050565b600033905090565b600073ffffffffffffffffffffffffffffffffffffffff82169050919050565b600061130e826112e3565b9050919050565b61131e81611303565b82525050565b60006020820190506113396000830184611315565b92915050565b600080fd5b6000819050919050565b61135781611344565b811461136257600080fd5b50565b6000813590506113748161134e565b92915050565b6000602082840312156113905761138f61133f565b5b600061139e84828501611365565b91505092915050565b6113b081611303565b81146113bb57600080fd5b50565b6000813590506113cd816113a7565b92915050565b600080600080608085870312156113ed576113ec61133f565b5b60006113fb87828801611365565b945050602061140c878288016113be565b935050604061141d87828801611365565b925050606061142e87828801611365565b91505092959194509250565b61144381611344565b82525050565b600060208201905061145e600083018461143a565b92915050565b6000806040838503121561147b5761147a61133f565b5b6000611489858286016113be565b925050602061149a85828601611365565b9150509250929050565b600060a0820190506114b96000830188611315565b6114c66020830187611315565b6114d3604083018661143a565b6114e0606083018561143a565b6114ed608083018461143a565b9695505050505050565b600080600080600080600060e0888a0312156115165761151561133f565b5b60006115248a828b016113be565b97505060206115358a828b01611365565b96505060406115468a828b01611365565b95505060606115578a828b01611365565b94505060806115688a828b01611365565b93505060a06115798a828b01611365565b92505060c061158a8a828b01611365565b91505092959891949750929550565b6000602082840312156115af576115ae61133f565b5b60006115bd848285016113be565b91505092915050565b600082825260208201905092915050565b7f4e6f207265717565737420746f20776974686472617700000000000000000000600082015250565b600061160d6016836115c6565b9150611618826115d7565b602082019050919050565b6000602082019050818103600083015261163c81611600565b9050919050565b7f4e487b7100000000000000000000000000000000000000000000000000000000600052600160045260246000fd5b7f43616e6e6f74207769746864726177206d6f72652066756e6473207468616e2060008201527f74686520636f6c6c6563746564206e6f6e20676173207365727669636520666560208201527f65732e0000000000000000000000000000000000000000000000000000000000604082015250565b60006116f46043836115c6565b91506116ff82611672565b606082019050919050565b60006020820190508181036000830152611723816116e7565b9050919050565b7f53656e646572206d6179206e6f74206265203020616464726573730000000000600082015250565b6000611760601b836115c6565b915061176b8261172a565b602082019050919050565b6000602082019050818103600083015261178f81611753565b9050919050565b7f44657374696e6174696f6e2061646472657373206d6179206e6f74206265203060008201527f2061646472657373000000000000000000000000000000000000000000000000602082015250565b60006117f26028836115c6565b91506117fd82611796565b604082019050919050565b60006020820190508181036000830152611821816117e5565b9050919050565b7f57616e746564204c3120676173207072696365206d757374206265207374726960008201527f63746c7920706f73697469766500000000000000000000000000000000000000602082015250565b6000611884602d836115c6565b915061188f82611828565b604082019050919050565b600060208201905081810360008301526118b381611877565b9050919050565b7f4e6f7420656e6f7567682066756e647320746f2070617920666f722064656c6160008201527f79656420657865637574696f6e00000000000000000000000000000000000000602082015250565b6000611916602d836115c6565b9150611921826118ba565b604082019050919050565b6000602082019050818103600083015261194581611909565b9050919050565b7f4e487b7100000000000000000000000000000000000000000000000000000000600052601160045260246000fd5b600061198682611344565b915061199183611344565b92508282039050818111156119a9576119a861194c565b5b92915050565b7f43616c63756c617465642073656e7420616d6f756e74206d757374206265206c60008201527f6172676572207468616e20746865207265717569726564206d696e696d756d2060208201527f616d6f756e74206172726976696e672061742064657374696e6174696f6e2e00604082015250565b6000611a31605f836115c6565b9150611a3c826119af565b606082019050919050565b60006020820190508181036000830152611a6081611a24565b9050919050565b7f726571756573742077697468207468652073616d6520696420666f722074686560008201527f20726571756573746f7220616c7265616479206578697374732e000000000000602082015250565b6000611ac3603a836115c6565b9150611ace82611a67565b604082019050919050565b60006020820190508181036000830152611af281611ab6565b9050919050565b7f4e6f207265717565737420746f2070726f636573730000000000000000000000600082015250565b6000611b2f6015836115c6565b9150611b3a82611af9565b602082019050919050565b60006020820190508181036000830152611b5e81611b22565b9050919050565b7f426f6e646572206665652063616e6e6f742065786365656420616d6f756e742e600082015250565b6000611b9b6020836115c6565b9150611ba682611b65565b602082019050919050565b60006020820190508181036000830152611bca81611b8e565b9050919050565b600061010082019050611be7600083018b61143a565b611bf4602083018a611315565b611c01604083018961143a565b611c0e606083018861143a565b611c1b608083018761143a565b611c2860a083018661143a565b611c3560c083018561143a565b611c4260e083018461143a565b9998505050505050505050565b7f4f776e61626c653a206e6577206f776e657220697320746865207a65726f206160008201527f6464726573730000000000000000000000000000000000000000000000000000602082015250565b6000611cab6026836115c6565b9150611cb682611c4f565b604082019050919050565b60006020820190508181036000830152611cda81611c9e565b9050919050565b7f5265656e7472616e637947756172643a207265656e7472616e742063616c6c00600082015250565b6000611d17601f836115c6565b9150611d2282611ce1565b602082019050919050565b60006020820190508181036000830152611d4681611d0a565b9050919050565b7f4f776e61626c653a2063616c6c6572206973206e6f7420746865206f776e6572600082015250565b6000611d836020836115c6565b9150611d8e82611d4d565b602082019050919050565b60006020820190508181036000830152611db281611d76565b9050919050565b7f7365727669636520666565206d75737420636f766572206174206c656173742060008201527f74686520657865637574696f6e2067617320726571756972656d656e74000000602082015250565b6000611e15603d836115c6565b9150611e2082611db9565b604082019050919050565b60006020820190508181036000830152611e4481611e08565b9050919050565b6000611e5682611344565b9150611e6183611344565b9250828201905080821115611e7957611e7861194c565b5b9291505056fea2646970667358221220e4b5543c05e9110b6d7d7341f9b90533e90c69be741ff4e02c50670726aca3ab64736f6c63430008120033",
					"opcodes": "PUSH1 0x80 PUSH1 0x40 MSTORE CALLVALUE DUP1 ISZERO PUSH3 0x11 JUMPI PUSH1 0x0 DUP1 REVERT JUMPDEST POP PUSH1 0x40 MLOAD PUSH3 0x226B CODESIZE SUB DUP1 PUSH3 0x226B DUP4 CODECOPY DUP2 DUP2 ADD PUSH1 0x40 MSTORE DUP2 ADD SWAP1 PUSH3 0x37 SWAP2 SWAP1 PUSH3 0x28B JUMP JUMPDEST PUSH3 0x57 PUSH3 0x4B PUSH3 0xCE PUSH1 0x20 SHL PUSH1 0x20 SHR JUMP JUMPDEST PUSH3 0xD6 PUSH1 0x20 SHL PUSH1 0x20 SHR JUMP JUMPDEST PUSH1 0x1 DUP1 DUP2 SWAP1 SSTORE POP DUP4 PUSH1 0x2 DUP2 SWAP1 SSTORE POP DUP3 PUSH1 0x3 DUP2 SWAP1 SSTORE POP DUP2 PUSH1 0x5 PUSH1 0x0 PUSH2 0x100 EXP DUP2 SLOAD DUP2 PUSH20 0xFFFFFFFFFFFFFFFFFFFFFFFFFFFFFFFFFFFFFFFF MUL NOT AND SWAP1 DUP4 PUSH20 0xFFFFFFFFFFFFFFFFFFFFFFFFFFFFFFFFFFFFFFFF AND MUL OR SWAP1 SSTORE POP DUP1 PUSH1 0x7 DUP2 SWAP1 SSTORE POP PUSH3 0xC4 PUSH3 0x19A PUSH1 0x20 SHL PUSH1 0x20 SHR JUMP JUMPDEST POP POP POP POP PUSH3 0x3A6 JUMP JUMPDEST PUSH1 0x0 CALLER SWAP1 POP SWAP1 JUMP JUMPDEST PUSH1 0x0 DUP1 PUSH1 0x0 SWAP1 SLOAD SWAP1 PUSH2 0x100 EXP SWAP1 DIV PUSH20 0xFFFFFFFFFFFFFFFFFFFFFFFFFFFFFFFFFFFFFFFF AND SWAP1 POP DUP2 PUSH1 0x0 DUP1 PUSH2 0x100 EXP DUP2 SLOAD DUP2 PUSH20 0xFFFFFFFFFFFFFFFFFFFFFFFFFFFFFFFFFFFFFFFF MUL NOT AND SWAP1 DUP4 PUSH20 0xFFFFFFFFFFFFFFFFFFFFFFFFFFFFFFFFFFFFFFFF AND MUL OR SWAP1 SSTORE POP DUP2 PUSH20 0xFFFFFFFFFFFFFFFFFFFFFFFFFFFFFFFFFFFFFFFF AND DUP2 PUSH20 0xFFFFFFFFFFFFFFFFFFFFFFFFFFFFFFFFFFFFFFFF AND PUSH32 0x8BE0079C531659141344CD1FD0A4F28419497F9722A3DAAFE3B4186F6B6457E0 PUSH1 0x40 MLOAD PUSH1 0x40 MLOAD DUP1 SWAP2 SUB SWAP1 LOG3 POP POP JUMP JUMPDEST PUSH1 0x2 SLOAD PUSH1 0x3 SLOAD LT ISZERO PUSH3 0x1E4 JUMPI PUSH1 0x40 MLOAD PUSH32 0x8C379A000000000000000000000000000000000000000000000000000000000 DUP2 MSTORE PUSH1 0x4 ADD PUSH3 0x1DB SWAP1 PUSH3 0x384 JUMP JUMPDEST PUSH1 0x40 MLOAD DUP1 SWAP2 SUB SWAP1 REVERT JUMPDEST JUMP JUMPDEST PUSH1 0x0 DUP1 REVERT JUMPDEST PUSH1 0x0 DUP2 SWAP1 POP SWAP2 SWAP1 POP JUMP JUMPDEST PUSH3 0x200 DUP2 PUSH3 0x1EB JUMP JUMPDEST DUP2 EQ PUSH3 0x20C JUMPI PUSH1 0x0 DUP1 REVERT JUMPDEST POP JUMP JUMPDEST PUSH1 0x0 DUP2 MLOAD SWAP1 POP PUSH3 0x220 DUP2 PUSH3 0x1F5 JUMP JUMPDEST SWAP3 SWAP2 POP POP JUMP JUMPDEST PUSH1 0x0 PUSH20 0xFFFFFFFFFFFFFFFFFFFFFFFFFFFFFFFFFFFFFFFF DUP3 AND SWAP1 POP SWAP2 SWAP1 POP JUMP JUMPDEST PUSH1 0x0 PUSH3 0x253 DUP3 PUSH3 0x226 JUMP JUMPDEST SWAP1 POP SWAP2 SWAP1 POP JUMP JUMPDEST PUSH3 0x265 DUP2 PUSH3 0x246 JUMP JUMPDEST DUP2 EQ PUSH3 0x271 JUMPI PUSH1 0x0 DUP1 REVERT JUMPDEST POP JUMP JUMPDEST PUSH1 0x0 DUP2 MLOAD SWAP1 POP PUSH3 0x285 DUP2 PUSH3 0x25A JUMP JUMPDEST SWAP3 SWAP2 POP POP JUMP JUMPDEST PUSH1 0x0 DUP1 PUSH1 0x0 DUP1 PUSH1 0x80 DUP6 DUP8 SUB SLT ISZERO PUSH3 0x2A8 JUMPI PUSH3 0x2A7 PUSH3 0x1E6 JUMP JUMPDEST JUMPDEST PUSH1 0x0 PUSH3 0x2B8 DUP8 DUP3 DUP9 ADD PUSH3 0x20F JUMP JUMPDEST SWAP5 POP POP PUSH1 0x20 PUSH3 0x2CB DUP8 DUP3 DUP9 ADD PUSH3 0x20F JUMP JUMPDEST SWAP4 POP POP PUSH1 0x40 PUSH3 0x2DE DUP8 DUP3 DUP9 ADD PUSH3 0x274 JUMP JUMPDEST SWAP3 POP POP PUSH1 0x60 PUSH3 0x2F1 DUP8 DUP3 DUP9 ADD PUSH3 0x20F JUMP JUMPDEST SWAP2 POP POP SWAP3 SWAP6 SWAP2 SWAP5 POP SWAP3 POP JUMP JUMPDEST PUSH1 0x0 DUP3 DUP3 MSTORE PUSH1 0x20 DUP3 ADD SWAP1 POP SWAP3 SWAP2 POP POP JUMP JUMPDEST PUSH32 0x7365727669636520666565206D75737420636F766572206174206C6561737420 PUSH1 0x0 DUP3 ADD MSTORE PUSH32 0x74686520657865637574696F6E2067617320726571756972656D656E74000000 PUSH1 0x20 DUP3 ADD MSTORE POP JUMP JUMPDEST PUSH1 0x0 PUSH3 0x36C PUSH1 0x3D DUP4 PUSH3 0x2FD JUMP JUMPDEST SWAP2 POP PUSH3 0x379 DUP3 PUSH3 0x30E JUMP JUMPDEST PUSH1 0x40 DUP3 ADD SWAP1 POP SWAP2 SWAP1 POP JUMP JUMPDEST PUSH1 0x0 PUSH1 0x20 DUP3 ADD SWAP1 POP DUP2 DUP2 SUB PUSH1 0x0 DUP4 ADD MSTORE PUSH3 0x39F DUP2 PUSH3 0x35D JUMP JUMPDEST SWAP1 POP SWAP2 SWAP1 POP JUMP JUMPDEST PUSH2 0x1EB5 DUP1 PUSH3 0x3B6 PUSH1 0x0 CODECOPY PUSH1 0x0 RETURN INVALID PUSH1 0x80 PUSH1 0x40 MSTORE PUSH1 0x4 CALLDATASIZE LT PUSH2 0xF3 JUMPI PUSH1 0x0 CALLDATALOAD PUSH1 0xE0 SHR DUP1 PUSH4 0x8ABDF5AA GT PUSH2 0x8A JUMPI DUP1 PUSH4 0xA191078A GT PUSH2 0x59 JUMPI DUP1 PUSH4 0xA191078A EQ PUSH2 0x2C8 JUMPI DUP1 PUSH4 0xB6502943 EQ PUSH2 0x2F1 JUMPI DUP1 PUSH4 0xD043BA19 EQ PUSH2 0x31C JUMPI DUP1 PUSH4 0xF2FDE38B EQ PUSH2 0x345 JUMPI PUSH2 0xF3 JUMP JUMPDEST DUP1 PUSH4 0x8ABDF5AA EQ PUSH2 0x206 JUMPI DUP1 PUSH4 0x8CFFF8C3 EQ PUSH2 0x231 JUMPI DUP1 PUSH4 0x8DA5CB5B EQ PUSH2 0x25C JUMPI DUP1 PUSH4 0x9ECEBE2A EQ PUSH2 0x287 JUMPI PUSH2 0xF3 JUMP JUMPDEST DUP1 PUSH4 0x6F0372AF GT PUSH2 0xC6 JUMPI DUP1 PUSH4 0x6F0372AF EQ PUSH2 0x19E JUMPI DUP1 PUSH4 0x715018A6 EQ PUSH2 0x1BA JUMPI DUP1 PUSH4 0x7B1AA45F EQ PUSH2 0x1D1 JUMPI DUP1 PUSH4 0x8429B045 EQ PUSH2 0x1DB JUMPI PUSH2 0xF3 JUMP JUMPDEST DUP1 PUSH4 0x25608185 EQ PUSH2 0xF8 JUMPI DUP1 PUSH4 0x2E1A7D4D EQ PUSH2 0x123 JUMPI DUP1 PUSH4 0x33F707D1 EQ PUSH2 0x14C JUMPI DUP1 PUSH4 0x54CAEF7D EQ PUSH2 0x175 JUMPI JUMPDEST PUSH1 0x0 DUP1 REVERT JUMPDEST CALLVALUE DUP1 ISZERO PUSH2 0x104 JUMPI PUSH1 0x0 DUP1 REVERT JUMPDEST POP PUSH2 0x10D PUSH2 0x36E JUMP JUMPDEST PUSH1 0x40 MLOAD PUSH2 0x11A SWAP2 SWAP1 PUSH2 0x1324 JUMP JUMPDEST PUSH1 0x40 MLOAD DUP1 SWAP2 SUB SWAP1 RETURN JUMPDEST CALLVALUE DUP1 ISZERO PUSH2 0x12F JUMPI PUSH1 0x0 DUP1 REVERT JUMPDEST POP PUSH2 0x14A PUSH1 0x4 DUP1 CALLDATASIZE SUB DUP2 ADD SWAP1 PUSH2 0x145 SWAP2 SWAP1 PUSH2 0x137A JUMP JUMPDEST PUSH2 0x394 JUMP JUMPDEST STOP JUMPDEST CALLVALUE DUP1 ISZERO PUSH2 0x158 JUMPI PUSH1 0x0 DUP1 REVERT JUMPDEST POP PUSH2 0x173 PUSH1 0x4 DUP1 CALLDATASIZE SUB DUP2 ADD SWAP1 PUSH2 0x16E SWAP2 SWAP1 PUSH2 0x137A JUMP JUMPDEST PUSH2 0x654 JUMP JUMPDEST STOP JUMPDEST CALLVALUE DUP1 ISZERO PUSH2 0x181 JUMPI PUSH1 0x0 DUP1 REVERT JUMPDEST POP PUSH2 0x19C PUSH1 0x4 DUP1 CALLDATASIZE SUB DUP2 ADD SWAP1 PUSH2 0x197 SWAP2 SWAP1 PUSH2 0x137A JUMP JUMPDEST PUSH2 0x6F2 JUMP JUMPDEST STOP JUMPDEST PUSH2 0x1B8 PUSH1 0x4 DUP1 CALLDATASIZE SUB DUP2 ADD SWAP1 PUSH2 0x1B3 SWAP2 SWAP1 PUSH2 0x13D3 JUMP JUMPDEST PUSH2 0x70C JUMP JUMPDEST STOP JUMPDEST CALLVALUE DUP1 ISZERO PUSH2 0x1C6 JUMPI PUSH1 0x0 DUP1 REVERT JUMPDEST POP PUSH2 0x1CF PUSH2 0xB95 JUMP JUMPDEST STOP JUMPDEST PUSH2 0x1D9 PUSH2 0xBA9 JUMP JUMPDEST STOP JUMPDEST CALLVALUE DUP1 ISZERO PUSH2 0x1E7 JUMPI PUSH1 0x0 DUP1 REVERT JUMPDEST POP PUSH2 0x1F0 PUSH2 0xBB3 JUMP JUMPDEST PUSH1 0x40 MLOAD PUSH2 0x1FD SWAP2 SWAP1 PUSH2 0x1449 JUMP JUMPDEST PUSH1 0x40 MLOAD DUP1 SWAP2 SUB SWAP1 RETURN JUMPDEST CALLVALUE DUP1 ISZERO PUSH2 0x212 JUMPI PUSH1 0x0 DUP1 REVERT JUMPDEST POP PUSH2 0x21B PUSH2 0xBB9 JUMP JUMPDEST PUSH1 0x40 MLOAD PUSH2 0x228 SWAP2 SWAP1 PUSH2 0x1449 JUMP JUMPDEST PUSH1 0x40 MLOAD DUP1 SWAP2 SUB SWAP1 RETURN JUMPDEST CALLVALUE DUP1 ISZERO PUSH2 0x23D JUMPI PUSH1 0x0 DUP1 REVERT JUMPDEST POP PUSH2 0x246 PUSH2 0xBBF JUMP JUMPDEST PUSH1 0x40 MLOAD PUSH2 0x253 SWAP2 SWAP1 PUSH2 0x1449 JUMP JUMPDEST PUSH1 0x40 MLOAD DUP1 SWAP2 SUB SWAP1 RETURN JUMPDEST CALLVALUE DUP1 ISZERO PUSH2 0x268 JUMPI PUSH1 0x0 DUP1 REVERT JUMPDEST POP PUSH2 0x271 PUSH2 0xBC5 JUMP JUMPDEST PUSH1 0x40 MLOAD PUSH2 0x27E SWAP2 SWAP1 PUSH2 0x1324 JUMP JUMPDEST PUSH1 0x40 MLOAD DUP1 SWAP2 SUB SWAP1 RETURN JUMPDEST CALLVALUE DUP1 ISZERO PUSH2 0x293 JUMPI PUSH1 0x0 DUP1 REVERT JUMPDEST POP PUSH2 0x2AE PUSH1 0x4 DUP1 CALLDATASIZE SUB DUP2 ADD SWAP1 PUSH2 0x2A9 SWAP2 SWAP1 PUSH2 0x1464 JUMP JUMPDEST PUSH2 0xBEE JUMP JUMPDEST PUSH1 0x40 MLOAD PUSH2 0x2BF SWAP6 SWAP5 SWAP4 SWAP3 SWAP2 SWAP1 PUSH2 0x14A4 JUMP JUMPDEST PUSH1 0x40 MLOAD DUP1 SWAP2 SUB SWAP1 RETURN JUMPDEST CALLVALUE DUP1 ISZERO PUSH2 0x2D4 JUMPI PUSH1 0x0 DUP1 REVERT JUMPDEST POP PUSH2 0x2EF PUSH1 0x4 DUP1 CALLDATASIZE SUB DUP2 ADD SWAP1 PUSH2 0x2EA SWAP2 SWAP1 PUSH2 0x137A JUMP JUMPDEST PUSH2 0xC71 JUMP JUMPDEST STOP JUMPDEST CALLVALUE DUP1 ISZERO PUSH2 0x2FD JUMPI PUSH1 0x0 DUP1 REVERT JUMPDEST POP PUSH2 0x306 PUSH2 0xC8B JUMP JUMPDEST PUSH1 0x40 MLOAD PUSH2 0x313 SWAP2 SWAP1 PUSH2 0x1449 JUMP JUMPDEST PUSH1 0x40 MLOAD DUP1 SWAP2 SUB SWAP1 RETURN JUMPDEST CALLVALUE DUP1 ISZERO PUSH2 0x328 JUMPI PUSH1 0x0 DUP1 REVERT JUMPDEST POP PUSH2 0x343 PUSH1 0x4 DUP1 CALLDATASIZE SUB DUP2 ADD SWAP1 PUSH2 0x33E SWAP2 SWAP1 PUSH2 0x14F7 JUMP JUMPDEST PUSH2 0xC91 JUMP JUMPDEST STOP JUMPDEST CALLVALUE DUP1 ISZERO PUSH2 0x351 JUMPI PUSH1 0x0 DUP1 REVERT JUMPDEST POP PUSH2 0x36C PUSH1 0x4 DUP1 CALLDATASIZE SUB DUP2 ADD SWAP1 PUSH2 0x367 SWAP2 SWAP1 PUSH2 0x1599 JUMP JUMPDEST PUSH2 0x100E JUMP JUMPDEST STOP JUMPDEST PUSH1 0x5 PUSH1 0x0 SWAP1 SLOAD SWAP1 PUSH2 0x100 EXP SWAP1 DIV PUSH20 0xFFFFFFFFFFFFFFFFFFFFFFFFFFFFFFFFFFFFFFFF AND DUP2 JUMP JUMPDEST PUSH2 0x39C PUSH2 0x1091 JUMP JUMPDEST PUSH1 0x0 PUSH1 0x6 PUSH1 0x0 CALLER PUSH20 0xFFFFFFFFFFFFFFFFFFFFFFFFFFFFFFFFFFFFFFFF AND PUSH20 0xFFFFFFFFFFFFFFFFFFFFFFFFFFFFFFFFFFFFFFFF AND DUP2 MSTORE PUSH1 0x20 ADD SWAP1 DUP2 MSTORE PUSH1 0x20 ADD PUSH1 0x0 KECCAK256 PUSH1 0x0 DUP4 DUP2 MSTORE PUSH1 0x20 ADD SWAP1 DUP2 MSTORE PUSH1 0x20 ADD PUSH1 0x0 KECCAK256 PUSH1 0x40 MLOAD DUP1 PUSH1 0xA0 ADD PUSH1 0x40 MSTORE SWAP1 DUP2 PUSH1 0x0 DUP3 ADD PUSH1 0x0 SWAP1 SLOAD SWAP1 PUSH2 0x100 EXP SWAP1 DIV PUSH20 0xFFFFFFFFFFFFFFFFFFFFFFFFFFFFFFFFFFFFFFFF AND PUSH20 0xFFFFFFFFFFFFFFFFFFFFFFFFFFFFFFFFFFFFFFFF AND PUSH20 0xFFFFFFFFFFFFFFFFFFFFFFFFFFFFFFFFFFFFFFFF AND DUP2 MSTORE PUSH1 0x20 ADD PUSH1 0x1 DUP3 ADD PUSH1 0x0 SWAP1 SLOAD SWAP1 PUSH2 0x100 EXP SWAP1 DIV PUSH20 0xFFFFFFFFFFFFFFFFFFFFFFFFFFFFFFFFFFFFFFFF AND PUSH20 0xFFFFFFFFFFFFFFFFFFFFFFFFFFFFFFFFFFFFFFFF AND PUSH20 0xFFFFFFFFFFFFFFFFFFFFFFFFFFFFFFFFFFFFFFFF AND DUP2 MSTORE PUSH1 0x20 ADD PUSH1 0x2 DUP3 ADD SLOAD DUP2 MSTORE PUSH1 0x20 ADD PUSH1 0x3 DUP3 ADD SLOAD DUP2 MSTORE PUSH1 0x20 ADD PUSH1 0x4 DUP3 ADD SLOAD DUP2 MSTORE POP POP SWAP1 POP PUSH2 0x4CE DUP2 PUSH2 0x10E0 JUMP JUMPDEST PUSH2 0x50D JUMPI PUSH1 0x40 MLOAD PUSH32 0x8C379A000000000000000000000000000000000000000000000000000000000 DUP2 MSTORE PUSH1 0x4 ADD PUSH2 0x504 SWAP1 PUSH2 0x1623 JUMP JUMPDEST PUSH1 0x40 MLOAD DUP1 SWAP2 SUB SWAP1 REVERT JUMPDEST CALLER PUSH20 0xFFFFFFFFFFFFFFFFFFFFFFFFFFFFFFFFFFFFFFFF AND DUP2 PUSH1 0x0 ADD MLOAD PUSH20 0xFFFFFFFFFFFFFFFFFFFFFFFFFFFFFFFFFFFFFFFF AND EQ PUSH2 0x54D JUMPI PUSH2 0x54C PUSH2 0x1643 JUMP JUMPDEST JUMPDEST PUSH1 0x6 PUSH1 0x0 CALLER PUSH20 0xFFFFFFFFFFFFFFFFFFFFFFFFFFFFFFFFFFFFFFFF AND PUSH20 0xFFFFFFFFFFFFFFFFFFFFFFFFFFFFFFFFFFFFFFFF AND DUP2 MSTORE PUSH1 0x20 ADD SWAP1 DUP2 MSTORE PUSH1 0x20 ADD PUSH1 0x0 KECCAK256 PUSH1 0x0 DUP4 DUP2 MSTORE PUSH1 0x20 ADD SWAP1 DUP2 MSTORE PUSH1 0x20 ADD PUSH1 0x0 KECCAK256 PUSH1 0x0 DUP1 DUP3 ADD PUSH1 0x0 PUSH2 0x100 EXP DUP2 SLOAD SWAP1 PUSH20 0xFFFFFFFFFFFFFFFFFFFFFFFFFFFFFFFFFFFFFFFF MUL NOT AND SWAP1 SSTORE PUSH1 0x1 DUP3 ADD PUSH1 0x0 PUSH2 0x100 EXP DUP2 SLOAD SWAP1 PUSH20 0xFFFFFFFFFFFFFFFFFFFFFFFFFFFFFFFFFFFFFFFF MUL NOT AND SWAP1 SSTORE PUSH1 0x2 DUP3 ADD PUSH1 0x0 SWAP1 SSTORE PUSH1 0x3 DUP3 ADD PUSH1 0x0 SWAP1 SSTORE PUSH1 0x4 DUP3 ADD PUSH1 0x0 SWAP1 SSTORE POP POP CALLER PUSH20 0xFFFFFFFFFFFFFFFFFFFFFFFFFFFFFFFFFFFFFFFF AND PUSH2 0x8FC DUP3 PUSH1 0x40 ADD MLOAD SWAP1 DUP2 ISZERO MUL SWAP1 PUSH1 0x40 MLOAD PUSH1 0x0 PUSH1 0x40 MLOAD DUP1 DUP4 SUB DUP2 DUP6 DUP9 DUP9 CALL SWAP4 POP POP POP POP PUSH2 0x648 JUMPI PUSH1 0x0 DUP1 REVERT JUMPDEST POP PUSH2 0x651 PUSH2 0x111D JUMP JUMPDEST POP JUMP JUMPDEST PUSH2 0x65C PUSH2 0x1126 JUMP JUMPDEST PUSH2 0x664 PUSH2 0x1091 JUMP JUMPDEST DUP1 PUSH1 0x4 SLOAD LT ISZERO PUSH2 0x6A9 JUMPI PUSH1 0x40 MLOAD PUSH32 0x8C379A000000000000000000000000000000000000000000000000000000000 DUP2 MSTORE PUSH1 0x4 ADD PUSH2 0x6A0 SWAP1 PUSH2 0x170A JUMP JUMPDEST PUSH1 0x40 MLOAD DUP1 SWAP2 SUB SWAP1 REVERT JUMPDEST CALLER PUSH20 0xFFFFFFFFFFFFFFFFFFFFFFFFFFFFFFFFFFFFFFFF AND PUSH2 0x8FC DUP3 SWAP1 DUP2 ISZERO MUL SWAP1 PUSH1 0x40 MLOAD PUSH1 0x0 PUSH1 0x40 MLOAD DUP1 DUP4 SUB DUP2 DUP6 DUP9 DUP9 CALL SWAP4 POP POP POP POP PUSH2 0x6E7 JUMPI PUSH1 0x0 DUP1 REVERT JUMPDEST PUSH2 0x6EF PUSH2 0x111D JUMP JUMPDEST POP JUMP JUMPDEST PUSH2 0x6FA PUSH2 0x1126 JUMP JUMPDEST DUP1 PUSH1 0x2 DUP2 SWAP1 SSTORE POP PUSH2 0x709 PUSH2 0x11A4 JUMP JUMPDEST POP JUMP JUMPDEST PUSH1 0x0 PUSH20 0xFFFFFFFFFFFFFFFFFFFFFFFFFFFFFFFFFFFFFFFF AND CALLER PUSH20 0xFFFFFFFFFFFFFFFFFFFFFFFFFFFFFFFFFFFFFFFF AND SUB PUSH2 0x77B JUMPI PUSH1 0x40 MLOAD PUSH32 0x8C379A000000000000000000000000000000000000000000000000000000000 DUP2 MSTORE PUSH1 0x4 ADD PUSH2 0x772 SWAP1 PUSH2 0x1776 JUMP JUMPDEST PUSH1 0x40 MLOAD DUP1 SWAP2 SUB SWAP1 REVERT JUMPDEST PUSH1 0x0 PUSH20 0xFFFFFFFFFFFFFFFFFFFFFFFFFFFFFFFFFFFFFFFF AND DUP4 PUSH20 0xFFFFFFFFFFFFFFFFFFFFFFFFFFFFFFFFFFFFFFFF AND SUB PUSH2 0x7EA JUMPI PUSH1 0x40 MLOAD PUSH32 0x8C379A000000000000000000000000000000000000000000000000000000000 DUP2 MSTORE PUSH1 0x4 ADD PUSH2 0x7E1 SWAP1 PUSH2 0x1808 JUMP JUMPDEST PUSH1 0x40 MLOAD DUP1 SWAP2 SUB SWAP1 REVERT JUMPDEST PUSH1 0x0 DUP3 GT PUSH2 0x82D JUMPI PUSH1 0x40 MLOAD PUSH32 0x8C379A000000000000000000000000000000000000000000000000000000000 DUP2 MSTORE PUSH1 0x4 ADD PUSH2 0x824 SWAP1 PUSH2 0x189A JUMP JUMPDEST PUSH1 0x40 MLOAD DUP1 SWAP2 SUB SWAP1 REVERT JUMPDEST PUSH1 0x3 SLOAD CALLVALUE LT ISZERO PUSH2 0x872 JUMPI PUSH1 0x40 MLOAD PUSH32 0x8C379A000000000000000000000000000000000000000000000000000000000 DUP2 MSTORE PUSH1 0x4 ADD PUSH2 0x869 SWAP1 PUSH2 0x192C JUMP JUMPDEST PUSH1 0x40 MLOAD DUP1 SWAP2 SUB SWAP1 REVERT JUMPDEST PUSH1 0x0 PUSH1 0x3 SLOAD CALLVALUE PUSH2 0x882 SWAP2 SWAP1 PUSH2 0x197B JUMP JUMPDEST SWAP1 POP DUP2 DUP2 LT ISZERO PUSH2 0x8C7 JUMPI PUSH1 0x40 MLOAD PUSH32 0x8C379A000000000000000000000000000000000000000000000000000000000 DUP2 MSTORE PUSH1 0x4 ADD PUSH2 0x8BE SWAP1 PUSH2 0x1A47 JUMP JUMPDEST PUSH1 0x40 MLOAD DUP1 SWAP2 SUB SWAP1 REVERT JUMPDEST PUSH2 0x9F4 PUSH1 0x6 PUSH1 0x0 CALLER PUSH20 0xFFFFFFFFFFFFFFFFFFFFFFFFFFFFFFFFFFFFFFFF AND PUSH20 0xFFFFFFFFFFFFFFFFFFFFFFFFFFFFFFFFFFFFFFFF AND DUP2 MSTORE PUSH1 0x20 ADD SWAP1 DUP2 MSTORE PUSH1 0x20 ADD PUSH1 0x0 KECCAK256 PUSH1 0x0 DUP8 DUP2 MSTORE PUSH1 0x20 ADD SWAP1 DUP2 MSTORE PUSH1 0x20 ADD PUSH1 0x0 KECCAK256 PUSH1 0x40 MLOAD DUP1 PUSH1 0xA0 ADD PUSH1 0x40 MSTORE SWAP1 DUP2 PUSH1 0x0 DUP3 ADD PUSH1 0x0 SWAP1 SLOAD SWAP1 PUSH2 0x100 EXP SWAP1 DIV PUSH20 0xFFFFFFFFFFFFFFFFFFFFFFFFFFFFFFFFFFFFFFFF AND PUSH20 0xFFFFFFFFFFFFFFFFFFFFFFFFFFFFFFFFFFFFFFFF AND PUSH20 0xFFFFFFFFFFFFFFFFFFFFFFFFFFFFFFFFFFFFFFFF AND DUP2 MSTORE PUSH1 0x20 ADD PUSH1 0x1 DUP3 ADD PUSH1 0x0 SWAP1 SLOAD SWAP1 PUSH2 0x100 EXP SWAP1 DIV PUSH20 0xFFFFFFFFFFFFFFFFFFFFFFFFFFFFFFFFFFFFFFFF AND PUSH20 0xFFFFFFFFFFFFFFFFFFFFFFFFFFFFFFFFFFFFFFFF AND PUSH20 0xFFFFFFFFFFFFFFFFFFFFFFFFFFFFFFFFFFFFFFFF AND DUP2 MSTORE PUSH1 0x20 ADD PUSH1 0x2 DUP3 ADD SLOAD DUP2 MSTORE PUSH1 0x20 ADD PUSH1 0x3 DUP3 ADD SLOAD DUP2 MSTORE PUSH1 0x20 ADD PUSH1 0x4 DUP3 ADD SLOAD DUP2 MSTORE POP POP PUSH2 0x10E0 JUMP JUMPDEST ISZERO PUSH2 0xA34 JUMPI PUSH1 0x40 MLOAD PUSH32 0x8C379A000000000000000000000000000000000000000000000000000000000 DUP2 MSTORE PUSH1 0x4 ADD PUSH2 0xA2B SWAP1 PUSH2 0x1AD9 JUMP JUMPDEST PUSH1 0x40 MLOAD DUP1 SWAP2 SUB SWAP1 REVERT JUMPDEST PUSH2 0xA3C PUSH2 0x11ED JUMP JUMPDEST PUSH1 0x40 MLOAD DUP1 PUSH1 0xA0 ADD PUSH1 0x40 MSTORE DUP1 CALLER PUSH20 0xFFFFFFFFFFFFFFFFFFFFFFFFFFFFFFFFFFFFFFFF AND DUP2 MSTORE PUSH1 0x20 ADD DUP6 PUSH20 0xFFFFFFFFFFFFFFFFFFFFFFFFFFFFFFFFFFFFFFFF AND DUP2 MSTORE PUSH1 0x20 ADD DUP3 DUP2 MSTORE PUSH1 0x20 ADD DUP4 DUP2 MSTORE PUSH1 0x20 ADD DUP5 DUP2 MSTORE POP PUSH1 0x6 PUSH1 0x0 CALLER PUSH20 0xFFFFFFFFFFFFFFFFFFFFFFFFFFFFFFFFFFFFFFFF AND PUSH20 0xFFFFFFFFFFFFFFFFFFFFFFFFFFFFFFFFFFFFFFFF AND DUP2 MSTORE PUSH1 0x20 ADD SWAP1 DUP2 MSTORE PUSH1 0x20 ADD PUSH1 0x0 KECCAK256 PUSH1 0x0 DUP8 DUP2 MSTORE PUSH1 0x20 ADD SWAP1 DUP2 MSTORE PUSH1 0x20 ADD PUSH1 0x0 KECCAK256 PUSH1 0x0 DUP3 ADD MLOAD DUP2 PUSH1 0x0 ADD PUSH1 0x0 PUSH2 0x100 EXP DUP2 SLOAD DUP2 PUSH20 0xFFFFFFFFFFFFFFFFFFFFFFFFFFFFFFFFFFFFFFFF MUL NOT AND SWAP1 DUP4 PUSH20 0xFFFFFFFFFFFFFFFFFFFFFFFFFFFFFFFFFFFFFFFF AND MUL OR SWAP1 SSTORE POP PUSH1 0x20 DUP3 ADD MLOAD DUP2 PUSH1 0x1 ADD PUSH1 0x0 PUSH2 0x100 EXP DUP2 SLOAD DUP2 PUSH20 0xFFFFFFFFFFFFFFFFFFFFFFFFFFFFFFFFFFFFFFFF MUL NOT AND SWAP1 DUP4 PUSH20 0xFFFFFFFFFFFFFFFFFFFFFFFFFFFFFFFFFFFFFFFF AND MUL OR SWAP1 SSTORE POP PUSH1 0x40 DUP3 ADD MLOAD DUP2 PUSH1 0x2 ADD SSTORE PUSH1 0x60 DUP3 ADD MLOAD DUP2 PUSH1 0x3 ADD SSTORE PUSH1 0x80 DUP3 ADD MLOAD DUP2 PUSH1 0x4 ADD SSTORE SWAP1 POP POP POP POP POP POP POP JUMP JUMPDEST PUSH2 0xB9D PUSH2 0x1126 JUMP JUMPDEST PUSH2 0xBA7 PUSH1 0x0 PUSH2 0x1217 JUMP JUMPDEST JUMP JUMPDEST PUSH2 0xBB1 PUSH2 0x1126 JUMP JUMPDEST JUMP JUMPDEST PUSH1 0x2 SLOAD DUP2 JUMP JUMPDEST PUSH1 0x3 SLOAD DUP2 JUMP JUMPDEST PUSH1 0x4 SLOAD DUP2 JUMP JUMPDEST PUSH1 0x0 DUP1 PUSH1 0x0 SWAP1 SLOAD SWAP1 PUSH2 0x100 EXP SWAP1 DIV PUSH20 0xFFFFFFFFFFFFFFFFFFFFFFFFFFFFFFFFFFFFFFFF AND SWAP1 POP SWAP1 JUMP JUMPDEST PUSH1 0x6 PUSH1 0x20 MSTORE DUP2 PUSH1 0x0 MSTORE PUSH1 0x40 PUSH1 0x0 KECCAK256 PUSH1 0x20 MSTORE DUP1 PUSH1 0x0 MSTORE PUSH1 0x40 PUSH1 0x0 KECCAK256 PUSH1 0x0 SWAP2 POP SWAP2 POP POP DUP1 PUSH1 0x0 ADD PUSH1 0x0 SWAP1 SLOAD SWAP1 PUSH2 0x100 EXP SWAP1 DIV PUSH20 0xFFFFFFFFFFFFFFFFFFFFFFFFFFFFFFFFFFFFFFFF AND SWAP1 DUP1 PUSH1 0x1 ADD PUSH1 0x0 SWAP1 SLOAD SWAP1 PUSH2 0x100 EXP SWAP1 DIV PUSH20 0xFFFFFFFFFFFFFFFFFFFFFFFFFFFFFFFFFFFFFFFF AND SWAP1 DUP1 PUSH1 0x2 ADD SLOAD SWAP1 DUP1 PUSH1 0x3 ADD SLOAD SWAP1 DUP1 PUSH1 0x4 ADD SLOAD SWAP1 POP DUP6 JUMP JUMPDEST PUSH2 0xC79 PUSH2 0x1126 JUMP JUMPDEST DUP1 PUSH1 0x3 DUP2 SWAP1 SSTORE POP PUSH2 0xC88 PUSH2 0x11A4 JUMP JUMPDEST POP JUMP JUMPDEST PUSH1 0x7 SLOAD DUP2 JUMP JUMPDEST PUSH2 0xC99 PUSH2 0x1126 JUMP JUMPDEST PUSH2 0xCA1 PUSH2 0x1091 JUMP JUMPDEST PUSH1 0x0 PUSH1 0x6 PUSH1 0x0 DUP10 PUSH20 0xFFFFFFFFFFFFFFFFFFFFFFFFFFFFFFFFFFFFFFFF AND PUSH20 0xFFFFFFFFFFFFFFFFFFFFFFFFFFFFFFFFFFFFFFFF AND DUP2 MSTORE PUSH1 0x20 ADD SWAP1 DUP2 MSTORE PUSH1 0x20 ADD PUSH1 0x0 KECCAK256 PUSH1 0x0 DUP9 DUP2 MSTORE PUSH1 0x20 ADD SWAP1 DUP2 MSTORE PUSH1 0x20 ADD PUSH1 0x0 KECCAK256 PUSH1 0x40 MLOAD DUP1 PUSH1 0xA0 ADD PUSH1 0x40 MSTORE SWAP1 DUP2 PUSH1 0x0 DUP3 ADD PUSH1 0x0 SWAP1 SLOAD SWAP1 PUSH2 0x100 EXP SWAP1 DIV PUSH20 0xFFFFFFFFFFFFFFFFFFFFFFFFFFFFFFFFFFFFFFFF AND PUSH20 0xFFFFFFFFFFFFFFFFFFFFFFFFFFFFFFFFFFFFFFFF AND PUSH20 0xFFFFFFFFFFFFFFFFFFFFFFFFFFFFFFFFFFFFFFFF AND DUP2 MSTORE PUSH1 0x20 ADD PUSH1 0x1 DUP3 ADD PUSH1 0x0 SWAP1 SLOAD SWAP1 PUSH2 0x100 EXP SWAP1 DIV PUSH20 0xFFFFFFFFFFFFFFFFFFFFFFFFFFFFFFFFFFFFFFFF AND PUSH20 0xFFFFFFFFFFFFFFFFFFFFFFFFFFFFFFFFFFFFFFFF AND PUSH20 0xFFFFFFFFFFFFFFFFFFFFFFFFFFFFFFFFFFFFFFFF AND DUP2 MSTORE PUSH1 0x20 ADD PUSH1 0x2 DUP3 ADD SLOAD DUP2 MSTORE PUSH1 0x20 ADD PUSH1 0x3 DUP3 ADD SLOAD DUP2 MSTORE PUSH1 0x20 ADD PUSH1 0x4 DUP3 ADD SLOAD DUP2 MSTORE POP POP SWAP1 POP PUSH2 0xDD3 DUP2 PUSH2 0x10E0 JUMP JUMPDEST PUSH2 0xE12 JUMPI PUSH1 0x40 MLOAD PUSH32 0x8C379A000000000000000000000000000000000000000000000000000000000 DUP2 MSTORE PUSH1 0x4 ADD PUSH2 0xE09 SWAP1 PUSH2 0x1B45 JUMP JUMPDEST PUSH1 0x40 MLOAD DUP1 SWAP2 SUB SWAP1 REVERT JUMPDEST DUP6 DUP2 PUSH1 0x40 ADD MLOAD LT ISZERO PUSH2 0xE59 JUMPI PUSH1 0x40 MLOAD PUSH32 0x8C379A000000000000000000000000000000000000000000000000000000000 DUP2 MSTORE PUSH1 0x4 ADD PUSH2 0xE50 SWAP1 PUSH2 0x1BB1 JUMP JUMPDEST PUSH1 0x40 MLOAD DUP1 SWAP2 SUB SWAP1 REVERT JUMPDEST PUSH1 0x6 PUSH1 0x0 DUP10 PUSH20 0xFFFFFFFFFFFFFFFFFFFFFFFFFFFFFFFFFFFFFFFF AND PUSH20 0xFFFFFFFFFFFFFFFFFFFFFFFFFFFFFFFFFFFFFFFF AND DUP2 MSTORE PUSH1 0x20 ADD SWAP1 DUP2 MSTORE PUSH1 0x20 ADD PUSH1 0x0 KECCAK256 PUSH1 0x0 DUP9 DUP2 MSTORE PUSH1 0x20 ADD SWAP1 DUP2 MSTORE PUSH1 0x20 ADD PUSH1 0x0 KECCAK256 PUSH1 0x0 DUP1 DUP3 ADD PUSH1 0x0 PUSH2 0x100 EXP DUP2 SLOAD SWAP1 PUSH20 0xFFFFFFFFFFFFFFFFFFFFFFFFFFFFFFFFFFFFFFFF MUL NOT AND SWAP1 SSTORE PUSH1 0x1 DUP3 ADD PUSH1 0x0 PUSH2 0x100 EXP DUP2 SLOAD SWAP1 PUSH20 0xFFFFFFFFFFFFFFFFFFFFFFFFFFFFFFFFFFFFFFFF MUL NOT AND SWAP1 SSTORE PUSH1 0x2 DUP3 ADD PUSH1 0x0 SWAP1 SSTORE PUSH1 0x3 DUP3 ADD PUSH1 0x0 SWAP1 SSTORE PUSH1 0x4 DUP3 ADD PUSH1 0x0 SWAP1 SSTORE POP POP CALLER PUSH20 0xFFFFFFFFFFFFFFFFFFFFFFFFFFFFFFFFFFFFFFFF AND PUSH2 0x8FC PUSH1 0x2 SLOAD SWAP1 DUP2 ISZERO MUL SWAP1 PUSH1 0x40 MLOAD PUSH1 0x0 PUSH1 0x40 MLOAD DUP1 DUP4 SUB DUP2 DUP6 DUP9 DUP9 CALL SWAP4 POP POP POP POP PUSH2 0xF52 JUMPI PUSH1 0x0 DUP1 REVERT JUMPDEST PUSH1 0x5 PUSH1 0x0 SWAP1 SLOAD SWAP1 PUSH2 0x100 EXP SWAP1 DIV PUSH20 0xFFFFFFFFFFFFFFFFFFFFFFFFFFFFFFFFFFFFFFFF AND PUSH20 0xFFFFFFFFFFFFFFFFFFFFFFFFFFFFFFFFFFFFFFFF AND PUSH4 0xEEA0D7B2 DUP3 PUSH1 0x40 ADD MLOAD PUSH1 0x7 SLOAD DUP5 PUSH1 0x20 ADD MLOAD DUP6 PUSH1 0x40 ADD MLOAD DUP12 DUP12 DUP12 DUP12 DUP12 PUSH1 0x40 MLOAD DUP11 PUSH4 0xFFFFFFFF AND PUSH1 0xE0 SHL DUP2 MSTORE PUSH1 0x4 ADD PUSH2 0xFCA SWAP9 SWAP8 SWAP7 SWAP6 SWAP5 SWAP4 SWAP3 SWAP2 SWAP1 PUSH2 0x1BD1 JUMP JUMPDEST PUSH1 0x0 PUSH1 0x40 MLOAD DUP1 DUP4 SUB DUP2 DUP6 DUP9 DUP1 EXTCODESIZE ISZERO DUP1 ISZERO PUSH2 0xFE3 JUMPI PUSH1 0x0 DUP1 REVERT JUMPDEST POP GAS CALL ISZERO DUP1 ISZERO PUSH2 0xFF7 JUMPI RETURNDATASIZE PUSH1 0x0 DUP1 RETURNDATACOPY RETURNDATASIZE PUSH1 0x0 REVERT JUMPDEST POP POP POP POP POP POP PUSH2 0x1005 PUSH2 0x111D JUMP JUMPDEST POP POP POP POP POP POP POP JUMP JUMPDEST PUSH2 0x1016 PUSH2 0x1126 JUMP JUMPDEST PUSH1 0x0 PUSH20 0xFFFFFFFFFFFFFFFFFFFFFFFFFFFFFFFFFFFFFFFF AND DUP2 PUSH20 0xFFFFFFFFFFFFFFFFFFFFFFFFFFFFFFFFFFFFFFFF AND SUB PUSH2 0x1085 JUMPI PUSH1 0x40 MLOAD PUSH32 0x8C379A000000000000000000000000000000000000000000000000000000000 DUP2 MSTORE PUSH1 0x4 ADD PUSH2 0x107C SWAP1 PUSH2 0x1CC1 JUMP JUMPDEST PUSH1 0x40 MLOAD DUP1 SWAP2 SUB SWAP1 REVERT JUMPDEST PUSH2 0x108E DUP2 PUSH2 0x1217 JUMP JUMPDEST POP JUMP JUMPDEST PUSH1 0x2 PUSH1 0x1 SLOAD SUB PUSH2 0x10D6 JUMPI PUSH1 0x40 MLOAD PUSH32 0x8C379A000000000000000000000000000000000000000000000000000000000 DUP2 MSTORE PUSH1 0x4 ADD PUSH2 0x10CD SWAP1 PUSH2 0x1D2D JUMP JUMPDEST PUSH1 0x40 MLOAD DUP1 SWAP2 SUB SWAP1 REVERT JUMPDEST PUSH1 0x2 PUSH1 0x1 DUP2 SWAP1 SSTORE POP JUMP JUMPDEST PUSH1 0x0 DUP1 PUSH20 0xFFFFFFFFFFFFFFFFFFFFFFFFFFFFFFFFFFFFFFFF AND DUP3 PUSH1 0x0 ADD MLOAD PUSH20 0xFFFFFFFFFFFFFFFFFFFFFFFFFFFFFFFFFFFFFFFF AND EQ ISZERO SWAP1 POP SWAP2 SWAP1 POP JUMP JUMPDEST PUSH1 0x1 DUP1 DUP2 SWAP1 SSTORE POP JUMP JUMPDEST PUSH2 0x112E PUSH2 0x12DB JUMP JUMPDEST PUSH20 0xFFFFFFFFFFFFFFFFFFFFFFFFFFFFFFFFFFFFFFFF AND PUSH2 0x114C PUSH2 0xBC5 JUMP JUMPDEST PUSH20 0xFFFFFFFFFFFFFFFFFFFFFFFFFFFFFFFFFFFFFFFF AND EQ PUSH2 0x11A2 JUMPI PUSH1 0x40 MLOAD PUSH32 0x8C379A000000000000000000000000000000000000000000000000000000000 DUP2 MSTORE PUSH1 0x4 ADD PUSH2 0x1199 SWAP1 PUSH2 0x1D99 JUMP JUMPDEST PUSH1 0x40 MLOAD DUP1 SWAP2 SUB SWAP1 REVERT JUMPDEST JUMP JUMPDEST PUSH1 0x2 SLOAD PUSH1 0x3 SLOAD LT ISZERO PUSH2 0x11EB JUMPI PUSH1 0x40 MLOAD PUSH32 0x8C379A000000000000000000000000000000000000000000000000000000000 DUP2 MSTORE PUSH1 0x4 ADD PUSH2 0x11E2 SWAP1 PUSH2 0x1E2B JUMP JUMPDEST PUSH1 0x40 MLOAD DUP1 SWAP2 SUB SWAP1 REVERT JUMPDEST JUMP JUMPDEST PUSH1 0x2 SLOAD PUSH1 0x3 SLOAD PUSH2 0x11FD SWAP2 SWAP1 PUSH2 0x197B JUMP JUMPDEST PUSH1 0x4 PUSH1 0x0 DUP3 DUP3 SLOAD PUSH2 0x120E SWAP2 SWAP1 PUSH2 0x1E4B JUMP JUMPDEST SWAP3 POP POP DUP2 SWAP1 SSTORE POP JUMP JUMPDEST PUSH1 0x0 DUP1 PUSH1 0x0 SWAP1 SLOAD SWAP1 PUSH2 0x100 EXP SWAP1 DIV PUSH20 0xFFFFFFFFFFFFFFFFFFFFFFFFFFFFFFFFFFFFFFFF AND SWAP1 POP DUP2 PUSH1 0x0 DUP1 PUSH2 0x100 EXP DUP2 SLOAD DUP2 PUSH20 0xFFFFFFFFFFFFFFFFFFFFFFFFFFFFFFFFFFFFFFFF MUL NOT AND SWAP1 DUP4 PUSH20 0xFFFFFFFFFFFFFFFFFFFFFFFFFFFFFFFFFFFFFFFF AND MUL OR SWAP1 SSTORE POP DUP2 PUSH20 0xFFFFFFFFFFFFFFFFFFFFFFFFFFFFFFFFFFFFFFFF AND DUP2 PUSH20 0xFFFFFFFFFFFFFFFFFFFFFFFFFFFFFFFFFFFFFFFF AND PUSH32 0x8BE0079C531659141344CD1FD0A4F28419497F9722A3DAAFE3B4186F6B6457E0 PUSH1 0x40 MLOAD PUSH1 0x40 MLOAD DUP1 SWAP2 SUB SWAP1 LOG3 POP POP JUMP JUMPDEST PUSH1 0x0 CALLER SWAP1 POP SWAP1 JUMP JUMPDEST PUSH1 0x0 PUSH20 0xFFFFFFFFFFFFFFFFFFFFFFFFFFFFFFFFFFFFFFFF DUP3 AND SWAP1 POP SWAP2 SWAP1 POP JUMP JUMPDEST PUSH1 0x0 PUSH2 0x130E DUP3 PUSH2 0x12E3 JUMP JUMPDEST SWAP1 POP SWAP2 SWAP1 POP JUMP JUMPDEST PUSH2 0x131E DUP2 PUSH2 0x1303 JUMP JUMPDEST DUP3 MSTORE POP POP JUMP JUMPDEST PUSH1 0x0 PUSH1 0x20 DUP3 ADD SWAP1 POP PUSH2 0x1339 PUSH1 0x0 DUP4 ADD DUP5 PUSH2 0x1315 JUMP JUMPDEST SWAP3 SWAP2 POP POP JUMP JUMPDEST PUSH1 0x0 DUP1 REVERT JUMPDEST PUSH1 0x0 DUP2 SWAP1 POP SWAP2 SWAP1 POP JUMP JUMPDEST PUSH2 0x1357 DUP2 PUSH2 0x1344 JUMP JUMPDEST DUP2 EQ PUSH2 0x1362 JUMPI PUSH1 0x0 DUP1 REVERT JUMPDEST POP JUMP JUMPDEST PUSH1 0x0 DUP2 CALLDATALOAD SWAP1 POP PUSH2 0x1374 DUP2 PUSH2 0x134E JUMP JUMPDEST SWAP3 SWAP2 POP POP JUMP JUMPDEST PUSH1 0x0 PUSH1 0x20 DUP3 DUP5 SUB SLT ISZERO PUSH2 0x1390 JUMPI PUSH2 0x138F PUSH2 0x133F JUMP JUMPDEST JUMPDEST PUSH1 0x0 PUSH2 0x139E DUP5 DUP3 DUP6 ADD PUSH2 0x1365 JUMP JUMPDEST SWAP2 POP POP SWAP3 SWAP2 POP POP JUMP JUMPDEST PUSH2 0x13B0 DUP2 PUSH2 0x1303 JUMP JUMPDEST DUP2 EQ PUSH2 0x13BB JUMPI PUSH1 0x0 DUP1 REVERT JUMPDEST POP JUMP JUMPDEST PUSH1 0x0 DUP2 CALLDATALOAD SWAP1 POP PUSH2 0x13CD DUP2 PUSH2 0x13A7 JUMP JUMPDEST SWAP3 SWAP2 POP POP JUMP JUMPDEST PUSH1 0x0 DUP1 PUSH1 0x0 DUP1 PUSH1 0x80 DUP6 DUP8 SUB SLT ISZERO PUSH2 0x13ED JUMPI PUSH2 0x13EC PUSH2 0x133F JUMP JUMPDEST JUMPDEST PUSH1 0x0 PUSH2 0x13FB DUP8 DUP3 DUP9 ADD PUSH2 0x1365 JUMP JUMPDEST SWAP5 POP POP PUSH1 0x20 PUSH2 0x140C DUP8 DUP3 DUP9 ADD PUSH2 0x13BE JUMP JUMPDEST SWAP4 POP POP PUSH1 0x40 PUSH2 0x141D DUP8 DUP3 DUP9 ADD PUSH2 0x1365 JUMP JUMPDEST SWAP3 POP POP PUSH1 0x60 PUSH2 0x142E DUP8 DUP3 DUP9 ADD PUSH2 0x1365 JUMP JUMPDEST SWAP2 POP POP SWAP3 SWAP6 SWAP2 SWAP5 POP SWAP3 POP JUMP JUMPDEST PUSH2 0x1443 DUP2 PUSH2 0x1344 JUMP JUMPDEST DUP3 MSTORE POP POP JUMP JUMPDEST PUSH1 0x0 PUSH1 0x20 DUP3 ADD SWAP1 POP PUSH2 0x145E PUSH1 0x0 DUP4 ADD DUP5 PUSH2 0x143A JUMP JUMPDEST SWAP3 SWAP2 POP POP JUMP JUMPDEST PUSH1 0x0 DUP1 PUSH1 0x40 DUP4 DUP6 SUB SLT ISZERO PUSH2 0x147B JUMPI PUSH2 0x147A PUSH2 0x133F JUMP JUMPDEST JUMPDEST PUSH1 0x0 PUSH2 0x1489 DUP6 DUP3 DUP7 ADD PUSH2 0x13BE JUMP JUMPDEST SWAP3 POP POP PUSH1 0x20 PUSH2 0x149A DUP6 DUP3 DUP7 ADD PUSH2 0x1365 JUMP JUMPDEST SWAP2 POP POP SWAP3 POP SWAP3 SWAP1 POP JUMP JUMPDEST PUSH1 0x0 PUSH1 0xA0 DUP3 ADD SWAP1 POP PUSH2 0x14B9 PUSH1 0x0 DUP4 ADD DUP9 PUSH2 0x1315 JUMP JUMPDEST PUSH2 0x14C6 PUSH1 0x20 DUP4 ADD DUP8 PUSH2 0x1315 JUMP JUMPDEST PUSH2 0x14D3 PUSH1 0x40 DUP4 ADD DUP7 PUSH2 0x143A JUMP JUMPDEST PUSH2 0x14E0 PUSH1 0x60 DUP4 ADD DUP6 PUSH2 0x143A JUMP JUMPDEST PUSH2 0x14ED PUSH1 0x80 DUP4 ADD DUP5 PUSH2 0x143A JUMP JUMPDEST SWAP7 SWAP6 POP POP POP POP POP POP JUMP JUMPDEST PUSH1 0x0 DUP1 PUSH1 0x0 DUP1 PUSH1 0x0 DUP1 PUSH1 0x0 PUSH1 0xE0 DUP9 DUP11 SUB SLT ISZERO PUSH2 0x1516 JUMPI PUSH2 0x1515 PUSH2 0x133F JUMP JUMPDEST JUMPDEST PUSH1 0x0 PUSH2 0x1524 DUP11 DUP3 DUP12 ADD PUSH2 0x13BE JUMP JUMPDEST SWAP8 POP POP PUSH1 0x20 PUSH2 0x1535 DUP11 DUP3 DUP12 ADD PUSH2 0x1365 JUMP JUMPDEST SWAP7 POP POP PUSH1 0x40 PUSH2 0x1546 DUP11 DUP3 DUP12 ADD PUSH2 0x1365 JUMP JUMPDEST SWAP6 POP POP PUSH1 0x60 PUSH2 0x1557 DUP11 DUP3 DUP12 ADD PUSH2 0x1365 JUMP JUMPDEST SWAP5 POP POP PUSH1 0x80 PUSH2 0x1568 DUP11 DUP3 DUP12 ADD PUSH2 0x1365 JUMP JUMPDEST SWAP4 POP POP PUSH1 0xA0 PUSH2 0x1579 DUP11 DUP3 DUP12 ADD PUSH2 0x1365 JUMP JUMPDEST SWAP3 POP POP PUSH1 0xC0 PUSH2 0x158A DUP11 DUP3 DUP12 ADD PUSH2 0x1365 JUMP JUMPDEST SWAP2 POP POP SWAP3 SWAP6 SWAP9 SWAP2 SWAP5 SWAP8 POP SWAP3 SWAP6 POP JUMP JUMPDEST PUSH1 0x0 PUSH1 0x20 DUP3 DUP5 SUB SLT ISZERO PUSH2 0x15AF JUMPI PUSH2 0x15AE PUSH2 0x133F JUMP JUMPDEST JUMPDEST PUSH1 0x0 PUSH2 0x15BD DUP5 DUP3 DUP6 ADD PUSH2 0x13BE JUMP JUMPDEST SWAP2 POP POP SWAP3 SWAP2 POP POP JUMP JUMPDEST PUSH1 0x0 DUP3 DUP3 MSTORE PUSH1 0x20 DUP3 ADD SWAP1 POP SWAP3 SWAP2 POP POP JUMP JUMPDEST PUSH32 0x4E6F207265717565737420746F20776974686472617700000000000000000000 PUSH1 0x0 DUP3 ADD MSTORE POP JUMP JUMPDEST PUSH1 0x0 PUSH2 0x160D PUSH1 0x16 DUP4 PUSH2 0x15C6 JUMP JUMPDEST SWAP2 POP PUSH2 0x1618 DUP3 PUSH2 0x15D7 JUMP JUMPDEST PUSH1 0x20 DUP3 ADD SWAP1 POP SWAP2 SWAP1 POP JUMP JUMPDEST PUSH1 0x0 PUSH1 0x20 DUP3 ADD SWAP1 POP DUP2 DUP2 SUB PUSH1 0x0 DUP4 ADD MSTORE PUSH2 0x163C DUP2 PUSH2 0x1600 JUMP JUMPDEST SWAP1 POP SWAP2 SWAP1 POP JUMP JUMPDEST PUSH32 0x4E487B7100000000000000000000000000000000000000000000000000000000 PUSH1 0x0 MSTORE PUSH1 0x1 PUSH1 0x4 MSTORE PUSH1 0x24 PUSH1 0x0 REVERT JUMPDEST PUSH32 0x43616E6E6F74207769746864726177206D6F72652066756E6473207468616E20 PUSH1 0x0 DUP3 ADD MSTORE PUSH32 0x74686520636F6C6C6563746564206E6F6E206761732073657276696365206665 PUSH1 0x20 DUP3 ADD MSTORE PUSH32 0x65732E0000000000000000000000000000000000000000000000000000000000 PUSH1 0x40 DUP3 ADD MSTORE POP JUMP JUMPDEST PUSH1 0x0 PUSH2 0x16F4 PUSH1 0x43 DUP4 PUSH2 0x15C6 JUMP JUMPDEST SWAP2 POP PUSH2 0x16FF DUP3 PUSH2 0x1672 JUMP JUMPDEST PUSH1 0x60 DUP3 ADD SWAP1 POP SWAP2 SWAP1 POP JUMP JUMPDEST PUSH1 0x0 PUSH1 0x20 DUP3 ADD SWAP1 POP DUP2 DUP2 SUB PUSH1 0x0 DUP4 ADD MSTORE PUSH2 0x1723 DUP2 PUSH2 0x16E7 JUMP JUMPDEST SWAP1 POP SWAP2 SWAP1 POP JUMP JUMPDEST PUSH32 0x53656E646572206D6179206E6F74206265203020616464726573730000000000 PUSH1 0x0 DUP3 ADD MSTORE POP JUMP JUMPDEST PUSH1 0x0 PUSH2 0x1760 PUSH1 0x1B DUP4 PUSH2 0x15C6 JUMP JUMPDEST SWAP2 POP PUSH2 0x176B DUP3 PUSH2 0x172A JUMP JUMPDEST PUSH1 0x20 DUP3 ADD SWAP1 POP SWAP2 SWAP1 POP JUMP JUMPDEST PUSH1 0x0 PUSH1 0x20 DUP3 ADD SWAP1 POP DUP2 DUP2 SUB PUSH1 0x0 DUP4 ADD MSTORE PUSH2 0x178F DUP2 PUSH2 0x1753 JUMP JUMPDEST SWAP1 POP SWAP2 SWAP1 POP JUMP JUMPDEST PUSH32 0x44657374696E6174696F6E2061646472657373206D6179206E6F742062652030 PUSH1 0x0 DUP3 ADD MSTORE PUSH32 0x2061646472657373000000000000000000000000000000000000000000000000 PUSH1 0x20 DUP3 ADD MSTORE POP JUMP JUMPDEST PUSH1 0x0 PUSH2 0x17F2 PUSH1 0x28 DUP4 PUSH2 0x15C6 JUMP JUMPDEST SWAP2 POP PUSH2 0x17FD DUP3 PUSH2 0x1796 JUMP JUMPDEST PUSH1 0x40 DUP3 ADD SWAP1 POP SWAP2 SWAP1 POP JUMP JUMPDEST PUSH1 0x0 PUSH1 0x20 DUP3 ADD SWAP1 POP DUP2 DUP2 SUB PUSH1 0x0 DUP4 ADD MSTORE PUSH2 0x1821 DUP2 PUSH2 0x17E5 JUMP JUMPDEST SWAP1 POP SWAP2 SWAP1 POP JUMP JUMPDEST PUSH32 0x57616E746564204C3120676173207072696365206D7573742062652073747269 PUSH1 0x0 DUP3 ADD MSTORE PUSH32 0x63746C7920706F73697469766500000000000000000000000000000000000000 PUSH1 0x20 DUP3 ADD MSTORE POP JUMP JUMPDEST PUSH1 0x0 PUSH2 0x1884 PUSH1 0x2D DUP4 PUSH2 0x15C6 JUMP JUMPDEST SWAP2 POP PUSH2 0x188F DUP3 PUSH2 0x1828 JUMP JUMPDEST PUSH1 0x40 DUP3 ADD SWAP1 POP SWAP2 SWAP1 POP JUMP JUMPDEST PUSH1 0x0 PUSH1 0x20 DUP3 ADD SWAP1 POP DUP2 DUP2 SUB PUSH1 0x0 DUP4 ADD MSTORE PUSH2 0x18B3 DUP2 PUSH2 0x1877 JUMP JUMPDEST SWAP1 POP SWAP2 SWAP1 POP JUMP JUMPDEST PUSH32 0x4E6F7420656E6F7567682066756E647320746F2070617920666F722064656C61 PUSH1 0x0 DUP3 ADD MSTORE PUSH32 0x79656420657865637574696F6E00000000000000000000000000000000000000 PUSH1 0x20 DUP3 ADD MSTORE POP JUMP JUMPDEST PUSH1 0x0 PUSH2 0x1916 PUSH1 0x2D DUP4 PUSH2 0x15C6 JUMP JUMPDEST SWAP2 POP PUSH2 0x1921 DUP3 PUSH2 0x18BA JUMP JUMPDEST PUSH1 0x40 DUP3 ADD SWAP1 POP SWAP2 SWAP1 POP JUMP JUMPDEST PUSH1 0x0 PUSH1 0x20 DUP3 ADD SWAP1 POP DUP2 DUP2 SUB PUSH1 0x0 DUP4 ADD MSTORE PUSH2 0x1945 DUP2 PUSH2 0x1909 JUMP JUMPDEST SWAP1 POP SWAP2 SWAP1 POP JUMP JUMPDEST PUSH32 0x4E487B7100000000000000000000000000000000000000000000000000000000 PUSH1 0x0 MSTORE PUSH1 0x11 PUSH1 0x4 MSTORE PUSH1 0x24 PUSH1 0x0 REVERT JUMPDEST PUSH1 0x0 PUSH2 0x1986 DUP3 PUSH2 0x1344 JUMP JUMPDEST SWAP2 POP PUSH2 0x1991 DUP4 PUSH2 0x1344 JUMP JUMPDEST SWAP3 POP DUP3 DUP3 SUB SWAP1 POP DUP2 DUP2 GT ISZERO PUSH2 0x19A9 JUMPI PUSH2 0x19A8 PUSH2 0x194C JUMP JUMPDEST JUMPDEST SWAP3 SWAP2 POP POP JUMP JUMPDEST PUSH32 0x43616C63756C617465642073656E7420616D6F756E74206D757374206265206C PUSH1 0x0 DUP3 ADD MSTORE PUSH32 0x6172676572207468616E20746865207265717569726564206D696E696D756D20 PUSH1 0x20 DUP3 ADD MSTORE PUSH32 0x616D6F756E74206172726976696E672061742064657374696E6174696F6E2E00 PUSH1 0x40 DUP3 ADD MSTORE POP JUMP JUMPDEST PUSH1 0x0 PUSH2 0x1A31 PUSH1 0x5F DUP4 PUSH2 0x15C6 JUMP JUMPDEST SWAP2 POP PUSH2 0x1A3C DUP3 PUSH2 0x19AF JUMP JUMPDEST PUSH1 0x60 DUP3 ADD SWAP1 POP SWAP2 SWAP1 POP JUMP JUMPDEST PUSH1 0x0 PUSH1 0x20 DUP3 ADD SWAP1 POP DUP2 DUP2 SUB PUSH1 0x0 DUP4 ADD MSTORE PUSH2 0x1A60 DUP2 PUSH2 0x1A24 JUMP JUMPDEST SWAP1 POP SWAP2 SWAP1 POP JUMP JUMPDEST PUSH32 0x726571756573742077697468207468652073616D6520696420666F7220746865 PUSH1 0x0 DUP3 ADD MSTORE PUSH32 0x20726571756573746F7220616C7265616479206578697374732E000000000000 PUSH1 0x20 DUP3 ADD MSTORE POP JUMP JUMPDEST PUSH1 0x0 PUSH2 0x1AC3 PUSH1 0x3A DUP4 PUSH2 0x15C6 JUMP JUMPDEST SWAP2 POP PUSH2 0x1ACE DUP3 PUSH2 0x1A67 JUMP JUMPDEST PUSH1 0x40 DUP3 ADD SWAP1 POP SWAP2 SWAP1 POP JUMP JUMPDEST PUSH1 0x0 PUSH1 0x20 DUP3 ADD SWAP1 POP DUP2 DUP2 SUB PUSH1 0x0 DUP4 ADD MSTORE PUSH2 0x1AF2 DUP2 PUSH2 0x1AB6 JUMP JUMPDEST SWAP1 POP SWAP2 SWAP1 POP JUMP JUMPDEST PUSH32 0x4E6F207265717565737420746F2070726F636573730000000000000000000000 PUSH1 0x0 DUP3 ADD MSTORE POP JUMP JUMPDEST PUSH1 0x0 PUSH2 0x1B2F PUSH1 0x15 DUP4 PUSH2 0x15C6 JUMP JUMPDEST SWAP2 POP PUSH2 0x1B3A DUP3 PUSH2 0x1AF9 JUMP JUMPDEST PUSH1 0x20 DUP3 ADD SWAP1 POP SWAP2 SWAP1 POP JUMP JUMPDEST PUSH1 0x0 PUSH1 0x20 DUP3 ADD SWAP1 POP DUP2 DUP2 SUB PUSH1 0x0 DUP4 ADD MSTORE PUSH2 0x1B5E DUP2 PUSH2 0x1B22 JUMP JUMPDEST SWAP1 POP SWAP2 SWAP1 POP JUMP JUMPDEST PUSH32 0x426F6E646572206665652063616E6E6F742065786365656420616D6F756E742E PUSH1 0x0 DUP3 ADD MSTORE POP JUMP JUMPDEST PUSH1 0x0 PUSH2 0x1B9B PUSH1 0x20 DUP4 PUSH2 0x15C6 JUMP JUMPDEST SWAP2 POP PUSH2 0x1BA6 DUP3 PUSH2 0x1B65 JUMP JUMPDEST PUSH1 0x20 DUP3 ADD SWAP1 POP SWAP2 SWAP1 POP JUMP JUMPDEST PUSH1 0x0 PUSH1 0x20 DUP3 ADD SWAP1 POP DUP2 DUP2 SUB PUSH1 0x0 DUP4 ADD MSTORE PUSH2 0x1BCA DUP2 PUSH2 0x1B8E JUMP JUMPDEST SWAP1 POP SWAP2 SWAP1 POP JUMP JUMPDEST PUSH1 0x0 PUSH2 0x100 DUP3 ADD SWAP1 POP PUSH2 0x1BE7 PUSH1 0x0 DUP4 ADD DUP12 PUSH2 0x143A JUMP JUMPDEST PUSH2 0x1BF4 PUSH1 0x20 DUP4 ADD DUP11 PUSH2 0x1315 JUMP JUMPDEST PUSH2 0x1C01 PUSH1 0x40 DUP4 ADD DUP10 PUSH2 0x143A JUMP JUMPDEST PUSH2 0x1C0E PUSH1 0x60 DUP4 ADD DUP9 PUSH2 0x143A JUMP JUMPDEST PUSH2 0x1C1B PUSH1 0x80 DUP4 ADD DUP8 PUSH2 0x143A JUMP JUMPDEST PUSH2 0x1C28 PUSH1 0xA0 DUP4 ADD DUP7 PUSH2 0x143A JUMP JUMPDEST PUSH2 0x1C35 PUSH1 0xC0 DUP4 ADD DUP6 PUSH2 0x143A JUMP JUMPDEST PUSH2 0x1C42 PUSH1 0xE0 DUP4 ADD DUP5 PUSH2 0x143A JUMP JUMPDEST SWAP10 SWAP9 POP POP POP POP POP POP POP POP POP JUMP JUMPDEST PUSH32 0x4F776E61626C653A206E6577206F776E657220697320746865207A65726F2061 PUSH1 0x0 DUP3 ADD MSTORE PUSH32 0x6464726573730000000000000000000000000000000000000000000000000000 PUSH1 0x20 DUP3 ADD MSTORE POP JUMP JUMPDEST PUSH1 0x0 PUSH2 0x1CAB PUSH1 0x26 DUP4 PUSH2 0x15C6 JUMP JUMPDEST SWAP2 POP PUSH2 0x1CB6 DUP3 PUSH2 0x1C4F JUMP JUMPDEST PUSH1 0x40 DUP3 ADD SWAP1 POP SWAP2 SWAP1 POP JUMP JUMPDEST PUSH1 0x0 PUSH1 0x20 DUP3 ADD SWAP1 POP DUP2 DUP2 SUB PUSH1 0x0 DUP4 ADD MSTORE PUSH2 0x1CDA DUP2 PUSH2 0x1C9E JUMP JUMPDEST SWAP1 POP SWAP2 SWAP1 POP JUMP JUMPDEST PUSH32 0x5265656E7472616E637947756172643A207265656E7472616E742063616C6C00 PUSH1 0x0 DUP3 ADD MSTORE POP JUMP JUMPDEST PUSH1 0x0 PUSH2 0x1D17 PUSH1 0x1F DUP4 PUSH2 0x15C6 JUMP JUMPDEST SWAP2 POP PUSH2 0x1D22 DUP3 PUSH2 0x1CE1 JUMP JUMPDEST PUSH1 0x20 DUP3 ADD SWAP1 POP SWAP2 SWAP1 POP JUMP JUMPDEST PUSH1 0x0 PUSH1 0x20 DUP3 ADD SWAP1 POP DUP2 DUP2 SUB PUSH1 0x0 DUP4 ADD MSTORE PUSH2 0x1D46 DUP2 PUSH2 0x1D0A JUMP JUMPDEST SWAP1 POP SWAP2 SWAP1 POP JUMP JUMPDEST PUSH32 0x4F776E61626C653A2063616C6C6572206973206E6F7420746865206F776E6572 PUSH1 0x0 DUP3 ADD MSTORE POP JUMP JUMPDEST PUSH1 0x0 PUSH2 0x1D83 PUSH1 0x20 DUP4 PUSH2 0x15C6 JUMP JUMPDEST SWAP2 POP PUSH2 0x1D8E DUP3 PUSH2 0x1D4D JUMP JUMPDEST PUSH1 0x20 DUP3 ADD SWAP1 POP SWAP2 SWAP1 POP JUMP JUMPDEST PUSH1 0x0 PUSH1 0x20 DUP3 ADD SWAP1 POP DUP2 DUP2 SUB PUSH1 0x0 DUP4 ADD MSTORE PUSH2 0x1DB2 DUP2 PUSH2 0x1D76 JUMP JUMPDEST SWAP1 POP SWAP2 SWAP1 POP JUMP JUMPDEST PUSH32 0x7365727669636520666565206D75737420636F766572206174206C6561737420 PUSH1 0x0 DUP3 ADD MSTORE PUSH32 0x74686520657865637574696F6E2067617320726571756972656D656E74000000 PUSH1 0x20 DUP3 ADD MSTORE POP JUMP JUMPDEST PUSH1 0x0 PUSH2 0x1E15 PUSH1 0x3D DUP4 PUSH2 0x15C6 JUMP JUMPDEST SWAP2 POP PUSH2 0x1E20 DUP3 PUSH2 0x1DB9 JUMP JUMPDEST PUSH1 0x40 DUP3 ADD SWAP1 POP SWAP2 SWAP1 POP JUMP JUMPDEST PUSH1 0x0 PUSH1 0x20 DUP3 ADD SWAP1 POP DUP2 DUP2 SUB PUSH1 0x0 DUP4 ADD MSTORE PUSH2 0x1E44 DUP2 PUSH2 0x1E08 JUMP JUMPDEST SWAP1 POP SWAP2 SWAP1 POP JUMP JUMPDEST PUSH1 0x0 PUSH2 0x1E56 DUP3 PUSH2 0x1344 JUMP JUMPDEST SWAP2 POP PUSH2 0x1E61 DUP4 PUSH2 0x1344 JUMP JUMPDEST SWAP3 POP DUP3 DUP3 ADD SWAP1 POP DUP1 DUP3 GT ISZERO PUSH2 0x1E79 JUMPI PUSH2 0x1E78 PUSH2 0x194C JUMP JUMPDEST JUMPDEST SWAP3 SWAP2 POP POP JUMP INVALID LOG2 PUSH5 0x6970667358 0x22 SLT KECCAK256 0xE4 0xB5 SLOAD EXTCODECOPY SDIV 0xE9 GT SIGNEXTEND PUSH14 0x7D7341F9B90533E90C69BE741FF4 0xE0 0x2C POP PUSH8 0x726ACA3AB64736F PUSH13 0x63430008120033000000000000 "
				},
				"gasEstimates": {
					"creation": {
						"codeDepositCost": "1572200",
						"executionCost": "infinite",
						"totalCost": "infinite"
					},
					"external": {
						"collectedNonGasServiceFee()": "2474",
						"deposit(uint256,address,uint256,uint256)": "infinite",
						"executeRequest(address,uint256,uint256,uint256,uint256,uint256,uint256)": "infinite",
						"executionGasRequirement()": "2518",
						"l2HopBridgeAmmWrapper()": "2538",
						"layer1ChainId()": "2473",
						"owner()": "2589",
						"ownerDeposit()": "2731",
						"ownerWithdraw(uint256)": "infinite",
						"renounceOwnership()": "30443",
						"requests(address,uint256)": "infinite",
						"serviceFee()": "2452",
						"setExecutionGasRequirement(uint256)": "29420",
						"setserviceFee(uint256)": "29352",
						"transferOwnership(address)": "30832",
						"withdraw(uint256)": "infinite"
					},
					"internal": {
						"checkFeeInvariants()": "infinite",
						"collectNonGasServiceFee()": "infinite",
						"isDefined(struct BridgeRequest memory)": "infinite"
					}
				},
				"methodIdentifiers": {
					"collectedNonGasServiceFee()": "8cfff8c3",
					"deposit(uint256,address,uint256,uint256)": "6f0372af",
					"executeRequest(address,uint256,uint256,uint256,uint256,uint256,uint256)": "d043ba19",
					"executionGasRequirement()": "8429b045",
					"l2HopBridgeAmmWrapper()": "25608185",
					"layer1ChainId()": "b6502943",
					"owner()": "8da5cb5b",
					"ownerDeposit()": "7b1aa45f",
					"ownerWithdraw(uint256)": "33f707d1",
					"renounceOwnership()": "715018a6",
					"requests(address,uint256)": "9ecebe2a",
					"serviceFee()": "8abdf5aa",
					"setExecutionGasRequirement(uint256)": "54caef7d",
					"setserviceFee(uint256)": "a191078a",
					"transferOwnership(address)": "f2fde38b",
					"withdraw(uint256)": "2e1a7d4d"
				}
			},
			"storageLayout": {
				"storage": [
					{
						"astId": 7,
						"contract": "solidity/contracts/BridgewhenCheap.sol:BridgeWhenCheap",
						"label": "_owner",
						"offset": 0,
						"slot": "0",
						"type": "t_address"
					},
					{
						"astId": 123,
						"contract": "solidity/contracts/BridgewhenCheap.sol:BridgeWhenCheap",
						"label": "_status",
						"offset": 0,
						"slot": "1",
						"type": "t_uint256"
					},
					{
						"astId": 211,
						"contract": "solidity/contracts/BridgewhenCheap.sol:BridgeWhenCheap",
						"label": "executionGasRequirement",
						"offset": 0,
						"slot": "2",
						"type": "t_uint256"
					},
					{
						"astId": 213,
						"contract": "solidity/contracts/BridgewhenCheap.sol:BridgeWhenCheap",
						"label": "serviceFee",
						"offset": 0,
						"slot": "3",
						"type": "t_uint256"
					},
					{
						"astId": 215,
						"contract": "solidity/contracts/BridgewhenCheap.sol:BridgeWhenCheap",
						"label": "collectedNonGasServiceFee",
						"offset": 0,
						"slot": "4",
						"type": "t_uint256"
					},
					{
						"astId": 217,
						"contract": "solidity/contracts/BridgewhenCheap.sol:BridgeWhenCheap",
						"label": "l2HopBridgeAmmWrapper",
						"offset": 0,
						"slot": "5",
						"type": "t_address"
					},
					{
						"astId": 224,
						"contract": "solidity/contracts/BridgewhenCheap.sol:BridgeWhenCheap",
						"label": "requests",
						"offset": 0,
						"slot": "6",
						"type": "t_mapping(t_address,t_mapping(t_uint256,t_struct(BridgeRequest)204_storage))"
					},
					{
						"astId": 226,
						"contract": "solidity/contracts/BridgewhenCheap.sol:BridgeWhenCheap",
						"label": "layer1ChainId",
						"offset": 0,
						"slot": "7",
						"type": "t_uint256"
					}
				],
				"types": {
					"t_address": {
						"encoding": "inplace",
						"label": "address",
						"numberOfBytes": "20"
					},
					"t_mapping(t_address,t_mapping(t_uint256,t_struct(BridgeRequest)204_storage))": {
						"encoding": "mapping",
						"key": "t_address",
						"label": "mapping(address => mapping(uint256 => struct BridgeRequest))",
						"numberOfBytes": "32",
						"value": "t_mapping(t_uint256,t_struct(BridgeRequest)204_storage)"
					},
					"t_mapping(t_uint256,t_struct(BridgeRequest)204_storage)": {
						"encoding": "mapping",
						"key": "t_uint256",
						"label": "mapping(uint256 => struct BridgeRequest)",
						"numberOfBytes": "32",
						"value": "t_struct(BridgeRequest)204_storage"
					},
					"t_struct(BridgeRequest)204_storage": {
						"encoding": "inplace",
						"label": "struct BridgeRequest",
						"members": [
							{
								"astId": 195,
								"contract": "solidity/contracts/BridgewhenCheap.sol:BridgeWhenCheap",
								"label": "source",
								"offset": 0,
								"slot": "0",
								"type": "t_address"
							},
							{
								"astId": 197,
								"contract": "solidity/contracts/BridgewhenCheap.sol:BridgeWhenCheap",
								"label": "destination",
								"offset": 0,
								"slot": "1",
								"type": "t_address"
							},
							{
								"astId": 199,
								"contract": "solidity/contracts/BridgewhenCheap.sol:BridgeWhenCheap",
								"label": "amount",
								"offset": 0,
								"slot": "2",
								"type": "t_uint256"
							},
							{
								"astId": 201,
								"contract": "solidity/contracts/BridgewhenCheap.sol:BridgeWhenCheap",
								"label": "amountOutMin",
								"offset": 0,
								"slot": "3",
								"type": "t_uint256"
							},
							{
								"astId": 203,
								"contract": "solidity/contracts/BridgewhenCheap.sol:BridgeWhenCheap",
								"label": "wantedL1GasPrice",
								"offset": 0,
								"slot": "4",
								"type": "t_uint256"
							}
						],
						"numberOfBytes": "160"
					},
					"t_uint256": {
						"encoding": "inplace",
						"label": "uint256",
						"numberOfBytes": "32"
					}
				}
			},
			"userdoc": {
				"kind": "user",
				"methods": {},
				"version": 1
			}
		}
	}
}