{
	"solidity/contracts/BridgewhenCheap.sol": {
		"BridgeWhenCheap": {
			"abi": [
				{
					"inputs": [
						{
							"internalType": "uint256",
							"name": "_l2execGasFeeDeposit",
							"type": "uint256"
						},
						{
							"internalType": "uint256",
							"name": "_serviceFee",
							"type": "uint256"
						},
						{
							"internalType": "uint256",
							"name": "_layer1ChainId",
							"type": "uint256"
						}
					],
					"stateMutability": "nonpayable",
					"type": "constructor"
				},
				{
					"anonymous": false,
					"inputs": [
						{
							"indexed": true,
							"internalType": "address",
							"name": "previousOwner",
							"type": "address"
						},
						{
							"indexed": true,
							"internalType": "address",
							"name": "newOwner",
							"type": "address"
						}
					],
					"name": "OwnershipTransferred",
					"type": "event"
				},
				{
					"inputs": [
						{
							"internalType": "contract IERC20",
							"name": "token",
							"type": "address"
						},
						{
							"internalType": "address",
							"name": "tokenHopBridge",
							"type": "address"
						}
					],
					"name": "addSupportForNewToken",
					"outputs": [],
					"stateMutability": "nonpayable",
					"type": "function"
				},
				{
					"inputs": [
						{
							"internalType": "contract IERC20",
							"name": "",
							"type": "address"
						}
					],
					"name": "bridgeContractOf",
					"outputs": [
						{
							"internalType": "address",
							"name": "",
							"type": "address"
						}
					],
					"stateMutability": "view",
					"type": "function"
				},
				{
					"inputs": [],
					"name": "collectedServiceFeeExcludingGas",
					"outputs": [
						{
							"internalType": "uint256",
							"name": "",
							"type": "uint256"
						}
					],
					"stateMutability": "view",
					"type": "function"
				},
				{
					"inputs": [
						{
							"internalType": "uint256",
							"name": "requestId",
							"type": "uint256"
						},
						{
							"internalType": "contract IERC20",
							"name": "token",
							"type": "address"
						},
						{
							"internalType": "uint256",
							"name": "tokenAmount",
							"type": "uint256"
						},
						{
							"internalType": "address",
							"name": "destination",
							"type": "address"
						},
						{
							"internalType": "uint256",
							"name": "wantedL1GasPrice",
							"type": "uint256"
						},
						{
							"internalType": "uint256",
							"name": "amountOutMin",
							"type": "uint256"
						}
					],
					"name": "deposit",
					"outputs": [],
					"stateMutability": "payable",
					"type": "function"
				},
				{
					"inputs": [
						{
							"internalType": "address",
							"name": "requestor",
							"type": "address"
						},
						{
							"internalType": "uint256",
							"name": "requestId",
							"type": "uint256"
						},
						{
							"internalType": "uint256",
							"name": "bonderFee",
							"type": "uint256"
						},
						{
							"internalType": "uint256",
							"name": "amountOutMin",
							"type": "uint256"
						},
						{
							"internalType": "uint256",
							"name": "deadline",
							"type": "uint256"
						},
						{
							"internalType": "uint256",
							"name": "destAmountOutMin",
							"type": "uint256"
						},
						{
							"internalType": "uint256",
							"name": "destDeadline",
							"type": "uint256"
						}
					],
					"name": "executeRequest",
					"outputs": [],
					"stateMutability": "nonpayable",
					"type": "function"
				},
				{
					"inputs": [],
					"name": "l2execGasFeeDeposit",
					"outputs": [
						{
							"internalType": "uint256",
							"name": "",
							"type": "uint256"
						}
					],
					"stateMutability": "view",
					"type": "function"
				},
				{
					"inputs": [],
					"name": "layer1ChainId",
					"outputs": [
						{
							"internalType": "uint256",
							"name": "",
							"type": "uint256"
						}
					],
					"stateMutability": "view",
					"type": "function"
				},
				{
					"inputs": [],
					"name": "owner",
					"outputs": [
						{
							"internalType": "address",
							"name": "",
							"type": "address"
						}
					],
					"stateMutability": "view",
					"type": "function"
				},
				{
					"inputs": [],
					"name": "ownerDeposit",
					"outputs": [],
					"stateMutability": "payable",
					"type": "function"
				},
				{
					"inputs": [
						{
							"internalType": "uint256",
							"name": "amount",
							"type": "uint256"
						}
					],
					"name": "ownerWithdraw",
					"outputs": [],
					"stateMutability": "nonpayable",
					"type": "function"
				},
				{
					"inputs": [
						{
							"internalType": "address",
							"name": "",
							"type": "address"
						},
						{
							"internalType": "uint256",
							"name": "",
							"type": "uint256"
						}
					],
					"name": "pendingRequests",
					"outputs": [
						{
							"internalType": "address",
							"name": "source",
							"type": "address"
						},
						{
							"internalType": "address",
							"name": "destination",
							"type": "address"
						},
						{
							"internalType": "bool",
							"name": "isTokenTransfer",
							"type": "bool"
						},
						{
							"internalType": "contract IERC20",
							"name": "token",
							"type": "address"
						},
						{
							"internalType": "uint256",
							"name": "amount",
							"type": "uint256"
						},
						{
							"internalType": "uint256",
							"name": "amountOutMin",
							"type": "uint256"
						},
						{
							"internalType": "uint256",
							"name": "wantedL1GasPrice",
							"type": "uint256"
						},
						{
							"internalType": "uint256",
							"name": "l2execGasFeeDeposit",
							"type": "uint256"
						}
					],
					"stateMutability": "view",
					"type": "function"
				},
				{
					"inputs": [],
					"name": "renounceOwnership",
					"outputs": [],
					"stateMutability": "nonpayable",
					"type": "function"
				},
				{
					"inputs": [],
					"name": "serviceFee",
					"outputs": [
						{
							"internalType": "uint256",
							"name": "",
							"type": "uint256"
						}
					],
					"stateMutability": "view",
					"type": "function"
				},
				{
					"inputs": [
						{
							"internalType": "uint256",
							"name": "amount",
							"type": "uint256"
						}
					],
					"name": "setL2execGasFeeDeposit",
					"outputs": [],
					"stateMutability": "nonpayable",
					"type": "function"
				},
				{
					"inputs": [
						{
							"internalType": "uint256",
							"name": "amount",
							"type": "uint256"
						}
					],
					"name": "setserviceFee",
					"outputs": [],
					"stateMutability": "nonpayable",
					"type": "function"
				},
				{
					"inputs": [
						{
							"internalType": "address",
							"name": "newOwner",
							"type": "address"
						}
					],
					"name": "transferOwnership",
					"outputs": [],
					"stateMutability": "nonpayable",
					"type": "function"
				},
				{
					"inputs": [
						{
							"internalType": "uint256",
							"name": "requestId",
							"type": "uint256"
						}
					],
					"name": "withdraw",
					"outputs": [],
					"stateMutability": "nonpayable",
					"type": "function"
				}
			],
			"devdoc": {
				"custom:security-contact": "bridge-when-cheap@gmail.com",
				"kind": "dev",
				"methods": {
					"owner()": {
						"details": "Returns the address of the current owner."
					},
					"renounceOwnership()": {
						"details": "Leaves the contract without owner. It will not be possible to call `onlyOwner` functions anymore. Can only be called by the current owner. NOTE: Renouncing ownership will leave the contract without an owner, thereby removing any functionality that is only available to the owner."
					},
					"transferOwnership(address)": {
						"details": "Transfers ownership of the contract to a new account (`newOwner`). Can only be called by the current owner."
					}
				},
				"version": 1
			},
			"evm": {
				"assembly": "    /* \"solidity/contracts/BridgewhenCheap.sol\":807:11489  contract BridgeWhenCheap is Ownable, ReentrancyGuard {... */\n  mstore(0x40, 0x80)\n    /* \"solidity/contracts/BridgewhenCheap.sol\":2467:2808  constructor(... */\n  callvalue\n  dup1\n  iszero\n  tag_1\n  jumpi\n  0x00\n  dup1\n  revert\ntag_1:\n  pop\n  mload(0x40)\n  sub(codesize, bytecodeSize)\n  dup1\n  bytecodeSize\n  dup4\n  codecopy\n  dup2\n  dup2\n  add\n  0x40\n  mstore\n  dup2\n  add\n  swap1\n  tag_2\n  swap2\n  swap1\n  tag_3\n  jump\t// in\ntag_2:\n    /* \"@openzeppelin/contracts/access/Ownable.sol\":936:968  _transferOwnership(_msgSender()) */\n  tag_8\n    /* \"@openzeppelin/contracts/access/Ownable.sol\":955:967  _msgSender() */\n  tag_9\n    /* \"@openzeppelin/contracts/access/Ownable.sol\":955:965  _msgSender */\n  shl(0x20, tag_10)\n    /* \"@openzeppelin/contracts/access/Ownable.sol\":955:967  _msgSender() */\n  0x20\n  shr\n  jump\t// in\ntag_9:\n    /* \"@openzeppelin/contracts/access/Ownable.sol\":936:954  _transferOwnership */\n  shl(0x20, tag_11)\n    /* \"@openzeppelin/contracts/access/Ownable.sol\":936:968  _transferOwnership(_msgSender()) */\n  0x20\n  shr\n  jump\t// in\ntag_8:\n    /* \"@openzeppelin/contracts/security/ReentrancyGuard.sol\":1716:1717  1 */\n  0x01\n    /* \"@openzeppelin/contracts/security/ReentrancyGuard.sol\":1821:1828  _status */\n  dup1\n    /* \"@openzeppelin/contracts/security/ReentrancyGuard.sol\":1821:1843  _status = _NOT_ENTERED */\n  dup2\n  swap1\n  sstore\n  pop\n    /* \"solidity/contracts/BridgewhenCheap.sol\":2677:2697  _l2execGasFeeDeposit */\n  dup3\n    /* \"solidity/contracts/BridgewhenCheap.sol\":2655:2674  l2execGasFeeDeposit */\n  0x02\n    /* \"solidity/contracts/BridgewhenCheap.sol\":2655:2697  l2execGasFeeDeposit = _l2execGasFeeDeposit */\n  dup2\n  swap1\n  sstore\n  pop\n    /* \"solidity/contracts/BridgewhenCheap.sol\":2720:2731  _serviceFee */\n  dup2\n    /* \"solidity/contracts/BridgewhenCheap.sol\":2707:2717  serviceFee */\n  0x03\n    /* \"solidity/contracts/BridgewhenCheap.sol\":2707:2731  serviceFee = _serviceFee */\n  dup2\n  swap1\n  sstore\n  pop\n    /* \"solidity/contracts/BridgewhenCheap.sol\":2757:2771  _layer1ChainId */\n  dup1\n    /* \"solidity/contracts/BridgewhenCheap.sol\":2741:2754  layer1ChainId */\n  0x06\n    /* \"solidity/contracts/BridgewhenCheap.sol\":2741:2771  layer1ChainId = _layer1ChainId */\n  dup2\n  swap1\n  sstore\n  pop\n    /* \"solidity/contracts/BridgewhenCheap.sol\":2781:2801  checkFeeInvariants() */\n  tag_14\n    /* \"solidity/contracts/BridgewhenCheap.sol\":2781:2799  checkFeeInvariants */\n  shl(0x20, tag_15)\n    /* \"solidity/contracts/BridgewhenCheap.sol\":2781:2801  checkFeeInvariants() */\n  0x20\n  shr\n  jump\t// in\ntag_14:\n    /* \"solidity/contracts/BridgewhenCheap.sol\":2467:2808  constructor(... */\n  pop\n  pop\n  pop\n    /* \"solidity/contracts/BridgewhenCheap.sol\":807:11489  contract BridgeWhenCheap is Ownable, ReentrancyGuard {... */\n  jump(tag_16)\n    /* \"@openzeppelin/contracts/utils/Context.sol\":640:736  function _msgSender() internal view virtual returns (address) {... */\ntag_10:\n    /* \"@openzeppelin/contracts/utils/Context.sol\":693:700  address */\n  0x00\n    /* \"@openzeppelin/contracts/utils/Context.sol\":719:729  msg.sender */\n  caller\n    /* \"@openzeppelin/contracts/utils/Context.sol\":712:729  return msg.sender */\n  swap1\n  pop\n    /* \"@openzeppelin/contracts/utils/Context.sol\":640:736  function _msgSender() internal view virtual returns (address) {... */\n  swap1\n  jump\t// out\n    /* \"@openzeppelin/contracts/access/Ownable.sol\":2433:2620  function _transferOwnership(address newOwner) internal virtual {... */\ntag_11:\n    /* \"@openzeppelin/contracts/access/Ownable.sol\":2506:2522  address oldOwner */\n  0x00\n    /* \"@openzeppelin/contracts/access/Ownable.sol\":2525:2531  _owner */\n  dup1\n  0x00\n  swap1\n  sload\n  swap1\n  0x0100\n  exp\n  swap1\n  div\n  0xffffffffffffffffffffffffffffffffffffffff\n  and\n    /* \"@openzeppelin/contracts/access/Ownable.sol\":2506:2531  address oldOwner = _owner */\n  swap1\n  pop\n    /* \"@openzeppelin/contracts/access/Ownable.sol\":2550:2558  newOwner */\n  dup2\n    /* \"@openzeppelin/contracts/access/Ownable.sol\":2541:2547  _owner */\n  0x00\n  dup1\n    /* \"@openzeppelin/contracts/access/Ownable.sol\":2541:2558  _owner = newOwner */\n  0x0100\n  exp\n  dup2\n  sload\n  dup2\n  0xffffffffffffffffffffffffffffffffffffffff\n  mul\n  not\n  and\n  swap1\n  dup4\n  0xffffffffffffffffffffffffffffffffffffffff\n  and\n  mul\n  or\n  swap1\n  sstore\n  pop\n    /* \"@openzeppelin/contracts/access/Ownable.sol\":2604:2612  newOwner */\n  dup2\n    /* \"@openzeppelin/contracts/access/Ownable.sol\":2573:2613  OwnershipTransferred(oldOwner, newOwner) */\n  0xffffffffffffffffffffffffffffffffffffffff\n  and\n    /* \"@openzeppelin/contracts/access/Ownable.sol\":2594:2602  oldOwner */\n  dup2\n    /* \"@openzeppelin/contracts/access/Ownable.sol\":2573:2613  OwnershipTransferred(oldOwner, newOwner) */\n  0xffffffffffffffffffffffffffffffffffffffff\n  and\n  0x8be0079c531659141344cd1fd0a4f28419497f9722a3daafe3b4186f6b6457e0\n  mload(0x40)\n  mload(0x40)\n  dup1\n  swap2\n  sub\n  swap1\n  log3\n    /* \"@openzeppelin/contracts/access/Ownable.sol\":2496:2620  {... */\n  pop\n    /* \"@openzeppelin/contracts/access/Ownable.sol\":2433:2620  function _transferOwnership(address newOwner) internal virtual {... */\n  pop\n  jump\t// out\n    /* \"solidity/contracts/BridgewhenCheap.sol\":10904:11107  function checkFeeInvariants() internal view {... */\ntag_15:\n    /* \"solidity/contracts/BridgewhenCheap.sol\":10993:11012  l2execGasFeeDeposit */\n  sload(0x02)\n    /* \"solidity/contracts/BridgewhenCheap.sol\":10979:10989  serviceFee */\n  sload(0x03)\n    /* \"solidity/contracts/BridgewhenCheap.sol\":10979:11012  serviceFee >= l2execGasFeeDeposit */\n  lt\n  iszero\n    /* \"solidity/contracts/BridgewhenCheap.sol\":10958:11100  require(... */\n  tag_20\n  jumpi\n  mload(0x40)\n  0x08c379a000000000000000000000000000000000000000000000000000000000\n  dup2\n  mstore\n  0x04\n  add\n  tag_21\n  swap1\n  tag_22\n  jump\t// in\ntag_21:\n  mload(0x40)\n  dup1\n  swap2\n  sub\n  swap1\n  revert\ntag_20:\n    /* \"solidity/contracts/BridgewhenCheap.sol\":10904:11107  function checkFeeInvariants() internal view {... */\n  jump\t// out\n    /* \"#utility.yul\":88:205   */\ntag_24:\n    /* \"#utility.yul\":197:198   */\n  0x00\n    /* \"#utility.yul\":194:195   */\n  dup1\n    /* \"#utility.yul\":187:199   */\n  revert\n    /* \"#utility.yul\":334:411   */\ntag_26:\n    /* \"#utility.yul\":371:378   */\n  0x00\n    /* \"#utility.yul\":400:405   */\n  dup2\n    /* \"#utility.yul\":389:405   */\n  swap1\n  pop\n    /* \"#utility.yul\":334:411   */\n  swap2\n  swap1\n  pop\n  jump\t// out\n    /* \"#utility.yul\":417:539   */\ntag_27:\n    /* \"#utility.yul\":490:514   */\n  tag_38\n    /* \"#utility.yul\":508:513   */\n  dup2\n    /* \"#utility.yul\":490:514   */\n  tag_26\n  jump\t// in\ntag_38:\n    /* \"#utility.yul\":483:488   */\n  dup2\n    /* \"#utility.yul\":480:515   */\n  eq\n    /* \"#utility.yul\":470:533   */\n  tag_39\n  jumpi\n    /* \"#utility.yul\":529:530   */\n  0x00\n    /* \"#utility.yul\":526:527   */\n  dup1\n    /* \"#utility.yul\":519:531   */\n  revert\n    /* \"#utility.yul\":470:533   */\ntag_39:\n    /* \"#utility.yul\":417:539   */\n  pop\n  jump\t// out\n    /* \"#utility.yul\":545:688   */\ntag_28:\n    /* \"#utility.yul\":602:607   */\n  0x00\n    /* \"#utility.yul\":633:639   */\n  dup2\n    /* \"#utility.yul\":627:640   */\n  mload\n    /* \"#utility.yul\":618:640   */\n  swap1\n  pop\n    /* \"#utility.yul\":649:682   */\n  tag_41\n    /* \"#utility.yul\":676:681   */\n  dup2\n    /* \"#utility.yul\":649:682   */\n  tag_27\n  jump\t// in\ntag_41:\n    /* \"#utility.yul\":545:688   */\n  swap3\n  swap2\n  pop\n  pop\n  jump\t// out\n    /* \"#utility.yul\":694:1357   */\ntag_3:\n    /* \"#utility.yul\":782:788   */\n  0x00\n    /* \"#utility.yul\":790:796   */\n  dup1\n    /* \"#utility.yul\":798:804   */\n  0x00\n    /* \"#utility.yul\":847:849   */\n  0x60\n    /* \"#utility.yul\":835:844   */\n  dup5\n    /* \"#utility.yul\":826:833   */\n  dup7\n    /* \"#utility.yul\":822:845   */\n  sub\n    /* \"#utility.yul\":818:850   */\n  slt\n    /* \"#utility.yul\":815:934   */\n  iszero\n  tag_43\n  jumpi\n    /* \"#utility.yul\":853:932   */\n  tag_44\n  tag_24\n  jump\t// in\ntag_44:\n    /* \"#utility.yul\":815:934   */\ntag_43:\n    /* \"#utility.yul\":973:974   */\n  0x00\n    /* \"#utility.yul\":998:1062   */\n  tag_45\n    /* \"#utility.yul\":1054:1061   */\n  dup7\n    /* \"#utility.yul\":1045:1051   */\n  dup3\n    /* \"#utility.yul\":1034:1043   */\n  dup8\n    /* \"#utility.yul\":1030:1052   */\n  add\n    /* \"#utility.yul\":998:1062   */\n  tag_28\n  jump\t// in\ntag_45:\n    /* \"#utility.yul\":988:1062   */\n  swap4\n  pop\n    /* \"#utility.yul\":944:1072   */\n  pop\n    /* \"#utility.yul\":1111:1113   */\n  0x20\n    /* \"#utility.yul\":1137:1201   */\n  tag_46\n    /* \"#utility.yul\":1193:1200   */\n  dup7\n    /* \"#utility.yul\":1184:1190   */\n  dup3\n    /* \"#utility.yul\":1173:1182   */\n  dup8\n    /* \"#utility.yul\":1169:1191   */\n  add\n    /* \"#utility.yul\":1137:1201   */\n  tag_28\n  jump\t// in\ntag_46:\n    /* \"#utility.yul\":1127:1201   */\n  swap3\n  pop\n    /* \"#utility.yul\":1082:1211   */\n  pop\n    /* \"#utility.yul\":1250:1252   */\n  0x40\n    /* \"#utility.yul\":1276:1340   */\n  tag_47\n    /* \"#utility.yul\":1332:1339   */\n  dup7\n    /* \"#utility.yul\":1323:1329   */\n  dup3\n    /* \"#utility.yul\":1312:1321   */\n  dup8\n    /* \"#utility.yul\":1308:1330   */\n  add\n    /* \"#utility.yul\":1276:1340   */\n  tag_28\n  jump\t// in\ntag_47:\n    /* \"#utility.yul\":1266:1340   */\n  swap2\n  pop\n    /* \"#utility.yul\":1221:1350   */\n  pop\n    /* \"#utility.yul\":694:1357   */\n  swap3\n  pop\n  swap3\n  pop\n  swap3\n  jump\t// out\n    /* \"#utility.yul\":1363:1532   */\ntag_29:\n    /* \"#utility.yul\":1447:1458   */\n  0x00\n    /* \"#utility.yul\":1481:1487   */\n  dup3\n    /* \"#utility.yul\":1476:1479   */\n  dup3\n    /* \"#utility.yul\":1469:1488   */\n  mstore\n    /* \"#utility.yul\":1521:1525   */\n  0x20\n    /* \"#utility.yul\":1516:1519   */\n  dup3\n    /* \"#utility.yul\":1512:1526   */\n  add\n    /* \"#utility.yul\":1497:1526   */\n  swap1\n  pop\n    /* \"#utility.yul\":1363:1532   */\n  swap3\n  swap2\n  pop\n  pop\n  jump\t// out\n    /* \"#utility.yul\":1538:1787   */\ntag_30:\n    /* \"#utility.yul\":1678:1712   */\n  0x5365727669636520666565206d75737420636f766572206174206c6561737420\n    /* \"#utility.yul\":1674:1675   */\n  0x00\n    /* \"#utility.yul\":1666:1672   */\n  dup3\n    /* \"#utility.yul\":1662:1676   */\n  add\n    /* \"#utility.yul\":1655:1713   */\n  mstore\n    /* \"#utility.yul\":1747:1779   */\n  0x74686520657865637574696f6e2067617320726571756972656d656e742e0000\n    /* \"#utility.yul\":1742:1744   */\n  0x20\n    /* \"#utility.yul\":1734:1740   */\n  dup3\n    /* \"#utility.yul\":1730:1745   */\n  add\n    /* \"#utility.yul\":1723:1780   */\n  mstore\n    /* \"#utility.yul\":1538:1787   */\n  pop\n  jump\t// out\n    /* \"#utility.yul\":1793:2159   */\ntag_31:\n    /* \"#utility.yul\":1935:1938   */\n  0x00\n    /* \"#utility.yul\":1956:2023   */\n  tag_51\n    /* \"#utility.yul\":2020:2022   */\n  0x3e\n    /* \"#utility.yul\":2015:2018   */\n  dup4\n    /* \"#utility.yul\":1956:2023   */\n  tag_29\n  jump\t// in\ntag_51:\n    /* \"#utility.yul\":1949:2023   */\n  swap2\n  pop\n    /* \"#utility.yul\":2032:2125   */\n  tag_52\n    /* \"#utility.yul\":2121:2124   */\n  dup3\n    /* \"#utility.yul\":2032:2125   */\n  tag_30\n  jump\t// in\ntag_52:\n    /* \"#utility.yul\":2150:2152   */\n  0x40\n    /* \"#utility.yul\":2145:2148   */\n  dup3\n    /* \"#utility.yul\":2141:2153   */\n  add\n    /* \"#utility.yul\":2134:2153   */\n  swap1\n  pop\n    /* \"#utility.yul\":1793:2159   */\n  swap2\n  swap1\n  pop\n  jump\t// out\n    /* \"#utility.yul\":2165:2584   */\ntag_22:\n    /* \"#utility.yul\":2331:2335   */\n  0x00\n    /* \"#utility.yul\":2369:2371   */\n  0x20\n    /* \"#utility.yul\":2358:2367   */\n  dup3\n    /* \"#utility.yul\":2354:2372   */\n  add\n    /* \"#utility.yul\":2346:2372   */\n  swap1\n  pop\n    /* \"#utility.yul\":2418:2427   */\n  dup2\n    /* \"#utility.yul\":2412:2416   */\n  dup2\n    /* \"#utility.yul\":2408:2428   */\n  sub\n    /* \"#utility.yul\":2404:2405   */\n  0x00\n    /* \"#utility.yul\":2393:2402   */\n  dup4\n    /* \"#utility.yul\":2389:2406   */\n  add\n    /* \"#utility.yul\":2382:2429   */\n  mstore\n    /* \"#utility.yul\":2446:2577   */\n  tag_54\n    /* \"#utility.yul\":2572:2576   */\n  dup2\n    /* \"#utility.yul\":2446:2577   */\n  tag_31\n  jump\t// in\ntag_54:\n    /* \"#utility.yul\":2438:2577   */\n  swap1\n  pop\n    /* \"#utility.yul\":2165:2584   */\n  swap2\n  swap1\n  pop\n  jump\t// out\n    /* \"solidity/contracts/BridgewhenCheap.sol\":807:11489  contract BridgeWhenCheap is Ownable, ReentrancyGuard {... */\ntag_16:\n  dataSize(sub_0)\n  dup1\n  dataOffset(sub_0)\n  0x00\n  codecopy\n  0x00\n  return\nstop\n\nsub_0: assembly {\n        /* \"solidity/contracts/BridgewhenCheap.sol\":807:11489  contract BridgeWhenCheap is Ownable, ReentrancyGuard {... */\n      mstore(0x40, 0x80)\n      jumpi(tag_1, lt(calldatasize, 0x04))\n      shr(0xe0, calldataload(0x00))\n      dup1\n      0x87d6161b\n      gt\n      tag_19\n      jumpi\n      dup1\n      0xa191078a\n      gt\n      tag_20\n      jumpi\n      dup1\n      0xa191078a\n      eq\n      tag_14\n      jumpi\n      dup1\n      0xa1f66306\n      eq\n      tag_15\n      jumpi\n      dup1\n      0xb6502943\n      eq\n      tag_16\n      jumpi\n      dup1\n      0xd043ba19\n      eq\n      tag_17\n      jumpi\n      dup1\n      0xf2fde38b\n      eq\n      tag_18\n      jumpi\n      jump(tag_1)\n    tag_20:\n      dup1\n      0x87d6161b\n      eq\n      tag_10\n      jumpi\n      dup1\n      0x8abdf5aa\n      eq\n      tag_11\n      jumpi\n      dup1\n      0x8c13bc08\n      eq\n      tag_12\n      jumpi\n      dup1\n      0x8da5cb5b\n      eq\n      tag_13\n      jumpi\n      jump(tag_1)\n    tag_19:\n      dup1\n      0x488ff1c8\n      gt\n      tag_21\n      jumpi\n      dup1\n      0x488ff1c8\n      eq\n      tag_6\n      jumpi\n      dup1\n      0x715018a6\n      eq\n      tag_7\n      jumpi\n      dup1\n      0x7394e49c\n      eq\n      tag_8\n      jumpi\n      dup1\n      0x7b1aa45f\n      eq\n      tag_9\n      jumpi\n      jump(tag_1)\n    tag_21:\n      dup1\n      0x1485351e\n      eq\n      tag_2\n      jumpi\n      dup1\n      0x242f4046\n      eq\n      tag_3\n      jumpi\n      dup1\n      0x2e1a7d4d\n      eq\n      tag_4\n      jumpi\n      dup1\n      0x33f707d1\n      eq\n      tag_5\n      jumpi\n    tag_1:\n      0x00\n      dup1\n      revert\n        /* \"solidity/contracts/BridgewhenCheap.sol\":10567:10850  function addSupportForNewToken(IERC20 token, address tokenHopBridge)... */\n    tag_2:\n      callvalue\n      dup1\n      iszero\n      tag_22\n      jumpi\n      0x00\n      dup1\n      revert\n    tag_22:\n      pop\n      tag_23\n      0x04\n      dup1\n      calldatasize\n      sub\n      dup2\n      add\n      swap1\n      tag_24\n      swap2\n      swap1\n      tag_25\n      jump\t// in\n    tag_24:\n      tag_26\n      jump\t// in\n    tag_23:\n      stop\n        /* \"solidity/contracts/BridgewhenCheap.sol\":1076:1110  uint256 public l2execGasFeeDeposit */\n    tag_3:\n      callvalue\n      dup1\n      iszero\n      tag_27\n      jumpi\n      0x00\n      dup1\n      revert\n    tag_27:\n      pop\n      tag_28\n      tag_29\n      jump\t// in\n    tag_28:\n      mload(0x40)\n      tag_30\n      swap2\n      swap1\n      tag_31\n      jump\t// in\n    tag_30:\n      mload(0x40)\n      dup1\n      swap2\n      sub\n      swap1\n      return\n        /* \"solidity/contracts/BridgewhenCheap.sol\":6406:7514  function withdraw(uint256 requestId) external nonReentrant {... */\n    tag_4:\n      callvalue\n      dup1\n      iszero\n      tag_32\n      jumpi\n      0x00\n      dup1\n      revert\n    tag_32:\n      pop\n      tag_33\n      0x04\n      dup1\n      calldatasize\n      sub\n      dup2\n      add\n      swap1\n      tag_34\n      swap2\n      swap1\n      tag_35\n      jump\t// in\n    tag_34:\n      tag_36\n      jump\t// in\n    tag_33:\n      stop\n        /* \"solidity/contracts/BridgewhenCheap.sol\":9568:9913  function ownerWithdraw(uint256 amount) external onlyOwner nonReentrant {... */\n    tag_5:\n      callvalue\n      dup1\n      iszero\n      tag_37\n      jumpi\n      0x00\n      dup1\n      revert\n    tag_37:\n      pop\n      tag_38\n      0x04\n      dup1\n      calldatasize\n      sub\n      dup2\n      add\n      swap1\n      tag_39\n      swap2\n      swap1\n      tag_35\n      jump\t// in\n    tag_39:\n      tag_40\n      jump\t// in\n    tag_38:\n      stop\n        /* \"solidity/contracts/BridgewhenCheap.sol\":1663:1747  mapping(address => mapping(uint256 => BridgeRequest))... */\n    tag_6:\n      callvalue\n      dup1\n      iszero\n      tag_41\n      jumpi\n      0x00\n      dup1\n      revert\n    tag_41:\n      pop\n      tag_42\n      0x04\n      dup1\n      calldatasize\n      sub\n      dup2\n      add\n      swap1\n      tag_43\n      swap2\n      swap1\n      tag_44\n      jump\t// in\n    tag_43:\n      tag_45\n      jump\t// in\n    tag_42:\n      mload(0x40)\n      tag_46\n      swap9\n      swap8\n      swap7\n      swap6\n      swap5\n      swap4\n      swap3\n      swap2\n      swap1\n      tag_47\n      jump\t// in\n    tag_46:\n      mload(0x40)\n      dup1\n      swap2\n      sub\n      swap1\n      return\n        /* \"@openzeppelin/contracts/access/Ownable.sol\":1831:1932  function renounceOwnership() public virtual onlyOwner {... */\n    tag_7:\n      callvalue\n      dup1\n      iszero\n      tag_48\n      jumpi\n      0x00\n      dup1\n      revert\n    tag_48:\n      pop\n      tag_49\n      tag_50\n      jump\t// in\n    tag_49:\n      stop\n        /* \"solidity/contracts/BridgewhenCheap.sol\":2194:2244  mapping(IERC20 => address) public bridgeContractOf */\n    tag_8:\n      callvalue\n      dup1\n      iszero\n      tag_51\n      jumpi\n      0x00\n      dup1\n      revert\n    tag_51:\n      pop\n      tag_52\n      0x04\n      dup1\n      calldatasize\n      sub\n      dup2\n      add\n      swap1\n      tag_53\n      swap2\n      swap1\n      tag_54\n      jump\t// in\n    tag_53:\n      tag_55\n      jump\t// in\n    tag_52:\n      mload(0x40)\n      tag_56\n      swap2\n      swap1\n      tag_57\n      jump\t// in\n    tag_56:\n      mload(0x40)\n      dup1\n      swap2\n      sub\n      swap1\n      return\n        /* \"solidity/contracts/BridgewhenCheap.sol\":9481:9534  function ownerDeposit() external payable onlyOwner {} */\n    tag_9:\n      tag_58\n      tag_59\n      jump\t// in\n    tag_58:\n      stop\n        /* \"solidity/contracts/BridgewhenCheap.sol\":10053:10195  function setL2execGasFeeDeposit(uint256 amount) external onlyOwner {... */\n    tag_10:\n      callvalue\n      dup1\n      iszero\n      tag_60\n      jumpi\n      0x00\n      dup1\n      revert\n    tag_60:\n      pop\n      tag_61\n      0x04\n      dup1\n      calldatasize\n      sub\n      dup2\n      add\n      swap1\n      tag_62\n      swap2\n      swap1\n      tag_35\n      jump\t// in\n    tag_62:\n      tag_63\n      jump\t// in\n    tag_61:\n      stop\n        /* \"solidity/contracts/BridgewhenCheap.sol\":1311:1336  uint256 public serviceFee */\n    tag_11:\n      callvalue\n      dup1\n      iszero\n      tag_64\n      jumpi\n      0x00\n      dup1\n      revert\n    tag_64:\n      pop\n      tag_65\n      tag_66\n      jump\t// in\n    tag_65:\n      mload(0x40)\n      tag_67\n      swap2\n      swap1\n      tag_31\n      jump\t// in\n    tag_67:\n      mload(0x40)\n      dup1\n      swap2\n      sub\n      swap1\n      return\n        /* \"solidity/contracts/BridgewhenCheap.sol\":3632:6326  function deposit(... */\n    tag_12:\n      tag_68\n      0x04\n      dup1\n      calldatasize\n      sub\n      dup2\n      add\n      swap1\n      tag_69\n      swap2\n      swap1\n      tag_70\n      jump\t// in\n    tag_69:\n      tag_71\n      jump\t// in\n    tag_68:\n      stop\n        /* \"@openzeppelin/contracts/access/Ownable.sol\":1201:1286  function owner() public view virtual returns (address) {... */\n    tag_13:\n      callvalue\n      dup1\n      iszero\n      tag_72\n      jumpi\n      0x00\n      dup1\n      revert\n    tag_72:\n      pop\n      tag_73\n      tag_74\n      jump\t// in\n    tag_73:\n      mload(0x40)\n      tag_75\n      swap2\n      swap1\n      tag_57\n      jump\t// in\n    tag_75:\n      mload(0x40)\n      dup1\n      swap2\n      sub\n      swap1\n      return\n        /* \"solidity/contracts/BridgewhenCheap.sol\":10286:10410  function setserviceFee(uint256 amount) external onlyOwner {... */\n    tag_14:\n      callvalue\n      dup1\n      iszero\n      tag_76\n      jumpi\n      0x00\n      dup1\n      revert\n    tag_76:\n      pop\n      tag_77\n      0x04\n      dup1\n      calldatasize\n      sub\n      dup2\n      add\n      swap1\n      tag_78\n      swap2\n      swap1\n      tag_35\n      jump\t// in\n    tag_78:\n      tag_79\n      jump\t// in\n    tag_77:\n      stop\n        /* \"solidity/contracts/BridgewhenCheap.sol\":1546:1592  uint256 public collectedServiceFeeExcludingGas */\n    tag_15:\n      callvalue\n      dup1\n      iszero\n      tag_80\n      jumpi\n      0x00\n      dup1\n      revert\n    tag_80:\n      pop\n      tag_81\n      tag_82\n      jump\t// in\n    tag_81:\n      mload(0x40)\n      tag_83\n      swap2\n      swap1\n      tag_31\n      jump\t// in\n    tag_83:\n      mload(0x40)\n      dup1\n      swap2\n      sub\n      swap1\n      return\n        /* \"solidity/contracts/BridgewhenCheap.sol\":1815:1843  uint256 public layer1ChainId */\n    tag_16:\n      callvalue\n      dup1\n      iszero\n      tag_84\n      jumpi\n      0x00\n      dup1\n      revert\n    tag_84:\n      pop\n      tag_85\n      tag_86\n      jump\t// in\n    tag_85:\n      mload(0x40)\n      tag_87\n      swap2\n      swap1\n      tag_31\n      jump\t// in\n    tag_87:\n      mload(0x40)\n      dup1\n      swap2\n      sub\n      swap1\n      return\n        /* \"solidity/contracts/BridgewhenCheap.sol\":7798:9289  function executeRequest(... */\n    tag_17:\n      callvalue\n      dup1\n      iszero\n      tag_88\n      jumpi\n      0x00\n      dup1\n      revert\n    tag_88:\n      pop\n      tag_89\n      0x04\n      dup1\n      calldatasize\n      sub\n      dup2\n      add\n      swap1\n      tag_90\n      swap2\n      swap1\n      tag_91\n      jump\t// in\n    tag_90:\n      tag_92\n      jump\t// in\n    tag_89:\n      stop\n        /* \"@openzeppelin/contracts/access/Ownable.sol\":2081:2279  function transferOwnership(address newOwner) public virtual onlyOwner {... */\n    tag_18:\n      callvalue\n      dup1\n      iszero\n      tag_93\n      jumpi\n      0x00\n      dup1\n      revert\n    tag_93:\n      pop\n      tag_94\n      0x04\n      dup1\n      calldatasize\n      sub\n      dup2\n      add\n      swap1\n      tag_95\n      swap2\n      swap1\n      tag_96\n      jump\t// in\n    tag_95:\n      tag_97\n      jump\t// in\n    tag_94:\n      stop\n        /* \"solidity/contracts/BridgewhenCheap.sol\":10567:10850  function addSupportForNewToken(IERC20 token, address tokenHopBridge)... */\n    tag_26:\n        /* \"@openzeppelin/contracts/access/Ownable.sol\":1094:1107  _checkOwner() */\n      tag_99\n        /* \"@openzeppelin/contracts/access/Ownable.sol\":1094:1105  _checkOwner */\n      tag_100\n        /* \"@openzeppelin/contracts/access/Ownable.sol\":1094:1107  _checkOwner() */\n      jump\t// in\n    tag_99:\n        /* \"solidity/contracts/BridgewhenCheap.sol\":10741:10742  0 */\n      0x00\n        /* \"solidity/contracts/BridgewhenCheap.sol\":10706:10743  bridgeContractOf[token] == address(0) */\n      0xffffffffffffffffffffffffffffffffffffffff\n      and\n        /* \"solidity/contracts/BridgewhenCheap.sol\":10706:10722  bridgeContractOf */\n      0x07\n        /* \"solidity/contracts/BridgewhenCheap.sol\":10706:10729  bridgeContractOf[token] */\n      0x00\n        /* \"solidity/contracts/BridgewhenCheap.sol\":10723:10728  token */\n      dup5\n        /* \"solidity/contracts/BridgewhenCheap.sol\":10706:10729  bridgeContractOf[token] */\n      0xffffffffffffffffffffffffffffffffffffffff\n      and\n      0xffffffffffffffffffffffffffffffffffffffff\n      and\n      dup2\n      mstore\n      0x20\n      add\n      swap1\n      dup2\n      mstore\n      0x20\n      add\n      0x00\n      keccak256\n      0x00\n      swap1\n      sload\n      swap1\n      0x0100\n      exp\n      swap1\n      div\n      0xffffffffffffffffffffffffffffffffffffffff\n      and\n        /* \"solidity/contracts/BridgewhenCheap.sol\":10706:10743  bridgeContractOf[token] == address(0) */\n      0xffffffffffffffffffffffffffffffffffffffff\n      and\n      eq\n        /* \"solidity/contracts/BridgewhenCheap.sol\":10685:10793  require(... */\n      tag_102\n      jumpi\n      mload(0x40)\n      0x08c379a000000000000000000000000000000000000000000000000000000000\n      dup2\n      mstore\n      0x04\n      add\n      tag_103\n      swap1\n      tag_104\n      jump\t// in\n    tag_103:\n      mload(0x40)\n      dup1\n      swap2\n      sub\n      swap1\n      revert\n    tag_102:\n        /* \"solidity/contracts/BridgewhenCheap.sol\":10829:10843  tokenHopBridge */\n      dup1\n        /* \"solidity/contracts/BridgewhenCheap.sol\":10803:10819  bridgeContractOf */\n      0x07\n        /* \"solidity/contracts/BridgewhenCheap.sol\":10803:10826  bridgeContractOf[token] */\n      0x00\n        /* \"solidity/contracts/BridgewhenCheap.sol\":10820:10825  token */\n      dup5\n        /* \"solidity/contracts/BridgewhenCheap.sol\":10803:10826  bridgeContractOf[token] */\n      0xffffffffffffffffffffffffffffffffffffffff\n      and\n      0xffffffffffffffffffffffffffffffffffffffff\n      and\n      dup2\n      mstore\n      0x20\n      add\n      swap1\n      dup2\n      mstore\n      0x20\n      add\n      0x00\n      keccak256\n      0x00\n        /* \"solidity/contracts/BridgewhenCheap.sol\":10803:10843  bridgeContractOf[token] = tokenHopBridge */\n      0x0100\n      exp\n      dup2\n      sload\n      dup2\n      0xffffffffffffffffffffffffffffffffffffffff\n      mul\n      not\n      and\n      swap1\n      dup4\n      0xffffffffffffffffffffffffffffffffffffffff\n      and\n      mul\n      or\n      swap1\n      sstore\n      pop\n        /* \"solidity/contracts/BridgewhenCheap.sol\":10567:10850  function addSupportForNewToken(IERC20 token, address tokenHopBridge)... */\n      pop\n      pop\n      jump\t// out\n        /* \"solidity/contracts/BridgewhenCheap.sol\":1076:1110  uint256 public l2execGasFeeDeposit */\n    tag_29:\n      sload(0x02)\n      dup2\n      jump\t// out\n        /* \"solidity/contracts/BridgewhenCheap.sol\":6406:7514  function withdraw(uint256 requestId) external nonReentrant {... */\n    tag_36:\n        /* \"@openzeppelin/contracts/security/ReentrancyGuard.sol\":2261:2282  _nonReentrantBefore() */\n      tag_106\n        /* \"@openzeppelin/contracts/security/ReentrancyGuard.sol\":2261:2280  _nonReentrantBefore */\n      tag_107\n        /* \"@openzeppelin/contracts/security/ReentrancyGuard.sol\":2261:2282  _nonReentrantBefore() */\n      jump\t// in\n    tag_106:\n        /* \"solidity/contracts/BridgewhenCheap.sol\":6493:6529  BridgeRequest memory obsoleteRequest */\n      0x00\n        /* \"solidity/contracts/BridgewhenCheap.sol\":6532:6547  pendingRequests */\n      0x05\n        /* \"solidity/contracts/BridgewhenCheap.sol\":6532:6559  pendingRequests[msg.sender] */\n      0x00\n        /* \"solidity/contracts/BridgewhenCheap.sol\":6548:6558  msg.sender */\n      caller\n        /* \"solidity/contracts/BridgewhenCheap.sol\":6532:6559  pendingRequests[msg.sender] */\n      0xffffffffffffffffffffffffffffffffffffffff\n      and\n      0xffffffffffffffffffffffffffffffffffffffff\n      and\n      dup2\n      mstore\n      0x20\n      add\n      swap1\n      dup2\n      mstore\n      0x20\n      add\n      0x00\n      keccak256\n        /* \"solidity/contracts/BridgewhenCheap.sol\":6532:6592  pendingRequests[msg.sender][... */\n      0x00\n        /* \"solidity/contracts/BridgewhenCheap.sol\":6573:6582  requestId */\n      dup4\n        /* \"solidity/contracts/BridgewhenCheap.sol\":6532:6592  pendingRequests[msg.sender][... */\n      dup2\n      mstore\n      0x20\n      add\n      swap1\n      dup2\n      mstore\n      0x20\n      add\n      0x00\n      keccak256\n        /* \"solidity/contracts/BridgewhenCheap.sol\":6493:6592  BridgeRequest memory obsoleteRequest = pendingRequests[msg.sender][... */\n      mload(0x40)\n      dup1\n      0x0100\n      add\n      0x40\n      mstore\n      swap1\n      dup2\n      0x00\n      dup3\n      add\n      0x00\n      swap1\n      sload\n      swap1\n      0x0100\n      exp\n      swap1\n      div\n      0xffffffffffffffffffffffffffffffffffffffff\n      and\n      0xffffffffffffffffffffffffffffffffffffffff\n      and\n      0xffffffffffffffffffffffffffffffffffffffff\n      and\n      dup2\n      mstore\n      0x20\n      add\n      0x01\n      dup3\n      add\n      0x00\n      swap1\n      sload\n      swap1\n      0x0100\n      exp\n      swap1\n      div\n      0xffffffffffffffffffffffffffffffffffffffff\n      and\n      0xffffffffffffffffffffffffffffffffffffffff\n      and\n      0xffffffffffffffffffffffffffffffffffffffff\n      and\n      dup2\n      mstore\n      0x20\n      add\n      0x01\n      dup3\n      add\n      0x14\n      swap1\n      sload\n      swap1\n      0x0100\n      exp\n      swap1\n      div\n      0xff\n      and\n      iszero\n      iszero\n      iszero\n      iszero\n      dup2\n      mstore\n      0x20\n      add\n      0x02\n      dup3\n      add\n      0x00\n      swap1\n      sload\n      swap1\n      0x0100\n      exp\n      swap1\n      div\n      0xffffffffffffffffffffffffffffffffffffffff\n      and\n      0xffffffffffffffffffffffffffffffffffffffff\n      and\n      0xffffffffffffffffffffffffffffffffffffffff\n      and\n      dup2\n      mstore\n      0x20\n      add\n      0x03\n      dup3\n      add\n      sload\n      dup2\n      mstore\n      0x20\n      add\n      0x04\n      dup3\n      add\n      sload\n      dup2\n      mstore\n      0x20\n      add\n      0x05\n      dup3\n      add\n      sload\n      dup2\n      mstore\n      0x20\n      add\n      0x06\n      dup3\n      add\n      sload\n      dup2\n      mstore\n      pop\n      pop\n      swap1\n      pop\n        /* \"solidity/contracts/BridgewhenCheap.sol\":6646:6672  isDefined(obsoleteRequest) */\n      tag_109\n        /* \"solidity/contracts/BridgewhenCheap.sol\":6656:6671  obsoleteRequest */\n      dup2\n        /* \"solidity/contracts/BridgewhenCheap.sol\":6646:6655  isDefined */\n      tag_110\n        /* \"solidity/contracts/BridgewhenCheap.sol\":6646:6672  isDefined(obsoleteRequest) */\n      jump\t// in\n    tag_109:\n        /* \"solidity/contracts/BridgewhenCheap.sol\":6638:6700  require(isDefined(obsoleteRequest), \"No request to withdraw.\") */\n      tag_111\n      jumpi\n      mload(0x40)\n      0x08c379a000000000000000000000000000000000000000000000000000000000\n      dup2\n      mstore\n      0x04\n      add\n      tag_112\n      swap1\n      tag_113\n      jump\t// in\n    tag_112:\n      mload(0x40)\n      dup1\n      swap2\n      sub\n      swap1\n      revert\n    tag_111:\n        /* \"solidity/contracts/BridgewhenCheap.sol\":6743:6753  msg.sender */\n      caller\n        /* \"solidity/contracts/BridgewhenCheap.sol\":6717:6753  obsoleteRequest.source == msg.sender */\n      0xffffffffffffffffffffffffffffffffffffffff\n      and\n        /* \"solidity/contracts/BridgewhenCheap.sol\":6717:6732  obsoleteRequest */\n      dup2\n        /* \"solidity/contracts/BridgewhenCheap.sol\":6717:6739  obsoleteRequest.source */\n      0x00\n      add\n      mload\n        /* \"solidity/contracts/BridgewhenCheap.sol\":6717:6753  obsoleteRequest.source == msg.sender */\n      0xffffffffffffffffffffffffffffffffffffffff\n      and\n      eq\n        /* \"solidity/contracts/BridgewhenCheap.sol\":6710:6754  assert(obsoleteRequest.source == msg.sender) */\n      tag_114\n      jumpi\n      tag_115\n      tag_116\n      jump\t// in\n    tag_115:\n    tag_114:\n        /* \"solidity/contracts/BridgewhenCheap.sol\":6765:6792  uint256 withdrawTokenAmount */\n      0x00\n        /* \"solidity/contracts/BridgewhenCheap.sol\":6882:6915  uint256 withdrawNativeEtherAmount */\n      dup1\n        /* \"solidity/contracts/BridgewhenCheap.sol\":6918:6933  obsoleteRequest */\n      dup3\n        /* \"solidity/contracts/BridgewhenCheap.sol\":6918:6953  obsoleteRequest.l2execGasFeeDeposit */\n      0xe0\n      add\n      mload\n        /* \"solidity/contracts/BridgewhenCheap.sol\":6882:6953  uint256 withdrawNativeEtherAmount = obsoleteRequest.l2execGasFeeDeposit */\n      swap1\n      pop\n        /* \"solidity/contracts/BridgewhenCheap.sol\":6968:6983  obsoleteRequest */\n      dup3\n        /* \"solidity/contracts/BridgewhenCheap.sol\":6968:6999  obsoleteRequest.isTokenTransfer */\n      0x40\n      add\n      mload\n        /* \"solidity/contracts/BridgewhenCheap.sol\":6964:7153  if (obsoleteRequest.isTokenTransfer) {... */\n      iszero\n      tag_117\n      jumpi\n        /* \"solidity/contracts/BridgewhenCheap.sol\":7038:7053  obsoleteRequest */\n      dup3\n        /* \"solidity/contracts/BridgewhenCheap.sol\":7038:7060  obsoleteRequest.amount */\n      0x80\n      add\n      mload\n        /* \"solidity/contracts/BridgewhenCheap.sol\":7015:7060  withdrawTokenAmount += obsoleteRequest.amount */\n      dup3\n      tag_118\n      swap2\n      swap1\n      tag_119\n      jump\t// in\n    tag_118:\n      swap2\n      pop\n        /* \"solidity/contracts/BridgewhenCheap.sol\":6964:7153  if (obsoleteRequest.isTokenTransfer) {... */\n      jump(tag_120)\n    tag_117:\n        /* \"solidity/contracts/BridgewhenCheap.sol\":7120:7135  obsoleteRequest */\n      dup3\n        /* \"solidity/contracts/BridgewhenCheap.sol\":7120:7142  obsoleteRequest.amount */\n      0x80\n      add\n      mload\n        /* \"solidity/contracts/BridgewhenCheap.sol\":7091:7142  withdrawNativeEtherAmount += obsoleteRequest.amount */\n      dup2\n      tag_121\n      swap2\n      swap1\n      tag_119\n      jump\t// in\n    tag_121:\n      swap1\n      pop\n        /* \"solidity/contracts/BridgewhenCheap.sol\":6964:7153  if (obsoleteRequest.isTokenTransfer) {... */\n    tag_120:\n        /* \"solidity/contracts/BridgewhenCheap.sol\":7189:7204  pendingRequests */\n      0x05\n        /* \"solidity/contracts/BridgewhenCheap.sol\":7189:7216  pendingRequests[msg.sender] */\n      0x00\n        /* \"solidity/contracts/BridgewhenCheap.sol\":7205:7215  msg.sender */\n      caller\n        /* \"solidity/contracts/BridgewhenCheap.sol\":7189:7216  pendingRequests[msg.sender] */\n      0xffffffffffffffffffffffffffffffffffffffff\n      and\n      0xffffffffffffffffffffffffffffffffffffffff\n      and\n      dup2\n      mstore\n      0x20\n      add\n      swap1\n      dup2\n      mstore\n      0x20\n      add\n      0x00\n      keccak256\n        /* \"solidity/contracts/BridgewhenCheap.sol\":7189:7227  pendingRequests[msg.sender][requestId] */\n      0x00\n        /* \"solidity/contracts/BridgewhenCheap.sol\":7217:7226  requestId */\n      dup6\n        /* \"solidity/contracts/BridgewhenCheap.sol\":7189:7227  pendingRequests[msg.sender][requestId] */\n      dup2\n      mstore\n      0x20\n      add\n      swap1\n      dup2\n      mstore\n      0x20\n      add\n      0x00\n      keccak256\n      0x00\n        /* \"solidity/contracts/BridgewhenCheap.sol\":7182:7227  delete pendingRequests[msg.sender][requestId] */\n      dup1\n      dup3\n      add\n      exp(0x0100, 0x00)\n      dup2\n      sload\n      swap1\n      0xffffffffffffffffffffffffffffffffffffffff\n      mul\n      not\n      and\n      swap1\n      sstore\n      0x01\n      dup3\n      add\n      exp(0x0100, 0x00)\n      dup2\n      sload\n      swap1\n      0xffffffffffffffffffffffffffffffffffffffff\n      mul\n      not\n      and\n      swap1\n      sstore\n      0x01\n      dup3\n      add\n      exp(0x0100, 0x14)\n      dup2\n      sload\n      swap1\n      0xff\n      mul\n      not\n      and\n      swap1\n      sstore\n      0x02\n      dup3\n      add\n      exp(0x0100, 0x00)\n      dup2\n      sload\n      swap1\n      0xffffffffffffffffffffffffffffffffffffffff\n      mul\n      not\n      and\n      swap1\n      sstore\n      0x03\n      dup3\n      add\n      0x00\n      swap1\n      sstore\n      0x04\n      dup3\n      add\n      0x00\n      swap1\n      sstore\n      0x05\n      dup3\n      add\n      0x00\n      swap1\n      sstore\n      0x06\n      dup3\n      add\n      0x00\n      swap1\n      sstore\n      pop\n      pop\n        /* \"solidity/contracts/BridgewhenCheap.sol\":7278:7288  msg.sender */\n      caller\n        /* \"solidity/contracts/BridgewhenCheap.sol\":7270:7294  payable(msg.sender).send */\n      0xffffffffffffffffffffffffffffffffffffffff\n      and\n        /* \"solidity/contracts/BridgewhenCheap.sol\":7270:7321  payable(msg.sender).send(withdrawNativeEtherAmount) */\n      0x08fc\n        /* \"solidity/contracts/BridgewhenCheap.sol\":7295:7320  withdrawNativeEtherAmount */\n      dup3\n        /* \"solidity/contracts/BridgewhenCheap.sol\":7270:7321  payable(msg.sender).send(withdrawNativeEtherAmount) */\n      swap1\n      dup2\n      iszero\n      mul\n      swap1\n      mload(0x40)\n      0x00\n      mload(0x40)\n      dup1\n      dup4\n      sub\n      dup2\n      dup6\n      dup9\n      dup9\n      call\n      swap4\n      pop\n      pop\n      pop\n      pop\n        /* \"solidity/contracts/BridgewhenCheap.sol\":7262:7322  require(payable(msg.sender).send(withdrawNativeEtherAmount)) */\n      tag_123\n      jumpi\n      0x00\n      dup1\n      revert\n    tag_123:\n        /* \"solidity/contracts/BridgewhenCheap.sol\":7353:7368  obsoleteRequest */\n      dup3\n        /* \"solidity/contracts/BridgewhenCheap.sol\":7353:7374  obsoleteRequest.token */\n      0x60\n      add\n      mload\n        /* \"solidity/contracts/BridgewhenCheap.sol\":7353:7387  obsoleteRequest.token.transferFrom */\n      0xffffffffffffffffffffffffffffffffffffffff\n      and\n      0x23b872dd\n        /* \"solidity/contracts/BridgewhenCheap.sol\":7413:7417  this */\n      address\n        /* \"solidity/contracts/BridgewhenCheap.sol\":7436:7446  msg.sender */\n      caller\n        /* \"solidity/contracts/BridgewhenCheap.sol\":7464:7483  withdrawTokenAmount */\n      dup6\n        /* \"solidity/contracts/BridgewhenCheap.sol\":7353:7497  obsoleteRequest.token.transferFrom(... */\n      mload(0x40)\n      dup5\n      0xffffffff\n      and\n      0xe0\n      shl\n      dup2\n      mstore\n      0x04\n      add\n      tag_124\n      swap4\n      swap3\n      swap2\n      swap1\n      tag_125\n      jump\t// in\n    tag_124:\n      0x20\n      mload(0x40)\n      dup1\n      dup4\n      sub\n      dup2\n      0x00\n      dup8\n      gas\n      call\n      iszero\n      dup1\n      iszero\n      tag_127\n      jumpi\n      returndatasize\n      0x00\n      dup1\n      returndatacopy\n      revert(0x00, returndatasize)\n    tag_127:\n      pop\n      pop\n      pop\n      pop\n      mload(0x40)\n      returndatasize\n      not(0x1f)\n      0x1f\n      dup3\n      add\n      and\n      dup3\n      add\n      dup1\n      0x40\n      mstore\n      pop\n      dup2\n      add\n      swap1\n      tag_128\n      swap2\n      swap1\n      tag_129\n      jump\t// in\n    tag_128:\n        /* \"solidity/contracts/BridgewhenCheap.sol\":7332:7507  require(... */\n      tag_130\n      jumpi\n      0x00\n      dup1\n      revert\n    tag_130:\n        /* \"solidity/contracts/BridgewhenCheap.sol\":6465:7514  {... */\n      pop\n      pop\n      pop\n        /* \"@openzeppelin/contracts/security/ReentrancyGuard.sol\":2303:2323  _nonReentrantAfter() */\n      tag_131\n        /* \"@openzeppelin/contracts/security/ReentrancyGuard.sol\":2303:2321  _nonReentrantAfter */\n      tag_132\n        /* \"@openzeppelin/contracts/security/ReentrancyGuard.sol\":2303:2323  _nonReentrantAfter() */\n      jump\t// in\n    tag_131:\n        /* \"solidity/contracts/BridgewhenCheap.sol\":6406:7514  function withdraw(uint256 requestId) external nonReentrant {... */\n      pop\n      jump\t// out\n        /* \"solidity/contracts/BridgewhenCheap.sol\":9568:9913  function ownerWithdraw(uint256 amount) external onlyOwner nonReentrant {... */\n    tag_40:\n        /* \"@openzeppelin/contracts/access/Ownable.sol\":1094:1107  _checkOwner() */\n      tag_134\n        /* \"@openzeppelin/contracts/access/Ownable.sol\":1094:1105  _checkOwner */\n      tag_100\n        /* \"@openzeppelin/contracts/access/Ownable.sol\":1094:1107  _checkOwner() */\n      jump\t// in\n    tag_134:\n        /* \"@openzeppelin/contracts/security/ReentrancyGuard.sol\":2261:2282  _nonReentrantBefore() */\n      tag_136\n        /* \"@openzeppelin/contracts/security/ReentrancyGuard.sol\":2261:2280  _nonReentrantBefore */\n      tag_107\n        /* \"@openzeppelin/contracts/security/ReentrancyGuard.sol\":2261:2282  _nonReentrantBefore() */\n      jump\t// in\n    tag_136:\n        /* \"solidity/contracts/BridgewhenCheap.sol\":9705:9711  amount */\n      dup1\n        /* \"solidity/contracts/BridgewhenCheap.sol\":9670:9701  collectedServiceFeeExcludingGas */\n      sload(0x04)\n        /* \"solidity/contracts/BridgewhenCheap.sol\":9670:9711  collectedServiceFeeExcludingGas >= amount */\n      lt\n      iszero\n        /* \"solidity/contracts/BridgewhenCheap.sol\":9649:9804  require(... */\n      tag_138\n      jumpi\n      mload(0x40)\n      0x08c379a000000000000000000000000000000000000000000000000000000000\n      dup2\n      mstore\n      0x04\n      add\n      tag_139\n      swap1\n      tag_140\n      jump\t// in\n    tag_139:\n      mload(0x40)\n      dup1\n      swap2\n      sub\n      swap1\n      revert\n    tag_138:\n        /* \"solidity/contracts/BridgewhenCheap.sol\":9849:9855  amount */\n      dup1\n        /* \"solidity/contracts/BridgewhenCheap.sol\":9814:9845  collectedServiceFeeExcludingGas */\n      0x04\n      0x00\n        /* \"solidity/contracts/BridgewhenCheap.sol\":9814:9855  collectedServiceFeeExcludingGas -= amount */\n      dup3\n      dup3\n      sload\n      tag_141\n      swap2\n      swap1\n      tag_142\n      jump\t// in\n    tag_141:\n      swap3\n      pop\n      pop\n      dup2\n      swap1\n      sstore\n      pop\n        /* \"solidity/contracts/BridgewhenCheap.sol\":9881:9891  msg.sender */\n      caller\n        /* \"solidity/contracts/BridgewhenCheap.sol\":9873:9897  payable(msg.sender).send */\n      0xffffffffffffffffffffffffffffffffffffffff\n      and\n        /* \"solidity/contracts/BridgewhenCheap.sol\":9873:9905  payable(msg.sender).send(amount) */\n      0x08fc\n        /* \"solidity/contracts/BridgewhenCheap.sol\":9898:9904  amount */\n      dup3\n        /* \"solidity/contracts/BridgewhenCheap.sol\":9873:9905  payable(msg.sender).send(amount) */\n      swap1\n      dup2\n      iszero\n      mul\n      swap1\n      mload(0x40)\n      0x00\n      mload(0x40)\n      dup1\n      dup4\n      sub\n      dup2\n      dup6\n      dup9\n      dup9\n      call\n      swap4\n      pop\n      pop\n      pop\n      pop\n        /* \"solidity/contracts/BridgewhenCheap.sol\":9865:9906  require(payable(msg.sender).send(amount)) */\n      tag_144\n      jumpi\n      0x00\n      dup1\n      revert\n    tag_144:\n        /* \"@openzeppelin/contracts/security/ReentrancyGuard.sol\":2303:2323  _nonReentrantAfter() */\n      tag_145\n        /* \"@openzeppelin/contracts/security/ReentrancyGuard.sol\":2303:2321  _nonReentrantAfter */\n      tag_132\n        /* \"@openzeppelin/contracts/security/ReentrancyGuard.sol\":2303:2323  _nonReentrantAfter() */\n      jump\t// in\n    tag_145:\n        /* \"solidity/contracts/BridgewhenCheap.sol\":9568:9913  function ownerWithdraw(uint256 amount) external onlyOwner nonReentrant {... */\n      pop\n      jump\t// out\n        /* \"solidity/contracts/BridgewhenCheap.sol\":1663:1747  mapping(address => mapping(uint256 => BridgeRequest))... */\n    tag_45:\n      mstore(0x20, 0x05)\n      dup2\n      0x00\n      mstore\n      mstore(0x20, keccak256(0x00, 0x40))\n      dup1\n      0x00\n      mstore\n      keccak256(0x00, 0x40)\n      0x00\n      swap2\n      pop\n      swap2\n      pop\n      pop\n      dup1\n      0x00\n      add\n      0x00\n      swap1\n      sload\n      swap1\n      0x0100\n      exp\n      swap1\n      div\n      0xffffffffffffffffffffffffffffffffffffffff\n      and\n      swap1\n      dup1\n      0x01\n      add\n      0x00\n      swap1\n      sload\n      swap1\n      0x0100\n      exp\n      swap1\n      div\n      0xffffffffffffffffffffffffffffffffffffffff\n      and\n      swap1\n      dup1\n      0x01\n      add\n      0x14\n      swap1\n      sload\n      swap1\n      0x0100\n      exp\n      swap1\n      div\n      0xff\n      and\n      swap1\n      dup1\n      0x02\n      add\n      0x00\n      swap1\n      sload\n      swap1\n      0x0100\n      exp\n      swap1\n      div\n      0xffffffffffffffffffffffffffffffffffffffff\n      and\n      swap1\n      dup1\n      0x03\n      add\n      sload\n      swap1\n      dup1\n      0x04\n      add\n      sload\n      swap1\n      dup1\n      0x05\n      add\n      sload\n      swap1\n      dup1\n      0x06\n      add\n      sload\n      swap1\n      pop\n      dup9\n      jump\t// out\n        /* \"@openzeppelin/contracts/access/Ownable.sol\":1831:1932  function renounceOwnership() public virtual onlyOwner {... */\n    tag_50:\n        /* \"@openzeppelin/contracts/access/Ownable.sol\":1094:1107  _checkOwner() */\n      tag_147\n        /* \"@openzeppelin/contracts/access/Ownable.sol\":1094:1105  _checkOwner */\n      tag_100\n        /* \"@openzeppelin/contracts/access/Ownable.sol\":1094:1107  _checkOwner() */\n      jump\t// in\n    tag_147:\n        /* \"@openzeppelin/contracts/access/Ownable.sol\":1895:1925  _transferOwnership(address(0)) */\n      tag_149\n        /* \"@openzeppelin/contracts/access/Ownable.sol\":1922:1923  0 */\n      0x00\n        /* \"@openzeppelin/contracts/access/Ownable.sol\":1895:1913  _transferOwnership */\n      tag_150\n        /* \"@openzeppelin/contracts/access/Ownable.sol\":1895:1925  _transferOwnership(address(0)) */\n      jump\t// in\n    tag_149:\n        /* \"@openzeppelin/contracts/access/Ownable.sol\":1831:1932  function renounceOwnership() public virtual onlyOwner {... */\n      jump\t// out\n        /* \"solidity/contracts/BridgewhenCheap.sol\":2194:2244  mapping(IERC20 => address) public bridgeContractOf */\n    tag_55:\n      mstore(0x20, 0x07)\n      dup1\n      0x00\n      mstore\n      keccak256(0x00, 0x40)\n      0x00\n      swap2\n      pop\n      sload\n      swap1\n      0x0100\n      exp\n      swap1\n      div\n      0xffffffffffffffffffffffffffffffffffffffff\n      and\n      dup2\n      jump\t// out\n        /* \"solidity/contracts/BridgewhenCheap.sol\":9481:9534  function ownerDeposit() external payable onlyOwner {} */\n    tag_59:\n        /* \"@openzeppelin/contracts/access/Ownable.sol\":1094:1107  _checkOwner() */\n      tag_152\n        /* \"@openzeppelin/contracts/access/Ownable.sol\":1094:1105  _checkOwner */\n      tag_100\n        /* \"@openzeppelin/contracts/access/Ownable.sol\":1094:1107  _checkOwner() */\n      jump\t// in\n    tag_152:\n        /* \"solidity/contracts/BridgewhenCheap.sol\":9481:9534  function ownerDeposit() external payable onlyOwner {} */\n      jump\t// out\n        /* \"solidity/contracts/BridgewhenCheap.sol\":10053:10195  function setL2execGasFeeDeposit(uint256 amount) external onlyOwner {... */\n    tag_63:\n        /* \"@openzeppelin/contracts/access/Ownable.sol\":1094:1107  _checkOwner() */\n      tag_155\n        /* \"@openzeppelin/contracts/access/Ownable.sol\":1094:1105  _checkOwner */\n      tag_100\n        /* \"@openzeppelin/contracts/access/Ownable.sol\":1094:1107  _checkOwner() */\n      jump\t// in\n    tag_155:\n        /* \"solidity/contracts/BridgewhenCheap.sol\":10152:10158  amount */\n      dup1\n        /* \"solidity/contracts/BridgewhenCheap.sol\":10130:10149  l2execGasFeeDeposit */\n      0x02\n        /* \"solidity/contracts/BridgewhenCheap.sol\":10130:10158  l2execGasFeeDeposit = amount */\n      dup2\n      swap1\n      sstore\n      pop\n        /* \"solidity/contracts/BridgewhenCheap.sol\":10168:10188  checkFeeInvariants() */\n      tag_157\n        /* \"solidity/contracts/BridgewhenCheap.sol\":10168:10186  checkFeeInvariants */\n      tag_158\n        /* \"solidity/contracts/BridgewhenCheap.sol\":10168:10188  checkFeeInvariants() */\n      jump\t// in\n    tag_157:\n        /* \"solidity/contracts/BridgewhenCheap.sol\":10053:10195  function setL2execGasFeeDeposit(uint256 amount) external onlyOwner {... */\n      pop\n      jump\t// out\n        /* \"solidity/contracts/BridgewhenCheap.sol\":1311:1336  uint256 public serviceFee */\n    tag_66:\n      sload(0x03)\n      dup2\n      jump\t// out\n        /* \"solidity/contracts/BridgewhenCheap.sol\":3632:6326  function deposit(... */\n    tag_71:\n        /* \"@openzeppelin/contracts/security/ReentrancyGuard.sol\":2261:2282  _nonReentrantBefore() */\n      tag_160\n        /* \"@openzeppelin/contracts/security/ReentrancyGuard.sol\":2261:2280  _nonReentrantBefore */\n      tag_107\n        /* \"@openzeppelin/contracts/security/ReentrancyGuard.sol\":2261:2282  _nonReentrantBefore() */\n      jump\t// in\n    tag_160:\n        /* \"solidity/contracts/BridgewhenCheap.sol\":4178:4179  0 */\n      0x00\n        /* \"solidity/contracts/BridgewhenCheap.sol\":4156:4180  msg.sender != address(0) */\n      0xffffffffffffffffffffffffffffffffffffffff\n      and\n        /* \"solidity/contracts/BridgewhenCheap.sol\":4156:4166  msg.sender */\n      caller\n        /* \"solidity/contracts/BridgewhenCheap.sol\":4156:4180  msg.sender != address(0) */\n      0xffffffffffffffffffffffffffffffffffffffff\n      and\n      sub\n        /* \"solidity/contracts/BridgewhenCheap.sol\":4148:4212  require(msg.sender != address(0), \"Sender may not be 0 address\") */\n      tag_162\n      jumpi\n      mload(0x40)\n      0x08c379a000000000000000000000000000000000000000000000000000000000\n      dup2\n      mstore\n      0x04\n      add\n      tag_163\n      swap1\n      tag_164\n      jump\t// in\n    tag_163:\n      mload(0x40)\n      dup1\n      swap2\n      sub\n      swap1\n      revert\n    tag_162:\n        /* \"solidity/contracts/BridgewhenCheap.sol\":4266:4267  0 */\n      0x00\n        /* \"solidity/contracts/BridgewhenCheap.sol\":4243:4268  destination != address(0) */\n      0xffffffffffffffffffffffffffffffffffffffff\n      and\n        /* \"solidity/contracts/BridgewhenCheap.sol\":4243:4254  destination */\n      dup4\n        /* \"solidity/contracts/BridgewhenCheap.sol\":4243:4268  destination != address(0) */\n      0xffffffffffffffffffffffffffffffffffffffff\n      and\n      sub\n        /* \"solidity/contracts/BridgewhenCheap.sol\":4222:4334  require(... */\n      tag_165\n      jumpi\n      mload(0x40)\n      0x08c379a000000000000000000000000000000000000000000000000000000000\n      dup2\n      mstore\n      0x04\n      add\n      tag_166\n      swap1\n      tag_167\n      jump\t// in\n    tag_166:\n      mload(0x40)\n      dup1\n      swap2\n      sub\n      swap1\n      revert\n    tag_165:\n        /* \"solidity/contracts/BridgewhenCheap.sol\":4384:4385  0 */\n      0x00\n        /* \"solidity/contracts/BridgewhenCheap.sol\":4365:4381  wantedL1GasPrice */\n      dup3\n        /* \"solidity/contracts/BridgewhenCheap.sol\":4365:4385  wantedL1GasPrice > 0 */\n      gt\n        /* \"solidity/contracts/BridgewhenCheap.sol\":4344:4456  require(... */\n      tag_168\n      jumpi\n      mload(0x40)\n      0x08c379a000000000000000000000000000000000000000000000000000000000\n      dup2\n      mstore\n      0x04\n      add\n      tag_169\n      swap1\n      tag_170\n      jump\t// in\n    tag_169:\n      mload(0x40)\n      dup1\n      swap2\n      sub\n      swap1\n      revert\n    tag_168:\n        /* \"solidity/contracts/BridgewhenCheap.sol\":4500:4510  serviceFee */\n      sload(0x03)\n        /* \"solidity/contracts/BridgewhenCheap.sol\":4487:4496  msg.value */\n      callvalue\n        /* \"solidity/contracts/BridgewhenCheap.sol\":4487:4510  msg.value >= serviceFee */\n      lt\n      iszero\n        /* \"solidity/contracts/BridgewhenCheap.sol\":4466:4581  require(... */\n      tag_171\n      jumpi\n      mload(0x40)\n      0x08c379a000000000000000000000000000000000000000000000000000000000\n      dup2\n      mstore\n      0x04\n      add\n      tag_172\n      swap1\n      tag_173\n      jump\t// in\n    tag_172:\n      mload(0x40)\n      dup1\n      swap2\n      sub\n      swap1\n      revert\n    tag_171:\n        /* \"solidity/contracts/BridgewhenCheap.sol\":4592:4612  bool isTokenTransfer */\n      0x00\n        /* \"solidity/contracts/BridgewhenCheap.sol\":4630:4631  0 */\n      dup1\n        /* \"solidity/contracts/BridgewhenCheap.sol\":4615:4626  tokenAmount */\n      dup6\n        /* \"solidity/contracts/BridgewhenCheap.sol\":4615:4631  tokenAmount != 0 */\n      eq\n      iszero\n        /* \"solidity/contracts/BridgewhenCheap.sol\":4592:4631  bool isTokenTransfer = tokenAmount != 0 */\n      swap1\n      pop\n        /* \"solidity/contracts/BridgewhenCheap.sol\":4641:4659  uint256 sentAmount */\n      0x00\n        /* \"solidity/contracts/BridgewhenCheap.sol\":4674:4689  isTokenTransfer */\n      dup2\n        /* \"solidity/contracts/BridgewhenCheap.sol\":4670:5238  if (isTokenTransfer) {... */\n      iszero\n      tag_174\n      jumpi\n        /* \"solidity/contracts/BridgewhenCheap.sol\":4765:4766  0 */\n      0x00\n        /* \"solidity/contracts/BridgewhenCheap.sol\":4730:4767  bridgeContractOf[token] != address(0) */\n      0xffffffffffffffffffffffffffffffffffffffff\n      and\n        /* \"solidity/contracts/BridgewhenCheap.sol\":4730:4746  bridgeContractOf */\n      0x07\n        /* \"solidity/contracts/BridgewhenCheap.sol\":4730:4753  bridgeContractOf[token] */\n      0x00\n        /* \"solidity/contracts/BridgewhenCheap.sol\":4747:4752  token */\n      dup10\n        /* \"solidity/contracts/BridgewhenCheap.sol\":4730:4753  bridgeContractOf[token] */\n      0xffffffffffffffffffffffffffffffffffffffff\n      and\n      0xffffffffffffffffffffffffffffffffffffffff\n      and\n      dup2\n      mstore\n      0x20\n      add\n      swap1\n      dup2\n      mstore\n      0x20\n      add\n      0x00\n      keccak256\n      0x00\n      swap1\n      sload\n      swap1\n      0x0100\n      exp\n      swap1\n      div\n      0xffffffffffffffffffffffffffffffffffffffff\n      and\n        /* \"solidity/contracts/BridgewhenCheap.sol\":4730:4767  bridgeContractOf[token] != address(0) */\n      0xffffffffffffffffffffffffffffffffffffffff\n      and\n      sub\n        /* \"solidity/contracts/BridgewhenCheap.sol\":4705:4824  require(... */\n      tag_175\n      jumpi\n      mload(0x40)\n      0x08c379a000000000000000000000000000000000000000000000000000000000\n      dup2\n      mstore\n      0x04\n      add\n      tag_176\n      swap1\n      tag_177\n      jump\t// in\n    tag_176:\n      mload(0x40)\n      dup1\n      swap2\n      sub\n      swap1\n      revert\n    tag_175:\n        /* \"solidity/contracts/BridgewhenCheap.sol\":4876:4886  serviceFee */\n      sload(0x03)\n        /* \"solidity/contracts/BridgewhenCheap.sol\":4863:4872  msg.value */\n      callvalue\n        /* \"solidity/contracts/BridgewhenCheap.sol\":4863:4886  msg.value == serviceFee */\n      eq\n        /* \"solidity/contracts/BridgewhenCheap.sol\":4838:4968  require(... */\n      tag_178\n      jumpi\n      mload(0x40)\n      0x08c379a000000000000000000000000000000000000000000000000000000000\n      dup2\n      mstore\n      0x04\n      add\n      tag_179\n      swap1\n      tag_180\n      jump\t// in\n    tag_179:\n      mload(0x40)\n      dup1\n      swap2\n      sub\n      swap1\n      revert\n    tag_178:\n        /* \"solidity/contracts/BridgewhenCheap.sol\":4995:5006  tokenAmount */\n      dup6\n        /* \"solidity/contracts/BridgewhenCheap.sol\":4982:5006  sentAmount = tokenAmount */\n      swap1\n      pop\n        /* \"solidity/contracts/BridgewhenCheap.sol\":4670:5238  if (isTokenTransfer) {... */\n      jump(tag_181)\n    tag_174:\n        /* \"solidity/contracts/BridgewhenCheap.sol\":5088:5089  0 */\n      0x00\n        /* \"solidity/contracts/BridgewhenCheap.sol\":5062:5090  address(token) == address(0) */\n      0xffffffffffffffffffffffffffffffffffffffff\n      and\n        /* \"solidity/contracts/BridgewhenCheap.sol\":5070:5075  token */\n      dup8\n        /* \"solidity/contracts/BridgewhenCheap.sol\":5062:5090  address(token) == address(0) */\n      0xffffffffffffffffffffffffffffffffffffffff\n      and\n      eq\n        /* \"solidity/contracts/BridgewhenCheap.sol\":5037:5178  require(... */\n      tag_182\n      jumpi\n      mload(0x40)\n      0x08c379a000000000000000000000000000000000000000000000000000000000\n      dup2\n      mstore\n      0x04\n      add\n      tag_183\n      swap1\n      tag_184\n      jump\t// in\n    tag_183:\n      mload(0x40)\n      dup1\n      swap2\n      sub\n      swap1\n      revert\n    tag_182:\n        /* \"solidity/contracts/BridgewhenCheap.sol\":5217:5227  serviceFee */\n      sload(0x03)\n        /* \"solidity/contracts/BridgewhenCheap.sol\":5205:5214  msg.value */\n      callvalue\n        /* \"solidity/contracts/BridgewhenCheap.sol\":5205:5227  msg.value - serviceFee */\n      tag_185\n      swap2\n      swap1\n      tag_142\n      jump\t// in\n    tag_185:\n        /* \"solidity/contracts/BridgewhenCheap.sol\":5192:5227  sentAmount = msg.value - serviceFee */\n      swap1\n      pop\n        /* \"solidity/contracts/BridgewhenCheap.sol\":4670:5238  if (isTokenTransfer) {... */\n    tag_181:\n        /* \"solidity/contracts/BridgewhenCheap.sol\":5283:5295  amountOutMin */\n      dup3\n        /* \"solidity/contracts/BridgewhenCheap.sol\":5269:5279  sentAmount */\n      dup2\n        /* \"solidity/contracts/BridgewhenCheap.sol\":5269:5295  sentAmount >= amountOutMin */\n      lt\n      iszero\n        /* \"solidity/contracts/BridgewhenCheap.sol\":5248:5415  require(... */\n      tag_186\n      jumpi\n      mload(0x40)\n      0x08c379a000000000000000000000000000000000000000000000000000000000\n      dup2\n      mstore\n      0x04\n      add\n      tag_187\n      swap1\n      tag_188\n      jump\t// in\n    tag_187:\n      mload(0x40)\n      dup1\n      swap2\n      sub\n      swap1\n      revert\n    tag_186:\n        /* \"solidity/contracts/BridgewhenCheap.sol\":5448:5497  isDefined(pendingRequests[msg.sender][requestId]) */\n      tag_189\n        /* \"solidity/contracts/BridgewhenCheap.sol\":5458:5473  pendingRequests */\n      0x05\n        /* \"solidity/contracts/BridgewhenCheap.sol\":5458:5485  pendingRequests[msg.sender] */\n      0x00\n        /* \"solidity/contracts/BridgewhenCheap.sol\":5474:5484  msg.sender */\n      caller\n        /* \"solidity/contracts/BridgewhenCheap.sol\":5458:5485  pendingRequests[msg.sender] */\n      0xffffffffffffffffffffffffffffffffffffffff\n      and\n      0xffffffffffffffffffffffffffffffffffffffff\n      and\n      dup2\n      mstore\n      0x20\n      add\n      swap1\n      dup2\n      mstore\n      0x20\n      add\n      0x00\n      keccak256\n        /* \"solidity/contracts/BridgewhenCheap.sol\":5458:5496  pendingRequests[msg.sender][requestId] */\n      0x00\n        /* \"solidity/contracts/BridgewhenCheap.sol\":5486:5495  requestId */\n      dup11\n        /* \"solidity/contracts/BridgewhenCheap.sol\":5458:5496  pendingRequests[msg.sender][requestId] */\n      dup2\n      mstore\n      0x20\n      add\n      swap1\n      dup2\n      mstore\n      0x20\n      add\n      0x00\n      keccak256\n        /* \"solidity/contracts/BridgewhenCheap.sol\":5448:5497  isDefined(pendingRequests[msg.sender][requestId]) */\n      mload(0x40)\n      dup1\n      0x0100\n      add\n      0x40\n      mstore\n      swap1\n      dup2\n      0x00\n      dup3\n      add\n      0x00\n      swap1\n      sload\n      swap1\n      0x0100\n      exp\n      swap1\n      div\n      0xffffffffffffffffffffffffffffffffffffffff\n      and\n      0xffffffffffffffffffffffffffffffffffffffff\n      and\n      0xffffffffffffffffffffffffffffffffffffffff\n      and\n      dup2\n      mstore\n      0x20\n      add\n      0x01\n      dup3\n      add\n      0x00\n      swap1\n      sload\n      swap1\n      0x0100\n      exp\n      swap1\n      div\n      0xffffffffffffffffffffffffffffffffffffffff\n      and\n      0xffffffffffffffffffffffffffffffffffffffff\n      and\n      0xffffffffffffffffffffffffffffffffffffffff\n      and\n      dup2\n      mstore\n      0x20\n      add\n      0x01\n      dup3\n      add\n      0x14\n      swap1\n      sload\n      swap1\n      0x0100\n      exp\n      swap1\n      div\n      0xff\n      and\n      iszero\n      iszero\n      iszero\n      iszero\n      dup2\n      mstore\n      0x20\n      add\n      0x02\n      dup3\n      add\n      0x00\n      swap1\n      sload\n      swap1\n      0x0100\n      exp\n      swap1\n      div\n      0xffffffffffffffffffffffffffffffffffffffff\n      and\n      0xffffffffffffffffffffffffffffffffffffffff\n      and\n      0xffffffffffffffffffffffffffffffffffffffff\n      and\n      dup2\n      mstore\n      0x20\n      add\n      0x03\n      dup3\n      add\n      sload\n      dup2\n      mstore\n      0x20\n      add\n      0x04\n      dup3\n      add\n      sload\n      dup2\n      mstore\n      0x20\n      add\n      0x05\n      dup3\n      add\n      sload\n      dup2\n      mstore\n      0x20\n      add\n      0x06\n      dup3\n      add\n      sload\n      dup2\n      mstore\n      pop\n      pop\n        /* \"solidity/contracts/BridgewhenCheap.sol\":5448:5457  isDefined */\n      tag_110\n        /* \"solidity/contracts/BridgewhenCheap.sol\":5448:5497  isDefined(pendingRequests[msg.sender][requestId]) */\n      jump\t// in\n    tag_189:\n        /* \"solidity/contracts/BridgewhenCheap.sol\":5447:5497  !isDefined(pendingRequests[msg.sender][requestId]) */\n      iszero\n        /* \"solidity/contracts/BridgewhenCheap.sol\":5426:5581  require(... */\n      tag_190\n      jumpi\n      mload(0x40)\n      0x08c379a000000000000000000000000000000000000000000000000000000000\n      dup2\n      mstore\n      0x04\n      add\n      tag_191\n      swap1\n      tag_192\n      jump\t// in\n    tag_191:\n      mload(0x40)\n      dup1\n      swap2\n      sub\n      swap1\n      revert\n    tag_190:\n        /* \"solidity/contracts/BridgewhenCheap.sol\":5611:5650  recordCollectedServiceFeeExcludingGas() */\n      tag_193\n        /* \"solidity/contracts/BridgewhenCheap.sol\":5611:5648  recordCollectedServiceFeeExcludingGas */\n      tag_194\n        /* \"solidity/contracts/BridgewhenCheap.sol\":5611:5650  recordCollectedServiceFeeExcludingGas() */\n      jump\t// in\n    tag_193:\n        /* \"solidity/contracts/BridgewhenCheap.sol\":5702:6043  BridgeRequest({... */\n      mload(0x40)\n      dup1\n      0x0100\n      add\n      0x40\n      mstore\n      dup1\n        /* \"solidity/contracts/BridgewhenCheap.sol\":5738:5748  msg.sender */\n      caller\n        /* \"solidity/contracts/BridgewhenCheap.sol\":5702:6043  BridgeRequest({... */\n      0xffffffffffffffffffffffffffffffffffffffff\n      and\n      dup2\n      mstore\n      0x20\n      add\n        /* \"solidity/contracts/BridgewhenCheap.sol\":5775:5786  destination */\n      dup7\n        /* \"solidity/contracts/BridgewhenCheap.sol\":5702:6043  BridgeRequest({... */\n      0xffffffffffffffffffffffffffffffffffffffff\n      and\n      dup2\n      mstore\n      0x20\n      add\n        /* \"solidity/contracts/BridgewhenCheap.sol\":5817:5832  isTokenTransfer */\n      dup4\n        /* \"solidity/contracts/BridgewhenCheap.sol\":5702:6043  BridgeRequest({... */\n      iszero\n      iszero\n      dup2\n      mstore\n      0x20\n      add\n        /* \"solidity/contracts/BridgewhenCheap.sol\":5853:5858  token */\n      dup9\n        /* \"solidity/contracts/BridgewhenCheap.sol\":5702:6043  BridgeRequest({... */\n      0xffffffffffffffffffffffffffffffffffffffff\n      and\n      dup2\n      mstore\n      0x20\n      add\n        /* \"solidity/contracts/BridgewhenCheap.sol\":5880:5890  sentAmount */\n      dup3\n        /* \"solidity/contracts/BridgewhenCheap.sol\":5702:6043  BridgeRequest({... */\n      dup2\n      mstore\n      0x20\n      add\n        /* \"solidity/contracts/BridgewhenCheap.sol\":5918:5930  amountOutMin */\n      dup5\n        /* \"solidity/contracts/BridgewhenCheap.sol\":5702:6043  BridgeRequest({... */\n      dup2\n      mstore\n      0x20\n      add\n        /* \"solidity/contracts/BridgewhenCheap.sol\":5962:5978  wantedL1GasPrice */\n      dup6\n        /* \"solidity/contracts/BridgewhenCheap.sol\":5702:6043  BridgeRequest({... */\n      dup2\n      mstore\n      0x20\n      add\n        /* \"solidity/contracts/BridgewhenCheap.sol\":6013:6032  l2execGasFeeDeposit */\n      sload(0x02)\n        /* \"solidity/contracts/BridgewhenCheap.sol\":5702:6043  BridgeRequest({... */\n      dup2\n      mstore\n      pop\n        /* \"solidity/contracts/BridgewhenCheap.sol\":5661:5676  pendingRequests */\n      0x05\n        /* \"solidity/contracts/BridgewhenCheap.sol\":5661:5688  pendingRequests[msg.sender] */\n      0x00\n        /* \"solidity/contracts/BridgewhenCheap.sol\":5677:5687  msg.sender */\n      caller\n        /* \"solidity/contracts/BridgewhenCheap.sol\":5661:5688  pendingRequests[msg.sender] */\n      0xffffffffffffffffffffffffffffffffffffffff\n      and\n      0xffffffffffffffffffffffffffffffffffffffff\n      and\n      dup2\n      mstore\n      0x20\n      add\n      swap1\n      dup2\n      mstore\n      0x20\n      add\n      0x00\n      keccak256\n        /* \"solidity/contracts/BridgewhenCheap.sol\":5661:5699  pendingRequests[msg.sender][requestId] */\n      0x00\n        /* \"solidity/contracts/BridgewhenCheap.sol\":5689:5698  requestId */\n      dup11\n        /* \"solidity/contracts/BridgewhenCheap.sol\":5661:5699  pendingRequests[msg.sender][requestId] */\n      dup2\n      mstore\n      0x20\n      add\n      swap1\n      dup2\n      mstore\n      0x20\n      add\n      0x00\n      keccak256\n        /* \"solidity/contracts/BridgewhenCheap.sol\":5661:6043  pendingRequests[msg.sender][requestId] = BridgeRequest({... */\n      0x00\n      dup3\n      add\n      mload\n      dup2\n      0x00\n      add\n      exp(0x0100, 0x00)\n      dup2\n      sload\n      dup2\n      0xffffffffffffffffffffffffffffffffffffffff\n      mul\n      not\n      and\n      swap1\n      dup4\n      0xffffffffffffffffffffffffffffffffffffffff\n      and\n      mul\n      or\n      swap1\n      sstore\n      pop\n      0x20\n      dup3\n      add\n      mload\n      dup2\n      0x01\n      add\n      exp(0x0100, 0x00)\n      dup2\n      sload\n      dup2\n      0xffffffffffffffffffffffffffffffffffffffff\n      mul\n      not\n      and\n      swap1\n      dup4\n      0xffffffffffffffffffffffffffffffffffffffff\n      and\n      mul\n      or\n      swap1\n      sstore\n      pop\n      0x40\n      dup3\n      add\n      mload\n      dup2\n      0x01\n      add\n      exp(0x0100, 0x14)\n      dup2\n      sload\n      dup2\n      0xff\n      mul\n      not\n      and\n      swap1\n      dup4\n      iszero\n      iszero\n      mul\n      or\n      swap1\n      sstore\n      pop\n      0x60\n      dup3\n      add\n      mload\n      dup2\n      0x02\n      add\n      exp(0x0100, 0x00)\n      dup2\n      sload\n      dup2\n      0xffffffffffffffffffffffffffffffffffffffff\n      mul\n      not\n      and\n      swap1\n      dup4\n      0xffffffffffffffffffffffffffffffffffffffff\n      and\n      mul\n      or\n      swap1\n      sstore\n      pop\n      0x80\n      dup3\n      add\n      mload\n      dup2\n      0x03\n      add\n      sstore\n      0xa0\n      dup3\n      add\n      mload\n      dup2\n      0x04\n      add\n      sstore\n      0xc0\n      dup3\n      add\n      mload\n      dup2\n      0x05\n      add\n      sstore\n      0xe0\n      dup3\n      add\n      mload\n      dup2\n      0x06\n      add\n      sstore\n      swap1\n      pop\n      pop\n        /* \"solidity/contracts/BridgewhenCheap.sol\":6212:6227  isTokenTransfer */\n      dup2\n        /* \"solidity/contracts/BridgewhenCheap.sol\":6208:6320  if (isTokenTransfer) {... */\n      iszero\n      tag_195\n      jumpi\n        /* \"solidity/contracts/BridgewhenCheap.sol\":6251:6256  token */\n      dup7\n        /* \"solidity/contracts/BridgewhenCheap.sol\":6251:6269  token.transferFrom */\n      0xffffffffffffffffffffffffffffffffffffffff\n      and\n      0x23b872dd\n        /* \"solidity/contracts/BridgewhenCheap.sol\":6270:6280  msg.sender */\n      caller\n        /* \"solidity/contracts/BridgewhenCheap.sol\":6290:6294  this */\n      address\n        /* \"solidity/contracts/BridgewhenCheap.sol\":6297:6307  sentAmount */\n      dup5\n        /* \"solidity/contracts/BridgewhenCheap.sol\":6251:6308  token.transferFrom(msg.sender, address(this), sentAmount) */\n      mload(0x40)\n      dup5\n      0xffffffff\n      and\n      0xe0\n      shl\n      dup2\n      mstore\n      0x04\n      add\n      tag_196\n      swap4\n      swap3\n      swap2\n      swap1\n      tag_125\n      jump\t// in\n    tag_196:\n      0x20\n      mload(0x40)\n      dup1\n      dup4\n      sub\n      dup2\n      0x00\n      dup8\n      gas\n      call\n      iszero\n      dup1\n      iszero\n      tag_198\n      jumpi\n      returndatasize\n      0x00\n      dup1\n      returndatacopy\n      revert(0x00, returndatasize)\n    tag_198:\n      pop\n      pop\n      pop\n      pop\n      mload(0x40)\n      returndatasize\n      not(0x1f)\n      0x1f\n      dup3\n      add\n      and\n      dup3\n      add\n      dup1\n      0x40\n      mstore\n      pop\n      dup2\n      add\n      swap1\n      tag_199\n      swap2\n      swap1\n      tag_129\n      jump\t// in\n    tag_199:\n        /* \"solidity/contracts/BridgewhenCheap.sol\":6243:6309  require(token.transferFrom(msg.sender, address(this), sentAmount)) */\n      tag_200\n      jumpi\n      0x00\n      dup1\n      revert\n    tag_200:\n        /* \"solidity/contracts/BridgewhenCheap.sol\":6208:6320  if (isTokenTransfer) {... */\n    tag_195:\n        /* \"solidity/contracts/BridgewhenCheap.sol\":4120:6326  {... */\n      pop\n      pop\n        /* \"@openzeppelin/contracts/security/ReentrancyGuard.sol\":2303:2323  _nonReentrantAfter() */\n      tag_201\n        /* \"@openzeppelin/contracts/security/ReentrancyGuard.sol\":2303:2321  _nonReentrantAfter */\n      tag_132\n        /* \"@openzeppelin/contracts/security/ReentrancyGuard.sol\":2303:2323  _nonReentrantAfter() */\n      jump\t// in\n    tag_201:\n        /* \"solidity/contracts/BridgewhenCheap.sol\":3632:6326  function deposit(... */\n      pop\n      pop\n      pop\n      pop\n      pop\n      pop\n      jump\t// out\n        /* \"@openzeppelin/contracts/access/Ownable.sol\":1201:1286  function owner() public view virtual returns (address) {... */\n    tag_74:\n        /* \"@openzeppelin/contracts/access/Ownable.sol\":1247:1254  address */\n      0x00\n        /* \"@openzeppelin/contracts/access/Ownable.sol\":1273:1279  _owner */\n      dup1\n      0x00\n      swap1\n      sload\n      swap1\n      0x0100\n      exp\n      swap1\n      div\n      0xffffffffffffffffffffffffffffffffffffffff\n      and\n        /* \"@openzeppelin/contracts/access/Ownable.sol\":1266:1279  return _owner */\n      swap1\n      pop\n        /* \"@openzeppelin/contracts/access/Ownable.sol\":1201:1286  function owner() public view virtual returns (address) {... */\n      swap1\n      jump\t// out\n        /* \"solidity/contracts/BridgewhenCheap.sol\":10286:10410  function setserviceFee(uint256 amount) external onlyOwner {... */\n    tag_79:\n        /* \"@openzeppelin/contracts/access/Ownable.sol\":1094:1107  _checkOwner() */\n      tag_204\n        /* \"@openzeppelin/contracts/access/Ownable.sol\":1094:1105  _checkOwner */\n      tag_100\n        /* \"@openzeppelin/contracts/access/Ownable.sol\":1094:1107  _checkOwner() */\n      jump\t// in\n    tag_204:\n        /* \"solidity/contracts/BridgewhenCheap.sol\":10367:10373  amount */\n      dup1\n        /* \"solidity/contracts/BridgewhenCheap.sol\":10354:10364  serviceFee */\n      0x03\n        /* \"solidity/contracts/BridgewhenCheap.sol\":10354:10373  serviceFee = amount */\n      dup2\n      swap1\n      sstore\n      pop\n        /* \"solidity/contracts/BridgewhenCheap.sol\":10383:10403  checkFeeInvariants() */\n      tag_206\n        /* \"solidity/contracts/BridgewhenCheap.sol\":10383:10401  checkFeeInvariants */\n      tag_158\n        /* \"solidity/contracts/BridgewhenCheap.sol\":10383:10403  checkFeeInvariants() */\n      jump\t// in\n    tag_206:\n        /* \"solidity/contracts/BridgewhenCheap.sol\":10286:10410  function setserviceFee(uint256 amount) external onlyOwner {... */\n      pop\n      jump\t// out\n        /* \"solidity/contracts/BridgewhenCheap.sol\":1546:1592  uint256 public collectedServiceFeeExcludingGas */\n    tag_82:\n      sload(0x04)\n      dup2\n      jump\t// out\n        /* \"solidity/contracts/BridgewhenCheap.sol\":1815:1843  uint256 public layer1ChainId */\n    tag_86:\n      sload(0x06)\n      dup2\n      jump\t// out\n        /* \"solidity/contracts/BridgewhenCheap.sol\":7798:9289  function executeRequest(... */\n    tag_92:\n        /* \"@openzeppelin/contracts/access/Ownable.sol\":1094:1107  _checkOwner() */\n      tag_208\n        /* \"@openzeppelin/contracts/access/Ownable.sol\":1094:1105  _checkOwner */\n      tag_100\n        /* \"@openzeppelin/contracts/access/Ownable.sol\":1094:1107  _checkOwner() */\n      jump\t// in\n    tag_208:\n        /* \"@openzeppelin/contracts/security/ReentrancyGuard.sol\":2261:2282  _nonReentrantBefore() */\n      tag_210\n        /* \"@openzeppelin/contracts/security/ReentrancyGuard.sol\":2261:2280  _nonReentrantBefore */\n      tag_107\n        /* \"@openzeppelin/contracts/security/ReentrancyGuard.sol\":2261:2282  _nonReentrantBefore() */\n      jump\t// in\n    tag_210:\n        /* \"solidity/contracts/BridgewhenCheap.sol\":8208:8247  BridgeRequest memory toBeBridgedRequest */\n      0x00\n        /* \"solidity/contracts/BridgewhenCheap.sol\":8250:8265  pendingRequests */\n      0x05\n        /* \"solidity/contracts/BridgewhenCheap.sol\":8250:8276  pendingRequests[requestor] */\n      0x00\n        /* \"solidity/contracts/BridgewhenCheap.sol\":8266:8275  requestor */\n      dup10\n        /* \"solidity/contracts/BridgewhenCheap.sol\":8250:8276  pendingRequests[requestor] */\n      0xffffffffffffffffffffffffffffffffffffffff\n      and\n      0xffffffffffffffffffffffffffffffffffffffff\n      and\n      dup2\n      mstore\n      0x20\n      add\n      swap1\n      dup2\n      mstore\n      0x20\n      add\n      0x00\n      keccak256\n        /* \"solidity/contracts/BridgewhenCheap.sol\":8250:8309  pendingRequests[requestor][... */\n      0x00\n        /* \"solidity/contracts/BridgewhenCheap.sol\":8290:8299  requestId */\n      dup9\n        /* \"solidity/contracts/BridgewhenCheap.sol\":8250:8309  pendingRequests[requestor][... */\n      dup2\n      mstore\n      0x20\n      add\n      swap1\n      dup2\n      mstore\n      0x20\n      add\n      0x00\n      keccak256\n        /* \"solidity/contracts/BridgewhenCheap.sol\":8208:8309  BridgeRequest memory toBeBridgedRequest = pendingRequests[requestor][... */\n      mload(0x40)\n      dup1\n      0x0100\n      add\n      0x40\n      mstore\n      swap1\n      dup2\n      0x00\n      dup3\n      add\n      0x00\n      swap1\n      sload\n      swap1\n      0x0100\n      exp\n      swap1\n      div\n      0xffffffffffffffffffffffffffffffffffffffff\n      and\n      0xffffffffffffffffffffffffffffffffffffffff\n      and\n      0xffffffffffffffffffffffffffffffffffffffff\n      and\n      dup2\n      mstore\n      0x20\n      add\n      0x01\n      dup3\n      add\n      0x00\n      swap1\n      sload\n      swap1\n      0x0100\n      exp\n      swap1\n      div\n      0xffffffffffffffffffffffffffffffffffffffff\n      and\n      0xffffffffffffffffffffffffffffffffffffffff\n      and\n      0xffffffffffffffffffffffffffffffffffffffff\n      and\n      dup2\n      mstore\n      0x20\n      add\n      0x01\n      dup3\n      add\n      0x14\n      swap1\n      sload\n      swap1\n      0x0100\n      exp\n      swap1\n      div\n      0xff\n      and\n      iszero\n      iszero\n      iszero\n      iszero\n      dup2\n      mstore\n      0x20\n      add\n      0x02\n      dup3\n      add\n      0x00\n      swap1\n      sload\n      swap1\n      0x0100\n      exp\n      swap1\n      div\n      0xffffffffffffffffffffffffffffffffffffffff\n      and\n      0xffffffffffffffffffffffffffffffffffffffff\n      and\n      0xffffffffffffffffffffffffffffffffffffffff\n      and\n      dup2\n      mstore\n      0x20\n      add\n      0x03\n      dup3\n      add\n      sload\n      dup2\n      mstore\n      0x20\n      add\n      0x04\n      dup3\n      add\n      sload\n      dup2\n      mstore\n      0x20\n      add\n      0x05\n      dup3\n      add\n      sload\n      dup2\n      mstore\n      0x20\n      add\n      0x06\n      dup3\n      add\n      sload\n      dup2\n      mstore\n      pop\n      pop\n      swap1\n      pop\n        /* \"solidity/contracts/BridgewhenCheap.sol\":8327:8356  isDefined(toBeBridgedRequest) */\n      tag_212\n        /* \"solidity/contracts/BridgewhenCheap.sol\":8337:8355  toBeBridgedRequest */\n      dup2\n        /* \"solidity/contracts/BridgewhenCheap.sol\":8327:8336  isDefined */\n      tag_110\n        /* \"solidity/contracts/BridgewhenCheap.sol\":8327:8356  isDefined(toBeBridgedRequest) */\n      jump\t// in\n    tag_212:\n        /* \"solidity/contracts/BridgewhenCheap.sol\":8319:8382  require(isDefined(toBeBridgedRequest), \"No request to process\") */\n      tag_213\n      jumpi\n      mload(0x40)\n      0x08c379a000000000000000000000000000000000000000000000000000000000\n      dup2\n      mstore\n      0x04\n      add\n      tag_214\n      swap1\n      tag_215\n      jump\t// in\n    tag_214:\n      mload(0x40)\n      dup1\n      swap2\n      sub\n      swap1\n      revert\n    tag_213:\n        /* \"solidity/contracts/BridgewhenCheap.sol\":8442:8451  bonderFee */\n      dup6\n        /* \"solidity/contracts/BridgewhenCheap.sol\":8413:8431  toBeBridgedRequest */\n      dup2\n        /* \"solidity/contracts/BridgewhenCheap.sol\":8413:8438  toBeBridgedRequest.amount */\n      0x80\n      add\n      mload\n        /* \"solidity/contracts/BridgewhenCheap.sol\":8413:8451  toBeBridgedRequest.amount >= bonderFee */\n      lt\n      iszero\n        /* \"solidity/contracts/BridgewhenCheap.sol\":8392:8509  require(... */\n      tag_216\n      jumpi\n      mload(0x40)\n      0x08c379a000000000000000000000000000000000000000000000000000000000\n      dup2\n      mstore\n      0x04\n      add\n      tag_217\n      swap1\n      tag_218\n      jump\t// in\n    tag_217:\n      mload(0x40)\n      dup1\n      swap2\n      sub\n      swap1\n      revert\n    tag_216:\n        /* \"solidity/contracts/BridgewhenCheap.sol\":8519:8542  uint256 nativeEtherSent */\n      0x00\n        /* \"solidity/contracts/BridgewhenCheap.sol\":8545:8563  toBeBridgedRequest */\n      dup2\n        /* \"solidity/contracts/BridgewhenCheap.sol\":8545:8579  toBeBridgedRequest.isTokenTransfer */\n      0x40\n      add\n      mload\n        /* \"solidity/contracts/BridgewhenCheap.sol\":8545:8635  toBeBridgedRequest.isTokenTransfer... */\n      tag_219\n      jumpi\n        /* \"solidity/contracts/BridgewhenCheap.sol\":8610:8628  toBeBridgedRequest */\n      dup2\n        /* \"solidity/contracts/BridgewhenCheap.sol\":8610:8635  toBeBridgedRequest.amount */\n      0x80\n      add\n      mload\n        /* \"solidity/contracts/BridgewhenCheap.sol\":8545:8635  toBeBridgedRequest.isTokenTransfer... */\n      jump(tag_220)\n    tag_219:\n        /* \"solidity/contracts/BridgewhenCheap.sol\":8594:8595  0 */\n      0x00\n        /* \"solidity/contracts/BridgewhenCheap.sol\":8545:8635  toBeBridgedRequest.isTokenTransfer... */\n    tag_220:\n        /* \"solidity/contracts/BridgewhenCheap.sol\":8519:8635  uint256 nativeEtherSent = toBeBridgedRequest.isTokenTransfer... */\n      swap1\n      pop\n        /* \"solidity/contracts/BridgewhenCheap.sol\":8645:8667  address bridgeContract */\n      0x00\n        /* \"solidity/contracts/BridgewhenCheap.sol\":8670:8686  bridgeContractOf */\n      0x07\n        /* \"solidity/contracts/BridgewhenCheap.sol\":8670:8712  bridgeContractOf[toBeBridgedRequest.token] */\n      0x00\n        /* \"solidity/contracts/BridgewhenCheap.sol\":8687:8705  toBeBridgedRequest */\n      dup5\n        /* \"solidity/contracts/BridgewhenCheap.sol\":8687:8711  toBeBridgedRequest.token */\n      0x60\n      add\n      mload\n        /* \"solidity/contracts/BridgewhenCheap.sol\":8670:8712  bridgeContractOf[toBeBridgedRequest.token] */\n      0xffffffffffffffffffffffffffffffffffffffff\n      and\n      0xffffffffffffffffffffffffffffffffffffffff\n      and\n      dup2\n      mstore\n      0x20\n      add\n      swap1\n      dup2\n      mstore\n      0x20\n      add\n      0x00\n      keccak256\n      0x00\n      swap1\n      sload\n      swap1\n      0x0100\n      exp\n      swap1\n      div\n      0xffffffffffffffffffffffffffffffffffffffff\n      and\n        /* \"solidity/contracts/BridgewhenCheap.sol\":8645:8712  address bridgeContract = bridgeContractOf[toBeBridgedRequest.token] */\n      swap1\n      pop\n        /* \"solidity/contracts/BridgewhenCheap.sol\":8749:8764  pendingRequests */\n      0x05\n        /* \"solidity/contracts/BridgewhenCheap.sol\":8749:8775  pendingRequests[requestor] */\n      0x00\n        /* \"solidity/contracts/BridgewhenCheap.sol\":8765:8774  requestor */\n      dup12\n        /* \"solidity/contracts/BridgewhenCheap.sol\":8749:8775  pendingRequests[requestor] */\n      0xffffffffffffffffffffffffffffffffffffffff\n      and\n      0xffffffffffffffffffffffffffffffffffffffff\n      and\n      dup2\n      mstore\n      0x20\n      add\n      swap1\n      dup2\n      mstore\n      0x20\n      add\n      0x00\n      keccak256\n        /* \"solidity/contracts/BridgewhenCheap.sol\":8749:8786  pendingRequests[requestor][requestId] */\n      0x00\n        /* \"solidity/contracts/BridgewhenCheap.sol\":8776:8785  requestId */\n      dup11\n        /* \"solidity/contracts/BridgewhenCheap.sol\":8749:8786  pendingRequests[requestor][requestId] */\n      dup2\n      mstore\n      0x20\n      add\n      swap1\n      dup2\n      mstore\n      0x20\n      add\n      0x00\n      keccak256\n      0x00\n        /* \"solidity/contracts/BridgewhenCheap.sol\":8742:8786  delete pendingRequests[requestor][requestId] */\n      dup1\n      dup3\n      add\n      exp(0x0100, 0x00)\n      dup2\n      sload\n      swap1\n      0xffffffffffffffffffffffffffffffffffffffff\n      mul\n      not\n      and\n      swap1\n      sstore\n      0x01\n      dup3\n      add\n      exp(0x0100, 0x00)\n      dup2\n      sload\n      swap1\n      0xffffffffffffffffffffffffffffffffffffffff\n      mul\n      not\n      and\n      swap1\n      sstore\n      0x01\n      dup3\n      add\n      exp(0x0100, 0x14)\n      dup2\n      sload\n      swap1\n      0xff\n      mul\n      not\n      and\n      swap1\n      sstore\n      0x02\n      dup3\n      add\n      exp(0x0100, 0x00)\n      dup2\n      sload\n      swap1\n      0xffffffffffffffffffffffffffffffffffffffff\n      mul\n      not\n      and\n      swap1\n      sstore\n      0x03\n      dup3\n      add\n      0x00\n      swap1\n      sstore\n      0x04\n      dup3\n      add\n      0x00\n      swap1\n      sstore\n      0x05\n      dup3\n      add\n      0x00\n      swap1\n      sstore\n      0x06\n      dup3\n      add\n      0x00\n      swap1\n      sstore\n      pop\n      pop\n        /* \"solidity/contracts/BridgewhenCheap.sol\":8837:8851  bridgeContract */\n      dup1\n        /* \"solidity/contracts/BridgewhenCheap.sol\":8821:8864  HopL2AmmWrapper(bridgeContract).swapAndSend */\n      0xffffffffffffffffffffffffffffffffffffffff\n      and\n      0xeea0d7b2\n        /* \"solidity/contracts/BridgewhenCheap.sol\":8872:8887  nativeEtherSent */\n      dup4\n        /* \"solidity/contracts/BridgewhenCheap.sol\":8902:8915  layer1ChainId */\n      sload(0x06)\n        /* \"solidity/contracts/BridgewhenCheap.sol\":8929:8947  toBeBridgedRequest */\n      dup7\n        /* \"solidity/contracts/BridgewhenCheap.sol\":8929:8959  toBeBridgedRequest.destination */\n      0x20\n      add\n      mload\n        /* \"solidity/contracts/BridgewhenCheap.sol\":8973:8991  toBeBridgedRequest */\n      dup8\n        /* \"solidity/contracts/BridgewhenCheap.sol\":8973:8998  toBeBridgedRequest.amount */\n      0x80\n      add\n      mload\n        /* \"solidity/contracts/BridgewhenCheap.sol\":9012:9021  bonderFee */\n      dup14\n        /* \"solidity/contracts/BridgewhenCheap.sol\":9035:9047  amountOutMin */\n      dup14\n        /* \"solidity/contracts/BridgewhenCheap.sol\":9061:9069  deadline */\n      dup14\n        /* \"solidity/contracts/BridgewhenCheap.sol\":9083:9099  destAmountOutMin */\n      dup14\n        /* \"solidity/contracts/BridgewhenCheap.sol\":9113:9125  destDeadline */\n      dup14\n        /* \"solidity/contracts/BridgewhenCheap.sol\":8821:9135  HopL2AmmWrapper(bridgeContract).swapAndSend{value: nativeEtherSent}(... */\n      mload(0x40)\n      dup11\n      0xffffffff\n      and\n      0xe0\n      shl\n      dup2\n      mstore\n      0x04\n      add\n      tag_221\n      swap9\n      swap8\n      swap7\n      swap6\n      swap5\n      swap4\n      swap3\n      swap2\n      swap1\n      tag_222\n      jump\t// in\n    tag_221:\n      0x00\n      mload(0x40)\n      dup1\n      dup4\n      sub\n      dup2\n      dup6\n      dup9\n      dup1\n      extcodesize\n      iszero\n      dup1\n      iszero\n      tag_223\n      jumpi\n      0x00\n      dup1\n      revert\n    tag_223:\n      pop\n      gas\n      call\n      iszero\n      dup1\n      iszero\n      tag_225\n      jumpi\n      returndatasize\n      0x00\n      dup1\n      returndatacopy\n      revert(0x00, returndatasize)\n    tag_225:\n      pop\n      pop\n      pop\n      pop\n      pop\n        /* \"solidity/contracts/BridgewhenCheap.sol\":9216:9226  msg.sender */\n      caller\n        /* \"solidity/contracts/BridgewhenCheap.sol\":9208:9232  payable(msg.sender).send */\n      0xffffffffffffffffffffffffffffffffffffffff\n      and\n        /* \"solidity/contracts/BridgewhenCheap.sol\":9208:9272  payable(msg.sender).send(toBeBridgedRequest.l2execGasFeeDeposit) */\n      0x08fc\n        /* \"solidity/contracts/BridgewhenCheap.sol\":9233:9251  toBeBridgedRequest */\n      dup5\n        /* \"solidity/contracts/BridgewhenCheap.sol\":9233:9271  toBeBridgedRequest.l2execGasFeeDeposit */\n      0xe0\n      add\n      mload\n        /* \"solidity/contracts/BridgewhenCheap.sol\":9208:9272  payable(msg.sender).send(toBeBridgedRequest.l2execGasFeeDeposit) */\n      swap1\n      dup2\n      iszero\n      mul\n      swap1\n      mload(0x40)\n      0x00\n      mload(0x40)\n      dup1\n      dup4\n      sub\n      dup2\n      dup6\n      dup9\n      dup9\n      call\n      swap4\n      pop\n      pop\n      pop\n      pop\n        /* \"solidity/contracts/BridgewhenCheap.sol\":9187:9282  require(... */\n      tag_227\n      jumpi\n      0x00\n      dup1\n      revert\n    tag_227:\n        /* \"solidity/contracts/BridgewhenCheap.sol\":8180:9289  {... */\n      pop\n      pop\n      pop\n        /* \"@openzeppelin/contracts/security/ReentrancyGuard.sol\":2303:2323  _nonReentrantAfter() */\n      tag_228\n        /* \"@openzeppelin/contracts/security/ReentrancyGuard.sol\":2303:2321  _nonReentrantAfter */\n      tag_132\n        /* \"@openzeppelin/contracts/security/ReentrancyGuard.sol\":2303:2323  _nonReentrantAfter() */\n      jump\t// in\n    tag_228:\n        /* \"solidity/contracts/BridgewhenCheap.sol\":7798:9289  function executeRequest(... */\n      pop\n      pop\n      pop\n      pop\n      pop\n      pop\n      pop\n      jump\t// out\n        /* \"@openzeppelin/contracts/access/Ownable.sol\":2081:2279  function transferOwnership(address newOwner) public virtual onlyOwner {... */\n    tag_97:\n        /* \"@openzeppelin/contracts/access/Ownable.sol\":1094:1107  _checkOwner() */\n      tag_230\n        /* \"@openzeppelin/contracts/access/Ownable.sol\":1094:1105  _checkOwner */\n      tag_100\n        /* \"@openzeppelin/contracts/access/Ownable.sol\":1094:1107  _checkOwner() */\n      jump\t// in\n    tag_230:\n        /* \"@openzeppelin/contracts/access/Ownable.sol\":2189:2190  0 */\n      0x00\n        /* \"@openzeppelin/contracts/access/Ownable.sol\":2169:2191  newOwner != address(0) */\n      0xffffffffffffffffffffffffffffffffffffffff\n      and\n        /* \"@openzeppelin/contracts/access/Ownable.sol\":2169:2177  newOwner */\n      dup2\n        /* \"@openzeppelin/contracts/access/Ownable.sol\":2169:2191  newOwner != address(0) */\n      0xffffffffffffffffffffffffffffffffffffffff\n      and\n      sub\n        /* \"@openzeppelin/contracts/access/Ownable.sol\":2161:2234  require(newOwner != address(0), \"Ownable: new owner is the zero address\") */\n      tag_232\n      jumpi\n      mload(0x40)\n      0x08c379a000000000000000000000000000000000000000000000000000000000\n      dup2\n      mstore\n      0x04\n      add\n      tag_233\n      swap1\n      tag_234\n      jump\t// in\n    tag_233:\n      mload(0x40)\n      dup1\n      swap2\n      sub\n      swap1\n      revert\n    tag_232:\n        /* \"@openzeppelin/contracts/access/Ownable.sol\":2244:2272  _transferOwnership(newOwner) */\n      tag_235\n        /* \"@openzeppelin/contracts/access/Ownable.sol\":2263:2271  newOwner */\n      dup2\n        /* \"@openzeppelin/contracts/access/Ownable.sol\":2244:2262  _transferOwnership */\n      tag_150\n        /* \"@openzeppelin/contracts/access/Ownable.sol\":2244:2272  _transferOwnership(newOwner) */\n      jump\t// in\n    tag_235:\n        /* \"@openzeppelin/contracts/access/Ownable.sol\":2081:2279  function transferOwnership(address newOwner) public virtual onlyOwner {... */\n      pop\n      jump\t// out\n        /* \"@openzeppelin/contracts/access/Ownable.sol\":1359:1489  function _checkOwner() internal view virtual {... */\n    tag_100:\n        /* \"@openzeppelin/contracts/access/Ownable.sol\":1433:1445  _msgSender() */\n      tag_237\n        /* \"@openzeppelin/contracts/access/Ownable.sol\":1433:1443  _msgSender */\n      tag_238\n        /* \"@openzeppelin/contracts/access/Ownable.sol\":1433:1445  _msgSender() */\n      jump\t// in\n    tag_237:\n        /* \"@openzeppelin/contracts/access/Ownable.sol\":1422:1445  owner() == _msgSender() */\n      0xffffffffffffffffffffffffffffffffffffffff\n      and\n        /* \"@openzeppelin/contracts/access/Ownable.sol\":1422:1429  owner() */\n      tag_239\n        /* \"@openzeppelin/contracts/access/Ownable.sol\":1422:1427  owner */\n      tag_74\n        /* \"@openzeppelin/contracts/access/Ownable.sol\":1422:1429  owner() */\n      jump\t// in\n    tag_239:\n        /* \"@openzeppelin/contracts/access/Ownable.sol\":1422:1445  owner() == _msgSender() */\n      0xffffffffffffffffffffffffffffffffffffffff\n      and\n      eq\n        /* \"@openzeppelin/contracts/access/Ownable.sol\":1414:1482  require(owner() == _msgSender(), \"Ownable: caller is not the owner\") */\n      tag_240\n      jumpi\n      mload(0x40)\n      0x08c379a000000000000000000000000000000000000000000000000000000000\n      dup2\n      mstore\n      0x04\n      add\n      tag_241\n      swap1\n      tag_242\n      jump\t// in\n    tag_241:\n      mload(0x40)\n      dup1\n      swap2\n      sub\n      swap1\n      revert\n    tag_240:\n        /* \"@openzeppelin/contracts/access/Ownable.sol\":1359:1489  function _checkOwner() internal view virtual {... */\n      jump\t// out\n        /* \"@openzeppelin/contracts/security/ReentrancyGuard.sol\":2336:2623  function _nonReentrantBefore() private {... */\n    tag_107:\n        /* \"@openzeppelin/contracts/security/ReentrancyGuard.sol\":1759:1760  2 */\n      0x02\n        /* \"@openzeppelin/contracts/security/ReentrancyGuard.sol\":2468:2475  _status */\n      sload(0x01)\n        /* \"@openzeppelin/contracts/security/ReentrancyGuard.sol\":2468:2487  _status != _ENTERED */\n      sub\n        /* \"@openzeppelin/contracts/security/ReentrancyGuard.sol\":2460:2523  require(_status != _ENTERED, \"ReentrancyGuard: reentrant call\") */\n      tag_244\n      jumpi\n      mload(0x40)\n      0x08c379a000000000000000000000000000000000000000000000000000000000\n      dup2\n      mstore\n      0x04\n      add\n      tag_245\n      swap1\n      tag_246\n      jump\t// in\n    tag_245:\n      mload(0x40)\n      dup1\n      swap2\n      sub\n      swap1\n      revert\n    tag_244:\n        /* \"@openzeppelin/contracts/security/ReentrancyGuard.sol\":1759:1760  2 */\n      0x02\n        /* \"@openzeppelin/contracts/security/ReentrancyGuard.sol\":2598:2605  _status */\n      0x01\n        /* \"@openzeppelin/contracts/security/ReentrancyGuard.sol\":2598:2616  _status = _ENTERED */\n      dup2\n      swap1\n      sstore\n      pop\n        /* \"@openzeppelin/contracts/security/ReentrancyGuard.sol\":2336:2623  function _nonReentrantBefore() private {... */\n      jump\t// out\n        /* \"solidity/contracts/BridgewhenCheap.sol\":11329:11487  function isDefined(BridgeRequest memory request)... */\n    tag_110:\n        /* \"solidity/contracts/BridgewhenCheap.sol\":11425:11429  bool */\n      0x00\n        /* \"solidity/contracts/BridgewhenCheap.sol\":11478:11479  0 */\n      dup1\n        /* \"solidity/contracts/BridgewhenCheap.sol\":11452:11480  request.source != address(0) */\n      0xffffffffffffffffffffffffffffffffffffffff\n      and\n        /* \"solidity/contracts/BridgewhenCheap.sol\":11452:11459  request */\n      dup3\n        /* \"solidity/contracts/BridgewhenCheap.sol\":11452:11466  request.source */\n      0x00\n      add\n      mload\n        /* \"solidity/contracts/BridgewhenCheap.sol\":11452:11480  request.source != address(0) */\n      0xffffffffffffffffffffffffffffffffffffffff\n      and\n      eq\n      iszero\n        /* \"solidity/contracts/BridgewhenCheap.sol\":11445:11480  return request.source != address(0) */\n      swap1\n      pop\n        /* \"solidity/contracts/BridgewhenCheap.sol\":11329:11487  function isDefined(BridgeRequest memory request)... */\n      swap2\n      swap1\n      pop\n      jump\t// out\n        /* \"@openzeppelin/contracts/security/ReentrancyGuard.sol\":2629:2838  function _nonReentrantAfter() private {... */\n    tag_132:\n        /* \"@openzeppelin/contracts/security/ReentrancyGuard.sol\":1716:1717  1 */\n      0x01\n        /* \"@openzeppelin/contracts/security/ReentrancyGuard.sol\":2809:2816  _status */\n      dup1\n        /* \"@openzeppelin/contracts/security/ReentrancyGuard.sol\":2809:2831  _status = _NOT_ENTERED */\n      dup2\n      swap1\n      sstore\n      pop\n        /* \"@openzeppelin/contracts/security/ReentrancyGuard.sol\":2629:2838  function _nonReentrantAfter() private {... */\n      jump\t// out\n        /* \"@openzeppelin/contracts/access/Ownable.sol\":2433:2620  function _transferOwnership(address newOwner) internal virtual {... */\n    tag_150:\n        /* \"@openzeppelin/contracts/access/Ownable.sol\":2506:2522  address oldOwner */\n      0x00\n        /* \"@openzeppelin/contracts/access/Ownable.sol\":2525:2531  _owner */\n      dup1\n      0x00\n      swap1\n      sload\n      swap1\n      0x0100\n      exp\n      swap1\n      div\n      0xffffffffffffffffffffffffffffffffffffffff\n      and\n        /* \"@openzeppelin/contracts/access/Ownable.sol\":2506:2531  address oldOwner = _owner */\n      swap1\n      pop\n        /* \"@openzeppelin/contracts/access/Ownable.sol\":2550:2558  newOwner */\n      dup2\n        /* \"@openzeppelin/contracts/access/Ownable.sol\":2541:2547  _owner */\n      0x00\n      dup1\n        /* \"@openzeppelin/contracts/access/Ownable.sol\":2541:2558  _owner = newOwner */\n      0x0100\n      exp\n      dup2\n      sload\n      dup2\n      0xffffffffffffffffffffffffffffffffffffffff\n      mul\n      not\n      and\n      swap1\n      dup4\n      0xffffffffffffffffffffffffffffffffffffffff\n      and\n      mul\n      or\n      swap1\n      sstore\n      pop\n        /* \"@openzeppelin/contracts/access/Ownable.sol\":2604:2612  newOwner */\n      dup2\n        /* \"@openzeppelin/contracts/access/Ownable.sol\":2573:2613  OwnershipTransferred(oldOwner, newOwner) */\n      0xffffffffffffffffffffffffffffffffffffffff\n      and\n        /* \"@openzeppelin/contracts/access/Ownable.sol\":2594:2602  oldOwner */\n      dup2\n        /* \"@openzeppelin/contracts/access/Ownable.sol\":2573:2613  OwnershipTransferred(oldOwner, newOwner) */\n      0xffffffffffffffffffffffffffffffffffffffff\n      and\n      0x8be0079c531659141344cd1fd0a4f28419497f9722a3daafe3b4186f6b6457e0\n      mload(0x40)\n      mload(0x40)\n      dup1\n      swap2\n      sub\n      swap1\n      log3\n        /* \"@openzeppelin/contracts/access/Ownable.sol\":2496:2620  {... */\n      pop\n        /* \"@openzeppelin/contracts/access/Ownable.sol\":2433:2620  function _transferOwnership(address newOwner) internal virtual {... */\n      pop\n      jump\t// out\n        /* \"solidity/contracts/BridgewhenCheap.sol\":10904:11107  function checkFeeInvariants() internal view {... */\n    tag_158:\n        /* \"solidity/contracts/BridgewhenCheap.sol\":10993:11012  l2execGasFeeDeposit */\n      sload(0x02)\n        /* \"solidity/contracts/BridgewhenCheap.sol\":10979:10989  serviceFee */\n      sload(0x03)\n        /* \"solidity/contracts/BridgewhenCheap.sol\":10979:11012  serviceFee >= l2execGasFeeDeposit */\n      lt\n      iszero\n        /* \"solidity/contracts/BridgewhenCheap.sol\":10958:11100  require(... */\n      tag_251\n      jumpi\n      mload(0x40)\n      0x08c379a000000000000000000000000000000000000000000000000000000000\n      dup2\n      mstore\n      0x04\n      add\n      tag_252\n      swap1\n      tag_253\n      jump\t// in\n    tag_252:\n      mload(0x40)\n      dup1\n      swap2\n      sub\n      swap1\n      revert\n    tag_251:\n        /* \"solidity/contracts/BridgewhenCheap.sol\":10904:11107  function checkFeeInvariants() internal view {... */\n      jump\t// out\n        /* \"solidity/contracts/BridgewhenCheap.sol\":11113:11255  function recordCollectedServiceFeeExcludingGas() internal {... */\n    tag_194:\n        /* \"solidity/contracts/BridgewhenCheap.sol\":11229:11248  l2execGasFeeDeposit */\n      sload(0x02)\n        /* \"solidity/contracts/BridgewhenCheap.sol\":11216:11226  serviceFee */\n      sload(0x03)\n        /* \"solidity/contracts/BridgewhenCheap.sol\":11216:11248  serviceFee - l2execGasFeeDeposit */\n      tag_255\n      swap2\n      swap1\n      tag_142\n      jump\t// in\n    tag_255:\n        /* \"solidity/contracts/BridgewhenCheap.sol\":11181:11212  collectedServiceFeeExcludingGas */\n      0x04\n      0x00\n        /* \"solidity/contracts/BridgewhenCheap.sol\":11181:11248  collectedServiceFeeExcludingGas += serviceFee - l2execGasFeeDeposit */\n      dup3\n      dup3\n      sload\n      tag_256\n      swap2\n      swap1\n      tag_119\n      jump\t// in\n    tag_256:\n      swap3\n      pop\n      pop\n      dup2\n      swap1\n      sstore\n      pop\n        /* \"solidity/contracts/BridgewhenCheap.sol\":11113:11255  function recordCollectedServiceFeeExcludingGas() internal {... */\n      jump\t// out\n        /* \"@openzeppelin/contracts/utils/Context.sol\":640:736  function _msgSender() internal view virtual returns (address) {... */\n    tag_238:\n        /* \"@openzeppelin/contracts/utils/Context.sol\":693:700  address */\n      0x00\n        /* \"@openzeppelin/contracts/utils/Context.sol\":719:729  msg.sender */\n      caller\n        /* \"@openzeppelin/contracts/utils/Context.sol\":712:729  return msg.sender */\n      swap1\n      pop\n        /* \"@openzeppelin/contracts/utils/Context.sol\":640:736  function _msgSender() internal view virtual returns (address) {... */\n      swap1\n      jump\t// out\n        /* \"#utility.yul\":88:205   */\n    tag_259:\n        /* \"#utility.yul\":197:198   */\n      0x00\n        /* \"#utility.yul\":194:195   */\n      dup1\n        /* \"#utility.yul\":187:199   */\n      revert\n        /* \"#utility.yul\":334:460   */\n    tag_261:\n        /* \"#utility.yul\":371:378   */\n      0x00\n        /* \"#utility.yul\":411:453   */\n      0xffffffffffffffffffffffffffffffffffffffff\n        /* \"#utility.yul\":404:409   */\n      dup3\n        /* \"#utility.yul\":400:454   */\n      and\n        /* \"#utility.yul\":389:454   */\n      swap1\n      pop\n        /* \"#utility.yul\":334:460   */\n      swap2\n      swap1\n      pop\n      jump\t// out\n        /* \"#utility.yul\":466:562   */\n    tag_262:\n        /* \"#utility.yul\":503:510   */\n      0x00\n        /* \"#utility.yul\":532:556   */\n      tag_326\n        /* \"#utility.yul\":550:555   */\n      dup3\n        /* \"#utility.yul\":532:556   */\n      tag_261\n      jump\t// in\n    tag_326:\n        /* \"#utility.yul\":521:556   */\n      swap1\n      pop\n        /* \"#utility.yul\":466:562   */\n      swap2\n      swap1\n      pop\n      jump\t// out\n        /* \"#utility.yul\":568:678   */\n    tag_263:\n        /* \"#utility.yul\":619:626   */\n      0x00\n        /* \"#utility.yul\":648:672   */\n      tag_328\n        /* \"#utility.yul\":666:671   */\n      dup3\n        /* \"#utility.yul\":648:672   */\n      tag_262\n      jump\t// in\n    tag_328:\n        /* \"#utility.yul\":637:672   */\n      swap1\n      pop\n        /* \"#utility.yul\":568:678   */\n      swap2\n      swap1\n      pop\n      jump\t// out\n        /* \"#utility.yul\":684:834   */\n    tag_264:\n        /* \"#utility.yul\":771:809   */\n      tag_330\n        /* \"#utility.yul\":803:808   */\n      dup2\n        /* \"#utility.yul\":771:809   */\n      tag_263\n      jump\t// in\n    tag_330:\n        /* \"#utility.yul\":764:769   */\n      dup2\n        /* \"#utility.yul\":761:810   */\n      eq\n        /* \"#utility.yul\":751:828   */\n      tag_331\n      jumpi\n        /* \"#utility.yul\":824:825   */\n      0x00\n        /* \"#utility.yul\":821:822   */\n      dup1\n        /* \"#utility.yul\":814:826   */\n      revert\n        /* \"#utility.yul\":751:828   */\n    tag_331:\n        /* \"#utility.yul\":684:834   */\n      pop\n      jump\t// out\n        /* \"#utility.yul\":840:1007   */\n    tag_265:\n        /* \"#utility.yul\":900:905   */\n      0x00\n        /* \"#utility.yul\":938:944   */\n      dup2\n        /* \"#utility.yul\":925:945   */\n      calldataload\n        /* \"#utility.yul\":916:945   */\n      swap1\n      pop\n        /* \"#utility.yul\":954:1001   */\n      tag_333\n        /* \"#utility.yul\":995:1000   */\n      dup2\n        /* \"#utility.yul\":954:1001   */\n      tag_264\n      jump\t// in\n    tag_333:\n        /* \"#utility.yul\":840:1007   */\n      swap3\n      swap2\n      pop\n      pop\n      jump\t// out\n        /* \"#utility.yul\":1013:1135   */\n    tag_266:\n        /* \"#utility.yul\":1086:1110   */\n      tag_335\n        /* \"#utility.yul\":1104:1109   */\n      dup2\n        /* \"#utility.yul\":1086:1110   */\n      tag_262\n      jump\t// in\n    tag_335:\n        /* \"#utility.yul\":1079:1084   */\n      dup2\n        /* \"#utility.yul\":1076:1111   */\n      eq\n        /* \"#utility.yul\":1066:1129   */\n      tag_336\n      jumpi\n        /* \"#utility.yul\":1125:1126   */\n      0x00\n        /* \"#utility.yul\":1122:1123   */\n      dup1\n        /* \"#utility.yul\":1115:1127   */\n      revert\n        /* \"#utility.yul\":1066:1129   */\n    tag_336:\n        /* \"#utility.yul\":1013:1135   */\n      pop\n      jump\t// out\n        /* \"#utility.yul\":1141:1280   */\n    tag_267:\n        /* \"#utility.yul\":1187:1192   */\n      0x00\n        /* \"#utility.yul\":1225:1231   */\n      dup2\n        /* \"#utility.yul\":1212:1232   */\n      calldataload\n        /* \"#utility.yul\":1203:1232   */\n      swap1\n      pop\n        /* \"#utility.yul\":1241:1274   */\n      tag_338\n        /* \"#utility.yul\":1268:1273   */\n      dup2\n        /* \"#utility.yul\":1241:1274   */\n      tag_266\n      jump\t// in\n    tag_338:\n        /* \"#utility.yul\":1141:1280   */\n      swap3\n      swap2\n      pop\n      pop\n      jump\t// out\n        /* \"#utility.yul\":1286:1788   */\n    tag_25:\n        /* \"#utility.yul\":1368:1374   */\n      0x00\n        /* \"#utility.yul\":1376:1382   */\n      dup1\n        /* \"#utility.yul\":1425:1427   */\n      0x40\n        /* \"#utility.yul\":1413:1422   */\n      dup4\n        /* \"#utility.yul\":1404:1411   */\n      dup6\n        /* \"#utility.yul\":1400:1423   */\n      sub\n        /* \"#utility.yul\":1396:1428   */\n      slt\n        /* \"#utility.yul\":1393:1512   */\n      iszero\n      tag_340\n      jumpi\n        /* \"#utility.yul\":1431:1510   */\n      tag_341\n      tag_259\n      jump\t// in\n    tag_341:\n        /* \"#utility.yul\":1393:1512   */\n    tag_340:\n        /* \"#utility.yul\":1551:1552   */\n      0x00\n        /* \"#utility.yul\":1576:1643   */\n      tag_342\n        /* \"#utility.yul\":1635:1642   */\n      dup6\n        /* \"#utility.yul\":1626:1632   */\n      dup3\n        /* \"#utility.yul\":1615:1624   */\n      dup7\n        /* \"#utility.yul\":1611:1633   */\n      add\n        /* \"#utility.yul\":1576:1643   */\n      tag_265\n      jump\t// in\n    tag_342:\n        /* \"#utility.yul\":1566:1643   */\n      swap3\n      pop\n        /* \"#utility.yul\":1522:1653   */\n      pop\n        /* \"#utility.yul\":1692:1694   */\n      0x20\n        /* \"#utility.yul\":1718:1771   */\n      tag_343\n        /* \"#utility.yul\":1763:1770   */\n      dup6\n        /* \"#utility.yul\":1754:1760   */\n      dup3\n        /* \"#utility.yul\":1743:1752   */\n      dup7\n        /* \"#utility.yul\":1739:1761   */\n      add\n        /* \"#utility.yul\":1718:1771   */\n      tag_267\n      jump\t// in\n    tag_343:\n        /* \"#utility.yul\":1708:1771   */\n      swap2\n      pop\n        /* \"#utility.yul\":1663:1781   */\n      pop\n        /* \"#utility.yul\":1286:1788   */\n      swap3\n      pop\n      swap3\n      swap1\n      pop\n      jump\t// out\n        /* \"#utility.yul\":1794:1871   */\n    tag_268:\n        /* \"#utility.yul\":1831:1838   */\n      0x00\n        /* \"#utility.yul\":1860:1865   */\n      dup2\n        /* \"#utility.yul\":1849:1865   */\n      swap1\n      pop\n        /* \"#utility.yul\":1794:1871   */\n      swap2\n      swap1\n      pop\n      jump\t// out\n        /* \"#utility.yul\":1877:1995   */\n    tag_269:\n        /* \"#utility.yul\":1964:1988   */\n      tag_346\n        /* \"#utility.yul\":1982:1987   */\n      dup2\n        /* \"#utility.yul\":1964:1988   */\n      tag_268\n      jump\t// in\n    tag_346:\n        /* \"#utility.yul\":1959:1962   */\n      dup3\n        /* \"#utility.yul\":1952:1989   */\n      mstore\n        /* \"#utility.yul\":1877:1995   */\n      pop\n      pop\n      jump\t// out\n        /* \"#utility.yul\":2001:2223   */\n    tag_31:\n        /* \"#utility.yul\":2094:2098   */\n      0x00\n        /* \"#utility.yul\":2132:2134   */\n      0x20\n        /* \"#utility.yul\":2121:2130   */\n      dup3\n        /* \"#utility.yul\":2117:2135   */\n      add\n        /* \"#utility.yul\":2109:2135   */\n      swap1\n      pop\n        /* \"#utility.yul\":2145:2216   */\n      tag_348\n        /* \"#utility.yul\":2213:2214   */\n      0x00\n        /* \"#utility.yul\":2202:2211   */\n      dup4\n        /* \"#utility.yul\":2198:2215   */\n      add\n        /* \"#utility.yul\":2189:2195   */\n      dup5\n        /* \"#utility.yul\":2145:2216   */\n      tag_269\n      jump\t// in\n    tag_348:\n        /* \"#utility.yul\":2001:2223   */\n      swap3\n      swap2\n      pop\n      pop\n      jump\t// out\n        /* \"#utility.yul\":2229:2351   */\n    tag_270:\n        /* \"#utility.yul\":2302:2326   */\n      tag_350\n        /* \"#utility.yul\":2320:2325   */\n      dup2\n        /* \"#utility.yul\":2302:2326   */\n      tag_268\n      jump\t// in\n    tag_350:\n        /* \"#utility.yul\":2295:2300   */\n      dup2\n        /* \"#utility.yul\":2292:2327   */\n      eq\n        /* \"#utility.yul\":2282:2345   */\n      tag_351\n      jumpi\n        /* \"#utility.yul\":2341:2342   */\n      0x00\n        /* \"#utility.yul\":2338:2339   */\n      dup1\n        /* \"#utility.yul\":2331:2343   */\n      revert\n        /* \"#utility.yul\":2282:2345   */\n    tag_351:\n        /* \"#utility.yul\":2229:2351   */\n      pop\n      jump\t// out\n        /* \"#utility.yul\":2357:2496   */\n    tag_271:\n        /* \"#utility.yul\":2403:2408   */\n      0x00\n        /* \"#utility.yul\":2441:2447   */\n      dup2\n        /* \"#utility.yul\":2428:2448   */\n      calldataload\n        /* \"#utility.yul\":2419:2448   */\n      swap1\n      pop\n        /* \"#utility.yul\":2457:2490   */\n      tag_353\n        /* \"#utility.yul\":2484:2489   */\n      dup2\n        /* \"#utility.yul\":2457:2490   */\n      tag_270\n      jump\t// in\n    tag_353:\n        /* \"#utility.yul\":2357:2496   */\n      swap3\n      swap2\n      pop\n      pop\n      jump\t// out\n        /* \"#utility.yul\":2502:2831   */\n    tag_35:\n        /* \"#utility.yul\":2561:2567   */\n      0x00\n        /* \"#utility.yul\":2610:2612   */\n      0x20\n        /* \"#utility.yul\":2598:2607   */\n      dup3\n        /* \"#utility.yul\":2589:2596   */\n      dup5\n        /* \"#utility.yul\":2585:2608   */\n      sub\n        /* \"#utility.yul\":2581:2613   */\n      slt\n        /* \"#utility.yul\":2578:2697   */\n      iszero\n      tag_355\n      jumpi\n        /* \"#utility.yul\":2616:2695   */\n      tag_356\n      tag_259\n      jump\t// in\n    tag_356:\n        /* \"#utility.yul\":2578:2697   */\n    tag_355:\n        /* \"#utility.yul\":2736:2737   */\n      0x00\n        /* \"#utility.yul\":2761:2814   */\n      tag_357\n        /* \"#utility.yul\":2806:2813   */\n      dup5\n        /* \"#utility.yul\":2797:2803   */\n      dup3\n        /* \"#utility.yul\":2786:2795   */\n      dup6\n        /* \"#utility.yul\":2782:2804   */\n      add\n        /* \"#utility.yul\":2761:2814   */\n      tag_271\n      jump\t// in\n    tag_357:\n        /* \"#utility.yul\":2751:2814   */\n      swap2\n      pop\n        /* \"#utility.yul\":2707:2824   */\n      pop\n        /* \"#utility.yul\":2502:2831   */\n      swap3\n      swap2\n      pop\n      pop\n      jump\t// out\n        /* \"#utility.yul\":2837:3311   */\n    tag_44:\n        /* \"#utility.yul\":2905:2911   */\n      0x00\n        /* \"#utility.yul\":2913:2919   */\n      dup1\n        /* \"#utility.yul\":2962:2964   */\n      0x40\n        /* \"#utility.yul\":2950:2959   */\n      dup4\n        /* \"#utility.yul\":2941:2948   */\n      dup6\n        /* \"#utility.yul\":2937:2960   */\n      sub\n        /* \"#utility.yul\":2933:2965   */\n      slt\n        /* \"#utility.yul\":2930:3049   */\n      iszero\n      tag_359\n      jumpi\n        /* \"#utility.yul\":2968:3047   */\n      tag_360\n      tag_259\n      jump\t// in\n    tag_360:\n        /* \"#utility.yul\":2930:3049   */\n    tag_359:\n        /* \"#utility.yul\":3088:3089   */\n      0x00\n        /* \"#utility.yul\":3113:3166   */\n      tag_361\n        /* \"#utility.yul\":3158:3165   */\n      dup6\n        /* \"#utility.yul\":3149:3155   */\n      dup3\n        /* \"#utility.yul\":3138:3147   */\n      dup7\n        /* \"#utility.yul\":3134:3156   */\n      add\n        /* \"#utility.yul\":3113:3166   */\n      tag_267\n      jump\t// in\n    tag_361:\n        /* \"#utility.yul\":3103:3166   */\n      swap3\n      pop\n        /* \"#utility.yul\":3059:3176   */\n      pop\n        /* \"#utility.yul\":3215:3217   */\n      0x20\n        /* \"#utility.yul\":3241:3294   */\n      tag_362\n        /* \"#utility.yul\":3286:3293   */\n      dup6\n        /* \"#utility.yul\":3277:3283   */\n      dup3\n        /* \"#utility.yul\":3266:3275   */\n      dup7\n        /* \"#utility.yul\":3262:3284   */\n      add\n        /* \"#utility.yul\":3241:3294   */\n      tag_271\n      jump\t// in\n    tag_362:\n        /* \"#utility.yul\":3231:3294   */\n      swap2\n      pop\n        /* \"#utility.yul\":3186:3304   */\n      pop\n        /* \"#utility.yul\":2837:3311   */\n      swap3\n      pop\n      swap3\n      swap1\n      pop\n      jump\t// out\n        /* \"#utility.yul\":3317:3435   */\n    tag_272:\n        /* \"#utility.yul\":3404:3428   */\n      tag_364\n        /* \"#utility.yul\":3422:3427   */\n      dup2\n        /* \"#utility.yul\":3404:3428   */\n      tag_262\n      jump\t// in\n    tag_364:\n        /* \"#utility.yul\":3399:3402   */\n      dup3\n        /* \"#utility.yul\":3392:3429   */\n      mstore\n        /* \"#utility.yul\":3317:3435   */\n      pop\n      pop\n      jump\t// out\n        /* \"#utility.yul\":3441:3531   */\n    tag_273:\n        /* \"#utility.yul\":3475:3482   */\n      0x00\n        /* \"#utility.yul\":3518:3523   */\n      dup2\n        /* \"#utility.yul\":3511:3524   */\n      iszero\n        /* \"#utility.yul\":3504:3525   */\n      iszero\n        /* \"#utility.yul\":3493:3525   */\n      swap1\n      pop\n        /* \"#utility.yul\":3441:3531   */\n      swap2\n      swap1\n      pop\n      jump\t// out\n        /* \"#utility.yul\":3537:3646   */\n    tag_274:\n        /* \"#utility.yul\":3618:3639   */\n      tag_367\n        /* \"#utility.yul\":3633:3638   */\n      dup2\n        /* \"#utility.yul\":3618:3639   */\n      tag_273\n      jump\t// in\n    tag_367:\n        /* \"#utility.yul\":3613:3616   */\n      dup3\n        /* \"#utility.yul\":3606:3640   */\n      mstore\n        /* \"#utility.yul\":3537:3646   */\n      pop\n      pop\n      jump\t// out\n        /* \"#utility.yul\":3652:3712   */\n    tag_275:\n        /* \"#utility.yul\":3680:3683   */\n      0x00\n        /* \"#utility.yul\":3701:3706   */\n      dup2\n        /* \"#utility.yul\":3694:3706   */\n      swap1\n      pop\n        /* \"#utility.yul\":3652:3712   */\n      swap2\n      swap1\n      pop\n      jump\t// out\n        /* \"#utility.yul\":3718:3860   */\n    tag_276:\n        /* \"#utility.yul\":3768:3777   */\n      0x00\n        /* \"#utility.yul\":3801:3854   */\n      tag_370\n        /* \"#utility.yul\":3819:3853   */\n      tag_371\n        /* \"#utility.yul\":3828:3852   */\n      tag_372\n        /* \"#utility.yul\":3846:3851   */\n      dup5\n        /* \"#utility.yul\":3828:3852   */\n      tag_261\n      jump\t// in\n    tag_372:\n        /* \"#utility.yul\":3819:3853   */\n      tag_275\n      jump\t// in\n    tag_371:\n        /* \"#utility.yul\":3801:3854   */\n      tag_261\n      jump\t// in\n    tag_370:\n        /* \"#utility.yul\":3788:3854   */\n      swap1\n      pop\n        /* \"#utility.yul\":3718:3860   */\n      swap2\n      swap1\n      pop\n      jump\t// out\n        /* \"#utility.yul\":3866:3992   */\n    tag_277:\n        /* \"#utility.yul\":3916:3925   */\n      0x00\n        /* \"#utility.yul\":3949:3986   */\n      tag_374\n        /* \"#utility.yul\":3980:3985   */\n      dup3\n        /* \"#utility.yul\":3949:3986   */\n      tag_276\n      jump\t// in\n    tag_374:\n        /* \"#utility.yul\":3936:3986   */\n      swap1\n      pop\n        /* \"#utility.yul\":3866:3992   */\n      swap2\n      swap1\n      pop\n      jump\t// out\n        /* \"#utility.yul\":3998:4138   */\n    tag_278:\n        /* \"#utility.yul\":4062:4071   */\n      0x00\n        /* \"#utility.yul\":4095:4132   */\n      tag_376\n        /* \"#utility.yul\":4126:4131   */\n      dup3\n        /* \"#utility.yul\":4095:4132   */\n      tag_277\n      jump\t// in\n    tag_376:\n        /* \"#utility.yul\":4082:4132   */\n      swap1\n      pop\n        /* \"#utility.yul\":3998:4138   */\n      swap2\n      swap1\n      pop\n      jump\t// out\n        /* \"#utility.yul\":4144:4303   */\n    tag_279:\n        /* \"#utility.yul\":4245:4296   */\n      tag_378\n        /* \"#utility.yul\":4290:4295   */\n      dup2\n        /* \"#utility.yul\":4245:4296   */\n      tag_278\n      jump\t// in\n    tag_378:\n        /* \"#utility.yul\":4240:4243   */\n      dup3\n        /* \"#utility.yul\":4233:4297   */\n      mstore\n        /* \"#utility.yul\":4144:4303   */\n      pop\n      pop\n      jump\t// out\n        /* \"#utility.yul\":4309:5322   */\n    tag_47:\n        /* \"#utility.yul\":4606:4610   */\n      0x00\n        /* \"#utility.yul\":4644:4647   */\n      0x0100\n        /* \"#utility.yul\":4633:4642   */\n      dup3\n        /* \"#utility.yul\":4629:4648   */\n      add\n        /* \"#utility.yul\":4621:4648   */\n      swap1\n      pop\n        /* \"#utility.yul\":4658:4729   */\n      tag_380\n        /* \"#utility.yul\":4726:4727   */\n      0x00\n        /* \"#utility.yul\":4715:4724   */\n      dup4\n        /* \"#utility.yul\":4711:4728   */\n      add\n        /* \"#utility.yul\":4702:4708   */\n      dup12\n        /* \"#utility.yul\":4658:4729   */\n      tag_272\n      jump\t// in\n    tag_380:\n        /* \"#utility.yul\":4739:4811   */\n      tag_381\n        /* \"#utility.yul\":4807:4809   */\n      0x20\n        /* \"#utility.yul\":4796:4805   */\n      dup4\n        /* \"#utility.yul\":4792:4810   */\n      add\n        /* \"#utility.yul\":4783:4789   */\n      dup11\n        /* \"#utility.yul\":4739:4811   */\n      tag_272\n      jump\t// in\n    tag_381:\n        /* \"#utility.yul\":4821:4887   */\n      tag_382\n        /* \"#utility.yul\":4883:4885   */\n      0x40\n        /* \"#utility.yul\":4872:4881   */\n      dup4\n        /* \"#utility.yul\":4868:4886   */\n      add\n        /* \"#utility.yul\":4859:4865   */\n      dup10\n        /* \"#utility.yul\":4821:4887   */\n      tag_274\n      jump\t// in\n    tag_382:\n        /* \"#utility.yul\":4897:4983   */\n      tag_383\n        /* \"#utility.yul\":4979:4981   */\n      0x60\n        /* \"#utility.yul\":4968:4977   */\n      dup4\n        /* \"#utility.yul\":4964:4982   */\n      add\n        /* \"#utility.yul\":4955:4961   */\n      dup9\n        /* \"#utility.yul\":4897:4983   */\n      tag_279\n      jump\t// in\n    tag_383:\n        /* \"#utility.yul\":4993:5066   */\n      tag_384\n        /* \"#utility.yul\":5061:5064   */\n      0x80\n        /* \"#utility.yul\":5050:5059   */\n      dup4\n        /* \"#utility.yul\":5046:5065   */\n      add\n        /* \"#utility.yul\":5037:5043   */\n      dup8\n        /* \"#utility.yul\":4993:5066   */\n      tag_269\n      jump\t// in\n    tag_384:\n        /* \"#utility.yul\":5076:5149   */\n      tag_385\n        /* \"#utility.yul\":5144:5147   */\n      0xa0\n        /* \"#utility.yul\":5133:5142   */\n      dup4\n        /* \"#utility.yul\":5129:5148   */\n      add\n        /* \"#utility.yul\":5120:5126   */\n      dup7\n        /* \"#utility.yul\":5076:5149   */\n      tag_269\n      jump\t// in\n    tag_385:\n        /* \"#utility.yul\":5159:5232   */\n      tag_386\n        /* \"#utility.yul\":5227:5230   */\n      0xc0\n        /* \"#utility.yul\":5216:5225   */\n      dup4\n        /* \"#utility.yul\":5212:5231   */\n      add\n        /* \"#utility.yul\":5203:5209   */\n      dup6\n        /* \"#utility.yul\":5159:5232   */\n      tag_269\n      jump\t// in\n    tag_386:\n        /* \"#utility.yul\":5242:5315   */\n      tag_387\n        /* \"#utility.yul\":5310:5313   */\n      0xe0\n        /* \"#utility.yul\":5299:5308   */\n      dup4\n        /* \"#utility.yul\":5295:5314   */\n      add\n        /* \"#utility.yul\":5286:5292   */\n      dup5\n        /* \"#utility.yul\":5242:5315   */\n      tag_269\n      jump\t// in\n    tag_387:\n        /* \"#utility.yul\":4309:5322   */\n      swap10\n      swap9\n      pop\n      pop\n      pop\n      pop\n      pop\n      pop\n      pop\n      pop\n      pop\n      jump\t// out\n        /* \"#utility.yul\":5328:5685   */\n    tag_54:\n        /* \"#utility.yul\":5401:5407   */\n      0x00\n        /* \"#utility.yul\":5450:5452   */\n      0x20\n        /* \"#utility.yul\":5438:5447   */\n      dup3\n        /* \"#utility.yul\":5429:5436   */\n      dup5\n        /* \"#utility.yul\":5425:5448   */\n      sub\n        /* \"#utility.yul\":5421:5453   */\n      slt\n        /* \"#utility.yul\":5418:5537   */\n      iszero\n      tag_389\n      jumpi\n        /* \"#utility.yul\":5456:5535   */\n      tag_390\n      tag_259\n      jump\t// in\n    tag_390:\n        /* \"#utility.yul\":5418:5537   */\n    tag_389:\n        /* \"#utility.yul\":5576:5577   */\n      0x00\n        /* \"#utility.yul\":5601:5668   */\n      tag_391\n        /* \"#utility.yul\":5660:5667   */\n      dup5\n        /* \"#utility.yul\":5651:5657   */\n      dup3\n        /* \"#utility.yul\":5640:5649   */\n      dup6\n        /* \"#utility.yul\":5636:5658   */\n      add\n        /* \"#utility.yul\":5601:5668   */\n      tag_265\n      jump\t// in\n    tag_391:\n        /* \"#utility.yul\":5591:5668   */\n      swap2\n      pop\n        /* \"#utility.yul\":5547:5678   */\n      pop\n        /* \"#utility.yul\":5328:5685   */\n      swap3\n      swap2\n      pop\n      pop\n      jump\t// out\n        /* \"#utility.yul\":5691:5913   */\n    tag_57:\n        /* \"#utility.yul\":5784:5788   */\n      0x00\n        /* \"#utility.yul\":5822:5824   */\n      0x20\n        /* \"#utility.yul\":5811:5820   */\n      dup3\n        /* \"#utility.yul\":5807:5825   */\n      add\n        /* \"#utility.yul\":5799:5825   */\n      swap1\n      pop\n        /* \"#utility.yul\":5835:5906   */\n      tag_393\n        /* \"#utility.yul\":5903:5904   */\n      0x00\n        /* \"#utility.yul\":5892:5901   */\n      dup4\n        /* \"#utility.yul\":5888:5905   */\n      add\n        /* \"#utility.yul\":5879:5885   */\n      dup5\n        /* \"#utility.yul\":5835:5906   */\n      tag_272\n      jump\t// in\n    tag_393:\n        /* \"#utility.yul\":5691:5913   */\n      swap3\n      swap2\n      pop\n      pop\n      jump\t// out\n        /* \"#utility.yul\":5919:7004   */\n    tag_70:\n        /* \"#utility.yul\":6037:6043   */\n      0x00\n        /* \"#utility.yul\":6045:6051   */\n      dup1\n        /* \"#utility.yul\":6053:6059   */\n      0x00\n        /* \"#utility.yul\":6061:6067   */\n      dup1\n        /* \"#utility.yul\":6069:6075   */\n      0x00\n        /* \"#utility.yul\":6077:6083   */\n      dup1\n        /* \"#utility.yul\":6126:6129   */\n      0xc0\n        /* \"#utility.yul\":6114:6123   */\n      dup8\n        /* \"#utility.yul\":6105:6112   */\n      dup10\n        /* \"#utility.yul\":6101:6124   */\n      sub\n        /* \"#utility.yul\":6097:6130   */\n      slt\n        /* \"#utility.yul\":6094:6214   */\n      iszero\n      tag_395\n      jumpi\n        /* \"#utility.yul\":6133:6212   */\n      tag_396\n      tag_259\n      jump\t// in\n    tag_396:\n        /* \"#utility.yul\":6094:6214   */\n    tag_395:\n        /* \"#utility.yul\":6253:6254   */\n      0x00\n        /* \"#utility.yul\":6278:6331   */\n      tag_397\n        /* \"#utility.yul\":6323:6330   */\n      dup10\n        /* \"#utility.yul\":6314:6320   */\n      dup3\n        /* \"#utility.yul\":6303:6312   */\n      dup11\n        /* \"#utility.yul\":6299:6321   */\n      add\n        /* \"#utility.yul\":6278:6331   */\n      tag_271\n      jump\t// in\n    tag_397:\n        /* \"#utility.yul\":6268:6331   */\n      swap7\n      pop\n        /* \"#utility.yul\":6224:6341   */\n      pop\n        /* \"#utility.yul\":6380:6382   */\n      0x20\n        /* \"#utility.yul\":6406:6473   */\n      tag_398\n        /* \"#utility.yul\":6465:6472   */\n      dup10\n        /* \"#utility.yul\":6456:6462   */\n      dup3\n        /* \"#utility.yul\":6445:6454   */\n      dup11\n        /* \"#utility.yul\":6441:6463   */\n      add\n        /* \"#utility.yul\":6406:6473   */\n      tag_265\n      jump\t// in\n    tag_398:\n        /* \"#utility.yul\":6396:6473   */\n      swap6\n      pop\n        /* \"#utility.yul\":6351:6483   */\n      pop\n        /* \"#utility.yul\":6522:6524   */\n      0x40\n        /* \"#utility.yul\":6548:6601   */\n      tag_399\n        /* \"#utility.yul\":6593:6600   */\n      dup10\n        /* \"#utility.yul\":6584:6590   */\n      dup3\n        /* \"#utility.yul\":6573:6582   */\n      dup11\n        /* \"#utility.yul\":6569:6591   */\n      add\n        /* \"#utility.yul\":6548:6601   */\n      tag_271\n      jump\t// in\n    tag_399:\n        /* \"#utility.yul\":6538:6601   */\n      swap5\n      pop\n        /* \"#utility.yul\":6493:6611   */\n      pop\n        /* \"#utility.yul\":6650:6652   */\n      0x60\n        /* \"#utility.yul\":6676:6729   */\n      tag_400\n        /* \"#utility.yul\":6721:6728   */\n      dup10\n        /* \"#utility.yul\":6712:6718   */\n      dup3\n        /* \"#utility.yul\":6701:6710   */\n      dup11\n        /* \"#utility.yul\":6697:6719   */\n      add\n        /* \"#utility.yul\":6676:6729   */\n      tag_267\n      jump\t// in\n    tag_400:\n        /* \"#utility.yul\":6666:6729   */\n      swap4\n      pop\n        /* \"#utility.yul\":6621:6739   */\n      pop\n        /* \"#utility.yul\":6778:6781   */\n      0x80\n        /* \"#utility.yul\":6805:6858   */\n      tag_401\n        /* \"#utility.yul\":6850:6857   */\n      dup10\n        /* \"#utility.yul\":6841:6847   */\n      dup3\n        /* \"#utility.yul\":6830:6839   */\n      dup11\n        /* \"#utility.yul\":6826:6848   */\n      add\n        /* \"#utility.yul\":6805:6858   */\n      tag_271\n      jump\t// in\n    tag_401:\n        /* \"#utility.yul\":6795:6858   */\n      swap3\n      pop\n        /* \"#utility.yul\":6749:6868   */\n      pop\n        /* \"#utility.yul\":6907:6910   */\n      0xa0\n        /* \"#utility.yul\":6934:6987   */\n      tag_402\n        /* \"#utility.yul\":6979:6986   */\n      dup10\n        /* \"#utility.yul\":6970:6976   */\n      dup3\n        /* \"#utility.yul\":6959:6968   */\n      dup11\n        /* \"#utility.yul\":6955:6977   */\n      add\n        /* \"#utility.yul\":6934:6987   */\n      tag_271\n      jump\t// in\n    tag_402:\n        /* \"#utility.yul\":6924:6987   */\n      swap2\n      pop\n        /* \"#utility.yul\":6878:6997   */\n      pop\n        /* \"#utility.yul\":5919:7004   */\n      swap3\n      swap6\n      pop\n      swap3\n      swap6\n      pop\n      swap3\n      swap6\n      jump\t// out\n        /* \"#utility.yul\":7010:8213   */\n    tag_91:\n        /* \"#utility.yul\":7123:7129   */\n      0x00\n        /* \"#utility.yul\":7131:7137   */\n      dup1\n        /* \"#utility.yul\":7139:7145   */\n      0x00\n        /* \"#utility.yul\":7147:7153   */\n      dup1\n        /* \"#utility.yul\":7155:7161   */\n      0x00\n        /* \"#utility.yul\":7163:7169   */\n      dup1\n        /* \"#utility.yul\":7171:7177   */\n      0x00\n        /* \"#utility.yul\":7220:7223   */\n      0xe0\n        /* \"#utility.yul\":7208:7217   */\n      dup9\n        /* \"#utility.yul\":7199:7206   */\n      dup11\n        /* \"#utility.yul\":7195:7218   */\n      sub\n        /* \"#utility.yul\":7191:7224   */\n      slt\n        /* \"#utility.yul\":7188:7308   */\n      iszero\n      tag_404\n      jumpi\n        /* \"#utility.yul\":7227:7306   */\n      tag_405\n      tag_259\n      jump\t// in\n    tag_405:\n        /* \"#utility.yul\":7188:7308   */\n    tag_404:\n        /* \"#utility.yul\":7347:7348   */\n      0x00\n        /* \"#utility.yul\":7372:7425   */\n      tag_406\n        /* \"#utility.yul\":7417:7424   */\n      dup11\n        /* \"#utility.yul\":7408:7414   */\n      dup3\n        /* \"#utility.yul\":7397:7406   */\n      dup12\n        /* \"#utility.yul\":7393:7415   */\n      add\n        /* \"#utility.yul\":7372:7425   */\n      tag_267\n      jump\t// in\n    tag_406:\n        /* \"#utility.yul\":7362:7425   */\n      swap8\n      pop\n        /* \"#utility.yul\":7318:7435   */\n      pop\n        /* \"#utility.yul\":7474:7476   */\n      0x20\n        /* \"#utility.yul\":7500:7553   */\n      tag_407\n        /* \"#utility.yul\":7545:7552   */\n      dup11\n        /* \"#utility.yul\":7536:7542   */\n      dup3\n        /* \"#utility.yul\":7525:7534   */\n      dup12\n        /* \"#utility.yul\":7521:7543   */\n      add\n        /* \"#utility.yul\":7500:7553   */\n      tag_271\n      jump\t// in\n    tag_407:\n        /* \"#utility.yul\":7490:7553   */\n      swap7\n      pop\n        /* \"#utility.yul\":7445:7563   */\n      pop\n        /* \"#utility.yul\":7602:7604   */\n      0x40\n        /* \"#utility.yul\":7628:7681   */\n      tag_408\n        /* \"#utility.yul\":7673:7680   */\n      dup11\n        /* \"#utility.yul\":7664:7670   */\n      dup3\n        /* \"#utility.yul\":7653:7662   */\n      dup12\n        /* \"#utility.yul\":7649:7671   */\n      add\n        /* \"#utility.yul\":7628:7681   */\n      tag_271\n      jump\t// in\n    tag_408:\n        /* \"#utility.yul\":7618:7681   */\n      swap6\n      pop\n        /* \"#utility.yul\":7573:7691   */\n      pop\n        /* \"#utility.yul\":7730:7732   */\n      0x60\n        /* \"#utility.yul\":7756:7809   */\n      tag_409\n        /* \"#utility.yul\":7801:7808   */\n      dup11\n        /* \"#utility.yul\":7792:7798   */\n      dup3\n        /* \"#utility.yul\":7781:7790   */\n      dup12\n        /* \"#utility.yul\":7777:7799   */\n      add\n        /* \"#utility.yul\":7756:7809   */\n      tag_271\n      jump\t// in\n    tag_409:\n        /* \"#utility.yul\":7746:7809   */\n      swap5\n      pop\n        /* \"#utility.yul\":7701:7819   */\n      pop\n        /* \"#utility.yul\":7858:7861   */\n      0x80\n        /* \"#utility.yul\":7885:7938   */\n      tag_410\n        /* \"#utility.yul\":7930:7937   */\n      dup11\n        /* \"#utility.yul\":7921:7927   */\n      dup3\n        /* \"#utility.yul\":7910:7919   */\n      dup12\n        /* \"#utility.yul\":7906:7928   */\n      add\n        /* \"#utility.yul\":7885:7938   */\n      tag_271\n      jump\t// in\n    tag_410:\n        /* \"#utility.yul\":7875:7938   */\n      swap4\n      pop\n        /* \"#utility.yul\":7829:7948   */\n      pop\n        /* \"#utility.yul\":7987:7990   */\n      0xa0\n        /* \"#utility.yul\":8014:8067   */\n      tag_411\n        /* \"#utility.yul\":8059:8066   */\n      dup11\n        /* \"#utility.yul\":8050:8056   */\n      dup3\n        /* \"#utility.yul\":8039:8048   */\n      dup12\n        /* \"#utility.yul\":8035:8057   */\n      add\n        /* \"#utility.yul\":8014:8067   */\n      tag_271\n      jump\t// in\n    tag_411:\n        /* \"#utility.yul\":8004:8067   */\n      swap3\n      pop\n        /* \"#utility.yul\":7958:8077   */\n      pop\n        /* \"#utility.yul\":8116:8119   */\n      0xc0\n        /* \"#utility.yul\":8143:8196   */\n      tag_412\n        /* \"#utility.yul\":8188:8195   */\n      dup11\n        /* \"#utility.yul\":8179:8185   */\n      dup3\n        /* \"#utility.yul\":8168:8177   */\n      dup12\n        /* \"#utility.yul\":8164:8186   */\n      add\n        /* \"#utility.yul\":8143:8196   */\n      tag_271\n      jump\t// in\n    tag_412:\n        /* \"#utility.yul\":8133:8196   */\n      swap2\n      pop\n        /* \"#utility.yul\":8087:8206   */\n      pop\n        /* \"#utility.yul\":7010:8213   */\n      swap3\n      swap6\n      swap9\n      swap2\n      swap5\n      swap8\n      pop\n      swap3\n      swap6\n      pop\n      jump\t// out\n        /* \"#utility.yul\":8219:8548   */\n    tag_96:\n        /* \"#utility.yul\":8278:8284   */\n      0x00\n        /* \"#utility.yul\":8327:8329   */\n      0x20\n        /* \"#utility.yul\":8315:8324   */\n      dup3\n        /* \"#utility.yul\":8306:8313   */\n      dup5\n        /* \"#utility.yul\":8302:8325   */\n      sub\n        /* \"#utility.yul\":8298:8330   */\n      slt\n        /* \"#utility.yul\":8295:8414   */\n      iszero\n      tag_414\n      jumpi\n        /* \"#utility.yul\":8333:8412   */\n      tag_415\n      tag_259\n      jump\t// in\n    tag_415:\n        /* \"#utility.yul\":8295:8414   */\n    tag_414:\n        /* \"#utility.yul\":8453:8454   */\n      0x00\n        /* \"#utility.yul\":8478:8531   */\n      tag_416\n        /* \"#utility.yul\":8523:8530   */\n      dup5\n        /* \"#utility.yul\":8514:8520   */\n      dup3\n        /* \"#utility.yul\":8503:8512   */\n      dup6\n        /* \"#utility.yul\":8499:8521   */\n      add\n        /* \"#utility.yul\":8478:8531   */\n      tag_267\n      jump\t// in\n    tag_416:\n        /* \"#utility.yul\":8468:8531   */\n      swap2\n      pop\n        /* \"#utility.yul\":8424:8541   */\n      pop\n        /* \"#utility.yul\":8219:8548   */\n      swap3\n      swap2\n      pop\n      pop\n      jump\t// out\n        /* \"#utility.yul\":8554:8723   */\n    tag_280:\n        /* \"#utility.yul\":8638:8649   */\n      0x00\n        /* \"#utility.yul\":8672:8678   */\n      dup3\n        /* \"#utility.yul\":8667:8670   */\n      dup3\n        /* \"#utility.yul\":8660:8679   */\n      mstore\n        /* \"#utility.yul\":8712:8716   */\n      0x20\n        /* \"#utility.yul\":8707:8710   */\n      dup3\n        /* \"#utility.yul\":8703:8717   */\n      add\n        /* \"#utility.yul\":8688:8717   */\n      swap1\n      pop\n        /* \"#utility.yul\":8554:8723   */\n      swap3\n      swap2\n      pop\n      pop\n      jump\t// out\n        /* \"#utility.yul\":8729:8903   */\n    tag_281:\n        /* \"#utility.yul\":8869:8895   */\n      0x546f6b656e20616c726561647920737570706f727465642e0000000000000000\n        /* \"#utility.yul\":8865:8866   */\n      0x00\n        /* \"#utility.yul\":8857:8863   */\n      dup3\n        /* \"#utility.yul\":8853:8867   */\n      add\n        /* \"#utility.yul\":8846:8896   */\n      mstore\n        /* \"#utility.yul\":8729:8903   */\n      pop\n      jump\t// out\n        /* \"#utility.yul\":8909:9275   */\n    tag_282:\n        /* \"#utility.yul\":9051:9054   */\n      0x00\n        /* \"#utility.yul\":9072:9139   */\n      tag_420\n        /* \"#utility.yul\":9136:9138   */\n      0x18\n        /* \"#utility.yul\":9131:9134   */\n      dup4\n        /* \"#utility.yul\":9072:9139   */\n      tag_280\n      jump\t// in\n    tag_420:\n        /* \"#utility.yul\":9065:9139   */\n      swap2\n      pop\n        /* \"#utility.yul\":9148:9241   */\n      tag_421\n        /* \"#utility.yul\":9237:9240   */\n      dup3\n        /* \"#utility.yul\":9148:9241   */\n      tag_281\n      jump\t// in\n    tag_421:\n        /* \"#utility.yul\":9266:9268   */\n      0x20\n        /* \"#utility.yul\":9261:9264   */\n      dup3\n        /* \"#utility.yul\":9257:9269   */\n      add\n        /* \"#utility.yul\":9250:9269   */\n      swap1\n      pop\n        /* \"#utility.yul\":8909:9275   */\n      swap2\n      swap1\n      pop\n      jump\t// out\n        /* \"#utility.yul\":9281:9700   */\n    tag_104:\n        /* \"#utility.yul\":9447:9451   */\n      0x00\n        /* \"#utility.yul\":9485:9487   */\n      0x20\n        /* \"#utility.yul\":9474:9483   */\n      dup3\n        /* \"#utility.yul\":9470:9488   */\n      add\n        /* \"#utility.yul\":9462:9488   */\n      swap1\n      pop\n        /* \"#utility.yul\":9534:9543   */\n      dup2\n        /* \"#utility.yul\":9528:9532   */\n      dup2\n        /* \"#utility.yul\":9524:9544   */\n      sub\n        /* \"#utility.yul\":9520:9521   */\n      0x00\n        /* \"#utility.yul\":9509:9518   */\n      dup4\n        /* \"#utility.yul\":9505:9522   */\n      add\n        /* \"#utility.yul\":9498:9545   */\n      mstore\n        /* \"#utility.yul\":9562:9693   */\n      tag_423\n        /* \"#utility.yul\":9688:9692   */\n      dup2\n        /* \"#utility.yul\":9562:9693   */\n      tag_282\n      jump\t// in\n    tag_423:\n        /* \"#utility.yul\":9554:9693   */\n      swap1\n      pop\n        /* \"#utility.yul\":9281:9700   */\n      swap2\n      swap1\n      pop\n      jump\t// out\n        /* \"#utility.yul\":9706:9879   */\n    tag_283:\n        /* \"#utility.yul\":9846:9871   */\n      0x4e6f207265717565737420746f2077697468647261772e000000000000000000\n        /* \"#utility.yul\":9842:9843   */\n      0x00\n        /* \"#utility.yul\":9834:9840   */\n      dup3\n        /* \"#utility.yul\":9830:9844   */\n      add\n        /* \"#utility.yul\":9823:9872   */\n      mstore\n        /* \"#utility.yul\":9706:9879   */\n      pop\n      jump\t// out\n        /* \"#utility.yul\":9885:10251   */\n    tag_284:\n        /* \"#utility.yul\":10027:10030   */\n      0x00\n        /* \"#utility.yul\":10048:10115   */\n      tag_426\n        /* \"#utility.yul\":10112:10114   */\n      0x17\n        /* \"#utility.yul\":10107:10110   */\n      dup4\n        /* \"#utility.yul\":10048:10115   */\n      tag_280\n      jump\t// in\n    tag_426:\n        /* \"#utility.yul\":10041:10115   */\n      swap2\n      pop\n        /* \"#utility.yul\":10124:10217   */\n      tag_427\n        /* \"#utility.yul\":10213:10216   */\n      dup3\n        /* \"#utility.yul\":10124:10217   */\n      tag_283\n      jump\t// in\n    tag_427:\n        /* \"#utility.yul\":10242:10244   */\n      0x20\n        /* \"#utility.yul\":10237:10240   */\n      dup3\n        /* \"#utility.yul\":10233:10245   */\n      add\n        /* \"#utility.yul\":10226:10245   */\n      swap1\n      pop\n        /* \"#utility.yul\":9885:10251   */\n      swap2\n      swap1\n      pop\n      jump\t// out\n        /* \"#utility.yul\":10257:10676   */\n    tag_113:\n        /* \"#utility.yul\":10423:10427   */\n      0x00\n        /* \"#utility.yul\":10461:10463   */\n      0x20\n        /* \"#utility.yul\":10450:10459   */\n      dup3\n        /* \"#utility.yul\":10446:10464   */\n      add\n        /* \"#utility.yul\":10438:10464   */\n      swap1\n      pop\n        /* \"#utility.yul\":10510:10519   */\n      dup2\n        /* \"#utility.yul\":10504:10508   */\n      dup2\n        /* \"#utility.yul\":10500:10520   */\n      sub\n        /* \"#utility.yul\":10496:10497   */\n      0x00\n        /* \"#utility.yul\":10485:10494   */\n      dup4\n        /* \"#utility.yul\":10481:10498   */\n      add\n        /* \"#utility.yul\":10474:10521   */\n      mstore\n        /* \"#utility.yul\":10538:10669   */\n      tag_429\n        /* \"#utility.yul\":10664:10668   */\n      dup2\n        /* \"#utility.yul\":10538:10669   */\n      tag_284\n      jump\t// in\n    tag_429:\n        /* \"#utility.yul\":10530:10669   */\n      swap1\n      pop\n        /* \"#utility.yul\":10257:10676   */\n      swap2\n      swap1\n      pop\n      jump\t// out\n        /* \"#utility.yul\":10682:10862   */\n    tag_116:\n        /* \"#utility.yul\":10730:10807   */\n      0x4e487b7100000000000000000000000000000000000000000000000000000000\n        /* \"#utility.yul\":10727:10728   */\n      0x00\n        /* \"#utility.yul\":10720:10808   */\n      mstore\n        /* \"#utility.yul\":10827:10831   */\n      0x01\n        /* \"#utility.yul\":10824:10825   */\n      0x04\n        /* \"#utility.yul\":10817:10832   */\n      mstore\n        /* \"#utility.yul\":10851:10855   */\n      0x24\n        /* \"#utility.yul\":10848:10849   */\n      0x00\n        /* \"#utility.yul\":10841:10856   */\n      revert\n        /* \"#utility.yul\":10868:11048   */\n    tag_285:\n        /* \"#utility.yul\":10916:10993   */\n      0x4e487b7100000000000000000000000000000000000000000000000000000000\n        /* \"#utility.yul\":10913:10914   */\n      0x00\n        /* \"#utility.yul\":10906:10994   */\n      mstore\n        /* \"#utility.yul\":11013:11017   */\n      0x11\n        /* \"#utility.yul\":11010:11011   */\n      0x04\n        /* \"#utility.yul\":11003:11018   */\n      mstore\n        /* \"#utility.yul\":11037:11041   */\n      0x24\n        /* \"#utility.yul\":11034:11035   */\n      0x00\n        /* \"#utility.yul\":11027:11042   */\n      revert\n        /* \"#utility.yul\":11054:11245   */\n    tag_119:\n        /* \"#utility.yul\":11094:11097   */\n      0x00\n        /* \"#utility.yul\":11113:11133   */\n      tag_433\n        /* \"#utility.yul\":11131:11132   */\n      dup3\n        /* \"#utility.yul\":11113:11133   */\n      tag_268\n      jump\t// in\n    tag_433:\n        /* \"#utility.yul\":11108:11133   */\n      swap2\n      pop\n        /* \"#utility.yul\":11147:11167   */\n      tag_434\n        /* \"#utility.yul\":11165:11166   */\n      dup4\n        /* \"#utility.yul\":11147:11167   */\n      tag_268\n      jump\t// in\n    tag_434:\n        /* \"#utility.yul\":11142:11167   */\n      swap3\n      pop\n        /* \"#utility.yul\":11190:11191   */\n      dup3\n        /* \"#utility.yul\":11187:11188   */\n      dup3\n        /* \"#utility.yul\":11183:11192   */\n      add\n        /* \"#utility.yul\":11176:11192   */\n      swap1\n      pop\n        /* \"#utility.yul\":11211:11214   */\n      dup1\n        /* \"#utility.yul\":11208:11209   */\n      dup3\n        /* \"#utility.yul\":11205:11215   */\n      gt\n        /* \"#utility.yul\":11202:11238   */\n      iszero\n      tag_435\n      jumpi\n        /* \"#utility.yul\":11218:11236   */\n      tag_436\n      tag_285\n      jump\t// in\n    tag_436:\n        /* \"#utility.yul\":11202:11238   */\n    tag_435:\n        /* \"#utility.yul\":11054:11245   */\n      swap3\n      swap2\n      pop\n      pop\n      jump\t// out\n        /* \"#utility.yul\":11251:11693   */\n    tag_125:\n        /* \"#utility.yul\":11400:11404   */\n      0x00\n        /* \"#utility.yul\":11438:11440   */\n      0x60\n        /* \"#utility.yul\":11427:11436   */\n      dup3\n        /* \"#utility.yul\":11423:11441   */\n      add\n        /* \"#utility.yul\":11415:11441   */\n      swap1\n      pop\n        /* \"#utility.yul\":11451:11522   */\n      tag_438\n        /* \"#utility.yul\":11519:11520   */\n      0x00\n        /* \"#utility.yul\":11508:11517   */\n      dup4\n        /* \"#utility.yul\":11504:11521   */\n      add\n        /* \"#utility.yul\":11495:11501   */\n      dup7\n        /* \"#utility.yul\":11451:11522   */\n      tag_272\n      jump\t// in\n    tag_438:\n        /* \"#utility.yul\":11532:11604   */\n      tag_439\n        /* \"#utility.yul\":11600:11602   */\n      0x20\n        /* \"#utility.yul\":11589:11598   */\n      dup4\n        /* \"#utility.yul\":11585:11603   */\n      add\n        /* \"#utility.yul\":11576:11582   */\n      dup6\n        /* \"#utility.yul\":11532:11604   */\n      tag_272\n      jump\t// in\n    tag_439:\n        /* \"#utility.yul\":11614:11686   */\n      tag_440\n        /* \"#utility.yul\":11682:11684   */\n      0x40\n        /* \"#utility.yul\":11671:11680   */\n      dup4\n        /* \"#utility.yul\":11667:11685   */\n      add\n        /* \"#utility.yul\":11658:11664   */\n      dup5\n        /* \"#utility.yul\":11614:11686   */\n      tag_269\n      jump\t// in\n    tag_440:\n        /* \"#utility.yul\":11251:11693   */\n      swap5\n      swap4\n      pop\n      pop\n      pop\n      pop\n      jump\t// out\n        /* \"#utility.yul\":11699:11815   */\n    tag_286:\n        /* \"#utility.yul\":11769:11790   */\n      tag_442\n        /* \"#utility.yul\":11784:11789   */\n      dup2\n        /* \"#utility.yul\":11769:11790   */\n      tag_273\n      jump\t// in\n    tag_442:\n        /* \"#utility.yul\":11762:11767   */\n      dup2\n        /* \"#utility.yul\":11759:11791   */\n      eq\n        /* \"#utility.yul\":11749:11809   */\n      tag_443\n      jumpi\n        /* \"#utility.yul\":11805:11806   */\n      0x00\n        /* \"#utility.yul\":11802:11803   */\n      dup1\n        /* \"#utility.yul\":11795:11807   */\n      revert\n        /* \"#utility.yul\":11749:11809   */\n    tag_443:\n        /* \"#utility.yul\":11699:11815   */\n      pop\n      jump\t// out\n        /* \"#utility.yul\":11821:11958   */\n    tag_287:\n        /* \"#utility.yul\":11875:11880   */\n      0x00\n        /* \"#utility.yul\":11906:11912   */\n      dup2\n        /* \"#utility.yul\":11900:11913   */\n      mload\n        /* \"#utility.yul\":11891:11913   */\n      swap1\n      pop\n        /* \"#utility.yul\":11922:11952   */\n      tag_445\n        /* \"#utility.yul\":11946:11951   */\n      dup2\n        /* \"#utility.yul\":11922:11952   */\n      tag_286\n      jump\t// in\n    tag_445:\n        /* \"#utility.yul\":11821:11958   */\n      swap3\n      swap2\n      pop\n      pop\n      jump\t// out\n        /* \"#utility.yul\":11964:12309   */\n    tag_129:\n        /* \"#utility.yul\":12031:12037   */\n      0x00\n        /* \"#utility.yul\":12080:12082   */\n      0x20\n        /* \"#utility.yul\":12068:12077   */\n      dup3\n        /* \"#utility.yul\":12059:12066   */\n      dup5\n        /* \"#utility.yul\":12055:12078   */\n      sub\n        /* \"#utility.yul\":12051:12083   */\n      slt\n        /* \"#utility.yul\":12048:12167   */\n      iszero\n      tag_447\n      jumpi\n        /* \"#utility.yul\":12086:12165   */\n      tag_448\n      tag_259\n      jump\t// in\n    tag_448:\n        /* \"#utility.yul\":12048:12167   */\n    tag_447:\n        /* \"#utility.yul\":12206:12207   */\n      0x00\n        /* \"#utility.yul\":12231:12292   */\n      tag_449\n        /* \"#utility.yul\":12284:12291   */\n      dup5\n        /* \"#utility.yul\":12275:12281   */\n      dup3\n        /* \"#utility.yul\":12264:12273   */\n      dup6\n        /* \"#utility.yul\":12260:12282   */\n      add\n        /* \"#utility.yul\":12231:12292   */\n      tag_287\n      jump\t// in\n    tag_449:\n        /* \"#utility.yul\":12221:12292   */\n      swap2\n      pop\n        /* \"#utility.yul\":12177:12302   */\n      pop\n        /* \"#utility.yul\":11964:12309   */\n      swap3\n      swap2\n      pop\n      pop\n      jump\t// out\n        /* \"#utility.yul\":12315:12606   */\n    tag_288:\n        /* \"#utility.yul\":12455:12489   */\n      0x43616e6e6f74207769746864726177206d6f72652066756e6473207468616e20\n        /* \"#utility.yul\":12451:12452   */\n      0x00\n        /* \"#utility.yul\":12443:12449   */\n      dup3\n        /* \"#utility.yul\":12439:12453   */\n      add\n        /* \"#utility.yul\":12432:12490   */\n      mstore\n        /* \"#utility.yul\":12524:12558   */\n      0x74686520636f6c6c6563746564206e6f6e206761732073657276696365206665\n        /* \"#utility.yul\":12519:12521   */\n      0x20\n        /* \"#utility.yul\":12511:12517   */\n      dup3\n        /* \"#utility.yul\":12507:12522   */\n      add\n        /* \"#utility.yul\":12500:12559   */\n      mstore\n        /* \"#utility.yul\":12593:12598   */\n      0x65732e0000000000000000000000000000000000000000000000000000000000\n        /* \"#utility.yul\":12588:12590   */\n      0x40\n        /* \"#utility.yul\":12580:12586   */\n      dup3\n        /* \"#utility.yul\":12576:12591   */\n      add\n        /* \"#utility.yul\":12569:12599   */\n      mstore\n        /* \"#utility.yul\":12315:12606   */\n      pop\n      jump\t// out\n        /* \"#utility.yul\":12612:12978   */\n    tag_289:\n        /* \"#utility.yul\":12754:12757   */\n      0x00\n        /* \"#utility.yul\":12775:12842   */\n      tag_452\n        /* \"#utility.yul\":12839:12841   */\n      0x43\n        /* \"#utility.yul\":12834:12837   */\n      dup4\n        /* \"#utility.yul\":12775:12842   */\n      tag_280\n      jump\t// in\n    tag_452:\n        /* \"#utility.yul\":12768:12842   */\n      swap2\n      pop\n        /* \"#utility.yul\":12851:12944   */\n      tag_453\n        /* \"#utility.yul\":12940:12943   */\n      dup3\n        /* \"#utility.yul\":12851:12944   */\n      tag_288\n      jump\t// in\n    tag_453:\n        /* \"#utility.yul\":12969:12971   */\n      0x60\n        /* \"#utility.yul\":12964:12967   */\n      dup3\n        /* \"#utility.yul\":12960:12972   */\n      add\n        /* \"#utility.yul\":12953:12972   */\n      swap1\n      pop\n        /* \"#utility.yul\":12612:12978   */\n      swap2\n      swap1\n      pop\n      jump\t// out\n        /* \"#utility.yul\":12984:13403   */\n    tag_140:\n        /* \"#utility.yul\":13150:13154   */\n      0x00\n        /* \"#utility.yul\":13188:13190   */\n      0x20\n        /* \"#utility.yul\":13177:13186   */\n      dup3\n        /* \"#utility.yul\":13173:13191   */\n      add\n        /* \"#utility.yul\":13165:13191   */\n      swap1\n      pop\n        /* \"#utility.yul\":13237:13246   */\n      dup2\n        /* \"#utility.yul\":13231:13235   */\n      dup2\n        /* \"#utility.yul\":13227:13247   */\n      sub\n        /* \"#utility.yul\":13223:13224   */\n      0x00\n        /* \"#utility.yul\":13212:13221   */\n      dup4\n        /* \"#utility.yul\":13208:13225   */\n      add\n        /* \"#utility.yul\":13201:13248   */\n      mstore\n        /* \"#utility.yul\":13265:13396   */\n      tag_455\n        /* \"#utility.yul\":13391:13395   */\n      dup2\n        /* \"#utility.yul\":13265:13396   */\n      tag_289\n      jump\t// in\n    tag_455:\n        /* \"#utility.yul\":13257:13396   */\n      swap1\n      pop\n        /* \"#utility.yul\":12984:13403   */\n      swap2\n      swap1\n      pop\n      jump\t// out\n        /* \"#utility.yul\":13409:13603   */\n    tag_142:\n        /* \"#utility.yul\":13449:13453   */\n      0x00\n        /* \"#utility.yul\":13469:13489   */\n      tag_457\n        /* \"#utility.yul\":13487:13488   */\n      dup3\n        /* \"#utility.yul\":13469:13489   */\n      tag_268\n      jump\t// in\n    tag_457:\n        /* \"#utility.yul\":13464:13489   */\n      swap2\n      pop\n        /* \"#utility.yul\":13503:13523   */\n      tag_458\n        /* \"#utility.yul\":13521:13522   */\n      dup4\n        /* \"#utility.yul\":13503:13523   */\n      tag_268\n      jump\t// in\n    tag_458:\n        /* \"#utility.yul\":13498:13523   */\n      swap3\n      pop\n        /* \"#utility.yul\":13547:13548   */\n      dup3\n        /* \"#utility.yul\":13544:13545   */\n      dup3\n        /* \"#utility.yul\":13540:13549   */\n      sub\n        /* \"#utility.yul\":13532:13549   */\n      swap1\n      pop\n        /* \"#utility.yul\":13571:13572   */\n      dup2\n        /* \"#utility.yul\":13565:13569   */\n      dup2\n        /* \"#utility.yul\":13562:13573   */\n      gt\n        /* \"#utility.yul\":13559:13596   */\n      iszero\n      tag_459\n      jumpi\n        /* \"#utility.yul\":13576:13594   */\n      tag_460\n      tag_285\n      jump\t// in\n    tag_460:\n        /* \"#utility.yul\":13559:13596   */\n    tag_459:\n        /* \"#utility.yul\":13409:13603   */\n      swap3\n      swap2\n      pop\n      pop\n      jump\t// out\n        /* \"#utility.yul\":13609:13786   */\n    tag_290:\n        /* \"#utility.yul\":13749:13778   */\n      0x53656e646572206d6179206e6f74206265203020616464726573730000000000\n        /* \"#utility.yul\":13745:13746   */\n      0x00\n        /* \"#utility.yul\":13737:13743   */\n      dup3\n        /* \"#utility.yul\":13733:13747   */\n      add\n        /* \"#utility.yul\":13726:13779   */\n      mstore\n        /* \"#utility.yul\":13609:13786   */\n      pop\n      jump\t// out\n        /* \"#utility.yul\":13792:14158   */\n    tag_291:\n        /* \"#utility.yul\":13934:13937   */\n      0x00\n        /* \"#utility.yul\":13955:14022   */\n      tag_463\n        /* \"#utility.yul\":14019:14021   */\n      0x1b\n        /* \"#utility.yul\":14014:14017   */\n      dup4\n        /* \"#utility.yul\":13955:14022   */\n      tag_280\n      jump\t// in\n    tag_463:\n        /* \"#utility.yul\":13948:14022   */\n      swap2\n      pop\n        /* \"#utility.yul\":14031:14124   */\n      tag_464\n        /* \"#utility.yul\":14120:14123   */\n      dup3\n        /* \"#utility.yul\":14031:14124   */\n      tag_290\n      jump\t// in\n    tag_464:\n        /* \"#utility.yul\":14149:14151   */\n      0x20\n        /* \"#utility.yul\":14144:14147   */\n      dup3\n        /* \"#utility.yul\":14140:14152   */\n      add\n        /* \"#utility.yul\":14133:14152   */\n      swap1\n      pop\n        /* \"#utility.yul\":13792:14158   */\n      swap2\n      swap1\n      pop\n      jump\t// out\n        /* \"#utility.yul\":14164:14583   */\n    tag_164:\n        /* \"#utility.yul\":14330:14334   */\n      0x00\n        /* \"#utility.yul\":14368:14370   */\n      0x20\n        /* \"#utility.yul\":14357:14366   */\n      dup3\n        /* \"#utility.yul\":14353:14371   */\n      add\n        /* \"#utility.yul\":14345:14371   */\n      swap1\n      pop\n        /* \"#utility.yul\":14417:14426   */\n      dup2\n        /* \"#utility.yul\":14411:14415   */\n      dup2\n        /* \"#utility.yul\":14407:14427   */\n      sub\n        /* \"#utility.yul\":14403:14404   */\n      0x00\n        /* \"#utility.yul\":14392:14401   */\n      dup4\n        /* \"#utility.yul\":14388:14405   */\n      add\n        /* \"#utility.yul\":14381:14428   */\n      mstore\n        /* \"#utility.yul\":14445:14576   */\n      tag_466\n        /* \"#utility.yul\":14571:14575   */\n      dup2\n        /* \"#utility.yul\":14445:14576   */\n      tag_291\n      jump\t// in\n    tag_466:\n        /* \"#utility.yul\":14437:14576   */\n      swap1\n      pop\n        /* \"#utility.yul\":14164:14583   */\n      swap2\n      swap1\n      pop\n      jump\t// out\n        /* \"#utility.yul\":14589:14816   */\n    tag_292:\n        /* \"#utility.yul\":14729:14763   */\n      0x44657374696e6174696f6e2061646472657373206d6179206e6f742062652030\n        /* \"#utility.yul\":14725:14726   */\n      0x00\n        /* \"#utility.yul\":14717:14723   */\n      dup3\n        /* \"#utility.yul\":14713:14727   */\n      add\n        /* \"#utility.yul\":14706:14764   */\n      mstore\n        /* \"#utility.yul\":14798:14808   */\n      0x2061646472657373000000000000000000000000000000000000000000000000\n        /* \"#utility.yul\":14793:14795   */\n      0x20\n        /* \"#utility.yul\":14785:14791   */\n      dup3\n        /* \"#utility.yul\":14781:14796   */\n      add\n        /* \"#utility.yul\":14774:14809   */\n      mstore\n        /* \"#utility.yul\":14589:14816   */\n      pop\n      jump\t// out\n        /* \"#utility.yul\":14822:15188   */\n    tag_293:\n        /* \"#utility.yul\":14964:14967   */\n      0x00\n        /* \"#utility.yul\":14985:15052   */\n      tag_469\n        /* \"#utility.yul\":15049:15051   */\n      0x28\n        /* \"#utility.yul\":15044:15047   */\n      dup4\n        /* \"#utility.yul\":14985:15052   */\n      tag_280\n      jump\t// in\n    tag_469:\n        /* \"#utility.yul\":14978:15052   */\n      swap2\n      pop\n        /* \"#utility.yul\":15061:15154   */\n      tag_470\n        /* \"#utility.yul\":15150:15153   */\n      dup3\n        /* \"#utility.yul\":15061:15154   */\n      tag_292\n      jump\t// in\n    tag_470:\n        /* \"#utility.yul\":15179:15181   */\n      0x40\n        /* \"#utility.yul\":15174:15177   */\n      dup3\n        /* \"#utility.yul\":15170:15182   */\n      add\n        /* \"#utility.yul\":15163:15182   */\n      swap1\n      pop\n        /* \"#utility.yul\":14822:15188   */\n      swap2\n      swap1\n      pop\n      jump\t// out\n        /* \"#utility.yul\":15194:15613   */\n    tag_167:\n        /* \"#utility.yul\":15360:15364   */\n      0x00\n        /* \"#utility.yul\":15398:15400   */\n      0x20\n        /* \"#utility.yul\":15387:15396   */\n      dup3\n        /* \"#utility.yul\":15383:15401   */\n      add\n        /* \"#utility.yul\":15375:15401   */\n      swap1\n      pop\n        /* \"#utility.yul\":15447:15456   */\n      dup2\n        /* \"#utility.yul\":15441:15445   */\n      dup2\n        /* \"#utility.yul\":15437:15457   */\n      sub\n        /* \"#utility.yul\":15433:15434   */\n      0x00\n        /* \"#utility.yul\":15422:15431   */\n      dup4\n        /* \"#utility.yul\":15418:15435   */\n      add\n        /* \"#utility.yul\":15411:15458   */\n      mstore\n        /* \"#utility.yul\":15475:15606   */\n      tag_472\n        /* \"#utility.yul\":15601:15605   */\n      dup2\n        /* \"#utility.yul\":15475:15606   */\n      tag_293\n      jump\t// in\n    tag_472:\n        /* \"#utility.yul\":15467:15606   */\n      swap1\n      pop\n        /* \"#utility.yul\":15194:15613   */\n      swap2\n      swap1\n      pop\n      jump\t// out\n        /* \"#utility.yul\":15619:15851   */\n    tag_294:\n        /* \"#utility.yul\":15759:15793   */\n      0x57616e746564204c3120676173207072696365206d7573742062652073747269\n        /* \"#utility.yul\":15755:15756   */\n      0x00\n        /* \"#utility.yul\":15747:15753   */\n      dup3\n        /* \"#utility.yul\":15743:15757   */\n      add\n        /* \"#utility.yul\":15736:15794   */\n      mstore\n        /* \"#utility.yul\":15828:15843   */\n      0x63746c7920706f73697469766500000000000000000000000000000000000000\n        /* \"#utility.yul\":15823:15825   */\n      0x20\n        /* \"#utility.yul\":15815:15821   */\n      dup3\n        /* \"#utility.yul\":15811:15826   */\n      add\n        /* \"#utility.yul\":15804:15844   */\n      mstore\n        /* \"#utility.yul\":15619:15851   */\n      pop\n      jump\t// out\n        /* \"#utility.yul\":15857:16223   */\n    tag_295:\n        /* \"#utility.yul\":15999:16002   */\n      0x00\n        /* \"#utility.yul\":16020:16087   */\n      tag_475\n        /* \"#utility.yul\":16084:16086   */\n      0x2d\n        /* \"#utility.yul\":16079:16082   */\n      dup4\n        /* \"#utility.yul\":16020:16087   */\n      tag_280\n      jump\t// in\n    tag_475:\n        /* \"#utility.yul\":16013:16087   */\n      swap2\n      pop\n        /* \"#utility.yul\":16096:16189   */\n      tag_476\n        /* \"#utility.yul\":16185:16188   */\n      dup3\n        /* \"#utility.yul\":16096:16189   */\n      tag_294\n      jump\t// in\n    tag_476:\n        /* \"#utility.yul\":16214:16216   */\n      0x40\n        /* \"#utility.yul\":16209:16212   */\n      dup3\n        /* \"#utility.yul\":16205:16217   */\n      add\n        /* \"#utility.yul\":16198:16217   */\n      swap1\n      pop\n        /* \"#utility.yul\":15857:16223   */\n      swap2\n      swap1\n      pop\n      jump\t// out\n        /* \"#utility.yul\":16229:16648   */\n    tag_170:\n        /* \"#utility.yul\":16395:16399   */\n      0x00\n        /* \"#utility.yul\":16433:16435   */\n      0x20\n        /* \"#utility.yul\":16422:16431   */\n      dup3\n        /* \"#utility.yul\":16418:16436   */\n      add\n        /* \"#utility.yul\":16410:16436   */\n      swap1\n      pop\n        /* \"#utility.yul\":16482:16491   */\n      dup2\n        /* \"#utility.yul\":16476:16480   */\n      dup2\n        /* \"#utility.yul\":16472:16492   */\n      sub\n        /* \"#utility.yul\":16468:16469   */\n      0x00\n        /* \"#utility.yul\":16457:16466   */\n      dup4\n        /* \"#utility.yul\":16453:16470   */\n      add\n        /* \"#utility.yul\":16446:16493   */\n      mstore\n        /* \"#utility.yul\":16510:16641   */\n      tag_478\n        /* \"#utility.yul\":16636:16640   */\n      dup2\n        /* \"#utility.yul\":16510:16641   */\n      tag_295\n      jump\t// in\n    tag_478:\n        /* \"#utility.yul\":16502:16641   */\n      swap1\n      pop\n        /* \"#utility.yul\":16229:16648   */\n      swap2\n      swap1\n      pop\n      jump\t// out\n        /* \"#utility.yul\":16654:16886   */\n    tag_296:\n        /* \"#utility.yul\":16794:16828   */\n      0x4e6f7420656e6f7567682066756e647320746f2070617920666f722064656c61\n        /* \"#utility.yul\":16790:16791   */\n      0x00\n        /* \"#utility.yul\":16782:16788   */\n      dup3\n        /* \"#utility.yul\":16778:16792   */\n      add\n        /* \"#utility.yul\":16771:16829   */\n      mstore\n        /* \"#utility.yul\":16863:16878   */\n      0x79656420657865637574696f6e00000000000000000000000000000000000000\n        /* \"#utility.yul\":16858:16860   */\n      0x20\n        /* \"#utility.yul\":16850:16856   */\n      dup3\n        /* \"#utility.yul\":16846:16861   */\n      add\n        /* \"#utility.yul\":16839:16879   */\n      mstore\n        /* \"#utility.yul\":16654:16886   */\n      pop\n      jump\t// out\n        /* \"#utility.yul\":16892:17258   */\n    tag_297:\n        /* \"#utility.yul\":17034:17037   */\n      0x00\n        /* \"#utility.yul\":17055:17122   */\n      tag_481\n        /* \"#utility.yul\":17119:17121   */\n      0x2d\n        /* \"#utility.yul\":17114:17117   */\n      dup4\n        /* \"#utility.yul\":17055:17122   */\n      tag_280\n      jump\t// in\n    tag_481:\n        /* \"#utility.yul\":17048:17122   */\n      swap2\n      pop\n        /* \"#utility.yul\":17131:17224   */\n      tag_482\n        /* \"#utility.yul\":17220:17223   */\n      dup3\n        /* \"#utility.yul\":17131:17224   */\n      tag_296\n      jump\t// in\n    tag_482:\n        /* \"#utility.yul\":17249:17251   */\n      0x40\n        /* \"#utility.yul\":17244:17247   */\n      dup3\n        /* \"#utility.yul\":17240:17252   */\n      add\n        /* \"#utility.yul\":17233:17252   */\n      swap1\n      pop\n        /* \"#utility.yul\":16892:17258   */\n      swap2\n      swap1\n      pop\n      jump\t// out\n        /* \"#utility.yul\":17264:17683   */\n    tag_173:\n        /* \"#utility.yul\":17430:17434   */\n      0x00\n        /* \"#utility.yul\":17468:17470   */\n      0x20\n        /* \"#utility.yul\":17457:17466   */\n      dup3\n        /* \"#utility.yul\":17453:17471   */\n      add\n        /* \"#utility.yul\":17445:17471   */\n      swap1\n      pop\n        /* \"#utility.yul\":17517:17526   */\n      dup2\n        /* \"#utility.yul\":17511:17515   */\n      dup2\n        /* \"#utility.yul\":17507:17527   */\n      sub\n        /* \"#utility.yul\":17503:17504   */\n      0x00\n        /* \"#utility.yul\":17492:17501   */\n      dup4\n        /* \"#utility.yul\":17488:17505   */\n      add\n        /* \"#utility.yul\":17481:17528   */\n      mstore\n        /* \"#utility.yul\":17545:17676   */\n      tag_484\n        /* \"#utility.yul\":17671:17675   */\n      dup2\n        /* \"#utility.yul\":17545:17676   */\n      tag_297\n      jump\t// in\n    tag_484:\n        /* \"#utility.yul\":17537:17676   */\n      swap1\n      pop\n        /* \"#utility.yul\":17264:17683   */\n      swap2\n      swap1\n      pop\n      jump\t// out\n        /* \"#utility.yul\":17689:17862   */\n    tag_298:\n        /* \"#utility.yul\":17829:17854   */\n      0x546f6b656e206973206e6f7420737570706f727465642e000000000000000000\n        /* \"#utility.yul\":17825:17826   */\n      0x00\n        /* \"#utility.yul\":17817:17823   */\n      dup3\n        /* \"#utility.yul\":17813:17827   */\n      add\n        /* \"#utility.yul\":17806:17855   */\n      mstore\n        /* \"#utility.yul\":17689:17862   */\n      pop\n      jump\t// out\n        /* \"#utility.yul\":17868:18234   */\n    tag_299:\n        /* \"#utility.yul\":18010:18013   */\n      0x00\n        /* \"#utility.yul\":18031:18098   */\n      tag_487\n        /* \"#utility.yul\":18095:18097   */\n      0x17\n        /* \"#utility.yul\":18090:18093   */\n      dup4\n        /* \"#utility.yul\":18031:18098   */\n      tag_280\n      jump\t// in\n    tag_487:\n        /* \"#utility.yul\":18024:18098   */\n      swap2\n      pop\n        /* \"#utility.yul\":18107:18200   */\n      tag_488\n        /* \"#utility.yul\":18196:18199   */\n      dup3\n        /* \"#utility.yul\":18107:18200   */\n      tag_298\n      jump\t// in\n    tag_488:\n        /* \"#utility.yul\":18225:18227   */\n      0x20\n        /* \"#utility.yul\":18220:18223   */\n      dup3\n        /* \"#utility.yul\":18216:18228   */\n      add\n        /* \"#utility.yul\":18209:18228   */\n      swap1\n      pop\n        /* \"#utility.yul\":17868:18234   */\n      swap2\n      swap1\n      pop\n      jump\t// out\n        /* \"#utility.yul\":18240:18659   */\n    tag_177:\n        /* \"#utility.yul\":18406:18410   */\n      0x00\n        /* \"#utility.yul\":18444:18446   */\n      0x20\n        /* \"#utility.yul\":18433:18442   */\n      dup3\n        /* \"#utility.yul\":18429:18447   */\n      add\n        /* \"#utility.yul\":18421:18447   */\n      swap1\n      pop\n        /* \"#utility.yul\":18493:18502   */\n      dup2\n        /* \"#utility.yul\":18487:18491   */\n      dup2\n        /* \"#utility.yul\":18483:18503   */\n      sub\n        /* \"#utility.yul\":18479:18480   */\n      0x00\n        /* \"#utility.yul\":18468:18477   */\n      dup4\n        /* \"#utility.yul\":18464:18481   */\n      add\n        /* \"#utility.yul\":18457:18504   */\n      mstore\n        /* \"#utility.yul\":18521:18652   */\n      tag_490\n        /* \"#utility.yul\":18647:18651   */\n      dup2\n        /* \"#utility.yul\":18521:18652   */\n      tag_299\n      jump\t// in\n    tag_490:\n        /* \"#utility.yul\":18513:18652   */\n      swap1\n      pop\n        /* \"#utility.yul\":18240:18659   */\n      swap2\n      swap1\n      pop\n      jump\t// out\n        /* \"#utility.yul\":18665:18900   */\n    tag_300:\n        /* \"#utility.yul\":18805:18839   */\n      0x466f7220746f6b656e206465706f736974732c20706179207468652073657276\n        /* \"#utility.yul\":18801:18802   */\n      0x00\n        /* \"#utility.yul\":18793:18799   */\n      dup3\n        /* \"#utility.yul\":18789:18803   */\n      add\n        /* \"#utility.yul\":18782:18840   */\n      mstore\n        /* \"#utility.yul\":18874:18892   */\n      0x696365206665652065786163746c792e00000000000000000000000000000000\n        /* \"#utility.yul\":18869:18871   */\n      0x20\n        /* \"#utility.yul\":18861:18867   */\n      dup3\n        /* \"#utility.yul\":18857:18872   */\n      add\n        /* \"#utility.yul\":18850:18893   */\n      mstore\n        /* \"#utility.yul\":18665:18900   */\n      pop\n      jump\t// out\n        /* \"#utility.yul\":18906:19272   */\n    tag_301:\n        /* \"#utility.yul\":19048:19051   */\n      0x00\n        /* \"#utility.yul\":19069:19136   */\n      tag_493\n        /* \"#utility.yul\":19133:19135   */\n      0x30\n        /* \"#utility.yul\":19128:19131   */\n      dup4\n        /* \"#utility.yul\":19069:19136   */\n      tag_280\n      jump\t// in\n    tag_493:\n        /* \"#utility.yul\":19062:19136   */\n      swap2\n      pop\n        /* \"#utility.yul\":19145:19238   */\n      tag_494\n        /* \"#utility.yul\":19234:19237   */\n      dup3\n        /* \"#utility.yul\":19145:19238   */\n      tag_300\n      jump\t// in\n    tag_494:\n        /* \"#utility.yul\":19263:19265   */\n      0x40\n        /* \"#utility.yul\":19258:19261   */\n      dup3\n        /* \"#utility.yul\":19254:19266   */\n      add\n        /* \"#utility.yul\":19247:19266   */\n      swap1\n      pop\n        /* \"#utility.yul\":18906:19272   */\n      swap2\n      swap1\n      pop\n      jump\t// out\n        /* \"#utility.yul\":19278:19697   */\n    tag_180:\n        /* \"#utility.yul\":19444:19448   */\n      0x00\n        /* \"#utility.yul\":19482:19484   */\n      0x20\n        /* \"#utility.yul\":19471:19480   */\n      dup3\n        /* \"#utility.yul\":19467:19485   */\n      add\n        /* \"#utility.yul\":19459:19485   */\n      swap1\n      pop\n        /* \"#utility.yul\":19531:19540   */\n      dup2\n        /* \"#utility.yul\":19525:19529   */\n      dup2\n        /* \"#utility.yul\":19521:19541   */\n      sub\n        /* \"#utility.yul\":19517:19518   */\n      0x00\n        /* \"#utility.yul\":19506:19515   */\n      dup4\n        /* \"#utility.yul\":19502:19519   */\n      add\n        /* \"#utility.yul\":19495:19542   */\n      mstore\n        /* \"#utility.yul\":19559:19690   */\n      tag_496\n        /* \"#utility.yul\":19685:19689   */\n      dup2\n        /* \"#utility.yul\":19559:19690   */\n      tag_301\n      jump\t// in\n    tag_496:\n        /* \"#utility.yul\":19551:19690   */\n      swap1\n      pop\n        /* \"#utility.yul\":19278:19697   */\n      swap2\n      swap1\n      pop\n      jump\t// out\n        /* \"#utility.yul\":19703:19944   */\n    tag_302:\n        /* \"#utility.yul\":19843:19877   */\n      0x546f6b656e206d757374206265203020616464726573732c207768656e206465\n        /* \"#utility.yul\":19839:19840   */\n      0x00\n        /* \"#utility.yul\":19831:19837   */\n      dup3\n        /* \"#utility.yul\":19827:19841   */\n      add\n        /* \"#utility.yul\":19820:19878   */\n      mstore\n        /* \"#utility.yul\":19912:19936   */\n      0x706f736974696e67206e61746976652065746865722e00000000000000000000\n        /* \"#utility.yul\":19907:19909   */\n      0x20\n        /* \"#utility.yul\":19899:19905   */\n      dup3\n        /* \"#utility.yul\":19895:19910   */\n      add\n        /* \"#utility.yul\":19888:19937   */\n      mstore\n        /* \"#utility.yul\":19703:19944   */\n      pop\n      jump\t// out\n        /* \"#utility.yul\":19950:20316   */\n    tag_303:\n        /* \"#utility.yul\":20092:20095   */\n      0x00\n        /* \"#utility.yul\":20113:20180   */\n      tag_499\n        /* \"#utility.yul\":20177:20179   */\n      0x36\n        /* \"#utility.yul\":20172:20175   */\n      dup4\n        /* \"#utility.yul\":20113:20180   */\n      tag_280\n      jump\t// in\n    tag_499:\n        /* \"#utility.yul\":20106:20180   */\n      swap2\n      pop\n        /* \"#utility.yul\":20189:20282   */\n      tag_500\n        /* \"#utility.yul\":20278:20281   */\n      dup3\n        /* \"#utility.yul\":20189:20282   */\n      tag_302\n      jump\t// in\n    tag_500:\n        /* \"#utility.yul\":20307:20309   */\n      0x40\n        /* \"#utility.yul\":20302:20305   */\n      dup3\n        /* \"#utility.yul\":20298:20310   */\n      add\n        /* \"#utility.yul\":20291:20310   */\n      swap1\n      pop\n        /* \"#utility.yul\":19950:20316   */\n      swap2\n      swap1\n      pop\n      jump\t// out\n        /* \"#utility.yul\":20322:20741   */\n    tag_184:\n        /* \"#utility.yul\":20488:20492   */\n      0x00\n        /* \"#utility.yul\":20526:20528   */\n      0x20\n        /* \"#utility.yul\":20515:20524   */\n      dup3\n        /* \"#utility.yul\":20511:20529   */\n      add\n        /* \"#utility.yul\":20503:20529   */\n      swap1\n      pop\n        /* \"#utility.yul\":20575:20584   */\n      dup2\n        /* \"#utility.yul\":20569:20573   */\n      dup2\n        /* \"#utility.yul\":20565:20585   */\n      sub\n        /* \"#utility.yul\":20561:20562   */\n      0x00\n        /* \"#utility.yul\":20550:20559   */\n      dup4\n        /* \"#utility.yul\":20546:20563   */\n      add\n        /* \"#utility.yul\":20539:20586   */\n      mstore\n        /* \"#utility.yul\":20603:20734   */\n      tag_502\n        /* \"#utility.yul\":20729:20733   */\n      dup2\n        /* \"#utility.yul\":20603:20734   */\n      tag_303\n      jump\t// in\n    tag_502:\n        /* \"#utility.yul\":20595:20734   */\n      swap1\n      pop\n        /* \"#utility.yul\":20322:20741   */\n      swap2\n      swap1\n      pop\n      jump\t// out\n        /* \"#utility.yul\":20747:21065   */\n    tag_304:\n        /* \"#utility.yul\":20887:20921   */\n      0x43616c63756c617465642073656e7420616d6f756e74206d757374206265206c\n        /* \"#utility.yul\":20883:20884   */\n      0x00\n        /* \"#utility.yul\":20875:20881   */\n      dup3\n        /* \"#utility.yul\":20871:20885   */\n      add\n        /* \"#utility.yul\":20864:20922   */\n      mstore\n        /* \"#utility.yul\":20956:20990   */\n      0x6172676572207468616e207468652064657369726564206d696e696d756d2061\n        /* \"#utility.yul\":20951:20953   */\n      0x20\n        /* \"#utility.yul\":20943:20949   */\n      dup3\n        /* \"#utility.yul\":20939:20954   */\n      add\n        /* \"#utility.yul\":20932:20991   */\n      mstore\n        /* \"#utility.yul\":21025:21057   */\n      0x6d6f756e74206172726976696e672061742064657374696e6174696f6e2e0000\n        /* \"#utility.yul\":21020:21022   */\n      0x40\n        /* \"#utility.yul\":21012:21018   */\n      dup3\n        /* \"#utility.yul\":21008:21023   */\n      add\n        /* \"#utility.yul\":21001:21058   */\n      mstore\n        /* \"#utility.yul\":20747:21065   */\n      pop\n      jump\t// out\n        /* \"#utility.yul\":21071:21437   */\n    tag_305:\n        /* \"#utility.yul\":21213:21216   */\n      0x00\n        /* \"#utility.yul\":21234:21301   */\n      tag_505\n        /* \"#utility.yul\":21298:21300   */\n      0x5e\n        /* \"#utility.yul\":21293:21296   */\n      dup4\n        /* \"#utility.yul\":21234:21301   */\n      tag_280\n      jump\t// in\n    tag_505:\n        /* \"#utility.yul\":21227:21301   */\n      swap2\n      pop\n        /* \"#utility.yul\":21310:21403   */\n      tag_506\n        /* \"#utility.yul\":21399:21402   */\n      dup3\n        /* \"#utility.yul\":21310:21403   */\n      tag_304\n      jump\t// in\n    tag_506:\n        /* \"#utility.yul\":21428:21430   */\n      0x60\n        /* \"#utility.yul\":21423:21426   */\n      dup3\n        /* \"#utility.yul\":21419:21431   */\n      add\n        /* \"#utility.yul\":21412:21431   */\n      swap1\n      pop\n        /* \"#utility.yul\":21071:21437   */\n      swap2\n      swap1\n      pop\n      jump\t// out\n        /* \"#utility.yul\":21443:21862   */\n    tag_188:\n        /* \"#utility.yul\":21609:21613   */\n      0x00\n        /* \"#utility.yul\":21647:21649   */\n      0x20\n        /* \"#utility.yul\":21636:21645   */\n      dup3\n        /* \"#utility.yul\":21632:21650   */\n      add\n        /* \"#utility.yul\":21624:21650   */\n      swap1\n      pop\n        /* \"#utility.yul\":21696:21705   */\n      dup2\n        /* \"#utility.yul\":21690:21694   */\n      dup2\n        /* \"#utility.yul\":21686:21706   */\n      sub\n        /* \"#utility.yul\":21682:21683   */\n      0x00\n        /* \"#utility.yul\":21671:21680   */\n      dup4\n        /* \"#utility.yul\":21667:21684   */\n      add\n        /* \"#utility.yul\":21660:21707   */\n      mstore\n        /* \"#utility.yul\":21724:21855   */\n      tag_508\n        /* \"#utility.yul\":21850:21854   */\n      dup2\n        /* \"#utility.yul\":21724:21855   */\n      tag_305\n      jump\t// in\n    tag_508:\n        /* \"#utility.yul\":21716:21855   */\n      swap1\n      pop\n        /* \"#utility.yul\":21443:21862   */\n      swap2\n      swap1\n      pop\n      jump\t// out\n        /* \"#utility.yul\":21868:22113   */\n    tag_306:\n        /* \"#utility.yul\":22008:22042   */\n      0x526571756573742077697468207468652073616d6520696420666f7220746865\n        /* \"#utility.yul\":22004:22005   */\n      0x00\n        /* \"#utility.yul\":21996:22002   */\n      dup3\n        /* \"#utility.yul\":21992:22006   */\n      add\n        /* \"#utility.yul\":21985:22043   */\n      mstore\n        /* \"#utility.yul\":22077:22105   */\n      0x20726571756573746f7220616c7265616479206578697374732e000000000000\n        /* \"#utility.yul\":22072:22074   */\n      0x20\n        /* \"#utility.yul\":22064:22070   */\n      dup3\n        /* \"#utility.yul\":22060:22075   */\n      add\n        /* \"#utility.yul\":22053:22106   */\n      mstore\n        /* \"#utility.yul\":21868:22113   */\n      pop\n      jump\t// out\n        /* \"#utility.yul\":22119:22485   */\n    tag_307:\n        /* \"#utility.yul\":22261:22264   */\n      0x00\n        /* \"#utility.yul\":22282:22349   */\n      tag_511\n        /* \"#utility.yul\":22346:22348   */\n      0x3a\n        /* \"#utility.yul\":22341:22344   */\n      dup4\n        /* \"#utility.yul\":22282:22349   */\n      tag_280\n      jump\t// in\n    tag_511:\n        /* \"#utility.yul\":22275:22349   */\n      swap2\n      pop\n        /* \"#utility.yul\":22358:22451   */\n      tag_512\n        /* \"#utility.yul\":22447:22450   */\n      dup3\n        /* \"#utility.yul\":22358:22451   */\n      tag_306\n      jump\t// in\n    tag_512:\n        /* \"#utility.yul\":22476:22478   */\n      0x40\n        /* \"#utility.yul\":22471:22474   */\n      dup3\n        /* \"#utility.yul\":22467:22479   */\n      add\n        /* \"#utility.yul\":22460:22479   */\n      swap1\n      pop\n        /* \"#utility.yul\":22119:22485   */\n      swap2\n      swap1\n      pop\n      jump\t// out\n        /* \"#utility.yul\":22491:22910   */\n    tag_192:\n        /* \"#utility.yul\":22657:22661   */\n      0x00\n        /* \"#utility.yul\":22695:22697   */\n      0x20\n        /* \"#utility.yul\":22684:22693   */\n      dup3\n        /* \"#utility.yul\":22680:22698   */\n      add\n        /* \"#utility.yul\":22672:22698   */\n      swap1\n      pop\n        /* \"#utility.yul\":22744:22753   */\n      dup2\n        /* \"#utility.yul\":22738:22742   */\n      dup2\n        /* \"#utility.yul\":22734:22754   */\n      sub\n        /* \"#utility.yul\":22730:22731   */\n      0x00\n        /* \"#utility.yul\":22719:22728   */\n      dup4\n        /* \"#utility.yul\":22715:22732   */\n      add\n        /* \"#utility.yul\":22708:22755   */\n      mstore\n        /* \"#utility.yul\":22772:22903   */\n      tag_514\n        /* \"#utility.yul\":22898:22902   */\n      dup2\n        /* \"#utility.yul\":22772:22903   */\n      tag_307\n      jump\t// in\n    tag_514:\n        /* \"#utility.yul\":22764:22903   */\n      swap1\n      pop\n        /* \"#utility.yul\":22491:22910   */\n      swap2\n      swap1\n      pop\n      jump\t// out\n        /* \"#utility.yul\":22916:23087   */\n    tag_308:\n        /* \"#utility.yul\":23056:23079   */\n      0x4e6f207265717565737420746f2070726f636573730000000000000000000000\n        /* \"#utility.yul\":23052:23053   */\n      0x00\n        /* \"#utility.yul\":23044:23050   */\n      dup3\n        /* \"#utility.yul\":23040:23054   */\n      add\n        /* \"#utility.yul\":23033:23080   */\n      mstore\n        /* \"#utility.yul\":22916:23087   */\n      pop\n      jump\t// out\n        /* \"#utility.yul\":23093:23459   */\n    tag_309:\n        /* \"#utility.yul\":23235:23238   */\n      0x00\n        /* \"#utility.yul\":23256:23323   */\n      tag_517\n        /* \"#utility.yul\":23320:23322   */\n      0x15\n        /* \"#utility.yul\":23315:23318   */\n      dup4\n        /* \"#utility.yul\":23256:23323   */\n      tag_280\n      jump\t// in\n    tag_517:\n        /* \"#utility.yul\":23249:23323   */\n      swap2\n      pop\n        /* \"#utility.yul\":23332:23425   */\n      tag_518\n        /* \"#utility.yul\":23421:23424   */\n      dup3\n        /* \"#utility.yul\":23332:23425   */\n      tag_308\n      jump\t// in\n    tag_518:\n        /* \"#utility.yul\":23450:23452   */\n      0x20\n        /* \"#utility.yul\":23445:23448   */\n      dup3\n        /* \"#utility.yul\":23441:23453   */\n      add\n        /* \"#utility.yul\":23434:23453   */\n      swap1\n      pop\n        /* \"#utility.yul\":23093:23459   */\n      swap2\n      swap1\n      pop\n      jump\t// out\n        /* \"#utility.yul\":23465:23884   */\n    tag_215:\n        /* \"#utility.yul\":23631:23635   */\n      0x00\n        /* \"#utility.yul\":23669:23671   */\n      0x20\n        /* \"#utility.yul\":23658:23667   */\n      dup3\n        /* \"#utility.yul\":23654:23672   */\n      add\n        /* \"#utility.yul\":23646:23672   */\n      swap1\n      pop\n        /* \"#utility.yul\":23718:23727   */\n      dup2\n        /* \"#utility.yul\":23712:23716   */\n      dup2\n        /* \"#utility.yul\":23708:23728   */\n      sub\n        /* \"#utility.yul\":23704:23705   */\n      0x00\n        /* \"#utility.yul\":23693:23702   */\n      dup4\n        /* \"#utility.yul\":23689:23706   */\n      add\n        /* \"#utility.yul\":23682:23729   */\n      mstore\n        /* \"#utility.yul\":23746:23877   */\n      tag_520\n        /* \"#utility.yul\":23872:23876   */\n      dup2\n        /* \"#utility.yul\":23746:23877   */\n      tag_309\n      jump\t// in\n    tag_520:\n        /* \"#utility.yul\":23738:23877   */\n      swap1\n      pop\n        /* \"#utility.yul\":23465:23884   */\n      swap2\n      swap1\n      pop\n      jump\t// out\n        /* \"#utility.yul\":23890:24072   */\n    tag_310:\n        /* \"#utility.yul\":24030:24064   */\n      0x426f6e646572206665652063616e6e6f742065786365656420616d6f756e742e\n        /* \"#utility.yul\":24026:24027   */\n      0x00\n        /* \"#utility.yul\":24018:24024   */\n      dup3\n        /* \"#utility.yul\":24014:24028   */\n      add\n        /* \"#utility.yul\":24007:24065   */\n      mstore\n        /* \"#utility.yul\":23890:24072   */\n      pop\n      jump\t// out\n        /* \"#utility.yul\":24078:24444   */\n    tag_311:\n        /* \"#utility.yul\":24220:24223   */\n      0x00\n        /* \"#utility.yul\":24241:24308   */\n      tag_523\n        /* \"#utility.yul\":24305:24307   */\n      0x20\n        /* \"#utility.yul\":24300:24303   */\n      dup4\n        /* \"#utility.yul\":24241:24308   */\n      tag_280\n      jump\t// in\n    tag_523:\n        /* \"#utility.yul\":24234:24308   */\n      swap2\n      pop\n        /* \"#utility.yul\":24317:24410   */\n      tag_524\n        /* \"#utility.yul\":24406:24409   */\n      dup3\n        /* \"#utility.yul\":24317:24410   */\n      tag_310\n      jump\t// in\n    tag_524:\n        /* \"#utility.yul\":24435:24437   */\n      0x20\n        /* \"#utility.yul\":24430:24433   */\n      dup3\n        /* \"#utility.yul\":24426:24438   */\n      add\n        /* \"#utility.yul\":24419:24438   */\n      swap1\n      pop\n        /* \"#utility.yul\":24078:24444   */\n      swap2\n      swap1\n      pop\n      jump\t// out\n        /* \"#utility.yul\":24450:24869   */\n    tag_218:\n        /* \"#utility.yul\":24616:24620   */\n      0x00\n        /* \"#utility.yul\":24654:24656   */\n      0x20\n        /* \"#utility.yul\":24643:24652   */\n      dup3\n        /* \"#utility.yul\":24639:24657   */\n      add\n        /* \"#utility.yul\":24631:24657   */\n      swap1\n      pop\n        /* \"#utility.yul\":24703:24712   */\n      dup2\n        /* \"#utility.yul\":24697:24701   */\n      dup2\n        /* \"#utility.yul\":24693:24713   */\n      sub\n        /* \"#utility.yul\":24689:24690   */\n      0x00\n        /* \"#utility.yul\":24678:24687   */\n      dup4\n        /* \"#utility.yul\":24674:24691   */\n      add\n        /* \"#utility.yul\":24667:24714   */\n      mstore\n        /* \"#utility.yul\":24731:24862   */\n      tag_526\n        /* \"#utility.yul\":24857:24861   */\n      dup2\n        /* \"#utility.yul\":24731:24862   */\n      tag_311\n      jump\t// in\n    tag_526:\n        /* \"#utility.yul\":24723:24862   */\n      swap1\n      pop\n        /* \"#utility.yul\":24450:24869   */\n      swap2\n      swap1\n      pop\n      jump\t// out\n        /* \"#utility.yul\":24875:25872   */\n    tag_222:\n        /* \"#utility.yul\":25164:25168   */\n      0x00\n        /* \"#utility.yul\":25202:25205   */\n      0x0100\n        /* \"#utility.yul\":25191:25200   */\n      dup3\n        /* \"#utility.yul\":25187:25206   */\n      add\n        /* \"#utility.yul\":25179:25206   */\n      swap1\n      pop\n        /* \"#utility.yul\":25216:25287   */\n      tag_528\n        /* \"#utility.yul\":25284:25285   */\n      0x00\n        /* \"#utility.yul\":25273:25282   */\n      dup4\n        /* \"#utility.yul\":25269:25286   */\n      add\n        /* \"#utility.yul\":25260:25266   */\n      dup12\n        /* \"#utility.yul\":25216:25287   */\n      tag_269\n      jump\t// in\n    tag_528:\n        /* \"#utility.yul\":25297:25369   */\n      tag_529\n        /* \"#utility.yul\":25365:25367   */\n      0x20\n        /* \"#utility.yul\":25354:25363   */\n      dup4\n        /* \"#utility.yul\":25350:25368   */\n      add\n        /* \"#utility.yul\":25341:25347   */\n      dup11\n        /* \"#utility.yul\":25297:25369   */\n      tag_272\n      jump\t// in\n    tag_529:\n        /* \"#utility.yul\":25379:25451   */\n      tag_530\n        /* \"#utility.yul\":25447:25449   */\n      0x40\n        /* \"#utility.yul\":25436:25445   */\n      dup4\n        /* \"#utility.yul\":25432:25450   */\n      add\n        /* \"#utility.yul\":25423:25429   */\n      dup10\n        /* \"#utility.yul\":25379:25451   */\n      tag_269\n      jump\t// in\n    tag_530:\n        /* \"#utility.yul\":25461:25533   */\n      tag_531\n        /* \"#utility.yul\":25529:25531   */\n      0x60\n        /* \"#utility.yul\":25518:25527   */\n      dup4\n        /* \"#utility.yul\":25514:25532   */\n      add\n        /* \"#utility.yul\":25505:25511   */\n      dup9\n        /* \"#utility.yul\":25461:25533   */\n      tag_269\n      jump\t// in\n    tag_531:\n        /* \"#utility.yul\":25543:25616   */\n      tag_532\n        /* \"#utility.yul\":25611:25614   */\n      0x80\n        /* \"#utility.yul\":25600:25609   */\n      dup4\n        /* \"#utility.yul\":25596:25615   */\n      add\n        /* \"#utility.yul\":25587:25593   */\n      dup8\n        /* \"#utility.yul\":25543:25616   */\n      tag_269\n      jump\t// in\n    tag_532:\n        /* \"#utility.yul\":25626:25699   */\n      tag_533\n        /* \"#utility.yul\":25694:25697   */\n      0xa0\n        /* \"#utility.yul\":25683:25692   */\n      dup4\n        /* \"#utility.yul\":25679:25698   */\n      add\n        /* \"#utility.yul\":25670:25676   */\n      dup7\n        /* \"#utility.yul\":25626:25699   */\n      tag_269\n      jump\t// in\n    tag_533:\n        /* \"#utility.yul\":25709:25782   */\n      tag_534\n        /* \"#utility.yul\":25777:25780   */\n      0xc0\n        /* \"#utility.yul\":25766:25775   */\n      dup4\n        /* \"#utility.yul\":25762:25781   */\n      add\n        /* \"#utility.yul\":25753:25759   */\n      dup6\n        /* \"#utility.yul\":25709:25782   */\n      tag_269\n      jump\t// in\n    tag_534:\n        /* \"#utility.yul\":25792:25865   */\n      tag_535\n        /* \"#utility.yul\":25860:25863   */\n      0xe0\n        /* \"#utility.yul\":25849:25858   */\n      dup4\n        /* \"#utility.yul\":25845:25864   */\n      add\n        /* \"#utility.yul\":25836:25842   */\n      dup5\n        /* \"#utility.yul\":25792:25865   */\n      tag_269\n      jump\t// in\n    tag_535:\n        /* \"#utility.yul\":24875:25872   */\n      swap10\n      swap9\n      pop\n      pop\n      pop\n      pop\n      pop\n      pop\n      pop\n      pop\n      pop\n      jump\t// out\n        /* \"#utility.yul\":25878:26103   */\n    tag_312:\n        /* \"#utility.yul\":26018:26052   */\n      0x4f776e61626c653a206e6577206f776e657220697320746865207a65726f2061\n        /* \"#utility.yul\":26014:26015   */\n      0x00\n        /* \"#utility.yul\":26006:26012   */\n      dup3\n        /* \"#utility.yul\":26002:26016   */\n      add\n        /* \"#utility.yul\":25995:26053   */\n      mstore\n        /* \"#utility.yul\":26087:26095   */\n      0x6464726573730000000000000000000000000000000000000000000000000000\n        /* \"#utility.yul\":26082:26084   */\n      0x20\n        /* \"#utility.yul\":26074:26080   */\n      dup3\n        /* \"#utility.yul\":26070:26085   */\n      add\n        /* \"#utility.yul\":26063:26096   */\n      mstore\n        /* \"#utility.yul\":25878:26103   */\n      pop\n      jump\t// out\n        /* \"#utility.yul\":26109:26475   */\n    tag_313:\n        /* \"#utility.yul\":26251:26254   */\n      0x00\n        /* \"#utility.yul\":26272:26339   */\n      tag_538\n        /* \"#utility.yul\":26336:26338   */\n      0x26\n        /* \"#utility.yul\":26331:26334   */\n      dup4\n        /* \"#utility.yul\":26272:26339   */\n      tag_280\n      jump\t// in\n    tag_538:\n        /* \"#utility.yul\":26265:26339   */\n      swap2\n      pop\n        /* \"#utility.yul\":26348:26441   */\n      tag_539\n        /* \"#utility.yul\":26437:26440   */\n      dup3\n        /* \"#utility.yul\":26348:26441   */\n      tag_312\n      jump\t// in\n    tag_539:\n        /* \"#utility.yul\":26466:26468   */\n      0x40\n        /* \"#utility.yul\":26461:26464   */\n      dup3\n        /* \"#utility.yul\":26457:26469   */\n      add\n        /* \"#utility.yul\":26450:26469   */\n      swap1\n      pop\n        /* \"#utility.yul\":26109:26475   */\n      swap2\n      swap1\n      pop\n      jump\t// out\n        /* \"#utility.yul\":26481:26900   */\n    tag_234:\n        /* \"#utility.yul\":26647:26651   */\n      0x00\n        /* \"#utility.yul\":26685:26687   */\n      0x20\n        /* \"#utility.yul\":26674:26683   */\n      dup3\n        /* \"#utility.yul\":26670:26688   */\n      add\n        /* \"#utility.yul\":26662:26688   */\n      swap1\n      pop\n        /* \"#utility.yul\":26734:26743   */\n      dup2\n        /* \"#utility.yul\":26728:26732   */\n      dup2\n        /* \"#utility.yul\":26724:26744   */\n      sub\n        /* \"#utility.yul\":26720:26721   */\n      0x00\n        /* \"#utility.yul\":26709:26718   */\n      dup4\n        /* \"#utility.yul\":26705:26722   */\n      add\n        /* \"#utility.yul\":26698:26745   */\n      mstore\n        /* \"#utility.yul\":26762:26893   */\n      tag_541\n        /* \"#utility.yul\":26888:26892   */\n      dup2\n        /* \"#utility.yul\":26762:26893   */\n      tag_313\n      jump\t// in\n    tag_541:\n        /* \"#utility.yul\":26754:26893   */\n      swap1\n      pop\n        /* \"#utility.yul\":26481:26900   */\n      swap2\n      swap1\n      pop\n      jump\t// out\n        /* \"#utility.yul\":26906:27088   */\n    tag_314:\n        /* \"#utility.yul\":27046:27080   */\n      0x4f776e61626c653a2063616c6c6572206973206e6f7420746865206f776e6572\n        /* \"#utility.yul\":27042:27043   */\n      0x00\n        /* \"#utility.yul\":27034:27040   */\n      dup3\n        /* \"#utility.yul\":27030:27044   */\n      add\n        /* \"#utility.yul\":27023:27081   */\n      mstore\n        /* \"#utility.yul\":26906:27088   */\n      pop\n      jump\t// out\n        /* \"#utility.yul\":27094:27460   */\n    tag_315:\n        /* \"#utility.yul\":27236:27239   */\n      0x00\n        /* \"#utility.yul\":27257:27324   */\n      tag_544\n        /* \"#utility.yul\":27321:27323   */\n      0x20\n        /* \"#utility.yul\":27316:27319   */\n      dup4\n        /* \"#utility.yul\":27257:27324   */\n      tag_280\n      jump\t// in\n    tag_544:\n        /* \"#utility.yul\":27250:27324   */\n      swap2\n      pop\n        /* \"#utility.yul\":27333:27426   */\n      tag_545\n        /* \"#utility.yul\":27422:27425   */\n      dup3\n        /* \"#utility.yul\":27333:27426   */\n      tag_314\n      jump\t// in\n    tag_545:\n        /* \"#utility.yul\":27451:27453   */\n      0x20\n        /* \"#utility.yul\":27446:27449   */\n      dup3\n        /* \"#utility.yul\":27442:27454   */\n      add\n        /* \"#utility.yul\":27435:27454   */\n      swap1\n      pop\n        /* \"#utility.yul\":27094:27460   */\n      swap2\n      swap1\n      pop\n      jump\t// out\n        /* \"#utility.yul\":27466:27885   */\n    tag_242:\n        /* \"#utility.yul\":27632:27636   */\n      0x00\n        /* \"#utility.yul\":27670:27672   */\n      0x20\n        /* \"#utility.yul\":27659:27668   */\n      dup3\n        /* \"#utility.yul\":27655:27673   */\n      add\n        /* \"#utility.yul\":27647:27673   */\n      swap1\n      pop\n        /* \"#utility.yul\":27719:27728   */\n      dup2\n        /* \"#utility.yul\":27713:27717   */\n      dup2\n        /* \"#utility.yul\":27709:27729   */\n      sub\n        /* \"#utility.yul\":27705:27706   */\n      0x00\n        /* \"#utility.yul\":27694:27703   */\n      dup4\n        /* \"#utility.yul\":27690:27707   */\n      add\n        /* \"#utility.yul\":27683:27730   */\n      mstore\n        /* \"#utility.yul\":27747:27878   */\n      tag_547\n        /* \"#utility.yul\":27873:27877   */\n      dup2\n        /* \"#utility.yul\":27747:27878   */\n      tag_315\n      jump\t// in\n    tag_547:\n        /* \"#utility.yul\":27739:27878   */\n      swap1\n      pop\n        /* \"#utility.yul\":27466:27885   */\n      swap2\n      swap1\n      pop\n      jump\t// out\n        /* \"#utility.yul\":27891:28072   */\n    tag_316:\n        /* \"#utility.yul\":28031:28064   */\n      0x5265656e7472616e637947756172643a207265656e7472616e742063616c6c00\n        /* \"#utility.yul\":28027:28028   */\n      0x00\n        /* \"#utility.yul\":28019:28025   */\n      dup3\n        /* \"#utility.yul\":28015:28029   */\n      add\n        /* \"#utility.yul\":28008:28065   */\n      mstore\n        /* \"#utility.yul\":27891:28072   */\n      pop\n      jump\t// out\n        /* \"#utility.yul\":28078:28444   */\n    tag_317:\n        /* \"#utility.yul\":28220:28223   */\n      0x00\n        /* \"#utility.yul\":28241:28308   */\n      tag_550\n        /* \"#utility.yul\":28305:28307   */\n      0x1f\n        /* \"#utility.yul\":28300:28303   */\n      dup4\n        /* \"#utility.yul\":28241:28308   */\n      tag_280\n      jump\t// in\n    tag_550:\n        /* \"#utility.yul\":28234:28308   */\n      swap2\n      pop\n        /* \"#utility.yul\":28317:28410   */\n      tag_551\n        /* \"#utility.yul\":28406:28409   */\n      dup3\n        /* \"#utility.yul\":28317:28410   */\n      tag_316\n      jump\t// in\n    tag_551:\n        /* \"#utility.yul\":28435:28437   */\n      0x20\n        /* \"#utility.yul\":28430:28433   */\n      dup3\n        /* \"#utility.yul\":28426:28438   */\n      add\n        /* \"#utility.yul\":28419:28438   */\n      swap1\n      pop\n        /* \"#utility.yul\":28078:28444   */\n      swap2\n      swap1\n      pop\n      jump\t// out\n        /* \"#utility.yul\":28450:28869   */\n    tag_246:\n        /* \"#utility.yul\":28616:28620   */\n      0x00\n        /* \"#utility.yul\":28654:28656   */\n      0x20\n        /* \"#utility.yul\":28643:28652   */\n      dup3\n        /* \"#utility.yul\":28639:28657   */\n      add\n        /* \"#utility.yul\":28631:28657   */\n      swap1\n      pop\n        /* \"#utility.yul\":28703:28712   */\n      dup2\n        /* \"#utility.yul\":28697:28701   */\n      dup2\n        /* \"#utility.yul\":28693:28713   */\n      sub\n        /* \"#utility.yul\":28689:28690   */\n      0x00\n        /* \"#utility.yul\":28678:28687   */\n      dup4\n        /* \"#utility.yul\":28674:28691   */\n      add\n        /* \"#utility.yul\":28667:28714   */\n      mstore\n        /* \"#utility.yul\":28731:28862   */\n      tag_553\n        /* \"#utility.yul\":28857:28861   */\n      dup2\n        /* \"#utility.yul\":28731:28862   */\n      tag_317\n      jump\t// in\n    tag_553:\n        /* \"#utility.yul\":28723:28862   */\n      swap1\n      pop\n        /* \"#utility.yul\":28450:28869   */\n      swap2\n      swap1\n      pop\n      jump\t// out\n        /* \"#utility.yul\":28875:29124   */\n    tag_318:\n        /* \"#utility.yul\":29015:29049   */\n      0x5365727669636520666565206d75737420636f766572206174206c6561737420\n        /* \"#utility.yul\":29011:29012   */\n      0x00\n        /* \"#utility.yul\":29003:29009   */\n      dup3\n        /* \"#utility.yul\":28999:29013   */\n      add\n        /* \"#utility.yul\":28992:29050   */\n      mstore\n        /* \"#utility.yul\":29084:29116   */\n      0x74686520657865637574696f6e2067617320726571756972656d656e742e0000\n        /* \"#utility.yul\":29079:29081   */\n      0x20\n        /* \"#utility.yul\":29071:29077   */\n      dup3\n        /* \"#utility.yul\":29067:29082   */\n      add\n        /* \"#utility.yul\":29060:29117   */\n      mstore\n        /* \"#utility.yul\":28875:29124   */\n      pop\n      jump\t// out\n        /* \"#utility.yul\":29130:29496   */\n    tag_319:\n        /* \"#utility.yul\":29272:29275   */\n      0x00\n        /* \"#utility.yul\":29293:29360   */\n      tag_556\n        /* \"#utility.yul\":29357:29359   */\n      0x3e\n        /* \"#utility.yul\":29352:29355   */\n      dup4\n        /* \"#utility.yul\":29293:29360   */\n      tag_280\n      jump\t// in\n    tag_556:\n        /* \"#utility.yul\":29286:29360   */\n      swap2\n      pop\n        /* \"#utility.yul\":29369:29462   */\n      tag_557\n        /* \"#utility.yul\":29458:29461   */\n      dup3\n        /* \"#utility.yul\":29369:29462   */\n      tag_318\n      jump\t// in\n    tag_557:\n        /* \"#utility.yul\":29487:29489   */\n      0x40\n        /* \"#utility.yul\":29482:29485   */\n      dup3\n        /* \"#utility.yul\":29478:29490   */\n      add\n        /* \"#utility.yul\":29471:29490   */\n      swap1\n      pop\n        /* \"#utility.yul\":29130:29496   */\n      swap2\n      swap1\n      pop\n      jump\t// out\n        /* \"#utility.yul\":29502:29921   */\n    tag_253:\n        /* \"#utility.yul\":29668:29672   */\n      0x00\n        /* \"#utility.yul\":29706:29708   */\n      0x20\n        /* \"#utility.yul\":29695:29704   */\n      dup3\n        /* \"#utility.yul\":29691:29709   */\n      add\n        /* \"#utility.yul\":29683:29709   */\n      swap1\n      pop\n        /* \"#utility.yul\":29755:29764   */\n      dup2\n        /* \"#utility.yul\":29749:29753   */\n      dup2\n        /* \"#utility.yul\":29745:29765   */\n      sub\n        /* \"#utility.yul\":29741:29742   */\n      0x00\n        /* \"#utility.yul\":29730:29739   */\n      dup4\n        /* \"#utility.yul\":29726:29743   */\n      add\n        /* \"#utility.yul\":29719:29766   */\n      mstore\n        /* \"#utility.yul\":29783:29914   */\n      tag_559\n        /* \"#utility.yul\":29909:29913   */\n      dup2\n        /* \"#utility.yul\":29783:29914   */\n      tag_319\n      jump\t// in\n    tag_559:\n        /* \"#utility.yul\":29775:29914   */\n      swap1\n      pop\n        /* \"#utility.yul\":29502:29921   */\n      swap2\n      swap1\n      pop\n      jump\t// out\n\n    auxdata: 0xa2646970667358221220c81ee5b93bd71c2d20ee8667bde814c85c1e23012e92e892e2db55a0a989942264736f6c63430008120033\n}\n",
				"bytecode": {
					"linkReferences": {},
					"object": "60806040523480156200001157600080fd5b5060405162002db238038062002db28339818101604052810190620000379190620001e4565b620000576200004b6200008c60201b60201c565b6200009460201b60201c565b60018081905550826002819055508160038190555080600681905550620000836200015860201b60201c565b505050620002e9565b600033905090565b60008060009054906101000a900473ffffffffffffffffffffffffffffffffffffffff169050816000806101000a81548173ffffffffffffffffffffffffffffffffffffffff021916908373ffffffffffffffffffffffffffffffffffffffff1602179055508173ffffffffffffffffffffffffffffffffffffffff168173ffffffffffffffffffffffffffffffffffffffff167f8be0079c531659141344cd1fd0a4f28419497f9722a3daafe3b4186f6b6457e060405160405180910390a35050565b6002546003541015620001a2576040517f08c379a00000000000000000000000000000000000000000000000000000000081526004016200019990620002c7565b60405180910390fd5b565b600080fd5b6000819050919050565b620001be81620001a9565b8114620001ca57600080fd5b50565b600081519050620001de81620001b3565b92915050565b6000806000606084860312156200020057620001ff620001a4565b5b60006200021086828701620001cd565b93505060206200022386828701620001cd565b92505060406200023686828701620001cd565b9150509250925092565b600082825260208201905092915050565b7f5365727669636520666565206d75737420636f766572206174206c656173742060008201527f74686520657865637574696f6e2067617320726571756972656d656e742e0000602082015250565b6000620002af603e8362000240565b9150620002bc8262000251565b604082019050919050565b60006020820190508181036000830152620002e281620002a0565b9050919050565b612ab980620002f96000396000f3fe6080604052600436106100fe5760003560e01c806387d6161b11610095578063a191078a11610064578063a191078a146102e6578063a1f663061461030f578063b65029431461033a578063d043ba1914610365578063f2fde38b1461038e576100fe565b806387d6161b1461024b5780638abdf5aa146102745780638c13bc081461029f5780638da5cb5b146102bb576100fe565b8063488ff1c8116100d1578063488ff1c8146101a9578063715018a6146101ed5780637394e49c146102045780637b1aa45f14610241576100fe565b80631485351e14610103578063242f40461461012c5780632e1a7d4d1461015757806333f707d114610180575b600080fd5b34801561010f57600080fd5b5061012a60048036038101906101259190611b86565b6103b7565b005b34801561013857600080fd5b5061014161050f565b60405161014e9190611bdf565b60405180910390f35b34801561016357600080fd5b5061017e60048036038101906101799190611c26565b610515565b005b34801561018c57600080fd5b506101a760048036038101906101a29190611c26565b61095d565b005b3480156101b557600080fd5b506101d060048036038101906101cb9190611c53565b610a14565b6040516101e4989796959493929190611d1c565b60405180910390f35b3480156101f957600080fd5b50610202610ad6565b005b34801561021057600080fd5b5061022b60048036038101906102269190611d9a565b610aea565b6040516102389190611dc7565b60405180910390f35b610249610b1d565b005b34801561025757600080fd5b50610272600480360381019061026d9190611c26565b610b27565b005b34801561028057600080fd5b50610289610b41565b6040516102969190611bdf565b60405180910390f35b6102b960048036038101906102b49190611de2565b610b47565b005b3480156102c757600080fd5b506102d0611325565b6040516102dd9190611dc7565b60405180910390f35b3480156102f257600080fd5b5061030d60048036038101906103089190611c26565b61134e565b005b34801561031b57600080fd5b50610324611368565b6040516103319190611bdf565b60405180910390f35b34801561034657600080fd5b5061034f61136e565b60405161035c9190611bdf565b60405180910390f35b34801561037157600080fd5b5061038c60048036038101906103879190611e6f565b611374565b005b34801561039a57600080fd5b506103b560048036038101906103b09190611f11565b611810565b005b6103bf611893565b600073ffffffffffffffffffffffffffffffffffffffff16600760008473ffffffffffffffffffffffffffffffffffffffff1673ffffffffffffffffffffffffffffffffffffffff16815260200190815260200160002060009054906101000a900473ffffffffffffffffffffffffffffffffffffffff1673ffffffffffffffffffffffffffffffffffffffff161461048d576040517f08c379a000000000000000000000000000000000000000000000000000000000815260040161048490611f9b565b60405180910390fd5b80600760008473ffffffffffffffffffffffffffffffffffffffff1673ffffffffffffffffffffffffffffffffffffffff16815260200190815260200160002060006101000a81548173ffffffffffffffffffffffffffffffffffffffff021916908373ffffffffffffffffffffffffffffffffffffffff1602179055505050565b60025481565b61051d611911565b6000600560003373ffffffffffffffffffffffffffffffffffffffff1673ffffffffffffffffffffffffffffffffffffffff1681526020019081526020016000206000838152602001908152602001600020604051806101000160405290816000820160009054906101000a900473ffffffffffffffffffffffffffffffffffffffff1673ffffffffffffffffffffffffffffffffffffffff1673ffffffffffffffffffffffffffffffffffffffff1681526020016001820160009054906101000a900473ffffffffffffffffffffffffffffffffffffffff1673ffffffffffffffffffffffffffffffffffffffff1673ffffffffffffffffffffffffffffffffffffffff1681526020016001820160149054906101000a900460ff161515151581526020016002820160009054906101000a900473ffffffffffffffffffffffffffffffffffffffff1673ffffffffffffffffffffffffffffffffffffffff1673ffffffffffffffffffffffffffffffffffffffff16815260200160038201548152602001600482015481526020016005820154815260200160068201548152505090506106cb81611960565b61070a576040517f08c379a000000000000000000000000000000000000000000000000000000000815260040161070190612007565b60405180910390fd5b3373ffffffffffffffffffffffffffffffffffffffff16816000015173ffffffffffffffffffffffffffffffffffffffff161461074a57610749612027565b5b6000808260e0015190508260400151156107755782608001518261076e9190612085565b9150610788565b8260800151816107859190612085565b90505b600560003373ffffffffffffffffffffffffffffffffffffffff1673ffffffffffffffffffffffffffffffffffffffff1681526020019081526020016000206000858152602001908152602001600020600080820160006101000a81549073ffffffffffffffffffffffffffffffffffffffff02191690556001820160006101000a81549073ffffffffffffffffffffffffffffffffffffffff02191690556001820160146101000a81549060ff02191690556002820160006101000a81549073ffffffffffffffffffffffffffffffffffffffff0219169055600382016000905560048201600090556005820160009055600682016000905550503373ffffffffffffffffffffffffffffffffffffffff166108fc829081150290604051600060405180830381858888f193505050506108c257600080fd5b826060015173ffffffffffffffffffffffffffffffffffffffff166323b872dd3033856040518463ffffffff1660e01b8152600401610903939291906120b9565b6020604051808303816000875af1158015610922573d6000803e3d6000fd5b505050506040513d601f19601f82011682018060405250810190610946919061211c565b61094f57600080fd5b50505061095a61199d565b50565b610965611893565b61096d611911565b8060045410156109b2576040517f08c379a00000000000000000000000000000000000000000000000000000000081526004016109a9906121e1565b60405180910390fd5b80600460008282546109c49190612201565b925050819055503373ffffffffffffffffffffffffffffffffffffffff166108fc829081150290604051600060405180830381858888f19350505050610a0957600080fd5b610a1161199d565b50565b6005602052816000526040600020602052806000526040600020600091509150508060000160009054906101000a900473ffffffffffffffffffffffffffffffffffffffff16908060010160009054906101000a900473ffffffffffffffffffffffffffffffffffffffff16908060010160149054906101000a900460ff16908060020160009054906101000a900473ffffffffffffffffffffffffffffffffffffffff16908060030154908060040154908060050154908060060154905088565b610ade611893565b610ae860006119a6565b565b60076020528060005260406000206000915054906101000a900473ffffffffffffffffffffffffffffffffffffffff1681565b610b25611893565b565b610b2f611893565b80600281905550610b3e611a6a565b50565b60035481565b610b4f611911565b600073ffffffffffffffffffffffffffffffffffffffff163373ffffffffffffffffffffffffffffffffffffffff1603610bbe576040517f08c379a0000000000000000000000000000000000000000000000000000000008152600401610bb590612281565b60405180910390fd5b600073ffffffffffffffffffffffffffffffffffffffff168373ffffffffffffffffffffffffffffffffffffffff1603610c2d576040517f08c379a0000000000000000000000000000000000000000000000000000000008152600401610c2490612313565b60405180910390fd5b60008211610c70576040517f08c379a0000000000000000000000000000000000000000000000000000000008152600401610c67906123a5565b60405180910390fd5b600354341015610cb5576040517f08c379a0000000000000000000000000000000000000000000000000000000008152600401610cac90612437565b60405180910390fd5b600080851415905060008115610ddf57600073ffffffffffffffffffffffffffffffffffffffff16600760008973ffffffffffffffffffffffffffffffffffffffff1673ffffffffffffffffffffffffffffffffffffffff16815260200190815260200160002060009054906101000a900473ffffffffffffffffffffffffffffffffffffffff1673ffffffffffffffffffffffffffffffffffffffff1603610d93576040517f08c379a0000000000000000000000000000000000000000000000000000000008152600401610d8a906124a3565b60405180910390fd5b6003543414610dd7576040517f08c379a0000000000000000000000000000000000000000000000000000000008152600401610dce90612535565b60405180910390fd5b859050610e5f565b600073ffffffffffffffffffffffffffffffffffffffff168773ffffffffffffffffffffffffffffffffffffffff1614610e4e576040517f08c379a0000000000000000000000000000000000000000000000000000000008152600401610e45906125c7565b60405180910390fd5b60035434610e5c9190612201565b90505b82811015610ea2576040517f08c379a0000000000000000000000000000000000000000000000000000000008152600401610e999061267f565b60405180910390fd5b61104b600560003373ffffffffffffffffffffffffffffffffffffffff1673ffffffffffffffffffffffffffffffffffffffff16815260200190815260200160002060008a8152602001908152602001600020604051806101000160405290816000820160009054906101000a900473ffffffffffffffffffffffffffffffffffffffff1673ffffffffffffffffffffffffffffffffffffffff1673ffffffffffffffffffffffffffffffffffffffff1681526020016001820160009054906101000a900473ffffffffffffffffffffffffffffffffffffffff1673ffffffffffffffffffffffffffffffffffffffff1673ffffffffffffffffffffffffffffffffffffffff1681526020016001820160149054906101000a900460ff161515151581526020016002820160009054906101000a900473ffffffffffffffffffffffffffffffffffffffff1673ffffffffffffffffffffffffffffffffffffffff1673ffffffffffffffffffffffffffffffffffffffff168152602001600382015481526020016004820154815260200160058201548152602001600682015481525050611960565b1561108b576040517f08c379a000000000000000000000000000000000000000000000000000000000815260040161108290612711565b60405180910390fd5b611093611ab3565b6040518061010001604052803373ffffffffffffffffffffffffffffffffffffffff1681526020018673ffffffffffffffffffffffffffffffffffffffff16815260200183151581526020018873ffffffffffffffffffffffffffffffffffffffff168152602001828152602001848152602001858152602001600254815250600560003373ffffffffffffffffffffffffffffffffffffffff1673ffffffffffffffffffffffffffffffffffffffff16815260200190815260200160002060008a815260200190815260200160002060008201518160000160006101000a81548173ffffffffffffffffffffffffffffffffffffffff021916908373ffffffffffffffffffffffffffffffffffffffff16021790555060208201518160010160006101000a81548173ffffffffffffffffffffffffffffffffffffffff021916908373ffffffffffffffffffffffffffffffffffffffff16021790555060408201518160010160146101000a81548160ff02191690831515021790555060608201518160020160006101000a81548173ffffffffffffffffffffffffffffffffffffffff021916908373ffffffffffffffffffffffffffffffffffffffff1602179055506080820151816003015560a0820151816004015560c0820151816005015560e082015181600601559050508115611313578673ffffffffffffffffffffffffffffffffffffffff166323b872dd3330846040518463ffffffff1660e01b81526004016112c6939291906120b9565b6020604051808303816000875af11580156112e5573d6000803e3d6000fd5b505050506040513d601f19601f82011682018060405250810190611309919061211c565b61131257600080fd5b5b505061131d61199d565b505050505050565b60008060009054906101000a900473ffffffffffffffffffffffffffffffffffffffff16905090565b611356611893565b80600381905550611365611a6a565b50565b60045481565b60065481565b61137c611893565b611384611911565b6000600560008973ffffffffffffffffffffffffffffffffffffffff1673ffffffffffffffffffffffffffffffffffffffff1681526020019081526020016000206000888152602001908152602001600020604051806101000160405290816000820160009054906101000a900473ffffffffffffffffffffffffffffffffffffffff1673ffffffffffffffffffffffffffffffffffffffff1673ffffffffffffffffffffffffffffffffffffffff1681526020016001820160009054906101000a900473ffffffffffffffffffffffffffffffffffffffff1673ffffffffffffffffffffffffffffffffffffffff1673ffffffffffffffffffffffffffffffffffffffff1681526020016001820160149054906101000a900460ff161515151581526020016002820160009054906101000a900473ffffffffffffffffffffffffffffffffffffffff1673ffffffffffffffffffffffffffffffffffffffff1673ffffffffffffffffffffffffffffffffffffffff168152602001600382015481526020016004820154815260200160058201548152602001600682015481525050905061153281611960565b611571576040517f08c379a00000000000000000000000000000000000000000000000000000000081526004016115689061277d565b60405180910390fd5b85816080015110156115b8576040517f08c379a00000000000000000000000000000000000000000000000000000000081526004016115af906127e9565b60405180910390fd5b600081604001516115cd5781608001516115d0565b60005b9050600060076000846060015173ffffffffffffffffffffffffffffffffffffffff1673ffffffffffffffffffffffffffffffffffffffff16815260200190815260200160002060009054906101000a900473ffffffffffffffffffffffffffffffffffffffff169050600560008b73ffffffffffffffffffffffffffffffffffffffff1673ffffffffffffffffffffffffffffffffffffffff16815260200190815260200160002060008a8152602001908152602001600020600080820160006101000a81549073ffffffffffffffffffffffffffffffffffffffff02191690556001820160006101000a81549073ffffffffffffffffffffffffffffffffffffffff02191690556001820160146101000a81549060ff02191690556002820160006101000a81549073ffffffffffffffffffffffffffffffffffffffff0219169055600382016000905560048201600090556005820160009055600682016000905550508073ffffffffffffffffffffffffffffffffffffffff1663eea0d7b283600654866020015187608001518d8d8d8d8d6040518a63ffffffff1660e01b8152600401611788989796959493929190612809565b6000604051808303818588803b1580156117a157600080fd5b505af11580156117b5573d6000803e3d6000fd5b50505050503373ffffffffffffffffffffffffffffffffffffffff166108fc8460e001519081150290604051600060405180830381858888f193505050506117fc57600080fd5b50505061180761199d565b50505050505050565b611818611893565b600073ffffffffffffffffffffffffffffffffffffffff168173ffffffffffffffffffffffffffffffffffffffff1603611887576040517f08c379a000000000000000000000000000000000000000000000000000000000815260040161187e906128f9565b60405180910390fd5b611890816119a6565b50565b61189b611add565b73ffffffffffffffffffffffffffffffffffffffff166118b9611325565b73ffffffffffffffffffffffffffffffffffffffff161461190f576040517f08c379a000000000000000000000000000000000000000000000000000000000815260040161190690612965565b60405180910390fd5b565b600260015403611956576040517f08c379a000000000000000000000000000000000000000000000000000000000815260040161194d906129d1565b60405180910390fd5b6002600181905550565b60008073ffffffffffffffffffffffffffffffffffffffff16826000015173ffffffffffffffffffffffffffffffffffffffff1614159050919050565b60018081905550565b60008060009054906101000a900473ffffffffffffffffffffffffffffffffffffffff169050816000806101000a81548173ffffffffffffffffffffffffffffffffffffffff021916908373ffffffffffffffffffffffffffffffffffffffff1602179055508173ffffffffffffffffffffffffffffffffffffffff168173ffffffffffffffffffffffffffffffffffffffff167f8be0079c531659141344cd1fd0a4f28419497f9722a3daafe3b4186f6b6457e060405160405180910390a35050565b6002546003541015611ab1576040517f08c379a0000000000000000000000000000000000000000000000000000000008152600401611aa890612a63565b60405180910390fd5b565b600254600354611ac39190612201565b60046000828254611ad49190612085565b92505081905550565b600033905090565b600080fd5b600073ffffffffffffffffffffffffffffffffffffffff82169050919050565b6000611b1582611aea565b9050919050565b6000611b2782611b0a565b9050919050565b611b3781611b1c565b8114611b4257600080fd5b50565b600081359050611b5481611b2e565b92915050565b611b6381611b0a565b8114611b6e57600080fd5b50565b600081359050611b8081611b5a565b92915050565b60008060408385031215611b9d57611b9c611ae5565b5b6000611bab85828601611b45565b9250506020611bbc85828601611b71565b9150509250929050565b6000819050919050565b611bd981611bc6565b82525050565b6000602082019050611bf46000830184611bd0565b92915050565b611c0381611bc6565b8114611c0e57600080fd5b50565b600081359050611c2081611bfa565b92915050565b600060208284031215611c3c57611c3b611ae5565b5b6000611c4a84828501611c11565b91505092915050565b60008060408385031215611c6a57611c69611ae5565b5b6000611c7885828601611b71565b9250506020611c8985828601611c11565b9150509250929050565b611c9c81611b0a565b82525050565b60008115159050919050565b611cb781611ca2565b82525050565b6000819050919050565b6000611ce2611cdd611cd884611aea565b611cbd565b611aea565b9050919050565b6000611cf482611cc7565b9050919050565b6000611d0682611ce9565b9050919050565b611d1681611cfb565b82525050565b600061010082019050611d32600083018b611c93565b611d3f602083018a611c93565b611d4c6040830189611cae565b611d596060830188611d0d565b611d666080830187611bd0565b611d7360a0830186611bd0565b611d8060c0830185611bd0565b611d8d60e0830184611bd0565b9998505050505050505050565b600060208284031215611db057611daf611ae5565b5b6000611dbe84828501611b45565b91505092915050565b6000602082019050611ddc6000830184611c93565b92915050565b60008060008060008060c08789031215611dff57611dfe611ae5565b5b6000611e0d89828a01611c11565b9650506020611e1e89828a01611b45565b9550506040611e2f89828a01611c11565b9450506060611e4089828a01611b71565b9350506080611e5189828a01611c11565b92505060a0611e6289828a01611c11565b9150509295509295509295565b600080600080600080600060e0888a031215611e8e57611e8d611ae5565b5b6000611e9c8a828b01611b71565b9750506020611ead8a828b01611c11565b9650506040611ebe8a828b01611c11565b9550506060611ecf8a828b01611c11565b9450506080611ee08a828b01611c11565b93505060a0611ef18a828b01611c11565b92505060c0611f028a828b01611c11565b91505092959891949750929550565b600060208284031215611f2757611f26611ae5565b5b6000611f3584828501611b71565b91505092915050565b600082825260208201905092915050565b7f546f6b656e20616c726561647920737570706f727465642e0000000000000000600082015250565b6000611f85601883611f3e565b9150611f9082611f4f565b602082019050919050565b60006020820190508181036000830152611fb481611f78565b9050919050565b7f4e6f207265717565737420746f2077697468647261772e000000000000000000600082015250565b6000611ff1601783611f3e565b9150611ffc82611fbb565b602082019050919050565b6000602082019050818103600083015261202081611fe4565b9050919050565b7f4e487b7100000000000000000000000000000000000000000000000000000000600052600160045260246000fd5b7f4e487b7100000000000000000000000000000000000000000000000000000000600052601160045260246000fd5b600061209082611bc6565b915061209b83611bc6565b92508282019050808211156120b3576120b2612056565b5b92915050565b60006060820190506120ce6000830186611c93565b6120db6020830185611c93565b6120e86040830184611bd0565b949350505050565b6120f981611ca2565b811461210457600080fd5b50565b600081519050612116816120f0565b92915050565b60006020828403121561213257612131611ae5565b5b600061214084828501612107565b91505092915050565b7f43616e6e6f74207769746864726177206d6f72652066756e6473207468616e2060008201527f74686520636f6c6c6563746564206e6f6e20676173207365727669636520666560208201527f65732e0000000000000000000000000000000000000000000000000000000000604082015250565b60006121cb604383611f3e565b91506121d682612149565b606082019050919050565b600060208201905081810360008301526121fa816121be565b9050919050565b600061220c82611bc6565b915061221783611bc6565b925082820390508181111561222f5761222e612056565b5b92915050565b7f53656e646572206d6179206e6f74206265203020616464726573730000000000600082015250565b600061226b601b83611f3e565b915061227682612235565b602082019050919050565b6000602082019050818103600083015261229a8161225e565b9050919050565b7f44657374696e6174696f6e2061646472657373206d6179206e6f74206265203060008201527f2061646472657373000000000000000000000000000000000000000000000000602082015250565b60006122fd602883611f3e565b9150612308826122a1565b604082019050919050565b6000602082019050818103600083015261232c816122f0565b9050919050565b7f57616e746564204c3120676173207072696365206d757374206265207374726960008201527f63746c7920706f73697469766500000000000000000000000000000000000000602082015250565b600061238f602d83611f3e565b915061239a82612333565b604082019050919050565b600060208201905081810360008301526123be81612382565b9050919050565b7f4e6f7420656e6f7567682066756e647320746f2070617920666f722064656c6160008201527f79656420657865637574696f6e00000000000000000000000000000000000000602082015250565b6000612421602d83611f3e565b915061242c826123c5565b604082019050919050565b6000602082019050818103600083015261245081612414565b9050919050565b7f546f6b656e206973206e6f7420737570706f727465642e000000000000000000600082015250565b600061248d601783611f3e565b915061249882612457565b602082019050919050565b600060208201905081810360008301526124bc81612480565b9050919050565b7f466f7220746f6b656e206465706f736974732c2070617920746865207365727660008201527f696365206665652065786163746c792e00000000000000000000000000000000602082015250565b600061251f603083611f3e565b915061252a826124c3565b604082019050919050565b6000602082019050818103600083015261254e81612512565b9050919050565b7f546f6b656e206d757374206265203020616464726573732c207768656e20646560008201527f706f736974696e67206e61746976652065746865722e00000000000000000000602082015250565b60006125b1603683611f3e565b91506125bc82612555565b604082019050919050565b600060208201905081810360008301526125e0816125a4565b9050919050565b7f43616c63756c617465642073656e7420616d6f756e74206d757374206265206c60008201527f6172676572207468616e207468652064657369726564206d696e696d756d206160208201527f6d6f756e74206172726976696e672061742064657374696e6174696f6e2e0000604082015250565b6000612669605e83611f3e565b9150612674826125e7565b606082019050919050565b600060208201905081810360008301526126988161265c565b9050919050565b7f526571756573742077697468207468652073616d6520696420666f722074686560008201527f20726571756573746f7220616c7265616479206578697374732e000000000000602082015250565b60006126fb603a83611f3e565b91506127068261269f565b604082019050919050565b6000602082019050818103600083015261272a816126ee565b9050919050565b7f4e6f207265717565737420746f2070726f636573730000000000000000000000600082015250565b6000612767601583611f3e565b915061277282612731565b602082019050919050565b600060208201905081810360008301526127968161275a565b9050919050565b7f426f6e646572206665652063616e6e6f742065786365656420616d6f756e742e600082015250565b60006127d3602083611f3e565b91506127de8261279d565b602082019050919050565b60006020820190508181036000830152612802816127c6565b9050919050565b60006101008201905061281f600083018b611bd0565b61282c602083018a611c93565b6128396040830189611bd0565b6128466060830188611bd0565b6128536080830187611bd0565b61286060a0830186611bd0565b61286d60c0830185611bd0565b61287a60e0830184611bd0565b9998505050505050505050565b7f4f776e61626c653a206e6577206f776e657220697320746865207a65726f206160008201527f6464726573730000000000000000000000000000000000000000000000000000602082015250565b60006128e3602683611f3e565b91506128ee82612887565b604082019050919050565b60006020820190508181036000830152612912816128d6565b9050919050565b7f4f776e61626c653a2063616c6c6572206973206e6f7420746865206f776e6572600082015250565b600061294f602083611f3e565b915061295a82612919565b602082019050919050565b6000602082019050818103600083015261297e81612942565b9050919050565b7f5265656e7472616e637947756172643a207265656e7472616e742063616c6c00600082015250565b60006129bb601f83611f3e565b91506129c682612985565b602082019050919050565b600060208201905081810360008301526129ea816129ae565b9050919050565b7f5365727669636520666565206d75737420636f766572206174206c656173742060008201527f74686520657865637574696f6e2067617320726571756972656d656e742e0000602082015250565b6000612a4d603e83611f3e565b9150612a58826129f1565b604082019050919050565b60006020820190508181036000830152612a7c81612a40565b905091905056fea2646970667358221220c81ee5b93bd71c2d20ee8667bde814c85c1e23012e92e892e2db55a0a989942264736f6c63430008120033",
					"opcodes": "PUSH1 0x80 PUSH1 0x40 MSTORE CALLVALUE DUP1 ISZERO PUSH3 0x11 JUMPI PUSH1 0x0 DUP1 REVERT JUMPDEST POP PUSH1 0x40 MLOAD PUSH3 0x2DB2 CODESIZE SUB DUP1 PUSH3 0x2DB2 DUP4 CODECOPY DUP2 DUP2 ADD PUSH1 0x40 MSTORE DUP2 ADD SWAP1 PUSH3 0x37 SWAP2 SWAP1 PUSH3 0x1E4 JUMP JUMPDEST PUSH3 0x57 PUSH3 0x4B PUSH3 0x8C PUSH1 0x20 SHL PUSH1 0x20 SHR JUMP JUMPDEST PUSH3 0x94 PUSH1 0x20 SHL PUSH1 0x20 SHR JUMP JUMPDEST PUSH1 0x1 DUP1 DUP2 SWAP1 SSTORE POP DUP3 PUSH1 0x2 DUP2 SWAP1 SSTORE POP DUP2 PUSH1 0x3 DUP2 SWAP1 SSTORE POP DUP1 PUSH1 0x6 DUP2 SWAP1 SSTORE POP PUSH3 0x83 PUSH3 0x158 PUSH1 0x20 SHL PUSH1 0x20 SHR JUMP JUMPDEST POP POP POP PUSH3 0x2E9 JUMP JUMPDEST PUSH1 0x0 CALLER SWAP1 POP SWAP1 JUMP JUMPDEST PUSH1 0x0 DUP1 PUSH1 0x0 SWAP1 SLOAD SWAP1 PUSH2 0x100 EXP SWAP1 DIV PUSH20 0xFFFFFFFFFFFFFFFFFFFFFFFFFFFFFFFFFFFFFFFF AND SWAP1 POP DUP2 PUSH1 0x0 DUP1 PUSH2 0x100 EXP DUP2 SLOAD DUP2 PUSH20 0xFFFFFFFFFFFFFFFFFFFFFFFFFFFFFFFFFFFFFFFF MUL NOT AND SWAP1 DUP4 PUSH20 0xFFFFFFFFFFFFFFFFFFFFFFFFFFFFFFFFFFFFFFFF AND MUL OR SWAP1 SSTORE POP DUP2 PUSH20 0xFFFFFFFFFFFFFFFFFFFFFFFFFFFFFFFFFFFFFFFF AND DUP2 PUSH20 0xFFFFFFFFFFFFFFFFFFFFFFFFFFFFFFFFFFFFFFFF AND PUSH32 0x8BE0079C531659141344CD1FD0A4F28419497F9722A3DAAFE3B4186F6B6457E0 PUSH1 0x40 MLOAD PUSH1 0x40 MLOAD DUP1 SWAP2 SUB SWAP1 LOG3 POP POP JUMP JUMPDEST PUSH1 0x2 SLOAD PUSH1 0x3 SLOAD LT ISZERO PUSH3 0x1A2 JUMPI PUSH1 0x40 MLOAD PUSH32 0x8C379A000000000000000000000000000000000000000000000000000000000 DUP2 MSTORE PUSH1 0x4 ADD PUSH3 0x199 SWAP1 PUSH3 0x2C7 JUMP JUMPDEST PUSH1 0x40 MLOAD DUP1 SWAP2 SUB SWAP1 REVERT JUMPDEST JUMP JUMPDEST PUSH1 0x0 DUP1 REVERT JUMPDEST PUSH1 0x0 DUP2 SWAP1 POP SWAP2 SWAP1 POP JUMP JUMPDEST PUSH3 0x1BE DUP2 PUSH3 0x1A9 JUMP JUMPDEST DUP2 EQ PUSH3 0x1CA JUMPI PUSH1 0x0 DUP1 REVERT JUMPDEST POP JUMP JUMPDEST PUSH1 0x0 DUP2 MLOAD SWAP1 POP PUSH3 0x1DE DUP2 PUSH3 0x1B3 JUMP JUMPDEST SWAP3 SWAP2 POP POP JUMP JUMPDEST PUSH1 0x0 DUP1 PUSH1 0x0 PUSH1 0x60 DUP5 DUP7 SUB SLT ISZERO PUSH3 0x200 JUMPI PUSH3 0x1FF PUSH3 0x1A4 JUMP JUMPDEST JUMPDEST PUSH1 0x0 PUSH3 0x210 DUP7 DUP3 DUP8 ADD PUSH3 0x1CD JUMP JUMPDEST SWAP4 POP POP PUSH1 0x20 PUSH3 0x223 DUP7 DUP3 DUP8 ADD PUSH3 0x1CD JUMP JUMPDEST SWAP3 POP POP PUSH1 0x40 PUSH3 0x236 DUP7 DUP3 DUP8 ADD PUSH3 0x1CD JUMP JUMPDEST SWAP2 POP POP SWAP3 POP SWAP3 POP SWAP3 JUMP JUMPDEST PUSH1 0x0 DUP3 DUP3 MSTORE PUSH1 0x20 DUP3 ADD SWAP1 POP SWAP3 SWAP2 POP POP JUMP JUMPDEST PUSH32 0x5365727669636520666565206D75737420636F766572206174206C6561737420 PUSH1 0x0 DUP3 ADD MSTORE PUSH32 0x74686520657865637574696F6E2067617320726571756972656D656E742E0000 PUSH1 0x20 DUP3 ADD MSTORE POP JUMP JUMPDEST PUSH1 0x0 PUSH3 0x2AF PUSH1 0x3E DUP4 PUSH3 0x240 JUMP JUMPDEST SWAP2 POP PUSH3 0x2BC DUP3 PUSH3 0x251 JUMP JUMPDEST PUSH1 0x40 DUP3 ADD SWAP1 POP SWAP2 SWAP1 POP JUMP JUMPDEST PUSH1 0x0 PUSH1 0x20 DUP3 ADD SWAP1 POP DUP2 DUP2 SUB PUSH1 0x0 DUP4 ADD MSTORE PUSH3 0x2E2 DUP2 PUSH3 0x2A0 JUMP JUMPDEST SWAP1 POP SWAP2 SWAP1 POP JUMP JUMPDEST PUSH2 0x2AB9 DUP1 PUSH3 0x2F9 PUSH1 0x0 CODECOPY PUSH1 0x0 RETURN INVALID PUSH1 0x80 PUSH1 0x40 MSTORE PUSH1 0x4 CALLDATASIZE LT PUSH2 0xFE JUMPI PUSH1 0x0 CALLDATALOAD PUSH1 0xE0 SHR DUP1 PUSH4 0x87D6161B GT PUSH2 0x95 JUMPI DUP1 PUSH4 0xA191078A GT PUSH2 0x64 JUMPI DUP1 PUSH4 0xA191078A EQ PUSH2 0x2E6 JUMPI DUP1 PUSH4 0xA1F66306 EQ PUSH2 0x30F JUMPI DUP1 PUSH4 0xB6502943 EQ PUSH2 0x33A JUMPI DUP1 PUSH4 0xD043BA19 EQ PUSH2 0x365 JUMPI DUP1 PUSH4 0xF2FDE38B EQ PUSH2 0x38E JUMPI PUSH2 0xFE JUMP JUMPDEST DUP1 PUSH4 0x87D6161B EQ PUSH2 0x24B JUMPI DUP1 PUSH4 0x8ABDF5AA EQ PUSH2 0x274 JUMPI DUP1 PUSH4 0x8C13BC08 EQ PUSH2 0x29F JUMPI DUP1 PUSH4 0x8DA5CB5B EQ PUSH2 0x2BB JUMPI PUSH2 0xFE JUMP JUMPDEST DUP1 PUSH4 0x488FF1C8 GT PUSH2 0xD1 JUMPI DUP1 PUSH4 0x488FF1C8 EQ PUSH2 0x1A9 JUMPI DUP1 PUSH4 0x715018A6 EQ PUSH2 0x1ED JUMPI DUP1 PUSH4 0x7394E49C EQ PUSH2 0x204 JUMPI DUP1 PUSH4 0x7B1AA45F EQ PUSH2 0x241 JUMPI PUSH2 0xFE JUMP JUMPDEST DUP1 PUSH4 0x1485351E EQ PUSH2 0x103 JUMPI DUP1 PUSH4 0x242F4046 EQ PUSH2 0x12C JUMPI DUP1 PUSH4 0x2E1A7D4D EQ PUSH2 0x157 JUMPI DUP1 PUSH4 0x33F707D1 EQ PUSH2 0x180 JUMPI JUMPDEST PUSH1 0x0 DUP1 REVERT JUMPDEST CALLVALUE DUP1 ISZERO PUSH2 0x10F JUMPI PUSH1 0x0 DUP1 REVERT JUMPDEST POP PUSH2 0x12A PUSH1 0x4 DUP1 CALLDATASIZE SUB DUP2 ADD SWAP1 PUSH2 0x125 SWAP2 SWAP1 PUSH2 0x1B86 JUMP JUMPDEST PUSH2 0x3B7 JUMP JUMPDEST STOP JUMPDEST CALLVALUE DUP1 ISZERO PUSH2 0x138 JUMPI PUSH1 0x0 DUP1 REVERT JUMPDEST POP PUSH2 0x141 PUSH2 0x50F JUMP JUMPDEST PUSH1 0x40 MLOAD PUSH2 0x14E SWAP2 SWAP1 PUSH2 0x1BDF JUMP JUMPDEST PUSH1 0x40 MLOAD DUP1 SWAP2 SUB SWAP1 RETURN JUMPDEST CALLVALUE DUP1 ISZERO PUSH2 0x163 JUMPI PUSH1 0x0 DUP1 REVERT JUMPDEST POP PUSH2 0x17E PUSH1 0x4 DUP1 CALLDATASIZE SUB DUP2 ADD SWAP1 PUSH2 0x179 SWAP2 SWAP1 PUSH2 0x1C26 JUMP JUMPDEST PUSH2 0x515 JUMP JUMPDEST STOP JUMPDEST CALLVALUE DUP1 ISZERO PUSH2 0x18C JUMPI PUSH1 0x0 DUP1 REVERT JUMPDEST POP PUSH2 0x1A7 PUSH1 0x4 DUP1 CALLDATASIZE SUB DUP2 ADD SWAP1 PUSH2 0x1A2 SWAP2 SWAP1 PUSH2 0x1C26 JUMP JUMPDEST PUSH2 0x95D JUMP JUMPDEST STOP JUMPDEST CALLVALUE DUP1 ISZERO PUSH2 0x1B5 JUMPI PUSH1 0x0 DUP1 REVERT JUMPDEST POP PUSH2 0x1D0 PUSH1 0x4 DUP1 CALLDATASIZE SUB DUP2 ADD SWAP1 PUSH2 0x1CB SWAP2 SWAP1 PUSH2 0x1C53 JUMP JUMPDEST PUSH2 0xA14 JUMP JUMPDEST PUSH1 0x40 MLOAD PUSH2 0x1E4 SWAP9 SWAP8 SWAP7 SWAP6 SWAP5 SWAP4 SWAP3 SWAP2 SWAP1 PUSH2 0x1D1C JUMP JUMPDEST PUSH1 0x40 MLOAD DUP1 SWAP2 SUB SWAP1 RETURN JUMPDEST CALLVALUE DUP1 ISZERO PUSH2 0x1F9 JUMPI PUSH1 0x0 DUP1 REVERT JUMPDEST POP PUSH2 0x202 PUSH2 0xAD6 JUMP JUMPDEST STOP JUMPDEST CALLVALUE DUP1 ISZERO PUSH2 0x210 JUMPI PUSH1 0x0 DUP1 REVERT JUMPDEST POP PUSH2 0x22B PUSH1 0x4 DUP1 CALLDATASIZE SUB DUP2 ADD SWAP1 PUSH2 0x226 SWAP2 SWAP1 PUSH2 0x1D9A JUMP JUMPDEST PUSH2 0xAEA JUMP JUMPDEST PUSH1 0x40 MLOAD PUSH2 0x238 SWAP2 SWAP1 PUSH2 0x1DC7 JUMP JUMPDEST PUSH1 0x40 MLOAD DUP1 SWAP2 SUB SWAP1 RETURN JUMPDEST PUSH2 0x249 PUSH2 0xB1D JUMP JUMPDEST STOP JUMPDEST CALLVALUE DUP1 ISZERO PUSH2 0x257 JUMPI PUSH1 0x0 DUP1 REVERT JUMPDEST POP PUSH2 0x272 PUSH1 0x4 DUP1 CALLDATASIZE SUB DUP2 ADD SWAP1 PUSH2 0x26D SWAP2 SWAP1 PUSH2 0x1C26 JUMP JUMPDEST PUSH2 0xB27 JUMP JUMPDEST STOP JUMPDEST CALLVALUE DUP1 ISZERO PUSH2 0x280 JUMPI PUSH1 0x0 DUP1 REVERT JUMPDEST POP PUSH2 0x289 PUSH2 0xB41 JUMP JUMPDEST PUSH1 0x40 MLOAD PUSH2 0x296 SWAP2 SWAP1 PUSH2 0x1BDF JUMP JUMPDEST PUSH1 0x40 MLOAD DUP1 SWAP2 SUB SWAP1 RETURN JUMPDEST PUSH2 0x2B9 PUSH1 0x4 DUP1 CALLDATASIZE SUB DUP2 ADD SWAP1 PUSH2 0x2B4 SWAP2 SWAP1 PUSH2 0x1DE2 JUMP JUMPDEST PUSH2 0xB47 JUMP JUMPDEST STOP JUMPDEST CALLVALUE DUP1 ISZERO PUSH2 0x2C7 JUMPI PUSH1 0x0 DUP1 REVERT JUMPDEST POP PUSH2 0x2D0 PUSH2 0x1325 JUMP JUMPDEST PUSH1 0x40 MLOAD PUSH2 0x2DD SWAP2 SWAP1 PUSH2 0x1DC7 JUMP JUMPDEST PUSH1 0x40 MLOAD DUP1 SWAP2 SUB SWAP1 RETURN JUMPDEST CALLVALUE DUP1 ISZERO PUSH2 0x2F2 JUMPI PUSH1 0x0 DUP1 REVERT JUMPDEST POP PUSH2 0x30D PUSH1 0x4 DUP1 CALLDATASIZE SUB DUP2 ADD SWAP1 PUSH2 0x308 SWAP2 SWAP1 PUSH2 0x1C26 JUMP JUMPDEST PUSH2 0x134E JUMP JUMPDEST STOP JUMPDEST CALLVALUE DUP1 ISZERO PUSH2 0x31B JUMPI PUSH1 0x0 DUP1 REVERT JUMPDEST POP PUSH2 0x324 PUSH2 0x1368 JUMP JUMPDEST PUSH1 0x40 MLOAD PUSH2 0x331 SWAP2 SWAP1 PUSH2 0x1BDF JUMP JUMPDEST PUSH1 0x40 MLOAD DUP1 SWAP2 SUB SWAP1 RETURN JUMPDEST CALLVALUE DUP1 ISZERO PUSH2 0x346 JUMPI PUSH1 0x0 DUP1 REVERT JUMPDEST POP PUSH2 0x34F PUSH2 0x136E JUMP JUMPDEST PUSH1 0x40 MLOAD PUSH2 0x35C SWAP2 SWAP1 PUSH2 0x1BDF JUMP JUMPDEST PUSH1 0x40 MLOAD DUP1 SWAP2 SUB SWAP1 RETURN JUMPDEST CALLVALUE DUP1 ISZERO PUSH2 0x371 JUMPI PUSH1 0x0 DUP1 REVERT JUMPDEST POP PUSH2 0x38C PUSH1 0x4 DUP1 CALLDATASIZE SUB DUP2 ADD SWAP1 PUSH2 0x387 SWAP2 SWAP1 PUSH2 0x1E6F JUMP JUMPDEST PUSH2 0x1374 JUMP JUMPDEST STOP JUMPDEST CALLVALUE DUP1 ISZERO PUSH2 0x39A JUMPI PUSH1 0x0 DUP1 REVERT JUMPDEST POP PUSH2 0x3B5 PUSH1 0x4 DUP1 CALLDATASIZE SUB DUP2 ADD SWAP1 PUSH2 0x3B0 SWAP2 SWAP1 PUSH2 0x1F11 JUMP JUMPDEST PUSH2 0x1810 JUMP JUMPDEST STOP JUMPDEST PUSH2 0x3BF PUSH2 0x1893 JUMP JUMPDEST PUSH1 0x0 PUSH20 0xFFFFFFFFFFFFFFFFFFFFFFFFFFFFFFFFFFFFFFFF AND PUSH1 0x7 PUSH1 0x0 DUP5 PUSH20 0xFFFFFFFFFFFFFFFFFFFFFFFFFFFFFFFFFFFFFFFF AND PUSH20 0xFFFFFFFFFFFFFFFFFFFFFFFFFFFFFFFFFFFFFFFF AND DUP2 MSTORE PUSH1 0x20 ADD SWAP1 DUP2 MSTORE PUSH1 0x20 ADD PUSH1 0x0 KECCAK256 PUSH1 0x0 SWAP1 SLOAD SWAP1 PUSH2 0x100 EXP SWAP1 DIV PUSH20 0xFFFFFFFFFFFFFFFFFFFFFFFFFFFFFFFFFFFFFFFF AND PUSH20 0xFFFFFFFFFFFFFFFFFFFFFFFFFFFFFFFFFFFFFFFF AND EQ PUSH2 0x48D JUMPI PUSH1 0x40 MLOAD PUSH32 0x8C379A000000000000000000000000000000000000000000000000000000000 DUP2 MSTORE PUSH1 0x4 ADD PUSH2 0x484 SWAP1 PUSH2 0x1F9B JUMP JUMPDEST PUSH1 0x40 MLOAD DUP1 SWAP2 SUB SWAP1 REVERT JUMPDEST DUP1 PUSH1 0x7 PUSH1 0x0 DUP5 PUSH20 0xFFFFFFFFFFFFFFFFFFFFFFFFFFFFFFFFFFFFFFFF AND PUSH20 0xFFFFFFFFFFFFFFFFFFFFFFFFFFFFFFFFFFFFFFFF AND DUP2 MSTORE PUSH1 0x20 ADD SWAP1 DUP2 MSTORE PUSH1 0x20 ADD PUSH1 0x0 KECCAK256 PUSH1 0x0 PUSH2 0x100 EXP DUP2 SLOAD DUP2 PUSH20 0xFFFFFFFFFFFFFFFFFFFFFFFFFFFFFFFFFFFFFFFF MUL NOT AND SWAP1 DUP4 PUSH20 0xFFFFFFFFFFFFFFFFFFFFFFFFFFFFFFFFFFFFFFFF AND MUL OR SWAP1 SSTORE POP POP POP JUMP JUMPDEST PUSH1 0x2 SLOAD DUP2 JUMP JUMPDEST PUSH2 0x51D PUSH2 0x1911 JUMP JUMPDEST PUSH1 0x0 PUSH1 0x5 PUSH1 0x0 CALLER PUSH20 0xFFFFFFFFFFFFFFFFFFFFFFFFFFFFFFFFFFFFFFFF AND PUSH20 0xFFFFFFFFFFFFFFFFFFFFFFFFFFFFFFFFFFFFFFFF AND DUP2 MSTORE PUSH1 0x20 ADD SWAP1 DUP2 MSTORE PUSH1 0x20 ADD PUSH1 0x0 KECCAK256 PUSH1 0x0 DUP4 DUP2 MSTORE PUSH1 0x20 ADD SWAP1 DUP2 MSTORE PUSH1 0x20 ADD PUSH1 0x0 KECCAK256 PUSH1 0x40 MLOAD DUP1 PUSH2 0x100 ADD PUSH1 0x40 MSTORE SWAP1 DUP2 PUSH1 0x0 DUP3 ADD PUSH1 0x0 SWAP1 SLOAD SWAP1 PUSH2 0x100 EXP SWAP1 DIV PUSH20 0xFFFFFFFFFFFFFFFFFFFFFFFFFFFFFFFFFFFFFFFF AND PUSH20 0xFFFFFFFFFFFFFFFFFFFFFFFFFFFFFFFFFFFFFFFF AND PUSH20 0xFFFFFFFFFFFFFFFFFFFFFFFFFFFFFFFFFFFFFFFF AND DUP2 MSTORE PUSH1 0x20 ADD PUSH1 0x1 DUP3 ADD PUSH1 0x0 SWAP1 SLOAD SWAP1 PUSH2 0x100 EXP SWAP1 DIV PUSH20 0xFFFFFFFFFFFFFFFFFFFFFFFFFFFFFFFFFFFFFFFF AND PUSH20 0xFFFFFFFFFFFFFFFFFFFFFFFFFFFFFFFFFFFFFFFF AND PUSH20 0xFFFFFFFFFFFFFFFFFFFFFFFFFFFFFFFFFFFFFFFF AND DUP2 MSTORE PUSH1 0x20 ADD PUSH1 0x1 DUP3 ADD PUSH1 0x14 SWAP1 SLOAD SWAP1 PUSH2 0x100 EXP SWAP1 DIV PUSH1 0xFF AND ISZERO ISZERO ISZERO ISZERO DUP2 MSTORE PUSH1 0x20 ADD PUSH1 0x2 DUP3 ADD PUSH1 0x0 SWAP1 SLOAD SWAP1 PUSH2 0x100 EXP SWAP1 DIV PUSH20 0xFFFFFFFFFFFFFFFFFFFFFFFFFFFFFFFFFFFFFFFF AND PUSH20 0xFFFFFFFFFFFFFFFFFFFFFFFFFFFFFFFFFFFFFFFF AND PUSH20 0xFFFFFFFFFFFFFFFFFFFFFFFFFFFFFFFFFFFFFFFF AND DUP2 MSTORE PUSH1 0x20 ADD PUSH1 0x3 DUP3 ADD SLOAD DUP2 MSTORE PUSH1 0x20 ADD PUSH1 0x4 DUP3 ADD SLOAD DUP2 MSTORE PUSH1 0x20 ADD PUSH1 0x5 DUP3 ADD SLOAD DUP2 MSTORE PUSH1 0x20 ADD PUSH1 0x6 DUP3 ADD SLOAD DUP2 MSTORE POP POP SWAP1 POP PUSH2 0x6CB DUP2 PUSH2 0x1960 JUMP JUMPDEST PUSH2 0x70A JUMPI PUSH1 0x40 MLOAD PUSH32 0x8C379A000000000000000000000000000000000000000000000000000000000 DUP2 MSTORE PUSH1 0x4 ADD PUSH2 0x701 SWAP1 PUSH2 0x2007 JUMP JUMPDEST PUSH1 0x40 MLOAD DUP1 SWAP2 SUB SWAP1 REVERT JUMPDEST CALLER PUSH20 0xFFFFFFFFFFFFFFFFFFFFFFFFFFFFFFFFFFFFFFFF AND DUP2 PUSH1 0x0 ADD MLOAD PUSH20 0xFFFFFFFFFFFFFFFFFFFFFFFFFFFFFFFFFFFFFFFF AND EQ PUSH2 0x74A JUMPI PUSH2 0x749 PUSH2 0x2027 JUMP JUMPDEST JUMPDEST PUSH1 0x0 DUP1 DUP3 PUSH1 0xE0 ADD MLOAD SWAP1 POP DUP3 PUSH1 0x40 ADD MLOAD ISZERO PUSH2 0x775 JUMPI DUP3 PUSH1 0x80 ADD MLOAD DUP3 PUSH2 0x76E SWAP2 SWAP1 PUSH2 0x2085 JUMP JUMPDEST SWAP2 POP PUSH2 0x788 JUMP JUMPDEST DUP3 PUSH1 0x80 ADD MLOAD DUP2 PUSH2 0x785 SWAP2 SWAP1 PUSH2 0x2085 JUMP JUMPDEST SWAP1 POP JUMPDEST PUSH1 0x5 PUSH1 0x0 CALLER PUSH20 0xFFFFFFFFFFFFFFFFFFFFFFFFFFFFFFFFFFFFFFFF AND PUSH20 0xFFFFFFFFFFFFFFFFFFFFFFFFFFFFFFFFFFFFFFFF AND DUP2 MSTORE PUSH1 0x20 ADD SWAP1 DUP2 MSTORE PUSH1 0x20 ADD PUSH1 0x0 KECCAK256 PUSH1 0x0 DUP6 DUP2 MSTORE PUSH1 0x20 ADD SWAP1 DUP2 MSTORE PUSH1 0x20 ADD PUSH1 0x0 KECCAK256 PUSH1 0x0 DUP1 DUP3 ADD PUSH1 0x0 PUSH2 0x100 EXP DUP2 SLOAD SWAP1 PUSH20 0xFFFFFFFFFFFFFFFFFFFFFFFFFFFFFFFFFFFFFFFF MUL NOT AND SWAP1 SSTORE PUSH1 0x1 DUP3 ADD PUSH1 0x0 PUSH2 0x100 EXP DUP2 SLOAD SWAP1 PUSH20 0xFFFFFFFFFFFFFFFFFFFFFFFFFFFFFFFFFFFFFFFF MUL NOT AND SWAP1 SSTORE PUSH1 0x1 DUP3 ADD PUSH1 0x14 PUSH2 0x100 EXP DUP2 SLOAD SWAP1 PUSH1 0xFF MUL NOT AND SWAP1 SSTORE PUSH1 0x2 DUP3 ADD PUSH1 0x0 PUSH2 0x100 EXP DUP2 SLOAD SWAP1 PUSH20 0xFFFFFFFFFFFFFFFFFFFFFFFFFFFFFFFFFFFFFFFF MUL NOT AND SWAP1 SSTORE PUSH1 0x3 DUP3 ADD PUSH1 0x0 SWAP1 SSTORE PUSH1 0x4 DUP3 ADD PUSH1 0x0 SWAP1 SSTORE PUSH1 0x5 DUP3 ADD PUSH1 0x0 SWAP1 SSTORE PUSH1 0x6 DUP3 ADD PUSH1 0x0 SWAP1 SSTORE POP POP CALLER PUSH20 0xFFFFFFFFFFFFFFFFFFFFFFFFFFFFFFFFFFFFFFFF AND PUSH2 0x8FC DUP3 SWAP1 DUP2 ISZERO MUL SWAP1 PUSH1 0x40 MLOAD PUSH1 0x0 PUSH1 0x40 MLOAD DUP1 DUP4 SUB DUP2 DUP6 DUP9 DUP9 CALL SWAP4 POP POP POP POP PUSH2 0x8C2 JUMPI PUSH1 0x0 DUP1 REVERT JUMPDEST DUP3 PUSH1 0x60 ADD MLOAD PUSH20 0xFFFFFFFFFFFFFFFFFFFFFFFFFFFFFFFFFFFFFFFF AND PUSH4 0x23B872DD ADDRESS CALLER DUP6 PUSH1 0x40 MLOAD DUP5 PUSH4 0xFFFFFFFF AND PUSH1 0xE0 SHL DUP2 MSTORE PUSH1 0x4 ADD PUSH2 0x903 SWAP4 SWAP3 SWAP2 SWAP1 PUSH2 0x20B9 JUMP JUMPDEST PUSH1 0x20 PUSH1 0x40 MLOAD DUP1 DUP4 SUB DUP2 PUSH1 0x0 DUP8 GAS CALL ISZERO DUP1 ISZERO PUSH2 0x922 JUMPI RETURNDATASIZE PUSH1 0x0 DUP1 RETURNDATACOPY RETURNDATASIZE PUSH1 0x0 REVERT JUMPDEST POP POP POP POP PUSH1 0x40 MLOAD RETURNDATASIZE PUSH1 0x1F NOT PUSH1 0x1F DUP3 ADD AND DUP3 ADD DUP1 PUSH1 0x40 MSTORE POP DUP2 ADD SWAP1 PUSH2 0x946 SWAP2 SWAP1 PUSH2 0x211C JUMP JUMPDEST PUSH2 0x94F JUMPI PUSH1 0x0 DUP1 REVERT JUMPDEST POP POP POP PUSH2 0x95A PUSH2 0x199D JUMP JUMPDEST POP JUMP JUMPDEST PUSH2 0x965 PUSH2 0x1893 JUMP JUMPDEST PUSH2 0x96D PUSH2 0x1911 JUMP JUMPDEST DUP1 PUSH1 0x4 SLOAD LT ISZERO PUSH2 0x9B2 JUMPI PUSH1 0x40 MLOAD PUSH32 0x8C379A000000000000000000000000000000000000000000000000000000000 DUP2 MSTORE PUSH1 0x4 ADD PUSH2 0x9A9 SWAP1 PUSH2 0x21E1 JUMP JUMPDEST PUSH1 0x40 MLOAD DUP1 SWAP2 SUB SWAP1 REVERT JUMPDEST DUP1 PUSH1 0x4 PUSH1 0x0 DUP3 DUP3 SLOAD PUSH2 0x9C4 SWAP2 SWAP1 PUSH2 0x2201 JUMP JUMPDEST SWAP3 POP POP DUP2 SWAP1 SSTORE POP CALLER PUSH20 0xFFFFFFFFFFFFFFFFFFFFFFFFFFFFFFFFFFFFFFFF AND PUSH2 0x8FC DUP3 SWAP1 DUP2 ISZERO MUL SWAP1 PUSH1 0x40 MLOAD PUSH1 0x0 PUSH1 0x40 MLOAD DUP1 DUP4 SUB DUP2 DUP6 DUP9 DUP9 CALL SWAP4 POP POP POP POP PUSH2 0xA09 JUMPI PUSH1 0x0 DUP1 REVERT JUMPDEST PUSH2 0xA11 PUSH2 0x199D JUMP JUMPDEST POP JUMP JUMPDEST PUSH1 0x5 PUSH1 0x20 MSTORE DUP2 PUSH1 0x0 MSTORE PUSH1 0x40 PUSH1 0x0 KECCAK256 PUSH1 0x20 MSTORE DUP1 PUSH1 0x0 MSTORE PUSH1 0x40 PUSH1 0x0 KECCAK256 PUSH1 0x0 SWAP2 POP SWAP2 POP POP DUP1 PUSH1 0x0 ADD PUSH1 0x0 SWAP1 SLOAD SWAP1 PUSH2 0x100 EXP SWAP1 DIV PUSH20 0xFFFFFFFFFFFFFFFFFFFFFFFFFFFFFFFFFFFFFFFF AND SWAP1 DUP1 PUSH1 0x1 ADD PUSH1 0x0 SWAP1 SLOAD SWAP1 PUSH2 0x100 EXP SWAP1 DIV PUSH20 0xFFFFFFFFFFFFFFFFFFFFFFFFFFFFFFFFFFFFFFFF AND SWAP1 DUP1 PUSH1 0x1 ADD PUSH1 0x14 SWAP1 SLOAD SWAP1 PUSH2 0x100 EXP SWAP1 DIV PUSH1 0xFF AND SWAP1 DUP1 PUSH1 0x2 ADD PUSH1 0x0 SWAP1 SLOAD SWAP1 PUSH2 0x100 EXP SWAP1 DIV PUSH20 0xFFFFFFFFFFFFFFFFFFFFFFFFFFFFFFFFFFFFFFFF AND SWAP1 DUP1 PUSH1 0x3 ADD SLOAD SWAP1 DUP1 PUSH1 0x4 ADD SLOAD SWAP1 DUP1 PUSH1 0x5 ADD SLOAD SWAP1 DUP1 PUSH1 0x6 ADD SLOAD SWAP1 POP DUP9 JUMP JUMPDEST PUSH2 0xADE PUSH2 0x1893 JUMP JUMPDEST PUSH2 0xAE8 PUSH1 0x0 PUSH2 0x19A6 JUMP JUMPDEST JUMP JUMPDEST PUSH1 0x7 PUSH1 0x20 MSTORE DUP1 PUSH1 0x0 MSTORE PUSH1 0x40 PUSH1 0x0 KECCAK256 PUSH1 0x0 SWAP2 POP SLOAD SWAP1 PUSH2 0x100 EXP SWAP1 DIV PUSH20 0xFFFFFFFFFFFFFFFFFFFFFFFFFFFFFFFFFFFFFFFF AND DUP2 JUMP JUMPDEST PUSH2 0xB25 PUSH2 0x1893 JUMP JUMPDEST JUMP JUMPDEST PUSH2 0xB2F PUSH2 0x1893 JUMP JUMPDEST DUP1 PUSH1 0x2 DUP2 SWAP1 SSTORE POP PUSH2 0xB3E PUSH2 0x1A6A JUMP JUMPDEST POP JUMP JUMPDEST PUSH1 0x3 SLOAD DUP2 JUMP JUMPDEST PUSH2 0xB4F PUSH2 0x1911 JUMP JUMPDEST PUSH1 0x0 PUSH20 0xFFFFFFFFFFFFFFFFFFFFFFFFFFFFFFFFFFFFFFFF AND CALLER PUSH20 0xFFFFFFFFFFFFFFFFFFFFFFFFFFFFFFFFFFFFFFFF AND SUB PUSH2 0xBBE JUMPI PUSH1 0x40 MLOAD PUSH32 0x8C379A000000000000000000000000000000000000000000000000000000000 DUP2 MSTORE PUSH1 0x4 ADD PUSH2 0xBB5 SWAP1 PUSH2 0x2281 JUMP JUMPDEST PUSH1 0x40 MLOAD DUP1 SWAP2 SUB SWAP1 REVERT JUMPDEST PUSH1 0x0 PUSH20 0xFFFFFFFFFFFFFFFFFFFFFFFFFFFFFFFFFFFFFFFF AND DUP4 PUSH20 0xFFFFFFFFFFFFFFFFFFFFFFFFFFFFFFFFFFFFFFFF AND SUB PUSH2 0xC2D JUMPI PUSH1 0x40 MLOAD PUSH32 0x8C379A000000000000000000000000000000000000000000000000000000000 DUP2 MSTORE PUSH1 0x4 ADD PUSH2 0xC24 SWAP1 PUSH2 0x2313 JUMP JUMPDEST PUSH1 0x40 MLOAD DUP1 SWAP2 SUB SWAP1 REVERT JUMPDEST PUSH1 0x0 DUP3 GT PUSH2 0xC70 JUMPI PUSH1 0x40 MLOAD PUSH32 0x8C379A000000000000000000000000000000000000000000000000000000000 DUP2 MSTORE PUSH1 0x4 ADD PUSH2 0xC67 SWAP1 PUSH2 0x23A5 JUMP JUMPDEST PUSH1 0x40 MLOAD DUP1 SWAP2 SUB SWAP1 REVERT JUMPDEST PUSH1 0x3 SLOAD CALLVALUE LT ISZERO PUSH2 0xCB5 JUMPI PUSH1 0x40 MLOAD PUSH32 0x8C379A000000000000000000000000000000000000000000000000000000000 DUP2 MSTORE PUSH1 0x4 ADD PUSH2 0xCAC SWAP1 PUSH2 0x2437 JUMP JUMPDEST PUSH1 0x40 MLOAD DUP1 SWAP2 SUB SWAP1 REVERT JUMPDEST PUSH1 0x0 DUP1 DUP6 EQ ISZERO SWAP1 POP PUSH1 0x0 DUP2 ISZERO PUSH2 0xDDF JUMPI PUSH1 0x0 PUSH20 0xFFFFFFFFFFFFFFFFFFFFFFFFFFFFFFFFFFFFFFFF AND PUSH1 0x7 PUSH1 0x0 DUP10 PUSH20 0xFFFFFFFFFFFFFFFFFFFFFFFFFFFFFFFFFFFFFFFF AND PUSH20 0xFFFFFFFFFFFFFFFFFFFFFFFFFFFFFFFFFFFFFFFF AND DUP2 MSTORE PUSH1 0x20 ADD SWAP1 DUP2 MSTORE PUSH1 0x20 ADD PUSH1 0x0 KECCAK256 PUSH1 0x0 SWAP1 SLOAD SWAP1 PUSH2 0x100 EXP SWAP1 DIV PUSH20 0xFFFFFFFFFFFFFFFFFFFFFFFFFFFFFFFFFFFFFFFF AND PUSH20 0xFFFFFFFFFFFFFFFFFFFFFFFFFFFFFFFFFFFFFFFF AND SUB PUSH2 0xD93 JUMPI PUSH1 0x40 MLOAD PUSH32 0x8C379A000000000000000000000000000000000000000000000000000000000 DUP2 MSTORE PUSH1 0x4 ADD PUSH2 0xD8A SWAP1 PUSH2 0x24A3 JUMP JUMPDEST PUSH1 0x40 MLOAD DUP1 SWAP2 SUB SWAP1 REVERT JUMPDEST PUSH1 0x3 SLOAD CALLVALUE EQ PUSH2 0xDD7 JUMPI PUSH1 0x40 MLOAD PUSH32 0x8C379A000000000000000000000000000000000000000000000000000000000 DUP2 MSTORE PUSH1 0x4 ADD PUSH2 0xDCE SWAP1 PUSH2 0x2535 JUMP JUMPDEST PUSH1 0x40 MLOAD DUP1 SWAP2 SUB SWAP1 REVERT JUMPDEST DUP6 SWAP1 POP PUSH2 0xE5F JUMP JUMPDEST PUSH1 0x0 PUSH20 0xFFFFFFFFFFFFFFFFFFFFFFFFFFFFFFFFFFFFFFFF AND DUP8 PUSH20 0xFFFFFFFFFFFFFFFFFFFFFFFFFFFFFFFFFFFFFFFF AND EQ PUSH2 0xE4E JUMPI PUSH1 0x40 MLOAD PUSH32 0x8C379A000000000000000000000000000000000000000000000000000000000 DUP2 MSTORE PUSH1 0x4 ADD PUSH2 0xE45 SWAP1 PUSH2 0x25C7 JUMP JUMPDEST PUSH1 0x40 MLOAD DUP1 SWAP2 SUB SWAP1 REVERT JUMPDEST PUSH1 0x3 SLOAD CALLVALUE PUSH2 0xE5C SWAP2 SWAP1 PUSH2 0x2201 JUMP JUMPDEST SWAP1 POP JUMPDEST DUP3 DUP2 LT ISZERO PUSH2 0xEA2 JUMPI PUSH1 0x40 MLOAD PUSH32 0x8C379A000000000000000000000000000000000000000000000000000000000 DUP2 MSTORE PUSH1 0x4 ADD PUSH2 0xE99 SWAP1 PUSH2 0x267F JUMP JUMPDEST PUSH1 0x40 MLOAD DUP1 SWAP2 SUB SWAP1 REVERT JUMPDEST PUSH2 0x104B PUSH1 0x5 PUSH1 0x0 CALLER PUSH20 0xFFFFFFFFFFFFFFFFFFFFFFFFFFFFFFFFFFFFFFFF AND PUSH20 0xFFFFFFFFFFFFFFFFFFFFFFFFFFFFFFFFFFFFFFFF AND DUP2 MSTORE PUSH1 0x20 ADD SWAP1 DUP2 MSTORE PUSH1 0x20 ADD PUSH1 0x0 KECCAK256 PUSH1 0x0 DUP11 DUP2 MSTORE PUSH1 0x20 ADD SWAP1 DUP2 MSTORE PUSH1 0x20 ADD PUSH1 0x0 KECCAK256 PUSH1 0x40 MLOAD DUP1 PUSH2 0x100 ADD PUSH1 0x40 MSTORE SWAP1 DUP2 PUSH1 0x0 DUP3 ADD PUSH1 0x0 SWAP1 SLOAD SWAP1 PUSH2 0x100 EXP SWAP1 DIV PUSH20 0xFFFFFFFFFFFFFFFFFFFFFFFFFFFFFFFFFFFFFFFF AND PUSH20 0xFFFFFFFFFFFFFFFFFFFFFFFFFFFFFFFFFFFFFFFF AND PUSH20 0xFFFFFFFFFFFFFFFFFFFFFFFFFFFFFFFFFFFFFFFF AND DUP2 MSTORE PUSH1 0x20 ADD PUSH1 0x1 DUP3 ADD PUSH1 0x0 SWAP1 SLOAD SWAP1 PUSH2 0x100 EXP SWAP1 DIV PUSH20 0xFFFFFFFFFFFFFFFFFFFFFFFFFFFFFFFFFFFFFFFF AND PUSH20 0xFFFFFFFFFFFFFFFFFFFFFFFFFFFFFFFFFFFFFFFF AND PUSH20 0xFFFFFFFFFFFFFFFFFFFFFFFFFFFFFFFFFFFFFFFF AND DUP2 MSTORE PUSH1 0x20 ADD PUSH1 0x1 DUP3 ADD PUSH1 0x14 SWAP1 SLOAD SWAP1 PUSH2 0x100 EXP SWAP1 DIV PUSH1 0xFF AND ISZERO ISZERO ISZERO ISZERO DUP2 MSTORE PUSH1 0x20 ADD PUSH1 0x2 DUP3 ADD PUSH1 0x0 SWAP1 SLOAD SWAP1 PUSH2 0x100 EXP SWAP1 DIV PUSH20 0xFFFFFFFFFFFFFFFFFFFFFFFFFFFFFFFFFFFFFFFF AND PUSH20 0xFFFFFFFFFFFFFFFFFFFFFFFFFFFFFFFFFFFFFFFF AND PUSH20 0xFFFFFFFFFFFFFFFFFFFFFFFFFFFFFFFFFFFFFFFF AND DUP2 MSTORE PUSH1 0x20 ADD PUSH1 0x3 DUP3 ADD SLOAD DUP2 MSTORE PUSH1 0x20 ADD PUSH1 0x4 DUP3 ADD SLOAD DUP2 MSTORE PUSH1 0x20 ADD PUSH1 0x5 DUP3 ADD SLOAD DUP2 MSTORE PUSH1 0x20 ADD PUSH1 0x6 DUP3 ADD SLOAD DUP2 MSTORE POP POP PUSH2 0x1960 JUMP JUMPDEST ISZERO PUSH2 0x108B JUMPI PUSH1 0x40 MLOAD PUSH32 0x8C379A000000000000000000000000000000000000000000000000000000000 DUP2 MSTORE PUSH1 0x4 ADD PUSH2 0x1082 SWAP1 PUSH2 0x2711 JUMP JUMPDEST PUSH1 0x40 MLOAD DUP1 SWAP2 SUB SWAP1 REVERT JUMPDEST PUSH2 0x1093 PUSH2 0x1AB3 JUMP JUMPDEST PUSH1 0x40 MLOAD DUP1 PUSH2 0x100 ADD PUSH1 0x40 MSTORE DUP1 CALLER PUSH20 0xFFFFFFFFFFFFFFFFFFFFFFFFFFFFFFFFFFFFFFFF AND DUP2 MSTORE PUSH1 0x20 ADD DUP7 PUSH20 0xFFFFFFFFFFFFFFFFFFFFFFFFFFFFFFFFFFFFFFFF AND DUP2 MSTORE PUSH1 0x20 ADD DUP4 ISZERO ISZERO DUP2 MSTORE PUSH1 0x20 ADD DUP9 PUSH20 0xFFFFFFFFFFFFFFFFFFFFFFFFFFFFFFFFFFFFFFFF AND DUP2 MSTORE PUSH1 0x20 ADD DUP3 DUP2 MSTORE PUSH1 0x20 ADD DUP5 DUP2 MSTORE PUSH1 0x20 ADD DUP6 DUP2 MSTORE PUSH1 0x20 ADD PUSH1 0x2 SLOAD DUP2 MSTORE POP PUSH1 0x5 PUSH1 0x0 CALLER PUSH20 0xFFFFFFFFFFFFFFFFFFFFFFFFFFFFFFFFFFFFFFFF AND PUSH20 0xFFFFFFFFFFFFFFFFFFFFFFFFFFFFFFFFFFFFFFFF AND DUP2 MSTORE PUSH1 0x20 ADD SWAP1 DUP2 MSTORE PUSH1 0x20 ADD PUSH1 0x0 KECCAK256 PUSH1 0x0 DUP11 DUP2 MSTORE PUSH1 0x20 ADD SWAP1 DUP2 MSTORE PUSH1 0x20 ADD PUSH1 0x0 KECCAK256 PUSH1 0x0 DUP3 ADD MLOAD DUP2 PUSH1 0x0 ADD PUSH1 0x0 PUSH2 0x100 EXP DUP2 SLOAD DUP2 PUSH20 0xFFFFFFFFFFFFFFFFFFFFFFFFFFFFFFFFFFFFFFFF MUL NOT AND SWAP1 DUP4 PUSH20 0xFFFFFFFFFFFFFFFFFFFFFFFFFFFFFFFFFFFFFFFF AND MUL OR SWAP1 SSTORE POP PUSH1 0x20 DUP3 ADD MLOAD DUP2 PUSH1 0x1 ADD PUSH1 0x0 PUSH2 0x100 EXP DUP2 SLOAD DUP2 PUSH20 0xFFFFFFFFFFFFFFFFFFFFFFFFFFFFFFFFFFFFFFFF MUL NOT AND SWAP1 DUP4 PUSH20 0xFFFFFFFFFFFFFFFFFFFFFFFFFFFFFFFFFFFFFFFF AND MUL OR SWAP1 SSTORE POP PUSH1 0x40 DUP3 ADD MLOAD DUP2 PUSH1 0x1 ADD PUSH1 0x14 PUSH2 0x100 EXP DUP2 SLOAD DUP2 PUSH1 0xFF MUL NOT AND SWAP1 DUP4 ISZERO ISZERO MUL OR SWAP1 SSTORE POP PUSH1 0x60 DUP3 ADD MLOAD DUP2 PUSH1 0x2 ADD PUSH1 0x0 PUSH2 0x100 EXP DUP2 SLOAD DUP2 PUSH20 0xFFFFFFFFFFFFFFFFFFFFFFFFFFFFFFFFFFFFFFFF MUL NOT AND SWAP1 DUP4 PUSH20 0xFFFFFFFFFFFFFFFFFFFFFFFFFFFFFFFFFFFFFFFF AND MUL OR SWAP1 SSTORE POP PUSH1 0x80 DUP3 ADD MLOAD DUP2 PUSH1 0x3 ADD SSTORE PUSH1 0xA0 DUP3 ADD MLOAD DUP2 PUSH1 0x4 ADD SSTORE PUSH1 0xC0 DUP3 ADD MLOAD DUP2 PUSH1 0x5 ADD SSTORE PUSH1 0xE0 DUP3 ADD MLOAD DUP2 PUSH1 0x6 ADD SSTORE SWAP1 POP POP DUP2 ISZERO PUSH2 0x1313 JUMPI DUP7 PUSH20 0xFFFFFFFFFFFFFFFFFFFFFFFFFFFFFFFFFFFFFFFF AND PUSH4 0x23B872DD CALLER ADDRESS DUP5 PUSH1 0x40 MLOAD DUP5 PUSH4 0xFFFFFFFF AND PUSH1 0xE0 SHL DUP2 MSTORE PUSH1 0x4 ADD PUSH2 0x12C6 SWAP4 SWAP3 SWAP2 SWAP1 PUSH2 0x20B9 JUMP JUMPDEST PUSH1 0x20 PUSH1 0x40 MLOAD DUP1 DUP4 SUB DUP2 PUSH1 0x0 DUP8 GAS CALL ISZERO DUP1 ISZERO PUSH2 0x12E5 JUMPI RETURNDATASIZE PUSH1 0x0 DUP1 RETURNDATACOPY RETURNDATASIZE PUSH1 0x0 REVERT JUMPDEST POP POP POP POP PUSH1 0x40 MLOAD RETURNDATASIZE PUSH1 0x1F NOT PUSH1 0x1F DUP3 ADD AND DUP3 ADD DUP1 PUSH1 0x40 MSTORE POP DUP2 ADD SWAP1 PUSH2 0x1309 SWAP2 SWAP1 PUSH2 0x211C JUMP JUMPDEST PUSH2 0x1312 JUMPI PUSH1 0x0 DUP1 REVERT JUMPDEST JUMPDEST POP POP PUSH2 0x131D PUSH2 0x199D JUMP JUMPDEST POP POP POP POP POP POP JUMP JUMPDEST PUSH1 0x0 DUP1 PUSH1 0x0 SWAP1 SLOAD SWAP1 PUSH2 0x100 EXP SWAP1 DIV PUSH20 0xFFFFFFFFFFFFFFFFFFFFFFFFFFFFFFFFFFFFFFFF AND SWAP1 POP SWAP1 JUMP JUMPDEST PUSH2 0x1356 PUSH2 0x1893 JUMP JUMPDEST DUP1 PUSH1 0x3 DUP2 SWAP1 SSTORE POP PUSH2 0x1365 PUSH2 0x1A6A JUMP JUMPDEST POP JUMP JUMPDEST PUSH1 0x4 SLOAD DUP2 JUMP JUMPDEST PUSH1 0x6 SLOAD DUP2 JUMP JUMPDEST PUSH2 0x137C PUSH2 0x1893 JUMP JUMPDEST PUSH2 0x1384 PUSH2 0x1911 JUMP JUMPDEST PUSH1 0x0 PUSH1 0x5 PUSH1 0x0 DUP10 PUSH20 0xFFFFFFFFFFFFFFFFFFFFFFFFFFFFFFFFFFFFFFFF AND PUSH20 0xFFFFFFFFFFFFFFFFFFFFFFFFFFFFFFFFFFFFFFFF AND DUP2 MSTORE PUSH1 0x20 ADD SWAP1 DUP2 MSTORE PUSH1 0x20 ADD PUSH1 0x0 KECCAK256 PUSH1 0x0 DUP9 DUP2 MSTORE PUSH1 0x20 ADD SWAP1 DUP2 MSTORE PUSH1 0x20 ADD PUSH1 0x0 KECCAK256 PUSH1 0x40 MLOAD DUP1 PUSH2 0x100 ADD PUSH1 0x40 MSTORE SWAP1 DUP2 PUSH1 0x0 DUP3 ADD PUSH1 0x0 SWAP1 SLOAD SWAP1 PUSH2 0x100 EXP SWAP1 DIV PUSH20 0xFFFFFFFFFFFFFFFFFFFFFFFFFFFFFFFFFFFFFFFF AND PUSH20 0xFFFFFFFFFFFFFFFFFFFFFFFFFFFFFFFFFFFFFFFF AND PUSH20 0xFFFFFFFFFFFFFFFFFFFFFFFFFFFFFFFFFFFFFFFF AND DUP2 MSTORE PUSH1 0x20 ADD PUSH1 0x1 DUP3 ADD PUSH1 0x0 SWAP1 SLOAD SWAP1 PUSH2 0x100 EXP SWAP1 DIV PUSH20 0xFFFFFFFFFFFFFFFFFFFFFFFFFFFFFFFFFFFFFFFF AND PUSH20 0xFFFFFFFFFFFFFFFFFFFFFFFFFFFFFFFFFFFFFFFF AND PUSH20 0xFFFFFFFFFFFFFFFFFFFFFFFFFFFFFFFFFFFFFFFF AND DUP2 MSTORE PUSH1 0x20 ADD PUSH1 0x1 DUP3 ADD PUSH1 0x14 SWAP1 SLOAD SWAP1 PUSH2 0x100 EXP SWAP1 DIV PUSH1 0xFF AND ISZERO ISZERO ISZERO ISZERO DUP2 MSTORE PUSH1 0x20 ADD PUSH1 0x2 DUP3 ADD PUSH1 0x0 SWAP1 SLOAD SWAP1 PUSH2 0x100 EXP SWAP1 DIV PUSH20 0xFFFFFFFFFFFFFFFFFFFFFFFFFFFFFFFFFFFFFFFF AND PUSH20 0xFFFFFFFFFFFFFFFFFFFFFFFFFFFFFFFFFFFFFFFF AND PUSH20 0xFFFFFFFFFFFFFFFFFFFFFFFFFFFFFFFFFFFFFFFF AND DUP2 MSTORE PUSH1 0x20 ADD PUSH1 0x3 DUP3 ADD SLOAD DUP2 MSTORE PUSH1 0x20 ADD PUSH1 0x4 DUP3 ADD SLOAD DUP2 MSTORE PUSH1 0x20 ADD PUSH1 0x5 DUP3 ADD SLOAD DUP2 MSTORE PUSH1 0x20 ADD PUSH1 0x6 DUP3 ADD SLOAD DUP2 MSTORE POP POP SWAP1 POP PUSH2 0x1532 DUP2 PUSH2 0x1960 JUMP JUMPDEST PUSH2 0x1571 JUMPI PUSH1 0x40 MLOAD PUSH32 0x8C379A000000000000000000000000000000000000000000000000000000000 DUP2 MSTORE PUSH1 0x4 ADD PUSH2 0x1568 SWAP1 PUSH2 0x277D JUMP JUMPDEST PUSH1 0x40 MLOAD DUP1 SWAP2 SUB SWAP1 REVERT JUMPDEST DUP6 DUP2 PUSH1 0x80 ADD MLOAD LT ISZERO PUSH2 0x15B8 JUMPI PUSH1 0x40 MLOAD PUSH32 0x8C379A000000000000000000000000000000000000000000000000000000000 DUP2 MSTORE PUSH1 0x4 ADD PUSH2 0x15AF SWAP1 PUSH2 0x27E9 JUMP JUMPDEST PUSH1 0x40 MLOAD DUP1 SWAP2 SUB SWAP1 REVERT JUMPDEST PUSH1 0x0 DUP2 PUSH1 0x40 ADD MLOAD PUSH2 0x15CD JUMPI DUP2 PUSH1 0x80 ADD MLOAD PUSH2 0x15D0 JUMP JUMPDEST PUSH1 0x0 JUMPDEST SWAP1 POP PUSH1 0x0 PUSH1 0x7 PUSH1 0x0 DUP5 PUSH1 0x60 ADD MLOAD PUSH20 0xFFFFFFFFFFFFFFFFFFFFFFFFFFFFFFFFFFFFFFFF AND PUSH20 0xFFFFFFFFFFFFFFFFFFFFFFFFFFFFFFFFFFFFFFFF AND DUP2 MSTORE PUSH1 0x20 ADD SWAP1 DUP2 MSTORE PUSH1 0x20 ADD PUSH1 0x0 KECCAK256 PUSH1 0x0 SWAP1 SLOAD SWAP1 PUSH2 0x100 EXP SWAP1 DIV PUSH20 0xFFFFFFFFFFFFFFFFFFFFFFFFFFFFFFFFFFFFFFFF AND SWAP1 POP PUSH1 0x5 PUSH1 0x0 DUP12 PUSH20 0xFFFFFFFFFFFFFFFFFFFFFFFFFFFFFFFFFFFFFFFF AND PUSH20 0xFFFFFFFFFFFFFFFFFFFFFFFFFFFFFFFFFFFFFFFF AND DUP2 MSTORE PUSH1 0x20 ADD SWAP1 DUP2 MSTORE PUSH1 0x20 ADD PUSH1 0x0 KECCAK256 PUSH1 0x0 DUP11 DUP2 MSTORE PUSH1 0x20 ADD SWAP1 DUP2 MSTORE PUSH1 0x20 ADD PUSH1 0x0 KECCAK256 PUSH1 0x0 DUP1 DUP3 ADD PUSH1 0x0 PUSH2 0x100 EXP DUP2 SLOAD SWAP1 PUSH20 0xFFFFFFFFFFFFFFFFFFFFFFFFFFFFFFFFFFFFFFFF MUL NOT AND SWAP1 SSTORE PUSH1 0x1 DUP3 ADD PUSH1 0x0 PUSH2 0x100 EXP DUP2 SLOAD SWAP1 PUSH20 0xFFFFFFFFFFFFFFFFFFFFFFFFFFFFFFFFFFFFFFFF MUL NOT AND SWAP1 SSTORE PUSH1 0x1 DUP3 ADD PUSH1 0x14 PUSH2 0x100 EXP DUP2 SLOAD SWAP1 PUSH1 0xFF MUL NOT AND SWAP1 SSTORE PUSH1 0x2 DUP3 ADD PUSH1 0x0 PUSH2 0x100 EXP DUP2 SLOAD SWAP1 PUSH20 0xFFFFFFFFFFFFFFFFFFFFFFFFFFFFFFFFFFFFFFFF MUL NOT AND SWAP1 SSTORE PUSH1 0x3 DUP3 ADD PUSH1 0x0 SWAP1 SSTORE PUSH1 0x4 DUP3 ADD PUSH1 0x0 SWAP1 SSTORE PUSH1 0x5 DUP3 ADD PUSH1 0x0 SWAP1 SSTORE PUSH1 0x6 DUP3 ADD PUSH1 0x0 SWAP1 SSTORE POP POP DUP1 PUSH20 0xFFFFFFFFFFFFFFFFFFFFFFFFFFFFFFFFFFFFFFFF AND PUSH4 0xEEA0D7B2 DUP4 PUSH1 0x6 SLOAD DUP7 PUSH1 0x20 ADD MLOAD DUP8 PUSH1 0x80 ADD MLOAD DUP14 DUP14 DUP14 DUP14 DUP14 PUSH1 0x40 MLOAD DUP11 PUSH4 0xFFFFFFFF AND PUSH1 0xE0 SHL DUP2 MSTORE PUSH1 0x4 ADD PUSH2 0x1788 SWAP9 SWAP8 SWAP7 SWAP6 SWAP5 SWAP4 SWAP3 SWAP2 SWAP1 PUSH2 0x2809 JUMP JUMPDEST PUSH1 0x0 PUSH1 0x40 MLOAD DUP1 DUP4 SUB DUP2 DUP6 DUP9 DUP1 EXTCODESIZE ISZERO DUP1 ISZERO PUSH2 0x17A1 JUMPI PUSH1 0x0 DUP1 REVERT JUMPDEST POP GAS CALL ISZERO DUP1 ISZERO PUSH2 0x17B5 JUMPI RETURNDATASIZE PUSH1 0x0 DUP1 RETURNDATACOPY RETURNDATASIZE PUSH1 0x0 REVERT JUMPDEST POP POP POP POP POP CALLER PUSH20 0xFFFFFFFFFFFFFFFFFFFFFFFFFFFFFFFFFFFFFFFF AND PUSH2 0x8FC DUP5 PUSH1 0xE0 ADD MLOAD SWAP1 DUP2 ISZERO MUL SWAP1 PUSH1 0x40 MLOAD PUSH1 0x0 PUSH1 0x40 MLOAD DUP1 DUP4 SUB DUP2 DUP6 DUP9 DUP9 CALL SWAP4 POP POP POP POP PUSH2 0x17FC JUMPI PUSH1 0x0 DUP1 REVERT JUMPDEST POP POP POP PUSH2 0x1807 PUSH2 0x199D JUMP JUMPDEST POP POP POP POP POP POP POP JUMP JUMPDEST PUSH2 0x1818 PUSH2 0x1893 JUMP JUMPDEST PUSH1 0x0 PUSH20 0xFFFFFFFFFFFFFFFFFFFFFFFFFFFFFFFFFFFFFFFF AND DUP2 PUSH20 0xFFFFFFFFFFFFFFFFFFFFFFFFFFFFFFFFFFFFFFFF AND SUB PUSH2 0x1887 JUMPI PUSH1 0x40 MLOAD PUSH32 0x8C379A000000000000000000000000000000000000000000000000000000000 DUP2 MSTORE PUSH1 0x4 ADD PUSH2 0x187E SWAP1 PUSH2 0x28F9 JUMP JUMPDEST PUSH1 0x40 MLOAD DUP1 SWAP2 SUB SWAP1 REVERT JUMPDEST PUSH2 0x1890 DUP2 PUSH2 0x19A6 JUMP JUMPDEST POP JUMP JUMPDEST PUSH2 0x189B PUSH2 0x1ADD JUMP JUMPDEST PUSH20 0xFFFFFFFFFFFFFFFFFFFFFFFFFFFFFFFFFFFFFFFF AND PUSH2 0x18B9 PUSH2 0x1325 JUMP JUMPDEST PUSH20 0xFFFFFFFFFFFFFFFFFFFFFFFFFFFFFFFFFFFFFFFF AND EQ PUSH2 0x190F JUMPI PUSH1 0x40 MLOAD PUSH32 0x8C379A000000000000000000000000000000000000000000000000000000000 DUP2 MSTORE PUSH1 0x4 ADD PUSH2 0x1906 SWAP1 PUSH2 0x2965 JUMP JUMPDEST PUSH1 0x40 MLOAD DUP1 SWAP2 SUB SWAP1 REVERT JUMPDEST JUMP JUMPDEST PUSH1 0x2 PUSH1 0x1 SLOAD SUB PUSH2 0x1956 JUMPI PUSH1 0x40 MLOAD PUSH32 0x8C379A000000000000000000000000000000000000000000000000000000000 DUP2 MSTORE PUSH1 0x4 ADD PUSH2 0x194D SWAP1 PUSH2 0x29D1 JUMP JUMPDEST PUSH1 0x40 MLOAD DUP1 SWAP2 SUB SWAP1 REVERT JUMPDEST PUSH1 0x2 PUSH1 0x1 DUP2 SWAP1 SSTORE POP JUMP JUMPDEST PUSH1 0x0 DUP1 PUSH20 0xFFFFFFFFFFFFFFFFFFFFFFFFFFFFFFFFFFFFFFFF AND DUP3 PUSH1 0x0 ADD MLOAD PUSH20 0xFFFFFFFFFFFFFFFFFFFFFFFFFFFFFFFFFFFFFFFF AND EQ ISZERO SWAP1 POP SWAP2 SWAP1 POP JUMP JUMPDEST PUSH1 0x1 DUP1 DUP2 SWAP1 SSTORE POP JUMP JUMPDEST PUSH1 0x0 DUP1 PUSH1 0x0 SWAP1 SLOAD SWAP1 PUSH2 0x100 EXP SWAP1 DIV PUSH20 0xFFFFFFFFFFFFFFFFFFFFFFFFFFFFFFFFFFFFFFFF AND SWAP1 POP DUP2 PUSH1 0x0 DUP1 PUSH2 0x100 EXP DUP2 SLOAD DUP2 PUSH20 0xFFFFFFFFFFFFFFFFFFFFFFFFFFFFFFFFFFFFFFFF MUL NOT AND SWAP1 DUP4 PUSH20 0xFFFFFFFFFFFFFFFFFFFFFFFFFFFFFFFFFFFFFFFF AND MUL OR SWAP1 SSTORE POP DUP2 PUSH20 0xFFFFFFFFFFFFFFFFFFFFFFFFFFFFFFFFFFFFFFFF AND DUP2 PUSH20 0xFFFFFFFFFFFFFFFFFFFFFFFFFFFFFFFFFFFFFFFF AND PUSH32 0x8BE0079C531659141344CD1FD0A4F28419497F9722A3DAAFE3B4186F6B6457E0 PUSH1 0x40 MLOAD PUSH1 0x40 MLOAD DUP1 SWAP2 SUB SWAP1 LOG3 POP POP JUMP JUMPDEST PUSH1 0x2 SLOAD PUSH1 0x3 SLOAD LT ISZERO PUSH2 0x1AB1 JUMPI PUSH1 0x40 MLOAD PUSH32 0x8C379A000000000000000000000000000000000000000000000000000000000 DUP2 MSTORE PUSH1 0x4 ADD PUSH2 0x1AA8 SWAP1 PUSH2 0x2A63 JUMP JUMPDEST PUSH1 0x40 MLOAD DUP1 SWAP2 SUB SWAP1 REVERT JUMPDEST JUMP JUMPDEST PUSH1 0x2 SLOAD PUSH1 0x3 SLOAD PUSH2 0x1AC3 SWAP2 SWAP1 PUSH2 0x2201 JUMP JUMPDEST PUSH1 0x4 PUSH1 0x0 DUP3 DUP3 SLOAD PUSH2 0x1AD4 SWAP2 SWAP1 PUSH2 0x2085 JUMP JUMPDEST SWAP3 POP POP DUP2 SWAP1 SSTORE POP JUMP JUMPDEST PUSH1 0x0 CALLER SWAP1 POP SWAP1 JUMP JUMPDEST PUSH1 0x0 DUP1 REVERT JUMPDEST PUSH1 0x0 PUSH20 0xFFFFFFFFFFFFFFFFFFFFFFFFFFFFFFFFFFFFFFFF DUP3 AND SWAP1 POP SWAP2 SWAP1 POP JUMP JUMPDEST PUSH1 0x0 PUSH2 0x1B15 DUP3 PUSH2 0x1AEA JUMP JUMPDEST SWAP1 POP SWAP2 SWAP1 POP JUMP JUMPDEST PUSH1 0x0 PUSH2 0x1B27 DUP3 PUSH2 0x1B0A JUMP JUMPDEST SWAP1 POP SWAP2 SWAP1 POP JUMP JUMPDEST PUSH2 0x1B37 DUP2 PUSH2 0x1B1C JUMP JUMPDEST DUP2 EQ PUSH2 0x1B42 JUMPI PUSH1 0x0 DUP1 REVERT JUMPDEST POP JUMP JUMPDEST PUSH1 0x0 DUP2 CALLDATALOAD SWAP1 POP PUSH2 0x1B54 DUP2 PUSH2 0x1B2E JUMP JUMPDEST SWAP3 SWAP2 POP POP JUMP JUMPDEST PUSH2 0x1B63 DUP2 PUSH2 0x1B0A JUMP JUMPDEST DUP2 EQ PUSH2 0x1B6E JUMPI PUSH1 0x0 DUP1 REVERT JUMPDEST POP JUMP JUMPDEST PUSH1 0x0 DUP2 CALLDATALOAD SWAP1 POP PUSH2 0x1B80 DUP2 PUSH2 0x1B5A JUMP JUMPDEST SWAP3 SWAP2 POP POP JUMP JUMPDEST PUSH1 0x0 DUP1 PUSH1 0x40 DUP4 DUP6 SUB SLT ISZERO PUSH2 0x1B9D JUMPI PUSH2 0x1B9C PUSH2 0x1AE5 JUMP JUMPDEST JUMPDEST PUSH1 0x0 PUSH2 0x1BAB DUP6 DUP3 DUP7 ADD PUSH2 0x1B45 JUMP JUMPDEST SWAP3 POP POP PUSH1 0x20 PUSH2 0x1BBC DUP6 DUP3 DUP7 ADD PUSH2 0x1B71 JUMP JUMPDEST SWAP2 POP POP SWAP3 POP SWAP3 SWAP1 POP JUMP JUMPDEST PUSH1 0x0 DUP2 SWAP1 POP SWAP2 SWAP1 POP JUMP JUMPDEST PUSH2 0x1BD9 DUP2 PUSH2 0x1BC6 JUMP JUMPDEST DUP3 MSTORE POP POP JUMP JUMPDEST PUSH1 0x0 PUSH1 0x20 DUP3 ADD SWAP1 POP PUSH2 0x1BF4 PUSH1 0x0 DUP4 ADD DUP5 PUSH2 0x1BD0 JUMP JUMPDEST SWAP3 SWAP2 POP POP JUMP JUMPDEST PUSH2 0x1C03 DUP2 PUSH2 0x1BC6 JUMP JUMPDEST DUP2 EQ PUSH2 0x1C0E JUMPI PUSH1 0x0 DUP1 REVERT JUMPDEST POP JUMP JUMPDEST PUSH1 0x0 DUP2 CALLDATALOAD SWAP1 POP PUSH2 0x1C20 DUP2 PUSH2 0x1BFA JUMP JUMPDEST SWAP3 SWAP2 POP POP JUMP JUMPDEST PUSH1 0x0 PUSH1 0x20 DUP3 DUP5 SUB SLT ISZERO PUSH2 0x1C3C JUMPI PUSH2 0x1C3B PUSH2 0x1AE5 JUMP JUMPDEST JUMPDEST PUSH1 0x0 PUSH2 0x1C4A DUP5 DUP3 DUP6 ADD PUSH2 0x1C11 JUMP JUMPDEST SWAP2 POP POP SWAP3 SWAP2 POP POP JUMP JUMPDEST PUSH1 0x0 DUP1 PUSH1 0x40 DUP4 DUP6 SUB SLT ISZERO PUSH2 0x1C6A JUMPI PUSH2 0x1C69 PUSH2 0x1AE5 JUMP JUMPDEST JUMPDEST PUSH1 0x0 PUSH2 0x1C78 DUP6 DUP3 DUP7 ADD PUSH2 0x1B71 JUMP JUMPDEST SWAP3 POP POP PUSH1 0x20 PUSH2 0x1C89 DUP6 DUP3 DUP7 ADD PUSH2 0x1C11 JUMP JUMPDEST SWAP2 POP POP SWAP3 POP SWAP3 SWAP1 POP JUMP JUMPDEST PUSH2 0x1C9C DUP2 PUSH2 0x1B0A JUMP JUMPDEST DUP3 MSTORE POP POP JUMP JUMPDEST PUSH1 0x0 DUP2 ISZERO ISZERO SWAP1 POP SWAP2 SWAP1 POP JUMP JUMPDEST PUSH2 0x1CB7 DUP2 PUSH2 0x1CA2 JUMP JUMPDEST DUP3 MSTORE POP POP JUMP JUMPDEST PUSH1 0x0 DUP2 SWAP1 POP SWAP2 SWAP1 POP JUMP JUMPDEST PUSH1 0x0 PUSH2 0x1CE2 PUSH2 0x1CDD PUSH2 0x1CD8 DUP5 PUSH2 0x1AEA JUMP JUMPDEST PUSH2 0x1CBD JUMP JUMPDEST PUSH2 0x1AEA JUMP JUMPDEST SWAP1 POP SWAP2 SWAP1 POP JUMP JUMPDEST PUSH1 0x0 PUSH2 0x1CF4 DUP3 PUSH2 0x1CC7 JUMP JUMPDEST SWAP1 POP SWAP2 SWAP1 POP JUMP JUMPDEST PUSH1 0x0 PUSH2 0x1D06 DUP3 PUSH2 0x1CE9 JUMP JUMPDEST SWAP1 POP SWAP2 SWAP1 POP JUMP JUMPDEST PUSH2 0x1D16 DUP2 PUSH2 0x1CFB JUMP JUMPDEST DUP3 MSTORE POP POP JUMP JUMPDEST PUSH1 0x0 PUSH2 0x100 DUP3 ADD SWAP1 POP PUSH2 0x1D32 PUSH1 0x0 DUP4 ADD DUP12 PUSH2 0x1C93 JUMP JUMPDEST PUSH2 0x1D3F PUSH1 0x20 DUP4 ADD DUP11 PUSH2 0x1C93 JUMP JUMPDEST PUSH2 0x1D4C PUSH1 0x40 DUP4 ADD DUP10 PUSH2 0x1CAE JUMP JUMPDEST PUSH2 0x1D59 PUSH1 0x60 DUP4 ADD DUP9 PUSH2 0x1D0D JUMP JUMPDEST PUSH2 0x1D66 PUSH1 0x80 DUP4 ADD DUP8 PUSH2 0x1BD0 JUMP JUMPDEST PUSH2 0x1D73 PUSH1 0xA0 DUP4 ADD DUP7 PUSH2 0x1BD0 JUMP JUMPDEST PUSH2 0x1D80 PUSH1 0xC0 DUP4 ADD DUP6 PUSH2 0x1BD0 JUMP JUMPDEST PUSH2 0x1D8D PUSH1 0xE0 DUP4 ADD DUP5 PUSH2 0x1BD0 JUMP JUMPDEST SWAP10 SWAP9 POP POP POP POP POP POP POP POP POP JUMP JUMPDEST PUSH1 0x0 PUSH1 0x20 DUP3 DUP5 SUB SLT ISZERO PUSH2 0x1DB0 JUMPI PUSH2 0x1DAF PUSH2 0x1AE5 JUMP JUMPDEST JUMPDEST PUSH1 0x0 PUSH2 0x1DBE DUP5 DUP3 DUP6 ADD PUSH2 0x1B45 JUMP JUMPDEST SWAP2 POP POP SWAP3 SWAP2 POP POP JUMP JUMPDEST PUSH1 0x0 PUSH1 0x20 DUP3 ADD SWAP1 POP PUSH2 0x1DDC PUSH1 0x0 DUP4 ADD DUP5 PUSH2 0x1C93 JUMP JUMPDEST SWAP3 SWAP2 POP POP JUMP JUMPDEST PUSH1 0x0 DUP1 PUSH1 0x0 DUP1 PUSH1 0x0 DUP1 PUSH1 0xC0 DUP8 DUP10 SUB SLT ISZERO PUSH2 0x1DFF JUMPI PUSH2 0x1DFE PUSH2 0x1AE5 JUMP JUMPDEST JUMPDEST PUSH1 0x0 PUSH2 0x1E0D DUP10 DUP3 DUP11 ADD PUSH2 0x1C11 JUMP JUMPDEST SWAP7 POP POP PUSH1 0x20 PUSH2 0x1E1E DUP10 DUP3 DUP11 ADD PUSH2 0x1B45 JUMP JUMPDEST SWAP6 POP POP PUSH1 0x40 PUSH2 0x1E2F DUP10 DUP3 DUP11 ADD PUSH2 0x1C11 JUMP JUMPDEST SWAP5 POP POP PUSH1 0x60 PUSH2 0x1E40 DUP10 DUP3 DUP11 ADD PUSH2 0x1B71 JUMP JUMPDEST SWAP4 POP POP PUSH1 0x80 PUSH2 0x1E51 DUP10 DUP3 DUP11 ADD PUSH2 0x1C11 JUMP JUMPDEST SWAP3 POP POP PUSH1 0xA0 PUSH2 0x1E62 DUP10 DUP3 DUP11 ADD PUSH2 0x1C11 JUMP JUMPDEST SWAP2 POP POP SWAP3 SWAP6 POP SWAP3 SWAP6 POP SWAP3 SWAP6 JUMP JUMPDEST PUSH1 0x0 DUP1 PUSH1 0x0 DUP1 PUSH1 0x0 DUP1 PUSH1 0x0 PUSH1 0xE0 DUP9 DUP11 SUB SLT ISZERO PUSH2 0x1E8E JUMPI PUSH2 0x1E8D PUSH2 0x1AE5 JUMP JUMPDEST JUMPDEST PUSH1 0x0 PUSH2 0x1E9C DUP11 DUP3 DUP12 ADD PUSH2 0x1B71 JUMP JUMPDEST SWAP8 POP POP PUSH1 0x20 PUSH2 0x1EAD DUP11 DUP3 DUP12 ADD PUSH2 0x1C11 JUMP JUMPDEST SWAP7 POP POP PUSH1 0x40 PUSH2 0x1EBE DUP11 DUP3 DUP12 ADD PUSH2 0x1C11 JUMP JUMPDEST SWAP6 POP POP PUSH1 0x60 PUSH2 0x1ECF DUP11 DUP3 DUP12 ADD PUSH2 0x1C11 JUMP JUMPDEST SWAP5 POP POP PUSH1 0x80 PUSH2 0x1EE0 DUP11 DUP3 DUP12 ADD PUSH2 0x1C11 JUMP JUMPDEST SWAP4 POP POP PUSH1 0xA0 PUSH2 0x1EF1 DUP11 DUP3 DUP12 ADD PUSH2 0x1C11 JUMP JUMPDEST SWAP3 POP POP PUSH1 0xC0 PUSH2 0x1F02 DUP11 DUP3 DUP12 ADD PUSH2 0x1C11 JUMP JUMPDEST SWAP2 POP POP SWAP3 SWAP6 SWAP9 SWAP2 SWAP5 SWAP8 POP SWAP3 SWAP6 POP JUMP JUMPDEST PUSH1 0x0 PUSH1 0x20 DUP3 DUP5 SUB SLT ISZERO PUSH2 0x1F27 JUMPI PUSH2 0x1F26 PUSH2 0x1AE5 JUMP JUMPDEST JUMPDEST PUSH1 0x0 PUSH2 0x1F35 DUP5 DUP3 DUP6 ADD PUSH2 0x1B71 JUMP JUMPDEST SWAP2 POP POP SWAP3 SWAP2 POP POP JUMP JUMPDEST PUSH1 0x0 DUP3 DUP3 MSTORE PUSH1 0x20 DUP3 ADD SWAP1 POP SWAP3 SWAP2 POP POP JUMP JUMPDEST PUSH32 0x546F6B656E20616C726561647920737570706F727465642E0000000000000000 PUSH1 0x0 DUP3 ADD MSTORE POP JUMP JUMPDEST PUSH1 0x0 PUSH2 0x1F85 PUSH1 0x18 DUP4 PUSH2 0x1F3E JUMP JUMPDEST SWAP2 POP PUSH2 0x1F90 DUP3 PUSH2 0x1F4F JUMP JUMPDEST PUSH1 0x20 DUP3 ADD SWAP1 POP SWAP2 SWAP1 POP JUMP JUMPDEST PUSH1 0x0 PUSH1 0x20 DUP3 ADD SWAP1 POP DUP2 DUP2 SUB PUSH1 0x0 DUP4 ADD MSTORE PUSH2 0x1FB4 DUP2 PUSH2 0x1F78 JUMP JUMPDEST SWAP1 POP SWAP2 SWAP1 POP JUMP JUMPDEST PUSH32 0x4E6F207265717565737420746F2077697468647261772E000000000000000000 PUSH1 0x0 DUP3 ADD MSTORE POP JUMP JUMPDEST PUSH1 0x0 PUSH2 0x1FF1 PUSH1 0x17 DUP4 PUSH2 0x1F3E JUMP JUMPDEST SWAP2 POP PUSH2 0x1FFC DUP3 PUSH2 0x1FBB JUMP JUMPDEST PUSH1 0x20 DUP3 ADD SWAP1 POP SWAP2 SWAP1 POP JUMP JUMPDEST PUSH1 0x0 PUSH1 0x20 DUP3 ADD SWAP1 POP DUP2 DUP2 SUB PUSH1 0x0 DUP4 ADD MSTORE PUSH2 0x2020 DUP2 PUSH2 0x1FE4 JUMP JUMPDEST SWAP1 POP SWAP2 SWAP1 POP JUMP JUMPDEST PUSH32 0x4E487B7100000000000000000000000000000000000000000000000000000000 PUSH1 0x0 MSTORE PUSH1 0x1 PUSH1 0x4 MSTORE PUSH1 0x24 PUSH1 0x0 REVERT JUMPDEST PUSH32 0x4E487B7100000000000000000000000000000000000000000000000000000000 PUSH1 0x0 MSTORE PUSH1 0x11 PUSH1 0x4 MSTORE PUSH1 0x24 PUSH1 0x0 REVERT JUMPDEST PUSH1 0x0 PUSH2 0x2090 DUP3 PUSH2 0x1BC6 JUMP JUMPDEST SWAP2 POP PUSH2 0x209B DUP4 PUSH2 0x1BC6 JUMP JUMPDEST SWAP3 POP DUP3 DUP3 ADD SWAP1 POP DUP1 DUP3 GT ISZERO PUSH2 0x20B3 JUMPI PUSH2 0x20B2 PUSH2 0x2056 JUMP JUMPDEST JUMPDEST SWAP3 SWAP2 POP POP JUMP JUMPDEST PUSH1 0x0 PUSH1 0x60 DUP3 ADD SWAP1 POP PUSH2 0x20CE PUSH1 0x0 DUP4 ADD DUP7 PUSH2 0x1C93 JUMP JUMPDEST PUSH2 0x20DB PUSH1 0x20 DUP4 ADD DUP6 PUSH2 0x1C93 JUMP JUMPDEST PUSH2 0x20E8 PUSH1 0x40 DUP4 ADD DUP5 PUSH2 0x1BD0 JUMP JUMPDEST SWAP5 SWAP4 POP POP POP POP JUMP JUMPDEST PUSH2 0x20F9 DUP2 PUSH2 0x1CA2 JUMP JUMPDEST DUP2 EQ PUSH2 0x2104 JUMPI PUSH1 0x0 DUP1 REVERT JUMPDEST POP JUMP JUMPDEST PUSH1 0x0 DUP2 MLOAD SWAP1 POP PUSH2 0x2116 DUP2 PUSH2 0x20F0 JUMP JUMPDEST SWAP3 SWAP2 POP POP JUMP JUMPDEST PUSH1 0x0 PUSH1 0x20 DUP3 DUP5 SUB SLT ISZERO PUSH2 0x2132 JUMPI PUSH2 0x2131 PUSH2 0x1AE5 JUMP JUMPDEST JUMPDEST PUSH1 0x0 PUSH2 0x2140 DUP5 DUP3 DUP6 ADD PUSH2 0x2107 JUMP JUMPDEST SWAP2 POP POP SWAP3 SWAP2 POP POP JUMP JUMPDEST PUSH32 0x43616E6E6F74207769746864726177206D6F72652066756E6473207468616E20 PUSH1 0x0 DUP3 ADD MSTORE PUSH32 0x74686520636F6C6C6563746564206E6F6E206761732073657276696365206665 PUSH1 0x20 DUP3 ADD MSTORE PUSH32 0x65732E0000000000000000000000000000000000000000000000000000000000 PUSH1 0x40 DUP3 ADD MSTORE POP JUMP JUMPDEST PUSH1 0x0 PUSH2 0x21CB PUSH1 0x43 DUP4 PUSH2 0x1F3E JUMP JUMPDEST SWAP2 POP PUSH2 0x21D6 DUP3 PUSH2 0x2149 JUMP JUMPDEST PUSH1 0x60 DUP3 ADD SWAP1 POP SWAP2 SWAP1 POP JUMP JUMPDEST PUSH1 0x0 PUSH1 0x20 DUP3 ADD SWAP1 POP DUP2 DUP2 SUB PUSH1 0x0 DUP4 ADD MSTORE PUSH2 0x21FA DUP2 PUSH2 0x21BE JUMP JUMPDEST SWAP1 POP SWAP2 SWAP1 POP JUMP JUMPDEST PUSH1 0x0 PUSH2 0x220C DUP3 PUSH2 0x1BC6 JUMP JUMPDEST SWAP2 POP PUSH2 0x2217 DUP4 PUSH2 0x1BC6 JUMP JUMPDEST SWAP3 POP DUP3 DUP3 SUB SWAP1 POP DUP2 DUP2 GT ISZERO PUSH2 0x222F JUMPI PUSH2 0x222E PUSH2 0x2056 JUMP JUMPDEST JUMPDEST SWAP3 SWAP2 POP POP JUMP JUMPDEST PUSH32 0x53656E646572206D6179206E6F74206265203020616464726573730000000000 PUSH1 0x0 DUP3 ADD MSTORE POP JUMP JUMPDEST PUSH1 0x0 PUSH2 0x226B PUSH1 0x1B DUP4 PUSH2 0x1F3E JUMP JUMPDEST SWAP2 POP PUSH2 0x2276 DUP3 PUSH2 0x2235 JUMP JUMPDEST PUSH1 0x20 DUP3 ADD SWAP1 POP SWAP2 SWAP1 POP JUMP JUMPDEST PUSH1 0x0 PUSH1 0x20 DUP3 ADD SWAP1 POP DUP2 DUP2 SUB PUSH1 0x0 DUP4 ADD MSTORE PUSH2 0x229A DUP2 PUSH2 0x225E JUMP JUMPDEST SWAP1 POP SWAP2 SWAP1 POP JUMP JUMPDEST PUSH32 0x44657374696E6174696F6E2061646472657373206D6179206E6F742062652030 PUSH1 0x0 DUP3 ADD MSTORE PUSH32 0x2061646472657373000000000000000000000000000000000000000000000000 PUSH1 0x20 DUP3 ADD MSTORE POP JUMP JUMPDEST PUSH1 0x0 PUSH2 0x22FD PUSH1 0x28 DUP4 PUSH2 0x1F3E JUMP JUMPDEST SWAP2 POP PUSH2 0x2308 DUP3 PUSH2 0x22A1 JUMP JUMPDEST PUSH1 0x40 DUP3 ADD SWAP1 POP SWAP2 SWAP1 POP JUMP JUMPDEST PUSH1 0x0 PUSH1 0x20 DUP3 ADD SWAP1 POP DUP2 DUP2 SUB PUSH1 0x0 DUP4 ADD MSTORE PUSH2 0x232C DUP2 PUSH2 0x22F0 JUMP JUMPDEST SWAP1 POP SWAP2 SWAP1 POP JUMP JUMPDEST PUSH32 0x57616E746564204C3120676173207072696365206D7573742062652073747269 PUSH1 0x0 DUP3 ADD MSTORE PUSH32 0x63746C7920706F73697469766500000000000000000000000000000000000000 PUSH1 0x20 DUP3 ADD MSTORE POP JUMP JUMPDEST PUSH1 0x0 PUSH2 0x238F PUSH1 0x2D DUP4 PUSH2 0x1F3E JUMP JUMPDEST SWAP2 POP PUSH2 0x239A DUP3 PUSH2 0x2333 JUMP JUMPDEST PUSH1 0x40 DUP3 ADD SWAP1 POP SWAP2 SWAP1 POP JUMP JUMPDEST PUSH1 0x0 PUSH1 0x20 DUP3 ADD SWAP1 POP DUP2 DUP2 SUB PUSH1 0x0 DUP4 ADD MSTORE PUSH2 0x23BE DUP2 PUSH2 0x2382 JUMP JUMPDEST SWAP1 POP SWAP2 SWAP1 POP JUMP JUMPDEST PUSH32 0x4E6F7420656E6F7567682066756E647320746F2070617920666F722064656C61 PUSH1 0x0 DUP3 ADD MSTORE PUSH32 0x79656420657865637574696F6E00000000000000000000000000000000000000 PUSH1 0x20 DUP3 ADD MSTORE POP JUMP JUMPDEST PUSH1 0x0 PUSH2 0x2421 PUSH1 0x2D DUP4 PUSH2 0x1F3E JUMP JUMPDEST SWAP2 POP PUSH2 0x242C DUP3 PUSH2 0x23C5 JUMP JUMPDEST PUSH1 0x40 DUP3 ADD SWAP1 POP SWAP2 SWAP1 POP JUMP JUMPDEST PUSH1 0x0 PUSH1 0x20 DUP3 ADD SWAP1 POP DUP2 DUP2 SUB PUSH1 0x0 DUP4 ADD MSTORE PUSH2 0x2450 DUP2 PUSH2 0x2414 JUMP JUMPDEST SWAP1 POP SWAP2 SWAP1 POP JUMP JUMPDEST PUSH32 0x546F6B656E206973206E6F7420737570706F727465642E000000000000000000 PUSH1 0x0 DUP3 ADD MSTORE POP JUMP JUMPDEST PUSH1 0x0 PUSH2 0x248D PUSH1 0x17 DUP4 PUSH2 0x1F3E JUMP JUMPDEST SWAP2 POP PUSH2 0x2498 DUP3 PUSH2 0x2457 JUMP JUMPDEST PUSH1 0x20 DUP3 ADD SWAP1 POP SWAP2 SWAP1 POP JUMP JUMPDEST PUSH1 0x0 PUSH1 0x20 DUP3 ADD SWAP1 POP DUP2 DUP2 SUB PUSH1 0x0 DUP4 ADD MSTORE PUSH2 0x24BC DUP2 PUSH2 0x2480 JUMP JUMPDEST SWAP1 POP SWAP2 SWAP1 POP JUMP JUMPDEST PUSH32 0x466F7220746F6B656E206465706F736974732C20706179207468652073657276 PUSH1 0x0 DUP3 ADD MSTORE PUSH32 0x696365206665652065786163746C792E00000000000000000000000000000000 PUSH1 0x20 DUP3 ADD MSTORE POP JUMP JUMPDEST PUSH1 0x0 PUSH2 0x251F PUSH1 0x30 DUP4 PUSH2 0x1F3E JUMP JUMPDEST SWAP2 POP PUSH2 0x252A DUP3 PUSH2 0x24C3 JUMP JUMPDEST PUSH1 0x40 DUP3 ADD SWAP1 POP SWAP2 SWAP1 POP JUMP JUMPDEST PUSH1 0x0 PUSH1 0x20 DUP3 ADD SWAP1 POP DUP2 DUP2 SUB PUSH1 0x0 DUP4 ADD MSTORE PUSH2 0x254E DUP2 PUSH2 0x2512 JUMP JUMPDEST SWAP1 POP SWAP2 SWAP1 POP JUMP JUMPDEST PUSH32 0x546F6B656E206D757374206265203020616464726573732C207768656E206465 PUSH1 0x0 DUP3 ADD MSTORE PUSH32 0x706F736974696E67206E61746976652065746865722E00000000000000000000 PUSH1 0x20 DUP3 ADD MSTORE POP JUMP JUMPDEST PUSH1 0x0 PUSH2 0x25B1 PUSH1 0x36 DUP4 PUSH2 0x1F3E JUMP JUMPDEST SWAP2 POP PUSH2 0x25BC DUP3 PUSH2 0x2555 JUMP JUMPDEST PUSH1 0x40 DUP3 ADD SWAP1 POP SWAP2 SWAP1 POP JUMP JUMPDEST PUSH1 0x0 PUSH1 0x20 DUP3 ADD SWAP1 POP DUP2 DUP2 SUB PUSH1 0x0 DUP4 ADD MSTORE PUSH2 0x25E0 DUP2 PUSH2 0x25A4 JUMP JUMPDEST SWAP1 POP SWAP2 SWAP1 POP JUMP JUMPDEST PUSH32 0x43616C63756C617465642073656E7420616D6F756E74206D757374206265206C PUSH1 0x0 DUP3 ADD MSTORE PUSH32 0x6172676572207468616E207468652064657369726564206D696E696D756D2061 PUSH1 0x20 DUP3 ADD MSTORE PUSH32 0x6D6F756E74206172726976696E672061742064657374696E6174696F6E2E0000 PUSH1 0x40 DUP3 ADD MSTORE POP JUMP JUMPDEST PUSH1 0x0 PUSH2 0x2669 PUSH1 0x5E DUP4 PUSH2 0x1F3E JUMP JUMPDEST SWAP2 POP PUSH2 0x2674 DUP3 PUSH2 0x25E7 JUMP JUMPDEST PUSH1 0x60 DUP3 ADD SWAP1 POP SWAP2 SWAP1 POP JUMP JUMPDEST PUSH1 0x0 PUSH1 0x20 DUP3 ADD SWAP1 POP DUP2 DUP2 SUB PUSH1 0x0 DUP4 ADD MSTORE PUSH2 0x2698 DUP2 PUSH2 0x265C JUMP JUMPDEST SWAP1 POP SWAP2 SWAP1 POP JUMP JUMPDEST PUSH32 0x526571756573742077697468207468652073616D6520696420666F7220746865 PUSH1 0x0 DUP3 ADD MSTORE PUSH32 0x20726571756573746F7220616C7265616479206578697374732E000000000000 PUSH1 0x20 DUP3 ADD MSTORE POP JUMP JUMPDEST PUSH1 0x0 PUSH2 0x26FB PUSH1 0x3A DUP4 PUSH2 0x1F3E JUMP JUMPDEST SWAP2 POP PUSH2 0x2706 DUP3 PUSH2 0x269F JUMP JUMPDEST PUSH1 0x40 DUP3 ADD SWAP1 POP SWAP2 SWAP1 POP JUMP JUMPDEST PUSH1 0x0 PUSH1 0x20 DUP3 ADD SWAP1 POP DUP2 DUP2 SUB PUSH1 0x0 DUP4 ADD MSTORE PUSH2 0x272A DUP2 PUSH2 0x26EE JUMP JUMPDEST SWAP1 POP SWAP2 SWAP1 POP JUMP JUMPDEST PUSH32 0x4E6F207265717565737420746F2070726F636573730000000000000000000000 PUSH1 0x0 DUP3 ADD MSTORE POP JUMP JUMPDEST PUSH1 0x0 PUSH2 0x2767 PUSH1 0x15 DUP4 PUSH2 0x1F3E JUMP JUMPDEST SWAP2 POP PUSH2 0x2772 DUP3 PUSH2 0x2731 JUMP JUMPDEST PUSH1 0x20 DUP3 ADD SWAP1 POP SWAP2 SWAP1 POP JUMP JUMPDEST PUSH1 0x0 PUSH1 0x20 DUP3 ADD SWAP1 POP DUP2 DUP2 SUB PUSH1 0x0 DUP4 ADD MSTORE PUSH2 0x2796 DUP2 PUSH2 0x275A JUMP JUMPDEST SWAP1 POP SWAP2 SWAP1 POP JUMP JUMPDEST PUSH32 0x426F6E646572206665652063616E6E6F742065786365656420616D6F756E742E PUSH1 0x0 DUP3 ADD MSTORE POP JUMP JUMPDEST PUSH1 0x0 PUSH2 0x27D3 PUSH1 0x20 DUP4 PUSH2 0x1F3E JUMP JUMPDEST SWAP2 POP PUSH2 0x27DE DUP3 PUSH2 0x279D JUMP JUMPDEST PUSH1 0x20 DUP3 ADD SWAP1 POP SWAP2 SWAP1 POP JUMP JUMPDEST PUSH1 0x0 PUSH1 0x20 DUP3 ADD SWAP1 POP DUP2 DUP2 SUB PUSH1 0x0 DUP4 ADD MSTORE PUSH2 0x2802 DUP2 PUSH2 0x27C6 JUMP JUMPDEST SWAP1 POP SWAP2 SWAP1 POP JUMP JUMPDEST PUSH1 0x0 PUSH2 0x100 DUP3 ADD SWAP1 POP PUSH2 0x281F PUSH1 0x0 DUP4 ADD DUP12 PUSH2 0x1BD0 JUMP JUMPDEST PUSH2 0x282C PUSH1 0x20 DUP4 ADD DUP11 PUSH2 0x1C93 JUMP JUMPDEST PUSH2 0x2839 PUSH1 0x40 DUP4 ADD DUP10 PUSH2 0x1BD0 JUMP JUMPDEST PUSH2 0x2846 PUSH1 0x60 DUP4 ADD DUP9 PUSH2 0x1BD0 JUMP JUMPDEST PUSH2 0x2853 PUSH1 0x80 DUP4 ADD DUP8 PUSH2 0x1BD0 JUMP JUMPDEST PUSH2 0x2860 PUSH1 0xA0 DUP4 ADD DUP7 PUSH2 0x1BD0 JUMP JUMPDEST PUSH2 0x286D PUSH1 0xC0 DUP4 ADD DUP6 PUSH2 0x1BD0 JUMP JUMPDEST PUSH2 0x287A PUSH1 0xE0 DUP4 ADD DUP5 PUSH2 0x1BD0 JUMP JUMPDEST SWAP10 SWAP9 POP POP POP POP POP POP POP POP POP JUMP JUMPDEST PUSH32 0x4F776E61626C653A206E6577206F776E657220697320746865207A65726F2061 PUSH1 0x0 DUP3 ADD MSTORE PUSH32 0x6464726573730000000000000000000000000000000000000000000000000000 PUSH1 0x20 DUP3 ADD MSTORE POP JUMP JUMPDEST PUSH1 0x0 PUSH2 0x28E3 PUSH1 0x26 DUP4 PUSH2 0x1F3E JUMP JUMPDEST SWAP2 POP PUSH2 0x28EE DUP3 PUSH2 0x2887 JUMP JUMPDEST PUSH1 0x40 DUP3 ADD SWAP1 POP SWAP2 SWAP1 POP JUMP JUMPDEST PUSH1 0x0 PUSH1 0x20 DUP3 ADD SWAP1 POP DUP2 DUP2 SUB PUSH1 0x0 DUP4 ADD MSTORE PUSH2 0x2912 DUP2 PUSH2 0x28D6 JUMP JUMPDEST SWAP1 POP SWAP2 SWAP1 POP JUMP JUMPDEST PUSH32 0x4F776E61626C653A2063616C6C6572206973206E6F7420746865206F776E6572 PUSH1 0x0 DUP3 ADD MSTORE POP JUMP JUMPDEST PUSH1 0x0 PUSH2 0x294F PUSH1 0x20 DUP4 PUSH2 0x1F3E JUMP JUMPDEST SWAP2 POP PUSH2 0x295A DUP3 PUSH2 0x2919 JUMP JUMPDEST PUSH1 0x20 DUP3 ADD SWAP1 POP SWAP2 SWAP1 POP JUMP JUMPDEST PUSH1 0x0 PUSH1 0x20 DUP3 ADD SWAP1 POP DUP2 DUP2 SUB PUSH1 0x0 DUP4 ADD MSTORE PUSH2 0x297E DUP2 PUSH2 0x2942 JUMP JUMPDEST SWAP1 POP SWAP2 SWAP1 POP JUMP JUMPDEST PUSH32 0x5265656E7472616E637947756172643A207265656E7472616E742063616C6C00 PUSH1 0x0 DUP3 ADD MSTORE POP JUMP JUMPDEST PUSH1 0x0 PUSH2 0x29BB PUSH1 0x1F DUP4 PUSH2 0x1F3E JUMP JUMPDEST SWAP2 POP PUSH2 0x29C6 DUP3 PUSH2 0x2985 JUMP JUMPDEST PUSH1 0x20 DUP3 ADD SWAP1 POP SWAP2 SWAP1 POP JUMP JUMPDEST PUSH1 0x0 PUSH1 0x20 DUP3 ADD SWAP1 POP DUP2 DUP2 SUB PUSH1 0x0 DUP4 ADD MSTORE PUSH2 0x29EA DUP2 PUSH2 0x29AE JUMP JUMPDEST SWAP1 POP SWAP2 SWAP1 POP JUMP JUMPDEST PUSH32 0x5365727669636520666565206D75737420636F766572206174206C6561737420 PUSH1 0x0 DUP3 ADD MSTORE PUSH32 0x74686520657865637574696F6E2067617320726571756972656D656E742E0000 PUSH1 0x20 DUP3 ADD MSTORE POP JUMP JUMPDEST PUSH1 0x0 PUSH2 0x2A4D PUSH1 0x3E DUP4 PUSH2 0x1F3E JUMP JUMPDEST SWAP2 POP PUSH2 0x2A58 DUP3 PUSH2 0x29F1 JUMP JUMPDEST PUSH1 0x40 DUP3 ADD SWAP1 POP SWAP2 SWAP1 POP JUMP JUMPDEST PUSH1 0x0 PUSH1 0x20 DUP3 ADD SWAP1 POP DUP2 DUP2 SUB PUSH1 0x0 DUP4 ADD MSTORE PUSH2 0x2A7C DUP2 PUSH2 0x2A40 JUMP JUMPDEST SWAP1 POP SWAP2 SWAP1 POP JUMP INVALID LOG2 PUSH5 0x6970667358 0x22 SLT KECCAK256 0xC8 0x1E 0xE5 0xB9 EXTCODESIZE 0xD7 SHR 0x2D KECCAK256 0xEE DUP7 PUSH8 0xBDE814C85C1E2301 0x2E SWAP3 0xE8 SWAP3 0xE2 0xDB SSTORE LOG0 0xA9 DUP10 SWAP5 0x22 PUSH5 0x736F6C6343 STOP ADDMOD SLT STOP CALLER "
				},
				"gasEstimates": {
					"creation": {
						"codeDepositCost": "2187400",
						"executionCost": "infinite",
						"totalCost": "infinite"
					},
					"external": {
						"addSupportForNewToken(address,address)": "infinite",
						"bridgeContractOf(address)": "infinite",
						"collectedServiceFeeExcludingGas()": "2473",
						"deposit(uint256,address,uint256,address,uint256,uint256)": "infinite",
						"executeRequest(address,uint256,uint256,uint256,uint256,uint256,uint256)": "infinite",
						"l2execGasFeeDeposit()": "2475",
						"layer1ChainId()": "2495",
						"owner()": "2611",
						"ownerDeposit()": "2753",
						"ownerWithdraw(uint256)": "infinite",
						"pendingRequests(address,uint256)": "infinite",
						"renounceOwnership()": "30443",
						"serviceFee()": "2474",
						"setL2execGasFeeDeposit(uint256)": "29353",
						"setserviceFee(uint256)": "29352",
						"transferOwnership(address)": "30854",
						"withdraw(uint256)": "infinite"
					},
					"internal": {
						"checkFeeInvariants()": "infinite",
						"isDefined(struct BridgeRequest memory)": "infinite",
						"recordCollectedServiceFeeExcludingGas()": "infinite"
					}
				},
				"methodIdentifiers": {
					"addSupportForNewToken(address,address)": "1485351e",
					"bridgeContractOf(address)": "7394e49c",
					"collectedServiceFeeExcludingGas()": "a1f66306",
					"deposit(uint256,address,uint256,address,uint256,uint256)": "8c13bc08",
					"executeRequest(address,uint256,uint256,uint256,uint256,uint256,uint256)": "d043ba19",
					"l2execGasFeeDeposit()": "242f4046",
					"layer1ChainId()": "b6502943",
					"owner()": "8da5cb5b",
					"ownerDeposit()": "7b1aa45f",
					"ownerWithdraw(uint256)": "33f707d1",
					"pendingRequests(address,uint256)": "488ff1c8",
					"renounceOwnership()": "715018a6",
					"serviceFee()": "8abdf5aa",
					"setL2execGasFeeDeposit(uint256)": "87d6161b",
					"setserviceFee(uint256)": "a191078a",
					"transferOwnership(address)": "f2fde38b",
					"withdraw(uint256)": "2e1a7d4d"
				}
			},
			"storageLayout": {
				"storage": [
					{
						"astId": 7,
						"contract": "solidity/contracts/BridgewhenCheap.sol:BridgeWhenCheap",
						"label": "_owner",
						"offset": 0,
						"slot": "0",
						"type": "t_address"
					},
					{
						"astId": 123,
						"contract": "solidity/contracts/BridgewhenCheap.sol:BridgeWhenCheap",
						"label": "_status",
						"offset": 0,
						"slot": "1",
						"type": "t_uint256"
					},
					{
						"astId": 297,
						"contract": "solidity/contracts/BridgewhenCheap.sol:BridgeWhenCheap",
						"label": "l2execGasFeeDeposit",
						"offset": 0,
						"slot": "2",
						"type": "t_uint256"
					},
					{
						"astId": 299,
						"contract": "solidity/contracts/BridgewhenCheap.sol:BridgeWhenCheap",
						"label": "serviceFee",
						"offset": 0,
						"slot": "3",
						"type": "t_uint256"
					},
					{
						"astId": 301,
						"contract": "solidity/contracts/BridgewhenCheap.sol:BridgeWhenCheap",
						"label": "collectedServiceFeeExcludingGas",
						"offset": 0,
						"slot": "4",
						"type": "t_uint256"
					},
					{
						"astId": 308,
						"contract": "solidity/contracts/BridgewhenCheap.sol:BridgeWhenCheap",
						"label": "pendingRequests",
						"offset": 0,
						"slot": "5",
						"type": "t_mapping(t_address,t_mapping(t_uint256,t_struct(BridgeRequest)290_storage))"
					},
					{
						"astId": 310,
						"contract": "solidity/contracts/BridgewhenCheap.sol:BridgeWhenCheap",
						"label": "layer1ChainId",
						"offset": 0,
						"slot": "6",
						"type": "t_uint256"
					},
					{
						"astId": 315,
						"contract": "solidity/contracts/BridgewhenCheap.sol:BridgeWhenCheap",
						"label": "bridgeContractOf",
						"offset": 0,
						"slot": "7",
						"type": "t_mapping(t_contract(IERC20)244,t_address)"
					}
				],
				"types": {
					"t_address": {
						"encoding": "inplace",
						"label": "address",
						"numberOfBytes": "20"
					},
					"t_bool": {
						"encoding": "inplace",
						"label": "bool",
						"numberOfBytes": "1"
					},
					"t_contract(IERC20)244": {
						"encoding": "inplace",
						"label": "contract IERC20",
						"numberOfBytes": "20"
					},
					"t_mapping(t_address,t_mapping(t_uint256,t_struct(BridgeRequest)290_storage))": {
						"encoding": "mapping",
						"key": "t_address",
						"label": "mapping(address => mapping(uint256 => struct BridgeRequest))",
						"numberOfBytes": "32",
						"value": "t_mapping(t_uint256,t_struct(BridgeRequest)290_storage)"
					},
					"t_mapping(t_contract(IERC20)244,t_address)": {
						"encoding": "mapping",
						"key": "t_contract(IERC20)244",
						"label": "mapping(contract IERC20 => address)",
						"numberOfBytes": "32",
						"value": "t_address"
					},
					"t_mapping(t_uint256,t_struct(BridgeRequest)290_storage)": {
						"encoding": "mapping",
						"key": "t_uint256",
						"label": "mapping(uint256 => struct BridgeRequest)",
						"numberOfBytes": "32",
						"value": "t_struct(BridgeRequest)290_storage"
					},
					"t_struct(BridgeRequest)290_storage": {
						"encoding": "inplace",
						"label": "struct BridgeRequest",
						"members": [
							{
								"astId": 274,
								"contract": "solidity/contracts/BridgewhenCheap.sol:BridgeWhenCheap",
								"label": "source",
								"offset": 0,
								"slot": "0",
								"type": "t_address"
							},
							{
								"astId": 276,
								"contract": "solidity/contracts/BridgewhenCheap.sol:BridgeWhenCheap",
								"label": "destination",
								"offset": 0,
								"slot": "1",
								"type": "t_address"
							},
							{
								"astId": 278,
								"contract": "solidity/contracts/BridgewhenCheap.sol:BridgeWhenCheap",
								"label": "isTokenTransfer",
								"offset": 20,
								"slot": "1",
								"type": "t_bool"
							},
							{
								"astId": 281,
								"contract": "solidity/contracts/BridgewhenCheap.sol:BridgeWhenCheap",
								"label": "token",
								"offset": 0,
								"slot": "2",
								"type": "t_contract(IERC20)244"
							},
							{
								"astId": 283,
								"contract": "solidity/contracts/BridgewhenCheap.sol:BridgeWhenCheap",
								"label": "amount",
								"offset": 0,
								"slot": "3",
								"type": "t_uint256"
							},
							{
								"astId": 285,
								"contract": "solidity/contracts/BridgewhenCheap.sol:BridgeWhenCheap",
								"label": "amountOutMin",
								"offset": 0,
								"slot": "4",
								"type": "t_uint256"
							},
							{
								"astId": 287,
								"contract": "solidity/contracts/BridgewhenCheap.sol:BridgeWhenCheap",
								"label": "wantedL1GasPrice",
								"offset": 0,
								"slot": "5",
								"type": "t_uint256"
							},
							{
								"astId": 289,
								"contract": "solidity/contracts/BridgewhenCheap.sol:BridgeWhenCheap",
								"label": "l2execGasFeeDeposit",
								"offset": 0,
								"slot": "6",
								"type": "t_uint256"
							}
						],
						"numberOfBytes": "224"
					},
					"t_uint256": {
						"encoding": "inplace",
						"label": "uint256",
						"numberOfBytes": "32"
					}
				}
			},
			"userdoc": {
				"kind": "user",
				"methods": {},
				"version": 1
			}
		}
	}
}