{
	"solidity/contracts/BridgeWhenCheap.sol": {
		"BridgeWhenCheap": {
			"abi": [
				{
					"inputs": [
						{
							"internalType": "uint256",
							"name": "_l2execGasFeeDeposit",
							"type": "uint256"
						},
						{
							"internalType": "uint256",
							"name": "_serviceFee",
							"type": "uint256"
						},
						{
							"internalType": "uint256",
							"name": "_layer1ChainId",
							"type": "uint256"
						}
					],
					"stateMutability": "nonpayable",
					"type": "constructor"
				},
				{
					"anonymous": false,
					"inputs": [
						{
							"indexed": true,
							"internalType": "address",
							"name": "previousOwner",
							"type": "address"
						},
						{
							"indexed": true,
							"internalType": "address",
							"name": "newOwner",
							"type": "address"
						}
					],
					"name": "OwnershipTransferred",
					"type": "event"
				},
				{
					"inputs": [
						{
							"internalType": "contract IERC20",
							"name": "token",
							"type": "address"
						},
						{
							"internalType": "address",
							"name": "tokenHopBridge",
							"type": "address"
						}
					],
					"name": "addSupportForNewToken",
					"outputs": [],
					"stateMutability": "nonpayable",
					"type": "function"
				},
				{
					"inputs": [
						{
							"internalType": "contract IERC20",
							"name": "",
							"type": "address"
						}
					],
					"name": "bridgeContractOf",
					"outputs": [
						{
							"internalType": "address",
							"name": "",
							"type": "address"
						}
					],
					"stateMutability": "view",
					"type": "function"
				},
				{
					"inputs": [],
					"name": "collectedServiceFeeExcludingGas",
					"outputs": [
						{
							"internalType": "uint256",
							"name": "",
							"type": "uint256"
						}
					],
					"stateMutability": "view",
					"type": "function"
				},
				{
					"inputs": [
						{
							"internalType": "uint256",
							"name": "requestId",
							"type": "uint256"
						},
						{
							"internalType": "contract IERC20",
							"name": "token",
							"type": "address"
						},
						{
							"internalType": "uint256",
							"name": "tokenAmount",
							"type": "uint256"
						},
						{
							"internalType": "address",
							"name": "destination",
							"type": "address"
						},
						{
							"internalType": "uint256",
							"name": "wantedL1GasPrice",
							"type": "uint256"
						},
						{
							"internalType": "uint256",
							"name": "amountOutMin",
							"type": "uint256"
						}
					],
					"name": "deposit",
					"outputs": [],
					"stateMutability": "payable",
					"type": "function"
				},
				{
					"inputs": [
						{
							"internalType": "address",
							"name": "requestor",
							"type": "address"
						},
						{
							"internalType": "uint256",
							"name": "requestId",
							"type": "uint256"
						},
						{
							"internalType": "uint256",
							"name": "bonderFee",
							"type": "uint256"
						},
						{
							"internalType": "uint256",
							"name": "amountOutMin",
							"type": "uint256"
						},
						{
							"internalType": "uint256",
							"name": "deadline",
							"type": "uint256"
						},
						{
							"internalType": "uint256",
							"name": "destAmountOutMin",
							"type": "uint256"
						},
						{
							"internalType": "uint256",
							"name": "destDeadline",
							"type": "uint256"
						}
					],
					"name": "executeRequest",
					"outputs": [],
					"stateMutability": "nonpayable",
					"type": "function"
				},
				{
					"inputs": [],
					"name": "l2execGasFeeDeposit",
					"outputs": [
						{
							"internalType": "uint256",
							"name": "",
							"type": "uint256"
						}
					],
					"stateMutability": "view",
					"type": "function"
				},
				{
					"inputs": [],
					"name": "layer1ChainId",
					"outputs": [
						{
							"internalType": "uint256",
							"name": "",
							"type": "uint256"
						}
					],
					"stateMutability": "view",
					"type": "function"
				},
				{
					"inputs": [],
					"name": "owner",
					"outputs": [
						{
							"internalType": "address",
							"name": "",
							"type": "address"
						}
					],
					"stateMutability": "view",
					"type": "function"
				},
				{
					"inputs": [],
					"name": "ownerDeposit",
					"outputs": [],
					"stateMutability": "payable",
					"type": "function"
				},
				{
					"inputs": [
						{
							"internalType": "uint256",
							"name": "amount",
							"type": "uint256"
						}
					],
					"name": "ownerWithdraw",
					"outputs": [],
					"stateMutability": "nonpayable",
					"type": "function"
				},
				{
					"inputs": [
						{
							"internalType": "address",
							"name": "",
							"type": "address"
						},
						{
							"internalType": "uint256",
							"name": "",
							"type": "uint256"
						}
					],
					"name": "pendingRequests",
					"outputs": [
						{
							"internalType": "address",
							"name": "source",
							"type": "address"
						},
						{
							"internalType": "address",
							"name": "destination",
							"type": "address"
						},
						{
							"internalType": "bool",
							"name": "isTokenTransfer",
							"type": "bool"
						},
						{
							"internalType": "contract IERC20",
							"name": "token",
							"type": "address"
						},
						{
							"internalType": "uint256",
							"name": "amount",
							"type": "uint256"
						},
						{
							"internalType": "uint256",
							"name": "amountOutMin",
							"type": "uint256"
						},
						{
							"internalType": "uint256",
							"name": "wantedL1GasPrice",
							"type": "uint256"
						},
						{
							"internalType": "uint256",
							"name": "l2execGasFeeDeposit",
							"type": "uint256"
						}
					],
					"stateMutability": "view",
					"type": "function"
				},
				{
					"inputs": [],
					"name": "renounceOwnership",
					"outputs": [],
					"stateMutability": "nonpayable",
					"type": "function"
				},
				{
					"inputs": [],
					"name": "serviceFee",
					"outputs": [
						{
							"internalType": "uint256",
							"name": "",
							"type": "uint256"
						}
					],
					"stateMutability": "view",
					"type": "function"
				},
				{
					"inputs": [
						{
							"internalType": "uint256",
							"name": "amount",
							"type": "uint256"
						}
					],
					"name": "setL2execGasFeeDeposit",
					"outputs": [],
					"stateMutability": "nonpayable",
					"type": "function"
				},
				{
					"inputs": [
						{
							"internalType": "uint256",
							"name": "amount",
							"type": "uint256"
						}
					],
					"name": "setserviceFee",
					"outputs": [],
					"stateMutability": "nonpayable",
					"type": "function"
				},
				{
					"inputs": [
						{
							"internalType": "address",
							"name": "newOwner",
							"type": "address"
						}
					],
					"name": "transferOwnership",
					"outputs": [],
					"stateMutability": "nonpayable",
					"type": "function"
				},
				{
					"inputs": [
						{
							"internalType": "uint256",
							"name": "requestId",
							"type": "uint256"
						}
					],
					"name": "withdraw",
					"outputs": [],
					"stateMutability": "nonpayable",
					"type": "function"
				}
			],
			"devdoc": {
				"custom:security-contact": "bridge-when-cheap@gmail.com",
				"kind": "dev",
				"methods": {
					"owner()": {
						"details": "Returns the address of the current owner."
					},
					"renounceOwnership()": {
						"details": "Leaves the contract without owner. It will not be possible to call `onlyOwner` functions anymore. Can only be called by the current owner. NOTE: Renouncing ownership will leave the contract without an owner, thereby removing any functionality that is only available to the owner."
					},
					"transferOwnership(address)": {
						"details": "Transfers ownership of the contract to a new account (`newOwner`). Can only be called by the current owner."
					}
				},
				"version": 1
			},
			"evm": {
				"assembly": "    /* \"solidity/contracts/BridgeWhenCheap.sol\":940:11706  contract BridgeWhenCheap is Ownable, ReentrancyGuard {... */\n  mstore(0x40, 0x80)\n    /* \"solidity/contracts/BridgeWhenCheap.sol\":2633:2974  constructor(... */\n  callvalue\n  dup1\n  iszero\n  tag_1\n  jumpi\n  0x00\n  dup1\n  revert\ntag_1:\n  pop\n  mload(0x40)\n  sub(codesize, bytecodeSize)\n  dup1\n  bytecodeSize\n  dup4\n  codecopy\n  dup2\n  add\n  0x40\n  dup2\n  swap1\n  mstore\n  tag_2\n  swap2\n  tag_3\n  jump\t// in\ntag_2:\n    /* \"@openzeppelin/contracts/access/Ownable.sol\":936:968  _transferOwnership(_msgSender()) */\n  tag_8\n    /* \"@openzeppelin/contracts/utils/Context.sol\":719:729  msg.sender */\n  caller\n    /* \"@openzeppelin/contracts/access/Ownable.sol\":936:954  _transferOwnership */\n  tag_11\n    /* \"@openzeppelin/contracts/access/Ownable.sol\":936:968  _transferOwnership(_msgSender()) */\n  jump\t// in\ntag_8:\n    /* \"@openzeppelin/contracts/security/ReentrancyGuard.sol\":1716:1717  1 */\n  0x01\n    /* \"@openzeppelin/contracts/security/ReentrancyGuard.sol\":1821:1843  _status = _NOT_ENTERED */\n  dup1\n  sstore\n    /* \"solidity/contracts/BridgeWhenCheap.sol\":2821:2840  l2execGasFeeDeposit */\n  0x02\n    /* \"solidity/contracts/BridgeWhenCheap.sol\":2821:2863  l2execGasFeeDeposit = _l2execGasFeeDeposit */\n  dup4\n  swap1\n  sstore\n    /* \"solidity/contracts/BridgeWhenCheap.sol\":2873:2883  serviceFee */\n  0x03\n    /* \"solidity/contracts/BridgeWhenCheap.sol\":2873:2897  serviceFee = _serviceFee */\n  dup3\n  swap1\n  sstore\n    /* \"solidity/contracts/BridgeWhenCheap.sol\":2907:2920  layer1ChainId */\n  0x06\n    /* \"solidity/contracts/BridgeWhenCheap.sol\":2907:2937  layer1ChainId = _layer1ChainId */\n  dup2\n  swap1\n  sstore\n    /* \"solidity/contracts/BridgeWhenCheap.sol\":2947:2967  checkFeeInvariants() */\n  tag_14\n    /* \"solidity/contracts/BridgeWhenCheap.sol\":2947:2965  checkFeeInvariants */\n  tag_15\n    /* \"solidity/contracts/BridgeWhenCheap.sol\":2947:2967  checkFeeInvariants() */\n  jump\t// in\ntag_14:\n    /* \"solidity/contracts/BridgeWhenCheap.sol\":2633:2974  constructor(... */\n  pop\n  pop\n  pop\n    /* \"solidity/contracts/BridgeWhenCheap.sol\":940:11706  contract BridgeWhenCheap is Ownable, ReentrancyGuard {... */\n  jump(tag_23)\n    /* \"@openzeppelin/contracts/access/Ownable.sol\":2433:2620  function _transferOwnership(address newOwner) internal virtual {... */\ntag_11:\n    /* \"@openzeppelin/contracts/access/Ownable.sol\":2506:2522  address oldOwner */\n  0x00\n    /* \"@openzeppelin/contracts/access/Ownable.sol\":2525:2531  _owner */\n  dup1\n  sload\n  sub(shl(0xa0, 0x01), 0x01)\n    /* \"@openzeppelin/contracts/access/Ownable.sol\":2541:2558  _owner = newOwner */\n  dup4\n  dup2\n  and\n  not(sub(shl(0xa0, 0x01), 0x01))\n  dup4\n  and\n  dup2\n  or\n  dup5\n  sstore\n    /* \"@openzeppelin/contracts/access/Ownable.sol\":2573:2613  OwnershipTransferred(oldOwner, newOwner) */\n  mload(0x40)\n    /* \"@openzeppelin/contracts/access/Ownable.sol\":2525:2531  _owner */\n  swap2\n  swap1\n  swap3\n  and\n  swap3\n  dup4\n  swap2\n    /* \"@openzeppelin/contracts/access/Ownable.sol\":2573:2613  OwnershipTransferred(oldOwner, newOwner) */\n  0x8be0079c531659141344cd1fd0a4f28419497f9722a3daafe3b4186f6b6457e0\n  swap2\n    /* \"@openzeppelin/contracts/access/Ownable.sol\":2506:2522  address oldOwner */\n  swap1\n    /* \"@openzeppelin/contracts/access/Ownable.sol\":2573:2613  OwnershipTransferred(oldOwner, newOwner) */\n  log3\n    /* \"@openzeppelin/contracts/access/Ownable.sol\":2496:2620  {... */\n  pop\n    /* \"@openzeppelin/contracts/access/Ownable.sol\":2433:2620  function _transferOwnership(address newOwner) internal virtual {... */\n  pop\n  jump\t// out\n    /* \"solidity/contracts/BridgeWhenCheap.sol\":11121:11324  function checkFeeInvariants() internal view {... */\ntag_15:\n    /* \"solidity/contracts/BridgeWhenCheap.sol\":11210:11229  l2execGasFeeDeposit */\n  sload(0x02)\n    /* \"solidity/contracts/BridgeWhenCheap.sol\":11196:11206  serviceFee */\n  sload(0x03)\n    /* \"solidity/contracts/BridgeWhenCheap.sol\":11196:11229  serviceFee >= l2execGasFeeDeposit */\n  lt\n  iszero\n    /* \"solidity/contracts/BridgeWhenCheap.sol\":11175:11317  require(... */\n  tag_20\n  jumpi\n  mload(0x40)\n  shl(0xe5, 0x461bcd)\n  dup2\n  mstore\n    /* \"#utility.yul\":527:529   */\n  0x20\n    /* \"solidity/contracts/BridgeWhenCheap.sol\":11175:11317  require(... */\n  0x04\n  dup3\n  add\n    /* \"#utility.yul\":509:530   */\n  mstore\n    /* \"#utility.yul\":566:568   */\n  0x3e\n    /* \"#utility.yul\":546:564   */\n  0x24\n  dup3\n  add\n    /* \"#utility.yul\":539:569   */\n  mstore\n    /* \"#utility.yul\":605:639   */\n  0x5365727669636520666565206d75737420636f766572206174206c6561737420\n    /* \"#utility.yul\":585:603   */\n  0x44\n  dup3\n  add\n    /* \"#utility.yul\":578:640   */\n  mstore\n    /* \"#utility.yul\":676:708   */\n  0x74686520657865637574696f6e2067617320726571756972656d656e742e0000\n    /* \"#utility.yul\":656:674   */\n  0x64\n  dup3\n  add\n    /* \"#utility.yul\":649:709   */\n  mstore\n    /* \"#utility.yul\":726:745   */\n  0x84\n  add\n    /* \"solidity/contracts/BridgeWhenCheap.sol\":11175:11317  require(... */\n  mload(0x40)\n  dup1\n  swap2\n  sub\n  swap1\n  revert\ntag_20:\n    /* \"solidity/contracts/BridgeWhenCheap.sol\":11121:11324  function checkFeeInvariants() internal view {... */\n  jump\t// out\n    /* \"#utility.yul\":14:320   */\ntag_3:\n    /* \"#utility.yul\":102:108   */\n  0x00\n    /* \"#utility.yul\":110:116   */\n  dup1\n    /* \"#utility.yul\":118:124   */\n  0x00\n    /* \"#utility.yul\":171:173   */\n  0x60\n    /* \"#utility.yul\":159:168   */\n  dup5\n    /* \"#utility.yul\":150:157   */\n  dup7\n    /* \"#utility.yul\":146:169   */\n  sub\n    /* \"#utility.yul\":142:174   */\n  slt\n    /* \"#utility.yul\":139:191   */\n  iszero\n  tag_25\n  jumpi\n    /* \"#utility.yul\":187:188   */\n  0x00\n    /* \"#utility.yul\":184:185   */\n  dup1\n    /* \"#utility.yul\":177:189   */\n  revert\n    /* \"#utility.yul\":139:191   */\ntag_25:\n    /* \"#utility.yul\":216:225   */\n  dup4\n    /* \"#utility.yul\":210:226   */\n  mload\n    /* \"#utility.yul\":200:226   */\n  swap3\n  pop\n    /* \"#utility.yul\":266:268   */\n  0x20\n    /* \"#utility.yul\":255:264   */\n  dup5\n    /* \"#utility.yul\":251:269   */\n  add\n    /* \"#utility.yul\":245:270   */\n  mload\n    /* \"#utility.yul\":235:270   */\n  swap2\n  pop\n    /* \"#utility.yul\":310:312   */\n  0x40\n    /* \"#utility.yul\":299:308   */\n  dup5\n    /* \"#utility.yul\":295:313   */\n  add\n    /* \"#utility.yul\":289:314   */\n  mload\n    /* \"#utility.yul\":279:314   */\n  swap1\n  pop\n    /* \"#utility.yul\":14:320   */\n  swap3\n  pop\n  swap3\n  pop\n  swap3\n  jump\t// out\n    /* \"#utility.yul\":325:751   */\ntag_23:\n    /* \"solidity/contracts/BridgeWhenCheap.sol\":940:11706  contract BridgeWhenCheap is Ownable, ReentrancyGuard {... */\n  dataSize(sub_0)\n  dup1\n  dataOffset(sub_0)\n  0x00\n  codecopy\n  0x00\n  return\nstop\n\nsub_0: assembly {\n        /* \"solidity/contracts/BridgeWhenCheap.sol\":940:11706  contract BridgeWhenCheap is Ownable, ReentrancyGuard {... */\n      mstore(0x40, 0x80)\n      jumpi(tag_1, lt(calldatasize, 0x04))\n      shr(0xe0, calldataload(0x00))\n      dup1\n      0x87d6161b\n      gt\n      tag_19\n      jumpi\n      dup1\n      0xa191078a\n      gt\n      tag_20\n      jumpi\n      dup1\n      0xa191078a\n      eq\n      tag_14\n      jumpi\n      dup1\n      0xa1f66306\n      eq\n      tag_15\n      jumpi\n      dup1\n      0xb6502943\n      eq\n      tag_16\n      jumpi\n      dup1\n      0xd043ba19\n      eq\n      tag_17\n      jumpi\n      dup1\n      0xf2fde38b\n      eq\n      tag_18\n      jumpi\n      0x00\n      dup1\n      revert\n    tag_20:\n      dup1\n      0x87d6161b\n      eq\n      tag_10\n      jumpi\n      dup1\n      0x8abdf5aa\n      eq\n      tag_11\n      jumpi\n      dup1\n      0x8c13bc08\n      eq\n      tag_12\n      jumpi\n      dup1\n      0x8da5cb5b\n      eq\n      tag_13\n      jumpi\n      0x00\n      dup1\n      revert\n    tag_19:\n      dup1\n      0x488ff1c8\n      gt\n      tag_21\n      jumpi\n      dup1\n      0x488ff1c8\n      eq\n      tag_6\n      jumpi\n      dup1\n      0x715018a6\n      eq\n      tag_7\n      jumpi\n      dup1\n      0x7394e49c\n      eq\n      tag_8\n      jumpi\n      dup1\n      0x7b1aa45f\n      eq\n      tag_9\n      jumpi\n      0x00\n      dup1\n      revert\n    tag_21:\n      dup1\n      0x1485351e\n      eq\n      tag_2\n      jumpi\n      dup1\n      0x242f4046\n      eq\n      tag_3\n      jumpi\n      dup1\n      0x2e1a7d4d\n      eq\n      tag_4\n      jumpi\n      dup1\n      0x33f707d1\n      eq\n      tag_5\n      jumpi\n    tag_1:\n      0x00\n      dup1\n      revert\n        /* \"solidity/contracts/BridgeWhenCheap.sol\":10784:11067  function addSupportForNewToken(IERC20 token, address tokenHopBridge)... */\n    tag_2:\n      callvalue\n      dup1\n      iszero\n      tag_22\n      jumpi\n      0x00\n      dup1\n      revert\n    tag_22:\n      pop\n      tag_23\n      tag_24\n      calldatasize\n      0x04\n      tag_25\n      jump\t// in\n    tag_24:\n      tag_26\n      jump\t// in\n    tag_23:\n      stop\n        /* \"solidity/contracts/BridgeWhenCheap.sol\":1209:1243  uint256 public l2execGasFeeDeposit */\n    tag_3:\n      callvalue\n      dup1\n      iszero\n      tag_27\n      jumpi\n      0x00\n      dup1\n      revert\n    tag_27:\n      pop\n      tag_28\n      sload(0x02)\n      dup2\n      jump\n    tag_28:\n      mload(0x40)\n        /* \"#utility.yul\":727:752   */\n      swap1\n      dup2\n      mstore\n        /* \"#utility.yul\":715:717   */\n      0x20\n        /* \"#utility.yul\":700:718   */\n      add\n        /* \"solidity/contracts/BridgeWhenCheap.sol\":1209:1243  uint256 public l2execGasFeeDeposit */\n    tag_30:\n      mload(0x40)\n      dup1\n      swap2\n      sub\n      swap1\n      return\n        /* \"solidity/contracts/BridgeWhenCheap.sol\":6572:7680  function withdraw(uint256 requestId) external nonReentrant {... */\n    tag_4:\n      callvalue\n      dup1\n      iszero\n      tag_32\n      jumpi\n      0x00\n      dup1\n      revert\n    tag_32:\n      pop\n      tag_23\n      tag_34\n      calldatasize\n      0x04\n      tag_35\n      jump\t// in\n    tag_34:\n      tag_36\n      jump\t// in\n        /* \"solidity/contracts/BridgeWhenCheap.sol\":9785:10130  function ownerWithdraw(uint256 amount) external onlyOwner nonReentrant {... */\n    tag_5:\n      callvalue\n      dup1\n      iszero\n      tag_37\n      jumpi\n      0x00\n      dup1\n      revert\n    tag_37:\n      pop\n      tag_23\n      tag_39\n      calldatasize\n      0x04\n      tag_35\n      jump\t// in\n    tag_39:\n      tag_40\n      jump\t// in\n        /* \"solidity/contracts/BridgeWhenCheap.sol\":1796:1880  mapping(address => mapping(uint256 => BridgeRequest))... */\n    tag_6:\n      callvalue\n      dup1\n      iszero\n      tag_41\n      jumpi\n      0x00\n      dup1\n      revert\n    tag_41:\n      pop\n      tag_42\n      tag_43\n      calldatasize\n      0x04\n      tag_44\n      jump\t// in\n    tag_43:\n      0x05\n      0x20\n      dup2\n      dup2\n      mstore\n      0x00\n      swap4\n      dup5\n      mstore\n      0x40\n      dup1\n      dup6\n      keccak256\n      swap1\n      swap2\n      mstore\n      swap2\n      dup4\n      mstore\n      swap2\n      keccak256\n      dup1\n      sload\n      0x01\n      dup3\n      add\n      sload\n      0x02\n      dup4\n      add\n      sload\n      0x03\n      dup5\n      add\n      sload\n      0x04\n      dup6\n      add\n      sload\n      swap6\n      dup6\n      add\n      sload\n      0x06\n      swap1\n      swap6\n      add\n      sload\n      sub(shl(0xa0, 0x01), 0x01)\n      swap5\n      dup6\n      and\n      swap7\n      dup6\n      dup6\n      and\n      swap7\n      shl(0xa0, 0x01)\n      swap1\n      swap6\n      div\n      0xff\n      and\n      swap6\n      swap1\n      swap4\n      and\n      swap4\n      swap2\n      swap3\n      swap2\n      swap1\n      dup9\n      jump\n    tag_42:\n      0x40\n      dup1\n      mload\n      sub(shl(0xa0, 0x01), 0x01)\n        /* \"#utility.yul\":1683:1698   */\n      swap10\n      dup11\n      and\n        /* \"#utility.yul\":1665:1699   */\n      dup2\n      mstore\n        /* \"#utility.yul\":1735:1750   */\n      swap8\n      dup10\n      and\n        /* \"#utility.yul\":1730:1732   */\n      0x20\n        /* \"#utility.yul\":1715:1733   */\n      dup10\n      add\n        /* \"#utility.yul\":1708:1751   */\n      mstore\n        /* \"#utility.yul\":1794:1808   */\n      swap6\n      iszero\n        /* \"#utility.yul\":1787:1809   */\n      iszero\n        /* \"#utility.yul\":1767:1785   */\n      swap6\n      dup8\n      add\n        /* \"#utility.yul\":1760:1810   */\n      swap6\n      swap1\n      swap6\n      mstore\n        /* \"#utility.yul\":1846:1861   */\n      swap6\n      swap1\n      swap3\n      and\n        /* \"#utility.yul\":1841:1843   */\n      0x60\n        /* \"#utility.yul\":1826:1844   */\n      dup6\n      add\n        /* \"#utility.yul\":1819:1862   */\n      mstore\n        /* \"#utility.yul\":1893:1896   */\n      0x80\n        /* \"#utility.yul\":1878:1897   */\n      dup5\n      add\n        /* \"#utility.yul\":1871:1906   */\n      mstore\n        /* \"#utility.yul\":1645:1648   */\n      0xa0\n        /* \"#utility.yul\":1922:1941   */\n      dup4\n      add\n        /* \"#utility.yul\":1915:1950   */\n      mstore\n        /* \"#utility.yul\":1981:1984   */\n      0xc0\n        /* \"#utility.yul\":1966:1985   */\n      dup3\n      add\n        /* \"#utility.yul\":1959:1994   */\n      swap3\n      swap1\n      swap3\n      mstore\n        /* \"#utility.yul\":2025:2028   */\n      0xe0\n        /* \"#utility.yul\":2010:2029   */\n      dup2\n      add\n        /* \"#utility.yul\":2003:2038   */\n      swap2\n      swap1\n      swap2\n      mstore\n        /* \"#utility.yul\":1614:1617   */\n      0x0100\n        /* \"#utility.yul\":1599:1618   */\n      add\n        /* \"solidity/contracts/BridgeWhenCheap.sol\":1796:1880  mapping(address => mapping(uint256 => BridgeRequest))... */\n      tag_30\n        /* \"#utility.yul\":1276:2044   */\n      jump\n        /* \"@openzeppelin/contracts/access/Ownable.sol\":1831:1932  function renounceOwnership() public virtual onlyOwner {... */\n    tag_7:\n      callvalue\n      dup1\n      iszero\n      tag_48\n      jumpi\n      0x00\n      dup1\n      revert\n    tag_48:\n      pop\n      tag_23\n      tag_50\n      jump\t// in\n        /* \"solidity/contracts/BridgeWhenCheap.sol\":2327:2377  mapping(IERC20 => address) public bridgeContractOf */\n    tag_8:\n      callvalue\n      dup1\n      iszero\n      tag_51\n      jumpi\n      0x00\n      dup1\n      revert\n    tag_51:\n      pop\n      tag_52\n      tag_53\n      calldatasize\n      0x04\n      tag_54\n      jump\t// in\n    tag_53:\n      mstore(0x20, 0x07)\n      0x00\n      swap1\n      dup2\n      mstore\n      0x40\n      swap1\n      keccak256\n      sload\n      sub(shl(0xa0, 0x01), 0x01)\n      and\n      dup2\n      jump\n    tag_52:\n      mload(0x40)\n      sub(shl(0xa0, 0x01), 0x01)\n        /* \"#utility.yul\":2487:2519   */\n      swap1\n      swap2\n      and\n        /* \"#utility.yul\":2469:2520   */\n      dup2\n      mstore\n        /* \"#utility.yul\":2457:2459   */\n      0x20\n        /* \"#utility.yul\":2442:2460   */\n      add\n        /* \"solidity/contracts/BridgeWhenCheap.sol\":2327:2377  mapping(IERC20 => address) public bridgeContractOf */\n      tag_30\n        /* \"#utility.yul\":2323:2526   */\n      jump\n        /* \"solidity/contracts/BridgeWhenCheap.sol\":9673:9726  function ownerDeposit() external payable onlyOwner {} */\n    tag_9:\n      tag_23\n      tag_59\n      jump\t// in\n        /* \"solidity/contracts/BridgeWhenCheap.sol\":10270:10412  function setL2execGasFeeDeposit(uint256 amount) external onlyOwner {... */\n    tag_10:\n      callvalue\n      dup1\n      iszero\n      tag_60\n      jumpi\n      0x00\n      dup1\n      revert\n    tag_60:\n      pop\n      tag_23\n      tag_62\n      calldatasize\n      0x04\n      tag_35\n      jump\t// in\n    tag_62:\n      tag_63\n      jump\t// in\n        /* \"solidity/contracts/BridgeWhenCheap.sol\":1444:1469  uint256 public serviceFee */\n    tag_11:\n      callvalue\n      dup1\n      iszero\n      tag_64\n      jumpi\n      0x00\n      dup1\n      revert\n    tag_64:\n      pop\n      tag_28\n      sload(0x03)\n      dup2\n      jump\n        /* \"solidity/contracts/BridgeWhenCheap.sol\":3798:6492  function deposit(... */\n    tag_12:\n      tag_23\n      tag_69\n      calldatasize\n      0x04\n      tag_70\n      jump\t// in\n    tag_69:\n      tag_71\n      jump\t// in\n        /* \"@openzeppelin/contracts/access/Ownable.sol\":1201:1286  function owner() public view virtual returns (address) {... */\n    tag_13:\n      callvalue\n      dup1\n      iszero\n      tag_72\n      jumpi\n      0x00\n      dup1\n      revert\n    tag_72:\n      pop\n        /* \"@openzeppelin/contracts/access/Ownable.sol\":1247:1254  address */\n      0x00\n        /* \"@openzeppelin/contracts/access/Ownable.sol\":1273:1279  _owner */\n      sload\n      sub(shl(0xa0, 0x01), 0x01)\n      and\n        /* \"@openzeppelin/contracts/access/Ownable.sol\":1201:1286  function owner() public view virtual returns (address) {... */\n      jump(tag_52)\n        /* \"solidity/contracts/BridgeWhenCheap.sol\":10503:10627  function setserviceFee(uint256 amount) external onlyOwner {... */\n    tag_14:\n      callvalue\n      dup1\n      iszero\n      tag_76\n      jumpi\n      0x00\n      dup1\n      revert\n    tag_76:\n      pop\n      tag_23\n      tag_78\n      calldatasize\n      0x04\n      tag_35\n      jump\t// in\n    tag_78:\n      tag_79\n      jump\t// in\n        /* \"solidity/contracts/BridgeWhenCheap.sol\":1679:1725  uint256 public collectedServiceFeeExcludingGas */\n    tag_15:\n      callvalue\n      dup1\n      iszero\n      tag_80\n      jumpi\n      0x00\n      dup1\n      revert\n    tag_80:\n      pop\n      tag_28\n      sload(0x04)\n      dup2\n      jump\n        /* \"solidity/contracts/BridgeWhenCheap.sol\":1948:1976  uint256 public layer1ChainId */\n    tag_16:\n      callvalue\n      dup1\n      iszero\n      tag_84\n      jumpi\n      0x00\n      dup1\n      revert\n    tag_84:\n      pop\n      tag_28\n      sload(0x06)\n      dup2\n      jump\n        /* \"solidity/contracts/BridgeWhenCheap.sol\":7964:9455  function executeRequest(... */\n    tag_17:\n      callvalue\n      dup1\n      iszero\n      tag_88\n      jumpi\n      0x00\n      dup1\n      revert\n    tag_88:\n      pop\n      tag_23\n      tag_90\n      calldatasize\n      0x04\n      tag_91\n      jump\t// in\n    tag_90:\n      tag_92\n      jump\t// in\n        /* \"@openzeppelin/contracts/access/Ownable.sol\":2081:2279  function transferOwnership(address newOwner) public virtual onlyOwner {... */\n    tag_18:\n      callvalue\n      dup1\n      iszero\n      tag_93\n      jumpi\n      0x00\n      dup1\n      revert\n    tag_93:\n      pop\n      tag_23\n      tag_95\n      calldatasize\n      0x04\n      tag_54\n      jump\t// in\n    tag_95:\n      tag_97\n      jump\t// in\n        /* \"solidity/contracts/BridgeWhenCheap.sol\":10784:11067  function addSupportForNewToken(IERC20 token, address tokenHopBridge)... */\n    tag_26:\n        /* \"@openzeppelin/contracts/access/Ownable.sol\":1094:1107  _checkOwner() */\n      tag_99\n        /* \"@openzeppelin/contracts/access/Ownable.sol\":1094:1105  _checkOwner */\n      tag_100\n        /* \"@openzeppelin/contracts/access/Ownable.sol\":1094:1107  _checkOwner() */\n      jump\t// in\n    tag_99:\n      sub(shl(0xa0, 0x01), 0x01)\n        /* \"solidity/contracts/BridgeWhenCheap.sol\":10923:10946  bridgeContractOf[token] */\n      dup3\n      dup2\n      and\n        /* \"solidity/contracts/BridgeWhenCheap.sol\":10958:10959  0 */\n      0x00\n        /* \"solidity/contracts/BridgeWhenCheap.sol\":10923:10946  bridgeContractOf[token] */\n      swap1\n      dup2\n      mstore\n        /* \"solidity/contracts/BridgeWhenCheap.sol\":10923:10939  bridgeContractOf */\n      0x07\n        /* \"solidity/contracts/BridgeWhenCheap.sol\":10923:10946  bridgeContractOf[token] */\n      0x20\n      mstore\n      0x40\n      swap1\n      keccak256\n      sload\n      and\n        /* \"solidity/contracts/BridgeWhenCheap.sol\":10923:10960  bridgeContractOf[token] == address(0) */\n      iszero\n        /* \"solidity/contracts/BridgeWhenCheap.sol\":10902:11010  require(... */\n      tag_102\n      jumpi\n      mload(0x40)\n      shl(0xe5, 0x461bcd)\n      dup2\n      mstore\n        /* \"#utility.yul\":4363:4365   */\n      0x20\n        /* \"solidity/contracts/BridgeWhenCheap.sol\":10902:11010  require(... */\n      0x04\n      dup3\n      add\n        /* \"#utility.yul\":4345:4366   */\n      mstore\n        /* \"#utility.yul\":4402:4404   */\n      0x18\n        /* \"#utility.yul\":4382:4400   */\n      0x24\n      dup3\n      add\n        /* \"#utility.yul\":4375:4405   */\n      mstore\n        /* \"#utility.yul\":4441:4467   */\n      0x546f6b656e20616c726561647920737570706f727465642e0000000000000000\n        /* \"#utility.yul\":4421:4439   */\n      0x44\n      dup3\n      add\n        /* \"#utility.yul\":4414:4468   */\n      mstore\n        /* \"#utility.yul\":4485:4503   */\n      0x64\n      add\n        /* \"solidity/contracts/BridgeWhenCheap.sol\":10902:11010  require(... */\n    tag_103:\n      mload(0x40)\n      dup1\n      swap2\n      sub\n      swap1\n      revert\n    tag_102:\n      sub(shl(0xa0, 0x01), 0x01)\n        /* \"solidity/contracts/BridgeWhenCheap.sol\":11020:11043  bridgeContractOf[token] */\n      swap2\n      dup3\n      and\n      0x00\n      swap1\n      dup2\n      mstore\n        /* \"solidity/contracts/BridgeWhenCheap.sol\":11020:11036  bridgeContractOf */\n      0x07\n        /* \"solidity/contracts/BridgeWhenCheap.sol\":11020:11043  bridgeContractOf[token] */\n      0x20\n      mstore\n      0x40\n      swap1\n      keccak256\n        /* \"solidity/contracts/BridgeWhenCheap.sol\":11020:11060  bridgeContractOf[token] = tokenHopBridge */\n      dup1\n      sload\n      not(sub(shl(0xa0, 0x01), 0x01))\n      and\n      swap2\n      swap1\n      swap3\n      and\n      or\n      swap1\n      sstore\n        /* \"solidity/contracts/BridgeWhenCheap.sol\":10784:11067  function addSupportForNewToken(IERC20 token, address tokenHopBridge)... */\n      jump\t// out\n        /* \"solidity/contracts/BridgeWhenCheap.sol\":6572:7680  function withdraw(uint256 requestId) external nonReentrant {... */\n    tag_36:\n        /* \"@openzeppelin/contracts/security/ReentrancyGuard.sol\":2261:2282  _nonReentrantBefore() */\n      tag_106\n        /* \"@openzeppelin/contracts/security/ReentrancyGuard.sol\":2261:2280  _nonReentrantBefore */\n      tag_107\n        /* \"@openzeppelin/contracts/security/ReentrancyGuard.sol\":2261:2282  _nonReentrantBefore() */\n      jump\t// in\n    tag_106:\n        /* \"solidity/contracts/BridgeWhenCheap.sol\":6714:6724  msg.sender */\n      caller\n        /* \"solidity/contracts/BridgeWhenCheap.sol\":6659:6695  BridgeRequest memory obsoleteRequest */\n      0x00\n        /* \"solidity/contracts/BridgeWhenCheap.sol\":6698:6725  pendingRequests[msg.sender] */\n      swap1\n      dup2\n      mstore\n        /* \"solidity/contracts/BridgeWhenCheap.sol\":6698:6713  pendingRequests */\n      0x05\n        /* \"solidity/contracts/BridgeWhenCheap.sol\":6698:6725  pendingRequests[msg.sender] */\n      0x20\n      dup2\n      dup2\n      mstore\n      0x40\n      dup1\n      dup5\n      keccak256\n        /* \"solidity/contracts/BridgeWhenCheap.sol\":6698:6758  pendingRequests[msg.sender][... */\n      dup6\n      dup6\n      mstore\n      dup3\n      mstore\n      swap3\n      dup4\n      swap1\n      keccak256\n        /* \"solidity/contracts/BridgeWhenCheap.sol\":6659:6758  BridgeRequest memory obsoleteRequest = pendingRequests[msg.sender][... */\n      dup4\n      mload\n      0x0100\n      dup2\n      add\n      dup6\n      mstore\n      dup2\n      sload\n      sub(shl(0xa0, 0x01), 0x01)\n      swap1\n      dup2\n      and\n      dup1\n      dup4\n      mstore\n      0x01\n      dup5\n      add\n      sload\n      dup1\n      dup4\n      and\n      swap6\n      dup5\n      add\n      swap6\n      swap1\n      swap6\n      mstore\n      shl(0xa0, 0x01)\n      swap1\n      swap5\n      div\n      0xff\n      and\n      iszero\n      iszero\n      swap6\n      dup3\n      add\n      swap6\n      swap1\n      swap6\n      mstore\n      0x02\n      dup3\n      add\n      sload\n      swap1\n      swap5\n      and\n      0x60\n      dup6\n      add\n      mstore\n      0x03\n      dup2\n      add\n      sload\n      0x80\n      dup6\n      add\n      mstore\n      0x04\n      dup2\n      add\n      sload\n      0xa0\n      dup6\n      add\n      mstore\n      swap2\n      dup3\n      add\n      sload\n      0xc0\n      dup5\n      add\n      mstore\n      0x06\n      swap1\n      swap2\n      add\n      sload\n      0xe0\n      dup4\n      add\n      mstore\n        /* \"solidity/contracts/BridgeWhenCheap.sol\":6804:6866  require(isDefined(obsoleteRequest), \"No request to withdraw.\") */\n      tag_111\n      jumpi\n      mload(0x40)\n      shl(0xe5, 0x461bcd)\n      dup2\n      mstore\n        /* \"#utility.yul\":4716:4718   */\n      0x20\n        /* \"solidity/contracts/BridgeWhenCheap.sol\":6804:6866  require(isDefined(obsoleteRequest), \"No request to withdraw.\") */\n      0x04\n      dup3\n      add\n        /* \"#utility.yul\":4698:4719   */\n      mstore\n        /* \"#utility.yul\":4755:4757   */\n      0x17\n        /* \"#utility.yul\":4735:4753   */\n      0x24\n      dup3\n      add\n        /* \"#utility.yul\":4728:4758   */\n      mstore\n        /* \"#utility.yul\":4794:4819   */\n      0x4e6f207265717565737420746f2077697468647261772e000000000000000000\n        /* \"#utility.yul\":4774:4792   */\n      0x44\n      dup3\n      add\n        /* \"#utility.yul\":4767:4820   */\n      mstore\n        /* \"#utility.yul\":4837:4855   */\n      0x64\n      add\n        /* \"solidity/contracts/BridgeWhenCheap.sol\":6804:6866  require(isDefined(obsoleteRequest), \"No request to withdraw.\") */\n      tag_103\n        /* \"#utility.yul\":4514:4861   */\n      jump\n        /* \"solidity/contracts/BridgeWhenCheap.sol\":6804:6866  require(isDefined(obsoleteRequest), \"No request to withdraw.\") */\n    tag_111:\n        /* \"solidity/contracts/BridgeWhenCheap.sol\":6883:6905  obsoleteRequest.source */\n      dup1\n      mload\n      sub(shl(0xa0, 0x01), 0x01)\n        /* \"solidity/contracts/BridgeWhenCheap.sol\":6883:6919  obsoleteRequest.source == msg.sender */\n      and\n        /* \"solidity/contracts/BridgeWhenCheap.sol\":6909:6919  msg.sender */\n      caller\n        /* \"solidity/contracts/BridgeWhenCheap.sol\":6883:6919  obsoleteRequest.source == msg.sender */\n      eq\n        /* \"solidity/contracts/BridgeWhenCheap.sol\":6876:6920  assert(obsoleteRequest.source == msg.sender) */\n      tag_115\n      jumpi\n      tag_115\n      tag_116\n      jump\t// in\n    tag_115:\n        /* \"solidity/contracts/BridgeWhenCheap.sol\":7084:7119  obsoleteRequest.l2execGasFeeDeposit */\n      0xe0\n      dup2\n      add\n      mload\n        /* \"solidity/contracts/BridgeWhenCheap.sol\":7134:7165  obsoleteRequest.isTokenTransfer */\n      0x40\n      dup3\n      add\n      mload\n        /* \"solidity/contracts/BridgeWhenCheap.sol\":6931:6958  uint256 withdrawTokenAmount */\n      0x00\n      swap2\n        /* \"solidity/contracts/BridgeWhenCheap.sol\":7084:7119  obsoleteRequest.l2execGasFeeDeposit */\n      swap1\n        /* \"solidity/contracts/BridgeWhenCheap.sol\":7130:7319  if (obsoleteRequest.isTokenTransfer) {... */\n      iszero\n      tag_117\n      jumpi\n        /* \"solidity/contracts/BridgeWhenCheap.sol\":7204:7226  obsoleteRequest.amount */\n      0x80\n      dup4\n      add\n      mload\n        /* \"solidity/contracts/BridgeWhenCheap.sol\":7181:7226  withdrawTokenAmount += obsoleteRequest.amount */\n      tag_118\n      swap1\n      dup4\n      tag_119\n      jump\t// in\n    tag_118:\n      swap2\n      pop\n        /* \"solidity/contracts/BridgeWhenCheap.sol\":7130:7319  if (obsoleteRequest.isTokenTransfer) {... */\n      jump(tag_120)\n    tag_117:\n        /* \"solidity/contracts/BridgeWhenCheap.sol\":7286:7308  obsoleteRequest.amount */\n      0x80\n      dup4\n      add\n      mload\n        /* \"solidity/contracts/BridgeWhenCheap.sol\":7257:7308  withdrawNativeEtherAmount += obsoleteRequest.amount */\n      tag_121\n      swap1\n      dup3\n      tag_119\n      jump\t// in\n    tag_121:\n      swap1\n      pop\n        /* \"solidity/contracts/BridgeWhenCheap.sol\":7130:7319  if (obsoleteRequest.isTokenTransfer) {... */\n    tag_120:\n        /* \"solidity/contracts/BridgeWhenCheap.sol\":7371:7381  msg.sender */\n      caller\n        /* \"solidity/contracts/BridgeWhenCheap.sol\":7355:7382  pendingRequests[msg.sender] */\n      0x00\n      dup2\n      dup2\n      mstore\n        /* \"solidity/contracts/BridgeWhenCheap.sol\":7355:7370  pendingRequests */\n      0x05\n        /* \"solidity/contracts/BridgeWhenCheap.sol\":7355:7382  pendingRequests[msg.sender] */\n      0x20\n      dup2\n      dup2\n      mstore\n      0x40\n      dup1\n      dup5\n      keccak256\n        /* \"solidity/contracts/BridgeWhenCheap.sol\":7355:7393  pendingRequests[msg.sender][requestId] */\n      dup10\n      dup6\n      mstore\n      swap1\n      swap2\n      mstore\n      dup1\n      dup4\n      keccak256\n        /* \"solidity/contracts/BridgeWhenCheap.sol\":7348:7393  delete pendingRequests[msg.sender][requestId] */\n      dup1\n      sload\n      not(sub(shl(0xa0, 0x01), 0x01))\n      swap1\n      dup2\n      and\n      dup3\n      sstore\n      0x01\n      dup3\n      add\n      dup1\n      sload\n      not(sub(shl(0xa8, 0x01), 0x01))\n      and\n      swap1\n      sstore\n      0x02\n      dup3\n      add\n      dup1\n      sload\n      swap1\n      swap2\n      and\n      swap1\n      sstore\n      0x03\n      dup2\n      add\n      dup5\n      swap1\n      sstore\n      0x04\n      dup2\n      add\n      dup5\n      swap1\n      sstore\n      swap2\n      dup3\n      add\n      dup4\n      swap1\n      sstore\n      0x06\n      swap1\n      swap2\n      add\n      dup3\n      swap1\n      sstore\n        /* \"solidity/contracts/BridgeWhenCheap.sol\":7436:7487  payable(msg.sender).send(withdrawNativeEtherAmount) */\n      mload\n      dup4\n      iszero\n      0x08fc\n      mul\n      swap2\n        /* \"solidity/contracts/BridgeWhenCheap.sol\":7461:7486  withdrawNativeEtherAmount */\n      dup5\n      swap2\n        /* \"solidity/contracts/BridgeWhenCheap.sol\":7436:7487  payable(msg.sender).send(withdrawNativeEtherAmount) */\n      swap1\n      dup2\n        /* \"solidity/contracts/BridgeWhenCheap.sol\":7355:7382  pendingRequests[msg.sender] */\n      dup2\n        /* \"solidity/contracts/BridgeWhenCheap.sol\":7436:7487  payable(msg.sender).send(withdrawNativeEtherAmount) */\n      dup2\n        /* \"solidity/contracts/BridgeWhenCheap.sol\":7461:7486  withdrawNativeEtherAmount */\n      dup6\n        /* \"solidity/contracts/BridgeWhenCheap.sol\":7371:7381  msg.sender */\n      dup9\n        /* \"solidity/contracts/BridgeWhenCheap.sol\":7436:7487  payable(msg.sender).send(withdrawNativeEtherAmount) */\n      dup9\n      call\n      swap4\n      pop\n      pop\n      pop\n      pop\n        /* \"solidity/contracts/BridgeWhenCheap.sol\":7428:7488  require(payable(msg.sender).send(withdrawNativeEtherAmount)) */\n      tag_123\n      jumpi\n      0x00\n      dup1\n      revert\n    tag_123:\n        /* \"solidity/contracts/BridgeWhenCheap.sol\":7519:7540  obsoleteRequest.token */\n      0x60\n      dup4\n      add\n      mload\n        /* \"solidity/contracts/BridgeWhenCheap.sol\":7519:7663  obsoleteRequest.token.transferFrom(... */\n      mload(0x40)\n      shl(0xe0, 0x23b872dd)\n      dup2\n      mstore\n        /* \"solidity/contracts/BridgeWhenCheap.sol\":7579:7583  this */\n      address\n        /* \"solidity/contracts/BridgeWhenCheap.sol\":7519:7663  obsoleteRequest.token.transferFrom(... */\n      0x04\n      dup3\n      add\n        /* \"#utility.yul\":5500:5534   */\n      mstore\n        /* \"solidity/contracts/BridgeWhenCheap.sol\":7602:7612  msg.sender */\n      caller\n        /* \"#utility.yul\":5550:5568   */\n      0x24\n      dup3\n      add\n        /* \"#utility.yul\":5543:5586   */\n      mstore\n        /* \"#utility.yul\":5602:5620   */\n      0x44\n      dup2\n      add\n        /* \"#utility.yul\":5595:5629   */\n      dup5\n      swap1\n      mstore\n      sub(shl(0xa0, 0x01), 0x01)\n        /* \"solidity/contracts/BridgeWhenCheap.sol\":7519:7553  obsoleteRequest.token.transferFrom */\n      swap1\n      swap2\n      and\n      swap1\n      0x23b872dd\n      swap1\n        /* \"#utility.yul\":5435:5453   */\n      0x64\n      add\n        /* \"solidity/contracts/BridgeWhenCheap.sol\":7519:7663  obsoleteRequest.token.transferFrom(... */\n      0x20\n      mload(0x40)\n      dup1\n      dup4\n      sub\n      dup2\n      0x00\n      dup8\n      gas\n      call\n      iszero\n      dup1\n      iszero\n      tag_127\n      jumpi\n      returndatasize\n      0x00\n      dup1\n      returndatacopy\n      revert(0x00, returndatasize)\n    tag_127:\n      pop\n      pop\n      pop\n      pop\n      mload(0x40)\n      returndatasize\n      not(0x1f)\n      0x1f\n      dup3\n      add\n      and\n      dup3\n      add\n      dup1\n      0x40\n      mstore\n      pop\n      dup2\n      add\n      swap1\n      tag_128\n      swap2\n      swap1\n      tag_129\n      jump\t// in\n    tag_128:\n        /* \"solidity/contracts/BridgeWhenCheap.sol\":7498:7673  require(... */\n      tag_130\n      jumpi\n      0x00\n      dup1\n      revert\n    tag_130:\n        /* \"solidity/contracts/BridgeWhenCheap.sol\":6631:7680  {... */\n      pop\n      pop\n      pop\n        /* \"@openzeppelin/contracts/security/ReentrancyGuard.sol\":2303:2323  _nonReentrantAfter() */\n      tag_131\n        /* \"@openzeppelin/contracts/security/ReentrancyGuard.sol\":1716:1717  1 */\n      0x01\n        /* \"@openzeppelin/contracts/security/ReentrancyGuard.sol\":2809:2831  _status = _NOT_ENTERED */\n      dup1\n      sstore\n        /* \"@openzeppelin/contracts/security/ReentrancyGuard.sol\":2629:2838  function _nonReentrantAfter() private {... */\n      jump\n        /* \"@openzeppelin/contracts/security/ReentrancyGuard.sol\":2303:2323  _nonReentrantAfter() */\n    tag_131:\n        /* \"solidity/contracts/BridgeWhenCheap.sol\":6572:7680  function withdraw(uint256 requestId) external nonReentrant {... */\n      pop\n      jump\t// out\n        /* \"solidity/contracts/BridgeWhenCheap.sol\":9785:10130  function ownerWithdraw(uint256 amount) external onlyOwner nonReentrant {... */\n    tag_40:\n        /* \"@openzeppelin/contracts/access/Ownable.sol\":1094:1107  _checkOwner() */\n      tag_134\n        /* \"@openzeppelin/contracts/access/Ownable.sol\":1094:1105  _checkOwner */\n      tag_100\n        /* \"@openzeppelin/contracts/access/Ownable.sol\":1094:1107  _checkOwner() */\n      jump\t// in\n    tag_134:\n        /* \"@openzeppelin/contracts/security/ReentrancyGuard.sol\":2261:2282  _nonReentrantBefore() */\n      tag_136\n        /* \"@openzeppelin/contracts/security/ReentrancyGuard.sol\":2261:2280  _nonReentrantBefore */\n      tag_107\n        /* \"@openzeppelin/contracts/security/ReentrancyGuard.sol\":2261:2282  _nonReentrantBefore() */\n      jump\t// in\n    tag_136:\n        /* \"solidity/contracts/BridgeWhenCheap.sol\":9922:9928  amount */\n      dup1\n        /* \"solidity/contracts/BridgeWhenCheap.sol\":9887:9918  collectedServiceFeeExcludingGas */\n      sload(0x04)\n        /* \"solidity/contracts/BridgeWhenCheap.sol\":9887:9928  collectedServiceFeeExcludingGas >= amount */\n      lt\n      iszero\n        /* \"solidity/contracts/BridgeWhenCheap.sol\":9866:10021  require(... */\n      tag_138\n      jumpi\n      mload(0x40)\n      shl(0xe5, 0x461bcd)\n      dup2\n      mstore\n        /* \"#utility.yul\":6124:6126   */\n      0x20\n        /* \"solidity/contracts/BridgeWhenCheap.sol\":9866:10021  require(... */\n      0x04\n      dup3\n      add\n        /* \"#utility.yul\":6106:6127   */\n      mstore\n        /* \"#utility.yul\":6163:6165   */\n      0x43\n        /* \"#utility.yul\":6143:6161   */\n      0x24\n      dup3\n      add\n        /* \"#utility.yul\":6136:6166   */\n      mstore\n        /* \"#utility.yul\":6202:6236   */\n      0x43616e6e6f74207769746864726177206d6f72652066756e6473207468616e20\n        /* \"#utility.yul\":6182:6200   */\n      0x44\n      dup3\n      add\n        /* \"#utility.yul\":6175:6237   */\n      mstore\n        /* \"#utility.yul\":6273:6307   */\n      0x74686520636f6c6c6563746564206e6f6e206761732073657276696365206665\n        /* \"#utility.yul\":6253:6271   */\n      0x64\n      dup3\n      add\n        /* \"#utility.yul\":6246:6308   */\n      mstore\n      shl(0xe9, 0x32b997)\n        /* \"#utility.yul\":6324:6343   */\n      0x84\n      dup3\n      add\n        /* \"#utility.yul\":6317:6351   */\n      mstore\n        /* \"#utility.yul\":6368:6387   */\n      0xa4\n      add\n        /* \"solidity/contracts/BridgeWhenCheap.sol\":9866:10021  require(... */\n      tag_103\n        /* \"#utility.yul\":5922:6393   */\n      jump\n        /* \"solidity/contracts/BridgeWhenCheap.sol\":9866:10021  require(... */\n    tag_138:\n        /* \"solidity/contracts/BridgeWhenCheap.sol\":10066:10072  amount */\n      dup1\n        /* \"solidity/contracts/BridgeWhenCheap.sol\":10031:10062  collectedServiceFeeExcludingGas */\n      0x04\n      0x00\n        /* \"solidity/contracts/BridgeWhenCheap.sol\":10031:10072  collectedServiceFeeExcludingGas -= amount */\n      dup3\n      dup3\n      sload\n      tag_141\n      swap2\n      swap1\n      tag_142\n      jump\t// in\n    tag_141:\n      swap1\n      swap2\n      sstore\n      pop\n      pop\n        /* \"solidity/contracts/BridgeWhenCheap.sol\":10090:10122  payable(msg.sender).send(amount) */\n      mload(0x40)\n        /* \"solidity/contracts/BridgeWhenCheap.sol\":10098:10108  msg.sender */\n      caller\n      swap1\n        /* \"solidity/contracts/BridgeWhenCheap.sol\":10090:10122  payable(msg.sender).send(amount) */\n      dup3\n      iszero\n      0x08fc\n      mul\n      swap1\n        /* \"solidity/contracts/BridgeWhenCheap.sol\":10115:10121  amount */\n      dup4\n      swap1\n        /* \"solidity/contracts/BridgeWhenCheap.sol\":10090:10122  payable(msg.sender).send(amount) */\n      0x00\n      dup2\n      dup2\n      dup2\n        /* \"solidity/contracts/BridgeWhenCheap.sol\":10115:10121  amount */\n      dup6\n        /* \"solidity/contracts/BridgeWhenCheap.sol\":10098:10108  msg.sender */\n      dup9\n        /* \"solidity/contracts/BridgeWhenCheap.sol\":10090:10122  payable(msg.sender).send(amount) */\n      dup9\n      call\n      swap4\n      pop\n      pop\n      pop\n      pop\n        /* \"solidity/contracts/BridgeWhenCheap.sol\":10082:10123  require(payable(msg.sender).send(amount)) */\n      tag_144\n      jumpi\n      0x00\n      dup1\n      revert\n    tag_144:\n        /* \"@openzeppelin/contracts/security/ReentrancyGuard.sol\":2303:2323  _nonReentrantAfter() */\n      tag_131\n        /* \"@openzeppelin/contracts/security/ReentrancyGuard.sol\":1716:1717  1 */\n      0x01\n        /* \"@openzeppelin/contracts/security/ReentrancyGuard.sol\":2809:2831  _status = _NOT_ENTERED */\n      dup1\n      sstore\n        /* \"@openzeppelin/contracts/security/ReentrancyGuard.sol\":2629:2838  function _nonReentrantAfter() private {... */\n      jump\n        /* \"@openzeppelin/contracts/access/Ownable.sol\":1831:1932  function renounceOwnership() public virtual onlyOwner {... */\n    tag_50:\n        /* \"@openzeppelin/contracts/access/Ownable.sol\":1094:1107  _checkOwner() */\n      tag_147\n        /* \"@openzeppelin/contracts/access/Ownable.sol\":1094:1105  _checkOwner */\n      tag_100\n        /* \"@openzeppelin/contracts/access/Ownable.sol\":1094:1107  _checkOwner() */\n      jump\t// in\n    tag_147:\n        /* \"@openzeppelin/contracts/access/Ownable.sol\":1895:1925  _transferOwnership(address(0)) */\n      tag_149\n        /* \"@openzeppelin/contracts/access/Ownable.sol\":1922:1923  0 */\n      0x00\n        /* \"@openzeppelin/contracts/access/Ownable.sol\":1895:1913  _transferOwnership */\n      tag_150\n        /* \"@openzeppelin/contracts/access/Ownable.sol\":1895:1925  _transferOwnership(address(0)) */\n      jump\t// in\n    tag_149:\n        /* \"@openzeppelin/contracts/access/Ownable.sol\":1831:1932  function renounceOwnership() public virtual onlyOwner {... */\n      jump\t// out\n        /* \"solidity/contracts/BridgeWhenCheap.sol\":9673:9726  function ownerDeposit() external payable onlyOwner {} */\n    tag_59:\n        /* \"@openzeppelin/contracts/access/Ownable.sol\":1094:1107  _checkOwner() */\n      tag_149\n        /* \"@openzeppelin/contracts/access/Ownable.sol\":1094:1105  _checkOwner */\n      tag_100\n        /* \"@openzeppelin/contracts/access/Ownable.sol\":1094:1107  _checkOwner() */\n      jump\t// in\n        /* \"solidity/contracts/BridgeWhenCheap.sol\":10270:10412  function setL2execGasFeeDeposit(uint256 amount) external onlyOwner {... */\n    tag_63:\n        /* \"@openzeppelin/contracts/access/Ownable.sol\":1094:1107  _checkOwner() */\n      tag_155\n        /* \"@openzeppelin/contracts/access/Ownable.sol\":1094:1105  _checkOwner */\n      tag_100\n        /* \"@openzeppelin/contracts/access/Ownable.sol\":1094:1107  _checkOwner() */\n      jump\t// in\n    tag_155:\n        /* \"solidity/contracts/BridgeWhenCheap.sol\":10347:10366  l2execGasFeeDeposit */\n      0x02\n        /* \"solidity/contracts/BridgeWhenCheap.sol\":10347:10375  l2execGasFeeDeposit = amount */\n      dup2\n      swap1\n      sstore\n        /* \"solidity/contracts/BridgeWhenCheap.sol\":10385:10405  checkFeeInvariants() */\n      tag_131\n        /* \"solidity/contracts/BridgeWhenCheap.sol\":10385:10403  checkFeeInvariants */\n      tag_158\n        /* \"solidity/contracts/BridgeWhenCheap.sol\":10385:10405  checkFeeInvariants() */\n      jump\t// in\n        /* \"solidity/contracts/BridgeWhenCheap.sol\":3798:6492  function deposit(... */\n    tag_71:\n        /* \"@openzeppelin/contracts/security/ReentrancyGuard.sol\":2261:2282  _nonReentrantBefore() */\n      tag_160\n        /* \"@openzeppelin/contracts/security/ReentrancyGuard.sol\":2261:2280  _nonReentrantBefore */\n      tag_107\n        /* \"@openzeppelin/contracts/security/ReentrancyGuard.sol\":2261:2282  _nonReentrantBefore() */\n      jump\t// in\n    tag_160:\n        /* \"solidity/contracts/BridgeWhenCheap.sol\":4322:4332  msg.sender */\n      caller\n        /* \"solidity/contracts/BridgeWhenCheap.sol\":4314:4378  require(msg.sender != address(0), \"Sender may not be 0 address\") */\n      tag_162\n      jumpi\n      mload(0x40)\n      shl(0xe5, 0x461bcd)\n      dup2\n      mstore\n        /* \"#utility.yul\":6733:6735   */\n      0x20\n        /* \"solidity/contracts/BridgeWhenCheap.sol\":4314:4378  require(msg.sender != address(0), \"Sender may not be 0 address\") */\n      0x04\n      dup3\n      add\n        /* \"#utility.yul\":6715:6736   */\n      mstore\n        /* \"#utility.yul\":6772:6774   */\n      0x1b\n        /* \"#utility.yul\":6752:6770   */\n      0x24\n      dup3\n      add\n        /* \"#utility.yul\":6745:6775   */\n      mstore\n        /* \"#utility.yul\":6811:6840   */\n      0x53656e646572206d6179206e6f74206265203020616464726573730000000000\n        /* \"#utility.yul\":6791:6809   */\n      0x44\n      dup3\n      add\n        /* \"#utility.yul\":6784:6841   */\n      mstore\n        /* \"#utility.yul\":6858:6876   */\n      0x64\n      add\n        /* \"solidity/contracts/BridgeWhenCheap.sol\":4314:4378  require(msg.sender != address(0), \"Sender may not be 0 address\") */\n      tag_103\n        /* \"#utility.yul\":6531:6882   */\n      jump\n        /* \"solidity/contracts/BridgeWhenCheap.sol\":4314:4378  require(msg.sender != address(0), \"Sender may not be 0 address\") */\n    tag_162:\n      sub(shl(0xa0, 0x01), 0x01)\n        /* \"solidity/contracts/BridgeWhenCheap.sol\":4409:4434  destination != address(0) */\n      dup4\n      and\n        /* \"solidity/contracts/BridgeWhenCheap.sol\":4388:4500  require(... */\n      tag_165\n      jumpi\n      mload(0x40)\n      shl(0xe5, 0x461bcd)\n      dup2\n      mstore\n        /* \"#utility.yul\":7089:7091   */\n      0x20\n        /* \"solidity/contracts/BridgeWhenCheap.sol\":4388:4500  require(... */\n      0x04\n      dup3\n      add\n        /* \"#utility.yul\":7071:7092   */\n      mstore\n        /* \"#utility.yul\":7128:7130   */\n      0x28\n        /* \"#utility.yul\":7108:7126   */\n      0x24\n      dup3\n      add\n        /* \"#utility.yul\":7101:7131   */\n      mstore\n        /* \"#utility.yul\":7167:7201   */\n      0x44657374696e6174696f6e2061646472657373206d6179206e6f742062652030\n        /* \"#utility.yul\":7147:7165   */\n      0x44\n      dup3\n      add\n        /* \"#utility.yul\":7140:7202   */\n      mstore\n      shl(0xc0, 0x2061646472657373)\n        /* \"#utility.yul\":7218:7236   */\n      0x64\n      dup3\n      add\n        /* \"#utility.yul\":7211:7249   */\n      mstore\n        /* \"#utility.yul\":7266:7285   */\n      0x84\n      add\n        /* \"solidity/contracts/BridgeWhenCheap.sol\":4388:4500  require(... */\n      tag_103\n        /* \"#utility.yul\":6887:7291   */\n      jump\n        /* \"solidity/contracts/BridgeWhenCheap.sol\":4388:4500  require(... */\n    tag_165:\n        /* \"solidity/contracts/BridgeWhenCheap.sol\":4550:4551  0 */\n      0x00\n        /* \"solidity/contracts/BridgeWhenCheap.sol\":4531:4547  wantedL1GasPrice */\n      dup3\n        /* \"solidity/contracts/BridgeWhenCheap.sol\":4531:4551  wantedL1GasPrice > 0 */\n      gt\n        /* \"solidity/contracts/BridgeWhenCheap.sol\":4510:4622  require(... */\n      tag_168\n      jumpi\n      mload(0x40)\n      shl(0xe5, 0x461bcd)\n      dup2\n      mstore\n        /* \"#utility.yul\":7498:7500   */\n      0x20\n        /* \"solidity/contracts/BridgeWhenCheap.sol\":4510:4622  require(... */\n      0x04\n      dup3\n      add\n        /* \"#utility.yul\":7480:7501   */\n      mstore\n        /* \"#utility.yul\":7537:7539   */\n      0x2d\n        /* \"#utility.yul\":7517:7535   */\n      0x24\n      dup3\n      add\n        /* \"#utility.yul\":7510:7540   */\n      mstore\n        /* \"#utility.yul\":7576:7610   */\n      0x57616e746564204c3120676173207072696365206d7573742062652073747269\n        /* \"#utility.yul\":7556:7574   */\n      0x44\n      dup3\n      add\n        /* \"#utility.yul\":7549:7611   */\n      mstore\n      shl(0x98, 0x63746c7920706f736974697665)\n        /* \"#utility.yul\":7627:7645   */\n      0x64\n      dup3\n      add\n        /* \"#utility.yul\":7620:7663   */\n      mstore\n        /* \"#utility.yul\":7680:7699   */\n      0x84\n      add\n        /* \"solidity/contracts/BridgeWhenCheap.sol\":4510:4622  require(... */\n      tag_103\n        /* \"#utility.yul\":7296:7705   */\n      jump\n        /* \"solidity/contracts/BridgeWhenCheap.sol\":4510:4622  require(... */\n    tag_168:\n        /* \"solidity/contracts/BridgeWhenCheap.sol\":4666:4676  serviceFee */\n      sload(0x03)\n        /* \"solidity/contracts/BridgeWhenCheap.sol\":4653:4662  msg.value */\n      callvalue\n        /* \"solidity/contracts/BridgeWhenCheap.sol\":4653:4676  msg.value >= serviceFee */\n      lt\n      iszero\n        /* \"solidity/contracts/BridgeWhenCheap.sol\":4632:4747  require(... */\n      tag_171\n      jumpi\n      mload(0x40)\n      shl(0xe5, 0x461bcd)\n      dup2\n      mstore\n        /* \"#utility.yul\":7912:7914   */\n      0x20\n        /* \"solidity/contracts/BridgeWhenCheap.sol\":4632:4747  require(... */\n      0x04\n      dup3\n      add\n        /* \"#utility.yul\":7894:7915   */\n      mstore\n        /* \"#utility.yul\":7951:7953   */\n      0x2d\n        /* \"#utility.yul\":7931:7949   */\n      0x24\n      dup3\n      add\n        /* \"#utility.yul\":7924:7954   */\n      mstore\n        /* \"#utility.yul\":7990:8024   */\n      0x4e6f7420656e6f7567682066756e647320746f2070617920666f722064656c61\n        /* \"#utility.yul\":7970:7988   */\n      0x44\n      dup3\n      add\n        /* \"#utility.yul\":7963:8025   */\n      mstore\n      shl(0x99, 0x3cb2b21032bc32b1baba34b7b7)\n        /* \"#utility.yul\":8041:8059   */\n      0x64\n      dup3\n      add\n        /* \"#utility.yul\":8034:8077   */\n      mstore\n        /* \"#utility.yul\":8094:8113   */\n      0x84\n      add\n        /* \"solidity/contracts/BridgeWhenCheap.sol\":4632:4747  require(... */\n      tag_103\n        /* \"#utility.yul\":7710:8119   */\n      jump\n        /* \"solidity/contracts/BridgeWhenCheap.sol\":4632:4747  require(... */\n    tag_171:\n        /* \"solidity/contracts/BridgeWhenCheap.sol\":4781:4797  tokenAmount != 0 */\n      dup4\n      iszero\n      dup1\n      iszero\n      swap1\n        /* \"solidity/contracts/BridgeWhenCheap.sol\":4758:4778  bool isTokenTransfer */\n      0x00\n      swap1\n        /* \"solidity/contracts/BridgeWhenCheap.sol\":4836:5404  if (isTokenTransfer) {... */\n      tag_174\n      jumpi\n      sub(shl(0xa0, 0x01), 0x01)\n        /* \"solidity/contracts/BridgeWhenCheap.sol\":4896:4919  bridgeContractOf[token] */\n      dup8\n      dup2\n      and\n        /* \"solidity/contracts/BridgeWhenCheap.sol\":4931:4932  0 */\n      0x00\n        /* \"solidity/contracts/BridgeWhenCheap.sol\":4896:4919  bridgeContractOf[token] */\n      swap1\n      dup2\n      mstore\n        /* \"solidity/contracts/BridgeWhenCheap.sol\":4896:4912  bridgeContractOf */\n      0x07\n        /* \"solidity/contracts/BridgeWhenCheap.sol\":4896:4919  bridgeContractOf[token] */\n      0x20\n      mstore\n      0x40\n      swap1\n      keccak256\n      sload\n      and\n        /* \"solidity/contracts/BridgeWhenCheap.sol\":4871:4990  require(... */\n      tag_175\n      jumpi\n      mload(0x40)\n      shl(0xe5, 0x461bcd)\n      dup2\n      mstore\n        /* \"#utility.yul\":8326:8328   */\n      0x20\n        /* \"solidity/contracts/BridgeWhenCheap.sol\":4871:4990  require(... */\n      0x04\n      dup3\n      add\n        /* \"#utility.yul\":8308:8329   */\n      mstore\n        /* \"#utility.yul\":8365:8367   */\n      0x17\n        /* \"#utility.yul\":8345:8363   */\n      0x24\n      dup3\n      add\n        /* \"#utility.yul\":8338:8368   */\n      mstore\n        /* \"#utility.yul\":8404:8429   */\n      0x546f6b656e206973206e6f7420737570706f727465642e000000000000000000\n        /* \"#utility.yul\":8384:8402   */\n      0x44\n      dup3\n      add\n        /* \"#utility.yul\":8377:8430   */\n      mstore\n        /* \"#utility.yul\":8447:8465   */\n      0x64\n      add\n        /* \"solidity/contracts/BridgeWhenCheap.sol\":4871:4990  require(... */\n      tag_103\n        /* \"#utility.yul\":8124:8471   */\n      jump\n        /* \"solidity/contracts/BridgeWhenCheap.sol\":4871:4990  require(... */\n    tag_175:\n        /* \"solidity/contracts/BridgeWhenCheap.sol\":5042:5052  serviceFee */\n      sload(0x03)\n        /* \"solidity/contracts/BridgeWhenCheap.sol\":5029:5038  msg.value */\n      callvalue\n        /* \"solidity/contracts/BridgeWhenCheap.sol\":5029:5052  msg.value == serviceFee */\n      eq\n        /* \"solidity/contracts/BridgeWhenCheap.sol\":5004:5134  require(... */\n      tag_178\n      jumpi\n      mload(0x40)\n      shl(0xe5, 0x461bcd)\n      dup2\n      mstore\n        /* \"#utility.yul\":8678:8680   */\n      0x20\n        /* \"solidity/contracts/BridgeWhenCheap.sol\":5004:5134  require(... */\n      0x04\n      dup3\n      add\n        /* \"#utility.yul\":8660:8681   */\n      mstore\n        /* \"#utility.yul\":8717:8719   */\n      0x30\n        /* \"#utility.yul\":8697:8715   */\n      0x24\n      dup3\n      add\n        /* \"#utility.yul\":8690:8720   */\n      mstore\n        /* \"#utility.yul\":8756:8790   */\n      0x466f7220746f6b656e206465706f736974732c20706179207468652073657276\n        /* \"#utility.yul\":8736:8754   */\n      0x44\n      dup3\n      add\n        /* \"#utility.yul\":8729:8791   */\n      mstore\n      shl(0x81, 0x34b1b2903332b29032bc30b1ba363c97)\n        /* \"#utility.yul\":8807:8825   */\n      0x64\n      dup3\n      add\n        /* \"#utility.yul\":8800:8846   */\n      mstore\n        /* \"#utility.yul\":8863:8882   */\n      0x84\n      add\n        /* \"solidity/contracts/BridgeWhenCheap.sol\":5004:5134  require(... */\n      tag_103\n        /* \"#utility.yul\":8476:8888   */\n      jump\n        /* \"solidity/contracts/BridgeWhenCheap.sol\":5004:5134  require(... */\n    tag_178:\n      pop\n        /* \"solidity/contracts/BridgeWhenCheap.sol\":5161:5172  tokenAmount */\n      dup5\n        /* \"solidity/contracts/BridgeWhenCheap.sol\":4836:5404  if (isTokenTransfer) {... */\n      jump(tag_181)\n    tag_174:\n      sub(shl(0xa0, 0x01), 0x01)\n        /* \"solidity/contracts/BridgeWhenCheap.sol\":5228:5256  address(token) == address(0) */\n      dup8\n      and\n      iszero\n        /* \"solidity/contracts/BridgeWhenCheap.sol\":5203:5344  require(... */\n      tag_182\n      jumpi\n      mload(0x40)\n      shl(0xe5, 0x461bcd)\n      dup2\n      mstore\n        /* \"#utility.yul\":9095:9097   */\n      0x20\n        /* \"solidity/contracts/BridgeWhenCheap.sol\":5203:5344  require(... */\n      0x04\n      dup3\n      add\n        /* \"#utility.yul\":9077:9098   */\n      mstore\n        /* \"#utility.yul\":9134:9136   */\n      0x36\n        /* \"#utility.yul\":9114:9132   */\n      0x24\n      dup3\n      add\n        /* \"#utility.yul\":9107:9137   */\n      mstore\n        /* \"#utility.yul\":9173:9207   */\n      0x546f6b656e206d757374206265203020616464726573732c207768656e206465\n        /* \"#utility.yul\":9153:9171   */\n      0x44\n      dup3\n      add\n        /* \"#utility.yul\":9146:9208   */\n      mstore\n      shl(0x51, 0x3837b9b4ba34b733903730ba34bb329032ba3432b917)\n        /* \"#utility.yul\":9224:9242   */\n      0x64\n      dup3\n      add\n        /* \"#utility.yul\":9217:9269   */\n      mstore\n        /* \"#utility.yul\":9286:9305   */\n      0x84\n      add\n        /* \"solidity/contracts/BridgeWhenCheap.sol\":5203:5344  require(... */\n      tag_103\n        /* \"#utility.yul\":8893:9311   */\n      jump\n        /* \"solidity/contracts/BridgeWhenCheap.sol\":5203:5344  require(... */\n    tag_182:\n        /* \"solidity/contracts/BridgeWhenCheap.sol\":5383:5393  serviceFee */\n      sload(0x03)\n        /* \"solidity/contracts/BridgeWhenCheap.sol\":5371:5393  msg.value - serviceFee */\n      tag_185\n      swap1\n        /* \"solidity/contracts/BridgeWhenCheap.sol\":5371:5380  msg.value */\n      callvalue\n        /* \"solidity/contracts/BridgeWhenCheap.sol\":5371:5393  msg.value - serviceFee */\n      tag_142\n      jump\t// in\n    tag_185:\n        /* \"solidity/contracts/BridgeWhenCheap.sol\":5358:5393  sentAmount = msg.value - serviceFee */\n      swap1\n      pop\n        /* \"solidity/contracts/BridgeWhenCheap.sol\":4836:5404  if (isTokenTransfer) {... */\n    tag_181:\n        /* \"solidity/contracts/BridgeWhenCheap.sol\":5449:5461  amountOutMin */\n      dup3\n        /* \"solidity/contracts/BridgeWhenCheap.sol\":5435:5445  sentAmount */\n      dup2\n        /* \"solidity/contracts/BridgeWhenCheap.sol\":5435:5461  sentAmount >= amountOutMin */\n      lt\n      iszero\n        /* \"solidity/contracts/BridgeWhenCheap.sol\":5414:5581  require(... */\n      tag_186\n      jumpi\n      mload(0x40)\n      shl(0xe5, 0x461bcd)\n      dup2\n      mstore\n        /* \"#utility.yul\":9518:9520   */\n      0x20\n        /* \"solidity/contracts/BridgeWhenCheap.sol\":5414:5581  require(... */\n      0x04\n      dup3\n      add\n        /* \"#utility.yul\":9500:9521   */\n      mstore\n        /* \"#utility.yul\":9557:9559   */\n      0x5e\n        /* \"#utility.yul\":9537:9555   */\n      0x24\n      dup3\n      add\n        /* \"#utility.yul\":9530:9560   */\n      mstore\n        /* \"#utility.yul\":9596:9630   */\n      0x43616c63756c617465642073656e7420616d6f756e74206d757374206265206c\n        /* \"#utility.yul\":9576:9594   */\n      0x44\n      dup3\n      add\n        /* \"#utility.yul\":9569:9631   */\n      mstore\n        /* \"#utility.yul\":9667:9701   */\n      0x6172676572207468616e207468652064657369726564206d696e696d756d2061\n        /* \"#utility.yul\":9647:9665   */\n      0x64\n      dup3\n      add\n        /* \"#utility.yul\":9640:9702   */\n      mstore\n        /* \"#utility.yul\":9739:9771   */\n      0x6d6f756e74206172726976696e672061742064657374696e6174696f6e2e0000\n        /* \"#utility.yul\":9718:9737   */\n      0x84\n      dup3\n      add\n        /* \"#utility.yul\":9711:9772   */\n      mstore\n        /* \"#utility.yul\":9789:9808   */\n      0xa4\n      add\n        /* \"solidity/contracts/BridgeWhenCheap.sol\":5414:5581  require(... */\n      tag_103\n        /* \"#utility.yul\":9316:9814   */\n      jump\n        /* \"solidity/contracts/BridgeWhenCheap.sol\":5414:5581  require(... */\n    tag_186:\n        /* \"solidity/contracts/BridgeWhenCheap.sol\":5640:5650  msg.sender */\n      caller\n        /* \"solidity/contracts/BridgeWhenCheap.sol\":5624:5651  pendingRequests[msg.sender] */\n      0x00\n      swap1\n      dup2\n      mstore\n        /* \"solidity/contracts/BridgeWhenCheap.sol\":5624:5639  pendingRequests */\n      0x05\n        /* \"solidity/contracts/BridgeWhenCheap.sol\":5624:5651  pendingRequests[msg.sender] */\n      0x20\n      dup2\n      dup2\n      mstore\n      0x40\n      dup1\n      dup5\n      keccak256\n        /* \"solidity/contracts/BridgeWhenCheap.sol\":5624:5662  pendingRequests[msg.sender][requestId] */\n      dup13\n      dup6\n      mstore\n      dup3\n      mstore\n      swap3\n      dup4\n      swap1\n      keccak256\n        /* \"solidity/contracts/BridgeWhenCheap.sol\":5614:5663  isDefined(pendingRequests[msg.sender][requestId]) */\n      dup4\n      mload\n      0x0100\n      dup2\n      add\n      dup6\n      mstore\n      dup2\n      sload\n      sub(shl(0xa0, 0x01), 0x01)\n      swap1\n      dup2\n      and\n      dup1\n      dup4\n      mstore\n      0x01\n      dup5\n      add\n      sload\n      dup1\n      dup4\n      and\n      swap6\n      dup5\n      add\n      swap6\n      swap1\n      swap6\n      mstore\n      shl(0xa0, 0x01)\n      swap1\n      swap5\n      div\n      0xff\n      and\n      iszero\n      iszero\n      swap6\n      dup3\n      add\n      swap6\n      swap1\n      swap6\n      mstore\n      0x02\n      dup3\n      add\n      sload\n      swap1\n      swap5\n      and\n      0x60\n      dup6\n      add\n      mstore\n      0x03\n      dup2\n      add\n      sload\n      0x80\n      dup6\n      add\n      mstore\n      0x04\n      dup2\n      add\n      sload\n      0xa0\n      dup6\n      add\n      mstore\n      swap2\n      dup3\n      add\n      sload\n      0xc0\n      dup5\n      add\n      mstore\n      0x06\n      swap1\n      swap2\n      add\n      sload\n      0xe0\n      swap1\n      swap3\n      add\n      swap2\n      swap1\n      swap2\n      mstore\n        /* \"solidity/contracts/BridgeWhenCheap.sol\":11669:11697  request.source != address(0) */\n      iszero\n        /* \"solidity/contracts/BridgeWhenCheap.sol\":5592:5747  require(... */\n      tag_190\n      jumpi\n      mload(0x40)\n      shl(0xe5, 0x461bcd)\n      dup2\n      mstore\n        /* \"#utility.yul\":10021:10023   */\n      0x20\n        /* \"solidity/contracts/BridgeWhenCheap.sol\":5592:5747  require(... */\n      0x04\n      dup3\n      add\n        /* \"#utility.yul\":10003:10024   */\n      mstore\n        /* \"#utility.yul\":10060:10062   */\n      0x3a\n        /* \"#utility.yul\":10040:10058   */\n      0x24\n      dup3\n      add\n        /* \"#utility.yul\":10033:10063   */\n      mstore\n        /* \"#utility.yul\":10099:10133   */\n      0x526571756573742077697468207468652073616d6520696420666f7220746865\n        /* \"#utility.yul\":10079:10097   */\n      0x44\n      dup3\n      add\n        /* \"#utility.yul\":10072:10134   */\n      mstore\n        /* \"#utility.yul\":10170:10198   */\n      0x20726571756573746f7220616c7265616479206578697374732e000000000000\n        /* \"#utility.yul\":10150:10168   */\n      0x64\n      dup3\n      add\n        /* \"#utility.yul\":10143:10199   */\n      mstore\n        /* \"#utility.yul\":10216:10235   */\n      0x84\n      add\n        /* \"solidity/contracts/BridgeWhenCheap.sol\":5592:5747  require(... */\n      tag_103\n        /* \"#utility.yul\":9819:10241   */\n      jump\n        /* \"solidity/contracts/BridgeWhenCheap.sol\":5592:5747  require(... */\n    tag_190:\n        /* \"solidity/contracts/BridgeWhenCheap.sol\":5777:5816  recordCollectedServiceFeeExcludingGas() */\n      tag_193\n        /* \"solidity/contracts/BridgeWhenCheap.sol\":5777:5814  recordCollectedServiceFeeExcludingGas */\n      tag_194\n        /* \"solidity/contracts/BridgeWhenCheap.sol\":5777:5816  recordCollectedServiceFeeExcludingGas() */\n      jump\t// in\n    tag_193:\n        /* \"solidity/contracts/BridgeWhenCheap.sol\":5868:6209  BridgeRequest({... */\n      mload(0x40)\n      dup1\n      0x0100\n      add\n      0x40\n      mstore\n      dup1\n        /* \"solidity/contracts/BridgeWhenCheap.sol\":5904:5914  msg.sender */\n      caller\n      sub(shl(0xa0, 0x01), 0x01)\n        /* \"solidity/contracts/BridgeWhenCheap.sol\":5868:6209  BridgeRequest({... */\n      and\n      dup2\n      mstore\n      0x20\n      add\n        /* \"solidity/contracts/BridgeWhenCheap.sol\":5941:5952  destination */\n      dup7\n      sub(shl(0xa0, 0x01), 0x01)\n        /* \"solidity/contracts/BridgeWhenCheap.sol\":5868:6209  BridgeRequest({... */\n      and\n      dup2\n      mstore\n      0x20\n      add\n        /* \"solidity/contracts/BridgeWhenCheap.sol\":5983:5998  isTokenTransfer */\n      dup4\n        /* \"solidity/contracts/BridgeWhenCheap.sol\":5868:6209  BridgeRequest({... */\n      iszero\n      iszero\n      dup2\n      mstore\n      0x20\n      add\n        /* \"solidity/contracts/BridgeWhenCheap.sol\":6019:6024  token */\n      dup9\n      sub(shl(0xa0, 0x01), 0x01)\n        /* \"solidity/contracts/BridgeWhenCheap.sol\":5868:6209  BridgeRequest({... */\n      and\n      dup2\n      mstore\n      0x20\n      add\n        /* \"solidity/contracts/BridgeWhenCheap.sol\":6046:6056  sentAmount */\n      dup3\n        /* \"solidity/contracts/BridgeWhenCheap.sol\":5868:6209  BridgeRequest({... */\n      dup2\n      mstore\n      0x20\n      add\n        /* \"solidity/contracts/BridgeWhenCheap.sol\":6084:6096  amountOutMin */\n      dup5\n        /* \"solidity/contracts/BridgeWhenCheap.sol\":5868:6209  BridgeRequest({... */\n      dup2\n      mstore\n      0x20\n      add\n        /* \"solidity/contracts/BridgeWhenCheap.sol\":6128:6144  wantedL1GasPrice */\n      dup6\n        /* \"solidity/contracts/BridgeWhenCheap.sol\":5868:6209  BridgeRequest({... */\n      dup2\n      mstore\n      0x20\n      add\n        /* \"solidity/contracts/BridgeWhenCheap.sol\":6179:6198  l2execGasFeeDeposit */\n      sload(0x02)\n        /* \"solidity/contracts/BridgeWhenCheap.sol\":5868:6209  BridgeRequest({... */\n      dup2\n      mstore\n      pop\n        /* \"solidity/contracts/BridgeWhenCheap.sol\":5827:5842  pendingRequests */\n      0x05\n        /* \"solidity/contracts/BridgeWhenCheap.sol\":5827:5854  pendingRequests[msg.sender] */\n      0x00\n        /* \"solidity/contracts/BridgeWhenCheap.sol\":5843:5853  msg.sender */\n      caller\n      sub(shl(0xa0, 0x01), 0x01)\n        /* \"solidity/contracts/BridgeWhenCheap.sol\":5827:5854  pendingRequests[msg.sender] */\n      and\n      sub(shl(0xa0, 0x01), 0x01)\n      and\n      dup2\n      mstore\n      0x20\n      add\n      swap1\n      dup2\n      mstore\n      0x20\n      add\n      0x00\n      keccak256\n        /* \"solidity/contracts/BridgeWhenCheap.sol\":5827:5865  pendingRequests[msg.sender][requestId] */\n      0x00\n        /* \"solidity/contracts/BridgeWhenCheap.sol\":5855:5864  requestId */\n      dup11\n        /* \"solidity/contracts/BridgeWhenCheap.sol\":5827:5865  pendingRequests[msg.sender][requestId] */\n      dup2\n      mstore\n      0x20\n      add\n      swap1\n      dup2\n      mstore\n      0x20\n      add\n      0x00\n      keccak256\n        /* \"solidity/contracts/BridgeWhenCheap.sol\":5827:6209  pendingRequests[msg.sender][requestId] = BridgeRequest({... */\n      0x00\n      dup3\n      add\n      mload\n      dup2\n      0x00\n      add\n      exp(0x0100, 0x00)\n      dup2\n      sload\n      dup2\n      sub(shl(0xa0, 0x01), 0x01)\n      mul\n      not\n      and\n      swap1\n      dup4\n      sub(shl(0xa0, 0x01), 0x01)\n      and\n      mul\n      or\n      swap1\n      sstore\n      pop\n      0x20\n      dup3\n      add\n      mload\n      dup2\n      0x01\n      add\n      exp(0x0100, 0x00)\n      dup2\n      sload\n      dup2\n      sub(shl(0xa0, 0x01), 0x01)\n      mul\n      not\n      and\n      swap1\n      dup4\n      sub(shl(0xa0, 0x01), 0x01)\n      and\n      mul\n      or\n      swap1\n      sstore\n      pop\n      0x40\n      dup3\n      add\n      mload\n      dup2\n      0x01\n      add\n      exp(0x0100, 0x14)\n      dup2\n      sload\n      dup2\n      0xff\n      mul\n      not\n      and\n      swap1\n      dup4\n      iszero\n      iszero\n      mul\n      or\n      swap1\n      sstore\n      pop\n      0x60\n      dup3\n      add\n      mload\n      dup2\n      0x02\n      add\n      exp(0x0100, 0x00)\n      dup2\n      sload\n      dup2\n      sub(shl(0xa0, 0x01), 0x01)\n      mul\n      not\n      and\n      swap1\n      dup4\n      sub(shl(0xa0, 0x01), 0x01)\n      and\n      mul\n      or\n      swap1\n      sstore\n      pop\n      0x80\n      dup3\n      add\n      mload\n      dup2\n      0x03\n      add\n      sstore\n      0xa0\n      dup3\n      add\n      mload\n      dup2\n      0x04\n      add\n      sstore\n      0xc0\n      dup3\n      add\n      mload\n      dup2\n      0x05\n      add\n      sstore\n      0xe0\n      dup3\n      add\n      mload\n      dup2\n      0x06\n      add\n      sstore\n      swap1\n      pop\n      pop\n        /* \"solidity/contracts/BridgeWhenCheap.sol\":6378:6393  isTokenTransfer */\n      dup2\n        /* \"solidity/contracts/BridgeWhenCheap.sol\":6374:6486  if (isTokenTransfer) {... */\n      iszero\n      tag_200\n      jumpi\n        /* \"solidity/contracts/BridgeWhenCheap.sol\":6417:6474  token.transferFrom(msg.sender, address(this), sentAmount) */\n      mload(0x40)\n      shl(0xe0, 0x23b872dd)\n      dup2\n      mstore\n        /* \"solidity/contracts/BridgeWhenCheap.sol\":6436:6446  msg.sender */\n      caller\n        /* \"solidity/contracts/BridgeWhenCheap.sol\":6417:6474  token.transferFrom(msg.sender, address(this), sentAmount) */\n      0x04\n      dup3\n      add\n        /* \"#utility.yul\":5500:5534   */\n      mstore\n        /* \"solidity/contracts/BridgeWhenCheap.sol\":6456:6460  this */\n      address\n        /* \"#utility.yul\":5550:5568   */\n      0x24\n      dup3\n      add\n        /* \"#utility.yul\":5543:5586   */\n      mstore\n        /* \"#utility.yul\":5602:5620   */\n      0x44\n      dup2\n      add\n        /* \"#utility.yul\":5595:5629   */\n      dup3\n      swap1\n      mstore\n      sub(shl(0xa0, 0x01), 0x01)\n        /* \"solidity/contracts/BridgeWhenCheap.sol\":6417:6435  token.transferFrom */\n      dup9\n      and\n      swap1\n      0x23b872dd\n      swap1\n        /* \"#utility.yul\":5435:5453   */\n      0x64\n      add\n        /* \"solidity/contracts/BridgeWhenCheap.sol\":6417:6474  token.transferFrom(msg.sender, address(this), sentAmount) */\n      0x20\n      mload(0x40)\n      dup1\n      dup4\n      sub\n      dup2\n      0x00\n      dup8\n      gas\n      call\n      iszero\n      dup1\n      iszero\n      tag_198\n      jumpi\n      returndatasize\n      0x00\n      dup1\n      returndatacopy\n      revert(0x00, returndatasize)\n    tag_198:\n      pop\n      pop\n      pop\n      pop\n      mload(0x40)\n      returndatasize\n      not(0x1f)\n      0x1f\n      dup3\n      add\n      and\n      dup3\n      add\n      dup1\n      0x40\n      mstore\n      pop\n      dup2\n      add\n      swap1\n      tag_199\n      swap2\n      swap1\n      tag_129\n      jump\t// in\n    tag_199:\n        /* \"solidity/contracts/BridgeWhenCheap.sol\":6409:6475  require(token.transferFrom(msg.sender, address(this), sentAmount)) */\n      tag_200\n      jumpi\n      0x00\n      dup1\n      revert\n    tag_200:\n        /* \"solidity/contracts/BridgeWhenCheap.sol\":4286:6492  {... */\n      pop\n      pop\n        /* \"@openzeppelin/contracts/security/ReentrancyGuard.sol\":2303:2323  _nonReentrantAfter() */\n      tag_201\n        /* \"@openzeppelin/contracts/security/ReentrancyGuard.sol\":1716:1717  1 */\n      0x01\n        /* \"@openzeppelin/contracts/security/ReentrancyGuard.sol\":2809:2831  _status = _NOT_ENTERED */\n      dup1\n      sstore\n        /* \"@openzeppelin/contracts/security/ReentrancyGuard.sol\":2629:2838  function _nonReentrantAfter() private {... */\n      jump\n        /* \"@openzeppelin/contracts/security/ReentrancyGuard.sol\":2303:2323  _nonReentrantAfter() */\n    tag_201:\n        /* \"solidity/contracts/BridgeWhenCheap.sol\":3798:6492  function deposit(... */\n      pop\n      pop\n      pop\n      pop\n      pop\n      pop\n      jump\t// out\n        /* \"solidity/contracts/BridgeWhenCheap.sol\":10503:10627  function setserviceFee(uint256 amount) external onlyOwner {... */\n    tag_79:\n        /* \"@openzeppelin/contracts/access/Ownable.sol\":1094:1107  _checkOwner() */\n      tag_204\n        /* \"@openzeppelin/contracts/access/Ownable.sol\":1094:1105  _checkOwner */\n      tag_100\n        /* \"@openzeppelin/contracts/access/Ownable.sol\":1094:1107  _checkOwner() */\n      jump\t// in\n    tag_204:\n        /* \"solidity/contracts/BridgeWhenCheap.sol\":10571:10581  serviceFee */\n      0x03\n        /* \"solidity/contracts/BridgeWhenCheap.sol\":10571:10590  serviceFee = amount */\n      dup2\n      swap1\n      sstore\n        /* \"solidity/contracts/BridgeWhenCheap.sol\":10600:10620  checkFeeInvariants() */\n      tag_131\n        /* \"solidity/contracts/BridgeWhenCheap.sol\":10600:10618  checkFeeInvariants */\n      tag_158\n        /* \"solidity/contracts/BridgeWhenCheap.sol\":10600:10620  checkFeeInvariants() */\n      jump\t// in\n        /* \"solidity/contracts/BridgeWhenCheap.sol\":7964:9455  function executeRequest(... */\n    tag_92:\n        /* \"@openzeppelin/contracts/access/Ownable.sol\":1094:1107  _checkOwner() */\n      tag_208\n        /* \"@openzeppelin/contracts/access/Ownable.sol\":1094:1105  _checkOwner */\n      tag_100\n        /* \"@openzeppelin/contracts/access/Ownable.sol\":1094:1107  _checkOwner() */\n      jump\t// in\n    tag_208:\n        /* \"@openzeppelin/contracts/security/ReentrancyGuard.sol\":2261:2282  _nonReentrantBefore() */\n      tag_210\n        /* \"@openzeppelin/contracts/security/ReentrancyGuard.sol\":2261:2280  _nonReentrantBefore */\n      tag_107\n        /* \"@openzeppelin/contracts/security/ReentrancyGuard.sol\":2261:2282  _nonReentrantBefore() */\n      jump\t// in\n    tag_210:\n      sub(shl(0xa0, 0x01), 0x01)\n        /* \"solidity/contracts/BridgeWhenCheap.sol\":8416:8442  pendingRequests[requestor] */\n      dup8\n      dup2\n      and\n        /* \"solidity/contracts/BridgeWhenCheap.sol\":8374:8413  BridgeRequest memory toBeBridgedRequest */\n      0x00\n        /* \"solidity/contracts/BridgeWhenCheap.sol\":8416:8442  pendingRequests[requestor] */\n      swap1\n      dup2\n      mstore\n        /* \"solidity/contracts/BridgeWhenCheap.sol\":8416:8431  pendingRequests */\n      0x05\n        /* \"solidity/contracts/BridgeWhenCheap.sol\":8416:8442  pendingRequests[requestor] */\n      0x20\n      dup2\n      dup2\n      mstore\n      0x40\n      dup1\n      dup5\n      keccak256\n        /* \"solidity/contracts/BridgeWhenCheap.sol\":8416:8475  pendingRequests[requestor][... */\n      dup12\n      dup6\n      mstore\n      dup3\n      mstore\n      swap3\n      dup4\n      swap1\n      keccak256\n        /* \"solidity/contracts/BridgeWhenCheap.sol\":8374:8475  BridgeRequest memory toBeBridgedRequest = pendingRequests[requestor][... */\n      dup4\n      mload\n      0x0100\n      dup2\n      add\n      dup6\n      mstore\n      dup2\n      sload\n      dup7\n      and\n      dup1\n      dup3\n      mstore\n      0x01\n      dup4\n      add\n      sload\n      dup1\n      dup9\n      and\n      swap5\n      dup4\n      add\n      swap5\n      swap1\n      swap5\n      mstore\n      shl(0xa0, 0x01)\n      swap1\n      swap4\n      div\n      0xff\n      and\n      iszero\n      iszero\n      swap5\n      dup2\n      add\n      swap5\n      swap1\n      swap5\n      mstore\n      0x02\n      dup2\n      add\n      sload\n      swap1\n      swap5\n      and\n      0x60\n      dup5\n      add\n      mstore\n      0x03\n      dup5\n      add\n      sload\n      0x80\n      dup5\n      add\n      mstore\n      0x04\n      dup5\n      add\n      sload\n      0xa0\n      dup5\n      add\n      mstore\n      swap1\n      dup4\n      add\n      sload\n      0xc0\n      dup4\n      add\n      mstore\n      0x06\n      swap1\n      swap3\n      add\n      sload\n      0xe0\n      dup3\n      add\n      mstore\n      swap1\n        /* \"solidity/contracts/BridgeWhenCheap.sol\":8485:8548  require(isDefined(toBeBridgedRequest), \"No request to process\") */\n      tag_213\n      jumpi\n      mload(0x40)\n      shl(0xe5, 0x461bcd)\n      dup2\n      mstore\n        /* \"#utility.yul\":10448:10450   */\n      0x20\n        /* \"solidity/contracts/BridgeWhenCheap.sol\":8485:8548  require(isDefined(toBeBridgedRequest), \"No request to process\") */\n      0x04\n      dup3\n      add\n        /* \"#utility.yul\":10430:10451   */\n      mstore\n        /* \"#utility.yul\":10487:10489   */\n      0x15\n        /* \"#utility.yul\":10467:10485   */\n      0x24\n      dup3\n      add\n        /* \"#utility.yul\":10460:10490   */\n      mstore\n      shl(0x58, 0x4e6f207265717565737420746f2070726f63657373)\n        /* \"#utility.yul\":10506:10524   */\n      0x44\n      dup3\n      add\n        /* \"#utility.yul\":10499:10550   */\n      mstore\n        /* \"#utility.yul\":10567:10585   */\n      0x64\n      add\n        /* \"solidity/contracts/BridgeWhenCheap.sol\":8485:8548  require(isDefined(toBeBridgedRequest), \"No request to process\") */\n      tag_103\n        /* \"#utility.yul\":10246:10591   */\n      jump\n        /* \"solidity/contracts/BridgeWhenCheap.sol\":8485:8548  require(isDefined(toBeBridgedRequest), \"No request to process\") */\n    tag_213:\n        /* \"solidity/contracts/BridgeWhenCheap.sol\":8608:8617  bonderFee */\n      dup6\n        /* \"solidity/contracts/BridgeWhenCheap.sol\":8579:8597  toBeBridgedRequest */\n      dup2\n        /* \"solidity/contracts/BridgeWhenCheap.sol\":8579:8604  toBeBridgedRequest.amount */\n      0x80\n      add\n      mload\n        /* \"solidity/contracts/BridgeWhenCheap.sol\":8579:8617  toBeBridgedRequest.amount >= bonderFee */\n      lt\n      iszero\n        /* \"solidity/contracts/BridgeWhenCheap.sol\":8558:8675  require(... */\n      tag_216\n      jumpi\n      mload(0x40)\n      shl(0xe5, 0x461bcd)\n      dup2\n      mstore\n        /* \"#utility.yul\":10798:10800   */\n      0x20\n        /* \"solidity/contracts/BridgeWhenCheap.sol\":8558:8675  require(... */\n      0x04\n      dup3\n      add\n        /* \"#utility.yul\":10780:10801   */\n      dup2\n      swap1\n      mstore\n        /* \"#utility.yul\":10817:10835   */\n      0x24\n      dup3\n      add\n        /* \"#utility.yul\":10810:10840   */\n      mstore\n        /* \"#utility.yul\":10876:10910   */\n      0x426f6e646572206665652063616e6e6f742065786365656420616d6f756e742e\n        /* \"#utility.yul\":10856:10874   */\n      0x44\n      dup3\n      add\n        /* \"#utility.yul\":10849:10911   */\n      mstore\n        /* \"#utility.yul\":10928:10946   */\n      0x64\n      add\n        /* \"solidity/contracts/BridgeWhenCheap.sol\":8558:8675  require(... */\n      tag_103\n        /* \"#utility.yul\":10596:10952   */\n      jump\n        /* \"solidity/contracts/BridgeWhenCheap.sol\":8558:8675  require(... */\n    tag_216:\n        /* \"solidity/contracts/BridgeWhenCheap.sol\":8685:8708  uint256 nativeEtherSent */\n      0x00\n        /* \"solidity/contracts/BridgeWhenCheap.sol\":8711:8729  toBeBridgedRequest */\n      dup2\n        /* \"solidity/contracts/BridgeWhenCheap.sol\":8711:8745  toBeBridgedRequest.isTokenTransfer */\n      0x40\n      add\n      mload\n        /* \"solidity/contracts/BridgeWhenCheap.sol\":8711:8801  toBeBridgedRequest.isTokenTransfer... */\n      tag_219\n      jumpi\n        /* \"solidity/contracts/BridgeWhenCheap.sol\":8776:8794  toBeBridgedRequest */\n      dup2\n        /* \"solidity/contracts/BridgeWhenCheap.sol\":8776:8801  toBeBridgedRequest.amount */\n      0x80\n      add\n      mload\n        /* \"solidity/contracts/BridgeWhenCheap.sol\":8711:8801  toBeBridgedRequest.isTokenTransfer... */\n      jump(tag_220)\n    tag_219:\n        /* \"solidity/contracts/BridgeWhenCheap.sol\":8760:8761  0 */\n      0x00\n        /* \"solidity/contracts/BridgeWhenCheap.sol\":8711:8801  toBeBridgedRequest.isTokenTransfer... */\n    tag_220:\n        /* \"solidity/contracts/BridgeWhenCheap.sol\":8853:8877  toBeBridgedRequest.token */\n      0x60\n      dup4\n      add\n      mload\n      sub(shl(0xa0, 0x01), 0x01)\n        /* \"solidity/contracts/BridgeWhenCheap.sol\":8836:8878  bridgeContractOf[toBeBridgedRequest.token] */\n      swap1\n      dup2\n      and\n        /* \"solidity/contracts/BridgeWhenCheap.sol\":8811:8833  address bridgeContract */\n      0x00\n        /* \"solidity/contracts/BridgeWhenCheap.sol\":8836:8878  bridgeContractOf[toBeBridgedRequest.token] */\n      swap1\n      dup2\n      mstore\n        /* \"solidity/contracts/BridgeWhenCheap.sol\":8836:8852  bridgeContractOf */\n      0x07\n        /* \"solidity/contracts/BridgeWhenCheap.sol\":8836:8878  bridgeContractOf[toBeBridgedRequest.token] */\n      0x20\n      swap1\n      dup2\n      mstore\n      0x40\n      dup1\n      dup4\n      keccak256\n      sload\n        /* \"solidity/contracts/BridgeWhenCheap.sol\":8915:8941  pendingRequests[requestor] */\n      dup15\n      dup6\n      and\n      dup5\n      mstore\n        /* \"solidity/contracts/BridgeWhenCheap.sol\":8915:8930  pendingRequests */\n      0x05\n        /* \"solidity/contracts/BridgeWhenCheap.sol\":8915:8941  pendingRequests[requestor] */\n      dup1\n      dup5\n      mstore\n      dup3\n      dup6\n      keccak256\n        /* \"solidity/contracts/BridgeWhenCheap.sol\":8915:8952  pendingRequests[requestor][requestId] */\n      dup16\n      dup7\n      mstore\n      dup5\n      mstore\n      dup3\n      dup6\n      keccak256\n        /* \"solidity/contracts/BridgeWhenCheap.sol\":8908:8952  delete pendingRequests[requestor][requestId] */\n      dup1\n      sload\n      not(sub(shl(0xa0, 0x01), 0x01))\n      swap1\n      dup2\n      and\n      dup3\n      sstore\n        /* \"solidity/contracts/BridgeWhenCheap.sol\":8836:8878  bridgeContractOf[toBeBridgedRequest.token] */\n      0x01\n        /* \"solidity/contracts/BridgeWhenCheap.sol\":8908:8952  delete pendingRequests[requestor][requestId] */\n      dup3\n      add\n      dup1\n      sload\n      not(sub(shl(0xa8, 0x01), 0x01))\n      and\n      swap1\n      sstore\n      0x02\n      dup3\n      add\n      dup1\n      sload\n      swap1\n      swap2\n      and\n      swap1\n      sstore\n      0x03\n      dup2\n      add\n      dup7\n      swap1\n      sstore\n      0x04\n      dup1\n      dup3\n      add\n      dup8\n      swap1\n      sstore\n      swap2\n      dup2\n      add\n      dup7\n      swap1\n      sstore\n      0x06\n      swap1\n      dup2\n      add\n      swap6\n      swap1\n      swap6\n      sstore\n        /* \"solidity/contracts/BridgeWhenCheap.sol\":9068:9081  layer1ChainId */\n      swap4\n      sload\n        /* \"solidity/contracts/BridgeWhenCheap.sol\":9095:9125  toBeBridgedRequest.destination */\n      swap3\n      dup9\n      add\n      mload\n        /* \"solidity/contracts/BridgeWhenCheap.sol\":9139:9164  toBeBridgedRequest.amount */\n      0x80\n      dup10\n      add\n      mload\n        /* \"solidity/contracts/BridgeWhenCheap.sol\":8987:9301  HopL2AmmWrapper(bridgeContract).swapAndSend{value: nativeEtherSent}(... */\n      swap3\n      mload\n      shl(0xe1, 0x77506bd9)\n      dup2\n      mstore\n      swap5\n      dup6\n      add\n        /* \"#utility.yul\":11300:11325   */\n      swap4\n      swap1\n      swap4\n      mstore\n        /* \"#utility.yul\":11361:11393   */\n      swap2\n      dup5\n      and\n        /* \"#utility.yul\":11341:11359   */\n      0x24\n      dup5\n      add\n        /* \"#utility.yul\":11334:11394   */\n      mstore\n        /* \"#utility.yul\":11410:11428   */\n      0x44\n      dup4\n      add\n        /* \"#utility.yul\":11403:11437   */\n      mstore\n        /* \"#utility.yul\":11453:11471   */\n      0x64\n      dup3\n      add\n        /* \"#utility.yul\":11446:11480   */\n      dup12\n      swap1\n      mstore\n        /* \"#utility.yul\":11496:11515   */\n      0x84\n      dup3\n      add\n        /* \"#utility.yul\":11489:11524   */\n      dup11\n      swap1\n      mstore\n        /* \"#utility.yul\":11540:11559   */\n      0xa4\n      dup3\n      add\n        /* \"#utility.yul\":11533:11568   */\n      dup10\n      swap1\n      mstore\n        /* \"#utility.yul\":11584:11603   */\n      0xc4\n      dup3\n      add\n        /* \"#utility.yul\":11577:11612   */\n      dup9\n      swap1\n      mstore\n        /* \"#utility.yul\":11628:11647   */\n      0xe4\n      dup3\n      add\n        /* \"#utility.yul\":11621:11656   */\n      dup8\n      swap1\n      mstore\n        /* \"solidity/contracts/BridgeWhenCheap.sol\":8685:8801  uint256 nativeEtherSent = toBeBridgedRequest.isTokenTransfer... */\n      swap3\n      swap4\n      pop\n        /* \"solidity/contracts/BridgeWhenCheap.sol\":8836:8878  bridgeContractOf[toBeBridgedRequest.token] */\n      swap2\n      and\n      swap1\n      dup2\n      swap1\n        /* \"solidity/contracts/BridgeWhenCheap.sol\":8987:9030  HopL2AmmWrapper(bridgeContract).swapAndSend */\n      0xeea0d7b2\n      swap1\n        /* \"solidity/contracts/BridgeWhenCheap.sol\":8685:8801  uint256 nativeEtherSent = toBeBridgedRequest.isTokenTransfer... */\n      dup5\n      swap1\n        /* \"#utility.yul\":11272:11291   */\n      0x0104\n      add\n        /* \"solidity/contracts/BridgeWhenCheap.sol\":8987:9301  HopL2AmmWrapper(bridgeContract).swapAndSend{value: nativeEtherSent}(... */\n      0x00\n      mload(0x40)\n      dup1\n      dup4\n      sub\n      dup2\n      dup6\n      dup9\n      dup1\n      extcodesize\n      iszero\n      dup1\n      iszero\n      tag_223\n      jumpi\n      0x00\n      dup1\n      revert\n    tag_223:\n      pop\n      gas\n      call\n      iszero\n      dup1\n      iszero\n      tag_225\n      jumpi\n      returndatasize\n      0x00\n      dup1\n      returndatacopy\n      revert(0x00, returndatasize)\n    tag_225:\n      pop\n      pop\n      pop\n        /* \"solidity/contracts/BridgeWhenCheap.sol\":9399:9437  toBeBridgedRequest.l2execGasFeeDeposit */\n      0xe0\n      dup6\n      add\n      mload\n        /* \"solidity/contracts/BridgeWhenCheap.sol\":9374:9438  payable(msg.sender).send(toBeBridgedRequest.l2execGasFeeDeposit) */\n      mload(0x40)\n        /* \"solidity/contracts/BridgeWhenCheap.sol\":9382:9392  msg.sender */\n      caller\n      swap4\n      pop\n        /* \"solidity/contracts/BridgeWhenCheap.sol\":9374:9438  payable(msg.sender).send(toBeBridgedRequest.l2execGasFeeDeposit) */\n      dup2\n      iszero\n      0x08fc\n      mul\n      swap3\n      pop\n      0x00\n      dup2\n      dup2\n      dup2\n        /* \"solidity/contracts/BridgeWhenCheap.sol\":9399:9437  toBeBridgedRequest.l2execGasFeeDeposit */\n      dup6\n        /* \"solidity/contracts/BridgeWhenCheap.sol\":9382:9392  msg.sender */\n      dup9\n        /* \"solidity/contracts/BridgeWhenCheap.sol\":9374:9438  payable(msg.sender).send(toBeBridgedRequest.l2execGasFeeDeposit) */\n      dup9\n      call\n      swap4\n      pop\n      pop\n      pop\n      pop\n        /* \"solidity/contracts/BridgeWhenCheap.sol\":9353:9448  require(... */\n      tag_227\n      jumpi\n      0x00\n      dup1\n      revert\n    tag_227:\n        /* \"solidity/contracts/BridgeWhenCheap.sol\":8346:9455  {... */\n      pop\n      pop\n      pop\n        /* \"@openzeppelin/contracts/security/ReentrancyGuard.sol\":2303:2323  _nonReentrantAfter() */\n      tag_228\n        /* \"@openzeppelin/contracts/security/ReentrancyGuard.sol\":1716:1717  1 */\n      0x01\n        /* \"@openzeppelin/contracts/security/ReentrancyGuard.sol\":2809:2831  _status = _NOT_ENTERED */\n      dup1\n      sstore\n        /* \"@openzeppelin/contracts/security/ReentrancyGuard.sol\":2629:2838  function _nonReentrantAfter() private {... */\n      jump\n        /* \"@openzeppelin/contracts/security/ReentrancyGuard.sol\":2303:2323  _nonReentrantAfter() */\n    tag_228:\n        /* \"solidity/contracts/BridgeWhenCheap.sol\":7964:9455  function executeRequest(... */\n      pop\n      pop\n      pop\n      pop\n      pop\n      pop\n      pop\n      jump\t// out\n        /* \"@openzeppelin/contracts/access/Ownable.sol\":2081:2279  function transferOwnership(address newOwner) public virtual onlyOwner {... */\n    tag_97:\n        /* \"@openzeppelin/contracts/access/Ownable.sol\":1094:1107  _checkOwner() */\n      tag_230\n        /* \"@openzeppelin/contracts/access/Ownable.sol\":1094:1105  _checkOwner */\n      tag_100\n        /* \"@openzeppelin/contracts/access/Ownable.sol\":1094:1107  _checkOwner() */\n      jump\t// in\n    tag_230:\n      sub(shl(0xa0, 0x01), 0x01)\n        /* \"@openzeppelin/contracts/access/Ownable.sol\":2169:2191  newOwner != address(0) */\n      dup2\n      and\n        /* \"@openzeppelin/contracts/access/Ownable.sol\":2161:2234  require(newOwner != address(0), \"Ownable: new owner is the zero address\") */\n      tag_232\n      jumpi\n      mload(0x40)\n      shl(0xe5, 0x461bcd)\n      dup2\n      mstore\n        /* \"#utility.yul\":11869:11871   */\n      0x20\n        /* \"@openzeppelin/contracts/access/Ownable.sol\":2161:2234  require(newOwner != address(0), \"Ownable: new owner is the zero address\") */\n      0x04\n      dup3\n      add\n        /* \"#utility.yul\":11851:11872   */\n      mstore\n        /* \"#utility.yul\":11908:11910   */\n      0x26\n        /* \"#utility.yul\":11888:11906   */\n      0x24\n      dup3\n      add\n        /* \"#utility.yul\":11881:11911   */\n      mstore\n        /* \"#utility.yul\":11947:11981   */\n      0x4f776e61626c653a206e6577206f776e657220697320746865207a65726f2061\n        /* \"#utility.yul\":11927:11945   */\n      0x44\n      dup3\n      add\n        /* \"#utility.yul\":11920:11982   */\n      mstore\n      shl(0xd0, 0x646472657373)\n        /* \"#utility.yul\":11998:12016   */\n      0x64\n      dup3\n      add\n        /* \"#utility.yul\":11991:12027   */\n      mstore\n        /* \"#utility.yul\":12044:12063   */\n      0x84\n      add\n        /* \"@openzeppelin/contracts/access/Ownable.sol\":2161:2234  require(newOwner != address(0), \"Ownable: new owner is the zero address\") */\n      tag_103\n        /* \"#utility.yul\":11667:12069   */\n      jump\n        /* \"@openzeppelin/contracts/access/Ownable.sol\":2161:2234  require(newOwner != address(0), \"Ownable: new owner is the zero address\") */\n    tag_232:\n        /* \"@openzeppelin/contracts/access/Ownable.sol\":2244:2272  _transferOwnership(newOwner) */\n      tag_131\n        /* \"@openzeppelin/contracts/access/Ownable.sol\":2263:2271  newOwner */\n      dup2\n        /* \"@openzeppelin/contracts/access/Ownable.sol\":2244:2262  _transferOwnership */\n      tag_150\n        /* \"@openzeppelin/contracts/access/Ownable.sol\":2244:2272  _transferOwnership(newOwner) */\n      jump\t// in\n        /* \"@openzeppelin/contracts/access/Ownable.sol\":1359:1489  function _checkOwner() internal view virtual {... */\n    tag_100:\n        /* \"@openzeppelin/contracts/access/Ownable.sol\":1247:1254  address */\n      0x00\n        /* \"@openzeppelin/contracts/access/Ownable.sol\":1273:1279  _owner */\n      sload\n      sub(shl(0xa0, 0x01), 0x01)\n      and\n        /* \"@openzeppelin/contracts/utils/Context.sol\":719:729  msg.sender */\n      caller\n        /* \"@openzeppelin/contracts/access/Ownable.sol\":1422:1445  owner() == _msgSender() */\n      eq\n        /* \"@openzeppelin/contracts/access/Ownable.sol\":1414:1482  require(owner() == _msgSender(), \"Ownable: caller is not the owner\") */\n      tag_149\n      jumpi\n      mload(0x40)\n      shl(0xe5, 0x461bcd)\n      dup2\n      mstore\n        /* \"#utility.yul\":12276:12278   */\n      0x20\n        /* \"@openzeppelin/contracts/access/Ownable.sol\":1414:1482  require(owner() == _msgSender(), \"Ownable: caller is not the owner\") */\n      0x04\n      dup3\n      add\n        /* \"#utility.yul\":12258:12279   */\n      dup2\n      swap1\n      mstore\n        /* \"#utility.yul\":12295:12313   */\n      0x24\n      dup3\n      add\n        /* \"#utility.yul\":12288:12318   */\n      mstore\n        /* \"#utility.yul\":12354:12388   */\n      0x4f776e61626c653a2063616c6c6572206973206e6f7420746865206f776e6572\n        /* \"#utility.yul\":12334:12352   */\n      0x44\n      dup3\n      add\n        /* \"#utility.yul\":12327:12389   */\n      mstore\n        /* \"#utility.yul\":12406:12424   */\n      0x64\n      add\n        /* \"@openzeppelin/contracts/access/Ownable.sol\":1414:1482  require(owner() == _msgSender(), \"Ownable: caller is not the owner\") */\n      tag_103\n        /* \"#utility.yul\":12074:12430   */\n      jump\n        /* \"@openzeppelin/contracts/security/ReentrancyGuard.sol\":2336:2623  function _nonReentrantBefore() private {... */\n    tag_107:\n        /* \"@openzeppelin/contracts/security/ReentrancyGuard.sol\":1759:1760  2 */\n      0x02\n        /* \"@openzeppelin/contracts/security/ReentrancyGuard.sol\":2468:2475  _status */\n      sload(0x01)\n        /* \"@openzeppelin/contracts/security/ReentrancyGuard.sol\":2468:2487  _status != _ENTERED */\n      sub\n        /* \"@openzeppelin/contracts/security/ReentrancyGuard.sol\":2460:2523  require(_status != _ENTERED, \"ReentrancyGuard: reentrant call\") */\n      tag_244\n      jumpi\n      mload(0x40)\n      shl(0xe5, 0x461bcd)\n      dup2\n      mstore\n        /* \"#utility.yul\":12637:12639   */\n      0x20\n        /* \"@openzeppelin/contracts/security/ReentrancyGuard.sol\":2460:2523  require(_status != _ENTERED, \"ReentrancyGuard: reentrant call\") */\n      0x04\n      dup3\n      add\n        /* \"#utility.yul\":12619:12640   */\n      mstore\n        /* \"#utility.yul\":12676:12678   */\n      0x1f\n        /* \"#utility.yul\":12656:12674   */\n      0x24\n      dup3\n      add\n        /* \"#utility.yul\":12649:12679   */\n      mstore\n        /* \"#utility.yul\":12715:12748   */\n      0x5265656e7472616e637947756172643a207265656e7472616e742063616c6c00\n        /* \"#utility.yul\":12695:12713   */\n      0x44\n      dup3\n      add\n        /* \"#utility.yul\":12688:12749   */\n      mstore\n        /* \"#utility.yul\":12766:12784   */\n      0x64\n      add\n        /* \"@openzeppelin/contracts/security/ReentrancyGuard.sol\":2460:2523  require(_status != _ENTERED, \"ReentrancyGuard: reentrant call\") */\n      tag_103\n        /* \"#utility.yul\":12435:12790   */\n      jump\n        /* \"@openzeppelin/contracts/security/ReentrancyGuard.sol\":2460:2523  require(_status != _ENTERED, \"ReentrancyGuard: reentrant call\") */\n    tag_244:\n        /* \"@openzeppelin/contracts/security/ReentrancyGuard.sol\":1759:1760  2 */\n      0x02\n        /* \"@openzeppelin/contracts/security/ReentrancyGuard.sol\":2598:2605  _status */\n      0x01\n        /* \"@openzeppelin/contracts/security/ReentrancyGuard.sol\":2598:2616  _status = _ENTERED */\n      sstore\n        /* \"@openzeppelin/contracts/security/ReentrancyGuard.sol\":2336:2623  function _nonReentrantBefore() private {... */\n      jump\t// out\n        /* \"@openzeppelin/contracts/access/Ownable.sol\":2433:2620  function _transferOwnership(address newOwner) internal virtual {... */\n    tag_150:\n        /* \"@openzeppelin/contracts/access/Ownable.sol\":2506:2522  address oldOwner */\n      0x00\n        /* \"@openzeppelin/contracts/access/Ownable.sol\":2525:2531  _owner */\n      dup1\n      sload\n      sub(shl(0xa0, 0x01), 0x01)\n        /* \"@openzeppelin/contracts/access/Ownable.sol\":2541:2558  _owner = newOwner */\n      dup4\n      dup2\n      and\n      not(sub(shl(0xa0, 0x01), 0x01))\n      dup4\n      and\n      dup2\n      or\n      dup5\n      sstore\n        /* \"@openzeppelin/contracts/access/Ownable.sol\":2573:2613  OwnershipTransferred(oldOwner, newOwner) */\n      mload(0x40)\n        /* \"@openzeppelin/contracts/access/Ownable.sol\":2525:2531  _owner */\n      swap2\n      swap1\n      swap3\n      and\n      swap3\n      dup4\n      swap2\n        /* \"@openzeppelin/contracts/access/Ownable.sol\":2573:2613  OwnershipTransferred(oldOwner, newOwner) */\n      0x8be0079c531659141344cd1fd0a4f28419497f9722a3daafe3b4186f6b6457e0\n      swap2\n        /* \"@openzeppelin/contracts/access/Ownable.sol\":2506:2522  address oldOwner */\n      swap1\n        /* \"@openzeppelin/contracts/access/Ownable.sol\":2573:2613  OwnershipTransferred(oldOwner, newOwner) */\n      log3\n        /* \"@openzeppelin/contracts/access/Ownable.sol\":2496:2620  {... */\n      pop\n        /* \"@openzeppelin/contracts/access/Ownable.sol\":2433:2620  function _transferOwnership(address newOwner) internal virtual {... */\n      pop\n      jump\t// out\n        /* \"solidity/contracts/BridgeWhenCheap.sol\":11121:11324  function checkFeeInvariants() internal view {... */\n    tag_158:\n        /* \"solidity/contracts/BridgeWhenCheap.sol\":11210:11229  l2execGasFeeDeposit */\n      sload(0x02)\n        /* \"solidity/contracts/BridgeWhenCheap.sol\":11196:11206  serviceFee */\n      sload(0x03)\n        /* \"solidity/contracts/BridgeWhenCheap.sol\":11196:11229  serviceFee >= l2execGasFeeDeposit */\n      lt\n      iszero\n        /* \"solidity/contracts/BridgeWhenCheap.sol\":11175:11317  require(... */\n      tag_149\n      jumpi\n      mload(0x40)\n      shl(0xe5, 0x461bcd)\n      dup2\n      mstore\n        /* \"#utility.yul\":12997:12999   */\n      0x20\n        /* \"solidity/contracts/BridgeWhenCheap.sol\":11175:11317  require(... */\n      0x04\n      dup3\n      add\n        /* \"#utility.yul\":12979:13000   */\n      mstore\n        /* \"#utility.yul\":13036:13038   */\n      0x3e\n        /* \"#utility.yul\":13016:13034   */\n      0x24\n      dup3\n      add\n        /* \"#utility.yul\":13009:13039   */\n      mstore\n        /* \"#utility.yul\":13075:13109   */\n      0x5365727669636520666565206d75737420636f766572206174206c6561737420\n        /* \"#utility.yul\":13055:13073   */\n      0x44\n      dup3\n      add\n        /* \"#utility.yul\":13048:13110   */\n      mstore\n        /* \"#utility.yul\":13146:13178   */\n      0x74686520657865637574696f6e2067617320726571756972656d656e742e0000\n        /* \"#utility.yul\":13126:13144   */\n      0x64\n      dup3\n      add\n        /* \"#utility.yul\":13119:13179   */\n      mstore\n        /* \"#utility.yul\":13196:13215   */\n      0x84\n      add\n        /* \"solidity/contracts/BridgeWhenCheap.sol\":11175:11317  require(... */\n      tag_103\n        /* \"#utility.yul\":12795:13221   */\n      jump\n        /* \"solidity/contracts/BridgeWhenCheap.sol\":11330:11472  function recordCollectedServiceFeeExcludingGas() internal {... */\n    tag_194:\n        /* \"solidity/contracts/BridgeWhenCheap.sol\":11446:11465  l2execGasFeeDeposit */\n      sload(0x02)\n        /* \"solidity/contracts/BridgeWhenCheap.sol\":11433:11443  serviceFee */\n      sload(0x03)\n        /* \"solidity/contracts/BridgeWhenCheap.sol\":11433:11465  serviceFee - l2execGasFeeDeposit */\n      tag_255\n      swap2\n      swap1\n      tag_142\n      jump\t// in\n    tag_255:\n        /* \"solidity/contracts/BridgeWhenCheap.sol\":11398:11429  collectedServiceFeeExcludingGas */\n      0x04\n      0x00\n        /* \"solidity/contracts/BridgeWhenCheap.sol\":11398:11465  collectedServiceFeeExcludingGas += serviceFee - l2execGasFeeDeposit */\n      dup3\n      dup3\n      sload\n      tag_256\n      swap2\n      swap1\n      tag_119\n      jump\t// in\n    tag_256:\n      swap1\n      swap2\n      sstore\n      pop\n      pop\n        /* \"solidity/contracts/BridgeWhenCheap.sol\":11330:11472  function recordCollectedServiceFeeExcludingGas() internal {... */\n      jump\t// out\n        /* \"#utility.yul\":14:153   */\n    tag_258:\n      sub(shl(0xa0, 0x01), 0x01)\n        /* \"#utility.yul\":97:128   */\n      dup2\n      and\n        /* \"#utility.yul\":87:129   */\n      dup2\n      eq\n        /* \"#utility.yul\":77:147   */\n      tag_131\n      jumpi\n        /* \"#utility.yul\":143:144   */\n      0x00\n        /* \"#utility.yul\":140:141   */\n      dup1\n        /* \"#utility.yul\":133:145   */\n      revert\n        /* \"#utility.yul\":158:576   */\n    tag_25:\n        /* \"#utility.yul\":240:246   */\n      0x00\n        /* \"#utility.yul\":248:254   */\n      dup1\n        /* \"#utility.yul\":301:303   */\n      0x40\n        /* \"#utility.yul\":289:298   */\n      dup4\n        /* \"#utility.yul\":280:287   */\n      dup6\n        /* \"#utility.yul\":276:299   */\n      sub\n        /* \"#utility.yul\":272:304   */\n      slt\n        /* \"#utility.yul\":269:321   */\n      iszero\n      tag_264\n      jumpi\n        /* \"#utility.yul\":317:318   */\n      0x00\n        /* \"#utility.yul\":314:315   */\n      dup1\n        /* \"#utility.yul\":307:319   */\n      revert\n        /* \"#utility.yul\":269:321   */\n    tag_264:\n        /* \"#utility.yul\":356:365   */\n      dup3\n        /* \"#utility.yul\":343:366   */\n      calldataload\n        /* \"#utility.yul\":375:414   */\n      tag_265\n        /* \"#utility.yul\":408:413   */\n      dup2\n        /* \"#utility.yul\":375:414   */\n      tag_258\n      jump\t// in\n    tag_265:\n        /* \"#utility.yul\":433:438   */\n      swap2\n      pop\n        /* \"#utility.yul\":490:492   */\n      0x20\n        /* \"#utility.yul\":475:493   */\n      dup4\n      add\n        /* \"#utility.yul\":462:494   */\n      calldataload\n        /* \"#utility.yul\":503:544   */\n      tag_266\n        /* \"#utility.yul\":462:494   */\n      dup2\n        /* \"#utility.yul\":503:544   */\n      tag_258\n      jump\t// in\n    tag_266:\n        /* \"#utility.yul\":563:570   */\n      dup1\n        /* \"#utility.yul\":553:570   */\n      swap2\n      pop\n      pop\n        /* \"#utility.yul\":158:576   */\n      swap3\n      pop\n      swap3\n      swap1\n      pop\n      jump\t// out\n        /* \"#utility.yul\":763:943   */\n    tag_35:\n        /* \"#utility.yul\":822:828   */\n      0x00\n        /* \"#utility.yul\":875:877   */\n      0x20\n        /* \"#utility.yul\":863:872   */\n      dup3\n        /* \"#utility.yul\":854:861   */\n      dup5\n        /* \"#utility.yul\":850:873   */\n      sub\n        /* \"#utility.yul\":846:878   */\n      slt\n        /* \"#utility.yul\":843:895   */\n      iszero\n      tag_269\n      jumpi\n        /* \"#utility.yul\":891:892   */\n      0x00\n        /* \"#utility.yul\":888:889   */\n      dup1\n        /* \"#utility.yul\":881:893   */\n      revert\n        /* \"#utility.yul\":843:895   */\n    tag_269:\n      pop\n        /* \"#utility.yul\":914:937   */\n      calldataload\n      swap2\n        /* \"#utility.yul\":763:943   */\n      swap1\n      pop\n      jump\t// out\n        /* \"#utility.yul\":948:1271   */\n    tag_44:\n        /* \"#utility.yul\":1016:1022   */\n      0x00\n        /* \"#utility.yul\":1024:1030   */\n      dup1\n        /* \"#utility.yul\":1077:1079   */\n      0x40\n        /* \"#utility.yul\":1065:1074   */\n      dup4\n        /* \"#utility.yul\":1056:1063   */\n      dup6\n        /* \"#utility.yul\":1052:1075   */\n      sub\n        /* \"#utility.yul\":1048:1080   */\n      slt\n        /* \"#utility.yul\":1045:1097   */\n      iszero\n      tag_271\n      jumpi\n        /* \"#utility.yul\":1093:1094   */\n      0x00\n        /* \"#utility.yul\":1090:1091   */\n      dup1\n        /* \"#utility.yul\":1083:1095   */\n      revert\n        /* \"#utility.yul\":1045:1097   */\n    tag_271:\n        /* \"#utility.yul\":1132:1141   */\n      dup3\n        /* \"#utility.yul\":1119:1142   */\n      calldataload\n        /* \"#utility.yul\":1151:1190   */\n      tag_272\n        /* \"#utility.yul\":1184:1189   */\n      dup2\n        /* \"#utility.yul\":1151:1190   */\n      tag_258\n      jump\t// in\n    tag_272:\n        /* \"#utility.yul\":1209:1214   */\n      swap5\n        /* \"#utility.yul\":1261:1263   */\n      0x20\n        /* \"#utility.yul\":1246:1264   */\n      swap4\n      swap1\n      swap4\n      add\n        /* \"#utility.yul\":1233:1265   */\n      calldataload\n      swap4\n      pop\n      pop\n      pop\n        /* \"#utility.yul\":948:1271   */\n      jump\t// out\n        /* \"#utility.yul\":2049:2318   */\n    tag_54:\n        /* \"#utility.yul\":2122:2128   */\n      0x00\n        /* \"#utility.yul\":2175:2177   */\n      0x20\n        /* \"#utility.yul\":2163:2172   */\n      dup3\n        /* \"#utility.yul\":2154:2161   */\n      dup5\n        /* \"#utility.yul\":2150:2173   */\n      sub\n        /* \"#utility.yul\":2146:2178   */\n      slt\n        /* \"#utility.yul\":2143:2195   */\n      iszero\n      tag_275\n      jumpi\n        /* \"#utility.yul\":2191:2192   */\n      0x00\n        /* \"#utility.yul\":2188:2189   */\n      dup1\n        /* \"#utility.yul\":2181:2193   */\n      revert\n        /* \"#utility.yul\":2143:2195   */\n    tag_275:\n        /* \"#utility.yul\":2230:2239   */\n      dup2\n        /* \"#utility.yul\":2217:2240   */\n      calldataload\n        /* \"#utility.yul\":2249:2288   */\n      tag_276\n        /* \"#utility.yul\":2282:2287   */\n      dup2\n        /* \"#utility.yul\":2249:2288   */\n      tag_258\n      jump\t// in\n    tag_276:\n        /* \"#utility.yul\":2307:2312   */\n      swap4\n        /* \"#utility.yul\":2049:2318   */\n      swap3\n      pop\n      pop\n      pop\n      jump\t// out\n        /* \"#utility.yul\":2531:3224   */\n    tag_70:\n        /* \"#utility.yul\":2649:2655   */\n      0x00\n        /* \"#utility.yul\":2657:2663   */\n      dup1\n        /* \"#utility.yul\":2665:2671   */\n      0x00\n        /* \"#utility.yul\":2673:2679   */\n      dup1\n        /* \"#utility.yul\":2681:2687   */\n      0x00\n        /* \"#utility.yul\":2689:2695   */\n      dup1\n        /* \"#utility.yul\":2742:2745   */\n      0xc0\n        /* \"#utility.yul\":2730:2739   */\n      dup8\n        /* \"#utility.yul\":2721:2728   */\n      dup10\n        /* \"#utility.yul\":2717:2740   */\n      sub\n        /* \"#utility.yul\":2713:2746   */\n      slt\n        /* \"#utility.yul\":2710:2763   */\n      iszero\n      tag_279\n      jumpi\n        /* \"#utility.yul\":2759:2760   */\n      0x00\n        /* \"#utility.yul\":2756:2757   */\n      dup1\n        /* \"#utility.yul\":2749:2761   */\n      revert\n        /* \"#utility.yul\":2710:2763   */\n    tag_279:\n        /* \"#utility.yul\":2795:2804   */\n      dup7\n        /* \"#utility.yul\":2782:2805   */\n      calldataload\n        /* \"#utility.yul\":2772:2805   */\n      swap6\n      pop\n        /* \"#utility.yul\":2855:2857   */\n      0x20\n        /* \"#utility.yul\":2844:2853   */\n      dup8\n        /* \"#utility.yul\":2840:2858   */\n      add\n        /* \"#utility.yul\":2827:2859   */\n      calldataload\n        /* \"#utility.yul\":2868:2907   */\n      tag_280\n        /* \"#utility.yul\":2901:2906   */\n      dup2\n        /* \"#utility.yul\":2868:2907   */\n      tag_258\n      jump\t// in\n    tag_280:\n        /* \"#utility.yul\":2926:2931   */\n      swap5\n      pop\n        /* \"#utility.yul\":2978:2980   */\n      0x40\n        /* \"#utility.yul\":2963:2981   */\n      dup8\n      add\n        /* \"#utility.yul\":2950:2982   */\n      calldataload\n      swap4\n      pop\n        /* \"#utility.yul\":3034:3036   */\n      0x60\n        /* \"#utility.yul\":3019:3037   */\n      dup8\n      add\n        /* \"#utility.yul\":3006:3038   */\n      calldataload\n        /* \"#utility.yul\":3047:3088   */\n      tag_281\n        /* \"#utility.yul\":3006:3038   */\n      dup2\n        /* \"#utility.yul\":3047:3088   */\n      tag_258\n      jump\t// in\n    tag_281:\n        /* \"#utility.yul\":2531:3224   */\n      swap6\n      swap9\n      swap5\n      swap8\n      pop\n      swap3\n      swap6\n        /* \"#utility.yul\":3161:3164   */\n      0x80\n        /* \"#utility.yul\":3146:3165   */\n      dup2\n      add\n        /* \"#utility.yul\":3133:3166   */\n      calldataload\n      swap5\n        /* \"#utility.yul\":3213:3216   */\n      0xa0\n        /* \"#utility.yul\":3198:3217   */\n      swap1\n      swap2\n      add\n        /* \"#utility.yul\":3185:3218   */\n      calldataload\n      swap4\n      pop\n        /* \"#utility.yul\":2531:3224   */\n      swap2\n      pop\n      pop\n      jump\t// out\n        /* \"#utility.yul\":3229:3896   */\n    tag_91:\n        /* \"#utility.yul\":3342:3348   */\n      0x00\n        /* \"#utility.yul\":3350:3356   */\n      dup1\n        /* \"#utility.yul\":3358:3364   */\n      0x00\n        /* \"#utility.yul\":3366:3372   */\n      dup1\n        /* \"#utility.yul\":3374:3380   */\n      0x00\n        /* \"#utility.yul\":3382:3388   */\n      dup1\n        /* \"#utility.yul\":3390:3396   */\n      0x00\n        /* \"#utility.yul\":3443:3446   */\n      0xe0\n        /* \"#utility.yul\":3431:3440   */\n      dup9\n        /* \"#utility.yul\":3422:3429   */\n      dup11\n        /* \"#utility.yul\":3418:3441   */\n      sub\n        /* \"#utility.yul\":3414:3447   */\n      slt\n        /* \"#utility.yul\":3411:3464   */\n      iszero\n      tag_283\n      jumpi\n        /* \"#utility.yul\":3460:3461   */\n      0x00\n        /* \"#utility.yul\":3457:3458   */\n      dup1\n        /* \"#utility.yul\":3450:3462   */\n      revert\n        /* \"#utility.yul\":3411:3464   */\n    tag_283:\n        /* \"#utility.yul\":3499:3508   */\n      dup8\n        /* \"#utility.yul\":3486:3509   */\n      calldataload\n        /* \"#utility.yul\":3518:3557   */\n      tag_284\n        /* \"#utility.yul\":3551:3556   */\n      dup2\n        /* \"#utility.yul\":3518:3557   */\n      tag_258\n      jump\t// in\n    tag_284:\n        /* \"#utility.yul\":3576:3581   */\n      swap10\n        /* \"#utility.yul\":3628:3630   */\n      0x20\n        /* \"#utility.yul\":3613:3631   */\n      dup10\n      add\n        /* \"#utility.yul\":3600:3632   */\n      calldataload\n      swap10\n      pop\n        /* \"#utility.yul\":3679:3681   */\n      0x40\n        /* \"#utility.yul\":3664:3682   */\n      dup10\n      add\n        /* \"#utility.yul\":3651:3683   */\n      calldataload\n      swap9\n        /* \"#utility.yul\":3730:3732   */\n      0x60\n        /* \"#utility.yul\":3715:3733   */\n      dup2\n      add\n        /* \"#utility.yul\":3702:3734   */\n      calldataload\n      swap9\n      pop\n        /* \"#utility.yul\":3781:3784   */\n      0x80\n        /* \"#utility.yul\":3766:3785   */\n      dup2\n      add\n        /* \"#utility.yul\":3753:3786   */\n      calldataload\n      swap8\n      pop\n        /* \"#utility.yul\":3833:3836   */\n      0xa0\n        /* \"#utility.yul\":3818:3837   */\n      dup2\n      add\n        /* \"#utility.yul\":3805:3838   */\n      calldataload\n      swap7\n      pop\n        /* \"#utility.yul\":3885:3888   */\n      0xc0\n        /* \"#utility.yul\":3870:3889   */\n      add\n        /* \"#utility.yul\":3857:3890   */\n      calldataload\n      swap5\n      pop\n        /* \"#utility.yul\":3229:3896   */\n      swap3\n      pop\n      pop\n      pop\n      jump\t// out\n        /* \"#utility.yul\":4866:4993   */\n    tag_116:\n        /* \"#utility.yul\":4927:4937   */\n      0x4e487b71\n        /* \"#utility.yul\":4922:4925   */\n      0xe0\n        /* \"#utility.yul\":4918:4938   */\n      shl\n        /* \"#utility.yul\":4915:4916   */\n      0x00\n        /* \"#utility.yul\":4908:4939   */\n      mstore\n        /* \"#utility.yul\":4958:4962   */\n      0x01\n        /* \"#utility.yul\":4955:4956   */\n      0x04\n        /* \"#utility.yul\":4948:4963   */\n      mstore\n        /* \"#utility.yul\":4982:4986   */\n      0x24\n        /* \"#utility.yul\":4979:4980   */\n      0x00\n        /* \"#utility.yul\":4972:4987   */\n      revert\n        /* \"#utility.yul\":4998:5125   */\n    tag_259:\n        /* \"#utility.yul\":5059:5069   */\n      0x4e487b71\n        /* \"#utility.yul\":5054:5057   */\n      0xe0\n        /* \"#utility.yul\":5050:5070   */\n      shl\n        /* \"#utility.yul\":5047:5048   */\n      0x00\n        /* \"#utility.yul\":5040:5071   */\n      mstore\n        /* \"#utility.yul\":5090:5094   */\n      0x11\n        /* \"#utility.yul\":5087:5088   */\n      0x04\n        /* \"#utility.yul\":5080:5095   */\n      mstore\n        /* \"#utility.yul\":5114:5118   */\n      0x24\n        /* \"#utility.yul\":5111:5112   */\n      0x00\n        /* \"#utility.yul\":5104:5119   */\n      revert\n        /* \"#utility.yul\":5130:5255   */\n    tag_119:\n        /* \"#utility.yul\":5195:5204   */\n      dup1\n      dup3\n      add\n        /* \"#utility.yul\":5216:5226   */\n      dup1\n      dup3\n      gt\n        /* \"#utility.yul\":5213:5249   */\n      iszero\n      tag_294\n      jumpi\n        /* \"#utility.yul\":5229:5247   */\n      tag_294\n      tag_259\n      jump\t// in\n    tag_294:\n        /* \"#utility.yul\":5130:5255   */\n      swap3\n      swap2\n      pop\n      pop\n      jump\t// out\n        /* \"#utility.yul\":5640:5917   */\n    tag_129:\n        /* \"#utility.yul\":5707:5713   */\n      0x00\n        /* \"#utility.yul\":5760:5762   */\n      0x20\n        /* \"#utility.yul\":5748:5757   */\n      dup3\n        /* \"#utility.yul\":5739:5746   */\n      dup5\n        /* \"#utility.yul\":5735:5758   */\n      sub\n        /* \"#utility.yul\":5731:5763   */\n      slt\n        /* \"#utility.yul\":5728:5780   */\n      iszero\n      tag_297\n      jumpi\n        /* \"#utility.yul\":5776:5777   */\n      0x00\n        /* \"#utility.yul\":5773:5774   */\n      dup1\n        /* \"#utility.yul\":5766:5778   */\n      revert\n        /* \"#utility.yul\":5728:5780   */\n    tag_297:\n        /* \"#utility.yul\":5808:5817   */\n      dup2\n        /* \"#utility.yul\":5802:5818   */\n      mload\n        /* \"#utility.yul\":5861:5866   */\n      dup1\n        /* \"#utility.yul\":5854:5867   */\n      iszero\n        /* \"#utility.yul\":5847:5868   */\n      iszero\n        /* \"#utility.yul\":5840:5845   */\n      dup2\n        /* \"#utility.yul\":5837:5869   */\n      eq\n        /* \"#utility.yul\":5827:5887   */\n      tag_276\n      jumpi\n        /* \"#utility.yul\":5883:5884   */\n      0x00\n        /* \"#utility.yul\":5880:5881   */\n      dup1\n        /* \"#utility.yul\":5873:5885   */\n      revert\n        /* \"#utility.yul\":6398:6526   */\n    tag_142:\n        /* \"#utility.yul\":6465:6474   */\n      dup2\n      dup2\n      sub\n        /* \"#utility.yul\":6486:6497   */\n      dup2\n      dup2\n      gt\n        /* \"#utility.yul\":6483:6520   */\n      iszero\n      tag_294\n      jumpi\n        /* \"#utility.yul\":6500:6518   */\n      tag_294\n      tag_259\n      jump\t// in\n\n    auxdata: 0xa26469706673582212200b018a75015d14662f35c9b2e31f9a916fdda57963a4ce1572595459dff12f6f64736f6c63430008130033\n}\n",
				"bytecode": {
					"linkReferences": {},
					"object": "608060405234801561001057600080fd5b5060405161169638038061169683398101604081905261002f9161012b565b6100383361005b565b600180556002839055600382905560068190556100536100ab565b505050610159565b600080546001600160a01b038381166001600160a01b0319831681178455604051919092169283917f8be0079c531659141344cd1fd0a4f28419497f9722a3daafe3b4186f6b6457e09190a35050565b60025460035410156101295760405162461bcd60e51b815260206004820152603e60248201527f5365727669636520666565206d75737420636f766572206174206c656173742060448201527f74686520657865637574696f6e2067617320726571756972656d656e742e0000606482015260840160405180910390fd5b565b60008060006060848603121561014057600080fd5b8351925060208401519150604084015190509250925092565b61152e806101686000396000f3fe6080604052600436106100fe5760003560e01c806387d6161b11610095578063a191078a11610064578063a191078a1461032a578063a1f663061461034a578063b650294314610360578063d043ba1914610376578063f2fde38b1461039657600080fd5b806387d6161b146102c35780638abdf5aa146102e35780638c13bc08146102f95780638da5cb5b1461030c57600080fd5b8063488ff1c8116100d1578063488ff1c81461018e578063715018a6146102585780637394e49c1461026d5780637b1aa45f146102bb57600080fd5b80631485351e14610103578063242f4046146101255780632e1a7d4d1461014e57806333f707d11461016e575b600080fd5b34801561010f57600080fd5b5061012361011e36600461132b565b6103b6565b005b34801561013157600080fd5b5061013b60025481565b6040519081526020015b60405180910390f35b34801561015a57600080fd5b50610123610169366004611364565b610459565b34801561017a57600080fd5b50610123610189366004611364565b6106a6565b34801561019a57600080fd5b506102096101a936600461137d565b6005602081815260009384526040808520909152918352912080546001820154600283015460038401546004850154958501546006909501546001600160a01b039485169685851696600160a01b90950460ff1695909316939192919088565b604080516001600160a01b03998a168152978916602089015295151595870195909552959092166060850152608084015260a083015260c082019290925260e081019190915261010001610145565b34801561026457600080fd5b5061012361077f565b34801561027957600080fd5b506102a36102883660046113a9565b6007602052600090815260409020546001600160a01b031681565b6040516001600160a01b039091168152602001610145565b610123610793565b3480156102cf57600080fd5b506101236102de366004611364565b61079b565b3480156102ef57600080fd5b5061013b60035481565b6101236103073660046113cd565b6107b0565b34801561031857600080fd5b506000546001600160a01b03166102a3565b34801561033657600080fd5b50610123610345366004611364565b610e45565b34801561035657600080fd5b5061013b60045481565b34801561036c57600080fd5b5061013b60065481565b34801561038257600080fd5b50610123610391366004611429565b610e5a565b3480156103a257600080fd5b506101236103b13660046113a9565b6110fb565b6103be611171565b6001600160a01b03828116600090815260076020526040902054161561042b5760405162461bcd60e51b815260206004820152601860248201527f546f6b656e20616c726561647920737570706f727465642e000000000000000060448201526064015b60405180910390fd5b6001600160a01b03918216600090815260076020526040902080546001600160a01b03191691909216179055565b6104616111cb565b33600090815260056020818152604080842085855282529283902083516101008101855281546001600160a01b03908116808352600184015480831695840195909552600160a01b90940460ff161515958201959095526002820154909416606085015260038101546080850152600481015460a08501529182015460c084015260069091015460e08301526105395760405162461bcd60e51b815260206004820152601760248201527f4e6f207265717565737420746f2077697468647261772e0000000000000000006044820152606401610422565b80516001600160a01b031633146105525761055261147e565b60e08101516040820151600091901561057b57608083015161057490836114aa565b915061058d565b608083015161058a90826114aa565b90505b33600081815260056020818152604080842089855290915280832080546001600160a01b031990811682556001820180546001600160a81b03191690556002820180549091169055600381018490556004810184905591820183905560069091018290555183156108fc0291849190818181858888f1935050505061061157600080fd5b60608301516040516323b872dd60e01b8152306004820152336024820152604481018490526001600160a01b03909116906323b872dd906064016020604051808303816000875af115801561066a573d6000803e3d6000fd5b505050506040513d601f19601f8201168201806040525081019061068e91906114c3565b61069757600080fd5b5050506106a360018055565b50565b6106ae611171565b6106b66111cb565b80600454101561073a5760405162461bcd60e51b815260206004820152604360248201527f43616e6e6f74207769746864726177206d6f72652066756e6473207468616e2060448201527f74686520636f6c6c6563746564206e6f6e20676173207365727669636520666560648201526232b99760e91b608482015260a401610422565b806004600082825461074c91906114e5565b9091555050604051339082156108fc029083906000818181858888f1935050505061077657600080fd5b6106a360018055565b610787611171565b6107916000611224565b565b610791611171565b6107a3611171565b60028190556106a3611274565b6107b86111cb565b336108055760405162461bcd60e51b815260206004820152601b60248201527f53656e646572206d6179206e6f742062652030206164647265737300000000006044820152606401610422565b6001600160a01b03831661086c5760405162461bcd60e51b815260206004820152602860248201527f44657374696e6174696f6e2061646472657373206d6179206e6f742062652030604482015267206164647265737360c01b6064820152608401610422565b600082116108d25760405162461bcd60e51b815260206004820152602d60248201527f57616e746564204c3120676173207072696365206d757374206265207374726960448201526c63746c7920706f73697469766560981b6064820152608401610422565b60035434101561093a5760405162461bcd60e51b815260206004820152602d60248201527f4e6f7420656e6f7567682066756e647320746f2070617920666f722064656c6160448201526c3cb2b21032bc32b1baba34b7b760991b6064820152608401610422565b8315801590600090610a1e576001600160a01b03878116600090815260076020526040902054166109ad5760405162461bcd60e51b815260206004820152601760248201527f546f6b656e206973206e6f7420737570706f727465642e0000000000000000006044820152606401610422565b6003543414610a175760405162461bcd60e51b815260206004820152603060248201527f466f7220746f6b656e206465706f736974732c2070617920746865207365727660448201526f34b1b2903332b29032bc30b1ba363c9760811b6064820152608401610422565b5084610aa4565b6001600160a01b03871615610a945760405162461bcd60e51b815260206004820152603660248201527f546f6b656e206d757374206265203020616464726573732c207768656e2064656044820152753837b9b4ba34b733903730ba34bb329032ba3432b91760511b6064820152608401610422565b600354610aa190346114e5565b90505b82811015610b405760405162461bcd60e51b815260206004820152605e60248201527f43616c63756c617465642073656e7420616d6f756e74206d757374206265206c60448201527f6172676572207468616e207468652064657369726564206d696e696d756d206160648201527f6d6f756e74206172726976696e672061742064657374696e6174696f6e2e0000608482015260a401610422565b3360009081526005602081815260408084208c855282529283902083516101008101855281546001600160a01b03908116808352600184015480831695840195909552600160a01b90940460ff161515958201959095526002820154909416606085015260038101546080850152600481015460a08501529182015460c084015260069091015460e09092019190915215610c435760405162461bcd60e51b815260206004820152603a60248201527f526571756573742077697468207468652073616d6520696420666f722074686560448201527f20726571756573746f7220616c7265616479206578697374732e0000000000006064820152608401610422565b610c4b6112ee565b604051806101000160405280336001600160a01b03168152602001866001600160a01b031681526020018315158152602001886001600160a01b0316815260200182815260200184815260200185815260200160025481525060056000336001600160a01b03166001600160a01b0316815260200190815260200160002060008a815260200190815260200160002060008201518160000160006101000a8154816001600160a01b0302191690836001600160a01b0316021790555060208201518160010160006101000a8154816001600160a01b0302191690836001600160a01b0316021790555060408201518160010160146101000a81548160ff02191690831515021790555060608201518160020160006101000a8154816001600160a01b0302191690836001600160a01b031602179055506080820151816003015560a0820151816004015560c0820151816005015560e082015181600601559050508115610e32576040516323b872dd60e01b8152336004820152306024820152604481018290526001600160a01b038816906323b872dd906064016020604051808303816000875af1158015610e05573d6000803e3d6000fd5b505050506040513d601f19601f82011682018060405250810190610e2991906114c3565b610e3257600080fd5b5050610e3d60018055565b505050505050565b610e4d611171565b60038190556106a3611274565b610e62611171565b610e6a6111cb565b6001600160a01b0387811660009081526005602081815260408084208b855282529283902083516101008101855281548616808252600183015480881694830194909452600160a01b90930460ff161515948101949094526002810154909416606084015260038401546080840152600484015460a08401529083015460c083015260069092015460e082015290610f3c5760405162461bcd60e51b81526020600482015260156024820152744e6f207265717565737420746f2070726f6365737360581b6044820152606401610422565b8581608001511015610f905760405162461bcd60e51b815260206004820181905260248201527f426f6e646572206665652063616e6e6f742065786365656420616d6f756e742e6044820152606401610422565b60008160400151610fa5578160800151610fa8565b60005b60608301516001600160a01b039081166000908152600760209081526040808320548e8516845260058084528285208f8652845282852080546001600160a01b031990811682556001820180546001600160a81b03191690556002820180549091169055600381018690556004808201879055918101869055600690810195909555935492880151608089015192516377506bd960e11b81529485019390935291841660248401526044830152606482018b9052608482018a905260a4820189905260c4820188905260e48201879052929350911690819063eea0d7b2908490610104016000604051808303818588803b1580156110a557600080fd5b505af11580156110b9573d6000803e3d6000fd5b50505060e085015160405133935081156108fc0292506000818181858888f193505050506110e657600080fd5b5050506110f260018055565b50505050505050565b611103611171565b6001600160a01b0381166111685760405162461bcd60e51b815260206004820152602660248201527f4f776e61626c653a206e6577206f776e657220697320746865207a65726f206160448201526564647265737360d01b6064820152608401610422565b6106a381611224565b6000546001600160a01b031633146107915760405162461bcd60e51b815260206004820181905260248201527f4f776e61626c653a2063616c6c6572206973206e6f7420746865206f776e65726044820152606401610422565b60026001540361121d5760405162461bcd60e51b815260206004820152601f60248201527f5265656e7472616e637947756172643a207265656e7472616e742063616c6c006044820152606401610422565b6002600155565b600080546001600160a01b038381166001600160a01b0319831681178455604051919092169283917f8be0079c531659141344cd1fd0a4f28419497f9722a3daafe3b4186f6b6457e09190a35050565b60025460035410156107915760405162461bcd60e51b815260206004820152603e60248201527f5365727669636520666565206d75737420636f766572206174206c656173742060448201527f74686520657865637574696f6e2067617320726571756972656d656e742e00006064820152608401610422565b6002546003546112fe91906114e5565b6004600082825461130f91906114aa565b9091555050565b6001600160a01b03811681146106a357600080fd5b6000806040838503121561133e57600080fd5b823561134981611316565b9150602083013561135981611316565b809150509250929050565b60006020828403121561137657600080fd5b5035919050565b6000806040838503121561139057600080fd5b823561139b81611316565b946020939093013593505050565b6000602082840312156113bb57600080fd5b81356113c681611316565b9392505050565b60008060008060008060c087890312156113e657600080fd5b8635955060208701356113f881611316565b945060408701359350606087013561140f81611316565b9598949750929560808101359460a0909101359350915050565b600080600080600080600060e0888a03121561144457600080fd5b873561144f81611316565b9960208901359950604089013598606081013598506080810135975060a0810135965060c00135945092505050565b634e487b7160e01b600052600160045260246000fd5b634e487b7160e01b600052601160045260246000fd5b808201808211156114bd576114bd611494565b92915050565b6000602082840312156114d557600080fd5b815180151581146113c657600080fd5b818103818111156114bd576114bd61149456fea26469706673582212200b018a75015d14662f35c9b2e31f9a916fdda57963a4ce1572595459dff12f6f64736f6c63430008130033",
					"opcodes": "PUSH1 0x80 PUSH1 0x40 MSTORE CALLVALUE DUP1 ISZERO PUSH2 0x10 JUMPI PUSH1 0x0 DUP1 REVERT JUMPDEST POP PUSH1 0x40 MLOAD PUSH2 0x1696 CODESIZE SUB DUP1 PUSH2 0x1696 DUP4 CODECOPY DUP2 ADD PUSH1 0x40 DUP2 SWAP1 MSTORE PUSH2 0x2F SWAP2 PUSH2 0x12B JUMP JUMPDEST PUSH2 0x38 CALLER PUSH2 0x5B JUMP JUMPDEST PUSH1 0x1 DUP1 SSTORE PUSH1 0x2 DUP4 SWAP1 SSTORE PUSH1 0x3 DUP3 SWAP1 SSTORE PUSH1 0x6 DUP2 SWAP1 SSTORE PUSH2 0x53 PUSH2 0xAB JUMP JUMPDEST POP POP POP PUSH2 0x159 JUMP JUMPDEST PUSH1 0x0 DUP1 SLOAD PUSH1 0x1 PUSH1 0x1 PUSH1 0xA0 SHL SUB DUP4 DUP2 AND PUSH1 0x1 PUSH1 0x1 PUSH1 0xA0 SHL SUB NOT DUP4 AND DUP2 OR DUP5 SSTORE PUSH1 0x40 MLOAD SWAP2 SWAP1 SWAP3 AND SWAP3 DUP4 SWAP2 PUSH32 0x8BE0079C531659141344CD1FD0A4F28419497F9722A3DAAFE3B4186F6B6457E0 SWAP2 SWAP1 LOG3 POP POP JUMP JUMPDEST PUSH1 0x2 SLOAD PUSH1 0x3 SLOAD LT ISZERO PUSH2 0x129 JUMPI PUSH1 0x40 MLOAD PUSH3 0x461BCD PUSH1 0xE5 SHL DUP2 MSTORE PUSH1 0x20 PUSH1 0x4 DUP3 ADD MSTORE PUSH1 0x3E PUSH1 0x24 DUP3 ADD MSTORE PUSH32 0x5365727669636520666565206D75737420636F766572206174206C6561737420 PUSH1 0x44 DUP3 ADD MSTORE PUSH32 0x74686520657865637574696F6E2067617320726571756972656D656E742E0000 PUSH1 0x64 DUP3 ADD MSTORE PUSH1 0x84 ADD PUSH1 0x40 MLOAD DUP1 SWAP2 SUB SWAP1 REVERT JUMPDEST JUMP JUMPDEST PUSH1 0x0 DUP1 PUSH1 0x0 PUSH1 0x60 DUP5 DUP7 SUB SLT ISZERO PUSH2 0x140 JUMPI PUSH1 0x0 DUP1 REVERT JUMPDEST DUP4 MLOAD SWAP3 POP PUSH1 0x20 DUP5 ADD MLOAD SWAP2 POP PUSH1 0x40 DUP5 ADD MLOAD SWAP1 POP SWAP3 POP SWAP3 POP SWAP3 JUMP JUMPDEST PUSH2 0x152E DUP1 PUSH2 0x168 PUSH1 0x0 CODECOPY PUSH1 0x0 RETURN INVALID PUSH1 0x80 PUSH1 0x40 MSTORE PUSH1 0x4 CALLDATASIZE LT PUSH2 0xFE JUMPI PUSH1 0x0 CALLDATALOAD PUSH1 0xE0 SHR DUP1 PUSH4 0x87D6161B GT PUSH2 0x95 JUMPI DUP1 PUSH4 0xA191078A GT PUSH2 0x64 JUMPI DUP1 PUSH4 0xA191078A EQ PUSH2 0x32A JUMPI DUP1 PUSH4 0xA1F66306 EQ PUSH2 0x34A JUMPI DUP1 PUSH4 0xB6502943 EQ PUSH2 0x360 JUMPI DUP1 PUSH4 0xD043BA19 EQ PUSH2 0x376 JUMPI DUP1 PUSH4 0xF2FDE38B EQ PUSH2 0x396 JUMPI PUSH1 0x0 DUP1 REVERT JUMPDEST DUP1 PUSH4 0x87D6161B EQ PUSH2 0x2C3 JUMPI DUP1 PUSH4 0x8ABDF5AA EQ PUSH2 0x2E3 JUMPI DUP1 PUSH4 0x8C13BC08 EQ PUSH2 0x2F9 JUMPI DUP1 PUSH4 0x8DA5CB5B EQ PUSH2 0x30C JUMPI PUSH1 0x0 DUP1 REVERT JUMPDEST DUP1 PUSH4 0x488FF1C8 GT PUSH2 0xD1 JUMPI DUP1 PUSH4 0x488FF1C8 EQ PUSH2 0x18E JUMPI DUP1 PUSH4 0x715018A6 EQ PUSH2 0x258 JUMPI DUP1 PUSH4 0x7394E49C EQ PUSH2 0x26D JUMPI DUP1 PUSH4 0x7B1AA45F EQ PUSH2 0x2BB JUMPI PUSH1 0x0 DUP1 REVERT JUMPDEST DUP1 PUSH4 0x1485351E EQ PUSH2 0x103 JUMPI DUP1 PUSH4 0x242F4046 EQ PUSH2 0x125 JUMPI DUP1 PUSH4 0x2E1A7D4D EQ PUSH2 0x14E JUMPI DUP1 PUSH4 0x33F707D1 EQ PUSH2 0x16E JUMPI JUMPDEST PUSH1 0x0 DUP1 REVERT JUMPDEST CALLVALUE DUP1 ISZERO PUSH2 0x10F JUMPI PUSH1 0x0 DUP1 REVERT JUMPDEST POP PUSH2 0x123 PUSH2 0x11E CALLDATASIZE PUSH1 0x4 PUSH2 0x132B JUMP JUMPDEST PUSH2 0x3B6 JUMP JUMPDEST STOP JUMPDEST CALLVALUE DUP1 ISZERO PUSH2 0x131 JUMPI PUSH1 0x0 DUP1 REVERT JUMPDEST POP PUSH2 0x13B PUSH1 0x2 SLOAD DUP2 JUMP JUMPDEST PUSH1 0x40 MLOAD SWAP1 DUP2 MSTORE PUSH1 0x20 ADD JUMPDEST PUSH1 0x40 MLOAD DUP1 SWAP2 SUB SWAP1 RETURN JUMPDEST CALLVALUE DUP1 ISZERO PUSH2 0x15A JUMPI PUSH1 0x0 DUP1 REVERT JUMPDEST POP PUSH2 0x123 PUSH2 0x169 CALLDATASIZE PUSH1 0x4 PUSH2 0x1364 JUMP JUMPDEST PUSH2 0x459 JUMP JUMPDEST CALLVALUE DUP1 ISZERO PUSH2 0x17A JUMPI PUSH1 0x0 DUP1 REVERT JUMPDEST POP PUSH2 0x123 PUSH2 0x189 CALLDATASIZE PUSH1 0x4 PUSH2 0x1364 JUMP JUMPDEST PUSH2 0x6A6 JUMP JUMPDEST CALLVALUE DUP1 ISZERO PUSH2 0x19A JUMPI PUSH1 0x0 DUP1 REVERT JUMPDEST POP PUSH2 0x209 PUSH2 0x1A9 CALLDATASIZE PUSH1 0x4 PUSH2 0x137D JUMP JUMPDEST PUSH1 0x5 PUSH1 0x20 DUP2 DUP2 MSTORE PUSH1 0x0 SWAP4 DUP5 MSTORE PUSH1 0x40 DUP1 DUP6 KECCAK256 SWAP1 SWAP2 MSTORE SWAP2 DUP4 MSTORE SWAP2 KECCAK256 DUP1 SLOAD PUSH1 0x1 DUP3 ADD SLOAD PUSH1 0x2 DUP4 ADD SLOAD PUSH1 0x3 DUP5 ADD SLOAD PUSH1 0x4 DUP6 ADD SLOAD SWAP6 DUP6 ADD SLOAD PUSH1 0x6 SWAP1 SWAP6 ADD SLOAD PUSH1 0x1 PUSH1 0x1 PUSH1 0xA0 SHL SUB SWAP5 DUP6 AND SWAP7 DUP6 DUP6 AND SWAP7 PUSH1 0x1 PUSH1 0xA0 SHL SWAP1 SWAP6 DIV PUSH1 0xFF AND SWAP6 SWAP1 SWAP4 AND SWAP4 SWAP2 SWAP3 SWAP2 SWAP1 DUP9 JUMP JUMPDEST PUSH1 0x40 DUP1 MLOAD PUSH1 0x1 PUSH1 0x1 PUSH1 0xA0 SHL SUB SWAP10 DUP11 AND DUP2 MSTORE SWAP8 DUP10 AND PUSH1 0x20 DUP10 ADD MSTORE SWAP6 ISZERO ISZERO SWAP6 DUP8 ADD SWAP6 SWAP1 SWAP6 MSTORE SWAP6 SWAP1 SWAP3 AND PUSH1 0x60 DUP6 ADD MSTORE PUSH1 0x80 DUP5 ADD MSTORE PUSH1 0xA0 DUP4 ADD MSTORE PUSH1 0xC0 DUP3 ADD SWAP3 SWAP1 SWAP3 MSTORE PUSH1 0xE0 DUP2 ADD SWAP2 SWAP1 SWAP2 MSTORE PUSH2 0x100 ADD PUSH2 0x145 JUMP JUMPDEST CALLVALUE DUP1 ISZERO PUSH2 0x264 JUMPI PUSH1 0x0 DUP1 REVERT JUMPDEST POP PUSH2 0x123 PUSH2 0x77F JUMP JUMPDEST CALLVALUE DUP1 ISZERO PUSH2 0x279 JUMPI PUSH1 0x0 DUP1 REVERT JUMPDEST POP PUSH2 0x2A3 PUSH2 0x288 CALLDATASIZE PUSH1 0x4 PUSH2 0x13A9 JUMP JUMPDEST PUSH1 0x7 PUSH1 0x20 MSTORE PUSH1 0x0 SWAP1 DUP2 MSTORE PUSH1 0x40 SWAP1 KECCAK256 SLOAD PUSH1 0x1 PUSH1 0x1 PUSH1 0xA0 SHL SUB AND DUP2 JUMP JUMPDEST PUSH1 0x40 MLOAD PUSH1 0x1 PUSH1 0x1 PUSH1 0xA0 SHL SUB SWAP1 SWAP2 AND DUP2 MSTORE PUSH1 0x20 ADD PUSH2 0x145 JUMP JUMPDEST PUSH2 0x123 PUSH2 0x793 JUMP JUMPDEST CALLVALUE DUP1 ISZERO PUSH2 0x2CF JUMPI PUSH1 0x0 DUP1 REVERT JUMPDEST POP PUSH2 0x123 PUSH2 0x2DE CALLDATASIZE PUSH1 0x4 PUSH2 0x1364 JUMP JUMPDEST PUSH2 0x79B JUMP JUMPDEST CALLVALUE DUP1 ISZERO PUSH2 0x2EF JUMPI PUSH1 0x0 DUP1 REVERT JUMPDEST POP PUSH2 0x13B PUSH1 0x3 SLOAD DUP2 JUMP JUMPDEST PUSH2 0x123 PUSH2 0x307 CALLDATASIZE PUSH1 0x4 PUSH2 0x13CD JUMP JUMPDEST PUSH2 0x7B0 JUMP JUMPDEST CALLVALUE DUP1 ISZERO PUSH2 0x318 JUMPI PUSH1 0x0 DUP1 REVERT JUMPDEST POP PUSH1 0x0 SLOAD PUSH1 0x1 PUSH1 0x1 PUSH1 0xA0 SHL SUB AND PUSH2 0x2A3 JUMP JUMPDEST CALLVALUE DUP1 ISZERO PUSH2 0x336 JUMPI PUSH1 0x0 DUP1 REVERT JUMPDEST POP PUSH2 0x123 PUSH2 0x345 CALLDATASIZE PUSH1 0x4 PUSH2 0x1364 JUMP JUMPDEST PUSH2 0xE45 JUMP JUMPDEST CALLVALUE DUP1 ISZERO PUSH2 0x356 JUMPI PUSH1 0x0 DUP1 REVERT JUMPDEST POP PUSH2 0x13B PUSH1 0x4 SLOAD DUP2 JUMP JUMPDEST CALLVALUE DUP1 ISZERO PUSH2 0x36C JUMPI PUSH1 0x0 DUP1 REVERT JUMPDEST POP PUSH2 0x13B PUSH1 0x6 SLOAD DUP2 JUMP JUMPDEST CALLVALUE DUP1 ISZERO PUSH2 0x382 JUMPI PUSH1 0x0 DUP1 REVERT JUMPDEST POP PUSH2 0x123 PUSH2 0x391 CALLDATASIZE PUSH1 0x4 PUSH2 0x1429 JUMP JUMPDEST PUSH2 0xE5A JUMP JUMPDEST CALLVALUE DUP1 ISZERO PUSH2 0x3A2 JUMPI PUSH1 0x0 DUP1 REVERT JUMPDEST POP PUSH2 0x123 PUSH2 0x3B1 CALLDATASIZE PUSH1 0x4 PUSH2 0x13A9 JUMP JUMPDEST PUSH2 0x10FB JUMP JUMPDEST PUSH2 0x3BE PUSH2 0x1171 JUMP JUMPDEST PUSH1 0x1 PUSH1 0x1 PUSH1 0xA0 SHL SUB DUP3 DUP2 AND PUSH1 0x0 SWAP1 DUP2 MSTORE PUSH1 0x7 PUSH1 0x20 MSTORE PUSH1 0x40 SWAP1 KECCAK256 SLOAD AND ISZERO PUSH2 0x42B JUMPI PUSH1 0x40 MLOAD PUSH3 0x461BCD PUSH1 0xE5 SHL DUP2 MSTORE PUSH1 0x20 PUSH1 0x4 DUP3 ADD MSTORE PUSH1 0x18 PUSH1 0x24 DUP3 ADD MSTORE PUSH32 0x546F6B656E20616C726561647920737570706F727465642E0000000000000000 PUSH1 0x44 DUP3 ADD MSTORE PUSH1 0x64 ADD JUMPDEST PUSH1 0x40 MLOAD DUP1 SWAP2 SUB SWAP1 REVERT JUMPDEST PUSH1 0x1 PUSH1 0x1 PUSH1 0xA0 SHL SUB SWAP2 DUP3 AND PUSH1 0x0 SWAP1 DUP2 MSTORE PUSH1 0x7 PUSH1 0x20 MSTORE PUSH1 0x40 SWAP1 KECCAK256 DUP1 SLOAD PUSH1 0x1 PUSH1 0x1 PUSH1 0xA0 SHL SUB NOT AND SWAP2 SWAP1 SWAP3 AND OR SWAP1 SSTORE JUMP JUMPDEST PUSH2 0x461 PUSH2 0x11CB JUMP JUMPDEST CALLER PUSH1 0x0 SWAP1 DUP2 MSTORE PUSH1 0x5 PUSH1 0x20 DUP2 DUP2 MSTORE PUSH1 0x40 DUP1 DUP5 KECCAK256 DUP6 DUP6 MSTORE DUP3 MSTORE SWAP3 DUP4 SWAP1 KECCAK256 DUP4 MLOAD PUSH2 0x100 DUP2 ADD DUP6 MSTORE DUP2 SLOAD PUSH1 0x1 PUSH1 0x1 PUSH1 0xA0 SHL SUB SWAP1 DUP2 AND DUP1 DUP4 MSTORE PUSH1 0x1 DUP5 ADD SLOAD DUP1 DUP4 AND SWAP6 DUP5 ADD SWAP6 SWAP1 SWAP6 MSTORE PUSH1 0x1 PUSH1 0xA0 SHL SWAP1 SWAP5 DIV PUSH1 0xFF AND ISZERO ISZERO SWAP6 DUP3 ADD SWAP6 SWAP1 SWAP6 MSTORE PUSH1 0x2 DUP3 ADD SLOAD SWAP1 SWAP5 AND PUSH1 0x60 DUP6 ADD MSTORE PUSH1 0x3 DUP2 ADD SLOAD PUSH1 0x80 DUP6 ADD MSTORE PUSH1 0x4 DUP2 ADD SLOAD PUSH1 0xA0 DUP6 ADD MSTORE SWAP2 DUP3 ADD SLOAD PUSH1 0xC0 DUP5 ADD MSTORE PUSH1 0x6 SWAP1 SWAP2 ADD SLOAD PUSH1 0xE0 DUP4 ADD MSTORE PUSH2 0x539 JUMPI PUSH1 0x40 MLOAD PUSH3 0x461BCD PUSH1 0xE5 SHL DUP2 MSTORE PUSH1 0x20 PUSH1 0x4 DUP3 ADD MSTORE PUSH1 0x17 PUSH1 0x24 DUP3 ADD MSTORE PUSH32 0x4E6F207265717565737420746F2077697468647261772E000000000000000000 PUSH1 0x44 DUP3 ADD MSTORE PUSH1 0x64 ADD PUSH2 0x422 JUMP JUMPDEST DUP1 MLOAD PUSH1 0x1 PUSH1 0x1 PUSH1 0xA0 SHL SUB AND CALLER EQ PUSH2 0x552 JUMPI PUSH2 0x552 PUSH2 0x147E JUMP JUMPDEST PUSH1 0xE0 DUP2 ADD MLOAD PUSH1 0x40 DUP3 ADD MLOAD PUSH1 0x0 SWAP2 SWAP1 ISZERO PUSH2 0x57B JUMPI PUSH1 0x80 DUP4 ADD MLOAD PUSH2 0x574 SWAP1 DUP4 PUSH2 0x14AA JUMP JUMPDEST SWAP2 POP PUSH2 0x58D JUMP JUMPDEST PUSH1 0x80 DUP4 ADD MLOAD PUSH2 0x58A SWAP1 DUP3 PUSH2 0x14AA JUMP JUMPDEST SWAP1 POP JUMPDEST CALLER PUSH1 0x0 DUP2 DUP2 MSTORE PUSH1 0x5 PUSH1 0x20 DUP2 DUP2 MSTORE PUSH1 0x40 DUP1 DUP5 KECCAK256 DUP10 DUP6 MSTORE SWAP1 SWAP2 MSTORE DUP1 DUP4 KECCAK256 DUP1 SLOAD PUSH1 0x1 PUSH1 0x1 PUSH1 0xA0 SHL SUB NOT SWAP1 DUP2 AND DUP3 SSTORE PUSH1 0x1 DUP3 ADD DUP1 SLOAD PUSH1 0x1 PUSH1 0x1 PUSH1 0xA8 SHL SUB NOT AND SWAP1 SSTORE PUSH1 0x2 DUP3 ADD DUP1 SLOAD SWAP1 SWAP2 AND SWAP1 SSTORE PUSH1 0x3 DUP2 ADD DUP5 SWAP1 SSTORE PUSH1 0x4 DUP2 ADD DUP5 SWAP1 SSTORE SWAP2 DUP3 ADD DUP4 SWAP1 SSTORE PUSH1 0x6 SWAP1 SWAP2 ADD DUP3 SWAP1 SSTORE MLOAD DUP4 ISZERO PUSH2 0x8FC MUL SWAP2 DUP5 SWAP2 SWAP1 DUP2 DUP2 DUP2 DUP6 DUP9 DUP9 CALL SWAP4 POP POP POP POP PUSH2 0x611 JUMPI PUSH1 0x0 DUP1 REVERT JUMPDEST PUSH1 0x60 DUP4 ADD MLOAD PUSH1 0x40 MLOAD PUSH4 0x23B872DD PUSH1 0xE0 SHL DUP2 MSTORE ADDRESS PUSH1 0x4 DUP3 ADD MSTORE CALLER PUSH1 0x24 DUP3 ADD MSTORE PUSH1 0x44 DUP2 ADD DUP5 SWAP1 MSTORE PUSH1 0x1 PUSH1 0x1 PUSH1 0xA0 SHL SUB SWAP1 SWAP2 AND SWAP1 PUSH4 0x23B872DD SWAP1 PUSH1 0x64 ADD PUSH1 0x20 PUSH1 0x40 MLOAD DUP1 DUP4 SUB DUP2 PUSH1 0x0 DUP8 GAS CALL ISZERO DUP1 ISZERO PUSH2 0x66A JUMPI RETURNDATASIZE PUSH1 0x0 DUP1 RETURNDATACOPY RETURNDATASIZE PUSH1 0x0 REVERT JUMPDEST POP POP POP POP PUSH1 0x40 MLOAD RETURNDATASIZE PUSH1 0x1F NOT PUSH1 0x1F DUP3 ADD AND DUP3 ADD DUP1 PUSH1 0x40 MSTORE POP DUP2 ADD SWAP1 PUSH2 0x68E SWAP2 SWAP1 PUSH2 0x14C3 JUMP JUMPDEST PUSH2 0x697 JUMPI PUSH1 0x0 DUP1 REVERT JUMPDEST POP POP POP PUSH2 0x6A3 PUSH1 0x1 DUP1 SSTORE JUMP JUMPDEST POP JUMP JUMPDEST PUSH2 0x6AE PUSH2 0x1171 JUMP JUMPDEST PUSH2 0x6B6 PUSH2 0x11CB JUMP JUMPDEST DUP1 PUSH1 0x4 SLOAD LT ISZERO PUSH2 0x73A JUMPI PUSH1 0x40 MLOAD PUSH3 0x461BCD PUSH1 0xE5 SHL DUP2 MSTORE PUSH1 0x20 PUSH1 0x4 DUP3 ADD MSTORE PUSH1 0x43 PUSH1 0x24 DUP3 ADD MSTORE PUSH32 0x43616E6E6F74207769746864726177206D6F72652066756E6473207468616E20 PUSH1 0x44 DUP3 ADD MSTORE PUSH32 0x74686520636F6C6C6563746564206E6F6E206761732073657276696365206665 PUSH1 0x64 DUP3 ADD MSTORE PUSH3 0x32B997 PUSH1 0xE9 SHL PUSH1 0x84 DUP3 ADD MSTORE PUSH1 0xA4 ADD PUSH2 0x422 JUMP JUMPDEST DUP1 PUSH1 0x4 PUSH1 0x0 DUP3 DUP3 SLOAD PUSH2 0x74C SWAP2 SWAP1 PUSH2 0x14E5 JUMP JUMPDEST SWAP1 SWAP2 SSTORE POP POP PUSH1 0x40 MLOAD CALLER SWAP1 DUP3 ISZERO PUSH2 0x8FC MUL SWAP1 DUP4 SWAP1 PUSH1 0x0 DUP2 DUP2 DUP2 DUP6 DUP9 DUP9 CALL SWAP4 POP POP POP POP PUSH2 0x776 JUMPI PUSH1 0x0 DUP1 REVERT JUMPDEST PUSH2 0x6A3 PUSH1 0x1 DUP1 SSTORE JUMP JUMPDEST PUSH2 0x787 PUSH2 0x1171 JUMP JUMPDEST PUSH2 0x791 PUSH1 0x0 PUSH2 0x1224 JUMP JUMPDEST JUMP JUMPDEST PUSH2 0x791 PUSH2 0x1171 JUMP JUMPDEST PUSH2 0x7A3 PUSH2 0x1171 JUMP JUMPDEST PUSH1 0x2 DUP2 SWAP1 SSTORE PUSH2 0x6A3 PUSH2 0x1274 JUMP JUMPDEST PUSH2 0x7B8 PUSH2 0x11CB JUMP JUMPDEST CALLER PUSH2 0x805 JUMPI PUSH1 0x40 MLOAD PUSH3 0x461BCD PUSH1 0xE5 SHL DUP2 MSTORE PUSH1 0x20 PUSH1 0x4 DUP3 ADD MSTORE PUSH1 0x1B PUSH1 0x24 DUP3 ADD MSTORE PUSH32 0x53656E646572206D6179206E6F74206265203020616464726573730000000000 PUSH1 0x44 DUP3 ADD MSTORE PUSH1 0x64 ADD PUSH2 0x422 JUMP JUMPDEST PUSH1 0x1 PUSH1 0x1 PUSH1 0xA0 SHL SUB DUP4 AND PUSH2 0x86C JUMPI PUSH1 0x40 MLOAD PUSH3 0x461BCD PUSH1 0xE5 SHL DUP2 MSTORE PUSH1 0x20 PUSH1 0x4 DUP3 ADD MSTORE PUSH1 0x28 PUSH1 0x24 DUP3 ADD MSTORE PUSH32 0x44657374696E6174696F6E2061646472657373206D6179206E6F742062652030 PUSH1 0x44 DUP3 ADD MSTORE PUSH8 0x2061646472657373 PUSH1 0xC0 SHL PUSH1 0x64 DUP3 ADD MSTORE PUSH1 0x84 ADD PUSH2 0x422 JUMP JUMPDEST PUSH1 0x0 DUP3 GT PUSH2 0x8D2 JUMPI PUSH1 0x40 MLOAD PUSH3 0x461BCD PUSH1 0xE5 SHL DUP2 MSTORE PUSH1 0x20 PUSH1 0x4 DUP3 ADD MSTORE PUSH1 0x2D PUSH1 0x24 DUP3 ADD MSTORE PUSH32 0x57616E746564204C3120676173207072696365206D7573742062652073747269 PUSH1 0x44 DUP3 ADD MSTORE PUSH13 0x63746C7920706F736974697665 PUSH1 0x98 SHL PUSH1 0x64 DUP3 ADD MSTORE PUSH1 0x84 ADD PUSH2 0x422 JUMP JUMPDEST PUSH1 0x3 SLOAD CALLVALUE LT ISZERO PUSH2 0x93A JUMPI PUSH1 0x40 MLOAD PUSH3 0x461BCD PUSH1 0xE5 SHL DUP2 MSTORE PUSH1 0x20 PUSH1 0x4 DUP3 ADD MSTORE PUSH1 0x2D PUSH1 0x24 DUP3 ADD MSTORE PUSH32 0x4E6F7420656E6F7567682066756E647320746F2070617920666F722064656C61 PUSH1 0x44 DUP3 ADD MSTORE PUSH13 0x3CB2B21032BC32B1BABA34B7B7 PUSH1 0x99 SHL PUSH1 0x64 DUP3 ADD MSTORE PUSH1 0x84 ADD PUSH2 0x422 JUMP JUMPDEST DUP4 ISZERO DUP1 ISZERO SWAP1 PUSH1 0x0 SWAP1 PUSH2 0xA1E JUMPI PUSH1 0x1 PUSH1 0x1 PUSH1 0xA0 SHL SUB DUP8 DUP2 AND PUSH1 0x0 SWAP1 DUP2 MSTORE PUSH1 0x7 PUSH1 0x20 MSTORE PUSH1 0x40 SWAP1 KECCAK256 SLOAD AND PUSH2 0x9AD JUMPI PUSH1 0x40 MLOAD PUSH3 0x461BCD PUSH1 0xE5 SHL DUP2 MSTORE PUSH1 0x20 PUSH1 0x4 DUP3 ADD MSTORE PUSH1 0x17 PUSH1 0x24 DUP3 ADD MSTORE PUSH32 0x546F6B656E206973206E6F7420737570706F727465642E000000000000000000 PUSH1 0x44 DUP3 ADD MSTORE PUSH1 0x64 ADD PUSH2 0x422 JUMP JUMPDEST PUSH1 0x3 SLOAD CALLVALUE EQ PUSH2 0xA17 JUMPI PUSH1 0x40 MLOAD PUSH3 0x461BCD PUSH1 0xE5 SHL DUP2 MSTORE PUSH1 0x20 PUSH1 0x4 DUP3 ADD MSTORE PUSH1 0x30 PUSH1 0x24 DUP3 ADD MSTORE PUSH32 0x466F7220746F6B656E206465706F736974732C20706179207468652073657276 PUSH1 0x44 DUP3 ADD MSTORE PUSH16 0x34B1B2903332B29032BC30B1BA363C97 PUSH1 0x81 SHL PUSH1 0x64 DUP3 ADD MSTORE PUSH1 0x84 ADD PUSH2 0x422 JUMP JUMPDEST POP DUP5 PUSH2 0xAA4 JUMP JUMPDEST PUSH1 0x1 PUSH1 0x1 PUSH1 0xA0 SHL SUB DUP8 AND ISZERO PUSH2 0xA94 JUMPI PUSH1 0x40 MLOAD PUSH3 0x461BCD PUSH1 0xE5 SHL DUP2 MSTORE PUSH1 0x20 PUSH1 0x4 DUP3 ADD MSTORE PUSH1 0x36 PUSH1 0x24 DUP3 ADD MSTORE PUSH32 0x546F6B656E206D757374206265203020616464726573732C207768656E206465 PUSH1 0x44 DUP3 ADD MSTORE PUSH22 0x3837B9B4BA34B733903730BA34BB329032BA3432B917 PUSH1 0x51 SHL PUSH1 0x64 DUP3 ADD MSTORE PUSH1 0x84 ADD PUSH2 0x422 JUMP JUMPDEST PUSH1 0x3 SLOAD PUSH2 0xAA1 SWAP1 CALLVALUE PUSH2 0x14E5 JUMP JUMPDEST SWAP1 POP JUMPDEST DUP3 DUP2 LT ISZERO PUSH2 0xB40 JUMPI PUSH1 0x40 MLOAD PUSH3 0x461BCD PUSH1 0xE5 SHL DUP2 MSTORE PUSH1 0x20 PUSH1 0x4 DUP3 ADD MSTORE PUSH1 0x5E PUSH1 0x24 DUP3 ADD MSTORE PUSH32 0x43616C63756C617465642073656E7420616D6F756E74206D757374206265206C PUSH1 0x44 DUP3 ADD MSTORE PUSH32 0x6172676572207468616E207468652064657369726564206D696E696D756D2061 PUSH1 0x64 DUP3 ADD MSTORE PUSH32 0x6D6F756E74206172726976696E672061742064657374696E6174696F6E2E0000 PUSH1 0x84 DUP3 ADD MSTORE PUSH1 0xA4 ADD PUSH2 0x422 JUMP JUMPDEST CALLER PUSH1 0x0 SWAP1 DUP2 MSTORE PUSH1 0x5 PUSH1 0x20 DUP2 DUP2 MSTORE PUSH1 0x40 DUP1 DUP5 KECCAK256 DUP13 DUP6 MSTORE DUP3 MSTORE SWAP3 DUP4 SWAP1 KECCAK256 DUP4 MLOAD PUSH2 0x100 DUP2 ADD DUP6 MSTORE DUP2 SLOAD PUSH1 0x1 PUSH1 0x1 PUSH1 0xA0 SHL SUB SWAP1 DUP2 AND DUP1 DUP4 MSTORE PUSH1 0x1 DUP5 ADD SLOAD DUP1 DUP4 AND SWAP6 DUP5 ADD SWAP6 SWAP1 SWAP6 MSTORE PUSH1 0x1 PUSH1 0xA0 SHL SWAP1 SWAP5 DIV PUSH1 0xFF AND ISZERO ISZERO SWAP6 DUP3 ADD SWAP6 SWAP1 SWAP6 MSTORE PUSH1 0x2 DUP3 ADD SLOAD SWAP1 SWAP5 AND PUSH1 0x60 DUP6 ADD MSTORE PUSH1 0x3 DUP2 ADD SLOAD PUSH1 0x80 DUP6 ADD MSTORE PUSH1 0x4 DUP2 ADD SLOAD PUSH1 0xA0 DUP6 ADD MSTORE SWAP2 DUP3 ADD SLOAD PUSH1 0xC0 DUP5 ADD MSTORE PUSH1 0x6 SWAP1 SWAP2 ADD SLOAD PUSH1 0xE0 SWAP1 SWAP3 ADD SWAP2 SWAP1 SWAP2 MSTORE ISZERO PUSH2 0xC43 JUMPI PUSH1 0x40 MLOAD PUSH3 0x461BCD PUSH1 0xE5 SHL DUP2 MSTORE PUSH1 0x20 PUSH1 0x4 DUP3 ADD MSTORE PUSH1 0x3A PUSH1 0x24 DUP3 ADD MSTORE PUSH32 0x526571756573742077697468207468652073616D6520696420666F7220746865 PUSH1 0x44 DUP3 ADD MSTORE PUSH32 0x20726571756573746F7220616C7265616479206578697374732E000000000000 PUSH1 0x64 DUP3 ADD MSTORE PUSH1 0x84 ADD PUSH2 0x422 JUMP JUMPDEST PUSH2 0xC4B PUSH2 0x12EE JUMP JUMPDEST PUSH1 0x40 MLOAD DUP1 PUSH2 0x100 ADD PUSH1 0x40 MSTORE DUP1 CALLER PUSH1 0x1 PUSH1 0x1 PUSH1 0xA0 SHL SUB AND DUP2 MSTORE PUSH1 0x20 ADD DUP7 PUSH1 0x1 PUSH1 0x1 PUSH1 0xA0 SHL SUB AND DUP2 MSTORE PUSH1 0x20 ADD DUP4 ISZERO ISZERO DUP2 MSTORE PUSH1 0x20 ADD DUP9 PUSH1 0x1 PUSH1 0x1 PUSH1 0xA0 SHL SUB AND DUP2 MSTORE PUSH1 0x20 ADD DUP3 DUP2 MSTORE PUSH1 0x20 ADD DUP5 DUP2 MSTORE PUSH1 0x20 ADD DUP6 DUP2 MSTORE PUSH1 0x20 ADD PUSH1 0x2 SLOAD DUP2 MSTORE POP PUSH1 0x5 PUSH1 0x0 CALLER PUSH1 0x1 PUSH1 0x1 PUSH1 0xA0 SHL SUB AND PUSH1 0x1 PUSH1 0x1 PUSH1 0xA0 SHL SUB AND DUP2 MSTORE PUSH1 0x20 ADD SWAP1 DUP2 MSTORE PUSH1 0x20 ADD PUSH1 0x0 KECCAK256 PUSH1 0x0 DUP11 DUP2 MSTORE PUSH1 0x20 ADD SWAP1 DUP2 MSTORE PUSH1 0x20 ADD PUSH1 0x0 KECCAK256 PUSH1 0x0 DUP3 ADD MLOAD DUP2 PUSH1 0x0 ADD PUSH1 0x0 PUSH2 0x100 EXP DUP2 SLOAD DUP2 PUSH1 0x1 PUSH1 0x1 PUSH1 0xA0 SHL SUB MUL NOT AND SWAP1 DUP4 PUSH1 0x1 PUSH1 0x1 PUSH1 0xA0 SHL SUB AND MUL OR SWAP1 SSTORE POP PUSH1 0x20 DUP3 ADD MLOAD DUP2 PUSH1 0x1 ADD PUSH1 0x0 PUSH2 0x100 EXP DUP2 SLOAD DUP2 PUSH1 0x1 PUSH1 0x1 PUSH1 0xA0 SHL SUB MUL NOT AND SWAP1 DUP4 PUSH1 0x1 PUSH1 0x1 PUSH1 0xA0 SHL SUB AND MUL OR SWAP1 SSTORE POP PUSH1 0x40 DUP3 ADD MLOAD DUP2 PUSH1 0x1 ADD PUSH1 0x14 PUSH2 0x100 EXP DUP2 SLOAD DUP2 PUSH1 0xFF MUL NOT AND SWAP1 DUP4 ISZERO ISZERO MUL OR SWAP1 SSTORE POP PUSH1 0x60 DUP3 ADD MLOAD DUP2 PUSH1 0x2 ADD PUSH1 0x0 PUSH2 0x100 EXP DUP2 SLOAD DUP2 PUSH1 0x1 PUSH1 0x1 PUSH1 0xA0 SHL SUB MUL NOT AND SWAP1 DUP4 PUSH1 0x1 PUSH1 0x1 PUSH1 0xA0 SHL SUB AND MUL OR SWAP1 SSTORE POP PUSH1 0x80 DUP3 ADD MLOAD DUP2 PUSH1 0x3 ADD SSTORE PUSH1 0xA0 DUP3 ADD MLOAD DUP2 PUSH1 0x4 ADD SSTORE PUSH1 0xC0 DUP3 ADD MLOAD DUP2 PUSH1 0x5 ADD SSTORE PUSH1 0xE0 DUP3 ADD MLOAD DUP2 PUSH1 0x6 ADD SSTORE SWAP1 POP POP DUP2 ISZERO PUSH2 0xE32 JUMPI PUSH1 0x40 MLOAD PUSH4 0x23B872DD PUSH1 0xE0 SHL DUP2 MSTORE CALLER PUSH1 0x4 DUP3 ADD MSTORE ADDRESS PUSH1 0x24 DUP3 ADD MSTORE PUSH1 0x44 DUP2 ADD DUP3 SWAP1 MSTORE PUSH1 0x1 PUSH1 0x1 PUSH1 0xA0 SHL SUB DUP9 AND SWAP1 PUSH4 0x23B872DD SWAP1 PUSH1 0x64 ADD PUSH1 0x20 PUSH1 0x40 MLOAD DUP1 DUP4 SUB DUP2 PUSH1 0x0 DUP8 GAS CALL ISZERO DUP1 ISZERO PUSH2 0xE05 JUMPI RETURNDATASIZE PUSH1 0x0 DUP1 RETURNDATACOPY RETURNDATASIZE PUSH1 0x0 REVERT JUMPDEST POP POP POP POP PUSH1 0x40 MLOAD RETURNDATASIZE PUSH1 0x1F NOT PUSH1 0x1F DUP3 ADD AND DUP3 ADD DUP1 PUSH1 0x40 MSTORE POP DUP2 ADD SWAP1 PUSH2 0xE29 SWAP2 SWAP1 PUSH2 0x14C3 JUMP JUMPDEST PUSH2 0xE32 JUMPI PUSH1 0x0 DUP1 REVERT JUMPDEST POP POP PUSH2 0xE3D PUSH1 0x1 DUP1 SSTORE JUMP JUMPDEST POP POP POP POP POP POP JUMP JUMPDEST PUSH2 0xE4D PUSH2 0x1171 JUMP JUMPDEST PUSH1 0x3 DUP2 SWAP1 SSTORE PUSH2 0x6A3 PUSH2 0x1274 JUMP JUMPDEST PUSH2 0xE62 PUSH2 0x1171 JUMP JUMPDEST PUSH2 0xE6A PUSH2 0x11CB JUMP JUMPDEST PUSH1 0x1 PUSH1 0x1 PUSH1 0xA0 SHL SUB DUP8 DUP2 AND PUSH1 0x0 SWAP1 DUP2 MSTORE PUSH1 0x5 PUSH1 0x20 DUP2 DUP2 MSTORE PUSH1 0x40 DUP1 DUP5 KECCAK256 DUP12 DUP6 MSTORE DUP3 MSTORE SWAP3 DUP4 SWAP1 KECCAK256 DUP4 MLOAD PUSH2 0x100 DUP2 ADD DUP6 MSTORE DUP2 SLOAD DUP7 AND DUP1 DUP3 MSTORE PUSH1 0x1 DUP4 ADD SLOAD DUP1 DUP9 AND SWAP5 DUP4 ADD SWAP5 SWAP1 SWAP5 MSTORE PUSH1 0x1 PUSH1 0xA0 SHL SWAP1 SWAP4 DIV PUSH1 0xFF AND ISZERO ISZERO SWAP5 DUP2 ADD SWAP5 SWAP1 SWAP5 MSTORE PUSH1 0x2 DUP2 ADD SLOAD SWAP1 SWAP5 AND PUSH1 0x60 DUP5 ADD MSTORE PUSH1 0x3 DUP5 ADD SLOAD PUSH1 0x80 DUP5 ADD MSTORE PUSH1 0x4 DUP5 ADD SLOAD PUSH1 0xA0 DUP5 ADD MSTORE SWAP1 DUP4 ADD SLOAD PUSH1 0xC0 DUP4 ADD MSTORE PUSH1 0x6 SWAP1 SWAP3 ADD SLOAD PUSH1 0xE0 DUP3 ADD MSTORE SWAP1 PUSH2 0xF3C JUMPI PUSH1 0x40 MLOAD PUSH3 0x461BCD PUSH1 0xE5 SHL DUP2 MSTORE PUSH1 0x20 PUSH1 0x4 DUP3 ADD MSTORE PUSH1 0x15 PUSH1 0x24 DUP3 ADD MSTORE PUSH21 0x4E6F207265717565737420746F2070726F63657373 PUSH1 0x58 SHL PUSH1 0x44 DUP3 ADD MSTORE PUSH1 0x64 ADD PUSH2 0x422 JUMP JUMPDEST DUP6 DUP2 PUSH1 0x80 ADD MLOAD LT ISZERO PUSH2 0xF90 JUMPI PUSH1 0x40 MLOAD PUSH3 0x461BCD PUSH1 0xE5 SHL DUP2 MSTORE PUSH1 0x20 PUSH1 0x4 DUP3 ADD DUP2 SWAP1 MSTORE PUSH1 0x24 DUP3 ADD MSTORE PUSH32 0x426F6E646572206665652063616E6E6F742065786365656420616D6F756E742E PUSH1 0x44 DUP3 ADD MSTORE PUSH1 0x64 ADD PUSH2 0x422 JUMP JUMPDEST PUSH1 0x0 DUP2 PUSH1 0x40 ADD MLOAD PUSH2 0xFA5 JUMPI DUP2 PUSH1 0x80 ADD MLOAD PUSH2 0xFA8 JUMP JUMPDEST PUSH1 0x0 JUMPDEST PUSH1 0x60 DUP4 ADD MLOAD PUSH1 0x1 PUSH1 0x1 PUSH1 0xA0 SHL SUB SWAP1 DUP2 AND PUSH1 0x0 SWAP1 DUP2 MSTORE PUSH1 0x7 PUSH1 0x20 SWAP1 DUP2 MSTORE PUSH1 0x40 DUP1 DUP4 KECCAK256 SLOAD DUP15 DUP6 AND DUP5 MSTORE PUSH1 0x5 DUP1 DUP5 MSTORE DUP3 DUP6 KECCAK256 DUP16 DUP7 MSTORE DUP5 MSTORE DUP3 DUP6 KECCAK256 DUP1 SLOAD PUSH1 0x1 PUSH1 0x1 PUSH1 0xA0 SHL SUB NOT SWAP1 DUP2 AND DUP3 SSTORE PUSH1 0x1 DUP3 ADD DUP1 SLOAD PUSH1 0x1 PUSH1 0x1 PUSH1 0xA8 SHL SUB NOT AND SWAP1 SSTORE PUSH1 0x2 DUP3 ADD DUP1 SLOAD SWAP1 SWAP2 AND SWAP1 SSTORE PUSH1 0x3 DUP2 ADD DUP7 SWAP1 SSTORE PUSH1 0x4 DUP1 DUP3 ADD DUP8 SWAP1 SSTORE SWAP2 DUP2 ADD DUP7 SWAP1 SSTORE PUSH1 0x6 SWAP1 DUP2 ADD SWAP6 SWAP1 SWAP6 SSTORE SWAP4 SLOAD SWAP3 DUP9 ADD MLOAD PUSH1 0x80 DUP10 ADD MLOAD SWAP3 MLOAD PUSH4 0x77506BD9 PUSH1 0xE1 SHL DUP2 MSTORE SWAP5 DUP6 ADD SWAP4 SWAP1 SWAP4 MSTORE SWAP2 DUP5 AND PUSH1 0x24 DUP5 ADD MSTORE PUSH1 0x44 DUP4 ADD MSTORE PUSH1 0x64 DUP3 ADD DUP12 SWAP1 MSTORE PUSH1 0x84 DUP3 ADD DUP11 SWAP1 MSTORE PUSH1 0xA4 DUP3 ADD DUP10 SWAP1 MSTORE PUSH1 0xC4 DUP3 ADD DUP9 SWAP1 MSTORE PUSH1 0xE4 DUP3 ADD DUP8 SWAP1 MSTORE SWAP3 SWAP4 POP SWAP2 AND SWAP1 DUP2 SWAP1 PUSH4 0xEEA0D7B2 SWAP1 DUP5 SWAP1 PUSH2 0x104 ADD PUSH1 0x0 PUSH1 0x40 MLOAD DUP1 DUP4 SUB DUP2 DUP6 DUP9 DUP1 EXTCODESIZE ISZERO DUP1 ISZERO PUSH2 0x10A5 JUMPI PUSH1 0x0 DUP1 REVERT JUMPDEST POP GAS CALL ISZERO DUP1 ISZERO PUSH2 0x10B9 JUMPI RETURNDATASIZE PUSH1 0x0 DUP1 RETURNDATACOPY RETURNDATASIZE PUSH1 0x0 REVERT JUMPDEST POP POP POP PUSH1 0xE0 DUP6 ADD MLOAD PUSH1 0x40 MLOAD CALLER SWAP4 POP DUP2 ISZERO PUSH2 0x8FC MUL SWAP3 POP PUSH1 0x0 DUP2 DUP2 DUP2 DUP6 DUP9 DUP9 CALL SWAP4 POP POP POP POP PUSH2 0x10E6 JUMPI PUSH1 0x0 DUP1 REVERT JUMPDEST POP POP POP PUSH2 0x10F2 PUSH1 0x1 DUP1 SSTORE JUMP JUMPDEST POP POP POP POP POP POP POP JUMP JUMPDEST PUSH2 0x1103 PUSH2 0x1171 JUMP JUMPDEST PUSH1 0x1 PUSH1 0x1 PUSH1 0xA0 SHL SUB DUP2 AND PUSH2 0x1168 JUMPI PUSH1 0x40 MLOAD PUSH3 0x461BCD PUSH1 0xE5 SHL DUP2 MSTORE PUSH1 0x20 PUSH1 0x4 DUP3 ADD MSTORE PUSH1 0x26 PUSH1 0x24 DUP3 ADD MSTORE PUSH32 0x4F776E61626C653A206E6577206F776E657220697320746865207A65726F2061 PUSH1 0x44 DUP3 ADD MSTORE PUSH6 0x646472657373 PUSH1 0xD0 SHL PUSH1 0x64 DUP3 ADD MSTORE PUSH1 0x84 ADD PUSH2 0x422 JUMP JUMPDEST PUSH2 0x6A3 DUP2 PUSH2 0x1224 JUMP JUMPDEST PUSH1 0x0 SLOAD PUSH1 0x1 PUSH1 0x1 PUSH1 0xA0 SHL SUB AND CALLER EQ PUSH2 0x791 JUMPI PUSH1 0x40 MLOAD PUSH3 0x461BCD PUSH1 0xE5 SHL DUP2 MSTORE PUSH1 0x20 PUSH1 0x4 DUP3 ADD DUP2 SWAP1 MSTORE PUSH1 0x24 DUP3 ADD MSTORE PUSH32 0x4F776E61626C653A2063616C6C6572206973206E6F7420746865206F776E6572 PUSH1 0x44 DUP3 ADD MSTORE PUSH1 0x64 ADD PUSH2 0x422 JUMP JUMPDEST PUSH1 0x2 PUSH1 0x1 SLOAD SUB PUSH2 0x121D JUMPI PUSH1 0x40 MLOAD PUSH3 0x461BCD PUSH1 0xE5 SHL DUP2 MSTORE PUSH1 0x20 PUSH1 0x4 DUP3 ADD MSTORE PUSH1 0x1F PUSH1 0x24 DUP3 ADD MSTORE PUSH32 0x5265656E7472616E637947756172643A207265656E7472616E742063616C6C00 PUSH1 0x44 DUP3 ADD MSTORE PUSH1 0x64 ADD PUSH2 0x422 JUMP JUMPDEST PUSH1 0x2 PUSH1 0x1 SSTORE JUMP JUMPDEST PUSH1 0x0 DUP1 SLOAD PUSH1 0x1 PUSH1 0x1 PUSH1 0xA0 SHL SUB DUP4 DUP2 AND PUSH1 0x1 PUSH1 0x1 PUSH1 0xA0 SHL SUB NOT DUP4 AND DUP2 OR DUP5 SSTORE PUSH1 0x40 MLOAD SWAP2 SWAP1 SWAP3 AND SWAP3 DUP4 SWAP2 PUSH32 0x8BE0079C531659141344CD1FD0A4F28419497F9722A3DAAFE3B4186F6B6457E0 SWAP2 SWAP1 LOG3 POP POP JUMP JUMPDEST PUSH1 0x2 SLOAD PUSH1 0x3 SLOAD LT ISZERO PUSH2 0x791 JUMPI PUSH1 0x40 MLOAD PUSH3 0x461BCD PUSH1 0xE5 SHL DUP2 MSTORE PUSH1 0x20 PUSH1 0x4 DUP3 ADD MSTORE PUSH1 0x3E PUSH1 0x24 DUP3 ADD MSTORE PUSH32 0x5365727669636520666565206D75737420636F766572206174206C6561737420 PUSH1 0x44 DUP3 ADD MSTORE PUSH32 0x74686520657865637574696F6E2067617320726571756972656D656E742E0000 PUSH1 0x64 DUP3 ADD MSTORE PUSH1 0x84 ADD PUSH2 0x422 JUMP JUMPDEST PUSH1 0x2 SLOAD PUSH1 0x3 SLOAD PUSH2 0x12FE SWAP2 SWAP1 PUSH2 0x14E5 JUMP JUMPDEST PUSH1 0x4 PUSH1 0x0 DUP3 DUP3 SLOAD PUSH2 0x130F SWAP2 SWAP1 PUSH2 0x14AA JUMP JUMPDEST SWAP1 SWAP2 SSTORE POP POP JUMP JUMPDEST PUSH1 0x1 PUSH1 0x1 PUSH1 0xA0 SHL SUB DUP2 AND DUP2 EQ PUSH2 0x6A3 JUMPI PUSH1 0x0 DUP1 REVERT JUMPDEST PUSH1 0x0 DUP1 PUSH1 0x40 DUP4 DUP6 SUB SLT ISZERO PUSH2 0x133E JUMPI PUSH1 0x0 DUP1 REVERT JUMPDEST DUP3 CALLDATALOAD PUSH2 0x1349 DUP2 PUSH2 0x1316 JUMP JUMPDEST SWAP2 POP PUSH1 0x20 DUP4 ADD CALLDATALOAD PUSH2 0x1359 DUP2 PUSH2 0x1316 JUMP JUMPDEST DUP1 SWAP2 POP POP SWAP3 POP SWAP3 SWAP1 POP JUMP JUMPDEST PUSH1 0x0 PUSH1 0x20 DUP3 DUP5 SUB SLT ISZERO PUSH2 0x1376 JUMPI PUSH1 0x0 DUP1 REVERT JUMPDEST POP CALLDATALOAD SWAP2 SWAP1 POP JUMP JUMPDEST PUSH1 0x0 DUP1 PUSH1 0x40 DUP4 DUP6 SUB SLT ISZERO PUSH2 0x1390 JUMPI PUSH1 0x0 DUP1 REVERT JUMPDEST DUP3 CALLDATALOAD PUSH2 0x139B DUP2 PUSH2 0x1316 JUMP JUMPDEST SWAP5 PUSH1 0x20 SWAP4 SWAP1 SWAP4 ADD CALLDATALOAD SWAP4 POP POP POP JUMP JUMPDEST PUSH1 0x0 PUSH1 0x20 DUP3 DUP5 SUB SLT ISZERO PUSH2 0x13BB JUMPI PUSH1 0x0 DUP1 REVERT JUMPDEST DUP2 CALLDATALOAD PUSH2 0x13C6 DUP2 PUSH2 0x1316 JUMP JUMPDEST SWAP4 SWAP3 POP POP POP JUMP JUMPDEST PUSH1 0x0 DUP1 PUSH1 0x0 DUP1 PUSH1 0x0 DUP1 PUSH1 0xC0 DUP8 DUP10 SUB SLT ISZERO PUSH2 0x13E6 JUMPI PUSH1 0x0 DUP1 REVERT JUMPDEST DUP7 CALLDATALOAD SWAP6 POP PUSH1 0x20 DUP8 ADD CALLDATALOAD PUSH2 0x13F8 DUP2 PUSH2 0x1316 JUMP JUMPDEST SWAP5 POP PUSH1 0x40 DUP8 ADD CALLDATALOAD SWAP4 POP PUSH1 0x60 DUP8 ADD CALLDATALOAD PUSH2 0x140F DUP2 PUSH2 0x1316 JUMP JUMPDEST SWAP6 SWAP9 SWAP5 SWAP8 POP SWAP3 SWAP6 PUSH1 0x80 DUP2 ADD CALLDATALOAD SWAP5 PUSH1 0xA0 SWAP1 SWAP2 ADD CALLDATALOAD SWAP4 POP SWAP2 POP POP JUMP JUMPDEST PUSH1 0x0 DUP1 PUSH1 0x0 DUP1 PUSH1 0x0 DUP1 PUSH1 0x0 PUSH1 0xE0 DUP9 DUP11 SUB SLT ISZERO PUSH2 0x1444 JUMPI PUSH1 0x0 DUP1 REVERT JUMPDEST DUP8 CALLDATALOAD PUSH2 0x144F DUP2 PUSH2 0x1316 JUMP JUMPDEST SWAP10 PUSH1 0x20 DUP10 ADD CALLDATALOAD SWAP10 POP PUSH1 0x40 DUP10 ADD CALLDATALOAD SWAP9 PUSH1 0x60 DUP2 ADD CALLDATALOAD SWAP9 POP PUSH1 0x80 DUP2 ADD CALLDATALOAD SWAP8 POP PUSH1 0xA0 DUP2 ADD CALLDATALOAD SWAP7 POP PUSH1 0xC0 ADD CALLDATALOAD SWAP5 POP SWAP3 POP POP POP JUMP JUMPDEST PUSH4 0x4E487B71 PUSH1 0xE0 SHL PUSH1 0x0 MSTORE PUSH1 0x1 PUSH1 0x4 MSTORE PUSH1 0x24 PUSH1 0x0 REVERT JUMPDEST PUSH4 0x4E487B71 PUSH1 0xE0 SHL PUSH1 0x0 MSTORE PUSH1 0x11 PUSH1 0x4 MSTORE PUSH1 0x24 PUSH1 0x0 REVERT JUMPDEST DUP1 DUP3 ADD DUP1 DUP3 GT ISZERO PUSH2 0x14BD JUMPI PUSH2 0x14BD PUSH2 0x1494 JUMP JUMPDEST SWAP3 SWAP2 POP POP JUMP JUMPDEST PUSH1 0x0 PUSH1 0x20 DUP3 DUP5 SUB SLT ISZERO PUSH2 0x14D5 JUMPI PUSH1 0x0 DUP1 REVERT JUMPDEST DUP2 MLOAD DUP1 ISZERO ISZERO DUP2 EQ PUSH2 0x13C6 JUMPI PUSH1 0x0 DUP1 REVERT JUMPDEST DUP2 DUP2 SUB DUP2 DUP2 GT ISZERO PUSH2 0x14BD JUMPI PUSH2 0x14BD PUSH2 0x1494 JUMP INVALID LOG2 PUSH5 0x6970667358 0x22 SLT KECCAK256 SIGNEXTEND ADD DUP11 PUSH22 0x15D14662F35C9B2E31F9A916FDDA57963A4CE157259 SLOAD MSIZE 0xDF CALL 0x2F PUSH16 0x64736F6C634300081300330000000000 "
				},
				"gasEstimates": {
					"creation": {
						"codeDepositCost": "1084400",
						"executionCost": "infinite",
						"totalCost": "infinite"
					},
					"external": {
						"addSupportForNewToken(address,address)": "infinite",
						"bridgeContractOf(address)": "2619",
						"collectedServiceFeeExcludingGas()": "2328",
						"deposit(uint256,address,uint256,address,uint256,uint256)": "infinite",
						"executeRequest(address,uint256,uint256,uint256,uint256,uint256,uint256)": "infinite",
						"l2execGasFeeDeposit()": "2330",
						"layer1ChainId()": "2350",
						"owner()": "2420",
						"ownerDeposit()": "infinite",
						"ownerWithdraw(uint256)": "infinite",
						"pendingRequests(address,uint256)": "15567",
						"renounceOwnership()": "infinite",
						"serviceFee()": "2329",
						"setL2execGasFeeDeposit(uint256)": "infinite",
						"setserviceFee(uint256)": "infinite",
						"transferOwnership(address)": "infinite",
						"withdraw(uint256)": "infinite"
					},
					"internal": {
						"checkFeeInvariants()": "infinite",
						"isDefined(struct BridgeRequest memory)": "infinite",
						"recordCollectedServiceFeeExcludingGas()": "infinite"
					}
				},
				"methodIdentifiers": {
					"addSupportForNewToken(address,address)": "1485351e",
					"bridgeContractOf(address)": "7394e49c",
					"collectedServiceFeeExcludingGas()": "a1f66306",
					"deposit(uint256,address,uint256,address,uint256,uint256)": "8c13bc08",
					"executeRequest(address,uint256,uint256,uint256,uint256,uint256,uint256)": "d043ba19",
					"l2execGasFeeDeposit()": "242f4046",
					"layer1ChainId()": "b6502943",
					"owner()": "8da5cb5b",
					"ownerDeposit()": "7b1aa45f",
					"ownerWithdraw(uint256)": "33f707d1",
					"pendingRequests(address,uint256)": "488ff1c8",
					"renounceOwnership()": "715018a6",
					"serviceFee()": "8abdf5aa",
					"setL2execGasFeeDeposit(uint256)": "87d6161b",
					"setserviceFee(uint256)": "a191078a",
					"transferOwnership(address)": "f2fde38b",
					"withdraw(uint256)": "2e1a7d4d"
				}
			},
			"storageLayout": {
				"storage": [
					{
						"astId": 7,
						"contract": "solidity/contracts/BridgeWhenCheap.sol:BridgeWhenCheap",
						"label": "_owner",
						"offset": 0,
						"slot": "0",
						"type": "t_address"
					},
					{
						"astId": 123,
						"contract": "solidity/contracts/BridgeWhenCheap.sol:BridgeWhenCheap",
						"label": "_status",
						"offset": 0,
						"slot": "1",
						"type": "t_uint256"
					},
					{
						"astId": 296,
						"contract": "solidity/contracts/BridgeWhenCheap.sol:BridgeWhenCheap",
						"label": "l2execGasFeeDeposit",
						"offset": 0,
						"slot": "2",
						"type": "t_uint256"
					},
					{
						"astId": 298,
						"contract": "solidity/contracts/BridgeWhenCheap.sol:BridgeWhenCheap",
						"label": "serviceFee",
						"offset": 0,
						"slot": "3",
						"type": "t_uint256"
					},
					{
						"astId": 300,
						"contract": "solidity/contracts/BridgeWhenCheap.sol:BridgeWhenCheap",
						"label": "collectedServiceFeeExcludingGas",
						"offset": 0,
						"slot": "4",
						"type": "t_uint256"
					},
					{
						"astId": 307,
						"contract": "solidity/contracts/BridgeWhenCheap.sol:BridgeWhenCheap",
						"label": "pendingRequests",
						"offset": 0,
						"slot": "5",
						"type": "t_mapping(t_address,t_mapping(t_uint256,t_struct(BridgeRequest)289_storage))"
					},
					{
						"astId": 309,
						"contract": "solidity/contracts/BridgeWhenCheap.sol:BridgeWhenCheap",
						"label": "layer1ChainId",
						"offset": 0,
						"slot": "6",
						"type": "t_uint256"
					},
					{
						"astId": 314,
						"contract": "solidity/contracts/BridgeWhenCheap.sol:BridgeWhenCheap",
						"label": "bridgeContractOf",
						"offset": 0,
						"slot": "7",
						"type": "t_mapping(t_contract(IERC20)244,t_address)"
					}
				],
				"types": {
					"t_address": {
						"encoding": "inplace",
						"label": "address",
						"numberOfBytes": "20"
					},
					"t_bool": {
						"encoding": "inplace",
						"label": "bool",
						"numberOfBytes": "1"
					},
					"t_contract(IERC20)244": {
						"encoding": "inplace",
						"label": "contract IERC20",
						"numberOfBytes": "20"
					},
					"t_mapping(t_address,t_mapping(t_uint256,t_struct(BridgeRequest)289_storage))": {
						"encoding": "mapping",
						"key": "t_address",
						"label": "mapping(address => mapping(uint256 => struct BridgeRequest))",
						"numberOfBytes": "32",
						"value": "t_mapping(t_uint256,t_struct(BridgeRequest)289_storage)"
					},
					"t_mapping(t_contract(IERC20)244,t_address)": {
						"encoding": "mapping",
						"key": "t_contract(IERC20)244",
						"label": "mapping(contract IERC20 => address)",
						"numberOfBytes": "32",
						"value": "t_address"
					},
					"t_mapping(t_uint256,t_struct(BridgeRequest)289_storage)": {
						"encoding": "mapping",
						"key": "t_uint256",
						"label": "mapping(uint256 => struct BridgeRequest)",
						"numberOfBytes": "32",
						"value": "t_struct(BridgeRequest)289_storage"
					},
					"t_struct(BridgeRequest)289_storage": {
						"encoding": "inplace",
						"label": "struct BridgeRequest",
						"members": [
							{
								"astId": 273,
								"contract": "solidity/contracts/BridgeWhenCheap.sol:BridgeWhenCheap",
								"label": "source",
								"offset": 0,
								"slot": "0",
								"type": "t_address"
							},
							{
								"astId": 275,
								"contract": "solidity/contracts/BridgeWhenCheap.sol:BridgeWhenCheap",
								"label": "destination",
								"offset": 0,
								"slot": "1",
								"type": "t_address"
							},
							{
								"astId": 277,
								"contract": "solidity/contracts/BridgeWhenCheap.sol:BridgeWhenCheap",
								"label": "isTokenTransfer",
								"offset": 20,
								"slot": "1",
								"type": "t_bool"
							},
							{
								"astId": 280,
								"contract": "solidity/contracts/BridgeWhenCheap.sol:BridgeWhenCheap",
								"label": "token",
								"offset": 0,
								"slot": "2",
								"type": "t_contract(IERC20)244"
							},
							{
								"astId": 282,
								"contract": "solidity/contracts/BridgeWhenCheap.sol:BridgeWhenCheap",
								"label": "amount",
								"offset": 0,
								"slot": "3",
								"type": "t_uint256"
							},
							{
								"astId": 284,
								"contract": "solidity/contracts/BridgeWhenCheap.sol:BridgeWhenCheap",
								"label": "amountOutMin",
								"offset": 0,
								"slot": "4",
								"type": "t_uint256"
							},
							{
								"astId": 286,
								"contract": "solidity/contracts/BridgeWhenCheap.sol:BridgeWhenCheap",
								"label": "wantedL1GasPrice",
								"offset": 0,
								"slot": "5",
								"type": "t_uint256"
							},
							{
								"astId": 288,
								"contract": "solidity/contracts/BridgeWhenCheap.sol:BridgeWhenCheap",
								"label": "l2execGasFeeDeposit",
								"offset": 0,
								"slot": "6",
								"type": "t_uint256"
							}
						],
						"numberOfBytes": "224"
					},
					"t_uint256": {
						"encoding": "inplace",
						"label": "uint256",
						"numberOfBytes": "32"
					}
				}
			},
			"userdoc": {
				"kind": "user",
				"methods": {},
				"version": 1
			}
		}
	}
}