{
	"solidity/contracts/BridgewhenCheap.sol": {
		"BridgeWhenCheap": {
			"abi": [
				{
					"inputs": [
						{
							"internalType": "uint256",
							"name": "_executionGasRequirement",
							"type": "uint256"
						},
						{
							"internalType": "contract L2_AmmWrapper",
							"name": "_l2HopBridgeAmmWrapper",
							"type": "address"
						}
					],
					"stateMutability": "nonpayable",
					"type": "constructor"
				},
				{
					"anonymous": false,
					"inputs": [
						{
							"indexed": true,
							"internalType": "address",
							"name": "previousOwner",
							"type": "address"
						},
						{
							"indexed": true,
							"internalType": "address",
							"name": "newOwner",
							"type": "address"
						}
					],
					"name": "OwnershipTransferred",
					"type": "event"
				},
				{
					"inputs": [
						{
							"internalType": "address",
							"name": "destination",
							"type": "address"
						},
						{
							"internalType": "uint256",
							"name": "wantedL1GasPrice",
							"type": "uint256"
						},
						{
							"internalType": "uint256",
							"name": "amountOutMin",
							"type": "uint256"
						}
					],
					"name": "deposit",
					"outputs": [],
					"stateMutability": "payable",
					"type": "function"
				},
				{
					"inputs": [
						{
							"internalType": "address",
							"name": "requestor",
							"type": "address"
						},
						{
							"internalType": "uint256",
							"name": "bonderFee",
							"type": "uint256"
						},
						{
							"components": [
								{
									"internalType": "uint8",
									"name": "tokenIndex",
									"type": "uint8"
								},
								{
									"internalType": "uint256",
									"name": "amountOutMin",
									"type": "uint256"
								},
								{
									"internalType": "uint256",
									"name": "deadline",
									"type": "uint256"
								}
							],
							"internalType": "struct SwapData",
							"name": "swapData",
							"type": "tuple"
						},
						{
							"components": [
								{
									"internalType": "uint8",
									"name": "tokenIndex",
									"type": "uint8"
								},
								{
									"internalType": "uint256",
									"name": "amountOutMin",
									"type": "uint256"
								},
								{
									"internalType": "uint256",
									"name": "deadline",
									"type": "uint256"
								}
							],
							"internalType": "struct SwapData",
							"name": "destinationSwapData",
							"type": "tuple"
						},
						{
							"internalType": "address",
							"name": "bonder",
							"type": "address"
						}
					],
					"name": "executeRequest",
					"outputs": [],
					"stateMutability": "nonpayable",
					"type": "function"
				},
				{
					"inputs": [],
					"name": "l2HopBridgeAmmWrapper",
					"outputs": [
						{
							"internalType": "contract L2_AmmWrapper",
							"name": "",
							"type": "address"
						}
					],
					"stateMutability": "view",
					"type": "function"
				},
				{
					"inputs": [],
					"name": "owner",
					"outputs": [
						{
							"internalType": "address",
							"name": "",
							"type": "address"
						}
					],
					"stateMutability": "view",
					"type": "function"
				},
				{
					"inputs": [],
					"name": "pendingRequests",
					"outputs": [
						{
							"components": [
								{
									"internalType": "address",
									"name": "source",
									"type": "address"
								},
								{
									"internalType": "address",
									"name": "destination",
									"type": "address"
								},
								{
									"internalType": "uint256",
									"name": "amount",
									"type": "uint256"
								},
								{
									"internalType": "uint256",
									"name": "amountOutMin",
									"type": "uint256"
								},
								{
									"internalType": "uint256",
									"name": "wantedL1GasPrice",
									"type": "uint256"
								}
							],
							"internalType": "struct BridgeRequest",
							"name": "",
							"type": "tuple"
						},
						{
							"internalType": "bool",
							"name": "",
							"type": "bool"
						}
					],
					"stateMutability": "view",
					"type": "function"
				},
				{
					"inputs": [],
					"name": "renounceOwnership",
					"outputs": [],
					"stateMutability": "nonpayable",
					"type": "function"
				},
				{
					"inputs": [
						{
							"internalType": "uint256",
							"name": "amount",
							"type": "uint256"
						}
					],
					"name": "setExecutionGasRequirement",
					"outputs": [],
					"stateMutability": "nonpayable",
					"type": "function"
				},
				{
					"inputs": [
						{
							"internalType": "address",
							"name": "newOwner",
							"type": "address"
						}
					],
					"name": "transferOwnership",
					"outputs": [],
					"stateMutability": "nonpayable",
					"type": "function"
				},
				{
					"inputs": [],
					"name": "withdraw",
					"outputs": [],
					"stateMutability": "nonpayable",
					"type": "function"
				}
			],
			"devdoc": {
				"custom:security-contact": "bridge-when-cheap@gmail.com",
				"kind": "dev",
				"methods": {
					"owner()": {
						"details": "Returns the address of the current owner."
					},
					"renounceOwnership()": {
						"details": "Leaves the contract without owner. It will not be possible to call `onlyOwner` functions anymore. Can only be called by the current owner. NOTE: Renouncing ownership will leave the contract without an owner, thereby removing any functionality that is only available to the owner."
					},
					"transferOwnership(address)": {
						"details": "Transfers ownership of the contract to a new account (`newOwner`). Can only be called by the current owner."
					}
				},
				"version": 1
			},
			"evm": {
				"assembly": "    /* \"solidity/contracts/BridgewhenCheap.sol\":834:5976  contract BridgeWhenCheap is Ownable, ReentrancyGuard {... */\n  mstore(0x40, 0x80)\n    /* \"solidity/contracts/BridgewhenCheap.sol\":1614:1872  constructor(... */\n  callvalue\n  dup1\n  iszero\n  tag_1\n  jumpi\n  0x00\n  dup1\n  revert\ntag_1:\n  pop\n  mload(0x40)\n  sub(codesize, bytecodeSize)\n  dup1\n  bytecodeSize\n  dup4\n  codecopy\n  dup2\n  dup2\n  add\n  0x40\n  mstore\n  dup2\n  add\n  swap1\n  tag_2\n  swap2\n  swap1\n  tag_3\n  jump\t// in\ntag_2:\n    /* \"@openzeppelin/contracts/access/Ownable.sol\":936:968  _transferOwnership(_msgSender()) */\n  tag_8\n    /* \"@openzeppelin/contracts/access/Ownable.sol\":955:967  _msgSender() */\n  tag_9\n    /* \"@openzeppelin/contracts/access/Ownable.sol\":955:965  _msgSender */\n  shl(0x20, tag_10)\n    /* \"@openzeppelin/contracts/access/Ownable.sol\":955:967  _msgSender() */\n  0x20\n  shr\n  jump\t// in\ntag_9:\n    /* \"@openzeppelin/contracts/access/Ownable.sol\":936:954  _transferOwnership */\n  shl(0x20, tag_11)\n    /* \"@openzeppelin/contracts/access/Ownable.sol\":936:968  _transferOwnership(_msgSender()) */\n  0x20\n  shr\n  jump\t// in\ntag_8:\n    /* \"@openzeppelin/contracts/security/ReentrancyGuard.sol\":1716:1717  1 */\n  0x01\n    /* \"@openzeppelin/contracts/security/ReentrancyGuard.sol\":1821:1828  _status */\n  dup1\n    /* \"@openzeppelin/contracts/security/ReentrancyGuard.sol\":1821:1843  _status = _NOT_ENTERED */\n  dup2\n  swap1\n  sstore\n  pop\n    /* \"solidity/contracts/BridgewhenCheap.sol\":1785:1809  _executionGasRequirement */\n  dup2\n    /* \"solidity/contracts/BridgewhenCheap.sol\":1759:1782  executionGasRequirement */\n  0x02\n    /* \"solidity/contracts/BridgewhenCheap.sol\":1759:1809  executionGasRequirement = _executionGasRequirement */\n  dup2\n  swap1\n  sstore\n  pop\n    /* \"solidity/contracts/BridgewhenCheap.sol\":1843:1865  _l2HopBridgeAmmWrapper */\n  dup1\n    /* \"solidity/contracts/BridgewhenCheap.sol\":1819:1840  l2HopBridgeAmmWrapper */\n  0x03\n  0x00\n    /* \"solidity/contracts/BridgewhenCheap.sol\":1819:1865  l2HopBridgeAmmWrapper = _l2HopBridgeAmmWrapper */\n  0x0100\n  exp\n  dup2\n  sload\n  dup2\n  0xffffffffffffffffffffffffffffffffffffffff\n  mul\n  not\n  and\n  swap1\n  dup4\n  0xffffffffffffffffffffffffffffffffffffffff\n  and\n  mul\n  or\n  swap1\n  sstore\n  pop\n    /* \"solidity/contracts/BridgewhenCheap.sol\":1614:1872  constructor(... */\n  pop\n  pop\n    /* \"solidity/contracts/BridgewhenCheap.sol\":834:5976  contract BridgeWhenCheap is Ownable, ReentrancyGuard {... */\n  jump(tag_14)\n    /* \"@openzeppelin/contracts/utils/Context.sol\":640:736  function _msgSender() internal view virtual returns (address) {... */\ntag_10:\n    /* \"@openzeppelin/contracts/utils/Context.sol\":693:700  address */\n  0x00\n    /* \"@openzeppelin/contracts/utils/Context.sol\":719:729  msg.sender */\n  caller\n    /* \"@openzeppelin/contracts/utils/Context.sol\":712:729  return msg.sender */\n  swap1\n  pop\n    /* \"@openzeppelin/contracts/utils/Context.sol\":640:736  function _msgSender() internal view virtual returns (address) {... */\n  swap1\n  jump\t// out\n    /* \"@openzeppelin/contracts/access/Ownable.sol\":2433:2620  function _transferOwnership(address newOwner) internal virtual {... */\ntag_11:\n    /* \"@openzeppelin/contracts/access/Ownable.sol\":2506:2522  address oldOwner */\n  0x00\n    /* \"@openzeppelin/contracts/access/Ownable.sol\":2525:2531  _owner */\n  dup1\n  0x00\n  swap1\n  sload\n  swap1\n  0x0100\n  exp\n  swap1\n  div\n  0xffffffffffffffffffffffffffffffffffffffff\n  and\n    /* \"@openzeppelin/contracts/access/Ownable.sol\":2506:2531  address oldOwner = _owner */\n  swap1\n  pop\n    /* \"@openzeppelin/contracts/access/Ownable.sol\":2550:2558  newOwner */\n  dup2\n    /* \"@openzeppelin/contracts/access/Ownable.sol\":2541:2547  _owner */\n  0x00\n  dup1\n    /* \"@openzeppelin/contracts/access/Ownable.sol\":2541:2558  _owner = newOwner */\n  0x0100\n  exp\n  dup2\n  sload\n  dup2\n  0xffffffffffffffffffffffffffffffffffffffff\n  mul\n  not\n  and\n  swap1\n  dup4\n  0xffffffffffffffffffffffffffffffffffffffff\n  and\n  mul\n  or\n  swap1\n  sstore\n  pop\n    /* \"@openzeppelin/contracts/access/Ownable.sol\":2604:2612  newOwner */\n  dup2\n    /* \"@openzeppelin/contracts/access/Ownable.sol\":2573:2613  OwnershipTransferred(oldOwner, newOwner) */\n  0xffffffffffffffffffffffffffffffffffffffff\n  and\n    /* \"@openzeppelin/contracts/access/Ownable.sol\":2594:2602  oldOwner */\n  dup2\n    /* \"@openzeppelin/contracts/access/Ownable.sol\":2573:2613  OwnershipTransferred(oldOwner, newOwner) */\n  0xffffffffffffffffffffffffffffffffffffffff\n  and\n  0x8be0079c531659141344cd1fd0a4f28419497f9722a3daafe3b4186f6b6457e0\n  mload(0x40)\n  mload(0x40)\n  dup1\n  swap2\n  sub\n  swap1\n  log3\n    /* \"@openzeppelin/contracts/access/Ownable.sol\":2496:2620  {... */\n  pop\n    /* \"@openzeppelin/contracts/access/Ownable.sol\":2433:2620  function _transferOwnership(address newOwner) internal virtual {... */\n  pop\n  jump\t// out\n    /* \"#utility.yul\":88:205   */\ntag_18:\n    /* \"#utility.yul\":197:198   */\n  0x00\n    /* \"#utility.yul\":194:195   */\n  dup1\n    /* \"#utility.yul\":187:199   */\n  revert\n    /* \"#utility.yul\":334:411   */\ntag_20:\n    /* \"#utility.yul\":371:378   */\n  0x00\n    /* \"#utility.yul\":400:405   */\n  dup2\n    /* \"#utility.yul\":389:405   */\n  swap1\n  pop\n    /* \"#utility.yul\":334:411   */\n  swap2\n  swap1\n  pop\n  jump\t// out\n    /* \"#utility.yul\":417:539   */\ntag_21:\n    /* \"#utility.yul\":490:514   */\n  tag_34\n    /* \"#utility.yul\":508:513   */\n  dup2\n    /* \"#utility.yul\":490:514   */\n  tag_20\n  jump\t// in\ntag_34:\n    /* \"#utility.yul\":483:488   */\n  dup2\n    /* \"#utility.yul\":480:515   */\n  eq\n    /* \"#utility.yul\":470:533   */\n  tag_35\n  jumpi\n    /* \"#utility.yul\":529:530   */\n  0x00\n    /* \"#utility.yul\":526:527   */\n  dup1\n    /* \"#utility.yul\":519:531   */\n  revert\n    /* \"#utility.yul\":470:533   */\ntag_35:\n    /* \"#utility.yul\":417:539   */\n  pop\n  jump\t// out\n    /* \"#utility.yul\":545:688   */\ntag_22:\n    /* \"#utility.yul\":602:607   */\n  0x00\n    /* \"#utility.yul\":633:639   */\n  dup2\n    /* \"#utility.yul\":627:640   */\n  mload\n    /* \"#utility.yul\":618:640   */\n  swap1\n  pop\n    /* \"#utility.yul\":649:682   */\n  tag_37\n    /* \"#utility.yul\":676:681   */\n  dup2\n    /* \"#utility.yul\":649:682   */\n  tag_21\n  jump\t// in\ntag_37:\n    /* \"#utility.yul\":545:688   */\n  swap3\n  swap2\n  pop\n  pop\n  jump\t// out\n    /* \"#utility.yul\":694:820   */\ntag_23:\n    /* \"#utility.yul\":731:738   */\n  0x00\n    /* \"#utility.yul\":771:813   */\n  0xffffffffffffffffffffffffffffffffffffffff\n    /* \"#utility.yul\":764:769   */\n  dup3\n    /* \"#utility.yul\":760:814   */\n  and\n    /* \"#utility.yul\":749:814   */\n  swap1\n  pop\n    /* \"#utility.yul\":694:820   */\n  swap2\n  swap1\n  pop\n  jump\t// out\n    /* \"#utility.yul\":826:922   */\ntag_24:\n    /* \"#utility.yul\":863:870   */\n  0x00\n    /* \"#utility.yul\":892:916   */\n  tag_40\n    /* \"#utility.yul\":910:915   */\n  dup3\n    /* \"#utility.yul\":892:916   */\n  tag_23\n  jump\t// in\ntag_40:\n    /* \"#utility.yul\":881:916   */\n  swap1\n  pop\n    /* \"#utility.yul\":826:922   */\n  swap2\n  swap1\n  pop\n  jump\t// out\n    /* \"#utility.yul\":928:1045   */\ntag_25:\n    /* \"#utility.yul\":986:993   */\n  0x00\n    /* \"#utility.yul\":1015:1039   */\n  tag_42\n    /* \"#utility.yul\":1033:1038   */\n  dup3\n    /* \"#utility.yul\":1015:1039   */\n  tag_24\n  jump\t// in\ntag_42:\n    /* \"#utility.yul\":1004:1039   */\n  swap1\n  pop\n    /* \"#utility.yul\":928:1045   */\n  swap2\n  swap1\n  pop\n  jump\t// out\n    /* \"#utility.yul\":1051:1215   */\ntag_26:\n    /* \"#utility.yul\":1145:1190   */\n  tag_44\n    /* \"#utility.yul\":1184:1189   */\n  dup2\n    /* \"#utility.yul\":1145:1190   */\n  tag_25\n  jump\t// in\ntag_44:\n    /* \"#utility.yul\":1138:1143   */\n  dup2\n    /* \"#utility.yul\":1135:1191   */\n  eq\n    /* \"#utility.yul\":1125:1209   */\n  tag_45\n  jumpi\n    /* \"#utility.yul\":1205:1206   */\n  0x00\n    /* \"#utility.yul\":1202:1203   */\n  dup1\n    /* \"#utility.yul\":1195:1207   */\n  revert\n    /* \"#utility.yul\":1125:1209   */\ntag_45:\n    /* \"#utility.yul\":1051:1215   */\n  pop\n  jump\t// out\n    /* \"#utility.yul\":1221:1406   */\ntag_27:\n    /* \"#utility.yul\":1299:1304   */\n  0x00\n    /* \"#utility.yul\":1330:1336   */\n  dup2\n    /* \"#utility.yul\":1324:1337   */\n  mload\n    /* \"#utility.yul\":1315:1337   */\n  swap1\n  pop\n    /* \"#utility.yul\":1346:1400   */\n  tag_47\n    /* \"#utility.yul\":1394:1399   */\n  dup2\n    /* \"#utility.yul\":1346:1400   */\n  tag_26\n  jump\t// in\ntag_47:\n    /* \"#utility.yul\":1221:1406   */\n  swap3\n  swap2\n  pop\n  pop\n  jump\t// out\n    /* \"#utility.yul\":1412:1961   */\ntag_3:\n    /* \"#utility.yul\":1512:1518   */\n  0x00\n    /* \"#utility.yul\":1520:1526   */\n  dup1\n    /* \"#utility.yul\":1569:1571   */\n  0x40\n    /* \"#utility.yul\":1557:1566   */\n  dup4\n    /* \"#utility.yul\":1548:1555   */\n  dup6\n    /* \"#utility.yul\":1544:1567   */\n  sub\n    /* \"#utility.yul\":1540:1572   */\n  slt\n    /* \"#utility.yul\":1537:1656   */\n  iszero\n  tag_49\n  jumpi\n    /* \"#utility.yul\":1575:1654   */\n  tag_50\n  tag_18\n  jump\t// in\ntag_50:\n    /* \"#utility.yul\":1537:1656   */\ntag_49:\n    /* \"#utility.yul\":1695:1696   */\n  0x00\n    /* \"#utility.yul\":1720:1784   */\n  tag_51\n    /* \"#utility.yul\":1776:1783   */\n  dup6\n    /* \"#utility.yul\":1767:1773   */\n  dup3\n    /* \"#utility.yul\":1756:1765   */\n  dup7\n    /* \"#utility.yul\":1752:1774   */\n  add\n    /* \"#utility.yul\":1720:1784   */\n  tag_22\n  jump\t// in\ntag_51:\n    /* \"#utility.yul\":1710:1784   */\n  swap3\n  pop\n    /* \"#utility.yul\":1666:1794   */\n  pop\n    /* \"#utility.yul\":1833:1835   */\n  0x20\n    /* \"#utility.yul\":1859:1944   */\n  tag_52\n    /* \"#utility.yul\":1936:1943   */\n  dup6\n    /* \"#utility.yul\":1927:1933   */\n  dup3\n    /* \"#utility.yul\":1916:1925   */\n  dup7\n    /* \"#utility.yul\":1912:1934   */\n  add\n    /* \"#utility.yul\":1859:1944   */\n  tag_27\n  jump\t// in\ntag_52:\n    /* \"#utility.yul\":1849:1944   */\n  swap2\n  pop\n    /* \"#utility.yul\":1804:1954   */\n  pop\n    /* \"#utility.yul\":1412:1961   */\n  swap3\n  pop\n  swap3\n  swap1\n  pop\n  jump\t// out\n    /* \"solidity/contracts/BridgewhenCheap.sol\":834:5976  contract BridgeWhenCheap is Ownable, ReentrancyGuard {... */\ntag_14:\n  dataSize(sub_0)\n  dup1\n  dataOffset(sub_0)\n  0x00\n  codecopy\n  0x00\n  return\nstop\n\nsub_0: assembly {\n        /* \"solidity/contracts/BridgewhenCheap.sol\":834:5976  contract BridgeWhenCheap is Ownable, ReentrancyGuard {... */\n      mstore(0x40, 0x80)\n      jumpi(tag_1, lt(calldatasize, 0x04))\n      shr(0xe0, calldataload(0x00))\n      dup1\n      0x4a0aee29\n      gt\n      tag_11\n      jumpi\n      dup1\n      0x4a0aee29\n      eq\n      tag_6\n      jumpi\n      dup1\n      0x54caef7d\n      eq\n      tag_7\n      jumpi\n      dup1\n      0x715018a6\n      eq\n      tag_8\n      jumpi\n      dup1\n      0x8da5cb5b\n      eq\n      tag_9\n      jumpi\n      dup1\n      0xf2fde38b\n      eq\n      tag_10\n      jumpi\n      jump(tag_1)\n    tag_11:\n      dup1\n      0x0e48b88a\n      eq\n      tag_2\n      jumpi\n      dup1\n      0x0efe6a8b\n      eq\n      tag_3\n      jumpi\n      dup1\n      0x25608185\n      eq\n      tag_4\n      jumpi\n      dup1\n      0x3ccfd60b\n      eq\n      tag_5\n      jumpi\n    tag_1:\n      0x00\n      dup1\n      revert\n        /* \"solidity/contracts/BridgewhenCheap.sol\":4350:5501  function executeRequest(... */\n    tag_2:\n      callvalue\n      dup1\n      iszero\n      tag_12\n      jumpi\n      0x00\n      dup1\n      revert\n    tag_12:\n      pop\n      tag_13\n      0x04\n      dup1\n      calldatasize\n      sub\n      dup2\n      add\n      swap1\n      tag_14\n      swap2\n      swap1\n      tag_15\n      jump\t// in\n    tag_14:\n      tag_16\n      jump\t// in\n    tag_13:\n      stop\n        /* \"solidity/contracts/BridgewhenCheap.sol\":2457:3607  function deposit(... */\n    tag_3:\n      tag_17\n      0x04\n      dup1\n      calldatasize\n      sub\n      dup2\n      add\n      swap1\n      tag_18\n      swap2\n      swap1\n      tag_19\n      jump\t// in\n    tag_18:\n      tag_20\n      jump\t// in\n    tag_17:\n      stop\n        /* \"solidity/contracts/BridgewhenCheap.sol\":1185:1227  L2_AmmWrapper public l2HopBridgeAmmWrapper */\n    tag_4:\n      callvalue\n      dup1\n      iszero\n      tag_21\n      jumpi\n      0x00\n      dup1\n      revert\n    tag_21:\n      pop\n      tag_22\n      tag_23\n      jump\t// in\n    tag_22:\n      mload(0x40)\n      tag_24\n      swap2\n      swap1\n      tag_25\n      jump\t// in\n    tag_24:\n      mload(0x40)\n      dup1\n      swap2\n      sub\n      swap1\n      return\n        /* \"solidity/contracts/BridgewhenCheap.sol\":3663:4177  function withdraw() public nonReentrant {... */\n    tag_5:\n      callvalue\n      dup1\n      iszero\n      tag_26\n      jumpi\n      0x00\n      dup1\n      revert\n    tag_26:\n      pop\n      tag_27\n      tag_28\n      jump\t// in\n    tag_27:\n      stop\n        /* \"solidity/contracts/BridgewhenCheap.sol\":1935:2177  function pendingRequests()... */\n    tag_6:\n      callvalue\n      dup1\n      iszero\n      tag_29\n      jumpi\n      0x00\n      dup1\n      revert\n    tag_29:\n      pop\n      tag_30\n      tag_31\n      jump\t// in\n    tag_30:\n      mload(0x40)\n      tag_32\n      swap3\n      swap2\n      swap1\n      tag_33\n      jump\t// in\n    tag_32:\n      mload(0x40)\n      dup1\n      swap2\n      sub\n      swap1\n      return\n        /* \"solidity/contracts/BridgewhenCheap.sol\":5624:5742  function setExecutionGasRequirement(uint256 amount) public onlyOwner {... */\n    tag_7:\n      callvalue\n      dup1\n      iszero\n      tag_34\n      jumpi\n      0x00\n      dup1\n      revert\n    tag_34:\n      pop\n      tag_35\n      0x04\n      dup1\n      calldatasize\n      sub\n      dup2\n      add\n      swap1\n      tag_36\n      swap2\n      swap1\n      tag_37\n      jump\t// in\n    tag_36:\n      tag_38\n      jump\t// in\n    tag_35:\n      stop\n        /* \"@openzeppelin/contracts/access/Ownable.sol\":1831:1932  function renounceOwnership() public virtual onlyOwner {... */\n    tag_8:\n      callvalue\n      dup1\n      iszero\n      tag_39\n      jumpi\n      0x00\n      dup1\n      revert\n    tag_39:\n      pop\n      tag_40\n      tag_41\n      jump\t// in\n    tag_40:\n      stop\n        /* \"@openzeppelin/contracts/access/Ownable.sol\":1201:1286  function owner() public view virtual returns (address) {... */\n    tag_9:\n      callvalue\n      dup1\n      iszero\n      tag_42\n      jumpi\n      0x00\n      dup1\n      revert\n    tag_42:\n      pop\n      tag_43\n      tag_44\n      jump\t// in\n    tag_43:\n      mload(0x40)\n      tag_45\n      swap2\n      swap1\n      tag_46\n      jump\t// in\n    tag_45:\n      mload(0x40)\n      dup1\n      swap2\n      sub\n      swap1\n      return\n        /* \"@openzeppelin/contracts/access/Ownable.sol\":2081:2279  function transferOwnership(address newOwner) public virtual onlyOwner {... */\n    tag_10:\n      callvalue\n      dup1\n      iszero\n      tag_47\n      jumpi\n      0x00\n      dup1\n      revert\n    tag_47:\n      pop\n      tag_48\n      0x04\n      dup1\n      calldatasize\n      sub\n      dup2\n      add\n      swap1\n      tag_49\n      swap2\n      swap1\n      tag_50\n      jump\t// in\n    tag_49:\n      tag_51\n      jump\t// in\n    tag_48:\n      stop\n        /* \"solidity/contracts/BridgewhenCheap.sol\":4350:5501  function executeRequest(... */\n    tag_16:\n        /* \"@openzeppelin/contracts/access/Ownable.sol\":1094:1107  _checkOwner() */\n      tag_53\n        /* \"@openzeppelin/contracts/access/Ownable.sol\":1094:1105  _checkOwner */\n      tag_54\n        /* \"@openzeppelin/contracts/access/Ownable.sol\":1094:1107  _checkOwner() */\n      jump\t// in\n    tag_53:\n        /* \"@openzeppelin/contracts/security/ReentrancyGuard.sol\":2261:2282  _nonReentrantBefore() */\n      tag_56\n        /* \"@openzeppelin/contracts/security/ReentrancyGuard.sol\":2261:2280  _nonReentrantBefore */\n      tag_57\n        /* \"@openzeppelin/contracts/security/ReentrancyGuard.sol\":2261:2282  _nonReentrantBefore() */\n      jump\t// in\n    tag_56:\n        /* \"solidity/contracts/BridgewhenCheap.sol\":4708:4747  BridgeRequest memory toBeBridgedRequest */\n      0x00\n        /* \"solidity/contracts/BridgewhenCheap.sol\":4750:4758  requests */\n      0x04\n        /* \"solidity/contracts/BridgewhenCheap.sol\":4750:4769  requests[requestor] */\n      0x00\n        /* \"solidity/contracts/BridgewhenCheap.sol\":4759:4768  requestor */\n      dup8\n        /* \"solidity/contracts/BridgewhenCheap.sol\":4750:4769  requests[requestor] */\n      0xffffffffffffffffffffffffffffffffffffffff\n      and\n      0xffffffffffffffffffffffffffffffffffffffff\n      and\n      dup2\n      mstore\n      0x20\n      add\n      swap1\n      dup2\n      mstore\n      0x20\n      add\n      0x00\n      keccak256\n        /* \"solidity/contracts/BridgewhenCheap.sol\":4708:4769  BridgeRequest memory toBeBridgedRequest = requests[requestor] */\n      mload(0x40)\n      dup1\n      0xa0\n      add\n      0x40\n      mstore\n      swap1\n      dup2\n      0x00\n      dup3\n      add\n      0x00\n      swap1\n      sload\n      swap1\n      0x0100\n      exp\n      swap1\n      div\n      0xffffffffffffffffffffffffffffffffffffffff\n      and\n      0xffffffffffffffffffffffffffffffffffffffff\n      and\n      0xffffffffffffffffffffffffffffffffffffffff\n      and\n      dup2\n      mstore\n      0x20\n      add\n      0x01\n      dup3\n      add\n      0x00\n      swap1\n      sload\n      swap1\n      0x0100\n      exp\n      swap1\n      div\n      0xffffffffffffffffffffffffffffffffffffffff\n      and\n      0xffffffffffffffffffffffffffffffffffffffff\n      and\n      0xffffffffffffffffffffffffffffffffffffffff\n      and\n      dup2\n      mstore\n      0x20\n      add\n      0x02\n      dup3\n      add\n      sload\n      dup2\n      mstore\n      0x20\n      add\n      0x03\n      dup3\n      add\n      sload\n      dup2\n      mstore\n      0x20\n      add\n      0x04\n      dup3\n      add\n      sload\n      dup2\n      mstore\n      pop\n      pop\n      swap1\n      pop\n        /* \"solidity/contracts/BridgewhenCheap.sol\":4787:4816  isDefined(toBeBridgedRequest) */\n      tag_59\n        /* \"solidity/contracts/BridgewhenCheap.sol\":4797:4815  toBeBridgedRequest */\n      dup2\n        /* \"solidity/contracts/BridgewhenCheap.sol\":4787:4796  isDefined */\n      tag_60\n        /* \"solidity/contracts/BridgewhenCheap.sol\":4787:4816  isDefined(toBeBridgedRequest) */\n      jump\t// in\n    tag_59:\n        /* \"solidity/contracts/BridgewhenCheap.sol\":4779:4842  require(isDefined(toBeBridgedRequest), \"No request to process\") */\n      tag_61\n      jumpi\n      mload(0x40)\n      0x08c379a000000000000000000000000000000000000000000000000000000000\n      dup2\n      mstore\n      0x04\n      add\n      tag_62\n      swap1\n      tag_63\n      jump\t// in\n    tag_62:\n      mload(0x40)\n      dup1\n      swap2\n      sub\n      swap1\n      revert\n    tag_61:\n        /* \"solidity/contracts/BridgewhenCheap.sol\":4902:4911  bonderFee */\n      dup5\n        /* \"solidity/contracts/BridgewhenCheap.sol\":4873:4891  toBeBridgedRequest */\n      dup2\n        /* \"solidity/contracts/BridgewhenCheap.sol\":4873:4898  toBeBridgedRequest.amount */\n      0x40\n      add\n      mload\n        /* \"solidity/contracts/BridgewhenCheap.sol\":4873:4911  toBeBridgedRequest.amount >= bonderFee */\n      lt\n      iszero\n        /* \"solidity/contracts/BridgewhenCheap.sol\":4852:4969  require(... */\n      tag_64\n      jumpi\n      mload(0x40)\n      0x08c379a000000000000000000000000000000000000000000000000000000000\n      dup2\n      mstore\n      0x04\n      add\n      tag_65\n      swap1\n      tag_66\n      jump\t// in\n    tag_65:\n      mload(0x40)\n      dup1\n      swap2\n      sub\n      swap1\n      revert\n    tag_64:\n        /* \"solidity/contracts/BridgewhenCheap.sol\":4987:4995  requests */\n      0x04\n        /* \"solidity/contracts/BridgewhenCheap.sol\":4987:5006  requests[requestor] */\n      0x00\n        /* \"solidity/contracts/BridgewhenCheap.sol\":4996:5005  requestor */\n      dup8\n        /* \"solidity/contracts/BridgewhenCheap.sol\":4987:5006  requests[requestor] */\n      0xffffffffffffffffffffffffffffffffffffffff\n      and\n      0xffffffffffffffffffffffffffffffffffffffff\n      and\n      dup2\n      mstore\n      0x20\n      add\n      swap1\n      dup2\n      mstore\n      0x20\n      add\n      0x00\n      keccak256\n      0x00\n        /* \"solidity/contracts/BridgewhenCheap.sol\":4980:5006  delete requests[requestor] */\n      dup1\n      dup3\n      add\n      exp(0x0100, 0x00)\n      dup2\n      sload\n      swap1\n      0xffffffffffffffffffffffffffffffffffffffff\n      mul\n      not\n      and\n      swap1\n      sstore\n      0x01\n      dup3\n      add\n      exp(0x0100, 0x00)\n      dup2\n      sload\n      swap1\n      0xffffffffffffffffffffffffffffffffffffffff\n      mul\n      not\n      and\n      swap1\n      sstore\n      0x02\n      dup3\n      add\n      0x00\n      swap1\n      sstore\n      0x03\n      dup3\n      add\n      0x00\n      swap1\n      sstore\n      0x04\n      dup3\n      add\n      0x00\n      swap1\n      sstore\n      pop\n      pop\n        /* \"solidity/contracts/BridgewhenCheap.sol\":5059:5071  bool success */\n      0x00\n        /* \"solidity/contracts/BridgewhenCheap.sol\":5082:5092  msg.sender */\n      caller\n        /* \"solidity/contracts/BridgewhenCheap.sol\":5074:5098  payable(msg.sender).send */\n      0xffffffffffffffffffffffffffffffffffffffff\n      and\n        /* \"solidity/contracts/BridgewhenCheap.sol\":5074:5123  payable(msg.sender).send(executionGasRequirement) */\n      0x08fc\n        /* \"solidity/contracts/BridgewhenCheap.sol\":5099:5122  executionGasRequirement */\n      sload(0x02)\n        /* \"solidity/contracts/BridgewhenCheap.sol\":5074:5123  payable(msg.sender).send(executionGasRequirement) */\n      swap1\n      dup2\n      iszero\n      mul\n      swap1\n      mload(0x40)\n      0x00\n      mload(0x40)\n      dup1\n      dup4\n      sub\n      dup2\n      dup6\n      dup9\n      dup9\n      call\n      swap4\n      pop\n      pop\n      pop\n      pop\n        /* \"solidity/contracts/BridgewhenCheap.sol\":5059:5123  bool success = payable(msg.sender).send(executionGasRequirement) */\n      swap1\n      pop\n        /* \"solidity/contracts/BridgewhenCheap.sol\":5141:5148  success */\n      dup1\n        /* \"solidity/contracts/BridgewhenCheap.sol\":5133:5178  require(success, \"Failed to refund executor\") */\n      tag_68\n      jumpi\n      mload(0x40)\n      0x08c379a000000000000000000000000000000000000000000000000000000000\n      dup2\n      mstore\n      0x04\n      add\n      tag_69\n      swap1\n      tag_70\n      jump\t// in\n    tag_69:\n      mload(0x40)\n      dup1\n      swap2\n      sub\n      swap1\n      revert\n    tag_68:\n        /* \"solidity/contracts/BridgewhenCheap.sol\":5189:5210  l2HopBridgeAmmWrapper */\n      0x03\n      0x00\n      swap1\n      sload\n      swap1\n      0x0100\n      exp\n      swap1\n      div\n      0xffffffffffffffffffffffffffffffffffffffff\n      and\n        /* \"solidity/contracts/BridgewhenCheap.sol\":5189:5222  l2HopBridgeAmmWrapper.swapAndSend */\n      0xffffffffffffffffffffffffffffffffffffffff\n      and\n      0x38e981aa\n        /* \"solidity/contracts/BridgewhenCheap.sol\":5231:5249  toBeBridgedRequest */\n      dup4\n        /* \"solidity/contracts/BridgewhenCheap.sol\":5231:5256  toBeBridgedRequest.amount */\n      0x40\n      add\n      mload\n        /* \"solidity/contracts/BridgewhenCheap.sol\":5272:5273  1 */\n      0x01\n        /* \"solidity/contracts/BridgewhenCheap.sol\":5317:5335  toBeBridgedRequest */\n      dup6\n        /* \"solidity/contracts/BridgewhenCheap.sol\":5317:5347  toBeBridgedRequest.destination */\n      0x20\n      add\n      mload\n        /* \"solidity/contracts/BridgewhenCheap.sol\":5361:5379  toBeBridgedRequest */\n      dup7\n        /* \"solidity/contracts/BridgewhenCheap.sol\":5361:5386  toBeBridgedRequest.amount */\n      0x40\n      add\n      mload\n        /* \"solidity/contracts/BridgewhenCheap.sol\":5400:5409  bonderFee */\n      dup12\n        /* \"solidity/contracts/BridgewhenCheap.sol\":5423:5431  swapData */\n      dup12\n        /* \"solidity/contracts/BridgewhenCheap.sol\":5445:5464  destinationSwapData */\n      dup12\n        /* \"solidity/contracts/BridgewhenCheap.sol\":5478:5484  bonder */\n      dup12\n        /* \"solidity/contracts/BridgewhenCheap.sol\":5189:5494  l2HopBridgeAmmWrapper.swapAndSend{ value: toBeBridgedRequest.amount }(... */\n      mload(0x40)\n      dup10\n      0xffffffff\n      and\n      0xe0\n      shl\n      dup2\n      mstore\n      0x04\n      add\n      tag_71\n      swap8\n      swap7\n      swap6\n      swap5\n      swap4\n      swap3\n      swap2\n      swap1\n      tag_72\n      jump\t// in\n    tag_71:\n      0x00\n      mload(0x40)\n      dup1\n      dup4\n      sub\n      dup2\n      dup6\n      dup9\n      dup1\n      extcodesize\n      iszero\n      dup1\n      iszero\n      tag_73\n      jumpi\n      0x00\n      dup1\n      revert\n    tag_73:\n      pop\n      gas\n      call\n      iszero\n      dup1\n      iszero\n      tag_75\n      jumpi\n      returndatasize\n      0x00\n      dup1\n      returndatacopy\n      revert(0x00, returndatasize)\n    tag_75:\n      pop\n      pop\n      pop\n      pop\n      pop\n        /* \"solidity/contracts/BridgewhenCheap.sol\":4698:5501  {... */\n      pop\n      pop\n        /* \"@openzeppelin/contracts/security/ReentrancyGuard.sol\":2303:2323  _nonReentrantAfter() */\n      tag_76\n        /* \"@openzeppelin/contracts/security/ReentrancyGuard.sol\":2303:2321  _nonReentrantAfter */\n      tag_77\n        /* \"@openzeppelin/contracts/security/ReentrancyGuard.sol\":2303:2323  _nonReentrantAfter() */\n      jump\t// in\n    tag_76:\n        /* \"solidity/contracts/BridgewhenCheap.sol\":4350:5501  function executeRequest(... */\n      pop\n      pop\n      pop\n      pop\n      pop\n      jump\t// out\n        /* \"solidity/contracts/BridgewhenCheap.sol\":2457:3607  function deposit(... */\n    tag_20:\n        /* \"solidity/contracts/BridgewhenCheap.sol\":2628:2629  0 */\n      0x00\n        /* \"solidity/contracts/BridgewhenCheap.sol\":2606:2630  msg.sender != address(0) */\n      0xffffffffffffffffffffffffffffffffffffffff\n      and\n        /* \"solidity/contracts/BridgewhenCheap.sol\":2606:2616  msg.sender */\n      caller\n        /* \"solidity/contracts/BridgewhenCheap.sol\":2606:2630  msg.sender != address(0) */\n      0xffffffffffffffffffffffffffffffffffffffff\n      and\n      sub\n        /* \"solidity/contracts/BridgewhenCheap.sol\":2598:2662  require(msg.sender != address(0), \"Sender may not be 0 address\") */\n      tag_79\n      jumpi\n      mload(0x40)\n      0x08c379a000000000000000000000000000000000000000000000000000000000\n      dup2\n      mstore\n      0x04\n      add\n      tag_80\n      swap1\n      tag_81\n      jump\t// in\n    tag_80:\n      mload(0x40)\n      dup1\n      swap2\n      sub\n      swap1\n      revert\n    tag_79:\n        /* \"solidity/contracts/BridgewhenCheap.sol\":2716:2717  0 */\n      0x00\n        /* \"solidity/contracts/BridgewhenCheap.sol\":2693:2718  destination != address(0) */\n      0xffffffffffffffffffffffffffffffffffffffff\n      and\n        /* \"solidity/contracts/BridgewhenCheap.sol\":2693:2704  destination */\n      dup4\n        /* \"solidity/contracts/BridgewhenCheap.sol\":2693:2718  destination != address(0) */\n      0xffffffffffffffffffffffffffffffffffffffff\n      and\n      sub\n        /* \"solidity/contracts/BridgewhenCheap.sol\":2672:2784  require(... */\n      tag_82\n      jumpi\n      mload(0x40)\n      0x08c379a000000000000000000000000000000000000000000000000000000000\n      dup2\n      mstore\n      0x04\n      add\n      tag_83\n      swap1\n      tag_84\n      jump\t// in\n    tag_83:\n      mload(0x40)\n      dup1\n      swap2\n      sub\n      swap1\n      revert\n    tag_82:\n        /* \"solidity/contracts/BridgewhenCheap.sol\":2834:2835  0 */\n      0x00\n        /* \"solidity/contracts/BridgewhenCheap.sol\":2815:2831  wantedL1GasPrice */\n      dup3\n        /* \"solidity/contracts/BridgewhenCheap.sol\":2815:2835  wantedL1GasPrice > 0 */\n      gt\n        /* \"solidity/contracts/BridgewhenCheap.sol\":2794:2906  require(... */\n      tag_85\n      jumpi\n      mload(0x40)\n      0x08c379a000000000000000000000000000000000000000000000000000000000\n      dup2\n      mstore\n      0x04\n      add\n      tag_86\n      swap1\n      tag_87\n      jump\t// in\n    tag_86:\n      mload(0x40)\n      dup1\n      swap2\n      sub\n      swap1\n      revert\n    tag_85:\n        /* \"solidity/contracts/BridgewhenCheap.sol\":2950:2973  executionGasRequirement */\n      sload(0x02)\n        /* \"solidity/contracts/BridgewhenCheap.sol\":2937:2946  msg.value */\n      callvalue\n        /* \"solidity/contracts/BridgewhenCheap.sol\":2937:2973  msg.value >= executionGasRequirement */\n      lt\n      iszero\n        /* \"solidity/contracts/BridgewhenCheap.sol\":2916:3044  require(... */\n      tag_88\n      jumpi\n      mload(0x40)\n      0x08c379a000000000000000000000000000000000000000000000000000000000\n      dup2\n      mstore\n      0x04\n      add\n      tag_89\n      swap1\n      tag_90\n      jump\t// in\n    tag_89:\n      mload(0x40)\n      dup1\n      swap2\n      sub\n      swap1\n      revert\n    tag_88:\n        /* \"solidity/contracts/BridgewhenCheap.sol\":3055:3073  uint256 sentAmount */\n      0x00\n        /* \"solidity/contracts/BridgewhenCheap.sol\":3088:3111  executionGasRequirement */\n      sload(0x02)\n        /* \"solidity/contracts/BridgewhenCheap.sol\":3076:3085  msg.value */\n      callvalue\n        /* \"solidity/contracts/BridgewhenCheap.sol\":3076:3111  msg.value - executionGasRequirement */\n      tag_91\n      swap2\n      swap1\n      tag_92\n      jump\t// in\n    tag_91:\n        /* \"solidity/contracts/BridgewhenCheap.sol\":3055:3111  uint256 sentAmount = msg.value - executionGasRequirement */\n      swap1\n      pop\n        /* \"solidity/contracts/BridgewhenCheap.sol\":3218:3230  amountOutMin */\n      dup2\n        /* \"solidity/contracts/BridgewhenCheap.sol\":3204:3214  sentAmount */\n      dup2\n        /* \"solidity/contracts/BridgewhenCheap.sol\":3204:3230  sentAmount >= amountOutMin */\n      lt\n      iszero\n        /* \"solidity/contracts/BridgewhenCheap.sol\":3183:3351  require(... */\n      tag_93\n      jumpi\n      mload(0x40)\n      0x08c379a000000000000000000000000000000000000000000000000000000000\n      dup2\n      mstore\n      0x04\n      add\n      tag_94\n      swap1\n      tag_95\n      jump\t// in\n    tag_94:\n      mload(0x40)\n      dup1\n      swap2\n      sub\n      swap1\n      revert\n    tag_93:\n        /* \"solidity/contracts/BridgewhenCheap.sol\":3385:3600  BridgeRequest({... */\n      mload(0x40)\n      dup1\n      0xa0\n      add\n      0x40\n      mstore\n      dup1\n        /* \"solidity/contracts/BridgewhenCheap.sol\":3421:3431  msg.sender */\n      caller\n        /* \"solidity/contracts/BridgewhenCheap.sol\":3385:3600  BridgeRequest({... */\n      0xffffffffffffffffffffffffffffffffffffffff\n      and\n      dup2\n      mstore\n      0x20\n      add\n        /* \"solidity/contracts/BridgewhenCheap.sol\":3458:3469  destination */\n      dup6\n        /* \"solidity/contracts/BridgewhenCheap.sol\":3385:3600  BridgeRequest({... */\n      0xffffffffffffffffffffffffffffffffffffffff\n      and\n      dup2\n      mstore\n      0x20\n      add\n        /* \"solidity/contracts/BridgewhenCheap.sol\":3491:3501  sentAmount */\n      dup3\n        /* \"solidity/contracts/BridgewhenCheap.sol\":3385:3600  BridgeRequest({... */\n      dup2\n      mstore\n      0x20\n      add\n        /* \"solidity/contracts/BridgewhenCheap.sol\":3529:3541  amountOutMin */\n      dup4\n        /* \"solidity/contracts/BridgewhenCheap.sol\":3385:3600  BridgeRequest({... */\n      dup2\n      mstore\n      0x20\n      add\n        /* \"solidity/contracts/BridgewhenCheap.sol\":3573:3589  wantedL1GasPrice */\n      dup5\n        /* \"solidity/contracts/BridgewhenCheap.sol\":3385:3600  BridgeRequest({... */\n      dup2\n      mstore\n      pop\n        /* \"solidity/contracts/BridgewhenCheap.sol\":3362:3370  requests */\n      0x04\n        /* \"solidity/contracts/BridgewhenCheap.sol\":3362:3382  requests[msg.sender] */\n      0x00\n        /* \"solidity/contracts/BridgewhenCheap.sol\":3371:3381  msg.sender */\n      caller\n        /* \"solidity/contracts/BridgewhenCheap.sol\":3362:3382  requests[msg.sender] */\n      0xffffffffffffffffffffffffffffffffffffffff\n      and\n      0xffffffffffffffffffffffffffffffffffffffff\n      and\n      dup2\n      mstore\n      0x20\n      add\n      swap1\n      dup2\n      mstore\n      0x20\n      add\n      0x00\n      keccak256\n        /* \"solidity/contracts/BridgewhenCheap.sol\":3362:3600  requests[msg.sender] = BridgeRequest({... */\n      0x00\n      dup3\n      add\n      mload\n      dup2\n      0x00\n      add\n      exp(0x0100, 0x00)\n      dup2\n      sload\n      dup2\n      0xffffffffffffffffffffffffffffffffffffffff\n      mul\n      not\n      and\n      swap1\n      dup4\n      0xffffffffffffffffffffffffffffffffffffffff\n      and\n      mul\n      or\n      swap1\n      sstore\n      pop\n      0x20\n      dup3\n      add\n      mload\n      dup2\n      0x01\n      add\n      exp(0x0100, 0x00)\n      dup2\n      sload\n      dup2\n      0xffffffffffffffffffffffffffffffffffffffff\n      mul\n      not\n      and\n      swap1\n      dup4\n      0xffffffffffffffffffffffffffffffffffffffff\n      and\n      mul\n      or\n      swap1\n      sstore\n      pop\n      0x40\n      dup3\n      add\n      mload\n      dup2\n      0x02\n      add\n      sstore\n      0x60\n      dup3\n      add\n      mload\n      dup2\n      0x03\n      add\n      sstore\n      0x80\n      dup3\n      add\n      mload\n      dup2\n      0x04\n      add\n      sstore\n      swap1\n      pop\n      pop\n        /* \"solidity/contracts/BridgewhenCheap.sol\":2588:3607  {... */\n      pop\n        /* \"solidity/contracts/BridgewhenCheap.sol\":2457:3607  function deposit(... */\n      pop\n      pop\n      pop\n      jump\t// out\n        /* \"solidity/contracts/BridgewhenCheap.sol\":1185:1227  L2_AmmWrapper public l2HopBridgeAmmWrapper */\n    tag_23:\n      0x03\n      0x00\n      swap1\n      sload\n      swap1\n      0x0100\n      exp\n      swap1\n      div\n      0xffffffffffffffffffffffffffffffffffffffff\n      and\n      dup2\n      jump\t// out\n        /* \"solidity/contracts/BridgewhenCheap.sol\":3663:4177  function withdraw() public nonReentrant {... */\n    tag_28:\n        /* \"@openzeppelin/contracts/security/ReentrancyGuard.sol\":2261:2282  _nonReentrantBefore() */\n      tag_97\n        /* \"@openzeppelin/contracts/security/ReentrancyGuard.sol\":2261:2280  _nonReentrantBefore */\n      tag_57\n        /* \"@openzeppelin/contracts/security/ReentrancyGuard.sol\":2261:2282  _nonReentrantBefore() */\n      jump\t// in\n    tag_97:\n        /* \"solidity/contracts/BridgewhenCheap.sol\":3713:3749  BridgeRequest memory obsoleteRequest */\n      0x00\n        /* \"solidity/contracts/BridgewhenCheap.sol\":3752:3760  requests */\n      0x04\n        /* \"solidity/contracts/BridgewhenCheap.sol\":3752:3772  requests[msg.sender] */\n      0x00\n        /* \"solidity/contracts/BridgewhenCheap.sol\":3761:3771  msg.sender */\n      caller\n        /* \"solidity/contracts/BridgewhenCheap.sol\":3752:3772  requests[msg.sender] */\n      0xffffffffffffffffffffffffffffffffffffffff\n      and\n      0xffffffffffffffffffffffffffffffffffffffff\n      and\n      dup2\n      mstore\n      0x20\n      add\n      swap1\n      dup2\n      mstore\n      0x20\n      add\n      0x00\n      keccak256\n        /* \"solidity/contracts/BridgewhenCheap.sol\":3713:3772  BridgeRequest memory obsoleteRequest = requests[msg.sender] */\n      mload(0x40)\n      dup1\n      0xa0\n      add\n      0x40\n      mstore\n      swap1\n      dup2\n      0x00\n      dup3\n      add\n      0x00\n      swap1\n      sload\n      swap1\n      0x0100\n      exp\n      swap1\n      div\n      0xffffffffffffffffffffffffffffffffffffffff\n      and\n      0xffffffffffffffffffffffffffffffffffffffff\n      and\n      0xffffffffffffffffffffffffffffffffffffffff\n      and\n      dup2\n      mstore\n      0x20\n      add\n      0x01\n      dup3\n      add\n      0x00\n      swap1\n      sload\n      swap1\n      0x0100\n      exp\n      swap1\n      div\n      0xffffffffffffffffffffffffffffffffffffffff\n      and\n      0xffffffffffffffffffffffffffffffffffffffff\n      and\n      0xffffffffffffffffffffffffffffffffffffffff\n      and\n      dup2\n      mstore\n      0x20\n      add\n      0x02\n      dup3\n      add\n      sload\n      dup2\n      mstore\n      0x20\n      add\n      0x03\n      dup3\n      add\n      sload\n      dup2\n      mstore\n      0x20\n      add\n      0x04\n      dup3\n      add\n      sload\n      dup2\n      mstore\n      pop\n      pop\n      swap1\n      pop\n        /* \"solidity/contracts/BridgewhenCheap.sol\":3826:3852  isDefined(obsoleteRequest) */\n      tag_99\n        /* \"solidity/contracts/BridgewhenCheap.sol\":3836:3851  obsoleteRequest */\n      dup2\n        /* \"solidity/contracts/BridgewhenCheap.sol\":3826:3835  isDefined */\n      tag_60\n        /* \"solidity/contracts/BridgewhenCheap.sol\":3826:3852  isDefined(obsoleteRequest) */\n      jump\t// in\n    tag_99:\n        /* \"solidity/contracts/BridgewhenCheap.sol\":3818:3879  require(isDefined(obsoleteRequest), \"No request to withdraw\") */\n      tag_100\n      jumpi\n      mload(0x40)\n      0x08c379a000000000000000000000000000000000000000000000000000000000\n      dup2\n      mstore\n      0x04\n      add\n      tag_101\n      swap1\n      tag_102\n      jump\t// in\n    tag_101:\n      mload(0x40)\n      dup1\n      swap2\n      sub\n      swap1\n      revert\n    tag_100:\n        /* \"solidity/contracts/BridgewhenCheap.sol\":3897:3905  requests */\n      0x04\n        /* \"solidity/contracts/BridgewhenCheap.sol\":3897:3917  requests[msg.sender] */\n      0x00\n        /* \"solidity/contracts/BridgewhenCheap.sol\":3906:3916  msg.sender */\n      caller\n        /* \"solidity/contracts/BridgewhenCheap.sol\":3897:3917  requests[msg.sender] */\n      0xffffffffffffffffffffffffffffffffffffffff\n      and\n      0xffffffffffffffffffffffffffffffffffffffff\n      and\n      dup2\n      mstore\n      0x20\n      add\n      swap1\n      dup2\n      mstore\n      0x20\n      add\n      0x00\n      keccak256\n      0x00\n        /* \"solidity/contracts/BridgewhenCheap.sol\":3890:3917  delete requests[msg.sender] */\n      dup1\n      dup3\n      add\n      exp(0x0100, 0x00)\n      dup2\n      sload\n      swap1\n      0xffffffffffffffffffffffffffffffffffffffff\n      mul\n      not\n      and\n      swap1\n      sstore\n      0x01\n      dup3\n      add\n      exp(0x0100, 0x00)\n      dup2\n      sload\n      swap1\n      0xffffffffffffffffffffffffffffffffffffffff\n      mul\n      not\n      and\n      swap1\n      sstore\n      0x02\n      dup3\n      add\n      0x00\n      swap1\n      sstore\n      0x03\n      dup3\n      add\n      0x00\n      swap1\n      sstore\n      0x04\n      dup3\n      add\n      0x00\n      swap1\n      sstore\n      pop\n      pop\n        /* \"solidity/contracts/BridgewhenCheap.sol\":3961:3971  msg.sender */\n      caller\n        /* \"solidity/contracts/BridgewhenCheap.sol\":3935:3971  obsoleteRequest.source == msg.sender */\n      0xffffffffffffffffffffffffffffffffffffffff\n      and\n        /* \"solidity/contracts/BridgewhenCheap.sol\":3935:3950  obsoleteRequest */\n      dup2\n        /* \"solidity/contracts/BridgewhenCheap.sol\":3935:3957  obsoleteRequest.source */\n      0x00\n      add\n      mload\n        /* \"solidity/contracts/BridgewhenCheap.sol\":3935:3971  obsoleteRequest.source == msg.sender */\n      0xffffffffffffffffffffffffffffffffffffffff\n      and\n      eq\n        /* \"solidity/contracts/BridgewhenCheap.sol\":3928:3972  assert(obsoleteRequest.source == msg.sender) */\n      tag_103\n      jumpi\n      tag_104\n      tag_105\n      jump\t// in\n    tag_104:\n    tag_103:\n        /* \"solidity/contracts/BridgewhenCheap.sol\":4039:4051  bool success */\n      0x00\n        /* \"solidity/contracts/BridgewhenCheap.sol\":4062:4072  msg.sender */\n      caller\n        /* \"solidity/contracts/BridgewhenCheap.sol\":4054:4078  payable(msg.sender).send */\n      0xffffffffffffffffffffffffffffffffffffffff\n      and\n        /* \"solidity/contracts/BridgewhenCheap.sol\":4054:4102  payable(msg.sender).send(obsoleteRequest.amount) */\n      0x08fc\n        /* \"solidity/contracts/BridgewhenCheap.sol\":4079:4094  obsoleteRequest */\n      dup4\n        /* \"solidity/contracts/BridgewhenCheap.sol\":4079:4101  obsoleteRequest.amount */\n      0x40\n      add\n      mload\n        /* \"solidity/contracts/BridgewhenCheap.sol\":4054:4102  payable(msg.sender).send(obsoleteRequest.amount) */\n      swap1\n      dup2\n      iszero\n      mul\n      swap1\n      mload(0x40)\n      0x00\n      mload(0x40)\n      dup1\n      dup4\n      sub\n      dup2\n      dup6\n      dup9\n      dup9\n      call\n      swap4\n      pop\n      pop\n      pop\n      pop\n        /* \"solidity/contracts/BridgewhenCheap.sol\":4039:4102  bool success = payable(msg.sender).send(obsoleteRequest.amount) */\n      swap1\n      pop\n        /* \"solidity/contracts/BridgewhenCheap.sol\":4120:4127  success */\n      dup1\n        /* \"solidity/contracts/BridgewhenCheap.sol\":4112:4170  require(success, \"Failed to withdraw funds to msg.sender\") */\n      tag_107\n      jumpi\n      mload(0x40)\n      0x08c379a000000000000000000000000000000000000000000000000000000000\n      dup2\n      mstore\n      0x04\n      add\n      tag_108\n      swap1\n      tag_109\n      jump\t// in\n    tag_108:\n      mload(0x40)\n      dup1\n      swap2\n      sub\n      swap1\n      revert\n    tag_107:\n        /* \"solidity/contracts/BridgewhenCheap.sol\":3703:4177  {... */\n      pop\n      pop\n        /* \"@openzeppelin/contracts/security/ReentrancyGuard.sol\":2303:2323  _nonReentrantAfter() */\n      tag_110\n        /* \"@openzeppelin/contracts/security/ReentrancyGuard.sol\":2303:2321  _nonReentrantAfter */\n      tag_77\n        /* \"@openzeppelin/contracts/security/ReentrancyGuard.sol\":2303:2323  _nonReentrantAfter() */\n      jump\t// in\n    tag_110:\n        /* \"solidity/contracts/BridgewhenCheap.sol\":3663:4177  function withdraw() public nonReentrant {... */\n      jump\t// out\n        /* \"solidity/contracts/BridgewhenCheap.sol\":1935:2177  function pendingRequests()... */\n    tag_31:\n        /* \"solidity/contracts/BridgewhenCheap.sol\":2007:2027  BridgeRequest memory */\n      tag_111\n      tag_112\n      jump\t// in\n    tag_111:\n        /* \"solidity/contracts/BridgewhenCheap.sol\":2029:2033  bool */\n      0x00\n        /* \"solidity/contracts/BridgewhenCheap.sol\":2049:2077  BridgeRequest memory request */\n      dup1\n        /* \"solidity/contracts/BridgewhenCheap.sol\":2080:2088  requests */\n      0x04\n        /* \"solidity/contracts/BridgewhenCheap.sol\":2080:2100  requests[msg.sender] */\n      0x00\n        /* \"solidity/contracts/BridgewhenCheap.sol\":2089:2099  msg.sender */\n      caller\n        /* \"solidity/contracts/BridgewhenCheap.sol\":2080:2100  requests[msg.sender] */\n      0xffffffffffffffffffffffffffffffffffffffff\n      and\n      0xffffffffffffffffffffffffffffffffffffffff\n      and\n      dup2\n      mstore\n      0x20\n      add\n      swap1\n      dup2\n      mstore\n      0x20\n      add\n      0x00\n      keccak256\n        /* \"solidity/contracts/BridgewhenCheap.sol\":2049:2100  BridgeRequest memory request = requests[msg.sender] */\n      mload(0x40)\n      dup1\n      0xa0\n      add\n      0x40\n      mstore\n      swap1\n      dup2\n      0x00\n      dup3\n      add\n      0x00\n      swap1\n      sload\n      swap1\n      0x0100\n      exp\n      swap1\n      div\n      0xffffffffffffffffffffffffffffffffffffffff\n      and\n      0xffffffffffffffffffffffffffffffffffffffff\n      and\n      0xffffffffffffffffffffffffffffffffffffffff\n      and\n      dup2\n      mstore\n      0x20\n      add\n      0x01\n      dup3\n      add\n      0x00\n      swap1\n      sload\n      swap1\n      0x0100\n      exp\n      swap1\n      div\n      0xffffffffffffffffffffffffffffffffffffffff\n      and\n      0xffffffffffffffffffffffffffffffffffffffff\n      and\n      0xffffffffffffffffffffffffffffffffffffffff\n      and\n      dup2\n      mstore\n      0x20\n      add\n      0x02\n      dup3\n      add\n      sload\n      dup2\n      mstore\n      0x20\n      add\n      0x03\n      dup3\n      add\n      sload\n      dup2\n      mstore\n      0x20\n      add\n      0x04\n      dup3\n      add\n      sload\n      dup2\n      mstore\n      pop\n      pop\n      swap1\n      pop\n        /* \"solidity/contracts/BridgewhenCheap.sol\":2142:2149  request */\n      dup1\n        /* \"solidity/contracts/BridgewhenCheap.sol\":2151:2169  isDefined(request) */\n      tag_114\n        /* \"solidity/contracts/BridgewhenCheap.sol\":2161:2168  request */\n      dup3\n        /* \"solidity/contracts/BridgewhenCheap.sol\":2151:2160  isDefined */\n      tag_60\n        /* \"solidity/contracts/BridgewhenCheap.sol\":2151:2169  isDefined(request) */\n      jump\t// in\n    tag_114:\n        /* \"solidity/contracts/BridgewhenCheap.sol\":2134:2170  return (request, isDefined(request)) */\n      swap3\n      pop\n      swap3\n      pop\n      pop\n        /* \"solidity/contracts/BridgewhenCheap.sol\":1935:2177  function pendingRequests()... */\n      swap1\n      swap2\n      jump\t// out\n        /* \"solidity/contracts/BridgewhenCheap.sol\":5624:5742  function setExecutionGasRequirement(uint256 amount) public onlyOwner {... */\n    tag_38:\n        /* \"@openzeppelin/contracts/access/Ownable.sol\":1094:1107  _checkOwner() */\n      tag_116\n        /* \"@openzeppelin/contracts/access/Ownable.sol\":1094:1105  _checkOwner */\n      tag_54\n        /* \"@openzeppelin/contracts/access/Ownable.sol\":1094:1107  _checkOwner() */\n      jump\t// in\n    tag_116:\n        /* \"solidity/contracts/BridgewhenCheap.sol\":5729:5735  amount */\n      dup1\n        /* \"solidity/contracts/BridgewhenCheap.sol\":5703:5726  executionGasRequirement */\n      0x02\n        /* \"solidity/contracts/BridgewhenCheap.sol\":5703:5735  executionGasRequirement = amount */\n      dup2\n      swap1\n      sstore\n      pop\n        /* \"solidity/contracts/BridgewhenCheap.sol\":5624:5742  function setExecutionGasRequirement(uint256 amount) public onlyOwner {... */\n      pop\n      jump\t// out\n        /* \"@openzeppelin/contracts/access/Ownable.sol\":1831:1932  function renounceOwnership() public virtual onlyOwner {... */\n    tag_41:\n        /* \"@openzeppelin/contracts/access/Ownable.sol\":1094:1107  _checkOwner() */\n      tag_119\n        /* \"@openzeppelin/contracts/access/Ownable.sol\":1094:1105  _checkOwner */\n      tag_54\n        /* \"@openzeppelin/contracts/access/Ownable.sol\":1094:1107  _checkOwner() */\n      jump\t// in\n    tag_119:\n        /* \"@openzeppelin/contracts/access/Ownable.sol\":1895:1925  _transferOwnership(address(0)) */\n      tag_121\n        /* \"@openzeppelin/contracts/access/Ownable.sol\":1922:1923  0 */\n      0x00\n        /* \"@openzeppelin/contracts/access/Ownable.sol\":1895:1913  _transferOwnership */\n      tag_122\n        /* \"@openzeppelin/contracts/access/Ownable.sol\":1895:1925  _transferOwnership(address(0)) */\n      jump\t// in\n    tag_121:\n        /* \"@openzeppelin/contracts/access/Ownable.sol\":1831:1932  function renounceOwnership() public virtual onlyOwner {... */\n      jump\t// out\n        /* \"@openzeppelin/contracts/access/Ownable.sol\":1201:1286  function owner() public view virtual returns (address) {... */\n    tag_44:\n        /* \"@openzeppelin/contracts/access/Ownable.sol\":1247:1254  address */\n      0x00\n        /* \"@openzeppelin/contracts/access/Ownable.sol\":1273:1279  _owner */\n      dup1\n      0x00\n      swap1\n      sload\n      swap1\n      0x0100\n      exp\n      swap1\n      div\n      0xffffffffffffffffffffffffffffffffffffffff\n      and\n        /* \"@openzeppelin/contracts/access/Ownable.sol\":1266:1279  return _owner */\n      swap1\n      pop\n        /* \"@openzeppelin/contracts/access/Ownable.sol\":1201:1286  function owner() public view virtual returns (address) {... */\n      swap1\n      jump\t// out\n        /* \"@openzeppelin/contracts/access/Ownable.sol\":2081:2279  function transferOwnership(address newOwner) public virtual onlyOwner {... */\n    tag_51:\n        /* \"@openzeppelin/contracts/access/Ownable.sol\":1094:1107  _checkOwner() */\n      tag_125\n        /* \"@openzeppelin/contracts/access/Ownable.sol\":1094:1105  _checkOwner */\n      tag_54\n        /* \"@openzeppelin/contracts/access/Ownable.sol\":1094:1107  _checkOwner() */\n      jump\t// in\n    tag_125:\n        /* \"@openzeppelin/contracts/access/Ownable.sol\":2189:2190  0 */\n      0x00\n        /* \"@openzeppelin/contracts/access/Ownable.sol\":2169:2191  newOwner != address(0) */\n      0xffffffffffffffffffffffffffffffffffffffff\n      and\n        /* \"@openzeppelin/contracts/access/Ownable.sol\":2169:2177  newOwner */\n      dup2\n        /* \"@openzeppelin/contracts/access/Ownable.sol\":2169:2191  newOwner != address(0) */\n      0xffffffffffffffffffffffffffffffffffffffff\n      and\n      sub\n        /* \"@openzeppelin/contracts/access/Ownable.sol\":2161:2234  require(newOwner != address(0), \"Ownable: new owner is the zero address\") */\n      tag_127\n      jumpi\n      mload(0x40)\n      0x08c379a000000000000000000000000000000000000000000000000000000000\n      dup2\n      mstore\n      0x04\n      add\n      tag_128\n      swap1\n      tag_129\n      jump\t// in\n    tag_128:\n      mload(0x40)\n      dup1\n      swap2\n      sub\n      swap1\n      revert\n    tag_127:\n        /* \"@openzeppelin/contracts/access/Ownable.sol\":2244:2272  _transferOwnership(newOwner) */\n      tag_130\n        /* \"@openzeppelin/contracts/access/Ownable.sol\":2263:2271  newOwner */\n      dup2\n        /* \"@openzeppelin/contracts/access/Ownable.sol\":2244:2262  _transferOwnership */\n      tag_122\n        /* \"@openzeppelin/contracts/access/Ownable.sol\":2244:2272  _transferOwnership(newOwner) */\n      jump\t// in\n    tag_130:\n        /* \"@openzeppelin/contracts/access/Ownable.sol\":2081:2279  function transferOwnership(address newOwner) public virtual onlyOwner {... */\n      pop\n      jump\t// out\n        /* \"@openzeppelin/contracts/access/Ownable.sol\":1359:1489  function _checkOwner() internal view virtual {... */\n    tag_54:\n        /* \"@openzeppelin/contracts/access/Ownable.sol\":1433:1445  _msgSender() */\n      tag_132\n        /* \"@openzeppelin/contracts/access/Ownable.sol\":1433:1443  _msgSender */\n      tag_133\n        /* \"@openzeppelin/contracts/access/Ownable.sol\":1433:1445  _msgSender() */\n      jump\t// in\n    tag_132:\n        /* \"@openzeppelin/contracts/access/Ownable.sol\":1422:1445  owner() == _msgSender() */\n      0xffffffffffffffffffffffffffffffffffffffff\n      and\n        /* \"@openzeppelin/contracts/access/Ownable.sol\":1422:1429  owner() */\n      tag_134\n        /* \"@openzeppelin/contracts/access/Ownable.sol\":1422:1427  owner */\n      tag_44\n        /* \"@openzeppelin/contracts/access/Ownable.sol\":1422:1429  owner() */\n      jump\t// in\n    tag_134:\n        /* \"@openzeppelin/contracts/access/Ownable.sol\":1422:1445  owner() == _msgSender() */\n      0xffffffffffffffffffffffffffffffffffffffff\n      and\n      eq\n        /* \"@openzeppelin/contracts/access/Ownable.sol\":1414:1482  require(owner() == _msgSender(), \"Ownable: caller is not the owner\") */\n      tag_135\n      jumpi\n      mload(0x40)\n      0x08c379a000000000000000000000000000000000000000000000000000000000\n      dup2\n      mstore\n      0x04\n      add\n      tag_136\n      swap1\n      tag_137\n      jump\t// in\n    tag_136:\n      mload(0x40)\n      dup1\n      swap2\n      sub\n      swap1\n      revert\n    tag_135:\n        /* \"@openzeppelin/contracts/access/Ownable.sol\":1359:1489  function _checkOwner() internal view virtual {... */\n      jump\t// out\n        /* \"@openzeppelin/contracts/security/ReentrancyGuard.sol\":2336:2623  function _nonReentrantBefore() private {... */\n    tag_57:\n        /* \"@openzeppelin/contracts/security/ReentrancyGuard.sol\":1759:1760  2 */\n      0x02\n        /* \"@openzeppelin/contracts/security/ReentrancyGuard.sol\":2468:2475  _status */\n      sload(0x01)\n        /* \"@openzeppelin/contracts/security/ReentrancyGuard.sol\":2468:2487  _status != _ENTERED */\n      sub\n        /* \"@openzeppelin/contracts/security/ReentrancyGuard.sol\":2460:2523  require(_status != _ENTERED, \"ReentrancyGuard: reentrant call\") */\n      tag_139\n      jumpi\n      mload(0x40)\n      0x08c379a000000000000000000000000000000000000000000000000000000000\n      dup2\n      mstore\n      0x04\n      add\n      tag_140\n      swap1\n      tag_141\n      jump\t// in\n    tag_140:\n      mload(0x40)\n      dup1\n      swap2\n      sub\n      swap1\n      revert\n    tag_139:\n        /* \"@openzeppelin/contracts/security/ReentrancyGuard.sol\":1759:1760  2 */\n      0x02\n        /* \"@openzeppelin/contracts/security/ReentrancyGuard.sol\":2598:2605  _status */\n      0x01\n        /* \"@openzeppelin/contracts/security/ReentrancyGuard.sol\":2598:2616  _status = _ENTERED */\n      dup2\n      swap1\n      sstore\n      pop\n        /* \"@openzeppelin/contracts/security/ReentrancyGuard.sol\":2336:2623  function _nonReentrantBefore() private {... */\n      jump\t// out\n        /* \"solidity/contracts/BridgewhenCheap.sol\":5816:5974  function isDefined(BridgeRequest memory request)... */\n    tag_60:\n        /* \"solidity/contracts/BridgewhenCheap.sol\":5912:5916  bool */\n      0x00\n        /* \"solidity/contracts/BridgewhenCheap.sol\":5965:5966  0 */\n      dup1\n        /* \"solidity/contracts/BridgewhenCheap.sol\":5939:5967  request.source != address(0) */\n      0xffffffffffffffffffffffffffffffffffffffff\n      and\n        /* \"solidity/contracts/BridgewhenCheap.sol\":5939:5946  request */\n      dup3\n        /* \"solidity/contracts/BridgewhenCheap.sol\":5939:5953  request.source */\n      0x00\n      add\n      mload\n        /* \"solidity/contracts/BridgewhenCheap.sol\":5939:5967  request.source != address(0) */\n      0xffffffffffffffffffffffffffffffffffffffff\n      and\n      eq\n      iszero\n        /* \"solidity/contracts/BridgewhenCheap.sol\":5932:5967  return request.source != address(0) */\n      swap1\n      pop\n        /* \"solidity/contracts/BridgewhenCheap.sol\":5816:5974  function isDefined(BridgeRequest memory request)... */\n      swap2\n      swap1\n      pop\n      jump\t// out\n        /* \"@openzeppelin/contracts/security/ReentrancyGuard.sol\":2629:2838  function _nonReentrantAfter() private {... */\n    tag_77:\n        /* \"@openzeppelin/contracts/security/ReentrancyGuard.sol\":1716:1717  1 */\n      0x01\n        /* \"@openzeppelin/contracts/security/ReentrancyGuard.sol\":2809:2816  _status */\n      dup1\n        /* \"@openzeppelin/contracts/security/ReentrancyGuard.sol\":2809:2831  _status = _NOT_ENTERED */\n      dup2\n      swap1\n      sstore\n      pop\n        /* \"@openzeppelin/contracts/security/ReentrancyGuard.sol\":2629:2838  function _nonReentrantAfter() private {... */\n      jump\t// out\n        /* \"@openzeppelin/contracts/access/Ownable.sol\":2433:2620  function _transferOwnership(address newOwner) internal virtual {... */\n    tag_122:\n        /* \"@openzeppelin/contracts/access/Ownable.sol\":2506:2522  address oldOwner */\n      0x00\n        /* \"@openzeppelin/contracts/access/Ownable.sol\":2525:2531  _owner */\n      dup1\n      0x00\n      swap1\n      sload\n      swap1\n      0x0100\n      exp\n      swap1\n      div\n      0xffffffffffffffffffffffffffffffffffffffff\n      and\n        /* \"@openzeppelin/contracts/access/Ownable.sol\":2506:2531  address oldOwner = _owner */\n      swap1\n      pop\n        /* \"@openzeppelin/contracts/access/Ownable.sol\":2550:2558  newOwner */\n      dup2\n        /* \"@openzeppelin/contracts/access/Ownable.sol\":2541:2547  _owner */\n      0x00\n      dup1\n        /* \"@openzeppelin/contracts/access/Ownable.sol\":2541:2558  _owner = newOwner */\n      0x0100\n      exp\n      dup2\n      sload\n      dup2\n      0xffffffffffffffffffffffffffffffffffffffff\n      mul\n      not\n      and\n      swap1\n      dup4\n      0xffffffffffffffffffffffffffffffffffffffff\n      and\n      mul\n      or\n      swap1\n      sstore\n      pop\n        /* \"@openzeppelin/contracts/access/Ownable.sol\":2604:2612  newOwner */\n      dup2\n        /* \"@openzeppelin/contracts/access/Ownable.sol\":2573:2613  OwnershipTransferred(oldOwner, newOwner) */\n      0xffffffffffffffffffffffffffffffffffffffff\n      and\n        /* \"@openzeppelin/contracts/access/Ownable.sol\":2594:2602  oldOwner */\n      dup2\n        /* \"@openzeppelin/contracts/access/Ownable.sol\":2573:2613  OwnershipTransferred(oldOwner, newOwner) */\n      0xffffffffffffffffffffffffffffffffffffffff\n      and\n      0x8be0079c531659141344cd1fd0a4f28419497f9722a3daafe3b4186f6b6457e0\n      mload(0x40)\n      mload(0x40)\n      dup1\n      swap2\n      sub\n      swap1\n      log3\n        /* \"@openzeppelin/contracts/access/Ownable.sol\":2496:2620  {... */\n      pop\n        /* \"@openzeppelin/contracts/access/Ownable.sol\":2433:2620  function _transferOwnership(address newOwner) internal virtual {... */\n      pop\n      jump\t// out\n        /* \"@openzeppelin/contracts/utils/Context.sol\":640:736  function _msgSender() internal view virtual returns (address) {... */\n    tag_133:\n        /* \"@openzeppelin/contracts/utils/Context.sol\":693:700  address */\n      0x00\n        /* \"@openzeppelin/contracts/utils/Context.sol\":719:729  msg.sender */\n      caller\n        /* \"@openzeppelin/contracts/utils/Context.sol\":712:729  return msg.sender */\n      swap1\n      pop\n        /* \"@openzeppelin/contracts/utils/Context.sol\":640:736  function _msgSender() internal view virtual returns (address) {... */\n      swap1\n      jump\t// out\n    tag_112:\n      mload(0x40)\n      dup1\n      0xa0\n      add\n      0x40\n      mstore\n      dup1\n      and(0xffffffffffffffffffffffffffffffffffffffff, 0x00)\n      dup2\n      mstore\n      0x20\n      add\n      and(0xffffffffffffffffffffffffffffffffffffffff, 0x00)\n      dup2\n      mstore\n      0x20\n      add\n      0x00\n      dup2\n      mstore\n      0x20\n      add\n      0x00\n      dup2\n      mstore\n      0x20\n      add\n      0x00\n      dup2\n      mstore\n      pop\n      swap1\n      jump\t// out\n        /* \"#utility.yul\":7:82   */\n    tag_146:\n        /* \"#utility.yul\":40:46   */\n      0x00\n        /* \"#utility.yul\":73:75   */\n      0x40\n        /* \"#utility.yul\":67:76   */\n      mload\n        /* \"#utility.yul\":57:76   */\n      swap1\n      pop\n        /* \"#utility.yul\":7:82   */\n      swap1\n      jump\t// out\n        /* \"#utility.yul\":88:205   */\n    tag_147:\n        /* \"#utility.yul\":197:198   */\n      0x00\n        /* \"#utility.yul\":194:195   */\n      dup1\n        /* \"#utility.yul\":187:199   */\n      revert\n        /* \"#utility.yul\":334:460   */\n    tag_149:\n        /* \"#utility.yul\":371:378   */\n      0x00\n        /* \"#utility.yul\":411:453   */\n      0xffffffffffffffffffffffffffffffffffffffff\n        /* \"#utility.yul\":404:409   */\n      dup3\n        /* \"#utility.yul\":400:454   */\n      and\n        /* \"#utility.yul\":389:454   */\n      swap1\n      pop\n        /* \"#utility.yul\":334:460   */\n      swap2\n      swap1\n      pop\n      jump\t// out\n        /* \"#utility.yul\":466:562   */\n    tag_150:\n        /* \"#utility.yul\":503:510   */\n      0x00\n        /* \"#utility.yul\":532:556   */\n      tag_217\n        /* \"#utility.yul\":550:555   */\n      dup3\n        /* \"#utility.yul\":532:556   */\n      tag_149\n      jump\t// in\n    tag_217:\n        /* \"#utility.yul\":521:556   */\n      swap1\n      pop\n        /* \"#utility.yul\":466:562   */\n      swap2\n      swap1\n      pop\n      jump\t// out\n        /* \"#utility.yul\":568:690   */\n    tag_151:\n        /* \"#utility.yul\":641:665   */\n      tag_219\n        /* \"#utility.yul\":659:664   */\n      dup2\n        /* \"#utility.yul\":641:665   */\n      tag_150\n      jump\t// in\n    tag_219:\n        /* \"#utility.yul\":634:639   */\n      dup2\n        /* \"#utility.yul\":631:666   */\n      eq\n        /* \"#utility.yul\":621:684   */\n      tag_220\n      jumpi\n        /* \"#utility.yul\":680:681   */\n      0x00\n        /* \"#utility.yul\":677:678   */\n      dup1\n        /* \"#utility.yul\":670:682   */\n      revert\n        /* \"#utility.yul\":621:684   */\n    tag_220:\n        /* \"#utility.yul\":568:690   */\n      pop\n      jump\t// out\n        /* \"#utility.yul\":696:835   */\n    tag_152:\n        /* \"#utility.yul\":742:747   */\n      0x00\n        /* \"#utility.yul\":780:786   */\n      dup2\n        /* \"#utility.yul\":767:787   */\n      calldataload\n        /* \"#utility.yul\":758:787   */\n      swap1\n      pop\n        /* \"#utility.yul\":796:829   */\n      tag_222\n        /* \"#utility.yul\":823:828   */\n      dup2\n        /* \"#utility.yul\":796:829   */\n      tag_151\n      jump\t// in\n    tag_222:\n        /* \"#utility.yul\":696:835   */\n      swap3\n      swap2\n      pop\n      pop\n      jump\t// out\n        /* \"#utility.yul\":841:918   */\n    tag_153:\n        /* \"#utility.yul\":878:885   */\n      0x00\n        /* \"#utility.yul\":907:912   */\n      dup2\n        /* \"#utility.yul\":896:912   */\n      swap1\n      pop\n        /* \"#utility.yul\":841:918   */\n      swap2\n      swap1\n      pop\n      jump\t// out\n        /* \"#utility.yul\":924:1046   */\n    tag_154:\n        /* \"#utility.yul\":997:1021   */\n      tag_225\n        /* \"#utility.yul\":1015:1020   */\n      dup2\n        /* \"#utility.yul\":997:1021   */\n      tag_153\n      jump\t// in\n    tag_225:\n        /* \"#utility.yul\":990:995   */\n      dup2\n        /* \"#utility.yul\":987:1022   */\n      eq\n        /* \"#utility.yul\":977:1040   */\n      tag_226\n      jumpi\n        /* \"#utility.yul\":1036:1037   */\n      0x00\n        /* \"#utility.yul\":1033:1034   */\n      dup1\n        /* \"#utility.yul\":1026:1038   */\n      revert\n        /* \"#utility.yul\":977:1040   */\n    tag_226:\n        /* \"#utility.yul\":924:1046   */\n      pop\n      jump\t// out\n        /* \"#utility.yul\":1052:1191   */\n    tag_155:\n        /* \"#utility.yul\":1098:1103   */\n      0x00\n        /* \"#utility.yul\":1136:1142   */\n      dup2\n        /* \"#utility.yul\":1123:1143   */\n      calldataload\n        /* \"#utility.yul\":1114:1143   */\n      swap1\n      pop\n        /* \"#utility.yul\":1152:1185   */\n      tag_228\n        /* \"#utility.yul\":1179:1184   */\n      dup2\n        /* \"#utility.yul\":1152:1185   */\n      tag_154\n      jump\t// in\n    tag_228:\n        /* \"#utility.yul\":1052:1191   */\n      swap3\n      swap2\n      pop\n      pop\n      jump\t// out\n        /* \"#utility.yul\":1197:1314   */\n    tag_156:\n        /* \"#utility.yul\":1306:1307   */\n      0x00\n        /* \"#utility.yul\":1303:1304   */\n      dup1\n        /* \"#utility.yul\":1296:1308   */\n      revert\n        /* \"#utility.yul\":1320:1422   */\n    tag_157:\n        /* \"#utility.yul\":1361:1367   */\n      0x00\n        /* \"#utility.yul\":1412:1414   */\n      0x1f\n        /* \"#utility.yul\":1408:1415   */\n      not\n        /* \"#utility.yul\":1403:1405   */\n      0x1f\n        /* \"#utility.yul\":1396:1401   */\n      dup4\n        /* \"#utility.yul\":1392:1406   */\n      add\n        /* \"#utility.yul\":1388:1416   */\n      and\n        /* \"#utility.yul\":1378:1416   */\n      swap1\n      pop\n        /* \"#utility.yul\":1320:1422   */\n      swap2\n      swap1\n      pop\n      jump\t// out\n        /* \"#utility.yul\":1428:1608   */\n    tag_158:\n        /* \"#utility.yul\":1476:1553   */\n      0x4e487b7100000000000000000000000000000000000000000000000000000000\n        /* \"#utility.yul\":1473:1474   */\n      0x00\n        /* \"#utility.yul\":1466:1554   */\n      mstore\n        /* \"#utility.yul\":1573:1577   */\n      0x41\n        /* \"#utility.yul\":1570:1571   */\n      0x04\n        /* \"#utility.yul\":1563:1578   */\n      mstore\n        /* \"#utility.yul\":1597:1601   */\n      0x24\n        /* \"#utility.yul\":1594:1595   */\n      0x00\n        /* \"#utility.yul\":1587:1602   */\n      revert\n        /* \"#utility.yul\":1614:1895   */\n    tag_159:\n        /* \"#utility.yul\":1697:1724   */\n      tag_233\n        /* \"#utility.yul\":1719:1723   */\n      dup3\n        /* \"#utility.yul\":1697:1724   */\n      tag_157\n      jump\t// in\n    tag_233:\n        /* \"#utility.yul\":1689:1695   */\n      dup2\n        /* \"#utility.yul\":1685:1725   */\n      add\n        /* \"#utility.yul\":1827:1833   */\n      dup2\n        /* \"#utility.yul\":1815:1825   */\n      dup2\n        /* \"#utility.yul\":1812:1834   */\n      lt\n        /* \"#utility.yul\":1791:1809   */\n      0xffffffffffffffff\n        /* \"#utility.yul\":1779:1789   */\n      dup3\n        /* \"#utility.yul\":1776:1810   */\n      gt\n        /* \"#utility.yul\":1773:1835   */\n      or\n        /* \"#utility.yul\":1770:1858   */\n      iszero\n      tag_234\n      jumpi\n        /* \"#utility.yul\":1838:1856   */\n      tag_235\n      tag_158\n      jump\t// in\n    tag_235:\n        /* \"#utility.yul\":1770:1858   */\n    tag_234:\n        /* \"#utility.yul\":1878:1888   */\n      dup1\n        /* \"#utility.yul\":1874:1876   */\n      0x40\n        /* \"#utility.yul\":1867:1889   */\n      mstore\n        /* \"#utility.yul\":1657:1895   */\n      pop\n        /* \"#utility.yul\":1614:1895   */\n      pop\n      pop\n      jump\t// out\n        /* \"#utility.yul\":1901:2030   */\n    tag_160:\n        /* \"#utility.yul\":1935:1941   */\n      0x00\n        /* \"#utility.yul\":1962:1982   */\n      tag_237\n      tag_146\n      jump\t// in\n    tag_237:\n        /* \"#utility.yul\":1952:1982   */\n      swap1\n      pop\n        /* \"#utility.yul\":1991:2024   */\n      tag_238\n        /* \"#utility.yul\":2019:2023   */\n      dup3\n        /* \"#utility.yul\":2011:2017   */\n      dup3\n        /* \"#utility.yul\":1991:2024   */\n      tag_159\n      jump\t// in\n    tag_238:\n        /* \"#utility.yul\":1901:2030   */\n      swap2\n      swap1\n      pop\n      jump\t// out\n        /* \"#utility.yul\":2159:2245   */\n    tag_162:\n        /* \"#utility.yul\":2194:2201   */\n      0x00\n        /* \"#utility.yul\":2234:2238   */\n      0xff\n        /* \"#utility.yul\":2227:2232   */\n      dup3\n        /* \"#utility.yul\":2223:2239   */\n      and\n        /* \"#utility.yul\":2212:2239   */\n      swap1\n      pop\n        /* \"#utility.yul\":2159:2245   */\n      swap2\n      swap1\n      pop\n      jump\t// out\n        /* \"#utility.yul\":2251:2369   */\n    tag_163:\n        /* \"#utility.yul\":2322:2344   */\n      tag_242\n        /* \"#utility.yul\":2338:2343   */\n      dup2\n        /* \"#utility.yul\":2322:2344   */\n      tag_162\n      jump\t// in\n    tag_242:\n        /* \"#utility.yul\":2315:2320   */\n      dup2\n        /* \"#utility.yul\":2312:2345   */\n      eq\n        /* \"#utility.yul\":2302:2363   */\n      tag_243\n      jumpi\n        /* \"#utility.yul\":2359:2360   */\n      0x00\n        /* \"#utility.yul\":2356:2357   */\n      dup1\n        /* \"#utility.yul\":2349:2361   */\n      revert\n        /* \"#utility.yul\":2302:2363   */\n    tag_243:\n        /* \"#utility.yul\":2251:2369   */\n      pop\n      jump\t// out\n        /* \"#utility.yul\":2375:2510   */\n    tag_164:\n        /* \"#utility.yul\":2419:2424   */\n      0x00\n        /* \"#utility.yul\":2457:2463   */\n      dup2\n        /* \"#utility.yul\":2444:2464   */\n      calldataload\n        /* \"#utility.yul\":2435:2464   */\n      swap1\n      pop\n        /* \"#utility.yul\":2473:2504   */\n      tag_245\n        /* \"#utility.yul\":2498:2503   */\n      dup2\n        /* \"#utility.yul\":2473:2504   */\n      tag_163\n      jump\t// in\n    tag_245:\n        /* \"#utility.yul\":2375:2510   */\n      swap3\n      swap2\n      pop\n      pop\n      jump\t// out\n        /* \"#utility.yul\":2539:3290   */\n    tag_165:\n        /* \"#utility.yul\":2613:2618   */\n      0x00\n        /* \"#utility.yul\":2657:2661   */\n      0x60\n        /* \"#utility.yul\":2645:2654   */\n      dup3\n        /* \"#utility.yul\":2640:2643   */\n      dup5\n        /* \"#utility.yul\":2636:2655   */\n      sub\n        /* \"#utility.yul\":2632:2662   */\n      slt\n        /* \"#utility.yul\":2629:2746   */\n      iszero\n      tag_247\n      jumpi\n        /* \"#utility.yul\":2665:2744   */\n      tag_248\n      tag_156\n      jump\t// in\n    tag_248:\n        /* \"#utility.yul\":2629:2746   */\n    tag_247:\n        /* \"#utility.yul\":2764:2785   */\n      tag_249\n        /* \"#utility.yul\":2780:2784   */\n      0x60\n        /* \"#utility.yul\":2764:2785   */\n      tag_160\n      jump\t// in\n    tag_249:\n        /* \"#utility.yul\":2755:2785   */\n      swap1\n      pop\n        /* \"#utility.yul\":2850:2851   */\n      0x00\n        /* \"#utility.yul\":2890:2937   */\n      tag_250\n        /* \"#utility.yul\":2933:2936   */\n      dup5\n        /* \"#utility.yul\":2924:2930   */\n      dup3\n        /* \"#utility.yul\":2913:2922   */\n      dup6\n        /* \"#utility.yul\":2909:2931   */\n      add\n        /* \"#utility.yul\":2890:2937   */\n      tag_164\n      jump\t// in\n    tag_250:\n        /* \"#utility.yul\":2883:2887   */\n      0x00\n        /* \"#utility.yul\":2876:2881   */\n      dup4\n        /* \"#utility.yul\":2872:2888   */\n      add\n        /* \"#utility.yul\":2865:2938   */\n      mstore\n        /* \"#utility.yul\":2795:2949   */\n      pop\n        /* \"#utility.yul\":3016:3018   */\n      0x20\n        /* \"#utility.yul\":3057:3106   */\n      tag_251\n        /* \"#utility.yul\":3102:3105   */\n      dup5\n        /* \"#utility.yul\":3093:3099   */\n      dup3\n        /* \"#utility.yul\":3082:3091   */\n      dup6\n        /* \"#utility.yul\":3078:3100   */\n      add\n        /* \"#utility.yul\":3057:3106   */\n      tag_155\n      jump\t// in\n    tag_251:\n        /* \"#utility.yul\":3050:3054   */\n      0x20\n        /* \"#utility.yul\":3043:3048   */\n      dup4\n        /* \"#utility.yul\":3039:3055   */\n      add\n        /* \"#utility.yul\":3032:3107   */\n      mstore\n        /* \"#utility.yul\":2959:3118   */\n      pop\n        /* \"#utility.yul\":3181:3183   */\n      0x40\n        /* \"#utility.yul\":3222:3271   */\n      tag_252\n        /* \"#utility.yul\":3267:3270   */\n      dup5\n        /* \"#utility.yul\":3258:3264   */\n      dup3\n        /* \"#utility.yul\":3247:3256   */\n      dup6\n        /* \"#utility.yul\":3243:3265   */\n      add\n        /* \"#utility.yul\":3222:3271   */\n      tag_155\n      jump\t// in\n    tag_252:\n        /* \"#utility.yul\":3215:3219   */\n      0x40\n        /* \"#utility.yul\":3208:3213   */\n      dup4\n        /* \"#utility.yul\":3204:3220   */\n      add\n        /* \"#utility.yul\":3197:3272   */\n      mstore\n        /* \"#utility.yul\":3128:3283   */\n      pop\n        /* \"#utility.yul\":2539:3290   */\n      swap3\n      swap2\n      pop\n      pop\n      jump\t// out\n        /* \"#utility.yul\":3296:4308   */\n    tag_15:\n        /* \"#utility.yul\":3441:3447   */\n      0x00\n        /* \"#utility.yul\":3449:3455   */\n      dup1\n        /* \"#utility.yul\":3457:3463   */\n      0x00\n        /* \"#utility.yul\":3465:3471   */\n      dup1\n        /* \"#utility.yul\":3473:3479   */\n      0x00\n        /* \"#utility.yul\":3522:3525   */\n      0x0120\n        /* \"#utility.yul\":3510:3519   */\n      dup7\n        /* \"#utility.yul\":3501:3508   */\n      dup9\n        /* \"#utility.yul\":3497:3520   */\n      sub\n        /* \"#utility.yul\":3493:3526   */\n      slt\n        /* \"#utility.yul\":3490:3610   */\n      iszero\n      tag_254\n      jumpi\n        /* \"#utility.yul\":3529:3608   */\n      tag_255\n      tag_147\n      jump\t// in\n    tag_255:\n        /* \"#utility.yul\":3490:3610   */\n    tag_254:\n        /* \"#utility.yul\":3649:3650   */\n      0x00\n        /* \"#utility.yul\":3674:3727   */\n      tag_256\n        /* \"#utility.yul\":3719:3726   */\n      dup9\n        /* \"#utility.yul\":3710:3716   */\n      dup3\n        /* \"#utility.yul\":3699:3708   */\n      dup10\n        /* \"#utility.yul\":3695:3717   */\n      add\n        /* \"#utility.yul\":3674:3727   */\n      tag_152\n      jump\t// in\n    tag_256:\n        /* \"#utility.yul\":3664:3727   */\n      swap6\n      pop\n        /* \"#utility.yul\":3620:3737   */\n      pop\n        /* \"#utility.yul\":3776:3778   */\n      0x20\n        /* \"#utility.yul\":3802:3855   */\n      tag_257\n        /* \"#utility.yul\":3847:3854   */\n      dup9\n        /* \"#utility.yul\":3838:3844   */\n      dup3\n        /* \"#utility.yul\":3827:3836   */\n      dup10\n        /* \"#utility.yul\":3823:3845   */\n      add\n        /* \"#utility.yul\":3802:3855   */\n      tag_155\n      jump\t// in\n    tag_257:\n        /* \"#utility.yul\":3792:3855   */\n      swap5\n      pop\n        /* \"#utility.yul\":3747:3865   */\n      pop\n        /* \"#utility.yul\":3904:3906   */\n      0x40\n        /* \"#utility.yul\":3930:4008   */\n      tag_258\n        /* \"#utility.yul\":4000:4007   */\n      dup9\n        /* \"#utility.yul\":3991:3997   */\n      dup3\n        /* \"#utility.yul\":3980:3989   */\n      dup10\n        /* \"#utility.yul\":3976:3998   */\n      add\n        /* \"#utility.yul\":3930:4008   */\n      tag_165\n      jump\t// in\n    tag_258:\n        /* \"#utility.yul\":3920:4008   */\n      swap4\n      pop\n        /* \"#utility.yul\":3875:4018   */\n      pop\n        /* \"#utility.yul\":4057:4060   */\n      0xa0\n        /* \"#utility.yul\":4084:4162   */\n      tag_259\n        /* \"#utility.yul\":4154:4161   */\n      dup9\n        /* \"#utility.yul\":4145:4151   */\n      dup3\n        /* \"#utility.yul\":4134:4143   */\n      dup10\n        /* \"#utility.yul\":4130:4152   */\n      add\n        /* \"#utility.yul\":4084:4162   */\n      tag_165\n      jump\t// in\n    tag_259:\n        /* \"#utility.yul\":4074:4162   */\n      swap3\n      pop\n        /* \"#utility.yul\":4028:4172   */\n      pop\n        /* \"#utility.yul\":4211:4214   */\n      0x0100\n        /* \"#utility.yul\":4238:4291   */\n      tag_260\n        /* \"#utility.yul\":4283:4290   */\n      dup9\n        /* \"#utility.yul\":4274:4280   */\n      dup3\n        /* \"#utility.yul\":4263:4272   */\n      dup10\n        /* \"#utility.yul\":4259:4281   */\n      add\n        /* \"#utility.yul\":4238:4291   */\n      tag_152\n      jump\t// in\n    tag_260:\n        /* \"#utility.yul\":4228:4291   */\n      swap2\n      pop\n        /* \"#utility.yul\":4182:4301   */\n      pop\n        /* \"#utility.yul\":3296:4308   */\n      swap3\n      swap6\n      pop\n      swap3\n      swap6\n      swap1\n      swap4\n      pop\n      jump\t// out\n        /* \"#utility.yul\":4314:4933   */\n    tag_19:\n        /* \"#utility.yul\":4391:4397   */\n      0x00\n        /* \"#utility.yul\":4399:4405   */\n      dup1\n        /* \"#utility.yul\":4407:4413   */\n      0x00\n        /* \"#utility.yul\":4456:4458   */\n      0x60\n        /* \"#utility.yul\":4444:4453   */\n      dup5\n        /* \"#utility.yul\":4435:4442   */\n      dup7\n        /* \"#utility.yul\":4431:4454   */\n      sub\n        /* \"#utility.yul\":4427:4459   */\n      slt\n        /* \"#utility.yul\":4424:4543   */\n      iszero\n      tag_262\n      jumpi\n        /* \"#utility.yul\":4462:4541   */\n      tag_263\n      tag_147\n      jump\t// in\n    tag_263:\n        /* \"#utility.yul\":4424:4543   */\n    tag_262:\n        /* \"#utility.yul\":4582:4583   */\n      0x00\n        /* \"#utility.yul\":4607:4660   */\n      tag_264\n        /* \"#utility.yul\":4652:4659   */\n      dup7\n        /* \"#utility.yul\":4643:4649   */\n      dup3\n        /* \"#utility.yul\":4632:4641   */\n      dup8\n        /* \"#utility.yul\":4628:4650   */\n      add\n        /* \"#utility.yul\":4607:4660   */\n      tag_152\n      jump\t// in\n    tag_264:\n        /* \"#utility.yul\":4597:4660   */\n      swap4\n      pop\n        /* \"#utility.yul\":4553:4670   */\n      pop\n        /* \"#utility.yul\":4709:4711   */\n      0x20\n        /* \"#utility.yul\":4735:4788   */\n      tag_265\n        /* \"#utility.yul\":4780:4787   */\n      dup7\n        /* \"#utility.yul\":4771:4777   */\n      dup3\n        /* \"#utility.yul\":4760:4769   */\n      dup8\n        /* \"#utility.yul\":4756:4778   */\n      add\n        /* \"#utility.yul\":4735:4788   */\n      tag_155\n      jump\t// in\n    tag_265:\n        /* \"#utility.yul\":4725:4788   */\n      swap3\n      pop\n        /* \"#utility.yul\":4680:4798   */\n      pop\n        /* \"#utility.yul\":4837:4839   */\n      0x40\n        /* \"#utility.yul\":4863:4916   */\n      tag_266\n        /* \"#utility.yul\":4908:4915   */\n      dup7\n        /* \"#utility.yul\":4899:4905   */\n      dup3\n        /* \"#utility.yul\":4888:4897   */\n      dup8\n        /* \"#utility.yul\":4884:4906   */\n      add\n        /* \"#utility.yul\":4863:4916   */\n      tag_155\n      jump\t// in\n    tag_266:\n        /* \"#utility.yul\":4853:4916   */\n      swap2\n      pop\n        /* \"#utility.yul\":4808:4926   */\n      pop\n        /* \"#utility.yul\":4314:4933   */\n      swap3\n      pop\n      swap3\n      pop\n      swap3\n      jump\t// out\n        /* \"#utility.yul\":4939:4999   */\n    tag_166:\n        /* \"#utility.yul\":4967:4970   */\n      0x00\n        /* \"#utility.yul\":4988:4993   */\n      dup2\n        /* \"#utility.yul\":4981:4993   */\n      swap1\n      pop\n        /* \"#utility.yul\":4939:4999   */\n      swap2\n      swap1\n      pop\n      jump\t// out\n        /* \"#utility.yul\":5005:5147   */\n    tag_167:\n        /* \"#utility.yul\":5055:5064   */\n      0x00\n        /* \"#utility.yul\":5088:5141   */\n      tag_269\n        /* \"#utility.yul\":5106:5140   */\n      tag_270\n        /* \"#utility.yul\":5115:5139   */\n      tag_271\n        /* \"#utility.yul\":5133:5138   */\n      dup5\n        /* \"#utility.yul\":5115:5139   */\n      tag_149\n      jump\t// in\n    tag_271:\n        /* \"#utility.yul\":5106:5140   */\n      tag_166\n      jump\t// in\n    tag_270:\n        /* \"#utility.yul\":5088:5141   */\n      tag_149\n      jump\t// in\n    tag_269:\n        /* \"#utility.yul\":5075:5141   */\n      swap1\n      pop\n        /* \"#utility.yul\":5005:5147   */\n      swap2\n      swap1\n      pop\n      jump\t// out\n        /* \"#utility.yul\":5153:5279   */\n    tag_168:\n        /* \"#utility.yul\":5203:5212   */\n      0x00\n        /* \"#utility.yul\":5236:5273   */\n      tag_273\n        /* \"#utility.yul\":5267:5272   */\n      dup3\n        /* \"#utility.yul\":5236:5273   */\n      tag_167\n      jump\t// in\n    tag_273:\n        /* \"#utility.yul\":5223:5273   */\n      swap1\n      pop\n        /* \"#utility.yul\":5153:5279   */\n      swap2\n      swap1\n      pop\n      jump\t// out\n        /* \"#utility.yul\":5285:5432   */\n    tag_169:\n        /* \"#utility.yul\":5356:5365   */\n      0x00\n        /* \"#utility.yul\":5389:5426   */\n      tag_275\n        /* \"#utility.yul\":5420:5425   */\n      dup3\n        /* \"#utility.yul\":5389:5426   */\n      tag_168\n      jump\t// in\n    tag_275:\n        /* \"#utility.yul\":5376:5426   */\n      swap1\n      pop\n        /* \"#utility.yul\":5285:5432   */\n      swap2\n      swap1\n      pop\n      jump\t// out\n        /* \"#utility.yul\":5438:5611   */\n    tag_170:\n        /* \"#utility.yul\":5546:5604   */\n      tag_277\n        /* \"#utility.yul\":5598:5603   */\n      dup2\n        /* \"#utility.yul\":5546:5604   */\n      tag_169\n      jump\t// in\n    tag_277:\n        /* \"#utility.yul\":5541:5544   */\n      dup3\n        /* \"#utility.yul\":5534:5605   */\n      mstore\n        /* \"#utility.yul\":5438:5611   */\n      pop\n      pop\n      jump\t// out\n        /* \"#utility.yul\":5617:5881   */\n    tag_25:\n        /* \"#utility.yul\":5731:5735   */\n      0x00\n        /* \"#utility.yul\":5769:5771   */\n      0x20\n        /* \"#utility.yul\":5758:5767   */\n      dup3\n        /* \"#utility.yul\":5754:5772   */\n      add\n        /* \"#utility.yul\":5746:5772   */\n      swap1\n      pop\n        /* \"#utility.yul\":5782:5874   */\n      tag_279\n        /* \"#utility.yul\":5871:5872   */\n      0x00\n        /* \"#utility.yul\":5860:5869   */\n      dup4\n        /* \"#utility.yul\":5856:5873   */\n      add\n        /* \"#utility.yul\":5847:5853   */\n      dup5\n        /* \"#utility.yul\":5782:5874   */\n      tag_170\n      jump\t// in\n    tag_279:\n        /* \"#utility.yul\":5617:5881   */\n      swap3\n      swap2\n      pop\n      pop\n      jump\t// out\n        /* \"#utility.yul\":5887:5995   */\n    tag_171:\n        /* \"#utility.yul\":5964:5988   */\n      tag_281\n        /* \"#utility.yul\":5982:5987   */\n      dup2\n        /* \"#utility.yul\":5964:5988   */\n      tag_150\n      jump\t// in\n    tag_281:\n        /* \"#utility.yul\":5959:5962   */\n      dup3\n        /* \"#utility.yul\":5952:5989   */\n      mstore\n        /* \"#utility.yul\":5887:5995   */\n      pop\n      pop\n      jump\t// out\n        /* \"#utility.yul\":6001:6109   */\n    tag_172:\n        /* \"#utility.yul\":6078:6102   */\n      tag_283\n        /* \"#utility.yul\":6096:6101   */\n      dup2\n        /* \"#utility.yul\":6078:6102   */\n      tag_153\n      jump\t// in\n    tag_283:\n        /* \"#utility.yul\":6073:6076   */\n      dup3\n        /* \"#utility.yul\":6066:6103   */\n      mstore\n        /* \"#utility.yul\":6001:6109   */\n      pop\n      pop\n      jump\t// out\n        /* \"#utility.yul\":6167:7237   */\n    tag_173:\n        /* \"#utility.yul\":6324:6328   */\n      0xa0\n        /* \"#utility.yul\":6319:6322   */\n      dup3\n        /* \"#utility.yul\":6315:6329   */\n      add\n        /* \"#utility.yul\":6413:6417   */\n      0x00\n        /* \"#utility.yul\":6406:6411   */\n      dup3\n        /* \"#utility.yul\":6402:6418   */\n      add\n        /* \"#utility.yul\":6396:6419   */\n      mload\n        /* \"#utility.yul\":6432:6495   */\n      tag_285\n        /* \"#utility.yul\":6489:6493   */\n      0x00\n        /* \"#utility.yul\":6484:6487   */\n      dup6\n        /* \"#utility.yul\":6480:6494   */\n      add\n        /* \"#utility.yul\":6466:6478   */\n      dup3\n        /* \"#utility.yul\":6432:6495   */\n      tag_171\n      jump\t// in\n    tag_285:\n        /* \"#utility.yul\":6339:6505   */\n      pop\n        /* \"#utility.yul\":6594:6598   */\n      0x20\n        /* \"#utility.yul\":6587:6592   */\n      dup3\n        /* \"#utility.yul\":6583:6599   */\n      add\n        /* \"#utility.yul\":6577:6600   */\n      mload\n        /* \"#utility.yul\":6613:6676   */\n      tag_286\n        /* \"#utility.yul\":6670:6674   */\n      0x20\n        /* \"#utility.yul\":6665:6668   */\n      dup6\n        /* \"#utility.yul\":6661:6675   */\n      add\n        /* \"#utility.yul\":6647:6659   */\n      dup3\n        /* \"#utility.yul\":6613:6676   */\n      tag_171\n      jump\t// in\n    tag_286:\n        /* \"#utility.yul\":6515:6686   */\n      pop\n        /* \"#utility.yul\":6770:6774   */\n      0x40\n        /* \"#utility.yul\":6763:6768   */\n      dup3\n        /* \"#utility.yul\":6759:6775   */\n      add\n        /* \"#utility.yul\":6753:6776   */\n      mload\n        /* \"#utility.yul\":6789:6852   */\n      tag_287\n        /* \"#utility.yul\":6846:6850   */\n      0x40\n        /* \"#utility.yul\":6841:6844   */\n      dup6\n        /* \"#utility.yul\":6837:6851   */\n      add\n        /* \"#utility.yul\":6823:6835   */\n      dup3\n        /* \"#utility.yul\":6789:6852   */\n      tag_172\n      jump\t// in\n    tag_287:\n        /* \"#utility.yul\":6696:6862   */\n      pop\n        /* \"#utility.yul\":6952:6956   */\n      0x60\n        /* \"#utility.yul\":6945:6950   */\n      dup3\n        /* \"#utility.yul\":6941:6957   */\n      add\n        /* \"#utility.yul\":6935:6958   */\n      mload\n        /* \"#utility.yul\":6971:7034   */\n      tag_288\n        /* \"#utility.yul\":7028:7032   */\n      0x60\n        /* \"#utility.yul\":7023:7026   */\n      dup6\n        /* \"#utility.yul\":7019:7033   */\n      add\n        /* \"#utility.yul\":7005:7017   */\n      dup3\n        /* \"#utility.yul\":6971:7034   */\n      tag_172\n      jump\t// in\n    tag_288:\n        /* \"#utility.yul\":6872:7044   */\n      pop\n        /* \"#utility.yul\":7138:7142   */\n      0x80\n        /* \"#utility.yul\":7131:7136   */\n      dup3\n        /* \"#utility.yul\":7127:7143   */\n      add\n        /* \"#utility.yul\":7121:7144   */\n      mload\n        /* \"#utility.yul\":7157:7220   */\n      tag_289\n        /* \"#utility.yul\":7214:7218   */\n      0x80\n        /* \"#utility.yul\":7209:7212   */\n      dup6\n        /* \"#utility.yul\":7205:7219   */\n      add\n        /* \"#utility.yul\":7191:7203   */\n      dup3\n        /* \"#utility.yul\":7157:7220   */\n      tag_172\n      jump\t// in\n    tag_289:\n        /* \"#utility.yul\":7054:7230   */\n      pop\n        /* \"#utility.yul\":6293:7237   */\n      pop\n        /* \"#utility.yul\":6167:7237   */\n      pop\n      pop\n      jump\t// out\n        /* \"#utility.yul\":7243:7333   */\n    tag_174:\n        /* \"#utility.yul\":7277:7284   */\n      0x00\n        /* \"#utility.yul\":7320:7325   */\n      dup2\n        /* \"#utility.yul\":7313:7326   */\n      iszero\n        /* \"#utility.yul\":7306:7327   */\n      iszero\n        /* \"#utility.yul\":7295:7327   */\n      swap1\n      pop\n        /* \"#utility.yul\":7243:7333   */\n      swap2\n      swap1\n      pop\n      jump\t// out\n        /* \"#utility.yul\":7339:7448   */\n    tag_175:\n        /* \"#utility.yul\":7420:7441   */\n      tag_292\n        /* \"#utility.yul\":7435:7440   */\n      dup2\n        /* \"#utility.yul\":7420:7441   */\n      tag_174\n      jump\t// in\n    tag_292:\n        /* \"#utility.yul\":7415:7418   */\n      dup3\n        /* \"#utility.yul\":7408:7442   */\n      mstore\n        /* \"#utility.yul\":7339:7448   */\n      pop\n      pop\n      jump\t// out\n        /* \"#utility.yul\":7454:7896   */\n    tag_33:\n        /* \"#utility.yul\":7629:7633   */\n      0x00\n        /* \"#utility.yul\":7667:7670   */\n      0xc0\n        /* \"#utility.yul\":7656:7665   */\n      dup3\n        /* \"#utility.yul\":7652:7671   */\n      add\n        /* \"#utility.yul\":7644:7671   */\n      swap1\n      pop\n        /* \"#utility.yul\":7681:7812   */\n      tag_294\n        /* \"#utility.yul\":7809:7810   */\n      0x00\n        /* \"#utility.yul\":7798:7807   */\n      dup4\n        /* \"#utility.yul\":7794:7811   */\n      add\n        /* \"#utility.yul\":7785:7791   */\n      dup6\n        /* \"#utility.yul\":7681:7812   */\n      tag_173\n      jump\t// in\n    tag_294:\n        /* \"#utility.yul\":7822:7889   */\n      tag_295\n        /* \"#utility.yul\":7884:7887   */\n      0xa0\n        /* \"#utility.yul\":7873:7882   */\n      dup4\n        /* \"#utility.yul\":7869:7888   */\n      add\n        /* \"#utility.yul\":7860:7866   */\n      dup5\n        /* \"#utility.yul\":7822:7889   */\n      tag_175\n      jump\t// in\n    tag_295:\n        /* \"#utility.yul\":7454:7896   */\n      swap4\n      swap3\n      pop\n      pop\n      pop\n      jump\t// out\n        /* \"#utility.yul\":7902:8231   */\n    tag_37:\n        /* \"#utility.yul\":7961:7967   */\n      0x00\n        /* \"#utility.yul\":8010:8012   */\n      0x20\n        /* \"#utility.yul\":7998:8007   */\n      dup3\n        /* \"#utility.yul\":7989:7996   */\n      dup5\n        /* \"#utility.yul\":7985:8008   */\n      sub\n        /* \"#utility.yul\":7981:8013   */\n      slt\n        /* \"#utility.yul\":7978:8097   */\n      iszero\n      tag_297\n      jumpi\n        /* \"#utility.yul\":8016:8095   */\n      tag_298\n      tag_147\n      jump\t// in\n    tag_298:\n        /* \"#utility.yul\":7978:8097   */\n    tag_297:\n        /* \"#utility.yul\":8136:8137   */\n      0x00\n        /* \"#utility.yul\":8161:8214   */\n      tag_299\n        /* \"#utility.yul\":8206:8213   */\n      dup5\n        /* \"#utility.yul\":8197:8203   */\n      dup3\n        /* \"#utility.yul\":8186:8195   */\n      dup6\n        /* \"#utility.yul\":8182:8204   */\n      add\n        /* \"#utility.yul\":8161:8214   */\n      tag_155\n      jump\t// in\n    tag_299:\n        /* \"#utility.yul\":8151:8214   */\n      swap2\n      pop\n        /* \"#utility.yul\":8107:8224   */\n      pop\n        /* \"#utility.yul\":7902:8231   */\n      swap3\n      swap2\n      pop\n      pop\n      jump\t// out\n        /* \"#utility.yul\":8237:8355   */\n    tag_176:\n        /* \"#utility.yul\":8324:8348   */\n      tag_301\n        /* \"#utility.yul\":8342:8347   */\n      dup2\n        /* \"#utility.yul\":8324:8348   */\n      tag_150\n      jump\t// in\n    tag_301:\n        /* \"#utility.yul\":8319:8322   */\n      dup3\n        /* \"#utility.yul\":8312:8349   */\n      mstore\n        /* \"#utility.yul\":8237:8355   */\n      pop\n      pop\n      jump\t// out\n        /* \"#utility.yul\":8361:8583   */\n    tag_46:\n        /* \"#utility.yul\":8454:8458   */\n      0x00\n        /* \"#utility.yul\":8492:8494   */\n      0x20\n        /* \"#utility.yul\":8481:8490   */\n      dup3\n        /* \"#utility.yul\":8477:8495   */\n      add\n        /* \"#utility.yul\":8469:8495   */\n      swap1\n      pop\n        /* \"#utility.yul\":8505:8576   */\n      tag_303\n        /* \"#utility.yul\":8573:8574   */\n      0x00\n        /* \"#utility.yul\":8562:8571   */\n      dup4\n        /* \"#utility.yul\":8558:8575   */\n      add\n        /* \"#utility.yul\":8549:8555   */\n      dup5\n        /* \"#utility.yul\":8505:8576   */\n      tag_176\n      jump\t// in\n    tag_303:\n        /* \"#utility.yul\":8361:8583   */\n      swap3\n      swap2\n      pop\n      pop\n      jump\t// out\n        /* \"#utility.yul\":8589:8918   */\n    tag_50:\n        /* \"#utility.yul\":8648:8654   */\n      0x00\n        /* \"#utility.yul\":8697:8699   */\n      0x20\n        /* \"#utility.yul\":8685:8694   */\n      dup3\n        /* \"#utility.yul\":8676:8683   */\n      dup5\n        /* \"#utility.yul\":8672:8695   */\n      sub\n        /* \"#utility.yul\":8668:8700   */\n      slt\n        /* \"#utility.yul\":8665:8784   */\n      iszero\n      tag_305\n      jumpi\n        /* \"#utility.yul\":8703:8782   */\n      tag_306\n      tag_147\n      jump\t// in\n    tag_306:\n        /* \"#utility.yul\":8665:8784   */\n    tag_305:\n        /* \"#utility.yul\":8823:8824   */\n      0x00\n        /* \"#utility.yul\":8848:8901   */\n      tag_307\n        /* \"#utility.yul\":8893:8900   */\n      dup5\n        /* \"#utility.yul\":8884:8890   */\n      dup3\n        /* \"#utility.yul\":8873:8882   */\n      dup6\n        /* \"#utility.yul\":8869:8891   */\n      add\n        /* \"#utility.yul\":8848:8901   */\n      tag_152\n      jump\t// in\n    tag_307:\n        /* \"#utility.yul\":8838:8901   */\n      swap2\n      pop\n        /* \"#utility.yul\":8794:8911   */\n      pop\n        /* \"#utility.yul\":8589:8918   */\n      swap3\n      swap2\n      pop\n      pop\n      jump\t// out\n        /* \"#utility.yul\":8924:9093   */\n    tag_177:\n        /* \"#utility.yul\":9008:9019   */\n      0x00\n        /* \"#utility.yul\":9042:9048   */\n      dup3\n        /* \"#utility.yul\":9037:9040   */\n      dup3\n        /* \"#utility.yul\":9030:9049   */\n      mstore\n        /* \"#utility.yul\":9082:9086   */\n      0x20\n        /* \"#utility.yul\":9077:9080   */\n      dup3\n        /* \"#utility.yul\":9073:9087   */\n      add\n        /* \"#utility.yul\":9058:9087   */\n      swap1\n      pop\n        /* \"#utility.yul\":8924:9093   */\n      swap3\n      swap2\n      pop\n      pop\n      jump\t// out\n        /* \"#utility.yul\":9099:9270   */\n    tag_178:\n        /* \"#utility.yul\":9239:9262   */\n      0x4e6f207265717565737420746f2070726f636573730000000000000000000000\n        /* \"#utility.yul\":9235:9236   */\n      0x00\n        /* \"#utility.yul\":9227:9233   */\n      dup3\n        /* \"#utility.yul\":9223:9237   */\n      add\n        /* \"#utility.yul\":9216:9263   */\n      mstore\n        /* \"#utility.yul\":9099:9270   */\n      pop\n      jump\t// out\n        /* \"#utility.yul\":9276:9642   */\n    tag_179:\n        /* \"#utility.yul\":9418:9421   */\n      0x00\n        /* \"#utility.yul\":9439:9506   */\n      tag_311\n        /* \"#utility.yul\":9503:9505   */\n      0x15\n        /* \"#utility.yul\":9498:9501   */\n      dup4\n        /* \"#utility.yul\":9439:9506   */\n      tag_177\n      jump\t// in\n    tag_311:\n        /* \"#utility.yul\":9432:9506   */\n      swap2\n      pop\n        /* \"#utility.yul\":9515:9608   */\n      tag_312\n        /* \"#utility.yul\":9604:9607   */\n      dup3\n        /* \"#utility.yul\":9515:9608   */\n      tag_178\n      jump\t// in\n    tag_312:\n        /* \"#utility.yul\":9633:9635   */\n      0x20\n        /* \"#utility.yul\":9628:9631   */\n      dup3\n        /* \"#utility.yul\":9624:9636   */\n      add\n        /* \"#utility.yul\":9617:9636   */\n      swap1\n      pop\n        /* \"#utility.yul\":9276:9642   */\n      swap2\n      swap1\n      pop\n      jump\t// out\n        /* \"#utility.yul\":9648:10067   */\n    tag_63:\n        /* \"#utility.yul\":9814:9818   */\n      0x00\n        /* \"#utility.yul\":9852:9854   */\n      0x20\n        /* \"#utility.yul\":9841:9850   */\n      dup3\n        /* \"#utility.yul\":9837:9855   */\n      add\n        /* \"#utility.yul\":9829:9855   */\n      swap1\n      pop\n        /* \"#utility.yul\":9901:9910   */\n      dup2\n        /* \"#utility.yul\":9895:9899   */\n      dup2\n        /* \"#utility.yul\":9891:9911   */\n      sub\n        /* \"#utility.yul\":9887:9888   */\n      0x00\n        /* \"#utility.yul\":9876:9885   */\n      dup4\n        /* \"#utility.yul\":9872:9889   */\n      add\n        /* \"#utility.yul\":9865:9912   */\n      mstore\n        /* \"#utility.yul\":9929:10060   */\n      tag_314\n        /* \"#utility.yul\":10055:10059   */\n      dup2\n        /* \"#utility.yul\":9929:10060   */\n      tag_179\n      jump\t// in\n    tag_314:\n        /* \"#utility.yul\":9921:10060   */\n      swap1\n      pop\n        /* \"#utility.yul\":9648:10067   */\n      swap2\n      swap1\n      pop\n      jump\t// out\n        /* \"#utility.yul\":10073:10255   */\n    tag_180:\n        /* \"#utility.yul\":10213:10247   */\n      0x426f6e646572206665652063616e6e6f742065786365656420616d6f756e742e\n        /* \"#utility.yul\":10209:10210   */\n      0x00\n        /* \"#utility.yul\":10201:10207   */\n      dup3\n        /* \"#utility.yul\":10197:10211   */\n      add\n        /* \"#utility.yul\":10190:10248   */\n      mstore\n        /* \"#utility.yul\":10073:10255   */\n      pop\n      jump\t// out\n        /* \"#utility.yul\":10261:10627   */\n    tag_181:\n        /* \"#utility.yul\":10403:10406   */\n      0x00\n        /* \"#utility.yul\":10424:10491   */\n      tag_317\n        /* \"#utility.yul\":10488:10490   */\n      0x20\n        /* \"#utility.yul\":10483:10486   */\n      dup4\n        /* \"#utility.yul\":10424:10491   */\n      tag_177\n      jump\t// in\n    tag_317:\n        /* \"#utility.yul\":10417:10491   */\n      swap2\n      pop\n        /* \"#utility.yul\":10500:10593   */\n      tag_318\n        /* \"#utility.yul\":10589:10592   */\n      dup3\n        /* \"#utility.yul\":10500:10593   */\n      tag_180\n      jump\t// in\n    tag_318:\n        /* \"#utility.yul\":10618:10620   */\n      0x20\n        /* \"#utility.yul\":10613:10616   */\n      dup3\n        /* \"#utility.yul\":10609:10621   */\n      add\n        /* \"#utility.yul\":10602:10621   */\n      swap1\n      pop\n        /* \"#utility.yul\":10261:10627   */\n      swap2\n      swap1\n      pop\n      jump\t// out\n        /* \"#utility.yul\":10633:11052   */\n    tag_66:\n        /* \"#utility.yul\":10799:10803   */\n      0x00\n        /* \"#utility.yul\":10837:10839   */\n      0x20\n        /* \"#utility.yul\":10826:10835   */\n      dup3\n        /* \"#utility.yul\":10822:10840   */\n      add\n        /* \"#utility.yul\":10814:10840   */\n      swap1\n      pop\n        /* \"#utility.yul\":10886:10895   */\n      dup2\n        /* \"#utility.yul\":10880:10884   */\n      dup2\n        /* \"#utility.yul\":10876:10896   */\n      sub\n        /* \"#utility.yul\":10872:10873   */\n      0x00\n        /* \"#utility.yul\":10861:10870   */\n      dup4\n        /* \"#utility.yul\":10857:10874   */\n      add\n        /* \"#utility.yul\":10850:10897   */\n      mstore\n        /* \"#utility.yul\":10914:11045   */\n      tag_320\n        /* \"#utility.yul\":11040:11044   */\n      dup2\n        /* \"#utility.yul\":10914:11045   */\n      tag_181\n      jump\t// in\n    tag_320:\n        /* \"#utility.yul\":10906:11045   */\n      swap1\n      pop\n        /* \"#utility.yul\":10633:11052   */\n      swap2\n      swap1\n      pop\n      jump\t// out\n        /* \"#utility.yul\":11058:11233   */\n    tag_182:\n        /* \"#utility.yul\":11198:11225   */\n      0x4661696c656420746f20726566756e64206578656375746f7200000000000000\n        /* \"#utility.yul\":11194:11195   */\n      0x00\n        /* \"#utility.yul\":11186:11192   */\n      dup3\n        /* \"#utility.yul\":11182:11196   */\n      add\n        /* \"#utility.yul\":11175:11226   */\n      mstore\n        /* \"#utility.yul\":11058:11233   */\n      pop\n      jump\t// out\n        /* \"#utility.yul\":11239:11605   */\n    tag_183:\n        /* \"#utility.yul\":11381:11384   */\n      0x00\n        /* \"#utility.yul\":11402:11469   */\n      tag_323\n        /* \"#utility.yul\":11466:11468   */\n      0x19\n        /* \"#utility.yul\":11461:11464   */\n      dup4\n        /* \"#utility.yul\":11402:11469   */\n      tag_177\n      jump\t// in\n    tag_323:\n        /* \"#utility.yul\":11395:11469   */\n      swap2\n      pop\n        /* \"#utility.yul\":11478:11571   */\n      tag_324\n        /* \"#utility.yul\":11567:11570   */\n      dup3\n        /* \"#utility.yul\":11478:11571   */\n      tag_182\n      jump\t// in\n    tag_324:\n        /* \"#utility.yul\":11596:11598   */\n      0x20\n        /* \"#utility.yul\":11591:11594   */\n      dup3\n        /* \"#utility.yul\":11587:11599   */\n      add\n        /* \"#utility.yul\":11580:11599   */\n      swap1\n      pop\n        /* \"#utility.yul\":11239:11605   */\n      swap2\n      swap1\n      pop\n      jump\t// out\n        /* \"#utility.yul\":11611:12030   */\n    tag_70:\n        /* \"#utility.yul\":11777:11781   */\n      0x00\n        /* \"#utility.yul\":11815:11817   */\n      0x20\n        /* \"#utility.yul\":11804:11813   */\n      dup3\n        /* \"#utility.yul\":11800:11818   */\n      add\n        /* \"#utility.yul\":11792:11818   */\n      swap1\n      pop\n        /* \"#utility.yul\":11864:11873   */\n      dup2\n        /* \"#utility.yul\":11858:11862   */\n      dup2\n        /* \"#utility.yul\":11854:11874   */\n      sub\n        /* \"#utility.yul\":11850:11851   */\n      0x00\n        /* \"#utility.yul\":11839:11848   */\n      dup4\n        /* \"#utility.yul\":11835:11852   */\n      add\n        /* \"#utility.yul\":11828:11875   */\n      mstore\n        /* \"#utility.yul\":11892:12023   */\n      tag_326\n        /* \"#utility.yul\":12018:12022   */\n      dup2\n        /* \"#utility.yul\":11892:12023   */\n      tag_183\n      jump\t// in\n    tag_326:\n        /* \"#utility.yul\":11884:12023   */\n      swap1\n      pop\n        /* \"#utility.yul\":11611:12030   */\n      swap2\n      swap1\n      pop\n      jump\t// out\n        /* \"#utility.yul\":12036:12121   */\n    tag_184:\n        /* \"#utility.yul\":12081:12088   */\n      0x00\n        /* \"#utility.yul\":12110:12115   */\n      dup2\n        /* \"#utility.yul\":12099:12115   */\n      swap1\n      pop\n        /* \"#utility.yul\":12036:12121   */\n      swap2\n      swap1\n      pop\n      jump\t// out\n        /* \"#utility.yul\":12127:12285   */\n    tag_185:\n        /* \"#utility.yul\":12185:12194   */\n      0x00\n        /* \"#utility.yul\":12218:12279   */\n      tag_329\n        /* \"#utility.yul\":12236:12278   */\n      tag_330\n        /* \"#utility.yul\":12245:12277   */\n      tag_331\n        /* \"#utility.yul\":12271:12276   */\n      dup5\n        /* \"#utility.yul\":12245:12277   */\n      tag_184\n      jump\t// in\n    tag_331:\n        /* \"#utility.yul\":12236:12278   */\n      tag_166\n      jump\t// in\n    tag_330:\n        /* \"#utility.yul\":12218:12279   */\n      tag_153\n      jump\t// in\n    tag_329:\n        /* \"#utility.yul\":12205:12279   */\n      swap1\n      pop\n        /* \"#utility.yul\":12127:12285   */\n      swap2\n      swap1\n      pop\n      jump\t// out\n        /* \"#utility.yul\":12291:12438   */\n    tag_186:\n        /* \"#utility.yul\":12386:12431   */\n      tag_333\n        /* \"#utility.yul\":12425:12430   */\n      dup2\n        /* \"#utility.yul\":12386:12431   */\n      tag_185\n      jump\t// in\n    tag_333:\n        /* \"#utility.yul\":12381:12384   */\n      dup3\n        /* \"#utility.yul\":12374:12432   */\n      mstore\n        /* \"#utility.yul\":12291:12438   */\n      pop\n      pop\n      jump\t// out\n        /* \"#utility.yul\":12444:12562   */\n    tag_187:\n        /* \"#utility.yul\":12531:12555   */\n      tag_335\n        /* \"#utility.yul\":12549:12554   */\n      dup2\n        /* \"#utility.yul\":12531:12555   */\n      tag_153\n      jump\t// in\n    tag_335:\n        /* \"#utility.yul\":12526:12529   */\n      dup3\n        /* \"#utility.yul\":12519:12556   */\n      mstore\n        /* \"#utility.yul\":12444:12562   */\n      pop\n      pop\n      jump\t// out\n        /* \"#utility.yul\":12568:12670   */\n    tag_188:\n        /* \"#utility.yul\":12641:12663   */\n      tag_337\n        /* \"#utility.yul\":12657:12662   */\n      dup2\n        /* \"#utility.yul\":12641:12663   */\n      tag_162\n      jump\t// in\n    tag_337:\n        /* \"#utility.yul\":12636:12639   */\n      dup3\n        /* \"#utility.yul\":12629:12664   */\n      mstore\n        /* \"#utility.yul\":12568:12670   */\n      pop\n      pop\n      jump\t// out\n        /* \"#utility.yul\":12718:13413   */\n    tag_189:\n        /* \"#utility.yul\":12865:12869   */\n      0x60\n        /* \"#utility.yul\":12860:12863   */\n      dup3\n        /* \"#utility.yul\":12856:12870   */\n      add\n        /* \"#utility.yul\":12958:12962   */\n      0x00\n        /* \"#utility.yul\":12951:12956   */\n      dup3\n        /* \"#utility.yul\":12947:12963   */\n      add\n        /* \"#utility.yul\":12941:12964   */\n      mload\n        /* \"#utility.yul\":12977:13036   */\n      tag_339\n        /* \"#utility.yul\":13030:13034   */\n      0x00\n        /* \"#utility.yul\":13025:13028   */\n      dup6\n        /* \"#utility.yul\":13021:13035   */\n      add\n        /* \"#utility.yul\":13007:13019   */\n      dup3\n        /* \"#utility.yul\":12977:13036   */\n      tag_188\n      jump\t// in\n    tag_339:\n        /* \"#utility.yul\":12880:13046   */\n      pop\n        /* \"#utility.yul\":13136:13140   */\n      0x20\n        /* \"#utility.yul\":13129:13134   */\n      dup3\n        /* \"#utility.yul\":13125:13141   */\n      add\n        /* \"#utility.yul\":13119:13142   */\n      mload\n        /* \"#utility.yul\":13155:13218   */\n      tag_340\n        /* \"#utility.yul\":13212:13216   */\n      0x20\n        /* \"#utility.yul\":13207:13210   */\n      dup6\n        /* \"#utility.yul\":13203:13217   */\n      add\n        /* \"#utility.yul\":13189:13201   */\n      dup3\n        /* \"#utility.yul\":13155:13218   */\n      tag_172\n      jump\t// in\n    tag_340:\n        /* \"#utility.yul\":13056:13228   */\n      pop\n        /* \"#utility.yul\":13314:13318   */\n      0x40\n        /* \"#utility.yul\":13307:13312   */\n      dup3\n        /* \"#utility.yul\":13303:13319   */\n      add\n        /* \"#utility.yul\":13297:13320   */\n      mload\n        /* \"#utility.yul\":13333:13396   */\n      tag_341\n        /* \"#utility.yul\":13390:13394   */\n      0x40\n        /* \"#utility.yul\":13385:13388   */\n      dup6\n        /* \"#utility.yul\":13381:13395   */\n      add\n        /* \"#utility.yul\":13367:13379   */\n      dup3\n        /* \"#utility.yul\":13333:13396   */\n      tag_172\n      jump\t// in\n    tag_341:\n        /* \"#utility.yul\":13238:13406   */\n      pop\n        /* \"#utility.yul\":12834:13413   */\n      pop\n        /* \"#utility.yul\":12718:13413   */\n      pop\n      pop\n      jump\t// out\n        /* \"#utility.yul\":13419:14521   */\n    tag_72:\n        /* \"#utility.yul\":13788:13792   */\n      0x00\n        /* \"#utility.yul\":13826:13829   */\n      0x0160\n        /* \"#utility.yul\":13815:13824   */\n      dup3\n        /* \"#utility.yul\":13811:13830   */\n      add\n        /* \"#utility.yul\":13803:13830   */\n      swap1\n      pop\n        /* \"#utility.yul\":13840:13919   */\n      tag_343\n        /* \"#utility.yul\":13916:13917   */\n      0x00\n        /* \"#utility.yul\":13905:13914   */\n      dup4\n        /* \"#utility.yul\":13901:13918   */\n      add\n        /* \"#utility.yul\":13892:13898   */\n      dup11\n        /* \"#utility.yul\":13840:13919   */\n      tag_186\n      jump\t// in\n    tag_343:\n        /* \"#utility.yul\":13929:14001   */\n      tag_344\n        /* \"#utility.yul\":13997:13999   */\n      0x20\n        /* \"#utility.yul\":13986:13995   */\n      dup4\n        /* \"#utility.yul\":13982:14000   */\n      add\n        /* \"#utility.yul\":13973:13979   */\n      dup10\n        /* \"#utility.yul\":13929:14001   */\n      tag_176\n      jump\t// in\n    tag_344:\n        /* \"#utility.yul\":14011:14083   */\n      tag_345\n        /* \"#utility.yul\":14079:14081   */\n      0x40\n        /* \"#utility.yul\":14068:14077   */\n      dup4\n        /* \"#utility.yul\":14064:14082   */\n      add\n        /* \"#utility.yul\":14055:14061   */\n      dup9\n        /* \"#utility.yul\":14011:14083   */\n      tag_187\n      jump\t// in\n    tag_345:\n        /* \"#utility.yul\":14093:14165   */\n      tag_346\n        /* \"#utility.yul\":14161:14163   */\n      0x60\n        /* \"#utility.yul\":14150:14159   */\n      dup4\n        /* \"#utility.yul\":14146:14164   */\n      add\n        /* \"#utility.yul\":14137:14143   */\n      dup8\n        /* \"#utility.yul\":14093:14165   */\n      tag_187\n      jump\t// in\n    tag_346:\n        /* \"#utility.yul\":14175:14298   */\n      tag_347\n        /* \"#utility.yul\":14293:14296   */\n      0x80\n        /* \"#utility.yul\":14282:14291   */\n      dup4\n        /* \"#utility.yul\":14278:14297   */\n      add\n        /* \"#utility.yul\":14269:14275   */\n      dup7\n        /* \"#utility.yul\":14175:14298   */\n      tag_189\n      jump\t// in\n    tag_347:\n        /* \"#utility.yul\":14308:14431   */\n      tag_348\n        /* \"#utility.yul\":14426:14429   */\n      0xe0\n        /* \"#utility.yul\":14415:14424   */\n      dup4\n        /* \"#utility.yul\":14411:14430   */\n      add\n        /* \"#utility.yul\":14402:14408   */\n      dup6\n        /* \"#utility.yul\":14308:14431   */\n      tag_189\n      jump\t// in\n    tag_348:\n        /* \"#utility.yul\":14441:14514   */\n      tag_349\n        /* \"#utility.yul\":14509:14512   */\n      0x0140\n        /* \"#utility.yul\":14498:14507   */\n      dup4\n        /* \"#utility.yul\":14494:14513   */\n      add\n        /* \"#utility.yul\":14485:14491   */\n      dup5\n        /* \"#utility.yul\":14441:14514   */\n      tag_176\n      jump\t// in\n    tag_349:\n        /* \"#utility.yul\":13419:14521   */\n      swap9\n      swap8\n      pop\n      pop\n      pop\n      pop\n      pop\n      pop\n      pop\n      pop\n      jump\t// out\n        /* \"#utility.yul\":14527:14704   */\n    tag_190:\n        /* \"#utility.yul\":14667:14696   */\n      0x53656e646572206d6179206e6f74206265203020616464726573730000000000\n        /* \"#utility.yul\":14663:14664   */\n      0x00\n        /* \"#utility.yul\":14655:14661   */\n      dup3\n        /* \"#utility.yul\":14651:14665   */\n      add\n        /* \"#utility.yul\":14644:14697   */\n      mstore\n        /* \"#utility.yul\":14527:14704   */\n      pop\n      jump\t// out\n        /* \"#utility.yul\":14710:15076   */\n    tag_191:\n        /* \"#utility.yul\":14852:14855   */\n      0x00\n        /* \"#utility.yul\":14873:14940   */\n      tag_352\n        /* \"#utility.yul\":14937:14939   */\n      0x1b\n        /* \"#utility.yul\":14932:14935   */\n      dup4\n        /* \"#utility.yul\":14873:14940   */\n      tag_177\n      jump\t// in\n    tag_352:\n        /* \"#utility.yul\":14866:14940   */\n      swap2\n      pop\n        /* \"#utility.yul\":14949:15042   */\n      tag_353\n        /* \"#utility.yul\":15038:15041   */\n      dup3\n        /* \"#utility.yul\":14949:15042   */\n      tag_190\n      jump\t// in\n    tag_353:\n        /* \"#utility.yul\":15067:15069   */\n      0x20\n        /* \"#utility.yul\":15062:15065   */\n      dup3\n        /* \"#utility.yul\":15058:15070   */\n      add\n        /* \"#utility.yul\":15051:15070   */\n      swap1\n      pop\n        /* \"#utility.yul\":14710:15076   */\n      swap2\n      swap1\n      pop\n      jump\t// out\n        /* \"#utility.yul\":15082:15501   */\n    tag_81:\n        /* \"#utility.yul\":15248:15252   */\n      0x00\n        /* \"#utility.yul\":15286:15288   */\n      0x20\n        /* \"#utility.yul\":15275:15284   */\n      dup3\n        /* \"#utility.yul\":15271:15289   */\n      add\n        /* \"#utility.yul\":15263:15289   */\n      swap1\n      pop\n        /* \"#utility.yul\":15335:15344   */\n      dup2\n        /* \"#utility.yul\":15329:15333   */\n      dup2\n        /* \"#utility.yul\":15325:15345   */\n      sub\n        /* \"#utility.yul\":15321:15322   */\n      0x00\n        /* \"#utility.yul\":15310:15319   */\n      dup4\n        /* \"#utility.yul\":15306:15323   */\n      add\n        /* \"#utility.yul\":15299:15346   */\n      mstore\n        /* \"#utility.yul\":15363:15494   */\n      tag_355\n        /* \"#utility.yul\":15489:15493   */\n      dup2\n        /* \"#utility.yul\":15363:15494   */\n      tag_191\n      jump\t// in\n    tag_355:\n        /* \"#utility.yul\":15355:15494   */\n      swap1\n      pop\n        /* \"#utility.yul\":15082:15501   */\n      swap2\n      swap1\n      pop\n      jump\t// out\n        /* \"#utility.yul\":15507:15734   */\n    tag_192:\n        /* \"#utility.yul\":15647:15681   */\n      0x44657374696e6174696f6e2061646472657373206d6179206e6f742062652030\n        /* \"#utility.yul\":15643:15644   */\n      0x00\n        /* \"#utility.yul\":15635:15641   */\n      dup3\n        /* \"#utility.yul\":15631:15645   */\n      add\n        /* \"#utility.yul\":15624:15682   */\n      mstore\n        /* \"#utility.yul\":15716:15726   */\n      0x2061646472657373000000000000000000000000000000000000000000000000\n        /* \"#utility.yul\":15711:15713   */\n      0x20\n        /* \"#utility.yul\":15703:15709   */\n      dup3\n        /* \"#utility.yul\":15699:15714   */\n      add\n        /* \"#utility.yul\":15692:15727   */\n      mstore\n        /* \"#utility.yul\":15507:15734   */\n      pop\n      jump\t// out\n        /* \"#utility.yul\":15740:16106   */\n    tag_193:\n        /* \"#utility.yul\":15882:15885   */\n      0x00\n        /* \"#utility.yul\":15903:15970   */\n      tag_358\n        /* \"#utility.yul\":15967:15969   */\n      0x28\n        /* \"#utility.yul\":15962:15965   */\n      dup4\n        /* \"#utility.yul\":15903:15970   */\n      tag_177\n      jump\t// in\n    tag_358:\n        /* \"#utility.yul\":15896:15970   */\n      swap2\n      pop\n        /* \"#utility.yul\":15979:16072   */\n      tag_359\n        /* \"#utility.yul\":16068:16071   */\n      dup3\n        /* \"#utility.yul\":15979:16072   */\n      tag_192\n      jump\t// in\n    tag_359:\n        /* \"#utility.yul\":16097:16099   */\n      0x40\n        /* \"#utility.yul\":16092:16095   */\n      dup3\n        /* \"#utility.yul\":16088:16100   */\n      add\n        /* \"#utility.yul\":16081:16100   */\n      swap1\n      pop\n        /* \"#utility.yul\":15740:16106   */\n      swap2\n      swap1\n      pop\n      jump\t// out\n        /* \"#utility.yul\":16112:16531   */\n    tag_84:\n        /* \"#utility.yul\":16278:16282   */\n      0x00\n        /* \"#utility.yul\":16316:16318   */\n      0x20\n        /* \"#utility.yul\":16305:16314   */\n      dup3\n        /* \"#utility.yul\":16301:16319   */\n      add\n        /* \"#utility.yul\":16293:16319   */\n      swap1\n      pop\n        /* \"#utility.yul\":16365:16374   */\n      dup2\n        /* \"#utility.yul\":16359:16363   */\n      dup2\n        /* \"#utility.yul\":16355:16375   */\n      sub\n        /* \"#utility.yul\":16351:16352   */\n      0x00\n        /* \"#utility.yul\":16340:16349   */\n      dup4\n        /* \"#utility.yul\":16336:16353   */\n      add\n        /* \"#utility.yul\":16329:16376   */\n      mstore\n        /* \"#utility.yul\":16393:16524   */\n      tag_361\n        /* \"#utility.yul\":16519:16523   */\n      dup2\n        /* \"#utility.yul\":16393:16524   */\n      tag_193\n      jump\t// in\n    tag_361:\n        /* \"#utility.yul\":16385:16524   */\n      swap1\n      pop\n        /* \"#utility.yul\":16112:16531   */\n      swap2\n      swap1\n      pop\n      jump\t// out\n        /* \"#utility.yul\":16537:16769   */\n    tag_194:\n        /* \"#utility.yul\":16677:16711   */\n      0x57616e746564204c3120676173207072696365206d7573742062652073747269\n        /* \"#utility.yul\":16673:16674   */\n      0x00\n        /* \"#utility.yul\":16665:16671   */\n      dup3\n        /* \"#utility.yul\":16661:16675   */\n      add\n        /* \"#utility.yul\":16654:16712   */\n      mstore\n        /* \"#utility.yul\":16746:16761   */\n      0x63746c7920706f73697469766500000000000000000000000000000000000000\n        /* \"#utility.yul\":16741:16743   */\n      0x20\n        /* \"#utility.yul\":16733:16739   */\n      dup3\n        /* \"#utility.yul\":16729:16744   */\n      add\n        /* \"#utility.yul\":16722:16762   */\n      mstore\n        /* \"#utility.yul\":16537:16769   */\n      pop\n      jump\t// out\n        /* \"#utility.yul\":16775:17141   */\n    tag_195:\n        /* \"#utility.yul\":16917:16920   */\n      0x00\n        /* \"#utility.yul\":16938:17005   */\n      tag_364\n        /* \"#utility.yul\":17002:17004   */\n      0x2d\n        /* \"#utility.yul\":16997:17000   */\n      dup4\n        /* \"#utility.yul\":16938:17005   */\n      tag_177\n      jump\t// in\n    tag_364:\n        /* \"#utility.yul\":16931:17005   */\n      swap2\n      pop\n        /* \"#utility.yul\":17014:17107   */\n      tag_365\n        /* \"#utility.yul\":17103:17106   */\n      dup3\n        /* \"#utility.yul\":17014:17107   */\n      tag_194\n      jump\t// in\n    tag_365:\n        /* \"#utility.yul\":17132:17134   */\n      0x40\n        /* \"#utility.yul\":17127:17130   */\n      dup3\n        /* \"#utility.yul\":17123:17135   */\n      add\n        /* \"#utility.yul\":17116:17135   */\n      swap1\n      pop\n        /* \"#utility.yul\":16775:17141   */\n      swap2\n      swap1\n      pop\n      jump\t// out\n        /* \"#utility.yul\":17147:17566   */\n    tag_87:\n        /* \"#utility.yul\":17313:17317   */\n      0x00\n        /* \"#utility.yul\":17351:17353   */\n      0x20\n        /* \"#utility.yul\":17340:17349   */\n      dup3\n        /* \"#utility.yul\":17336:17354   */\n      add\n        /* \"#utility.yul\":17328:17354   */\n      swap1\n      pop\n        /* \"#utility.yul\":17400:17409   */\n      dup2\n        /* \"#utility.yul\":17394:17398   */\n      dup2\n        /* \"#utility.yul\":17390:17410   */\n      sub\n        /* \"#utility.yul\":17386:17387   */\n      0x00\n        /* \"#utility.yul\":17375:17384   */\n      dup4\n        /* \"#utility.yul\":17371:17388   */\n      add\n        /* \"#utility.yul\":17364:17411   */\n      mstore\n        /* \"#utility.yul\":17428:17559   */\n      tag_367\n        /* \"#utility.yul\":17554:17558   */\n      dup2\n        /* \"#utility.yul\":17428:17559   */\n      tag_195\n      jump\t// in\n    tag_367:\n        /* \"#utility.yul\":17420:17559   */\n      swap1\n      pop\n        /* \"#utility.yul\":17147:17566   */\n      swap2\n      swap1\n      pop\n      jump\t// out\n        /* \"#utility.yul\":17572:17804   */\n    tag_196:\n        /* \"#utility.yul\":17712:17746   */\n      0x4e6f7420656e6f7567682066756e647320746f2070617920666f722064656c61\n        /* \"#utility.yul\":17708:17709   */\n      0x00\n        /* \"#utility.yul\":17700:17706   */\n      dup3\n        /* \"#utility.yul\":17696:17710   */\n      add\n        /* \"#utility.yul\":17689:17747   */\n      mstore\n        /* \"#utility.yul\":17781:17796   */\n      0x79656420657865637574696f6e00000000000000000000000000000000000000\n        /* \"#utility.yul\":17776:17778   */\n      0x20\n        /* \"#utility.yul\":17768:17774   */\n      dup3\n        /* \"#utility.yul\":17764:17779   */\n      add\n        /* \"#utility.yul\":17757:17797   */\n      mstore\n        /* \"#utility.yul\":17572:17804   */\n      pop\n      jump\t// out\n        /* \"#utility.yul\":17810:18176   */\n    tag_197:\n        /* \"#utility.yul\":17952:17955   */\n      0x00\n        /* \"#utility.yul\":17973:18040   */\n      tag_370\n        /* \"#utility.yul\":18037:18039   */\n      0x2d\n        /* \"#utility.yul\":18032:18035   */\n      dup4\n        /* \"#utility.yul\":17973:18040   */\n      tag_177\n      jump\t// in\n    tag_370:\n        /* \"#utility.yul\":17966:18040   */\n      swap2\n      pop\n        /* \"#utility.yul\":18049:18142   */\n      tag_371\n        /* \"#utility.yul\":18138:18141   */\n      dup3\n        /* \"#utility.yul\":18049:18142   */\n      tag_196\n      jump\t// in\n    tag_371:\n        /* \"#utility.yul\":18167:18169   */\n      0x40\n        /* \"#utility.yul\":18162:18165   */\n      dup3\n        /* \"#utility.yul\":18158:18170   */\n      add\n        /* \"#utility.yul\":18151:18170   */\n      swap1\n      pop\n        /* \"#utility.yul\":17810:18176   */\n      swap2\n      swap1\n      pop\n      jump\t// out\n        /* \"#utility.yul\":18182:18601   */\n    tag_90:\n        /* \"#utility.yul\":18348:18352   */\n      0x00\n        /* \"#utility.yul\":18386:18388   */\n      0x20\n        /* \"#utility.yul\":18375:18384   */\n      dup3\n        /* \"#utility.yul\":18371:18389   */\n      add\n        /* \"#utility.yul\":18363:18389   */\n      swap1\n      pop\n        /* \"#utility.yul\":18435:18444   */\n      dup2\n        /* \"#utility.yul\":18429:18433   */\n      dup2\n        /* \"#utility.yul\":18425:18445   */\n      sub\n        /* \"#utility.yul\":18421:18422   */\n      0x00\n        /* \"#utility.yul\":18410:18419   */\n      dup4\n        /* \"#utility.yul\":18406:18423   */\n      add\n        /* \"#utility.yul\":18399:18446   */\n      mstore\n        /* \"#utility.yul\":18463:18594   */\n      tag_373\n        /* \"#utility.yul\":18589:18593   */\n      dup2\n        /* \"#utility.yul\":18463:18594   */\n      tag_197\n      jump\t// in\n    tag_373:\n        /* \"#utility.yul\":18455:18594   */\n      swap1\n      pop\n        /* \"#utility.yul\":18182:18601   */\n      swap2\n      swap1\n      pop\n      jump\t// out\n        /* \"#utility.yul\":18607:18787   */\n    tag_198:\n        /* \"#utility.yul\":18655:18732   */\n      0x4e487b7100000000000000000000000000000000000000000000000000000000\n        /* \"#utility.yul\":18652:18653   */\n      0x00\n        /* \"#utility.yul\":18645:18733   */\n      mstore\n        /* \"#utility.yul\":18752:18756   */\n      0x11\n        /* \"#utility.yul\":18749:18750   */\n      0x04\n        /* \"#utility.yul\":18742:18757   */\n      mstore\n        /* \"#utility.yul\":18776:18780   */\n      0x24\n        /* \"#utility.yul\":18773:18774   */\n      0x00\n        /* \"#utility.yul\":18766:18781   */\n      revert\n        /* \"#utility.yul\":18793:18987   */\n    tag_92:\n        /* \"#utility.yul\":18833:18837   */\n      0x00\n        /* \"#utility.yul\":18853:18873   */\n      tag_376\n        /* \"#utility.yul\":18871:18872   */\n      dup3\n        /* \"#utility.yul\":18853:18873   */\n      tag_153\n      jump\t// in\n    tag_376:\n        /* \"#utility.yul\":18848:18873   */\n      swap2\n      pop\n        /* \"#utility.yul\":18887:18907   */\n      tag_377\n        /* \"#utility.yul\":18905:18906   */\n      dup4\n        /* \"#utility.yul\":18887:18907   */\n      tag_153\n      jump\t// in\n    tag_377:\n        /* \"#utility.yul\":18882:18907   */\n      swap3\n      pop\n        /* \"#utility.yul\":18931:18932   */\n      dup3\n        /* \"#utility.yul\":18928:18929   */\n      dup3\n        /* \"#utility.yul\":18924:18933   */\n      sub\n        /* \"#utility.yul\":18916:18933   */\n      swap1\n      pop\n        /* \"#utility.yul\":18955:18956   */\n      dup2\n        /* \"#utility.yul\":18949:18953   */\n      dup2\n        /* \"#utility.yul\":18946:18957   */\n      gt\n        /* \"#utility.yul\":18943:18980   */\n      iszero\n      tag_378\n      jumpi\n        /* \"#utility.yul\":18960:18978   */\n      tag_379\n      tag_198\n      jump\t// in\n    tag_379:\n        /* \"#utility.yul\":18943:18980   */\n    tag_378:\n        /* \"#utility.yul\":18793:18987   */\n      swap3\n      swap2\n      pop\n      pop\n      jump\t// out\n        /* \"#utility.yul\":18993:19312   */\n    tag_199:\n        /* \"#utility.yul\":19133:19167   */\n      0x43616c63756c617465642073656e7420616d6f756e74206d757374206265206c\n        /* \"#utility.yul\":19129:19130   */\n      0x00\n        /* \"#utility.yul\":19121:19127   */\n      dup3\n        /* \"#utility.yul\":19117:19131   */\n      add\n        /* \"#utility.yul\":19110:19168   */\n      mstore\n        /* \"#utility.yul\":19202:19236   */\n      0x6172676572207468616e20746865207265717569726564206d696e696d756d20\n        /* \"#utility.yul\":19197:19199   */\n      0x20\n        /* \"#utility.yul\":19189:19195   */\n      dup3\n        /* \"#utility.yul\":19185:19200   */\n      add\n        /* \"#utility.yul\":19178:19237   */\n      mstore\n        /* \"#utility.yul\":19271:19304   */\n      0x616d6f756e74206172726976696e672061742064657374696e6174696f6e2e00\n        /* \"#utility.yul\":19266:19268   */\n      0x40\n        /* \"#utility.yul\":19258:19264   */\n      dup3\n        /* \"#utility.yul\":19254:19269   */\n      add\n        /* \"#utility.yul\":19247:19305   */\n      mstore\n        /* \"#utility.yul\":18993:19312   */\n      pop\n      jump\t// out\n        /* \"#utility.yul\":19318:19684   */\n    tag_200:\n        /* \"#utility.yul\":19460:19463   */\n      0x00\n        /* \"#utility.yul\":19481:19548   */\n      tag_382\n        /* \"#utility.yul\":19545:19547   */\n      0x5f\n        /* \"#utility.yul\":19540:19543   */\n      dup4\n        /* \"#utility.yul\":19481:19548   */\n      tag_177\n      jump\t// in\n    tag_382:\n        /* \"#utility.yul\":19474:19548   */\n      swap2\n      pop\n        /* \"#utility.yul\":19557:19650   */\n      tag_383\n        /* \"#utility.yul\":19646:19649   */\n      dup3\n        /* \"#utility.yul\":19557:19650   */\n      tag_199\n      jump\t// in\n    tag_383:\n        /* \"#utility.yul\":19675:19677   */\n      0x60\n        /* \"#utility.yul\":19670:19673   */\n      dup3\n        /* \"#utility.yul\":19666:19678   */\n      add\n        /* \"#utility.yul\":19659:19678   */\n      swap1\n      pop\n        /* \"#utility.yul\":19318:19684   */\n      swap2\n      swap1\n      pop\n      jump\t// out\n        /* \"#utility.yul\":19690:20109   */\n    tag_95:\n        /* \"#utility.yul\":19856:19860   */\n      0x00\n        /* \"#utility.yul\":19894:19896   */\n      0x20\n        /* \"#utility.yul\":19883:19892   */\n      dup3\n        /* \"#utility.yul\":19879:19897   */\n      add\n        /* \"#utility.yul\":19871:19897   */\n      swap1\n      pop\n        /* \"#utility.yul\":19943:19952   */\n      dup2\n        /* \"#utility.yul\":19937:19941   */\n      dup2\n        /* \"#utility.yul\":19933:19953   */\n      sub\n        /* \"#utility.yul\":19929:19930   */\n      0x00\n        /* \"#utility.yul\":19918:19927   */\n      dup4\n        /* \"#utility.yul\":19914:19931   */\n      add\n        /* \"#utility.yul\":19907:19954   */\n      mstore\n        /* \"#utility.yul\":19971:20102   */\n      tag_385\n        /* \"#utility.yul\":20097:20101   */\n      dup2\n        /* \"#utility.yul\":19971:20102   */\n      tag_200\n      jump\t// in\n    tag_385:\n        /* \"#utility.yul\":19963:20102   */\n      swap1\n      pop\n        /* \"#utility.yul\":19690:20109   */\n      swap2\n      swap1\n      pop\n      jump\t// out\n        /* \"#utility.yul\":20115:20287   */\n    tag_201:\n        /* \"#utility.yul\":20255:20279   */\n      0x4e6f207265717565737420746f20776974686472617700000000000000000000\n        /* \"#utility.yul\":20251:20252   */\n      0x00\n        /* \"#utility.yul\":20243:20249   */\n      dup3\n        /* \"#utility.yul\":20239:20253   */\n      add\n        /* \"#utility.yul\":20232:20280   */\n      mstore\n        /* \"#utility.yul\":20115:20287   */\n      pop\n      jump\t// out\n        /* \"#utility.yul\":20293:20659   */\n    tag_202:\n        /* \"#utility.yul\":20435:20438   */\n      0x00\n        /* \"#utility.yul\":20456:20523   */\n      tag_388\n        /* \"#utility.yul\":20520:20522   */\n      0x16\n        /* \"#utility.yul\":20515:20518   */\n      dup4\n        /* \"#utility.yul\":20456:20523   */\n      tag_177\n      jump\t// in\n    tag_388:\n        /* \"#utility.yul\":20449:20523   */\n      swap2\n      pop\n        /* \"#utility.yul\":20532:20625   */\n      tag_389\n        /* \"#utility.yul\":20621:20624   */\n      dup3\n        /* \"#utility.yul\":20532:20625   */\n      tag_201\n      jump\t// in\n    tag_389:\n        /* \"#utility.yul\":20650:20652   */\n      0x20\n        /* \"#utility.yul\":20645:20648   */\n      dup3\n        /* \"#utility.yul\":20641:20653   */\n      add\n        /* \"#utility.yul\":20634:20653   */\n      swap1\n      pop\n        /* \"#utility.yul\":20293:20659   */\n      swap2\n      swap1\n      pop\n      jump\t// out\n        /* \"#utility.yul\":20665:21084   */\n    tag_102:\n        /* \"#utility.yul\":20831:20835   */\n      0x00\n        /* \"#utility.yul\":20869:20871   */\n      0x20\n        /* \"#utility.yul\":20858:20867   */\n      dup3\n        /* \"#utility.yul\":20854:20872   */\n      add\n        /* \"#utility.yul\":20846:20872   */\n      swap1\n      pop\n        /* \"#utility.yul\":20918:20927   */\n      dup2\n        /* \"#utility.yul\":20912:20916   */\n      dup2\n        /* \"#utility.yul\":20908:20928   */\n      sub\n        /* \"#utility.yul\":20904:20905   */\n      0x00\n        /* \"#utility.yul\":20893:20902   */\n      dup4\n        /* \"#utility.yul\":20889:20906   */\n      add\n        /* \"#utility.yul\":20882:20929   */\n      mstore\n        /* \"#utility.yul\":20946:21077   */\n      tag_391\n        /* \"#utility.yul\":21072:21076   */\n      dup2\n        /* \"#utility.yul\":20946:21077   */\n      tag_202\n      jump\t// in\n    tag_391:\n        /* \"#utility.yul\":20938:21077   */\n      swap1\n      pop\n        /* \"#utility.yul\":20665:21084   */\n      swap2\n      swap1\n      pop\n      jump\t// out\n        /* \"#utility.yul\":21090:21270   */\n    tag_105:\n        /* \"#utility.yul\":21138:21215   */\n      0x4e487b7100000000000000000000000000000000000000000000000000000000\n        /* \"#utility.yul\":21135:21136   */\n      0x00\n        /* \"#utility.yul\":21128:21216   */\n      mstore\n        /* \"#utility.yul\":21235:21239   */\n      0x01\n        /* \"#utility.yul\":21232:21233   */\n      0x04\n        /* \"#utility.yul\":21225:21240   */\n      mstore\n        /* \"#utility.yul\":21259:21263   */\n      0x24\n        /* \"#utility.yul\":21256:21257   */\n      0x00\n        /* \"#utility.yul\":21249:21264   */\n      revert\n        /* \"#utility.yul\":21276:21501   */\n    tag_203:\n        /* \"#utility.yul\":21416:21450   */\n      0x4661696c656420746f2077697468647261772066756e647320746f206d73672e\n        /* \"#utility.yul\":21412:21413   */\n      0x00\n        /* \"#utility.yul\":21404:21410   */\n      dup3\n        /* \"#utility.yul\":21400:21414   */\n      add\n        /* \"#utility.yul\":21393:21451   */\n      mstore\n        /* \"#utility.yul\":21485:21493   */\n      0x73656e6465720000000000000000000000000000000000000000000000000000\n        /* \"#utility.yul\":21480:21482   */\n      0x20\n        /* \"#utility.yul\":21472:21478   */\n      dup3\n        /* \"#utility.yul\":21468:21483   */\n      add\n        /* \"#utility.yul\":21461:21494   */\n      mstore\n        /* \"#utility.yul\":21276:21501   */\n      pop\n      jump\t// out\n        /* \"#utility.yul\":21507:21873   */\n    tag_204:\n        /* \"#utility.yul\":21649:21652   */\n      0x00\n        /* \"#utility.yul\":21670:21737   */\n      tag_395\n        /* \"#utility.yul\":21734:21736   */\n      0x26\n        /* \"#utility.yul\":21729:21732   */\n      dup4\n        /* \"#utility.yul\":21670:21737   */\n      tag_177\n      jump\t// in\n    tag_395:\n        /* \"#utility.yul\":21663:21737   */\n      swap2\n      pop\n        /* \"#utility.yul\":21746:21839   */\n      tag_396\n        /* \"#utility.yul\":21835:21838   */\n      dup3\n        /* \"#utility.yul\":21746:21839   */\n      tag_203\n      jump\t// in\n    tag_396:\n        /* \"#utility.yul\":21864:21866   */\n      0x40\n        /* \"#utility.yul\":21859:21862   */\n      dup3\n        /* \"#utility.yul\":21855:21867   */\n      add\n        /* \"#utility.yul\":21848:21867   */\n      swap1\n      pop\n        /* \"#utility.yul\":21507:21873   */\n      swap2\n      swap1\n      pop\n      jump\t// out\n        /* \"#utility.yul\":21879:22298   */\n    tag_109:\n        /* \"#utility.yul\":22045:22049   */\n      0x00\n        /* \"#utility.yul\":22083:22085   */\n      0x20\n        /* \"#utility.yul\":22072:22081   */\n      dup3\n        /* \"#utility.yul\":22068:22086   */\n      add\n        /* \"#utility.yul\":22060:22086   */\n      swap1\n      pop\n        /* \"#utility.yul\":22132:22141   */\n      dup2\n        /* \"#utility.yul\":22126:22130   */\n      dup2\n        /* \"#utility.yul\":22122:22142   */\n      sub\n        /* \"#utility.yul\":22118:22119   */\n      0x00\n        /* \"#utility.yul\":22107:22116   */\n      dup4\n        /* \"#utility.yul\":22103:22120   */\n      add\n        /* \"#utility.yul\":22096:22143   */\n      mstore\n        /* \"#utility.yul\":22160:22291   */\n      tag_398\n        /* \"#utility.yul\":22286:22290   */\n      dup2\n        /* \"#utility.yul\":22160:22291   */\n      tag_204\n      jump\t// in\n    tag_398:\n        /* \"#utility.yul\":22152:22291   */\n      swap1\n      pop\n        /* \"#utility.yul\":21879:22298   */\n      swap2\n      swap1\n      pop\n      jump\t// out\n        /* \"#utility.yul\":22304:22529   */\n    tag_205:\n        /* \"#utility.yul\":22444:22478   */\n      0x4f776e61626c653a206e6577206f776e657220697320746865207a65726f2061\n        /* \"#utility.yul\":22440:22441   */\n      0x00\n        /* \"#utility.yul\":22432:22438   */\n      dup3\n        /* \"#utility.yul\":22428:22442   */\n      add\n        /* \"#utility.yul\":22421:22479   */\n      mstore\n        /* \"#utility.yul\":22513:22521   */\n      0x6464726573730000000000000000000000000000000000000000000000000000\n        /* \"#utility.yul\":22508:22510   */\n      0x20\n        /* \"#utility.yul\":22500:22506   */\n      dup3\n        /* \"#utility.yul\":22496:22511   */\n      add\n        /* \"#utility.yul\":22489:22522   */\n      mstore\n        /* \"#utility.yul\":22304:22529   */\n      pop\n      jump\t// out\n        /* \"#utility.yul\":22535:22901   */\n    tag_206:\n        /* \"#utility.yul\":22677:22680   */\n      0x00\n        /* \"#utility.yul\":22698:22765   */\n      tag_401\n        /* \"#utility.yul\":22762:22764   */\n      0x26\n        /* \"#utility.yul\":22757:22760   */\n      dup4\n        /* \"#utility.yul\":22698:22765   */\n      tag_177\n      jump\t// in\n    tag_401:\n        /* \"#utility.yul\":22691:22765   */\n      swap2\n      pop\n        /* \"#utility.yul\":22774:22867   */\n      tag_402\n        /* \"#utility.yul\":22863:22866   */\n      dup3\n        /* \"#utility.yul\":22774:22867   */\n      tag_205\n      jump\t// in\n    tag_402:\n        /* \"#utility.yul\":22892:22894   */\n      0x40\n        /* \"#utility.yul\":22887:22890   */\n      dup3\n        /* \"#utility.yul\":22883:22895   */\n      add\n        /* \"#utility.yul\":22876:22895   */\n      swap1\n      pop\n        /* \"#utility.yul\":22535:22901   */\n      swap2\n      swap1\n      pop\n      jump\t// out\n        /* \"#utility.yul\":22907:23326   */\n    tag_129:\n        /* \"#utility.yul\":23073:23077   */\n      0x00\n        /* \"#utility.yul\":23111:23113   */\n      0x20\n        /* \"#utility.yul\":23100:23109   */\n      dup3\n        /* \"#utility.yul\":23096:23114   */\n      add\n        /* \"#utility.yul\":23088:23114   */\n      swap1\n      pop\n        /* \"#utility.yul\":23160:23169   */\n      dup2\n        /* \"#utility.yul\":23154:23158   */\n      dup2\n        /* \"#utility.yul\":23150:23170   */\n      sub\n        /* \"#utility.yul\":23146:23147   */\n      0x00\n        /* \"#utility.yul\":23135:23144   */\n      dup4\n        /* \"#utility.yul\":23131:23148   */\n      add\n        /* \"#utility.yul\":23124:23171   */\n      mstore\n        /* \"#utility.yul\":23188:23319   */\n      tag_404\n        /* \"#utility.yul\":23314:23318   */\n      dup2\n        /* \"#utility.yul\":23188:23319   */\n      tag_206\n      jump\t// in\n    tag_404:\n        /* \"#utility.yul\":23180:23319   */\n      swap1\n      pop\n        /* \"#utility.yul\":22907:23326   */\n      swap2\n      swap1\n      pop\n      jump\t// out\n        /* \"#utility.yul\":23332:23514   */\n    tag_207:\n        /* \"#utility.yul\":23472:23506   */\n      0x4f776e61626c653a2063616c6c6572206973206e6f7420746865206f776e6572\n        /* \"#utility.yul\":23468:23469   */\n      0x00\n        /* \"#utility.yul\":23460:23466   */\n      dup3\n        /* \"#utility.yul\":23456:23470   */\n      add\n        /* \"#utility.yul\":23449:23507   */\n      mstore\n        /* \"#utility.yul\":23332:23514   */\n      pop\n      jump\t// out\n        /* \"#utility.yul\":23520:23886   */\n    tag_208:\n        /* \"#utility.yul\":23662:23665   */\n      0x00\n        /* \"#utility.yul\":23683:23750   */\n      tag_407\n        /* \"#utility.yul\":23747:23749   */\n      0x20\n        /* \"#utility.yul\":23742:23745   */\n      dup4\n        /* \"#utility.yul\":23683:23750   */\n      tag_177\n      jump\t// in\n    tag_407:\n        /* \"#utility.yul\":23676:23750   */\n      swap2\n      pop\n        /* \"#utility.yul\":23759:23852   */\n      tag_408\n        /* \"#utility.yul\":23848:23851   */\n      dup3\n        /* \"#utility.yul\":23759:23852   */\n      tag_207\n      jump\t// in\n    tag_408:\n        /* \"#utility.yul\":23877:23879   */\n      0x20\n        /* \"#utility.yul\":23872:23875   */\n      dup3\n        /* \"#utility.yul\":23868:23880   */\n      add\n        /* \"#utility.yul\":23861:23880   */\n      swap1\n      pop\n        /* \"#utility.yul\":23520:23886   */\n      swap2\n      swap1\n      pop\n      jump\t// out\n        /* \"#utility.yul\":23892:24311   */\n    tag_137:\n        /* \"#utility.yul\":24058:24062   */\n      0x00\n        /* \"#utility.yul\":24096:24098   */\n      0x20\n        /* \"#utility.yul\":24085:24094   */\n      dup3\n        /* \"#utility.yul\":24081:24099   */\n      add\n        /* \"#utility.yul\":24073:24099   */\n      swap1\n      pop\n        /* \"#utility.yul\":24145:24154   */\n      dup2\n        /* \"#utility.yul\":24139:24143   */\n      dup2\n        /* \"#utility.yul\":24135:24155   */\n      sub\n        /* \"#utility.yul\":24131:24132   */\n      0x00\n        /* \"#utility.yul\":24120:24129   */\n      dup4\n        /* \"#utility.yul\":24116:24133   */\n      add\n        /* \"#utility.yul\":24109:24156   */\n      mstore\n        /* \"#utility.yul\":24173:24304   */\n      tag_410\n        /* \"#utility.yul\":24299:24303   */\n      dup2\n        /* \"#utility.yul\":24173:24304   */\n      tag_208\n      jump\t// in\n    tag_410:\n        /* \"#utility.yul\":24165:24304   */\n      swap1\n      pop\n        /* \"#utility.yul\":23892:24311   */\n      swap2\n      swap1\n      pop\n      jump\t// out\n        /* \"#utility.yul\":24317:24498   */\n    tag_209:\n        /* \"#utility.yul\":24457:24490   */\n      0x5265656e7472616e637947756172643a207265656e7472616e742063616c6c00\n        /* \"#utility.yul\":24453:24454   */\n      0x00\n        /* \"#utility.yul\":24445:24451   */\n      dup3\n        /* \"#utility.yul\":24441:24455   */\n      add\n        /* \"#utility.yul\":24434:24491   */\n      mstore\n        /* \"#utility.yul\":24317:24498   */\n      pop\n      jump\t// out\n        /* \"#utility.yul\":24504:24870   */\n    tag_210:\n        /* \"#utility.yul\":24646:24649   */\n      0x00\n        /* \"#utility.yul\":24667:24734   */\n      tag_413\n        /* \"#utility.yul\":24731:24733   */\n      0x1f\n        /* \"#utility.yul\":24726:24729   */\n      dup4\n        /* \"#utility.yul\":24667:24734   */\n      tag_177\n      jump\t// in\n    tag_413:\n        /* \"#utility.yul\":24660:24734   */\n      swap2\n      pop\n        /* \"#utility.yul\":24743:24836   */\n      tag_414\n        /* \"#utility.yul\":24832:24835   */\n      dup3\n        /* \"#utility.yul\":24743:24836   */\n      tag_209\n      jump\t// in\n    tag_414:\n        /* \"#utility.yul\":24861:24863   */\n      0x20\n        /* \"#utility.yul\":24856:24859   */\n      dup3\n        /* \"#utility.yul\":24852:24864   */\n      add\n        /* \"#utility.yul\":24845:24864   */\n      swap1\n      pop\n        /* \"#utility.yul\":24504:24870   */\n      swap2\n      swap1\n      pop\n      jump\t// out\n        /* \"#utility.yul\":24876:25295   */\n    tag_141:\n        /* \"#utility.yul\":25042:25046   */\n      0x00\n        /* \"#utility.yul\":25080:25082   */\n      0x20\n        /* \"#utility.yul\":25069:25078   */\n      dup3\n        /* \"#utility.yul\":25065:25083   */\n      add\n        /* \"#utility.yul\":25057:25083   */\n      swap1\n      pop\n        /* \"#utility.yul\":25129:25138   */\n      dup2\n        /* \"#utility.yul\":25123:25127   */\n      dup2\n        /* \"#utility.yul\":25119:25139   */\n      sub\n        /* \"#utility.yul\":25115:25116   */\n      0x00\n        /* \"#utility.yul\":25104:25113   */\n      dup4\n        /* \"#utility.yul\":25100:25117   */\n      add\n        /* \"#utility.yul\":25093:25140   */\n      mstore\n        /* \"#utility.yul\":25157:25288   */\n      tag_416\n        /* \"#utility.yul\":25283:25287   */\n      dup2\n        /* \"#utility.yul\":25157:25288   */\n      tag_210\n      jump\t// in\n    tag_416:\n        /* \"#utility.yul\":25149:25288   */\n      swap1\n      pop\n        /* \"#utility.yul\":24876:25295   */\n      swap2\n      swap1\n      pop\n      jump\t// out\n\n    auxdata: 0xa2646970667358221220df4c54fdb3612e77d5f534d79647bcf6d40e25ca4c4e00fdfc667fb47a247f4364736f6c63430008120033\n}\n",
				"bytecode": {
					"linkReferences": {},
					"object": "60806040523480156200001157600080fd5b5060405162001f0338038062001f03833981810160405281019062000037919062000233565b620000576200004b620000ae60201b60201c565b620000b660201b60201c565b600180819055508160028190555080600360006101000a81548173ffffffffffffffffffffffffffffffffffffffff021916908373ffffffffffffffffffffffffffffffffffffffff16021790555050506200027a565b600033905090565b60008060009054906101000a900473ffffffffffffffffffffffffffffffffffffffff169050816000806101000a81548173ffffffffffffffffffffffffffffffffffffffff021916908373ffffffffffffffffffffffffffffffffffffffff1602179055508173ffffffffffffffffffffffffffffffffffffffff168173ffffffffffffffffffffffffffffffffffffffff167f8be0079c531659141344cd1fd0a4f28419497f9722a3daafe3b4186f6b6457e060405160405180910390a35050565b600080fd5b6000819050919050565b62000194816200017f565b8114620001a057600080fd5b50565b600081519050620001b48162000189565b92915050565b600073ffffffffffffffffffffffffffffffffffffffff82169050919050565b6000620001e782620001ba565b9050919050565b6000620001fb82620001da565b9050919050565b6200020d81620001ee565b81146200021957600080fd5b50565b6000815190506200022d8162000202565b92915050565b600080604083850312156200024d576200024c6200017a565b5b60006200025d85828601620001a3565b925050602062000270858286016200021c565b9150509250929050565b611c79806200028a6000396000f3fe6080604052600436106100865760003560e01c80634a0aee29116100595780634a0aee291461011257806354caef7d1461013e578063715018a6146101675780638da5cb5b1461017e578063f2fde38b146101a957610086565b80630e48b88a1461008b5780630efe6a8b146100b457806325608185146100d05780633ccfd60b146100fb575b600080fd5b34801561009757600080fd5b506100b260048036038101906100ad9190611176565b6101d2565b005b6100ce60048036038101906100c991906111f3565b610564565b005b3480156100dc57600080fd5b506100e5610866565b6040516100f291906112a5565b60405180910390f35b34801561010757600080fd5b5061011061088c565b005b34801561011e57600080fd5b50610127610b65565b604051610135929190611361565b60405180910390f35b34801561014a57600080fd5b506101656004803603810190610160919061138a565b610c99565b005b34801561017357600080fd5b5061017c610cab565b005b34801561018a57600080fd5b50610193610cbf565b6040516101a091906113c6565b60405180910390f35b3480156101b557600080fd5b506101d060048036038101906101cb91906113e1565b610ce8565b005b6101da610d6b565b6101e2610de9565b6000600460008773ffffffffffffffffffffffffffffffffffffffff1673ffffffffffffffffffffffffffffffffffffffff1681526020019081526020016000206040518060a00160405290816000820160009054906101000a900473ffffffffffffffffffffffffffffffffffffffff1673ffffffffffffffffffffffffffffffffffffffff1673ffffffffffffffffffffffffffffffffffffffff1681526020016001820160009054906101000a900473ffffffffffffffffffffffffffffffffffffffff1673ffffffffffffffffffffffffffffffffffffffff1673ffffffffffffffffffffffffffffffffffffffff1681526020016002820154815260200160038201548152602001600482015481525050905061030381610e38565b610342576040517f08c379a00000000000000000000000000000000000000000000000000000000081526004016103399061146b565b60405180910390fd5b8481604001511015610389576040517f08c379a0000000000000000000000000000000000000000000000000000000008152600401610380906114d7565b60405180910390fd5b600460008773ffffffffffffffffffffffffffffffffffffffff1673ffffffffffffffffffffffffffffffffffffffff168152602001908152602001600020600080820160006101000a81549073ffffffffffffffffffffffffffffffffffffffff02191690556001820160006101000a81549073ffffffffffffffffffffffffffffffffffffffff0219169055600282016000905560038201600090556004820160009055505060003373ffffffffffffffffffffffffffffffffffffffff166108fc6002549081150290604051600060405180830381858888f193505050509050806104ac576040517f08c379a00000000000000000000000000000000000000000000000000000000081526004016104a390611543565b60405180910390fd5b600360009054906101000a900473ffffffffffffffffffffffffffffffffffffffff1673ffffffffffffffffffffffffffffffffffffffff166338e981aa83604001516001856020015186604001518b8b8b8b6040518963ffffffff1660e01b815260040161052197969594939291906115fe565b6000604051808303818588803b15801561053a57600080fd5b505af115801561054e573d6000803e3d6000fd5b5050505050505061055d610e75565b5050505050565b600073ffffffffffffffffffffffffffffffffffffffff163373ffffffffffffffffffffffffffffffffffffffff16036105d3576040517f08c379a00000000000000000000000000000000000000000000000000000000081526004016105ca906116bb565b60405180910390fd5b600073ffffffffffffffffffffffffffffffffffffffff168373ffffffffffffffffffffffffffffffffffffffff1603610642576040517f08c379a00000000000000000000000000000000000000000000000000000000081526004016106399061174d565b60405180910390fd5b60008211610685576040517f08c379a000000000000000000000000000000000000000000000000000000000815260040161067c906117df565b60405180910390fd5b6002543410156106ca576040517f08c379a00000000000000000000000000000000000000000000000000000000081526004016106c190611871565b60405180910390fd5b6000600254346106da91906118c0565b90508181101561071f576040517f08c379a00000000000000000000000000000000000000000000000000000000081526004016107169061198c565b60405180910390fd5b6040518060a001604052803373ffffffffffffffffffffffffffffffffffffffff1681526020018573ffffffffffffffffffffffffffffffffffffffff16815260200182815260200183815260200184815250600460003373ffffffffffffffffffffffffffffffffffffffff1673ffffffffffffffffffffffffffffffffffffffff16815260200190815260200160002060008201518160000160006101000a81548173ffffffffffffffffffffffffffffffffffffffff021916908373ffffffffffffffffffffffffffffffffffffffff16021790555060208201518160010160006101000a81548173ffffffffffffffffffffffffffffffffffffffff021916908373ffffffffffffffffffffffffffffffffffffffff16021790555060408201518160020155606082015181600301556080820151816004015590505050505050565b600360009054906101000a900473ffffffffffffffffffffffffffffffffffffffff1681565b610894610de9565b6000600460003373ffffffffffffffffffffffffffffffffffffffff1673ffffffffffffffffffffffffffffffffffffffff1681526020019081526020016000206040518060a00160405290816000820160009054906101000a900473ffffffffffffffffffffffffffffffffffffffff1673ffffffffffffffffffffffffffffffffffffffff1673ffffffffffffffffffffffffffffffffffffffff1681526020016001820160009054906101000a900473ffffffffffffffffffffffffffffffffffffffff1673ffffffffffffffffffffffffffffffffffffffff1673ffffffffffffffffffffffffffffffffffffffff168152602001600282015481526020016003820154815260200160048201548152505090506109b581610e38565b6109f4576040517f08c379a00000000000000000000000000000000000000000000000000000000081526004016109eb906119f8565b60405180910390fd5b600460003373ffffffffffffffffffffffffffffffffffffffff1673ffffffffffffffffffffffffffffffffffffffff168152602001908152602001600020600080820160006101000a81549073ffffffffffffffffffffffffffffffffffffffff02191690556001820160006101000a81549073ffffffffffffffffffffffffffffffffffffffff021916905560028201600090556003820160009055600482016000905550503373ffffffffffffffffffffffffffffffffffffffff16816000015173ffffffffffffffffffffffffffffffffffffffff1614610adc57610adb611a18565b5b60003373ffffffffffffffffffffffffffffffffffffffff166108fc83604001519081150290604051600060405180830381858888f19350505050905080610b59576040517f08c379a0000000000000000000000000000000000000000000000000000000008152600401610b5090611ab9565b60405180910390fd5b5050610b63610e75565b565b610b6d610f4a565b600080600460003373ffffffffffffffffffffffffffffffffffffffff1673ffffffffffffffffffffffffffffffffffffffff1681526020019081526020016000206040518060a00160405290816000820160009054906101000a900473ffffffffffffffffffffffffffffffffffffffff1673ffffffffffffffffffffffffffffffffffffffff1673ffffffffffffffffffffffffffffffffffffffff1681526020016001820160009054906101000a900473ffffffffffffffffffffffffffffffffffffffff1673ffffffffffffffffffffffffffffffffffffffff1673ffffffffffffffffffffffffffffffffffffffff1681526020016002820154815260200160038201548152602001600482015481525050905080610c9082610e38565b92509250509091565b610ca1610d6b565b8060028190555050565b610cb3610d6b565b610cbd6000610e7e565b565b60008060009054906101000a900473ffffffffffffffffffffffffffffffffffffffff16905090565b610cf0610d6b565b600073ffffffffffffffffffffffffffffffffffffffff168173ffffffffffffffffffffffffffffffffffffffff1603610d5f576040517f08c379a0000000000000000000000000000000000000000000000000000000008152600401610d5690611b4b565b60405180910390fd5b610d6881610e7e565b50565b610d73610f42565b73ffffffffffffffffffffffffffffffffffffffff16610d91610cbf565b73ffffffffffffffffffffffffffffffffffffffff1614610de7576040517f08c379a0000000000000000000000000000000000000000000000000000000008152600401610dde90611bb7565b60405180910390fd5b565b600260015403610e2e576040517f08c379a0000000000000000000000000000000000000000000000000000000008152600401610e2590611c23565b60405180910390fd5b6002600181905550565b60008073ffffffffffffffffffffffffffffffffffffffff16826000015173ffffffffffffffffffffffffffffffffffffffff1614159050919050565b60018081905550565b60008060009054906101000a900473ffffffffffffffffffffffffffffffffffffffff169050816000806101000a81548173ffffffffffffffffffffffffffffffffffffffff021916908373ffffffffffffffffffffffffffffffffffffffff1602179055508173ffffffffffffffffffffffffffffffffffffffff168173ffffffffffffffffffffffffffffffffffffffff167f8be0079c531659141344cd1fd0a4f28419497f9722a3daafe3b4186f6b6457e060405160405180910390a35050565b600033905090565b6040518060a00160405280600073ffffffffffffffffffffffffffffffffffffffff168152602001600073ffffffffffffffffffffffffffffffffffffffff1681526020016000815260200160008152602001600081525090565b6000604051905090565b600080fd5b600073ffffffffffffffffffffffffffffffffffffffff82169050919050565b6000610fdf82610fb4565b9050919050565b610fef81610fd4565b8114610ffa57600080fd5b50565b60008135905061100c81610fe6565b92915050565b6000819050919050565b61102581611012565b811461103057600080fd5b50565b6000813590506110428161101c565b92915050565b600080fd5b6000601f19601f8301169050919050565b7f4e487b7100000000000000000000000000000000000000000000000000000000600052604160045260246000fd5b6110968261104d565b810181811067ffffffffffffffff821117156110b5576110b461105e565b5b80604052505050565b60006110c8610fa5565b90506110d4828261108d565b919050565b600060ff82169050919050565b6110ef816110d9565b81146110fa57600080fd5b50565b60008135905061110c816110e6565b92915050565b60006060828403121561112857611127611048565b5b61113260606110be565b90506000611142848285016110fd565b600083015250602061115684828501611033565b602083015250604061116a84828501611033565b60408301525092915050565b6000806000806000610120868803121561119357611192610faf565b5b60006111a188828901610ffd565b95505060206111b288828901611033565b94505060406111c388828901611112565b93505060a06111d488828901611112565b9250506101006111e688828901610ffd565b9150509295509295909350565b60008060006060848603121561120c5761120b610faf565b5b600061121a86828701610ffd565b935050602061122b86828701611033565b925050604061123c86828701611033565b9150509250925092565b6000819050919050565b600061126b61126661126184610fb4565b611246565b610fb4565b9050919050565b600061127d82611250565b9050919050565b600061128f82611272565b9050919050565b61129f81611284565b82525050565b60006020820190506112ba6000830184611296565b92915050565b6112c981610fd4565b82525050565b6112d881611012565b82525050565b60a0820160008201516112f460008501826112c0565b50602082015161130760208501826112c0565b50604082015161131a60408501826112cf565b50606082015161132d60608501826112cf565b50608082015161134060808501826112cf565b50505050565b60008115159050919050565b61135b81611346565b82525050565b600060c08201905061137660008301856112de565b61138360a0830184611352565b9392505050565b6000602082840312156113a05761139f610faf565b5b60006113ae84828501611033565b91505092915050565b6113c081610fd4565b82525050565b60006020820190506113db60008301846113b7565b92915050565b6000602082840312156113f7576113f6610faf565b5b600061140584828501610ffd565b91505092915050565b600082825260208201905092915050565b7f4e6f207265717565737420746f2070726f636573730000000000000000000000600082015250565b600061145560158361140e565b91506114608261141f565b602082019050919050565b6000602082019050818103600083015261148481611448565b9050919050565b7f426f6e646572206665652063616e6e6f742065786365656420616d6f756e742e600082015250565b60006114c160208361140e565b91506114cc8261148b565b602082019050919050565b600060208201905081810360008301526114f0816114b4565b9050919050565b7f4661696c656420746f20726566756e64206578656375746f7200000000000000600082015250565b600061152d60198361140e565b9150611538826114f7565b602082019050919050565b6000602082019050818103600083015261155c81611520565b9050919050565b6000819050919050565b600061158861158361157e84611563565b611246565b611012565b9050919050565b6115988161156d565b82525050565b6115a781611012565b82525050565b6115b6816110d9565b82525050565b6060820160008201516115d260008501826115ad565b5060208201516115e560208501826112cf565b5060408201516115f860408501826112cf565b50505050565b600061016082019050611614600083018a61158f565b61162160208301896113b7565b61162e604083018861159e565b61163b606083018761159e565b61164860808301866115bc565b61165560e08301856115bc565b6116636101408301846113b7565b98975050505050505050565b7f53656e646572206d6179206e6f74206265203020616464726573730000000000600082015250565b60006116a5601b8361140e565b91506116b08261166f565b602082019050919050565b600060208201905081810360008301526116d481611698565b9050919050565b7f44657374696e6174696f6e2061646472657373206d6179206e6f74206265203060008201527f2061646472657373000000000000000000000000000000000000000000000000602082015250565b600061173760288361140e565b9150611742826116db565b604082019050919050565b600060208201905081810360008301526117668161172a565b9050919050565b7f57616e746564204c3120676173207072696365206d757374206265207374726960008201527f63746c7920706f73697469766500000000000000000000000000000000000000602082015250565b60006117c9602d8361140e565b91506117d48261176d565b604082019050919050565b600060208201905081810360008301526117f8816117bc565b9050919050565b7f4e6f7420656e6f7567682066756e647320746f2070617920666f722064656c6160008201527f79656420657865637574696f6e00000000000000000000000000000000000000602082015250565b600061185b602d8361140e565b9150611866826117ff565b604082019050919050565b6000602082019050818103600083015261188a8161184e565b9050919050565b7f4e487b7100000000000000000000000000000000000000000000000000000000600052601160045260246000fd5b60006118cb82611012565b91506118d683611012565b92508282039050818111156118ee576118ed611891565b5b92915050565b7f43616c63756c617465642073656e7420616d6f756e74206d757374206265206c60008201527f6172676572207468616e20746865207265717569726564206d696e696d756d2060208201527f616d6f756e74206172726976696e672061742064657374696e6174696f6e2e00604082015250565b6000611976605f8361140e565b9150611981826118f4565b606082019050919050565b600060208201905081810360008301526119a581611969565b9050919050565b7f4e6f207265717565737420746f20776974686472617700000000000000000000600082015250565b60006119e260168361140e565b91506119ed826119ac565b602082019050919050565b60006020820190508181036000830152611a11816119d5565b9050919050565b7f4e487b7100000000000000000000000000000000000000000000000000000000600052600160045260246000fd5b7f4661696c656420746f2077697468647261772066756e647320746f206d73672e60008201527f73656e6465720000000000000000000000000000000000000000000000000000602082015250565b6000611aa360268361140e565b9150611aae82611a47565b604082019050919050565b60006020820190508181036000830152611ad281611a96565b9050919050565b7f4f776e61626c653a206e6577206f776e657220697320746865207a65726f206160008201527f6464726573730000000000000000000000000000000000000000000000000000602082015250565b6000611b3560268361140e565b9150611b4082611ad9565b604082019050919050565b60006020820190508181036000830152611b6481611b28565b9050919050565b7f4f776e61626c653a2063616c6c6572206973206e6f7420746865206f776e6572600082015250565b6000611ba160208361140e565b9150611bac82611b6b565b602082019050919050565b60006020820190508181036000830152611bd081611b94565b9050919050565b7f5265656e7472616e637947756172643a207265656e7472616e742063616c6c00600082015250565b6000611c0d601f8361140e565b9150611c1882611bd7565b602082019050919050565b60006020820190508181036000830152611c3c81611c00565b905091905056fea2646970667358221220df4c54fdb3612e77d5f534d79647bcf6d40e25ca4c4e00fdfc667fb47a247f4364736f6c63430008120033",
					"opcodes": "PUSH1 0x80 PUSH1 0x40 MSTORE CALLVALUE DUP1 ISZERO PUSH3 0x11 JUMPI PUSH1 0x0 DUP1 REVERT JUMPDEST POP PUSH1 0x40 MLOAD PUSH3 0x1F03 CODESIZE SUB DUP1 PUSH3 0x1F03 DUP4 CODECOPY DUP2 DUP2 ADD PUSH1 0x40 MSTORE DUP2 ADD SWAP1 PUSH3 0x37 SWAP2 SWAP1 PUSH3 0x233 JUMP JUMPDEST PUSH3 0x57 PUSH3 0x4B PUSH3 0xAE PUSH1 0x20 SHL PUSH1 0x20 SHR JUMP JUMPDEST PUSH3 0xB6 PUSH1 0x20 SHL PUSH1 0x20 SHR JUMP JUMPDEST PUSH1 0x1 DUP1 DUP2 SWAP1 SSTORE POP DUP2 PUSH1 0x2 DUP2 SWAP1 SSTORE POP DUP1 PUSH1 0x3 PUSH1 0x0 PUSH2 0x100 EXP DUP2 SLOAD DUP2 PUSH20 0xFFFFFFFFFFFFFFFFFFFFFFFFFFFFFFFFFFFFFFFF MUL NOT AND SWAP1 DUP4 PUSH20 0xFFFFFFFFFFFFFFFFFFFFFFFFFFFFFFFFFFFFFFFF AND MUL OR SWAP1 SSTORE POP POP POP PUSH3 0x27A JUMP JUMPDEST PUSH1 0x0 CALLER SWAP1 POP SWAP1 JUMP JUMPDEST PUSH1 0x0 DUP1 PUSH1 0x0 SWAP1 SLOAD SWAP1 PUSH2 0x100 EXP SWAP1 DIV PUSH20 0xFFFFFFFFFFFFFFFFFFFFFFFFFFFFFFFFFFFFFFFF AND SWAP1 POP DUP2 PUSH1 0x0 DUP1 PUSH2 0x100 EXP DUP2 SLOAD DUP2 PUSH20 0xFFFFFFFFFFFFFFFFFFFFFFFFFFFFFFFFFFFFFFFF MUL NOT AND SWAP1 DUP4 PUSH20 0xFFFFFFFFFFFFFFFFFFFFFFFFFFFFFFFFFFFFFFFF AND MUL OR SWAP1 SSTORE POP DUP2 PUSH20 0xFFFFFFFFFFFFFFFFFFFFFFFFFFFFFFFFFFFFFFFF AND DUP2 PUSH20 0xFFFFFFFFFFFFFFFFFFFFFFFFFFFFFFFFFFFFFFFF AND PUSH32 0x8BE0079C531659141344CD1FD0A4F28419497F9722A3DAAFE3B4186F6B6457E0 PUSH1 0x40 MLOAD PUSH1 0x40 MLOAD DUP1 SWAP2 SUB SWAP1 LOG3 POP POP JUMP JUMPDEST PUSH1 0x0 DUP1 REVERT JUMPDEST PUSH1 0x0 DUP2 SWAP1 POP SWAP2 SWAP1 POP JUMP JUMPDEST PUSH3 0x194 DUP2 PUSH3 0x17F JUMP JUMPDEST DUP2 EQ PUSH3 0x1A0 JUMPI PUSH1 0x0 DUP1 REVERT JUMPDEST POP JUMP JUMPDEST PUSH1 0x0 DUP2 MLOAD SWAP1 POP PUSH3 0x1B4 DUP2 PUSH3 0x189 JUMP JUMPDEST SWAP3 SWAP2 POP POP JUMP JUMPDEST PUSH1 0x0 PUSH20 0xFFFFFFFFFFFFFFFFFFFFFFFFFFFFFFFFFFFFFFFF DUP3 AND SWAP1 POP SWAP2 SWAP1 POP JUMP JUMPDEST PUSH1 0x0 PUSH3 0x1E7 DUP3 PUSH3 0x1BA JUMP JUMPDEST SWAP1 POP SWAP2 SWAP1 POP JUMP JUMPDEST PUSH1 0x0 PUSH3 0x1FB DUP3 PUSH3 0x1DA JUMP JUMPDEST SWAP1 POP SWAP2 SWAP1 POP JUMP JUMPDEST PUSH3 0x20D DUP2 PUSH3 0x1EE JUMP JUMPDEST DUP2 EQ PUSH3 0x219 JUMPI PUSH1 0x0 DUP1 REVERT JUMPDEST POP JUMP JUMPDEST PUSH1 0x0 DUP2 MLOAD SWAP1 POP PUSH3 0x22D DUP2 PUSH3 0x202 JUMP JUMPDEST SWAP3 SWAP2 POP POP JUMP JUMPDEST PUSH1 0x0 DUP1 PUSH1 0x40 DUP4 DUP6 SUB SLT ISZERO PUSH3 0x24D JUMPI PUSH3 0x24C PUSH3 0x17A JUMP JUMPDEST JUMPDEST PUSH1 0x0 PUSH3 0x25D DUP6 DUP3 DUP7 ADD PUSH3 0x1A3 JUMP JUMPDEST SWAP3 POP POP PUSH1 0x20 PUSH3 0x270 DUP6 DUP3 DUP7 ADD PUSH3 0x21C JUMP JUMPDEST SWAP2 POP POP SWAP3 POP SWAP3 SWAP1 POP JUMP JUMPDEST PUSH2 0x1C79 DUP1 PUSH3 0x28A PUSH1 0x0 CODECOPY PUSH1 0x0 RETURN INVALID PUSH1 0x80 PUSH1 0x40 MSTORE PUSH1 0x4 CALLDATASIZE LT PUSH2 0x86 JUMPI PUSH1 0x0 CALLDATALOAD PUSH1 0xE0 SHR DUP1 PUSH4 0x4A0AEE29 GT PUSH2 0x59 JUMPI DUP1 PUSH4 0x4A0AEE29 EQ PUSH2 0x112 JUMPI DUP1 PUSH4 0x54CAEF7D EQ PUSH2 0x13E JUMPI DUP1 PUSH4 0x715018A6 EQ PUSH2 0x167 JUMPI DUP1 PUSH4 0x8DA5CB5B EQ PUSH2 0x17E JUMPI DUP1 PUSH4 0xF2FDE38B EQ PUSH2 0x1A9 JUMPI PUSH2 0x86 JUMP JUMPDEST DUP1 PUSH4 0xE48B88A EQ PUSH2 0x8B JUMPI DUP1 PUSH4 0xEFE6A8B EQ PUSH2 0xB4 JUMPI DUP1 PUSH4 0x25608185 EQ PUSH2 0xD0 JUMPI DUP1 PUSH4 0x3CCFD60B EQ PUSH2 0xFB JUMPI JUMPDEST PUSH1 0x0 DUP1 REVERT JUMPDEST CALLVALUE DUP1 ISZERO PUSH2 0x97 JUMPI PUSH1 0x0 DUP1 REVERT JUMPDEST POP PUSH2 0xB2 PUSH1 0x4 DUP1 CALLDATASIZE SUB DUP2 ADD SWAP1 PUSH2 0xAD SWAP2 SWAP1 PUSH2 0x1176 JUMP JUMPDEST PUSH2 0x1D2 JUMP JUMPDEST STOP JUMPDEST PUSH2 0xCE PUSH1 0x4 DUP1 CALLDATASIZE SUB DUP2 ADD SWAP1 PUSH2 0xC9 SWAP2 SWAP1 PUSH2 0x11F3 JUMP JUMPDEST PUSH2 0x564 JUMP JUMPDEST STOP JUMPDEST CALLVALUE DUP1 ISZERO PUSH2 0xDC JUMPI PUSH1 0x0 DUP1 REVERT JUMPDEST POP PUSH2 0xE5 PUSH2 0x866 JUMP JUMPDEST PUSH1 0x40 MLOAD PUSH2 0xF2 SWAP2 SWAP1 PUSH2 0x12A5 JUMP JUMPDEST PUSH1 0x40 MLOAD DUP1 SWAP2 SUB SWAP1 RETURN JUMPDEST CALLVALUE DUP1 ISZERO PUSH2 0x107 JUMPI PUSH1 0x0 DUP1 REVERT JUMPDEST POP PUSH2 0x110 PUSH2 0x88C JUMP JUMPDEST STOP JUMPDEST CALLVALUE DUP1 ISZERO PUSH2 0x11E JUMPI PUSH1 0x0 DUP1 REVERT JUMPDEST POP PUSH2 0x127 PUSH2 0xB65 JUMP JUMPDEST PUSH1 0x40 MLOAD PUSH2 0x135 SWAP3 SWAP2 SWAP1 PUSH2 0x1361 JUMP JUMPDEST PUSH1 0x40 MLOAD DUP1 SWAP2 SUB SWAP1 RETURN JUMPDEST CALLVALUE DUP1 ISZERO PUSH2 0x14A JUMPI PUSH1 0x0 DUP1 REVERT JUMPDEST POP PUSH2 0x165 PUSH1 0x4 DUP1 CALLDATASIZE SUB DUP2 ADD SWAP1 PUSH2 0x160 SWAP2 SWAP1 PUSH2 0x138A JUMP JUMPDEST PUSH2 0xC99 JUMP JUMPDEST STOP JUMPDEST CALLVALUE DUP1 ISZERO PUSH2 0x173 JUMPI PUSH1 0x0 DUP1 REVERT JUMPDEST POP PUSH2 0x17C PUSH2 0xCAB JUMP JUMPDEST STOP JUMPDEST CALLVALUE DUP1 ISZERO PUSH2 0x18A JUMPI PUSH1 0x0 DUP1 REVERT JUMPDEST POP PUSH2 0x193 PUSH2 0xCBF JUMP JUMPDEST PUSH1 0x40 MLOAD PUSH2 0x1A0 SWAP2 SWAP1 PUSH2 0x13C6 JUMP JUMPDEST PUSH1 0x40 MLOAD DUP1 SWAP2 SUB SWAP1 RETURN JUMPDEST CALLVALUE DUP1 ISZERO PUSH2 0x1B5 JUMPI PUSH1 0x0 DUP1 REVERT JUMPDEST POP PUSH2 0x1D0 PUSH1 0x4 DUP1 CALLDATASIZE SUB DUP2 ADD SWAP1 PUSH2 0x1CB SWAP2 SWAP1 PUSH2 0x13E1 JUMP JUMPDEST PUSH2 0xCE8 JUMP JUMPDEST STOP JUMPDEST PUSH2 0x1DA PUSH2 0xD6B JUMP JUMPDEST PUSH2 0x1E2 PUSH2 0xDE9 JUMP JUMPDEST PUSH1 0x0 PUSH1 0x4 PUSH1 0x0 DUP8 PUSH20 0xFFFFFFFFFFFFFFFFFFFFFFFFFFFFFFFFFFFFFFFF AND PUSH20 0xFFFFFFFFFFFFFFFFFFFFFFFFFFFFFFFFFFFFFFFF AND DUP2 MSTORE PUSH1 0x20 ADD SWAP1 DUP2 MSTORE PUSH1 0x20 ADD PUSH1 0x0 KECCAK256 PUSH1 0x40 MLOAD DUP1 PUSH1 0xA0 ADD PUSH1 0x40 MSTORE SWAP1 DUP2 PUSH1 0x0 DUP3 ADD PUSH1 0x0 SWAP1 SLOAD SWAP1 PUSH2 0x100 EXP SWAP1 DIV PUSH20 0xFFFFFFFFFFFFFFFFFFFFFFFFFFFFFFFFFFFFFFFF AND PUSH20 0xFFFFFFFFFFFFFFFFFFFFFFFFFFFFFFFFFFFFFFFF AND PUSH20 0xFFFFFFFFFFFFFFFFFFFFFFFFFFFFFFFFFFFFFFFF AND DUP2 MSTORE PUSH1 0x20 ADD PUSH1 0x1 DUP3 ADD PUSH1 0x0 SWAP1 SLOAD SWAP1 PUSH2 0x100 EXP SWAP1 DIV PUSH20 0xFFFFFFFFFFFFFFFFFFFFFFFFFFFFFFFFFFFFFFFF AND PUSH20 0xFFFFFFFFFFFFFFFFFFFFFFFFFFFFFFFFFFFFFFFF AND PUSH20 0xFFFFFFFFFFFFFFFFFFFFFFFFFFFFFFFFFFFFFFFF AND DUP2 MSTORE PUSH1 0x20 ADD PUSH1 0x2 DUP3 ADD SLOAD DUP2 MSTORE PUSH1 0x20 ADD PUSH1 0x3 DUP3 ADD SLOAD DUP2 MSTORE PUSH1 0x20 ADD PUSH1 0x4 DUP3 ADD SLOAD DUP2 MSTORE POP POP SWAP1 POP PUSH2 0x303 DUP2 PUSH2 0xE38 JUMP JUMPDEST PUSH2 0x342 JUMPI PUSH1 0x40 MLOAD PUSH32 0x8C379A000000000000000000000000000000000000000000000000000000000 DUP2 MSTORE PUSH1 0x4 ADD PUSH2 0x339 SWAP1 PUSH2 0x146B JUMP JUMPDEST PUSH1 0x40 MLOAD DUP1 SWAP2 SUB SWAP1 REVERT JUMPDEST DUP5 DUP2 PUSH1 0x40 ADD MLOAD LT ISZERO PUSH2 0x389 JUMPI PUSH1 0x40 MLOAD PUSH32 0x8C379A000000000000000000000000000000000000000000000000000000000 DUP2 MSTORE PUSH1 0x4 ADD PUSH2 0x380 SWAP1 PUSH2 0x14D7 JUMP JUMPDEST PUSH1 0x40 MLOAD DUP1 SWAP2 SUB SWAP1 REVERT JUMPDEST PUSH1 0x4 PUSH1 0x0 DUP8 PUSH20 0xFFFFFFFFFFFFFFFFFFFFFFFFFFFFFFFFFFFFFFFF AND PUSH20 0xFFFFFFFFFFFFFFFFFFFFFFFFFFFFFFFFFFFFFFFF AND DUP2 MSTORE PUSH1 0x20 ADD SWAP1 DUP2 MSTORE PUSH1 0x20 ADD PUSH1 0x0 KECCAK256 PUSH1 0x0 DUP1 DUP3 ADD PUSH1 0x0 PUSH2 0x100 EXP DUP2 SLOAD SWAP1 PUSH20 0xFFFFFFFFFFFFFFFFFFFFFFFFFFFFFFFFFFFFFFFF MUL NOT AND SWAP1 SSTORE PUSH1 0x1 DUP3 ADD PUSH1 0x0 PUSH2 0x100 EXP DUP2 SLOAD SWAP1 PUSH20 0xFFFFFFFFFFFFFFFFFFFFFFFFFFFFFFFFFFFFFFFF MUL NOT AND SWAP1 SSTORE PUSH1 0x2 DUP3 ADD PUSH1 0x0 SWAP1 SSTORE PUSH1 0x3 DUP3 ADD PUSH1 0x0 SWAP1 SSTORE PUSH1 0x4 DUP3 ADD PUSH1 0x0 SWAP1 SSTORE POP POP PUSH1 0x0 CALLER PUSH20 0xFFFFFFFFFFFFFFFFFFFFFFFFFFFFFFFFFFFFFFFF AND PUSH2 0x8FC PUSH1 0x2 SLOAD SWAP1 DUP2 ISZERO MUL SWAP1 PUSH1 0x40 MLOAD PUSH1 0x0 PUSH1 0x40 MLOAD DUP1 DUP4 SUB DUP2 DUP6 DUP9 DUP9 CALL SWAP4 POP POP POP POP SWAP1 POP DUP1 PUSH2 0x4AC JUMPI PUSH1 0x40 MLOAD PUSH32 0x8C379A000000000000000000000000000000000000000000000000000000000 DUP2 MSTORE PUSH1 0x4 ADD PUSH2 0x4A3 SWAP1 PUSH2 0x1543 JUMP JUMPDEST PUSH1 0x40 MLOAD DUP1 SWAP2 SUB SWAP1 REVERT JUMPDEST PUSH1 0x3 PUSH1 0x0 SWAP1 SLOAD SWAP1 PUSH2 0x100 EXP SWAP1 DIV PUSH20 0xFFFFFFFFFFFFFFFFFFFFFFFFFFFFFFFFFFFFFFFF AND PUSH20 0xFFFFFFFFFFFFFFFFFFFFFFFFFFFFFFFFFFFFFFFF AND PUSH4 0x38E981AA DUP4 PUSH1 0x40 ADD MLOAD PUSH1 0x1 DUP6 PUSH1 0x20 ADD MLOAD DUP7 PUSH1 0x40 ADD MLOAD DUP12 DUP12 DUP12 DUP12 PUSH1 0x40 MLOAD DUP10 PUSH4 0xFFFFFFFF AND PUSH1 0xE0 SHL DUP2 MSTORE PUSH1 0x4 ADD PUSH2 0x521 SWAP8 SWAP7 SWAP6 SWAP5 SWAP4 SWAP3 SWAP2 SWAP1 PUSH2 0x15FE JUMP JUMPDEST PUSH1 0x0 PUSH1 0x40 MLOAD DUP1 DUP4 SUB DUP2 DUP6 DUP9 DUP1 EXTCODESIZE ISZERO DUP1 ISZERO PUSH2 0x53A JUMPI PUSH1 0x0 DUP1 REVERT JUMPDEST POP GAS CALL ISZERO DUP1 ISZERO PUSH2 0x54E JUMPI RETURNDATASIZE PUSH1 0x0 DUP1 RETURNDATACOPY RETURNDATASIZE PUSH1 0x0 REVERT JUMPDEST POP POP POP POP POP POP POP PUSH2 0x55D PUSH2 0xE75 JUMP JUMPDEST POP POP POP POP POP JUMP JUMPDEST PUSH1 0x0 PUSH20 0xFFFFFFFFFFFFFFFFFFFFFFFFFFFFFFFFFFFFFFFF AND CALLER PUSH20 0xFFFFFFFFFFFFFFFFFFFFFFFFFFFFFFFFFFFFFFFF AND SUB PUSH2 0x5D3 JUMPI PUSH1 0x40 MLOAD PUSH32 0x8C379A000000000000000000000000000000000000000000000000000000000 DUP2 MSTORE PUSH1 0x4 ADD PUSH2 0x5CA SWAP1 PUSH2 0x16BB JUMP JUMPDEST PUSH1 0x40 MLOAD DUP1 SWAP2 SUB SWAP1 REVERT JUMPDEST PUSH1 0x0 PUSH20 0xFFFFFFFFFFFFFFFFFFFFFFFFFFFFFFFFFFFFFFFF AND DUP4 PUSH20 0xFFFFFFFFFFFFFFFFFFFFFFFFFFFFFFFFFFFFFFFF AND SUB PUSH2 0x642 JUMPI PUSH1 0x40 MLOAD PUSH32 0x8C379A000000000000000000000000000000000000000000000000000000000 DUP2 MSTORE PUSH1 0x4 ADD PUSH2 0x639 SWAP1 PUSH2 0x174D JUMP JUMPDEST PUSH1 0x40 MLOAD DUP1 SWAP2 SUB SWAP1 REVERT JUMPDEST PUSH1 0x0 DUP3 GT PUSH2 0x685 JUMPI PUSH1 0x40 MLOAD PUSH32 0x8C379A000000000000000000000000000000000000000000000000000000000 DUP2 MSTORE PUSH1 0x4 ADD PUSH2 0x67C SWAP1 PUSH2 0x17DF JUMP JUMPDEST PUSH1 0x40 MLOAD DUP1 SWAP2 SUB SWAP1 REVERT JUMPDEST PUSH1 0x2 SLOAD CALLVALUE LT ISZERO PUSH2 0x6CA JUMPI PUSH1 0x40 MLOAD PUSH32 0x8C379A000000000000000000000000000000000000000000000000000000000 DUP2 MSTORE PUSH1 0x4 ADD PUSH2 0x6C1 SWAP1 PUSH2 0x1871 JUMP JUMPDEST PUSH1 0x40 MLOAD DUP1 SWAP2 SUB SWAP1 REVERT JUMPDEST PUSH1 0x0 PUSH1 0x2 SLOAD CALLVALUE PUSH2 0x6DA SWAP2 SWAP1 PUSH2 0x18C0 JUMP JUMPDEST SWAP1 POP DUP2 DUP2 LT ISZERO PUSH2 0x71F JUMPI PUSH1 0x40 MLOAD PUSH32 0x8C379A000000000000000000000000000000000000000000000000000000000 DUP2 MSTORE PUSH1 0x4 ADD PUSH2 0x716 SWAP1 PUSH2 0x198C JUMP JUMPDEST PUSH1 0x40 MLOAD DUP1 SWAP2 SUB SWAP1 REVERT JUMPDEST PUSH1 0x40 MLOAD DUP1 PUSH1 0xA0 ADD PUSH1 0x40 MSTORE DUP1 CALLER PUSH20 0xFFFFFFFFFFFFFFFFFFFFFFFFFFFFFFFFFFFFFFFF AND DUP2 MSTORE PUSH1 0x20 ADD DUP6 PUSH20 0xFFFFFFFFFFFFFFFFFFFFFFFFFFFFFFFFFFFFFFFF AND DUP2 MSTORE PUSH1 0x20 ADD DUP3 DUP2 MSTORE PUSH1 0x20 ADD DUP4 DUP2 MSTORE PUSH1 0x20 ADD DUP5 DUP2 MSTORE POP PUSH1 0x4 PUSH1 0x0 CALLER PUSH20 0xFFFFFFFFFFFFFFFFFFFFFFFFFFFFFFFFFFFFFFFF AND PUSH20 0xFFFFFFFFFFFFFFFFFFFFFFFFFFFFFFFFFFFFFFFF AND DUP2 MSTORE PUSH1 0x20 ADD SWAP1 DUP2 MSTORE PUSH1 0x20 ADD PUSH1 0x0 KECCAK256 PUSH1 0x0 DUP3 ADD MLOAD DUP2 PUSH1 0x0 ADD PUSH1 0x0 PUSH2 0x100 EXP DUP2 SLOAD DUP2 PUSH20 0xFFFFFFFFFFFFFFFFFFFFFFFFFFFFFFFFFFFFFFFF MUL NOT AND SWAP1 DUP4 PUSH20 0xFFFFFFFFFFFFFFFFFFFFFFFFFFFFFFFFFFFFFFFF AND MUL OR SWAP1 SSTORE POP PUSH1 0x20 DUP3 ADD MLOAD DUP2 PUSH1 0x1 ADD PUSH1 0x0 PUSH2 0x100 EXP DUP2 SLOAD DUP2 PUSH20 0xFFFFFFFFFFFFFFFFFFFFFFFFFFFFFFFFFFFFFFFF MUL NOT AND SWAP1 DUP4 PUSH20 0xFFFFFFFFFFFFFFFFFFFFFFFFFFFFFFFFFFFFFFFF AND MUL OR SWAP1 SSTORE POP PUSH1 0x40 DUP3 ADD MLOAD DUP2 PUSH1 0x2 ADD SSTORE PUSH1 0x60 DUP3 ADD MLOAD DUP2 PUSH1 0x3 ADD SSTORE PUSH1 0x80 DUP3 ADD MLOAD DUP2 PUSH1 0x4 ADD SSTORE SWAP1 POP POP POP POP POP POP JUMP JUMPDEST PUSH1 0x3 PUSH1 0x0 SWAP1 SLOAD SWAP1 PUSH2 0x100 EXP SWAP1 DIV PUSH20 0xFFFFFFFFFFFFFFFFFFFFFFFFFFFFFFFFFFFFFFFF AND DUP2 JUMP JUMPDEST PUSH2 0x894 PUSH2 0xDE9 JUMP JUMPDEST PUSH1 0x0 PUSH1 0x4 PUSH1 0x0 CALLER PUSH20 0xFFFFFFFFFFFFFFFFFFFFFFFFFFFFFFFFFFFFFFFF AND PUSH20 0xFFFFFFFFFFFFFFFFFFFFFFFFFFFFFFFFFFFFFFFF AND DUP2 MSTORE PUSH1 0x20 ADD SWAP1 DUP2 MSTORE PUSH1 0x20 ADD PUSH1 0x0 KECCAK256 PUSH1 0x40 MLOAD DUP1 PUSH1 0xA0 ADD PUSH1 0x40 MSTORE SWAP1 DUP2 PUSH1 0x0 DUP3 ADD PUSH1 0x0 SWAP1 SLOAD SWAP1 PUSH2 0x100 EXP SWAP1 DIV PUSH20 0xFFFFFFFFFFFFFFFFFFFFFFFFFFFFFFFFFFFFFFFF AND PUSH20 0xFFFFFFFFFFFFFFFFFFFFFFFFFFFFFFFFFFFFFFFF AND PUSH20 0xFFFFFFFFFFFFFFFFFFFFFFFFFFFFFFFFFFFFFFFF AND DUP2 MSTORE PUSH1 0x20 ADD PUSH1 0x1 DUP3 ADD PUSH1 0x0 SWAP1 SLOAD SWAP1 PUSH2 0x100 EXP SWAP1 DIV PUSH20 0xFFFFFFFFFFFFFFFFFFFFFFFFFFFFFFFFFFFFFFFF AND PUSH20 0xFFFFFFFFFFFFFFFFFFFFFFFFFFFFFFFFFFFFFFFF AND PUSH20 0xFFFFFFFFFFFFFFFFFFFFFFFFFFFFFFFFFFFFFFFF AND DUP2 MSTORE PUSH1 0x20 ADD PUSH1 0x2 DUP3 ADD SLOAD DUP2 MSTORE PUSH1 0x20 ADD PUSH1 0x3 DUP3 ADD SLOAD DUP2 MSTORE PUSH1 0x20 ADD PUSH1 0x4 DUP3 ADD SLOAD DUP2 MSTORE POP POP SWAP1 POP PUSH2 0x9B5 DUP2 PUSH2 0xE38 JUMP JUMPDEST PUSH2 0x9F4 JUMPI PUSH1 0x40 MLOAD PUSH32 0x8C379A000000000000000000000000000000000000000000000000000000000 DUP2 MSTORE PUSH1 0x4 ADD PUSH2 0x9EB SWAP1 PUSH2 0x19F8 JUMP JUMPDEST PUSH1 0x40 MLOAD DUP1 SWAP2 SUB SWAP1 REVERT JUMPDEST PUSH1 0x4 PUSH1 0x0 CALLER PUSH20 0xFFFFFFFFFFFFFFFFFFFFFFFFFFFFFFFFFFFFFFFF AND PUSH20 0xFFFFFFFFFFFFFFFFFFFFFFFFFFFFFFFFFFFFFFFF AND DUP2 MSTORE PUSH1 0x20 ADD SWAP1 DUP2 MSTORE PUSH1 0x20 ADD PUSH1 0x0 KECCAK256 PUSH1 0x0 DUP1 DUP3 ADD PUSH1 0x0 PUSH2 0x100 EXP DUP2 SLOAD SWAP1 PUSH20 0xFFFFFFFFFFFFFFFFFFFFFFFFFFFFFFFFFFFFFFFF MUL NOT AND SWAP1 SSTORE PUSH1 0x1 DUP3 ADD PUSH1 0x0 PUSH2 0x100 EXP DUP2 SLOAD SWAP1 PUSH20 0xFFFFFFFFFFFFFFFFFFFFFFFFFFFFFFFFFFFFFFFF MUL NOT AND SWAP1 SSTORE PUSH1 0x2 DUP3 ADD PUSH1 0x0 SWAP1 SSTORE PUSH1 0x3 DUP3 ADD PUSH1 0x0 SWAP1 SSTORE PUSH1 0x4 DUP3 ADD PUSH1 0x0 SWAP1 SSTORE POP POP CALLER PUSH20 0xFFFFFFFFFFFFFFFFFFFFFFFFFFFFFFFFFFFFFFFF AND DUP2 PUSH1 0x0 ADD MLOAD PUSH20 0xFFFFFFFFFFFFFFFFFFFFFFFFFFFFFFFFFFFFFFFF AND EQ PUSH2 0xADC JUMPI PUSH2 0xADB PUSH2 0x1A18 JUMP JUMPDEST JUMPDEST PUSH1 0x0 CALLER PUSH20 0xFFFFFFFFFFFFFFFFFFFFFFFFFFFFFFFFFFFFFFFF AND PUSH2 0x8FC DUP4 PUSH1 0x40 ADD MLOAD SWAP1 DUP2 ISZERO MUL SWAP1 PUSH1 0x40 MLOAD PUSH1 0x0 PUSH1 0x40 MLOAD DUP1 DUP4 SUB DUP2 DUP6 DUP9 DUP9 CALL SWAP4 POP POP POP POP SWAP1 POP DUP1 PUSH2 0xB59 JUMPI PUSH1 0x40 MLOAD PUSH32 0x8C379A000000000000000000000000000000000000000000000000000000000 DUP2 MSTORE PUSH1 0x4 ADD PUSH2 0xB50 SWAP1 PUSH2 0x1AB9 JUMP JUMPDEST PUSH1 0x40 MLOAD DUP1 SWAP2 SUB SWAP1 REVERT JUMPDEST POP POP PUSH2 0xB63 PUSH2 0xE75 JUMP JUMPDEST JUMP JUMPDEST PUSH2 0xB6D PUSH2 0xF4A JUMP JUMPDEST PUSH1 0x0 DUP1 PUSH1 0x4 PUSH1 0x0 CALLER PUSH20 0xFFFFFFFFFFFFFFFFFFFFFFFFFFFFFFFFFFFFFFFF AND PUSH20 0xFFFFFFFFFFFFFFFFFFFFFFFFFFFFFFFFFFFFFFFF AND DUP2 MSTORE PUSH1 0x20 ADD SWAP1 DUP2 MSTORE PUSH1 0x20 ADD PUSH1 0x0 KECCAK256 PUSH1 0x40 MLOAD DUP1 PUSH1 0xA0 ADD PUSH1 0x40 MSTORE SWAP1 DUP2 PUSH1 0x0 DUP3 ADD PUSH1 0x0 SWAP1 SLOAD SWAP1 PUSH2 0x100 EXP SWAP1 DIV PUSH20 0xFFFFFFFFFFFFFFFFFFFFFFFFFFFFFFFFFFFFFFFF AND PUSH20 0xFFFFFFFFFFFFFFFFFFFFFFFFFFFFFFFFFFFFFFFF AND PUSH20 0xFFFFFFFFFFFFFFFFFFFFFFFFFFFFFFFFFFFFFFFF AND DUP2 MSTORE PUSH1 0x20 ADD PUSH1 0x1 DUP3 ADD PUSH1 0x0 SWAP1 SLOAD SWAP1 PUSH2 0x100 EXP SWAP1 DIV PUSH20 0xFFFFFFFFFFFFFFFFFFFFFFFFFFFFFFFFFFFFFFFF AND PUSH20 0xFFFFFFFFFFFFFFFFFFFFFFFFFFFFFFFFFFFFFFFF AND PUSH20 0xFFFFFFFFFFFFFFFFFFFFFFFFFFFFFFFFFFFFFFFF AND DUP2 MSTORE PUSH1 0x20 ADD PUSH1 0x2 DUP3 ADD SLOAD DUP2 MSTORE PUSH1 0x20 ADD PUSH1 0x3 DUP3 ADD SLOAD DUP2 MSTORE PUSH1 0x20 ADD PUSH1 0x4 DUP3 ADD SLOAD DUP2 MSTORE POP POP SWAP1 POP DUP1 PUSH2 0xC90 DUP3 PUSH2 0xE38 JUMP JUMPDEST SWAP3 POP SWAP3 POP POP SWAP1 SWAP2 JUMP JUMPDEST PUSH2 0xCA1 PUSH2 0xD6B JUMP JUMPDEST DUP1 PUSH1 0x2 DUP2 SWAP1 SSTORE POP POP JUMP JUMPDEST PUSH2 0xCB3 PUSH2 0xD6B JUMP JUMPDEST PUSH2 0xCBD PUSH1 0x0 PUSH2 0xE7E JUMP JUMPDEST JUMP JUMPDEST PUSH1 0x0 DUP1 PUSH1 0x0 SWAP1 SLOAD SWAP1 PUSH2 0x100 EXP SWAP1 DIV PUSH20 0xFFFFFFFFFFFFFFFFFFFFFFFFFFFFFFFFFFFFFFFF AND SWAP1 POP SWAP1 JUMP JUMPDEST PUSH2 0xCF0 PUSH2 0xD6B JUMP JUMPDEST PUSH1 0x0 PUSH20 0xFFFFFFFFFFFFFFFFFFFFFFFFFFFFFFFFFFFFFFFF AND DUP2 PUSH20 0xFFFFFFFFFFFFFFFFFFFFFFFFFFFFFFFFFFFFFFFF AND SUB PUSH2 0xD5F JUMPI PUSH1 0x40 MLOAD PUSH32 0x8C379A000000000000000000000000000000000000000000000000000000000 DUP2 MSTORE PUSH1 0x4 ADD PUSH2 0xD56 SWAP1 PUSH2 0x1B4B JUMP JUMPDEST PUSH1 0x40 MLOAD DUP1 SWAP2 SUB SWAP1 REVERT JUMPDEST PUSH2 0xD68 DUP2 PUSH2 0xE7E JUMP JUMPDEST POP JUMP JUMPDEST PUSH2 0xD73 PUSH2 0xF42 JUMP JUMPDEST PUSH20 0xFFFFFFFFFFFFFFFFFFFFFFFFFFFFFFFFFFFFFFFF AND PUSH2 0xD91 PUSH2 0xCBF JUMP JUMPDEST PUSH20 0xFFFFFFFFFFFFFFFFFFFFFFFFFFFFFFFFFFFFFFFF AND EQ PUSH2 0xDE7 JUMPI PUSH1 0x40 MLOAD PUSH32 0x8C379A000000000000000000000000000000000000000000000000000000000 DUP2 MSTORE PUSH1 0x4 ADD PUSH2 0xDDE SWAP1 PUSH2 0x1BB7 JUMP JUMPDEST PUSH1 0x40 MLOAD DUP1 SWAP2 SUB SWAP1 REVERT JUMPDEST JUMP JUMPDEST PUSH1 0x2 PUSH1 0x1 SLOAD SUB PUSH2 0xE2E JUMPI PUSH1 0x40 MLOAD PUSH32 0x8C379A000000000000000000000000000000000000000000000000000000000 DUP2 MSTORE PUSH1 0x4 ADD PUSH2 0xE25 SWAP1 PUSH2 0x1C23 JUMP JUMPDEST PUSH1 0x40 MLOAD DUP1 SWAP2 SUB SWAP1 REVERT JUMPDEST PUSH1 0x2 PUSH1 0x1 DUP2 SWAP1 SSTORE POP JUMP JUMPDEST PUSH1 0x0 DUP1 PUSH20 0xFFFFFFFFFFFFFFFFFFFFFFFFFFFFFFFFFFFFFFFF AND DUP3 PUSH1 0x0 ADD MLOAD PUSH20 0xFFFFFFFFFFFFFFFFFFFFFFFFFFFFFFFFFFFFFFFF AND EQ ISZERO SWAP1 POP SWAP2 SWAP1 POP JUMP JUMPDEST PUSH1 0x1 DUP1 DUP2 SWAP1 SSTORE POP JUMP JUMPDEST PUSH1 0x0 DUP1 PUSH1 0x0 SWAP1 SLOAD SWAP1 PUSH2 0x100 EXP SWAP1 DIV PUSH20 0xFFFFFFFFFFFFFFFFFFFFFFFFFFFFFFFFFFFFFFFF AND SWAP1 POP DUP2 PUSH1 0x0 DUP1 PUSH2 0x100 EXP DUP2 SLOAD DUP2 PUSH20 0xFFFFFFFFFFFFFFFFFFFFFFFFFFFFFFFFFFFFFFFF MUL NOT AND SWAP1 DUP4 PUSH20 0xFFFFFFFFFFFFFFFFFFFFFFFFFFFFFFFFFFFFFFFF AND MUL OR SWAP1 SSTORE POP DUP2 PUSH20 0xFFFFFFFFFFFFFFFFFFFFFFFFFFFFFFFFFFFFFFFF AND DUP2 PUSH20 0xFFFFFFFFFFFFFFFFFFFFFFFFFFFFFFFFFFFFFFFF AND PUSH32 0x8BE0079C531659141344CD1FD0A4F28419497F9722A3DAAFE3B4186F6B6457E0 PUSH1 0x40 MLOAD PUSH1 0x40 MLOAD DUP1 SWAP2 SUB SWAP1 LOG3 POP POP JUMP JUMPDEST PUSH1 0x0 CALLER SWAP1 POP SWAP1 JUMP JUMPDEST PUSH1 0x40 MLOAD DUP1 PUSH1 0xA0 ADD PUSH1 0x40 MSTORE DUP1 PUSH1 0x0 PUSH20 0xFFFFFFFFFFFFFFFFFFFFFFFFFFFFFFFFFFFFFFFF AND DUP2 MSTORE PUSH1 0x20 ADD PUSH1 0x0 PUSH20 0xFFFFFFFFFFFFFFFFFFFFFFFFFFFFFFFFFFFFFFFF AND DUP2 MSTORE PUSH1 0x20 ADD PUSH1 0x0 DUP2 MSTORE PUSH1 0x20 ADD PUSH1 0x0 DUP2 MSTORE PUSH1 0x20 ADD PUSH1 0x0 DUP2 MSTORE POP SWAP1 JUMP JUMPDEST PUSH1 0x0 PUSH1 0x40 MLOAD SWAP1 POP SWAP1 JUMP JUMPDEST PUSH1 0x0 DUP1 REVERT JUMPDEST PUSH1 0x0 PUSH20 0xFFFFFFFFFFFFFFFFFFFFFFFFFFFFFFFFFFFFFFFF DUP3 AND SWAP1 POP SWAP2 SWAP1 POP JUMP JUMPDEST PUSH1 0x0 PUSH2 0xFDF DUP3 PUSH2 0xFB4 JUMP JUMPDEST SWAP1 POP SWAP2 SWAP1 POP JUMP JUMPDEST PUSH2 0xFEF DUP2 PUSH2 0xFD4 JUMP JUMPDEST DUP2 EQ PUSH2 0xFFA JUMPI PUSH1 0x0 DUP1 REVERT JUMPDEST POP JUMP JUMPDEST PUSH1 0x0 DUP2 CALLDATALOAD SWAP1 POP PUSH2 0x100C DUP2 PUSH2 0xFE6 JUMP JUMPDEST SWAP3 SWAP2 POP POP JUMP JUMPDEST PUSH1 0x0 DUP2 SWAP1 POP SWAP2 SWAP1 POP JUMP JUMPDEST PUSH2 0x1025 DUP2 PUSH2 0x1012 JUMP JUMPDEST DUP2 EQ PUSH2 0x1030 JUMPI PUSH1 0x0 DUP1 REVERT JUMPDEST POP JUMP JUMPDEST PUSH1 0x0 DUP2 CALLDATALOAD SWAP1 POP PUSH2 0x1042 DUP2 PUSH2 0x101C JUMP JUMPDEST SWAP3 SWAP2 POP POP JUMP JUMPDEST PUSH1 0x0 DUP1 REVERT JUMPDEST PUSH1 0x0 PUSH1 0x1F NOT PUSH1 0x1F DUP4 ADD AND SWAP1 POP SWAP2 SWAP1 POP JUMP JUMPDEST PUSH32 0x4E487B7100000000000000000000000000000000000000000000000000000000 PUSH1 0x0 MSTORE PUSH1 0x41 PUSH1 0x4 MSTORE PUSH1 0x24 PUSH1 0x0 REVERT JUMPDEST PUSH2 0x1096 DUP3 PUSH2 0x104D JUMP JUMPDEST DUP2 ADD DUP2 DUP2 LT PUSH8 0xFFFFFFFFFFFFFFFF DUP3 GT OR ISZERO PUSH2 0x10B5 JUMPI PUSH2 0x10B4 PUSH2 0x105E JUMP JUMPDEST JUMPDEST DUP1 PUSH1 0x40 MSTORE POP POP POP JUMP JUMPDEST PUSH1 0x0 PUSH2 0x10C8 PUSH2 0xFA5 JUMP JUMPDEST SWAP1 POP PUSH2 0x10D4 DUP3 DUP3 PUSH2 0x108D JUMP JUMPDEST SWAP2 SWAP1 POP JUMP JUMPDEST PUSH1 0x0 PUSH1 0xFF DUP3 AND SWAP1 POP SWAP2 SWAP1 POP JUMP JUMPDEST PUSH2 0x10EF DUP2 PUSH2 0x10D9 JUMP JUMPDEST DUP2 EQ PUSH2 0x10FA JUMPI PUSH1 0x0 DUP1 REVERT JUMPDEST POP JUMP JUMPDEST PUSH1 0x0 DUP2 CALLDATALOAD SWAP1 POP PUSH2 0x110C DUP2 PUSH2 0x10E6 JUMP JUMPDEST SWAP3 SWAP2 POP POP JUMP JUMPDEST PUSH1 0x0 PUSH1 0x60 DUP3 DUP5 SUB SLT ISZERO PUSH2 0x1128 JUMPI PUSH2 0x1127 PUSH2 0x1048 JUMP JUMPDEST JUMPDEST PUSH2 0x1132 PUSH1 0x60 PUSH2 0x10BE JUMP JUMPDEST SWAP1 POP PUSH1 0x0 PUSH2 0x1142 DUP5 DUP3 DUP6 ADD PUSH2 0x10FD JUMP JUMPDEST PUSH1 0x0 DUP4 ADD MSTORE POP PUSH1 0x20 PUSH2 0x1156 DUP5 DUP3 DUP6 ADD PUSH2 0x1033 JUMP JUMPDEST PUSH1 0x20 DUP4 ADD MSTORE POP PUSH1 0x40 PUSH2 0x116A DUP5 DUP3 DUP6 ADD PUSH2 0x1033 JUMP JUMPDEST PUSH1 0x40 DUP4 ADD MSTORE POP SWAP3 SWAP2 POP POP JUMP JUMPDEST PUSH1 0x0 DUP1 PUSH1 0x0 DUP1 PUSH1 0x0 PUSH2 0x120 DUP7 DUP9 SUB SLT ISZERO PUSH2 0x1193 JUMPI PUSH2 0x1192 PUSH2 0xFAF JUMP JUMPDEST JUMPDEST PUSH1 0x0 PUSH2 0x11A1 DUP9 DUP3 DUP10 ADD PUSH2 0xFFD JUMP JUMPDEST SWAP6 POP POP PUSH1 0x20 PUSH2 0x11B2 DUP9 DUP3 DUP10 ADD PUSH2 0x1033 JUMP JUMPDEST SWAP5 POP POP PUSH1 0x40 PUSH2 0x11C3 DUP9 DUP3 DUP10 ADD PUSH2 0x1112 JUMP JUMPDEST SWAP4 POP POP PUSH1 0xA0 PUSH2 0x11D4 DUP9 DUP3 DUP10 ADD PUSH2 0x1112 JUMP JUMPDEST SWAP3 POP POP PUSH2 0x100 PUSH2 0x11E6 DUP9 DUP3 DUP10 ADD PUSH2 0xFFD JUMP JUMPDEST SWAP2 POP POP SWAP3 SWAP6 POP SWAP3 SWAP6 SWAP1 SWAP4 POP JUMP JUMPDEST PUSH1 0x0 DUP1 PUSH1 0x0 PUSH1 0x60 DUP5 DUP7 SUB SLT ISZERO PUSH2 0x120C JUMPI PUSH2 0x120B PUSH2 0xFAF JUMP JUMPDEST JUMPDEST PUSH1 0x0 PUSH2 0x121A DUP7 DUP3 DUP8 ADD PUSH2 0xFFD JUMP JUMPDEST SWAP4 POP POP PUSH1 0x20 PUSH2 0x122B DUP7 DUP3 DUP8 ADD PUSH2 0x1033 JUMP JUMPDEST SWAP3 POP POP PUSH1 0x40 PUSH2 0x123C DUP7 DUP3 DUP8 ADD PUSH2 0x1033 JUMP JUMPDEST SWAP2 POP POP SWAP3 POP SWAP3 POP SWAP3 JUMP JUMPDEST PUSH1 0x0 DUP2 SWAP1 POP SWAP2 SWAP1 POP JUMP JUMPDEST PUSH1 0x0 PUSH2 0x126B PUSH2 0x1266 PUSH2 0x1261 DUP5 PUSH2 0xFB4 JUMP JUMPDEST PUSH2 0x1246 JUMP JUMPDEST PUSH2 0xFB4 JUMP JUMPDEST SWAP1 POP SWAP2 SWAP1 POP JUMP JUMPDEST PUSH1 0x0 PUSH2 0x127D DUP3 PUSH2 0x1250 JUMP JUMPDEST SWAP1 POP SWAP2 SWAP1 POP JUMP JUMPDEST PUSH1 0x0 PUSH2 0x128F DUP3 PUSH2 0x1272 JUMP JUMPDEST SWAP1 POP SWAP2 SWAP1 POP JUMP JUMPDEST PUSH2 0x129F DUP2 PUSH2 0x1284 JUMP JUMPDEST DUP3 MSTORE POP POP JUMP JUMPDEST PUSH1 0x0 PUSH1 0x20 DUP3 ADD SWAP1 POP PUSH2 0x12BA PUSH1 0x0 DUP4 ADD DUP5 PUSH2 0x1296 JUMP JUMPDEST SWAP3 SWAP2 POP POP JUMP JUMPDEST PUSH2 0x12C9 DUP2 PUSH2 0xFD4 JUMP JUMPDEST DUP3 MSTORE POP POP JUMP JUMPDEST PUSH2 0x12D8 DUP2 PUSH2 0x1012 JUMP JUMPDEST DUP3 MSTORE POP POP JUMP JUMPDEST PUSH1 0xA0 DUP3 ADD PUSH1 0x0 DUP3 ADD MLOAD PUSH2 0x12F4 PUSH1 0x0 DUP6 ADD DUP3 PUSH2 0x12C0 JUMP JUMPDEST POP PUSH1 0x20 DUP3 ADD MLOAD PUSH2 0x1307 PUSH1 0x20 DUP6 ADD DUP3 PUSH2 0x12C0 JUMP JUMPDEST POP PUSH1 0x40 DUP3 ADD MLOAD PUSH2 0x131A PUSH1 0x40 DUP6 ADD DUP3 PUSH2 0x12CF JUMP JUMPDEST POP PUSH1 0x60 DUP3 ADD MLOAD PUSH2 0x132D PUSH1 0x60 DUP6 ADD DUP3 PUSH2 0x12CF JUMP JUMPDEST POP PUSH1 0x80 DUP3 ADD MLOAD PUSH2 0x1340 PUSH1 0x80 DUP6 ADD DUP3 PUSH2 0x12CF JUMP JUMPDEST POP POP POP POP JUMP JUMPDEST PUSH1 0x0 DUP2 ISZERO ISZERO SWAP1 POP SWAP2 SWAP1 POP JUMP JUMPDEST PUSH2 0x135B DUP2 PUSH2 0x1346 JUMP JUMPDEST DUP3 MSTORE POP POP JUMP JUMPDEST PUSH1 0x0 PUSH1 0xC0 DUP3 ADD SWAP1 POP PUSH2 0x1376 PUSH1 0x0 DUP4 ADD DUP6 PUSH2 0x12DE JUMP JUMPDEST PUSH2 0x1383 PUSH1 0xA0 DUP4 ADD DUP5 PUSH2 0x1352 JUMP JUMPDEST SWAP4 SWAP3 POP POP POP JUMP JUMPDEST PUSH1 0x0 PUSH1 0x20 DUP3 DUP5 SUB SLT ISZERO PUSH2 0x13A0 JUMPI PUSH2 0x139F PUSH2 0xFAF JUMP JUMPDEST JUMPDEST PUSH1 0x0 PUSH2 0x13AE DUP5 DUP3 DUP6 ADD PUSH2 0x1033 JUMP JUMPDEST SWAP2 POP POP SWAP3 SWAP2 POP POP JUMP JUMPDEST PUSH2 0x13C0 DUP2 PUSH2 0xFD4 JUMP JUMPDEST DUP3 MSTORE POP POP JUMP JUMPDEST PUSH1 0x0 PUSH1 0x20 DUP3 ADD SWAP1 POP PUSH2 0x13DB PUSH1 0x0 DUP4 ADD DUP5 PUSH2 0x13B7 JUMP JUMPDEST SWAP3 SWAP2 POP POP JUMP JUMPDEST PUSH1 0x0 PUSH1 0x20 DUP3 DUP5 SUB SLT ISZERO PUSH2 0x13F7 JUMPI PUSH2 0x13F6 PUSH2 0xFAF JUMP JUMPDEST JUMPDEST PUSH1 0x0 PUSH2 0x1405 DUP5 DUP3 DUP6 ADD PUSH2 0xFFD JUMP JUMPDEST SWAP2 POP POP SWAP3 SWAP2 POP POP JUMP JUMPDEST PUSH1 0x0 DUP3 DUP3 MSTORE PUSH1 0x20 DUP3 ADD SWAP1 POP SWAP3 SWAP2 POP POP JUMP JUMPDEST PUSH32 0x4E6F207265717565737420746F2070726F636573730000000000000000000000 PUSH1 0x0 DUP3 ADD MSTORE POP JUMP JUMPDEST PUSH1 0x0 PUSH2 0x1455 PUSH1 0x15 DUP4 PUSH2 0x140E JUMP JUMPDEST SWAP2 POP PUSH2 0x1460 DUP3 PUSH2 0x141F JUMP JUMPDEST PUSH1 0x20 DUP3 ADD SWAP1 POP SWAP2 SWAP1 POP JUMP JUMPDEST PUSH1 0x0 PUSH1 0x20 DUP3 ADD SWAP1 POP DUP2 DUP2 SUB PUSH1 0x0 DUP4 ADD MSTORE PUSH2 0x1484 DUP2 PUSH2 0x1448 JUMP JUMPDEST SWAP1 POP SWAP2 SWAP1 POP JUMP JUMPDEST PUSH32 0x426F6E646572206665652063616E6E6F742065786365656420616D6F756E742E PUSH1 0x0 DUP3 ADD MSTORE POP JUMP JUMPDEST PUSH1 0x0 PUSH2 0x14C1 PUSH1 0x20 DUP4 PUSH2 0x140E JUMP JUMPDEST SWAP2 POP PUSH2 0x14CC DUP3 PUSH2 0x148B JUMP JUMPDEST PUSH1 0x20 DUP3 ADD SWAP1 POP SWAP2 SWAP1 POP JUMP JUMPDEST PUSH1 0x0 PUSH1 0x20 DUP3 ADD SWAP1 POP DUP2 DUP2 SUB PUSH1 0x0 DUP4 ADD MSTORE PUSH2 0x14F0 DUP2 PUSH2 0x14B4 JUMP JUMPDEST SWAP1 POP SWAP2 SWAP1 POP JUMP JUMPDEST PUSH32 0x4661696C656420746F20726566756E64206578656375746F7200000000000000 PUSH1 0x0 DUP3 ADD MSTORE POP JUMP JUMPDEST PUSH1 0x0 PUSH2 0x152D PUSH1 0x19 DUP4 PUSH2 0x140E JUMP JUMPDEST SWAP2 POP PUSH2 0x1538 DUP3 PUSH2 0x14F7 JUMP JUMPDEST PUSH1 0x20 DUP3 ADD SWAP1 POP SWAP2 SWAP1 POP JUMP JUMPDEST PUSH1 0x0 PUSH1 0x20 DUP3 ADD SWAP1 POP DUP2 DUP2 SUB PUSH1 0x0 DUP4 ADD MSTORE PUSH2 0x155C DUP2 PUSH2 0x1520 JUMP JUMPDEST SWAP1 POP SWAP2 SWAP1 POP JUMP JUMPDEST PUSH1 0x0 DUP2 SWAP1 POP SWAP2 SWAP1 POP JUMP JUMPDEST PUSH1 0x0 PUSH2 0x1588 PUSH2 0x1583 PUSH2 0x157E DUP5 PUSH2 0x1563 JUMP JUMPDEST PUSH2 0x1246 JUMP JUMPDEST PUSH2 0x1012 JUMP JUMPDEST SWAP1 POP SWAP2 SWAP1 POP JUMP JUMPDEST PUSH2 0x1598 DUP2 PUSH2 0x156D JUMP JUMPDEST DUP3 MSTORE POP POP JUMP JUMPDEST PUSH2 0x15A7 DUP2 PUSH2 0x1012 JUMP JUMPDEST DUP3 MSTORE POP POP JUMP JUMPDEST PUSH2 0x15B6 DUP2 PUSH2 0x10D9 JUMP JUMPDEST DUP3 MSTORE POP POP JUMP JUMPDEST PUSH1 0x60 DUP3 ADD PUSH1 0x0 DUP3 ADD MLOAD PUSH2 0x15D2 PUSH1 0x0 DUP6 ADD DUP3 PUSH2 0x15AD JUMP JUMPDEST POP PUSH1 0x20 DUP3 ADD MLOAD PUSH2 0x15E5 PUSH1 0x20 DUP6 ADD DUP3 PUSH2 0x12CF JUMP JUMPDEST POP PUSH1 0x40 DUP3 ADD MLOAD PUSH2 0x15F8 PUSH1 0x40 DUP6 ADD DUP3 PUSH2 0x12CF JUMP JUMPDEST POP POP POP POP JUMP JUMPDEST PUSH1 0x0 PUSH2 0x160 DUP3 ADD SWAP1 POP PUSH2 0x1614 PUSH1 0x0 DUP4 ADD DUP11 PUSH2 0x158F JUMP JUMPDEST PUSH2 0x1621 PUSH1 0x20 DUP4 ADD DUP10 PUSH2 0x13B7 JUMP JUMPDEST PUSH2 0x162E PUSH1 0x40 DUP4 ADD DUP9 PUSH2 0x159E JUMP JUMPDEST PUSH2 0x163B PUSH1 0x60 DUP4 ADD DUP8 PUSH2 0x159E JUMP JUMPDEST PUSH2 0x1648 PUSH1 0x80 DUP4 ADD DUP7 PUSH2 0x15BC JUMP JUMPDEST PUSH2 0x1655 PUSH1 0xE0 DUP4 ADD DUP6 PUSH2 0x15BC JUMP JUMPDEST PUSH2 0x1663 PUSH2 0x140 DUP4 ADD DUP5 PUSH2 0x13B7 JUMP JUMPDEST SWAP9 SWAP8 POP POP POP POP POP POP POP POP JUMP JUMPDEST PUSH32 0x53656E646572206D6179206E6F74206265203020616464726573730000000000 PUSH1 0x0 DUP3 ADD MSTORE POP JUMP JUMPDEST PUSH1 0x0 PUSH2 0x16A5 PUSH1 0x1B DUP4 PUSH2 0x140E JUMP JUMPDEST SWAP2 POP PUSH2 0x16B0 DUP3 PUSH2 0x166F JUMP JUMPDEST PUSH1 0x20 DUP3 ADD SWAP1 POP SWAP2 SWAP1 POP JUMP JUMPDEST PUSH1 0x0 PUSH1 0x20 DUP3 ADD SWAP1 POP DUP2 DUP2 SUB PUSH1 0x0 DUP4 ADD MSTORE PUSH2 0x16D4 DUP2 PUSH2 0x1698 JUMP JUMPDEST SWAP1 POP SWAP2 SWAP1 POP JUMP JUMPDEST PUSH32 0x44657374696E6174696F6E2061646472657373206D6179206E6F742062652030 PUSH1 0x0 DUP3 ADD MSTORE PUSH32 0x2061646472657373000000000000000000000000000000000000000000000000 PUSH1 0x20 DUP3 ADD MSTORE POP JUMP JUMPDEST PUSH1 0x0 PUSH2 0x1737 PUSH1 0x28 DUP4 PUSH2 0x140E JUMP JUMPDEST SWAP2 POP PUSH2 0x1742 DUP3 PUSH2 0x16DB JUMP JUMPDEST PUSH1 0x40 DUP3 ADD SWAP1 POP SWAP2 SWAP1 POP JUMP JUMPDEST PUSH1 0x0 PUSH1 0x20 DUP3 ADD SWAP1 POP DUP2 DUP2 SUB PUSH1 0x0 DUP4 ADD MSTORE PUSH2 0x1766 DUP2 PUSH2 0x172A JUMP JUMPDEST SWAP1 POP SWAP2 SWAP1 POP JUMP JUMPDEST PUSH32 0x57616E746564204C3120676173207072696365206D7573742062652073747269 PUSH1 0x0 DUP3 ADD MSTORE PUSH32 0x63746C7920706F73697469766500000000000000000000000000000000000000 PUSH1 0x20 DUP3 ADD MSTORE POP JUMP JUMPDEST PUSH1 0x0 PUSH2 0x17C9 PUSH1 0x2D DUP4 PUSH2 0x140E JUMP JUMPDEST SWAP2 POP PUSH2 0x17D4 DUP3 PUSH2 0x176D JUMP JUMPDEST PUSH1 0x40 DUP3 ADD SWAP1 POP SWAP2 SWAP1 POP JUMP JUMPDEST PUSH1 0x0 PUSH1 0x20 DUP3 ADD SWAP1 POP DUP2 DUP2 SUB PUSH1 0x0 DUP4 ADD MSTORE PUSH2 0x17F8 DUP2 PUSH2 0x17BC JUMP JUMPDEST SWAP1 POP SWAP2 SWAP1 POP JUMP JUMPDEST PUSH32 0x4E6F7420656E6F7567682066756E647320746F2070617920666F722064656C61 PUSH1 0x0 DUP3 ADD MSTORE PUSH32 0x79656420657865637574696F6E00000000000000000000000000000000000000 PUSH1 0x20 DUP3 ADD MSTORE POP JUMP JUMPDEST PUSH1 0x0 PUSH2 0x185B PUSH1 0x2D DUP4 PUSH2 0x140E JUMP JUMPDEST SWAP2 POP PUSH2 0x1866 DUP3 PUSH2 0x17FF JUMP JUMPDEST PUSH1 0x40 DUP3 ADD SWAP1 POP SWAP2 SWAP1 POP JUMP JUMPDEST PUSH1 0x0 PUSH1 0x20 DUP3 ADD SWAP1 POP DUP2 DUP2 SUB PUSH1 0x0 DUP4 ADD MSTORE PUSH2 0x188A DUP2 PUSH2 0x184E JUMP JUMPDEST SWAP1 POP SWAP2 SWAP1 POP JUMP JUMPDEST PUSH32 0x4E487B7100000000000000000000000000000000000000000000000000000000 PUSH1 0x0 MSTORE PUSH1 0x11 PUSH1 0x4 MSTORE PUSH1 0x24 PUSH1 0x0 REVERT JUMPDEST PUSH1 0x0 PUSH2 0x18CB DUP3 PUSH2 0x1012 JUMP JUMPDEST SWAP2 POP PUSH2 0x18D6 DUP4 PUSH2 0x1012 JUMP JUMPDEST SWAP3 POP DUP3 DUP3 SUB SWAP1 POP DUP2 DUP2 GT ISZERO PUSH2 0x18EE JUMPI PUSH2 0x18ED PUSH2 0x1891 JUMP JUMPDEST JUMPDEST SWAP3 SWAP2 POP POP JUMP JUMPDEST PUSH32 0x43616C63756C617465642073656E7420616D6F756E74206D757374206265206C PUSH1 0x0 DUP3 ADD MSTORE PUSH32 0x6172676572207468616E20746865207265717569726564206D696E696D756D20 PUSH1 0x20 DUP3 ADD MSTORE PUSH32 0x616D6F756E74206172726976696E672061742064657374696E6174696F6E2E00 PUSH1 0x40 DUP3 ADD MSTORE POP JUMP JUMPDEST PUSH1 0x0 PUSH2 0x1976 PUSH1 0x5F DUP4 PUSH2 0x140E JUMP JUMPDEST SWAP2 POP PUSH2 0x1981 DUP3 PUSH2 0x18F4 JUMP JUMPDEST PUSH1 0x60 DUP3 ADD SWAP1 POP SWAP2 SWAP1 POP JUMP JUMPDEST PUSH1 0x0 PUSH1 0x20 DUP3 ADD SWAP1 POP DUP2 DUP2 SUB PUSH1 0x0 DUP4 ADD MSTORE PUSH2 0x19A5 DUP2 PUSH2 0x1969 JUMP JUMPDEST SWAP1 POP SWAP2 SWAP1 POP JUMP JUMPDEST PUSH32 0x4E6F207265717565737420746F20776974686472617700000000000000000000 PUSH1 0x0 DUP3 ADD MSTORE POP JUMP JUMPDEST PUSH1 0x0 PUSH2 0x19E2 PUSH1 0x16 DUP4 PUSH2 0x140E JUMP JUMPDEST SWAP2 POP PUSH2 0x19ED DUP3 PUSH2 0x19AC JUMP JUMPDEST PUSH1 0x20 DUP3 ADD SWAP1 POP SWAP2 SWAP1 POP JUMP JUMPDEST PUSH1 0x0 PUSH1 0x20 DUP3 ADD SWAP1 POP DUP2 DUP2 SUB PUSH1 0x0 DUP4 ADD MSTORE PUSH2 0x1A11 DUP2 PUSH2 0x19D5 JUMP JUMPDEST SWAP1 POP SWAP2 SWAP1 POP JUMP JUMPDEST PUSH32 0x4E487B7100000000000000000000000000000000000000000000000000000000 PUSH1 0x0 MSTORE PUSH1 0x1 PUSH1 0x4 MSTORE PUSH1 0x24 PUSH1 0x0 REVERT JUMPDEST PUSH32 0x4661696C656420746F2077697468647261772066756E647320746F206D73672E PUSH1 0x0 DUP3 ADD MSTORE PUSH32 0x73656E6465720000000000000000000000000000000000000000000000000000 PUSH1 0x20 DUP3 ADD MSTORE POP JUMP JUMPDEST PUSH1 0x0 PUSH2 0x1AA3 PUSH1 0x26 DUP4 PUSH2 0x140E JUMP JUMPDEST SWAP2 POP PUSH2 0x1AAE DUP3 PUSH2 0x1A47 JUMP JUMPDEST PUSH1 0x40 DUP3 ADD SWAP1 POP SWAP2 SWAP1 POP JUMP JUMPDEST PUSH1 0x0 PUSH1 0x20 DUP3 ADD SWAP1 POP DUP2 DUP2 SUB PUSH1 0x0 DUP4 ADD MSTORE PUSH2 0x1AD2 DUP2 PUSH2 0x1A96 JUMP JUMPDEST SWAP1 POP SWAP2 SWAP1 POP JUMP JUMPDEST PUSH32 0x4F776E61626C653A206E6577206F776E657220697320746865207A65726F2061 PUSH1 0x0 DUP3 ADD MSTORE PUSH32 0x6464726573730000000000000000000000000000000000000000000000000000 PUSH1 0x20 DUP3 ADD MSTORE POP JUMP JUMPDEST PUSH1 0x0 PUSH2 0x1B35 PUSH1 0x26 DUP4 PUSH2 0x140E JUMP JUMPDEST SWAP2 POP PUSH2 0x1B40 DUP3 PUSH2 0x1AD9 JUMP JUMPDEST PUSH1 0x40 DUP3 ADD SWAP1 POP SWAP2 SWAP1 POP JUMP JUMPDEST PUSH1 0x0 PUSH1 0x20 DUP3 ADD SWAP1 POP DUP2 DUP2 SUB PUSH1 0x0 DUP4 ADD MSTORE PUSH2 0x1B64 DUP2 PUSH2 0x1B28 JUMP JUMPDEST SWAP1 POP SWAP2 SWAP1 POP JUMP JUMPDEST PUSH32 0x4F776E61626C653A2063616C6C6572206973206E6F7420746865206F776E6572 PUSH1 0x0 DUP3 ADD MSTORE POP JUMP JUMPDEST PUSH1 0x0 PUSH2 0x1BA1 PUSH1 0x20 DUP4 PUSH2 0x140E JUMP JUMPDEST SWAP2 POP PUSH2 0x1BAC DUP3 PUSH2 0x1B6B JUMP JUMPDEST PUSH1 0x20 DUP3 ADD SWAP1 POP SWAP2 SWAP1 POP JUMP JUMPDEST PUSH1 0x0 PUSH1 0x20 DUP3 ADD SWAP1 POP DUP2 DUP2 SUB PUSH1 0x0 DUP4 ADD MSTORE PUSH2 0x1BD0 DUP2 PUSH2 0x1B94 JUMP JUMPDEST SWAP1 POP SWAP2 SWAP1 POP JUMP JUMPDEST PUSH32 0x5265656E7472616E637947756172643A207265656E7472616E742063616C6C00 PUSH1 0x0 DUP3 ADD MSTORE POP JUMP JUMPDEST PUSH1 0x0 PUSH2 0x1C0D PUSH1 0x1F DUP4 PUSH2 0x140E JUMP JUMPDEST SWAP2 POP PUSH2 0x1C18 DUP3 PUSH2 0x1BD7 JUMP JUMPDEST PUSH1 0x20 DUP3 ADD SWAP1 POP SWAP2 SWAP1 POP JUMP JUMPDEST PUSH1 0x0 PUSH1 0x20 DUP3 ADD SWAP1 POP DUP2 DUP2 SUB PUSH1 0x0 DUP4 ADD MSTORE PUSH2 0x1C3C DUP2 PUSH2 0x1C00 JUMP JUMPDEST SWAP1 POP SWAP2 SWAP1 POP JUMP INVALID LOG2 PUSH5 0x6970667358 0x22 SLT KECCAK256 0xDF 0x4C SLOAD REVERT 0xB3 PUSH2 0x2E77 0xD5 CREATE2 CALLVALUE 0xD7 SWAP7 SELFBALANCE 0xBC 0xF6 0xD4 0xE 0x25 0xCA 0x4C 0x4E STOP REVERT 0xFC PUSH7 0x7FB47A247F4364 PUSH20 0x6F6C634300081200330000000000000000000000 "
				},
				"gasEstimates": {
					"creation": {
						"codeDepositCost": "1457800",
						"executionCost": "infinite",
						"totalCost": "infinite"
					},
					"external": {
						"deposit(address,uint256,uint256)": "infinite",
						"executeRequest(address,uint256,(uint8,uint256,uint256),(uint8,uint256,uint256),address)": "infinite",
						"l2HopBridgeAmmWrapper()": "infinite",
						"owner()": "2588",
						"pendingRequests()": "infinite",
						"renounceOwnership()": "30442",
						"setExecutionGasRequirement(uint256)": "24806",
						"transferOwnership(address)": "30832",
						"withdraw()": "infinite"
					},
					"internal": {
						"isDefined(struct BridgeRequest memory)": "infinite"
					}
				},
				"methodIdentifiers": {
					"deposit(address,uint256,uint256)": "0efe6a8b",
					"executeRequest(address,uint256,(uint8,uint256,uint256),(uint8,uint256,uint256),address)": "0e48b88a",
					"l2HopBridgeAmmWrapper()": "25608185",
					"owner()": "8da5cb5b",
					"pendingRequests()": "4a0aee29",
					"renounceOwnership()": "715018a6",
					"setExecutionGasRequirement(uint256)": "54caef7d",
					"transferOwnership(address)": "f2fde38b",
					"withdraw()": "3ccfd60b"
				}
			},
			"storageLayout": {
				"storage": [
					{
						"astId": 7,
						"contract": "solidity/contracts/BridgewhenCheap.sol:BridgeWhenCheap",
						"label": "_owner",
						"offset": 0,
						"slot": "0",
						"type": "t_address"
					},
					{
						"astId": 123,
						"contract": "solidity/contracts/BridgewhenCheap.sol:BridgeWhenCheap",
						"label": "_status",
						"offset": 0,
						"slot": "1",
						"type": "t_uint256"
					},
					{
						"astId": 210,
						"contract": "solidity/contracts/BridgewhenCheap.sol:BridgeWhenCheap",
						"label": "executionGasRequirement",
						"offset": 0,
						"slot": "2",
						"type": "t_uint256"
					},
					{
						"astId": 213,
						"contract": "solidity/contracts/BridgewhenCheap.sol:BridgeWhenCheap",
						"label": "l2HopBridgeAmmWrapper",
						"offset": 0,
						"slot": "3",
						"type": "t_contract(L2_AmmWrapper)514"
					},
					{
						"astId": 218,
						"contract": "solidity/contracts/BridgewhenCheap.sol:BridgeWhenCheap",
						"label": "requests",
						"offset": 0,
						"slot": "4",
						"type": "t_mapping(t_address,t_struct(BridgeRequest)203_storage)"
					}
				],
				"types": {
					"t_address": {
						"encoding": "inplace",
						"label": "address",
						"numberOfBytes": "20"
					},
					"t_contract(L2_AmmWrapper)514": {
						"encoding": "inplace",
						"label": "contract L2_AmmWrapper",
						"numberOfBytes": "20"
					},
					"t_mapping(t_address,t_struct(BridgeRequest)203_storage)": {
						"encoding": "mapping",
						"key": "t_address",
						"label": "mapping(address => struct BridgeRequest)",
						"numberOfBytes": "32",
						"value": "t_struct(BridgeRequest)203_storage"
					},
					"t_struct(BridgeRequest)203_storage": {
						"encoding": "inplace",
						"label": "struct BridgeRequest",
						"members": [
							{
								"astId": 194,
								"contract": "solidity/contracts/BridgewhenCheap.sol:BridgeWhenCheap",
								"label": "source",
								"offset": 0,
								"slot": "0",
								"type": "t_address"
							},
							{
								"astId": 196,
								"contract": "solidity/contracts/BridgewhenCheap.sol:BridgeWhenCheap",
								"label": "destination",
								"offset": 0,
								"slot": "1",
								"type": "t_address"
							},
							{
								"astId": 198,
								"contract": "solidity/contracts/BridgewhenCheap.sol:BridgeWhenCheap",
								"label": "amount",
								"offset": 0,
								"slot": "2",
								"type": "t_uint256"
							},
							{
								"astId": 200,
								"contract": "solidity/contracts/BridgewhenCheap.sol:BridgeWhenCheap",
								"label": "amountOutMin",
								"offset": 0,
								"slot": "3",
								"type": "t_uint256"
							},
							{
								"astId": 202,
								"contract": "solidity/contracts/BridgewhenCheap.sol:BridgeWhenCheap",
								"label": "wantedL1GasPrice",
								"offset": 0,
								"slot": "4",
								"type": "t_uint256"
							}
						],
						"numberOfBytes": "160"
					},
					"t_uint256": {
						"encoding": "inplace",
						"label": "uint256",
						"numberOfBytes": "32"
					}
				}
			},
			"userdoc": {
				"kind": "user",
				"methods": {},
				"version": 1
			}
		}
	}
}