{
	"solidity/contracts/BridgewhenCheap.sol": {
		"BridgeWhenCheap": {
			"abi": [
				{
					"inputs": [
						{
							"internalType": "uint256",
							"name": "_executionGasRequirement",
							"type": "uint256"
						},
						{
							"internalType": "address",
							"name": "_l2HopBridgeAmmWrapper",
							"type": "address"
						},
						{
							"internalType": "uint256",
							"name": "_layer1ChainId",
							"type": "uint256"
						}
					],
					"stateMutability": "nonpayable",
					"type": "constructor"
				},
				{
					"anonymous": false,
					"inputs": [
						{
							"indexed": true,
							"internalType": "address",
							"name": "previousOwner",
							"type": "address"
						},
						{
							"indexed": true,
							"internalType": "address",
							"name": "newOwner",
							"type": "address"
						}
					],
					"name": "OwnershipTransferred",
					"type": "event"
				},
				{
					"inputs": [
						{
							"internalType": "address",
							"name": "destination",
							"type": "address"
						},
						{
							"internalType": "uint256",
							"name": "wantedL1GasPrice",
							"type": "uint256"
						},
						{
							"internalType": "uint256",
							"name": "amountOutMin",
							"type": "uint256"
						}
					],
					"name": "deposit",
					"outputs": [],
					"stateMutability": "payable",
					"type": "function"
				},
				{
					"inputs": [],
					"name": "deposit",
					"outputs": [],
					"stateMutability": "payable",
					"type": "function"
				},
				{
					"inputs": [
						{
							"internalType": "address",
							"name": "requestor",
							"type": "address"
						},
						{
							"internalType": "uint256",
							"name": "bonderFee",
							"type": "uint256"
						},
						{
							"internalType": "uint256",
							"name": "amountOutMin",
							"type": "uint256"
						},
						{
							"internalType": "uint256",
							"name": "deadline",
							"type": "uint256"
						},
						{
							"internalType": "uint256",
							"name": "destAmountOutMin",
							"type": "uint256"
						},
						{
							"internalType": "uint256",
							"name": "destDeadline",
							"type": "uint256"
						}
					],
					"name": "executeRequest",
					"outputs": [],
					"stateMutability": "nonpayable",
					"type": "function"
				},
				{
					"inputs": [],
					"name": "executionGasRequirement",
					"outputs": [
						{
							"internalType": "uint256",
							"name": "",
							"type": "uint256"
						}
					],
					"stateMutability": "view",
					"type": "function"
				},
				{
					"inputs": [],
					"name": "l2HopBridgeAmmWrapper",
					"outputs": [
						{
							"internalType": "address",
							"name": "",
							"type": "address"
						}
					],
					"stateMutability": "view",
					"type": "function"
				},
				{
					"inputs": [],
					"name": "layer1ChainId",
					"outputs": [
						{
							"internalType": "uint256",
							"name": "",
							"type": "uint256"
						}
					],
					"stateMutability": "view",
					"type": "function"
				},
				{
					"inputs": [],
					"name": "owner",
					"outputs": [
						{
							"internalType": "address",
							"name": "",
							"type": "address"
						}
					],
					"stateMutability": "view",
					"type": "function"
				},
				{
					"inputs": [],
					"name": "renounceOwnership",
					"outputs": [],
					"stateMutability": "nonpayable",
					"type": "function"
				},
				{
					"inputs": [
						{
							"internalType": "address",
							"name": "",
							"type": "address"
						}
					],
					"name": "requests",
					"outputs": [
						{
							"internalType": "address",
							"name": "source",
							"type": "address"
						},
						{
							"internalType": "address",
							"name": "destination",
							"type": "address"
						},
						{
							"internalType": "uint256",
							"name": "amount",
							"type": "uint256"
						},
						{
							"internalType": "uint256",
							"name": "amountOutMin",
							"type": "uint256"
						},
						{
							"internalType": "uint256",
							"name": "wantedL1GasPrice",
							"type": "uint256"
						}
					],
					"stateMutability": "view",
					"type": "function"
				},
				{
					"inputs": [
						{
							"internalType": "uint256",
							"name": "amount",
							"type": "uint256"
						}
					],
					"name": "setExecutionGasRequirement",
					"outputs": [],
					"stateMutability": "nonpayable",
					"type": "function"
				},
				{
					"inputs": [
						{
							"internalType": "uint256",
							"name": "amount",
							"type": "uint256"
						}
					],
					"name": "setTotalServiceFee",
					"outputs": [],
					"stateMutability": "nonpayable",
					"type": "function"
				},
				{
					"inputs": [],
					"name": "totalServiceFee",
					"outputs": [
						{
							"internalType": "uint256",
							"name": "",
							"type": "uint256"
						}
					],
					"stateMutability": "view",
					"type": "function"
				},
				{
					"inputs": [
						{
							"internalType": "address",
							"name": "newOwner",
							"type": "address"
						}
					],
					"name": "transferOwnership",
					"outputs": [],
					"stateMutability": "nonpayable",
					"type": "function"
				},
				{
					"inputs": [],
					"name": "withdraw",
					"outputs": [],
					"stateMutability": "nonpayable",
					"type": "function"
				}
			],
			"devdoc": {
				"custom:security-contact": "bridge-when-cheap@gmail.com",
				"kind": "dev",
				"methods": {
					"owner()": {
						"details": "Returns the address of the current owner."
					},
					"renounceOwnership()": {
						"details": "Leaves the contract without owner. It will not be possible to call `onlyOwner` functions anymore. Can only be called by the current owner. NOTE: Renouncing ownership will leave the contract without an owner, thereby removing any functionality that is only available to the owner."
					},
					"transferOwnership(address)": {
						"details": "Transfers ownership of the contract to a new account (`newOwner`). Can only be called by the current owner."
					}
				},
				"version": 1
			},
			"evm": {
				"assembly": "    /* \"solidity/contracts/BridgewhenCheap.sol\":833:6794  contract BridgeWhenCheap is Ownable, ReentrancyGuard {... */\n  mstore(0x40, 0x80)\n    /* \"solidity/contracts/BridgewhenCheap.sol\":1902:2226  constructor(... */\n  callvalue\n  dup1\n  iszero\n  tag_1\n  jumpi\n  0x00\n  dup1\n  revert\ntag_1:\n  pop\n  mload(0x40)\n  sub(codesize, bytecodeSize)\n  dup1\n  bytecodeSize\n  dup4\n  codecopy\n  dup2\n  dup2\n  add\n  0x40\n  mstore\n  dup2\n  add\n  swap1\n  tag_2\n  swap2\n  swap1\n  tag_3\n  jump\t// in\ntag_2:\n    /* \"@openzeppelin/contracts/access/Ownable.sol\":936:968  _transferOwnership(_msgSender()) */\n  tag_8\n    /* \"@openzeppelin/contracts/access/Ownable.sol\":955:967  _msgSender() */\n  tag_9\n    /* \"@openzeppelin/contracts/access/Ownable.sol\":955:965  _msgSender */\n  shl(0x20, tag_10)\n    /* \"@openzeppelin/contracts/access/Ownable.sol\":955:967  _msgSender() */\n  0x20\n  shr\n  jump\t// in\ntag_9:\n    /* \"@openzeppelin/contracts/access/Ownable.sol\":936:954  _transferOwnership */\n  shl(0x20, tag_11)\n    /* \"@openzeppelin/contracts/access/Ownable.sol\":936:968  _transferOwnership(_msgSender()) */\n  0x20\n  shr\n  jump\t// in\ntag_8:\n    /* \"@openzeppelin/contracts/security/ReentrancyGuard.sol\":1716:1717  1 */\n  0x01\n    /* \"@openzeppelin/contracts/security/ReentrancyGuard.sol\":1821:1828  _status */\n  dup1\n    /* \"@openzeppelin/contracts/security/ReentrancyGuard.sol\":1821:1843  _status = _NOT_ENTERED */\n  dup2\n  swap1\n  sstore\n  pop\n    /* \"solidity/contracts/BridgewhenCheap.sol\":2099:2123  _executionGasRequirement */\n  dup3\n    /* \"solidity/contracts/BridgewhenCheap.sol\":2073:2096  executionGasRequirement */\n  0x02\n    /* \"solidity/contracts/BridgewhenCheap.sol\":2073:2123  executionGasRequirement = _executionGasRequirement */\n  dup2\n  swap1\n  sstore\n  pop\n    /* \"solidity/contracts/BridgewhenCheap.sol\":2157:2179  _l2HopBridgeAmmWrapper */\n  dup2\n    /* \"solidity/contracts/BridgewhenCheap.sol\":2133:2154  l2HopBridgeAmmWrapper */\n  0x04\n  0x00\n    /* \"solidity/contracts/BridgewhenCheap.sol\":2133:2179  l2HopBridgeAmmWrapper = _l2HopBridgeAmmWrapper */\n  0x0100\n  exp\n  dup2\n  sload\n  dup2\n  0xffffffffffffffffffffffffffffffffffffffff\n  mul\n  not\n  and\n  swap1\n  dup4\n  0xffffffffffffffffffffffffffffffffffffffff\n  and\n  mul\n  or\n  swap1\n  sstore\n  pop\n    /* \"solidity/contracts/BridgewhenCheap.sol\":2205:2219  _layer1ChainId */\n  dup1\n    /* \"solidity/contracts/BridgewhenCheap.sol\":2189:2202  layer1ChainId */\n  0x06\n    /* \"solidity/contracts/BridgewhenCheap.sol\":2189:2219  layer1ChainId = _layer1ChainId */\n  dup2\n  swap1\n  sstore\n  pop\n    /* \"solidity/contracts/BridgewhenCheap.sol\":1902:2226  constructor(... */\n  pop\n  pop\n  pop\n    /* \"solidity/contracts/BridgewhenCheap.sol\":833:6794  contract BridgeWhenCheap is Ownable, ReentrancyGuard {... */\n  jump(tag_14)\n    /* \"@openzeppelin/contracts/utils/Context.sol\":640:736  function _msgSender() internal view virtual returns (address) {... */\ntag_10:\n    /* \"@openzeppelin/contracts/utils/Context.sol\":693:700  address */\n  0x00\n    /* \"@openzeppelin/contracts/utils/Context.sol\":719:729  msg.sender */\n  caller\n    /* \"@openzeppelin/contracts/utils/Context.sol\":712:729  return msg.sender */\n  swap1\n  pop\n    /* \"@openzeppelin/contracts/utils/Context.sol\":640:736  function _msgSender() internal view virtual returns (address) {... */\n  swap1\n  jump\t// out\n    /* \"@openzeppelin/contracts/access/Ownable.sol\":2433:2620  function _transferOwnership(address newOwner) internal virtual {... */\ntag_11:\n    /* \"@openzeppelin/contracts/access/Ownable.sol\":2506:2522  address oldOwner */\n  0x00\n    /* \"@openzeppelin/contracts/access/Ownable.sol\":2525:2531  _owner */\n  dup1\n  0x00\n  swap1\n  sload\n  swap1\n  0x0100\n  exp\n  swap1\n  div\n  0xffffffffffffffffffffffffffffffffffffffff\n  and\n    /* \"@openzeppelin/contracts/access/Ownable.sol\":2506:2531  address oldOwner = _owner */\n  swap1\n  pop\n    /* \"@openzeppelin/contracts/access/Ownable.sol\":2550:2558  newOwner */\n  dup2\n    /* \"@openzeppelin/contracts/access/Ownable.sol\":2541:2547  _owner */\n  0x00\n  dup1\n    /* \"@openzeppelin/contracts/access/Ownable.sol\":2541:2558  _owner = newOwner */\n  0x0100\n  exp\n  dup2\n  sload\n  dup2\n  0xffffffffffffffffffffffffffffffffffffffff\n  mul\n  not\n  and\n  swap1\n  dup4\n  0xffffffffffffffffffffffffffffffffffffffff\n  and\n  mul\n  or\n  swap1\n  sstore\n  pop\n    /* \"@openzeppelin/contracts/access/Ownable.sol\":2604:2612  newOwner */\n  dup2\n    /* \"@openzeppelin/contracts/access/Ownable.sol\":2573:2613  OwnershipTransferred(oldOwner, newOwner) */\n  0xffffffffffffffffffffffffffffffffffffffff\n  and\n    /* \"@openzeppelin/contracts/access/Ownable.sol\":2594:2602  oldOwner */\n  dup2\n    /* \"@openzeppelin/contracts/access/Ownable.sol\":2573:2613  OwnershipTransferred(oldOwner, newOwner) */\n  0xffffffffffffffffffffffffffffffffffffffff\n  and\n  0x8be0079c531659141344cd1fd0a4f28419497f9722a3daafe3b4186f6b6457e0\n  mload(0x40)\n  mload(0x40)\n  dup1\n  swap2\n  sub\n  swap1\n  log3\n    /* \"@openzeppelin/contracts/access/Ownable.sol\":2496:2620  {... */\n  pop\n    /* \"@openzeppelin/contracts/access/Ownable.sol\":2433:2620  function _transferOwnership(address newOwner) internal virtual {... */\n  pop\n  jump\t// out\n    /* \"#utility.yul\":88:205   */\ntag_18:\n    /* \"#utility.yul\":197:198   */\n  0x00\n    /* \"#utility.yul\":194:195   */\n  dup1\n    /* \"#utility.yul\":187:199   */\n  revert\n    /* \"#utility.yul\":334:411   */\ntag_20:\n    /* \"#utility.yul\":371:378   */\n  0x00\n    /* \"#utility.yul\":400:405   */\n  dup2\n    /* \"#utility.yul\":389:405   */\n  swap1\n  pop\n    /* \"#utility.yul\":334:411   */\n  swap2\n  swap1\n  pop\n  jump\t// out\n    /* \"#utility.yul\":417:539   */\ntag_21:\n    /* \"#utility.yul\":490:514   */\n  tag_33\n    /* \"#utility.yul\":508:513   */\n  dup2\n    /* \"#utility.yul\":490:514   */\n  tag_20\n  jump\t// in\ntag_33:\n    /* \"#utility.yul\":483:488   */\n  dup2\n    /* \"#utility.yul\":480:515   */\n  eq\n    /* \"#utility.yul\":470:533   */\n  tag_34\n  jumpi\n    /* \"#utility.yul\":529:530   */\n  0x00\n    /* \"#utility.yul\":526:527   */\n  dup1\n    /* \"#utility.yul\":519:531   */\n  revert\n    /* \"#utility.yul\":470:533   */\ntag_34:\n    /* \"#utility.yul\":417:539   */\n  pop\n  jump\t// out\n    /* \"#utility.yul\":545:688   */\ntag_22:\n    /* \"#utility.yul\":602:607   */\n  0x00\n    /* \"#utility.yul\":633:639   */\n  dup2\n    /* \"#utility.yul\":627:640   */\n  mload\n    /* \"#utility.yul\":618:640   */\n  swap1\n  pop\n    /* \"#utility.yul\":649:682   */\n  tag_36\n    /* \"#utility.yul\":676:681   */\n  dup2\n    /* \"#utility.yul\":649:682   */\n  tag_21\n  jump\t// in\ntag_36:\n    /* \"#utility.yul\":545:688   */\n  swap3\n  swap2\n  pop\n  pop\n  jump\t// out\n    /* \"#utility.yul\":694:820   */\ntag_23:\n    /* \"#utility.yul\":731:738   */\n  0x00\n    /* \"#utility.yul\":771:813   */\n  0xffffffffffffffffffffffffffffffffffffffff\n    /* \"#utility.yul\":764:769   */\n  dup3\n    /* \"#utility.yul\":760:814   */\n  and\n    /* \"#utility.yul\":749:814   */\n  swap1\n  pop\n    /* \"#utility.yul\":694:820   */\n  swap2\n  swap1\n  pop\n  jump\t// out\n    /* \"#utility.yul\":826:922   */\ntag_24:\n    /* \"#utility.yul\":863:870   */\n  0x00\n    /* \"#utility.yul\":892:916   */\n  tag_39\n    /* \"#utility.yul\":910:915   */\n  dup3\n    /* \"#utility.yul\":892:916   */\n  tag_23\n  jump\t// in\ntag_39:\n    /* \"#utility.yul\":881:916   */\n  swap1\n  pop\n    /* \"#utility.yul\":826:922   */\n  swap2\n  swap1\n  pop\n  jump\t// out\n    /* \"#utility.yul\":928:1050   */\ntag_25:\n    /* \"#utility.yul\":1001:1025   */\n  tag_41\n    /* \"#utility.yul\":1019:1024   */\n  dup2\n    /* \"#utility.yul\":1001:1025   */\n  tag_24\n  jump\t// in\ntag_41:\n    /* \"#utility.yul\":994:999   */\n  dup2\n    /* \"#utility.yul\":991:1026   */\n  eq\n    /* \"#utility.yul\":981:1044   */\n  tag_42\n  jumpi\n    /* \"#utility.yul\":1040:1041   */\n  0x00\n    /* \"#utility.yul\":1037:1038   */\n  dup1\n    /* \"#utility.yul\":1030:1042   */\n  revert\n    /* \"#utility.yul\":981:1044   */\ntag_42:\n    /* \"#utility.yul\":928:1050   */\n  pop\n  jump\t// out\n    /* \"#utility.yul\":1056:1199   */\ntag_26:\n    /* \"#utility.yul\":1113:1118   */\n  0x00\n    /* \"#utility.yul\":1144:1150   */\n  dup2\n    /* \"#utility.yul\":1138:1151   */\n  mload\n    /* \"#utility.yul\":1129:1151   */\n  swap1\n  pop\n    /* \"#utility.yul\":1160:1193   */\n  tag_44\n    /* \"#utility.yul\":1187:1192   */\n  dup2\n    /* \"#utility.yul\":1160:1193   */\n  tag_25\n  jump\t// in\ntag_44:\n    /* \"#utility.yul\":1056:1199   */\n  swap3\n  swap2\n  pop\n  pop\n  jump\t// out\n    /* \"#utility.yul\":1205:1868   */\ntag_3:\n    /* \"#utility.yul\":1293:1299   */\n  0x00\n    /* \"#utility.yul\":1301:1307   */\n  dup1\n    /* \"#utility.yul\":1309:1315   */\n  0x00\n    /* \"#utility.yul\":1358:1360   */\n  0x60\n    /* \"#utility.yul\":1346:1355   */\n  dup5\n    /* \"#utility.yul\":1337:1344   */\n  dup7\n    /* \"#utility.yul\":1333:1356   */\n  sub\n    /* \"#utility.yul\":1329:1361   */\n  slt\n    /* \"#utility.yul\":1326:1445   */\n  iszero\n  tag_46\n  jumpi\n    /* \"#utility.yul\":1364:1443   */\n  tag_47\n  tag_18\n  jump\t// in\ntag_47:\n    /* \"#utility.yul\":1326:1445   */\ntag_46:\n    /* \"#utility.yul\":1484:1485   */\n  0x00\n    /* \"#utility.yul\":1509:1573   */\n  tag_48\n    /* \"#utility.yul\":1565:1572   */\n  dup7\n    /* \"#utility.yul\":1556:1562   */\n  dup3\n    /* \"#utility.yul\":1545:1554   */\n  dup8\n    /* \"#utility.yul\":1541:1563   */\n  add\n    /* \"#utility.yul\":1509:1573   */\n  tag_22\n  jump\t// in\ntag_48:\n    /* \"#utility.yul\":1499:1573   */\n  swap4\n  pop\n    /* \"#utility.yul\":1455:1583   */\n  pop\n    /* \"#utility.yul\":1622:1624   */\n  0x20\n    /* \"#utility.yul\":1648:1712   */\n  tag_49\n    /* \"#utility.yul\":1704:1711   */\n  dup7\n    /* \"#utility.yul\":1695:1701   */\n  dup3\n    /* \"#utility.yul\":1684:1693   */\n  dup8\n    /* \"#utility.yul\":1680:1702   */\n  add\n    /* \"#utility.yul\":1648:1712   */\n  tag_26\n  jump\t// in\ntag_49:\n    /* \"#utility.yul\":1638:1712   */\n  swap3\n  pop\n    /* \"#utility.yul\":1593:1722   */\n  pop\n    /* \"#utility.yul\":1761:1763   */\n  0x40\n    /* \"#utility.yul\":1787:1851   */\n  tag_50\n    /* \"#utility.yul\":1843:1850   */\n  dup7\n    /* \"#utility.yul\":1834:1840   */\n  dup3\n    /* \"#utility.yul\":1823:1832   */\n  dup8\n    /* \"#utility.yul\":1819:1841   */\n  add\n    /* \"#utility.yul\":1787:1851   */\n  tag_22\n  jump\t// in\ntag_50:\n    /* \"#utility.yul\":1777:1851   */\n  swap2\n  pop\n    /* \"#utility.yul\":1732:1861   */\n  pop\n    /* \"#utility.yul\":1205:1868   */\n  swap3\n  pop\n  swap3\n  pop\n  swap3\n  jump\t// out\n    /* \"solidity/contracts/BridgewhenCheap.sol\":833:6794  contract BridgeWhenCheap is Ownable, ReentrancyGuard {... */\ntag_14:\n  dataSize(sub_0)\n  dup1\n  dataOffset(sub_0)\n  0x00\n  codecopy\n  0x00\n  return\nstop\n\nsub_0: assembly {\n        /* \"solidity/contracts/BridgewhenCheap.sol\":833:6794  contract BridgeWhenCheap is Ownable, ReentrancyGuard {... */\n      mstore(0x40, 0x80)\n      jumpi(tag_1, lt(calldatasize, 0x04))\n      shr(0xe0, calldataload(0x00))\n      dup1\n      0x8429b045\n      gt\n      tag_16\n      jumpi\n      dup1\n      0xcd36e12b\n      gt\n      tag_17\n      jumpi\n      dup1\n      0xcd36e12b\n      eq\n      tag_12\n      jumpi\n      dup1\n      0xd0e30db0\n      eq\n      tag_13\n      jumpi\n      dup1\n      0xdce27222\n      eq\n      tag_14\n      jumpi\n      dup1\n      0xf2fde38b\n      eq\n      tag_15\n      jumpi\n      jump(tag_1)\n    tag_17:\n      dup1\n      0x8429b045\n      eq\n      tag_9\n      jumpi\n      dup1\n      0x8da5cb5b\n      eq\n      tag_10\n      jumpi\n      dup1\n      0xb6502943\n      eq\n      tag_11\n      jumpi\n      jump(tag_1)\n    tag_16:\n      dup1\n      0x3ccfd60b\n      gt\n      tag_18\n      jumpi\n      dup1\n      0x3ccfd60b\n      eq\n      tag_5\n      jumpi\n      dup1\n      0x54caef7d\n      eq\n      tag_6\n      jumpi\n      dup1\n      0x715018a6\n      eq\n      tag_7\n      jumpi\n      dup1\n      0x74adad1d\n      eq\n      tag_8\n      jumpi\n      jump(tag_1)\n    tag_18:\n      dup1\n      0x04e40d67\n      eq\n      tag_2\n      jumpi\n      dup1\n      0x0efe6a8b\n      eq\n      tag_3\n      jumpi\n      dup1\n      0x25608185\n      eq\n      tag_4\n      jumpi\n    tag_1:\n      0x00\n      dup1\n      revert\n        /* \"solidity/contracts/BridgewhenCheap.sol\":4519:5716  function executeRequest(... */\n    tag_2:\n      callvalue\n      dup1\n      iszero\n      tag_19\n      jumpi\n      0x00\n      dup1\n      revert\n    tag_19:\n      pop\n      tag_20\n      0x04\n      dup1\n      calldatasize\n      sub\n      dup2\n      add\n      swap1\n      tag_21\n      swap2\n      swap1\n      tag_22\n      jump\t// in\n    tag_21:\n      tag_23\n      jump\t// in\n    tag_20:\n      stop\n        /* \"solidity/contracts/BridgewhenCheap.sol\":2622:3774  function deposit(... */\n    tag_3:\n      tag_24\n      0x04\n      dup1\n      calldatasize\n      sub\n      dup2\n      add\n      swap1\n      tag_25\n      swap2\n      swap1\n      tag_26\n      jump\t// in\n    tag_25:\n      tag_27\n      jump\t// in\n    tag_24:\n      stop\n        /* \"solidity/contracts/BridgewhenCheap.sol\":1411:1447  address public l2HopBridgeAmmWrapper */\n    tag_4:\n      callvalue\n      dup1\n      iszero\n      tag_28\n      jumpi\n      0x00\n      dup1\n      revert\n    tag_28:\n      pop\n      tag_29\n      tag_30\n      jump\t// in\n    tag_29:\n      mload(0x40)\n      tag_31\n      swap2\n      swap1\n      tag_32\n      jump\t// in\n    tag_31:\n      mload(0x40)\n      dup1\n      swap2\n      sub\n      swap1\n      return\n        /* \"solidity/contracts/BridgewhenCheap.sol\":3830:4346  function withdraw() external nonReentrant {... */\n    tag_5:\n      callvalue\n      dup1\n      iszero\n      tag_33\n      jumpi\n      0x00\n      dup1\n      revert\n    tag_33:\n      pop\n      tag_34\n      tag_35\n      jump\t// in\n    tag_34:\n      stop\n        /* \"solidity/contracts/BridgewhenCheap.sol\":6050:6282  function setExecutionGasRequirement(uint256 amount) public onlyOwner {... */\n    tag_6:\n      callvalue\n      dup1\n      iszero\n      tag_36\n      jumpi\n      0x00\n      dup1\n      revert\n    tag_36:\n      pop\n      tag_37\n      0x04\n      dup1\n      calldatasize\n      sub\n      dup2\n      add\n      swap1\n      tag_38\n      swap2\n      swap1\n      tag_39\n      jump\t// in\n    tag_38:\n      tag_40\n      jump\t// in\n    tag_37:\n      stop\n        /* \"@openzeppelin/contracts/access/Ownable.sol\":1831:1932  function renounceOwnership() public virtual onlyOwner {... */\n    tag_7:\n      callvalue\n      dup1\n      iszero\n      tag_41\n      jumpi\n      0x00\n      dup1\n      revert\n    tag_41:\n      pop\n      tag_42\n      tag_43\n      jump\t// in\n    tag_42:\n      stop\n        /* \"solidity/contracts/BridgewhenCheap.sol\":1715:1764  mapping(address => BridgeRequest) public requests */\n    tag_8:\n      callvalue\n      dup1\n      iszero\n      tag_44\n      jumpi\n      0x00\n      dup1\n      revert\n    tag_44:\n      pop\n      tag_45\n      0x04\n      dup1\n      calldatasize\n      sub\n      dup2\n      add\n      swap1\n      tag_46\n      swap2\n      swap1\n      tag_47\n      jump\t// in\n    tag_46:\n      tag_48\n      jump\t// in\n    tag_45:\n      mload(0x40)\n      tag_49\n      swap6\n      swap5\n      swap4\n      swap3\n      swap2\n      swap1\n      tag_50\n      jump\t// in\n    tag_49:\n      mload(0x40)\n      dup1\n      swap2\n      sub\n      swap1\n      return\n        /* \"solidity/contracts/BridgewhenCheap.sol\":1071:1109  uint256 public executionGasRequirement */\n    tag_9:\n      callvalue\n      dup1\n      iszero\n      tag_51\n      jumpi\n      0x00\n      dup1\n      revert\n    tag_51:\n      pop\n      tag_52\n      tag_53\n      jump\t// in\n    tag_52:\n      mload(0x40)\n      tag_54\n      swap2\n      swap1\n      tag_55\n      jump\t// in\n    tag_54:\n      mload(0x40)\n      dup1\n      swap2\n      sub\n      swap1\n      return\n        /* \"@openzeppelin/contracts/access/Ownable.sol\":1201:1286  function owner() public view virtual returns (address) {... */\n    tag_10:\n      callvalue\n      dup1\n      iszero\n      tag_56\n      jumpi\n      0x00\n      dup1\n      revert\n    tag_56:\n      pop\n      tag_57\n      tag_58\n      jump\t// in\n    tag_57:\n      mload(0x40)\n      tag_59\n      swap2\n      swap1\n      tag_32\n      jump\t// in\n    tag_59:\n      mload(0x40)\n      dup1\n      swap2\n      sub\n      swap1\n      return\n        /* \"solidity/contracts/BridgewhenCheap.sol\":1840:1868  uint256 public layer1ChainId */\n    tag_11:\n      callvalue\n      dup1\n      iszero\n      tag_60\n      jumpi\n      0x00\n      dup1\n      revert\n    tag_60:\n      pop\n      tag_61\n      tag_62\n      jump\t// in\n    tag_61:\n      mload(0x40)\n      tag_63\n      swap2\n      swap1\n      tag_55\n      jump\t// in\n    tag_63:\n      mload(0x40)\n      dup1\n      swap2\n      sub\n      swap1\n      return\n        /* \"solidity/contracts/BridgewhenCheap.sol\":6288:6512  function setTotalServiceFee(uint256 amount) public onlyOwner {... */\n    tag_12:\n      callvalue\n      dup1\n      iszero\n      tag_64\n      jumpi\n      0x00\n      dup1\n      revert\n    tag_64:\n      pop\n      tag_65\n      0x04\n      dup1\n      calldatasize\n      sub\n      dup2\n      add\n      swap1\n      tag_66\n      swap2\n      swap1\n      tag_39\n      jump\t// in\n    tag_66:\n      tag_67\n      jump\t// in\n    tag_65:\n      stop\n        /* \"solidity/contracts/BridgewhenCheap.sol\":5880:5927  function deposit() public payable onlyOwner { } */\n    tag_13:\n      tag_68\n      tag_69\n      jump\t// in\n    tag_68:\n      stop\n        /* \"solidity/contracts/BridgewhenCheap.sol\":1299:1329  uint256 public totalServiceFee */\n    tag_14:\n      callvalue\n      dup1\n      iszero\n      tag_70\n      jumpi\n      0x00\n      dup1\n      revert\n    tag_70:\n      pop\n      tag_71\n      tag_72\n      jump\t// in\n    tag_71:\n      mload(0x40)\n      tag_73\n      swap2\n      swap1\n      tag_55\n      jump\t// in\n    tag_73:\n      mload(0x40)\n      dup1\n      swap2\n      sub\n      swap1\n      return\n        /* \"@openzeppelin/contracts/access/Ownable.sol\":2081:2279  function transferOwnership(address newOwner) public virtual onlyOwner {... */\n    tag_15:\n      callvalue\n      dup1\n      iszero\n      tag_74\n      jumpi\n      0x00\n      dup1\n      revert\n    tag_74:\n      pop\n      tag_75\n      0x04\n      dup1\n      calldatasize\n      sub\n      dup2\n      add\n      swap1\n      tag_76\n      swap2\n      swap1\n      tag_47\n      jump\t// in\n    tag_76:\n      tag_77\n      jump\t// in\n    tag_75:\n      stop\n        /* \"solidity/contracts/BridgewhenCheap.sol\":4519:5716  function executeRequest(... */\n    tag_23:\n        /* \"@openzeppelin/contracts/access/Ownable.sol\":1094:1107  _checkOwner() */\n      tag_79\n        /* \"@openzeppelin/contracts/access/Ownable.sol\":1094:1105  _checkOwner */\n      tag_80\n        /* \"@openzeppelin/contracts/access/Ownable.sol\":1094:1107  _checkOwner() */\n      jump\t// in\n    tag_79:\n        /* \"@openzeppelin/contracts/security/ReentrancyGuard.sol\":2261:2282  _nonReentrantBefore() */\n      tag_82\n        /* \"@openzeppelin/contracts/security/ReentrancyGuard.sol\":2261:2280  _nonReentrantBefore */\n      tag_83\n        /* \"@openzeppelin/contracts/security/ReentrancyGuard.sol\":2261:2282  _nonReentrantBefore() */\n      jump\t// in\n    tag_82:\n        /* \"solidity/contracts/BridgewhenCheap.sol\":4896:4935  BridgeRequest memory toBeBridgedRequest */\n      0x00\n        /* \"solidity/contracts/BridgewhenCheap.sol\":4938:4946  requests */\n      0x05\n        /* \"solidity/contracts/BridgewhenCheap.sol\":4938:4957  requests[requestor] */\n      0x00\n        /* \"solidity/contracts/BridgewhenCheap.sol\":4947:4956  requestor */\n      dup9\n        /* \"solidity/contracts/BridgewhenCheap.sol\":4938:4957  requests[requestor] */\n      0xffffffffffffffffffffffffffffffffffffffff\n      and\n      0xffffffffffffffffffffffffffffffffffffffff\n      and\n      dup2\n      mstore\n      0x20\n      add\n      swap1\n      dup2\n      mstore\n      0x20\n      add\n      0x00\n      keccak256\n        /* \"solidity/contracts/BridgewhenCheap.sol\":4896:4957  BridgeRequest memory toBeBridgedRequest = requests[requestor] */\n      mload(0x40)\n      dup1\n      0xa0\n      add\n      0x40\n      mstore\n      swap1\n      dup2\n      0x00\n      dup3\n      add\n      0x00\n      swap1\n      sload\n      swap1\n      0x0100\n      exp\n      swap1\n      div\n      0xffffffffffffffffffffffffffffffffffffffff\n      and\n      0xffffffffffffffffffffffffffffffffffffffff\n      and\n      0xffffffffffffffffffffffffffffffffffffffff\n      and\n      dup2\n      mstore\n      0x20\n      add\n      0x01\n      dup3\n      add\n      0x00\n      swap1\n      sload\n      swap1\n      0x0100\n      exp\n      swap1\n      div\n      0xffffffffffffffffffffffffffffffffffffffff\n      and\n      0xffffffffffffffffffffffffffffffffffffffff\n      and\n      0xffffffffffffffffffffffffffffffffffffffff\n      and\n      dup2\n      mstore\n      0x20\n      add\n      0x02\n      dup3\n      add\n      sload\n      dup2\n      mstore\n      0x20\n      add\n      0x03\n      dup3\n      add\n      sload\n      dup2\n      mstore\n      0x20\n      add\n      0x04\n      dup3\n      add\n      sload\n      dup2\n      mstore\n      pop\n      pop\n      swap1\n      pop\n        /* \"solidity/contracts/BridgewhenCheap.sol\":4975:5004  isDefined(toBeBridgedRequest) */\n      tag_85\n        /* \"solidity/contracts/BridgewhenCheap.sol\":4985:5003  toBeBridgedRequest */\n      dup2\n        /* \"solidity/contracts/BridgewhenCheap.sol\":4975:4984  isDefined */\n      tag_86\n        /* \"solidity/contracts/BridgewhenCheap.sol\":4975:5004  isDefined(toBeBridgedRequest) */\n      jump\t// in\n    tag_85:\n        /* \"solidity/contracts/BridgewhenCheap.sol\":4967:5030  require(isDefined(toBeBridgedRequest), \"No request to process\") */\n      tag_87\n      jumpi\n      mload(0x40)\n      0x08c379a000000000000000000000000000000000000000000000000000000000\n      dup2\n      mstore\n      0x04\n      add\n      tag_88\n      swap1\n      tag_89\n      jump\t// in\n    tag_88:\n      mload(0x40)\n      dup1\n      swap2\n      sub\n      swap1\n      revert\n    tag_87:\n        /* \"solidity/contracts/BridgewhenCheap.sol\":5090:5099  bonderFee */\n      dup6\n        /* \"solidity/contracts/BridgewhenCheap.sol\":5061:5079  toBeBridgedRequest */\n      dup2\n        /* \"solidity/contracts/BridgewhenCheap.sol\":5061:5086  toBeBridgedRequest.amount */\n      0x40\n      add\n      mload\n        /* \"solidity/contracts/BridgewhenCheap.sol\":5061:5099  toBeBridgedRequest.amount >= bonderFee */\n      lt\n      iszero\n        /* \"solidity/contracts/BridgewhenCheap.sol\":5040:5157  require(... */\n      tag_90\n      jumpi\n      mload(0x40)\n      0x08c379a000000000000000000000000000000000000000000000000000000000\n      dup2\n      mstore\n      0x04\n      add\n      tag_91\n      swap1\n      tag_92\n      jump\t// in\n    tag_91:\n      mload(0x40)\n      dup1\n      swap2\n      sub\n      swap1\n      revert\n    tag_90:\n        /* \"solidity/contracts/BridgewhenCheap.sol\":5175:5183  requests */\n      0x05\n        /* \"solidity/contracts/BridgewhenCheap.sol\":5175:5194  requests[requestor] */\n      0x00\n        /* \"solidity/contracts/BridgewhenCheap.sol\":5184:5193  requestor */\n      dup9\n        /* \"solidity/contracts/BridgewhenCheap.sol\":5175:5194  requests[requestor] */\n      0xffffffffffffffffffffffffffffffffffffffff\n      and\n      0xffffffffffffffffffffffffffffffffffffffff\n      and\n      dup2\n      mstore\n      0x20\n      add\n      swap1\n      dup2\n      mstore\n      0x20\n      add\n      0x00\n      keccak256\n      0x00\n        /* \"solidity/contracts/BridgewhenCheap.sol\":5168:5194  delete requests[requestor] */\n      dup1\n      dup3\n      add\n      exp(0x0100, 0x00)\n      dup2\n      sload\n      swap1\n      0xffffffffffffffffffffffffffffffffffffffff\n      mul\n      not\n      and\n      swap1\n      sstore\n      0x01\n      dup3\n      add\n      exp(0x0100, 0x00)\n      dup2\n      sload\n      swap1\n      0xffffffffffffffffffffffffffffffffffffffff\n      mul\n      not\n      and\n      swap1\n      sstore\n      0x02\n      dup3\n      add\n      0x00\n      swap1\n      sstore\n      0x03\n      dup3\n      add\n      0x00\n      swap1\n      sstore\n      0x04\n      dup3\n      add\n      0x00\n      swap1\n      sstore\n      pop\n      pop\n        /* \"solidity/contracts/BridgewhenCheap.sol\":5247:5259  bool success */\n      0x00\n        /* \"solidity/contracts/BridgewhenCheap.sol\":5270:5280  msg.sender */\n      caller\n        /* \"solidity/contracts/BridgewhenCheap.sol\":5262:5286  payable(msg.sender).send */\n      0xffffffffffffffffffffffffffffffffffffffff\n      and\n        /* \"solidity/contracts/BridgewhenCheap.sol\":5262:5311  payable(msg.sender).send(executionGasRequirement) */\n      0x08fc\n        /* \"solidity/contracts/BridgewhenCheap.sol\":5287:5310  executionGasRequirement */\n      sload(0x02)\n        /* \"solidity/contracts/BridgewhenCheap.sol\":5262:5311  payable(msg.sender).send(executionGasRequirement) */\n      swap1\n      dup2\n      iszero\n      mul\n      swap1\n      mload(0x40)\n      0x00\n      mload(0x40)\n      dup1\n      dup4\n      sub\n      dup2\n      dup6\n      dup9\n      dup9\n      call\n      swap4\n      pop\n      pop\n      pop\n      pop\n        /* \"solidity/contracts/BridgewhenCheap.sol\":5247:5311  bool success = payable(msg.sender).send(executionGasRequirement) */\n      swap1\n      pop\n        /* \"solidity/contracts/BridgewhenCheap.sol\":5329:5336  success */\n      dup1\n        /* \"solidity/contracts/BridgewhenCheap.sol\":5321:5366  require(success, \"Failed to refund executor\") */\n      tag_94\n      jumpi\n      mload(0x40)\n      0x08c379a000000000000000000000000000000000000000000000000000000000\n      dup2\n      mstore\n      0x04\n      add\n      tag_95\n      swap1\n      tag_96\n      jump\t// in\n    tag_95:\n      mload(0x40)\n      dup1\n      swap2\n      sub\n      swap1\n      revert\n    tag_94:\n        /* \"solidity/contracts/BridgewhenCheap.sol\":5391:5412  l2HopBridgeAmmWrapper */\n      0x04\n      0x00\n      swap1\n      sload\n      swap1\n      0x0100\n      exp\n      swap1\n      div\n      0xffffffffffffffffffffffffffffffffffffffff\n      and\n        /* \"solidity/contracts/BridgewhenCheap.sol\":5377:5425  L2_AmmWrapper(l2HopBridgeAmmWrapper).swapAndSend */\n      0xffffffffffffffffffffffffffffffffffffffff\n      and\n      0xeea0d7b2\n        /* \"solidity/contracts/BridgewhenCheap.sol\":5434:5452  toBeBridgedRequest */\n      dup4\n        /* \"solidity/contracts/BridgewhenCheap.sol\":5434:5459  toBeBridgedRequest.amount */\n      0x40\n      add\n      mload\n        /* \"solidity/contracts/BridgewhenCheap.sol\":5476:5489  layer1ChainId */\n      sload(0x06)\n        /* \"solidity/contracts/BridgewhenCheap.sol\":5503:5521  toBeBridgedRequest */\n      dup6\n        /* \"solidity/contracts/BridgewhenCheap.sol\":5503:5533  toBeBridgedRequest.destination */\n      0x20\n      add\n      mload\n        /* \"solidity/contracts/BridgewhenCheap.sol\":5547:5565  toBeBridgedRequest */\n      dup7\n        /* \"solidity/contracts/BridgewhenCheap.sol\":5547:5572  toBeBridgedRequest.amount */\n      0x40\n      add\n      mload\n        /* \"solidity/contracts/BridgewhenCheap.sol\":5586:5595  bonderFee */\n      dup13\n        /* \"solidity/contracts/BridgewhenCheap.sol\":5609:5621  amountOutMin */\n      dup13\n        /* \"solidity/contracts/BridgewhenCheap.sol\":5635:5643  deadline */\n      dup13\n        /* \"solidity/contracts/BridgewhenCheap.sol\":5657:5673  destAmountOutMin */\n      dup13\n        /* \"solidity/contracts/BridgewhenCheap.sol\":5687:5699  destDeadline */\n      dup13\n        /* \"solidity/contracts/BridgewhenCheap.sol\":5377:5709  L2_AmmWrapper(l2HopBridgeAmmWrapper).swapAndSend{ value: toBeBridgedRequest.amount } (... */\n      mload(0x40)\n      dup11\n      0xffffffff\n      and\n      0xe0\n      shl\n      dup2\n      mstore\n      0x04\n      add\n      tag_97\n      swap9\n      swap8\n      swap7\n      swap6\n      swap5\n      swap4\n      swap3\n      swap2\n      swap1\n      tag_98\n      jump\t// in\n    tag_97:\n      0x00\n      mload(0x40)\n      dup1\n      dup4\n      sub\n      dup2\n      dup6\n      dup9\n      dup1\n      extcodesize\n      iszero\n      dup1\n      iszero\n      tag_99\n      jumpi\n      0x00\n      dup1\n      revert\n    tag_99:\n      pop\n      gas\n      call\n      iszero\n      dup1\n      iszero\n      tag_101\n      jumpi\n      returndatasize\n      0x00\n      dup1\n      returndatacopy\n      revert(0x00, returndatasize)\n    tag_101:\n      pop\n      pop\n      pop\n      pop\n      pop\n        /* \"solidity/contracts/BridgewhenCheap.sol\":4886:5716  {... */\n      pop\n      pop\n        /* \"@openzeppelin/contracts/security/ReentrancyGuard.sol\":2303:2323  _nonReentrantAfter() */\n      tag_102\n        /* \"@openzeppelin/contracts/security/ReentrancyGuard.sol\":2303:2321  _nonReentrantAfter */\n      tag_103\n        /* \"@openzeppelin/contracts/security/ReentrancyGuard.sol\":2303:2323  _nonReentrantAfter() */\n      jump\t// in\n    tag_102:\n        /* \"solidity/contracts/BridgewhenCheap.sol\":4519:5716  function executeRequest(... */\n      pop\n      pop\n      pop\n      pop\n      pop\n      pop\n      jump\t// out\n        /* \"solidity/contracts/BridgewhenCheap.sol\":2622:3774  function deposit(... */\n    tag_27:\n        /* \"solidity/contracts/BridgewhenCheap.sol\":2795:2796  0 */\n      0x00\n        /* \"solidity/contracts/BridgewhenCheap.sol\":2773:2797  msg.sender != address(0) */\n      0xffffffffffffffffffffffffffffffffffffffff\n      and\n        /* \"solidity/contracts/BridgewhenCheap.sol\":2773:2783  msg.sender */\n      caller\n        /* \"solidity/contracts/BridgewhenCheap.sol\":2773:2797  msg.sender != address(0) */\n      0xffffffffffffffffffffffffffffffffffffffff\n      and\n      sub\n        /* \"solidity/contracts/BridgewhenCheap.sol\":2765:2829  require(msg.sender != address(0), \"Sender may not be 0 address\") */\n      tag_105\n      jumpi\n      mload(0x40)\n      0x08c379a000000000000000000000000000000000000000000000000000000000\n      dup2\n      mstore\n      0x04\n      add\n      tag_106\n      swap1\n      tag_107\n      jump\t// in\n    tag_106:\n      mload(0x40)\n      dup1\n      swap2\n      sub\n      swap1\n      revert\n    tag_105:\n        /* \"solidity/contracts/BridgewhenCheap.sol\":2883:2884  0 */\n      0x00\n        /* \"solidity/contracts/BridgewhenCheap.sol\":2860:2885  destination != address(0) */\n      0xffffffffffffffffffffffffffffffffffffffff\n      and\n        /* \"solidity/contracts/BridgewhenCheap.sol\":2860:2871  destination */\n      dup4\n        /* \"solidity/contracts/BridgewhenCheap.sol\":2860:2885  destination != address(0) */\n      0xffffffffffffffffffffffffffffffffffffffff\n      and\n      sub\n        /* \"solidity/contracts/BridgewhenCheap.sol\":2839:2951  require(... */\n      tag_108\n      jumpi\n      mload(0x40)\n      0x08c379a000000000000000000000000000000000000000000000000000000000\n      dup2\n      mstore\n      0x04\n      add\n      tag_109\n      swap1\n      tag_110\n      jump\t// in\n    tag_109:\n      mload(0x40)\n      dup1\n      swap2\n      sub\n      swap1\n      revert\n    tag_108:\n        /* \"solidity/contracts/BridgewhenCheap.sol\":3001:3002  0 */\n      0x00\n        /* \"solidity/contracts/BridgewhenCheap.sol\":2982:2998  wantedL1GasPrice */\n      dup3\n        /* \"solidity/contracts/BridgewhenCheap.sol\":2982:3002  wantedL1GasPrice > 0 */\n      gt\n        /* \"solidity/contracts/BridgewhenCheap.sol\":2961:3073  require(... */\n      tag_111\n      jumpi\n      mload(0x40)\n      0x08c379a000000000000000000000000000000000000000000000000000000000\n      dup2\n      mstore\n      0x04\n      add\n      tag_112\n      swap1\n      tag_113\n      jump\t// in\n    tag_112:\n      mload(0x40)\n      dup1\n      swap2\n      sub\n      swap1\n      revert\n    tag_111:\n        /* \"solidity/contracts/BridgewhenCheap.sol\":3117:3140  executionGasRequirement */\n      sload(0x02)\n        /* \"solidity/contracts/BridgewhenCheap.sol\":3104:3113  msg.value */\n      callvalue\n        /* \"solidity/contracts/BridgewhenCheap.sol\":3104:3140  msg.value >= executionGasRequirement */\n      lt\n      iszero\n        /* \"solidity/contracts/BridgewhenCheap.sol\":3083:3211  require(... */\n      tag_114\n      jumpi\n      mload(0x40)\n      0x08c379a000000000000000000000000000000000000000000000000000000000\n      dup2\n      mstore\n      0x04\n      add\n      tag_115\n      swap1\n      tag_116\n      jump\t// in\n    tag_115:\n      mload(0x40)\n      dup1\n      swap2\n      sub\n      swap1\n      revert\n    tag_114:\n        /* \"solidity/contracts/BridgewhenCheap.sol\":3222:3240  uint256 sentAmount */\n      0x00\n        /* \"solidity/contracts/BridgewhenCheap.sol\":3255:3278  executionGasRequirement */\n      sload(0x02)\n        /* \"solidity/contracts/BridgewhenCheap.sol\":3243:3252  msg.value */\n      callvalue\n        /* \"solidity/contracts/BridgewhenCheap.sol\":3243:3278  msg.value - executionGasRequirement */\n      tag_117\n      swap2\n      swap1\n      tag_118\n      jump\t// in\n    tag_117:\n        /* \"solidity/contracts/BridgewhenCheap.sol\":3222:3278  uint256 sentAmount = msg.value - executionGasRequirement */\n      swap1\n      pop\n        /* \"solidity/contracts/BridgewhenCheap.sol\":3385:3397  amountOutMin */\n      dup2\n        /* \"solidity/contracts/BridgewhenCheap.sol\":3371:3381  sentAmount */\n      dup2\n        /* \"solidity/contracts/BridgewhenCheap.sol\":3371:3397  sentAmount >= amountOutMin */\n      lt\n      iszero\n        /* \"solidity/contracts/BridgewhenCheap.sol\":3350:3518  require(... */\n      tag_119\n      jumpi\n      mload(0x40)\n      0x08c379a000000000000000000000000000000000000000000000000000000000\n      dup2\n      mstore\n      0x04\n      add\n      tag_120\n      swap1\n      tag_121\n      jump\t// in\n    tag_120:\n      mload(0x40)\n      dup1\n      swap2\n      sub\n      swap1\n      revert\n    tag_119:\n        /* \"solidity/contracts/BridgewhenCheap.sol\":3552:3767  BridgeRequest({... */\n      mload(0x40)\n      dup1\n      0xa0\n      add\n      0x40\n      mstore\n      dup1\n        /* \"solidity/contracts/BridgewhenCheap.sol\":3588:3598  msg.sender */\n      caller\n        /* \"solidity/contracts/BridgewhenCheap.sol\":3552:3767  BridgeRequest({... */\n      0xffffffffffffffffffffffffffffffffffffffff\n      and\n      dup2\n      mstore\n      0x20\n      add\n        /* \"solidity/contracts/BridgewhenCheap.sol\":3625:3636  destination */\n      dup6\n        /* \"solidity/contracts/BridgewhenCheap.sol\":3552:3767  BridgeRequest({... */\n      0xffffffffffffffffffffffffffffffffffffffff\n      and\n      dup2\n      mstore\n      0x20\n      add\n        /* \"solidity/contracts/BridgewhenCheap.sol\":3658:3668  sentAmount */\n      dup3\n        /* \"solidity/contracts/BridgewhenCheap.sol\":3552:3767  BridgeRequest({... */\n      dup2\n      mstore\n      0x20\n      add\n        /* \"solidity/contracts/BridgewhenCheap.sol\":3696:3708  amountOutMin */\n      dup4\n        /* \"solidity/contracts/BridgewhenCheap.sol\":3552:3767  BridgeRequest({... */\n      dup2\n      mstore\n      0x20\n      add\n        /* \"solidity/contracts/BridgewhenCheap.sol\":3740:3756  wantedL1GasPrice */\n      dup5\n        /* \"solidity/contracts/BridgewhenCheap.sol\":3552:3767  BridgeRequest({... */\n      dup2\n      mstore\n      pop\n        /* \"solidity/contracts/BridgewhenCheap.sol\":3529:3537  requests */\n      0x05\n        /* \"solidity/contracts/BridgewhenCheap.sol\":3529:3549  requests[msg.sender] */\n      0x00\n        /* \"solidity/contracts/BridgewhenCheap.sol\":3538:3548  msg.sender */\n      caller\n        /* \"solidity/contracts/BridgewhenCheap.sol\":3529:3549  requests[msg.sender] */\n      0xffffffffffffffffffffffffffffffffffffffff\n      and\n      0xffffffffffffffffffffffffffffffffffffffff\n      and\n      dup2\n      mstore\n      0x20\n      add\n      swap1\n      dup2\n      mstore\n      0x20\n      add\n      0x00\n      keccak256\n        /* \"solidity/contracts/BridgewhenCheap.sol\":3529:3767  requests[msg.sender] = BridgeRequest({... */\n      0x00\n      dup3\n      add\n      mload\n      dup2\n      0x00\n      add\n      exp(0x0100, 0x00)\n      dup2\n      sload\n      dup2\n      0xffffffffffffffffffffffffffffffffffffffff\n      mul\n      not\n      and\n      swap1\n      dup4\n      0xffffffffffffffffffffffffffffffffffffffff\n      and\n      mul\n      or\n      swap1\n      sstore\n      pop\n      0x20\n      dup3\n      add\n      mload\n      dup2\n      0x01\n      add\n      exp(0x0100, 0x00)\n      dup2\n      sload\n      dup2\n      0xffffffffffffffffffffffffffffffffffffffff\n      mul\n      not\n      and\n      swap1\n      dup4\n      0xffffffffffffffffffffffffffffffffffffffff\n      and\n      mul\n      or\n      swap1\n      sstore\n      pop\n      0x40\n      dup3\n      add\n      mload\n      dup2\n      0x02\n      add\n      sstore\n      0x60\n      dup3\n      add\n      mload\n      dup2\n      0x03\n      add\n      sstore\n      0x80\n      dup3\n      add\n      mload\n      dup2\n      0x04\n      add\n      sstore\n      swap1\n      pop\n      pop\n        /* \"solidity/contracts/BridgewhenCheap.sol\":2755:3774  {... */\n      pop\n        /* \"solidity/contracts/BridgewhenCheap.sol\":2622:3774  function deposit(... */\n      pop\n      pop\n      pop\n      jump\t// out\n        /* \"solidity/contracts/BridgewhenCheap.sol\":1411:1447  address public l2HopBridgeAmmWrapper */\n    tag_30:\n      0x04\n      0x00\n      swap1\n      sload\n      swap1\n      0x0100\n      exp\n      swap1\n      div\n      0xffffffffffffffffffffffffffffffffffffffff\n      and\n      dup2\n      jump\t// out\n        /* \"solidity/contracts/BridgewhenCheap.sol\":3830:4346  function withdraw() external nonReentrant {... */\n    tag_35:\n        /* \"@openzeppelin/contracts/security/ReentrancyGuard.sol\":2261:2282  _nonReentrantBefore() */\n      tag_123\n        /* \"@openzeppelin/contracts/security/ReentrancyGuard.sol\":2261:2280  _nonReentrantBefore */\n      tag_83\n        /* \"@openzeppelin/contracts/security/ReentrancyGuard.sol\":2261:2282  _nonReentrantBefore() */\n      jump\t// in\n    tag_123:\n        /* \"solidity/contracts/BridgewhenCheap.sol\":3882:3918  BridgeRequest memory obsoleteRequest */\n      0x00\n        /* \"solidity/contracts/BridgewhenCheap.sol\":3921:3929  requests */\n      0x05\n        /* \"solidity/contracts/BridgewhenCheap.sol\":3921:3941  requests[msg.sender] */\n      0x00\n        /* \"solidity/contracts/BridgewhenCheap.sol\":3930:3940  msg.sender */\n      caller\n        /* \"solidity/contracts/BridgewhenCheap.sol\":3921:3941  requests[msg.sender] */\n      0xffffffffffffffffffffffffffffffffffffffff\n      and\n      0xffffffffffffffffffffffffffffffffffffffff\n      and\n      dup2\n      mstore\n      0x20\n      add\n      swap1\n      dup2\n      mstore\n      0x20\n      add\n      0x00\n      keccak256\n        /* \"solidity/contracts/BridgewhenCheap.sol\":3882:3941  BridgeRequest memory obsoleteRequest = requests[msg.sender] */\n      mload(0x40)\n      dup1\n      0xa0\n      add\n      0x40\n      mstore\n      swap1\n      dup2\n      0x00\n      dup3\n      add\n      0x00\n      swap1\n      sload\n      swap1\n      0x0100\n      exp\n      swap1\n      div\n      0xffffffffffffffffffffffffffffffffffffffff\n      and\n      0xffffffffffffffffffffffffffffffffffffffff\n      and\n      0xffffffffffffffffffffffffffffffffffffffff\n      and\n      dup2\n      mstore\n      0x20\n      add\n      0x01\n      dup3\n      add\n      0x00\n      swap1\n      sload\n      swap1\n      0x0100\n      exp\n      swap1\n      div\n      0xffffffffffffffffffffffffffffffffffffffff\n      and\n      0xffffffffffffffffffffffffffffffffffffffff\n      and\n      0xffffffffffffffffffffffffffffffffffffffff\n      and\n      dup2\n      mstore\n      0x20\n      add\n      0x02\n      dup3\n      add\n      sload\n      dup2\n      mstore\n      0x20\n      add\n      0x03\n      dup3\n      add\n      sload\n      dup2\n      mstore\n      0x20\n      add\n      0x04\n      dup3\n      add\n      sload\n      dup2\n      mstore\n      pop\n      pop\n      swap1\n      pop\n        /* \"solidity/contracts/BridgewhenCheap.sol\":3995:4021  isDefined(obsoleteRequest) */\n      tag_125\n        /* \"solidity/contracts/BridgewhenCheap.sol\":4005:4020  obsoleteRequest */\n      dup2\n        /* \"solidity/contracts/BridgewhenCheap.sol\":3995:4004  isDefined */\n      tag_86\n        /* \"solidity/contracts/BridgewhenCheap.sol\":3995:4021  isDefined(obsoleteRequest) */\n      jump\t// in\n    tag_125:\n        /* \"solidity/contracts/BridgewhenCheap.sol\":3987:4048  require(isDefined(obsoleteRequest), \"No request to withdraw\") */\n      tag_126\n      jumpi\n      mload(0x40)\n      0x08c379a000000000000000000000000000000000000000000000000000000000\n      dup2\n      mstore\n      0x04\n      add\n      tag_127\n      swap1\n      tag_128\n      jump\t// in\n    tag_127:\n      mload(0x40)\n      dup1\n      swap2\n      sub\n      swap1\n      revert\n    tag_126:\n        /* \"solidity/contracts/BridgewhenCheap.sol\":4066:4074  requests */\n      0x05\n        /* \"solidity/contracts/BridgewhenCheap.sol\":4066:4086  requests[msg.sender] */\n      0x00\n        /* \"solidity/contracts/BridgewhenCheap.sol\":4075:4085  msg.sender */\n      caller\n        /* \"solidity/contracts/BridgewhenCheap.sol\":4066:4086  requests[msg.sender] */\n      0xffffffffffffffffffffffffffffffffffffffff\n      and\n      0xffffffffffffffffffffffffffffffffffffffff\n      and\n      dup2\n      mstore\n      0x20\n      add\n      swap1\n      dup2\n      mstore\n      0x20\n      add\n      0x00\n      keccak256\n      0x00\n        /* \"solidity/contracts/BridgewhenCheap.sol\":4059:4086  delete requests[msg.sender] */\n      dup1\n      dup3\n      add\n      exp(0x0100, 0x00)\n      dup2\n      sload\n      swap1\n      0xffffffffffffffffffffffffffffffffffffffff\n      mul\n      not\n      and\n      swap1\n      sstore\n      0x01\n      dup3\n      add\n      exp(0x0100, 0x00)\n      dup2\n      sload\n      swap1\n      0xffffffffffffffffffffffffffffffffffffffff\n      mul\n      not\n      and\n      swap1\n      sstore\n      0x02\n      dup3\n      add\n      0x00\n      swap1\n      sstore\n      0x03\n      dup3\n      add\n      0x00\n      swap1\n      sstore\n      0x04\n      dup3\n      add\n      0x00\n      swap1\n      sstore\n      pop\n      pop\n        /* \"solidity/contracts/BridgewhenCheap.sol\":4130:4140  msg.sender */\n      caller\n        /* \"solidity/contracts/BridgewhenCheap.sol\":4104:4140  obsoleteRequest.source == msg.sender */\n      0xffffffffffffffffffffffffffffffffffffffff\n      and\n        /* \"solidity/contracts/BridgewhenCheap.sol\":4104:4119  obsoleteRequest */\n      dup2\n        /* \"solidity/contracts/BridgewhenCheap.sol\":4104:4126  obsoleteRequest.source */\n      0x00\n      add\n      mload\n        /* \"solidity/contracts/BridgewhenCheap.sol\":4104:4140  obsoleteRequest.source == msg.sender */\n      0xffffffffffffffffffffffffffffffffffffffff\n      and\n      eq\n        /* \"solidity/contracts/BridgewhenCheap.sol\":4097:4141  assert(obsoleteRequest.source == msg.sender) */\n      tag_129\n      jumpi\n      tag_130\n      tag_131\n      jump\t// in\n    tag_130:\n    tag_129:\n        /* \"solidity/contracts/BridgewhenCheap.sol\":4208:4220  bool success */\n      0x00\n        /* \"solidity/contracts/BridgewhenCheap.sol\":4231:4241  msg.sender */\n      caller\n        /* \"solidity/contracts/BridgewhenCheap.sol\":4223:4247  payable(msg.sender).send */\n      0xffffffffffffffffffffffffffffffffffffffff\n      and\n        /* \"solidity/contracts/BridgewhenCheap.sol\":4223:4271  payable(msg.sender).send(obsoleteRequest.amount) */\n      0x08fc\n        /* \"solidity/contracts/BridgewhenCheap.sol\":4248:4263  obsoleteRequest */\n      dup4\n        /* \"solidity/contracts/BridgewhenCheap.sol\":4248:4270  obsoleteRequest.amount */\n      0x40\n      add\n      mload\n        /* \"solidity/contracts/BridgewhenCheap.sol\":4223:4271  payable(msg.sender).send(obsoleteRequest.amount) */\n      swap1\n      dup2\n      iszero\n      mul\n      swap1\n      mload(0x40)\n      0x00\n      mload(0x40)\n      dup1\n      dup4\n      sub\n      dup2\n      dup6\n      dup9\n      dup9\n      call\n      swap4\n      pop\n      pop\n      pop\n      pop\n        /* \"solidity/contracts/BridgewhenCheap.sol\":4208:4271  bool success = payable(msg.sender).send(obsoleteRequest.amount) */\n      swap1\n      pop\n        /* \"solidity/contracts/BridgewhenCheap.sol\":4289:4296  success */\n      dup1\n        /* \"solidity/contracts/BridgewhenCheap.sol\":4281:4339  require(success, \"Failed to withdraw funds to msg.sender\") */\n      tag_133\n      jumpi\n      mload(0x40)\n      0x08c379a000000000000000000000000000000000000000000000000000000000\n      dup2\n      mstore\n      0x04\n      add\n      tag_134\n      swap1\n      tag_135\n      jump\t// in\n    tag_134:\n      mload(0x40)\n      dup1\n      swap2\n      sub\n      swap1\n      revert\n    tag_133:\n        /* \"solidity/contracts/BridgewhenCheap.sol\":3872:4346  {... */\n      pop\n      pop\n        /* \"@openzeppelin/contracts/security/ReentrancyGuard.sol\":2303:2323  _nonReentrantAfter() */\n      tag_136\n        /* \"@openzeppelin/contracts/security/ReentrancyGuard.sol\":2303:2321  _nonReentrantAfter */\n      tag_103\n        /* \"@openzeppelin/contracts/security/ReentrancyGuard.sol\":2303:2323  _nonReentrantAfter() */\n      jump\t// in\n    tag_136:\n        /* \"solidity/contracts/BridgewhenCheap.sol\":3830:4346  function withdraw() external nonReentrant {... */\n      jump\t// out\n        /* \"solidity/contracts/BridgewhenCheap.sol\":6050:6282  function setExecutionGasRequirement(uint256 amount) public onlyOwner {... */\n    tag_40:\n        /* \"@openzeppelin/contracts/access/Ownable.sol\":1094:1107  _checkOwner() */\n      tag_138\n        /* \"@openzeppelin/contracts/access/Ownable.sol\":1094:1105  _checkOwner */\n      tag_80\n        /* \"@openzeppelin/contracts/access/Ownable.sol\":1094:1107  _checkOwner() */\n      jump\t// in\n    tag_138:\n        /* \"solidity/contracts/BridgewhenCheap.sol\":6156:6162  amount */\n      dup1\n        /* \"solidity/contracts/BridgewhenCheap.sol\":6137:6152  totalServiceFee */\n      sload(0x03)\n        /* \"solidity/contracts/BridgewhenCheap.sol\":6137:6162  totalServiceFee >= amount */\n      lt\n      iszero\n        /* \"solidity/contracts/BridgewhenCheap.sol\":6129:6233  require(totalServiceFee >= amount, \"total service fee must cover at least the xecution gas requirement\") */\n      tag_140\n      jumpi\n      mload(0x40)\n      0x08c379a000000000000000000000000000000000000000000000000000000000\n      dup2\n      mstore\n      0x04\n      add\n      tag_141\n      swap1\n      tag_142\n      jump\t// in\n    tag_141:\n      mload(0x40)\n      dup1\n      swap2\n      sub\n      swap1\n      revert\n    tag_140:\n        /* \"solidity/contracts/BridgewhenCheap.sol\":6269:6275  amount */\n      dup1\n        /* \"solidity/contracts/BridgewhenCheap.sol\":6243:6266  executionGasRequirement */\n      0x02\n        /* \"solidity/contracts/BridgewhenCheap.sol\":6243:6275  executionGasRequirement = amount */\n      dup2\n      swap1\n      sstore\n      pop\n        /* \"solidity/contracts/BridgewhenCheap.sol\":6050:6282  function setExecutionGasRequirement(uint256 amount) public onlyOwner {... */\n      pop\n      jump\t// out\n        /* \"@openzeppelin/contracts/access/Ownable.sol\":1831:1932  function renounceOwnership() public virtual onlyOwner {... */\n    tag_43:\n        /* \"@openzeppelin/contracts/access/Ownable.sol\":1094:1107  _checkOwner() */\n      tag_144\n        /* \"@openzeppelin/contracts/access/Ownable.sol\":1094:1105  _checkOwner */\n      tag_80\n        /* \"@openzeppelin/contracts/access/Ownable.sol\":1094:1107  _checkOwner() */\n      jump\t// in\n    tag_144:\n        /* \"@openzeppelin/contracts/access/Ownable.sol\":1895:1925  _transferOwnership(address(0)) */\n      tag_146\n        /* \"@openzeppelin/contracts/access/Ownable.sol\":1922:1923  0 */\n      0x00\n        /* \"@openzeppelin/contracts/access/Ownable.sol\":1895:1913  _transferOwnership */\n      tag_147\n        /* \"@openzeppelin/contracts/access/Ownable.sol\":1895:1925  _transferOwnership(address(0)) */\n      jump\t// in\n    tag_146:\n        /* \"@openzeppelin/contracts/access/Ownable.sol\":1831:1932  function renounceOwnership() public virtual onlyOwner {... */\n      jump\t// out\n        /* \"solidity/contracts/BridgewhenCheap.sol\":1715:1764  mapping(address => BridgeRequest) public requests */\n    tag_48:\n      mstore(0x20, 0x05)\n      dup1\n      0x00\n      mstore\n      keccak256(0x00, 0x40)\n      0x00\n      swap2\n      pop\n      swap1\n      pop\n      dup1\n      0x00\n      add\n      0x00\n      swap1\n      sload\n      swap1\n      0x0100\n      exp\n      swap1\n      div\n      0xffffffffffffffffffffffffffffffffffffffff\n      and\n      swap1\n      dup1\n      0x01\n      add\n      0x00\n      swap1\n      sload\n      swap1\n      0x0100\n      exp\n      swap1\n      div\n      0xffffffffffffffffffffffffffffffffffffffff\n      and\n      swap1\n      dup1\n      0x02\n      add\n      sload\n      swap1\n      dup1\n      0x03\n      add\n      sload\n      swap1\n      dup1\n      0x04\n      add\n      sload\n      swap1\n      pop\n      dup6\n      jump\t// out\n        /* \"solidity/contracts/BridgewhenCheap.sol\":1071:1109  uint256 public executionGasRequirement */\n    tag_53:\n      sload(0x02)\n      dup2\n      jump\t// out\n        /* \"@openzeppelin/contracts/access/Ownable.sol\":1201:1286  function owner() public view virtual returns (address) {... */\n    tag_58:\n        /* \"@openzeppelin/contracts/access/Ownable.sol\":1247:1254  address */\n      0x00\n        /* \"@openzeppelin/contracts/access/Ownable.sol\":1273:1279  _owner */\n      dup1\n      0x00\n      swap1\n      sload\n      swap1\n      0x0100\n      exp\n      swap1\n      div\n      0xffffffffffffffffffffffffffffffffffffffff\n      and\n        /* \"@openzeppelin/contracts/access/Ownable.sol\":1266:1279  return _owner */\n      swap1\n      pop\n        /* \"@openzeppelin/contracts/access/Ownable.sol\":1201:1286  function owner() public view virtual returns (address) {... */\n      swap1\n      jump\t// out\n        /* \"solidity/contracts/BridgewhenCheap.sol\":1840:1868  uint256 public layer1ChainId */\n    tag_62:\n      sload(0x06)\n      dup2\n      jump\t// out\n        /* \"solidity/contracts/BridgewhenCheap.sol\":6288:6512  function setTotalServiceFee(uint256 amount) public onlyOwner {... */\n    tag_67:\n        /* \"@openzeppelin/contracts/access/Ownable.sol\":1094:1107  _checkOwner() */\n      tag_150\n        /* \"@openzeppelin/contracts/access/Ownable.sol\":1094:1105  _checkOwner */\n      tag_80\n        /* \"@openzeppelin/contracts/access/Ownable.sol\":1094:1107  _checkOwner() */\n      jump\t// in\n    tag_150:\n        /* \"solidity/contracts/BridgewhenCheap.sol\":6377:6400  executionGasRequirement */\n      sload(0x02)\n        /* \"solidity/contracts/BridgewhenCheap.sol\":6367:6373  amount */\n      dup2\n        /* \"solidity/contracts/BridgewhenCheap.sol\":6367:6400  amount >= executionGasRequirement */\n      lt\n      iszero\n        /* \"solidity/contracts/BridgewhenCheap.sol\":6359:6471  require(amount >= executionGasRequirement, \"total service fee must cover at least the xecution gas requirement\") */\n      tag_152\n      jumpi\n      mload(0x40)\n      0x08c379a000000000000000000000000000000000000000000000000000000000\n      dup2\n      mstore\n      0x04\n      add\n      tag_153\n      swap1\n      tag_142\n      jump\t// in\n    tag_153:\n      mload(0x40)\n      dup1\n      swap2\n      sub\n      swap1\n      revert\n    tag_152:\n        /* \"solidity/contracts/BridgewhenCheap.sol\":6499:6505  amount */\n      dup1\n        /* \"solidity/contracts/BridgewhenCheap.sol\":6481:6496  totalServiceFee */\n      0x03\n        /* \"solidity/contracts/BridgewhenCheap.sol\":6481:6505  totalServiceFee = amount */\n      dup2\n      swap1\n      sstore\n      pop\n        /* \"solidity/contracts/BridgewhenCheap.sol\":6288:6512  function setTotalServiceFee(uint256 amount) public onlyOwner {... */\n      pop\n      jump\t// out\n        /* \"solidity/contracts/BridgewhenCheap.sol\":5880:5927  function deposit() public payable onlyOwner { } */\n    tag_69:\n        /* \"@openzeppelin/contracts/access/Ownable.sol\":1094:1107  _checkOwner() */\n      tag_155\n        /* \"@openzeppelin/contracts/access/Ownable.sol\":1094:1105  _checkOwner */\n      tag_80\n        /* \"@openzeppelin/contracts/access/Ownable.sol\":1094:1107  _checkOwner() */\n      jump\t// in\n    tag_155:\n        /* \"solidity/contracts/BridgewhenCheap.sol\":5880:5927  function deposit() public payable onlyOwner { } */\n      jump\t// out\n        /* \"solidity/contracts/BridgewhenCheap.sol\":1299:1329  uint256 public totalServiceFee */\n    tag_72:\n      sload(0x03)\n      dup2\n      jump\t// out\n        /* \"@openzeppelin/contracts/access/Ownable.sol\":2081:2279  function transferOwnership(address newOwner) public virtual onlyOwner {... */\n    tag_77:\n        /* \"@openzeppelin/contracts/access/Ownable.sol\":1094:1107  _checkOwner() */\n      tag_158\n        /* \"@openzeppelin/contracts/access/Ownable.sol\":1094:1105  _checkOwner */\n      tag_80\n        /* \"@openzeppelin/contracts/access/Ownable.sol\":1094:1107  _checkOwner() */\n      jump\t// in\n    tag_158:\n        /* \"@openzeppelin/contracts/access/Ownable.sol\":2189:2190  0 */\n      0x00\n        /* \"@openzeppelin/contracts/access/Ownable.sol\":2169:2191  newOwner != address(0) */\n      0xffffffffffffffffffffffffffffffffffffffff\n      and\n        /* \"@openzeppelin/contracts/access/Ownable.sol\":2169:2177  newOwner */\n      dup2\n        /* \"@openzeppelin/contracts/access/Ownable.sol\":2169:2191  newOwner != address(0) */\n      0xffffffffffffffffffffffffffffffffffffffff\n      and\n      sub\n        /* \"@openzeppelin/contracts/access/Ownable.sol\":2161:2234  require(newOwner != address(0), \"Ownable: new owner is the zero address\") */\n      tag_160\n      jumpi\n      mload(0x40)\n      0x08c379a000000000000000000000000000000000000000000000000000000000\n      dup2\n      mstore\n      0x04\n      add\n      tag_161\n      swap1\n      tag_162\n      jump\t// in\n    tag_161:\n      mload(0x40)\n      dup1\n      swap2\n      sub\n      swap1\n      revert\n    tag_160:\n        /* \"@openzeppelin/contracts/access/Ownable.sol\":2244:2272  _transferOwnership(newOwner) */\n      tag_163\n        /* \"@openzeppelin/contracts/access/Ownable.sol\":2263:2271  newOwner */\n      dup2\n        /* \"@openzeppelin/contracts/access/Ownable.sol\":2244:2262  _transferOwnership */\n      tag_147\n        /* \"@openzeppelin/contracts/access/Ownable.sol\":2244:2272  _transferOwnership(newOwner) */\n      jump\t// in\n    tag_163:\n        /* \"@openzeppelin/contracts/access/Ownable.sol\":2081:2279  function transferOwnership(address newOwner) public virtual onlyOwner {... */\n      pop\n      jump\t// out\n        /* \"@openzeppelin/contracts/access/Ownable.sol\":1359:1489  function _checkOwner() internal view virtual {... */\n    tag_80:\n        /* \"@openzeppelin/contracts/access/Ownable.sol\":1433:1445  _msgSender() */\n      tag_165\n        /* \"@openzeppelin/contracts/access/Ownable.sol\":1433:1443  _msgSender */\n      tag_166\n        /* \"@openzeppelin/contracts/access/Ownable.sol\":1433:1445  _msgSender() */\n      jump\t// in\n    tag_165:\n        /* \"@openzeppelin/contracts/access/Ownable.sol\":1422:1445  owner() == _msgSender() */\n      0xffffffffffffffffffffffffffffffffffffffff\n      and\n        /* \"@openzeppelin/contracts/access/Ownable.sol\":1422:1429  owner() */\n      tag_167\n        /* \"@openzeppelin/contracts/access/Ownable.sol\":1422:1427  owner */\n      tag_58\n        /* \"@openzeppelin/contracts/access/Ownable.sol\":1422:1429  owner() */\n      jump\t// in\n    tag_167:\n        /* \"@openzeppelin/contracts/access/Ownable.sol\":1422:1445  owner() == _msgSender() */\n      0xffffffffffffffffffffffffffffffffffffffff\n      and\n      eq\n        /* \"@openzeppelin/contracts/access/Ownable.sol\":1414:1482  require(owner() == _msgSender(), \"Ownable: caller is not the owner\") */\n      tag_168\n      jumpi\n      mload(0x40)\n      0x08c379a000000000000000000000000000000000000000000000000000000000\n      dup2\n      mstore\n      0x04\n      add\n      tag_169\n      swap1\n      tag_170\n      jump\t// in\n    tag_169:\n      mload(0x40)\n      dup1\n      swap2\n      sub\n      swap1\n      revert\n    tag_168:\n        /* \"@openzeppelin/contracts/access/Ownable.sol\":1359:1489  function _checkOwner() internal view virtual {... */\n      jump\t// out\n        /* \"@openzeppelin/contracts/security/ReentrancyGuard.sol\":2336:2623  function _nonReentrantBefore() private {... */\n    tag_83:\n        /* \"@openzeppelin/contracts/security/ReentrancyGuard.sol\":1759:1760  2 */\n      0x02\n        /* \"@openzeppelin/contracts/security/ReentrancyGuard.sol\":2468:2475  _status */\n      sload(0x01)\n        /* \"@openzeppelin/contracts/security/ReentrancyGuard.sol\":2468:2487  _status != _ENTERED */\n      sub\n        /* \"@openzeppelin/contracts/security/ReentrancyGuard.sol\":2460:2523  require(_status != _ENTERED, \"ReentrancyGuard: reentrant call\") */\n      tag_172\n      jumpi\n      mload(0x40)\n      0x08c379a000000000000000000000000000000000000000000000000000000000\n      dup2\n      mstore\n      0x04\n      add\n      tag_173\n      swap1\n      tag_174\n      jump\t// in\n    tag_173:\n      mload(0x40)\n      dup1\n      swap2\n      sub\n      swap1\n      revert\n    tag_172:\n        /* \"@openzeppelin/contracts/security/ReentrancyGuard.sol\":1759:1760  2 */\n      0x02\n        /* \"@openzeppelin/contracts/security/ReentrancyGuard.sol\":2598:2605  _status */\n      0x01\n        /* \"@openzeppelin/contracts/security/ReentrancyGuard.sol\":2598:2616  _status = _ENTERED */\n      dup2\n      swap1\n      sstore\n      pop\n        /* \"@openzeppelin/contracts/security/ReentrancyGuard.sol\":2336:2623  function _nonReentrantBefore() private {... */\n      jump\t// out\n        /* \"solidity/contracts/BridgewhenCheap.sol\":6634:6792  function isDefined(BridgeRequest memory request)... */\n    tag_86:\n        /* \"solidity/contracts/BridgewhenCheap.sol\":6730:6734  bool */\n      0x00\n        /* \"solidity/contracts/BridgewhenCheap.sol\":6783:6784  0 */\n      dup1\n        /* \"solidity/contracts/BridgewhenCheap.sol\":6757:6785  request.source != address(0) */\n      0xffffffffffffffffffffffffffffffffffffffff\n      and\n        /* \"solidity/contracts/BridgewhenCheap.sol\":6757:6764  request */\n      dup3\n        /* \"solidity/contracts/BridgewhenCheap.sol\":6757:6771  request.source */\n      0x00\n      add\n      mload\n        /* \"solidity/contracts/BridgewhenCheap.sol\":6757:6785  request.source != address(0) */\n      0xffffffffffffffffffffffffffffffffffffffff\n      and\n      eq\n      iszero\n        /* \"solidity/contracts/BridgewhenCheap.sol\":6750:6785  return request.source != address(0) */\n      swap1\n      pop\n        /* \"solidity/contracts/BridgewhenCheap.sol\":6634:6792  function isDefined(BridgeRequest memory request)... */\n      swap2\n      swap1\n      pop\n      jump\t// out\n        /* \"@openzeppelin/contracts/security/ReentrancyGuard.sol\":2629:2838  function _nonReentrantAfter() private {... */\n    tag_103:\n        /* \"@openzeppelin/contracts/security/ReentrancyGuard.sol\":1716:1717  1 */\n      0x01\n        /* \"@openzeppelin/contracts/security/ReentrancyGuard.sol\":2809:2816  _status */\n      dup1\n        /* \"@openzeppelin/contracts/security/ReentrancyGuard.sol\":2809:2831  _status = _NOT_ENTERED */\n      dup2\n      swap1\n      sstore\n      pop\n        /* \"@openzeppelin/contracts/security/ReentrancyGuard.sol\":2629:2838  function _nonReentrantAfter() private {... */\n      jump\t// out\n        /* \"@openzeppelin/contracts/access/Ownable.sol\":2433:2620  function _transferOwnership(address newOwner) internal virtual {... */\n    tag_147:\n        /* \"@openzeppelin/contracts/access/Ownable.sol\":2506:2522  address oldOwner */\n      0x00\n        /* \"@openzeppelin/contracts/access/Ownable.sol\":2525:2531  _owner */\n      dup1\n      0x00\n      swap1\n      sload\n      swap1\n      0x0100\n      exp\n      swap1\n      div\n      0xffffffffffffffffffffffffffffffffffffffff\n      and\n        /* \"@openzeppelin/contracts/access/Ownable.sol\":2506:2531  address oldOwner = _owner */\n      swap1\n      pop\n        /* \"@openzeppelin/contracts/access/Ownable.sol\":2550:2558  newOwner */\n      dup2\n        /* \"@openzeppelin/contracts/access/Ownable.sol\":2541:2547  _owner */\n      0x00\n      dup1\n        /* \"@openzeppelin/contracts/access/Ownable.sol\":2541:2558  _owner = newOwner */\n      0x0100\n      exp\n      dup2\n      sload\n      dup2\n      0xffffffffffffffffffffffffffffffffffffffff\n      mul\n      not\n      and\n      swap1\n      dup4\n      0xffffffffffffffffffffffffffffffffffffffff\n      and\n      mul\n      or\n      swap1\n      sstore\n      pop\n        /* \"@openzeppelin/contracts/access/Ownable.sol\":2604:2612  newOwner */\n      dup2\n        /* \"@openzeppelin/contracts/access/Ownable.sol\":2573:2613  OwnershipTransferred(oldOwner, newOwner) */\n      0xffffffffffffffffffffffffffffffffffffffff\n      and\n        /* \"@openzeppelin/contracts/access/Ownable.sol\":2594:2602  oldOwner */\n      dup2\n        /* \"@openzeppelin/contracts/access/Ownable.sol\":2573:2613  OwnershipTransferred(oldOwner, newOwner) */\n      0xffffffffffffffffffffffffffffffffffffffff\n      and\n      0x8be0079c531659141344cd1fd0a4f28419497f9722a3daafe3b4186f6b6457e0\n      mload(0x40)\n      mload(0x40)\n      dup1\n      swap2\n      sub\n      swap1\n      log3\n        /* \"@openzeppelin/contracts/access/Ownable.sol\":2496:2620  {... */\n      pop\n        /* \"@openzeppelin/contracts/access/Ownable.sol\":2433:2620  function _transferOwnership(address newOwner) internal virtual {... */\n      pop\n      jump\t// out\n        /* \"@openzeppelin/contracts/utils/Context.sol\":640:736  function _msgSender() internal view virtual returns (address) {... */\n    tag_166:\n        /* \"@openzeppelin/contracts/utils/Context.sol\":693:700  address */\n      0x00\n        /* \"@openzeppelin/contracts/utils/Context.sol\":719:729  msg.sender */\n      caller\n        /* \"@openzeppelin/contracts/utils/Context.sol\":712:729  return msg.sender */\n      swap1\n      pop\n        /* \"@openzeppelin/contracts/utils/Context.sol\":640:736  function _msgSender() internal view virtual returns (address) {... */\n      swap1\n      jump\t// out\n        /* \"#utility.yul\":88:205   */\n    tag_180:\n        /* \"#utility.yul\":197:198   */\n      0x00\n        /* \"#utility.yul\":194:195   */\n      dup1\n        /* \"#utility.yul\":187:199   */\n      revert\n        /* \"#utility.yul\":334:460   */\n    tag_182:\n        /* \"#utility.yul\":371:378   */\n      0x00\n        /* \"#utility.yul\":411:453   */\n      0xffffffffffffffffffffffffffffffffffffffff\n        /* \"#utility.yul\":404:409   */\n      dup3\n        /* \"#utility.yul\":400:454   */\n      and\n        /* \"#utility.yul\":389:454   */\n      swap1\n      pop\n        /* \"#utility.yul\":334:460   */\n      swap2\n      swap1\n      pop\n      jump\t// out\n        /* \"#utility.yul\":466:562   */\n    tag_183:\n        /* \"#utility.yul\":503:510   */\n      0x00\n        /* \"#utility.yul\":532:556   */\n      tag_227\n        /* \"#utility.yul\":550:555   */\n      dup3\n        /* \"#utility.yul\":532:556   */\n      tag_182\n      jump\t// in\n    tag_227:\n        /* \"#utility.yul\":521:556   */\n      swap1\n      pop\n        /* \"#utility.yul\":466:562   */\n      swap2\n      swap1\n      pop\n      jump\t// out\n        /* \"#utility.yul\":568:690   */\n    tag_184:\n        /* \"#utility.yul\":641:665   */\n      tag_229\n        /* \"#utility.yul\":659:664   */\n      dup2\n        /* \"#utility.yul\":641:665   */\n      tag_183\n      jump\t// in\n    tag_229:\n        /* \"#utility.yul\":634:639   */\n      dup2\n        /* \"#utility.yul\":631:666   */\n      eq\n        /* \"#utility.yul\":621:684   */\n      tag_230\n      jumpi\n        /* \"#utility.yul\":680:681   */\n      0x00\n        /* \"#utility.yul\":677:678   */\n      dup1\n        /* \"#utility.yul\":670:682   */\n      revert\n        /* \"#utility.yul\":621:684   */\n    tag_230:\n        /* \"#utility.yul\":568:690   */\n      pop\n      jump\t// out\n        /* \"#utility.yul\":696:835   */\n    tag_185:\n        /* \"#utility.yul\":742:747   */\n      0x00\n        /* \"#utility.yul\":780:786   */\n      dup2\n        /* \"#utility.yul\":767:787   */\n      calldataload\n        /* \"#utility.yul\":758:787   */\n      swap1\n      pop\n        /* \"#utility.yul\":796:829   */\n      tag_232\n        /* \"#utility.yul\":823:828   */\n      dup2\n        /* \"#utility.yul\":796:829   */\n      tag_184\n      jump\t// in\n    tag_232:\n        /* \"#utility.yul\":696:835   */\n      swap3\n      swap2\n      pop\n      pop\n      jump\t// out\n        /* \"#utility.yul\":841:918   */\n    tag_186:\n        /* \"#utility.yul\":878:885   */\n      0x00\n        /* \"#utility.yul\":907:912   */\n      dup2\n        /* \"#utility.yul\":896:912   */\n      swap1\n      pop\n        /* \"#utility.yul\":841:918   */\n      swap2\n      swap1\n      pop\n      jump\t// out\n        /* \"#utility.yul\":924:1046   */\n    tag_187:\n        /* \"#utility.yul\":997:1021   */\n      tag_235\n        /* \"#utility.yul\":1015:1020   */\n      dup2\n        /* \"#utility.yul\":997:1021   */\n      tag_186\n      jump\t// in\n    tag_235:\n        /* \"#utility.yul\":990:995   */\n      dup2\n        /* \"#utility.yul\":987:1022   */\n      eq\n        /* \"#utility.yul\":977:1040   */\n      tag_236\n      jumpi\n        /* \"#utility.yul\":1036:1037   */\n      0x00\n        /* \"#utility.yul\":1033:1034   */\n      dup1\n        /* \"#utility.yul\":1026:1038   */\n      revert\n        /* \"#utility.yul\":977:1040   */\n    tag_236:\n        /* \"#utility.yul\":924:1046   */\n      pop\n      jump\t// out\n        /* \"#utility.yul\":1052:1191   */\n    tag_188:\n        /* \"#utility.yul\":1098:1103   */\n      0x00\n        /* \"#utility.yul\":1136:1142   */\n      dup2\n        /* \"#utility.yul\":1123:1143   */\n      calldataload\n        /* \"#utility.yul\":1114:1143   */\n      swap1\n      pop\n        /* \"#utility.yul\":1152:1185   */\n      tag_238\n        /* \"#utility.yul\":1179:1184   */\n      dup2\n        /* \"#utility.yul\":1152:1185   */\n      tag_187\n      jump\t// in\n    tag_238:\n        /* \"#utility.yul\":1052:1191   */\n      swap3\n      swap2\n      pop\n      pop\n      jump\t// out\n        /* \"#utility.yul\":1197:2254   */\n    tag_22:\n        /* \"#utility.yul\":1301:1307   */\n      0x00\n        /* \"#utility.yul\":1309:1315   */\n      dup1\n        /* \"#utility.yul\":1317:1323   */\n      0x00\n        /* \"#utility.yul\":1325:1331   */\n      dup1\n        /* \"#utility.yul\":1333:1339   */\n      0x00\n        /* \"#utility.yul\":1341:1347   */\n      dup1\n        /* \"#utility.yul\":1390:1393   */\n      0xc0\n        /* \"#utility.yul\":1378:1387   */\n      dup8\n        /* \"#utility.yul\":1369:1376   */\n      dup10\n        /* \"#utility.yul\":1365:1388   */\n      sub\n        /* \"#utility.yul\":1361:1394   */\n      slt\n        /* \"#utility.yul\":1358:1478   */\n      iszero\n      tag_240\n      jumpi\n        /* \"#utility.yul\":1397:1476   */\n      tag_241\n      tag_180\n      jump\t// in\n    tag_241:\n        /* \"#utility.yul\":1358:1478   */\n    tag_240:\n        /* \"#utility.yul\":1517:1518   */\n      0x00\n        /* \"#utility.yul\":1542:1595   */\n      tag_242\n        /* \"#utility.yul\":1587:1594   */\n      dup10\n        /* \"#utility.yul\":1578:1584   */\n      dup3\n        /* \"#utility.yul\":1567:1576   */\n      dup11\n        /* \"#utility.yul\":1563:1585   */\n      add\n        /* \"#utility.yul\":1542:1595   */\n      tag_185\n      jump\t// in\n    tag_242:\n        /* \"#utility.yul\":1532:1595   */\n      swap7\n      pop\n        /* \"#utility.yul\":1488:1605   */\n      pop\n        /* \"#utility.yul\":1644:1646   */\n      0x20\n        /* \"#utility.yul\":1670:1723   */\n      tag_243\n        /* \"#utility.yul\":1715:1722   */\n      dup10\n        /* \"#utility.yul\":1706:1712   */\n      dup3\n        /* \"#utility.yul\":1695:1704   */\n      dup11\n        /* \"#utility.yul\":1691:1713   */\n      add\n        /* \"#utility.yul\":1670:1723   */\n      tag_188\n      jump\t// in\n    tag_243:\n        /* \"#utility.yul\":1660:1723   */\n      swap6\n      pop\n        /* \"#utility.yul\":1615:1733   */\n      pop\n        /* \"#utility.yul\":1772:1774   */\n      0x40\n        /* \"#utility.yul\":1798:1851   */\n      tag_244\n        /* \"#utility.yul\":1843:1850   */\n      dup10\n        /* \"#utility.yul\":1834:1840   */\n      dup3\n        /* \"#utility.yul\":1823:1832   */\n      dup11\n        /* \"#utility.yul\":1819:1841   */\n      add\n        /* \"#utility.yul\":1798:1851   */\n      tag_188\n      jump\t// in\n    tag_244:\n        /* \"#utility.yul\":1788:1851   */\n      swap5\n      pop\n        /* \"#utility.yul\":1743:1861   */\n      pop\n        /* \"#utility.yul\":1900:1902   */\n      0x60\n        /* \"#utility.yul\":1926:1979   */\n      tag_245\n        /* \"#utility.yul\":1971:1978   */\n      dup10\n        /* \"#utility.yul\":1962:1968   */\n      dup3\n        /* \"#utility.yul\":1951:1960   */\n      dup11\n        /* \"#utility.yul\":1947:1969   */\n      add\n        /* \"#utility.yul\":1926:1979   */\n      tag_188\n      jump\t// in\n    tag_245:\n        /* \"#utility.yul\":1916:1979   */\n      swap4\n      pop\n        /* \"#utility.yul\":1871:1989   */\n      pop\n        /* \"#utility.yul\":2028:2031   */\n      0x80\n        /* \"#utility.yul\":2055:2108   */\n      tag_246\n        /* \"#utility.yul\":2100:2107   */\n      dup10\n        /* \"#utility.yul\":2091:2097   */\n      dup3\n        /* \"#utility.yul\":2080:2089   */\n      dup11\n        /* \"#utility.yul\":2076:2098   */\n      add\n        /* \"#utility.yul\":2055:2108   */\n      tag_188\n      jump\t// in\n    tag_246:\n        /* \"#utility.yul\":2045:2108   */\n      swap3\n      pop\n        /* \"#utility.yul\":1999:2118   */\n      pop\n        /* \"#utility.yul\":2157:2160   */\n      0xa0\n        /* \"#utility.yul\":2184:2237   */\n      tag_247\n        /* \"#utility.yul\":2229:2236   */\n      dup10\n        /* \"#utility.yul\":2220:2226   */\n      dup3\n        /* \"#utility.yul\":2209:2218   */\n      dup11\n        /* \"#utility.yul\":2205:2227   */\n      add\n        /* \"#utility.yul\":2184:2237   */\n      tag_188\n      jump\t// in\n    tag_247:\n        /* \"#utility.yul\":2174:2237   */\n      swap2\n      pop\n        /* \"#utility.yul\":2128:2247   */\n      pop\n        /* \"#utility.yul\":1197:2254   */\n      swap3\n      swap6\n      pop\n      swap3\n      swap6\n      pop\n      swap3\n      swap6\n      jump\t// out\n        /* \"#utility.yul\":2260:2879   */\n    tag_26:\n        /* \"#utility.yul\":2337:2343   */\n      0x00\n        /* \"#utility.yul\":2345:2351   */\n      dup1\n        /* \"#utility.yul\":2353:2359   */\n      0x00\n        /* \"#utility.yul\":2402:2404   */\n      0x60\n        /* \"#utility.yul\":2390:2399   */\n      dup5\n        /* \"#utility.yul\":2381:2388   */\n      dup7\n        /* \"#utility.yul\":2377:2400   */\n      sub\n        /* \"#utility.yul\":2373:2405   */\n      slt\n        /* \"#utility.yul\":2370:2489   */\n      iszero\n      tag_249\n      jumpi\n        /* \"#utility.yul\":2408:2487   */\n      tag_250\n      tag_180\n      jump\t// in\n    tag_250:\n        /* \"#utility.yul\":2370:2489   */\n    tag_249:\n        /* \"#utility.yul\":2528:2529   */\n      0x00\n        /* \"#utility.yul\":2553:2606   */\n      tag_251\n        /* \"#utility.yul\":2598:2605   */\n      dup7\n        /* \"#utility.yul\":2589:2595   */\n      dup3\n        /* \"#utility.yul\":2578:2587   */\n      dup8\n        /* \"#utility.yul\":2574:2596   */\n      add\n        /* \"#utility.yul\":2553:2606   */\n      tag_185\n      jump\t// in\n    tag_251:\n        /* \"#utility.yul\":2543:2606   */\n      swap4\n      pop\n        /* \"#utility.yul\":2499:2616   */\n      pop\n        /* \"#utility.yul\":2655:2657   */\n      0x20\n        /* \"#utility.yul\":2681:2734   */\n      tag_252\n        /* \"#utility.yul\":2726:2733   */\n      dup7\n        /* \"#utility.yul\":2717:2723   */\n      dup3\n        /* \"#utility.yul\":2706:2715   */\n      dup8\n        /* \"#utility.yul\":2702:2724   */\n      add\n        /* \"#utility.yul\":2681:2734   */\n      tag_188\n      jump\t// in\n    tag_252:\n        /* \"#utility.yul\":2671:2734   */\n      swap3\n      pop\n        /* \"#utility.yul\":2626:2744   */\n      pop\n        /* \"#utility.yul\":2783:2785   */\n      0x40\n        /* \"#utility.yul\":2809:2862   */\n      tag_253\n        /* \"#utility.yul\":2854:2861   */\n      dup7\n        /* \"#utility.yul\":2845:2851   */\n      dup3\n        /* \"#utility.yul\":2834:2843   */\n      dup8\n        /* \"#utility.yul\":2830:2852   */\n      add\n        /* \"#utility.yul\":2809:2862   */\n      tag_188\n      jump\t// in\n    tag_253:\n        /* \"#utility.yul\":2799:2862   */\n      swap2\n      pop\n        /* \"#utility.yul\":2754:2872   */\n      pop\n        /* \"#utility.yul\":2260:2879   */\n      swap3\n      pop\n      swap3\n      pop\n      swap3\n      jump\t// out\n        /* \"#utility.yul\":2885:3003   */\n    tag_189:\n        /* \"#utility.yul\":2972:2996   */\n      tag_255\n        /* \"#utility.yul\":2990:2995   */\n      dup2\n        /* \"#utility.yul\":2972:2996   */\n      tag_183\n      jump\t// in\n    tag_255:\n        /* \"#utility.yul\":2967:2970   */\n      dup3\n        /* \"#utility.yul\":2960:2997   */\n      mstore\n        /* \"#utility.yul\":2885:3003   */\n      pop\n      pop\n      jump\t// out\n        /* \"#utility.yul\":3009:3231   */\n    tag_32:\n        /* \"#utility.yul\":3102:3106   */\n      0x00\n        /* \"#utility.yul\":3140:3142   */\n      0x20\n        /* \"#utility.yul\":3129:3138   */\n      dup3\n        /* \"#utility.yul\":3125:3143   */\n      add\n        /* \"#utility.yul\":3117:3143   */\n      swap1\n      pop\n        /* \"#utility.yul\":3153:3224   */\n      tag_257\n        /* \"#utility.yul\":3221:3222   */\n      0x00\n        /* \"#utility.yul\":3210:3219   */\n      dup4\n        /* \"#utility.yul\":3206:3223   */\n      add\n        /* \"#utility.yul\":3197:3203   */\n      dup5\n        /* \"#utility.yul\":3153:3224   */\n      tag_189\n      jump\t// in\n    tag_257:\n        /* \"#utility.yul\":3009:3231   */\n      swap3\n      swap2\n      pop\n      pop\n      jump\t// out\n        /* \"#utility.yul\":3237:3566   */\n    tag_39:\n        /* \"#utility.yul\":3296:3302   */\n      0x00\n        /* \"#utility.yul\":3345:3347   */\n      0x20\n        /* \"#utility.yul\":3333:3342   */\n      dup3\n        /* \"#utility.yul\":3324:3331   */\n      dup5\n        /* \"#utility.yul\":3320:3343   */\n      sub\n        /* \"#utility.yul\":3316:3348   */\n      slt\n        /* \"#utility.yul\":3313:3432   */\n      iszero\n      tag_259\n      jumpi\n        /* \"#utility.yul\":3351:3430   */\n      tag_260\n      tag_180\n      jump\t// in\n    tag_260:\n        /* \"#utility.yul\":3313:3432   */\n    tag_259:\n        /* \"#utility.yul\":3471:3472   */\n      0x00\n        /* \"#utility.yul\":3496:3549   */\n      tag_261\n        /* \"#utility.yul\":3541:3548   */\n      dup5\n        /* \"#utility.yul\":3532:3538   */\n      dup3\n        /* \"#utility.yul\":3521:3530   */\n      dup6\n        /* \"#utility.yul\":3517:3539   */\n      add\n        /* \"#utility.yul\":3496:3549   */\n      tag_188\n      jump\t// in\n    tag_261:\n        /* \"#utility.yul\":3486:3549   */\n      swap2\n      pop\n        /* \"#utility.yul\":3442:3559   */\n      pop\n        /* \"#utility.yul\":3237:3566   */\n      swap3\n      swap2\n      pop\n      pop\n      jump\t// out\n        /* \"#utility.yul\":3572:3901   */\n    tag_47:\n        /* \"#utility.yul\":3631:3637   */\n      0x00\n        /* \"#utility.yul\":3680:3682   */\n      0x20\n        /* \"#utility.yul\":3668:3677   */\n      dup3\n        /* \"#utility.yul\":3659:3666   */\n      dup5\n        /* \"#utility.yul\":3655:3678   */\n      sub\n        /* \"#utility.yul\":3651:3683   */\n      slt\n        /* \"#utility.yul\":3648:3767   */\n      iszero\n      tag_263\n      jumpi\n        /* \"#utility.yul\":3686:3765   */\n      tag_264\n      tag_180\n      jump\t// in\n    tag_264:\n        /* \"#utility.yul\":3648:3767   */\n    tag_263:\n        /* \"#utility.yul\":3806:3807   */\n      0x00\n        /* \"#utility.yul\":3831:3884   */\n      tag_265\n        /* \"#utility.yul\":3876:3883   */\n      dup5\n        /* \"#utility.yul\":3867:3873   */\n      dup3\n        /* \"#utility.yul\":3856:3865   */\n      dup6\n        /* \"#utility.yul\":3852:3874   */\n      add\n        /* \"#utility.yul\":3831:3884   */\n      tag_185\n      jump\t// in\n    tag_265:\n        /* \"#utility.yul\":3821:3884   */\n      swap2\n      pop\n        /* \"#utility.yul\":3777:3894   */\n      pop\n        /* \"#utility.yul\":3572:3901   */\n      swap3\n      swap2\n      pop\n      pop\n      jump\t// out\n        /* \"#utility.yul\":3907:4025   */\n    tag_190:\n        /* \"#utility.yul\":3994:4018   */\n      tag_267\n        /* \"#utility.yul\":4012:4017   */\n      dup2\n        /* \"#utility.yul\":3994:4018   */\n      tag_186\n      jump\t// in\n    tag_267:\n        /* \"#utility.yul\":3989:3992   */\n      dup3\n        /* \"#utility.yul\":3982:4019   */\n      mstore\n        /* \"#utility.yul\":3907:4025   */\n      pop\n      pop\n      jump\t// out\n        /* \"#utility.yul\":4031:4695   */\n    tag_50:\n        /* \"#utility.yul\":4236:4240   */\n      0x00\n        /* \"#utility.yul\":4274:4277   */\n      0xa0\n        /* \"#utility.yul\":4263:4272   */\n      dup3\n        /* \"#utility.yul\":4259:4278   */\n      add\n        /* \"#utility.yul\":4251:4278   */\n      swap1\n      pop\n        /* \"#utility.yul\":4288:4359   */\n      tag_269\n        /* \"#utility.yul\":4356:4357   */\n      0x00\n        /* \"#utility.yul\":4345:4354   */\n      dup4\n        /* \"#utility.yul\":4341:4358   */\n      add\n        /* \"#utility.yul\":4332:4338   */\n      dup9\n        /* \"#utility.yul\":4288:4359   */\n      tag_189\n      jump\t// in\n    tag_269:\n        /* \"#utility.yul\":4369:4441   */\n      tag_270\n        /* \"#utility.yul\":4437:4439   */\n      0x20\n        /* \"#utility.yul\":4426:4435   */\n      dup4\n        /* \"#utility.yul\":4422:4440   */\n      add\n        /* \"#utility.yul\":4413:4419   */\n      dup8\n        /* \"#utility.yul\":4369:4441   */\n      tag_189\n      jump\t// in\n    tag_270:\n        /* \"#utility.yul\":4451:4523   */\n      tag_271\n        /* \"#utility.yul\":4519:4521   */\n      0x40\n        /* \"#utility.yul\":4508:4517   */\n      dup4\n        /* \"#utility.yul\":4504:4522   */\n      add\n        /* \"#utility.yul\":4495:4501   */\n      dup7\n        /* \"#utility.yul\":4451:4523   */\n      tag_190\n      jump\t// in\n    tag_271:\n        /* \"#utility.yul\":4533:4605   */\n      tag_272\n        /* \"#utility.yul\":4601:4603   */\n      0x60\n        /* \"#utility.yul\":4590:4599   */\n      dup4\n        /* \"#utility.yul\":4586:4604   */\n      add\n        /* \"#utility.yul\":4577:4583   */\n      dup6\n        /* \"#utility.yul\":4533:4605   */\n      tag_190\n      jump\t// in\n    tag_272:\n        /* \"#utility.yul\":4615:4688   */\n      tag_273\n        /* \"#utility.yul\":4683:4686   */\n      0x80\n        /* \"#utility.yul\":4672:4681   */\n      dup4\n        /* \"#utility.yul\":4668:4687   */\n      add\n        /* \"#utility.yul\":4659:4665   */\n      dup5\n        /* \"#utility.yul\":4615:4688   */\n      tag_190\n      jump\t// in\n    tag_273:\n        /* \"#utility.yul\":4031:4695   */\n      swap7\n      swap6\n      pop\n      pop\n      pop\n      pop\n      pop\n      pop\n      jump\t// out\n        /* \"#utility.yul\":4701:4923   */\n    tag_55:\n        /* \"#utility.yul\":4794:4798   */\n      0x00\n        /* \"#utility.yul\":4832:4834   */\n      0x20\n        /* \"#utility.yul\":4821:4830   */\n      dup3\n        /* \"#utility.yul\":4817:4835   */\n      add\n        /* \"#utility.yul\":4809:4835   */\n      swap1\n      pop\n        /* \"#utility.yul\":4845:4916   */\n      tag_275\n        /* \"#utility.yul\":4913:4914   */\n      0x00\n        /* \"#utility.yul\":4902:4911   */\n      dup4\n        /* \"#utility.yul\":4898:4915   */\n      add\n        /* \"#utility.yul\":4889:4895   */\n      dup5\n        /* \"#utility.yul\":4845:4916   */\n      tag_190\n      jump\t// in\n    tag_275:\n        /* \"#utility.yul\":4701:4923   */\n      swap3\n      swap2\n      pop\n      pop\n      jump\t// out\n        /* \"#utility.yul\":4929:5098   */\n    tag_191:\n        /* \"#utility.yul\":5013:5024   */\n      0x00\n        /* \"#utility.yul\":5047:5053   */\n      dup3\n        /* \"#utility.yul\":5042:5045   */\n      dup3\n        /* \"#utility.yul\":5035:5054   */\n      mstore\n        /* \"#utility.yul\":5087:5091   */\n      0x20\n        /* \"#utility.yul\":5082:5085   */\n      dup3\n        /* \"#utility.yul\":5078:5092   */\n      add\n        /* \"#utility.yul\":5063:5092   */\n      swap1\n      pop\n        /* \"#utility.yul\":4929:5098   */\n      swap3\n      swap2\n      pop\n      pop\n      jump\t// out\n        /* \"#utility.yul\":5104:5275   */\n    tag_192:\n        /* \"#utility.yul\":5244:5267   */\n      0x4e6f207265717565737420746f2070726f636573730000000000000000000000\n        /* \"#utility.yul\":5240:5241   */\n      0x00\n        /* \"#utility.yul\":5232:5238   */\n      dup3\n        /* \"#utility.yul\":5228:5242   */\n      add\n        /* \"#utility.yul\":5221:5268   */\n      mstore\n        /* \"#utility.yul\":5104:5275   */\n      pop\n      jump\t// out\n        /* \"#utility.yul\":5281:5647   */\n    tag_193:\n        /* \"#utility.yul\":5423:5426   */\n      0x00\n        /* \"#utility.yul\":5444:5511   */\n      tag_279\n        /* \"#utility.yul\":5508:5510   */\n      0x15\n        /* \"#utility.yul\":5503:5506   */\n      dup4\n        /* \"#utility.yul\":5444:5511   */\n      tag_191\n      jump\t// in\n    tag_279:\n        /* \"#utility.yul\":5437:5511   */\n      swap2\n      pop\n        /* \"#utility.yul\":5520:5613   */\n      tag_280\n        /* \"#utility.yul\":5609:5612   */\n      dup3\n        /* \"#utility.yul\":5520:5613   */\n      tag_192\n      jump\t// in\n    tag_280:\n        /* \"#utility.yul\":5638:5640   */\n      0x20\n        /* \"#utility.yul\":5633:5636   */\n      dup3\n        /* \"#utility.yul\":5629:5641   */\n      add\n        /* \"#utility.yul\":5622:5641   */\n      swap1\n      pop\n        /* \"#utility.yul\":5281:5647   */\n      swap2\n      swap1\n      pop\n      jump\t// out\n        /* \"#utility.yul\":5653:6072   */\n    tag_89:\n        /* \"#utility.yul\":5819:5823   */\n      0x00\n        /* \"#utility.yul\":5857:5859   */\n      0x20\n        /* \"#utility.yul\":5846:5855   */\n      dup3\n        /* \"#utility.yul\":5842:5860   */\n      add\n        /* \"#utility.yul\":5834:5860   */\n      swap1\n      pop\n        /* \"#utility.yul\":5906:5915   */\n      dup2\n        /* \"#utility.yul\":5900:5904   */\n      dup2\n        /* \"#utility.yul\":5896:5916   */\n      sub\n        /* \"#utility.yul\":5892:5893   */\n      0x00\n        /* \"#utility.yul\":5881:5890   */\n      dup4\n        /* \"#utility.yul\":5877:5894   */\n      add\n        /* \"#utility.yul\":5870:5917   */\n      mstore\n        /* \"#utility.yul\":5934:6065   */\n      tag_282\n        /* \"#utility.yul\":6060:6064   */\n      dup2\n        /* \"#utility.yul\":5934:6065   */\n      tag_193\n      jump\t// in\n    tag_282:\n        /* \"#utility.yul\":5926:6065   */\n      swap1\n      pop\n        /* \"#utility.yul\":5653:6072   */\n      swap2\n      swap1\n      pop\n      jump\t// out\n        /* \"#utility.yul\":6078:6260   */\n    tag_194:\n        /* \"#utility.yul\":6218:6252   */\n      0x426f6e646572206665652063616e6e6f742065786365656420616d6f756e742e\n        /* \"#utility.yul\":6214:6215   */\n      0x00\n        /* \"#utility.yul\":6206:6212   */\n      dup3\n        /* \"#utility.yul\":6202:6216   */\n      add\n        /* \"#utility.yul\":6195:6253   */\n      mstore\n        /* \"#utility.yul\":6078:6260   */\n      pop\n      jump\t// out\n        /* \"#utility.yul\":6266:6632   */\n    tag_195:\n        /* \"#utility.yul\":6408:6411   */\n      0x00\n        /* \"#utility.yul\":6429:6496   */\n      tag_285\n        /* \"#utility.yul\":6493:6495   */\n      0x20\n        /* \"#utility.yul\":6488:6491   */\n      dup4\n        /* \"#utility.yul\":6429:6496   */\n      tag_191\n      jump\t// in\n    tag_285:\n        /* \"#utility.yul\":6422:6496   */\n      swap2\n      pop\n        /* \"#utility.yul\":6505:6598   */\n      tag_286\n        /* \"#utility.yul\":6594:6597   */\n      dup3\n        /* \"#utility.yul\":6505:6598   */\n      tag_194\n      jump\t// in\n    tag_286:\n        /* \"#utility.yul\":6623:6625   */\n      0x20\n        /* \"#utility.yul\":6618:6621   */\n      dup3\n        /* \"#utility.yul\":6614:6626   */\n      add\n        /* \"#utility.yul\":6607:6626   */\n      swap1\n      pop\n        /* \"#utility.yul\":6266:6632   */\n      swap2\n      swap1\n      pop\n      jump\t// out\n        /* \"#utility.yul\":6638:7057   */\n    tag_92:\n        /* \"#utility.yul\":6804:6808   */\n      0x00\n        /* \"#utility.yul\":6842:6844   */\n      0x20\n        /* \"#utility.yul\":6831:6840   */\n      dup3\n        /* \"#utility.yul\":6827:6845   */\n      add\n        /* \"#utility.yul\":6819:6845   */\n      swap1\n      pop\n        /* \"#utility.yul\":6891:6900   */\n      dup2\n        /* \"#utility.yul\":6885:6889   */\n      dup2\n        /* \"#utility.yul\":6881:6901   */\n      sub\n        /* \"#utility.yul\":6877:6878   */\n      0x00\n        /* \"#utility.yul\":6866:6875   */\n      dup4\n        /* \"#utility.yul\":6862:6879   */\n      add\n        /* \"#utility.yul\":6855:6902   */\n      mstore\n        /* \"#utility.yul\":6919:7050   */\n      tag_288\n        /* \"#utility.yul\":7045:7049   */\n      dup2\n        /* \"#utility.yul\":6919:7050   */\n      tag_195\n      jump\t// in\n    tag_288:\n        /* \"#utility.yul\":6911:7050   */\n      swap1\n      pop\n        /* \"#utility.yul\":6638:7057   */\n      swap2\n      swap1\n      pop\n      jump\t// out\n        /* \"#utility.yul\":7063:7238   */\n    tag_196:\n        /* \"#utility.yul\":7203:7230   */\n      0x4661696c656420746f20726566756e64206578656375746f7200000000000000\n        /* \"#utility.yul\":7199:7200   */\n      0x00\n        /* \"#utility.yul\":7191:7197   */\n      dup3\n        /* \"#utility.yul\":7187:7201   */\n      add\n        /* \"#utility.yul\":7180:7231   */\n      mstore\n        /* \"#utility.yul\":7063:7238   */\n      pop\n      jump\t// out\n        /* \"#utility.yul\":7244:7610   */\n    tag_197:\n        /* \"#utility.yul\":7386:7389   */\n      0x00\n        /* \"#utility.yul\":7407:7474   */\n      tag_291\n        /* \"#utility.yul\":7471:7473   */\n      0x19\n        /* \"#utility.yul\":7466:7469   */\n      dup4\n        /* \"#utility.yul\":7407:7474   */\n      tag_191\n      jump\t// in\n    tag_291:\n        /* \"#utility.yul\":7400:7474   */\n      swap2\n      pop\n        /* \"#utility.yul\":7483:7576   */\n      tag_292\n        /* \"#utility.yul\":7572:7575   */\n      dup3\n        /* \"#utility.yul\":7483:7576   */\n      tag_196\n      jump\t// in\n    tag_292:\n        /* \"#utility.yul\":7601:7603   */\n      0x20\n        /* \"#utility.yul\":7596:7599   */\n      dup3\n        /* \"#utility.yul\":7592:7604   */\n      add\n        /* \"#utility.yul\":7585:7604   */\n      swap1\n      pop\n        /* \"#utility.yul\":7244:7610   */\n      swap2\n      swap1\n      pop\n      jump\t// out\n        /* \"#utility.yul\":7616:8035   */\n    tag_96:\n        /* \"#utility.yul\":7782:7786   */\n      0x00\n        /* \"#utility.yul\":7820:7822   */\n      0x20\n        /* \"#utility.yul\":7809:7818   */\n      dup3\n        /* \"#utility.yul\":7805:7823   */\n      add\n        /* \"#utility.yul\":7797:7823   */\n      swap1\n      pop\n        /* \"#utility.yul\":7869:7878   */\n      dup2\n        /* \"#utility.yul\":7863:7867   */\n      dup2\n        /* \"#utility.yul\":7859:7879   */\n      sub\n        /* \"#utility.yul\":7855:7856   */\n      0x00\n        /* \"#utility.yul\":7844:7853   */\n      dup4\n        /* \"#utility.yul\":7840:7857   */\n      add\n        /* \"#utility.yul\":7833:7880   */\n      mstore\n        /* \"#utility.yul\":7897:8028   */\n      tag_294\n        /* \"#utility.yul\":8023:8027   */\n      dup2\n        /* \"#utility.yul\":7897:8028   */\n      tag_197\n      jump\t// in\n    tag_294:\n        /* \"#utility.yul\":7889:8028   */\n      swap1\n      pop\n        /* \"#utility.yul\":7616:8035   */\n      swap2\n      swap1\n      pop\n      jump\t// out\n        /* \"#utility.yul\":8041:9038   */\n    tag_98:\n        /* \"#utility.yul\":8330:8334   */\n      0x00\n        /* \"#utility.yul\":8368:8371   */\n      0x0100\n        /* \"#utility.yul\":8357:8366   */\n      dup3\n        /* \"#utility.yul\":8353:8372   */\n      add\n        /* \"#utility.yul\":8345:8372   */\n      swap1\n      pop\n        /* \"#utility.yul\":8382:8453   */\n      tag_296\n        /* \"#utility.yul\":8450:8451   */\n      0x00\n        /* \"#utility.yul\":8439:8448   */\n      dup4\n        /* \"#utility.yul\":8435:8452   */\n      add\n        /* \"#utility.yul\":8426:8432   */\n      dup12\n        /* \"#utility.yul\":8382:8453   */\n      tag_190\n      jump\t// in\n    tag_296:\n        /* \"#utility.yul\":8463:8535   */\n      tag_297\n        /* \"#utility.yul\":8531:8533   */\n      0x20\n        /* \"#utility.yul\":8520:8529   */\n      dup4\n        /* \"#utility.yul\":8516:8534   */\n      add\n        /* \"#utility.yul\":8507:8513   */\n      dup11\n        /* \"#utility.yul\":8463:8535   */\n      tag_189\n      jump\t// in\n    tag_297:\n        /* \"#utility.yul\":8545:8617   */\n      tag_298\n        /* \"#utility.yul\":8613:8615   */\n      0x40\n        /* \"#utility.yul\":8602:8611   */\n      dup4\n        /* \"#utility.yul\":8598:8616   */\n      add\n        /* \"#utility.yul\":8589:8595   */\n      dup10\n        /* \"#utility.yul\":8545:8617   */\n      tag_190\n      jump\t// in\n    tag_298:\n        /* \"#utility.yul\":8627:8699   */\n      tag_299\n        /* \"#utility.yul\":8695:8697   */\n      0x60\n        /* \"#utility.yul\":8684:8693   */\n      dup4\n        /* \"#utility.yul\":8680:8698   */\n      add\n        /* \"#utility.yul\":8671:8677   */\n      dup9\n        /* \"#utility.yul\":8627:8699   */\n      tag_190\n      jump\t// in\n    tag_299:\n        /* \"#utility.yul\":8709:8782   */\n      tag_300\n        /* \"#utility.yul\":8777:8780   */\n      0x80\n        /* \"#utility.yul\":8766:8775   */\n      dup4\n        /* \"#utility.yul\":8762:8781   */\n      add\n        /* \"#utility.yul\":8753:8759   */\n      dup8\n        /* \"#utility.yul\":8709:8782   */\n      tag_190\n      jump\t// in\n    tag_300:\n        /* \"#utility.yul\":8792:8865   */\n      tag_301\n        /* \"#utility.yul\":8860:8863   */\n      0xa0\n        /* \"#utility.yul\":8849:8858   */\n      dup4\n        /* \"#utility.yul\":8845:8864   */\n      add\n        /* \"#utility.yul\":8836:8842   */\n      dup7\n        /* \"#utility.yul\":8792:8865   */\n      tag_190\n      jump\t// in\n    tag_301:\n        /* \"#utility.yul\":8875:8948   */\n      tag_302\n        /* \"#utility.yul\":8943:8946   */\n      0xc0\n        /* \"#utility.yul\":8932:8941   */\n      dup4\n        /* \"#utility.yul\":8928:8947   */\n      add\n        /* \"#utility.yul\":8919:8925   */\n      dup6\n        /* \"#utility.yul\":8875:8948   */\n      tag_190\n      jump\t// in\n    tag_302:\n        /* \"#utility.yul\":8958:9031   */\n      tag_303\n        /* \"#utility.yul\":9026:9029   */\n      0xe0\n        /* \"#utility.yul\":9015:9024   */\n      dup4\n        /* \"#utility.yul\":9011:9030   */\n      add\n        /* \"#utility.yul\":9002:9008   */\n      dup5\n        /* \"#utility.yul\":8958:9031   */\n      tag_190\n      jump\t// in\n    tag_303:\n        /* \"#utility.yul\":8041:9038   */\n      swap10\n      swap9\n      pop\n      pop\n      pop\n      pop\n      pop\n      pop\n      pop\n      pop\n      pop\n      jump\t// out\n        /* \"#utility.yul\":9044:9221   */\n    tag_198:\n        /* \"#utility.yul\":9184:9213   */\n      0x53656e646572206d6179206e6f74206265203020616464726573730000000000\n        /* \"#utility.yul\":9180:9181   */\n      0x00\n        /* \"#utility.yul\":9172:9178   */\n      dup3\n        /* \"#utility.yul\":9168:9182   */\n      add\n        /* \"#utility.yul\":9161:9214   */\n      mstore\n        /* \"#utility.yul\":9044:9221   */\n      pop\n      jump\t// out\n        /* \"#utility.yul\":9227:9593   */\n    tag_199:\n        /* \"#utility.yul\":9369:9372   */\n      0x00\n        /* \"#utility.yul\":9390:9457   */\n      tag_306\n        /* \"#utility.yul\":9454:9456   */\n      0x1b\n        /* \"#utility.yul\":9449:9452   */\n      dup4\n        /* \"#utility.yul\":9390:9457   */\n      tag_191\n      jump\t// in\n    tag_306:\n        /* \"#utility.yul\":9383:9457   */\n      swap2\n      pop\n        /* \"#utility.yul\":9466:9559   */\n      tag_307\n        /* \"#utility.yul\":9555:9558   */\n      dup3\n        /* \"#utility.yul\":9466:9559   */\n      tag_198\n      jump\t// in\n    tag_307:\n        /* \"#utility.yul\":9584:9586   */\n      0x20\n        /* \"#utility.yul\":9579:9582   */\n      dup3\n        /* \"#utility.yul\":9575:9587   */\n      add\n        /* \"#utility.yul\":9568:9587   */\n      swap1\n      pop\n        /* \"#utility.yul\":9227:9593   */\n      swap2\n      swap1\n      pop\n      jump\t// out\n        /* \"#utility.yul\":9599:10018   */\n    tag_107:\n        /* \"#utility.yul\":9765:9769   */\n      0x00\n        /* \"#utility.yul\":9803:9805   */\n      0x20\n        /* \"#utility.yul\":9792:9801   */\n      dup3\n        /* \"#utility.yul\":9788:9806   */\n      add\n        /* \"#utility.yul\":9780:9806   */\n      swap1\n      pop\n        /* \"#utility.yul\":9852:9861   */\n      dup2\n        /* \"#utility.yul\":9846:9850   */\n      dup2\n        /* \"#utility.yul\":9842:9862   */\n      sub\n        /* \"#utility.yul\":9838:9839   */\n      0x00\n        /* \"#utility.yul\":9827:9836   */\n      dup4\n        /* \"#utility.yul\":9823:9840   */\n      add\n        /* \"#utility.yul\":9816:9863   */\n      mstore\n        /* \"#utility.yul\":9880:10011   */\n      tag_309\n        /* \"#utility.yul\":10006:10010   */\n      dup2\n        /* \"#utility.yul\":9880:10011   */\n      tag_199\n      jump\t// in\n    tag_309:\n        /* \"#utility.yul\":9872:10011   */\n      swap1\n      pop\n        /* \"#utility.yul\":9599:10018   */\n      swap2\n      swap1\n      pop\n      jump\t// out\n        /* \"#utility.yul\":10024:10251   */\n    tag_200:\n        /* \"#utility.yul\":10164:10198   */\n      0x44657374696e6174696f6e2061646472657373206d6179206e6f742062652030\n        /* \"#utility.yul\":10160:10161   */\n      0x00\n        /* \"#utility.yul\":10152:10158   */\n      dup3\n        /* \"#utility.yul\":10148:10162   */\n      add\n        /* \"#utility.yul\":10141:10199   */\n      mstore\n        /* \"#utility.yul\":10233:10243   */\n      0x2061646472657373000000000000000000000000000000000000000000000000\n        /* \"#utility.yul\":10228:10230   */\n      0x20\n        /* \"#utility.yul\":10220:10226   */\n      dup3\n        /* \"#utility.yul\":10216:10231   */\n      add\n        /* \"#utility.yul\":10209:10244   */\n      mstore\n        /* \"#utility.yul\":10024:10251   */\n      pop\n      jump\t// out\n        /* \"#utility.yul\":10257:10623   */\n    tag_201:\n        /* \"#utility.yul\":10399:10402   */\n      0x00\n        /* \"#utility.yul\":10420:10487   */\n      tag_312\n        /* \"#utility.yul\":10484:10486   */\n      0x28\n        /* \"#utility.yul\":10479:10482   */\n      dup4\n        /* \"#utility.yul\":10420:10487   */\n      tag_191\n      jump\t// in\n    tag_312:\n        /* \"#utility.yul\":10413:10487   */\n      swap2\n      pop\n        /* \"#utility.yul\":10496:10589   */\n      tag_313\n        /* \"#utility.yul\":10585:10588   */\n      dup3\n        /* \"#utility.yul\":10496:10589   */\n      tag_200\n      jump\t// in\n    tag_313:\n        /* \"#utility.yul\":10614:10616   */\n      0x40\n        /* \"#utility.yul\":10609:10612   */\n      dup3\n        /* \"#utility.yul\":10605:10617   */\n      add\n        /* \"#utility.yul\":10598:10617   */\n      swap1\n      pop\n        /* \"#utility.yul\":10257:10623   */\n      swap2\n      swap1\n      pop\n      jump\t// out\n        /* \"#utility.yul\":10629:11048   */\n    tag_110:\n        /* \"#utility.yul\":10795:10799   */\n      0x00\n        /* \"#utility.yul\":10833:10835   */\n      0x20\n        /* \"#utility.yul\":10822:10831   */\n      dup3\n        /* \"#utility.yul\":10818:10836   */\n      add\n        /* \"#utility.yul\":10810:10836   */\n      swap1\n      pop\n        /* \"#utility.yul\":10882:10891   */\n      dup2\n        /* \"#utility.yul\":10876:10880   */\n      dup2\n        /* \"#utility.yul\":10872:10892   */\n      sub\n        /* \"#utility.yul\":10868:10869   */\n      0x00\n        /* \"#utility.yul\":10857:10866   */\n      dup4\n        /* \"#utility.yul\":10853:10870   */\n      add\n        /* \"#utility.yul\":10846:10893   */\n      mstore\n        /* \"#utility.yul\":10910:11041   */\n      tag_315\n        /* \"#utility.yul\":11036:11040   */\n      dup2\n        /* \"#utility.yul\":10910:11041   */\n      tag_201\n      jump\t// in\n    tag_315:\n        /* \"#utility.yul\":10902:11041   */\n      swap1\n      pop\n        /* \"#utility.yul\":10629:11048   */\n      swap2\n      swap1\n      pop\n      jump\t// out\n        /* \"#utility.yul\":11054:11286   */\n    tag_202:\n        /* \"#utility.yul\":11194:11228   */\n      0x57616e746564204c3120676173207072696365206d7573742062652073747269\n        /* \"#utility.yul\":11190:11191   */\n      0x00\n        /* \"#utility.yul\":11182:11188   */\n      dup3\n        /* \"#utility.yul\":11178:11192   */\n      add\n        /* \"#utility.yul\":11171:11229   */\n      mstore\n        /* \"#utility.yul\":11263:11278   */\n      0x63746c7920706f73697469766500000000000000000000000000000000000000\n        /* \"#utility.yul\":11258:11260   */\n      0x20\n        /* \"#utility.yul\":11250:11256   */\n      dup3\n        /* \"#utility.yul\":11246:11261   */\n      add\n        /* \"#utility.yul\":11239:11279   */\n      mstore\n        /* \"#utility.yul\":11054:11286   */\n      pop\n      jump\t// out\n        /* \"#utility.yul\":11292:11658   */\n    tag_203:\n        /* \"#utility.yul\":11434:11437   */\n      0x00\n        /* \"#utility.yul\":11455:11522   */\n      tag_318\n        /* \"#utility.yul\":11519:11521   */\n      0x2d\n        /* \"#utility.yul\":11514:11517   */\n      dup4\n        /* \"#utility.yul\":11455:11522   */\n      tag_191\n      jump\t// in\n    tag_318:\n        /* \"#utility.yul\":11448:11522   */\n      swap2\n      pop\n        /* \"#utility.yul\":11531:11624   */\n      tag_319\n        /* \"#utility.yul\":11620:11623   */\n      dup3\n        /* \"#utility.yul\":11531:11624   */\n      tag_202\n      jump\t// in\n    tag_319:\n        /* \"#utility.yul\":11649:11651   */\n      0x40\n        /* \"#utility.yul\":11644:11647   */\n      dup3\n        /* \"#utility.yul\":11640:11652   */\n      add\n        /* \"#utility.yul\":11633:11652   */\n      swap1\n      pop\n        /* \"#utility.yul\":11292:11658   */\n      swap2\n      swap1\n      pop\n      jump\t// out\n        /* \"#utility.yul\":11664:12083   */\n    tag_113:\n        /* \"#utility.yul\":11830:11834   */\n      0x00\n        /* \"#utility.yul\":11868:11870   */\n      0x20\n        /* \"#utility.yul\":11857:11866   */\n      dup3\n        /* \"#utility.yul\":11853:11871   */\n      add\n        /* \"#utility.yul\":11845:11871   */\n      swap1\n      pop\n        /* \"#utility.yul\":11917:11926   */\n      dup2\n        /* \"#utility.yul\":11911:11915   */\n      dup2\n        /* \"#utility.yul\":11907:11927   */\n      sub\n        /* \"#utility.yul\":11903:11904   */\n      0x00\n        /* \"#utility.yul\":11892:11901   */\n      dup4\n        /* \"#utility.yul\":11888:11905   */\n      add\n        /* \"#utility.yul\":11881:11928   */\n      mstore\n        /* \"#utility.yul\":11945:12076   */\n      tag_321\n        /* \"#utility.yul\":12071:12075   */\n      dup2\n        /* \"#utility.yul\":11945:12076   */\n      tag_203\n      jump\t// in\n    tag_321:\n        /* \"#utility.yul\":11937:12076   */\n      swap1\n      pop\n        /* \"#utility.yul\":11664:12083   */\n      swap2\n      swap1\n      pop\n      jump\t// out\n        /* \"#utility.yul\":12089:12321   */\n    tag_204:\n        /* \"#utility.yul\":12229:12263   */\n      0x4e6f7420656e6f7567682066756e647320746f2070617920666f722064656c61\n        /* \"#utility.yul\":12225:12226   */\n      0x00\n        /* \"#utility.yul\":12217:12223   */\n      dup3\n        /* \"#utility.yul\":12213:12227   */\n      add\n        /* \"#utility.yul\":12206:12264   */\n      mstore\n        /* \"#utility.yul\":12298:12313   */\n      0x79656420657865637574696f6e00000000000000000000000000000000000000\n        /* \"#utility.yul\":12293:12295   */\n      0x20\n        /* \"#utility.yul\":12285:12291   */\n      dup3\n        /* \"#utility.yul\":12281:12296   */\n      add\n        /* \"#utility.yul\":12274:12314   */\n      mstore\n        /* \"#utility.yul\":12089:12321   */\n      pop\n      jump\t// out\n        /* \"#utility.yul\":12327:12693   */\n    tag_205:\n        /* \"#utility.yul\":12469:12472   */\n      0x00\n        /* \"#utility.yul\":12490:12557   */\n      tag_324\n        /* \"#utility.yul\":12554:12556   */\n      0x2d\n        /* \"#utility.yul\":12549:12552   */\n      dup4\n        /* \"#utility.yul\":12490:12557   */\n      tag_191\n      jump\t// in\n    tag_324:\n        /* \"#utility.yul\":12483:12557   */\n      swap2\n      pop\n        /* \"#utility.yul\":12566:12659   */\n      tag_325\n        /* \"#utility.yul\":12655:12658   */\n      dup3\n        /* \"#utility.yul\":12566:12659   */\n      tag_204\n      jump\t// in\n    tag_325:\n        /* \"#utility.yul\":12684:12686   */\n      0x40\n        /* \"#utility.yul\":12679:12682   */\n      dup3\n        /* \"#utility.yul\":12675:12687   */\n      add\n        /* \"#utility.yul\":12668:12687   */\n      swap1\n      pop\n        /* \"#utility.yul\":12327:12693   */\n      swap2\n      swap1\n      pop\n      jump\t// out\n        /* \"#utility.yul\":12699:13118   */\n    tag_116:\n        /* \"#utility.yul\":12865:12869   */\n      0x00\n        /* \"#utility.yul\":12903:12905   */\n      0x20\n        /* \"#utility.yul\":12892:12901   */\n      dup3\n        /* \"#utility.yul\":12888:12906   */\n      add\n        /* \"#utility.yul\":12880:12906   */\n      swap1\n      pop\n        /* \"#utility.yul\":12952:12961   */\n      dup2\n        /* \"#utility.yul\":12946:12950   */\n      dup2\n        /* \"#utility.yul\":12942:12962   */\n      sub\n        /* \"#utility.yul\":12938:12939   */\n      0x00\n        /* \"#utility.yul\":12927:12936   */\n      dup4\n        /* \"#utility.yul\":12923:12940   */\n      add\n        /* \"#utility.yul\":12916:12963   */\n      mstore\n        /* \"#utility.yul\":12980:13111   */\n      tag_327\n        /* \"#utility.yul\":13106:13110   */\n      dup2\n        /* \"#utility.yul\":12980:13111   */\n      tag_205\n      jump\t// in\n    tag_327:\n        /* \"#utility.yul\":12972:13111   */\n      swap1\n      pop\n        /* \"#utility.yul\":12699:13118   */\n      swap2\n      swap1\n      pop\n      jump\t// out\n        /* \"#utility.yul\":13124:13304   */\n    tag_206:\n        /* \"#utility.yul\":13172:13249   */\n      0x4e487b7100000000000000000000000000000000000000000000000000000000\n        /* \"#utility.yul\":13169:13170   */\n      0x00\n        /* \"#utility.yul\":13162:13250   */\n      mstore\n        /* \"#utility.yul\":13269:13273   */\n      0x11\n        /* \"#utility.yul\":13266:13267   */\n      0x04\n        /* \"#utility.yul\":13259:13274   */\n      mstore\n        /* \"#utility.yul\":13293:13297   */\n      0x24\n        /* \"#utility.yul\":13290:13291   */\n      0x00\n        /* \"#utility.yul\":13283:13298   */\n      revert\n        /* \"#utility.yul\":13310:13504   */\n    tag_118:\n        /* \"#utility.yul\":13350:13354   */\n      0x00\n        /* \"#utility.yul\":13370:13390   */\n      tag_330\n        /* \"#utility.yul\":13388:13389   */\n      dup3\n        /* \"#utility.yul\":13370:13390   */\n      tag_186\n      jump\t// in\n    tag_330:\n        /* \"#utility.yul\":13365:13390   */\n      swap2\n      pop\n        /* \"#utility.yul\":13404:13424   */\n      tag_331\n        /* \"#utility.yul\":13422:13423   */\n      dup4\n        /* \"#utility.yul\":13404:13424   */\n      tag_186\n      jump\t// in\n    tag_331:\n        /* \"#utility.yul\":13399:13424   */\n      swap3\n      pop\n        /* \"#utility.yul\":13448:13449   */\n      dup3\n        /* \"#utility.yul\":13445:13446   */\n      dup3\n        /* \"#utility.yul\":13441:13450   */\n      sub\n        /* \"#utility.yul\":13433:13450   */\n      swap1\n      pop\n        /* \"#utility.yul\":13472:13473   */\n      dup2\n        /* \"#utility.yul\":13466:13470   */\n      dup2\n        /* \"#utility.yul\":13463:13474   */\n      gt\n        /* \"#utility.yul\":13460:13497   */\n      iszero\n      tag_332\n      jumpi\n        /* \"#utility.yul\":13477:13495   */\n      tag_333\n      tag_206\n      jump\t// in\n    tag_333:\n        /* \"#utility.yul\":13460:13497   */\n    tag_332:\n        /* \"#utility.yul\":13310:13504   */\n      swap3\n      swap2\n      pop\n      pop\n      jump\t// out\n        /* \"#utility.yul\":13510:13829   */\n    tag_207:\n        /* \"#utility.yul\":13650:13684   */\n      0x43616c63756c617465642073656e7420616d6f756e74206d757374206265206c\n        /* \"#utility.yul\":13646:13647   */\n      0x00\n        /* \"#utility.yul\":13638:13644   */\n      dup3\n        /* \"#utility.yul\":13634:13648   */\n      add\n        /* \"#utility.yul\":13627:13685   */\n      mstore\n        /* \"#utility.yul\":13719:13753   */\n      0x6172676572207468616e20746865207265717569726564206d696e696d756d20\n        /* \"#utility.yul\":13714:13716   */\n      0x20\n        /* \"#utility.yul\":13706:13712   */\n      dup3\n        /* \"#utility.yul\":13702:13717   */\n      add\n        /* \"#utility.yul\":13695:13754   */\n      mstore\n        /* \"#utility.yul\":13788:13821   */\n      0x616d6f756e74206172726976696e672061742064657374696e6174696f6e2e00\n        /* \"#utility.yul\":13783:13785   */\n      0x40\n        /* \"#utility.yul\":13775:13781   */\n      dup3\n        /* \"#utility.yul\":13771:13786   */\n      add\n        /* \"#utility.yul\":13764:13822   */\n      mstore\n        /* \"#utility.yul\":13510:13829   */\n      pop\n      jump\t// out\n        /* \"#utility.yul\":13835:14201   */\n    tag_208:\n        /* \"#utility.yul\":13977:13980   */\n      0x00\n        /* \"#utility.yul\":13998:14065   */\n      tag_336\n        /* \"#utility.yul\":14062:14064   */\n      0x5f\n        /* \"#utility.yul\":14057:14060   */\n      dup4\n        /* \"#utility.yul\":13998:14065   */\n      tag_191\n      jump\t// in\n    tag_336:\n        /* \"#utility.yul\":13991:14065   */\n      swap2\n      pop\n        /* \"#utility.yul\":14074:14167   */\n      tag_337\n        /* \"#utility.yul\":14163:14166   */\n      dup3\n        /* \"#utility.yul\":14074:14167   */\n      tag_207\n      jump\t// in\n    tag_337:\n        /* \"#utility.yul\":14192:14194   */\n      0x60\n        /* \"#utility.yul\":14187:14190   */\n      dup3\n        /* \"#utility.yul\":14183:14195   */\n      add\n        /* \"#utility.yul\":14176:14195   */\n      swap1\n      pop\n        /* \"#utility.yul\":13835:14201   */\n      swap2\n      swap1\n      pop\n      jump\t// out\n        /* \"#utility.yul\":14207:14626   */\n    tag_121:\n        /* \"#utility.yul\":14373:14377   */\n      0x00\n        /* \"#utility.yul\":14411:14413   */\n      0x20\n        /* \"#utility.yul\":14400:14409   */\n      dup3\n        /* \"#utility.yul\":14396:14414   */\n      add\n        /* \"#utility.yul\":14388:14414   */\n      swap1\n      pop\n        /* \"#utility.yul\":14460:14469   */\n      dup2\n        /* \"#utility.yul\":14454:14458   */\n      dup2\n        /* \"#utility.yul\":14450:14470   */\n      sub\n        /* \"#utility.yul\":14446:14447   */\n      0x00\n        /* \"#utility.yul\":14435:14444   */\n      dup4\n        /* \"#utility.yul\":14431:14448   */\n      add\n        /* \"#utility.yul\":14424:14471   */\n      mstore\n        /* \"#utility.yul\":14488:14619   */\n      tag_339\n        /* \"#utility.yul\":14614:14618   */\n      dup2\n        /* \"#utility.yul\":14488:14619   */\n      tag_208\n      jump\t// in\n    tag_339:\n        /* \"#utility.yul\":14480:14619   */\n      swap1\n      pop\n        /* \"#utility.yul\":14207:14626   */\n      swap2\n      swap1\n      pop\n      jump\t// out\n        /* \"#utility.yul\":14632:14804   */\n    tag_209:\n        /* \"#utility.yul\":14772:14796   */\n      0x4e6f207265717565737420746f20776974686472617700000000000000000000\n        /* \"#utility.yul\":14768:14769   */\n      0x00\n        /* \"#utility.yul\":14760:14766   */\n      dup3\n        /* \"#utility.yul\":14756:14770   */\n      add\n        /* \"#utility.yul\":14749:14797   */\n      mstore\n        /* \"#utility.yul\":14632:14804   */\n      pop\n      jump\t// out\n        /* \"#utility.yul\":14810:15176   */\n    tag_210:\n        /* \"#utility.yul\":14952:14955   */\n      0x00\n        /* \"#utility.yul\":14973:15040   */\n      tag_342\n        /* \"#utility.yul\":15037:15039   */\n      0x16\n        /* \"#utility.yul\":15032:15035   */\n      dup4\n        /* \"#utility.yul\":14973:15040   */\n      tag_191\n      jump\t// in\n    tag_342:\n        /* \"#utility.yul\":14966:15040   */\n      swap2\n      pop\n        /* \"#utility.yul\":15049:15142   */\n      tag_343\n        /* \"#utility.yul\":15138:15141   */\n      dup3\n        /* \"#utility.yul\":15049:15142   */\n      tag_209\n      jump\t// in\n    tag_343:\n        /* \"#utility.yul\":15167:15169   */\n      0x20\n        /* \"#utility.yul\":15162:15165   */\n      dup3\n        /* \"#utility.yul\":15158:15170   */\n      add\n        /* \"#utility.yul\":15151:15170   */\n      swap1\n      pop\n        /* \"#utility.yul\":14810:15176   */\n      swap2\n      swap1\n      pop\n      jump\t// out\n        /* \"#utility.yul\":15182:15601   */\n    tag_128:\n        /* \"#utility.yul\":15348:15352   */\n      0x00\n        /* \"#utility.yul\":15386:15388   */\n      0x20\n        /* \"#utility.yul\":15375:15384   */\n      dup3\n        /* \"#utility.yul\":15371:15389   */\n      add\n        /* \"#utility.yul\":15363:15389   */\n      swap1\n      pop\n        /* \"#utility.yul\":15435:15444   */\n      dup2\n        /* \"#utility.yul\":15429:15433   */\n      dup2\n        /* \"#utility.yul\":15425:15445   */\n      sub\n        /* \"#utility.yul\":15421:15422   */\n      0x00\n        /* \"#utility.yul\":15410:15419   */\n      dup4\n        /* \"#utility.yul\":15406:15423   */\n      add\n        /* \"#utility.yul\":15399:15446   */\n      mstore\n        /* \"#utility.yul\":15463:15594   */\n      tag_345\n        /* \"#utility.yul\":15589:15593   */\n      dup2\n        /* \"#utility.yul\":15463:15594   */\n      tag_210\n      jump\t// in\n    tag_345:\n        /* \"#utility.yul\":15455:15594   */\n      swap1\n      pop\n        /* \"#utility.yul\":15182:15601   */\n      swap2\n      swap1\n      pop\n      jump\t// out\n        /* \"#utility.yul\":15607:15787   */\n    tag_131:\n        /* \"#utility.yul\":15655:15732   */\n      0x4e487b7100000000000000000000000000000000000000000000000000000000\n        /* \"#utility.yul\":15652:15653   */\n      0x00\n        /* \"#utility.yul\":15645:15733   */\n      mstore\n        /* \"#utility.yul\":15752:15756   */\n      0x01\n        /* \"#utility.yul\":15749:15750   */\n      0x04\n        /* \"#utility.yul\":15742:15757   */\n      mstore\n        /* \"#utility.yul\":15776:15780   */\n      0x24\n        /* \"#utility.yul\":15773:15774   */\n      0x00\n        /* \"#utility.yul\":15766:15781   */\n      revert\n        /* \"#utility.yul\":15793:16018   */\n    tag_211:\n        /* \"#utility.yul\":15933:15967   */\n      0x4661696c656420746f2077697468647261772066756e647320746f206d73672e\n        /* \"#utility.yul\":15929:15930   */\n      0x00\n        /* \"#utility.yul\":15921:15927   */\n      dup3\n        /* \"#utility.yul\":15917:15931   */\n      add\n        /* \"#utility.yul\":15910:15968   */\n      mstore\n        /* \"#utility.yul\":16002:16010   */\n      0x73656e6465720000000000000000000000000000000000000000000000000000\n        /* \"#utility.yul\":15997:15999   */\n      0x20\n        /* \"#utility.yul\":15989:15995   */\n      dup3\n        /* \"#utility.yul\":15985:16000   */\n      add\n        /* \"#utility.yul\":15978:16011   */\n      mstore\n        /* \"#utility.yul\":15793:16018   */\n      pop\n      jump\t// out\n        /* \"#utility.yul\":16024:16390   */\n    tag_212:\n        /* \"#utility.yul\":16166:16169   */\n      0x00\n        /* \"#utility.yul\":16187:16254   */\n      tag_349\n        /* \"#utility.yul\":16251:16253   */\n      0x26\n        /* \"#utility.yul\":16246:16249   */\n      dup4\n        /* \"#utility.yul\":16187:16254   */\n      tag_191\n      jump\t// in\n    tag_349:\n        /* \"#utility.yul\":16180:16254   */\n      swap2\n      pop\n        /* \"#utility.yul\":16263:16356   */\n      tag_350\n        /* \"#utility.yul\":16352:16355   */\n      dup3\n        /* \"#utility.yul\":16263:16356   */\n      tag_211\n      jump\t// in\n    tag_350:\n        /* \"#utility.yul\":16381:16383   */\n      0x40\n        /* \"#utility.yul\":16376:16379   */\n      dup3\n        /* \"#utility.yul\":16372:16384   */\n      add\n        /* \"#utility.yul\":16365:16384   */\n      swap1\n      pop\n        /* \"#utility.yul\":16024:16390   */\n      swap2\n      swap1\n      pop\n      jump\t// out\n        /* \"#utility.yul\":16396:16815   */\n    tag_135:\n        /* \"#utility.yul\":16562:16566   */\n      0x00\n        /* \"#utility.yul\":16600:16602   */\n      0x20\n        /* \"#utility.yul\":16589:16598   */\n      dup3\n        /* \"#utility.yul\":16585:16603   */\n      add\n        /* \"#utility.yul\":16577:16603   */\n      swap1\n      pop\n        /* \"#utility.yul\":16649:16658   */\n      dup2\n        /* \"#utility.yul\":16643:16647   */\n      dup2\n        /* \"#utility.yul\":16639:16659   */\n      sub\n        /* \"#utility.yul\":16635:16636   */\n      0x00\n        /* \"#utility.yul\":16624:16633   */\n      dup4\n        /* \"#utility.yul\":16620:16637   */\n      add\n        /* \"#utility.yul\":16613:16660   */\n      mstore\n        /* \"#utility.yul\":16677:16808   */\n      tag_352\n        /* \"#utility.yul\":16803:16807   */\n      dup2\n        /* \"#utility.yul\":16677:16808   */\n      tag_212\n      jump\t// in\n    tag_352:\n        /* \"#utility.yul\":16669:16808   */\n      swap1\n      pop\n        /* \"#utility.yul\":16396:16815   */\n      swap2\n      swap1\n      pop\n      jump\t// out\n        /* \"#utility.yul\":16821:17111   */\n    tag_213:\n        /* \"#utility.yul\":16961:16995   */\n      0x746f74616c207365727669636520666565206d75737420636f76657220617420\n        /* \"#utility.yul\":16957:16958   */\n      0x00\n        /* \"#utility.yul\":16949:16955   */\n      dup3\n        /* \"#utility.yul\":16945:16959   */\n      add\n        /* \"#utility.yul\":16938:16996   */\n      mstore\n        /* \"#utility.yul\":17030:17064   */\n      0x6c6561737420746865207865637574696f6e2067617320726571756972656d65\n        /* \"#utility.yul\":17025:17027   */\n      0x20\n        /* \"#utility.yul\":17017:17023   */\n      dup3\n        /* \"#utility.yul\":17013:17028   */\n      add\n        /* \"#utility.yul\":17006:17065   */\n      mstore\n        /* \"#utility.yul\":17099:17103   */\n      0x6e74000000000000000000000000000000000000000000000000000000000000\n        /* \"#utility.yul\":17094:17096   */\n      0x40\n        /* \"#utility.yul\":17086:17092   */\n      dup3\n        /* \"#utility.yul\":17082:17097   */\n      add\n        /* \"#utility.yul\":17075:17104   */\n      mstore\n        /* \"#utility.yul\":16821:17111   */\n      pop\n      jump\t// out\n        /* \"#utility.yul\":17117:17483   */\n    tag_214:\n        /* \"#utility.yul\":17259:17262   */\n      0x00\n        /* \"#utility.yul\":17280:17347   */\n      tag_355\n        /* \"#utility.yul\":17344:17346   */\n      0x42\n        /* \"#utility.yul\":17339:17342   */\n      dup4\n        /* \"#utility.yul\":17280:17347   */\n      tag_191\n      jump\t// in\n    tag_355:\n        /* \"#utility.yul\":17273:17347   */\n      swap2\n      pop\n        /* \"#utility.yul\":17356:17449   */\n      tag_356\n        /* \"#utility.yul\":17445:17448   */\n      dup3\n        /* \"#utility.yul\":17356:17449   */\n      tag_213\n      jump\t// in\n    tag_356:\n        /* \"#utility.yul\":17474:17476   */\n      0x60\n        /* \"#utility.yul\":17469:17472   */\n      dup3\n        /* \"#utility.yul\":17465:17477   */\n      add\n        /* \"#utility.yul\":17458:17477   */\n      swap1\n      pop\n        /* \"#utility.yul\":17117:17483   */\n      swap2\n      swap1\n      pop\n      jump\t// out\n        /* \"#utility.yul\":17489:17908   */\n    tag_142:\n        /* \"#utility.yul\":17655:17659   */\n      0x00\n        /* \"#utility.yul\":17693:17695   */\n      0x20\n        /* \"#utility.yul\":17682:17691   */\n      dup3\n        /* \"#utility.yul\":17678:17696   */\n      add\n        /* \"#utility.yul\":17670:17696   */\n      swap1\n      pop\n        /* \"#utility.yul\":17742:17751   */\n      dup2\n        /* \"#utility.yul\":17736:17740   */\n      dup2\n        /* \"#utility.yul\":17732:17752   */\n      sub\n        /* \"#utility.yul\":17728:17729   */\n      0x00\n        /* \"#utility.yul\":17717:17726   */\n      dup4\n        /* \"#utility.yul\":17713:17730   */\n      add\n        /* \"#utility.yul\":17706:17753   */\n      mstore\n        /* \"#utility.yul\":17770:17901   */\n      tag_358\n        /* \"#utility.yul\":17896:17900   */\n      dup2\n        /* \"#utility.yul\":17770:17901   */\n      tag_214\n      jump\t// in\n    tag_358:\n        /* \"#utility.yul\":17762:17901   */\n      swap1\n      pop\n        /* \"#utility.yul\":17489:17908   */\n      swap2\n      swap1\n      pop\n      jump\t// out\n        /* \"#utility.yul\":17914:18139   */\n    tag_215:\n        /* \"#utility.yul\":18054:18088   */\n      0x4f776e61626c653a206e6577206f776e657220697320746865207a65726f2061\n        /* \"#utility.yul\":18050:18051   */\n      0x00\n        /* \"#utility.yul\":18042:18048   */\n      dup3\n        /* \"#utility.yul\":18038:18052   */\n      add\n        /* \"#utility.yul\":18031:18089   */\n      mstore\n        /* \"#utility.yul\":18123:18131   */\n      0x6464726573730000000000000000000000000000000000000000000000000000\n        /* \"#utility.yul\":18118:18120   */\n      0x20\n        /* \"#utility.yul\":18110:18116   */\n      dup3\n        /* \"#utility.yul\":18106:18121   */\n      add\n        /* \"#utility.yul\":18099:18132   */\n      mstore\n        /* \"#utility.yul\":17914:18139   */\n      pop\n      jump\t// out\n        /* \"#utility.yul\":18145:18511   */\n    tag_216:\n        /* \"#utility.yul\":18287:18290   */\n      0x00\n        /* \"#utility.yul\":18308:18375   */\n      tag_361\n        /* \"#utility.yul\":18372:18374   */\n      0x26\n        /* \"#utility.yul\":18367:18370   */\n      dup4\n        /* \"#utility.yul\":18308:18375   */\n      tag_191\n      jump\t// in\n    tag_361:\n        /* \"#utility.yul\":18301:18375   */\n      swap2\n      pop\n        /* \"#utility.yul\":18384:18477   */\n      tag_362\n        /* \"#utility.yul\":18473:18476   */\n      dup3\n        /* \"#utility.yul\":18384:18477   */\n      tag_215\n      jump\t// in\n    tag_362:\n        /* \"#utility.yul\":18502:18504   */\n      0x40\n        /* \"#utility.yul\":18497:18500   */\n      dup3\n        /* \"#utility.yul\":18493:18505   */\n      add\n        /* \"#utility.yul\":18486:18505   */\n      swap1\n      pop\n        /* \"#utility.yul\":18145:18511   */\n      swap2\n      swap1\n      pop\n      jump\t// out\n        /* \"#utility.yul\":18517:18936   */\n    tag_162:\n        /* \"#utility.yul\":18683:18687   */\n      0x00\n        /* \"#utility.yul\":18721:18723   */\n      0x20\n        /* \"#utility.yul\":18710:18719   */\n      dup3\n        /* \"#utility.yul\":18706:18724   */\n      add\n        /* \"#utility.yul\":18698:18724   */\n      swap1\n      pop\n        /* \"#utility.yul\":18770:18779   */\n      dup2\n        /* \"#utility.yul\":18764:18768   */\n      dup2\n        /* \"#utility.yul\":18760:18780   */\n      sub\n        /* \"#utility.yul\":18756:18757   */\n      0x00\n        /* \"#utility.yul\":18745:18754   */\n      dup4\n        /* \"#utility.yul\":18741:18758   */\n      add\n        /* \"#utility.yul\":18734:18781   */\n      mstore\n        /* \"#utility.yul\":18798:18929   */\n      tag_364\n        /* \"#utility.yul\":18924:18928   */\n      dup2\n        /* \"#utility.yul\":18798:18929   */\n      tag_216\n      jump\t// in\n    tag_364:\n        /* \"#utility.yul\":18790:18929   */\n      swap1\n      pop\n        /* \"#utility.yul\":18517:18936   */\n      swap2\n      swap1\n      pop\n      jump\t// out\n        /* \"#utility.yul\":18942:19124   */\n    tag_217:\n        /* \"#utility.yul\":19082:19116   */\n      0x4f776e61626c653a2063616c6c6572206973206e6f7420746865206f776e6572\n        /* \"#utility.yul\":19078:19079   */\n      0x00\n        /* \"#utility.yul\":19070:19076   */\n      dup3\n        /* \"#utility.yul\":19066:19080   */\n      add\n        /* \"#utility.yul\":19059:19117   */\n      mstore\n        /* \"#utility.yul\":18942:19124   */\n      pop\n      jump\t// out\n        /* \"#utility.yul\":19130:19496   */\n    tag_218:\n        /* \"#utility.yul\":19272:19275   */\n      0x00\n        /* \"#utility.yul\":19293:19360   */\n      tag_367\n        /* \"#utility.yul\":19357:19359   */\n      0x20\n        /* \"#utility.yul\":19352:19355   */\n      dup4\n        /* \"#utility.yul\":19293:19360   */\n      tag_191\n      jump\t// in\n    tag_367:\n        /* \"#utility.yul\":19286:19360   */\n      swap2\n      pop\n        /* \"#utility.yul\":19369:19462   */\n      tag_368\n        /* \"#utility.yul\":19458:19461   */\n      dup3\n        /* \"#utility.yul\":19369:19462   */\n      tag_217\n      jump\t// in\n    tag_368:\n        /* \"#utility.yul\":19487:19489   */\n      0x20\n        /* \"#utility.yul\":19482:19485   */\n      dup3\n        /* \"#utility.yul\":19478:19490   */\n      add\n        /* \"#utility.yul\":19471:19490   */\n      swap1\n      pop\n        /* \"#utility.yul\":19130:19496   */\n      swap2\n      swap1\n      pop\n      jump\t// out\n        /* \"#utility.yul\":19502:19921   */\n    tag_170:\n        /* \"#utility.yul\":19668:19672   */\n      0x00\n        /* \"#utility.yul\":19706:19708   */\n      0x20\n        /* \"#utility.yul\":19695:19704   */\n      dup3\n        /* \"#utility.yul\":19691:19709   */\n      add\n        /* \"#utility.yul\":19683:19709   */\n      swap1\n      pop\n        /* \"#utility.yul\":19755:19764   */\n      dup2\n        /* \"#utility.yul\":19749:19753   */\n      dup2\n        /* \"#utility.yul\":19745:19765   */\n      sub\n        /* \"#utility.yul\":19741:19742   */\n      0x00\n        /* \"#utility.yul\":19730:19739   */\n      dup4\n        /* \"#utility.yul\":19726:19743   */\n      add\n        /* \"#utility.yul\":19719:19766   */\n      mstore\n        /* \"#utility.yul\":19783:19914   */\n      tag_370\n        /* \"#utility.yul\":19909:19913   */\n      dup2\n        /* \"#utility.yul\":19783:19914   */\n      tag_218\n      jump\t// in\n    tag_370:\n        /* \"#utility.yul\":19775:19914   */\n      swap1\n      pop\n        /* \"#utility.yul\":19502:19921   */\n      swap2\n      swap1\n      pop\n      jump\t// out\n        /* \"#utility.yul\":19927:20108   */\n    tag_219:\n        /* \"#utility.yul\":20067:20100   */\n      0x5265656e7472616e637947756172643a207265656e7472616e742063616c6c00\n        /* \"#utility.yul\":20063:20064   */\n      0x00\n        /* \"#utility.yul\":20055:20061   */\n      dup3\n        /* \"#utility.yul\":20051:20065   */\n      add\n        /* \"#utility.yul\":20044:20101   */\n      mstore\n        /* \"#utility.yul\":19927:20108   */\n      pop\n      jump\t// out\n        /* \"#utility.yul\":20114:20480   */\n    tag_220:\n        /* \"#utility.yul\":20256:20259   */\n      0x00\n        /* \"#utility.yul\":20277:20344   */\n      tag_373\n        /* \"#utility.yul\":20341:20343   */\n      0x1f\n        /* \"#utility.yul\":20336:20339   */\n      dup4\n        /* \"#utility.yul\":20277:20344   */\n      tag_191\n      jump\t// in\n    tag_373:\n        /* \"#utility.yul\":20270:20344   */\n      swap2\n      pop\n        /* \"#utility.yul\":20353:20446   */\n      tag_374\n        /* \"#utility.yul\":20442:20445   */\n      dup3\n        /* \"#utility.yul\":20353:20446   */\n      tag_219\n      jump\t// in\n    tag_374:\n        /* \"#utility.yul\":20471:20473   */\n      0x20\n        /* \"#utility.yul\":20466:20469   */\n      dup3\n        /* \"#utility.yul\":20462:20474   */\n      add\n        /* \"#utility.yul\":20455:20474   */\n      swap1\n      pop\n        /* \"#utility.yul\":20114:20480   */\n      swap2\n      swap1\n      pop\n      jump\t// out\n        /* \"#utility.yul\":20486:20905   */\n    tag_174:\n        /* \"#utility.yul\":20652:20656   */\n      0x00\n        /* \"#utility.yul\":20690:20692   */\n      0x20\n        /* \"#utility.yul\":20679:20688   */\n      dup3\n        /* \"#utility.yul\":20675:20693   */\n      add\n        /* \"#utility.yul\":20667:20693   */\n      swap1\n      pop\n        /* \"#utility.yul\":20739:20748   */\n      dup2\n        /* \"#utility.yul\":20733:20737   */\n      dup2\n        /* \"#utility.yul\":20729:20749   */\n      sub\n        /* \"#utility.yul\":20725:20726   */\n      0x00\n        /* \"#utility.yul\":20714:20723   */\n      dup4\n        /* \"#utility.yul\":20710:20727   */\n      add\n        /* \"#utility.yul\":20703:20750   */\n      mstore\n        /* \"#utility.yul\":20767:20898   */\n      tag_376\n        /* \"#utility.yul\":20893:20897   */\n      dup2\n        /* \"#utility.yul\":20767:20898   */\n      tag_220\n      jump\t// in\n    tag_376:\n        /* \"#utility.yul\":20759:20898   */\n      swap1\n      pop\n        /* \"#utility.yul\":20486:20905   */\n      swap2\n      swap1\n      pop\n      jump\t// out\n\n    auxdata: 0xa26469706673582212208c712b0a7256a7f380620968bf4432bf3a840031f85f6c313b29d656d698080b64736f6c63430008120033\n}\n",
				"bytecode": {
					"linkReferences": {},
					"object": "60806040523480156200001157600080fd5b5060405162001e0a38038062001e0a833981810160405281019062000037919062000227565b620000576200004b620000b660201b60201c565b620000be60201b60201c565b600180819055508260028190555081600460006101000a81548173ffffffffffffffffffffffffffffffffffffffff021916908373ffffffffffffffffffffffffffffffffffffffff1602179055508060068190555050505062000283565b600033905090565b60008060009054906101000a900473ffffffffffffffffffffffffffffffffffffffff169050816000806101000a81548173ffffffffffffffffffffffffffffffffffffffff021916908373ffffffffffffffffffffffffffffffffffffffff1602179055508173ffffffffffffffffffffffffffffffffffffffff168173ffffffffffffffffffffffffffffffffffffffff167f8be0079c531659141344cd1fd0a4f28419497f9722a3daafe3b4186f6b6457e060405160405180910390a35050565b600080fd5b6000819050919050565b6200019c8162000187565b8114620001a857600080fd5b50565b600081519050620001bc8162000191565b92915050565b600073ffffffffffffffffffffffffffffffffffffffff82169050919050565b6000620001ef82620001c2565b9050919050565b6200020181620001e2565b81146200020d57600080fd5b50565b6000815190506200022181620001f6565b92915050565b60008060006060848603121562000243576200024262000182565b5b60006200025386828701620001ab565b9350506020620002668682870162000210565b92505060406200027986828701620001ab565b9150509250925092565b611b7780620002936000396000f3fe6080604052600436106100dd5760003560e01c80638429b0451161007f578063cd36e12b11610059578063cd36e12b1461026b578063d0e30db014610294578063dce272221461029e578063f2fde38b146102c9576100dd565b80638429b045146101ea5780638da5cb5b14610215578063b650294314610240576100dd565b80633ccfd60b116100bb5780633ccfd60b1461015257806354caef7d14610169578063715018a61461019257806374adad1d146101a9576100dd565b806304e40d67146100e25780630efe6a8b1461010b5780632560818514610127575b600080fd5b3480156100ee57600080fd5b5061010960048036038101906101049190611101565b6102f2565b005b6101256004803603810190610120919061118e565b610688565b005b34801561013357600080fd5b5061013c61098a565b60405161014991906111f0565b60405180910390f35b34801561015e57600080fd5b506101676109b0565b005b34801561017557600080fd5b50610190600480360381019061018b919061120b565b610c89565b005b34801561019e57600080fd5b506101a7610ce0565b005b3480156101b557600080fd5b506101d060048036038101906101cb9190611238565b610cf4565b6040516101e1959493929190611274565b60405180910390f35b3480156101f657600080fd5b506101ff610d6a565b60405161020c91906112c7565b60405180910390f35b34801561022157600080fd5b5061022a610d70565b60405161023791906111f0565b60405180910390f35b34801561024c57600080fd5b50610255610d99565b60405161026291906112c7565b60405180910390f35b34801561027757600080fd5b50610292600480360381019061028d919061120b565b610d9f565b005b61029c610df6565b005b3480156102aa57600080fd5b506102b3610e00565b6040516102c091906112c7565b60405180910390f35b3480156102d557600080fd5b506102f060048036038101906102eb9190611238565b610e06565b005b6102fa610e89565b610302610f07565b6000600560008873ffffffffffffffffffffffffffffffffffffffff1673ffffffffffffffffffffffffffffffffffffffff1681526020019081526020016000206040518060a00160405290816000820160009054906101000a900473ffffffffffffffffffffffffffffffffffffffff1673ffffffffffffffffffffffffffffffffffffffff1673ffffffffffffffffffffffffffffffffffffffff1681526020016001820160009054906101000a900473ffffffffffffffffffffffffffffffffffffffff1673ffffffffffffffffffffffffffffffffffffffff1673ffffffffffffffffffffffffffffffffffffffff1681526020016002820154815260200160038201548152602001600482015481525050905061042381610f56565b610462576040517f08c379a00000000000000000000000000000000000000000000000000000000081526004016104599061133f565b60405180910390fd5b85816040015110156104a9576040517f08c379a00000000000000000000000000000000000000000000000000000000081526004016104a0906113ab565b60405180910390fd5b600560008873ffffffffffffffffffffffffffffffffffffffff1673ffffffffffffffffffffffffffffffffffffffff168152602001908152602001600020600080820160006101000a81549073ffffffffffffffffffffffffffffffffffffffff02191690556001820160006101000a81549073ffffffffffffffffffffffffffffffffffffffff0219169055600282016000905560038201600090556004820160009055505060003373ffffffffffffffffffffffffffffffffffffffff166108fc6002549081150290604051600060405180830381858888f193505050509050806105cc576040517f08c379a00000000000000000000000000000000000000000000000000000000081526004016105c390611417565b60405180910390fd5b600460009054906101000a900473ffffffffffffffffffffffffffffffffffffffff1673ffffffffffffffffffffffffffffffffffffffff1663eea0d7b28360400151600654856020015186604001518c8c8c8c8c6040518a63ffffffff1660e01b8152600401610644989796959493929190611437565b6000604051808303818588803b15801561065d57600080fd5b505af1158015610671573d6000803e3d6000fd5b50505050505050610680610f93565b505050505050565b600073ffffffffffffffffffffffffffffffffffffffff163373ffffffffffffffffffffffffffffffffffffffff16036106f7576040517f08c379a00000000000000000000000000000000000000000000000000000000081526004016106ee90611501565b60405180910390fd5b600073ffffffffffffffffffffffffffffffffffffffff168373ffffffffffffffffffffffffffffffffffffffff1603610766576040517f08c379a000000000000000000000000000000000000000000000000000000000815260040161075d90611593565b60405180910390fd5b600082116107a9576040517f08c379a00000000000000000000000000000000000000000000000000000000081526004016107a090611625565b60405180910390fd5b6002543410156107ee576040517f08c379a00000000000000000000000000000000000000000000000000000000081526004016107e5906116b7565b60405180910390fd5b6000600254346107fe9190611706565b905081811015610843576040517f08c379a000000000000000000000000000000000000000000000000000000000815260040161083a906117d2565b60405180910390fd5b6040518060a001604052803373ffffffffffffffffffffffffffffffffffffffff1681526020018573ffffffffffffffffffffffffffffffffffffffff16815260200182815260200183815260200184815250600560003373ffffffffffffffffffffffffffffffffffffffff1673ffffffffffffffffffffffffffffffffffffffff16815260200190815260200160002060008201518160000160006101000a81548173ffffffffffffffffffffffffffffffffffffffff021916908373ffffffffffffffffffffffffffffffffffffffff16021790555060208201518160010160006101000a81548173ffffffffffffffffffffffffffffffffffffffff021916908373ffffffffffffffffffffffffffffffffffffffff16021790555060408201518160020155606082015181600301556080820151816004015590505050505050565b600460009054906101000a900473ffffffffffffffffffffffffffffffffffffffff1681565b6109b8610f07565b6000600560003373ffffffffffffffffffffffffffffffffffffffff1673ffffffffffffffffffffffffffffffffffffffff1681526020019081526020016000206040518060a00160405290816000820160009054906101000a900473ffffffffffffffffffffffffffffffffffffffff1673ffffffffffffffffffffffffffffffffffffffff1673ffffffffffffffffffffffffffffffffffffffff1681526020016001820160009054906101000a900473ffffffffffffffffffffffffffffffffffffffff1673ffffffffffffffffffffffffffffffffffffffff1673ffffffffffffffffffffffffffffffffffffffff16815260200160028201548152602001600382015481526020016004820154815250509050610ad981610f56565b610b18576040517f08c379a0000000000000000000000000000000000000000000000000000000008152600401610b0f9061183e565b60405180910390fd5b600560003373ffffffffffffffffffffffffffffffffffffffff1673ffffffffffffffffffffffffffffffffffffffff168152602001908152602001600020600080820160006101000a81549073ffffffffffffffffffffffffffffffffffffffff02191690556001820160006101000a81549073ffffffffffffffffffffffffffffffffffffffff021916905560028201600090556003820160009055600482016000905550503373ffffffffffffffffffffffffffffffffffffffff16816000015173ffffffffffffffffffffffffffffffffffffffff1614610c0057610bff61185e565b5b60003373ffffffffffffffffffffffffffffffffffffffff166108fc83604001519081150290604051600060405180830381858888f19350505050905080610c7d576040517f08c379a0000000000000000000000000000000000000000000000000000000008152600401610c74906118ff565b60405180910390fd5b5050610c87610f93565b565b610c91610e89565b806003541015610cd6576040517f08c379a0000000000000000000000000000000000000000000000000000000008152600401610ccd906119b7565b60405180910390fd5b8060028190555050565b610ce8610e89565b610cf26000610f9c565b565b60056020528060005260406000206000915090508060000160009054906101000a900473ffffffffffffffffffffffffffffffffffffffff16908060010160009054906101000a900473ffffffffffffffffffffffffffffffffffffffff16908060020154908060030154908060040154905085565b60025481565b60008060009054906101000a900473ffffffffffffffffffffffffffffffffffffffff16905090565b60065481565b610da7610e89565b600254811015610dec576040517f08c379a0000000000000000000000000000000000000000000000000000000008152600401610de3906119b7565b60405180910390fd5b8060038190555050565b610dfe610e89565b565b60035481565b610e0e610e89565b600073ffffffffffffffffffffffffffffffffffffffff168173ffffffffffffffffffffffffffffffffffffffff1603610e7d576040517f08c379a0000000000000000000000000000000000000000000000000000000008152600401610e7490611a49565b60405180910390fd5b610e8681610f9c565b50565b610e91611060565b73ffffffffffffffffffffffffffffffffffffffff16610eaf610d70565b73ffffffffffffffffffffffffffffffffffffffff1614610f05576040517f08c379a0000000000000000000000000000000000000000000000000000000008152600401610efc90611ab5565b60405180910390fd5b565b600260015403610f4c576040517f08c379a0000000000000000000000000000000000000000000000000000000008152600401610f4390611b21565b60405180910390fd5b6002600181905550565b60008073ffffffffffffffffffffffffffffffffffffffff16826000015173ffffffffffffffffffffffffffffffffffffffff1614159050919050565b60018081905550565b60008060009054906101000a900473ffffffffffffffffffffffffffffffffffffffff169050816000806101000a81548173ffffffffffffffffffffffffffffffffffffffff021916908373ffffffffffffffffffffffffffffffffffffffff1602179055508173ffffffffffffffffffffffffffffffffffffffff168173ffffffffffffffffffffffffffffffffffffffff167f8be0079c531659141344cd1fd0a4f28419497f9722a3daafe3b4186f6b6457e060405160405180910390a35050565b600033905090565b600080fd5b600073ffffffffffffffffffffffffffffffffffffffff82169050919050565b60006110988261106d565b9050919050565b6110a88161108d565b81146110b357600080fd5b50565b6000813590506110c58161109f565b92915050565b6000819050919050565b6110de816110cb565b81146110e957600080fd5b50565b6000813590506110fb816110d5565b92915050565b60008060008060008060c0878903121561111e5761111d611068565b5b600061112c89828a016110b6565b965050602061113d89828a016110ec565b955050604061114e89828a016110ec565b945050606061115f89828a016110ec565b935050608061117089828a016110ec565b92505060a061118189828a016110ec565b9150509295509295509295565b6000806000606084860312156111a7576111a6611068565b5b60006111b5868287016110b6565b93505060206111c6868287016110ec565b92505060406111d7868287016110ec565b9150509250925092565b6111ea8161108d565b82525050565b600060208201905061120560008301846111e1565b92915050565b60006020828403121561122157611220611068565b5b600061122f848285016110ec565b91505092915050565b60006020828403121561124e5761124d611068565b5b600061125c848285016110b6565b91505092915050565b61126e816110cb565b82525050565b600060a08201905061128960008301886111e1565b61129660208301876111e1565b6112a36040830186611265565b6112b06060830185611265565b6112bd6080830184611265565b9695505050505050565b60006020820190506112dc6000830184611265565b92915050565b600082825260208201905092915050565b7f4e6f207265717565737420746f2070726f636573730000000000000000000000600082015250565b60006113296015836112e2565b9150611334826112f3565b602082019050919050565b600060208201905081810360008301526113588161131c565b9050919050565b7f426f6e646572206665652063616e6e6f742065786365656420616d6f756e742e600082015250565b60006113956020836112e2565b91506113a08261135f565b602082019050919050565b600060208201905081810360008301526113c481611388565b9050919050565b7f4661696c656420746f20726566756e64206578656375746f7200000000000000600082015250565b60006114016019836112e2565b915061140c826113cb565b602082019050919050565b60006020820190508181036000830152611430816113f4565b9050919050565b60006101008201905061144d600083018b611265565b61145a602083018a6111e1565b6114676040830189611265565b6114746060830188611265565b6114816080830187611265565b61148e60a0830186611265565b61149b60c0830185611265565b6114a860e0830184611265565b9998505050505050505050565b7f53656e646572206d6179206e6f74206265203020616464726573730000000000600082015250565b60006114eb601b836112e2565b91506114f6826114b5565b602082019050919050565b6000602082019050818103600083015261151a816114de565b9050919050565b7f44657374696e6174696f6e2061646472657373206d6179206e6f74206265203060008201527f2061646472657373000000000000000000000000000000000000000000000000602082015250565b600061157d6028836112e2565b915061158882611521565b604082019050919050565b600060208201905081810360008301526115ac81611570565b9050919050565b7f57616e746564204c3120676173207072696365206d757374206265207374726960008201527f63746c7920706f73697469766500000000000000000000000000000000000000602082015250565b600061160f602d836112e2565b915061161a826115b3565b604082019050919050565b6000602082019050818103600083015261163e81611602565b9050919050565b7f4e6f7420656e6f7567682066756e647320746f2070617920666f722064656c6160008201527f79656420657865637574696f6e00000000000000000000000000000000000000602082015250565b60006116a1602d836112e2565b91506116ac82611645565b604082019050919050565b600060208201905081810360008301526116d081611694565b9050919050565b7f4e487b7100000000000000000000000000000000000000000000000000000000600052601160045260246000fd5b6000611711826110cb565b915061171c836110cb565b9250828203905081811115611734576117336116d7565b5b92915050565b7f43616c63756c617465642073656e7420616d6f756e74206d757374206265206c60008201527f6172676572207468616e20746865207265717569726564206d696e696d756d2060208201527f616d6f756e74206172726976696e672061742064657374696e6174696f6e2e00604082015250565b60006117bc605f836112e2565b91506117c78261173a565b606082019050919050565b600060208201905081810360008301526117eb816117af565b9050919050565b7f4e6f207265717565737420746f20776974686472617700000000000000000000600082015250565b60006118286016836112e2565b9150611833826117f2565b602082019050919050565b600060208201905081810360008301526118578161181b565b9050919050565b7f4e487b7100000000000000000000000000000000000000000000000000000000600052600160045260246000fd5b7f4661696c656420746f2077697468647261772066756e647320746f206d73672e60008201527f73656e6465720000000000000000000000000000000000000000000000000000602082015250565b60006118e96026836112e2565b91506118f48261188d565b604082019050919050565b60006020820190508181036000830152611918816118dc565b9050919050565b7f746f74616c207365727669636520666565206d75737420636f7665722061742060008201527f6c6561737420746865207865637574696f6e2067617320726571756972656d6560208201527f6e74000000000000000000000000000000000000000000000000000000000000604082015250565b60006119a16042836112e2565b91506119ac8261191f565b606082019050919050565b600060208201905081810360008301526119d081611994565b9050919050565b7f4f776e61626c653a206e6577206f776e657220697320746865207a65726f206160008201527f6464726573730000000000000000000000000000000000000000000000000000602082015250565b6000611a336026836112e2565b9150611a3e826119d7565b604082019050919050565b60006020820190508181036000830152611a6281611a26565b9050919050565b7f4f776e61626c653a2063616c6c6572206973206e6f7420746865206f776e6572600082015250565b6000611a9f6020836112e2565b9150611aaa82611a69565b602082019050919050565b60006020820190508181036000830152611ace81611a92565b9050919050565b7f5265656e7472616e637947756172643a207265656e7472616e742063616c6c00600082015250565b6000611b0b601f836112e2565b9150611b1682611ad5565b602082019050919050565b60006020820190508181036000830152611b3a81611afe565b905091905056fea26469706673582212208c712b0a7256a7f380620968bf4432bf3a840031f85f6c313b29d656d698080b64736f6c63430008120033",
					"opcodes": "PUSH1 0x80 PUSH1 0x40 MSTORE CALLVALUE DUP1 ISZERO PUSH3 0x11 JUMPI PUSH1 0x0 DUP1 REVERT JUMPDEST POP PUSH1 0x40 MLOAD PUSH3 0x1E0A CODESIZE SUB DUP1 PUSH3 0x1E0A DUP4 CODECOPY DUP2 DUP2 ADD PUSH1 0x40 MSTORE DUP2 ADD SWAP1 PUSH3 0x37 SWAP2 SWAP1 PUSH3 0x227 JUMP JUMPDEST PUSH3 0x57 PUSH3 0x4B PUSH3 0xB6 PUSH1 0x20 SHL PUSH1 0x20 SHR JUMP JUMPDEST PUSH3 0xBE PUSH1 0x20 SHL PUSH1 0x20 SHR JUMP JUMPDEST PUSH1 0x1 DUP1 DUP2 SWAP1 SSTORE POP DUP3 PUSH1 0x2 DUP2 SWAP1 SSTORE POP DUP2 PUSH1 0x4 PUSH1 0x0 PUSH2 0x100 EXP DUP2 SLOAD DUP2 PUSH20 0xFFFFFFFFFFFFFFFFFFFFFFFFFFFFFFFFFFFFFFFF MUL NOT AND SWAP1 DUP4 PUSH20 0xFFFFFFFFFFFFFFFFFFFFFFFFFFFFFFFFFFFFFFFF AND MUL OR SWAP1 SSTORE POP DUP1 PUSH1 0x6 DUP2 SWAP1 SSTORE POP POP POP POP PUSH3 0x283 JUMP JUMPDEST PUSH1 0x0 CALLER SWAP1 POP SWAP1 JUMP JUMPDEST PUSH1 0x0 DUP1 PUSH1 0x0 SWAP1 SLOAD SWAP1 PUSH2 0x100 EXP SWAP1 DIV PUSH20 0xFFFFFFFFFFFFFFFFFFFFFFFFFFFFFFFFFFFFFFFF AND SWAP1 POP DUP2 PUSH1 0x0 DUP1 PUSH2 0x100 EXP DUP2 SLOAD DUP2 PUSH20 0xFFFFFFFFFFFFFFFFFFFFFFFFFFFFFFFFFFFFFFFF MUL NOT AND SWAP1 DUP4 PUSH20 0xFFFFFFFFFFFFFFFFFFFFFFFFFFFFFFFFFFFFFFFF AND MUL OR SWAP1 SSTORE POP DUP2 PUSH20 0xFFFFFFFFFFFFFFFFFFFFFFFFFFFFFFFFFFFFFFFF AND DUP2 PUSH20 0xFFFFFFFFFFFFFFFFFFFFFFFFFFFFFFFFFFFFFFFF AND PUSH32 0x8BE0079C531659141344CD1FD0A4F28419497F9722A3DAAFE3B4186F6B6457E0 PUSH1 0x40 MLOAD PUSH1 0x40 MLOAD DUP1 SWAP2 SUB SWAP1 LOG3 POP POP JUMP JUMPDEST PUSH1 0x0 DUP1 REVERT JUMPDEST PUSH1 0x0 DUP2 SWAP1 POP SWAP2 SWAP1 POP JUMP JUMPDEST PUSH3 0x19C DUP2 PUSH3 0x187 JUMP JUMPDEST DUP2 EQ PUSH3 0x1A8 JUMPI PUSH1 0x0 DUP1 REVERT JUMPDEST POP JUMP JUMPDEST PUSH1 0x0 DUP2 MLOAD SWAP1 POP PUSH3 0x1BC DUP2 PUSH3 0x191 JUMP JUMPDEST SWAP3 SWAP2 POP POP JUMP JUMPDEST PUSH1 0x0 PUSH20 0xFFFFFFFFFFFFFFFFFFFFFFFFFFFFFFFFFFFFFFFF DUP3 AND SWAP1 POP SWAP2 SWAP1 POP JUMP JUMPDEST PUSH1 0x0 PUSH3 0x1EF DUP3 PUSH3 0x1C2 JUMP JUMPDEST SWAP1 POP SWAP2 SWAP1 POP JUMP JUMPDEST PUSH3 0x201 DUP2 PUSH3 0x1E2 JUMP JUMPDEST DUP2 EQ PUSH3 0x20D JUMPI PUSH1 0x0 DUP1 REVERT JUMPDEST POP JUMP JUMPDEST PUSH1 0x0 DUP2 MLOAD SWAP1 POP PUSH3 0x221 DUP2 PUSH3 0x1F6 JUMP JUMPDEST SWAP3 SWAP2 POP POP JUMP JUMPDEST PUSH1 0x0 DUP1 PUSH1 0x0 PUSH1 0x60 DUP5 DUP7 SUB SLT ISZERO PUSH3 0x243 JUMPI PUSH3 0x242 PUSH3 0x182 JUMP JUMPDEST JUMPDEST PUSH1 0x0 PUSH3 0x253 DUP7 DUP3 DUP8 ADD PUSH3 0x1AB JUMP JUMPDEST SWAP4 POP POP PUSH1 0x20 PUSH3 0x266 DUP7 DUP3 DUP8 ADD PUSH3 0x210 JUMP JUMPDEST SWAP3 POP POP PUSH1 0x40 PUSH3 0x279 DUP7 DUP3 DUP8 ADD PUSH3 0x1AB JUMP JUMPDEST SWAP2 POP POP SWAP3 POP SWAP3 POP SWAP3 JUMP JUMPDEST PUSH2 0x1B77 DUP1 PUSH3 0x293 PUSH1 0x0 CODECOPY PUSH1 0x0 RETURN INVALID PUSH1 0x80 PUSH1 0x40 MSTORE PUSH1 0x4 CALLDATASIZE LT PUSH2 0xDD JUMPI PUSH1 0x0 CALLDATALOAD PUSH1 0xE0 SHR DUP1 PUSH4 0x8429B045 GT PUSH2 0x7F JUMPI DUP1 PUSH4 0xCD36E12B GT PUSH2 0x59 JUMPI DUP1 PUSH4 0xCD36E12B EQ PUSH2 0x26B JUMPI DUP1 PUSH4 0xD0E30DB0 EQ PUSH2 0x294 JUMPI DUP1 PUSH4 0xDCE27222 EQ PUSH2 0x29E JUMPI DUP1 PUSH4 0xF2FDE38B EQ PUSH2 0x2C9 JUMPI PUSH2 0xDD JUMP JUMPDEST DUP1 PUSH4 0x8429B045 EQ PUSH2 0x1EA JUMPI DUP1 PUSH4 0x8DA5CB5B EQ PUSH2 0x215 JUMPI DUP1 PUSH4 0xB6502943 EQ PUSH2 0x240 JUMPI PUSH2 0xDD JUMP JUMPDEST DUP1 PUSH4 0x3CCFD60B GT PUSH2 0xBB JUMPI DUP1 PUSH4 0x3CCFD60B EQ PUSH2 0x152 JUMPI DUP1 PUSH4 0x54CAEF7D EQ PUSH2 0x169 JUMPI DUP1 PUSH4 0x715018A6 EQ PUSH2 0x192 JUMPI DUP1 PUSH4 0x74ADAD1D EQ PUSH2 0x1A9 JUMPI PUSH2 0xDD JUMP JUMPDEST DUP1 PUSH4 0x4E40D67 EQ PUSH2 0xE2 JUMPI DUP1 PUSH4 0xEFE6A8B EQ PUSH2 0x10B JUMPI DUP1 PUSH4 0x25608185 EQ PUSH2 0x127 JUMPI JUMPDEST PUSH1 0x0 DUP1 REVERT JUMPDEST CALLVALUE DUP1 ISZERO PUSH2 0xEE JUMPI PUSH1 0x0 DUP1 REVERT JUMPDEST POP PUSH2 0x109 PUSH1 0x4 DUP1 CALLDATASIZE SUB DUP2 ADD SWAP1 PUSH2 0x104 SWAP2 SWAP1 PUSH2 0x1101 JUMP JUMPDEST PUSH2 0x2F2 JUMP JUMPDEST STOP JUMPDEST PUSH2 0x125 PUSH1 0x4 DUP1 CALLDATASIZE SUB DUP2 ADD SWAP1 PUSH2 0x120 SWAP2 SWAP1 PUSH2 0x118E JUMP JUMPDEST PUSH2 0x688 JUMP JUMPDEST STOP JUMPDEST CALLVALUE DUP1 ISZERO PUSH2 0x133 JUMPI PUSH1 0x0 DUP1 REVERT JUMPDEST POP PUSH2 0x13C PUSH2 0x98A JUMP JUMPDEST PUSH1 0x40 MLOAD PUSH2 0x149 SWAP2 SWAP1 PUSH2 0x11F0 JUMP JUMPDEST PUSH1 0x40 MLOAD DUP1 SWAP2 SUB SWAP1 RETURN JUMPDEST CALLVALUE DUP1 ISZERO PUSH2 0x15E JUMPI PUSH1 0x0 DUP1 REVERT JUMPDEST POP PUSH2 0x167 PUSH2 0x9B0 JUMP JUMPDEST STOP JUMPDEST CALLVALUE DUP1 ISZERO PUSH2 0x175 JUMPI PUSH1 0x0 DUP1 REVERT JUMPDEST POP PUSH2 0x190 PUSH1 0x4 DUP1 CALLDATASIZE SUB DUP2 ADD SWAP1 PUSH2 0x18B SWAP2 SWAP1 PUSH2 0x120B JUMP JUMPDEST PUSH2 0xC89 JUMP JUMPDEST STOP JUMPDEST CALLVALUE DUP1 ISZERO PUSH2 0x19E JUMPI PUSH1 0x0 DUP1 REVERT JUMPDEST POP PUSH2 0x1A7 PUSH2 0xCE0 JUMP JUMPDEST STOP JUMPDEST CALLVALUE DUP1 ISZERO PUSH2 0x1B5 JUMPI PUSH1 0x0 DUP1 REVERT JUMPDEST POP PUSH2 0x1D0 PUSH1 0x4 DUP1 CALLDATASIZE SUB DUP2 ADD SWAP1 PUSH2 0x1CB SWAP2 SWAP1 PUSH2 0x1238 JUMP JUMPDEST PUSH2 0xCF4 JUMP JUMPDEST PUSH1 0x40 MLOAD PUSH2 0x1E1 SWAP6 SWAP5 SWAP4 SWAP3 SWAP2 SWAP1 PUSH2 0x1274 JUMP JUMPDEST PUSH1 0x40 MLOAD DUP1 SWAP2 SUB SWAP1 RETURN JUMPDEST CALLVALUE DUP1 ISZERO PUSH2 0x1F6 JUMPI PUSH1 0x0 DUP1 REVERT JUMPDEST POP PUSH2 0x1FF PUSH2 0xD6A JUMP JUMPDEST PUSH1 0x40 MLOAD PUSH2 0x20C SWAP2 SWAP1 PUSH2 0x12C7 JUMP JUMPDEST PUSH1 0x40 MLOAD DUP1 SWAP2 SUB SWAP1 RETURN JUMPDEST CALLVALUE DUP1 ISZERO PUSH2 0x221 JUMPI PUSH1 0x0 DUP1 REVERT JUMPDEST POP PUSH2 0x22A PUSH2 0xD70 JUMP JUMPDEST PUSH1 0x40 MLOAD PUSH2 0x237 SWAP2 SWAP1 PUSH2 0x11F0 JUMP JUMPDEST PUSH1 0x40 MLOAD DUP1 SWAP2 SUB SWAP1 RETURN JUMPDEST CALLVALUE DUP1 ISZERO PUSH2 0x24C JUMPI PUSH1 0x0 DUP1 REVERT JUMPDEST POP PUSH2 0x255 PUSH2 0xD99 JUMP JUMPDEST PUSH1 0x40 MLOAD PUSH2 0x262 SWAP2 SWAP1 PUSH2 0x12C7 JUMP JUMPDEST PUSH1 0x40 MLOAD DUP1 SWAP2 SUB SWAP1 RETURN JUMPDEST CALLVALUE DUP1 ISZERO PUSH2 0x277 JUMPI PUSH1 0x0 DUP1 REVERT JUMPDEST POP PUSH2 0x292 PUSH1 0x4 DUP1 CALLDATASIZE SUB DUP2 ADD SWAP1 PUSH2 0x28D SWAP2 SWAP1 PUSH2 0x120B JUMP JUMPDEST PUSH2 0xD9F JUMP JUMPDEST STOP JUMPDEST PUSH2 0x29C PUSH2 0xDF6 JUMP JUMPDEST STOP JUMPDEST CALLVALUE DUP1 ISZERO PUSH2 0x2AA JUMPI PUSH1 0x0 DUP1 REVERT JUMPDEST POP PUSH2 0x2B3 PUSH2 0xE00 JUMP JUMPDEST PUSH1 0x40 MLOAD PUSH2 0x2C0 SWAP2 SWAP1 PUSH2 0x12C7 JUMP JUMPDEST PUSH1 0x40 MLOAD DUP1 SWAP2 SUB SWAP1 RETURN JUMPDEST CALLVALUE DUP1 ISZERO PUSH2 0x2D5 JUMPI PUSH1 0x0 DUP1 REVERT JUMPDEST POP PUSH2 0x2F0 PUSH1 0x4 DUP1 CALLDATASIZE SUB DUP2 ADD SWAP1 PUSH2 0x2EB SWAP2 SWAP1 PUSH2 0x1238 JUMP JUMPDEST PUSH2 0xE06 JUMP JUMPDEST STOP JUMPDEST PUSH2 0x2FA PUSH2 0xE89 JUMP JUMPDEST PUSH2 0x302 PUSH2 0xF07 JUMP JUMPDEST PUSH1 0x0 PUSH1 0x5 PUSH1 0x0 DUP9 PUSH20 0xFFFFFFFFFFFFFFFFFFFFFFFFFFFFFFFFFFFFFFFF AND PUSH20 0xFFFFFFFFFFFFFFFFFFFFFFFFFFFFFFFFFFFFFFFF AND DUP2 MSTORE PUSH1 0x20 ADD SWAP1 DUP2 MSTORE PUSH1 0x20 ADD PUSH1 0x0 KECCAK256 PUSH1 0x40 MLOAD DUP1 PUSH1 0xA0 ADD PUSH1 0x40 MSTORE SWAP1 DUP2 PUSH1 0x0 DUP3 ADD PUSH1 0x0 SWAP1 SLOAD SWAP1 PUSH2 0x100 EXP SWAP1 DIV PUSH20 0xFFFFFFFFFFFFFFFFFFFFFFFFFFFFFFFFFFFFFFFF AND PUSH20 0xFFFFFFFFFFFFFFFFFFFFFFFFFFFFFFFFFFFFFFFF AND PUSH20 0xFFFFFFFFFFFFFFFFFFFFFFFFFFFFFFFFFFFFFFFF AND DUP2 MSTORE PUSH1 0x20 ADD PUSH1 0x1 DUP3 ADD PUSH1 0x0 SWAP1 SLOAD SWAP1 PUSH2 0x100 EXP SWAP1 DIV PUSH20 0xFFFFFFFFFFFFFFFFFFFFFFFFFFFFFFFFFFFFFFFF AND PUSH20 0xFFFFFFFFFFFFFFFFFFFFFFFFFFFFFFFFFFFFFFFF AND PUSH20 0xFFFFFFFFFFFFFFFFFFFFFFFFFFFFFFFFFFFFFFFF AND DUP2 MSTORE PUSH1 0x20 ADD PUSH1 0x2 DUP3 ADD SLOAD DUP2 MSTORE PUSH1 0x20 ADD PUSH1 0x3 DUP3 ADD SLOAD DUP2 MSTORE PUSH1 0x20 ADD PUSH1 0x4 DUP3 ADD SLOAD DUP2 MSTORE POP POP SWAP1 POP PUSH2 0x423 DUP2 PUSH2 0xF56 JUMP JUMPDEST PUSH2 0x462 JUMPI PUSH1 0x40 MLOAD PUSH32 0x8C379A000000000000000000000000000000000000000000000000000000000 DUP2 MSTORE PUSH1 0x4 ADD PUSH2 0x459 SWAP1 PUSH2 0x133F JUMP JUMPDEST PUSH1 0x40 MLOAD DUP1 SWAP2 SUB SWAP1 REVERT JUMPDEST DUP6 DUP2 PUSH1 0x40 ADD MLOAD LT ISZERO PUSH2 0x4A9 JUMPI PUSH1 0x40 MLOAD PUSH32 0x8C379A000000000000000000000000000000000000000000000000000000000 DUP2 MSTORE PUSH1 0x4 ADD PUSH2 0x4A0 SWAP1 PUSH2 0x13AB JUMP JUMPDEST PUSH1 0x40 MLOAD DUP1 SWAP2 SUB SWAP1 REVERT JUMPDEST PUSH1 0x5 PUSH1 0x0 DUP9 PUSH20 0xFFFFFFFFFFFFFFFFFFFFFFFFFFFFFFFFFFFFFFFF AND PUSH20 0xFFFFFFFFFFFFFFFFFFFFFFFFFFFFFFFFFFFFFFFF AND DUP2 MSTORE PUSH1 0x20 ADD SWAP1 DUP2 MSTORE PUSH1 0x20 ADD PUSH1 0x0 KECCAK256 PUSH1 0x0 DUP1 DUP3 ADD PUSH1 0x0 PUSH2 0x100 EXP DUP2 SLOAD SWAP1 PUSH20 0xFFFFFFFFFFFFFFFFFFFFFFFFFFFFFFFFFFFFFFFF MUL NOT AND SWAP1 SSTORE PUSH1 0x1 DUP3 ADD PUSH1 0x0 PUSH2 0x100 EXP DUP2 SLOAD SWAP1 PUSH20 0xFFFFFFFFFFFFFFFFFFFFFFFFFFFFFFFFFFFFFFFF MUL NOT AND SWAP1 SSTORE PUSH1 0x2 DUP3 ADD PUSH1 0x0 SWAP1 SSTORE PUSH1 0x3 DUP3 ADD PUSH1 0x0 SWAP1 SSTORE PUSH1 0x4 DUP3 ADD PUSH1 0x0 SWAP1 SSTORE POP POP PUSH1 0x0 CALLER PUSH20 0xFFFFFFFFFFFFFFFFFFFFFFFFFFFFFFFFFFFFFFFF AND PUSH2 0x8FC PUSH1 0x2 SLOAD SWAP1 DUP2 ISZERO MUL SWAP1 PUSH1 0x40 MLOAD PUSH1 0x0 PUSH1 0x40 MLOAD DUP1 DUP4 SUB DUP2 DUP6 DUP9 DUP9 CALL SWAP4 POP POP POP POP SWAP1 POP DUP1 PUSH2 0x5CC JUMPI PUSH1 0x40 MLOAD PUSH32 0x8C379A000000000000000000000000000000000000000000000000000000000 DUP2 MSTORE PUSH1 0x4 ADD PUSH2 0x5C3 SWAP1 PUSH2 0x1417 JUMP JUMPDEST PUSH1 0x40 MLOAD DUP1 SWAP2 SUB SWAP1 REVERT JUMPDEST PUSH1 0x4 PUSH1 0x0 SWAP1 SLOAD SWAP1 PUSH2 0x100 EXP SWAP1 DIV PUSH20 0xFFFFFFFFFFFFFFFFFFFFFFFFFFFFFFFFFFFFFFFF AND PUSH20 0xFFFFFFFFFFFFFFFFFFFFFFFFFFFFFFFFFFFFFFFF AND PUSH4 0xEEA0D7B2 DUP4 PUSH1 0x40 ADD MLOAD PUSH1 0x6 SLOAD DUP6 PUSH1 0x20 ADD MLOAD DUP7 PUSH1 0x40 ADD MLOAD DUP13 DUP13 DUP13 DUP13 DUP13 PUSH1 0x40 MLOAD DUP11 PUSH4 0xFFFFFFFF AND PUSH1 0xE0 SHL DUP2 MSTORE PUSH1 0x4 ADD PUSH2 0x644 SWAP9 SWAP8 SWAP7 SWAP6 SWAP5 SWAP4 SWAP3 SWAP2 SWAP1 PUSH2 0x1437 JUMP JUMPDEST PUSH1 0x0 PUSH1 0x40 MLOAD DUP1 DUP4 SUB DUP2 DUP6 DUP9 DUP1 EXTCODESIZE ISZERO DUP1 ISZERO PUSH2 0x65D JUMPI PUSH1 0x0 DUP1 REVERT JUMPDEST POP GAS CALL ISZERO DUP1 ISZERO PUSH2 0x671 JUMPI RETURNDATASIZE PUSH1 0x0 DUP1 RETURNDATACOPY RETURNDATASIZE PUSH1 0x0 REVERT JUMPDEST POP POP POP POP POP POP POP PUSH2 0x680 PUSH2 0xF93 JUMP JUMPDEST POP POP POP POP POP POP JUMP JUMPDEST PUSH1 0x0 PUSH20 0xFFFFFFFFFFFFFFFFFFFFFFFFFFFFFFFFFFFFFFFF AND CALLER PUSH20 0xFFFFFFFFFFFFFFFFFFFFFFFFFFFFFFFFFFFFFFFF AND SUB PUSH2 0x6F7 JUMPI PUSH1 0x40 MLOAD PUSH32 0x8C379A000000000000000000000000000000000000000000000000000000000 DUP2 MSTORE PUSH1 0x4 ADD PUSH2 0x6EE SWAP1 PUSH2 0x1501 JUMP JUMPDEST PUSH1 0x40 MLOAD DUP1 SWAP2 SUB SWAP1 REVERT JUMPDEST PUSH1 0x0 PUSH20 0xFFFFFFFFFFFFFFFFFFFFFFFFFFFFFFFFFFFFFFFF AND DUP4 PUSH20 0xFFFFFFFFFFFFFFFFFFFFFFFFFFFFFFFFFFFFFFFF AND SUB PUSH2 0x766 JUMPI PUSH1 0x40 MLOAD PUSH32 0x8C379A000000000000000000000000000000000000000000000000000000000 DUP2 MSTORE PUSH1 0x4 ADD PUSH2 0x75D SWAP1 PUSH2 0x1593 JUMP JUMPDEST PUSH1 0x40 MLOAD DUP1 SWAP2 SUB SWAP1 REVERT JUMPDEST PUSH1 0x0 DUP3 GT PUSH2 0x7A9 JUMPI PUSH1 0x40 MLOAD PUSH32 0x8C379A000000000000000000000000000000000000000000000000000000000 DUP2 MSTORE PUSH1 0x4 ADD PUSH2 0x7A0 SWAP1 PUSH2 0x1625 JUMP JUMPDEST PUSH1 0x40 MLOAD DUP1 SWAP2 SUB SWAP1 REVERT JUMPDEST PUSH1 0x2 SLOAD CALLVALUE LT ISZERO PUSH2 0x7EE JUMPI PUSH1 0x40 MLOAD PUSH32 0x8C379A000000000000000000000000000000000000000000000000000000000 DUP2 MSTORE PUSH1 0x4 ADD PUSH2 0x7E5 SWAP1 PUSH2 0x16B7 JUMP JUMPDEST PUSH1 0x40 MLOAD DUP1 SWAP2 SUB SWAP1 REVERT JUMPDEST PUSH1 0x0 PUSH1 0x2 SLOAD CALLVALUE PUSH2 0x7FE SWAP2 SWAP1 PUSH2 0x1706 JUMP JUMPDEST SWAP1 POP DUP2 DUP2 LT ISZERO PUSH2 0x843 JUMPI PUSH1 0x40 MLOAD PUSH32 0x8C379A000000000000000000000000000000000000000000000000000000000 DUP2 MSTORE PUSH1 0x4 ADD PUSH2 0x83A SWAP1 PUSH2 0x17D2 JUMP JUMPDEST PUSH1 0x40 MLOAD DUP1 SWAP2 SUB SWAP1 REVERT JUMPDEST PUSH1 0x40 MLOAD DUP1 PUSH1 0xA0 ADD PUSH1 0x40 MSTORE DUP1 CALLER PUSH20 0xFFFFFFFFFFFFFFFFFFFFFFFFFFFFFFFFFFFFFFFF AND DUP2 MSTORE PUSH1 0x20 ADD DUP6 PUSH20 0xFFFFFFFFFFFFFFFFFFFFFFFFFFFFFFFFFFFFFFFF AND DUP2 MSTORE PUSH1 0x20 ADD DUP3 DUP2 MSTORE PUSH1 0x20 ADD DUP4 DUP2 MSTORE PUSH1 0x20 ADD DUP5 DUP2 MSTORE POP PUSH1 0x5 PUSH1 0x0 CALLER PUSH20 0xFFFFFFFFFFFFFFFFFFFFFFFFFFFFFFFFFFFFFFFF AND PUSH20 0xFFFFFFFFFFFFFFFFFFFFFFFFFFFFFFFFFFFFFFFF AND DUP2 MSTORE PUSH1 0x20 ADD SWAP1 DUP2 MSTORE PUSH1 0x20 ADD PUSH1 0x0 KECCAK256 PUSH1 0x0 DUP3 ADD MLOAD DUP2 PUSH1 0x0 ADD PUSH1 0x0 PUSH2 0x100 EXP DUP2 SLOAD DUP2 PUSH20 0xFFFFFFFFFFFFFFFFFFFFFFFFFFFFFFFFFFFFFFFF MUL NOT AND SWAP1 DUP4 PUSH20 0xFFFFFFFFFFFFFFFFFFFFFFFFFFFFFFFFFFFFFFFF AND MUL OR SWAP1 SSTORE POP PUSH1 0x20 DUP3 ADD MLOAD DUP2 PUSH1 0x1 ADD PUSH1 0x0 PUSH2 0x100 EXP DUP2 SLOAD DUP2 PUSH20 0xFFFFFFFFFFFFFFFFFFFFFFFFFFFFFFFFFFFFFFFF MUL NOT AND SWAP1 DUP4 PUSH20 0xFFFFFFFFFFFFFFFFFFFFFFFFFFFFFFFFFFFFFFFF AND MUL OR SWAP1 SSTORE POP PUSH1 0x40 DUP3 ADD MLOAD DUP2 PUSH1 0x2 ADD SSTORE PUSH1 0x60 DUP3 ADD MLOAD DUP2 PUSH1 0x3 ADD SSTORE PUSH1 0x80 DUP3 ADD MLOAD DUP2 PUSH1 0x4 ADD SSTORE SWAP1 POP POP POP POP POP POP JUMP JUMPDEST PUSH1 0x4 PUSH1 0x0 SWAP1 SLOAD SWAP1 PUSH2 0x100 EXP SWAP1 DIV PUSH20 0xFFFFFFFFFFFFFFFFFFFFFFFFFFFFFFFFFFFFFFFF AND DUP2 JUMP JUMPDEST PUSH2 0x9B8 PUSH2 0xF07 JUMP JUMPDEST PUSH1 0x0 PUSH1 0x5 PUSH1 0x0 CALLER PUSH20 0xFFFFFFFFFFFFFFFFFFFFFFFFFFFFFFFFFFFFFFFF AND PUSH20 0xFFFFFFFFFFFFFFFFFFFFFFFFFFFFFFFFFFFFFFFF AND DUP2 MSTORE PUSH1 0x20 ADD SWAP1 DUP2 MSTORE PUSH1 0x20 ADD PUSH1 0x0 KECCAK256 PUSH1 0x40 MLOAD DUP1 PUSH1 0xA0 ADD PUSH1 0x40 MSTORE SWAP1 DUP2 PUSH1 0x0 DUP3 ADD PUSH1 0x0 SWAP1 SLOAD SWAP1 PUSH2 0x100 EXP SWAP1 DIV PUSH20 0xFFFFFFFFFFFFFFFFFFFFFFFFFFFFFFFFFFFFFFFF AND PUSH20 0xFFFFFFFFFFFFFFFFFFFFFFFFFFFFFFFFFFFFFFFF AND PUSH20 0xFFFFFFFFFFFFFFFFFFFFFFFFFFFFFFFFFFFFFFFF AND DUP2 MSTORE PUSH1 0x20 ADD PUSH1 0x1 DUP3 ADD PUSH1 0x0 SWAP1 SLOAD SWAP1 PUSH2 0x100 EXP SWAP1 DIV PUSH20 0xFFFFFFFFFFFFFFFFFFFFFFFFFFFFFFFFFFFFFFFF AND PUSH20 0xFFFFFFFFFFFFFFFFFFFFFFFFFFFFFFFFFFFFFFFF AND PUSH20 0xFFFFFFFFFFFFFFFFFFFFFFFFFFFFFFFFFFFFFFFF AND DUP2 MSTORE PUSH1 0x20 ADD PUSH1 0x2 DUP3 ADD SLOAD DUP2 MSTORE PUSH1 0x20 ADD PUSH1 0x3 DUP3 ADD SLOAD DUP2 MSTORE PUSH1 0x20 ADD PUSH1 0x4 DUP3 ADD SLOAD DUP2 MSTORE POP POP SWAP1 POP PUSH2 0xAD9 DUP2 PUSH2 0xF56 JUMP JUMPDEST PUSH2 0xB18 JUMPI PUSH1 0x40 MLOAD PUSH32 0x8C379A000000000000000000000000000000000000000000000000000000000 DUP2 MSTORE PUSH1 0x4 ADD PUSH2 0xB0F SWAP1 PUSH2 0x183E JUMP JUMPDEST PUSH1 0x40 MLOAD DUP1 SWAP2 SUB SWAP1 REVERT JUMPDEST PUSH1 0x5 PUSH1 0x0 CALLER PUSH20 0xFFFFFFFFFFFFFFFFFFFFFFFFFFFFFFFFFFFFFFFF AND PUSH20 0xFFFFFFFFFFFFFFFFFFFFFFFFFFFFFFFFFFFFFFFF AND DUP2 MSTORE PUSH1 0x20 ADD SWAP1 DUP2 MSTORE PUSH1 0x20 ADD PUSH1 0x0 KECCAK256 PUSH1 0x0 DUP1 DUP3 ADD PUSH1 0x0 PUSH2 0x100 EXP DUP2 SLOAD SWAP1 PUSH20 0xFFFFFFFFFFFFFFFFFFFFFFFFFFFFFFFFFFFFFFFF MUL NOT AND SWAP1 SSTORE PUSH1 0x1 DUP3 ADD PUSH1 0x0 PUSH2 0x100 EXP DUP2 SLOAD SWAP1 PUSH20 0xFFFFFFFFFFFFFFFFFFFFFFFFFFFFFFFFFFFFFFFF MUL NOT AND SWAP1 SSTORE PUSH1 0x2 DUP3 ADD PUSH1 0x0 SWAP1 SSTORE PUSH1 0x3 DUP3 ADD PUSH1 0x0 SWAP1 SSTORE PUSH1 0x4 DUP3 ADD PUSH1 0x0 SWAP1 SSTORE POP POP CALLER PUSH20 0xFFFFFFFFFFFFFFFFFFFFFFFFFFFFFFFFFFFFFFFF AND DUP2 PUSH1 0x0 ADD MLOAD PUSH20 0xFFFFFFFFFFFFFFFFFFFFFFFFFFFFFFFFFFFFFFFF AND EQ PUSH2 0xC00 JUMPI PUSH2 0xBFF PUSH2 0x185E JUMP JUMPDEST JUMPDEST PUSH1 0x0 CALLER PUSH20 0xFFFFFFFFFFFFFFFFFFFFFFFFFFFFFFFFFFFFFFFF AND PUSH2 0x8FC DUP4 PUSH1 0x40 ADD MLOAD SWAP1 DUP2 ISZERO MUL SWAP1 PUSH1 0x40 MLOAD PUSH1 0x0 PUSH1 0x40 MLOAD DUP1 DUP4 SUB DUP2 DUP6 DUP9 DUP9 CALL SWAP4 POP POP POP POP SWAP1 POP DUP1 PUSH2 0xC7D JUMPI PUSH1 0x40 MLOAD PUSH32 0x8C379A000000000000000000000000000000000000000000000000000000000 DUP2 MSTORE PUSH1 0x4 ADD PUSH2 0xC74 SWAP1 PUSH2 0x18FF JUMP JUMPDEST PUSH1 0x40 MLOAD DUP1 SWAP2 SUB SWAP1 REVERT JUMPDEST POP POP PUSH2 0xC87 PUSH2 0xF93 JUMP JUMPDEST JUMP JUMPDEST PUSH2 0xC91 PUSH2 0xE89 JUMP JUMPDEST DUP1 PUSH1 0x3 SLOAD LT ISZERO PUSH2 0xCD6 JUMPI PUSH1 0x40 MLOAD PUSH32 0x8C379A000000000000000000000000000000000000000000000000000000000 DUP2 MSTORE PUSH1 0x4 ADD PUSH2 0xCCD SWAP1 PUSH2 0x19B7 JUMP JUMPDEST PUSH1 0x40 MLOAD DUP1 SWAP2 SUB SWAP1 REVERT JUMPDEST DUP1 PUSH1 0x2 DUP2 SWAP1 SSTORE POP POP JUMP JUMPDEST PUSH2 0xCE8 PUSH2 0xE89 JUMP JUMPDEST PUSH2 0xCF2 PUSH1 0x0 PUSH2 0xF9C JUMP JUMPDEST JUMP JUMPDEST PUSH1 0x5 PUSH1 0x20 MSTORE DUP1 PUSH1 0x0 MSTORE PUSH1 0x40 PUSH1 0x0 KECCAK256 PUSH1 0x0 SWAP2 POP SWAP1 POP DUP1 PUSH1 0x0 ADD PUSH1 0x0 SWAP1 SLOAD SWAP1 PUSH2 0x100 EXP SWAP1 DIV PUSH20 0xFFFFFFFFFFFFFFFFFFFFFFFFFFFFFFFFFFFFFFFF AND SWAP1 DUP1 PUSH1 0x1 ADD PUSH1 0x0 SWAP1 SLOAD SWAP1 PUSH2 0x100 EXP SWAP1 DIV PUSH20 0xFFFFFFFFFFFFFFFFFFFFFFFFFFFFFFFFFFFFFFFF AND SWAP1 DUP1 PUSH1 0x2 ADD SLOAD SWAP1 DUP1 PUSH1 0x3 ADD SLOAD SWAP1 DUP1 PUSH1 0x4 ADD SLOAD SWAP1 POP DUP6 JUMP JUMPDEST PUSH1 0x2 SLOAD DUP2 JUMP JUMPDEST PUSH1 0x0 DUP1 PUSH1 0x0 SWAP1 SLOAD SWAP1 PUSH2 0x100 EXP SWAP1 DIV PUSH20 0xFFFFFFFFFFFFFFFFFFFFFFFFFFFFFFFFFFFFFFFF AND SWAP1 POP SWAP1 JUMP JUMPDEST PUSH1 0x6 SLOAD DUP2 JUMP JUMPDEST PUSH2 0xDA7 PUSH2 0xE89 JUMP JUMPDEST PUSH1 0x2 SLOAD DUP2 LT ISZERO PUSH2 0xDEC JUMPI PUSH1 0x40 MLOAD PUSH32 0x8C379A000000000000000000000000000000000000000000000000000000000 DUP2 MSTORE PUSH1 0x4 ADD PUSH2 0xDE3 SWAP1 PUSH2 0x19B7 JUMP JUMPDEST PUSH1 0x40 MLOAD DUP1 SWAP2 SUB SWAP1 REVERT JUMPDEST DUP1 PUSH1 0x3 DUP2 SWAP1 SSTORE POP POP JUMP JUMPDEST PUSH2 0xDFE PUSH2 0xE89 JUMP JUMPDEST JUMP JUMPDEST PUSH1 0x3 SLOAD DUP2 JUMP JUMPDEST PUSH2 0xE0E PUSH2 0xE89 JUMP JUMPDEST PUSH1 0x0 PUSH20 0xFFFFFFFFFFFFFFFFFFFFFFFFFFFFFFFFFFFFFFFF AND DUP2 PUSH20 0xFFFFFFFFFFFFFFFFFFFFFFFFFFFFFFFFFFFFFFFF AND SUB PUSH2 0xE7D JUMPI PUSH1 0x40 MLOAD PUSH32 0x8C379A000000000000000000000000000000000000000000000000000000000 DUP2 MSTORE PUSH1 0x4 ADD PUSH2 0xE74 SWAP1 PUSH2 0x1A49 JUMP JUMPDEST PUSH1 0x40 MLOAD DUP1 SWAP2 SUB SWAP1 REVERT JUMPDEST PUSH2 0xE86 DUP2 PUSH2 0xF9C JUMP JUMPDEST POP JUMP JUMPDEST PUSH2 0xE91 PUSH2 0x1060 JUMP JUMPDEST PUSH20 0xFFFFFFFFFFFFFFFFFFFFFFFFFFFFFFFFFFFFFFFF AND PUSH2 0xEAF PUSH2 0xD70 JUMP JUMPDEST PUSH20 0xFFFFFFFFFFFFFFFFFFFFFFFFFFFFFFFFFFFFFFFF AND EQ PUSH2 0xF05 JUMPI PUSH1 0x40 MLOAD PUSH32 0x8C379A000000000000000000000000000000000000000000000000000000000 DUP2 MSTORE PUSH1 0x4 ADD PUSH2 0xEFC SWAP1 PUSH2 0x1AB5 JUMP JUMPDEST PUSH1 0x40 MLOAD DUP1 SWAP2 SUB SWAP1 REVERT JUMPDEST JUMP JUMPDEST PUSH1 0x2 PUSH1 0x1 SLOAD SUB PUSH2 0xF4C JUMPI PUSH1 0x40 MLOAD PUSH32 0x8C379A000000000000000000000000000000000000000000000000000000000 DUP2 MSTORE PUSH1 0x4 ADD PUSH2 0xF43 SWAP1 PUSH2 0x1B21 JUMP JUMPDEST PUSH1 0x40 MLOAD DUP1 SWAP2 SUB SWAP1 REVERT JUMPDEST PUSH1 0x2 PUSH1 0x1 DUP2 SWAP1 SSTORE POP JUMP JUMPDEST PUSH1 0x0 DUP1 PUSH20 0xFFFFFFFFFFFFFFFFFFFFFFFFFFFFFFFFFFFFFFFF AND DUP3 PUSH1 0x0 ADD MLOAD PUSH20 0xFFFFFFFFFFFFFFFFFFFFFFFFFFFFFFFFFFFFFFFF AND EQ ISZERO SWAP1 POP SWAP2 SWAP1 POP JUMP JUMPDEST PUSH1 0x1 DUP1 DUP2 SWAP1 SSTORE POP JUMP JUMPDEST PUSH1 0x0 DUP1 PUSH1 0x0 SWAP1 SLOAD SWAP1 PUSH2 0x100 EXP SWAP1 DIV PUSH20 0xFFFFFFFFFFFFFFFFFFFFFFFFFFFFFFFFFFFFFFFF AND SWAP1 POP DUP2 PUSH1 0x0 DUP1 PUSH2 0x100 EXP DUP2 SLOAD DUP2 PUSH20 0xFFFFFFFFFFFFFFFFFFFFFFFFFFFFFFFFFFFFFFFF MUL NOT AND SWAP1 DUP4 PUSH20 0xFFFFFFFFFFFFFFFFFFFFFFFFFFFFFFFFFFFFFFFF AND MUL OR SWAP1 SSTORE POP DUP2 PUSH20 0xFFFFFFFFFFFFFFFFFFFFFFFFFFFFFFFFFFFFFFFF AND DUP2 PUSH20 0xFFFFFFFFFFFFFFFFFFFFFFFFFFFFFFFFFFFFFFFF AND PUSH32 0x8BE0079C531659141344CD1FD0A4F28419497F9722A3DAAFE3B4186F6B6457E0 PUSH1 0x40 MLOAD PUSH1 0x40 MLOAD DUP1 SWAP2 SUB SWAP1 LOG3 POP POP JUMP JUMPDEST PUSH1 0x0 CALLER SWAP1 POP SWAP1 JUMP JUMPDEST PUSH1 0x0 DUP1 REVERT JUMPDEST PUSH1 0x0 PUSH20 0xFFFFFFFFFFFFFFFFFFFFFFFFFFFFFFFFFFFFFFFF DUP3 AND SWAP1 POP SWAP2 SWAP1 POP JUMP JUMPDEST PUSH1 0x0 PUSH2 0x1098 DUP3 PUSH2 0x106D JUMP JUMPDEST SWAP1 POP SWAP2 SWAP1 POP JUMP JUMPDEST PUSH2 0x10A8 DUP2 PUSH2 0x108D JUMP JUMPDEST DUP2 EQ PUSH2 0x10B3 JUMPI PUSH1 0x0 DUP1 REVERT JUMPDEST POP JUMP JUMPDEST PUSH1 0x0 DUP2 CALLDATALOAD SWAP1 POP PUSH2 0x10C5 DUP2 PUSH2 0x109F JUMP JUMPDEST SWAP3 SWAP2 POP POP JUMP JUMPDEST PUSH1 0x0 DUP2 SWAP1 POP SWAP2 SWAP1 POP JUMP JUMPDEST PUSH2 0x10DE DUP2 PUSH2 0x10CB JUMP JUMPDEST DUP2 EQ PUSH2 0x10E9 JUMPI PUSH1 0x0 DUP1 REVERT JUMPDEST POP JUMP JUMPDEST PUSH1 0x0 DUP2 CALLDATALOAD SWAP1 POP PUSH2 0x10FB DUP2 PUSH2 0x10D5 JUMP JUMPDEST SWAP3 SWAP2 POP POP JUMP JUMPDEST PUSH1 0x0 DUP1 PUSH1 0x0 DUP1 PUSH1 0x0 DUP1 PUSH1 0xC0 DUP8 DUP10 SUB SLT ISZERO PUSH2 0x111E JUMPI PUSH2 0x111D PUSH2 0x1068 JUMP JUMPDEST JUMPDEST PUSH1 0x0 PUSH2 0x112C DUP10 DUP3 DUP11 ADD PUSH2 0x10B6 JUMP JUMPDEST SWAP7 POP POP PUSH1 0x20 PUSH2 0x113D DUP10 DUP3 DUP11 ADD PUSH2 0x10EC JUMP JUMPDEST SWAP6 POP POP PUSH1 0x40 PUSH2 0x114E DUP10 DUP3 DUP11 ADD PUSH2 0x10EC JUMP JUMPDEST SWAP5 POP POP PUSH1 0x60 PUSH2 0x115F DUP10 DUP3 DUP11 ADD PUSH2 0x10EC JUMP JUMPDEST SWAP4 POP POP PUSH1 0x80 PUSH2 0x1170 DUP10 DUP3 DUP11 ADD PUSH2 0x10EC JUMP JUMPDEST SWAP3 POP POP PUSH1 0xA0 PUSH2 0x1181 DUP10 DUP3 DUP11 ADD PUSH2 0x10EC JUMP JUMPDEST SWAP2 POP POP SWAP3 SWAP6 POP SWAP3 SWAP6 POP SWAP3 SWAP6 JUMP JUMPDEST PUSH1 0x0 DUP1 PUSH1 0x0 PUSH1 0x60 DUP5 DUP7 SUB SLT ISZERO PUSH2 0x11A7 JUMPI PUSH2 0x11A6 PUSH2 0x1068 JUMP JUMPDEST JUMPDEST PUSH1 0x0 PUSH2 0x11B5 DUP7 DUP3 DUP8 ADD PUSH2 0x10B6 JUMP JUMPDEST SWAP4 POP POP PUSH1 0x20 PUSH2 0x11C6 DUP7 DUP3 DUP8 ADD PUSH2 0x10EC JUMP JUMPDEST SWAP3 POP POP PUSH1 0x40 PUSH2 0x11D7 DUP7 DUP3 DUP8 ADD PUSH2 0x10EC JUMP JUMPDEST SWAP2 POP POP SWAP3 POP SWAP3 POP SWAP3 JUMP JUMPDEST PUSH2 0x11EA DUP2 PUSH2 0x108D JUMP JUMPDEST DUP3 MSTORE POP POP JUMP JUMPDEST PUSH1 0x0 PUSH1 0x20 DUP3 ADD SWAP1 POP PUSH2 0x1205 PUSH1 0x0 DUP4 ADD DUP5 PUSH2 0x11E1 JUMP JUMPDEST SWAP3 SWAP2 POP POP JUMP JUMPDEST PUSH1 0x0 PUSH1 0x20 DUP3 DUP5 SUB SLT ISZERO PUSH2 0x1221 JUMPI PUSH2 0x1220 PUSH2 0x1068 JUMP JUMPDEST JUMPDEST PUSH1 0x0 PUSH2 0x122F DUP5 DUP3 DUP6 ADD PUSH2 0x10EC JUMP JUMPDEST SWAP2 POP POP SWAP3 SWAP2 POP POP JUMP JUMPDEST PUSH1 0x0 PUSH1 0x20 DUP3 DUP5 SUB SLT ISZERO PUSH2 0x124E JUMPI PUSH2 0x124D PUSH2 0x1068 JUMP JUMPDEST JUMPDEST PUSH1 0x0 PUSH2 0x125C DUP5 DUP3 DUP6 ADD PUSH2 0x10B6 JUMP JUMPDEST SWAP2 POP POP SWAP3 SWAP2 POP POP JUMP JUMPDEST PUSH2 0x126E DUP2 PUSH2 0x10CB JUMP JUMPDEST DUP3 MSTORE POP POP JUMP JUMPDEST PUSH1 0x0 PUSH1 0xA0 DUP3 ADD SWAP1 POP PUSH2 0x1289 PUSH1 0x0 DUP4 ADD DUP9 PUSH2 0x11E1 JUMP JUMPDEST PUSH2 0x1296 PUSH1 0x20 DUP4 ADD DUP8 PUSH2 0x11E1 JUMP JUMPDEST PUSH2 0x12A3 PUSH1 0x40 DUP4 ADD DUP7 PUSH2 0x1265 JUMP JUMPDEST PUSH2 0x12B0 PUSH1 0x60 DUP4 ADD DUP6 PUSH2 0x1265 JUMP JUMPDEST PUSH2 0x12BD PUSH1 0x80 DUP4 ADD DUP5 PUSH2 0x1265 JUMP JUMPDEST SWAP7 SWAP6 POP POP POP POP POP POP JUMP JUMPDEST PUSH1 0x0 PUSH1 0x20 DUP3 ADD SWAP1 POP PUSH2 0x12DC PUSH1 0x0 DUP4 ADD DUP5 PUSH2 0x1265 JUMP JUMPDEST SWAP3 SWAP2 POP POP JUMP JUMPDEST PUSH1 0x0 DUP3 DUP3 MSTORE PUSH1 0x20 DUP3 ADD SWAP1 POP SWAP3 SWAP2 POP POP JUMP JUMPDEST PUSH32 0x4E6F207265717565737420746F2070726F636573730000000000000000000000 PUSH1 0x0 DUP3 ADD MSTORE POP JUMP JUMPDEST PUSH1 0x0 PUSH2 0x1329 PUSH1 0x15 DUP4 PUSH2 0x12E2 JUMP JUMPDEST SWAP2 POP PUSH2 0x1334 DUP3 PUSH2 0x12F3 JUMP JUMPDEST PUSH1 0x20 DUP3 ADD SWAP1 POP SWAP2 SWAP1 POP JUMP JUMPDEST PUSH1 0x0 PUSH1 0x20 DUP3 ADD SWAP1 POP DUP2 DUP2 SUB PUSH1 0x0 DUP4 ADD MSTORE PUSH2 0x1358 DUP2 PUSH2 0x131C JUMP JUMPDEST SWAP1 POP SWAP2 SWAP1 POP JUMP JUMPDEST PUSH32 0x426F6E646572206665652063616E6E6F742065786365656420616D6F756E742E PUSH1 0x0 DUP3 ADD MSTORE POP JUMP JUMPDEST PUSH1 0x0 PUSH2 0x1395 PUSH1 0x20 DUP4 PUSH2 0x12E2 JUMP JUMPDEST SWAP2 POP PUSH2 0x13A0 DUP3 PUSH2 0x135F JUMP JUMPDEST PUSH1 0x20 DUP3 ADD SWAP1 POP SWAP2 SWAP1 POP JUMP JUMPDEST PUSH1 0x0 PUSH1 0x20 DUP3 ADD SWAP1 POP DUP2 DUP2 SUB PUSH1 0x0 DUP4 ADD MSTORE PUSH2 0x13C4 DUP2 PUSH2 0x1388 JUMP JUMPDEST SWAP1 POP SWAP2 SWAP1 POP JUMP JUMPDEST PUSH32 0x4661696C656420746F20726566756E64206578656375746F7200000000000000 PUSH1 0x0 DUP3 ADD MSTORE POP JUMP JUMPDEST PUSH1 0x0 PUSH2 0x1401 PUSH1 0x19 DUP4 PUSH2 0x12E2 JUMP JUMPDEST SWAP2 POP PUSH2 0x140C DUP3 PUSH2 0x13CB JUMP JUMPDEST PUSH1 0x20 DUP3 ADD SWAP1 POP SWAP2 SWAP1 POP JUMP JUMPDEST PUSH1 0x0 PUSH1 0x20 DUP3 ADD SWAP1 POP DUP2 DUP2 SUB PUSH1 0x0 DUP4 ADD MSTORE PUSH2 0x1430 DUP2 PUSH2 0x13F4 JUMP JUMPDEST SWAP1 POP SWAP2 SWAP1 POP JUMP JUMPDEST PUSH1 0x0 PUSH2 0x100 DUP3 ADD SWAP1 POP PUSH2 0x144D PUSH1 0x0 DUP4 ADD DUP12 PUSH2 0x1265 JUMP JUMPDEST PUSH2 0x145A PUSH1 0x20 DUP4 ADD DUP11 PUSH2 0x11E1 JUMP JUMPDEST PUSH2 0x1467 PUSH1 0x40 DUP4 ADD DUP10 PUSH2 0x1265 JUMP JUMPDEST PUSH2 0x1474 PUSH1 0x60 DUP4 ADD DUP9 PUSH2 0x1265 JUMP JUMPDEST PUSH2 0x1481 PUSH1 0x80 DUP4 ADD DUP8 PUSH2 0x1265 JUMP JUMPDEST PUSH2 0x148E PUSH1 0xA0 DUP4 ADD DUP7 PUSH2 0x1265 JUMP JUMPDEST PUSH2 0x149B PUSH1 0xC0 DUP4 ADD DUP6 PUSH2 0x1265 JUMP JUMPDEST PUSH2 0x14A8 PUSH1 0xE0 DUP4 ADD DUP5 PUSH2 0x1265 JUMP JUMPDEST SWAP10 SWAP9 POP POP POP POP POP POP POP POP POP JUMP JUMPDEST PUSH32 0x53656E646572206D6179206E6F74206265203020616464726573730000000000 PUSH1 0x0 DUP3 ADD MSTORE POP JUMP JUMPDEST PUSH1 0x0 PUSH2 0x14EB PUSH1 0x1B DUP4 PUSH2 0x12E2 JUMP JUMPDEST SWAP2 POP PUSH2 0x14F6 DUP3 PUSH2 0x14B5 JUMP JUMPDEST PUSH1 0x20 DUP3 ADD SWAP1 POP SWAP2 SWAP1 POP JUMP JUMPDEST PUSH1 0x0 PUSH1 0x20 DUP3 ADD SWAP1 POP DUP2 DUP2 SUB PUSH1 0x0 DUP4 ADD MSTORE PUSH2 0x151A DUP2 PUSH2 0x14DE JUMP JUMPDEST SWAP1 POP SWAP2 SWAP1 POP JUMP JUMPDEST PUSH32 0x44657374696E6174696F6E2061646472657373206D6179206E6F742062652030 PUSH1 0x0 DUP3 ADD MSTORE PUSH32 0x2061646472657373000000000000000000000000000000000000000000000000 PUSH1 0x20 DUP3 ADD MSTORE POP JUMP JUMPDEST PUSH1 0x0 PUSH2 0x157D PUSH1 0x28 DUP4 PUSH2 0x12E2 JUMP JUMPDEST SWAP2 POP PUSH2 0x1588 DUP3 PUSH2 0x1521 JUMP JUMPDEST PUSH1 0x40 DUP3 ADD SWAP1 POP SWAP2 SWAP1 POP JUMP JUMPDEST PUSH1 0x0 PUSH1 0x20 DUP3 ADD SWAP1 POP DUP2 DUP2 SUB PUSH1 0x0 DUP4 ADD MSTORE PUSH2 0x15AC DUP2 PUSH2 0x1570 JUMP JUMPDEST SWAP1 POP SWAP2 SWAP1 POP JUMP JUMPDEST PUSH32 0x57616E746564204C3120676173207072696365206D7573742062652073747269 PUSH1 0x0 DUP3 ADD MSTORE PUSH32 0x63746C7920706F73697469766500000000000000000000000000000000000000 PUSH1 0x20 DUP3 ADD MSTORE POP JUMP JUMPDEST PUSH1 0x0 PUSH2 0x160F PUSH1 0x2D DUP4 PUSH2 0x12E2 JUMP JUMPDEST SWAP2 POP PUSH2 0x161A DUP3 PUSH2 0x15B3 JUMP JUMPDEST PUSH1 0x40 DUP3 ADD SWAP1 POP SWAP2 SWAP1 POP JUMP JUMPDEST PUSH1 0x0 PUSH1 0x20 DUP3 ADD SWAP1 POP DUP2 DUP2 SUB PUSH1 0x0 DUP4 ADD MSTORE PUSH2 0x163E DUP2 PUSH2 0x1602 JUMP JUMPDEST SWAP1 POP SWAP2 SWAP1 POP JUMP JUMPDEST PUSH32 0x4E6F7420656E6F7567682066756E647320746F2070617920666F722064656C61 PUSH1 0x0 DUP3 ADD MSTORE PUSH32 0x79656420657865637574696F6E00000000000000000000000000000000000000 PUSH1 0x20 DUP3 ADD MSTORE POP JUMP JUMPDEST PUSH1 0x0 PUSH2 0x16A1 PUSH1 0x2D DUP4 PUSH2 0x12E2 JUMP JUMPDEST SWAP2 POP PUSH2 0x16AC DUP3 PUSH2 0x1645 JUMP JUMPDEST PUSH1 0x40 DUP3 ADD SWAP1 POP SWAP2 SWAP1 POP JUMP JUMPDEST PUSH1 0x0 PUSH1 0x20 DUP3 ADD SWAP1 POP DUP2 DUP2 SUB PUSH1 0x0 DUP4 ADD MSTORE PUSH2 0x16D0 DUP2 PUSH2 0x1694 JUMP JUMPDEST SWAP1 POP SWAP2 SWAP1 POP JUMP JUMPDEST PUSH32 0x4E487B7100000000000000000000000000000000000000000000000000000000 PUSH1 0x0 MSTORE PUSH1 0x11 PUSH1 0x4 MSTORE PUSH1 0x24 PUSH1 0x0 REVERT JUMPDEST PUSH1 0x0 PUSH2 0x1711 DUP3 PUSH2 0x10CB JUMP JUMPDEST SWAP2 POP PUSH2 0x171C DUP4 PUSH2 0x10CB JUMP JUMPDEST SWAP3 POP DUP3 DUP3 SUB SWAP1 POP DUP2 DUP2 GT ISZERO PUSH2 0x1734 JUMPI PUSH2 0x1733 PUSH2 0x16D7 JUMP JUMPDEST JUMPDEST SWAP3 SWAP2 POP POP JUMP JUMPDEST PUSH32 0x43616C63756C617465642073656E7420616D6F756E74206D757374206265206C PUSH1 0x0 DUP3 ADD MSTORE PUSH32 0x6172676572207468616E20746865207265717569726564206D696E696D756D20 PUSH1 0x20 DUP3 ADD MSTORE PUSH32 0x616D6F756E74206172726976696E672061742064657374696E6174696F6E2E00 PUSH1 0x40 DUP3 ADD MSTORE POP JUMP JUMPDEST PUSH1 0x0 PUSH2 0x17BC PUSH1 0x5F DUP4 PUSH2 0x12E2 JUMP JUMPDEST SWAP2 POP PUSH2 0x17C7 DUP3 PUSH2 0x173A JUMP JUMPDEST PUSH1 0x60 DUP3 ADD SWAP1 POP SWAP2 SWAP1 POP JUMP JUMPDEST PUSH1 0x0 PUSH1 0x20 DUP3 ADD SWAP1 POP DUP2 DUP2 SUB PUSH1 0x0 DUP4 ADD MSTORE PUSH2 0x17EB DUP2 PUSH2 0x17AF JUMP JUMPDEST SWAP1 POP SWAP2 SWAP1 POP JUMP JUMPDEST PUSH32 0x4E6F207265717565737420746F20776974686472617700000000000000000000 PUSH1 0x0 DUP3 ADD MSTORE POP JUMP JUMPDEST PUSH1 0x0 PUSH2 0x1828 PUSH1 0x16 DUP4 PUSH2 0x12E2 JUMP JUMPDEST SWAP2 POP PUSH2 0x1833 DUP3 PUSH2 0x17F2 JUMP JUMPDEST PUSH1 0x20 DUP3 ADD SWAP1 POP SWAP2 SWAP1 POP JUMP JUMPDEST PUSH1 0x0 PUSH1 0x20 DUP3 ADD SWAP1 POP DUP2 DUP2 SUB PUSH1 0x0 DUP4 ADD MSTORE PUSH2 0x1857 DUP2 PUSH2 0x181B JUMP JUMPDEST SWAP1 POP SWAP2 SWAP1 POP JUMP JUMPDEST PUSH32 0x4E487B7100000000000000000000000000000000000000000000000000000000 PUSH1 0x0 MSTORE PUSH1 0x1 PUSH1 0x4 MSTORE PUSH1 0x24 PUSH1 0x0 REVERT JUMPDEST PUSH32 0x4661696C656420746F2077697468647261772066756E647320746F206D73672E PUSH1 0x0 DUP3 ADD MSTORE PUSH32 0x73656E6465720000000000000000000000000000000000000000000000000000 PUSH1 0x20 DUP3 ADD MSTORE POP JUMP JUMPDEST PUSH1 0x0 PUSH2 0x18E9 PUSH1 0x26 DUP4 PUSH2 0x12E2 JUMP JUMPDEST SWAP2 POP PUSH2 0x18F4 DUP3 PUSH2 0x188D JUMP JUMPDEST PUSH1 0x40 DUP3 ADD SWAP1 POP SWAP2 SWAP1 POP JUMP JUMPDEST PUSH1 0x0 PUSH1 0x20 DUP3 ADD SWAP1 POP DUP2 DUP2 SUB PUSH1 0x0 DUP4 ADD MSTORE PUSH2 0x1918 DUP2 PUSH2 0x18DC JUMP JUMPDEST SWAP1 POP SWAP2 SWAP1 POP JUMP JUMPDEST PUSH32 0x746F74616C207365727669636520666565206D75737420636F76657220617420 PUSH1 0x0 DUP3 ADD MSTORE PUSH32 0x6C6561737420746865207865637574696F6E2067617320726571756972656D65 PUSH1 0x20 DUP3 ADD MSTORE PUSH32 0x6E74000000000000000000000000000000000000000000000000000000000000 PUSH1 0x40 DUP3 ADD MSTORE POP JUMP JUMPDEST PUSH1 0x0 PUSH2 0x19A1 PUSH1 0x42 DUP4 PUSH2 0x12E2 JUMP JUMPDEST SWAP2 POP PUSH2 0x19AC DUP3 PUSH2 0x191F JUMP JUMPDEST PUSH1 0x60 DUP3 ADD SWAP1 POP SWAP2 SWAP1 POP JUMP JUMPDEST PUSH1 0x0 PUSH1 0x20 DUP3 ADD SWAP1 POP DUP2 DUP2 SUB PUSH1 0x0 DUP4 ADD MSTORE PUSH2 0x19D0 DUP2 PUSH2 0x1994 JUMP JUMPDEST SWAP1 POP SWAP2 SWAP1 POP JUMP JUMPDEST PUSH32 0x4F776E61626C653A206E6577206F776E657220697320746865207A65726F2061 PUSH1 0x0 DUP3 ADD MSTORE PUSH32 0x6464726573730000000000000000000000000000000000000000000000000000 PUSH1 0x20 DUP3 ADD MSTORE POP JUMP JUMPDEST PUSH1 0x0 PUSH2 0x1A33 PUSH1 0x26 DUP4 PUSH2 0x12E2 JUMP JUMPDEST SWAP2 POP PUSH2 0x1A3E DUP3 PUSH2 0x19D7 JUMP JUMPDEST PUSH1 0x40 DUP3 ADD SWAP1 POP SWAP2 SWAP1 POP JUMP JUMPDEST PUSH1 0x0 PUSH1 0x20 DUP3 ADD SWAP1 POP DUP2 DUP2 SUB PUSH1 0x0 DUP4 ADD MSTORE PUSH2 0x1A62 DUP2 PUSH2 0x1A26 JUMP JUMPDEST SWAP1 POP SWAP2 SWAP1 POP JUMP JUMPDEST PUSH32 0x4F776E61626C653A2063616C6C6572206973206E6F7420746865206F776E6572 PUSH1 0x0 DUP3 ADD MSTORE POP JUMP JUMPDEST PUSH1 0x0 PUSH2 0x1A9F PUSH1 0x20 DUP4 PUSH2 0x12E2 JUMP JUMPDEST SWAP2 POP PUSH2 0x1AAA DUP3 PUSH2 0x1A69 JUMP JUMPDEST PUSH1 0x20 DUP3 ADD SWAP1 POP SWAP2 SWAP1 POP JUMP JUMPDEST PUSH1 0x0 PUSH1 0x20 DUP3 ADD SWAP1 POP DUP2 DUP2 SUB PUSH1 0x0 DUP4 ADD MSTORE PUSH2 0x1ACE DUP2 PUSH2 0x1A92 JUMP JUMPDEST SWAP1 POP SWAP2 SWAP1 POP JUMP JUMPDEST PUSH32 0x5265656E7472616E637947756172643A207265656E7472616E742063616C6C00 PUSH1 0x0 DUP3 ADD MSTORE POP JUMP JUMPDEST PUSH1 0x0 PUSH2 0x1B0B PUSH1 0x1F DUP4 PUSH2 0x12E2 JUMP JUMPDEST SWAP2 POP PUSH2 0x1B16 DUP3 PUSH2 0x1AD5 JUMP JUMPDEST PUSH1 0x20 DUP3 ADD SWAP1 POP SWAP2 SWAP1 POP JUMP JUMPDEST PUSH1 0x0 PUSH1 0x20 DUP3 ADD SWAP1 POP DUP2 DUP2 SUB PUSH1 0x0 DUP4 ADD MSTORE PUSH2 0x1B3A DUP2 PUSH2 0x1AFE JUMP JUMPDEST SWAP1 POP SWAP2 SWAP1 POP JUMP INVALID LOG2 PUSH5 0x6970667358 0x22 SLT KECCAK256 DUP13 PUSH18 0x2B0A7256A7F380620968BF4432BF3A840031 0xF8 0x5F PUSH13 0x313B29D656D698080B64736F6C PUSH4 0x43000812 STOP CALLER "
				},
				"gasEstimates": {
					"creation": {
						"codeDepositCost": "1406200",
						"executionCost": "infinite",
						"totalCost": "infinite"
					},
					"external": {
						"deposit()": "2708",
						"deposit(address,uint256,uint256)": "infinite",
						"executeRequest(address,uint256,uint256,uint256,uint256,uint256)": "infinite",
						"executionGasRequirement()": "2452",
						"l2HopBridgeAmmWrapper()": "2582",
						"layer1ChainId()": "2496",
						"owner()": "2567",
						"renounceOwnership()": "30465",
						"requests(address)": "infinite",
						"setExecutionGasRequirement(uint256)": "26955",
						"setTotalServiceFee(uint256)": "26932",
						"totalServiceFee()": "2495",
						"transferOwnership(address)": "30832",
						"withdraw()": "infinite"
					},
					"internal": {
						"isDefined(struct BridgeRequest memory)": "infinite"
					}
				},
				"methodIdentifiers": {
					"deposit()": "d0e30db0",
					"deposit(address,uint256,uint256)": "0efe6a8b",
					"executeRequest(address,uint256,uint256,uint256,uint256,uint256)": "04e40d67",
					"executionGasRequirement()": "8429b045",
					"l2HopBridgeAmmWrapper()": "25608185",
					"layer1ChainId()": "b6502943",
					"owner()": "8da5cb5b",
					"renounceOwnership()": "715018a6",
					"requests(address)": "74adad1d",
					"setExecutionGasRequirement(uint256)": "54caef7d",
					"setTotalServiceFee(uint256)": "cd36e12b",
					"totalServiceFee()": "dce27222",
					"transferOwnership(address)": "f2fde38b",
					"withdraw()": "3ccfd60b"
				}
			},
			"storageLayout": {
				"storage": [
					{
						"astId": 7,
						"contract": "solidity/contracts/BridgewhenCheap.sol:BridgeWhenCheap",
						"label": "_owner",
						"offset": 0,
						"slot": "0",
						"type": "t_address"
					},
					{
						"astId": 123,
						"contract": "solidity/contracts/BridgewhenCheap.sol:BridgeWhenCheap",
						"label": "_status",
						"offset": 0,
						"slot": "1",
						"type": "t_uint256"
					},
					{
						"astId": 210,
						"contract": "solidity/contracts/BridgewhenCheap.sol:BridgeWhenCheap",
						"label": "executionGasRequirement",
						"offset": 0,
						"slot": "2",
						"type": "t_uint256"
					},
					{
						"astId": 212,
						"contract": "solidity/contracts/BridgewhenCheap.sol:BridgeWhenCheap",
						"label": "totalServiceFee",
						"offset": 0,
						"slot": "3",
						"type": "t_uint256"
					},
					{
						"astId": 214,
						"contract": "solidity/contracts/BridgewhenCheap.sol:BridgeWhenCheap",
						"label": "l2HopBridgeAmmWrapper",
						"offset": 0,
						"slot": "4",
						"type": "t_address"
					},
					{
						"astId": 219,
						"contract": "solidity/contracts/BridgewhenCheap.sol:BridgeWhenCheap",
						"label": "requests",
						"offset": 0,
						"slot": "5",
						"type": "t_mapping(t_address,t_struct(BridgeRequest)203_storage)"
					},
					{
						"astId": 221,
						"contract": "solidity/contracts/BridgewhenCheap.sol:BridgeWhenCheap",
						"label": "layer1ChainId",
						"offset": 0,
						"slot": "6",
						"type": "t_uint256"
					}
				],
				"types": {
					"t_address": {
						"encoding": "inplace",
						"label": "address",
						"numberOfBytes": "20"
					},
					"t_mapping(t_address,t_struct(BridgeRequest)203_storage)": {
						"encoding": "mapping",
						"key": "t_address",
						"label": "mapping(address => struct BridgeRequest)",
						"numberOfBytes": "32",
						"value": "t_struct(BridgeRequest)203_storage"
					},
					"t_struct(BridgeRequest)203_storage": {
						"encoding": "inplace",
						"label": "struct BridgeRequest",
						"members": [
							{
								"astId": 194,
								"contract": "solidity/contracts/BridgewhenCheap.sol:BridgeWhenCheap",
								"label": "source",
								"offset": 0,
								"slot": "0",
								"type": "t_address"
							},
							{
								"astId": 196,
								"contract": "solidity/contracts/BridgewhenCheap.sol:BridgeWhenCheap",
								"label": "destination",
								"offset": 0,
								"slot": "1",
								"type": "t_address"
							},
							{
								"astId": 198,
								"contract": "solidity/contracts/BridgewhenCheap.sol:BridgeWhenCheap",
								"label": "amount",
								"offset": 0,
								"slot": "2",
								"type": "t_uint256"
							},
							{
								"astId": 200,
								"contract": "solidity/contracts/BridgewhenCheap.sol:BridgeWhenCheap",
								"label": "amountOutMin",
								"offset": 0,
								"slot": "3",
								"type": "t_uint256"
							},
							{
								"astId": 202,
								"contract": "solidity/contracts/BridgewhenCheap.sol:BridgeWhenCheap",
								"label": "wantedL1GasPrice",
								"offset": 0,
								"slot": "4",
								"type": "t_uint256"
							}
						],
						"numberOfBytes": "160"
					},
					"t_uint256": {
						"encoding": "inplace",
						"label": "uint256",
						"numberOfBytes": "32"
					}
				}
			},
			"userdoc": {
				"kind": "user",
				"methods": {},
				"version": 1
			}
		}
	}
}