{
	"solidity/contracts/BridgewhenCheap.sol": {
		"BridgeWhenCheap": {
			"abi": [
				{
					"inputs": [
						{
							"internalType": "uint256",
							"name": "_executionGasRequirement",
							"type": "uint256"
						},
						{
							"internalType": "address",
							"name": "_l2HopBridgeAmmWrapper",
							"type": "address"
						},
						{
							"internalType": "uint256",
							"name": "_layer1ChainId",
							"type": "uint256"
						}
					],
					"stateMutability": "nonpayable",
					"type": "constructor"
				},
				{
					"anonymous": false,
					"inputs": [
						{
							"indexed": true,
							"internalType": "address",
							"name": "previousOwner",
							"type": "address"
						},
						{
							"indexed": true,
							"internalType": "address",
							"name": "newOwner",
							"type": "address"
						}
					],
					"name": "OwnershipTransferred",
					"type": "event"
				},
				{
					"inputs": [
						{
							"internalType": "address",
							"name": "destination",
							"type": "address"
						},
						{
							"internalType": "uint256",
							"name": "wantedL1GasPrice",
							"type": "uint256"
						},
						{
							"internalType": "uint256",
							"name": "amountOutMin",
							"type": "uint256"
						}
					],
					"name": "deposit",
					"outputs": [],
					"stateMutability": "payable",
					"type": "function"
				},
				{
					"inputs": [
						{
							"internalType": "address",
							"name": "requestor",
							"type": "address"
						},
						{
							"internalType": "uint256",
							"name": "bonderFee",
							"type": "uint256"
						},
						{
							"internalType": "uint256",
							"name": "amountOutMin",
							"type": "uint256"
						},
						{
							"internalType": "uint256",
							"name": "deadline",
							"type": "uint256"
						},
						{
							"internalType": "uint256",
							"name": "destamountOutMin",
							"type": "uint256"
						},
						{
							"internalType": "uint256",
							"name": "destdeadline",
							"type": "uint256"
						}
					],
					"name": "executeRequest",
					"outputs": [],
					"stateMutability": "nonpayable",
					"type": "function"
				},
				{
					"inputs": [],
					"name": "executionGasRequirement",
					"outputs": [
						{
							"internalType": "uint256",
							"name": "",
							"type": "uint256"
						}
					],
					"stateMutability": "view",
					"type": "function"
				},
				{
					"inputs": [],
					"name": "l2HopBridgeAmmWrapper",
					"outputs": [
						{
							"internalType": "address",
							"name": "",
							"type": "address"
						}
					],
					"stateMutability": "view",
					"type": "function"
				},
				{
					"inputs": [],
					"name": "layer1ChainId",
					"outputs": [
						{
							"internalType": "uint256",
							"name": "",
							"type": "uint256"
						}
					],
					"stateMutability": "view",
					"type": "function"
				},
				{
					"inputs": [],
					"name": "owner",
					"outputs": [
						{
							"internalType": "address",
							"name": "",
							"type": "address"
						}
					],
					"stateMutability": "view",
					"type": "function"
				},
				{
					"inputs": [],
					"name": "renounceOwnership",
					"outputs": [],
					"stateMutability": "nonpayable",
					"type": "function"
				},
				{
					"inputs": [
						{
							"internalType": "address",
							"name": "",
							"type": "address"
						}
					],
					"name": "requests",
					"outputs": [
						{
							"internalType": "address",
							"name": "source",
							"type": "address"
						},
						{
							"internalType": "address",
							"name": "destination",
							"type": "address"
						},
						{
							"internalType": "uint256",
							"name": "amount",
							"type": "uint256"
						},
						{
							"internalType": "uint256",
							"name": "amountOutMin",
							"type": "uint256"
						},
						{
							"internalType": "uint256",
							"name": "wantedL1GasPrice",
							"type": "uint256"
						}
					],
					"stateMutability": "view",
					"type": "function"
				},
				{
					"inputs": [
						{
							"internalType": "uint256",
							"name": "amount",
							"type": "uint256"
						}
					],
					"name": "setExecutionGasRequirement",
					"outputs": [],
					"stateMutability": "nonpayable",
					"type": "function"
				},
				{
					"inputs": [
						{
							"internalType": "address",
							"name": "newOwner",
							"type": "address"
						}
					],
					"name": "transferOwnership",
					"outputs": [],
					"stateMutability": "nonpayable",
					"type": "function"
				},
				{
					"inputs": [],
					"name": "withdraw",
					"outputs": [],
					"stateMutability": "nonpayable",
					"type": "function"
				}
			],
			"devdoc": {
				"custom:security-contact": "bridge-when-cheap@gmail.com",
				"kind": "dev",
				"methods": {
					"owner()": {
						"details": "Returns the address of the current owner."
					},
					"renounceOwnership()": {
						"details": "Leaves the contract without owner. It will not be possible to call `onlyOwner` functions anymore. Can only be called by the current owner. NOTE: Renouncing ownership will leave the contract without an owner, thereby removing any functionality that is only available to the owner."
					},
					"transferOwnership(address)": {
						"details": "Transfers ownership of the contract to a new account (`newOwner`). Can only be called by the current owner."
					}
				},
				"version": 1
			},
			"evm": {
				"assembly": "    /* \"solidity/contracts/BridgewhenCheap.sol\":834:6238  contract BridgeWhenCheap is Ownable, ReentrancyGuard {... */\n  mstore(0x40, 0x80)\n    /* \"solidity/contracts/BridgewhenCheap.sol\":1683:2007  constructor(... */\n  callvalue\n  dup1\n  iszero\n  tag_1\n  jumpi\n  0x00\n  dup1\n  revert\ntag_1:\n  pop\n  mload(0x40)\n  sub(codesize, bytecodeSize)\n  dup1\n  bytecodeSize\n  dup4\n  codecopy\n  dup2\n  dup2\n  add\n  0x40\n  mstore\n  dup2\n  add\n  swap1\n  tag_2\n  swap2\n  swap1\n  tag_3\n  jump\t// in\ntag_2:\n    /* \"@openzeppelin/contracts/access/Ownable.sol\":936:968  _transferOwnership(_msgSender()) */\n  tag_8\n    /* \"@openzeppelin/contracts/access/Ownable.sol\":955:967  _msgSender() */\n  tag_9\n    /* \"@openzeppelin/contracts/access/Ownable.sol\":955:965  _msgSender */\n  shl(0x20, tag_10)\n    /* \"@openzeppelin/contracts/access/Ownable.sol\":955:967  _msgSender() */\n  0x20\n  shr\n  jump\t// in\ntag_9:\n    /* \"@openzeppelin/contracts/access/Ownable.sol\":936:954  _transferOwnership */\n  shl(0x20, tag_11)\n    /* \"@openzeppelin/contracts/access/Ownable.sol\":936:968  _transferOwnership(_msgSender()) */\n  0x20\n  shr\n  jump\t// in\ntag_8:\n    /* \"@openzeppelin/contracts/security/ReentrancyGuard.sol\":1716:1717  1 */\n  0x01\n    /* \"@openzeppelin/contracts/security/ReentrancyGuard.sol\":1821:1828  _status */\n  dup1\n    /* \"@openzeppelin/contracts/security/ReentrancyGuard.sol\":1821:1843  _status = _NOT_ENTERED */\n  dup2\n  swap1\n  sstore\n  pop\n    /* \"solidity/contracts/BridgewhenCheap.sol\":1880:1904  _executionGasRequirement */\n  dup3\n    /* \"solidity/contracts/BridgewhenCheap.sol\":1854:1877  executionGasRequirement */\n  0x02\n    /* \"solidity/contracts/BridgewhenCheap.sol\":1854:1904  executionGasRequirement = _executionGasRequirement */\n  dup2\n  swap1\n  sstore\n  pop\n    /* \"solidity/contracts/BridgewhenCheap.sol\":1938:1960  _l2HopBridgeAmmWrapper */\n  dup2\n    /* \"solidity/contracts/BridgewhenCheap.sol\":1914:1935  l2HopBridgeAmmWrapper */\n  0x03\n  0x00\n    /* \"solidity/contracts/BridgewhenCheap.sol\":1914:1960  l2HopBridgeAmmWrapper = _l2HopBridgeAmmWrapper */\n  0x0100\n  exp\n  dup2\n  sload\n  dup2\n  0xffffffffffffffffffffffffffffffffffffffff\n  mul\n  not\n  and\n  swap1\n  dup4\n  0xffffffffffffffffffffffffffffffffffffffff\n  and\n  mul\n  or\n  swap1\n  sstore\n  pop\n    /* \"solidity/contracts/BridgewhenCheap.sol\":1986:2000  _layer1ChainId */\n  dup1\n    /* \"solidity/contracts/BridgewhenCheap.sol\":1970:1983  layer1ChainId */\n  0x05\n    /* \"solidity/contracts/BridgewhenCheap.sol\":1970:2000  layer1ChainId = _layer1ChainId */\n  dup2\n  swap1\n  sstore\n  pop\n    /* \"solidity/contracts/BridgewhenCheap.sol\":1683:2007  constructor(... */\n  pop\n  pop\n  pop\n    /* \"solidity/contracts/BridgewhenCheap.sol\":834:6238  contract BridgeWhenCheap is Ownable, ReentrancyGuard {... */\n  jump(tag_14)\n    /* \"@openzeppelin/contracts/utils/Context.sol\":640:736  function _msgSender() internal view virtual returns (address) {... */\ntag_10:\n    /* \"@openzeppelin/contracts/utils/Context.sol\":693:700  address */\n  0x00\n    /* \"@openzeppelin/contracts/utils/Context.sol\":719:729  msg.sender */\n  caller\n    /* \"@openzeppelin/contracts/utils/Context.sol\":712:729  return msg.sender */\n  swap1\n  pop\n    /* \"@openzeppelin/contracts/utils/Context.sol\":640:736  function _msgSender() internal view virtual returns (address) {... */\n  swap1\n  jump\t// out\n    /* \"@openzeppelin/contracts/access/Ownable.sol\":2433:2620  function _transferOwnership(address newOwner) internal virtual {... */\ntag_11:\n    /* \"@openzeppelin/contracts/access/Ownable.sol\":2506:2522  address oldOwner */\n  0x00\n    /* \"@openzeppelin/contracts/access/Ownable.sol\":2525:2531  _owner */\n  dup1\n  0x00\n  swap1\n  sload\n  swap1\n  0x0100\n  exp\n  swap1\n  div\n  0xffffffffffffffffffffffffffffffffffffffff\n  and\n    /* \"@openzeppelin/contracts/access/Ownable.sol\":2506:2531  address oldOwner = _owner */\n  swap1\n  pop\n    /* \"@openzeppelin/contracts/access/Ownable.sol\":2550:2558  newOwner */\n  dup2\n    /* \"@openzeppelin/contracts/access/Ownable.sol\":2541:2547  _owner */\n  0x00\n  dup1\n    /* \"@openzeppelin/contracts/access/Ownable.sol\":2541:2558  _owner = newOwner */\n  0x0100\n  exp\n  dup2\n  sload\n  dup2\n  0xffffffffffffffffffffffffffffffffffffffff\n  mul\n  not\n  and\n  swap1\n  dup4\n  0xffffffffffffffffffffffffffffffffffffffff\n  and\n  mul\n  or\n  swap1\n  sstore\n  pop\n    /* \"@openzeppelin/contracts/access/Ownable.sol\":2604:2612  newOwner */\n  dup2\n    /* \"@openzeppelin/contracts/access/Ownable.sol\":2573:2613  OwnershipTransferred(oldOwner, newOwner) */\n  0xffffffffffffffffffffffffffffffffffffffff\n  and\n    /* \"@openzeppelin/contracts/access/Ownable.sol\":2594:2602  oldOwner */\n  dup2\n    /* \"@openzeppelin/contracts/access/Ownable.sol\":2573:2613  OwnershipTransferred(oldOwner, newOwner) */\n  0xffffffffffffffffffffffffffffffffffffffff\n  and\n  0x8be0079c531659141344cd1fd0a4f28419497f9722a3daafe3b4186f6b6457e0\n  mload(0x40)\n  mload(0x40)\n  dup1\n  swap2\n  sub\n  swap1\n  log3\n    /* \"@openzeppelin/contracts/access/Ownable.sol\":2496:2620  {... */\n  pop\n    /* \"@openzeppelin/contracts/access/Ownable.sol\":2433:2620  function _transferOwnership(address newOwner) internal virtual {... */\n  pop\n  jump\t// out\n    /* \"#utility.yul\":88:205   */\ntag_18:\n    /* \"#utility.yul\":197:198   */\n  0x00\n    /* \"#utility.yul\":194:195   */\n  dup1\n    /* \"#utility.yul\":187:199   */\n  revert\n    /* \"#utility.yul\":334:411   */\ntag_20:\n    /* \"#utility.yul\":371:378   */\n  0x00\n    /* \"#utility.yul\":400:405   */\n  dup2\n    /* \"#utility.yul\":389:405   */\n  swap1\n  pop\n    /* \"#utility.yul\":334:411   */\n  swap2\n  swap1\n  pop\n  jump\t// out\n    /* \"#utility.yul\":417:539   */\ntag_21:\n    /* \"#utility.yul\":490:514   */\n  tag_33\n    /* \"#utility.yul\":508:513   */\n  dup2\n    /* \"#utility.yul\":490:514   */\n  tag_20\n  jump\t// in\ntag_33:\n    /* \"#utility.yul\":483:488   */\n  dup2\n    /* \"#utility.yul\":480:515   */\n  eq\n    /* \"#utility.yul\":470:533   */\n  tag_34\n  jumpi\n    /* \"#utility.yul\":529:530   */\n  0x00\n    /* \"#utility.yul\":526:527   */\n  dup1\n    /* \"#utility.yul\":519:531   */\n  revert\n    /* \"#utility.yul\":470:533   */\ntag_34:\n    /* \"#utility.yul\":417:539   */\n  pop\n  jump\t// out\n    /* \"#utility.yul\":545:688   */\ntag_22:\n    /* \"#utility.yul\":602:607   */\n  0x00\n    /* \"#utility.yul\":633:639   */\n  dup2\n    /* \"#utility.yul\":627:640   */\n  mload\n    /* \"#utility.yul\":618:640   */\n  swap1\n  pop\n    /* \"#utility.yul\":649:682   */\n  tag_36\n    /* \"#utility.yul\":676:681   */\n  dup2\n    /* \"#utility.yul\":649:682   */\n  tag_21\n  jump\t// in\ntag_36:\n    /* \"#utility.yul\":545:688   */\n  swap3\n  swap2\n  pop\n  pop\n  jump\t// out\n    /* \"#utility.yul\":694:820   */\ntag_23:\n    /* \"#utility.yul\":731:738   */\n  0x00\n    /* \"#utility.yul\":771:813   */\n  0xffffffffffffffffffffffffffffffffffffffff\n    /* \"#utility.yul\":764:769   */\n  dup3\n    /* \"#utility.yul\":760:814   */\n  and\n    /* \"#utility.yul\":749:814   */\n  swap1\n  pop\n    /* \"#utility.yul\":694:820   */\n  swap2\n  swap1\n  pop\n  jump\t// out\n    /* \"#utility.yul\":826:922   */\ntag_24:\n    /* \"#utility.yul\":863:870   */\n  0x00\n    /* \"#utility.yul\":892:916   */\n  tag_39\n    /* \"#utility.yul\":910:915   */\n  dup3\n    /* \"#utility.yul\":892:916   */\n  tag_23\n  jump\t// in\ntag_39:\n    /* \"#utility.yul\":881:916   */\n  swap1\n  pop\n    /* \"#utility.yul\":826:922   */\n  swap2\n  swap1\n  pop\n  jump\t// out\n    /* \"#utility.yul\":928:1050   */\ntag_25:\n    /* \"#utility.yul\":1001:1025   */\n  tag_41\n    /* \"#utility.yul\":1019:1024   */\n  dup2\n    /* \"#utility.yul\":1001:1025   */\n  tag_24\n  jump\t// in\ntag_41:\n    /* \"#utility.yul\":994:999   */\n  dup2\n    /* \"#utility.yul\":991:1026   */\n  eq\n    /* \"#utility.yul\":981:1044   */\n  tag_42\n  jumpi\n    /* \"#utility.yul\":1040:1041   */\n  0x00\n    /* \"#utility.yul\":1037:1038   */\n  dup1\n    /* \"#utility.yul\":1030:1042   */\n  revert\n    /* \"#utility.yul\":981:1044   */\ntag_42:\n    /* \"#utility.yul\":928:1050   */\n  pop\n  jump\t// out\n    /* \"#utility.yul\":1056:1199   */\ntag_26:\n    /* \"#utility.yul\":1113:1118   */\n  0x00\n    /* \"#utility.yul\":1144:1150   */\n  dup2\n    /* \"#utility.yul\":1138:1151   */\n  mload\n    /* \"#utility.yul\":1129:1151   */\n  swap1\n  pop\n    /* \"#utility.yul\":1160:1193   */\n  tag_44\n    /* \"#utility.yul\":1187:1192   */\n  dup2\n    /* \"#utility.yul\":1160:1193   */\n  tag_25\n  jump\t// in\ntag_44:\n    /* \"#utility.yul\":1056:1199   */\n  swap3\n  swap2\n  pop\n  pop\n  jump\t// out\n    /* \"#utility.yul\":1205:1868   */\ntag_3:\n    /* \"#utility.yul\":1293:1299   */\n  0x00\n    /* \"#utility.yul\":1301:1307   */\n  dup1\n    /* \"#utility.yul\":1309:1315   */\n  0x00\n    /* \"#utility.yul\":1358:1360   */\n  0x60\n    /* \"#utility.yul\":1346:1355   */\n  dup5\n    /* \"#utility.yul\":1337:1344   */\n  dup7\n    /* \"#utility.yul\":1333:1356   */\n  sub\n    /* \"#utility.yul\":1329:1361   */\n  slt\n    /* \"#utility.yul\":1326:1445   */\n  iszero\n  tag_46\n  jumpi\n    /* \"#utility.yul\":1364:1443   */\n  tag_47\n  tag_18\n  jump\t// in\ntag_47:\n    /* \"#utility.yul\":1326:1445   */\ntag_46:\n    /* \"#utility.yul\":1484:1485   */\n  0x00\n    /* \"#utility.yul\":1509:1573   */\n  tag_48\n    /* \"#utility.yul\":1565:1572   */\n  dup7\n    /* \"#utility.yul\":1556:1562   */\n  dup3\n    /* \"#utility.yul\":1545:1554   */\n  dup8\n    /* \"#utility.yul\":1541:1563   */\n  add\n    /* \"#utility.yul\":1509:1573   */\n  tag_22\n  jump\t// in\ntag_48:\n    /* \"#utility.yul\":1499:1573   */\n  swap4\n  pop\n    /* \"#utility.yul\":1455:1583   */\n  pop\n    /* \"#utility.yul\":1622:1624   */\n  0x20\n    /* \"#utility.yul\":1648:1712   */\n  tag_49\n    /* \"#utility.yul\":1704:1711   */\n  dup7\n    /* \"#utility.yul\":1695:1701   */\n  dup3\n    /* \"#utility.yul\":1684:1693   */\n  dup8\n    /* \"#utility.yul\":1680:1702   */\n  add\n    /* \"#utility.yul\":1648:1712   */\n  tag_26\n  jump\t// in\ntag_49:\n    /* \"#utility.yul\":1638:1712   */\n  swap3\n  pop\n    /* \"#utility.yul\":1593:1722   */\n  pop\n    /* \"#utility.yul\":1761:1763   */\n  0x40\n    /* \"#utility.yul\":1787:1851   */\n  tag_50\n    /* \"#utility.yul\":1843:1850   */\n  dup7\n    /* \"#utility.yul\":1834:1840   */\n  dup3\n    /* \"#utility.yul\":1823:1832   */\n  dup8\n    /* \"#utility.yul\":1819:1841   */\n  add\n    /* \"#utility.yul\":1787:1851   */\n  tag_22\n  jump\t// in\ntag_50:\n    /* \"#utility.yul\":1777:1851   */\n  swap2\n  pop\n    /* \"#utility.yul\":1732:1861   */\n  pop\n    /* \"#utility.yul\":1205:1868   */\n  swap3\n  pop\n  swap3\n  pop\n  swap3\n  jump\t// out\n    /* \"solidity/contracts/BridgewhenCheap.sol\":834:6238  contract BridgeWhenCheap is Ownable, ReentrancyGuard {... */\ntag_14:\n  dataSize(sub_0)\n  dup1\n  dataOffset(sub_0)\n  0x00\n  codecopy\n  0x00\n  return\nstop\n\nsub_0: assembly {\n        /* \"solidity/contracts/BridgewhenCheap.sol\":834:6238  contract BridgeWhenCheap is Ownable, ReentrancyGuard {... */\n      mstore(0x40, 0x80)\n      jumpi(tag_1, lt(calldatasize, 0x04))\n      shr(0xe0, calldataload(0x00))\n      dup1\n      0x715018a6\n      gt\n      tag_13\n      jumpi\n      dup1\n      0x715018a6\n      eq\n      tag_7\n      jumpi\n      dup1\n      0x74adad1d\n      eq\n      tag_8\n      jumpi\n      dup1\n      0x8429b045\n      eq\n      tag_9\n      jumpi\n      dup1\n      0x8da5cb5b\n      eq\n      tag_10\n      jumpi\n      dup1\n      0xb6502943\n      eq\n      tag_11\n      jumpi\n      dup1\n      0xf2fde38b\n      eq\n      tag_12\n      jumpi\n      jump(tag_1)\n    tag_13:\n      dup1\n      0x04e40d67\n      eq\n      tag_2\n      jumpi\n      dup1\n      0x0efe6a8b\n      eq\n      tag_3\n      jumpi\n      dup1\n      0x25608185\n      eq\n      tag_4\n      jumpi\n      dup1\n      0x3ccfd60b\n      eq\n      tag_5\n      jumpi\n      dup1\n      0x54caef7d\n      eq\n      tag_6\n      jumpi\n    tag_1:\n      0x00\n      dup1\n      revert\n        /* \"solidity/contracts/BridgewhenCheap.sol\":4300:5763  function executeRequest(... */\n    tag_2:\n      callvalue\n      dup1\n      iszero\n      tag_14\n      jumpi\n      0x00\n      dup1\n      revert\n    tag_14:\n      pop\n      tag_15\n      0x04\n      dup1\n      calldatasize\n      sub\n      dup2\n      add\n      swap1\n      tag_16\n      swap2\n      swap1\n      tag_17\n      jump\t// in\n    tag_16:\n      tag_18\n      jump\t// in\n    tag_15:\n      stop\n        /* \"solidity/contracts/BridgewhenCheap.sol\":2403:3555  function deposit(... */\n    tag_3:\n      tag_19\n      0x04\n      dup1\n      calldatasize\n      sub\n      dup2\n      add\n      swap1\n      tag_20\n      swap2\n      swap1\n      tag_21\n      jump\t// in\n    tag_20:\n      tag_22\n      jump\t// in\n    tag_19:\n      stop\n        /* \"solidity/contracts/BridgewhenCheap.sol\":1192:1228  address public l2HopBridgeAmmWrapper */\n    tag_4:\n      callvalue\n      dup1\n      iszero\n      tag_23\n      jumpi\n      0x00\n      dup1\n      revert\n    tag_23:\n      pop\n      tag_24\n      tag_25\n      jump\t// in\n    tag_24:\n      mload(0x40)\n      tag_26\n      swap2\n      swap1\n      tag_27\n      jump\t// in\n    tag_26:\n      mload(0x40)\n      dup1\n      swap2\n      sub\n      swap1\n      return\n        /* \"solidity/contracts/BridgewhenCheap.sol\":3611:4127  function withdraw() external nonReentrant {... */\n    tag_5:\n      callvalue\n      dup1\n      iszero\n      tag_28\n      jumpi\n      0x00\n      dup1\n      revert\n    tag_28:\n      pop\n      tag_29\n      tag_30\n      jump\t// in\n    tag_29:\n      stop\n        /* \"solidity/contracts/BridgewhenCheap.sol\":5886:6004  function setExecutionGasRequirement(uint256 amount) public onlyOwner {... */\n    tag_6:\n      callvalue\n      dup1\n      iszero\n      tag_31\n      jumpi\n      0x00\n      dup1\n      revert\n    tag_31:\n      pop\n      tag_32\n      0x04\n      dup1\n      calldatasize\n      sub\n      dup2\n      add\n      swap1\n      tag_33\n      swap2\n      swap1\n      tag_34\n      jump\t// in\n    tag_33:\n      tag_35\n      jump\t// in\n    tag_32:\n      stop\n        /* \"@openzeppelin/contracts/access/Ownable.sol\":1831:1932  function renounceOwnership() public virtual onlyOwner {... */\n    tag_7:\n      callvalue\n      dup1\n      iszero\n      tag_36\n      jumpi\n      0x00\n      dup1\n      revert\n    tag_36:\n      pop\n      tag_37\n      tag_38\n      jump\t// in\n    tag_37:\n      stop\n        /* \"solidity/contracts/BridgewhenCheap.sol\":1496:1545  mapping(address => BridgeRequest) public requests */\n    tag_8:\n      callvalue\n      dup1\n      iszero\n      tag_39\n      jumpi\n      0x00\n      dup1\n      revert\n    tag_39:\n      pop\n      tag_40\n      0x04\n      dup1\n      calldatasize\n      sub\n      dup2\n      add\n      swap1\n      tag_41\n      swap2\n      swap1\n      tag_42\n      jump\t// in\n    tag_41:\n      tag_43\n      jump\t// in\n    tag_40:\n      mload(0x40)\n      tag_44\n      swap6\n      swap5\n      swap4\n      swap3\n      swap2\n      swap1\n      tag_45\n      jump\t// in\n    tag_44:\n      mload(0x40)\n      dup1\n      swap2\n      sub\n      swap1\n      return\n        /* \"solidity/contracts/BridgewhenCheap.sol\":1072:1110  uint256 public executionGasRequirement */\n    tag_9:\n      callvalue\n      dup1\n      iszero\n      tag_46\n      jumpi\n      0x00\n      dup1\n      revert\n    tag_46:\n      pop\n      tag_47\n      tag_48\n      jump\t// in\n    tag_47:\n      mload(0x40)\n      tag_49\n      swap2\n      swap1\n      tag_50\n      jump\t// in\n    tag_49:\n      mload(0x40)\n      dup1\n      swap2\n      sub\n      swap1\n      return\n        /* \"@openzeppelin/contracts/access/Ownable.sol\":1201:1286  function owner() public view virtual returns (address) {... */\n    tag_10:\n      callvalue\n      dup1\n      iszero\n      tag_51\n      jumpi\n      0x00\n      dup1\n      revert\n    tag_51:\n      pop\n      tag_52\n      tag_53\n      jump\t// in\n    tag_52:\n      mload(0x40)\n      tag_54\n      swap2\n      swap1\n      tag_27\n      jump\t// in\n    tag_54:\n      mload(0x40)\n      dup1\n      swap2\n      sub\n      swap1\n      return\n        /* \"solidity/contracts/BridgewhenCheap.sol\":1621:1649  uint256 public layer1ChainId */\n    tag_11:\n      callvalue\n      dup1\n      iszero\n      tag_55\n      jumpi\n      0x00\n      dup1\n      revert\n    tag_55:\n      pop\n      tag_56\n      tag_57\n      jump\t// in\n    tag_56:\n      mload(0x40)\n      tag_58\n      swap2\n      swap1\n      tag_50\n      jump\t// in\n    tag_58:\n      mload(0x40)\n      dup1\n      swap2\n      sub\n      swap1\n      return\n        /* \"@openzeppelin/contracts/access/Ownable.sol\":2081:2279  function transferOwnership(address newOwner) public virtual onlyOwner {... */\n    tag_12:\n      callvalue\n      dup1\n      iszero\n      tag_59\n      jumpi\n      0x00\n      dup1\n      revert\n    tag_59:\n      pop\n      tag_60\n      0x04\n      dup1\n      calldatasize\n      sub\n      dup2\n      add\n      swap1\n      tag_61\n      swap2\n      swap1\n      tag_42\n      jump\t// in\n    tag_61:\n      tag_62\n      jump\t// in\n    tag_60:\n      stop\n        /* \"solidity/contracts/BridgewhenCheap.sol\":4300:5763  function executeRequest(... */\n    tag_18:\n        /* \"@openzeppelin/contracts/access/Ownable.sol\":1094:1107  _checkOwner() */\n      tag_64\n        /* \"@openzeppelin/contracts/access/Ownable.sol\":1094:1105  _checkOwner */\n      tag_65\n        /* \"@openzeppelin/contracts/access/Ownable.sol\":1094:1107  _checkOwner() */\n      jump\t// in\n    tag_64:\n        /* \"@openzeppelin/contracts/security/ReentrancyGuard.sol\":2261:2282  _nonReentrantBefore() */\n      tag_67\n        /* \"@openzeppelin/contracts/security/ReentrancyGuard.sol\":2261:2280  _nonReentrantBefore */\n      tag_68\n        /* \"@openzeppelin/contracts/security/ReentrancyGuard.sol\":2261:2282  _nonReentrantBefore() */\n      jump\t// in\n    tag_67:\n        /* \"solidity/contracts/BridgewhenCheap.sol\":4800:4839  BridgeRequest memory toBeBridgedRequest */\n      0x00\n        /* \"solidity/contracts/BridgewhenCheap.sol\":4842:4850  requests */\n      0x04\n        /* \"solidity/contracts/BridgewhenCheap.sol\":4842:4861  requests[requestor] */\n      0x00\n        /* \"solidity/contracts/BridgewhenCheap.sol\":4851:4860  requestor */\n      dup9\n        /* \"solidity/contracts/BridgewhenCheap.sol\":4842:4861  requests[requestor] */\n      0xffffffffffffffffffffffffffffffffffffffff\n      and\n      0xffffffffffffffffffffffffffffffffffffffff\n      and\n      dup2\n      mstore\n      0x20\n      add\n      swap1\n      dup2\n      mstore\n      0x20\n      add\n      0x00\n      keccak256\n        /* \"solidity/contracts/BridgewhenCheap.sol\":4800:4861  BridgeRequest memory toBeBridgedRequest = requests[requestor] */\n      mload(0x40)\n      dup1\n      0xa0\n      add\n      0x40\n      mstore\n      swap1\n      dup2\n      0x00\n      dup3\n      add\n      0x00\n      swap1\n      sload\n      swap1\n      0x0100\n      exp\n      swap1\n      div\n      0xffffffffffffffffffffffffffffffffffffffff\n      and\n      0xffffffffffffffffffffffffffffffffffffffff\n      and\n      0xffffffffffffffffffffffffffffffffffffffff\n      and\n      dup2\n      mstore\n      0x20\n      add\n      0x01\n      dup3\n      add\n      0x00\n      swap1\n      sload\n      swap1\n      0x0100\n      exp\n      swap1\n      div\n      0xffffffffffffffffffffffffffffffffffffffff\n      and\n      0xffffffffffffffffffffffffffffffffffffffff\n      and\n      0xffffffffffffffffffffffffffffffffffffffff\n      and\n      dup2\n      mstore\n      0x20\n      add\n      0x02\n      dup3\n      add\n      sload\n      dup2\n      mstore\n      0x20\n      add\n      0x03\n      dup3\n      add\n      sload\n      dup2\n      mstore\n      0x20\n      add\n      0x04\n      dup3\n      add\n      sload\n      dup2\n      mstore\n      pop\n      pop\n      swap1\n      pop\n        /* \"solidity/contracts/BridgewhenCheap.sol\":4879:4908  isDefined(toBeBridgedRequest) */\n      tag_70\n        /* \"solidity/contracts/BridgewhenCheap.sol\":4889:4907  toBeBridgedRequest */\n      dup2\n        /* \"solidity/contracts/BridgewhenCheap.sol\":4879:4888  isDefined */\n      tag_71\n        /* \"solidity/contracts/BridgewhenCheap.sol\":4879:4908  isDefined(toBeBridgedRequest) */\n      jump\t// in\n    tag_70:\n        /* \"solidity/contracts/BridgewhenCheap.sol\":4871:4934  require(isDefined(toBeBridgedRequest), \"No request to process\") */\n      tag_72\n      jumpi\n      mload(0x40)\n      0x08c379a000000000000000000000000000000000000000000000000000000000\n      dup2\n      mstore\n      0x04\n      add\n      tag_73\n      swap1\n      tag_74\n      jump\t// in\n    tag_73:\n      mload(0x40)\n      dup1\n      swap2\n      sub\n      swap1\n      revert\n    tag_72:\n        /* \"solidity/contracts/BridgewhenCheap.sol\":4994:5003  bonderFee */\n      dup6\n        /* \"solidity/contracts/BridgewhenCheap.sol\":4965:4983  toBeBridgedRequest */\n      dup2\n        /* \"solidity/contracts/BridgewhenCheap.sol\":4965:4990  toBeBridgedRequest.amount */\n      0x40\n      add\n      mload\n        /* \"solidity/contracts/BridgewhenCheap.sol\":4965:5003  toBeBridgedRequest.amount >= bonderFee */\n      lt\n      iszero\n        /* \"solidity/contracts/BridgewhenCheap.sol\":4944:5061  require(... */\n      tag_75\n      jumpi\n      mload(0x40)\n      0x08c379a000000000000000000000000000000000000000000000000000000000\n      dup2\n      mstore\n      0x04\n      add\n      tag_76\n      swap1\n      tag_77\n      jump\t// in\n    tag_76:\n      mload(0x40)\n      dup1\n      swap2\n      sub\n      swap1\n      revert\n    tag_75:\n        /* \"solidity/contracts/BridgewhenCheap.sol\":5079:5087  requests */\n      0x04\n        /* \"solidity/contracts/BridgewhenCheap.sol\":5079:5098  requests[requestor] */\n      0x00\n        /* \"solidity/contracts/BridgewhenCheap.sol\":5088:5097  requestor */\n      dup9\n        /* \"solidity/contracts/BridgewhenCheap.sol\":5079:5098  requests[requestor] */\n      0xffffffffffffffffffffffffffffffffffffffff\n      and\n      0xffffffffffffffffffffffffffffffffffffffff\n      and\n      dup2\n      mstore\n      0x20\n      add\n      swap1\n      dup2\n      mstore\n      0x20\n      add\n      0x00\n      keccak256\n      0x00\n        /* \"solidity/contracts/BridgewhenCheap.sol\":5072:5098  delete requests[requestor] */\n      dup1\n      dup3\n      add\n      exp(0x0100, 0x00)\n      dup2\n      sload\n      swap1\n      0xffffffffffffffffffffffffffffffffffffffff\n      mul\n      not\n      and\n      swap1\n      sstore\n      0x01\n      dup3\n      add\n      exp(0x0100, 0x00)\n      dup2\n      sload\n      swap1\n      0xffffffffffffffffffffffffffffffffffffffff\n      mul\n      not\n      and\n      swap1\n      sstore\n      0x02\n      dup3\n      add\n      0x00\n      swap1\n      sstore\n      0x03\n      dup3\n      add\n      0x00\n      swap1\n      sstore\n      0x04\n      dup3\n      add\n      0x00\n      swap1\n      sstore\n      pop\n      pop\n        /* \"solidity/contracts/BridgewhenCheap.sol\":5151:5163  bool success */\n      0x00\n        /* \"solidity/contracts/BridgewhenCheap.sol\":5174:5184  msg.sender */\n      caller\n        /* \"solidity/contracts/BridgewhenCheap.sol\":5166:5190  payable(msg.sender).send */\n      0xffffffffffffffffffffffffffffffffffffffff\n      and\n        /* \"solidity/contracts/BridgewhenCheap.sol\":5166:5215  payable(msg.sender).send(executionGasRequirement) */\n      0x08fc\n        /* \"solidity/contracts/BridgewhenCheap.sol\":5191:5214  executionGasRequirement */\n      sload(0x02)\n        /* \"solidity/contracts/BridgewhenCheap.sol\":5166:5215  payable(msg.sender).send(executionGasRequirement) */\n      swap1\n      dup2\n      iszero\n      mul\n      swap1\n      mload(0x40)\n      0x00\n      mload(0x40)\n      dup1\n      dup4\n      sub\n      dup2\n      dup6\n      dup9\n      dup9\n      call\n      swap4\n      pop\n      pop\n      pop\n      pop\n        /* \"solidity/contracts/BridgewhenCheap.sol\":5151:5215  bool success = payable(msg.sender).send(executionGasRequirement) */\n      swap1\n      pop\n        /* \"solidity/contracts/BridgewhenCheap.sol\":5233:5240  success */\n      dup1\n        /* \"solidity/contracts/BridgewhenCheap.sol\":5225:5270  require(success, \"Failed to refund executor\") */\n      tag_79\n      jumpi\n      mload(0x40)\n      0x08c379a000000000000000000000000000000000000000000000000000000000\n      dup2\n      mstore\n      0x04\n      add\n      tag_80\n      swap1\n      tag_81\n      jump\t// in\n    tag_80:\n      mload(0x40)\n      dup1\n      swap2\n      sub\n      swap1\n      revert\n    tag_79:\n        /* \"solidity/contracts/BridgewhenCheap.sol\":5295:5316  l2HopBridgeAmmWrapper */\n      0x03\n      0x00\n      swap1\n      sload\n      swap1\n      0x0100\n      exp\n      swap1\n      div\n      0xffffffffffffffffffffffffffffffffffffffff\n      and\n        /* \"solidity/contracts/BridgewhenCheap.sol\":5281:5329  L2_AmmWrapper(l2HopBridgeAmmWrapper).swapAndSend */\n      0xffffffffffffffffffffffffffffffffffffffff\n      and\n      0xeea0d7b2\n        /* \"solidity/contracts/BridgewhenCheap.sol\":5338:5356  toBeBridgedRequest */\n      dup4\n        /* \"solidity/contracts/BridgewhenCheap.sol\":5338:5363  toBeBridgedRequest.amount */\n      0x40\n      add\n      mload\n        /* \"solidity/contracts/BridgewhenCheap.sol\":5380:5393  layer1ChainId */\n      sload(0x05)\n        /* \"solidity/contracts/BridgewhenCheap.sol\":5407:5425  toBeBridgedRequest */\n      dup6\n        /* \"solidity/contracts/BridgewhenCheap.sol\":5407:5437  toBeBridgedRequest.destination */\n      0x20\n      add\n      mload\n        /* \"solidity/contracts/BridgewhenCheap.sol\":5451:5469  toBeBridgedRequest */\n      dup7\n        /* \"solidity/contracts/BridgewhenCheap.sol\":5451:5476  toBeBridgedRequest.amount */\n      0x40\n      add\n      mload\n        /* \"solidity/contracts/BridgewhenCheap.sol\":5490:5499  bonderFee */\n      dup13\n        /* \"solidity/contracts/BridgewhenCheap.sol\":5513:5525  amountOutMin */\n      dup13\n        /* \"solidity/contracts/BridgewhenCheap.sol\":5539:5547  deadline */\n      dup13\n        /* \"solidity/contracts/BridgewhenCheap.sol\":5561:5577  destamountOutMin */\n      dup13\n        /* \"solidity/contracts/BridgewhenCheap.sol\":5591:5603  destdeadline */\n      dup13\n        /* \"solidity/contracts/BridgewhenCheap.sol\":5281:5756  L2_AmmWrapper(l2HopBridgeAmmWrapper).swapAndSend{ value: toBeBridgedRequest.amount } (... */\n      mload(0x40)\n      dup11\n      0xffffffff\n      and\n      0xe0\n      shl\n      dup2\n      mstore\n      0x04\n      add\n      tag_82\n      swap9\n      swap8\n      swap7\n      swap6\n      swap5\n      swap4\n      swap3\n      swap2\n      swap1\n      tag_83\n      jump\t// in\n    tag_82:\n      0x00\n      mload(0x40)\n      dup1\n      dup4\n      sub\n      dup2\n      dup6\n      dup9\n      dup1\n      extcodesize\n      iszero\n      dup1\n      iszero\n      tag_84\n      jumpi\n      0x00\n      dup1\n      revert\n    tag_84:\n      pop\n      gas\n      call\n      iszero\n      dup1\n      iszero\n      tag_86\n      jumpi\n      returndatasize\n      0x00\n      dup1\n      returndatacopy\n      revert(0x00, returndatasize)\n    tag_86:\n      pop\n      pop\n      pop\n      pop\n      pop\n        /* \"solidity/contracts/BridgewhenCheap.sol\":4790:5763  {... */\n      pop\n      pop\n        /* \"@openzeppelin/contracts/security/ReentrancyGuard.sol\":2303:2323  _nonReentrantAfter() */\n      tag_87\n        /* \"@openzeppelin/contracts/security/ReentrancyGuard.sol\":2303:2321  _nonReentrantAfter */\n      tag_88\n        /* \"@openzeppelin/contracts/security/ReentrancyGuard.sol\":2303:2323  _nonReentrantAfter() */\n      jump\t// in\n    tag_87:\n        /* \"solidity/contracts/BridgewhenCheap.sol\":4300:5763  function executeRequest(... */\n      pop\n      pop\n      pop\n      pop\n      pop\n      pop\n      jump\t// out\n        /* \"solidity/contracts/BridgewhenCheap.sol\":2403:3555  function deposit(... */\n    tag_22:\n        /* \"solidity/contracts/BridgewhenCheap.sol\":2576:2577  0 */\n      0x00\n        /* \"solidity/contracts/BridgewhenCheap.sol\":2554:2578  msg.sender != address(0) */\n      0xffffffffffffffffffffffffffffffffffffffff\n      and\n        /* \"solidity/contracts/BridgewhenCheap.sol\":2554:2564  msg.sender */\n      caller\n        /* \"solidity/contracts/BridgewhenCheap.sol\":2554:2578  msg.sender != address(0) */\n      0xffffffffffffffffffffffffffffffffffffffff\n      and\n      sub\n        /* \"solidity/contracts/BridgewhenCheap.sol\":2546:2610  require(msg.sender != address(0), \"Sender may not be 0 address\") */\n      tag_90\n      jumpi\n      mload(0x40)\n      0x08c379a000000000000000000000000000000000000000000000000000000000\n      dup2\n      mstore\n      0x04\n      add\n      tag_91\n      swap1\n      tag_92\n      jump\t// in\n    tag_91:\n      mload(0x40)\n      dup1\n      swap2\n      sub\n      swap1\n      revert\n    tag_90:\n        /* \"solidity/contracts/BridgewhenCheap.sol\":2664:2665  0 */\n      0x00\n        /* \"solidity/contracts/BridgewhenCheap.sol\":2641:2666  destination != address(0) */\n      0xffffffffffffffffffffffffffffffffffffffff\n      and\n        /* \"solidity/contracts/BridgewhenCheap.sol\":2641:2652  destination */\n      dup4\n        /* \"solidity/contracts/BridgewhenCheap.sol\":2641:2666  destination != address(0) */\n      0xffffffffffffffffffffffffffffffffffffffff\n      and\n      sub\n        /* \"solidity/contracts/BridgewhenCheap.sol\":2620:2732  require(... */\n      tag_93\n      jumpi\n      mload(0x40)\n      0x08c379a000000000000000000000000000000000000000000000000000000000\n      dup2\n      mstore\n      0x04\n      add\n      tag_94\n      swap1\n      tag_95\n      jump\t// in\n    tag_94:\n      mload(0x40)\n      dup1\n      swap2\n      sub\n      swap1\n      revert\n    tag_93:\n        /* \"solidity/contracts/BridgewhenCheap.sol\":2782:2783  0 */\n      0x00\n        /* \"solidity/contracts/BridgewhenCheap.sol\":2763:2779  wantedL1GasPrice */\n      dup3\n        /* \"solidity/contracts/BridgewhenCheap.sol\":2763:2783  wantedL1GasPrice > 0 */\n      gt\n        /* \"solidity/contracts/BridgewhenCheap.sol\":2742:2854  require(... */\n      tag_96\n      jumpi\n      mload(0x40)\n      0x08c379a000000000000000000000000000000000000000000000000000000000\n      dup2\n      mstore\n      0x04\n      add\n      tag_97\n      swap1\n      tag_98\n      jump\t// in\n    tag_97:\n      mload(0x40)\n      dup1\n      swap2\n      sub\n      swap1\n      revert\n    tag_96:\n        /* \"solidity/contracts/BridgewhenCheap.sol\":2898:2921  executionGasRequirement */\n      sload(0x02)\n        /* \"solidity/contracts/BridgewhenCheap.sol\":2885:2894  msg.value */\n      callvalue\n        /* \"solidity/contracts/BridgewhenCheap.sol\":2885:2921  msg.value >= executionGasRequirement */\n      lt\n      iszero\n        /* \"solidity/contracts/BridgewhenCheap.sol\":2864:2992  require(... */\n      tag_99\n      jumpi\n      mload(0x40)\n      0x08c379a000000000000000000000000000000000000000000000000000000000\n      dup2\n      mstore\n      0x04\n      add\n      tag_100\n      swap1\n      tag_101\n      jump\t// in\n    tag_100:\n      mload(0x40)\n      dup1\n      swap2\n      sub\n      swap1\n      revert\n    tag_99:\n        /* \"solidity/contracts/BridgewhenCheap.sol\":3003:3021  uint256 sentAmount */\n      0x00\n        /* \"solidity/contracts/BridgewhenCheap.sol\":3036:3059  executionGasRequirement */\n      sload(0x02)\n        /* \"solidity/contracts/BridgewhenCheap.sol\":3024:3033  msg.value */\n      callvalue\n        /* \"solidity/contracts/BridgewhenCheap.sol\":3024:3059  msg.value - executionGasRequirement */\n      tag_102\n      swap2\n      swap1\n      tag_103\n      jump\t// in\n    tag_102:\n        /* \"solidity/contracts/BridgewhenCheap.sol\":3003:3059  uint256 sentAmount = msg.value - executionGasRequirement */\n      swap1\n      pop\n        /* \"solidity/contracts/BridgewhenCheap.sol\":3166:3178  amountOutMin */\n      dup2\n        /* \"solidity/contracts/BridgewhenCheap.sol\":3152:3162  sentAmount */\n      dup2\n        /* \"solidity/contracts/BridgewhenCheap.sol\":3152:3178  sentAmount >= amountOutMin */\n      lt\n      iszero\n        /* \"solidity/contracts/BridgewhenCheap.sol\":3131:3299  require(... */\n      tag_104\n      jumpi\n      mload(0x40)\n      0x08c379a000000000000000000000000000000000000000000000000000000000\n      dup2\n      mstore\n      0x04\n      add\n      tag_105\n      swap1\n      tag_106\n      jump\t// in\n    tag_105:\n      mload(0x40)\n      dup1\n      swap2\n      sub\n      swap1\n      revert\n    tag_104:\n        /* \"solidity/contracts/BridgewhenCheap.sol\":3333:3548  BridgeRequest({... */\n      mload(0x40)\n      dup1\n      0xa0\n      add\n      0x40\n      mstore\n      dup1\n        /* \"solidity/contracts/BridgewhenCheap.sol\":3369:3379  msg.sender */\n      caller\n        /* \"solidity/contracts/BridgewhenCheap.sol\":3333:3548  BridgeRequest({... */\n      0xffffffffffffffffffffffffffffffffffffffff\n      and\n      dup2\n      mstore\n      0x20\n      add\n        /* \"solidity/contracts/BridgewhenCheap.sol\":3406:3417  destination */\n      dup6\n        /* \"solidity/contracts/BridgewhenCheap.sol\":3333:3548  BridgeRequest({... */\n      0xffffffffffffffffffffffffffffffffffffffff\n      and\n      dup2\n      mstore\n      0x20\n      add\n        /* \"solidity/contracts/BridgewhenCheap.sol\":3439:3449  sentAmount */\n      dup3\n        /* \"solidity/contracts/BridgewhenCheap.sol\":3333:3548  BridgeRequest({... */\n      dup2\n      mstore\n      0x20\n      add\n        /* \"solidity/contracts/BridgewhenCheap.sol\":3477:3489  amountOutMin */\n      dup4\n        /* \"solidity/contracts/BridgewhenCheap.sol\":3333:3548  BridgeRequest({... */\n      dup2\n      mstore\n      0x20\n      add\n        /* \"solidity/contracts/BridgewhenCheap.sol\":3521:3537  wantedL1GasPrice */\n      dup5\n        /* \"solidity/contracts/BridgewhenCheap.sol\":3333:3548  BridgeRequest({... */\n      dup2\n      mstore\n      pop\n        /* \"solidity/contracts/BridgewhenCheap.sol\":3310:3318  requests */\n      0x04\n        /* \"solidity/contracts/BridgewhenCheap.sol\":3310:3330  requests[msg.sender] */\n      0x00\n        /* \"solidity/contracts/BridgewhenCheap.sol\":3319:3329  msg.sender */\n      caller\n        /* \"solidity/contracts/BridgewhenCheap.sol\":3310:3330  requests[msg.sender] */\n      0xffffffffffffffffffffffffffffffffffffffff\n      and\n      0xffffffffffffffffffffffffffffffffffffffff\n      and\n      dup2\n      mstore\n      0x20\n      add\n      swap1\n      dup2\n      mstore\n      0x20\n      add\n      0x00\n      keccak256\n        /* \"solidity/contracts/BridgewhenCheap.sol\":3310:3548  requests[msg.sender] = BridgeRequest({... */\n      0x00\n      dup3\n      add\n      mload\n      dup2\n      0x00\n      add\n      exp(0x0100, 0x00)\n      dup2\n      sload\n      dup2\n      0xffffffffffffffffffffffffffffffffffffffff\n      mul\n      not\n      and\n      swap1\n      dup4\n      0xffffffffffffffffffffffffffffffffffffffff\n      and\n      mul\n      or\n      swap1\n      sstore\n      pop\n      0x20\n      dup3\n      add\n      mload\n      dup2\n      0x01\n      add\n      exp(0x0100, 0x00)\n      dup2\n      sload\n      dup2\n      0xffffffffffffffffffffffffffffffffffffffff\n      mul\n      not\n      and\n      swap1\n      dup4\n      0xffffffffffffffffffffffffffffffffffffffff\n      and\n      mul\n      or\n      swap1\n      sstore\n      pop\n      0x40\n      dup3\n      add\n      mload\n      dup2\n      0x02\n      add\n      sstore\n      0x60\n      dup3\n      add\n      mload\n      dup2\n      0x03\n      add\n      sstore\n      0x80\n      dup3\n      add\n      mload\n      dup2\n      0x04\n      add\n      sstore\n      swap1\n      pop\n      pop\n        /* \"solidity/contracts/BridgewhenCheap.sol\":2536:3555  {... */\n      pop\n        /* \"solidity/contracts/BridgewhenCheap.sol\":2403:3555  function deposit(... */\n      pop\n      pop\n      pop\n      jump\t// out\n        /* \"solidity/contracts/BridgewhenCheap.sol\":1192:1228  address public l2HopBridgeAmmWrapper */\n    tag_25:\n      0x03\n      0x00\n      swap1\n      sload\n      swap1\n      0x0100\n      exp\n      swap1\n      div\n      0xffffffffffffffffffffffffffffffffffffffff\n      and\n      dup2\n      jump\t// out\n        /* \"solidity/contracts/BridgewhenCheap.sol\":3611:4127  function withdraw() external nonReentrant {... */\n    tag_30:\n        /* \"@openzeppelin/contracts/security/ReentrancyGuard.sol\":2261:2282  _nonReentrantBefore() */\n      tag_108\n        /* \"@openzeppelin/contracts/security/ReentrancyGuard.sol\":2261:2280  _nonReentrantBefore */\n      tag_68\n        /* \"@openzeppelin/contracts/security/ReentrancyGuard.sol\":2261:2282  _nonReentrantBefore() */\n      jump\t// in\n    tag_108:\n        /* \"solidity/contracts/BridgewhenCheap.sol\":3663:3699  BridgeRequest memory obsoleteRequest */\n      0x00\n        /* \"solidity/contracts/BridgewhenCheap.sol\":3702:3710  requests */\n      0x04\n        /* \"solidity/contracts/BridgewhenCheap.sol\":3702:3722  requests[msg.sender] */\n      0x00\n        /* \"solidity/contracts/BridgewhenCheap.sol\":3711:3721  msg.sender */\n      caller\n        /* \"solidity/contracts/BridgewhenCheap.sol\":3702:3722  requests[msg.sender] */\n      0xffffffffffffffffffffffffffffffffffffffff\n      and\n      0xffffffffffffffffffffffffffffffffffffffff\n      and\n      dup2\n      mstore\n      0x20\n      add\n      swap1\n      dup2\n      mstore\n      0x20\n      add\n      0x00\n      keccak256\n        /* \"solidity/contracts/BridgewhenCheap.sol\":3663:3722  BridgeRequest memory obsoleteRequest = requests[msg.sender] */\n      mload(0x40)\n      dup1\n      0xa0\n      add\n      0x40\n      mstore\n      swap1\n      dup2\n      0x00\n      dup3\n      add\n      0x00\n      swap1\n      sload\n      swap1\n      0x0100\n      exp\n      swap1\n      div\n      0xffffffffffffffffffffffffffffffffffffffff\n      and\n      0xffffffffffffffffffffffffffffffffffffffff\n      and\n      0xffffffffffffffffffffffffffffffffffffffff\n      and\n      dup2\n      mstore\n      0x20\n      add\n      0x01\n      dup3\n      add\n      0x00\n      swap1\n      sload\n      swap1\n      0x0100\n      exp\n      swap1\n      div\n      0xffffffffffffffffffffffffffffffffffffffff\n      and\n      0xffffffffffffffffffffffffffffffffffffffff\n      and\n      0xffffffffffffffffffffffffffffffffffffffff\n      and\n      dup2\n      mstore\n      0x20\n      add\n      0x02\n      dup3\n      add\n      sload\n      dup2\n      mstore\n      0x20\n      add\n      0x03\n      dup3\n      add\n      sload\n      dup2\n      mstore\n      0x20\n      add\n      0x04\n      dup3\n      add\n      sload\n      dup2\n      mstore\n      pop\n      pop\n      swap1\n      pop\n        /* \"solidity/contracts/BridgewhenCheap.sol\":3776:3802  isDefined(obsoleteRequest) */\n      tag_110\n        /* \"solidity/contracts/BridgewhenCheap.sol\":3786:3801  obsoleteRequest */\n      dup2\n        /* \"solidity/contracts/BridgewhenCheap.sol\":3776:3785  isDefined */\n      tag_71\n        /* \"solidity/contracts/BridgewhenCheap.sol\":3776:3802  isDefined(obsoleteRequest) */\n      jump\t// in\n    tag_110:\n        /* \"solidity/contracts/BridgewhenCheap.sol\":3768:3829  require(isDefined(obsoleteRequest), \"No request to withdraw\") */\n      tag_111\n      jumpi\n      mload(0x40)\n      0x08c379a000000000000000000000000000000000000000000000000000000000\n      dup2\n      mstore\n      0x04\n      add\n      tag_112\n      swap1\n      tag_113\n      jump\t// in\n    tag_112:\n      mload(0x40)\n      dup1\n      swap2\n      sub\n      swap1\n      revert\n    tag_111:\n        /* \"solidity/contracts/BridgewhenCheap.sol\":3847:3855  requests */\n      0x04\n        /* \"solidity/contracts/BridgewhenCheap.sol\":3847:3867  requests[msg.sender] */\n      0x00\n        /* \"solidity/contracts/BridgewhenCheap.sol\":3856:3866  msg.sender */\n      caller\n        /* \"solidity/contracts/BridgewhenCheap.sol\":3847:3867  requests[msg.sender] */\n      0xffffffffffffffffffffffffffffffffffffffff\n      and\n      0xffffffffffffffffffffffffffffffffffffffff\n      and\n      dup2\n      mstore\n      0x20\n      add\n      swap1\n      dup2\n      mstore\n      0x20\n      add\n      0x00\n      keccak256\n      0x00\n        /* \"solidity/contracts/BridgewhenCheap.sol\":3840:3867  delete requests[msg.sender] */\n      dup1\n      dup3\n      add\n      exp(0x0100, 0x00)\n      dup2\n      sload\n      swap1\n      0xffffffffffffffffffffffffffffffffffffffff\n      mul\n      not\n      and\n      swap1\n      sstore\n      0x01\n      dup3\n      add\n      exp(0x0100, 0x00)\n      dup2\n      sload\n      swap1\n      0xffffffffffffffffffffffffffffffffffffffff\n      mul\n      not\n      and\n      swap1\n      sstore\n      0x02\n      dup3\n      add\n      0x00\n      swap1\n      sstore\n      0x03\n      dup3\n      add\n      0x00\n      swap1\n      sstore\n      0x04\n      dup3\n      add\n      0x00\n      swap1\n      sstore\n      pop\n      pop\n        /* \"solidity/contracts/BridgewhenCheap.sol\":3911:3921  msg.sender */\n      caller\n        /* \"solidity/contracts/BridgewhenCheap.sol\":3885:3921  obsoleteRequest.source == msg.sender */\n      0xffffffffffffffffffffffffffffffffffffffff\n      and\n        /* \"solidity/contracts/BridgewhenCheap.sol\":3885:3900  obsoleteRequest */\n      dup2\n        /* \"solidity/contracts/BridgewhenCheap.sol\":3885:3907  obsoleteRequest.source */\n      0x00\n      add\n      mload\n        /* \"solidity/contracts/BridgewhenCheap.sol\":3885:3921  obsoleteRequest.source == msg.sender */\n      0xffffffffffffffffffffffffffffffffffffffff\n      and\n      eq\n        /* \"solidity/contracts/BridgewhenCheap.sol\":3878:3922  assert(obsoleteRequest.source == msg.sender) */\n      tag_114\n      jumpi\n      tag_115\n      tag_116\n      jump\t// in\n    tag_115:\n    tag_114:\n        /* \"solidity/contracts/BridgewhenCheap.sol\":3989:4001  bool success */\n      0x00\n        /* \"solidity/contracts/BridgewhenCheap.sol\":4012:4022  msg.sender */\n      caller\n        /* \"solidity/contracts/BridgewhenCheap.sol\":4004:4028  payable(msg.sender).send */\n      0xffffffffffffffffffffffffffffffffffffffff\n      and\n        /* \"solidity/contracts/BridgewhenCheap.sol\":4004:4052  payable(msg.sender).send(obsoleteRequest.amount) */\n      0x08fc\n        /* \"solidity/contracts/BridgewhenCheap.sol\":4029:4044  obsoleteRequest */\n      dup4\n        /* \"solidity/contracts/BridgewhenCheap.sol\":4029:4051  obsoleteRequest.amount */\n      0x40\n      add\n      mload\n        /* \"solidity/contracts/BridgewhenCheap.sol\":4004:4052  payable(msg.sender).send(obsoleteRequest.amount) */\n      swap1\n      dup2\n      iszero\n      mul\n      swap1\n      mload(0x40)\n      0x00\n      mload(0x40)\n      dup1\n      dup4\n      sub\n      dup2\n      dup6\n      dup9\n      dup9\n      call\n      swap4\n      pop\n      pop\n      pop\n      pop\n        /* \"solidity/contracts/BridgewhenCheap.sol\":3989:4052  bool success = payable(msg.sender).send(obsoleteRequest.amount) */\n      swap1\n      pop\n        /* \"solidity/contracts/BridgewhenCheap.sol\":4070:4077  success */\n      dup1\n        /* \"solidity/contracts/BridgewhenCheap.sol\":4062:4120  require(success, \"Failed to withdraw funds to msg.sender\") */\n      tag_118\n      jumpi\n      mload(0x40)\n      0x08c379a000000000000000000000000000000000000000000000000000000000\n      dup2\n      mstore\n      0x04\n      add\n      tag_119\n      swap1\n      tag_120\n      jump\t// in\n    tag_119:\n      mload(0x40)\n      dup1\n      swap2\n      sub\n      swap1\n      revert\n    tag_118:\n        /* \"solidity/contracts/BridgewhenCheap.sol\":3653:4127  {... */\n      pop\n      pop\n        /* \"@openzeppelin/contracts/security/ReentrancyGuard.sol\":2303:2323  _nonReentrantAfter() */\n      tag_121\n        /* \"@openzeppelin/contracts/security/ReentrancyGuard.sol\":2303:2321  _nonReentrantAfter */\n      tag_88\n        /* \"@openzeppelin/contracts/security/ReentrancyGuard.sol\":2303:2323  _nonReentrantAfter() */\n      jump\t// in\n    tag_121:\n        /* \"solidity/contracts/BridgewhenCheap.sol\":3611:4127  function withdraw() external nonReentrant {... */\n      jump\t// out\n        /* \"solidity/contracts/BridgewhenCheap.sol\":5886:6004  function setExecutionGasRequirement(uint256 amount) public onlyOwner {... */\n    tag_35:\n        /* \"@openzeppelin/contracts/access/Ownable.sol\":1094:1107  _checkOwner() */\n      tag_123\n        /* \"@openzeppelin/contracts/access/Ownable.sol\":1094:1105  _checkOwner */\n      tag_65\n        /* \"@openzeppelin/contracts/access/Ownable.sol\":1094:1107  _checkOwner() */\n      jump\t// in\n    tag_123:\n        /* \"solidity/contracts/BridgewhenCheap.sol\":5991:5997  amount */\n      dup1\n        /* \"solidity/contracts/BridgewhenCheap.sol\":5965:5988  executionGasRequirement */\n      0x02\n        /* \"solidity/contracts/BridgewhenCheap.sol\":5965:5997  executionGasRequirement = amount */\n      dup2\n      swap1\n      sstore\n      pop\n        /* \"solidity/contracts/BridgewhenCheap.sol\":5886:6004  function setExecutionGasRequirement(uint256 amount) public onlyOwner {... */\n      pop\n      jump\t// out\n        /* \"@openzeppelin/contracts/access/Ownable.sol\":1831:1932  function renounceOwnership() public virtual onlyOwner {... */\n    tag_38:\n        /* \"@openzeppelin/contracts/access/Ownable.sol\":1094:1107  _checkOwner() */\n      tag_126\n        /* \"@openzeppelin/contracts/access/Ownable.sol\":1094:1105  _checkOwner */\n      tag_65\n        /* \"@openzeppelin/contracts/access/Ownable.sol\":1094:1107  _checkOwner() */\n      jump\t// in\n    tag_126:\n        /* \"@openzeppelin/contracts/access/Ownable.sol\":1895:1925  _transferOwnership(address(0)) */\n      tag_128\n        /* \"@openzeppelin/contracts/access/Ownable.sol\":1922:1923  0 */\n      0x00\n        /* \"@openzeppelin/contracts/access/Ownable.sol\":1895:1913  _transferOwnership */\n      tag_129\n        /* \"@openzeppelin/contracts/access/Ownable.sol\":1895:1925  _transferOwnership(address(0)) */\n      jump\t// in\n    tag_128:\n        /* \"@openzeppelin/contracts/access/Ownable.sol\":1831:1932  function renounceOwnership() public virtual onlyOwner {... */\n      jump\t// out\n        /* \"solidity/contracts/BridgewhenCheap.sol\":1496:1545  mapping(address => BridgeRequest) public requests */\n    tag_43:\n      mstore(0x20, 0x04)\n      dup1\n      0x00\n      mstore\n      keccak256(0x00, 0x40)\n      0x00\n      swap2\n      pop\n      swap1\n      pop\n      dup1\n      0x00\n      add\n      0x00\n      swap1\n      sload\n      swap1\n      0x0100\n      exp\n      swap1\n      div\n      0xffffffffffffffffffffffffffffffffffffffff\n      and\n      swap1\n      dup1\n      0x01\n      add\n      0x00\n      swap1\n      sload\n      swap1\n      0x0100\n      exp\n      swap1\n      div\n      0xffffffffffffffffffffffffffffffffffffffff\n      and\n      swap1\n      dup1\n      0x02\n      add\n      sload\n      swap1\n      dup1\n      0x03\n      add\n      sload\n      swap1\n      dup1\n      0x04\n      add\n      sload\n      swap1\n      pop\n      dup6\n      jump\t// out\n        /* \"solidity/contracts/BridgewhenCheap.sol\":1072:1110  uint256 public executionGasRequirement */\n    tag_48:\n      sload(0x02)\n      dup2\n      jump\t// out\n        /* \"@openzeppelin/contracts/access/Ownable.sol\":1201:1286  function owner() public view virtual returns (address) {... */\n    tag_53:\n        /* \"@openzeppelin/contracts/access/Ownable.sol\":1247:1254  address */\n      0x00\n        /* \"@openzeppelin/contracts/access/Ownable.sol\":1273:1279  _owner */\n      dup1\n      0x00\n      swap1\n      sload\n      swap1\n      0x0100\n      exp\n      swap1\n      div\n      0xffffffffffffffffffffffffffffffffffffffff\n      and\n        /* \"@openzeppelin/contracts/access/Ownable.sol\":1266:1279  return _owner */\n      swap1\n      pop\n        /* \"@openzeppelin/contracts/access/Ownable.sol\":1201:1286  function owner() public view virtual returns (address) {... */\n      swap1\n      jump\t// out\n        /* \"solidity/contracts/BridgewhenCheap.sol\":1621:1649  uint256 public layer1ChainId */\n    tag_57:\n      sload(0x05)\n      dup2\n      jump\t// out\n        /* \"@openzeppelin/contracts/access/Ownable.sol\":2081:2279  function transferOwnership(address newOwner) public virtual onlyOwner {... */\n    tag_62:\n        /* \"@openzeppelin/contracts/access/Ownable.sol\":1094:1107  _checkOwner() */\n      tag_132\n        /* \"@openzeppelin/contracts/access/Ownable.sol\":1094:1105  _checkOwner */\n      tag_65\n        /* \"@openzeppelin/contracts/access/Ownable.sol\":1094:1107  _checkOwner() */\n      jump\t// in\n    tag_132:\n        /* \"@openzeppelin/contracts/access/Ownable.sol\":2189:2190  0 */\n      0x00\n        /* \"@openzeppelin/contracts/access/Ownable.sol\":2169:2191  newOwner != address(0) */\n      0xffffffffffffffffffffffffffffffffffffffff\n      and\n        /* \"@openzeppelin/contracts/access/Ownable.sol\":2169:2177  newOwner */\n      dup2\n        /* \"@openzeppelin/contracts/access/Ownable.sol\":2169:2191  newOwner != address(0) */\n      0xffffffffffffffffffffffffffffffffffffffff\n      and\n      sub\n        /* \"@openzeppelin/contracts/access/Ownable.sol\":2161:2234  require(newOwner != address(0), \"Ownable: new owner is the zero address\") */\n      tag_134\n      jumpi\n      mload(0x40)\n      0x08c379a000000000000000000000000000000000000000000000000000000000\n      dup2\n      mstore\n      0x04\n      add\n      tag_135\n      swap1\n      tag_136\n      jump\t// in\n    tag_135:\n      mload(0x40)\n      dup1\n      swap2\n      sub\n      swap1\n      revert\n    tag_134:\n        /* \"@openzeppelin/contracts/access/Ownable.sol\":2244:2272  _transferOwnership(newOwner) */\n      tag_137\n        /* \"@openzeppelin/contracts/access/Ownable.sol\":2263:2271  newOwner */\n      dup2\n        /* \"@openzeppelin/contracts/access/Ownable.sol\":2244:2262  _transferOwnership */\n      tag_129\n        /* \"@openzeppelin/contracts/access/Ownable.sol\":2244:2272  _transferOwnership(newOwner) */\n      jump\t// in\n    tag_137:\n        /* \"@openzeppelin/contracts/access/Ownable.sol\":2081:2279  function transferOwnership(address newOwner) public virtual onlyOwner {... */\n      pop\n      jump\t// out\n        /* \"@openzeppelin/contracts/access/Ownable.sol\":1359:1489  function _checkOwner() internal view virtual {... */\n    tag_65:\n        /* \"@openzeppelin/contracts/access/Ownable.sol\":1433:1445  _msgSender() */\n      tag_139\n        /* \"@openzeppelin/contracts/access/Ownable.sol\":1433:1443  _msgSender */\n      tag_140\n        /* \"@openzeppelin/contracts/access/Ownable.sol\":1433:1445  _msgSender() */\n      jump\t// in\n    tag_139:\n        /* \"@openzeppelin/contracts/access/Ownable.sol\":1422:1445  owner() == _msgSender() */\n      0xffffffffffffffffffffffffffffffffffffffff\n      and\n        /* \"@openzeppelin/contracts/access/Ownable.sol\":1422:1429  owner() */\n      tag_141\n        /* \"@openzeppelin/contracts/access/Ownable.sol\":1422:1427  owner */\n      tag_53\n        /* \"@openzeppelin/contracts/access/Ownable.sol\":1422:1429  owner() */\n      jump\t// in\n    tag_141:\n        /* \"@openzeppelin/contracts/access/Ownable.sol\":1422:1445  owner() == _msgSender() */\n      0xffffffffffffffffffffffffffffffffffffffff\n      and\n      eq\n        /* \"@openzeppelin/contracts/access/Ownable.sol\":1414:1482  require(owner() == _msgSender(), \"Ownable: caller is not the owner\") */\n      tag_142\n      jumpi\n      mload(0x40)\n      0x08c379a000000000000000000000000000000000000000000000000000000000\n      dup2\n      mstore\n      0x04\n      add\n      tag_143\n      swap1\n      tag_144\n      jump\t// in\n    tag_143:\n      mload(0x40)\n      dup1\n      swap2\n      sub\n      swap1\n      revert\n    tag_142:\n        /* \"@openzeppelin/contracts/access/Ownable.sol\":1359:1489  function _checkOwner() internal view virtual {... */\n      jump\t// out\n        /* \"@openzeppelin/contracts/security/ReentrancyGuard.sol\":2336:2623  function _nonReentrantBefore() private {... */\n    tag_68:\n        /* \"@openzeppelin/contracts/security/ReentrancyGuard.sol\":1759:1760  2 */\n      0x02\n        /* \"@openzeppelin/contracts/security/ReentrancyGuard.sol\":2468:2475  _status */\n      sload(0x01)\n        /* \"@openzeppelin/contracts/security/ReentrancyGuard.sol\":2468:2487  _status != _ENTERED */\n      sub\n        /* \"@openzeppelin/contracts/security/ReentrancyGuard.sol\":2460:2523  require(_status != _ENTERED, \"ReentrancyGuard: reentrant call\") */\n      tag_146\n      jumpi\n      mload(0x40)\n      0x08c379a000000000000000000000000000000000000000000000000000000000\n      dup2\n      mstore\n      0x04\n      add\n      tag_147\n      swap1\n      tag_148\n      jump\t// in\n    tag_147:\n      mload(0x40)\n      dup1\n      swap2\n      sub\n      swap1\n      revert\n    tag_146:\n        /* \"@openzeppelin/contracts/security/ReentrancyGuard.sol\":1759:1760  2 */\n      0x02\n        /* \"@openzeppelin/contracts/security/ReentrancyGuard.sol\":2598:2605  _status */\n      0x01\n        /* \"@openzeppelin/contracts/security/ReentrancyGuard.sol\":2598:2616  _status = _ENTERED */\n      dup2\n      swap1\n      sstore\n      pop\n        /* \"@openzeppelin/contracts/security/ReentrancyGuard.sol\":2336:2623  function _nonReentrantBefore() private {... */\n      jump\t// out\n        /* \"solidity/contracts/BridgewhenCheap.sol\":6078:6236  function isDefined(BridgeRequest memory request)... */\n    tag_71:\n        /* \"solidity/contracts/BridgewhenCheap.sol\":6174:6178  bool */\n      0x00\n        /* \"solidity/contracts/BridgewhenCheap.sol\":6227:6228  0 */\n      dup1\n        /* \"solidity/contracts/BridgewhenCheap.sol\":6201:6229  request.source != address(0) */\n      0xffffffffffffffffffffffffffffffffffffffff\n      and\n        /* \"solidity/contracts/BridgewhenCheap.sol\":6201:6208  request */\n      dup3\n        /* \"solidity/contracts/BridgewhenCheap.sol\":6201:6215  request.source */\n      0x00\n      add\n      mload\n        /* \"solidity/contracts/BridgewhenCheap.sol\":6201:6229  request.source != address(0) */\n      0xffffffffffffffffffffffffffffffffffffffff\n      and\n      eq\n      iszero\n        /* \"solidity/contracts/BridgewhenCheap.sol\":6194:6229  return request.source != address(0) */\n      swap1\n      pop\n        /* \"solidity/contracts/BridgewhenCheap.sol\":6078:6236  function isDefined(BridgeRequest memory request)... */\n      swap2\n      swap1\n      pop\n      jump\t// out\n        /* \"@openzeppelin/contracts/security/ReentrancyGuard.sol\":2629:2838  function _nonReentrantAfter() private {... */\n    tag_88:\n        /* \"@openzeppelin/contracts/security/ReentrancyGuard.sol\":1716:1717  1 */\n      0x01\n        /* \"@openzeppelin/contracts/security/ReentrancyGuard.sol\":2809:2816  _status */\n      dup1\n        /* \"@openzeppelin/contracts/security/ReentrancyGuard.sol\":2809:2831  _status = _NOT_ENTERED */\n      dup2\n      swap1\n      sstore\n      pop\n        /* \"@openzeppelin/contracts/security/ReentrancyGuard.sol\":2629:2838  function _nonReentrantAfter() private {... */\n      jump\t// out\n        /* \"@openzeppelin/contracts/access/Ownable.sol\":2433:2620  function _transferOwnership(address newOwner) internal virtual {... */\n    tag_129:\n        /* \"@openzeppelin/contracts/access/Ownable.sol\":2506:2522  address oldOwner */\n      0x00\n        /* \"@openzeppelin/contracts/access/Ownable.sol\":2525:2531  _owner */\n      dup1\n      0x00\n      swap1\n      sload\n      swap1\n      0x0100\n      exp\n      swap1\n      div\n      0xffffffffffffffffffffffffffffffffffffffff\n      and\n        /* \"@openzeppelin/contracts/access/Ownable.sol\":2506:2531  address oldOwner = _owner */\n      swap1\n      pop\n        /* \"@openzeppelin/contracts/access/Ownable.sol\":2550:2558  newOwner */\n      dup2\n        /* \"@openzeppelin/contracts/access/Ownable.sol\":2541:2547  _owner */\n      0x00\n      dup1\n        /* \"@openzeppelin/contracts/access/Ownable.sol\":2541:2558  _owner = newOwner */\n      0x0100\n      exp\n      dup2\n      sload\n      dup2\n      0xffffffffffffffffffffffffffffffffffffffff\n      mul\n      not\n      and\n      swap1\n      dup4\n      0xffffffffffffffffffffffffffffffffffffffff\n      and\n      mul\n      or\n      swap1\n      sstore\n      pop\n        /* \"@openzeppelin/contracts/access/Ownable.sol\":2604:2612  newOwner */\n      dup2\n        /* \"@openzeppelin/contracts/access/Ownable.sol\":2573:2613  OwnershipTransferred(oldOwner, newOwner) */\n      0xffffffffffffffffffffffffffffffffffffffff\n      and\n        /* \"@openzeppelin/contracts/access/Ownable.sol\":2594:2602  oldOwner */\n      dup2\n        /* \"@openzeppelin/contracts/access/Ownable.sol\":2573:2613  OwnershipTransferred(oldOwner, newOwner) */\n      0xffffffffffffffffffffffffffffffffffffffff\n      and\n      0x8be0079c531659141344cd1fd0a4f28419497f9722a3daafe3b4186f6b6457e0\n      mload(0x40)\n      mload(0x40)\n      dup1\n      swap2\n      sub\n      swap1\n      log3\n        /* \"@openzeppelin/contracts/access/Ownable.sol\":2496:2620  {... */\n      pop\n        /* \"@openzeppelin/contracts/access/Ownable.sol\":2433:2620  function _transferOwnership(address newOwner) internal virtual {... */\n      pop\n      jump\t// out\n        /* \"@openzeppelin/contracts/utils/Context.sol\":640:736  function _msgSender() internal view virtual returns (address) {... */\n    tag_140:\n        /* \"@openzeppelin/contracts/utils/Context.sol\":693:700  address */\n      0x00\n        /* \"@openzeppelin/contracts/utils/Context.sol\":719:729  msg.sender */\n      caller\n        /* \"@openzeppelin/contracts/utils/Context.sol\":712:729  return msg.sender */\n      swap1\n      pop\n        /* \"@openzeppelin/contracts/utils/Context.sol\":640:736  function _msgSender() internal view virtual returns (address) {... */\n      swap1\n      jump\t// out\n        /* \"#utility.yul\":88:205   */\n    tag_154:\n        /* \"#utility.yul\":197:198   */\n      0x00\n        /* \"#utility.yul\":194:195   */\n      dup1\n        /* \"#utility.yul\":187:199   */\n      revert\n        /* \"#utility.yul\":334:460   */\n    tag_156:\n        /* \"#utility.yul\":371:378   */\n      0x00\n        /* \"#utility.yul\":411:453   */\n      0xffffffffffffffffffffffffffffffffffffffff\n        /* \"#utility.yul\":404:409   */\n      dup3\n        /* \"#utility.yul\":400:454   */\n      and\n        /* \"#utility.yul\":389:454   */\n      swap1\n      pop\n        /* \"#utility.yul\":334:460   */\n      swap2\n      swap1\n      pop\n      jump\t// out\n        /* \"#utility.yul\":466:562   */\n    tag_157:\n        /* \"#utility.yul\":503:510   */\n      0x00\n        /* \"#utility.yul\":532:556   */\n      tag_199\n        /* \"#utility.yul\":550:555   */\n      dup3\n        /* \"#utility.yul\":532:556   */\n      tag_156\n      jump\t// in\n    tag_199:\n        /* \"#utility.yul\":521:556   */\n      swap1\n      pop\n        /* \"#utility.yul\":466:562   */\n      swap2\n      swap1\n      pop\n      jump\t// out\n        /* \"#utility.yul\":568:690   */\n    tag_158:\n        /* \"#utility.yul\":641:665   */\n      tag_201\n        /* \"#utility.yul\":659:664   */\n      dup2\n        /* \"#utility.yul\":641:665   */\n      tag_157\n      jump\t// in\n    tag_201:\n        /* \"#utility.yul\":634:639   */\n      dup2\n        /* \"#utility.yul\":631:666   */\n      eq\n        /* \"#utility.yul\":621:684   */\n      tag_202\n      jumpi\n        /* \"#utility.yul\":680:681   */\n      0x00\n        /* \"#utility.yul\":677:678   */\n      dup1\n        /* \"#utility.yul\":670:682   */\n      revert\n        /* \"#utility.yul\":621:684   */\n    tag_202:\n        /* \"#utility.yul\":568:690   */\n      pop\n      jump\t// out\n        /* \"#utility.yul\":696:835   */\n    tag_159:\n        /* \"#utility.yul\":742:747   */\n      0x00\n        /* \"#utility.yul\":780:786   */\n      dup2\n        /* \"#utility.yul\":767:787   */\n      calldataload\n        /* \"#utility.yul\":758:787   */\n      swap1\n      pop\n        /* \"#utility.yul\":796:829   */\n      tag_204\n        /* \"#utility.yul\":823:828   */\n      dup2\n        /* \"#utility.yul\":796:829   */\n      tag_158\n      jump\t// in\n    tag_204:\n        /* \"#utility.yul\":696:835   */\n      swap3\n      swap2\n      pop\n      pop\n      jump\t// out\n        /* \"#utility.yul\":841:918   */\n    tag_160:\n        /* \"#utility.yul\":878:885   */\n      0x00\n        /* \"#utility.yul\":907:912   */\n      dup2\n        /* \"#utility.yul\":896:912   */\n      swap1\n      pop\n        /* \"#utility.yul\":841:918   */\n      swap2\n      swap1\n      pop\n      jump\t// out\n        /* \"#utility.yul\":924:1046   */\n    tag_161:\n        /* \"#utility.yul\":997:1021   */\n      tag_207\n        /* \"#utility.yul\":1015:1020   */\n      dup2\n        /* \"#utility.yul\":997:1021   */\n      tag_160\n      jump\t// in\n    tag_207:\n        /* \"#utility.yul\":990:995   */\n      dup2\n        /* \"#utility.yul\":987:1022   */\n      eq\n        /* \"#utility.yul\":977:1040   */\n      tag_208\n      jumpi\n        /* \"#utility.yul\":1036:1037   */\n      0x00\n        /* \"#utility.yul\":1033:1034   */\n      dup1\n        /* \"#utility.yul\":1026:1038   */\n      revert\n        /* \"#utility.yul\":977:1040   */\n    tag_208:\n        /* \"#utility.yul\":924:1046   */\n      pop\n      jump\t// out\n        /* \"#utility.yul\":1052:1191   */\n    tag_162:\n        /* \"#utility.yul\":1098:1103   */\n      0x00\n        /* \"#utility.yul\":1136:1142   */\n      dup2\n        /* \"#utility.yul\":1123:1143   */\n      calldataload\n        /* \"#utility.yul\":1114:1143   */\n      swap1\n      pop\n        /* \"#utility.yul\":1152:1185   */\n      tag_210\n        /* \"#utility.yul\":1179:1184   */\n      dup2\n        /* \"#utility.yul\":1152:1185   */\n      tag_161\n      jump\t// in\n    tag_210:\n        /* \"#utility.yul\":1052:1191   */\n      swap3\n      swap2\n      pop\n      pop\n      jump\t// out\n        /* \"#utility.yul\":1197:2254   */\n    tag_17:\n        /* \"#utility.yul\":1301:1307   */\n      0x00\n        /* \"#utility.yul\":1309:1315   */\n      dup1\n        /* \"#utility.yul\":1317:1323   */\n      0x00\n        /* \"#utility.yul\":1325:1331   */\n      dup1\n        /* \"#utility.yul\":1333:1339   */\n      0x00\n        /* \"#utility.yul\":1341:1347   */\n      dup1\n        /* \"#utility.yul\":1390:1393   */\n      0xc0\n        /* \"#utility.yul\":1378:1387   */\n      dup8\n        /* \"#utility.yul\":1369:1376   */\n      dup10\n        /* \"#utility.yul\":1365:1388   */\n      sub\n        /* \"#utility.yul\":1361:1394   */\n      slt\n        /* \"#utility.yul\":1358:1478   */\n      iszero\n      tag_212\n      jumpi\n        /* \"#utility.yul\":1397:1476   */\n      tag_213\n      tag_154\n      jump\t// in\n    tag_213:\n        /* \"#utility.yul\":1358:1478   */\n    tag_212:\n        /* \"#utility.yul\":1517:1518   */\n      0x00\n        /* \"#utility.yul\":1542:1595   */\n      tag_214\n        /* \"#utility.yul\":1587:1594   */\n      dup10\n        /* \"#utility.yul\":1578:1584   */\n      dup3\n        /* \"#utility.yul\":1567:1576   */\n      dup11\n        /* \"#utility.yul\":1563:1585   */\n      add\n        /* \"#utility.yul\":1542:1595   */\n      tag_159\n      jump\t// in\n    tag_214:\n        /* \"#utility.yul\":1532:1595   */\n      swap7\n      pop\n        /* \"#utility.yul\":1488:1605   */\n      pop\n        /* \"#utility.yul\":1644:1646   */\n      0x20\n        /* \"#utility.yul\":1670:1723   */\n      tag_215\n        /* \"#utility.yul\":1715:1722   */\n      dup10\n        /* \"#utility.yul\":1706:1712   */\n      dup3\n        /* \"#utility.yul\":1695:1704   */\n      dup11\n        /* \"#utility.yul\":1691:1713   */\n      add\n        /* \"#utility.yul\":1670:1723   */\n      tag_162\n      jump\t// in\n    tag_215:\n        /* \"#utility.yul\":1660:1723   */\n      swap6\n      pop\n        /* \"#utility.yul\":1615:1733   */\n      pop\n        /* \"#utility.yul\":1772:1774   */\n      0x40\n        /* \"#utility.yul\":1798:1851   */\n      tag_216\n        /* \"#utility.yul\":1843:1850   */\n      dup10\n        /* \"#utility.yul\":1834:1840   */\n      dup3\n        /* \"#utility.yul\":1823:1832   */\n      dup11\n        /* \"#utility.yul\":1819:1841   */\n      add\n        /* \"#utility.yul\":1798:1851   */\n      tag_162\n      jump\t// in\n    tag_216:\n        /* \"#utility.yul\":1788:1851   */\n      swap5\n      pop\n        /* \"#utility.yul\":1743:1861   */\n      pop\n        /* \"#utility.yul\":1900:1902   */\n      0x60\n        /* \"#utility.yul\":1926:1979   */\n      tag_217\n        /* \"#utility.yul\":1971:1978   */\n      dup10\n        /* \"#utility.yul\":1962:1968   */\n      dup3\n        /* \"#utility.yul\":1951:1960   */\n      dup11\n        /* \"#utility.yul\":1947:1969   */\n      add\n        /* \"#utility.yul\":1926:1979   */\n      tag_162\n      jump\t// in\n    tag_217:\n        /* \"#utility.yul\":1916:1979   */\n      swap4\n      pop\n        /* \"#utility.yul\":1871:1989   */\n      pop\n        /* \"#utility.yul\":2028:2031   */\n      0x80\n        /* \"#utility.yul\":2055:2108   */\n      tag_218\n        /* \"#utility.yul\":2100:2107   */\n      dup10\n        /* \"#utility.yul\":2091:2097   */\n      dup3\n        /* \"#utility.yul\":2080:2089   */\n      dup11\n        /* \"#utility.yul\":2076:2098   */\n      add\n        /* \"#utility.yul\":2055:2108   */\n      tag_162\n      jump\t// in\n    tag_218:\n        /* \"#utility.yul\":2045:2108   */\n      swap3\n      pop\n        /* \"#utility.yul\":1999:2118   */\n      pop\n        /* \"#utility.yul\":2157:2160   */\n      0xa0\n        /* \"#utility.yul\":2184:2237   */\n      tag_219\n        /* \"#utility.yul\":2229:2236   */\n      dup10\n        /* \"#utility.yul\":2220:2226   */\n      dup3\n        /* \"#utility.yul\":2209:2218   */\n      dup11\n        /* \"#utility.yul\":2205:2227   */\n      add\n        /* \"#utility.yul\":2184:2237   */\n      tag_162\n      jump\t// in\n    tag_219:\n        /* \"#utility.yul\":2174:2237   */\n      swap2\n      pop\n        /* \"#utility.yul\":2128:2247   */\n      pop\n        /* \"#utility.yul\":1197:2254   */\n      swap3\n      swap6\n      pop\n      swap3\n      swap6\n      pop\n      swap3\n      swap6\n      jump\t// out\n        /* \"#utility.yul\":2260:2879   */\n    tag_21:\n        /* \"#utility.yul\":2337:2343   */\n      0x00\n        /* \"#utility.yul\":2345:2351   */\n      dup1\n        /* \"#utility.yul\":2353:2359   */\n      0x00\n        /* \"#utility.yul\":2402:2404   */\n      0x60\n        /* \"#utility.yul\":2390:2399   */\n      dup5\n        /* \"#utility.yul\":2381:2388   */\n      dup7\n        /* \"#utility.yul\":2377:2400   */\n      sub\n        /* \"#utility.yul\":2373:2405   */\n      slt\n        /* \"#utility.yul\":2370:2489   */\n      iszero\n      tag_221\n      jumpi\n        /* \"#utility.yul\":2408:2487   */\n      tag_222\n      tag_154\n      jump\t// in\n    tag_222:\n        /* \"#utility.yul\":2370:2489   */\n    tag_221:\n        /* \"#utility.yul\":2528:2529   */\n      0x00\n        /* \"#utility.yul\":2553:2606   */\n      tag_223\n        /* \"#utility.yul\":2598:2605   */\n      dup7\n        /* \"#utility.yul\":2589:2595   */\n      dup3\n        /* \"#utility.yul\":2578:2587   */\n      dup8\n        /* \"#utility.yul\":2574:2596   */\n      add\n        /* \"#utility.yul\":2553:2606   */\n      tag_159\n      jump\t// in\n    tag_223:\n        /* \"#utility.yul\":2543:2606   */\n      swap4\n      pop\n        /* \"#utility.yul\":2499:2616   */\n      pop\n        /* \"#utility.yul\":2655:2657   */\n      0x20\n        /* \"#utility.yul\":2681:2734   */\n      tag_224\n        /* \"#utility.yul\":2726:2733   */\n      dup7\n        /* \"#utility.yul\":2717:2723   */\n      dup3\n        /* \"#utility.yul\":2706:2715   */\n      dup8\n        /* \"#utility.yul\":2702:2724   */\n      add\n        /* \"#utility.yul\":2681:2734   */\n      tag_162\n      jump\t// in\n    tag_224:\n        /* \"#utility.yul\":2671:2734   */\n      swap3\n      pop\n        /* \"#utility.yul\":2626:2744   */\n      pop\n        /* \"#utility.yul\":2783:2785   */\n      0x40\n        /* \"#utility.yul\":2809:2862   */\n      tag_225\n        /* \"#utility.yul\":2854:2861   */\n      dup7\n        /* \"#utility.yul\":2845:2851   */\n      dup3\n        /* \"#utility.yul\":2834:2843   */\n      dup8\n        /* \"#utility.yul\":2830:2852   */\n      add\n        /* \"#utility.yul\":2809:2862   */\n      tag_162\n      jump\t// in\n    tag_225:\n        /* \"#utility.yul\":2799:2862   */\n      swap2\n      pop\n        /* \"#utility.yul\":2754:2872   */\n      pop\n        /* \"#utility.yul\":2260:2879   */\n      swap3\n      pop\n      swap3\n      pop\n      swap3\n      jump\t// out\n        /* \"#utility.yul\":2885:3003   */\n    tag_163:\n        /* \"#utility.yul\":2972:2996   */\n      tag_227\n        /* \"#utility.yul\":2990:2995   */\n      dup2\n        /* \"#utility.yul\":2972:2996   */\n      tag_157\n      jump\t// in\n    tag_227:\n        /* \"#utility.yul\":2967:2970   */\n      dup3\n        /* \"#utility.yul\":2960:2997   */\n      mstore\n        /* \"#utility.yul\":2885:3003   */\n      pop\n      pop\n      jump\t// out\n        /* \"#utility.yul\":3009:3231   */\n    tag_27:\n        /* \"#utility.yul\":3102:3106   */\n      0x00\n        /* \"#utility.yul\":3140:3142   */\n      0x20\n        /* \"#utility.yul\":3129:3138   */\n      dup3\n        /* \"#utility.yul\":3125:3143   */\n      add\n        /* \"#utility.yul\":3117:3143   */\n      swap1\n      pop\n        /* \"#utility.yul\":3153:3224   */\n      tag_229\n        /* \"#utility.yul\":3221:3222   */\n      0x00\n        /* \"#utility.yul\":3210:3219   */\n      dup4\n        /* \"#utility.yul\":3206:3223   */\n      add\n        /* \"#utility.yul\":3197:3203   */\n      dup5\n        /* \"#utility.yul\":3153:3224   */\n      tag_163\n      jump\t// in\n    tag_229:\n        /* \"#utility.yul\":3009:3231   */\n      swap3\n      swap2\n      pop\n      pop\n      jump\t// out\n        /* \"#utility.yul\":3237:3566   */\n    tag_34:\n        /* \"#utility.yul\":3296:3302   */\n      0x00\n        /* \"#utility.yul\":3345:3347   */\n      0x20\n        /* \"#utility.yul\":3333:3342   */\n      dup3\n        /* \"#utility.yul\":3324:3331   */\n      dup5\n        /* \"#utility.yul\":3320:3343   */\n      sub\n        /* \"#utility.yul\":3316:3348   */\n      slt\n        /* \"#utility.yul\":3313:3432   */\n      iszero\n      tag_231\n      jumpi\n        /* \"#utility.yul\":3351:3430   */\n      tag_232\n      tag_154\n      jump\t// in\n    tag_232:\n        /* \"#utility.yul\":3313:3432   */\n    tag_231:\n        /* \"#utility.yul\":3471:3472   */\n      0x00\n        /* \"#utility.yul\":3496:3549   */\n      tag_233\n        /* \"#utility.yul\":3541:3548   */\n      dup5\n        /* \"#utility.yul\":3532:3538   */\n      dup3\n        /* \"#utility.yul\":3521:3530   */\n      dup6\n        /* \"#utility.yul\":3517:3539   */\n      add\n        /* \"#utility.yul\":3496:3549   */\n      tag_162\n      jump\t// in\n    tag_233:\n        /* \"#utility.yul\":3486:3549   */\n      swap2\n      pop\n        /* \"#utility.yul\":3442:3559   */\n      pop\n        /* \"#utility.yul\":3237:3566   */\n      swap3\n      swap2\n      pop\n      pop\n      jump\t// out\n        /* \"#utility.yul\":3572:3901   */\n    tag_42:\n        /* \"#utility.yul\":3631:3637   */\n      0x00\n        /* \"#utility.yul\":3680:3682   */\n      0x20\n        /* \"#utility.yul\":3668:3677   */\n      dup3\n        /* \"#utility.yul\":3659:3666   */\n      dup5\n        /* \"#utility.yul\":3655:3678   */\n      sub\n        /* \"#utility.yul\":3651:3683   */\n      slt\n        /* \"#utility.yul\":3648:3767   */\n      iszero\n      tag_235\n      jumpi\n        /* \"#utility.yul\":3686:3765   */\n      tag_236\n      tag_154\n      jump\t// in\n    tag_236:\n        /* \"#utility.yul\":3648:3767   */\n    tag_235:\n        /* \"#utility.yul\":3806:3807   */\n      0x00\n        /* \"#utility.yul\":3831:3884   */\n      tag_237\n        /* \"#utility.yul\":3876:3883   */\n      dup5\n        /* \"#utility.yul\":3867:3873   */\n      dup3\n        /* \"#utility.yul\":3856:3865   */\n      dup6\n        /* \"#utility.yul\":3852:3874   */\n      add\n        /* \"#utility.yul\":3831:3884   */\n      tag_159\n      jump\t// in\n    tag_237:\n        /* \"#utility.yul\":3821:3884   */\n      swap2\n      pop\n        /* \"#utility.yul\":3777:3894   */\n      pop\n        /* \"#utility.yul\":3572:3901   */\n      swap3\n      swap2\n      pop\n      pop\n      jump\t// out\n        /* \"#utility.yul\":3907:4025   */\n    tag_164:\n        /* \"#utility.yul\":3994:4018   */\n      tag_239\n        /* \"#utility.yul\":4012:4017   */\n      dup2\n        /* \"#utility.yul\":3994:4018   */\n      tag_160\n      jump\t// in\n    tag_239:\n        /* \"#utility.yul\":3989:3992   */\n      dup3\n        /* \"#utility.yul\":3982:4019   */\n      mstore\n        /* \"#utility.yul\":3907:4025   */\n      pop\n      pop\n      jump\t// out\n        /* \"#utility.yul\":4031:4695   */\n    tag_45:\n        /* \"#utility.yul\":4236:4240   */\n      0x00\n        /* \"#utility.yul\":4274:4277   */\n      0xa0\n        /* \"#utility.yul\":4263:4272   */\n      dup3\n        /* \"#utility.yul\":4259:4278   */\n      add\n        /* \"#utility.yul\":4251:4278   */\n      swap1\n      pop\n        /* \"#utility.yul\":4288:4359   */\n      tag_241\n        /* \"#utility.yul\":4356:4357   */\n      0x00\n        /* \"#utility.yul\":4345:4354   */\n      dup4\n        /* \"#utility.yul\":4341:4358   */\n      add\n        /* \"#utility.yul\":4332:4338   */\n      dup9\n        /* \"#utility.yul\":4288:4359   */\n      tag_163\n      jump\t// in\n    tag_241:\n        /* \"#utility.yul\":4369:4441   */\n      tag_242\n        /* \"#utility.yul\":4437:4439   */\n      0x20\n        /* \"#utility.yul\":4426:4435   */\n      dup4\n        /* \"#utility.yul\":4422:4440   */\n      add\n        /* \"#utility.yul\":4413:4419   */\n      dup8\n        /* \"#utility.yul\":4369:4441   */\n      tag_163\n      jump\t// in\n    tag_242:\n        /* \"#utility.yul\":4451:4523   */\n      tag_243\n        /* \"#utility.yul\":4519:4521   */\n      0x40\n        /* \"#utility.yul\":4508:4517   */\n      dup4\n        /* \"#utility.yul\":4504:4522   */\n      add\n        /* \"#utility.yul\":4495:4501   */\n      dup7\n        /* \"#utility.yul\":4451:4523   */\n      tag_164\n      jump\t// in\n    tag_243:\n        /* \"#utility.yul\":4533:4605   */\n      tag_244\n        /* \"#utility.yul\":4601:4603   */\n      0x60\n        /* \"#utility.yul\":4590:4599   */\n      dup4\n        /* \"#utility.yul\":4586:4604   */\n      add\n        /* \"#utility.yul\":4577:4583   */\n      dup6\n        /* \"#utility.yul\":4533:4605   */\n      tag_164\n      jump\t// in\n    tag_244:\n        /* \"#utility.yul\":4615:4688   */\n      tag_245\n        /* \"#utility.yul\":4683:4686   */\n      0x80\n        /* \"#utility.yul\":4672:4681   */\n      dup4\n        /* \"#utility.yul\":4668:4687   */\n      add\n        /* \"#utility.yul\":4659:4665   */\n      dup5\n        /* \"#utility.yul\":4615:4688   */\n      tag_164\n      jump\t// in\n    tag_245:\n        /* \"#utility.yul\":4031:4695   */\n      swap7\n      swap6\n      pop\n      pop\n      pop\n      pop\n      pop\n      pop\n      jump\t// out\n        /* \"#utility.yul\":4701:4923   */\n    tag_50:\n        /* \"#utility.yul\":4794:4798   */\n      0x00\n        /* \"#utility.yul\":4832:4834   */\n      0x20\n        /* \"#utility.yul\":4821:4830   */\n      dup3\n        /* \"#utility.yul\":4817:4835   */\n      add\n        /* \"#utility.yul\":4809:4835   */\n      swap1\n      pop\n        /* \"#utility.yul\":4845:4916   */\n      tag_247\n        /* \"#utility.yul\":4913:4914   */\n      0x00\n        /* \"#utility.yul\":4902:4911   */\n      dup4\n        /* \"#utility.yul\":4898:4915   */\n      add\n        /* \"#utility.yul\":4889:4895   */\n      dup5\n        /* \"#utility.yul\":4845:4916   */\n      tag_164\n      jump\t// in\n    tag_247:\n        /* \"#utility.yul\":4701:4923   */\n      swap3\n      swap2\n      pop\n      pop\n      jump\t// out\n        /* \"#utility.yul\":4929:5098   */\n    tag_165:\n        /* \"#utility.yul\":5013:5024   */\n      0x00\n        /* \"#utility.yul\":5047:5053   */\n      dup3\n        /* \"#utility.yul\":5042:5045   */\n      dup3\n        /* \"#utility.yul\":5035:5054   */\n      mstore\n        /* \"#utility.yul\":5087:5091   */\n      0x20\n        /* \"#utility.yul\":5082:5085   */\n      dup3\n        /* \"#utility.yul\":5078:5092   */\n      add\n        /* \"#utility.yul\":5063:5092   */\n      swap1\n      pop\n        /* \"#utility.yul\":4929:5098   */\n      swap3\n      swap2\n      pop\n      pop\n      jump\t// out\n        /* \"#utility.yul\":5104:5275   */\n    tag_166:\n        /* \"#utility.yul\":5244:5267   */\n      0x4e6f207265717565737420746f2070726f636573730000000000000000000000\n        /* \"#utility.yul\":5240:5241   */\n      0x00\n        /* \"#utility.yul\":5232:5238   */\n      dup3\n        /* \"#utility.yul\":5228:5242   */\n      add\n        /* \"#utility.yul\":5221:5268   */\n      mstore\n        /* \"#utility.yul\":5104:5275   */\n      pop\n      jump\t// out\n        /* \"#utility.yul\":5281:5647   */\n    tag_167:\n        /* \"#utility.yul\":5423:5426   */\n      0x00\n        /* \"#utility.yul\":5444:5511   */\n      tag_251\n        /* \"#utility.yul\":5508:5510   */\n      0x15\n        /* \"#utility.yul\":5503:5506   */\n      dup4\n        /* \"#utility.yul\":5444:5511   */\n      tag_165\n      jump\t// in\n    tag_251:\n        /* \"#utility.yul\":5437:5511   */\n      swap2\n      pop\n        /* \"#utility.yul\":5520:5613   */\n      tag_252\n        /* \"#utility.yul\":5609:5612   */\n      dup3\n        /* \"#utility.yul\":5520:5613   */\n      tag_166\n      jump\t// in\n    tag_252:\n        /* \"#utility.yul\":5638:5640   */\n      0x20\n        /* \"#utility.yul\":5633:5636   */\n      dup3\n        /* \"#utility.yul\":5629:5641   */\n      add\n        /* \"#utility.yul\":5622:5641   */\n      swap1\n      pop\n        /* \"#utility.yul\":5281:5647   */\n      swap2\n      swap1\n      pop\n      jump\t// out\n        /* \"#utility.yul\":5653:6072   */\n    tag_74:\n        /* \"#utility.yul\":5819:5823   */\n      0x00\n        /* \"#utility.yul\":5857:5859   */\n      0x20\n        /* \"#utility.yul\":5846:5855   */\n      dup3\n        /* \"#utility.yul\":5842:5860   */\n      add\n        /* \"#utility.yul\":5834:5860   */\n      swap1\n      pop\n        /* \"#utility.yul\":5906:5915   */\n      dup2\n        /* \"#utility.yul\":5900:5904   */\n      dup2\n        /* \"#utility.yul\":5896:5916   */\n      sub\n        /* \"#utility.yul\":5892:5893   */\n      0x00\n        /* \"#utility.yul\":5881:5890   */\n      dup4\n        /* \"#utility.yul\":5877:5894   */\n      add\n        /* \"#utility.yul\":5870:5917   */\n      mstore\n        /* \"#utility.yul\":5934:6065   */\n      tag_254\n        /* \"#utility.yul\":6060:6064   */\n      dup2\n        /* \"#utility.yul\":5934:6065   */\n      tag_167\n      jump\t// in\n    tag_254:\n        /* \"#utility.yul\":5926:6065   */\n      swap1\n      pop\n        /* \"#utility.yul\":5653:6072   */\n      swap2\n      swap1\n      pop\n      jump\t// out\n        /* \"#utility.yul\":6078:6260   */\n    tag_168:\n        /* \"#utility.yul\":6218:6252   */\n      0x426f6e646572206665652063616e6e6f742065786365656420616d6f756e742e\n        /* \"#utility.yul\":6214:6215   */\n      0x00\n        /* \"#utility.yul\":6206:6212   */\n      dup3\n        /* \"#utility.yul\":6202:6216   */\n      add\n        /* \"#utility.yul\":6195:6253   */\n      mstore\n        /* \"#utility.yul\":6078:6260   */\n      pop\n      jump\t// out\n        /* \"#utility.yul\":6266:6632   */\n    tag_169:\n        /* \"#utility.yul\":6408:6411   */\n      0x00\n        /* \"#utility.yul\":6429:6496   */\n      tag_257\n        /* \"#utility.yul\":6493:6495   */\n      0x20\n        /* \"#utility.yul\":6488:6491   */\n      dup4\n        /* \"#utility.yul\":6429:6496   */\n      tag_165\n      jump\t// in\n    tag_257:\n        /* \"#utility.yul\":6422:6496   */\n      swap2\n      pop\n        /* \"#utility.yul\":6505:6598   */\n      tag_258\n        /* \"#utility.yul\":6594:6597   */\n      dup3\n        /* \"#utility.yul\":6505:6598   */\n      tag_168\n      jump\t// in\n    tag_258:\n        /* \"#utility.yul\":6623:6625   */\n      0x20\n        /* \"#utility.yul\":6618:6621   */\n      dup3\n        /* \"#utility.yul\":6614:6626   */\n      add\n        /* \"#utility.yul\":6607:6626   */\n      swap1\n      pop\n        /* \"#utility.yul\":6266:6632   */\n      swap2\n      swap1\n      pop\n      jump\t// out\n        /* \"#utility.yul\":6638:7057   */\n    tag_77:\n        /* \"#utility.yul\":6804:6808   */\n      0x00\n        /* \"#utility.yul\":6842:6844   */\n      0x20\n        /* \"#utility.yul\":6831:6840   */\n      dup3\n        /* \"#utility.yul\":6827:6845   */\n      add\n        /* \"#utility.yul\":6819:6845   */\n      swap1\n      pop\n        /* \"#utility.yul\":6891:6900   */\n      dup2\n        /* \"#utility.yul\":6885:6889   */\n      dup2\n        /* \"#utility.yul\":6881:6901   */\n      sub\n        /* \"#utility.yul\":6877:6878   */\n      0x00\n        /* \"#utility.yul\":6866:6875   */\n      dup4\n        /* \"#utility.yul\":6862:6879   */\n      add\n        /* \"#utility.yul\":6855:6902   */\n      mstore\n        /* \"#utility.yul\":6919:7050   */\n      tag_260\n        /* \"#utility.yul\":7045:7049   */\n      dup2\n        /* \"#utility.yul\":6919:7050   */\n      tag_169\n      jump\t// in\n    tag_260:\n        /* \"#utility.yul\":6911:7050   */\n      swap1\n      pop\n        /* \"#utility.yul\":6638:7057   */\n      swap2\n      swap1\n      pop\n      jump\t// out\n        /* \"#utility.yul\":7063:7238   */\n    tag_170:\n        /* \"#utility.yul\":7203:7230   */\n      0x4661696c656420746f20726566756e64206578656375746f7200000000000000\n        /* \"#utility.yul\":7199:7200   */\n      0x00\n        /* \"#utility.yul\":7191:7197   */\n      dup3\n        /* \"#utility.yul\":7187:7201   */\n      add\n        /* \"#utility.yul\":7180:7231   */\n      mstore\n        /* \"#utility.yul\":7063:7238   */\n      pop\n      jump\t// out\n        /* \"#utility.yul\":7244:7610   */\n    tag_171:\n        /* \"#utility.yul\":7386:7389   */\n      0x00\n        /* \"#utility.yul\":7407:7474   */\n      tag_263\n        /* \"#utility.yul\":7471:7473   */\n      0x19\n        /* \"#utility.yul\":7466:7469   */\n      dup4\n        /* \"#utility.yul\":7407:7474   */\n      tag_165\n      jump\t// in\n    tag_263:\n        /* \"#utility.yul\":7400:7474   */\n      swap2\n      pop\n        /* \"#utility.yul\":7483:7576   */\n      tag_264\n        /* \"#utility.yul\":7572:7575   */\n      dup3\n        /* \"#utility.yul\":7483:7576   */\n      tag_170\n      jump\t// in\n    tag_264:\n        /* \"#utility.yul\":7601:7603   */\n      0x20\n        /* \"#utility.yul\":7596:7599   */\n      dup3\n        /* \"#utility.yul\":7592:7604   */\n      add\n        /* \"#utility.yul\":7585:7604   */\n      swap1\n      pop\n        /* \"#utility.yul\":7244:7610   */\n      swap2\n      swap1\n      pop\n      jump\t// out\n        /* \"#utility.yul\":7616:8035   */\n    tag_81:\n        /* \"#utility.yul\":7782:7786   */\n      0x00\n        /* \"#utility.yul\":7820:7822   */\n      0x20\n        /* \"#utility.yul\":7809:7818   */\n      dup3\n        /* \"#utility.yul\":7805:7823   */\n      add\n        /* \"#utility.yul\":7797:7823   */\n      swap1\n      pop\n        /* \"#utility.yul\":7869:7878   */\n      dup2\n        /* \"#utility.yul\":7863:7867   */\n      dup2\n        /* \"#utility.yul\":7859:7879   */\n      sub\n        /* \"#utility.yul\":7855:7856   */\n      0x00\n        /* \"#utility.yul\":7844:7853   */\n      dup4\n        /* \"#utility.yul\":7840:7857   */\n      add\n        /* \"#utility.yul\":7833:7880   */\n      mstore\n        /* \"#utility.yul\":7897:8028   */\n      tag_266\n        /* \"#utility.yul\":8023:8027   */\n      dup2\n        /* \"#utility.yul\":7897:8028   */\n      tag_171\n      jump\t// in\n    tag_266:\n        /* \"#utility.yul\":7889:8028   */\n      swap1\n      pop\n        /* \"#utility.yul\":7616:8035   */\n      swap2\n      swap1\n      pop\n      jump\t// out\n        /* \"#utility.yul\":8041:9038   */\n    tag_83:\n        /* \"#utility.yul\":8330:8334   */\n      0x00\n        /* \"#utility.yul\":8368:8371   */\n      0x0100\n        /* \"#utility.yul\":8357:8366   */\n      dup3\n        /* \"#utility.yul\":8353:8372   */\n      add\n        /* \"#utility.yul\":8345:8372   */\n      swap1\n      pop\n        /* \"#utility.yul\":8382:8453   */\n      tag_268\n        /* \"#utility.yul\":8450:8451   */\n      0x00\n        /* \"#utility.yul\":8439:8448   */\n      dup4\n        /* \"#utility.yul\":8435:8452   */\n      add\n        /* \"#utility.yul\":8426:8432   */\n      dup12\n        /* \"#utility.yul\":8382:8453   */\n      tag_164\n      jump\t// in\n    tag_268:\n        /* \"#utility.yul\":8463:8535   */\n      tag_269\n        /* \"#utility.yul\":8531:8533   */\n      0x20\n        /* \"#utility.yul\":8520:8529   */\n      dup4\n        /* \"#utility.yul\":8516:8534   */\n      add\n        /* \"#utility.yul\":8507:8513   */\n      dup11\n        /* \"#utility.yul\":8463:8535   */\n      tag_163\n      jump\t// in\n    tag_269:\n        /* \"#utility.yul\":8545:8617   */\n      tag_270\n        /* \"#utility.yul\":8613:8615   */\n      0x40\n        /* \"#utility.yul\":8602:8611   */\n      dup4\n        /* \"#utility.yul\":8598:8616   */\n      add\n        /* \"#utility.yul\":8589:8595   */\n      dup10\n        /* \"#utility.yul\":8545:8617   */\n      tag_164\n      jump\t// in\n    tag_270:\n        /* \"#utility.yul\":8627:8699   */\n      tag_271\n        /* \"#utility.yul\":8695:8697   */\n      0x60\n        /* \"#utility.yul\":8684:8693   */\n      dup4\n        /* \"#utility.yul\":8680:8698   */\n      add\n        /* \"#utility.yul\":8671:8677   */\n      dup9\n        /* \"#utility.yul\":8627:8699   */\n      tag_164\n      jump\t// in\n    tag_271:\n        /* \"#utility.yul\":8709:8782   */\n      tag_272\n        /* \"#utility.yul\":8777:8780   */\n      0x80\n        /* \"#utility.yul\":8766:8775   */\n      dup4\n        /* \"#utility.yul\":8762:8781   */\n      add\n        /* \"#utility.yul\":8753:8759   */\n      dup8\n        /* \"#utility.yul\":8709:8782   */\n      tag_164\n      jump\t// in\n    tag_272:\n        /* \"#utility.yul\":8792:8865   */\n      tag_273\n        /* \"#utility.yul\":8860:8863   */\n      0xa0\n        /* \"#utility.yul\":8849:8858   */\n      dup4\n        /* \"#utility.yul\":8845:8864   */\n      add\n        /* \"#utility.yul\":8836:8842   */\n      dup7\n        /* \"#utility.yul\":8792:8865   */\n      tag_164\n      jump\t// in\n    tag_273:\n        /* \"#utility.yul\":8875:8948   */\n      tag_274\n        /* \"#utility.yul\":8943:8946   */\n      0xc0\n        /* \"#utility.yul\":8932:8941   */\n      dup4\n        /* \"#utility.yul\":8928:8947   */\n      add\n        /* \"#utility.yul\":8919:8925   */\n      dup6\n        /* \"#utility.yul\":8875:8948   */\n      tag_164\n      jump\t// in\n    tag_274:\n        /* \"#utility.yul\":8958:9031   */\n      tag_275\n        /* \"#utility.yul\":9026:9029   */\n      0xe0\n        /* \"#utility.yul\":9015:9024   */\n      dup4\n        /* \"#utility.yul\":9011:9030   */\n      add\n        /* \"#utility.yul\":9002:9008   */\n      dup5\n        /* \"#utility.yul\":8958:9031   */\n      tag_164\n      jump\t// in\n    tag_275:\n        /* \"#utility.yul\":8041:9038   */\n      swap10\n      swap9\n      pop\n      pop\n      pop\n      pop\n      pop\n      pop\n      pop\n      pop\n      pop\n      jump\t// out\n        /* \"#utility.yul\":9044:9221   */\n    tag_172:\n        /* \"#utility.yul\":9184:9213   */\n      0x53656e646572206d6179206e6f74206265203020616464726573730000000000\n        /* \"#utility.yul\":9180:9181   */\n      0x00\n        /* \"#utility.yul\":9172:9178   */\n      dup3\n        /* \"#utility.yul\":9168:9182   */\n      add\n        /* \"#utility.yul\":9161:9214   */\n      mstore\n        /* \"#utility.yul\":9044:9221   */\n      pop\n      jump\t// out\n        /* \"#utility.yul\":9227:9593   */\n    tag_173:\n        /* \"#utility.yul\":9369:9372   */\n      0x00\n        /* \"#utility.yul\":9390:9457   */\n      tag_278\n        /* \"#utility.yul\":9454:9456   */\n      0x1b\n        /* \"#utility.yul\":9449:9452   */\n      dup4\n        /* \"#utility.yul\":9390:9457   */\n      tag_165\n      jump\t// in\n    tag_278:\n        /* \"#utility.yul\":9383:9457   */\n      swap2\n      pop\n        /* \"#utility.yul\":9466:9559   */\n      tag_279\n        /* \"#utility.yul\":9555:9558   */\n      dup3\n        /* \"#utility.yul\":9466:9559   */\n      tag_172\n      jump\t// in\n    tag_279:\n        /* \"#utility.yul\":9584:9586   */\n      0x20\n        /* \"#utility.yul\":9579:9582   */\n      dup3\n        /* \"#utility.yul\":9575:9587   */\n      add\n        /* \"#utility.yul\":9568:9587   */\n      swap1\n      pop\n        /* \"#utility.yul\":9227:9593   */\n      swap2\n      swap1\n      pop\n      jump\t// out\n        /* \"#utility.yul\":9599:10018   */\n    tag_92:\n        /* \"#utility.yul\":9765:9769   */\n      0x00\n        /* \"#utility.yul\":9803:9805   */\n      0x20\n        /* \"#utility.yul\":9792:9801   */\n      dup3\n        /* \"#utility.yul\":9788:9806   */\n      add\n        /* \"#utility.yul\":9780:9806   */\n      swap1\n      pop\n        /* \"#utility.yul\":9852:9861   */\n      dup2\n        /* \"#utility.yul\":9846:9850   */\n      dup2\n        /* \"#utility.yul\":9842:9862   */\n      sub\n        /* \"#utility.yul\":9838:9839   */\n      0x00\n        /* \"#utility.yul\":9827:9836   */\n      dup4\n        /* \"#utility.yul\":9823:9840   */\n      add\n        /* \"#utility.yul\":9816:9863   */\n      mstore\n        /* \"#utility.yul\":9880:10011   */\n      tag_281\n        /* \"#utility.yul\":10006:10010   */\n      dup2\n        /* \"#utility.yul\":9880:10011   */\n      tag_173\n      jump\t// in\n    tag_281:\n        /* \"#utility.yul\":9872:10011   */\n      swap1\n      pop\n        /* \"#utility.yul\":9599:10018   */\n      swap2\n      swap1\n      pop\n      jump\t// out\n        /* \"#utility.yul\":10024:10251   */\n    tag_174:\n        /* \"#utility.yul\":10164:10198   */\n      0x44657374696e6174696f6e2061646472657373206d6179206e6f742062652030\n        /* \"#utility.yul\":10160:10161   */\n      0x00\n        /* \"#utility.yul\":10152:10158   */\n      dup3\n        /* \"#utility.yul\":10148:10162   */\n      add\n        /* \"#utility.yul\":10141:10199   */\n      mstore\n        /* \"#utility.yul\":10233:10243   */\n      0x2061646472657373000000000000000000000000000000000000000000000000\n        /* \"#utility.yul\":10228:10230   */\n      0x20\n        /* \"#utility.yul\":10220:10226   */\n      dup3\n        /* \"#utility.yul\":10216:10231   */\n      add\n        /* \"#utility.yul\":10209:10244   */\n      mstore\n        /* \"#utility.yul\":10024:10251   */\n      pop\n      jump\t// out\n        /* \"#utility.yul\":10257:10623   */\n    tag_175:\n        /* \"#utility.yul\":10399:10402   */\n      0x00\n        /* \"#utility.yul\":10420:10487   */\n      tag_284\n        /* \"#utility.yul\":10484:10486   */\n      0x28\n        /* \"#utility.yul\":10479:10482   */\n      dup4\n        /* \"#utility.yul\":10420:10487   */\n      tag_165\n      jump\t// in\n    tag_284:\n        /* \"#utility.yul\":10413:10487   */\n      swap2\n      pop\n        /* \"#utility.yul\":10496:10589   */\n      tag_285\n        /* \"#utility.yul\":10585:10588   */\n      dup3\n        /* \"#utility.yul\":10496:10589   */\n      tag_174\n      jump\t// in\n    tag_285:\n        /* \"#utility.yul\":10614:10616   */\n      0x40\n        /* \"#utility.yul\":10609:10612   */\n      dup3\n        /* \"#utility.yul\":10605:10617   */\n      add\n        /* \"#utility.yul\":10598:10617   */\n      swap1\n      pop\n        /* \"#utility.yul\":10257:10623   */\n      swap2\n      swap1\n      pop\n      jump\t// out\n        /* \"#utility.yul\":10629:11048   */\n    tag_95:\n        /* \"#utility.yul\":10795:10799   */\n      0x00\n        /* \"#utility.yul\":10833:10835   */\n      0x20\n        /* \"#utility.yul\":10822:10831   */\n      dup3\n        /* \"#utility.yul\":10818:10836   */\n      add\n        /* \"#utility.yul\":10810:10836   */\n      swap1\n      pop\n        /* \"#utility.yul\":10882:10891   */\n      dup2\n        /* \"#utility.yul\":10876:10880   */\n      dup2\n        /* \"#utility.yul\":10872:10892   */\n      sub\n        /* \"#utility.yul\":10868:10869   */\n      0x00\n        /* \"#utility.yul\":10857:10866   */\n      dup4\n        /* \"#utility.yul\":10853:10870   */\n      add\n        /* \"#utility.yul\":10846:10893   */\n      mstore\n        /* \"#utility.yul\":10910:11041   */\n      tag_287\n        /* \"#utility.yul\":11036:11040   */\n      dup2\n        /* \"#utility.yul\":10910:11041   */\n      tag_175\n      jump\t// in\n    tag_287:\n        /* \"#utility.yul\":10902:11041   */\n      swap1\n      pop\n        /* \"#utility.yul\":10629:11048   */\n      swap2\n      swap1\n      pop\n      jump\t// out\n        /* \"#utility.yul\":11054:11286   */\n    tag_176:\n        /* \"#utility.yul\":11194:11228   */\n      0x57616e746564204c3120676173207072696365206d7573742062652073747269\n        /* \"#utility.yul\":11190:11191   */\n      0x00\n        /* \"#utility.yul\":11182:11188   */\n      dup3\n        /* \"#utility.yul\":11178:11192   */\n      add\n        /* \"#utility.yul\":11171:11229   */\n      mstore\n        /* \"#utility.yul\":11263:11278   */\n      0x63746c7920706f73697469766500000000000000000000000000000000000000\n        /* \"#utility.yul\":11258:11260   */\n      0x20\n        /* \"#utility.yul\":11250:11256   */\n      dup3\n        /* \"#utility.yul\":11246:11261   */\n      add\n        /* \"#utility.yul\":11239:11279   */\n      mstore\n        /* \"#utility.yul\":11054:11286   */\n      pop\n      jump\t// out\n        /* \"#utility.yul\":11292:11658   */\n    tag_177:\n        /* \"#utility.yul\":11434:11437   */\n      0x00\n        /* \"#utility.yul\":11455:11522   */\n      tag_290\n        /* \"#utility.yul\":11519:11521   */\n      0x2d\n        /* \"#utility.yul\":11514:11517   */\n      dup4\n        /* \"#utility.yul\":11455:11522   */\n      tag_165\n      jump\t// in\n    tag_290:\n        /* \"#utility.yul\":11448:11522   */\n      swap2\n      pop\n        /* \"#utility.yul\":11531:11624   */\n      tag_291\n        /* \"#utility.yul\":11620:11623   */\n      dup3\n        /* \"#utility.yul\":11531:11624   */\n      tag_176\n      jump\t// in\n    tag_291:\n        /* \"#utility.yul\":11649:11651   */\n      0x40\n        /* \"#utility.yul\":11644:11647   */\n      dup3\n        /* \"#utility.yul\":11640:11652   */\n      add\n        /* \"#utility.yul\":11633:11652   */\n      swap1\n      pop\n        /* \"#utility.yul\":11292:11658   */\n      swap2\n      swap1\n      pop\n      jump\t// out\n        /* \"#utility.yul\":11664:12083   */\n    tag_98:\n        /* \"#utility.yul\":11830:11834   */\n      0x00\n        /* \"#utility.yul\":11868:11870   */\n      0x20\n        /* \"#utility.yul\":11857:11866   */\n      dup3\n        /* \"#utility.yul\":11853:11871   */\n      add\n        /* \"#utility.yul\":11845:11871   */\n      swap1\n      pop\n        /* \"#utility.yul\":11917:11926   */\n      dup2\n        /* \"#utility.yul\":11911:11915   */\n      dup2\n        /* \"#utility.yul\":11907:11927   */\n      sub\n        /* \"#utility.yul\":11903:11904   */\n      0x00\n        /* \"#utility.yul\":11892:11901   */\n      dup4\n        /* \"#utility.yul\":11888:11905   */\n      add\n        /* \"#utility.yul\":11881:11928   */\n      mstore\n        /* \"#utility.yul\":11945:12076   */\n      tag_293\n        /* \"#utility.yul\":12071:12075   */\n      dup2\n        /* \"#utility.yul\":11945:12076   */\n      tag_177\n      jump\t// in\n    tag_293:\n        /* \"#utility.yul\":11937:12076   */\n      swap1\n      pop\n        /* \"#utility.yul\":11664:12083   */\n      swap2\n      swap1\n      pop\n      jump\t// out\n        /* \"#utility.yul\":12089:12321   */\n    tag_178:\n        /* \"#utility.yul\":12229:12263   */\n      0x4e6f7420656e6f7567682066756e647320746f2070617920666f722064656c61\n        /* \"#utility.yul\":12225:12226   */\n      0x00\n        /* \"#utility.yul\":12217:12223   */\n      dup3\n        /* \"#utility.yul\":12213:12227   */\n      add\n        /* \"#utility.yul\":12206:12264   */\n      mstore\n        /* \"#utility.yul\":12298:12313   */\n      0x79656420657865637574696f6e00000000000000000000000000000000000000\n        /* \"#utility.yul\":12293:12295   */\n      0x20\n        /* \"#utility.yul\":12285:12291   */\n      dup3\n        /* \"#utility.yul\":12281:12296   */\n      add\n        /* \"#utility.yul\":12274:12314   */\n      mstore\n        /* \"#utility.yul\":12089:12321   */\n      pop\n      jump\t// out\n        /* \"#utility.yul\":12327:12693   */\n    tag_179:\n        /* \"#utility.yul\":12469:12472   */\n      0x00\n        /* \"#utility.yul\":12490:12557   */\n      tag_296\n        /* \"#utility.yul\":12554:12556   */\n      0x2d\n        /* \"#utility.yul\":12549:12552   */\n      dup4\n        /* \"#utility.yul\":12490:12557   */\n      tag_165\n      jump\t// in\n    tag_296:\n        /* \"#utility.yul\":12483:12557   */\n      swap2\n      pop\n        /* \"#utility.yul\":12566:12659   */\n      tag_297\n        /* \"#utility.yul\":12655:12658   */\n      dup3\n        /* \"#utility.yul\":12566:12659   */\n      tag_178\n      jump\t// in\n    tag_297:\n        /* \"#utility.yul\":12684:12686   */\n      0x40\n        /* \"#utility.yul\":12679:12682   */\n      dup3\n        /* \"#utility.yul\":12675:12687   */\n      add\n        /* \"#utility.yul\":12668:12687   */\n      swap1\n      pop\n        /* \"#utility.yul\":12327:12693   */\n      swap2\n      swap1\n      pop\n      jump\t// out\n        /* \"#utility.yul\":12699:13118   */\n    tag_101:\n        /* \"#utility.yul\":12865:12869   */\n      0x00\n        /* \"#utility.yul\":12903:12905   */\n      0x20\n        /* \"#utility.yul\":12892:12901   */\n      dup3\n        /* \"#utility.yul\":12888:12906   */\n      add\n        /* \"#utility.yul\":12880:12906   */\n      swap1\n      pop\n        /* \"#utility.yul\":12952:12961   */\n      dup2\n        /* \"#utility.yul\":12946:12950   */\n      dup2\n        /* \"#utility.yul\":12942:12962   */\n      sub\n        /* \"#utility.yul\":12938:12939   */\n      0x00\n        /* \"#utility.yul\":12927:12936   */\n      dup4\n        /* \"#utility.yul\":12923:12940   */\n      add\n        /* \"#utility.yul\":12916:12963   */\n      mstore\n        /* \"#utility.yul\":12980:13111   */\n      tag_299\n        /* \"#utility.yul\":13106:13110   */\n      dup2\n        /* \"#utility.yul\":12980:13111   */\n      tag_179\n      jump\t// in\n    tag_299:\n        /* \"#utility.yul\":12972:13111   */\n      swap1\n      pop\n        /* \"#utility.yul\":12699:13118   */\n      swap2\n      swap1\n      pop\n      jump\t// out\n        /* \"#utility.yul\":13124:13304   */\n    tag_180:\n        /* \"#utility.yul\":13172:13249   */\n      0x4e487b7100000000000000000000000000000000000000000000000000000000\n        /* \"#utility.yul\":13169:13170   */\n      0x00\n        /* \"#utility.yul\":13162:13250   */\n      mstore\n        /* \"#utility.yul\":13269:13273   */\n      0x11\n        /* \"#utility.yul\":13266:13267   */\n      0x04\n        /* \"#utility.yul\":13259:13274   */\n      mstore\n        /* \"#utility.yul\":13293:13297   */\n      0x24\n        /* \"#utility.yul\":13290:13291   */\n      0x00\n        /* \"#utility.yul\":13283:13298   */\n      revert\n        /* \"#utility.yul\":13310:13504   */\n    tag_103:\n        /* \"#utility.yul\":13350:13354   */\n      0x00\n        /* \"#utility.yul\":13370:13390   */\n      tag_302\n        /* \"#utility.yul\":13388:13389   */\n      dup3\n        /* \"#utility.yul\":13370:13390   */\n      tag_160\n      jump\t// in\n    tag_302:\n        /* \"#utility.yul\":13365:13390   */\n      swap2\n      pop\n        /* \"#utility.yul\":13404:13424   */\n      tag_303\n        /* \"#utility.yul\":13422:13423   */\n      dup4\n        /* \"#utility.yul\":13404:13424   */\n      tag_160\n      jump\t// in\n    tag_303:\n        /* \"#utility.yul\":13399:13424   */\n      swap3\n      pop\n        /* \"#utility.yul\":13448:13449   */\n      dup3\n        /* \"#utility.yul\":13445:13446   */\n      dup3\n        /* \"#utility.yul\":13441:13450   */\n      sub\n        /* \"#utility.yul\":13433:13450   */\n      swap1\n      pop\n        /* \"#utility.yul\":13472:13473   */\n      dup2\n        /* \"#utility.yul\":13466:13470   */\n      dup2\n        /* \"#utility.yul\":13463:13474   */\n      gt\n        /* \"#utility.yul\":13460:13497   */\n      iszero\n      tag_304\n      jumpi\n        /* \"#utility.yul\":13477:13495   */\n      tag_305\n      tag_180\n      jump\t// in\n    tag_305:\n        /* \"#utility.yul\":13460:13497   */\n    tag_304:\n        /* \"#utility.yul\":13310:13504   */\n      swap3\n      swap2\n      pop\n      pop\n      jump\t// out\n        /* \"#utility.yul\":13510:13829   */\n    tag_181:\n        /* \"#utility.yul\":13650:13684   */\n      0x43616c63756c617465642073656e7420616d6f756e74206d757374206265206c\n        /* \"#utility.yul\":13646:13647   */\n      0x00\n        /* \"#utility.yul\":13638:13644   */\n      dup3\n        /* \"#utility.yul\":13634:13648   */\n      add\n        /* \"#utility.yul\":13627:13685   */\n      mstore\n        /* \"#utility.yul\":13719:13753   */\n      0x6172676572207468616e20746865207265717569726564206d696e696d756d20\n        /* \"#utility.yul\":13714:13716   */\n      0x20\n        /* \"#utility.yul\":13706:13712   */\n      dup3\n        /* \"#utility.yul\":13702:13717   */\n      add\n        /* \"#utility.yul\":13695:13754   */\n      mstore\n        /* \"#utility.yul\":13788:13821   */\n      0x616d6f756e74206172726976696e672061742064657374696e6174696f6e2e00\n        /* \"#utility.yul\":13783:13785   */\n      0x40\n        /* \"#utility.yul\":13775:13781   */\n      dup3\n        /* \"#utility.yul\":13771:13786   */\n      add\n        /* \"#utility.yul\":13764:13822   */\n      mstore\n        /* \"#utility.yul\":13510:13829   */\n      pop\n      jump\t// out\n        /* \"#utility.yul\":13835:14201   */\n    tag_182:\n        /* \"#utility.yul\":13977:13980   */\n      0x00\n        /* \"#utility.yul\":13998:14065   */\n      tag_308\n        /* \"#utility.yul\":14062:14064   */\n      0x5f\n        /* \"#utility.yul\":14057:14060   */\n      dup4\n        /* \"#utility.yul\":13998:14065   */\n      tag_165\n      jump\t// in\n    tag_308:\n        /* \"#utility.yul\":13991:14065   */\n      swap2\n      pop\n        /* \"#utility.yul\":14074:14167   */\n      tag_309\n        /* \"#utility.yul\":14163:14166   */\n      dup3\n        /* \"#utility.yul\":14074:14167   */\n      tag_181\n      jump\t// in\n    tag_309:\n        /* \"#utility.yul\":14192:14194   */\n      0x60\n        /* \"#utility.yul\":14187:14190   */\n      dup3\n        /* \"#utility.yul\":14183:14195   */\n      add\n        /* \"#utility.yul\":14176:14195   */\n      swap1\n      pop\n        /* \"#utility.yul\":13835:14201   */\n      swap2\n      swap1\n      pop\n      jump\t// out\n        /* \"#utility.yul\":14207:14626   */\n    tag_106:\n        /* \"#utility.yul\":14373:14377   */\n      0x00\n        /* \"#utility.yul\":14411:14413   */\n      0x20\n        /* \"#utility.yul\":14400:14409   */\n      dup3\n        /* \"#utility.yul\":14396:14414   */\n      add\n        /* \"#utility.yul\":14388:14414   */\n      swap1\n      pop\n        /* \"#utility.yul\":14460:14469   */\n      dup2\n        /* \"#utility.yul\":14454:14458   */\n      dup2\n        /* \"#utility.yul\":14450:14470   */\n      sub\n        /* \"#utility.yul\":14446:14447   */\n      0x00\n        /* \"#utility.yul\":14435:14444   */\n      dup4\n        /* \"#utility.yul\":14431:14448   */\n      add\n        /* \"#utility.yul\":14424:14471   */\n      mstore\n        /* \"#utility.yul\":14488:14619   */\n      tag_311\n        /* \"#utility.yul\":14614:14618   */\n      dup2\n        /* \"#utility.yul\":14488:14619   */\n      tag_182\n      jump\t// in\n    tag_311:\n        /* \"#utility.yul\":14480:14619   */\n      swap1\n      pop\n        /* \"#utility.yul\":14207:14626   */\n      swap2\n      swap1\n      pop\n      jump\t// out\n        /* \"#utility.yul\":14632:14804   */\n    tag_183:\n        /* \"#utility.yul\":14772:14796   */\n      0x4e6f207265717565737420746f20776974686472617700000000000000000000\n        /* \"#utility.yul\":14768:14769   */\n      0x00\n        /* \"#utility.yul\":14760:14766   */\n      dup3\n        /* \"#utility.yul\":14756:14770   */\n      add\n        /* \"#utility.yul\":14749:14797   */\n      mstore\n        /* \"#utility.yul\":14632:14804   */\n      pop\n      jump\t// out\n        /* \"#utility.yul\":14810:15176   */\n    tag_184:\n        /* \"#utility.yul\":14952:14955   */\n      0x00\n        /* \"#utility.yul\":14973:15040   */\n      tag_314\n        /* \"#utility.yul\":15037:15039   */\n      0x16\n        /* \"#utility.yul\":15032:15035   */\n      dup4\n        /* \"#utility.yul\":14973:15040   */\n      tag_165\n      jump\t// in\n    tag_314:\n        /* \"#utility.yul\":14966:15040   */\n      swap2\n      pop\n        /* \"#utility.yul\":15049:15142   */\n      tag_315\n        /* \"#utility.yul\":15138:15141   */\n      dup3\n        /* \"#utility.yul\":15049:15142   */\n      tag_183\n      jump\t// in\n    tag_315:\n        /* \"#utility.yul\":15167:15169   */\n      0x20\n        /* \"#utility.yul\":15162:15165   */\n      dup3\n        /* \"#utility.yul\":15158:15170   */\n      add\n        /* \"#utility.yul\":15151:15170   */\n      swap1\n      pop\n        /* \"#utility.yul\":14810:15176   */\n      swap2\n      swap1\n      pop\n      jump\t// out\n        /* \"#utility.yul\":15182:15601   */\n    tag_113:\n        /* \"#utility.yul\":15348:15352   */\n      0x00\n        /* \"#utility.yul\":15386:15388   */\n      0x20\n        /* \"#utility.yul\":15375:15384   */\n      dup3\n        /* \"#utility.yul\":15371:15389   */\n      add\n        /* \"#utility.yul\":15363:15389   */\n      swap1\n      pop\n        /* \"#utility.yul\":15435:15444   */\n      dup2\n        /* \"#utility.yul\":15429:15433   */\n      dup2\n        /* \"#utility.yul\":15425:15445   */\n      sub\n        /* \"#utility.yul\":15421:15422   */\n      0x00\n        /* \"#utility.yul\":15410:15419   */\n      dup4\n        /* \"#utility.yul\":15406:15423   */\n      add\n        /* \"#utility.yul\":15399:15446   */\n      mstore\n        /* \"#utility.yul\":15463:15594   */\n      tag_317\n        /* \"#utility.yul\":15589:15593   */\n      dup2\n        /* \"#utility.yul\":15463:15594   */\n      tag_184\n      jump\t// in\n    tag_317:\n        /* \"#utility.yul\":15455:15594   */\n      swap1\n      pop\n        /* \"#utility.yul\":15182:15601   */\n      swap2\n      swap1\n      pop\n      jump\t// out\n        /* \"#utility.yul\":15607:15787   */\n    tag_116:\n        /* \"#utility.yul\":15655:15732   */\n      0x4e487b7100000000000000000000000000000000000000000000000000000000\n        /* \"#utility.yul\":15652:15653   */\n      0x00\n        /* \"#utility.yul\":15645:15733   */\n      mstore\n        /* \"#utility.yul\":15752:15756   */\n      0x01\n        /* \"#utility.yul\":15749:15750   */\n      0x04\n        /* \"#utility.yul\":15742:15757   */\n      mstore\n        /* \"#utility.yul\":15776:15780   */\n      0x24\n        /* \"#utility.yul\":15773:15774   */\n      0x00\n        /* \"#utility.yul\":15766:15781   */\n      revert\n        /* \"#utility.yul\":15793:16018   */\n    tag_185:\n        /* \"#utility.yul\":15933:15967   */\n      0x4661696c656420746f2077697468647261772066756e647320746f206d73672e\n        /* \"#utility.yul\":15929:15930   */\n      0x00\n        /* \"#utility.yul\":15921:15927   */\n      dup3\n        /* \"#utility.yul\":15917:15931   */\n      add\n        /* \"#utility.yul\":15910:15968   */\n      mstore\n        /* \"#utility.yul\":16002:16010   */\n      0x73656e6465720000000000000000000000000000000000000000000000000000\n        /* \"#utility.yul\":15997:15999   */\n      0x20\n        /* \"#utility.yul\":15989:15995   */\n      dup3\n        /* \"#utility.yul\":15985:16000   */\n      add\n        /* \"#utility.yul\":15978:16011   */\n      mstore\n        /* \"#utility.yul\":15793:16018   */\n      pop\n      jump\t// out\n        /* \"#utility.yul\":16024:16390   */\n    tag_186:\n        /* \"#utility.yul\":16166:16169   */\n      0x00\n        /* \"#utility.yul\":16187:16254   */\n      tag_321\n        /* \"#utility.yul\":16251:16253   */\n      0x26\n        /* \"#utility.yul\":16246:16249   */\n      dup4\n        /* \"#utility.yul\":16187:16254   */\n      tag_165\n      jump\t// in\n    tag_321:\n        /* \"#utility.yul\":16180:16254   */\n      swap2\n      pop\n        /* \"#utility.yul\":16263:16356   */\n      tag_322\n        /* \"#utility.yul\":16352:16355   */\n      dup3\n        /* \"#utility.yul\":16263:16356   */\n      tag_185\n      jump\t// in\n    tag_322:\n        /* \"#utility.yul\":16381:16383   */\n      0x40\n        /* \"#utility.yul\":16376:16379   */\n      dup3\n        /* \"#utility.yul\":16372:16384   */\n      add\n        /* \"#utility.yul\":16365:16384   */\n      swap1\n      pop\n        /* \"#utility.yul\":16024:16390   */\n      swap2\n      swap1\n      pop\n      jump\t// out\n        /* \"#utility.yul\":16396:16815   */\n    tag_120:\n        /* \"#utility.yul\":16562:16566   */\n      0x00\n        /* \"#utility.yul\":16600:16602   */\n      0x20\n        /* \"#utility.yul\":16589:16598   */\n      dup3\n        /* \"#utility.yul\":16585:16603   */\n      add\n        /* \"#utility.yul\":16577:16603   */\n      swap1\n      pop\n        /* \"#utility.yul\":16649:16658   */\n      dup2\n        /* \"#utility.yul\":16643:16647   */\n      dup2\n        /* \"#utility.yul\":16639:16659   */\n      sub\n        /* \"#utility.yul\":16635:16636   */\n      0x00\n        /* \"#utility.yul\":16624:16633   */\n      dup4\n        /* \"#utility.yul\":16620:16637   */\n      add\n        /* \"#utility.yul\":16613:16660   */\n      mstore\n        /* \"#utility.yul\":16677:16808   */\n      tag_324\n        /* \"#utility.yul\":16803:16807   */\n      dup2\n        /* \"#utility.yul\":16677:16808   */\n      tag_186\n      jump\t// in\n    tag_324:\n        /* \"#utility.yul\":16669:16808   */\n      swap1\n      pop\n        /* \"#utility.yul\":16396:16815   */\n      swap2\n      swap1\n      pop\n      jump\t// out\n        /* \"#utility.yul\":16821:17046   */\n    tag_187:\n        /* \"#utility.yul\":16961:16995   */\n      0x4f776e61626c653a206e6577206f776e657220697320746865207a65726f2061\n        /* \"#utility.yul\":16957:16958   */\n      0x00\n        /* \"#utility.yul\":16949:16955   */\n      dup3\n        /* \"#utility.yul\":16945:16959   */\n      add\n        /* \"#utility.yul\":16938:16996   */\n      mstore\n        /* \"#utility.yul\":17030:17038   */\n      0x6464726573730000000000000000000000000000000000000000000000000000\n        /* \"#utility.yul\":17025:17027   */\n      0x20\n        /* \"#utility.yul\":17017:17023   */\n      dup3\n        /* \"#utility.yul\":17013:17028   */\n      add\n        /* \"#utility.yul\":17006:17039   */\n      mstore\n        /* \"#utility.yul\":16821:17046   */\n      pop\n      jump\t// out\n        /* \"#utility.yul\":17052:17418   */\n    tag_188:\n        /* \"#utility.yul\":17194:17197   */\n      0x00\n        /* \"#utility.yul\":17215:17282   */\n      tag_327\n        /* \"#utility.yul\":17279:17281   */\n      0x26\n        /* \"#utility.yul\":17274:17277   */\n      dup4\n        /* \"#utility.yul\":17215:17282   */\n      tag_165\n      jump\t// in\n    tag_327:\n        /* \"#utility.yul\":17208:17282   */\n      swap2\n      pop\n        /* \"#utility.yul\":17291:17384   */\n      tag_328\n        /* \"#utility.yul\":17380:17383   */\n      dup3\n        /* \"#utility.yul\":17291:17384   */\n      tag_187\n      jump\t// in\n    tag_328:\n        /* \"#utility.yul\":17409:17411   */\n      0x40\n        /* \"#utility.yul\":17404:17407   */\n      dup3\n        /* \"#utility.yul\":17400:17412   */\n      add\n        /* \"#utility.yul\":17393:17412   */\n      swap1\n      pop\n        /* \"#utility.yul\":17052:17418   */\n      swap2\n      swap1\n      pop\n      jump\t// out\n        /* \"#utility.yul\":17424:17843   */\n    tag_136:\n        /* \"#utility.yul\":17590:17594   */\n      0x00\n        /* \"#utility.yul\":17628:17630   */\n      0x20\n        /* \"#utility.yul\":17617:17626   */\n      dup3\n        /* \"#utility.yul\":17613:17631   */\n      add\n        /* \"#utility.yul\":17605:17631   */\n      swap1\n      pop\n        /* \"#utility.yul\":17677:17686   */\n      dup2\n        /* \"#utility.yul\":17671:17675   */\n      dup2\n        /* \"#utility.yul\":17667:17687   */\n      sub\n        /* \"#utility.yul\":17663:17664   */\n      0x00\n        /* \"#utility.yul\":17652:17661   */\n      dup4\n        /* \"#utility.yul\":17648:17665   */\n      add\n        /* \"#utility.yul\":17641:17688   */\n      mstore\n        /* \"#utility.yul\":17705:17836   */\n      tag_330\n        /* \"#utility.yul\":17831:17835   */\n      dup2\n        /* \"#utility.yul\":17705:17836   */\n      tag_188\n      jump\t// in\n    tag_330:\n        /* \"#utility.yul\":17697:17836   */\n      swap1\n      pop\n        /* \"#utility.yul\":17424:17843   */\n      swap2\n      swap1\n      pop\n      jump\t// out\n        /* \"#utility.yul\":17849:18031   */\n    tag_189:\n        /* \"#utility.yul\":17989:18023   */\n      0x4f776e61626c653a2063616c6c6572206973206e6f7420746865206f776e6572\n        /* \"#utility.yul\":17985:17986   */\n      0x00\n        /* \"#utility.yul\":17977:17983   */\n      dup3\n        /* \"#utility.yul\":17973:17987   */\n      add\n        /* \"#utility.yul\":17966:18024   */\n      mstore\n        /* \"#utility.yul\":17849:18031   */\n      pop\n      jump\t// out\n        /* \"#utility.yul\":18037:18403   */\n    tag_190:\n        /* \"#utility.yul\":18179:18182   */\n      0x00\n        /* \"#utility.yul\":18200:18267   */\n      tag_333\n        /* \"#utility.yul\":18264:18266   */\n      0x20\n        /* \"#utility.yul\":18259:18262   */\n      dup4\n        /* \"#utility.yul\":18200:18267   */\n      tag_165\n      jump\t// in\n    tag_333:\n        /* \"#utility.yul\":18193:18267   */\n      swap2\n      pop\n        /* \"#utility.yul\":18276:18369   */\n      tag_334\n        /* \"#utility.yul\":18365:18368   */\n      dup3\n        /* \"#utility.yul\":18276:18369   */\n      tag_189\n      jump\t// in\n    tag_334:\n        /* \"#utility.yul\":18394:18396   */\n      0x20\n        /* \"#utility.yul\":18389:18392   */\n      dup3\n        /* \"#utility.yul\":18385:18397   */\n      add\n        /* \"#utility.yul\":18378:18397   */\n      swap1\n      pop\n        /* \"#utility.yul\":18037:18403   */\n      swap2\n      swap1\n      pop\n      jump\t// out\n        /* \"#utility.yul\":18409:18828   */\n    tag_144:\n        /* \"#utility.yul\":18575:18579   */\n      0x00\n        /* \"#utility.yul\":18613:18615   */\n      0x20\n        /* \"#utility.yul\":18602:18611   */\n      dup3\n        /* \"#utility.yul\":18598:18616   */\n      add\n        /* \"#utility.yul\":18590:18616   */\n      swap1\n      pop\n        /* \"#utility.yul\":18662:18671   */\n      dup2\n        /* \"#utility.yul\":18656:18660   */\n      dup2\n        /* \"#utility.yul\":18652:18672   */\n      sub\n        /* \"#utility.yul\":18648:18649   */\n      0x00\n        /* \"#utility.yul\":18637:18646   */\n      dup4\n        /* \"#utility.yul\":18633:18650   */\n      add\n        /* \"#utility.yul\":18626:18673   */\n      mstore\n        /* \"#utility.yul\":18690:18821   */\n      tag_336\n        /* \"#utility.yul\":18816:18820   */\n      dup2\n        /* \"#utility.yul\":18690:18821   */\n      tag_190\n      jump\t// in\n    tag_336:\n        /* \"#utility.yul\":18682:18821   */\n      swap1\n      pop\n        /* \"#utility.yul\":18409:18828   */\n      swap2\n      swap1\n      pop\n      jump\t// out\n        /* \"#utility.yul\":18834:19015   */\n    tag_191:\n        /* \"#utility.yul\":18974:19007   */\n      0x5265656e7472616e637947756172643a207265656e7472616e742063616c6c00\n        /* \"#utility.yul\":18970:18971   */\n      0x00\n        /* \"#utility.yul\":18962:18968   */\n      dup3\n        /* \"#utility.yul\":18958:18972   */\n      add\n        /* \"#utility.yul\":18951:19008   */\n      mstore\n        /* \"#utility.yul\":18834:19015   */\n      pop\n      jump\t// out\n        /* \"#utility.yul\":19021:19387   */\n    tag_192:\n        /* \"#utility.yul\":19163:19166   */\n      0x00\n        /* \"#utility.yul\":19184:19251   */\n      tag_339\n        /* \"#utility.yul\":19248:19250   */\n      0x1f\n        /* \"#utility.yul\":19243:19246   */\n      dup4\n        /* \"#utility.yul\":19184:19251   */\n      tag_165\n      jump\t// in\n    tag_339:\n        /* \"#utility.yul\":19177:19251   */\n      swap2\n      pop\n        /* \"#utility.yul\":19260:19353   */\n      tag_340\n        /* \"#utility.yul\":19349:19352   */\n      dup3\n        /* \"#utility.yul\":19260:19353   */\n      tag_191\n      jump\t// in\n    tag_340:\n        /* \"#utility.yul\":19378:19380   */\n      0x20\n        /* \"#utility.yul\":19373:19376   */\n      dup3\n        /* \"#utility.yul\":19369:19381   */\n      add\n        /* \"#utility.yul\":19362:19381   */\n      swap1\n      pop\n        /* \"#utility.yul\":19021:19387   */\n      swap2\n      swap1\n      pop\n      jump\t// out\n        /* \"#utility.yul\":19393:19812   */\n    tag_148:\n        /* \"#utility.yul\":19559:19563   */\n      0x00\n        /* \"#utility.yul\":19597:19599   */\n      0x20\n        /* \"#utility.yul\":19586:19595   */\n      dup3\n        /* \"#utility.yul\":19582:19600   */\n      add\n        /* \"#utility.yul\":19574:19600   */\n      swap1\n      pop\n        /* \"#utility.yul\":19646:19655   */\n      dup2\n        /* \"#utility.yul\":19640:19644   */\n      dup2\n        /* \"#utility.yul\":19636:19656   */\n      sub\n        /* \"#utility.yul\":19632:19633   */\n      0x00\n        /* \"#utility.yul\":19621:19630   */\n      dup4\n        /* \"#utility.yul\":19617:19634   */\n      add\n        /* \"#utility.yul\":19610:19657   */\n      mstore\n        /* \"#utility.yul\":19674:19805   */\n      tag_342\n        /* \"#utility.yul\":19800:19804   */\n      dup2\n        /* \"#utility.yul\":19674:19805   */\n      tag_192\n      jump\t// in\n    tag_342:\n        /* \"#utility.yul\":19666:19805   */\n      swap1\n      pop\n        /* \"#utility.yul\":19393:19812   */\n      swap2\n      swap1\n      pop\n      jump\t// out\n\n    auxdata: 0xa2646970667358221220336f12e870c31a7031c443a18904ae58e05f1d9ae21c14673dd94881b88c6ec464736f6c63430008120033\n}\n",
				"bytecode": {
					"linkReferences": {},
					"object": "60806040523480156200001157600080fd5b5060405162001c0738038062001c07833981810160405281019062000037919062000227565b620000576200004b620000b660201b60201c565b620000be60201b60201c565b600180819055508260028190555081600360006101000a81548173ffffffffffffffffffffffffffffffffffffffff021916908373ffffffffffffffffffffffffffffffffffffffff1602179055508060058190555050505062000283565b600033905090565b60008060009054906101000a900473ffffffffffffffffffffffffffffffffffffffff169050816000806101000a81548173ffffffffffffffffffffffffffffffffffffffff021916908373ffffffffffffffffffffffffffffffffffffffff1602179055508173ffffffffffffffffffffffffffffffffffffffff168173ffffffffffffffffffffffffffffffffffffffff167f8be0079c531659141344cd1fd0a4f28419497f9722a3daafe3b4186f6b6457e060405160405180910390a35050565b600080fd5b6000819050919050565b6200019c8162000187565b8114620001a857600080fd5b50565b600081519050620001bc8162000191565b92915050565b600073ffffffffffffffffffffffffffffffffffffffff82169050919050565b6000620001ef82620001c2565b9050919050565b6200020181620001e2565b81146200020d57600080fd5b50565b6000815190506200022181620001f6565b92915050565b60008060006060848603121562000243576200024262000182565b5b60006200025386828701620001ab565b9350506020620002668682870162000210565b92505060406200027986828701620001ab565b9150509250925092565b61197480620002936000396000f3fe60806040526004361061009c5760003560e01c8063715018a611610064578063715018a61461015157806374adad1d146101685780638429b045146101a95780638da5cb5b146101d4578063b6502943146101ff578063f2fde38b1461022a5761009c565b806304e40d67146100a15780630efe6a8b146100ca57806325608185146100e65780633ccfd60b1461011157806354caef7d14610128575b600080fd5b3480156100ad57600080fd5b506100c860048036038101906100c39190610fb6565b610253565b005b6100e460048036038101906100df9190611043565b6105e9565b005b3480156100f257600080fd5b506100fb6108eb565b60405161010891906110a5565b60405180910390f35b34801561011d57600080fd5b50610126610911565b005b34801561013457600080fd5b5061014f600480360381019061014a91906110c0565b610bea565b005b34801561015d57600080fd5b50610166610bfc565b005b34801561017457600080fd5b5061018f600480360381019061018a91906110ed565b610c10565b6040516101a0959493929190611129565b60405180910390f35b3480156101b557600080fd5b506101be610c86565b6040516101cb919061117c565b60405180910390f35b3480156101e057600080fd5b506101e9610c8c565b6040516101f691906110a5565b60405180910390f35b34801561020b57600080fd5b50610214610cb5565b604051610221919061117c565b60405180910390f35b34801561023657600080fd5b50610251600480360381019061024c91906110ed565b610cbb565b005b61025b610d3e565b610263610dbc565b6000600460008873ffffffffffffffffffffffffffffffffffffffff1673ffffffffffffffffffffffffffffffffffffffff1681526020019081526020016000206040518060a00160405290816000820160009054906101000a900473ffffffffffffffffffffffffffffffffffffffff1673ffffffffffffffffffffffffffffffffffffffff1673ffffffffffffffffffffffffffffffffffffffff1681526020016001820160009054906101000a900473ffffffffffffffffffffffffffffffffffffffff1673ffffffffffffffffffffffffffffffffffffffff1673ffffffffffffffffffffffffffffffffffffffff1681526020016002820154815260200160038201548152602001600482015481525050905061038481610e0b565b6103c3576040517f08c379a00000000000000000000000000000000000000000000000000000000081526004016103ba906111f4565b60405180910390fd5b858160400151101561040a576040517f08c379a000000000000000000000000000000000000000000000000000000000815260040161040190611260565b60405180910390fd5b600460008873ffffffffffffffffffffffffffffffffffffffff1673ffffffffffffffffffffffffffffffffffffffff168152602001908152602001600020600080820160006101000a81549073ffffffffffffffffffffffffffffffffffffffff02191690556001820160006101000a81549073ffffffffffffffffffffffffffffffffffffffff0219169055600282016000905560038201600090556004820160009055505060003373ffffffffffffffffffffffffffffffffffffffff166108fc6002549081150290604051600060405180830381858888f1935050505090508061052d576040517f08c379a0000000000000000000000000000000000000000000000000000000008152600401610524906112cc565b60405180910390fd5b600360009054906101000a900473ffffffffffffffffffffffffffffffffffffffff1673ffffffffffffffffffffffffffffffffffffffff1663eea0d7b28360400151600554856020015186604001518c8c8c8c8c6040518a63ffffffff1660e01b81526004016105a59897969594939291906112ec565b6000604051808303818588803b1580156105be57600080fd5b505af11580156105d2573d6000803e3d6000fd5b505050505050506105e1610e48565b505050505050565b600073ffffffffffffffffffffffffffffffffffffffff163373ffffffffffffffffffffffffffffffffffffffff1603610658576040517f08c379a000000000000000000000000000000000000000000000000000000000815260040161064f906113b6565b60405180910390fd5b600073ffffffffffffffffffffffffffffffffffffffff168373ffffffffffffffffffffffffffffffffffffffff16036106c7576040517f08c379a00000000000000000000000000000000000000000000000000000000081526004016106be90611448565b60405180910390fd5b6000821161070a576040517f08c379a0000000000000000000000000000000000000000000000000000000008152600401610701906114da565b60405180910390fd5b60025434101561074f576040517f08c379a00000000000000000000000000000000000000000000000000000000081526004016107469061156c565b60405180910390fd5b60006002543461075f91906115bb565b9050818110156107a4576040517f08c379a000000000000000000000000000000000000000000000000000000000815260040161079b90611687565b60405180910390fd5b6040518060a001604052803373ffffffffffffffffffffffffffffffffffffffff1681526020018573ffffffffffffffffffffffffffffffffffffffff16815260200182815260200183815260200184815250600460003373ffffffffffffffffffffffffffffffffffffffff1673ffffffffffffffffffffffffffffffffffffffff16815260200190815260200160002060008201518160000160006101000a81548173ffffffffffffffffffffffffffffffffffffffff021916908373ffffffffffffffffffffffffffffffffffffffff16021790555060208201518160010160006101000a81548173ffffffffffffffffffffffffffffffffffffffff021916908373ffffffffffffffffffffffffffffffffffffffff16021790555060408201518160020155606082015181600301556080820151816004015590505050505050565b600360009054906101000a900473ffffffffffffffffffffffffffffffffffffffff1681565b610919610dbc565b6000600460003373ffffffffffffffffffffffffffffffffffffffff1673ffffffffffffffffffffffffffffffffffffffff1681526020019081526020016000206040518060a00160405290816000820160009054906101000a900473ffffffffffffffffffffffffffffffffffffffff1673ffffffffffffffffffffffffffffffffffffffff1673ffffffffffffffffffffffffffffffffffffffff1681526020016001820160009054906101000a900473ffffffffffffffffffffffffffffffffffffffff1673ffffffffffffffffffffffffffffffffffffffff1673ffffffffffffffffffffffffffffffffffffffff16815260200160028201548152602001600382015481526020016004820154815250509050610a3a81610e0b565b610a79576040517f08c379a0000000000000000000000000000000000000000000000000000000008152600401610a70906116f3565b60405180910390fd5b600460003373ffffffffffffffffffffffffffffffffffffffff1673ffffffffffffffffffffffffffffffffffffffff168152602001908152602001600020600080820160006101000a81549073ffffffffffffffffffffffffffffffffffffffff02191690556001820160006101000a81549073ffffffffffffffffffffffffffffffffffffffff021916905560028201600090556003820160009055600482016000905550503373ffffffffffffffffffffffffffffffffffffffff16816000015173ffffffffffffffffffffffffffffffffffffffff1614610b6157610b60611713565b5b60003373ffffffffffffffffffffffffffffffffffffffff166108fc83604001519081150290604051600060405180830381858888f19350505050905080610bde576040517f08c379a0000000000000000000000000000000000000000000000000000000008152600401610bd5906117b4565b60405180910390fd5b5050610be8610e48565b565b610bf2610d3e565b8060028190555050565b610c04610d3e565b610c0e6000610e51565b565b60046020528060005260406000206000915090508060000160009054906101000a900473ffffffffffffffffffffffffffffffffffffffff16908060010160009054906101000a900473ffffffffffffffffffffffffffffffffffffffff16908060020154908060030154908060040154905085565b60025481565b60008060009054906101000a900473ffffffffffffffffffffffffffffffffffffffff16905090565b60055481565b610cc3610d3e565b600073ffffffffffffffffffffffffffffffffffffffff168173ffffffffffffffffffffffffffffffffffffffff1603610d32576040517f08c379a0000000000000000000000000000000000000000000000000000000008152600401610d2990611846565b60405180910390fd5b610d3b81610e51565b50565b610d46610f15565b73ffffffffffffffffffffffffffffffffffffffff16610d64610c8c565b73ffffffffffffffffffffffffffffffffffffffff1614610dba576040517f08c379a0000000000000000000000000000000000000000000000000000000008152600401610db1906118b2565b60405180910390fd5b565b600260015403610e01576040517f08c379a0000000000000000000000000000000000000000000000000000000008152600401610df89061191e565b60405180910390fd5b6002600181905550565b60008073ffffffffffffffffffffffffffffffffffffffff16826000015173ffffffffffffffffffffffffffffffffffffffff1614159050919050565b60018081905550565b60008060009054906101000a900473ffffffffffffffffffffffffffffffffffffffff169050816000806101000a81548173ffffffffffffffffffffffffffffffffffffffff021916908373ffffffffffffffffffffffffffffffffffffffff1602179055508173ffffffffffffffffffffffffffffffffffffffff168173ffffffffffffffffffffffffffffffffffffffff167f8be0079c531659141344cd1fd0a4f28419497f9722a3daafe3b4186f6b6457e060405160405180910390a35050565b600033905090565b600080fd5b600073ffffffffffffffffffffffffffffffffffffffff82169050919050565b6000610f4d82610f22565b9050919050565b610f5d81610f42565b8114610f6857600080fd5b50565b600081359050610f7a81610f54565b92915050565b6000819050919050565b610f9381610f80565b8114610f9e57600080fd5b50565b600081359050610fb081610f8a565b92915050565b60008060008060008060c08789031215610fd357610fd2610f1d565b5b6000610fe189828a01610f6b565b9650506020610ff289828a01610fa1565b955050604061100389828a01610fa1565b945050606061101489828a01610fa1565b935050608061102589828a01610fa1565b92505060a061103689828a01610fa1565b9150509295509295509295565b60008060006060848603121561105c5761105b610f1d565b5b600061106a86828701610f6b565b935050602061107b86828701610fa1565b925050604061108c86828701610fa1565b9150509250925092565b61109f81610f42565b82525050565b60006020820190506110ba6000830184611096565b92915050565b6000602082840312156110d6576110d5610f1d565b5b60006110e484828501610fa1565b91505092915050565b60006020828403121561110357611102610f1d565b5b600061111184828501610f6b565b91505092915050565b61112381610f80565b82525050565b600060a08201905061113e6000830188611096565b61114b6020830187611096565b611158604083018661111a565b611165606083018561111a565b611172608083018461111a565b9695505050505050565b6000602082019050611191600083018461111a565b92915050565b600082825260208201905092915050565b7f4e6f207265717565737420746f2070726f636573730000000000000000000000600082015250565b60006111de601583611197565b91506111e9826111a8565b602082019050919050565b6000602082019050818103600083015261120d816111d1565b9050919050565b7f426f6e646572206665652063616e6e6f742065786365656420616d6f756e742e600082015250565b600061124a602083611197565b915061125582611214565b602082019050919050565b600060208201905081810360008301526112798161123d565b9050919050565b7f4661696c656420746f20726566756e64206578656375746f7200000000000000600082015250565b60006112b6601983611197565b91506112c182611280565b602082019050919050565b600060208201905081810360008301526112e5816112a9565b9050919050565b600061010082019050611302600083018b61111a565b61130f602083018a611096565b61131c604083018961111a565b611329606083018861111a565b611336608083018761111a565b61134360a083018661111a565b61135060c083018561111a565b61135d60e083018461111a565b9998505050505050505050565b7f53656e646572206d6179206e6f74206265203020616464726573730000000000600082015250565b60006113a0601b83611197565b91506113ab8261136a565b602082019050919050565b600060208201905081810360008301526113cf81611393565b9050919050565b7f44657374696e6174696f6e2061646472657373206d6179206e6f74206265203060008201527f2061646472657373000000000000000000000000000000000000000000000000602082015250565b6000611432602883611197565b915061143d826113d6565b604082019050919050565b6000602082019050818103600083015261146181611425565b9050919050565b7f57616e746564204c3120676173207072696365206d757374206265207374726960008201527f63746c7920706f73697469766500000000000000000000000000000000000000602082015250565b60006114c4602d83611197565b91506114cf82611468565b604082019050919050565b600060208201905081810360008301526114f3816114b7565b9050919050565b7f4e6f7420656e6f7567682066756e647320746f2070617920666f722064656c6160008201527f79656420657865637574696f6e00000000000000000000000000000000000000602082015250565b6000611556602d83611197565b9150611561826114fa565b604082019050919050565b6000602082019050818103600083015261158581611549565b9050919050565b7f4e487b7100000000000000000000000000000000000000000000000000000000600052601160045260246000fd5b60006115c682610f80565b91506115d183610f80565b92508282039050818111156115e9576115e861158c565b5b92915050565b7f43616c63756c617465642073656e7420616d6f756e74206d757374206265206c60008201527f6172676572207468616e20746865207265717569726564206d696e696d756d2060208201527f616d6f756e74206172726976696e672061742064657374696e6174696f6e2e00604082015250565b6000611671605f83611197565b915061167c826115ef565b606082019050919050565b600060208201905081810360008301526116a081611664565b9050919050565b7f4e6f207265717565737420746f20776974686472617700000000000000000000600082015250565b60006116dd601683611197565b91506116e8826116a7565b602082019050919050565b6000602082019050818103600083015261170c816116d0565b9050919050565b7f4e487b7100000000000000000000000000000000000000000000000000000000600052600160045260246000fd5b7f4661696c656420746f2077697468647261772066756e647320746f206d73672e60008201527f73656e6465720000000000000000000000000000000000000000000000000000602082015250565b600061179e602683611197565b91506117a982611742565b604082019050919050565b600060208201905081810360008301526117cd81611791565b9050919050565b7f4f776e61626c653a206e6577206f776e657220697320746865207a65726f206160008201527f6464726573730000000000000000000000000000000000000000000000000000602082015250565b6000611830602683611197565b915061183b826117d4565b604082019050919050565b6000602082019050818103600083015261185f81611823565b9050919050565b7f4f776e61626c653a2063616c6c6572206973206e6f7420746865206f776e6572600082015250565b600061189c602083611197565b91506118a782611866565b602082019050919050565b600060208201905081810360008301526118cb8161188f565b9050919050565b7f5265656e7472616e637947756172643a207265656e7472616e742063616c6c00600082015250565b6000611908601f83611197565b9150611913826118d2565b602082019050919050565b60006020820190508181036000830152611937816118fb565b905091905056fea2646970667358221220336f12e870c31a7031c443a18904ae58e05f1d9ae21c14673dd94881b88c6ec464736f6c63430008120033",
					"opcodes": "PUSH1 0x80 PUSH1 0x40 MSTORE CALLVALUE DUP1 ISZERO PUSH3 0x11 JUMPI PUSH1 0x0 DUP1 REVERT JUMPDEST POP PUSH1 0x40 MLOAD PUSH3 0x1C07 CODESIZE SUB DUP1 PUSH3 0x1C07 DUP4 CODECOPY DUP2 DUP2 ADD PUSH1 0x40 MSTORE DUP2 ADD SWAP1 PUSH3 0x37 SWAP2 SWAP1 PUSH3 0x227 JUMP JUMPDEST PUSH3 0x57 PUSH3 0x4B PUSH3 0xB6 PUSH1 0x20 SHL PUSH1 0x20 SHR JUMP JUMPDEST PUSH3 0xBE PUSH1 0x20 SHL PUSH1 0x20 SHR JUMP JUMPDEST PUSH1 0x1 DUP1 DUP2 SWAP1 SSTORE POP DUP3 PUSH1 0x2 DUP2 SWAP1 SSTORE POP DUP2 PUSH1 0x3 PUSH1 0x0 PUSH2 0x100 EXP DUP2 SLOAD DUP2 PUSH20 0xFFFFFFFFFFFFFFFFFFFFFFFFFFFFFFFFFFFFFFFF MUL NOT AND SWAP1 DUP4 PUSH20 0xFFFFFFFFFFFFFFFFFFFFFFFFFFFFFFFFFFFFFFFF AND MUL OR SWAP1 SSTORE POP DUP1 PUSH1 0x5 DUP2 SWAP1 SSTORE POP POP POP POP PUSH3 0x283 JUMP JUMPDEST PUSH1 0x0 CALLER SWAP1 POP SWAP1 JUMP JUMPDEST PUSH1 0x0 DUP1 PUSH1 0x0 SWAP1 SLOAD SWAP1 PUSH2 0x100 EXP SWAP1 DIV PUSH20 0xFFFFFFFFFFFFFFFFFFFFFFFFFFFFFFFFFFFFFFFF AND SWAP1 POP DUP2 PUSH1 0x0 DUP1 PUSH2 0x100 EXP DUP2 SLOAD DUP2 PUSH20 0xFFFFFFFFFFFFFFFFFFFFFFFFFFFFFFFFFFFFFFFF MUL NOT AND SWAP1 DUP4 PUSH20 0xFFFFFFFFFFFFFFFFFFFFFFFFFFFFFFFFFFFFFFFF AND MUL OR SWAP1 SSTORE POP DUP2 PUSH20 0xFFFFFFFFFFFFFFFFFFFFFFFFFFFFFFFFFFFFFFFF AND DUP2 PUSH20 0xFFFFFFFFFFFFFFFFFFFFFFFFFFFFFFFFFFFFFFFF AND PUSH32 0x8BE0079C531659141344CD1FD0A4F28419497F9722A3DAAFE3B4186F6B6457E0 PUSH1 0x40 MLOAD PUSH1 0x40 MLOAD DUP1 SWAP2 SUB SWAP1 LOG3 POP POP JUMP JUMPDEST PUSH1 0x0 DUP1 REVERT JUMPDEST PUSH1 0x0 DUP2 SWAP1 POP SWAP2 SWAP1 POP JUMP JUMPDEST PUSH3 0x19C DUP2 PUSH3 0x187 JUMP JUMPDEST DUP2 EQ PUSH3 0x1A8 JUMPI PUSH1 0x0 DUP1 REVERT JUMPDEST POP JUMP JUMPDEST PUSH1 0x0 DUP2 MLOAD SWAP1 POP PUSH3 0x1BC DUP2 PUSH3 0x191 JUMP JUMPDEST SWAP3 SWAP2 POP POP JUMP JUMPDEST PUSH1 0x0 PUSH20 0xFFFFFFFFFFFFFFFFFFFFFFFFFFFFFFFFFFFFFFFF DUP3 AND SWAP1 POP SWAP2 SWAP1 POP JUMP JUMPDEST PUSH1 0x0 PUSH3 0x1EF DUP3 PUSH3 0x1C2 JUMP JUMPDEST SWAP1 POP SWAP2 SWAP1 POP JUMP JUMPDEST PUSH3 0x201 DUP2 PUSH3 0x1E2 JUMP JUMPDEST DUP2 EQ PUSH3 0x20D JUMPI PUSH1 0x0 DUP1 REVERT JUMPDEST POP JUMP JUMPDEST PUSH1 0x0 DUP2 MLOAD SWAP1 POP PUSH3 0x221 DUP2 PUSH3 0x1F6 JUMP JUMPDEST SWAP3 SWAP2 POP POP JUMP JUMPDEST PUSH1 0x0 DUP1 PUSH1 0x0 PUSH1 0x60 DUP5 DUP7 SUB SLT ISZERO PUSH3 0x243 JUMPI PUSH3 0x242 PUSH3 0x182 JUMP JUMPDEST JUMPDEST PUSH1 0x0 PUSH3 0x253 DUP7 DUP3 DUP8 ADD PUSH3 0x1AB JUMP JUMPDEST SWAP4 POP POP PUSH1 0x20 PUSH3 0x266 DUP7 DUP3 DUP8 ADD PUSH3 0x210 JUMP JUMPDEST SWAP3 POP POP PUSH1 0x40 PUSH3 0x279 DUP7 DUP3 DUP8 ADD PUSH3 0x1AB JUMP JUMPDEST SWAP2 POP POP SWAP3 POP SWAP3 POP SWAP3 JUMP JUMPDEST PUSH2 0x1974 DUP1 PUSH3 0x293 PUSH1 0x0 CODECOPY PUSH1 0x0 RETURN INVALID PUSH1 0x80 PUSH1 0x40 MSTORE PUSH1 0x4 CALLDATASIZE LT PUSH2 0x9C JUMPI PUSH1 0x0 CALLDATALOAD PUSH1 0xE0 SHR DUP1 PUSH4 0x715018A6 GT PUSH2 0x64 JUMPI DUP1 PUSH4 0x715018A6 EQ PUSH2 0x151 JUMPI DUP1 PUSH4 0x74ADAD1D EQ PUSH2 0x168 JUMPI DUP1 PUSH4 0x8429B045 EQ PUSH2 0x1A9 JUMPI DUP1 PUSH4 0x8DA5CB5B EQ PUSH2 0x1D4 JUMPI DUP1 PUSH4 0xB6502943 EQ PUSH2 0x1FF JUMPI DUP1 PUSH4 0xF2FDE38B EQ PUSH2 0x22A JUMPI PUSH2 0x9C JUMP JUMPDEST DUP1 PUSH4 0x4E40D67 EQ PUSH2 0xA1 JUMPI DUP1 PUSH4 0xEFE6A8B EQ PUSH2 0xCA JUMPI DUP1 PUSH4 0x25608185 EQ PUSH2 0xE6 JUMPI DUP1 PUSH4 0x3CCFD60B EQ PUSH2 0x111 JUMPI DUP1 PUSH4 0x54CAEF7D EQ PUSH2 0x128 JUMPI JUMPDEST PUSH1 0x0 DUP1 REVERT JUMPDEST CALLVALUE DUP1 ISZERO PUSH2 0xAD JUMPI PUSH1 0x0 DUP1 REVERT JUMPDEST POP PUSH2 0xC8 PUSH1 0x4 DUP1 CALLDATASIZE SUB DUP2 ADD SWAP1 PUSH2 0xC3 SWAP2 SWAP1 PUSH2 0xFB6 JUMP JUMPDEST PUSH2 0x253 JUMP JUMPDEST STOP JUMPDEST PUSH2 0xE4 PUSH1 0x4 DUP1 CALLDATASIZE SUB DUP2 ADD SWAP1 PUSH2 0xDF SWAP2 SWAP1 PUSH2 0x1043 JUMP JUMPDEST PUSH2 0x5E9 JUMP JUMPDEST STOP JUMPDEST CALLVALUE DUP1 ISZERO PUSH2 0xF2 JUMPI PUSH1 0x0 DUP1 REVERT JUMPDEST POP PUSH2 0xFB PUSH2 0x8EB JUMP JUMPDEST PUSH1 0x40 MLOAD PUSH2 0x108 SWAP2 SWAP1 PUSH2 0x10A5 JUMP JUMPDEST PUSH1 0x40 MLOAD DUP1 SWAP2 SUB SWAP1 RETURN JUMPDEST CALLVALUE DUP1 ISZERO PUSH2 0x11D JUMPI PUSH1 0x0 DUP1 REVERT JUMPDEST POP PUSH2 0x126 PUSH2 0x911 JUMP JUMPDEST STOP JUMPDEST CALLVALUE DUP1 ISZERO PUSH2 0x134 JUMPI PUSH1 0x0 DUP1 REVERT JUMPDEST POP PUSH2 0x14F PUSH1 0x4 DUP1 CALLDATASIZE SUB DUP2 ADD SWAP1 PUSH2 0x14A SWAP2 SWAP1 PUSH2 0x10C0 JUMP JUMPDEST PUSH2 0xBEA JUMP JUMPDEST STOP JUMPDEST CALLVALUE DUP1 ISZERO PUSH2 0x15D JUMPI PUSH1 0x0 DUP1 REVERT JUMPDEST POP PUSH2 0x166 PUSH2 0xBFC JUMP JUMPDEST STOP JUMPDEST CALLVALUE DUP1 ISZERO PUSH2 0x174 JUMPI PUSH1 0x0 DUP1 REVERT JUMPDEST POP PUSH2 0x18F PUSH1 0x4 DUP1 CALLDATASIZE SUB DUP2 ADD SWAP1 PUSH2 0x18A SWAP2 SWAP1 PUSH2 0x10ED JUMP JUMPDEST PUSH2 0xC10 JUMP JUMPDEST PUSH1 0x40 MLOAD PUSH2 0x1A0 SWAP6 SWAP5 SWAP4 SWAP3 SWAP2 SWAP1 PUSH2 0x1129 JUMP JUMPDEST PUSH1 0x40 MLOAD DUP1 SWAP2 SUB SWAP1 RETURN JUMPDEST CALLVALUE DUP1 ISZERO PUSH2 0x1B5 JUMPI PUSH1 0x0 DUP1 REVERT JUMPDEST POP PUSH2 0x1BE PUSH2 0xC86 JUMP JUMPDEST PUSH1 0x40 MLOAD PUSH2 0x1CB SWAP2 SWAP1 PUSH2 0x117C JUMP JUMPDEST PUSH1 0x40 MLOAD DUP1 SWAP2 SUB SWAP1 RETURN JUMPDEST CALLVALUE DUP1 ISZERO PUSH2 0x1E0 JUMPI PUSH1 0x0 DUP1 REVERT JUMPDEST POP PUSH2 0x1E9 PUSH2 0xC8C JUMP JUMPDEST PUSH1 0x40 MLOAD PUSH2 0x1F6 SWAP2 SWAP1 PUSH2 0x10A5 JUMP JUMPDEST PUSH1 0x40 MLOAD DUP1 SWAP2 SUB SWAP1 RETURN JUMPDEST CALLVALUE DUP1 ISZERO PUSH2 0x20B JUMPI PUSH1 0x0 DUP1 REVERT JUMPDEST POP PUSH2 0x214 PUSH2 0xCB5 JUMP JUMPDEST PUSH1 0x40 MLOAD PUSH2 0x221 SWAP2 SWAP1 PUSH2 0x117C JUMP JUMPDEST PUSH1 0x40 MLOAD DUP1 SWAP2 SUB SWAP1 RETURN JUMPDEST CALLVALUE DUP1 ISZERO PUSH2 0x236 JUMPI PUSH1 0x0 DUP1 REVERT JUMPDEST POP PUSH2 0x251 PUSH1 0x4 DUP1 CALLDATASIZE SUB DUP2 ADD SWAP1 PUSH2 0x24C SWAP2 SWAP1 PUSH2 0x10ED JUMP JUMPDEST PUSH2 0xCBB JUMP JUMPDEST STOP JUMPDEST PUSH2 0x25B PUSH2 0xD3E JUMP JUMPDEST PUSH2 0x263 PUSH2 0xDBC JUMP JUMPDEST PUSH1 0x0 PUSH1 0x4 PUSH1 0x0 DUP9 PUSH20 0xFFFFFFFFFFFFFFFFFFFFFFFFFFFFFFFFFFFFFFFF AND PUSH20 0xFFFFFFFFFFFFFFFFFFFFFFFFFFFFFFFFFFFFFFFF AND DUP2 MSTORE PUSH1 0x20 ADD SWAP1 DUP2 MSTORE PUSH1 0x20 ADD PUSH1 0x0 KECCAK256 PUSH1 0x40 MLOAD DUP1 PUSH1 0xA0 ADD PUSH1 0x40 MSTORE SWAP1 DUP2 PUSH1 0x0 DUP3 ADD PUSH1 0x0 SWAP1 SLOAD SWAP1 PUSH2 0x100 EXP SWAP1 DIV PUSH20 0xFFFFFFFFFFFFFFFFFFFFFFFFFFFFFFFFFFFFFFFF AND PUSH20 0xFFFFFFFFFFFFFFFFFFFFFFFFFFFFFFFFFFFFFFFF AND PUSH20 0xFFFFFFFFFFFFFFFFFFFFFFFFFFFFFFFFFFFFFFFF AND DUP2 MSTORE PUSH1 0x20 ADD PUSH1 0x1 DUP3 ADD PUSH1 0x0 SWAP1 SLOAD SWAP1 PUSH2 0x100 EXP SWAP1 DIV PUSH20 0xFFFFFFFFFFFFFFFFFFFFFFFFFFFFFFFFFFFFFFFF AND PUSH20 0xFFFFFFFFFFFFFFFFFFFFFFFFFFFFFFFFFFFFFFFF AND PUSH20 0xFFFFFFFFFFFFFFFFFFFFFFFFFFFFFFFFFFFFFFFF AND DUP2 MSTORE PUSH1 0x20 ADD PUSH1 0x2 DUP3 ADD SLOAD DUP2 MSTORE PUSH1 0x20 ADD PUSH1 0x3 DUP3 ADD SLOAD DUP2 MSTORE PUSH1 0x20 ADD PUSH1 0x4 DUP3 ADD SLOAD DUP2 MSTORE POP POP SWAP1 POP PUSH2 0x384 DUP2 PUSH2 0xE0B JUMP JUMPDEST PUSH2 0x3C3 JUMPI PUSH1 0x40 MLOAD PUSH32 0x8C379A000000000000000000000000000000000000000000000000000000000 DUP2 MSTORE PUSH1 0x4 ADD PUSH2 0x3BA SWAP1 PUSH2 0x11F4 JUMP JUMPDEST PUSH1 0x40 MLOAD DUP1 SWAP2 SUB SWAP1 REVERT JUMPDEST DUP6 DUP2 PUSH1 0x40 ADD MLOAD LT ISZERO PUSH2 0x40A JUMPI PUSH1 0x40 MLOAD PUSH32 0x8C379A000000000000000000000000000000000000000000000000000000000 DUP2 MSTORE PUSH1 0x4 ADD PUSH2 0x401 SWAP1 PUSH2 0x1260 JUMP JUMPDEST PUSH1 0x40 MLOAD DUP1 SWAP2 SUB SWAP1 REVERT JUMPDEST PUSH1 0x4 PUSH1 0x0 DUP9 PUSH20 0xFFFFFFFFFFFFFFFFFFFFFFFFFFFFFFFFFFFFFFFF AND PUSH20 0xFFFFFFFFFFFFFFFFFFFFFFFFFFFFFFFFFFFFFFFF AND DUP2 MSTORE PUSH1 0x20 ADD SWAP1 DUP2 MSTORE PUSH1 0x20 ADD PUSH1 0x0 KECCAK256 PUSH1 0x0 DUP1 DUP3 ADD PUSH1 0x0 PUSH2 0x100 EXP DUP2 SLOAD SWAP1 PUSH20 0xFFFFFFFFFFFFFFFFFFFFFFFFFFFFFFFFFFFFFFFF MUL NOT AND SWAP1 SSTORE PUSH1 0x1 DUP3 ADD PUSH1 0x0 PUSH2 0x100 EXP DUP2 SLOAD SWAP1 PUSH20 0xFFFFFFFFFFFFFFFFFFFFFFFFFFFFFFFFFFFFFFFF MUL NOT AND SWAP1 SSTORE PUSH1 0x2 DUP3 ADD PUSH1 0x0 SWAP1 SSTORE PUSH1 0x3 DUP3 ADD PUSH1 0x0 SWAP1 SSTORE PUSH1 0x4 DUP3 ADD PUSH1 0x0 SWAP1 SSTORE POP POP PUSH1 0x0 CALLER PUSH20 0xFFFFFFFFFFFFFFFFFFFFFFFFFFFFFFFFFFFFFFFF AND PUSH2 0x8FC PUSH1 0x2 SLOAD SWAP1 DUP2 ISZERO MUL SWAP1 PUSH1 0x40 MLOAD PUSH1 0x0 PUSH1 0x40 MLOAD DUP1 DUP4 SUB DUP2 DUP6 DUP9 DUP9 CALL SWAP4 POP POP POP POP SWAP1 POP DUP1 PUSH2 0x52D JUMPI PUSH1 0x40 MLOAD PUSH32 0x8C379A000000000000000000000000000000000000000000000000000000000 DUP2 MSTORE PUSH1 0x4 ADD PUSH2 0x524 SWAP1 PUSH2 0x12CC JUMP JUMPDEST PUSH1 0x40 MLOAD DUP1 SWAP2 SUB SWAP1 REVERT JUMPDEST PUSH1 0x3 PUSH1 0x0 SWAP1 SLOAD SWAP1 PUSH2 0x100 EXP SWAP1 DIV PUSH20 0xFFFFFFFFFFFFFFFFFFFFFFFFFFFFFFFFFFFFFFFF AND PUSH20 0xFFFFFFFFFFFFFFFFFFFFFFFFFFFFFFFFFFFFFFFF AND PUSH4 0xEEA0D7B2 DUP4 PUSH1 0x40 ADD MLOAD PUSH1 0x5 SLOAD DUP6 PUSH1 0x20 ADD MLOAD DUP7 PUSH1 0x40 ADD MLOAD DUP13 DUP13 DUP13 DUP13 DUP13 PUSH1 0x40 MLOAD DUP11 PUSH4 0xFFFFFFFF AND PUSH1 0xE0 SHL DUP2 MSTORE PUSH1 0x4 ADD PUSH2 0x5A5 SWAP9 SWAP8 SWAP7 SWAP6 SWAP5 SWAP4 SWAP3 SWAP2 SWAP1 PUSH2 0x12EC JUMP JUMPDEST PUSH1 0x0 PUSH1 0x40 MLOAD DUP1 DUP4 SUB DUP2 DUP6 DUP9 DUP1 EXTCODESIZE ISZERO DUP1 ISZERO PUSH2 0x5BE JUMPI PUSH1 0x0 DUP1 REVERT JUMPDEST POP GAS CALL ISZERO DUP1 ISZERO PUSH2 0x5D2 JUMPI RETURNDATASIZE PUSH1 0x0 DUP1 RETURNDATACOPY RETURNDATASIZE PUSH1 0x0 REVERT JUMPDEST POP POP POP POP POP POP POP PUSH2 0x5E1 PUSH2 0xE48 JUMP JUMPDEST POP POP POP POP POP POP JUMP JUMPDEST PUSH1 0x0 PUSH20 0xFFFFFFFFFFFFFFFFFFFFFFFFFFFFFFFFFFFFFFFF AND CALLER PUSH20 0xFFFFFFFFFFFFFFFFFFFFFFFFFFFFFFFFFFFFFFFF AND SUB PUSH2 0x658 JUMPI PUSH1 0x40 MLOAD PUSH32 0x8C379A000000000000000000000000000000000000000000000000000000000 DUP2 MSTORE PUSH1 0x4 ADD PUSH2 0x64F SWAP1 PUSH2 0x13B6 JUMP JUMPDEST PUSH1 0x40 MLOAD DUP1 SWAP2 SUB SWAP1 REVERT JUMPDEST PUSH1 0x0 PUSH20 0xFFFFFFFFFFFFFFFFFFFFFFFFFFFFFFFFFFFFFFFF AND DUP4 PUSH20 0xFFFFFFFFFFFFFFFFFFFFFFFFFFFFFFFFFFFFFFFF AND SUB PUSH2 0x6C7 JUMPI PUSH1 0x40 MLOAD PUSH32 0x8C379A000000000000000000000000000000000000000000000000000000000 DUP2 MSTORE PUSH1 0x4 ADD PUSH2 0x6BE SWAP1 PUSH2 0x1448 JUMP JUMPDEST PUSH1 0x40 MLOAD DUP1 SWAP2 SUB SWAP1 REVERT JUMPDEST PUSH1 0x0 DUP3 GT PUSH2 0x70A JUMPI PUSH1 0x40 MLOAD PUSH32 0x8C379A000000000000000000000000000000000000000000000000000000000 DUP2 MSTORE PUSH1 0x4 ADD PUSH2 0x701 SWAP1 PUSH2 0x14DA JUMP JUMPDEST PUSH1 0x40 MLOAD DUP1 SWAP2 SUB SWAP1 REVERT JUMPDEST PUSH1 0x2 SLOAD CALLVALUE LT ISZERO PUSH2 0x74F JUMPI PUSH1 0x40 MLOAD PUSH32 0x8C379A000000000000000000000000000000000000000000000000000000000 DUP2 MSTORE PUSH1 0x4 ADD PUSH2 0x746 SWAP1 PUSH2 0x156C JUMP JUMPDEST PUSH1 0x40 MLOAD DUP1 SWAP2 SUB SWAP1 REVERT JUMPDEST PUSH1 0x0 PUSH1 0x2 SLOAD CALLVALUE PUSH2 0x75F SWAP2 SWAP1 PUSH2 0x15BB JUMP JUMPDEST SWAP1 POP DUP2 DUP2 LT ISZERO PUSH2 0x7A4 JUMPI PUSH1 0x40 MLOAD PUSH32 0x8C379A000000000000000000000000000000000000000000000000000000000 DUP2 MSTORE PUSH1 0x4 ADD PUSH2 0x79B SWAP1 PUSH2 0x1687 JUMP JUMPDEST PUSH1 0x40 MLOAD DUP1 SWAP2 SUB SWAP1 REVERT JUMPDEST PUSH1 0x40 MLOAD DUP1 PUSH1 0xA0 ADD PUSH1 0x40 MSTORE DUP1 CALLER PUSH20 0xFFFFFFFFFFFFFFFFFFFFFFFFFFFFFFFFFFFFFFFF AND DUP2 MSTORE PUSH1 0x20 ADD DUP6 PUSH20 0xFFFFFFFFFFFFFFFFFFFFFFFFFFFFFFFFFFFFFFFF AND DUP2 MSTORE PUSH1 0x20 ADD DUP3 DUP2 MSTORE PUSH1 0x20 ADD DUP4 DUP2 MSTORE PUSH1 0x20 ADD DUP5 DUP2 MSTORE POP PUSH1 0x4 PUSH1 0x0 CALLER PUSH20 0xFFFFFFFFFFFFFFFFFFFFFFFFFFFFFFFFFFFFFFFF AND PUSH20 0xFFFFFFFFFFFFFFFFFFFFFFFFFFFFFFFFFFFFFFFF AND DUP2 MSTORE PUSH1 0x20 ADD SWAP1 DUP2 MSTORE PUSH1 0x20 ADD PUSH1 0x0 KECCAK256 PUSH1 0x0 DUP3 ADD MLOAD DUP2 PUSH1 0x0 ADD PUSH1 0x0 PUSH2 0x100 EXP DUP2 SLOAD DUP2 PUSH20 0xFFFFFFFFFFFFFFFFFFFFFFFFFFFFFFFFFFFFFFFF MUL NOT AND SWAP1 DUP4 PUSH20 0xFFFFFFFFFFFFFFFFFFFFFFFFFFFFFFFFFFFFFFFF AND MUL OR SWAP1 SSTORE POP PUSH1 0x20 DUP3 ADD MLOAD DUP2 PUSH1 0x1 ADD PUSH1 0x0 PUSH2 0x100 EXP DUP2 SLOAD DUP2 PUSH20 0xFFFFFFFFFFFFFFFFFFFFFFFFFFFFFFFFFFFFFFFF MUL NOT AND SWAP1 DUP4 PUSH20 0xFFFFFFFFFFFFFFFFFFFFFFFFFFFFFFFFFFFFFFFF AND MUL OR SWAP1 SSTORE POP PUSH1 0x40 DUP3 ADD MLOAD DUP2 PUSH1 0x2 ADD SSTORE PUSH1 0x60 DUP3 ADD MLOAD DUP2 PUSH1 0x3 ADD SSTORE PUSH1 0x80 DUP3 ADD MLOAD DUP2 PUSH1 0x4 ADD SSTORE SWAP1 POP POP POP POP POP POP JUMP JUMPDEST PUSH1 0x3 PUSH1 0x0 SWAP1 SLOAD SWAP1 PUSH2 0x100 EXP SWAP1 DIV PUSH20 0xFFFFFFFFFFFFFFFFFFFFFFFFFFFFFFFFFFFFFFFF AND DUP2 JUMP JUMPDEST PUSH2 0x919 PUSH2 0xDBC JUMP JUMPDEST PUSH1 0x0 PUSH1 0x4 PUSH1 0x0 CALLER PUSH20 0xFFFFFFFFFFFFFFFFFFFFFFFFFFFFFFFFFFFFFFFF AND PUSH20 0xFFFFFFFFFFFFFFFFFFFFFFFFFFFFFFFFFFFFFFFF AND DUP2 MSTORE PUSH1 0x20 ADD SWAP1 DUP2 MSTORE PUSH1 0x20 ADD PUSH1 0x0 KECCAK256 PUSH1 0x40 MLOAD DUP1 PUSH1 0xA0 ADD PUSH1 0x40 MSTORE SWAP1 DUP2 PUSH1 0x0 DUP3 ADD PUSH1 0x0 SWAP1 SLOAD SWAP1 PUSH2 0x100 EXP SWAP1 DIV PUSH20 0xFFFFFFFFFFFFFFFFFFFFFFFFFFFFFFFFFFFFFFFF AND PUSH20 0xFFFFFFFFFFFFFFFFFFFFFFFFFFFFFFFFFFFFFFFF AND PUSH20 0xFFFFFFFFFFFFFFFFFFFFFFFFFFFFFFFFFFFFFFFF AND DUP2 MSTORE PUSH1 0x20 ADD PUSH1 0x1 DUP3 ADD PUSH1 0x0 SWAP1 SLOAD SWAP1 PUSH2 0x100 EXP SWAP1 DIV PUSH20 0xFFFFFFFFFFFFFFFFFFFFFFFFFFFFFFFFFFFFFFFF AND PUSH20 0xFFFFFFFFFFFFFFFFFFFFFFFFFFFFFFFFFFFFFFFF AND PUSH20 0xFFFFFFFFFFFFFFFFFFFFFFFFFFFFFFFFFFFFFFFF AND DUP2 MSTORE PUSH1 0x20 ADD PUSH1 0x2 DUP3 ADD SLOAD DUP2 MSTORE PUSH1 0x20 ADD PUSH1 0x3 DUP3 ADD SLOAD DUP2 MSTORE PUSH1 0x20 ADD PUSH1 0x4 DUP3 ADD SLOAD DUP2 MSTORE POP POP SWAP1 POP PUSH2 0xA3A DUP2 PUSH2 0xE0B JUMP JUMPDEST PUSH2 0xA79 JUMPI PUSH1 0x40 MLOAD PUSH32 0x8C379A000000000000000000000000000000000000000000000000000000000 DUP2 MSTORE PUSH1 0x4 ADD PUSH2 0xA70 SWAP1 PUSH2 0x16F3 JUMP JUMPDEST PUSH1 0x40 MLOAD DUP1 SWAP2 SUB SWAP1 REVERT JUMPDEST PUSH1 0x4 PUSH1 0x0 CALLER PUSH20 0xFFFFFFFFFFFFFFFFFFFFFFFFFFFFFFFFFFFFFFFF AND PUSH20 0xFFFFFFFFFFFFFFFFFFFFFFFFFFFFFFFFFFFFFFFF AND DUP2 MSTORE PUSH1 0x20 ADD SWAP1 DUP2 MSTORE PUSH1 0x20 ADD PUSH1 0x0 KECCAK256 PUSH1 0x0 DUP1 DUP3 ADD PUSH1 0x0 PUSH2 0x100 EXP DUP2 SLOAD SWAP1 PUSH20 0xFFFFFFFFFFFFFFFFFFFFFFFFFFFFFFFFFFFFFFFF MUL NOT AND SWAP1 SSTORE PUSH1 0x1 DUP3 ADD PUSH1 0x0 PUSH2 0x100 EXP DUP2 SLOAD SWAP1 PUSH20 0xFFFFFFFFFFFFFFFFFFFFFFFFFFFFFFFFFFFFFFFF MUL NOT AND SWAP1 SSTORE PUSH1 0x2 DUP3 ADD PUSH1 0x0 SWAP1 SSTORE PUSH1 0x3 DUP3 ADD PUSH1 0x0 SWAP1 SSTORE PUSH1 0x4 DUP3 ADD PUSH1 0x0 SWAP1 SSTORE POP POP CALLER PUSH20 0xFFFFFFFFFFFFFFFFFFFFFFFFFFFFFFFFFFFFFFFF AND DUP2 PUSH1 0x0 ADD MLOAD PUSH20 0xFFFFFFFFFFFFFFFFFFFFFFFFFFFFFFFFFFFFFFFF AND EQ PUSH2 0xB61 JUMPI PUSH2 0xB60 PUSH2 0x1713 JUMP JUMPDEST JUMPDEST PUSH1 0x0 CALLER PUSH20 0xFFFFFFFFFFFFFFFFFFFFFFFFFFFFFFFFFFFFFFFF AND PUSH2 0x8FC DUP4 PUSH1 0x40 ADD MLOAD SWAP1 DUP2 ISZERO MUL SWAP1 PUSH1 0x40 MLOAD PUSH1 0x0 PUSH1 0x40 MLOAD DUP1 DUP4 SUB DUP2 DUP6 DUP9 DUP9 CALL SWAP4 POP POP POP POP SWAP1 POP DUP1 PUSH2 0xBDE JUMPI PUSH1 0x40 MLOAD PUSH32 0x8C379A000000000000000000000000000000000000000000000000000000000 DUP2 MSTORE PUSH1 0x4 ADD PUSH2 0xBD5 SWAP1 PUSH2 0x17B4 JUMP JUMPDEST PUSH1 0x40 MLOAD DUP1 SWAP2 SUB SWAP1 REVERT JUMPDEST POP POP PUSH2 0xBE8 PUSH2 0xE48 JUMP JUMPDEST JUMP JUMPDEST PUSH2 0xBF2 PUSH2 0xD3E JUMP JUMPDEST DUP1 PUSH1 0x2 DUP2 SWAP1 SSTORE POP POP JUMP JUMPDEST PUSH2 0xC04 PUSH2 0xD3E JUMP JUMPDEST PUSH2 0xC0E PUSH1 0x0 PUSH2 0xE51 JUMP JUMPDEST JUMP JUMPDEST PUSH1 0x4 PUSH1 0x20 MSTORE DUP1 PUSH1 0x0 MSTORE PUSH1 0x40 PUSH1 0x0 KECCAK256 PUSH1 0x0 SWAP2 POP SWAP1 POP DUP1 PUSH1 0x0 ADD PUSH1 0x0 SWAP1 SLOAD SWAP1 PUSH2 0x100 EXP SWAP1 DIV PUSH20 0xFFFFFFFFFFFFFFFFFFFFFFFFFFFFFFFFFFFFFFFF AND SWAP1 DUP1 PUSH1 0x1 ADD PUSH1 0x0 SWAP1 SLOAD SWAP1 PUSH2 0x100 EXP SWAP1 DIV PUSH20 0xFFFFFFFFFFFFFFFFFFFFFFFFFFFFFFFFFFFFFFFF AND SWAP1 DUP1 PUSH1 0x2 ADD SLOAD SWAP1 DUP1 PUSH1 0x3 ADD SLOAD SWAP1 DUP1 PUSH1 0x4 ADD SLOAD SWAP1 POP DUP6 JUMP JUMPDEST PUSH1 0x2 SLOAD DUP2 JUMP JUMPDEST PUSH1 0x0 DUP1 PUSH1 0x0 SWAP1 SLOAD SWAP1 PUSH2 0x100 EXP SWAP1 DIV PUSH20 0xFFFFFFFFFFFFFFFFFFFFFFFFFFFFFFFFFFFFFFFF AND SWAP1 POP SWAP1 JUMP JUMPDEST PUSH1 0x5 SLOAD DUP2 JUMP JUMPDEST PUSH2 0xCC3 PUSH2 0xD3E JUMP JUMPDEST PUSH1 0x0 PUSH20 0xFFFFFFFFFFFFFFFFFFFFFFFFFFFFFFFFFFFFFFFF AND DUP2 PUSH20 0xFFFFFFFFFFFFFFFFFFFFFFFFFFFFFFFFFFFFFFFF AND SUB PUSH2 0xD32 JUMPI PUSH1 0x40 MLOAD PUSH32 0x8C379A000000000000000000000000000000000000000000000000000000000 DUP2 MSTORE PUSH1 0x4 ADD PUSH2 0xD29 SWAP1 PUSH2 0x1846 JUMP JUMPDEST PUSH1 0x40 MLOAD DUP1 SWAP2 SUB SWAP1 REVERT JUMPDEST PUSH2 0xD3B DUP2 PUSH2 0xE51 JUMP JUMPDEST POP JUMP JUMPDEST PUSH2 0xD46 PUSH2 0xF15 JUMP JUMPDEST PUSH20 0xFFFFFFFFFFFFFFFFFFFFFFFFFFFFFFFFFFFFFFFF AND PUSH2 0xD64 PUSH2 0xC8C JUMP JUMPDEST PUSH20 0xFFFFFFFFFFFFFFFFFFFFFFFFFFFFFFFFFFFFFFFF AND EQ PUSH2 0xDBA JUMPI PUSH1 0x40 MLOAD PUSH32 0x8C379A000000000000000000000000000000000000000000000000000000000 DUP2 MSTORE PUSH1 0x4 ADD PUSH2 0xDB1 SWAP1 PUSH2 0x18B2 JUMP JUMPDEST PUSH1 0x40 MLOAD DUP1 SWAP2 SUB SWAP1 REVERT JUMPDEST JUMP JUMPDEST PUSH1 0x2 PUSH1 0x1 SLOAD SUB PUSH2 0xE01 JUMPI PUSH1 0x40 MLOAD PUSH32 0x8C379A000000000000000000000000000000000000000000000000000000000 DUP2 MSTORE PUSH1 0x4 ADD PUSH2 0xDF8 SWAP1 PUSH2 0x191E JUMP JUMPDEST PUSH1 0x40 MLOAD DUP1 SWAP2 SUB SWAP1 REVERT JUMPDEST PUSH1 0x2 PUSH1 0x1 DUP2 SWAP1 SSTORE POP JUMP JUMPDEST PUSH1 0x0 DUP1 PUSH20 0xFFFFFFFFFFFFFFFFFFFFFFFFFFFFFFFFFFFFFFFF AND DUP3 PUSH1 0x0 ADD MLOAD PUSH20 0xFFFFFFFFFFFFFFFFFFFFFFFFFFFFFFFFFFFFFFFF AND EQ ISZERO SWAP1 POP SWAP2 SWAP1 POP JUMP JUMPDEST PUSH1 0x1 DUP1 DUP2 SWAP1 SSTORE POP JUMP JUMPDEST PUSH1 0x0 DUP1 PUSH1 0x0 SWAP1 SLOAD SWAP1 PUSH2 0x100 EXP SWAP1 DIV PUSH20 0xFFFFFFFFFFFFFFFFFFFFFFFFFFFFFFFFFFFFFFFF AND SWAP1 POP DUP2 PUSH1 0x0 DUP1 PUSH2 0x100 EXP DUP2 SLOAD DUP2 PUSH20 0xFFFFFFFFFFFFFFFFFFFFFFFFFFFFFFFFFFFFFFFF MUL NOT AND SWAP1 DUP4 PUSH20 0xFFFFFFFFFFFFFFFFFFFFFFFFFFFFFFFFFFFFFFFF AND MUL OR SWAP1 SSTORE POP DUP2 PUSH20 0xFFFFFFFFFFFFFFFFFFFFFFFFFFFFFFFFFFFFFFFF AND DUP2 PUSH20 0xFFFFFFFFFFFFFFFFFFFFFFFFFFFFFFFFFFFFFFFF AND PUSH32 0x8BE0079C531659141344CD1FD0A4F28419497F9722A3DAAFE3B4186F6B6457E0 PUSH1 0x40 MLOAD PUSH1 0x40 MLOAD DUP1 SWAP2 SUB SWAP1 LOG3 POP POP JUMP JUMPDEST PUSH1 0x0 CALLER SWAP1 POP SWAP1 JUMP JUMPDEST PUSH1 0x0 DUP1 REVERT JUMPDEST PUSH1 0x0 PUSH20 0xFFFFFFFFFFFFFFFFFFFFFFFFFFFFFFFFFFFFFFFF DUP3 AND SWAP1 POP SWAP2 SWAP1 POP JUMP JUMPDEST PUSH1 0x0 PUSH2 0xF4D DUP3 PUSH2 0xF22 JUMP JUMPDEST SWAP1 POP SWAP2 SWAP1 POP JUMP JUMPDEST PUSH2 0xF5D DUP2 PUSH2 0xF42 JUMP JUMPDEST DUP2 EQ PUSH2 0xF68 JUMPI PUSH1 0x0 DUP1 REVERT JUMPDEST POP JUMP JUMPDEST PUSH1 0x0 DUP2 CALLDATALOAD SWAP1 POP PUSH2 0xF7A DUP2 PUSH2 0xF54 JUMP JUMPDEST SWAP3 SWAP2 POP POP JUMP JUMPDEST PUSH1 0x0 DUP2 SWAP1 POP SWAP2 SWAP1 POP JUMP JUMPDEST PUSH2 0xF93 DUP2 PUSH2 0xF80 JUMP JUMPDEST DUP2 EQ PUSH2 0xF9E JUMPI PUSH1 0x0 DUP1 REVERT JUMPDEST POP JUMP JUMPDEST PUSH1 0x0 DUP2 CALLDATALOAD SWAP1 POP PUSH2 0xFB0 DUP2 PUSH2 0xF8A JUMP JUMPDEST SWAP3 SWAP2 POP POP JUMP JUMPDEST PUSH1 0x0 DUP1 PUSH1 0x0 DUP1 PUSH1 0x0 DUP1 PUSH1 0xC0 DUP8 DUP10 SUB SLT ISZERO PUSH2 0xFD3 JUMPI PUSH2 0xFD2 PUSH2 0xF1D JUMP JUMPDEST JUMPDEST PUSH1 0x0 PUSH2 0xFE1 DUP10 DUP3 DUP11 ADD PUSH2 0xF6B JUMP JUMPDEST SWAP7 POP POP PUSH1 0x20 PUSH2 0xFF2 DUP10 DUP3 DUP11 ADD PUSH2 0xFA1 JUMP JUMPDEST SWAP6 POP POP PUSH1 0x40 PUSH2 0x1003 DUP10 DUP3 DUP11 ADD PUSH2 0xFA1 JUMP JUMPDEST SWAP5 POP POP PUSH1 0x60 PUSH2 0x1014 DUP10 DUP3 DUP11 ADD PUSH2 0xFA1 JUMP JUMPDEST SWAP4 POP POP PUSH1 0x80 PUSH2 0x1025 DUP10 DUP3 DUP11 ADD PUSH2 0xFA1 JUMP JUMPDEST SWAP3 POP POP PUSH1 0xA0 PUSH2 0x1036 DUP10 DUP3 DUP11 ADD PUSH2 0xFA1 JUMP JUMPDEST SWAP2 POP POP SWAP3 SWAP6 POP SWAP3 SWAP6 POP SWAP3 SWAP6 JUMP JUMPDEST PUSH1 0x0 DUP1 PUSH1 0x0 PUSH1 0x60 DUP5 DUP7 SUB SLT ISZERO PUSH2 0x105C JUMPI PUSH2 0x105B PUSH2 0xF1D JUMP JUMPDEST JUMPDEST PUSH1 0x0 PUSH2 0x106A DUP7 DUP3 DUP8 ADD PUSH2 0xF6B JUMP JUMPDEST SWAP4 POP POP PUSH1 0x20 PUSH2 0x107B DUP7 DUP3 DUP8 ADD PUSH2 0xFA1 JUMP JUMPDEST SWAP3 POP POP PUSH1 0x40 PUSH2 0x108C DUP7 DUP3 DUP8 ADD PUSH2 0xFA1 JUMP JUMPDEST SWAP2 POP POP SWAP3 POP SWAP3 POP SWAP3 JUMP JUMPDEST PUSH2 0x109F DUP2 PUSH2 0xF42 JUMP JUMPDEST DUP3 MSTORE POP POP JUMP JUMPDEST PUSH1 0x0 PUSH1 0x20 DUP3 ADD SWAP1 POP PUSH2 0x10BA PUSH1 0x0 DUP4 ADD DUP5 PUSH2 0x1096 JUMP JUMPDEST SWAP3 SWAP2 POP POP JUMP JUMPDEST PUSH1 0x0 PUSH1 0x20 DUP3 DUP5 SUB SLT ISZERO PUSH2 0x10D6 JUMPI PUSH2 0x10D5 PUSH2 0xF1D JUMP JUMPDEST JUMPDEST PUSH1 0x0 PUSH2 0x10E4 DUP5 DUP3 DUP6 ADD PUSH2 0xFA1 JUMP JUMPDEST SWAP2 POP POP SWAP3 SWAP2 POP POP JUMP JUMPDEST PUSH1 0x0 PUSH1 0x20 DUP3 DUP5 SUB SLT ISZERO PUSH2 0x1103 JUMPI PUSH2 0x1102 PUSH2 0xF1D JUMP JUMPDEST JUMPDEST PUSH1 0x0 PUSH2 0x1111 DUP5 DUP3 DUP6 ADD PUSH2 0xF6B JUMP JUMPDEST SWAP2 POP POP SWAP3 SWAP2 POP POP JUMP JUMPDEST PUSH2 0x1123 DUP2 PUSH2 0xF80 JUMP JUMPDEST DUP3 MSTORE POP POP JUMP JUMPDEST PUSH1 0x0 PUSH1 0xA0 DUP3 ADD SWAP1 POP PUSH2 0x113E PUSH1 0x0 DUP4 ADD DUP9 PUSH2 0x1096 JUMP JUMPDEST PUSH2 0x114B PUSH1 0x20 DUP4 ADD DUP8 PUSH2 0x1096 JUMP JUMPDEST PUSH2 0x1158 PUSH1 0x40 DUP4 ADD DUP7 PUSH2 0x111A JUMP JUMPDEST PUSH2 0x1165 PUSH1 0x60 DUP4 ADD DUP6 PUSH2 0x111A JUMP JUMPDEST PUSH2 0x1172 PUSH1 0x80 DUP4 ADD DUP5 PUSH2 0x111A JUMP JUMPDEST SWAP7 SWAP6 POP POP POP POP POP POP JUMP JUMPDEST PUSH1 0x0 PUSH1 0x20 DUP3 ADD SWAP1 POP PUSH2 0x1191 PUSH1 0x0 DUP4 ADD DUP5 PUSH2 0x111A JUMP JUMPDEST SWAP3 SWAP2 POP POP JUMP JUMPDEST PUSH1 0x0 DUP3 DUP3 MSTORE PUSH1 0x20 DUP3 ADD SWAP1 POP SWAP3 SWAP2 POP POP JUMP JUMPDEST PUSH32 0x4E6F207265717565737420746F2070726F636573730000000000000000000000 PUSH1 0x0 DUP3 ADD MSTORE POP JUMP JUMPDEST PUSH1 0x0 PUSH2 0x11DE PUSH1 0x15 DUP4 PUSH2 0x1197 JUMP JUMPDEST SWAP2 POP PUSH2 0x11E9 DUP3 PUSH2 0x11A8 JUMP JUMPDEST PUSH1 0x20 DUP3 ADD SWAP1 POP SWAP2 SWAP1 POP JUMP JUMPDEST PUSH1 0x0 PUSH1 0x20 DUP3 ADD SWAP1 POP DUP2 DUP2 SUB PUSH1 0x0 DUP4 ADD MSTORE PUSH2 0x120D DUP2 PUSH2 0x11D1 JUMP JUMPDEST SWAP1 POP SWAP2 SWAP1 POP JUMP JUMPDEST PUSH32 0x426F6E646572206665652063616E6E6F742065786365656420616D6F756E742E PUSH1 0x0 DUP3 ADD MSTORE POP JUMP JUMPDEST PUSH1 0x0 PUSH2 0x124A PUSH1 0x20 DUP4 PUSH2 0x1197 JUMP JUMPDEST SWAP2 POP PUSH2 0x1255 DUP3 PUSH2 0x1214 JUMP JUMPDEST PUSH1 0x20 DUP3 ADD SWAP1 POP SWAP2 SWAP1 POP JUMP JUMPDEST PUSH1 0x0 PUSH1 0x20 DUP3 ADD SWAP1 POP DUP2 DUP2 SUB PUSH1 0x0 DUP4 ADD MSTORE PUSH2 0x1279 DUP2 PUSH2 0x123D JUMP JUMPDEST SWAP1 POP SWAP2 SWAP1 POP JUMP JUMPDEST PUSH32 0x4661696C656420746F20726566756E64206578656375746F7200000000000000 PUSH1 0x0 DUP3 ADD MSTORE POP JUMP JUMPDEST PUSH1 0x0 PUSH2 0x12B6 PUSH1 0x19 DUP4 PUSH2 0x1197 JUMP JUMPDEST SWAP2 POP PUSH2 0x12C1 DUP3 PUSH2 0x1280 JUMP JUMPDEST PUSH1 0x20 DUP3 ADD SWAP1 POP SWAP2 SWAP1 POP JUMP JUMPDEST PUSH1 0x0 PUSH1 0x20 DUP3 ADD SWAP1 POP DUP2 DUP2 SUB PUSH1 0x0 DUP4 ADD MSTORE PUSH2 0x12E5 DUP2 PUSH2 0x12A9 JUMP JUMPDEST SWAP1 POP SWAP2 SWAP1 POP JUMP JUMPDEST PUSH1 0x0 PUSH2 0x100 DUP3 ADD SWAP1 POP PUSH2 0x1302 PUSH1 0x0 DUP4 ADD DUP12 PUSH2 0x111A JUMP JUMPDEST PUSH2 0x130F PUSH1 0x20 DUP4 ADD DUP11 PUSH2 0x1096 JUMP JUMPDEST PUSH2 0x131C PUSH1 0x40 DUP4 ADD DUP10 PUSH2 0x111A JUMP JUMPDEST PUSH2 0x1329 PUSH1 0x60 DUP4 ADD DUP9 PUSH2 0x111A JUMP JUMPDEST PUSH2 0x1336 PUSH1 0x80 DUP4 ADD DUP8 PUSH2 0x111A JUMP JUMPDEST PUSH2 0x1343 PUSH1 0xA0 DUP4 ADD DUP7 PUSH2 0x111A JUMP JUMPDEST PUSH2 0x1350 PUSH1 0xC0 DUP4 ADD DUP6 PUSH2 0x111A JUMP JUMPDEST PUSH2 0x135D PUSH1 0xE0 DUP4 ADD DUP5 PUSH2 0x111A JUMP JUMPDEST SWAP10 SWAP9 POP POP POP POP POP POP POP POP POP JUMP JUMPDEST PUSH32 0x53656E646572206D6179206E6F74206265203020616464726573730000000000 PUSH1 0x0 DUP3 ADD MSTORE POP JUMP JUMPDEST PUSH1 0x0 PUSH2 0x13A0 PUSH1 0x1B DUP4 PUSH2 0x1197 JUMP JUMPDEST SWAP2 POP PUSH2 0x13AB DUP3 PUSH2 0x136A JUMP JUMPDEST PUSH1 0x20 DUP3 ADD SWAP1 POP SWAP2 SWAP1 POP JUMP JUMPDEST PUSH1 0x0 PUSH1 0x20 DUP3 ADD SWAP1 POP DUP2 DUP2 SUB PUSH1 0x0 DUP4 ADD MSTORE PUSH2 0x13CF DUP2 PUSH2 0x1393 JUMP JUMPDEST SWAP1 POP SWAP2 SWAP1 POP JUMP JUMPDEST PUSH32 0x44657374696E6174696F6E2061646472657373206D6179206E6F742062652030 PUSH1 0x0 DUP3 ADD MSTORE PUSH32 0x2061646472657373000000000000000000000000000000000000000000000000 PUSH1 0x20 DUP3 ADD MSTORE POP JUMP JUMPDEST PUSH1 0x0 PUSH2 0x1432 PUSH1 0x28 DUP4 PUSH2 0x1197 JUMP JUMPDEST SWAP2 POP PUSH2 0x143D DUP3 PUSH2 0x13D6 JUMP JUMPDEST PUSH1 0x40 DUP3 ADD SWAP1 POP SWAP2 SWAP1 POP JUMP JUMPDEST PUSH1 0x0 PUSH1 0x20 DUP3 ADD SWAP1 POP DUP2 DUP2 SUB PUSH1 0x0 DUP4 ADD MSTORE PUSH2 0x1461 DUP2 PUSH2 0x1425 JUMP JUMPDEST SWAP1 POP SWAP2 SWAP1 POP JUMP JUMPDEST PUSH32 0x57616E746564204C3120676173207072696365206D7573742062652073747269 PUSH1 0x0 DUP3 ADD MSTORE PUSH32 0x63746C7920706F73697469766500000000000000000000000000000000000000 PUSH1 0x20 DUP3 ADD MSTORE POP JUMP JUMPDEST PUSH1 0x0 PUSH2 0x14C4 PUSH1 0x2D DUP4 PUSH2 0x1197 JUMP JUMPDEST SWAP2 POP PUSH2 0x14CF DUP3 PUSH2 0x1468 JUMP JUMPDEST PUSH1 0x40 DUP3 ADD SWAP1 POP SWAP2 SWAP1 POP JUMP JUMPDEST PUSH1 0x0 PUSH1 0x20 DUP3 ADD SWAP1 POP DUP2 DUP2 SUB PUSH1 0x0 DUP4 ADD MSTORE PUSH2 0x14F3 DUP2 PUSH2 0x14B7 JUMP JUMPDEST SWAP1 POP SWAP2 SWAP1 POP JUMP JUMPDEST PUSH32 0x4E6F7420656E6F7567682066756E647320746F2070617920666F722064656C61 PUSH1 0x0 DUP3 ADD MSTORE PUSH32 0x79656420657865637574696F6E00000000000000000000000000000000000000 PUSH1 0x20 DUP3 ADD MSTORE POP JUMP JUMPDEST PUSH1 0x0 PUSH2 0x1556 PUSH1 0x2D DUP4 PUSH2 0x1197 JUMP JUMPDEST SWAP2 POP PUSH2 0x1561 DUP3 PUSH2 0x14FA JUMP JUMPDEST PUSH1 0x40 DUP3 ADD SWAP1 POP SWAP2 SWAP1 POP JUMP JUMPDEST PUSH1 0x0 PUSH1 0x20 DUP3 ADD SWAP1 POP DUP2 DUP2 SUB PUSH1 0x0 DUP4 ADD MSTORE PUSH2 0x1585 DUP2 PUSH2 0x1549 JUMP JUMPDEST SWAP1 POP SWAP2 SWAP1 POP JUMP JUMPDEST PUSH32 0x4E487B7100000000000000000000000000000000000000000000000000000000 PUSH1 0x0 MSTORE PUSH1 0x11 PUSH1 0x4 MSTORE PUSH1 0x24 PUSH1 0x0 REVERT JUMPDEST PUSH1 0x0 PUSH2 0x15C6 DUP3 PUSH2 0xF80 JUMP JUMPDEST SWAP2 POP PUSH2 0x15D1 DUP4 PUSH2 0xF80 JUMP JUMPDEST SWAP3 POP DUP3 DUP3 SUB SWAP1 POP DUP2 DUP2 GT ISZERO PUSH2 0x15E9 JUMPI PUSH2 0x15E8 PUSH2 0x158C JUMP JUMPDEST JUMPDEST SWAP3 SWAP2 POP POP JUMP JUMPDEST PUSH32 0x43616C63756C617465642073656E7420616D6F756E74206D757374206265206C PUSH1 0x0 DUP3 ADD MSTORE PUSH32 0x6172676572207468616E20746865207265717569726564206D696E696D756D20 PUSH1 0x20 DUP3 ADD MSTORE PUSH32 0x616D6F756E74206172726976696E672061742064657374696E6174696F6E2E00 PUSH1 0x40 DUP3 ADD MSTORE POP JUMP JUMPDEST PUSH1 0x0 PUSH2 0x1671 PUSH1 0x5F DUP4 PUSH2 0x1197 JUMP JUMPDEST SWAP2 POP PUSH2 0x167C DUP3 PUSH2 0x15EF JUMP JUMPDEST PUSH1 0x60 DUP3 ADD SWAP1 POP SWAP2 SWAP1 POP JUMP JUMPDEST PUSH1 0x0 PUSH1 0x20 DUP3 ADD SWAP1 POP DUP2 DUP2 SUB PUSH1 0x0 DUP4 ADD MSTORE PUSH2 0x16A0 DUP2 PUSH2 0x1664 JUMP JUMPDEST SWAP1 POP SWAP2 SWAP1 POP JUMP JUMPDEST PUSH32 0x4E6F207265717565737420746F20776974686472617700000000000000000000 PUSH1 0x0 DUP3 ADD MSTORE POP JUMP JUMPDEST PUSH1 0x0 PUSH2 0x16DD PUSH1 0x16 DUP4 PUSH2 0x1197 JUMP JUMPDEST SWAP2 POP PUSH2 0x16E8 DUP3 PUSH2 0x16A7 JUMP JUMPDEST PUSH1 0x20 DUP3 ADD SWAP1 POP SWAP2 SWAP1 POP JUMP JUMPDEST PUSH1 0x0 PUSH1 0x20 DUP3 ADD SWAP1 POP DUP2 DUP2 SUB PUSH1 0x0 DUP4 ADD MSTORE PUSH2 0x170C DUP2 PUSH2 0x16D0 JUMP JUMPDEST SWAP1 POP SWAP2 SWAP1 POP JUMP JUMPDEST PUSH32 0x4E487B7100000000000000000000000000000000000000000000000000000000 PUSH1 0x0 MSTORE PUSH1 0x1 PUSH1 0x4 MSTORE PUSH1 0x24 PUSH1 0x0 REVERT JUMPDEST PUSH32 0x4661696C656420746F2077697468647261772066756E647320746F206D73672E PUSH1 0x0 DUP3 ADD MSTORE PUSH32 0x73656E6465720000000000000000000000000000000000000000000000000000 PUSH1 0x20 DUP3 ADD MSTORE POP JUMP JUMPDEST PUSH1 0x0 PUSH2 0x179E PUSH1 0x26 DUP4 PUSH2 0x1197 JUMP JUMPDEST SWAP2 POP PUSH2 0x17A9 DUP3 PUSH2 0x1742 JUMP JUMPDEST PUSH1 0x40 DUP3 ADD SWAP1 POP SWAP2 SWAP1 POP JUMP JUMPDEST PUSH1 0x0 PUSH1 0x20 DUP3 ADD SWAP1 POP DUP2 DUP2 SUB PUSH1 0x0 DUP4 ADD MSTORE PUSH2 0x17CD DUP2 PUSH2 0x1791 JUMP JUMPDEST SWAP1 POP SWAP2 SWAP1 POP JUMP JUMPDEST PUSH32 0x4F776E61626C653A206E6577206F776E657220697320746865207A65726F2061 PUSH1 0x0 DUP3 ADD MSTORE PUSH32 0x6464726573730000000000000000000000000000000000000000000000000000 PUSH1 0x20 DUP3 ADD MSTORE POP JUMP JUMPDEST PUSH1 0x0 PUSH2 0x1830 PUSH1 0x26 DUP4 PUSH2 0x1197 JUMP JUMPDEST SWAP2 POP PUSH2 0x183B DUP3 PUSH2 0x17D4 JUMP JUMPDEST PUSH1 0x40 DUP3 ADD SWAP1 POP SWAP2 SWAP1 POP JUMP JUMPDEST PUSH1 0x0 PUSH1 0x20 DUP3 ADD SWAP1 POP DUP2 DUP2 SUB PUSH1 0x0 DUP4 ADD MSTORE PUSH2 0x185F DUP2 PUSH2 0x1823 JUMP JUMPDEST SWAP1 POP SWAP2 SWAP1 POP JUMP JUMPDEST PUSH32 0x4F776E61626C653A2063616C6C6572206973206E6F7420746865206F776E6572 PUSH1 0x0 DUP3 ADD MSTORE POP JUMP JUMPDEST PUSH1 0x0 PUSH2 0x189C PUSH1 0x20 DUP4 PUSH2 0x1197 JUMP JUMPDEST SWAP2 POP PUSH2 0x18A7 DUP3 PUSH2 0x1866 JUMP JUMPDEST PUSH1 0x20 DUP3 ADD SWAP1 POP SWAP2 SWAP1 POP JUMP JUMPDEST PUSH1 0x0 PUSH1 0x20 DUP3 ADD SWAP1 POP DUP2 DUP2 SUB PUSH1 0x0 DUP4 ADD MSTORE PUSH2 0x18CB DUP2 PUSH2 0x188F JUMP JUMPDEST SWAP1 POP SWAP2 SWAP1 POP JUMP JUMPDEST PUSH32 0x5265656E7472616E637947756172643A207265656E7472616E742063616C6C00 PUSH1 0x0 DUP3 ADD MSTORE POP JUMP JUMPDEST PUSH1 0x0 PUSH2 0x1908 PUSH1 0x1F DUP4 PUSH2 0x1197 JUMP JUMPDEST SWAP2 POP PUSH2 0x1913 DUP3 PUSH2 0x18D2 JUMP JUMPDEST PUSH1 0x20 DUP3 ADD SWAP1 POP SWAP2 SWAP1 POP JUMP JUMPDEST PUSH1 0x0 PUSH1 0x20 DUP3 ADD SWAP1 POP DUP2 DUP2 SUB PUSH1 0x0 DUP4 ADD MSTORE PUSH2 0x1937 DUP2 PUSH2 0x18FB JUMP JUMPDEST SWAP1 POP SWAP2 SWAP1 POP JUMP INVALID LOG2 PUSH5 0x6970667358 0x22 SLT KECCAK256 CALLER PUSH16 0x12E870C31A7031C443A18904AE58E05F SAR SWAP11 0xE2 SHR EQ PUSH8 0x3DD94881B88C6EC4 PUSH5 0x736F6C6343 STOP ADDMOD SLT STOP CALLER "
				},
				"gasEstimates": {
					"creation": {
						"codeDepositCost": "1303200",
						"executionCost": "infinite",
						"totalCost": "infinite"
					},
					"external": {
						"deposit(address,uint256,uint256)": "infinite",
						"executeRequest(address,uint256,uint256,uint256,uint256,uint256)": "infinite",
						"executionGasRequirement()": "2473",
						"l2HopBridgeAmmWrapper()": "2559",
						"layer1ChainId()": "2517",
						"owner()": "2588",
						"renounceOwnership()": "30398",
						"requests(address)": "infinite",
						"setExecutionGasRequirement(uint256)": "24873",
						"transferOwnership(address)": "30854",
						"withdraw()": "infinite"
					},
					"internal": {
						"isDefined(struct BridgeRequest memory)": "infinite"
					}
				},
				"methodIdentifiers": {
					"deposit(address,uint256,uint256)": "0efe6a8b",
					"executeRequest(address,uint256,uint256,uint256,uint256,uint256)": "04e40d67",
					"executionGasRequirement()": "8429b045",
					"l2HopBridgeAmmWrapper()": "25608185",
					"layer1ChainId()": "b6502943",
					"owner()": "8da5cb5b",
					"renounceOwnership()": "715018a6",
					"requests(address)": "74adad1d",
					"setExecutionGasRequirement(uint256)": "54caef7d",
					"transferOwnership(address)": "f2fde38b",
					"withdraw()": "3ccfd60b"
				}
			},
			"storageLayout": {
				"storage": [
					{
						"astId": 7,
						"contract": "solidity/contracts/BridgewhenCheap.sol:BridgeWhenCheap",
						"label": "_owner",
						"offset": 0,
						"slot": "0",
						"type": "t_address"
					},
					{
						"astId": 123,
						"contract": "solidity/contracts/BridgewhenCheap.sol:BridgeWhenCheap",
						"label": "_status",
						"offset": 0,
						"slot": "1",
						"type": "t_uint256"
					},
					{
						"astId": 210,
						"contract": "solidity/contracts/BridgewhenCheap.sol:BridgeWhenCheap",
						"label": "executionGasRequirement",
						"offset": 0,
						"slot": "2",
						"type": "t_uint256"
					},
					{
						"astId": 212,
						"contract": "solidity/contracts/BridgewhenCheap.sol:BridgeWhenCheap",
						"label": "l2HopBridgeAmmWrapper",
						"offset": 0,
						"slot": "3",
						"type": "t_address"
					},
					{
						"astId": 217,
						"contract": "solidity/contracts/BridgewhenCheap.sol:BridgeWhenCheap",
						"label": "requests",
						"offset": 0,
						"slot": "4",
						"type": "t_mapping(t_address,t_struct(BridgeRequest)203_storage)"
					},
					{
						"astId": 219,
						"contract": "solidity/contracts/BridgewhenCheap.sol:BridgeWhenCheap",
						"label": "layer1ChainId",
						"offset": 0,
						"slot": "5",
						"type": "t_uint256"
					}
				],
				"types": {
					"t_address": {
						"encoding": "inplace",
						"label": "address",
						"numberOfBytes": "20"
					},
					"t_mapping(t_address,t_struct(BridgeRequest)203_storage)": {
						"encoding": "mapping",
						"key": "t_address",
						"label": "mapping(address => struct BridgeRequest)",
						"numberOfBytes": "32",
						"value": "t_struct(BridgeRequest)203_storage"
					},
					"t_struct(BridgeRequest)203_storage": {
						"encoding": "inplace",
						"label": "struct BridgeRequest",
						"members": [
							{
								"astId": 194,
								"contract": "solidity/contracts/BridgewhenCheap.sol:BridgeWhenCheap",
								"label": "source",
								"offset": 0,
								"slot": "0",
								"type": "t_address"
							},
							{
								"astId": 196,
								"contract": "solidity/contracts/BridgewhenCheap.sol:BridgeWhenCheap",
								"label": "destination",
								"offset": 0,
								"slot": "1",
								"type": "t_address"
							},
							{
								"astId": 198,
								"contract": "solidity/contracts/BridgewhenCheap.sol:BridgeWhenCheap",
								"label": "amount",
								"offset": 0,
								"slot": "2",
								"type": "t_uint256"
							},
							{
								"astId": 200,
								"contract": "solidity/contracts/BridgewhenCheap.sol:BridgeWhenCheap",
								"label": "amountOutMin",
								"offset": 0,
								"slot": "3",
								"type": "t_uint256"
							},
							{
								"astId": 202,
								"contract": "solidity/contracts/BridgewhenCheap.sol:BridgeWhenCheap",
								"label": "wantedL1GasPrice",
								"offset": 0,
								"slot": "4",
								"type": "t_uint256"
							}
						],
						"numberOfBytes": "160"
					},
					"t_uint256": {
						"encoding": "inplace",
						"label": "uint256",
						"numberOfBytes": "32"
					}
				}
			},
			"userdoc": {
				"kind": "user",
				"methods": {},
				"version": 1
			}
		}
	}
}