{
	"contracts/BridgewhenCheap.sol": {
		"BridgeWhenCheap": {
			"abi": [
				{
					"inputs": [
						{
							"internalType": "uint256",
							"name": "_executionGasRequirement",
							"type": "uint256"
						},
						{
							"internalType": "address",
							"name": "_l2HopBridgeAmmWrapper",
							"type": "address"
						}
					],
					"stateMutability": "nonpayable",
					"type": "constructor"
				},
				{
					"anonymous": false,
					"inputs": [
						{
							"indexed": true,
							"internalType": "address",
							"name": "previousOwner",
							"type": "address"
						},
						{
							"indexed": true,
							"internalType": "address",
							"name": "newOwner",
							"type": "address"
						}
					],
					"name": "OwnershipTransferred",
					"type": "event"
				},
				{
					"inputs": [
						{
							"internalType": "address",
							"name": "destination",
							"type": "address"
						},
						{
							"internalType": "uint256",
							"name": "wantedL1GasPrice",
							"type": "uint256"
						}
					],
					"name": "deposit",
					"outputs": [],
					"stateMutability": "payable",
					"type": "function"
				},
				{
					"inputs": [
						{
							"internalType": "address",
							"name": "requestor",
							"type": "address"
						}
					],
					"name": "executeRequest",
					"outputs": [],
					"stateMutability": "nonpayable",
					"type": "function"
				},
				{
					"inputs": [],
					"name": "owner",
					"outputs": [
						{
							"internalType": "address",
							"name": "",
							"type": "address"
						}
					],
					"stateMutability": "view",
					"type": "function"
				},
				{
					"inputs": [],
					"name": "pendingRequests",
					"outputs": [
						{
							"components": [
								{
									"internalType": "address",
									"name": "source",
									"type": "address"
								},
								{
									"internalType": "address",
									"name": "destination",
									"type": "address"
								},
								{
									"internalType": "uint256",
									"name": "amount",
									"type": "uint256"
								},
								{
									"internalType": "uint256",
									"name": "wantedL1GasPrice",
									"type": "uint256"
								}
							],
							"internalType": "struct BridgeRequest",
							"name": "",
							"type": "tuple"
						},
						{
							"internalType": "bool",
							"name": "",
							"type": "bool"
						}
					],
					"stateMutability": "view",
					"type": "function"
				},
				{
					"inputs": [],
					"name": "renounceOwnership",
					"outputs": [],
					"stateMutability": "nonpayable",
					"type": "function"
				},
				{
					"inputs": [
						{
							"internalType": "uint256",
							"name": "amount",
							"type": "uint256"
						}
					],
					"name": "setExecutionGasRequirement",
					"outputs": [],
					"stateMutability": "nonpayable",
					"type": "function"
				},
				{
					"inputs": [
						{
							"internalType": "address",
							"name": "newOwner",
							"type": "address"
						}
					],
					"name": "transferOwnership",
					"outputs": [],
					"stateMutability": "nonpayable",
					"type": "function"
				},
				{
					"inputs": [],
					"name": "withdraw",
					"outputs": [],
					"stateMutability": "nonpayable",
					"type": "function"
				}
			],
			"devdoc": {
				"custom:security-contact": "bridge-when-cheap@gmail.com",
				"kind": "dev",
				"methods": {
					"owner()": {
						"details": "Returns the address of the current owner."
					},
					"renounceOwnership()": {
						"details": "Leaves the contract without owner. It will not be possible to call `onlyOwner` functions anymore. Can only be called by the current owner. NOTE: Renouncing ownership will leave the contract without an owner, thereby removing any functionality that is only available to the owner."
					},
					"transferOwnership(address)": {
						"details": "Transfers ownership of the contract to a new account (`newOwner`). Can only be called by the current owner."
					}
				},
				"version": 1
			},
			"evm": {
				"assembly": "    /* \"contracts/BridgewhenCheap.sol\":491:4682  contract BridgeWhenCheap is Ownable, ReentrancyGuard {... */\n  mstore(0x40, 0x80)\n    /* \"contracts/BridgewhenCheap.sol\":1080:1331  constructor(... */\n  callvalue\n  dup1\n  iszero\n  tag_1\n  jumpi\n  0x00\n  dup1\n  revert\ntag_1:\n  pop\n  mload(0x40)\n  sub(codesize, bytecodeSize)\n  dup1\n  bytecodeSize\n  dup4\n  codecopy\n  dup2\n  dup2\n  add\n  0x40\n  mstore\n  dup2\n  add\n  swap1\n  tag_2\n  swap2\n  swap1\n  tag_3\n  jump\t// in\ntag_2:\n    /* \"@openzeppelin/contracts/access/Ownable.sol\":936:968  _transferOwnership(_msgSender()) */\n  tag_8\n    /* \"@openzeppelin/contracts/access/Ownable.sol\":955:967  _msgSender() */\n  tag_9\n    /* \"@openzeppelin/contracts/access/Ownable.sol\":955:965  _msgSender */\n  shl(0x20, tag_10)\n    /* \"@openzeppelin/contracts/access/Ownable.sol\":955:967  _msgSender() */\n  0x20\n  shr\n  jump\t// in\ntag_9:\n    /* \"@openzeppelin/contracts/access/Ownable.sol\":936:954  _transferOwnership */\n  shl(0x20, tag_11)\n    /* \"@openzeppelin/contracts/access/Ownable.sol\":936:968  _transferOwnership(_msgSender()) */\n  0x20\n  shr\n  jump\t// in\ntag_8:\n    /* \"@openzeppelin/contracts/security/ReentrancyGuard.sol\":1716:1717  1 */\n  0x01\n    /* \"@openzeppelin/contracts/security/ReentrancyGuard.sol\":1821:1828  _status */\n  dup1\n    /* \"@openzeppelin/contracts/security/ReentrancyGuard.sol\":1821:1843  _status = _NOT_ENTERED */\n  dup2\n  swap1\n  sstore\n  pop\n    /* \"contracts/BridgewhenCheap.sol\":1244:1268  _executionGasRequirement */\n  dup2\n    /* \"contracts/BridgewhenCheap.sol\":1218:1241  executionGasRequirement */\n  0x02\n    /* \"contracts/BridgewhenCheap.sol\":1218:1268  executionGasRequirement = _executionGasRequirement */\n  dup2\n  swap1\n  sstore\n  pop\n    /* \"contracts/BridgewhenCheap.sol\":1302:1324  _l2HopBridgeAmmWrapper */\n  dup1\n    /* \"contracts/BridgewhenCheap.sol\":1278:1299  l2HopBridgeAmmWrapper */\n  0x03\n  0x00\n    /* \"contracts/BridgewhenCheap.sol\":1278:1324  l2HopBridgeAmmWrapper = _l2HopBridgeAmmWrapper */\n  0x0100\n  exp\n  dup2\n  sload\n  dup2\n  0xffffffffffffffffffffffffffffffffffffffff\n  mul\n  not\n  and\n  swap1\n  dup4\n  0xffffffffffffffffffffffffffffffffffffffff\n  and\n  mul\n  or\n  swap1\n  sstore\n  pop\n    /* \"contracts/BridgewhenCheap.sol\":1080:1331  constructor(... */\n  pop\n  pop\n    /* \"contracts/BridgewhenCheap.sol\":491:4682  contract BridgeWhenCheap is Ownable, ReentrancyGuard {... */\n  jump(tag_14)\n    /* \"@openzeppelin/contracts/utils/Context.sol\":640:736  function _msgSender() internal view virtual returns (address) {... */\ntag_10:\n    /* \"@openzeppelin/contracts/utils/Context.sol\":693:700  address */\n  0x00\n    /* \"@openzeppelin/contracts/utils/Context.sol\":719:729  msg.sender */\n  caller\n    /* \"@openzeppelin/contracts/utils/Context.sol\":712:729  return msg.sender */\n  swap1\n  pop\n    /* \"@openzeppelin/contracts/utils/Context.sol\":640:736  function _msgSender() internal view virtual returns (address) {... */\n  swap1\n  jump\t// out\n    /* \"@openzeppelin/contracts/access/Ownable.sol\":2433:2620  function _transferOwnership(address newOwner) internal virtual {... */\ntag_11:\n    /* \"@openzeppelin/contracts/access/Ownable.sol\":2506:2522  address oldOwner */\n  0x00\n    /* \"@openzeppelin/contracts/access/Ownable.sol\":2525:2531  _owner */\n  dup1\n  0x00\n  swap1\n  sload\n  swap1\n  0x0100\n  exp\n  swap1\n  div\n  0xffffffffffffffffffffffffffffffffffffffff\n  and\n    /* \"@openzeppelin/contracts/access/Ownable.sol\":2506:2531  address oldOwner = _owner */\n  swap1\n  pop\n    /* \"@openzeppelin/contracts/access/Ownable.sol\":2550:2558  newOwner */\n  dup2\n    /* \"@openzeppelin/contracts/access/Ownable.sol\":2541:2547  _owner */\n  0x00\n  dup1\n    /* \"@openzeppelin/contracts/access/Ownable.sol\":2541:2558  _owner = newOwner */\n  0x0100\n  exp\n  dup2\n  sload\n  dup2\n  0xffffffffffffffffffffffffffffffffffffffff\n  mul\n  not\n  and\n  swap1\n  dup4\n  0xffffffffffffffffffffffffffffffffffffffff\n  and\n  mul\n  or\n  swap1\n  sstore\n  pop\n    /* \"@openzeppelin/contracts/access/Ownable.sol\":2604:2612  newOwner */\n  dup2\n    /* \"@openzeppelin/contracts/access/Ownable.sol\":2573:2613  OwnershipTransferred(oldOwner, newOwner) */\n  0xffffffffffffffffffffffffffffffffffffffff\n  and\n    /* \"@openzeppelin/contracts/access/Ownable.sol\":2594:2602  oldOwner */\n  dup2\n    /* \"@openzeppelin/contracts/access/Ownable.sol\":2573:2613  OwnershipTransferred(oldOwner, newOwner) */\n  0xffffffffffffffffffffffffffffffffffffffff\n  and\n  0x8be0079c531659141344cd1fd0a4f28419497f9722a3daafe3b4186f6b6457e0\n  mload(0x40)\n  mload(0x40)\n  dup1\n  swap2\n  sub\n  swap1\n  log3\n    /* \"@openzeppelin/contracts/access/Ownable.sol\":2496:2620  {... */\n  pop\n    /* \"@openzeppelin/contracts/access/Ownable.sol\":2433:2620  function _transferOwnership(address newOwner) internal virtual {... */\n  pop\n  jump\t// out\n    /* \"#utility.yul\":88:205   */\ntag_18:\n    /* \"#utility.yul\":197:198   */\n  0x00\n    /* \"#utility.yul\":194:195   */\n  dup1\n    /* \"#utility.yul\":187:199   */\n  revert\n    /* \"#utility.yul\":334:411   */\ntag_20:\n    /* \"#utility.yul\":371:378   */\n  0x00\n    /* \"#utility.yul\":400:405   */\n  dup2\n    /* \"#utility.yul\":389:405   */\n  swap1\n  pop\n    /* \"#utility.yul\":334:411   */\n  swap2\n  swap1\n  pop\n  jump\t// out\n    /* \"#utility.yul\":417:539   */\ntag_21:\n    /* \"#utility.yul\":490:514   */\n  tag_33\n    /* \"#utility.yul\":508:513   */\n  dup2\n    /* \"#utility.yul\":490:514   */\n  tag_20\n  jump\t// in\ntag_33:\n    /* \"#utility.yul\":483:488   */\n  dup2\n    /* \"#utility.yul\":480:515   */\n  eq\n    /* \"#utility.yul\":470:533   */\n  tag_34\n  jumpi\n    /* \"#utility.yul\":529:530   */\n  0x00\n    /* \"#utility.yul\":526:527   */\n  dup1\n    /* \"#utility.yul\":519:531   */\n  revert\n    /* \"#utility.yul\":470:533   */\ntag_34:\n    /* \"#utility.yul\":417:539   */\n  pop\n  jump\t// out\n    /* \"#utility.yul\":545:688   */\ntag_22:\n    /* \"#utility.yul\":602:607   */\n  0x00\n    /* \"#utility.yul\":633:639   */\n  dup2\n    /* \"#utility.yul\":627:640   */\n  mload\n    /* \"#utility.yul\":618:640   */\n  swap1\n  pop\n    /* \"#utility.yul\":649:682   */\n  tag_36\n    /* \"#utility.yul\":676:681   */\n  dup2\n    /* \"#utility.yul\":649:682   */\n  tag_21\n  jump\t// in\ntag_36:\n    /* \"#utility.yul\":545:688   */\n  swap3\n  swap2\n  pop\n  pop\n  jump\t// out\n    /* \"#utility.yul\":694:820   */\ntag_23:\n    /* \"#utility.yul\":731:738   */\n  0x00\n    /* \"#utility.yul\":771:813   */\n  0xffffffffffffffffffffffffffffffffffffffff\n    /* \"#utility.yul\":764:769   */\n  dup3\n    /* \"#utility.yul\":760:814   */\n  and\n    /* \"#utility.yul\":749:814   */\n  swap1\n  pop\n    /* \"#utility.yul\":694:820   */\n  swap2\n  swap1\n  pop\n  jump\t// out\n    /* \"#utility.yul\":826:922   */\ntag_24:\n    /* \"#utility.yul\":863:870   */\n  0x00\n    /* \"#utility.yul\":892:916   */\n  tag_39\n    /* \"#utility.yul\":910:915   */\n  dup3\n    /* \"#utility.yul\":892:916   */\n  tag_23\n  jump\t// in\ntag_39:\n    /* \"#utility.yul\":881:916   */\n  swap1\n  pop\n    /* \"#utility.yul\":826:922   */\n  swap2\n  swap1\n  pop\n  jump\t// out\n    /* \"#utility.yul\":928:1050   */\ntag_25:\n    /* \"#utility.yul\":1001:1025   */\n  tag_41\n    /* \"#utility.yul\":1019:1024   */\n  dup2\n    /* \"#utility.yul\":1001:1025   */\n  tag_24\n  jump\t// in\ntag_41:\n    /* \"#utility.yul\":994:999   */\n  dup2\n    /* \"#utility.yul\":991:1026   */\n  eq\n    /* \"#utility.yul\":981:1044   */\n  tag_42\n  jumpi\n    /* \"#utility.yul\":1040:1041   */\n  0x00\n    /* \"#utility.yul\":1037:1038   */\n  dup1\n    /* \"#utility.yul\":1030:1042   */\n  revert\n    /* \"#utility.yul\":981:1044   */\ntag_42:\n    /* \"#utility.yul\":928:1050   */\n  pop\n  jump\t// out\n    /* \"#utility.yul\":1056:1199   */\ntag_26:\n    /* \"#utility.yul\":1113:1118   */\n  0x00\n    /* \"#utility.yul\":1144:1150   */\n  dup2\n    /* \"#utility.yul\":1138:1151   */\n  mload\n    /* \"#utility.yul\":1129:1151   */\n  swap1\n  pop\n    /* \"#utility.yul\":1160:1193   */\n  tag_44\n    /* \"#utility.yul\":1187:1192   */\n  dup2\n    /* \"#utility.yul\":1160:1193   */\n  tag_25\n  jump\t// in\ntag_44:\n    /* \"#utility.yul\":1056:1199   */\n  swap3\n  swap2\n  pop\n  pop\n  jump\t// out\n    /* \"#utility.yul\":1205:1712   */\ntag_3:\n    /* \"#utility.yul\":1284:1290   */\n  0x00\n    /* \"#utility.yul\":1292:1298   */\n  dup1\n    /* \"#utility.yul\":1341:1343   */\n  0x40\n    /* \"#utility.yul\":1329:1338   */\n  dup4\n    /* \"#utility.yul\":1320:1327   */\n  dup6\n    /* \"#utility.yul\":1316:1339   */\n  sub\n    /* \"#utility.yul\":1312:1344   */\n  slt\n    /* \"#utility.yul\":1309:1428   */\n  iszero\n  tag_46\n  jumpi\n    /* \"#utility.yul\":1347:1426   */\n  tag_47\n  tag_18\n  jump\t// in\ntag_47:\n    /* \"#utility.yul\":1309:1428   */\ntag_46:\n    /* \"#utility.yul\":1467:1468   */\n  0x00\n    /* \"#utility.yul\":1492:1556   */\n  tag_48\n    /* \"#utility.yul\":1548:1555   */\n  dup6\n    /* \"#utility.yul\":1539:1545   */\n  dup3\n    /* \"#utility.yul\":1528:1537   */\n  dup7\n    /* \"#utility.yul\":1524:1546   */\n  add\n    /* \"#utility.yul\":1492:1556   */\n  tag_22\n  jump\t// in\ntag_48:\n    /* \"#utility.yul\":1482:1556   */\n  swap3\n  pop\n    /* \"#utility.yul\":1438:1566   */\n  pop\n    /* \"#utility.yul\":1605:1607   */\n  0x20\n    /* \"#utility.yul\":1631:1695   */\n  tag_49\n    /* \"#utility.yul\":1687:1694   */\n  dup6\n    /* \"#utility.yul\":1678:1684   */\n  dup3\n    /* \"#utility.yul\":1667:1676   */\n  dup7\n    /* \"#utility.yul\":1663:1685   */\n  add\n    /* \"#utility.yul\":1631:1695   */\n  tag_26\n  jump\t// in\ntag_49:\n    /* \"#utility.yul\":1621:1695   */\n  swap2\n  pop\n    /* \"#utility.yul\":1576:1705   */\n  pop\n    /* \"#utility.yul\":1205:1712   */\n  swap3\n  pop\n  swap3\n  swap1\n  pop\n  jump\t// out\n    /* \"contracts/BridgewhenCheap.sol\":491:4682  contract BridgeWhenCheap is Ownable, ReentrancyGuard {... */\ntag_14:\n  dataSize(sub_0)\n  dup1\n  dataOffset(sub_0)\n  0x00\n  codecopy\n  0x00\n  return\nstop\n\nsub_0: assembly {\n        /* \"contracts/BridgewhenCheap.sol\":491:4682  contract BridgeWhenCheap is Ownable, ReentrancyGuard {... */\n      mstore(0x40, 0x80)\n      jumpi(tag_1, lt(calldatasize, 0x04))\n      shr(0xe0, calldataload(0x00))\n      dup1\n      0x6e98762d\n      gt\n      tag_10\n      jumpi\n      dup1\n      0x6e98762d\n      eq\n      tag_6\n      jumpi\n      dup1\n      0x715018a6\n      eq\n      tag_7\n      jumpi\n      dup1\n      0x8da5cb5b\n      eq\n      tag_8\n      jumpi\n      dup1\n      0xf2fde38b\n      eq\n      tag_9\n      jumpi\n      jump(tag_1)\n    tag_10:\n      dup1\n      0x3ccfd60b\n      eq\n      tag_2\n      jumpi\n      dup1\n      0x47e7ef24\n      eq\n      tag_3\n      jumpi\n      dup1\n      0x4a0aee29\n      eq\n      tag_4\n      jumpi\n      dup1\n      0x54caef7d\n      eq\n      tag_5\n      jumpi\n    tag_1:\n      0x00\n      dup1\n      revert\n        /* \"contracts/BridgewhenCheap.sol\":2852:3366  function withdraw() public nonReentrant {... */\n    tag_2:\n      callvalue\n      dup1\n      iszero\n      tag_11\n      jumpi\n      0x00\n      dup1\n      revert\n    tag_11:\n      pop\n      tag_12\n      tag_13\n      jump\t// in\n    tag_12:\n      stop\n        /* \"contracts/BridgewhenCheap.sol\":1888:2796  function deposit(address destination, uint wantedL1GasPrice) public payable {... */\n    tag_3:\n      tag_14\n      0x04\n      dup1\n      calldatasize\n      sub\n      dup2\n      add\n      swap1\n      tag_15\n      swap2\n      swap1\n      tag_16\n      jump\t// in\n    tag_15:\n      tag_17\n      jump\t// in\n    tag_14:\n      stop\n        /* \"contracts/BridgewhenCheap.sol\":1394:1608  function pendingRequests() public view returns (BridgeRequest memory, bool) {... */\n    tag_4:\n      callvalue\n      dup1\n      iszero\n      tag_18\n      jumpi\n      0x00\n      dup1\n      revert\n    tag_18:\n      pop\n      tag_19\n      tag_20\n      jump\t// in\n    tag_19:\n      mload(0x40)\n      tag_21\n      swap3\n      swap2\n      swap1\n      tag_22\n      jump\t// in\n    tag_21:\n      mload(0x40)\n      dup1\n      swap2\n      sub\n      swap1\n      return\n        /* \"contracts/BridgewhenCheap.sol\":4361:4476  function setExecutionGasRequirement(uint amount) public onlyOwner {... */\n    tag_5:\n      callvalue\n      dup1\n      iszero\n      tag_23\n      jumpi\n      0x00\n      dup1\n      revert\n    tag_23:\n      pop\n      tag_24\n      0x04\n      dup1\n      calldatasize\n      sub\n      dup2\n      add\n      swap1\n      tag_25\n      swap2\n      swap1\n      tag_26\n      jump\t// in\n    tag_25:\n      tag_27\n      jump\t// in\n    tag_24:\n      stop\n        /* \"contracts/BridgewhenCheap.sol\":3540:4238  function executeRequest(address requestor) public onlyOwner nonReentrant {... */\n    tag_6:\n      callvalue\n      dup1\n      iszero\n      tag_28\n      jumpi\n      0x00\n      dup1\n      revert\n    tag_28:\n      pop\n      tag_29\n      0x04\n      dup1\n      calldatasize\n      sub\n      dup2\n      add\n      swap1\n      tag_30\n      swap2\n      swap1\n      tag_31\n      jump\t// in\n    tag_30:\n      tag_32\n      jump\t// in\n    tag_29:\n      stop\n        /* \"@openzeppelin/contracts/access/Ownable.sol\":1831:1932  function renounceOwnership() public virtual onlyOwner {... */\n    tag_7:\n      callvalue\n      dup1\n      iszero\n      tag_33\n      jumpi\n      0x00\n      dup1\n      revert\n    tag_33:\n      pop\n      tag_34\n      tag_35\n      jump\t// in\n    tag_34:\n      stop\n        /* \"@openzeppelin/contracts/access/Ownable.sol\":1201:1286  function owner() public view virtual returns (address) {... */\n    tag_8:\n      callvalue\n      dup1\n      iszero\n      tag_36\n      jumpi\n      0x00\n      dup1\n      revert\n    tag_36:\n      pop\n      tag_37\n      tag_38\n      jump\t// in\n    tag_37:\n      mload(0x40)\n      tag_39\n      swap2\n      swap1\n      tag_40\n      jump\t// in\n    tag_39:\n      mload(0x40)\n      dup1\n      swap2\n      sub\n      swap1\n      return\n        /* \"@openzeppelin/contracts/access/Ownable.sol\":2081:2279  function transferOwnership(address newOwner) public virtual onlyOwner {... */\n    tag_9:\n      callvalue\n      dup1\n      iszero\n      tag_41\n      jumpi\n      0x00\n      dup1\n      revert\n    tag_41:\n      pop\n      tag_42\n      0x04\n      dup1\n      calldatasize\n      sub\n      dup2\n      add\n      swap1\n      tag_43\n      swap2\n      swap1\n      tag_31\n      jump\t// in\n    tag_43:\n      tag_44\n      jump\t// in\n    tag_42:\n      stop\n        /* \"contracts/BridgewhenCheap.sol\":2852:3366  function withdraw() public nonReentrant {... */\n    tag_13:\n        /* \"@openzeppelin/contracts/security/ReentrancyGuard.sol\":2261:2282  _nonReentrantBefore() */\n      tag_46\n        /* \"@openzeppelin/contracts/security/ReentrancyGuard.sol\":2261:2280  _nonReentrantBefore */\n      tag_47\n        /* \"@openzeppelin/contracts/security/ReentrancyGuard.sol\":2261:2282  _nonReentrantBefore() */\n      jump\t// in\n    tag_46:\n        /* \"contracts/BridgewhenCheap.sol\":2902:2938  BridgeRequest memory obsoleteRequest */\n      0x00\n        /* \"contracts/BridgewhenCheap.sol\":2941:2949  requests */\n      0x04\n        /* \"contracts/BridgewhenCheap.sol\":2941:2961  requests[msg.sender] */\n      0x00\n        /* \"contracts/BridgewhenCheap.sol\":2950:2960  msg.sender */\n      caller\n        /* \"contracts/BridgewhenCheap.sol\":2941:2961  requests[msg.sender] */\n      0xffffffffffffffffffffffffffffffffffffffff\n      and\n      0xffffffffffffffffffffffffffffffffffffffff\n      and\n      dup2\n      mstore\n      0x20\n      add\n      swap1\n      dup2\n      mstore\n      0x20\n      add\n      0x00\n      keccak256\n        /* \"contracts/BridgewhenCheap.sol\":2902:2961  BridgeRequest memory obsoleteRequest = requests[msg.sender] */\n      mload(0x40)\n      dup1\n      0x80\n      add\n      0x40\n      mstore\n      swap1\n      dup2\n      0x00\n      dup3\n      add\n      0x00\n      swap1\n      sload\n      swap1\n      0x0100\n      exp\n      swap1\n      div\n      0xffffffffffffffffffffffffffffffffffffffff\n      and\n      0xffffffffffffffffffffffffffffffffffffffff\n      and\n      0xffffffffffffffffffffffffffffffffffffffff\n      and\n      dup2\n      mstore\n      0x20\n      add\n      0x01\n      dup3\n      add\n      0x00\n      swap1\n      sload\n      swap1\n      0x0100\n      exp\n      swap1\n      div\n      0xffffffffffffffffffffffffffffffffffffffff\n      and\n      0xffffffffffffffffffffffffffffffffffffffff\n      and\n      0xffffffffffffffffffffffffffffffffffffffff\n      and\n      dup2\n      mstore\n      0x20\n      add\n      0x02\n      dup3\n      add\n      sload\n      dup2\n      mstore\n      0x20\n      add\n      0x03\n      dup3\n      add\n      sload\n      dup2\n      mstore\n      pop\n      pop\n      swap1\n      pop\n        /* \"contracts/BridgewhenCheap.sol\":3015:3041  isDefined(obsoleteRequest) */\n      tag_49\n        /* \"contracts/BridgewhenCheap.sol\":3025:3040  obsoleteRequest */\n      dup2\n        /* \"contracts/BridgewhenCheap.sol\":3015:3024  isDefined */\n      tag_50\n        /* \"contracts/BridgewhenCheap.sol\":3015:3041  isDefined(obsoleteRequest) */\n      jump\t// in\n    tag_49:\n        /* \"contracts/BridgewhenCheap.sol\":3007:3068  require(isDefined(obsoleteRequest), \"No request to withdraw\") */\n      tag_51\n      jumpi\n      mload(0x40)\n      0x08c379a000000000000000000000000000000000000000000000000000000000\n      dup2\n      mstore\n      0x04\n      add\n      tag_52\n      swap1\n      tag_53\n      jump\t// in\n    tag_52:\n      mload(0x40)\n      dup1\n      swap2\n      sub\n      swap1\n      revert\n    tag_51:\n        /* \"contracts/BridgewhenCheap.sol\":3086:3094  requests */\n      0x04\n        /* \"contracts/BridgewhenCheap.sol\":3086:3106  requests[msg.sender] */\n      0x00\n        /* \"contracts/BridgewhenCheap.sol\":3095:3105  msg.sender */\n      caller\n        /* \"contracts/BridgewhenCheap.sol\":3086:3106  requests[msg.sender] */\n      0xffffffffffffffffffffffffffffffffffffffff\n      and\n      0xffffffffffffffffffffffffffffffffffffffff\n      and\n      dup2\n      mstore\n      0x20\n      add\n      swap1\n      dup2\n      mstore\n      0x20\n      add\n      0x00\n      keccak256\n      0x00\n        /* \"contracts/BridgewhenCheap.sol\":3079:3106  delete requests[msg.sender] */\n      dup1\n      dup3\n      add\n      exp(0x0100, 0x00)\n      dup2\n      sload\n      swap1\n      0xffffffffffffffffffffffffffffffffffffffff\n      mul\n      not\n      and\n      swap1\n      sstore\n      0x01\n      dup3\n      add\n      exp(0x0100, 0x00)\n      dup2\n      sload\n      swap1\n      0xffffffffffffffffffffffffffffffffffffffff\n      mul\n      not\n      and\n      swap1\n      sstore\n      0x02\n      dup3\n      add\n      0x00\n      swap1\n      sstore\n      0x03\n      dup3\n      add\n      0x00\n      swap1\n      sstore\n      pop\n      pop\n        /* \"contracts/BridgewhenCheap.sol\":3150:3160  msg.sender */\n      caller\n        /* \"contracts/BridgewhenCheap.sol\":3124:3160  obsoleteRequest.source == msg.sender */\n      0xffffffffffffffffffffffffffffffffffffffff\n      and\n        /* \"contracts/BridgewhenCheap.sol\":3124:3139  obsoleteRequest */\n      dup2\n        /* \"contracts/BridgewhenCheap.sol\":3124:3146  obsoleteRequest.source */\n      0x00\n      add\n      mload\n        /* \"contracts/BridgewhenCheap.sol\":3124:3160  obsoleteRequest.source == msg.sender */\n      0xffffffffffffffffffffffffffffffffffffffff\n      and\n      eq\n        /* \"contracts/BridgewhenCheap.sol\":3117:3161  assert(obsoleteRequest.source == msg.sender) */\n      tag_54\n      jumpi\n      tag_55\n      tag_56\n      jump\t// in\n    tag_55:\n    tag_54:\n        /* \"contracts/BridgewhenCheap.sol\":3228:3240  bool success */\n      0x00\n        /* \"contracts/BridgewhenCheap.sol\":3251:3261  msg.sender */\n      caller\n        /* \"contracts/BridgewhenCheap.sol\":3243:3267  payable(msg.sender).send */\n      0xffffffffffffffffffffffffffffffffffffffff\n      and\n        /* \"contracts/BridgewhenCheap.sol\":3243:3291  payable(msg.sender).send(obsoleteRequest.amount) */\n      0x08fc\n        /* \"contracts/BridgewhenCheap.sol\":3268:3283  obsoleteRequest */\n      dup4\n        /* \"contracts/BridgewhenCheap.sol\":3268:3290  obsoleteRequest.amount */\n      0x40\n      add\n      mload\n        /* \"contracts/BridgewhenCheap.sol\":3243:3291  payable(msg.sender).send(obsoleteRequest.amount) */\n      swap1\n      dup2\n      iszero\n      mul\n      swap1\n      mload(0x40)\n      0x00\n      mload(0x40)\n      dup1\n      dup4\n      sub\n      dup2\n      dup6\n      dup9\n      dup9\n      call\n      swap4\n      pop\n      pop\n      pop\n      pop\n        /* \"contracts/BridgewhenCheap.sol\":3228:3291  bool success = payable(msg.sender).send(obsoleteRequest.amount) */\n      swap1\n      pop\n        /* \"contracts/BridgewhenCheap.sol\":3309:3316  success */\n      dup1\n        /* \"contracts/BridgewhenCheap.sol\":3301:3359  require(success, \"Failed to withdraw funds to msg.sender\") */\n      tag_58\n      jumpi\n      mload(0x40)\n      0x08c379a000000000000000000000000000000000000000000000000000000000\n      dup2\n      mstore\n      0x04\n      add\n      tag_59\n      swap1\n      tag_60\n      jump\t// in\n    tag_59:\n      mload(0x40)\n      dup1\n      swap2\n      sub\n      swap1\n      revert\n    tag_58:\n        /* \"contracts/BridgewhenCheap.sol\":2892:3366  {... */\n      pop\n      pop\n        /* \"@openzeppelin/contracts/security/ReentrancyGuard.sol\":2303:2323  _nonReentrantAfter() */\n      tag_61\n        /* \"@openzeppelin/contracts/security/ReentrancyGuard.sol\":2303:2321  _nonReentrantAfter */\n      tag_62\n        /* \"@openzeppelin/contracts/security/ReentrancyGuard.sol\":2303:2323  _nonReentrantAfter() */\n      jump\t// in\n    tag_61:\n        /* \"contracts/BridgewhenCheap.sol\":2852:3366  function withdraw() public nonReentrant {... */\n      jump\t// out\n        /* \"contracts/BridgewhenCheap.sol\":1888:2796  function deposit(address destination, uint wantedL1GasPrice) public payable {... */\n    tag_17:\n        /* \"contracts/BridgewhenCheap.sol\":2004:2005  0 */\n      0x00\n        /* \"contracts/BridgewhenCheap.sol\":1982:2006  msg.sender != address(0) */\n      0xffffffffffffffffffffffffffffffffffffffff\n      and\n        /* \"contracts/BridgewhenCheap.sol\":1982:1992  msg.sender */\n      caller\n        /* \"contracts/BridgewhenCheap.sol\":1982:2006  msg.sender != address(0) */\n      0xffffffffffffffffffffffffffffffffffffffff\n      and\n      sub\n        /* \"contracts/BridgewhenCheap.sol\":1974:2038  require(msg.sender != address(0), \"Sender may not be 0 address\") */\n      tag_64\n      jumpi\n      mload(0x40)\n      0x08c379a000000000000000000000000000000000000000000000000000000000\n      dup2\n      mstore\n      0x04\n      add\n      tag_65\n      swap1\n      tag_66\n      jump\t// in\n    tag_65:\n      mload(0x40)\n      dup1\n      swap2\n      sub\n      swap1\n      revert\n    tag_64:\n        /* \"contracts/BridgewhenCheap.sol\":2079:2080  0 */\n      0x00\n        /* \"contracts/BridgewhenCheap.sol\":2056:2081  destination != address(0) */\n      0xffffffffffffffffffffffffffffffffffffffff\n      and\n        /* \"contracts/BridgewhenCheap.sol\":2056:2067  destination */\n      dup3\n        /* \"contracts/BridgewhenCheap.sol\":2056:2081  destination != address(0) */\n      0xffffffffffffffffffffffffffffffffffffffff\n      and\n      sub\n        /* \"contracts/BridgewhenCheap.sol\":2048:2126  require(destination != address(0), \"Destination address may not be 0 address\") */\n      tag_67\n      jumpi\n      mload(0x40)\n      0x08c379a000000000000000000000000000000000000000000000000000000000\n      dup2\n      mstore\n      0x04\n      add\n      tag_68\n      swap1\n      tag_69\n      jump\t// in\n    tag_68:\n      mload(0x40)\n      dup1\n      swap2\n      sub\n      swap1\n      revert\n    tag_67:\n        /* \"contracts/BridgewhenCheap.sol\":2163:2164  0 */\n      0x00\n        /* \"contracts/BridgewhenCheap.sol\":2144:2160  wantedL1GasPrice */\n      dup2\n        /* \"contracts/BridgewhenCheap.sol\":2144:2164  wantedL1GasPrice > 0 */\n      gt\n        /* \"contracts/BridgewhenCheap.sol\":2136:2214  require(wantedL1GasPrice > 0, \"Wanted L1 gas price must be strictly positive\") */\n      tag_70\n      jumpi\n      mload(0x40)\n      0x08c379a000000000000000000000000000000000000000000000000000000000\n      dup2\n      mstore\n      0x04\n      add\n      tag_71\n      swap1\n      tag_72\n      jump\t// in\n    tag_71:\n      mload(0x40)\n      dup1\n      swap2\n      sub\n      swap1\n      revert\n    tag_70:\n        /* \"contracts/BridgewhenCheap.sol\":2245:2268  executionGasRequirement */\n      sload(0x02)\n        /* \"contracts/BridgewhenCheap.sol\":2232:2241  msg.value */\n      callvalue\n        /* \"contracts/BridgewhenCheap.sol\":2232:2268  msg.value >= executionGasRequirement */\n      lt\n      iszero\n        /* \"contracts/BridgewhenCheap.sol\":2224:2318  require(msg.value >= executionGasRequirement, \"Not enough funds to pay for delayed execution\") */\n      tag_73\n      jumpi\n      mload(0x40)\n      0x08c379a000000000000000000000000000000000000000000000000000000000\n      dup2\n      mstore\n      0x04\n      add\n      tag_74\n      swap1\n      tag_75\n      jump\t// in\n    tag_74:\n      mload(0x40)\n      dup1\n      swap2\n      sub\n      swap1\n      revert\n    tag_73:\n        /* \"contracts/BridgewhenCheap.sol\":2337:2352  uint sentAmount */\n      0x00\n        /* \"contracts/BridgewhenCheap.sol\":2367:2390  executionGasRequirement */\n      sload(0x02)\n        /* \"contracts/BridgewhenCheap.sol\":2355:2364  msg.value */\n      callvalue\n        /* \"contracts/BridgewhenCheap.sol\":2355:2390  msg.value - executionGasRequirement */\n      tag_76\n      swap2\n      swap1\n      tag_77\n      jump\t// in\n    tag_76:\n        /* \"contracts/BridgewhenCheap.sol\":2337:2390  uint sentAmount = msg.value - executionGasRequirement */\n      swap1\n      pop\n        /* \"contracts/BridgewhenCheap.sol\":2614:2789  BridgeRequest({... */\n      mload(0x40)\n      dup1\n      0x80\n      add\n      0x40\n      mstore\n      dup1\n        /* \"contracts/BridgewhenCheap.sol\":2650:2660  msg.sender */\n      caller\n        /* \"contracts/BridgewhenCheap.sol\":2614:2789  BridgeRequest({... */\n      0xffffffffffffffffffffffffffffffffffffffff\n      and\n      dup2\n      mstore\n      0x20\n      add\n        /* \"contracts/BridgewhenCheap.sol\":2687:2698  destination */\n      dup5\n        /* \"contracts/BridgewhenCheap.sol\":2614:2789  BridgeRequest({... */\n      0xffffffffffffffffffffffffffffffffffffffff\n      and\n      dup2\n      mstore\n      0x20\n      add\n        /* \"contracts/BridgewhenCheap.sol\":2720:2730  sentAmount */\n      dup3\n        /* \"contracts/BridgewhenCheap.sol\":2614:2789  BridgeRequest({... */\n      dup2\n      mstore\n      0x20\n      add\n        /* \"contracts/BridgewhenCheap.sol\":2762:2778  wantedL1GasPrice */\n      dup4\n        /* \"contracts/BridgewhenCheap.sol\":2614:2789  BridgeRequest({... */\n      dup2\n      mstore\n      pop\n        /* \"contracts/BridgewhenCheap.sol\":2591:2599  requests */\n      0x04\n        /* \"contracts/BridgewhenCheap.sol\":2591:2611  requests[msg.sender] */\n      0x00\n        /* \"contracts/BridgewhenCheap.sol\":2600:2610  msg.sender */\n      caller\n        /* \"contracts/BridgewhenCheap.sol\":2591:2611  requests[msg.sender] */\n      0xffffffffffffffffffffffffffffffffffffffff\n      and\n      0xffffffffffffffffffffffffffffffffffffffff\n      and\n      dup2\n      mstore\n      0x20\n      add\n      swap1\n      dup2\n      mstore\n      0x20\n      add\n      0x00\n      keccak256\n        /* \"contracts/BridgewhenCheap.sol\":2591:2789  requests[msg.sender] = BridgeRequest({... */\n      0x00\n      dup3\n      add\n      mload\n      dup2\n      0x00\n      add\n      exp(0x0100, 0x00)\n      dup2\n      sload\n      dup2\n      0xffffffffffffffffffffffffffffffffffffffff\n      mul\n      not\n      and\n      swap1\n      dup4\n      0xffffffffffffffffffffffffffffffffffffffff\n      and\n      mul\n      or\n      swap1\n      sstore\n      pop\n      0x20\n      dup3\n      add\n      mload\n      dup2\n      0x01\n      add\n      exp(0x0100, 0x00)\n      dup2\n      sload\n      dup2\n      0xffffffffffffffffffffffffffffffffffffffff\n      mul\n      not\n      and\n      swap1\n      dup4\n      0xffffffffffffffffffffffffffffffffffffffff\n      and\n      mul\n      or\n      swap1\n      sstore\n      pop\n      0x40\n      dup3\n      add\n      mload\n      dup2\n      0x02\n      add\n      sstore\n      0x60\n      dup3\n      add\n      mload\n      dup2\n      0x03\n      add\n      sstore\n      swap1\n      pop\n      pop\n        /* \"contracts/BridgewhenCheap.sol\":1964:2796  {... */\n      pop\n        /* \"contracts/BridgewhenCheap.sol\":1888:2796  function deposit(address destination, uint wantedL1GasPrice) public payable {... */\n      pop\n      pop\n      jump\t// out\n        /* \"contracts/BridgewhenCheap.sol\":1394:1608  function pendingRequests() public view returns (BridgeRequest memory, bool) {... */\n    tag_20:\n        /* \"contracts/BridgewhenCheap.sol\":1442:1462  BridgeRequest memory */\n      tag_78\n      tag_79\n      jump\t// in\n    tag_78:\n        /* \"contracts/BridgewhenCheap.sol\":1464:1468  bool */\n      0x00\n        /* \"contracts/BridgewhenCheap.sol\":1480:1508  BridgeRequest memory request */\n      dup1\n        /* \"contracts/BridgewhenCheap.sol\":1511:1519  requests */\n      0x04\n        /* \"contracts/BridgewhenCheap.sol\":1511:1531  requests[msg.sender] */\n      0x00\n        /* \"contracts/BridgewhenCheap.sol\":1520:1530  msg.sender */\n      caller\n        /* \"contracts/BridgewhenCheap.sol\":1511:1531  requests[msg.sender] */\n      0xffffffffffffffffffffffffffffffffffffffff\n      and\n      0xffffffffffffffffffffffffffffffffffffffff\n      and\n      dup2\n      mstore\n      0x20\n      add\n      swap1\n      dup2\n      mstore\n      0x20\n      add\n      0x00\n      keccak256\n        /* \"contracts/BridgewhenCheap.sol\":1480:1531  BridgeRequest memory request = requests[msg.sender] */\n      mload(0x40)\n      dup1\n      0x80\n      add\n      0x40\n      mstore\n      swap1\n      dup2\n      0x00\n      dup3\n      add\n      0x00\n      swap1\n      sload\n      swap1\n      0x0100\n      exp\n      swap1\n      div\n      0xffffffffffffffffffffffffffffffffffffffff\n      and\n      0xffffffffffffffffffffffffffffffffffffffff\n      and\n      0xffffffffffffffffffffffffffffffffffffffff\n      and\n      dup2\n      mstore\n      0x20\n      add\n      0x01\n      dup3\n      add\n      0x00\n      swap1\n      sload\n      swap1\n      0x0100\n      exp\n      swap1\n      div\n      0xffffffffffffffffffffffffffffffffffffffff\n      and\n      0xffffffffffffffffffffffffffffffffffffffff\n      and\n      0xffffffffffffffffffffffffffffffffffffffff\n      and\n      dup2\n      mstore\n      0x20\n      add\n      0x02\n      dup3\n      add\n      sload\n      dup2\n      mstore\n      0x20\n      add\n      0x03\n      dup3\n      add\n      sload\n      dup2\n      mstore\n      pop\n      pop\n      swap1\n      pop\n        /* \"contracts/BridgewhenCheap.sol\":1573:1580  request */\n      dup1\n        /* \"contracts/BridgewhenCheap.sol\":1582:1600  isDefined(request) */\n      tag_81\n        /* \"contracts/BridgewhenCheap.sol\":1592:1599  request */\n      dup3\n        /* \"contracts/BridgewhenCheap.sol\":1582:1591  isDefined */\n      tag_50\n        /* \"contracts/BridgewhenCheap.sol\":1582:1600  isDefined(request) */\n      jump\t// in\n    tag_81:\n        /* \"contracts/BridgewhenCheap.sol\":1565:1601  return (request, isDefined(request)) */\n      swap3\n      pop\n      swap3\n      pop\n      pop\n        /* \"contracts/BridgewhenCheap.sol\":1394:1608  function pendingRequests() public view returns (BridgeRequest memory, bool) {... */\n      swap1\n      swap2\n      jump\t// out\n        /* \"contracts/BridgewhenCheap.sol\":4361:4476  function setExecutionGasRequirement(uint amount) public onlyOwner {... */\n    tag_27:\n        /* \"@openzeppelin/contracts/access/Ownable.sol\":1094:1107  _checkOwner() */\n      tag_83\n        /* \"@openzeppelin/contracts/access/Ownable.sol\":1094:1105  _checkOwner */\n      tag_84\n        /* \"@openzeppelin/contracts/access/Ownable.sol\":1094:1107  _checkOwner() */\n      jump\t// in\n    tag_83:\n        /* \"contracts/BridgewhenCheap.sol\":4463:4469  amount */\n      dup1\n        /* \"contracts/BridgewhenCheap.sol\":4437:4460  executionGasRequirement */\n      0x02\n        /* \"contracts/BridgewhenCheap.sol\":4437:4469  executionGasRequirement = amount */\n      dup2\n      swap1\n      sstore\n      pop\n        /* \"contracts/BridgewhenCheap.sol\":4361:4476  function setExecutionGasRequirement(uint amount) public onlyOwner {... */\n      pop\n      jump\t// out\n        /* \"contracts/BridgewhenCheap.sol\":3540:4238  function executeRequest(address requestor) public onlyOwner nonReentrant {... */\n    tag_32:\n        /* \"@openzeppelin/contracts/access/Ownable.sol\":1094:1107  _checkOwner() */\n      tag_87\n        /* \"@openzeppelin/contracts/access/Ownable.sol\":1094:1105  _checkOwner */\n      tag_84\n        /* \"@openzeppelin/contracts/access/Ownable.sol\":1094:1107  _checkOwner() */\n      jump\t// in\n    tag_87:\n        /* \"@openzeppelin/contracts/security/ReentrancyGuard.sol\":2261:2282  _nonReentrantBefore() */\n      tag_89\n        /* \"@openzeppelin/contracts/security/ReentrancyGuard.sol\":2261:2280  _nonReentrantBefore */\n      tag_47\n        /* \"@openzeppelin/contracts/security/ReentrancyGuard.sol\":2261:2282  _nonReentrantBefore() */\n      jump\t// in\n    tag_89:\n        /* \"contracts/BridgewhenCheap.sol\":3623:3662  BridgeRequest memory toBeBridgedRequest */\n      0x00\n        /* \"contracts/BridgewhenCheap.sol\":3665:3673  requests */\n      0x04\n        /* \"contracts/BridgewhenCheap.sol\":3665:3684  requests[requestor] */\n      0x00\n        /* \"contracts/BridgewhenCheap.sol\":3674:3683  requestor */\n      dup4\n        /* \"contracts/BridgewhenCheap.sol\":3665:3684  requests[requestor] */\n      0xffffffffffffffffffffffffffffffffffffffff\n      and\n      0xffffffffffffffffffffffffffffffffffffffff\n      and\n      dup2\n      mstore\n      0x20\n      add\n      swap1\n      dup2\n      mstore\n      0x20\n      add\n      0x00\n      keccak256\n        /* \"contracts/BridgewhenCheap.sol\":3623:3684  BridgeRequest memory toBeBridgedRequest = requests[requestor] */\n      mload(0x40)\n      dup1\n      0x80\n      add\n      0x40\n      mstore\n      swap1\n      dup2\n      0x00\n      dup3\n      add\n      0x00\n      swap1\n      sload\n      swap1\n      0x0100\n      exp\n      swap1\n      div\n      0xffffffffffffffffffffffffffffffffffffffff\n      and\n      0xffffffffffffffffffffffffffffffffffffffff\n      and\n      0xffffffffffffffffffffffffffffffffffffffff\n      and\n      dup2\n      mstore\n      0x20\n      add\n      0x01\n      dup3\n      add\n      0x00\n      swap1\n      sload\n      swap1\n      0x0100\n      exp\n      swap1\n      div\n      0xffffffffffffffffffffffffffffffffffffffff\n      and\n      0xffffffffffffffffffffffffffffffffffffffff\n      and\n      0xffffffffffffffffffffffffffffffffffffffff\n      and\n      dup2\n      mstore\n      0x20\n      add\n      0x02\n      dup3\n      add\n      sload\n      dup2\n      mstore\n      0x20\n      add\n      0x03\n      dup3\n      add\n      sload\n      dup2\n      mstore\n      pop\n      pop\n      swap1\n      pop\n        /* \"contracts/BridgewhenCheap.sol\":3702:3731  isDefined(toBeBridgedRequest) */\n      tag_91\n        /* \"contracts/BridgewhenCheap.sol\":3712:3730  toBeBridgedRequest */\n      dup2\n        /* \"contracts/BridgewhenCheap.sol\":3702:3711  isDefined */\n      tag_50\n        /* \"contracts/BridgewhenCheap.sol\":3702:3731  isDefined(toBeBridgedRequest) */\n      jump\t// in\n    tag_91:\n        /* \"contracts/BridgewhenCheap.sol\":3694:3757  require(isDefined(toBeBridgedRequest), \"No request to process\") */\n      tag_92\n      jumpi\n      mload(0x40)\n      0x08c379a000000000000000000000000000000000000000000000000000000000\n      dup2\n      mstore\n      0x04\n      add\n      tag_93\n      swap1\n      tag_94\n      jump\t// in\n    tag_93:\n      mload(0x40)\n      dup1\n      swap2\n      sub\n      swap1\n      revert\n    tag_92:\n        /* \"contracts/BridgewhenCheap.sol\":3775:3783  requests */\n      0x04\n        /* \"contracts/BridgewhenCheap.sol\":3775:3794  requests[requestor] */\n      0x00\n        /* \"contracts/BridgewhenCheap.sol\":3784:3793  requestor */\n      dup4\n        /* \"contracts/BridgewhenCheap.sol\":3775:3794  requests[requestor] */\n      0xffffffffffffffffffffffffffffffffffffffff\n      and\n      0xffffffffffffffffffffffffffffffffffffffff\n      and\n      dup2\n      mstore\n      0x20\n      add\n      swap1\n      dup2\n      mstore\n      0x20\n      add\n      0x00\n      keccak256\n      0x00\n        /* \"contracts/BridgewhenCheap.sol\":3768:3794  delete requests[requestor] */\n      dup1\n      dup3\n      add\n      exp(0x0100, 0x00)\n      dup2\n      sload\n      swap1\n      0xffffffffffffffffffffffffffffffffffffffff\n      mul\n      not\n      and\n      swap1\n      sstore\n      0x01\n      dup3\n      add\n      exp(0x0100, 0x00)\n      dup2\n      sload\n      swap1\n      0xffffffffffffffffffffffffffffffffffffffff\n      mul\n      not\n      and\n      swap1\n      sstore\n      0x02\n      dup3\n      add\n      0x00\n      swap1\n      sstore\n      0x03\n      dup3\n      add\n      0x00\n      swap1\n      sstore\n      pop\n      pop\n        /* \"contracts/BridgewhenCheap.sol\":3847:3859  bool success */\n      0x00\n        /* \"contracts/BridgewhenCheap.sol\":3870:3880  msg.sender */\n      caller\n        /* \"contracts/BridgewhenCheap.sol\":3862:3886  payable(msg.sender).send */\n      0xffffffffffffffffffffffffffffffffffffffff\n      and\n        /* \"contracts/BridgewhenCheap.sol\":3862:3911  payable(msg.sender).send(executionGasRequirement) */\n      0x08fc\n        /* \"contracts/BridgewhenCheap.sol\":3887:3910  executionGasRequirement */\n      sload(0x02)\n        /* \"contracts/BridgewhenCheap.sol\":3862:3911  payable(msg.sender).send(executionGasRequirement) */\n      swap1\n      dup2\n      iszero\n      mul\n      swap1\n      mload(0x40)\n      0x00\n      mload(0x40)\n      dup1\n      dup4\n      sub\n      dup2\n      dup6\n      dup9\n      dup9\n      call\n      swap4\n      pop\n      pop\n      pop\n      pop\n        /* \"contracts/BridgewhenCheap.sol\":3847:3911  bool success = payable(msg.sender).send(executionGasRequirement) */\n      swap1\n      pop\n        /* \"contracts/BridgewhenCheap.sol\":3929:3936  success */\n      dup1\n        /* \"contracts/BridgewhenCheap.sol\":3921:3966  require(success, \"Failed to refund executor\") */\n      tag_96\n      jumpi\n      mload(0x40)\n      0x08c379a000000000000000000000000000000000000000000000000000000000\n      dup2\n      mstore\n      0x04\n      add\n      tag_97\n      swap1\n      tag_98\n      jump\t// in\n    tag_97:\n      mload(0x40)\n      dup1\n      swap2\n      sub\n      swap1\n      revert\n    tag_96:\n        /* \"contracts/BridgewhenCheap.sol\":4102:4123  l2HopBridgeAmmWrapper */\n      0x03\n      0x00\n      swap1\n      sload\n      swap1\n      0x0100\n      exp\n      swap1\n      div\n      0xffffffffffffffffffffffffffffffffffffffff\n      and\n        /* \"contracts/BridgewhenCheap.sol\":4094:4129  payable(l2HopBridgeAmmWrapper).send */\n      0xffffffffffffffffffffffffffffffffffffffff\n      and\n        /* \"contracts/BridgewhenCheap.sol\":4094:4156  payable(l2HopBridgeAmmWrapper).send(toBeBridgedRequest.amount) */\n      0x08fc\n        /* \"contracts/BridgewhenCheap.sol\":4130:4148  toBeBridgedRequest */\n      dup4\n        /* \"contracts/BridgewhenCheap.sol\":4130:4155  toBeBridgedRequest.amount */\n      0x40\n      add\n      mload\n        /* \"contracts/BridgewhenCheap.sol\":4094:4156  payable(l2HopBridgeAmmWrapper).send(toBeBridgedRequest.amount) */\n      swap1\n      dup2\n      iszero\n      mul\n      swap1\n      mload(0x40)\n      0x00\n      mload(0x40)\n      dup1\n      dup4\n      sub\n      dup2\n      dup6\n      dup9\n      dup9\n      call\n      swap4\n      pop\n      pop\n      pop\n      pop\n        /* \"contracts/BridgewhenCheap.sol\":4084:4156  success = payable(l2HopBridgeAmmWrapper).send(toBeBridgedRequest.amount) */\n      swap1\n      pop\n        /* \"contracts/BridgewhenCheap.sol\":4174:4181  success */\n      dup1\n        /* \"contracts/BridgewhenCheap.sol\":4166:4231  require(success, \"Failed to submit bridge request to Hop Bridge\") */\n      tag_100\n      jumpi\n      mload(0x40)\n      0x08c379a000000000000000000000000000000000000000000000000000000000\n      dup2\n      mstore\n      0x04\n      add\n      tag_101\n      swap1\n      tag_102\n      jump\t// in\n    tag_101:\n      mload(0x40)\n      dup1\n      swap2\n      sub\n      swap1\n      revert\n    tag_100:\n        /* \"contracts/BridgewhenCheap.sol\":3613:4238  {... */\n      pop\n      pop\n        /* \"@openzeppelin/contracts/security/ReentrancyGuard.sol\":2303:2323  _nonReentrantAfter() */\n      tag_103\n        /* \"@openzeppelin/contracts/security/ReentrancyGuard.sol\":2303:2321  _nonReentrantAfter */\n      tag_62\n        /* \"@openzeppelin/contracts/security/ReentrancyGuard.sol\":2303:2323  _nonReentrantAfter() */\n      jump\t// in\n    tag_103:\n        /* \"contracts/BridgewhenCheap.sol\":3540:4238  function executeRequest(address requestor) public onlyOwner nonReentrant {... */\n      pop\n      jump\t// out\n        /* \"@openzeppelin/contracts/access/Ownable.sol\":1831:1932  function renounceOwnership() public virtual onlyOwner {... */\n    tag_35:\n        /* \"@openzeppelin/contracts/access/Ownable.sol\":1094:1107  _checkOwner() */\n      tag_105\n        /* \"@openzeppelin/contracts/access/Ownable.sol\":1094:1105  _checkOwner */\n      tag_84\n        /* \"@openzeppelin/contracts/access/Ownable.sol\":1094:1107  _checkOwner() */\n      jump\t// in\n    tag_105:\n        /* \"@openzeppelin/contracts/access/Ownable.sol\":1895:1925  _transferOwnership(address(0)) */\n      tag_107\n        /* \"@openzeppelin/contracts/access/Ownable.sol\":1922:1923  0 */\n      0x00\n        /* \"@openzeppelin/contracts/access/Ownable.sol\":1895:1913  _transferOwnership */\n      tag_108\n        /* \"@openzeppelin/contracts/access/Ownable.sol\":1895:1925  _transferOwnership(address(0)) */\n      jump\t// in\n    tag_107:\n        /* \"@openzeppelin/contracts/access/Ownable.sol\":1831:1932  function renounceOwnership() public virtual onlyOwner {... */\n      jump\t// out\n        /* \"@openzeppelin/contracts/access/Ownable.sol\":1201:1286  function owner() public view virtual returns (address) {... */\n    tag_38:\n        /* \"@openzeppelin/contracts/access/Ownable.sol\":1247:1254  address */\n      0x00\n        /* \"@openzeppelin/contracts/access/Ownable.sol\":1273:1279  _owner */\n      dup1\n      0x00\n      swap1\n      sload\n      swap1\n      0x0100\n      exp\n      swap1\n      div\n      0xffffffffffffffffffffffffffffffffffffffff\n      and\n        /* \"@openzeppelin/contracts/access/Ownable.sol\":1266:1279  return _owner */\n      swap1\n      pop\n        /* \"@openzeppelin/contracts/access/Ownable.sol\":1201:1286  function owner() public view virtual returns (address) {... */\n      swap1\n      jump\t// out\n        /* \"@openzeppelin/contracts/access/Ownable.sol\":2081:2279  function transferOwnership(address newOwner) public virtual onlyOwner {... */\n    tag_44:\n        /* \"@openzeppelin/contracts/access/Ownable.sol\":1094:1107  _checkOwner() */\n      tag_111\n        /* \"@openzeppelin/contracts/access/Ownable.sol\":1094:1105  _checkOwner */\n      tag_84\n        /* \"@openzeppelin/contracts/access/Ownable.sol\":1094:1107  _checkOwner() */\n      jump\t// in\n    tag_111:\n        /* \"@openzeppelin/contracts/access/Ownable.sol\":2189:2190  0 */\n      0x00\n        /* \"@openzeppelin/contracts/access/Ownable.sol\":2169:2191  newOwner != address(0) */\n      0xffffffffffffffffffffffffffffffffffffffff\n      and\n        /* \"@openzeppelin/contracts/access/Ownable.sol\":2169:2177  newOwner */\n      dup2\n        /* \"@openzeppelin/contracts/access/Ownable.sol\":2169:2191  newOwner != address(0) */\n      0xffffffffffffffffffffffffffffffffffffffff\n      and\n      sub\n        /* \"@openzeppelin/contracts/access/Ownable.sol\":2161:2234  require(newOwner != address(0), \"Ownable: new owner is the zero address\") */\n      tag_113\n      jumpi\n      mload(0x40)\n      0x08c379a000000000000000000000000000000000000000000000000000000000\n      dup2\n      mstore\n      0x04\n      add\n      tag_114\n      swap1\n      tag_115\n      jump\t// in\n    tag_114:\n      mload(0x40)\n      dup1\n      swap2\n      sub\n      swap1\n      revert\n    tag_113:\n        /* \"@openzeppelin/contracts/access/Ownable.sol\":2244:2272  _transferOwnership(newOwner) */\n      tag_116\n        /* \"@openzeppelin/contracts/access/Ownable.sol\":2263:2271  newOwner */\n      dup2\n        /* \"@openzeppelin/contracts/access/Ownable.sol\":2244:2262  _transferOwnership */\n      tag_108\n        /* \"@openzeppelin/contracts/access/Ownable.sol\":2244:2272  _transferOwnership(newOwner) */\n      jump\t// in\n    tag_116:\n        /* \"@openzeppelin/contracts/access/Ownable.sol\":2081:2279  function transferOwnership(address newOwner) public virtual onlyOwner {... */\n      pop\n      jump\t// out\n        /* \"@openzeppelin/contracts/security/ReentrancyGuard.sol\":2336:2623  function _nonReentrantBefore() private {... */\n    tag_47:\n        /* \"@openzeppelin/contracts/security/ReentrancyGuard.sol\":1759:1760  2 */\n      0x02\n        /* \"@openzeppelin/contracts/security/ReentrancyGuard.sol\":2468:2475  _status */\n      sload(0x01)\n        /* \"@openzeppelin/contracts/security/ReentrancyGuard.sol\":2468:2487  _status != _ENTERED */\n      sub\n        /* \"@openzeppelin/contracts/security/ReentrancyGuard.sol\":2460:2523  require(_status != _ENTERED, \"ReentrancyGuard: reentrant call\") */\n      tag_118\n      jumpi\n      mload(0x40)\n      0x08c379a000000000000000000000000000000000000000000000000000000000\n      dup2\n      mstore\n      0x04\n      add\n      tag_119\n      swap1\n      tag_120\n      jump\t// in\n    tag_119:\n      mload(0x40)\n      dup1\n      swap2\n      sub\n      swap1\n      revert\n    tag_118:\n        /* \"@openzeppelin/contracts/security/ReentrancyGuard.sol\":1759:1760  2 */\n      0x02\n        /* \"@openzeppelin/contracts/security/ReentrancyGuard.sol\":2598:2605  _status */\n      0x01\n        /* \"@openzeppelin/contracts/security/ReentrancyGuard.sol\":2598:2616  _status = _ENTERED */\n      dup2\n      swap1\n      sstore\n      pop\n        /* \"@openzeppelin/contracts/security/ReentrancyGuard.sol\":2336:2623  function _nonReentrantBefore() private {... */\n      jump\t// out\n        /* \"contracts/BridgewhenCheap.sol\":4550:4680  function isDefined(BridgeRequest memory request) pure internal returns (bool) {... */\n    tag_50:\n        /* \"contracts/BridgewhenCheap.sol\":4622:4626  bool */\n      0x00\n        /* \"contracts/BridgewhenCheap.sol\":4671:4672  0 */\n      dup1\n        /* \"contracts/BridgewhenCheap.sol\":4645:4673  request.source != address(0) */\n      0xffffffffffffffffffffffffffffffffffffffff\n      and\n        /* \"contracts/BridgewhenCheap.sol\":4645:4652  request */\n      dup3\n        /* \"contracts/BridgewhenCheap.sol\":4645:4659  request.source */\n      0x00\n      add\n      mload\n        /* \"contracts/BridgewhenCheap.sol\":4645:4673  request.source != address(0) */\n      0xffffffffffffffffffffffffffffffffffffffff\n      and\n      eq\n      iszero\n        /* \"contracts/BridgewhenCheap.sol\":4638:4673  return request.source != address(0) */\n      swap1\n      pop\n        /* \"contracts/BridgewhenCheap.sol\":4550:4680  function isDefined(BridgeRequest memory request) pure internal returns (bool) {... */\n      swap2\n      swap1\n      pop\n      jump\t// out\n        /* \"@openzeppelin/contracts/security/ReentrancyGuard.sol\":2629:2838  function _nonReentrantAfter() private {... */\n    tag_62:\n        /* \"@openzeppelin/contracts/security/ReentrancyGuard.sol\":1716:1717  1 */\n      0x01\n        /* \"@openzeppelin/contracts/security/ReentrancyGuard.sol\":2809:2816  _status */\n      dup1\n        /* \"@openzeppelin/contracts/security/ReentrancyGuard.sol\":2809:2831  _status = _NOT_ENTERED */\n      dup2\n      swap1\n      sstore\n      pop\n        /* \"@openzeppelin/contracts/security/ReentrancyGuard.sol\":2629:2838  function _nonReentrantAfter() private {... */\n      jump\t// out\n        /* \"@openzeppelin/contracts/access/Ownable.sol\":1359:1489  function _checkOwner() internal view virtual {... */\n    tag_84:\n        /* \"@openzeppelin/contracts/access/Ownable.sol\":1433:1445  _msgSender() */\n      tag_124\n        /* \"@openzeppelin/contracts/access/Ownable.sol\":1433:1443  _msgSender */\n      tag_125\n        /* \"@openzeppelin/contracts/access/Ownable.sol\":1433:1445  _msgSender() */\n      jump\t// in\n    tag_124:\n        /* \"@openzeppelin/contracts/access/Ownable.sol\":1422:1445  owner() == _msgSender() */\n      0xffffffffffffffffffffffffffffffffffffffff\n      and\n        /* \"@openzeppelin/contracts/access/Ownable.sol\":1422:1429  owner() */\n      tag_126\n        /* \"@openzeppelin/contracts/access/Ownable.sol\":1422:1427  owner */\n      tag_38\n        /* \"@openzeppelin/contracts/access/Ownable.sol\":1422:1429  owner() */\n      jump\t// in\n    tag_126:\n        /* \"@openzeppelin/contracts/access/Ownable.sol\":1422:1445  owner() == _msgSender() */\n      0xffffffffffffffffffffffffffffffffffffffff\n      and\n      eq\n        /* \"@openzeppelin/contracts/access/Ownable.sol\":1414:1482  require(owner() == _msgSender(), \"Ownable: caller is not the owner\") */\n      tag_127\n      jumpi\n      mload(0x40)\n      0x08c379a000000000000000000000000000000000000000000000000000000000\n      dup2\n      mstore\n      0x04\n      add\n      tag_128\n      swap1\n      tag_129\n      jump\t// in\n    tag_128:\n      mload(0x40)\n      dup1\n      swap2\n      sub\n      swap1\n      revert\n    tag_127:\n        /* \"@openzeppelin/contracts/access/Ownable.sol\":1359:1489  function _checkOwner() internal view virtual {... */\n      jump\t// out\n        /* \"@openzeppelin/contracts/access/Ownable.sol\":2433:2620  function _transferOwnership(address newOwner) internal virtual {... */\n    tag_108:\n        /* \"@openzeppelin/contracts/access/Ownable.sol\":2506:2522  address oldOwner */\n      0x00\n        /* \"@openzeppelin/contracts/access/Ownable.sol\":2525:2531  _owner */\n      dup1\n      0x00\n      swap1\n      sload\n      swap1\n      0x0100\n      exp\n      swap1\n      div\n      0xffffffffffffffffffffffffffffffffffffffff\n      and\n        /* \"@openzeppelin/contracts/access/Ownable.sol\":2506:2531  address oldOwner = _owner */\n      swap1\n      pop\n        /* \"@openzeppelin/contracts/access/Ownable.sol\":2550:2558  newOwner */\n      dup2\n        /* \"@openzeppelin/contracts/access/Ownable.sol\":2541:2547  _owner */\n      0x00\n      dup1\n        /* \"@openzeppelin/contracts/access/Ownable.sol\":2541:2558  _owner = newOwner */\n      0x0100\n      exp\n      dup2\n      sload\n      dup2\n      0xffffffffffffffffffffffffffffffffffffffff\n      mul\n      not\n      and\n      swap1\n      dup4\n      0xffffffffffffffffffffffffffffffffffffffff\n      and\n      mul\n      or\n      swap1\n      sstore\n      pop\n        /* \"@openzeppelin/contracts/access/Ownable.sol\":2604:2612  newOwner */\n      dup2\n        /* \"@openzeppelin/contracts/access/Ownable.sol\":2573:2613  OwnershipTransferred(oldOwner, newOwner) */\n      0xffffffffffffffffffffffffffffffffffffffff\n      and\n        /* \"@openzeppelin/contracts/access/Ownable.sol\":2594:2602  oldOwner */\n      dup2\n        /* \"@openzeppelin/contracts/access/Ownable.sol\":2573:2613  OwnershipTransferred(oldOwner, newOwner) */\n      0xffffffffffffffffffffffffffffffffffffffff\n      and\n      0x8be0079c531659141344cd1fd0a4f28419497f9722a3daafe3b4186f6b6457e0\n      mload(0x40)\n      mload(0x40)\n      dup1\n      swap2\n      sub\n      swap1\n      log3\n        /* \"@openzeppelin/contracts/access/Ownable.sol\":2496:2620  {... */\n      pop\n        /* \"@openzeppelin/contracts/access/Ownable.sol\":2433:2620  function _transferOwnership(address newOwner) internal virtual {... */\n      pop\n      jump\t// out\n        /* \"@openzeppelin/contracts/utils/Context.sol\":640:736  function _msgSender() internal view virtual returns (address) {... */\n    tag_125:\n        /* \"@openzeppelin/contracts/utils/Context.sol\":693:700  address */\n      0x00\n        /* \"@openzeppelin/contracts/utils/Context.sol\":719:729  msg.sender */\n      caller\n        /* \"@openzeppelin/contracts/utils/Context.sol\":712:729  return msg.sender */\n      swap1\n      pop\n        /* \"@openzeppelin/contracts/utils/Context.sol\":640:736  function _msgSender() internal view virtual returns (address) {... */\n      swap1\n      jump\t// out\n    tag_79:\n      mload(0x40)\n      dup1\n      0x80\n      add\n      0x40\n      mstore\n      dup1\n      and(0xffffffffffffffffffffffffffffffffffffffff, 0x00)\n      dup2\n      mstore\n      0x20\n      add\n      and(0xffffffffffffffffffffffffffffffffffffffff, 0x00)\n      dup2\n      mstore\n      0x20\n      add\n      0x00\n      dup2\n      mstore\n      0x20\n      add\n      0x00\n      dup2\n      mstore\n      pop\n      swap1\n      jump\t// out\n        /* \"#utility.yul\":88:205   */\n    tag_133:\n        /* \"#utility.yul\":197:198   */\n      0x00\n        /* \"#utility.yul\":194:195   */\n      dup1\n        /* \"#utility.yul\":187:199   */\n      revert\n        /* \"#utility.yul\":334:460   */\n    tag_135:\n        /* \"#utility.yul\":371:378   */\n      0x00\n        /* \"#utility.yul\":411:453   */\n      0xffffffffffffffffffffffffffffffffffffffff\n        /* \"#utility.yul\":404:409   */\n      dup3\n        /* \"#utility.yul\":400:454   */\n      and\n        /* \"#utility.yul\":389:454   */\n      swap1\n      pop\n        /* \"#utility.yul\":334:460   */\n      swap2\n      swap1\n      pop\n      jump\t// out\n        /* \"#utility.yul\":466:562   */\n    tag_136:\n        /* \"#utility.yul\":503:510   */\n      0x00\n        /* \"#utility.yul\":532:556   */\n      tag_180\n        /* \"#utility.yul\":550:555   */\n      dup3\n        /* \"#utility.yul\":532:556   */\n      tag_135\n      jump\t// in\n    tag_180:\n        /* \"#utility.yul\":521:556   */\n      swap1\n      pop\n        /* \"#utility.yul\":466:562   */\n      swap2\n      swap1\n      pop\n      jump\t// out\n        /* \"#utility.yul\":568:690   */\n    tag_137:\n        /* \"#utility.yul\":641:665   */\n      tag_182\n        /* \"#utility.yul\":659:664   */\n      dup2\n        /* \"#utility.yul\":641:665   */\n      tag_136\n      jump\t// in\n    tag_182:\n        /* \"#utility.yul\":634:639   */\n      dup2\n        /* \"#utility.yul\":631:666   */\n      eq\n        /* \"#utility.yul\":621:684   */\n      tag_183\n      jumpi\n        /* \"#utility.yul\":680:681   */\n      0x00\n        /* \"#utility.yul\":677:678   */\n      dup1\n        /* \"#utility.yul\":670:682   */\n      revert\n        /* \"#utility.yul\":621:684   */\n    tag_183:\n        /* \"#utility.yul\":568:690   */\n      pop\n      jump\t// out\n        /* \"#utility.yul\":696:835   */\n    tag_138:\n        /* \"#utility.yul\":742:747   */\n      0x00\n        /* \"#utility.yul\":780:786   */\n      dup2\n        /* \"#utility.yul\":767:787   */\n      calldataload\n        /* \"#utility.yul\":758:787   */\n      swap1\n      pop\n        /* \"#utility.yul\":796:829   */\n      tag_185\n        /* \"#utility.yul\":823:828   */\n      dup2\n        /* \"#utility.yul\":796:829   */\n      tag_137\n      jump\t// in\n    tag_185:\n        /* \"#utility.yul\":696:835   */\n      swap3\n      swap2\n      pop\n      pop\n      jump\t// out\n        /* \"#utility.yul\":841:918   */\n    tag_139:\n        /* \"#utility.yul\":878:885   */\n      0x00\n        /* \"#utility.yul\":907:912   */\n      dup2\n        /* \"#utility.yul\":896:912   */\n      swap1\n      pop\n        /* \"#utility.yul\":841:918   */\n      swap2\n      swap1\n      pop\n      jump\t// out\n        /* \"#utility.yul\":924:1046   */\n    tag_140:\n        /* \"#utility.yul\":997:1021   */\n      tag_188\n        /* \"#utility.yul\":1015:1020   */\n      dup2\n        /* \"#utility.yul\":997:1021   */\n      tag_139\n      jump\t// in\n    tag_188:\n        /* \"#utility.yul\":990:995   */\n      dup2\n        /* \"#utility.yul\":987:1022   */\n      eq\n        /* \"#utility.yul\":977:1040   */\n      tag_189\n      jumpi\n        /* \"#utility.yul\":1036:1037   */\n      0x00\n        /* \"#utility.yul\":1033:1034   */\n      dup1\n        /* \"#utility.yul\":1026:1038   */\n      revert\n        /* \"#utility.yul\":977:1040   */\n    tag_189:\n        /* \"#utility.yul\":924:1046   */\n      pop\n      jump\t// out\n        /* \"#utility.yul\":1052:1191   */\n    tag_141:\n        /* \"#utility.yul\":1098:1103   */\n      0x00\n        /* \"#utility.yul\":1136:1142   */\n      dup2\n        /* \"#utility.yul\":1123:1143   */\n      calldataload\n        /* \"#utility.yul\":1114:1143   */\n      swap1\n      pop\n        /* \"#utility.yul\":1152:1185   */\n      tag_191\n        /* \"#utility.yul\":1179:1184   */\n      dup2\n        /* \"#utility.yul\":1152:1185   */\n      tag_140\n      jump\t// in\n    tag_191:\n        /* \"#utility.yul\":1052:1191   */\n      swap3\n      swap2\n      pop\n      pop\n      jump\t// out\n        /* \"#utility.yul\":1197:1671   */\n    tag_16:\n        /* \"#utility.yul\":1265:1271   */\n      0x00\n        /* \"#utility.yul\":1273:1279   */\n      dup1\n        /* \"#utility.yul\":1322:1324   */\n      0x40\n        /* \"#utility.yul\":1310:1319   */\n      dup4\n        /* \"#utility.yul\":1301:1308   */\n      dup6\n        /* \"#utility.yul\":1297:1320   */\n      sub\n        /* \"#utility.yul\":1293:1325   */\n      slt\n        /* \"#utility.yul\":1290:1409   */\n      iszero\n      tag_193\n      jumpi\n        /* \"#utility.yul\":1328:1407   */\n      tag_194\n      tag_133\n      jump\t// in\n    tag_194:\n        /* \"#utility.yul\":1290:1409   */\n    tag_193:\n        /* \"#utility.yul\":1448:1449   */\n      0x00\n        /* \"#utility.yul\":1473:1526   */\n      tag_195\n        /* \"#utility.yul\":1518:1525   */\n      dup6\n        /* \"#utility.yul\":1509:1515   */\n      dup3\n        /* \"#utility.yul\":1498:1507   */\n      dup7\n        /* \"#utility.yul\":1494:1516   */\n      add\n        /* \"#utility.yul\":1473:1526   */\n      tag_138\n      jump\t// in\n    tag_195:\n        /* \"#utility.yul\":1463:1526   */\n      swap3\n      pop\n        /* \"#utility.yul\":1419:1536   */\n      pop\n        /* \"#utility.yul\":1575:1577   */\n      0x20\n        /* \"#utility.yul\":1601:1654   */\n      tag_196\n        /* \"#utility.yul\":1646:1653   */\n      dup6\n        /* \"#utility.yul\":1637:1643   */\n      dup3\n        /* \"#utility.yul\":1626:1635   */\n      dup7\n        /* \"#utility.yul\":1622:1644   */\n      add\n        /* \"#utility.yul\":1601:1654   */\n      tag_141\n      jump\t// in\n    tag_196:\n        /* \"#utility.yul\":1591:1654   */\n      swap2\n      pop\n        /* \"#utility.yul\":1546:1664   */\n      pop\n        /* \"#utility.yul\":1197:1671   */\n      swap3\n      pop\n      swap3\n      swap1\n      pop\n      jump\t// out\n        /* \"#utility.yul\":1677:1785   */\n    tag_142:\n        /* \"#utility.yul\":1754:1778   */\n      tag_198\n        /* \"#utility.yul\":1772:1777   */\n      dup2\n        /* \"#utility.yul\":1754:1778   */\n      tag_136\n      jump\t// in\n    tag_198:\n        /* \"#utility.yul\":1749:1752   */\n      dup3\n        /* \"#utility.yul\":1742:1779   */\n      mstore\n        /* \"#utility.yul\":1677:1785   */\n      pop\n      pop\n      jump\t// out\n        /* \"#utility.yul\":1791:1899   */\n    tag_143:\n        /* \"#utility.yul\":1868:1892   */\n      tag_200\n        /* \"#utility.yul\":1886:1891   */\n      dup2\n        /* \"#utility.yul\":1868:1892   */\n      tag_139\n      jump\t// in\n    tag_200:\n        /* \"#utility.yul\":1863:1866   */\n      dup3\n        /* \"#utility.yul\":1856:1893   */\n      mstore\n        /* \"#utility.yul\":1791:1899   */\n      pop\n      pop\n      jump\t// out\n        /* \"#utility.yul\":1957:2845   */\n    tag_144:\n        /* \"#utility.yul\":2114:2118   */\n      0x80\n        /* \"#utility.yul\":2109:2112   */\n      dup3\n        /* \"#utility.yul\":2105:2119   */\n      add\n        /* \"#utility.yul\":2203:2207   */\n      0x00\n        /* \"#utility.yul\":2196:2201   */\n      dup3\n        /* \"#utility.yul\":2192:2208   */\n      add\n        /* \"#utility.yul\":2186:2209   */\n      mload\n        /* \"#utility.yul\":2222:2285   */\n      tag_202\n        /* \"#utility.yul\":2279:2283   */\n      0x00\n        /* \"#utility.yul\":2274:2277   */\n      dup6\n        /* \"#utility.yul\":2270:2284   */\n      add\n        /* \"#utility.yul\":2256:2268   */\n      dup3\n        /* \"#utility.yul\":2222:2285   */\n      tag_142\n      jump\t// in\n    tag_202:\n        /* \"#utility.yul\":2129:2295   */\n      pop\n        /* \"#utility.yul\":2384:2388   */\n      0x20\n        /* \"#utility.yul\":2377:2382   */\n      dup3\n        /* \"#utility.yul\":2373:2389   */\n      add\n        /* \"#utility.yul\":2367:2390   */\n      mload\n        /* \"#utility.yul\":2403:2466   */\n      tag_203\n        /* \"#utility.yul\":2460:2464   */\n      0x20\n        /* \"#utility.yul\":2455:2458   */\n      dup6\n        /* \"#utility.yul\":2451:2465   */\n      add\n        /* \"#utility.yul\":2437:2449   */\n      dup3\n        /* \"#utility.yul\":2403:2466   */\n      tag_142\n      jump\t// in\n    tag_203:\n        /* \"#utility.yul\":2305:2476   */\n      pop\n        /* \"#utility.yul\":2560:2564   */\n      0x40\n        /* \"#utility.yul\":2553:2558   */\n      dup3\n        /* \"#utility.yul\":2549:2565   */\n      add\n        /* \"#utility.yul\":2543:2566   */\n      mload\n        /* \"#utility.yul\":2579:2642   */\n      tag_204\n        /* \"#utility.yul\":2636:2640   */\n      0x40\n        /* \"#utility.yul\":2631:2634   */\n      dup6\n        /* \"#utility.yul\":2627:2641   */\n      add\n        /* \"#utility.yul\":2613:2625   */\n      dup3\n        /* \"#utility.yul\":2579:2642   */\n      tag_143\n      jump\t// in\n    tag_204:\n        /* \"#utility.yul\":2486:2652   */\n      pop\n        /* \"#utility.yul\":2746:2750   */\n      0x60\n        /* \"#utility.yul\":2739:2744   */\n      dup3\n        /* \"#utility.yul\":2735:2751   */\n      add\n        /* \"#utility.yul\":2729:2752   */\n      mload\n        /* \"#utility.yul\":2765:2828   */\n      tag_205\n        /* \"#utility.yul\":2822:2826   */\n      0x60\n        /* \"#utility.yul\":2817:2820   */\n      dup6\n        /* \"#utility.yul\":2813:2827   */\n      add\n        /* \"#utility.yul\":2799:2811   */\n      dup3\n        /* \"#utility.yul\":2765:2828   */\n      tag_143\n      jump\t// in\n    tag_205:\n        /* \"#utility.yul\":2662:2838   */\n      pop\n        /* \"#utility.yul\":2083:2845   */\n      pop\n        /* \"#utility.yul\":1957:2845   */\n      pop\n      pop\n      jump\t// out\n        /* \"#utility.yul\":2851:2941   */\n    tag_145:\n        /* \"#utility.yul\":2885:2892   */\n      0x00\n        /* \"#utility.yul\":2928:2933   */\n      dup2\n        /* \"#utility.yul\":2921:2934   */\n      iszero\n        /* \"#utility.yul\":2914:2935   */\n      iszero\n        /* \"#utility.yul\":2903:2935   */\n      swap1\n      pop\n        /* \"#utility.yul\":2851:2941   */\n      swap2\n      swap1\n      pop\n      jump\t// out\n        /* \"#utility.yul\":2947:3056   */\n    tag_146:\n        /* \"#utility.yul\":3028:3049   */\n      tag_208\n        /* \"#utility.yul\":3043:3048   */\n      dup2\n        /* \"#utility.yul\":3028:3049   */\n      tag_145\n      jump\t// in\n    tag_208:\n        /* \"#utility.yul\":3023:3026   */\n      dup3\n        /* \"#utility.yul\":3016:3050   */\n      mstore\n        /* \"#utility.yul\":2947:3056   */\n      pop\n      pop\n      jump\t// out\n        /* \"#utility.yul\":3062:3504   */\n    tag_22:\n        /* \"#utility.yul\":3237:3241   */\n      0x00\n        /* \"#utility.yul\":3275:3278   */\n      0xa0\n        /* \"#utility.yul\":3264:3273   */\n      dup3\n        /* \"#utility.yul\":3260:3279   */\n      add\n        /* \"#utility.yul\":3252:3279   */\n      swap1\n      pop\n        /* \"#utility.yul\":3289:3420   */\n      tag_210\n        /* \"#utility.yul\":3417:3418   */\n      0x00\n        /* \"#utility.yul\":3406:3415   */\n      dup4\n        /* \"#utility.yul\":3402:3419   */\n      add\n        /* \"#utility.yul\":3393:3399   */\n      dup6\n        /* \"#utility.yul\":3289:3420   */\n      tag_144\n      jump\t// in\n    tag_210:\n        /* \"#utility.yul\":3430:3497   */\n      tag_211\n        /* \"#utility.yul\":3492:3495   */\n      0x80\n        /* \"#utility.yul\":3481:3490   */\n      dup4\n        /* \"#utility.yul\":3477:3496   */\n      add\n        /* \"#utility.yul\":3468:3474   */\n      dup5\n        /* \"#utility.yul\":3430:3497   */\n      tag_146\n      jump\t// in\n    tag_211:\n        /* \"#utility.yul\":3062:3504   */\n      swap4\n      swap3\n      pop\n      pop\n      pop\n      jump\t// out\n        /* \"#utility.yul\":3510:3839   */\n    tag_26:\n        /* \"#utility.yul\":3569:3575   */\n      0x00\n        /* \"#utility.yul\":3618:3620   */\n      0x20\n        /* \"#utility.yul\":3606:3615   */\n      dup3\n        /* \"#utility.yul\":3597:3604   */\n      dup5\n        /* \"#utility.yul\":3593:3616   */\n      sub\n        /* \"#utility.yul\":3589:3621   */\n      slt\n        /* \"#utility.yul\":3586:3705   */\n      iszero\n      tag_213\n      jumpi\n        /* \"#utility.yul\":3624:3703   */\n      tag_214\n      tag_133\n      jump\t// in\n    tag_214:\n        /* \"#utility.yul\":3586:3705   */\n    tag_213:\n        /* \"#utility.yul\":3744:3745   */\n      0x00\n        /* \"#utility.yul\":3769:3822   */\n      tag_215\n        /* \"#utility.yul\":3814:3821   */\n      dup5\n        /* \"#utility.yul\":3805:3811   */\n      dup3\n        /* \"#utility.yul\":3794:3803   */\n      dup6\n        /* \"#utility.yul\":3790:3812   */\n      add\n        /* \"#utility.yul\":3769:3822   */\n      tag_141\n      jump\t// in\n    tag_215:\n        /* \"#utility.yul\":3759:3822   */\n      swap2\n      pop\n        /* \"#utility.yul\":3715:3832   */\n      pop\n        /* \"#utility.yul\":3510:3839   */\n      swap3\n      swap2\n      pop\n      pop\n      jump\t// out\n        /* \"#utility.yul\":3845:4174   */\n    tag_31:\n        /* \"#utility.yul\":3904:3910   */\n      0x00\n        /* \"#utility.yul\":3953:3955   */\n      0x20\n        /* \"#utility.yul\":3941:3950   */\n      dup3\n        /* \"#utility.yul\":3932:3939   */\n      dup5\n        /* \"#utility.yul\":3928:3951   */\n      sub\n        /* \"#utility.yul\":3924:3956   */\n      slt\n        /* \"#utility.yul\":3921:4040   */\n      iszero\n      tag_217\n      jumpi\n        /* \"#utility.yul\":3959:4038   */\n      tag_218\n      tag_133\n      jump\t// in\n    tag_218:\n        /* \"#utility.yul\":3921:4040   */\n    tag_217:\n        /* \"#utility.yul\":4079:4080   */\n      0x00\n        /* \"#utility.yul\":4104:4157   */\n      tag_219\n        /* \"#utility.yul\":4149:4156   */\n      dup5\n        /* \"#utility.yul\":4140:4146   */\n      dup3\n        /* \"#utility.yul\":4129:4138   */\n      dup6\n        /* \"#utility.yul\":4125:4147   */\n      add\n        /* \"#utility.yul\":4104:4157   */\n      tag_138\n      jump\t// in\n    tag_219:\n        /* \"#utility.yul\":4094:4157   */\n      swap2\n      pop\n        /* \"#utility.yul\":4050:4167   */\n      pop\n        /* \"#utility.yul\":3845:4174   */\n      swap3\n      swap2\n      pop\n      pop\n      jump\t// out\n        /* \"#utility.yul\":4180:4298   */\n    tag_147:\n        /* \"#utility.yul\":4267:4291   */\n      tag_221\n        /* \"#utility.yul\":4285:4290   */\n      dup2\n        /* \"#utility.yul\":4267:4291   */\n      tag_136\n      jump\t// in\n    tag_221:\n        /* \"#utility.yul\":4262:4265   */\n      dup3\n        /* \"#utility.yul\":4255:4292   */\n      mstore\n        /* \"#utility.yul\":4180:4298   */\n      pop\n      pop\n      jump\t// out\n        /* \"#utility.yul\":4304:4526   */\n    tag_40:\n        /* \"#utility.yul\":4397:4401   */\n      0x00\n        /* \"#utility.yul\":4435:4437   */\n      0x20\n        /* \"#utility.yul\":4424:4433   */\n      dup3\n        /* \"#utility.yul\":4420:4438   */\n      add\n        /* \"#utility.yul\":4412:4438   */\n      swap1\n      pop\n        /* \"#utility.yul\":4448:4519   */\n      tag_223\n        /* \"#utility.yul\":4516:4517   */\n      0x00\n        /* \"#utility.yul\":4505:4514   */\n      dup4\n        /* \"#utility.yul\":4501:4518   */\n      add\n        /* \"#utility.yul\":4492:4498   */\n      dup5\n        /* \"#utility.yul\":4448:4519   */\n      tag_147\n      jump\t// in\n    tag_223:\n        /* \"#utility.yul\":4304:4526   */\n      swap3\n      swap2\n      pop\n      pop\n      jump\t// out\n        /* \"#utility.yul\":4532:4701   */\n    tag_148:\n        /* \"#utility.yul\":4616:4627   */\n      0x00\n        /* \"#utility.yul\":4650:4656   */\n      dup3\n        /* \"#utility.yul\":4645:4648   */\n      dup3\n        /* \"#utility.yul\":4638:4657   */\n      mstore\n        /* \"#utility.yul\":4690:4694   */\n      0x20\n        /* \"#utility.yul\":4685:4688   */\n      dup3\n        /* \"#utility.yul\":4681:4695   */\n      add\n        /* \"#utility.yul\":4666:4695   */\n      swap1\n      pop\n        /* \"#utility.yul\":4532:4701   */\n      swap3\n      swap2\n      pop\n      pop\n      jump\t// out\n        /* \"#utility.yul\":4707:4879   */\n    tag_149:\n        /* \"#utility.yul\":4847:4871   */\n      0x4e6f207265717565737420746f20776974686472617700000000000000000000\n        /* \"#utility.yul\":4843:4844   */\n      0x00\n        /* \"#utility.yul\":4835:4841   */\n      dup3\n        /* \"#utility.yul\":4831:4845   */\n      add\n        /* \"#utility.yul\":4824:4872   */\n      mstore\n        /* \"#utility.yul\":4707:4879   */\n      pop\n      jump\t// out\n        /* \"#utility.yul\":4885:5251   */\n    tag_150:\n        /* \"#utility.yul\":5027:5030   */\n      0x00\n        /* \"#utility.yul\":5048:5115   */\n      tag_227\n        /* \"#utility.yul\":5112:5114   */\n      0x16\n        /* \"#utility.yul\":5107:5110   */\n      dup4\n        /* \"#utility.yul\":5048:5115   */\n      tag_148\n      jump\t// in\n    tag_227:\n        /* \"#utility.yul\":5041:5115   */\n      swap2\n      pop\n        /* \"#utility.yul\":5124:5217   */\n      tag_228\n        /* \"#utility.yul\":5213:5216   */\n      dup3\n        /* \"#utility.yul\":5124:5217   */\n      tag_149\n      jump\t// in\n    tag_228:\n        /* \"#utility.yul\":5242:5244   */\n      0x20\n        /* \"#utility.yul\":5237:5240   */\n      dup3\n        /* \"#utility.yul\":5233:5245   */\n      add\n        /* \"#utility.yul\":5226:5245   */\n      swap1\n      pop\n        /* \"#utility.yul\":4885:5251   */\n      swap2\n      swap1\n      pop\n      jump\t// out\n        /* \"#utility.yul\":5257:5676   */\n    tag_53:\n        /* \"#utility.yul\":5423:5427   */\n      0x00\n        /* \"#utility.yul\":5461:5463   */\n      0x20\n        /* \"#utility.yul\":5450:5459   */\n      dup3\n        /* \"#utility.yul\":5446:5464   */\n      add\n        /* \"#utility.yul\":5438:5464   */\n      swap1\n      pop\n        /* \"#utility.yul\":5510:5519   */\n      dup2\n        /* \"#utility.yul\":5504:5508   */\n      dup2\n        /* \"#utility.yul\":5500:5520   */\n      sub\n        /* \"#utility.yul\":5496:5497   */\n      0x00\n        /* \"#utility.yul\":5485:5494   */\n      dup4\n        /* \"#utility.yul\":5481:5498   */\n      add\n        /* \"#utility.yul\":5474:5521   */\n      mstore\n        /* \"#utility.yul\":5538:5669   */\n      tag_230\n        /* \"#utility.yul\":5664:5668   */\n      dup2\n        /* \"#utility.yul\":5538:5669   */\n      tag_150\n      jump\t// in\n    tag_230:\n        /* \"#utility.yul\":5530:5669   */\n      swap1\n      pop\n        /* \"#utility.yul\":5257:5676   */\n      swap2\n      swap1\n      pop\n      jump\t// out\n        /* \"#utility.yul\":5682:5862   */\n    tag_56:\n        /* \"#utility.yul\":5730:5807   */\n      0x4e487b7100000000000000000000000000000000000000000000000000000000\n        /* \"#utility.yul\":5727:5728   */\n      0x00\n        /* \"#utility.yul\":5720:5808   */\n      mstore\n        /* \"#utility.yul\":5827:5831   */\n      0x01\n        /* \"#utility.yul\":5824:5825   */\n      0x04\n        /* \"#utility.yul\":5817:5832   */\n      mstore\n        /* \"#utility.yul\":5851:5855   */\n      0x24\n        /* \"#utility.yul\":5848:5849   */\n      0x00\n        /* \"#utility.yul\":5841:5856   */\n      revert\n        /* \"#utility.yul\":5868:6093   */\n    tag_151:\n        /* \"#utility.yul\":6008:6042   */\n      0x4661696c656420746f2077697468647261772066756e647320746f206d73672e\n        /* \"#utility.yul\":6004:6005   */\n      0x00\n        /* \"#utility.yul\":5996:6002   */\n      dup3\n        /* \"#utility.yul\":5992:6006   */\n      add\n        /* \"#utility.yul\":5985:6043   */\n      mstore\n        /* \"#utility.yul\":6077:6085   */\n      0x73656e6465720000000000000000000000000000000000000000000000000000\n        /* \"#utility.yul\":6072:6074   */\n      0x20\n        /* \"#utility.yul\":6064:6070   */\n      dup3\n        /* \"#utility.yul\":6060:6075   */\n      add\n        /* \"#utility.yul\":6053:6086   */\n      mstore\n        /* \"#utility.yul\":5868:6093   */\n      pop\n      jump\t// out\n        /* \"#utility.yul\":6099:6465   */\n    tag_152:\n        /* \"#utility.yul\":6241:6244   */\n      0x00\n        /* \"#utility.yul\":6262:6329   */\n      tag_234\n        /* \"#utility.yul\":6326:6328   */\n      0x26\n        /* \"#utility.yul\":6321:6324   */\n      dup4\n        /* \"#utility.yul\":6262:6329   */\n      tag_148\n      jump\t// in\n    tag_234:\n        /* \"#utility.yul\":6255:6329   */\n      swap2\n      pop\n        /* \"#utility.yul\":6338:6431   */\n      tag_235\n        /* \"#utility.yul\":6427:6430   */\n      dup3\n        /* \"#utility.yul\":6338:6431   */\n      tag_151\n      jump\t// in\n    tag_235:\n        /* \"#utility.yul\":6456:6458   */\n      0x40\n        /* \"#utility.yul\":6451:6454   */\n      dup3\n        /* \"#utility.yul\":6447:6459   */\n      add\n        /* \"#utility.yul\":6440:6459   */\n      swap1\n      pop\n        /* \"#utility.yul\":6099:6465   */\n      swap2\n      swap1\n      pop\n      jump\t// out\n        /* \"#utility.yul\":6471:6890   */\n    tag_60:\n        /* \"#utility.yul\":6637:6641   */\n      0x00\n        /* \"#utility.yul\":6675:6677   */\n      0x20\n        /* \"#utility.yul\":6664:6673   */\n      dup3\n        /* \"#utility.yul\":6660:6678   */\n      add\n        /* \"#utility.yul\":6652:6678   */\n      swap1\n      pop\n        /* \"#utility.yul\":6724:6733   */\n      dup2\n        /* \"#utility.yul\":6718:6722   */\n      dup2\n        /* \"#utility.yul\":6714:6734   */\n      sub\n        /* \"#utility.yul\":6710:6711   */\n      0x00\n        /* \"#utility.yul\":6699:6708   */\n      dup4\n        /* \"#utility.yul\":6695:6712   */\n      add\n        /* \"#utility.yul\":6688:6735   */\n      mstore\n        /* \"#utility.yul\":6752:6883   */\n      tag_237\n        /* \"#utility.yul\":6878:6882   */\n      dup2\n        /* \"#utility.yul\":6752:6883   */\n      tag_152\n      jump\t// in\n    tag_237:\n        /* \"#utility.yul\":6744:6883   */\n      swap1\n      pop\n        /* \"#utility.yul\":6471:6890   */\n      swap2\n      swap1\n      pop\n      jump\t// out\n        /* \"#utility.yul\":6896:7073   */\n    tag_153:\n        /* \"#utility.yul\":7036:7065   */\n      0x53656e646572206d6179206e6f74206265203020616464726573730000000000\n        /* \"#utility.yul\":7032:7033   */\n      0x00\n        /* \"#utility.yul\":7024:7030   */\n      dup3\n        /* \"#utility.yul\":7020:7034   */\n      add\n        /* \"#utility.yul\":7013:7066   */\n      mstore\n        /* \"#utility.yul\":6896:7073   */\n      pop\n      jump\t// out\n        /* \"#utility.yul\":7079:7445   */\n    tag_154:\n        /* \"#utility.yul\":7221:7224   */\n      0x00\n        /* \"#utility.yul\":7242:7309   */\n      tag_240\n        /* \"#utility.yul\":7306:7308   */\n      0x1b\n        /* \"#utility.yul\":7301:7304   */\n      dup4\n        /* \"#utility.yul\":7242:7309   */\n      tag_148\n      jump\t// in\n    tag_240:\n        /* \"#utility.yul\":7235:7309   */\n      swap2\n      pop\n        /* \"#utility.yul\":7318:7411   */\n      tag_241\n        /* \"#utility.yul\":7407:7410   */\n      dup3\n        /* \"#utility.yul\":7318:7411   */\n      tag_153\n      jump\t// in\n    tag_241:\n        /* \"#utility.yul\":7436:7438   */\n      0x20\n        /* \"#utility.yul\":7431:7434   */\n      dup3\n        /* \"#utility.yul\":7427:7439   */\n      add\n        /* \"#utility.yul\":7420:7439   */\n      swap1\n      pop\n        /* \"#utility.yul\":7079:7445   */\n      swap2\n      swap1\n      pop\n      jump\t// out\n        /* \"#utility.yul\":7451:7870   */\n    tag_66:\n        /* \"#utility.yul\":7617:7621   */\n      0x00\n        /* \"#utility.yul\":7655:7657   */\n      0x20\n        /* \"#utility.yul\":7644:7653   */\n      dup3\n        /* \"#utility.yul\":7640:7658   */\n      add\n        /* \"#utility.yul\":7632:7658   */\n      swap1\n      pop\n        /* \"#utility.yul\":7704:7713   */\n      dup2\n        /* \"#utility.yul\":7698:7702   */\n      dup2\n        /* \"#utility.yul\":7694:7714   */\n      sub\n        /* \"#utility.yul\":7690:7691   */\n      0x00\n        /* \"#utility.yul\":7679:7688   */\n      dup4\n        /* \"#utility.yul\":7675:7692   */\n      add\n        /* \"#utility.yul\":7668:7715   */\n      mstore\n        /* \"#utility.yul\":7732:7863   */\n      tag_243\n        /* \"#utility.yul\":7858:7862   */\n      dup2\n        /* \"#utility.yul\":7732:7863   */\n      tag_154\n      jump\t// in\n    tag_243:\n        /* \"#utility.yul\":7724:7863   */\n      swap1\n      pop\n        /* \"#utility.yul\":7451:7870   */\n      swap2\n      swap1\n      pop\n      jump\t// out\n        /* \"#utility.yul\":7876:8103   */\n    tag_155:\n        /* \"#utility.yul\":8016:8050   */\n      0x44657374696e6174696f6e2061646472657373206d6179206e6f742062652030\n        /* \"#utility.yul\":8012:8013   */\n      0x00\n        /* \"#utility.yul\":8004:8010   */\n      dup3\n        /* \"#utility.yul\":8000:8014   */\n      add\n        /* \"#utility.yul\":7993:8051   */\n      mstore\n        /* \"#utility.yul\":8085:8095   */\n      0x2061646472657373000000000000000000000000000000000000000000000000\n        /* \"#utility.yul\":8080:8082   */\n      0x20\n        /* \"#utility.yul\":8072:8078   */\n      dup3\n        /* \"#utility.yul\":8068:8083   */\n      add\n        /* \"#utility.yul\":8061:8096   */\n      mstore\n        /* \"#utility.yul\":7876:8103   */\n      pop\n      jump\t// out\n        /* \"#utility.yul\":8109:8475   */\n    tag_156:\n        /* \"#utility.yul\":8251:8254   */\n      0x00\n        /* \"#utility.yul\":8272:8339   */\n      tag_246\n        /* \"#utility.yul\":8336:8338   */\n      0x28\n        /* \"#utility.yul\":8331:8334   */\n      dup4\n        /* \"#utility.yul\":8272:8339   */\n      tag_148\n      jump\t// in\n    tag_246:\n        /* \"#utility.yul\":8265:8339   */\n      swap2\n      pop\n        /* \"#utility.yul\":8348:8441   */\n      tag_247\n        /* \"#utility.yul\":8437:8440   */\n      dup3\n        /* \"#utility.yul\":8348:8441   */\n      tag_155\n      jump\t// in\n    tag_247:\n        /* \"#utility.yul\":8466:8468   */\n      0x40\n        /* \"#utility.yul\":8461:8464   */\n      dup3\n        /* \"#utility.yul\":8457:8469   */\n      add\n        /* \"#utility.yul\":8450:8469   */\n      swap1\n      pop\n        /* \"#utility.yul\":8109:8475   */\n      swap2\n      swap1\n      pop\n      jump\t// out\n        /* \"#utility.yul\":8481:8900   */\n    tag_69:\n        /* \"#utility.yul\":8647:8651   */\n      0x00\n        /* \"#utility.yul\":8685:8687   */\n      0x20\n        /* \"#utility.yul\":8674:8683   */\n      dup3\n        /* \"#utility.yul\":8670:8688   */\n      add\n        /* \"#utility.yul\":8662:8688   */\n      swap1\n      pop\n        /* \"#utility.yul\":8734:8743   */\n      dup2\n        /* \"#utility.yul\":8728:8732   */\n      dup2\n        /* \"#utility.yul\":8724:8744   */\n      sub\n        /* \"#utility.yul\":8720:8721   */\n      0x00\n        /* \"#utility.yul\":8709:8718   */\n      dup4\n        /* \"#utility.yul\":8705:8722   */\n      add\n        /* \"#utility.yul\":8698:8745   */\n      mstore\n        /* \"#utility.yul\":8762:8893   */\n      tag_249\n        /* \"#utility.yul\":8888:8892   */\n      dup2\n        /* \"#utility.yul\":8762:8893   */\n      tag_156\n      jump\t// in\n    tag_249:\n        /* \"#utility.yul\":8754:8893   */\n      swap1\n      pop\n        /* \"#utility.yul\":8481:8900   */\n      swap2\n      swap1\n      pop\n      jump\t// out\n        /* \"#utility.yul\":8906:9138   */\n    tag_157:\n        /* \"#utility.yul\":9046:9080   */\n      0x57616e746564204c3120676173207072696365206d7573742062652073747269\n        /* \"#utility.yul\":9042:9043   */\n      0x00\n        /* \"#utility.yul\":9034:9040   */\n      dup3\n        /* \"#utility.yul\":9030:9044   */\n      add\n        /* \"#utility.yul\":9023:9081   */\n      mstore\n        /* \"#utility.yul\":9115:9130   */\n      0x63746c7920706f73697469766500000000000000000000000000000000000000\n        /* \"#utility.yul\":9110:9112   */\n      0x20\n        /* \"#utility.yul\":9102:9108   */\n      dup3\n        /* \"#utility.yul\":9098:9113   */\n      add\n        /* \"#utility.yul\":9091:9131   */\n      mstore\n        /* \"#utility.yul\":8906:9138   */\n      pop\n      jump\t// out\n        /* \"#utility.yul\":9144:9510   */\n    tag_158:\n        /* \"#utility.yul\":9286:9289   */\n      0x00\n        /* \"#utility.yul\":9307:9374   */\n      tag_252\n        /* \"#utility.yul\":9371:9373   */\n      0x2d\n        /* \"#utility.yul\":9366:9369   */\n      dup4\n        /* \"#utility.yul\":9307:9374   */\n      tag_148\n      jump\t// in\n    tag_252:\n        /* \"#utility.yul\":9300:9374   */\n      swap2\n      pop\n        /* \"#utility.yul\":9383:9476   */\n      tag_253\n        /* \"#utility.yul\":9472:9475   */\n      dup3\n        /* \"#utility.yul\":9383:9476   */\n      tag_157\n      jump\t// in\n    tag_253:\n        /* \"#utility.yul\":9501:9503   */\n      0x40\n        /* \"#utility.yul\":9496:9499   */\n      dup3\n        /* \"#utility.yul\":9492:9504   */\n      add\n        /* \"#utility.yul\":9485:9504   */\n      swap1\n      pop\n        /* \"#utility.yul\":9144:9510   */\n      swap2\n      swap1\n      pop\n      jump\t// out\n        /* \"#utility.yul\":9516:9935   */\n    tag_72:\n        /* \"#utility.yul\":9682:9686   */\n      0x00\n        /* \"#utility.yul\":9720:9722   */\n      0x20\n        /* \"#utility.yul\":9709:9718   */\n      dup3\n        /* \"#utility.yul\":9705:9723   */\n      add\n        /* \"#utility.yul\":9697:9723   */\n      swap1\n      pop\n        /* \"#utility.yul\":9769:9778   */\n      dup2\n        /* \"#utility.yul\":9763:9767   */\n      dup2\n        /* \"#utility.yul\":9759:9779   */\n      sub\n        /* \"#utility.yul\":9755:9756   */\n      0x00\n        /* \"#utility.yul\":9744:9753   */\n      dup4\n        /* \"#utility.yul\":9740:9757   */\n      add\n        /* \"#utility.yul\":9733:9780   */\n      mstore\n        /* \"#utility.yul\":9797:9928   */\n      tag_255\n        /* \"#utility.yul\":9923:9927   */\n      dup2\n        /* \"#utility.yul\":9797:9928   */\n      tag_158\n      jump\t// in\n    tag_255:\n        /* \"#utility.yul\":9789:9928   */\n      swap1\n      pop\n        /* \"#utility.yul\":9516:9935   */\n      swap2\n      swap1\n      pop\n      jump\t// out\n        /* \"#utility.yul\":9941:10173   */\n    tag_159:\n        /* \"#utility.yul\":10081:10115   */\n      0x4e6f7420656e6f7567682066756e647320746f2070617920666f722064656c61\n        /* \"#utility.yul\":10077:10078   */\n      0x00\n        /* \"#utility.yul\":10069:10075   */\n      dup3\n        /* \"#utility.yul\":10065:10079   */\n      add\n        /* \"#utility.yul\":10058:10116   */\n      mstore\n        /* \"#utility.yul\":10150:10165   */\n      0x79656420657865637574696f6e00000000000000000000000000000000000000\n        /* \"#utility.yul\":10145:10147   */\n      0x20\n        /* \"#utility.yul\":10137:10143   */\n      dup3\n        /* \"#utility.yul\":10133:10148   */\n      add\n        /* \"#utility.yul\":10126:10166   */\n      mstore\n        /* \"#utility.yul\":9941:10173   */\n      pop\n      jump\t// out\n        /* \"#utility.yul\":10179:10545   */\n    tag_160:\n        /* \"#utility.yul\":10321:10324   */\n      0x00\n        /* \"#utility.yul\":10342:10409   */\n      tag_258\n        /* \"#utility.yul\":10406:10408   */\n      0x2d\n        /* \"#utility.yul\":10401:10404   */\n      dup4\n        /* \"#utility.yul\":10342:10409   */\n      tag_148\n      jump\t// in\n    tag_258:\n        /* \"#utility.yul\":10335:10409   */\n      swap2\n      pop\n        /* \"#utility.yul\":10418:10511   */\n      tag_259\n        /* \"#utility.yul\":10507:10510   */\n      dup3\n        /* \"#utility.yul\":10418:10511   */\n      tag_159\n      jump\t// in\n    tag_259:\n        /* \"#utility.yul\":10536:10538   */\n      0x40\n        /* \"#utility.yul\":10531:10534   */\n      dup3\n        /* \"#utility.yul\":10527:10539   */\n      add\n        /* \"#utility.yul\":10520:10539   */\n      swap1\n      pop\n        /* \"#utility.yul\":10179:10545   */\n      swap2\n      swap1\n      pop\n      jump\t// out\n        /* \"#utility.yul\":10551:10970   */\n    tag_75:\n        /* \"#utility.yul\":10717:10721   */\n      0x00\n        /* \"#utility.yul\":10755:10757   */\n      0x20\n        /* \"#utility.yul\":10744:10753   */\n      dup3\n        /* \"#utility.yul\":10740:10758   */\n      add\n        /* \"#utility.yul\":10732:10758   */\n      swap1\n      pop\n        /* \"#utility.yul\":10804:10813   */\n      dup2\n        /* \"#utility.yul\":10798:10802   */\n      dup2\n        /* \"#utility.yul\":10794:10814   */\n      sub\n        /* \"#utility.yul\":10790:10791   */\n      0x00\n        /* \"#utility.yul\":10779:10788   */\n      dup4\n        /* \"#utility.yul\":10775:10792   */\n      add\n        /* \"#utility.yul\":10768:10815   */\n      mstore\n        /* \"#utility.yul\":10832:10963   */\n      tag_261\n        /* \"#utility.yul\":10958:10962   */\n      dup2\n        /* \"#utility.yul\":10832:10963   */\n      tag_160\n      jump\t// in\n    tag_261:\n        /* \"#utility.yul\":10824:10963   */\n      swap1\n      pop\n        /* \"#utility.yul\":10551:10970   */\n      swap2\n      swap1\n      pop\n      jump\t// out\n        /* \"#utility.yul\":10976:11156   */\n    tag_161:\n        /* \"#utility.yul\":11024:11101   */\n      0x4e487b7100000000000000000000000000000000000000000000000000000000\n        /* \"#utility.yul\":11021:11022   */\n      0x00\n        /* \"#utility.yul\":11014:11102   */\n      mstore\n        /* \"#utility.yul\":11121:11125   */\n      0x11\n        /* \"#utility.yul\":11118:11119   */\n      0x04\n        /* \"#utility.yul\":11111:11126   */\n      mstore\n        /* \"#utility.yul\":11145:11149   */\n      0x24\n        /* \"#utility.yul\":11142:11143   */\n      0x00\n        /* \"#utility.yul\":11135:11150   */\n      revert\n        /* \"#utility.yul\":11162:11356   */\n    tag_77:\n        /* \"#utility.yul\":11202:11206   */\n      0x00\n        /* \"#utility.yul\":11222:11242   */\n      tag_264\n        /* \"#utility.yul\":11240:11241   */\n      dup3\n        /* \"#utility.yul\":11222:11242   */\n      tag_139\n      jump\t// in\n    tag_264:\n        /* \"#utility.yul\":11217:11242   */\n      swap2\n      pop\n        /* \"#utility.yul\":11256:11276   */\n      tag_265\n        /* \"#utility.yul\":11274:11275   */\n      dup4\n        /* \"#utility.yul\":11256:11276   */\n      tag_139\n      jump\t// in\n    tag_265:\n        /* \"#utility.yul\":11251:11276   */\n      swap3\n      pop\n        /* \"#utility.yul\":11300:11301   */\n      dup3\n        /* \"#utility.yul\":11297:11298   */\n      dup3\n        /* \"#utility.yul\":11293:11302   */\n      sub\n        /* \"#utility.yul\":11285:11302   */\n      swap1\n      pop\n        /* \"#utility.yul\":11324:11325   */\n      dup2\n        /* \"#utility.yul\":11318:11322   */\n      dup2\n        /* \"#utility.yul\":11315:11326   */\n      gt\n        /* \"#utility.yul\":11312:11349   */\n      iszero\n      tag_266\n      jumpi\n        /* \"#utility.yul\":11329:11347   */\n      tag_267\n      tag_161\n      jump\t// in\n    tag_267:\n        /* \"#utility.yul\":11312:11349   */\n    tag_266:\n        /* \"#utility.yul\":11162:11356   */\n      swap3\n      swap2\n      pop\n      pop\n      jump\t// out\n        /* \"#utility.yul\":11362:11533   */\n    tag_162:\n        /* \"#utility.yul\":11502:11525   */\n      0x4e6f207265717565737420746f2070726f636573730000000000000000000000\n        /* \"#utility.yul\":11498:11499   */\n      0x00\n        /* \"#utility.yul\":11490:11496   */\n      dup3\n        /* \"#utility.yul\":11486:11500   */\n      add\n        /* \"#utility.yul\":11479:11526   */\n      mstore\n        /* \"#utility.yul\":11362:11533   */\n      pop\n      jump\t// out\n        /* \"#utility.yul\":11539:11905   */\n    tag_163:\n        /* \"#utility.yul\":11681:11684   */\n      0x00\n        /* \"#utility.yul\":11702:11769   */\n      tag_270\n        /* \"#utility.yul\":11766:11768   */\n      0x15\n        /* \"#utility.yul\":11761:11764   */\n      dup4\n        /* \"#utility.yul\":11702:11769   */\n      tag_148\n      jump\t// in\n    tag_270:\n        /* \"#utility.yul\":11695:11769   */\n      swap2\n      pop\n        /* \"#utility.yul\":11778:11871   */\n      tag_271\n        /* \"#utility.yul\":11867:11870   */\n      dup3\n        /* \"#utility.yul\":11778:11871   */\n      tag_162\n      jump\t// in\n    tag_271:\n        /* \"#utility.yul\":11896:11898   */\n      0x20\n        /* \"#utility.yul\":11891:11894   */\n      dup3\n        /* \"#utility.yul\":11887:11899   */\n      add\n        /* \"#utility.yul\":11880:11899   */\n      swap1\n      pop\n        /* \"#utility.yul\":11539:11905   */\n      swap2\n      swap1\n      pop\n      jump\t// out\n        /* \"#utility.yul\":11911:12330   */\n    tag_94:\n        /* \"#utility.yul\":12077:12081   */\n      0x00\n        /* \"#utility.yul\":12115:12117   */\n      0x20\n        /* \"#utility.yul\":12104:12113   */\n      dup3\n        /* \"#utility.yul\":12100:12118   */\n      add\n        /* \"#utility.yul\":12092:12118   */\n      swap1\n      pop\n        /* \"#utility.yul\":12164:12173   */\n      dup2\n        /* \"#utility.yul\":12158:12162   */\n      dup2\n        /* \"#utility.yul\":12154:12174   */\n      sub\n        /* \"#utility.yul\":12150:12151   */\n      0x00\n        /* \"#utility.yul\":12139:12148   */\n      dup4\n        /* \"#utility.yul\":12135:12152   */\n      add\n        /* \"#utility.yul\":12128:12175   */\n      mstore\n        /* \"#utility.yul\":12192:12323   */\n      tag_273\n        /* \"#utility.yul\":12318:12322   */\n      dup2\n        /* \"#utility.yul\":12192:12323   */\n      tag_163\n      jump\t// in\n    tag_273:\n        /* \"#utility.yul\":12184:12323   */\n      swap1\n      pop\n        /* \"#utility.yul\":11911:12330   */\n      swap2\n      swap1\n      pop\n      jump\t// out\n        /* \"#utility.yul\":12336:12511   */\n    tag_164:\n        /* \"#utility.yul\":12476:12503   */\n      0x4661696c656420746f20726566756e64206578656375746f7200000000000000\n        /* \"#utility.yul\":12472:12473   */\n      0x00\n        /* \"#utility.yul\":12464:12470   */\n      dup3\n        /* \"#utility.yul\":12460:12474   */\n      add\n        /* \"#utility.yul\":12453:12504   */\n      mstore\n        /* \"#utility.yul\":12336:12511   */\n      pop\n      jump\t// out\n        /* \"#utility.yul\":12517:12883   */\n    tag_165:\n        /* \"#utility.yul\":12659:12662   */\n      0x00\n        /* \"#utility.yul\":12680:12747   */\n      tag_276\n        /* \"#utility.yul\":12744:12746   */\n      0x19\n        /* \"#utility.yul\":12739:12742   */\n      dup4\n        /* \"#utility.yul\":12680:12747   */\n      tag_148\n      jump\t// in\n    tag_276:\n        /* \"#utility.yul\":12673:12747   */\n      swap2\n      pop\n        /* \"#utility.yul\":12756:12849   */\n      tag_277\n        /* \"#utility.yul\":12845:12848   */\n      dup3\n        /* \"#utility.yul\":12756:12849   */\n      tag_164\n      jump\t// in\n    tag_277:\n        /* \"#utility.yul\":12874:12876   */\n      0x20\n        /* \"#utility.yul\":12869:12872   */\n      dup3\n        /* \"#utility.yul\":12865:12877   */\n      add\n        /* \"#utility.yul\":12858:12877   */\n      swap1\n      pop\n        /* \"#utility.yul\":12517:12883   */\n      swap2\n      swap1\n      pop\n      jump\t// out\n        /* \"#utility.yul\":12889:13308   */\n    tag_98:\n        /* \"#utility.yul\":13055:13059   */\n      0x00\n        /* \"#utility.yul\":13093:13095   */\n      0x20\n        /* \"#utility.yul\":13082:13091   */\n      dup3\n        /* \"#utility.yul\":13078:13096   */\n      add\n        /* \"#utility.yul\":13070:13096   */\n      swap1\n      pop\n        /* \"#utility.yul\":13142:13151   */\n      dup2\n        /* \"#utility.yul\":13136:13140   */\n      dup2\n        /* \"#utility.yul\":13132:13152   */\n      sub\n        /* \"#utility.yul\":13128:13129   */\n      0x00\n        /* \"#utility.yul\":13117:13126   */\n      dup4\n        /* \"#utility.yul\":13113:13130   */\n      add\n        /* \"#utility.yul\":13106:13153   */\n      mstore\n        /* \"#utility.yul\":13170:13301   */\n      tag_279\n        /* \"#utility.yul\":13296:13300   */\n      dup2\n        /* \"#utility.yul\":13170:13301   */\n      tag_165\n      jump\t// in\n    tag_279:\n        /* \"#utility.yul\":13162:13301   */\n      swap1\n      pop\n        /* \"#utility.yul\":12889:13308   */\n      swap2\n      swap1\n      pop\n      jump\t// out\n        /* \"#utility.yul\":13314:13546   */\n    tag_166:\n        /* \"#utility.yul\":13454:13488   */\n      0x4661696c656420746f207375626d697420627269646765207265717565737420\n        /* \"#utility.yul\":13450:13451   */\n      0x00\n        /* \"#utility.yul\":13442:13448   */\n      dup3\n        /* \"#utility.yul\":13438:13452   */\n      add\n        /* \"#utility.yul\":13431:13489   */\n      mstore\n        /* \"#utility.yul\":13523:13538   */\n      0x746f20486f702042726964676500000000000000000000000000000000000000\n        /* \"#utility.yul\":13518:13520   */\n      0x20\n        /* \"#utility.yul\":13510:13516   */\n      dup3\n        /* \"#utility.yul\":13506:13521   */\n      add\n        /* \"#utility.yul\":13499:13539   */\n      mstore\n        /* \"#utility.yul\":13314:13546   */\n      pop\n      jump\t// out\n        /* \"#utility.yul\":13552:13918   */\n    tag_167:\n        /* \"#utility.yul\":13694:13697   */\n      0x00\n        /* \"#utility.yul\":13715:13782   */\n      tag_282\n        /* \"#utility.yul\":13779:13781   */\n      0x2d\n        /* \"#utility.yul\":13774:13777   */\n      dup4\n        /* \"#utility.yul\":13715:13782   */\n      tag_148\n      jump\t// in\n    tag_282:\n        /* \"#utility.yul\":13708:13782   */\n      swap2\n      pop\n        /* \"#utility.yul\":13791:13884   */\n      tag_283\n        /* \"#utility.yul\":13880:13883   */\n      dup3\n        /* \"#utility.yul\":13791:13884   */\n      tag_166\n      jump\t// in\n    tag_283:\n        /* \"#utility.yul\":13909:13911   */\n      0x40\n        /* \"#utility.yul\":13904:13907   */\n      dup3\n        /* \"#utility.yul\":13900:13912   */\n      add\n        /* \"#utility.yul\":13893:13912   */\n      swap1\n      pop\n        /* \"#utility.yul\":13552:13918   */\n      swap2\n      swap1\n      pop\n      jump\t// out\n        /* \"#utility.yul\":13924:14343   */\n    tag_102:\n        /* \"#utility.yul\":14090:14094   */\n      0x00\n        /* \"#utility.yul\":14128:14130   */\n      0x20\n        /* \"#utility.yul\":14117:14126   */\n      dup3\n        /* \"#utility.yul\":14113:14131   */\n      add\n        /* \"#utility.yul\":14105:14131   */\n      swap1\n      pop\n        /* \"#utility.yul\":14177:14186   */\n      dup2\n        /* \"#utility.yul\":14171:14175   */\n      dup2\n        /* \"#utility.yul\":14167:14187   */\n      sub\n        /* \"#utility.yul\":14163:14164   */\n      0x00\n        /* \"#utility.yul\":14152:14161   */\n      dup4\n        /* \"#utility.yul\":14148:14165   */\n      add\n        /* \"#utility.yul\":14141:14188   */\n      mstore\n        /* \"#utility.yul\":14205:14336   */\n      tag_285\n        /* \"#utility.yul\":14331:14335   */\n      dup2\n        /* \"#utility.yul\":14205:14336   */\n      tag_167\n      jump\t// in\n    tag_285:\n        /* \"#utility.yul\":14197:14336   */\n      swap1\n      pop\n        /* \"#utility.yul\":13924:14343   */\n      swap2\n      swap1\n      pop\n      jump\t// out\n        /* \"#utility.yul\":14349:14574   */\n    tag_168:\n        /* \"#utility.yul\":14489:14523   */\n      0x4f776e61626c653a206e6577206f776e657220697320746865207a65726f2061\n        /* \"#utility.yul\":14485:14486   */\n      0x00\n        /* \"#utility.yul\":14477:14483   */\n      dup3\n        /* \"#utility.yul\":14473:14487   */\n      add\n        /* \"#utility.yul\":14466:14524   */\n      mstore\n        /* \"#utility.yul\":14558:14566   */\n      0x6464726573730000000000000000000000000000000000000000000000000000\n        /* \"#utility.yul\":14553:14555   */\n      0x20\n        /* \"#utility.yul\":14545:14551   */\n      dup3\n        /* \"#utility.yul\":14541:14556   */\n      add\n        /* \"#utility.yul\":14534:14567   */\n      mstore\n        /* \"#utility.yul\":14349:14574   */\n      pop\n      jump\t// out\n        /* \"#utility.yul\":14580:14946   */\n    tag_169:\n        /* \"#utility.yul\":14722:14725   */\n      0x00\n        /* \"#utility.yul\":14743:14810   */\n      tag_288\n        /* \"#utility.yul\":14807:14809   */\n      0x26\n        /* \"#utility.yul\":14802:14805   */\n      dup4\n        /* \"#utility.yul\":14743:14810   */\n      tag_148\n      jump\t// in\n    tag_288:\n        /* \"#utility.yul\":14736:14810   */\n      swap2\n      pop\n        /* \"#utility.yul\":14819:14912   */\n      tag_289\n        /* \"#utility.yul\":14908:14911   */\n      dup3\n        /* \"#utility.yul\":14819:14912   */\n      tag_168\n      jump\t// in\n    tag_289:\n        /* \"#utility.yul\":14937:14939   */\n      0x40\n        /* \"#utility.yul\":14932:14935   */\n      dup3\n        /* \"#utility.yul\":14928:14940   */\n      add\n        /* \"#utility.yul\":14921:14940   */\n      swap1\n      pop\n        /* \"#utility.yul\":14580:14946   */\n      swap2\n      swap1\n      pop\n      jump\t// out\n        /* \"#utility.yul\":14952:15371   */\n    tag_115:\n        /* \"#utility.yul\":15118:15122   */\n      0x00\n        /* \"#utility.yul\":15156:15158   */\n      0x20\n        /* \"#utility.yul\":15145:15154   */\n      dup3\n        /* \"#utility.yul\":15141:15159   */\n      add\n        /* \"#utility.yul\":15133:15159   */\n      swap1\n      pop\n        /* \"#utility.yul\":15205:15214   */\n      dup2\n        /* \"#utility.yul\":15199:15203   */\n      dup2\n        /* \"#utility.yul\":15195:15215   */\n      sub\n        /* \"#utility.yul\":15191:15192   */\n      0x00\n        /* \"#utility.yul\":15180:15189   */\n      dup4\n        /* \"#utility.yul\":15176:15193   */\n      add\n        /* \"#utility.yul\":15169:15216   */\n      mstore\n        /* \"#utility.yul\":15233:15364   */\n      tag_291\n        /* \"#utility.yul\":15359:15363   */\n      dup2\n        /* \"#utility.yul\":15233:15364   */\n      tag_169\n      jump\t// in\n    tag_291:\n        /* \"#utility.yul\":15225:15364   */\n      swap1\n      pop\n        /* \"#utility.yul\":14952:15371   */\n      swap2\n      swap1\n      pop\n      jump\t// out\n        /* \"#utility.yul\":15377:15558   */\n    tag_170:\n        /* \"#utility.yul\":15517:15550   */\n      0x5265656e7472616e637947756172643a207265656e7472616e742063616c6c00\n        /* \"#utility.yul\":15513:15514   */\n      0x00\n        /* \"#utility.yul\":15505:15511   */\n      dup3\n        /* \"#utility.yul\":15501:15515   */\n      add\n        /* \"#utility.yul\":15494:15551   */\n      mstore\n        /* \"#utility.yul\":15377:15558   */\n      pop\n      jump\t// out\n        /* \"#utility.yul\":15564:15930   */\n    tag_171:\n        /* \"#utility.yul\":15706:15709   */\n      0x00\n        /* \"#utility.yul\":15727:15794   */\n      tag_294\n        /* \"#utility.yul\":15791:15793   */\n      0x1f\n        /* \"#utility.yul\":15786:15789   */\n      dup4\n        /* \"#utility.yul\":15727:15794   */\n      tag_148\n      jump\t// in\n    tag_294:\n        /* \"#utility.yul\":15720:15794   */\n      swap2\n      pop\n        /* \"#utility.yul\":15803:15896   */\n      tag_295\n        /* \"#utility.yul\":15892:15895   */\n      dup3\n        /* \"#utility.yul\":15803:15896   */\n      tag_170\n      jump\t// in\n    tag_295:\n        /* \"#utility.yul\":15921:15923   */\n      0x20\n        /* \"#utility.yul\":15916:15919   */\n      dup3\n        /* \"#utility.yul\":15912:15924   */\n      add\n        /* \"#utility.yul\":15905:15924   */\n      swap1\n      pop\n        /* \"#utility.yul\":15564:15930   */\n      swap2\n      swap1\n      pop\n      jump\t// out\n        /* \"#utility.yul\":15936:16355   */\n    tag_120:\n        /* \"#utility.yul\":16102:16106   */\n      0x00\n        /* \"#utility.yul\":16140:16142   */\n      0x20\n        /* \"#utility.yul\":16129:16138   */\n      dup3\n        /* \"#utility.yul\":16125:16143   */\n      add\n        /* \"#utility.yul\":16117:16143   */\n      swap1\n      pop\n        /* \"#utility.yul\":16189:16198   */\n      dup2\n        /* \"#utility.yul\":16183:16187   */\n      dup2\n        /* \"#utility.yul\":16179:16199   */\n      sub\n        /* \"#utility.yul\":16175:16176   */\n      0x00\n        /* \"#utility.yul\":16164:16173   */\n      dup4\n        /* \"#utility.yul\":16160:16177   */\n      add\n        /* \"#utility.yul\":16153:16200   */\n      mstore\n        /* \"#utility.yul\":16217:16348   */\n      tag_297\n        /* \"#utility.yul\":16343:16347   */\n      dup2\n        /* \"#utility.yul\":16217:16348   */\n      tag_171\n      jump\t// in\n    tag_297:\n        /* \"#utility.yul\":16209:16348   */\n      swap1\n      pop\n        /* \"#utility.yul\":15936:16355   */\n      swap2\n      swap1\n      pop\n      jump\t// out\n        /* \"#utility.yul\":16361:16543   */\n    tag_172:\n        /* \"#utility.yul\":16501:16535   */\n      0x4f776e61626c653a2063616c6c6572206973206e6f7420746865206f776e6572\n        /* \"#utility.yul\":16497:16498   */\n      0x00\n        /* \"#utility.yul\":16489:16495   */\n      dup3\n        /* \"#utility.yul\":16485:16499   */\n      add\n        /* \"#utility.yul\":16478:16536   */\n      mstore\n        /* \"#utility.yul\":16361:16543   */\n      pop\n      jump\t// out\n        /* \"#utility.yul\":16549:16915   */\n    tag_173:\n        /* \"#utility.yul\":16691:16694   */\n      0x00\n        /* \"#utility.yul\":16712:16779   */\n      tag_300\n        /* \"#utility.yul\":16776:16778   */\n      0x20\n        /* \"#utility.yul\":16771:16774   */\n      dup4\n        /* \"#utility.yul\":16712:16779   */\n      tag_148\n      jump\t// in\n    tag_300:\n        /* \"#utility.yul\":16705:16779   */\n      swap2\n      pop\n        /* \"#utility.yul\":16788:16881   */\n      tag_301\n        /* \"#utility.yul\":16877:16880   */\n      dup3\n        /* \"#utility.yul\":16788:16881   */\n      tag_172\n      jump\t// in\n    tag_301:\n        /* \"#utility.yul\":16906:16908   */\n      0x20\n        /* \"#utility.yul\":16901:16904   */\n      dup3\n        /* \"#utility.yul\":16897:16909   */\n      add\n        /* \"#utility.yul\":16890:16909   */\n      swap1\n      pop\n        /* \"#utility.yul\":16549:16915   */\n      swap2\n      swap1\n      pop\n      jump\t// out\n        /* \"#utility.yul\":16921:17340   */\n    tag_129:\n        /* \"#utility.yul\":17087:17091   */\n      0x00\n        /* \"#utility.yul\":17125:17127   */\n      0x20\n        /* \"#utility.yul\":17114:17123   */\n      dup3\n        /* \"#utility.yul\":17110:17128   */\n      add\n        /* \"#utility.yul\":17102:17128   */\n      swap1\n      pop\n        /* \"#utility.yul\":17174:17183   */\n      dup2\n        /* \"#utility.yul\":17168:17172   */\n      dup2\n        /* \"#utility.yul\":17164:17184   */\n      sub\n        /* \"#utility.yul\":17160:17161   */\n      0x00\n        /* \"#utility.yul\":17149:17158   */\n      dup4\n        /* \"#utility.yul\":17145:17162   */\n      add\n        /* \"#utility.yul\":17138:17185   */\n      mstore\n        /* \"#utility.yul\":17202:17333   */\n      tag_303\n        /* \"#utility.yul\":17328:17332   */\n      dup2\n        /* \"#utility.yul\":17202:17333   */\n      tag_173\n      jump\t// in\n    tag_303:\n        /* \"#utility.yul\":17194:17333   */\n      swap1\n      pop\n        /* \"#utility.yul\":16921:17340   */\n      swap2\n      swap1\n      pop\n      jump\t// out\n\n    auxdata: 0xa2646970667358221220592ef1a436168f05b5f6e81e364512d0e46711b1888df93e0d33ef4402245cfb64736f6c63430008120033\n}\n",
				"bytecode": {
					"linkReferences": {},
					"object": "60806040523480156200001157600080fd5b50604051620019c2380380620019c283398181016040528101906200003791906200021f565b620000576200004b620000ae60201b60201c565b620000b660201b60201c565b600180819055508160028190555080600360006101000a81548173ffffffffffffffffffffffffffffffffffffffff021916908373ffffffffffffffffffffffffffffffffffffffff160217905550505062000266565b600033905090565b60008060009054906101000a900473ffffffffffffffffffffffffffffffffffffffff169050816000806101000a81548173ffffffffffffffffffffffffffffffffffffffff021916908373ffffffffffffffffffffffffffffffffffffffff1602179055508173ffffffffffffffffffffffffffffffffffffffff168173ffffffffffffffffffffffffffffffffffffffff167f8be0079c531659141344cd1fd0a4f28419497f9722a3daafe3b4186f6b6457e060405160405180910390a35050565b600080fd5b6000819050919050565b62000194816200017f565b8114620001a057600080fd5b50565b600081519050620001b48162000189565b92915050565b600073ffffffffffffffffffffffffffffffffffffffff82169050919050565b6000620001e782620001ba565b9050919050565b620001f981620001da565b81146200020557600080fd5b50565b6000815190506200021981620001ee565b92915050565b600080604083850312156200023957620002386200017a565b5b60006200024985828601620001a3565b92505060206200025c8582860162000208565b9150509250929050565b61174c80620002766000396000f3fe60806040526004361061007b5760003560e01c80636e98762d1161004e5780636e98762d14610108578063715018a6146101315780638da5cb5b14610148578063f2fde38b146101735761007b565b80633ccfd60b1461008057806347e7ef24146100975780634a0aee29146100b357806354caef7d146100df575b600080fd5b34801561008c57600080fd5b5061009561019c565b005b6100b160048036038101906100ac9190610f04565b610463565b005b3480156100bf57600080fd5b506100c8610711565b6040516100d6929190610fd2565b60405180910390f35b3480156100eb57600080fd5b5061010660048036038101906101019190610ffb565b61083b565b005b34801561011457600080fd5b5061012f600480360381019061012a9190611028565b61084d565b005b34801561013d57600080fd5b50610146610b78565b005b34801561015457600080fd5b5061015d610b8c565b60405161016a9190611064565b60405180910390f35b34801561017f57600080fd5b5061019a60048036038101906101959190611028565b610bb5565b005b6101a4610c38565b6000600460003373ffffffffffffffffffffffffffffffffffffffff1673ffffffffffffffffffffffffffffffffffffffff1681526020019081526020016000206040518060800160405290816000820160009054906101000a900473ffffffffffffffffffffffffffffffffffffffff1673ffffffffffffffffffffffffffffffffffffffff1673ffffffffffffffffffffffffffffffffffffffff1681526020016001820160009054906101000a900473ffffffffffffffffffffffffffffffffffffffff1673ffffffffffffffffffffffffffffffffffffffff1673ffffffffffffffffffffffffffffffffffffffff1681526020016002820154815260200160038201548152505090506102bb81610c87565b6102fa576040517f08c379a00000000000000000000000000000000000000000000000000000000081526004016102f1906110dc565b60405180910390fd5b600460003373ffffffffffffffffffffffffffffffffffffffff1673ffffffffffffffffffffffffffffffffffffffff168152602001908152602001600020600080820160006101000a81549073ffffffffffffffffffffffffffffffffffffffff02191690556001820160006101000a81549073ffffffffffffffffffffffffffffffffffffffff02191690556002820160009055600382016000905550503373ffffffffffffffffffffffffffffffffffffffff16816000015173ffffffffffffffffffffffffffffffffffffffff16146103da576103d96110fc565b5b60003373ffffffffffffffffffffffffffffffffffffffff166108fc83604001519081150290604051600060405180830381858888f19350505050905080610457576040517f08c379a000000000000000000000000000000000000000000000000000000000815260040161044e9061119d565b60405180910390fd5b5050610461610cc4565b565b600073ffffffffffffffffffffffffffffffffffffffff163373ffffffffffffffffffffffffffffffffffffffff16036104d2576040517f08c379a00000000000000000000000000000000000000000000000000000000081526004016104c990611209565b60405180910390fd5b600073ffffffffffffffffffffffffffffffffffffffff168273ffffffffffffffffffffffffffffffffffffffff1603610541576040517f08c379a00000000000000000000000000000000000000000000000000000000081526004016105389061129b565b60405180910390fd5b60008111610584576040517f08c379a000000000000000000000000000000000000000000000000000000000815260040161057b9061132d565b60405180910390fd5b6002543410156105c9576040517f08c379a00000000000000000000000000000000000000000000000000000000081526004016105c0906113bf565b60405180910390fd5b6000600254346105d9919061140e565b905060405180608001604052803373ffffffffffffffffffffffffffffffffffffffff1681526020018473ffffffffffffffffffffffffffffffffffffffff16815260200182815260200183815250600460003373ffffffffffffffffffffffffffffffffffffffff1673ffffffffffffffffffffffffffffffffffffffff16815260200190815260200160002060008201518160000160006101000a81548173ffffffffffffffffffffffffffffffffffffffff021916908373ffffffffffffffffffffffffffffffffffffffff16021790555060208201518160010160006101000a81548173ffffffffffffffffffffffffffffffffffffffff021916908373ffffffffffffffffffffffffffffffffffffffff1602179055506040820151816002015560608201518160030155905050505050565b610719610e17565b600080600460003373ffffffffffffffffffffffffffffffffffffffff1673ffffffffffffffffffffffffffffffffffffffff1681526020019081526020016000206040518060800160405290816000820160009054906101000a900473ffffffffffffffffffffffffffffffffffffffff1673ffffffffffffffffffffffffffffffffffffffff1673ffffffffffffffffffffffffffffffffffffffff1681526020016001820160009054906101000a900473ffffffffffffffffffffffffffffffffffffffff1673ffffffffffffffffffffffffffffffffffffffff1673ffffffffffffffffffffffffffffffffffffffff1681526020016002820154815260200160038201548152505090508061083282610c87565b92509250509091565b610843610ccd565b8060028190555050565b610855610ccd565b61085d610c38565b6000600460008373ffffffffffffffffffffffffffffffffffffffff1673ffffffffffffffffffffffffffffffffffffffff1681526020019081526020016000206040518060800160405290816000820160009054906101000a900473ffffffffffffffffffffffffffffffffffffffff1673ffffffffffffffffffffffffffffffffffffffff1673ffffffffffffffffffffffffffffffffffffffff1681526020016001820160009054906101000a900473ffffffffffffffffffffffffffffffffffffffff1673ffffffffffffffffffffffffffffffffffffffff1673ffffffffffffffffffffffffffffffffffffffff16815260200160028201548152602001600382015481525050905061097481610c87565b6109b3576040517f08c379a00000000000000000000000000000000000000000000000000000000081526004016109aa9061148e565b60405180910390fd5b600460008373ffffffffffffffffffffffffffffffffffffffff1673ffffffffffffffffffffffffffffffffffffffff168152602001908152602001600020600080820160006101000a81549073ffffffffffffffffffffffffffffffffffffffff02191690556001820160006101000a81549073ffffffffffffffffffffffffffffffffffffffff021916905560028201600090556003820160009055505060003373ffffffffffffffffffffffffffffffffffffffff166108fc6002549081150290604051600060405180830381858888f19350505050905080610ace576040517f08c379a0000000000000000000000000000000000000000000000000000000008152600401610ac5906114fa565b60405180910390fd5b600360009054906101000a900473ffffffffffffffffffffffffffffffffffffffff1673ffffffffffffffffffffffffffffffffffffffff166108fc83604001519081150290604051600060405180830381858888f19350505050905080610b6b576040517f08c379a0000000000000000000000000000000000000000000000000000000008152600401610b629061158c565b60405180910390fd5b5050610b75610cc4565b50565b610b80610ccd565b610b8a6000610d4b565b565b60008060009054906101000a900473ffffffffffffffffffffffffffffffffffffffff16905090565b610bbd610ccd565b600073ffffffffffffffffffffffffffffffffffffffff168173ffffffffffffffffffffffffffffffffffffffff1603610c2c576040517f08c379a0000000000000000000000000000000000000000000000000000000008152600401610c239061161e565b60405180910390fd5b610c3581610d4b565b50565b600260015403610c7d576040517f08c379a0000000000000000000000000000000000000000000000000000000008152600401610c749061168a565b60405180910390fd5b6002600181905550565b60008073ffffffffffffffffffffffffffffffffffffffff16826000015173ffffffffffffffffffffffffffffffffffffffff1614159050919050565b60018081905550565b610cd5610e0f565b73ffffffffffffffffffffffffffffffffffffffff16610cf3610b8c565b73ffffffffffffffffffffffffffffffffffffffff1614610d49576040517f08c379a0000000000000000000000000000000000000000000000000000000008152600401610d40906116f6565b60405180910390fd5b565b60008060009054906101000a900473ffffffffffffffffffffffffffffffffffffffff169050816000806101000a81548173ffffffffffffffffffffffffffffffffffffffff021916908373ffffffffffffffffffffffffffffffffffffffff1602179055508173ffffffffffffffffffffffffffffffffffffffff168173ffffffffffffffffffffffffffffffffffffffff167f8be0079c531659141344cd1fd0a4f28419497f9722a3daafe3b4186f6b6457e060405160405180910390a35050565b600033905090565b6040518060800160405280600073ffffffffffffffffffffffffffffffffffffffff168152602001600073ffffffffffffffffffffffffffffffffffffffff16815260200160008152602001600081525090565b600080fd5b600073ffffffffffffffffffffffffffffffffffffffff82169050919050565b6000610e9b82610e70565b9050919050565b610eab81610e90565b8114610eb657600080fd5b50565b600081359050610ec881610ea2565b92915050565b6000819050919050565b610ee181610ece565b8114610eec57600080fd5b50565b600081359050610efe81610ed8565b92915050565b60008060408385031215610f1b57610f1a610e6b565b5b6000610f2985828601610eb9565b9250506020610f3a85828601610eef565b9150509250929050565b610f4d81610e90565b82525050565b610f5c81610ece565b82525050565b608082016000820151610f786000850182610f44565b506020820151610f8b6020850182610f44565b506040820151610f9e6040850182610f53565b506060820151610fb16060850182610f53565b50505050565b60008115159050919050565b610fcc81610fb7565b82525050565b600060a082019050610fe76000830185610f62565b610ff46080830184610fc3565b9392505050565b60006020828403121561101157611010610e6b565b5b600061101f84828501610eef565b91505092915050565b60006020828403121561103e5761103d610e6b565b5b600061104c84828501610eb9565b91505092915050565b61105e81610e90565b82525050565b60006020820190506110796000830184611055565b92915050565b600082825260208201905092915050565b7f4e6f207265717565737420746f20776974686472617700000000000000000000600082015250565b60006110c660168361107f565b91506110d182611090565b602082019050919050565b600060208201905081810360008301526110f5816110b9565b9050919050565b7f4e487b7100000000000000000000000000000000000000000000000000000000600052600160045260246000fd5b7f4661696c656420746f2077697468647261772066756e647320746f206d73672e60008201527f73656e6465720000000000000000000000000000000000000000000000000000602082015250565b600061118760268361107f565b91506111928261112b565b604082019050919050565b600060208201905081810360008301526111b68161117a565b9050919050565b7f53656e646572206d6179206e6f74206265203020616464726573730000000000600082015250565b60006111f3601b8361107f565b91506111fe826111bd565b602082019050919050565b60006020820190508181036000830152611222816111e6565b9050919050565b7f44657374696e6174696f6e2061646472657373206d6179206e6f74206265203060008201527f2061646472657373000000000000000000000000000000000000000000000000602082015250565b600061128560288361107f565b915061129082611229565b604082019050919050565b600060208201905081810360008301526112b481611278565b9050919050565b7f57616e746564204c3120676173207072696365206d757374206265207374726960008201527f63746c7920706f73697469766500000000000000000000000000000000000000602082015250565b6000611317602d8361107f565b9150611322826112bb565b604082019050919050565b600060208201905081810360008301526113468161130a565b9050919050565b7f4e6f7420656e6f7567682066756e647320746f2070617920666f722064656c6160008201527f79656420657865637574696f6e00000000000000000000000000000000000000602082015250565b60006113a9602d8361107f565b91506113b48261134d565b604082019050919050565b600060208201905081810360008301526113d88161139c565b9050919050565b7f4e487b7100000000000000000000000000000000000000000000000000000000600052601160045260246000fd5b600061141982610ece565b915061142483610ece565b925082820390508181111561143c5761143b6113df565b5b92915050565b7f4e6f207265717565737420746f2070726f636573730000000000000000000000600082015250565b600061147860158361107f565b915061148382611442565b602082019050919050565b600060208201905081810360008301526114a78161146b565b9050919050565b7f4661696c656420746f20726566756e64206578656375746f7200000000000000600082015250565b60006114e460198361107f565b91506114ef826114ae565b602082019050919050565b60006020820190508181036000830152611513816114d7565b9050919050565b7f4661696c656420746f207375626d69742062726964676520726571756573742060008201527f746f20486f702042726964676500000000000000000000000000000000000000602082015250565b6000611576602d8361107f565b91506115818261151a565b604082019050919050565b600060208201905081810360008301526115a581611569565b9050919050565b7f4f776e61626c653a206e6577206f776e657220697320746865207a65726f206160008201527f6464726573730000000000000000000000000000000000000000000000000000602082015250565b600061160860268361107f565b9150611613826115ac565b604082019050919050565b60006020820190508181036000830152611637816115fb565b9050919050565b7f5265656e7472616e637947756172643a207265656e7472616e742063616c6c00600082015250565b6000611674601f8361107f565b915061167f8261163e565b602082019050919050565b600060208201905081810360008301526116a381611667565b9050919050565b7f4f776e61626c653a2063616c6c6572206973206e6f7420746865206f776e6572600082015250565b60006116e060208361107f565b91506116eb826116aa565b602082019050919050565b6000602082019050818103600083015261170f816116d3565b905091905056fea2646970667358221220592ef1a436168f05b5f6e81e364512d0e46711b1888df93e0d33ef4402245cfb64736f6c63430008120033",
					"opcodes": "PUSH1 0x80 PUSH1 0x40 MSTORE CALLVALUE DUP1 ISZERO PUSH3 0x11 JUMPI PUSH1 0x0 DUP1 REVERT JUMPDEST POP PUSH1 0x40 MLOAD PUSH3 0x19C2 CODESIZE SUB DUP1 PUSH3 0x19C2 DUP4 CODECOPY DUP2 DUP2 ADD PUSH1 0x40 MSTORE DUP2 ADD SWAP1 PUSH3 0x37 SWAP2 SWAP1 PUSH3 0x21F JUMP JUMPDEST PUSH3 0x57 PUSH3 0x4B PUSH3 0xAE PUSH1 0x20 SHL PUSH1 0x20 SHR JUMP JUMPDEST PUSH3 0xB6 PUSH1 0x20 SHL PUSH1 0x20 SHR JUMP JUMPDEST PUSH1 0x1 DUP1 DUP2 SWAP1 SSTORE POP DUP2 PUSH1 0x2 DUP2 SWAP1 SSTORE POP DUP1 PUSH1 0x3 PUSH1 0x0 PUSH2 0x100 EXP DUP2 SLOAD DUP2 PUSH20 0xFFFFFFFFFFFFFFFFFFFFFFFFFFFFFFFFFFFFFFFF MUL NOT AND SWAP1 DUP4 PUSH20 0xFFFFFFFFFFFFFFFFFFFFFFFFFFFFFFFFFFFFFFFF AND MUL OR SWAP1 SSTORE POP POP POP PUSH3 0x266 JUMP JUMPDEST PUSH1 0x0 CALLER SWAP1 POP SWAP1 JUMP JUMPDEST PUSH1 0x0 DUP1 PUSH1 0x0 SWAP1 SLOAD SWAP1 PUSH2 0x100 EXP SWAP1 DIV PUSH20 0xFFFFFFFFFFFFFFFFFFFFFFFFFFFFFFFFFFFFFFFF AND SWAP1 POP DUP2 PUSH1 0x0 DUP1 PUSH2 0x100 EXP DUP2 SLOAD DUP2 PUSH20 0xFFFFFFFFFFFFFFFFFFFFFFFFFFFFFFFFFFFFFFFF MUL NOT AND SWAP1 DUP4 PUSH20 0xFFFFFFFFFFFFFFFFFFFFFFFFFFFFFFFFFFFFFFFF AND MUL OR SWAP1 SSTORE POP DUP2 PUSH20 0xFFFFFFFFFFFFFFFFFFFFFFFFFFFFFFFFFFFFFFFF AND DUP2 PUSH20 0xFFFFFFFFFFFFFFFFFFFFFFFFFFFFFFFFFFFFFFFF AND PUSH32 0x8BE0079C531659141344CD1FD0A4F28419497F9722A3DAAFE3B4186F6B6457E0 PUSH1 0x40 MLOAD PUSH1 0x40 MLOAD DUP1 SWAP2 SUB SWAP1 LOG3 POP POP JUMP JUMPDEST PUSH1 0x0 DUP1 REVERT JUMPDEST PUSH1 0x0 DUP2 SWAP1 POP SWAP2 SWAP1 POP JUMP JUMPDEST PUSH3 0x194 DUP2 PUSH3 0x17F JUMP JUMPDEST DUP2 EQ PUSH3 0x1A0 JUMPI PUSH1 0x0 DUP1 REVERT JUMPDEST POP JUMP JUMPDEST PUSH1 0x0 DUP2 MLOAD SWAP1 POP PUSH3 0x1B4 DUP2 PUSH3 0x189 JUMP JUMPDEST SWAP3 SWAP2 POP POP JUMP JUMPDEST PUSH1 0x0 PUSH20 0xFFFFFFFFFFFFFFFFFFFFFFFFFFFFFFFFFFFFFFFF DUP3 AND SWAP1 POP SWAP2 SWAP1 POP JUMP JUMPDEST PUSH1 0x0 PUSH3 0x1E7 DUP3 PUSH3 0x1BA JUMP JUMPDEST SWAP1 POP SWAP2 SWAP1 POP JUMP JUMPDEST PUSH3 0x1F9 DUP2 PUSH3 0x1DA JUMP JUMPDEST DUP2 EQ PUSH3 0x205 JUMPI PUSH1 0x0 DUP1 REVERT JUMPDEST POP JUMP JUMPDEST PUSH1 0x0 DUP2 MLOAD SWAP1 POP PUSH3 0x219 DUP2 PUSH3 0x1EE JUMP JUMPDEST SWAP3 SWAP2 POP POP JUMP JUMPDEST PUSH1 0x0 DUP1 PUSH1 0x40 DUP4 DUP6 SUB SLT ISZERO PUSH3 0x239 JUMPI PUSH3 0x238 PUSH3 0x17A JUMP JUMPDEST JUMPDEST PUSH1 0x0 PUSH3 0x249 DUP6 DUP3 DUP7 ADD PUSH3 0x1A3 JUMP JUMPDEST SWAP3 POP POP PUSH1 0x20 PUSH3 0x25C DUP6 DUP3 DUP7 ADD PUSH3 0x208 JUMP JUMPDEST SWAP2 POP POP SWAP3 POP SWAP3 SWAP1 POP JUMP JUMPDEST PUSH2 0x174C DUP1 PUSH3 0x276 PUSH1 0x0 CODECOPY PUSH1 0x0 RETURN INVALID PUSH1 0x80 PUSH1 0x40 MSTORE PUSH1 0x4 CALLDATASIZE LT PUSH2 0x7B JUMPI PUSH1 0x0 CALLDATALOAD PUSH1 0xE0 SHR DUP1 PUSH4 0x6E98762D GT PUSH2 0x4E JUMPI DUP1 PUSH4 0x6E98762D EQ PUSH2 0x108 JUMPI DUP1 PUSH4 0x715018A6 EQ PUSH2 0x131 JUMPI DUP1 PUSH4 0x8DA5CB5B EQ PUSH2 0x148 JUMPI DUP1 PUSH4 0xF2FDE38B EQ PUSH2 0x173 JUMPI PUSH2 0x7B JUMP JUMPDEST DUP1 PUSH4 0x3CCFD60B EQ PUSH2 0x80 JUMPI DUP1 PUSH4 0x47E7EF24 EQ PUSH2 0x97 JUMPI DUP1 PUSH4 0x4A0AEE29 EQ PUSH2 0xB3 JUMPI DUP1 PUSH4 0x54CAEF7D EQ PUSH2 0xDF JUMPI JUMPDEST PUSH1 0x0 DUP1 REVERT JUMPDEST CALLVALUE DUP1 ISZERO PUSH2 0x8C JUMPI PUSH1 0x0 DUP1 REVERT JUMPDEST POP PUSH2 0x95 PUSH2 0x19C JUMP JUMPDEST STOP JUMPDEST PUSH2 0xB1 PUSH1 0x4 DUP1 CALLDATASIZE SUB DUP2 ADD SWAP1 PUSH2 0xAC SWAP2 SWAP1 PUSH2 0xF04 JUMP JUMPDEST PUSH2 0x463 JUMP JUMPDEST STOP JUMPDEST CALLVALUE DUP1 ISZERO PUSH2 0xBF JUMPI PUSH1 0x0 DUP1 REVERT JUMPDEST POP PUSH2 0xC8 PUSH2 0x711 JUMP JUMPDEST PUSH1 0x40 MLOAD PUSH2 0xD6 SWAP3 SWAP2 SWAP1 PUSH2 0xFD2 JUMP JUMPDEST PUSH1 0x40 MLOAD DUP1 SWAP2 SUB SWAP1 RETURN JUMPDEST CALLVALUE DUP1 ISZERO PUSH2 0xEB JUMPI PUSH1 0x0 DUP1 REVERT JUMPDEST POP PUSH2 0x106 PUSH1 0x4 DUP1 CALLDATASIZE SUB DUP2 ADD SWAP1 PUSH2 0x101 SWAP2 SWAP1 PUSH2 0xFFB JUMP JUMPDEST PUSH2 0x83B JUMP JUMPDEST STOP JUMPDEST CALLVALUE DUP1 ISZERO PUSH2 0x114 JUMPI PUSH1 0x0 DUP1 REVERT JUMPDEST POP PUSH2 0x12F PUSH1 0x4 DUP1 CALLDATASIZE SUB DUP2 ADD SWAP1 PUSH2 0x12A SWAP2 SWAP1 PUSH2 0x1028 JUMP JUMPDEST PUSH2 0x84D JUMP JUMPDEST STOP JUMPDEST CALLVALUE DUP1 ISZERO PUSH2 0x13D JUMPI PUSH1 0x0 DUP1 REVERT JUMPDEST POP PUSH2 0x146 PUSH2 0xB78 JUMP JUMPDEST STOP JUMPDEST CALLVALUE DUP1 ISZERO PUSH2 0x154 JUMPI PUSH1 0x0 DUP1 REVERT JUMPDEST POP PUSH2 0x15D PUSH2 0xB8C JUMP JUMPDEST PUSH1 0x40 MLOAD PUSH2 0x16A SWAP2 SWAP1 PUSH2 0x1064 JUMP JUMPDEST PUSH1 0x40 MLOAD DUP1 SWAP2 SUB SWAP1 RETURN JUMPDEST CALLVALUE DUP1 ISZERO PUSH2 0x17F JUMPI PUSH1 0x0 DUP1 REVERT JUMPDEST POP PUSH2 0x19A PUSH1 0x4 DUP1 CALLDATASIZE SUB DUP2 ADD SWAP1 PUSH2 0x195 SWAP2 SWAP1 PUSH2 0x1028 JUMP JUMPDEST PUSH2 0xBB5 JUMP JUMPDEST STOP JUMPDEST PUSH2 0x1A4 PUSH2 0xC38 JUMP JUMPDEST PUSH1 0x0 PUSH1 0x4 PUSH1 0x0 CALLER PUSH20 0xFFFFFFFFFFFFFFFFFFFFFFFFFFFFFFFFFFFFFFFF AND PUSH20 0xFFFFFFFFFFFFFFFFFFFFFFFFFFFFFFFFFFFFFFFF AND DUP2 MSTORE PUSH1 0x20 ADD SWAP1 DUP2 MSTORE PUSH1 0x20 ADD PUSH1 0x0 KECCAK256 PUSH1 0x40 MLOAD DUP1 PUSH1 0x80 ADD PUSH1 0x40 MSTORE SWAP1 DUP2 PUSH1 0x0 DUP3 ADD PUSH1 0x0 SWAP1 SLOAD SWAP1 PUSH2 0x100 EXP SWAP1 DIV PUSH20 0xFFFFFFFFFFFFFFFFFFFFFFFFFFFFFFFFFFFFFFFF AND PUSH20 0xFFFFFFFFFFFFFFFFFFFFFFFFFFFFFFFFFFFFFFFF AND PUSH20 0xFFFFFFFFFFFFFFFFFFFFFFFFFFFFFFFFFFFFFFFF AND DUP2 MSTORE PUSH1 0x20 ADD PUSH1 0x1 DUP3 ADD PUSH1 0x0 SWAP1 SLOAD SWAP1 PUSH2 0x100 EXP SWAP1 DIV PUSH20 0xFFFFFFFFFFFFFFFFFFFFFFFFFFFFFFFFFFFFFFFF AND PUSH20 0xFFFFFFFFFFFFFFFFFFFFFFFFFFFFFFFFFFFFFFFF AND PUSH20 0xFFFFFFFFFFFFFFFFFFFFFFFFFFFFFFFFFFFFFFFF AND DUP2 MSTORE PUSH1 0x20 ADD PUSH1 0x2 DUP3 ADD SLOAD DUP2 MSTORE PUSH1 0x20 ADD PUSH1 0x3 DUP3 ADD SLOAD DUP2 MSTORE POP POP SWAP1 POP PUSH2 0x2BB DUP2 PUSH2 0xC87 JUMP JUMPDEST PUSH2 0x2FA JUMPI PUSH1 0x40 MLOAD PUSH32 0x8C379A000000000000000000000000000000000000000000000000000000000 DUP2 MSTORE PUSH1 0x4 ADD PUSH2 0x2F1 SWAP1 PUSH2 0x10DC JUMP JUMPDEST PUSH1 0x40 MLOAD DUP1 SWAP2 SUB SWAP1 REVERT JUMPDEST PUSH1 0x4 PUSH1 0x0 CALLER PUSH20 0xFFFFFFFFFFFFFFFFFFFFFFFFFFFFFFFFFFFFFFFF AND PUSH20 0xFFFFFFFFFFFFFFFFFFFFFFFFFFFFFFFFFFFFFFFF AND DUP2 MSTORE PUSH1 0x20 ADD SWAP1 DUP2 MSTORE PUSH1 0x20 ADD PUSH1 0x0 KECCAK256 PUSH1 0x0 DUP1 DUP3 ADD PUSH1 0x0 PUSH2 0x100 EXP DUP2 SLOAD SWAP1 PUSH20 0xFFFFFFFFFFFFFFFFFFFFFFFFFFFFFFFFFFFFFFFF MUL NOT AND SWAP1 SSTORE PUSH1 0x1 DUP3 ADD PUSH1 0x0 PUSH2 0x100 EXP DUP2 SLOAD SWAP1 PUSH20 0xFFFFFFFFFFFFFFFFFFFFFFFFFFFFFFFFFFFFFFFF MUL NOT AND SWAP1 SSTORE PUSH1 0x2 DUP3 ADD PUSH1 0x0 SWAP1 SSTORE PUSH1 0x3 DUP3 ADD PUSH1 0x0 SWAP1 SSTORE POP POP CALLER PUSH20 0xFFFFFFFFFFFFFFFFFFFFFFFFFFFFFFFFFFFFFFFF AND DUP2 PUSH1 0x0 ADD MLOAD PUSH20 0xFFFFFFFFFFFFFFFFFFFFFFFFFFFFFFFFFFFFFFFF AND EQ PUSH2 0x3DA JUMPI PUSH2 0x3D9 PUSH2 0x10FC JUMP JUMPDEST JUMPDEST PUSH1 0x0 CALLER PUSH20 0xFFFFFFFFFFFFFFFFFFFFFFFFFFFFFFFFFFFFFFFF AND PUSH2 0x8FC DUP4 PUSH1 0x40 ADD MLOAD SWAP1 DUP2 ISZERO MUL SWAP1 PUSH1 0x40 MLOAD PUSH1 0x0 PUSH1 0x40 MLOAD DUP1 DUP4 SUB DUP2 DUP6 DUP9 DUP9 CALL SWAP4 POP POP POP POP SWAP1 POP DUP1 PUSH2 0x457 JUMPI PUSH1 0x40 MLOAD PUSH32 0x8C379A000000000000000000000000000000000000000000000000000000000 DUP2 MSTORE PUSH1 0x4 ADD PUSH2 0x44E SWAP1 PUSH2 0x119D JUMP JUMPDEST PUSH1 0x40 MLOAD DUP1 SWAP2 SUB SWAP1 REVERT JUMPDEST POP POP PUSH2 0x461 PUSH2 0xCC4 JUMP JUMPDEST JUMP JUMPDEST PUSH1 0x0 PUSH20 0xFFFFFFFFFFFFFFFFFFFFFFFFFFFFFFFFFFFFFFFF AND CALLER PUSH20 0xFFFFFFFFFFFFFFFFFFFFFFFFFFFFFFFFFFFFFFFF AND SUB PUSH2 0x4D2 JUMPI PUSH1 0x40 MLOAD PUSH32 0x8C379A000000000000000000000000000000000000000000000000000000000 DUP2 MSTORE PUSH1 0x4 ADD PUSH2 0x4C9 SWAP1 PUSH2 0x1209 JUMP JUMPDEST PUSH1 0x40 MLOAD DUP1 SWAP2 SUB SWAP1 REVERT JUMPDEST PUSH1 0x0 PUSH20 0xFFFFFFFFFFFFFFFFFFFFFFFFFFFFFFFFFFFFFFFF AND DUP3 PUSH20 0xFFFFFFFFFFFFFFFFFFFFFFFFFFFFFFFFFFFFFFFF AND SUB PUSH2 0x541 JUMPI PUSH1 0x40 MLOAD PUSH32 0x8C379A000000000000000000000000000000000000000000000000000000000 DUP2 MSTORE PUSH1 0x4 ADD PUSH2 0x538 SWAP1 PUSH2 0x129B JUMP JUMPDEST PUSH1 0x40 MLOAD DUP1 SWAP2 SUB SWAP1 REVERT JUMPDEST PUSH1 0x0 DUP2 GT PUSH2 0x584 JUMPI PUSH1 0x40 MLOAD PUSH32 0x8C379A000000000000000000000000000000000000000000000000000000000 DUP2 MSTORE PUSH1 0x4 ADD PUSH2 0x57B SWAP1 PUSH2 0x132D JUMP JUMPDEST PUSH1 0x40 MLOAD DUP1 SWAP2 SUB SWAP1 REVERT JUMPDEST PUSH1 0x2 SLOAD CALLVALUE LT ISZERO PUSH2 0x5C9 JUMPI PUSH1 0x40 MLOAD PUSH32 0x8C379A000000000000000000000000000000000000000000000000000000000 DUP2 MSTORE PUSH1 0x4 ADD PUSH2 0x5C0 SWAP1 PUSH2 0x13BF JUMP JUMPDEST PUSH1 0x40 MLOAD DUP1 SWAP2 SUB SWAP1 REVERT JUMPDEST PUSH1 0x0 PUSH1 0x2 SLOAD CALLVALUE PUSH2 0x5D9 SWAP2 SWAP1 PUSH2 0x140E JUMP JUMPDEST SWAP1 POP PUSH1 0x40 MLOAD DUP1 PUSH1 0x80 ADD PUSH1 0x40 MSTORE DUP1 CALLER PUSH20 0xFFFFFFFFFFFFFFFFFFFFFFFFFFFFFFFFFFFFFFFF AND DUP2 MSTORE PUSH1 0x20 ADD DUP5 PUSH20 0xFFFFFFFFFFFFFFFFFFFFFFFFFFFFFFFFFFFFFFFF AND DUP2 MSTORE PUSH1 0x20 ADD DUP3 DUP2 MSTORE PUSH1 0x20 ADD DUP4 DUP2 MSTORE POP PUSH1 0x4 PUSH1 0x0 CALLER PUSH20 0xFFFFFFFFFFFFFFFFFFFFFFFFFFFFFFFFFFFFFFFF AND PUSH20 0xFFFFFFFFFFFFFFFFFFFFFFFFFFFFFFFFFFFFFFFF AND DUP2 MSTORE PUSH1 0x20 ADD SWAP1 DUP2 MSTORE PUSH1 0x20 ADD PUSH1 0x0 KECCAK256 PUSH1 0x0 DUP3 ADD MLOAD DUP2 PUSH1 0x0 ADD PUSH1 0x0 PUSH2 0x100 EXP DUP2 SLOAD DUP2 PUSH20 0xFFFFFFFFFFFFFFFFFFFFFFFFFFFFFFFFFFFFFFFF MUL NOT AND SWAP1 DUP4 PUSH20 0xFFFFFFFFFFFFFFFFFFFFFFFFFFFFFFFFFFFFFFFF AND MUL OR SWAP1 SSTORE POP PUSH1 0x20 DUP3 ADD MLOAD DUP2 PUSH1 0x1 ADD PUSH1 0x0 PUSH2 0x100 EXP DUP2 SLOAD DUP2 PUSH20 0xFFFFFFFFFFFFFFFFFFFFFFFFFFFFFFFFFFFFFFFF MUL NOT AND SWAP1 DUP4 PUSH20 0xFFFFFFFFFFFFFFFFFFFFFFFFFFFFFFFFFFFFFFFF AND MUL OR SWAP1 SSTORE POP PUSH1 0x40 DUP3 ADD MLOAD DUP2 PUSH1 0x2 ADD SSTORE PUSH1 0x60 DUP3 ADD MLOAD DUP2 PUSH1 0x3 ADD SSTORE SWAP1 POP POP POP POP POP JUMP JUMPDEST PUSH2 0x719 PUSH2 0xE17 JUMP JUMPDEST PUSH1 0x0 DUP1 PUSH1 0x4 PUSH1 0x0 CALLER PUSH20 0xFFFFFFFFFFFFFFFFFFFFFFFFFFFFFFFFFFFFFFFF AND PUSH20 0xFFFFFFFFFFFFFFFFFFFFFFFFFFFFFFFFFFFFFFFF AND DUP2 MSTORE PUSH1 0x20 ADD SWAP1 DUP2 MSTORE PUSH1 0x20 ADD PUSH1 0x0 KECCAK256 PUSH1 0x40 MLOAD DUP1 PUSH1 0x80 ADD PUSH1 0x40 MSTORE SWAP1 DUP2 PUSH1 0x0 DUP3 ADD PUSH1 0x0 SWAP1 SLOAD SWAP1 PUSH2 0x100 EXP SWAP1 DIV PUSH20 0xFFFFFFFFFFFFFFFFFFFFFFFFFFFFFFFFFFFFFFFF AND PUSH20 0xFFFFFFFFFFFFFFFFFFFFFFFFFFFFFFFFFFFFFFFF AND PUSH20 0xFFFFFFFFFFFFFFFFFFFFFFFFFFFFFFFFFFFFFFFF AND DUP2 MSTORE PUSH1 0x20 ADD PUSH1 0x1 DUP3 ADD PUSH1 0x0 SWAP1 SLOAD SWAP1 PUSH2 0x100 EXP SWAP1 DIV PUSH20 0xFFFFFFFFFFFFFFFFFFFFFFFFFFFFFFFFFFFFFFFF AND PUSH20 0xFFFFFFFFFFFFFFFFFFFFFFFFFFFFFFFFFFFFFFFF AND PUSH20 0xFFFFFFFFFFFFFFFFFFFFFFFFFFFFFFFFFFFFFFFF AND DUP2 MSTORE PUSH1 0x20 ADD PUSH1 0x2 DUP3 ADD SLOAD DUP2 MSTORE PUSH1 0x20 ADD PUSH1 0x3 DUP3 ADD SLOAD DUP2 MSTORE POP POP SWAP1 POP DUP1 PUSH2 0x832 DUP3 PUSH2 0xC87 JUMP JUMPDEST SWAP3 POP SWAP3 POP POP SWAP1 SWAP2 JUMP JUMPDEST PUSH2 0x843 PUSH2 0xCCD JUMP JUMPDEST DUP1 PUSH1 0x2 DUP2 SWAP1 SSTORE POP POP JUMP JUMPDEST PUSH2 0x855 PUSH2 0xCCD JUMP JUMPDEST PUSH2 0x85D PUSH2 0xC38 JUMP JUMPDEST PUSH1 0x0 PUSH1 0x4 PUSH1 0x0 DUP4 PUSH20 0xFFFFFFFFFFFFFFFFFFFFFFFFFFFFFFFFFFFFFFFF AND PUSH20 0xFFFFFFFFFFFFFFFFFFFFFFFFFFFFFFFFFFFFFFFF AND DUP2 MSTORE PUSH1 0x20 ADD SWAP1 DUP2 MSTORE PUSH1 0x20 ADD PUSH1 0x0 KECCAK256 PUSH1 0x40 MLOAD DUP1 PUSH1 0x80 ADD PUSH1 0x40 MSTORE SWAP1 DUP2 PUSH1 0x0 DUP3 ADD PUSH1 0x0 SWAP1 SLOAD SWAP1 PUSH2 0x100 EXP SWAP1 DIV PUSH20 0xFFFFFFFFFFFFFFFFFFFFFFFFFFFFFFFFFFFFFFFF AND PUSH20 0xFFFFFFFFFFFFFFFFFFFFFFFFFFFFFFFFFFFFFFFF AND PUSH20 0xFFFFFFFFFFFFFFFFFFFFFFFFFFFFFFFFFFFFFFFF AND DUP2 MSTORE PUSH1 0x20 ADD PUSH1 0x1 DUP3 ADD PUSH1 0x0 SWAP1 SLOAD SWAP1 PUSH2 0x100 EXP SWAP1 DIV PUSH20 0xFFFFFFFFFFFFFFFFFFFFFFFFFFFFFFFFFFFFFFFF AND PUSH20 0xFFFFFFFFFFFFFFFFFFFFFFFFFFFFFFFFFFFFFFFF AND PUSH20 0xFFFFFFFFFFFFFFFFFFFFFFFFFFFFFFFFFFFFFFFF AND DUP2 MSTORE PUSH1 0x20 ADD PUSH1 0x2 DUP3 ADD SLOAD DUP2 MSTORE PUSH1 0x20 ADD PUSH1 0x3 DUP3 ADD SLOAD DUP2 MSTORE POP POP SWAP1 POP PUSH2 0x974 DUP2 PUSH2 0xC87 JUMP JUMPDEST PUSH2 0x9B3 JUMPI PUSH1 0x40 MLOAD PUSH32 0x8C379A000000000000000000000000000000000000000000000000000000000 DUP2 MSTORE PUSH1 0x4 ADD PUSH2 0x9AA SWAP1 PUSH2 0x148E JUMP JUMPDEST PUSH1 0x40 MLOAD DUP1 SWAP2 SUB SWAP1 REVERT JUMPDEST PUSH1 0x4 PUSH1 0x0 DUP4 PUSH20 0xFFFFFFFFFFFFFFFFFFFFFFFFFFFFFFFFFFFFFFFF AND PUSH20 0xFFFFFFFFFFFFFFFFFFFFFFFFFFFFFFFFFFFFFFFF AND DUP2 MSTORE PUSH1 0x20 ADD SWAP1 DUP2 MSTORE PUSH1 0x20 ADD PUSH1 0x0 KECCAK256 PUSH1 0x0 DUP1 DUP3 ADD PUSH1 0x0 PUSH2 0x100 EXP DUP2 SLOAD SWAP1 PUSH20 0xFFFFFFFFFFFFFFFFFFFFFFFFFFFFFFFFFFFFFFFF MUL NOT AND SWAP1 SSTORE PUSH1 0x1 DUP3 ADD PUSH1 0x0 PUSH2 0x100 EXP DUP2 SLOAD SWAP1 PUSH20 0xFFFFFFFFFFFFFFFFFFFFFFFFFFFFFFFFFFFFFFFF MUL NOT AND SWAP1 SSTORE PUSH1 0x2 DUP3 ADD PUSH1 0x0 SWAP1 SSTORE PUSH1 0x3 DUP3 ADD PUSH1 0x0 SWAP1 SSTORE POP POP PUSH1 0x0 CALLER PUSH20 0xFFFFFFFFFFFFFFFFFFFFFFFFFFFFFFFFFFFFFFFF AND PUSH2 0x8FC PUSH1 0x2 SLOAD SWAP1 DUP2 ISZERO MUL SWAP1 PUSH1 0x40 MLOAD PUSH1 0x0 PUSH1 0x40 MLOAD DUP1 DUP4 SUB DUP2 DUP6 DUP9 DUP9 CALL SWAP4 POP POP POP POP SWAP1 POP DUP1 PUSH2 0xACE JUMPI PUSH1 0x40 MLOAD PUSH32 0x8C379A000000000000000000000000000000000000000000000000000000000 DUP2 MSTORE PUSH1 0x4 ADD PUSH2 0xAC5 SWAP1 PUSH2 0x14FA JUMP JUMPDEST PUSH1 0x40 MLOAD DUP1 SWAP2 SUB SWAP1 REVERT JUMPDEST PUSH1 0x3 PUSH1 0x0 SWAP1 SLOAD SWAP1 PUSH2 0x100 EXP SWAP1 DIV PUSH20 0xFFFFFFFFFFFFFFFFFFFFFFFFFFFFFFFFFFFFFFFF AND PUSH20 0xFFFFFFFFFFFFFFFFFFFFFFFFFFFFFFFFFFFFFFFF AND PUSH2 0x8FC DUP4 PUSH1 0x40 ADD MLOAD SWAP1 DUP2 ISZERO MUL SWAP1 PUSH1 0x40 MLOAD PUSH1 0x0 PUSH1 0x40 MLOAD DUP1 DUP4 SUB DUP2 DUP6 DUP9 DUP9 CALL SWAP4 POP POP POP POP SWAP1 POP DUP1 PUSH2 0xB6B JUMPI PUSH1 0x40 MLOAD PUSH32 0x8C379A000000000000000000000000000000000000000000000000000000000 DUP2 MSTORE PUSH1 0x4 ADD PUSH2 0xB62 SWAP1 PUSH2 0x158C JUMP JUMPDEST PUSH1 0x40 MLOAD DUP1 SWAP2 SUB SWAP1 REVERT JUMPDEST POP POP PUSH2 0xB75 PUSH2 0xCC4 JUMP JUMPDEST POP JUMP JUMPDEST PUSH2 0xB80 PUSH2 0xCCD JUMP JUMPDEST PUSH2 0xB8A PUSH1 0x0 PUSH2 0xD4B JUMP JUMPDEST JUMP JUMPDEST PUSH1 0x0 DUP1 PUSH1 0x0 SWAP1 SLOAD SWAP1 PUSH2 0x100 EXP SWAP1 DIV PUSH20 0xFFFFFFFFFFFFFFFFFFFFFFFFFFFFFFFFFFFFFFFF AND SWAP1 POP SWAP1 JUMP JUMPDEST PUSH2 0xBBD PUSH2 0xCCD JUMP JUMPDEST PUSH1 0x0 PUSH20 0xFFFFFFFFFFFFFFFFFFFFFFFFFFFFFFFFFFFFFFFF AND DUP2 PUSH20 0xFFFFFFFFFFFFFFFFFFFFFFFFFFFFFFFFFFFFFFFF AND SUB PUSH2 0xC2C JUMPI PUSH1 0x40 MLOAD PUSH32 0x8C379A000000000000000000000000000000000000000000000000000000000 DUP2 MSTORE PUSH1 0x4 ADD PUSH2 0xC23 SWAP1 PUSH2 0x161E JUMP JUMPDEST PUSH1 0x40 MLOAD DUP1 SWAP2 SUB SWAP1 REVERT JUMPDEST PUSH2 0xC35 DUP2 PUSH2 0xD4B JUMP JUMPDEST POP JUMP JUMPDEST PUSH1 0x2 PUSH1 0x1 SLOAD SUB PUSH2 0xC7D JUMPI PUSH1 0x40 MLOAD PUSH32 0x8C379A000000000000000000000000000000000000000000000000000000000 DUP2 MSTORE PUSH1 0x4 ADD PUSH2 0xC74 SWAP1 PUSH2 0x168A JUMP JUMPDEST PUSH1 0x40 MLOAD DUP1 SWAP2 SUB SWAP1 REVERT JUMPDEST PUSH1 0x2 PUSH1 0x1 DUP2 SWAP1 SSTORE POP JUMP JUMPDEST PUSH1 0x0 DUP1 PUSH20 0xFFFFFFFFFFFFFFFFFFFFFFFFFFFFFFFFFFFFFFFF AND DUP3 PUSH1 0x0 ADD MLOAD PUSH20 0xFFFFFFFFFFFFFFFFFFFFFFFFFFFFFFFFFFFFFFFF AND EQ ISZERO SWAP1 POP SWAP2 SWAP1 POP JUMP JUMPDEST PUSH1 0x1 DUP1 DUP2 SWAP1 SSTORE POP JUMP JUMPDEST PUSH2 0xCD5 PUSH2 0xE0F JUMP JUMPDEST PUSH20 0xFFFFFFFFFFFFFFFFFFFFFFFFFFFFFFFFFFFFFFFF AND PUSH2 0xCF3 PUSH2 0xB8C JUMP JUMPDEST PUSH20 0xFFFFFFFFFFFFFFFFFFFFFFFFFFFFFFFFFFFFFFFF AND EQ PUSH2 0xD49 JUMPI PUSH1 0x40 MLOAD PUSH32 0x8C379A000000000000000000000000000000000000000000000000000000000 DUP2 MSTORE PUSH1 0x4 ADD PUSH2 0xD40 SWAP1 PUSH2 0x16F6 JUMP JUMPDEST PUSH1 0x40 MLOAD DUP1 SWAP2 SUB SWAP1 REVERT JUMPDEST JUMP JUMPDEST PUSH1 0x0 DUP1 PUSH1 0x0 SWAP1 SLOAD SWAP1 PUSH2 0x100 EXP SWAP1 DIV PUSH20 0xFFFFFFFFFFFFFFFFFFFFFFFFFFFFFFFFFFFFFFFF AND SWAP1 POP DUP2 PUSH1 0x0 DUP1 PUSH2 0x100 EXP DUP2 SLOAD DUP2 PUSH20 0xFFFFFFFFFFFFFFFFFFFFFFFFFFFFFFFFFFFFFFFF MUL NOT AND SWAP1 DUP4 PUSH20 0xFFFFFFFFFFFFFFFFFFFFFFFFFFFFFFFFFFFFFFFF AND MUL OR SWAP1 SSTORE POP DUP2 PUSH20 0xFFFFFFFFFFFFFFFFFFFFFFFFFFFFFFFFFFFFFFFF AND DUP2 PUSH20 0xFFFFFFFFFFFFFFFFFFFFFFFFFFFFFFFFFFFFFFFF AND PUSH32 0x8BE0079C531659141344CD1FD0A4F28419497F9722A3DAAFE3B4186F6B6457E0 PUSH1 0x40 MLOAD PUSH1 0x40 MLOAD DUP1 SWAP2 SUB SWAP1 LOG3 POP POP JUMP JUMPDEST PUSH1 0x0 CALLER SWAP1 POP SWAP1 JUMP JUMPDEST PUSH1 0x40 MLOAD DUP1 PUSH1 0x80 ADD PUSH1 0x40 MSTORE DUP1 PUSH1 0x0 PUSH20 0xFFFFFFFFFFFFFFFFFFFFFFFFFFFFFFFFFFFFFFFF AND DUP2 MSTORE PUSH1 0x20 ADD PUSH1 0x0 PUSH20 0xFFFFFFFFFFFFFFFFFFFFFFFFFFFFFFFFFFFFFFFF AND DUP2 MSTORE PUSH1 0x20 ADD PUSH1 0x0 DUP2 MSTORE PUSH1 0x20 ADD PUSH1 0x0 DUP2 MSTORE POP SWAP1 JUMP JUMPDEST PUSH1 0x0 DUP1 REVERT JUMPDEST PUSH1 0x0 PUSH20 0xFFFFFFFFFFFFFFFFFFFFFFFFFFFFFFFFFFFFFFFF DUP3 AND SWAP1 POP SWAP2 SWAP1 POP JUMP JUMPDEST PUSH1 0x0 PUSH2 0xE9B DUP3 PUSH2 0xE70 JUMP JUMPDEST SWAP1 POP SWAP2 SWAP1 POP JUMP JUMPDEST PUSH2 0xEAB DUP2 PUSH2 0xE90 JUMP JUMPDEST DUP2 EQ PUSH2 0xEB6 JUMPI PUSH1 0x0 DUP1 REVERT JUMPDEST POP JUMP JUMPDEST PUSH1 0x0 DUP2 CALLDATALOAD SWAP1 POP PUSH2 0xEC8 DUP2 PUSH2 0xEA2 JUMP JUMPDEST SWAP3 SWAP2 POP POP JUMP JUMPDEST PUSH1 0x0 DUP2 SWAP1 POP SWAP2 SWAP1 POP JUMP JUMPDEST PUSH2 0xEE1 DUP2 PUSH2 0xECE JUMP JUMPDEST DUP2 EQ PUSH2 0xEEC JUMPI PUSH1 0x0 DUP1 REVERT JUMPDEST POP JUMP JUMPDEST PUSH1 0x0 DUP2 CALLDATALOAD SWAP1 POP PUSH2 0xEFE DUP2 PUSH2 0xED8 JUMP JUMPDEST SWAP3 SWAP2 POP POP JUMP JUMPDEST PUSH1 0x0 DUP1 PUSH1 0x40 DUP4 DUP6 SUB SLT ISZERO PUSH2 0xF1B JUMPI PUSH2 0xF1A PUSH2 0xE6B JUMP JUMPDEST JUMPDEST PUSH1 0x0 PUSH2 0xF29 DUP6 DUP3 DUP7 ADD PUSH2 0xEB9 JUMP JUMPDEST SWAP3 POP POP PUSH1 0x20 PUSH2 0xF3A DUP6 DUP3 DUP7 ADD PUSH2 0xEEF JUMP JUMPDEST SWAP2 POP POP SWAP3 POP SWAP3 SWAP1 POP JUMP JUMPDEST PUSH2 0xF4D DUP2 PUSH2 0xE90 JUMP JUMPDEST DUP3 MSTORE POP POP JUMP JUMPDEST PUSH2 0xF5C DUP2 PUSH2 0xECE JUMP JUMPDEST DUP3 MSTORE POP POP JUMP JUMPDEST PUSH1 0x80 DUP3 ADD PUSH1 0x0 DUP3 ADD MLOAD PUSH2 0xF78 PUSH1 0x0 DUP6 ADD DUP3 PUSH2 0xF44 JUMP JUMPDEST POP PUSH1 0x20 DUP3 ADD MLOAD PUSH2 0xF8B PUSH1 0x20 DUP6 ADD DUP3 PUSH2 0xF44 JUMP JUMPDEST POP PUSH1 0x40 DUP3 ADD MLOAD PUSH2 0xF9E PUSH1 0x40 DUP6 ADD DUP3 PUSH2 0xF53 JUMP JUMPDEST POP PUSH1 0x60 DUP3 ADD MLOAD PUSH2 0xFB1 PUSH1 0x60 DUP6 ADD DUP3 PUSH2 0xF53 JUMP JUMPDEST POP POP POP POP JUMP JUMPDEST PUSH1 0x0 DUP2 ISZERO ISZERO SWAP1 POP SWAP2 SWAP1 POP JUMP JUMPDEST PUSH2 0xFCC DUP2 PUSH2 0xFB7 JUMP JUMPDEST DUP3 MSTORE POP POP JUMP JUMPDEST PUSH1 0x0 PUSH1 0xA0 DUP3 ADD SWAP1 POP PUSH2 0xFE7 PUSH1 0x0 DUP4 ADD DUP6 PUSH2 0xF62 JUMP JUMPDEST PUSH2 0xFF4 PUSH1 0x80 DUP4 ADD DUP5 PUSH2 0xFC3 JUMP JUMPDEST SWAP4 SWAP3 POP POP POP JUMP JUMPDEST PUSH1 0x0 PUSH1 0x20 DUP3 DUP5 SUB SLT ISZERO PUSH2 0x1011 JUMPI PUSH2 0x1010 PUSH2 0xE6B JUMP JUMPDEST JUMPDEST PUSH1 0x0 PUSH2 0x101F DUP5 DUP3 DUP6 ADD PUSH2 0xEEF JUMP JUMPDEST SWAP2 POP POP SWAP3 SWAP2 POP POP JUMP JUMPDEST PUSH1 0x0 PUSH1 0x20 DUP3 DUP5 SUB SLT ISZERO PUSH2 0x103E JUMPI PUSH2 0x103D PUSH2 0xE6B JUMP JUMPDEST JUMPDEST PUSH1 0x0 PUSH2 0x104C DUP5 DUP3 DUP6 ADD PUSH2 0xEB9 JUMP JUMPDEST SWAP2 POP POP SWAP3 SWAP2 POP POP JUMP JUMPDEST PUSH2 0x105E DUP2 PUSH2 0xE90 JUMP JUMPDEST DUP3 MSTORE POP POP JUMP JUMPDEST PUSH1 0x0 PUSH1 0x20 DUP3 ADD SWAP1 POP PUSH2 0x1079 PUSH1 0x0 DUP4 ADD DUP5 PUSH2 0x1055 JUMP JUMPDEST SWAP3 SWAP2 POP POP JUMP JUMPDEST PUSH1 0x0 DUP3 DUP3 MSTORE PUSH1 0x20 DUP3 ADD SWAP1 POP SWAP3 SWAP2 POP POP JUMP JUMPDEST PUSH32 0x4E6F207265717565737420746F20776974686472617700000000000000000000 PUSH1 0x0 DUP3 ADD MSTORE POP JUMP JUMPDEST PUSH1 0x0 PUSH2 0x10C6 PUSH1 0x16 DUP4 PUSH2 0x107F JUMP JUMPDEST SWAP2 POP PUSH2 0x10D1 DUP3 PUSH2 0x1090 JUMP JUMPDEST PUSH1 0x20 DUP3 ADD SWAP1 POP SWAP2 SWAP1 POP JUMP JUMPDEST PUSH1 0x0 PUSH1 0x20 DUP3 ADD SWAP1 POP DUP2 DUP2 SUB PUSH1 0x0 DUP4 ADD MSTORE PUSH2 0x10F5 DUP2 PUSH2 0x10B9 JUMP JUMPDEST SWAP1 POP SWAP2 SWAP1 POP JUMP JUMPDEST PUSH32 0x4E487B7100000000000000000000000000000000000000000000000000000000 PUSH1 0x0 MSTORE PUSH1 0x1 PUSH1 0x4 MSTORE PUSH1 0x24 PUSH1 0x0 REVERT JUMPDEST PUSH32 0x4661696C656420746F2077697468647261772066756E647320746F206D73672E PUSH1 0x0 DUP3 ADD MSTORE PUSH32 0x73656E6465720000000000000000000000000000000000000000000000000000 PUSH1 0x20 DUP3 ADD MSTORE POP JUMP JUMPDEST PUSH1 0x0 PUSH2 0x1187 PUSH1 0x26 DUP4 PUSH2 0x107F JUMP JUMPDEST SWAP2 POP PUSH2 0x1192 DUP3 PUSH2 0x112B JUMP JUMPDEST PUSH1 0x40 DUP3 ADD SWAP1 POP SWAP2 SWAP1 POP JUMP JUMPDEST PUSH1 0x0 PUSH1 0x20 DUP3 ADD SWAP1 POP DUP2 DUP2 SUB PUSH1 0x0 DUP4 ADD MSTORE PUSH2 0x11B6 DUP2 PUSH2 0x117A JUMP JUMPDEST SWAP1 POP SWAP2 SWAP1 POP JUMP JUMPDEST PUSH32 0x53656E646572206D6179206E6F74206265203020616464726573730000000000 PUSH1 0x0 DUP3 ADD MSTORE POP JUMP JUMPDEST PUSH1 0x0 PUSH2 0x11F3 PUSH1 0x1B DUP4 PUSH2 0x107F JUMP JUMPDEST SWAP2 POP PUSH2 0x11FE DUP3 PUSH2 0x11BD JUMP JUMPDEST PUSH1 0x20 DUP3 ADD SWAP1 POP SWAP2 SWAP1 POP JUMP JUMPDEST PUSH1 0x0 PUSH1 0x20 DUP3 ADD SWAP1 POP DUP2 DUP2 SUB PUSH1 0x0 DUP4 ADD MSTORE PUSH2 0x1222 DUP2 PUSH2 0x11E6 JUMP JUMPDEST SWAP1 POP SWAP2 SWAP1 POP JUMP JUMPDEST PUSH32 0x44657374696E6174696F6E2061646472657373206D6179206E6F742062652030 PUSH1 0x0 DUP3 ADD MSTORE PUSH32 0x2061646472657373000000000000000000000000000000000000000000000000 PUSH1 0x20 DUP3 ADD MSTORE POP JUMP JUMPDEST PUSH1 0x0 PUSH2 0x1285 PUSH1 0x28 DUP4 PUSH2 0x107F JUMP JUMPDEST SWAP2 POP PUSH2 0x1290 DUP3 PUSH2 0x1229 JUMP JUMPDEST PUSH1 0x40 DUP3 ADD SWAP1 POP SWAP2 SWAP1 POP JUMP JUMPDEST PUSH1 0x0 PUSH1 0x20 DUP3 ADD SWAP1 POP DUP2 DUP2 SUB PUSH1 0x0 DUP4 ADD MSTORE PUSH2 0x12B4 DUP2 PUSH2 0x1278 JUMP JUMPDEST SWAP1 POP SWAP2 SWAP1 POP JUMP JUMPDEST PUSH32 0x57616E746564204C3120676173207072696365206D7573742062652073747269 PUSH1 0x0 DUP3 ADD MSTORE PUSH32 0x63746C7920706F73697469766500000000000000000000000000000000000000 PUSH1 0x20 DUP3 ADD MSTORE POP JUMP JUMPDEST PUSH1 0x0 PUSH2 0x1317 PUSH1 0x2D DUP4 PUSH2 0x107F JUMP JUMPDEST SWAP2 POP PUSH2 0x1322 DUP3 PUSH2 0x12BB JUMP JUMPDEST PUSH1 0x40 DUP3 ADD SWAP1 POP SWAP2 SWAP1 POP JUMP JUMPDEST PUSH1 0x0 PUSH1 0x20 DUP3 ADD SWAP1 POP DUP2 DUP2 SUB PUSH1 0x0 DUP4 ADD MSTORE PUSH2 0x1346 DUP2 PUSH2 0x130A JUMP JUMPDEST SWAP1 POP SWAP2 SWAP1 POP JUMP JUMPDEST PUSH32 0x4E6F7420656E6F7567682066756E647320746F2070617920666F722064656C61 PUSH1 0x0 DUP3 ADD MSTORE PUSH32 0x79656420657865637574696F6E00000000000000000000000000000000000000 PUSH1 0x20 DUP3 ADD MSTORE POP JUMP JUMPDEST PUSH1 0x0 PUSH2 0x13A9 PUSH1 0x2D DUP4 PUSH2 0x107F JUMP JUMPDEST SWAP2 POP PUSH2 0x13B4 DUP3 PUSH2 0x134D JUMP JUMPDEST PUSH1 0x40 DUP3 ADD SWAP1 POP SWAP2 SWAP1 POP JUMP JUMPDEST PUSH1 0x0 PUSH1 0x20 DUP3 ADD SWAP1 POP DUP2 DUP2 SUB PUSH1 0x0 DUP4 ADD MSTORE PUSH2 0x13D8 DUP2 PUSH2 0x139C JUMP JUMPDEST SWAP1 POP SWAP2 SWAP1 POP JUMP JUMPDEST PUSH32 0x4E487B7100000000000000000000000000000000000000000000000000000000 PUSH1 0x0 MSTORE PUSH1 0x11 PUSH1 0x4 MSTORE PUSH1 0x24 PUSH1 0x0 REVERT JUMPDEST PUSH1 0x0 PUSH2 0x1419 DUP3 PUSH2 0xECE JUMP JUMPDEST SWAP2 POP PUSH2 0x1424 DUP4 PUSH2 0xECE JUMP JUMPDEST SWAP3 POP DUP3 DUP3 SUB SWAP1 POP DUP2 DUP2 GT ISZERO PUSH2 0x143C JUMPI PUSH2 0x143B PUSH2 0x13DF JUMP JUMPDEST JUMPDEST SWAP3 SWAP2 POP POP JUMP JUMPDEST PUSH32 0x4E6F207265717565737420746F2070726F636573730000000000000000000000 PUSH1 0x0 DUP3 ADD MSTORE POP JUMP JUMPDEST PUSH1 0x0 PUSH2 0x1478 PUSH1 0x15 DUP4 PUSH2 0x107F JUMP JUMPDEST SWAP2 POP PUSH2 0x1483 DUP3 PUSH2 0x1442 JUMP JUMPDEST PUSH1 0x20 DUP3 ADD SWAP1 POP SWAP2 SWAP1 POP JUMP JUMPDEST PUSH1 0x0 PUSH1 0x20 DUP3 ADD SWAP1 POP DUP2 DUP2 SUB PUSH1 0x0 DUP4 ADD MSTORE PUSH2 0x14A7 DUP2 PUSH2 0x146B JUMP JUMPDEST SWAP1 POP SWAP2 SWAP1 POP JUMP JUMPDEST PUSH32 0x4661696C656420746F20726566756E64206578656375746F7200000000000000 PUSH1 0x0 DUP3 ADD MSTORE POP JUMP JUMPDEST PUSH1 0x0 PUSH2 0x14E4 PUSH1 0x19 DUP4 PUSH2 0x107F JUMP JUMPDEST SWAP2 POP PUSH2 0x14EF DUP3 PUSH2 0x14AE JUMP JUMPDEST PUSH1 0x20 DUP3 ADD SWAP1 POP SWAP2 SWAP1 POP JUMP JUMPDEST PUSH1 0x0 PUSH1 0x20 DUP3 ADD SWAP1 POP DUP2 DUP2 SUB PUSH1 0x0 DUP4 ADD MSTORE PUSH2 0x1513 DUP2 PUSH2 0x14D7 JUMP JUMPDEST SWAP1 POP SWAP2 SWAP1 POP JUMP JUMPDEST PUSH32 0x4661696C656420746F207375626D697420627269646765207265717565737420 PUSH1 0x0 DUP3 ADD MSTORE PUSH32 0x746F20486F702042726964676500000000000000000000000000000000000000 PUSH1 0x20 DUP3 ADD MSTORE POP JUMP JUMPDEST PUSH1 0x0 PUSH2 0x1576 PUSH1 0x2D DUP4 PUSH2 0x107F JUMP JUMPDEST SWAP2 POP PUSH2 0x1581 DUP3 PUSH2 0x151A JUMP JUMPDEST PUSH1 0x40 DUP3 ADD SWAP1 POP SWAP2 SWAP1 POP JUMP JUMPDEST PUSH1 0x0 PUSH1 0x20 DUP3 ADD SWAP1 POP DUP2 DUP2 SUB PUSH1 0x0 DUP4 ADD MSTORE PUSH2 0x15A5 DUP2 PUSH2 0x1569 JUMP JUMPDEST SWAP1 POP SWAP2 SWAP1 POP JUMP JUMPDEST PUSH32 0x4F776E61626C653A206E6577206F776E657220697320746865207A65726F2061 PUSH1 0x0 DUP3 ADD MSTORE PUSH32 0x6464726573730000000000000000000000000000000000000000000000000000 PUSH1 0x20 DUP3 ADD MSTORE POP JUMP JUMPDEST PUSH1 0x0 PUSH2 0x1608 PUSH1 0x26 DUP4 PUSH2 0x107F JUMP JUMPDEST SWAP2 POP PUSH2 0x1613 DUP3 PUSH2 0x15AC JUMP JUMPDEST PUSH1 0x40 DUP3 ADD SWAP1 POP SWAP2 SWAP1 POP JUMP JUMPDEST PUSH1 0x0 PUSH1 0x20 DUP3 ADD SWAP1 POP DUP2 DUP2 SUB PUSH1 0x0 DUP4 ADD MSTORE PUSH2 0x1637 DUP2 PUSH2 0x15FB JUMP JUMPDEST SWAP1 POP SWAP2 SWAP1 POP JUMP JUMPDEST PUSH32 0x5265656E7472616E637947756172643A207265656E7472616E742063616C6C00 PUSH1 0x0 DUP3 ADD MSTORE POP JUMP JUMPDEST PUSH1 0x0 PUSH2 0x1674 PUSH1 0x1F DUP4 PUSH2 0x107F JUMP JUMPDEST SWAP2 POP PUSH2 0x167F DUP3 PUSH2 0x163E JUMP JUMPDEST PUSH1 0x20 DUP3 ADD SWAP1 POP SWAP2 SWAP1 POP JUMP JUMPDEST PUSH1 0x0 PUSH1 0x20 DUP3 ADD SWAP1 POP DUP2 DUP2 SUB PUSH1 0x0 DUP4 ADD MSTORE PUSH2 0x16A3 DUP2 PUSH2 0x1667 JUMP JUMPDEST SWAP1 POP SWAP2 SWAP1 POP JUMP JUMPDEST PUSH32 0x4F776E61626C653A2063616C6C6572206973206E6F7420746865206F776E6572 PUSH1 0x0 DUP3 ADD MSTORE POP JUMP JUMPDEST PUSH1 0x0 PUSH2 0x16E0 PUSH1 0x20 DUP4 PUSH2 0x107F JUMP JUMPDEST SWAP2 POP PUSH2 0x16EB DUP3 PUSH2 0x16AA JUMP JUMPDEST PUSH1 0x20 DUP3 ADD SWAP1 POP SWAP2 SWAP1 POP JUMP JUMPDEST PUSH1 0x0 PUSH1 0x20 DUP3 ADD SWAP1 POP DUP2 DUP2 SUB PUSH1 0x0 DUP4 ADD MSTORE PUSH2 0x170F DUP2 PUSH2 0x16D3 JUMP JUMPDEST SWAP1 POP SWAP2 SWAP1 POP JUMP INVALID LOG2 PUSH5 0x6970667358 0x22 SLT KECCAK256 MSIZE 0x2E CALL LOG4 CALLDATASIZE AND DUP16 SDIV 0xB5 0xF6 0xE8 0x1E CALLDATASIZE GASLIMIT SLT 0xD0 0xE4 PUSH8 0x11B1888DF93E0D33 0xEF PREVRANDAO MUL 0x24 0x5C 0xFB PUSH5 0x736F6C6343 STOP ADDMOD SLT STOP CALLER "
				},
				"gasEstimates": {
					"creation": {
						"codeDepositCost": "1192800",
						"executionCost": "infinite",
						"totalCost": "infinite"
					},
					"external": {
						"deposit(address,uint256)": "infinite",
						"executeRequest(address)": "infinite",
						"owner()": "2566",
						"pendingRequests()": "infinite",
						"renounceOwnership()": "30420",
						"setExecutionGasRequirement(uint256)": "24851",
						"transferOwnership(address)": "30810",
						"withdraw()": "infinite"
					},
					"internal": {
						"isDefined(struct BridgeRequest memory)": "infinite"
					}
				},
				"methodIdentifiers": {
					"deposit(address,uint256)": "47e7ef24",
					"executeRequest(address)": "6e98762d",
					"owner()": "8da5cb5b",
					"pendingRequests()": "4a0aee29",
					"renounceOwnership()": "715018a6",
					"setExecutionGasRequirement(uint256)": "54caef7d",
					"transferOwnership(address)": "f2fde38b",
					"withdraw()": "3ccfd60b"
				}
			},
			"storageLayout": {
				"storage": [
					{
						"astId": 7,
						"contract": "contracts/BridgewhenCheap.sol:BridgeWhenCheap",
						"label": "_owner",
						"offset": 0,
						"slot": "0",
						"type": "t_address"
					},
					{
						"astId": 123,
						"contract": "contracts/BridgewhenCheap.sol:BridgeWhenCheap",
						"label": "_status",
						"offset": 0,
						"slot": "1",
						"type": "t_uint256"
					},
					{
						"astId": 208,
						"contract": "contracts/BridgewhenCheap.sol:BridgeWhenCheap",
						"label": "executionGasRequirement",
						"offset": 0,
						"slot": "2",
						"type": "t_uint256"
					},
					{
						"astId": 210,
						"contract": "contracts/BridgewhenCheap.sol:BridgeWhenCheap",
						"label": "l2HopBridgeAmmWrapper",
						"offset": 0,
						"slot": "3",
						"type": "t_address"
					},
					{
						"astId": 215,
						"contract": "contracts/BridgewhenCheap.sol:BridgeWhenCheap",
						"label": "requests",
						"offset": 0,
						"slot": "4",
						"type": "t_mapping(t_address,t_struct(BridgeRequest)201_storage)"
					}
				],
				"types": {
					"t_address": {
						"encoding": "inplace",
						"label": "address",
						"numberOfBytes": "20"
					},
					"t_mapping(t_address,t_struct(BridgeRequest)201_storage)": {
						"encoding": "mapping",
						"key": "t_address",
						"label": "mapping(address => struct BridgeRequest)",
						"numberOfBytes": "32",
						"value": "t_struct(BridgeRequest)201_storage"
					},
					"t_struct(BridgeRequest)201_storage": {
						"encoding": "inplace",
						"label": "struct BridgeRequest",
						"members": [
							{
								"astId": 194,
								"contract": "contracts/BridgewhenCheap.sol:BridgeWhenCheap",
								"label": "source",
								"offset": 0,
								"slot": "0",
								"type": "t_address"
							},
							{
								"astId": 196,
								"contract": "contracts/BridgewhenCheap.sol:BridgeWhenCheap",
								"label": "destination",
								"offset": 0,
								"slot": "1",
								"type": "t_address"
							},
							{
								"astId": 198,
								"contract": "contracts/BridgewhenCheap.sol:BridgeWhenCheap",
								"label": "amount",
								"offset": 0,
								"slot": "2",
								"type": "t_uint256"
							},
							{
								"astId": 200,
								"contract": "contracts/BridgewhenCheap.sol:BridgeWhenCheap",
								"label": "wantedL1GasPrice",
								"offset": 0,
								"slot": "3",
								"type": "t_uint256"
							}
						],
						"numberOfBytes": "128"
					},
					"t_uint256": {
						"encoding": "inplace",
						"label": "uint256",
						"numberOfBytes": "32"
					}
				}
			},
			"userdoc": {
				"kind": "user",
				"methods": {},
				"version": 1
			}
		}
	}
}