{
	"data": {
		"bytecode": {
			"linkReferences": {},
			"object": "60806040523480156200001157600080fd5b5060405162002db238038062002db28339818101604052810190620000379190620001e4565b620000576200004b6200008c60201b60201c565b6200009460201b60201c565b60018081905550826002819055508160038190555080600681905550620000836200015860201b60201c565b505050620002e9565b600033905090565b60008060009054906101000a900473ffffffffffffffffffffffffffffffffffffffff169050816000806101000a81548173ffffffffffffffffffffffffffffffffffffffff021916908373ffffffffffffffffffffffffffffffffffffffff1602179055508173ffffffffffffffffffffffffffffffffffffffff168173ffffffffffffffffffffffffffffffffffffffff167f8be0079c531659141344cd1fd0a4f28419497f9722a3daafe3b4186f6b6457e060405160405180910390a35050565b6002546003541015620001a2576040517f08c379a00000000000000000000000000000000000000000000000000000000081526004016200019990620002c7565b60405180910390fd5b565b600080fd5b6000819050919050565b620001be81620001a9565b8114620001ca57600080fd5b50565b600081519050620001de81620001b3565b92915050565b6000806000606084860312156200020057620001ff620001a4565b5b60006200021086828701620001cd565b93505060206200022386828701620001cd565b92505060406200023686828701620001cd565b9150509250925092565b600082825260208201905092915050565b7f5365727669636520666565206d75737420636f766572206174206c656173742060008201527f74686520657865637574696f6e2067617320726571756972656d656e742e0000602082015250565b6000620002af603e8362000240565b9150620002bc8262000251565b604082019050919050565b60006020820190508181036000830152620002e281620002a0565b9050919050565b612ab980620002f96000396000f3fe6080604052600436106100fe5760003560e01c806387d6161b11610095578063a191078a11610064578063a191078a146102e6578063a1f663061461030f578063b65029431461033a578063d043ba1914610365578063f2fde38b1461038e576100fe565b806387d6161b1461024b5780638abdf5aa146102745780638c13bc081461029f5780638da5cb5b146102bb576100fe565b8063488ff1c8116100d1578063488ff1c8146101a9578063715018a6146101ed5780637394e49c146102045780637b1aa45f14610241576100fe565b80631485351e14610103578063242f40461461012c5780632e1a7d4d1461015757806333f707d114610180575b600080fd5b34801561010f57600080fd5b5061012a60048036038101906101259190611b86565b6103b7565b005b34801561013857600080fd5b5061014161050f565b60405161014e9190611bdf565b60405180910390f35b34801561016357600080fd5b5061017e60048036038101906101799190611c26565b610515565b005b34801561018c57600080fd5b506101a760048036038101906101a29190611c26565b61095d565b005b3480156101b557600080fd5b506101d060048036038101906101cb9190611c53565b610a14565b6040516101e4989796959493929190611d1c565b60405180910390f35b3480156101f957600080fd5b50610202610ad6565b005b34801561021057600080fd5b5061022b60048036038101906102269190611d9a565b610aea565b6040516102389190611dc7565b60405180910390f35b610249610b1d565b005b34801561025757600080fd5b50610272600480360381019061026d9190611c26565b610b27565b005b34801561028057600080fd5b50610289610b41565b6040516102969190611bdf565b60405180910390f35b6102b960048036038101906102b49190611de2565b610b47565b005b3480156102c757600080fd5b506102d0611325565b6040516102dd9190611dc7565b60405180910390f35b3480156102f257600080fd5b5061030d60048036038101906103089190611c26565b61134e565b005b34801561031b57600080fd5b50610324611368565b6040516103319190611bdf565b60405180910390f35b34801561034657600080fd5b5061034f61136e565b60405161035c9190611bdf565b60405180910390f35b34801561037157600080fd5b5061038c60048036038101906103879190611e6f565b611374565b005b34801561039a57600080fd5b506103b560048036038101906103b09190611f11565b611810565b005b6103bf611893565b600073ffffffffffffffffffffffffffffffffffffffff16600760008473ffffffffffffffffffffffffffffffffffffffff1673ffffffffffffffffffffffffffffffffffffffff16815260200190815260200160002060009054906101000a900473ffffffffffffffffffffffffffffffffffffffff1673ffffffffffffffffffffffffffffffffffffffff161461048d576040517f08c379a000000000000000000000000000000000000000000000000000000000815260040161048490611f9b565b60405180910390fd5b80600760008473ffffffffffffffffffffffffffffffffffffffff1673ffffffffffffffffffffffffffffffffffffffff16815260200190815260200160002060006101000a81548173ffffffffffffffffffffffffffffffffffffffff021916908373ffffffffffffffffffffffffffffffffffffffff1602179055505050565b60025481565b61051d611911565b6000600560003373ffffffffffffffffffffffffffffffffffffffff1673ffffffffffffffffffffffffffffffffffffffff1681526020019081526020016000206000838152602001908152602001600020604051806101000160405290816000820160009054906101000a900473ffffffffffffffffffffffffffffffffffffffff1673ffffffffffffffffffffffffffffffffffffffff1673ffffffffffffffffffffffffffffffffffffffff1681526020016001820160009054906101000a900473ffffffffffffffffffffffffffffffffffffffff1673ffffffffffffffffffffffffffffffffffffffff1673ffffffffffffffffffffffffffffffffffffffff1681526020016001820160149054906101000a900460ff161515151581526020016002820160009054906101000a900473ffffffffffffffffffffffffffffffffffffffff1673ffffffffffffffffffffffffffffffffffffffff1673ffffffffffffffffffffffffffffffffffffffff16815260200160038201548152602001600482015481526020016005820154815260200160068201548152505090506106cb81611960565b61070a576040517f08c379a000000000000000000000000000000000000000000000000000000000815260040161070190612007565b60405180910390fd5b3373ffffffffffffffffffffffffffffffffffffffff16816000015173ffffffffffffffffffffffffffffffffffffffff161461074a57610749612027565b5b6000808260e0015190508260400151156107755782608001518261076e9190612085565b9150610788565b8260800151816107859190612085565b90505b600560003373ffffffffffffffffffffffffffffffffffffffff1673ffffffffffffffffffffffffffffffffffffffff1681526020019081526020016000206000858152602001908152602001600020600080820160006101000a81549073ffffffffffffffffffffffffffffffffffffffff02191690556001820160006101000a81549073ffffffffffffffffffffffffffffffffffffffff02191690556001820160146101000a81549060ff02191690556002820160006101000a81549073ffffffffffffffffffffffffffffffffffffffff0219169055600382016000905560048201600090556005820160009055600682016000905550503373ffffffffffffffffffffffffffffffffffffffff166108fc829081150290604051600060405180830381858888f193505050506108c257600080fd5b826060015173ffffffffffffffffffffffffffffffffffffffff166323b872dd3033856040518463ffffffff1660e01b8152600401610903939291906120b9565b6020604051808303816000875af1158015610922573d6000803e3d6000fd5b505050506040513d601f19601f82011682018060405250810190610946919061211c565b61094f57600080fd5b50505061095a61199d565b50565b610965611893565b61096d611911565b8060045410156109b2576040517f08c379a00000000000000000000000000000000000000000000000000000000081526004016109a9906121e1565b60405180910390fd5b80600460008282546109c49190612201565b925050819055503373ffffffffffffffffffffffffffffffffffffffff166108fc829081150290604051600060405180830381858888f19350505050610a0957600080fd5b610a1161199d565b50565b6005602052816000526040600020602052806000526040600020600091509150508060000160009054906101000a900473ffffffffffffffffffffffffffffffffffffffff16908060010160009054906101000a900473ffffffffffffffffffffffffffffffffffffffff16908060010160149054906101000a900460ff16908060020160009054906101000a900473ffffffffffffffffffffffffffffffffffffffff16908060030154908060040154908060050154908060060154905088565b610ade611893565b610ae860006119a6565b565b60076020528060005260406000206000915054906101000a900473ffffffffffffffffffffffffffffffffffffffff1681565b610b25611893565b565b610b2f611893565b80600281905550610b3e611a6a565b50565b60035481565b610b4f611911565b600073ffffffffffffffffffffffffffffffffffffffff163373ffffffffffffffffffffffffffffffffffffffff1603610bbe576040517f08c379a0000000000000000000000000000000000000000000000000000000008152600401610bb590612281565b60405180910390fd5b600073ffffffffffffffffffffffffffffffffffffffff168373ffffffffffffffffffffffffffffffffffffffff1603610c2d576040517f08c379a0000000000000000000000000000000000000000000000000000000008152600401610c2490612313565b60405180910390fd5b60008211610c70576040517f08c379a0000000000000000000000000000000000000000000000000000000008152600401610c67906123a5565b60405180910390fd5b600354341015610cb5576040517f08c379a0000000000000000000000000000000000000000000000000000000008152600401610cac90612437565b60405180910390fd5b600080851415905060008115610ddf57600073ffffffffffffffffffffffffffffffffffffffff16600760008973ffffffffffffffffffffffffffffffffffffffff1673ffffffffffffffffffffffffffffffffffffffff16815260200190815260200160002060009054906101000a900473ffffffffffffffffffffffffffffffffffffffff1673ffffffffffffffffffffffffffffffffffffffff1603610d93576040517f08c379a0000000000000000000000000000000000000000000000000000000008152600401610d8a906124a3565b60405180910390fd5b6003543414610dd7576040517f08c379a0000000000000000000000000000000000000000000000000000000008152600401610dce90612535565b60405180910390fd5b859050610e5f565b600073ffffffffffffffffffffffffffffffffffffffff168773ffffffffffffffffffffffffffffffffffffffff1614610e4e576040517f08c379a0000000000000000000000000000000000000000000000000000000008152600401610e45906125c7565b60405180910390fd5b60035434610e5c9190612201565b90505b82811015610ea2576040517f08c379a0000000000000000000000000000000000000000000000000000000008152600401610e999061267f565b60405180910390fd5b61104b600560003373ffffffffffffffffffffffffffffffffffffffff1673ffffffffffffffffffffffffffffffffffffffff16815260200190815260200160002060008a8152602001908152602001600020604051806101000160405290816000820160009054906101000a900473ffffffffffffffffffffffffffffffffffffffff1673ffffffffffffffffffffffffffffffffffffffff1673ffffffffffffffffffffffffffffffffffffffff1681526020016001820160009054906101000a900473ffffffffffffffffffffffffffffffffffffffff1673ffffffffffffffffffffffffffffffffffffffff1673ffffffffffffffffffffffffffffffffffffffff1681526020016001820160149054906101000a900460ff161515151581526020016002820160009054906101000a900473ffffffffffffffffffffffffffffffffffffffff1673ffffffffffffffffffffffffffffffffffffffff1673ffffffffffffffffffffffffffffffffffffffff168152602001600382015481526020016004820154815260200160058201548152602001600682015481525050611960565b1561108b576040517f08c379a000000000000000000000000000000000000000000000000000000000815260040161108290612711565b60405180910390fd5b611093611ab3565b6040518061010001604052803373ffffffffffffffffffffffffffffffffffffffff1681526020018673ffffffffffffffffffffffffffffffffffffffff16815260200183151581526020018873ffffffffffffffffffffffffffffffffffffffff168152602001828152602001848152602001858152602001600254815250600560003373ffffffffffffffffffffffffffffffffffffffff1673ffffffffffffffffffffffffffffffffffffffff16815260200190815260200160002060008a815260200190815260200160002060008201518160000160006101000a81548173ffffffffffffffffffffffffffffffffffffffff021916908373ffffffffffffffffffffffffffffffffffffffff16021790555060208201518160010160006101000a81548173ffffffffffffffffffffffffffffffffffffffff021916908373ffffffffffffffffffffffffffffffffffffffff16021790555060408201518160010160146101000a81548160ff02191690831515021790555060608201518160020160006101000a81548173ffffffffffffffffffffffffffffffffffffffff021916908373ffffffffffffffffffffffffffffffffffffffff1602179055506080820151816003015560a0820151816004015560c0820151816005015560e082015181600601559050508115611313578673ffffffffffffffffffffffffffffffffffffffff166323b872dd3330846040518463ffffffff1660e01b81526004016112c6939291906120b9565b6020604051808303816000875af11580156112e5573d6000803e3d6000fd5b505050506040513d601f19601f82011682018060405250810190611309919061211c565b61131257600080fd5b5b505061131d61199d565b505050505050565b60008060009054906101000a900473ffffffffffffffffffffffffffffffffffffffff16905090565b611356611893565b80600381905550611365611a6a565b50565b60045481565b60065481565b61137c611893565b611384611911565b6000600560008973ffffffffffffffffffffffffffffffffffffffff1673ffffffffffffffffffffffffffffffffffffffff1681526020019081526020016000206000888152602001908152602001600020604051806101000160405290816000820160009054906101000a900473ffffffffffffffffffffffffffffffffffffffff1673ffffffffffffffffffffffffffffffffffffffff1673ffffffffffffffffffffffffffffffffffffffff1681526020016001820160009054906101000a900473ffffffffffffffffffffffffffffffffffffffff1673ffffffffffffffffffffffffffffffffffffffff1673ffffffffffffffffffffffffffffffffffffffff1681526020016001820160149054906101000a900460ff161515151581526020016002820160009054906101000a900473ffffffffffffffffffffffffffffffffffffffff1673ffffffffffffffffffffffffffffffffffffffff1673ffffffffffffffffffffffffffffffffffffffff168152602001600382015481526020016004820154815260200160058201548152602001600682015481525050905061153281611960565b611571576040517f08c379a00000000000000000000000000000000000000000000000000000000081526004016115689061277d565b60405180910390fd5b85816080015110156115b8576040517f08c379a00000000000000000000000000000000000000000000000000000000081526004016115af906127e9565b60405180910390fd5b600081604001516115cd5781608001516115d0565b60005b9050600060076000846060015173ffffffffffffffffffffffffffffffffffffffff1673ffffffffffffffffffffffffffffffffffffffff16815260200190815260200160002060009054906101000a900473ffffffffffffffffffffffffffffffffffffffff169050600560008b73ffffffffffffffffffffffffffffffffffffffff1673ffffffffffffffffffffffffffffffffffffffff16815260200190815260200160002060008a8152602001908152602001600020600080820160006101000a81549073ffffffffffffffffffffffffffffffffffffffff02191690556001820160006101000a81549073ffffffffffffffffffffffffffffffffffffffff02191690556001820160146101000a81549060ff02191690556002820160006101000a81549073ffffffffffffffffffffffffffffffffffffffff0219169055600382016000905560048201600090556005820160009055600682016000905550508073ffffffffffffffffffffffffffffffffffffffff1663eea0d7b283600654866020015187608001518d8d8d8d8d6040518a63ffffffff1660e01b8152600401611788989796959493929190612809565b6000604051808303818588803b1580156117a157600080fd5b505af11580156117b5573d6000803e3d6000fd5b50505050503373ffffffffffffffffffffffffffffffffffffffff166108fc8460e001519081150290604051600060405180830381858888f193505050506117fc57600080fd5b50505061180761199d565b50505050505050565b611818611893565b600073ffffffffffffffffffffffffffffffffffffffff168173ffffffffffffffffffffffffffffffffffffffff1603611887576040517f08c379a000000000000000000000000000000000000000000000000000000000815260040161187e906128f9565b60405180910390fd5b611890816119a6565b50565b61189b611add565b73ffffffffffffffffffffffffffffffffffffffff166118b9611325565b73ffffffffffffffffffffffffffffffffffffffff161461190f576040517f08c379a000000000000000000000000000000000000000000000000000000000815260040161190690612965565b60405180910390fd5b565b600260015403611956576040517f08c379a000000000000000000000000000000000000000000000000000000000815260040161194d906129d1565b60405180910390fd5b6002600181905550565b60008073ffffffffffffffffffffffffffffffffffffffff16826000015173ffffffffffffffffffffffffffffffffffffffff1614159050919050565b60018081905550565b60008060009054906101000a900473ffffffffffffffffffffffffffffffffffffffff169050816000806101000a81548173ffffffffffffffffffffffffffffffffffffffff021916908373ffffffffffffffffffffffffffffffffffffffff1602179055508173ffffffffffffffffffffffffffffffffffffffff168173ffffffffffffffffffffffffffffffffffffffff167f8be0079c531659141344cd1fd0a4f28419497f9722a3daafe3b4186f6b6457e060405160405180910390a35050565b6002546003541015611ab1576040517f08c379a0000000000000000000000000000000000000000000000000000000008152600401611aa890612a63565b60405180910390fd5b565b600254600354611ac39190612201565b60046000828254611ad49190612085565b92505081905550565b600033905090565b600080fd5b600073ffffffffffffffffffffffffffffffffffffffff82169050919050565b6000611b1582611aea565b9050919050565b6000611b2782611b0a565b9050919050565b611b3781611b1c565b8114611b4257600080fd5b50565b600081359050611b5481611b2e565b92915050565b611b6381611b0a565b8114611b6e57600080fd5b50565b600081359050611b8081611b5a565b92915050565b60008060408385031215611b9d57611b9c611ae5565b5b6000611bab85828601611b45565b9250506020611bbc85828601611b71565b9150509250929050565b6000819050919050565b611bd981611bc6565b82525050565b6000602082019050611bf46000830184611bd0565b92915050565b611c0381611bc6565b8114611c0e57600080fd5b50565b600081359050611c2081611bfa565b92915050565b600060208284031215611c3c57611c3b611ae5565b5b6000611c4a84828501611c11565b91505092915050565b60008060408385031215611c6a57611c69611ae5565b5b6000611c7885828601611b71565b9250506020611c8985828601611c11565b9150509250929050565b611c9c81611b0a565b82525050565b60008115159050919050565b611cb781611ca2565b82525050565b6000819050919050565b6000611ce2611cdd611cd884611aea565b611cbd565b611aea565b9050919050565b6000611cf482611cc7565b9050919050565b6000611d0682611ce9565b9050919050565b611d1681611cfb565b82525050565b600061010082019050611d32600083018b611c93565b611d3f602083018a611c93565b611d4c6040830189611cae565b611d596060830188611d0d565b611d666080830187611bd0565b611d7360a0830186611bd0565b611d8060c0830185611bd0565b611d8d60e0830184611bd0565b9998505050505050505050565b600060208284031215611db057611daf611ae5565b5b6000611dbe84828501611b45565b91505092915050565b6000602082019050611ddc6000830184611c93565b92915050565b60008060008060008060c08789031215611dff57611dfe611ae5565b5b6000611e0d89828a01611c11565b9650506020611e1e89828a01611b45565b9550506040611e2f89828a01611c11565b9450506060611e4089828a01611b71565b9350506080611e5189828a01611c11565b92505060a0611e6289828a01611c11565b9150509295509295509295565b600080600080600080600060e0888a031215611e8e57611e8d611ae5565b5b6000611e9c8a828b01611b71565b9750506020611ead8a828b01611c11565b9650506040611ebe8a828b01611c11565b9550506060611ecf8a828b01611c11565b9450506080611ee08a828b01611c11565b93505060a0611ef18a828b01611c11565b92505060c0611f028a828b01611c11565b91505092959891949750929550565b600060208284031215611f2757611f26611ae5565b5b6000611f3584828501611b71565b91505092915050565b600082825260208201905092915050565b7f546f6b656e20616c726561647920737570706f727465642e0000000000000000600082015250565b6000611f85601883611f3e565b9150611f9082611f4f565b602082019050919050565b60006020820190508181036000830152611fb481611f78565b9050919050565b7f4e6f207265717565737420746f2077697468647261772e000000000000000000600082015250565b6000611ff1601783611f3e565b9150611ffc82611fbb565b602082019050919050565b6000602082019050818103600083015261202081611fe4565b9050919050565b7f4e487b7100000000000000000000000000000000000000000000000000000000600052600160045260246000fd5b7f4e487b7100000000000000000000000000000000000000000000000000000000600052601160045260246000fd5b600061209082611bc6565b915061209b83611bc6565b92508282019050808211156120b3576120b2612056565b5b92915050565b60006060820190506120ce6000830186611c93565b6120db6020830185611c93565b6120e86040830184611bd0565b949350505050565b6120f981611ca2565b811461210457600080fd5b50565b600081519050612116816120f0565b92915050565b60006020828403121561213257612131611ae5565b5b600061214084828501612107565b91505092915050565b7f43616e6e6f74207769746864726177206d6f72652066756e6473207468616e2060008201527f74686520636f6c6c6563746564206e6f6e20676173207365727669636520666560208201527f65732e0000000000000000000000000000000000000000000000000000000000604082015250565b60006121cb604383611f3e565b91506121d682612149565b606082019050919050565b600060208201905081810360008301526121fa816121be565b9050919050565b600061220c82611bc6565b915061221783611bc6565b925082820390508181111561222f5761222e612056565b5b92915050565b7f53656e646572206d6179206e6f74206265203020616464726573730000000000600082015250565b600061226b601b83611f3e565b915061227682612235565b602082019050919050565b6000602082019050818103600083015261229a8161225e565b9050919050565b7f44657374696e6174696f6e2061646472657373206d6179206e6f74206265203060008201527f2061646472657373000000000000000000000000000000000000000000000000602082015250565b60006122fd602883611f3e565b9150612308826122a1565b604082019050919050565b6000602082019050818103600083015261232c816122f0565b9050919050565b7f57616e746564204c3120676173207072696365206d757374206265207374726960008201527f63746c7920706f73697469766500000000000000000000000000000000000000602082015250565b600061238f602d83611f3e565b915061239a82612333565b604082019050919050565b600060208201905081810360008301526123be81612382565b9050919050565b7f4e6f7420656e6f7567682066756e647320746f2070617920666f722064656c6160008201527f79656420657865637574696f6e00000000000000000000000000000000000000602082015250565b6000612421602d83611f3e565b915061242c826123c5565b604082019050919050565b6000602082019050818103600083015261245081612414565b9050919050565b7f546f6b656e206973206e6f7420737570706f727465642e000000000000000000600082015250565b600061248d601783611f3e565b915061249882612457565b602082019050919050565b600060208201905081810360008301526124bc81612480565b9050919050565b7f466f7220746f6b656e206465706f736974732c2070617920746865207365727660008201527f696365206665652065786163746c792e00000000000000000000000000000000602082015250565b600061251f603083611f3e565b915061252a826124c3565b604082019050919050565b6000602082019050818103600083015261254e81612512565b9050919050565b7f546f6b656e206d757374206265203020616464726573732c207768656e20646560008201527f706f736974696e67206e61746976652065746865722e00000000000000000000602082015250565b60006125b1603683611f3e565b91506125bc82612555565b604082019050919050565b600060208201905081810360008301526125e0816125a4565b9050919050565b7f43616c63756c617465642073656e7420616d6f756e74206d757374206265206c60008201527f6172676572207468616e207468652064657369726564206d696e696d756d206160208201527f6d6f756e74206172726976696e672061742064657374696e6174696f6e2e0000604082015250565b6000612669605e83611f3e565b9150612674826125e7565b606082019050919050565b600060208201905081810360008301526126988161265c565b9050919050565b7f526571756573742077697468207468652073616d6520696420666f722074686560008201527f20726571756573746f7220616c7265616479206578697374732e000000000000602082015250565b60006126fb603a83611f3e565b91506127068261269f565b604082019050919050565b6000602082019050818103600083015261272a816126ee565b9050919050565b7f4e6f207265717565737420746f2070726f636573730000000000000000000000600082015250565b6000612767601583611f3e565b915061277282612731565b602082019050919050565b600060208201905081810360008301526127968161275a565b9050919050565b7f426f6e646572206665652063616e6e6f742065786365656420616d6f756e742e600082015250565b60006127d3602083611f3e565b91506127de8261279d565b602082019050919050565b60006020820190508181036000830152612802816127c6565b9050919050565b60006101008201905061281f600083018b611bd0565b61282c602083018a611c93565b6128396040830189611bd0565b6128466060830188611bd0565b6128536080830187611bd0565b61286060a0830186611bd0565b61286d60c0830185611bd0565b61287a60e0830184611bd0565b9998505050505050505050565b7f4f776e61626c653a206e6577206f776e657220697320746865207a65726f206160008201527f6464726573730000000000000000000000000000000000000000000000000000602082015250565b60006128e3602683611f3e565b91506128ee82612887565b604082019050919050565b60006020820190508181036000830152612912816128d6565b9050919050565b7f4f776e61626c653a2063616c6c6572206973206e6f7420746865206f776e6572600082015250565b600061294f602083611f3e565b915061295a82612919565b602082019050919050565b6000602082019050818103600083015261297e81612942565b9050919050565b7f5265656e7472616e637947756172643a207265656e7472616e742063616c6c00600082015250565b60006129bb601f83611f3e565b91506129c682612985565b602082019050919050565b600060208201905081810360008301526129ea816129ae565b9050919050565b7f5365727669636520666565206d75737420636f766572206174206c656173742060008201527f74686520657865637574696f6e2067617320726571756972656d656e742e0000602082015250565b6000612a4d603e83611f3e565b9150612a58826129f1565b604082019050919050565b60006020820190508181036000830152612a7c81612a40565b905091905056fea2646970667358221220ba48f8aa38b1c86ec670eb946481a6d592f34aa5a571a6592fdaad6497cd372b64736f6c63430008120033",
			"opcodes": "PUSH1 0x80 PUSH1 0x40 MSTORE CALLVALUE DUP1 ISZERO PUSH3 0x11 JUMPI PUSH1 0x0 DUP1 REVERT JUMPDEST POP PUSH1 0x40 MLOAD PUSH3 0x2DB2 CODESIZE SUB DUP1 PUSH3 0x2DB2 DUP4 CODECOPY DUP2 DUP2 ADD PUSH1 0x40 MSTORE DUP2 ADD SWAP1 PUSH3 0x37 SWAP2 SWAP1 PUSH3 0x1E4 JUMP JUMPDEST PUSH3 0x57 PUSH3 0x4B PUSH3 0x8C PUSH1 0x20 SHL PUSH1 0x20 SHR JUMP JUMPDEST PUSH3 0x94 PUSH1 0x20 SHL PUSH1 0x20 SHR JUMP JUMPDEST PUSH1 0x1 DUP1 DUP2 SWAP1 SSTORE POP DUP3 PUSH1 0x2 DUP2 SWAP1 SSTORE POP DUP2 PUSH1 0x3 DUP2 SWAP1 SSTORE POP DUP1 PUSH1 0x6 DUP2 SWAP1 SSTORE POP PUSH3 0x83 PUSH3 0x158 PUSH1 0x20 SHL PUSH1 0x20 SHR JUMP JUMPDEST POP POP POP PUSH3 0x2E9 JUMP JUMPDEST PUSH1 0x0 CALLER SWAP1 POP SWAP1 JUMP JUMPDEST PUSH1 0x0 DUP1 PUSH1 0x0 SWAP1 SLOAD SWAP1 PUSH2 0x100 EXP SWAP1 DIV PUSH20 0xFFFFFFFFFFFFFFFFFFFFFFFFFFFFFFFFFFFFFFFF AND SWAP1 POP DUP2 PUSH1 0x0 DUP1 PUSH2 0x100 EXP DUP2 SLOAD DUP2 PUSH20 0xFFFFFFFFFFFFFFFFFFFFFFFFFFFFFFFFFFFFFFFF MUL NOT AND SWAP1 DUP4 PUSH20 0xFFFFFFFFFFFFFFFFFFFFFFFFFFFFFFFFFFFFFFFF AND MUL OR SWAP1 SSTORE POP DUP2 PUSH20 0xFFFFFFFFFFFFFFFFFFFFFFFFFFFFFFFFFFFFFFFF AND DUP2 PUSH20 0xFFFFFFFFFFFFFFFFFFFFFFFFFFFFFFFFFFFFFFFF AND PUSH32 0x8BE0079C531659141344CD1FD0A4F28419497F9722A3DAAFE3B4186F6B6457E0 PUSH1 0x40 MLOAD PUSH1 0x40 MLOAD DUP1 SWAP2 SUB SWAP1 LOG3 POP POP JUMP JUMPDEST PUSH1 0x2 SLOAD PUSH1 0x3 SLOAD LT ISZERO PUSH3 0x1A2 JUMPI PUSH1 0x40 MLOAD PUSH32 0x8C379A000000000000000000000000000000000000000000000000000000000 DUP2 MSTORE PUSH1 0x4 ADD PUSH3 0x199 SWAP1 PUSH3 0x2C7 JUMP JUMPDEST PUSH1 0x40 MLOAD DUP1 SWAP2 SUB SWAP1 REVERT JUMPDEST JUMP JUMPDEST PUSH1 0x0 DUP1 REVERT JUMPDEST PUSH1 0x0 DUP2 SWAP1 POP SWAP2 SWAP1 POP JUMP JUMPDEST PUSH3 0x1BE DUP2 PUSH3 0x1A9 JUMP JUMPDEST DUP2 EQ PUSH3 0x1CA JUMPI PUSH1 0x0 DUP1 REVERT JUMPDEST POP JUMP JUMPDEST PUSH1 0x0 DUP2 MLOAD SWAP1 POP PUSH3 0x1DE DUP2 PUSH3 0x1B3 JUMP JUMPDEST SWAP3 SWAP2 POP POP JUMP JUMPDEST PUSH1 0x0 DUP1 PUSH1 0x0 PUSH1 0x60 DUP5 DUP7 SUB SLT ISZERO PUSH3 0x200 JUMPI PUSH3 0x1FF PUSH3 0x1A4 JUMP JUMPDEST JUMPDEST PUSH1 0x0 PUSH3 0x210 DUP7 DUP3 DUP8 ADD PUSH3 0x1CD JUMP JUMPDEST SWAP4 POP POP PUSH1 0x20 PUSH3 0x223 DUP7 DUP3 DUP8 ADD PUSH3 0x1CD JUMP JUMPDEST SWAP3 POP POP PUSH1 0x40 PUSH3 0x236 DUP7 DUP3 DUP8 ADD PUSH3 0x1CD JUMP JUMPDEST SWAP2 POP POP SWAP3 POP SWAP3 POP SWAP3 JUMP JUMPDEST PUSH1 0x0 DUP3 DUP3 MSTORE PUSH1 0x20 DUP3 ADD SWAP1 POP SWAP3 SWAP2 POP POP JUMP JUMPDEST PUSH32 0x5365727669636520666565206D75737420636F766572206174206C6561737420 PUSH1 0x0 DUP3 ADD MSTORE PUSH32 0x74686520657865637574696F6E2067617320726571756972656D656E742E0000 PUSH1 0x20 DUP3 ADD MSTORE POP JUMP JUMPDEST PUSH1 0x0 PUSH3 0x2AF PUSH1 0x3E DUP4 PUSH3 0x240 JUMP JUMPDEST SWAP2 POP PUSH3 0x2BC DUP3 PUSH3 0x251 JUMP JUMPDEST PUSH1 0x40 DUP3 ADD SWAP1 POP SWAP2 SWAP1 POP JUMP JUMPDEST PUSH1 0x0 PUSH1 0x20 DUP3 ADD SWAP1 POP DUP2 DUP2 SUB PUSH1 0x0 DUP4 ADD MSTORE PUSH3 0x2E2 DUP2 PUSH3 0x2A0 JUMP JUMPDEST SWAP1 POP SWAP2 SWAP1 POP JUMP JUMPDEST PUSH2 0x2AB9 DUP1 PUSH3 0x2F9 PUSH1 0x0 CODECOPY PUSH1 0x0 RETURN INVALID PUSH1 0x80 PUSH1 0x40 MSTORE PUSH1 0x4 CALLDATASIZE LT PUSH2 0xFE JUMPI PUSH1 0x0 CALLDATALOAD PUSH1 0xE0 SHR DUP1 PUSH4 0x87D6161B GT PUSH2 0x95 JUMPI DUP1 PUSH4 0xA191078A GT PUSH2 0x64 JUMPI DUP1 PUSH4 0xA191078A EQ PUSH2 0x2E6 JUMPI DUP1 PUSH4 0xA1F66306 EQ PUSH2 0x30F JUMPI DUP1 PUSH4 0xB6502943 EQ PUSH2 0x33A JUMPI DUP1 PUSH4 0xD043BA19 EQ PUSH2 0x365 JUMPI DUP1 PUSH4 0xF2FDE38B EQ PUSH2 0x38E JUMPI PUSH2 0xFE JUMP JUMPDEST DUP1 PUSH4 0x87D6161B EQ PUSH2 0x24B JUMPI DUP1 PUSH4 0x8ABDF5AA EQ PUSH2 0x274 JUMPI DUP1 PUSH4 0x8C13BC08 EQ PUSH2 0x29F JUMPI DUP1 PUSH4 0x8DA5CB5B EQ PUSH2 0x2BB JUMPI PUSH2 0xFE JUMP JUMPDEST DUP1 PUSH4 0x488FF1C8 GT PUSH2 0xD1 JUMPI DUP1 PUSH4 0x488FF1C8 EQ PUSH2 0x1A9 JUMPI DUP1 PUSH4 0x715018A6 EQ PUSH2 0x1ED JUMPI DUP1 PUSH4 0x7394E49C EQ PUSH2 0x204 JUMPI DUP1 PUSH4 0x7B1AA45F EQ PUSH2 0x241 JUMPI PUSH2 0xFE JUMP JUMPDEST DUP1 PUSH4 0x1485351E EQ PUSH2 0x103 JUMPI DUP1 PUSH4 0x242F4046 EQ PUSH2 0x12C JUMPI DUP1 PUSH4 0x2E1A7D4D EQ PUSH2 0x157 JUMPI DUP1 PUSH4 0x33F707D1 EQ PUSH2 0x180 JUMPI JUMPDEST PUSH1 0x0 DUP1 REVERT JUMPDEST CALLVALUE DUP1 ISZERO PUSH2 0x10F JUMPI PUSH1 0x0 DUP1 REVERT JUMPDEST POP PUSH2 0x12A PUSH1 0x4 DUP1 CALLDATASIZE SUB DUP2 ADD SWAP1 PUSH2 0x125 SWAP2 SWAP1 PUSH2 0x1B86 JUMP JUMPDEST PUSH2 0x3B7 JUMP JUMPDEST STOP JUMPDEST CALLVALUE DUP1 ISZERO PUSH2 0x138 JUMPI PUSH1 0x0 DUP1 REVERT JUMPDEST POP PUSH2 0x141 PUSH2 0x50F JUMP JUMPDEST PUSH1 0x40 MLOAD PUSH2 0x14E SWAP2 SWAP1 PUSH2 0x1BDF JUMP JUMPDEST PUSH1 0x40 MLOAD DUP1 SWAP2 SUB SWAP1 RETURN JUMPDEST CALLVALUE DUP1 ISZERO PUSH2 0x163 JUMPI PUSH1 0x0 DUP1 REVERT JUMPDEST POP PUSH2 0x17E PUSH1 0x4 DUP1 CALLDATASIZE SUB DUP2 ADD SWAP1 PUSH2 0x179 SWAP2 SWAP1 PUSH2 0x1C26 JUMP JUMPDEST PUSH2 0x515 JUMP JUMPDEST STOP JUMPDEST CALLVALUE DUP1 ISZERO PUSH2 0x18C JUMPI PUSH1 0x0 DUP1 REVERT JUMPDEST POP PUSH2 0x1A7 PUSH1 0x4 DUP1 CALLDATASIZE SUB DUP2 ADD SWAP1 PUSH2 0x1A2 SWAP2 SWAP1 PUSH2 0x1C26 JUMP JUMPDEST PUSH2 0x95D JUMP JUMPDEST STOP JUMPDEST CALLVALUE DUP1 ISZERO PUSH2 0x1B5 JUMPI PUSH1 0x0 DUP1 REVERT JUMPDEST POP PUSH2 0x1D0 PUSH1 0x4 DUP1 CALLDATASIZE SUB DUP2 ADD SWAP1 PUSH2 0x1CB SWAP2 SWAP1 PUSH2 0x1C53 JUMP JUMPDEST PUSH2 0xA14 JUMP JUMPDEST PUSH1 0x40 MLOAD PUSH2 0x1E4 SWAP9 SWAP8 SWAP7 SWAP6 SWAP5 SWAP4 SWAP3 SWAP2 SWAP1 PUSH2 0x1D1C JUMP JUMPDEST PUSH1 0x40 MLOAD DUP1 SWAP2 SUB SWAP1 RETURN JUMPDEST CALLVALUE DUP1 ISZERO PUSH2 0x1F9 JUMPI PUSH1 0x0 DUP1 REVERT JUMPDEST POP PUSH2 0x202 PUSH2 0xAD6 JUMP JUMPDEST STOP JUMPDEST CALLVALUE DUP1 ISZERO PUSH2 0x210 JUMPI PUSH1 0x0 DUP1 REVERT JUMPDEST POP PUSH2 0x22B PUSH1 0x4 DUP1 CALLDATASIZE SUB DUP2 ADD SWAP1 PUSH2 0x226 SWAP2 SWAP1 PUSH2 0x1D9A JUMP JUMPDEST PUSH2 0xAEA JUMP JUMPDEST PUSH1 0x40 MLOAD PUSH2 0x238 SWAP2 SWAP1 PUSH2 0x1DC7 JUMP JUMPDEST PUSH1 0x40 MLOAD DUP1 SWAP2 SUB SWAP1 RETURN JUMPDEST PUSH2 0x249 PUSH2 0xB1D JUMP JUMPDEST STOP JUMPDEST CALLVALUE DUP1 ISZERO PUSH2 0x257 JUMPI PUSH1 0x0 DUP1 REVERT JUMPDEST POP PUSH2 0x272 PUSH1 0x4 DUP1 CALLDATASIZE SUB DUP2 ADD SWAP1 PUSH2 0x26D SWAP2 SWAP1 PUSH2 0x1C26 JUMP JUMPDEST PUSH2 0xB27 JUMP JUMPDEST STOP JUMPDEST CALLVALUE DUP1 ISZERO PUSH2 0x280 JUMPI PUSH1 0x0 DUP1 REVERT JUMPDEST POP PUSH2 0x289 PUSH2 0xB41 JUMP JUMPDEST PUSH1 0x40 MLOAD PUSH2 0x296 SWAP2 SWAP1 PUSH2 0x1BDF JUMP JUMPDEST PUSH1 0x40 MLOAD DUP1 SWAP2 SUB SWAP1 RETURN JUMPDEST PUSH2 0x2B9 PUSH1 0x4 DUP1 CALLDATASIZE SUB DUP2 ADD SWAP1 PUSH2 0x2B4 SWAP2 SWAP1 PUSH2 0x1DE2 JUMP JUMPDEST PUSH2 0xB47 JUMP JUMPDEST STOP JUMPDEST CALLVALUE DUP1 ISZERO PUSH2 0x2C7 JUMPI PUSH1 0x0 DUP1 REVERT JUMPDEST POP PUSH2 0x2D0 PUSH2 0x1325 JUMP JUMPDEST PUSH1 0x40 MLOAD PUSH2 0x2DD SWAP2 SWAP1 PUSH2 0x1DC7 JUMP JUMPDEST PUSH1 0x40 MLOAD DUP1 SWAP2 SUB SWAP1 RETURN JUMPDEST CALLVALUE DUP1 ISZERO PUSH2 0x2F2 JUMPI PUSH1 0x0 DUP1 REVERT JUMPDEST POP PUSH2 0x30D PUSH1 0x4 DUP1 CALLDATASIZE SUB DUP2 ADD SWAP1 PUSH2 0x308 SWAP2 SWAP1 PUSH2 0x1C26 JUMP JUMPDEST PUSH2 0x134E JUMP JUMPDEST STOP JUMPDEST CALLVALUE DUP1 ISZERO PUSH2 0x31B JUMPI PUSH1 0x0 DUP1 REVERT JUMPDEST POP PUSH2 0x324 PUSH2 0x1368 JUMP JUMPDEST PUSH1 0x40 MLOAD PUSH2 0x331 SWAP2 SWAP1 PUSH2 0x1BDF JUMP JUMPDEST PUSH1 0x40 MLOAD DUP1 SWAP2 SUB SWAP1 RETURN JUMPDEST CALLVALUE DUP1 ISZERO PUSH2 0x346 JUMPI PUSH1 0x0 DUP1 REVERT JUMPDEST POP PUSH2 0x34F PUSH2 0x136E JUMP JUMPDEST PUSH1 0x40 MLOAD PUSH2 0x35C SWAP2 SWAP1 PUSH2 0x1BDF JUMP JUMPDEST PUSH1 0x40 MLOAD DUP1 SWAP2 SUB SWAP1 RETURN JUMPDEST CALLVALUE DUP1 ISZERO PUSH2 0x371 JUMPI PUSH1 0x0 DUP1 REVERT JUMPDEST POP PUSH2 0x38C PUSH1 0x4 DUP1 CALLDATASIZE SUB DUP2 ADD SWAP1 PUSH2 0x387 SWAP2 SWAP1 PUSH2 0x1E6F JUMP JUMPDEST PUSH2 0x1374 JUMP JUMPDEST STOP JUMPDEST CALLVALUE DUP1 ISZERO PUSH2 0x39A JUMPI PUSH1 0x0 DUP1 REVERT JUMPDEST POP PUSH2 0x3B5 PUSH1 0x4 DUP1 CALLDATASIZE SUB DUP2 ADD SWAP1 PUSH2 0x3B0 SWAP2 SWAP1 PUSH2 0x1F11 JUMP JUMPDEST PUSH2 0x1810 JUMP JUMPDEST STOP JUMPDEST PUSH2 0x3BF PUSH2 0x1893 JUMP JUMPDEST PUSH1 0x0 PUSH20 0xFFFFFFFFFFFFFFFFFFFFFFFFFFFFFFFFFFFFFFFF AND PUSH1 0x7 PUSH1 0x0 DUP5 PUSH20 0xFFFFFFFFFFFFFFFFFFFFFFFFFFFFFFFFFFFFFFFF AND PUSH20 0xFFFFFFFFFFFFFFFFFFFFFFFFFFFFFFFFFFFFFFFF AND DUP2 MSTORE PUSH1 0x20 ADD SWAP1 DUP2 MSTORE PUSH1 0x20 ADD PUSH1 0x0 KECCAK256 PUSH1 0x0 SWAP1 SLOAD SWAP1 PUSH2 0x100 EXP SWAP1 DIV PUSH20 0xFFFFFFFFFFFFFFFFFFFFFFFFFFFFFFFFFFFFFFFF AND PUSH20 0xFFFFFFFFFFFFFFFFFFFFFFFFFFFFFFFFFFFFFFFF AND EQ PUSH2 0x48D JUMPI PUSH1 0x40 MLOAD PUSH32 0x8C379A000000000000000000000000000000000000000000000000000000000 DUP2 MSTORE PUSH1 0x4 ADD PUSH2 0x484 SWAP1 PUSH2 0x1F9B JUMP JUMPDEST PUSH1 0x40 MLOAD DUP1 SWAP2 SUB SWAP1 REVERT JUMPDEST DUP1 PUSH1 0x7 PUSH1 0x0 DUP5 PUSH20 0xFFFFFFFFFFFFFFFFFFFFFFFFFFFFFFFFFFFFFFFF AND PUSH20 0xFFFFFFFFFFFFFFFFFFFFFFFFFFFFFFFFFFFFFFFF AND DUP2 MSTORE PUSH1 0x20 ADD SWAP1 DUP2 MSTORE PUSH1 0x20 ADD PUSH1 0x0 KECCAK256 PUSH1 0x0 PUSH2 0x100 EXP DUP2 SLOAD DUP2 PUSH20 0xFFFFFFFFFFFFFFFFFFFFFFFFFFFFFFFFFFFFFFFF MUL NOT AND SWAP1 DUP4 PUSH20 0xFFFFFFFFFFFFFFFFFFFFFFFFFFFFFFFFFFFFFFFF AND MUL OR SWAP1 SSTORE POP POP POP JUMP JUMPDEST PUSH1 0x2 SLOAD DUP2 JUMP JUMPDEST PUSH2 0x51D PUSH2 0x1911 JUMP JUMPDEST PUSH1 0x0 PUSH1 0x5 PUSH1 0x0 CALLER PUSH20 0xFFFFFFFFFFFFFFFFFFFFFFFFFFFFFFFFFFFFFFFF AND PUSH20 0xFFFFFFFFFFFFFFFFFFFFFFFFFFFFFFFFFFFFFFFF AND DUP2 MSTORE PUSH1 0x20 ADD SWAP1 DUP2 MSTORE PUSH1 0x20 ADD PUSH1 0x0 KECCAK256 PUSH1 0x0 DUP4 DUP2 MSTORE PUSH1 0x20 ADD SWAP1 DUP2 MSTORE PUSH1 0x20 ADD PUSH1 0x0 KECCAK256 PUSH1 0x40 MLOAD DUP1 PUSH2 0x100 ADD PUSH1 0x40 MSTORE SWAP1 DUP2 PUSH1 0x0 DUP3 ADD PUSH1 0x0 SWAP1 SLOAD SWAP1 PUSH2 0x100 EXP SWAP1 DIV PUSH20 0xFFFFFFFFFFFFFFFFFFFFFFFFFFFFFFFFFFFFFFFF AND PUSH20 0xFFFFFFFFFFFFFFFFFFFFFFFFFFFFFFFFFFFFFFFF AND PUSH20 0xFFFFFFFFFFFFFFFFFFFFFFFFFFFFFFFFFFFFFFFF AND DUP2 MSTORE PUSH1 0x20 ADD PUSH1 0x1 DUP3 ADD PUSH1 0x0 SWAP1 SLOAD SWAP1 PUSH2 0x100 EXP SWAP1 DIV PUSH20 0xFFFFFFFFFFFFFFFFFFFFFFFFFFFFFFFFFFFFFFFF AND PUSH20 0xFFFFFFFFFFFFFFFFFFFFFFFFFFFFFFFFFFFFFFFF AND PUSH20 0xFFFFFFFFFFFFFFFFFFFFFFFFFFFFFFFFFFFFFFFF AND DUP2 MSTORE PUSH1 0x20 ADD PUSH1 0x1 DUP3 ADD PUSH1 0x14 SWAP1 SLOAD SWAP1 PUSH2 0x100 EXP SWAP1 DIV PUSH1 0xFF AND ISZERO ISZERO ISZERO ISZERO DUP2 MSTORE PUSH1 0x20 ADD PUSH1 0x2 DUP3 ADD PUSH1 0x0 SWAP1 SLOAD SWAP1 PUSH2 0x100 EXP SWAP1 DIV PUSH20 0xFFFFFFFFFFFFFFFFFFFFFFFFFFFFFFFFFFFFFFFF AND PUSH20 0xFFFFFFFFFFFFFFFFFFFFFFFFFFFFFFFFFFFFFFFF AND PUSH20 0xFFFFFFFFFFFFFFFFFFFFFFFFFFFFFFFFFFFFFFFF AND DUP2 MSTORE PUSH1 0x20 ADD PUSH1 0x3 DUP3 ADD SLOAD DUP2 MSTORE PUSH1 0x20 ADD PUSH1 0x4 DUP3 ADD SLOAD DUP2 MSTORE PUSH1 0x20 ADD PUSH1 0x5 DUP3 ADD SLOAD DUP2 MSTORE PUSH1 0x20 ADD PUSH1 0x6 DUP3 ADD SLOAD DUP2 MSTORE POP POP SWAP1 POP PUSH2 0x6CB DUP2 PUSH2 0x1960 JUMP JUMPDEST PUSH2 0x70A JUMPI PUSH1 0x40 MLOAD PUSH32 0x8C379A000000000000000000000000000000000000000000000000000000000 DUP2 MSTORE PUSH1 0x4 ADD PUSH2 0x701 SWAP1 PUSH2 0x2007 JUMP JUMPDEST PUSH1 0x40 MLOAD DUP1 SWAP2 SUB SWAP1 REVERT JUMPDEST CALLER PUSH20 0xFFFFFFFFFFFFFFFFFFFFFFFFFFFFFFFFFFFFFFFF AND DUP2 PUSH1 0x0 ADD MLOAD PUSH20 0xFFFFFFFFFFFFFFFFFFFFFFFFFFFFFFFFFFFFFFFF AND EQ PUSH2 0x74A JUMPI PUSH2 0x749 PUSH2 0x2027 JUMP JUMPDEST JUMPDEST PUSH1 0x0 DUP1 DUP3 PUSH1 0xE0 ADD MLOAD SWAP1 POP DUP3 PUSH1 0x40 ADD MLOAD ISZERO PUSH2 0x775 JUMPI DUP3 PUSH1 0x80 ADD MLOAD DUP3 PUSH2 0x76E SWAP2 SWAP1 PUSH2 0x2085 JUMP JUMPDEST SWAP2 POP PUSH2 0x788 JUMP JUMPDEST DUP3 PUSH1 0x80 ADD MLOAD DUP2 PUSH2 0x785 SWAP2 SWAP1 PUSH2 0x2085 JUMP JUMPDEST SWAP1 POP JUMPDEST PUSH1 0x5 PUSH1 0x0 CALLER PUSH20 0xFFFFFFFFFFFFFFFFFFFFFFFFFFFFFFFFFFFFFFFF AND PUSH20 0xFFFFFFFFFFFFFFFFFFFFFFFFFFFFFFFFFFFFFFFF AND DUP2 MSTORE PUSH1 0x20 ADD SWAP1 DUP2 MSTORE PUSH1 0x20 ADD PUSH1 0x0 KECCAK256 PUSH1 0x0 DUP6 DUP2 MSTORE PUSH1 0x20 ADD SWAP1 DUP2 MSTORE PUSH1 0x20 ADD PUSH1 0x0 KECCAK256 PUSH1 0x0 DUP1 DUP3 ADD PUSH1 0x0 PUSH2 0x100 EXP DUP2 SLOAD SWAP1 PUSH20 0xFFFFFFFFFFFFFFFFFFFFFFFFFFFFFFFFFFFFFFFF MUL NOT AND SWAP1 SSTORE PUSH1 0x1 DUP3 ADD PUSH1 0x0 PUSH2 0x100 EXP DUP2 SLOAD SWAP1 PUSH20 0xFFFFFFFFFFFFFFFFFFFFFFFFFFFFFFFFFFFFFFFF MUL NOT AND SWAP1 SSTORE PUSH1 0x1 DUP3 ADD PUSH1 0x14 PUSH2 0x100 EXP DUP2 SLOAD SWAP1 PUSH1 0xFF MUL NOT AND SWAP1 SSTORE PUSH1 0x2 DUP3 ADD PUSH1 0x0 PUSH2 0x100 EXP DUP2 SLOAD SWAP1 PUSH20 0xFFFFFFFFFFFFFFFFFFFFFFFFFFFFFFFFFFFFFFFF MUL NOT AND SWAP1 SSTORE PUSH1 0x3 DUP3 ADD PUSH1 0x0 SWAP1 SSTORE PUSH1 0x4 DUP3 ADD PUSH1 0x0 SWAP1 SSTORE PUSH1 0x5 DUP3 ADD PUSH1 0x0 SWAP1 SSTORE PUSH1 0x6 DUP3 ADD PUSH1 0x0 SWAP1 SSTORE POP POP CALLER PUSH20 0xFFFFFFFFFFFFFFFFFFFFFFFFFFFFFFFFFFFFFFFF AND PUSH2 0x8FC DUP3 SWAP1 DUP2 ISZERO MUL SWAP1 PUSH1 0x40 MLOAD PUSH1 0x0 PUSH1 0x40 MLOAD DUP1 DUP4 SUB DUP2 DUP6 DUP9 DUP9 CALL SWAP4 POP POP POP POP PUSH2 0x8C2 JUMPI PUSH1 0x0 DUP1 REVERT JUMPDEST DUP3 PUSH1 0x60 ADD MLOAD PUSH20 0xFFFFFFFFFFFFFFFFFFFFFFFFFFFFFFFFFFFFFFFF AND PUSH4 0x23B872DD ADDRESS CALLER DUP6 PUSH1 0x40 MLOAD DUP5 PUSH4 0xFFFFFFFF AND PUSH1 0xE0 SHL DUP2 MSTORE PUSH1 0x4 ADD PUSH2 0x903 SWAP4 SWAP3 SWAP2 SWAP1 PUSH2 0x20B9 JUMP JUMPDEST PUSH1 0x20 PUSH1 0x40 MLOAD DUP1 DUP4 SUB DUP2 PUSH1 0x0 DUP8 GAS CALL ISZERO DUP1 ISZERO PUSH2 0x922 JUMPI RETURNDATASIZE PUSH1 0x0 DUP1 RETURNDATACOPY RETURNDATASIZE PUSH1 0x0 REVERT JUMPDEST POP POP POP POP PUSH1 0x40 MLOAD RETURNDATASIZE PUSH1 0x1F NOT PUSH1 0x1F DUP3 ADD AND DUP3 ADD DUP1 PUSH1 0x40 MSTORE POP DUP2 ADD SWAP1 PUSH2 0x946 SWAP2 SWAP1 PUSH2 0x211C JUMP JUMPDEST PUSH2 0x94F JUMPI PUSH1 0x0 DUP1 REVERT JUMPDEST POP POP POP PUSH2 0x95A PUSH2 0x199D JUMP JUMPDEST POP JUMP JUMPDEST PUSH2 0x965 PUSH2 0x1893 JUMP JUMPDEST PUSH2 0x96D PUSH2 0x1911 JUMP JUMPDEST DUP1 PUSH1 0x4 SLOAD LT ISZERO PUSH2 0x9B2 JUMPI PUSH1 0x40 MLOAD PUSH32 0x8C379A000000000000000000000000000000000000000000000000000000000 DUP2 MSTORE PUSH1 0x4 ADD PUSH2 0x9A9 SWAP1 PUSH2 0x21E1 JUMP JUMPDEST PUSH1 0x40 MLOAD DUP1 SWAP2 SUB SWAP1 REVERT JUMPDEST DUP1 PUSH1 0x4 PUSH1 0x0 DUP3 DUP3 SLOAD PUSH2 0x9C4 SWAP2 SWAP1 PUSH2 0x2201 JUMP JUMPDEST SWAP3 POP POP DUP2 SWAP1 SSTORE POP CALLER PUSH20 0xFFFFFFFFFFFFFFFFFFFFFFFFFFFFFFFFFFFFFFFF AND PUSH2 0x8FC DUP3 SWAP1 DUP2 ISZERO MUL SWAP1 PUSH1 0x40 MLOAD PUSH1 0x0 PUSH1 0x40 MLOAD DUP1 DUP4 SUB DUP2 DUP6 DUP9 DUP9 CALL SWAP4 POP POP POP POP PUSH2 0xA09 JUMPI PUSH1 0x0 DUP1 REVERT JUMPDEST PUSH2 0xA11 PUSH2 0x199D JUMP JUMPDEST POP JUMP JUMPDEST PUSH1 0x5 PUSH1 0x20 MSTORE DUP2 PUSH1 0x0 MSTORE PUSH1 0x40 PUSH1 0x0 KECCAK256 PUSH1 0x20 MSTORE DUP1 PUSH1 0x0 MSTORE PUSH1 0x40 PUSH1 0x0 KECCAK256 PUSH1 0x0 SWAP2 POP SWAP2 POP POP DUP1 PUSH1 0x0 ADD PUSH1 0x0 SWAP1 SLOAD SWAP1 PUSH2 0x100 EXP SWAP1 DIV PUSH20 0xFFFFFFFFFFFFFFFFFFFFFFFFFFFFFFFFFFFFFFFF AND SWAP1 DUP1 PUSH1 0x1 ADD PUSH1 0x0 SWAP1 SLOAD SWAP1 PUSH2 0x100 EXP SWAP1 DIV PUSH20 0xFFFFFFFFFFFFFFFFFFFFFFFFFFFFFFFFFFFFFFFF AND SWAP1 DUP1 PUSH1 0x1 ADD PUSH1 0x14 SWAP1 SLOAD SWAP1 PUSH2 0x100 EXP SWAP1 DIV PUSH1 0xFF AND SWAP1 DUP1 PUSH1 0x2 ADD PUSH1 0x0 SWAP1 SLOAD SWAP1 PUSH2 0x100 EXP SWAP1 DIV PUSH20 0xFFFFFFFFFFFFFFFFFFFFFFFFFFFFFFFFFFFFFFFF AND SWAP1 DUP1 PUSH1 0x3 ADD SLOAD SWAP1 DUP1 PUSH1 0x4 ADD SLOAD SWAP1 DUP1 PUSH1 0x5 ADD SLOAD SWAP1 DUP1 PUSH1 0x6 ADD SLOAD SWAP1 POP DUP9 JUMP JUMPDEST PUSH2 0xADE PUSH2 0x1893 JUMP JUMPDEST PUSH2 0xAE8 PUSH1 0x0 PUSH2 0x19A6 JUMP JUMPDEST JUMP JUMPDEST PUSH1 0x7 PUSH1 0x20 MSTORE DUP1 PUSH1 0x0 MSTORE PUSH1 0x40 PUSH1 0x0 KECCAK256 PUSH1 0x0 SWAP2 POP SLOAD SWAP1 PUSH2 0x100 EXP SWAP1 DIV PUSH20 0xFFFFFFFFFFFFFFFFFFFFFFFFFFFFFFFFFFFFFFFF AND DUP2 JUMP JUMPDEST PUSH2 0xB25 PUSH2 0x1893 JUMP JUMPDEST JUMP JUMPDEST PUSH2 0xB2F PUSH2 0x1893 JUMP JUMPDEST DUP1 PUSH1 0x2 DUP2 SWAP1 SSTORE POP PUSH2 0xB3E PUSH2 0x1A6A JUMP JUMPDEST POP JUMP JUMPDEST PUSH1 0x3 SLOAD DUP2 JUMP JUMPDEST PUSH2 0xB4F PUSH2 0x1911 JUMP JUMPDEST PUSH1 0x0 PUSH20 0xFFFFFFFFFFFFFFFFFFFFFFFFFFFFFFFFFFFFFFFF AND CALLER PUSH20 0xFFFFFFFFFFFFFFFFFFFFFFFFFFFFFFFFFFFFFFFF AND SUB PUSH2 0xBBE JUMPI PUSH1 0x40 MLOAD PUSH32 0x8C379A000000000000000000000000000000000000000000000000000000000 DUP2 MSTORE PUSH1 0x4 ADD PUSH2 0xBB5 SWAP1 PUSH2 0x2281 JUMP JUMPDEST PUSH1 0x40 MLOAD DUP1 SWAP2 SUB SWAP1 REVERT JUMPDEST PUSH1 0x0 PUSH20 0xFFFFFFFFFFFFFFFFFFFFFFFFFFFFFFFFFFFFFFFF AND DUP4 PUSH20 0xFFFFFFFFFFFFFFFFFFFFFFFFFFFFFFFFFFFFFFFF AND SUB PUSH2 0xC2D JUMPI PUSH1 0x40 MLOAD PUSH32 0x8C379A000000000000000000000000000000000000000000000000000000000 DUP2 MSTORE PUSH1 0x4 ADD PUSH2 0xC24 SWAP1 PUSH2 0x2313 JUMP JUMPDEST PUSH1 0x40 MLOAD DUP1 SWAP2 SUB SWAP1 REVERT JUMPDEST PUSH1 0x0 DUP3 GT PUSH2 0xC70 JUMPI PUSH1 0x40 MLOAD PUSH32 0x8C379A000000000000000000000000000000000000000000000000000000000 DUP2 MSTORE PUSH1 0x4 ADD PUSH2 0xC67 SWAP1 PUSH2 0x23A5 JUMP JUMPDEST PUSH1 0x40 MLOAD DUP1 SWAP2 SUB SWAP1 REVERT JUMPDEST PUSH1 0x3 SLOAD CALLVALUE LT ISZERO PUSH2 0xCB5 JUMPI PUSH1 0x40 MLOAD PUSH32 0x8C379A000000000000000000000000000000000000000000000000000000000 DUP2 MSTORE PUSH1 0x4 ADD PUSH2 0xCAC SWAP1 PUSH2 0x2437 JUMP JUMPDEST PUSH1 0x40 MLOAD DUP1 SWAP2 SUB SWAP1 REVERT JUMPDEST PUSH1 0x0 DUP1 DUP6 EQ ISZERO SWAP1 POP PUSH1 0x0 DUP2 ISZERO PUSH2 0xDDF JUMPI PUSH1 0x0 PUSH20 0xFFFFFFFFFFFFFFFFFFFFFFFFFFFFFFFFFFFFFFFF AND PUSH1 0x7 PUSH1 0x0 DUP10 PUSH20 0xFFFFFFFFFFFFFFFFFFFFFFFFFFFFFFFFFFFFFFFF AND PUSH20 0xFFFFFFFFFFFFFFFFFFFFFFFFFFFFFFFFFFFFFFFF AND DUP2 MSTORE PUSH1 0x20 ADD SWAP1 DUP2 MSTORE PUSH1 0x20 ADD PUSH1 0x0 KECCAK256 PUSH1 0x0 SWAP1 SLOAD SWAP1 PUSH2 0x100 EXP SWAP1 DIV PUSH20 0xFFFFFFFFFFFFFFFFFFFFFFFFFFFFFFFFFFFFFFFF AND PUSH20 0xFFFFFFFFFFFFFFFFFFFFFFFFFFFFFFFFFFFFFFFF AND SUB PUSH2 0xD93 JUMPI PUSH1 0x40 MLOAD PUSH32 0x8C379A000000000000000000000000000000000000000000000000000000000 DUP2 MSTORE PUSH1 0x4 ADD PUSH2 0xD8A SWAP1 PUSH2 0x24A3 JUMP JUMPDEST PUSH1 0x40 MLOAD DUP1 SWAP2 SUB SWAP1 REVERT JUMPDEST PUSH1 0x3 SLOAD CALLVALUE EQ PUSH2 0xDD7 JUMPI PUSH1 0x40 MLOAD PUSH32 0x8C379A000000000000000000000000000000000000000000000000000000000 DUP2 MSTORE PUSH1 0x4 ADD PUSH2 0xDCE SWAP1 PUSH2 0x2535 JUMP JUMPDEST PUSH1 0x40 MLOAD DUP1 SWAP2 SUB SWAP1 REVERT JUMPDEST DUP6 SWAP1 POP PUSH2 0xE5F JUMP JUMPDEST PUSH1 0x0 PUSH20 0xFFFFFFFFFFFFFFFFFFFFFFFFFFFFFFFFFFFFFFFF AND DUP8 PUSH20 0xFFFFFFFFFFFFFFFFFFFFFFFFFFFFFFFFFFFFFFFF AND EQ PUSH2 0xE4E JUMPI PUSH1 0x40 MLOAD PUSH32 0x8C379A000000000000000000000000000000000000000000000000000000000 DUP2 MSTORE PUSH1 0x4 ADD PUSH2 0xE45 SWAP1 PUSH2 0x25C7 JUMP JUMPDEST PUSH1 0x40 MLOAD DUP1 SWAP2 SUB SWAP1 REVERT JUMPDEST PUSH1 0x3 SLOAD CALLVALUE PUSH2 0xE5C SWAP2 SWAP1 PUSH2 0x2201 JUMP JUMPDEST SWAP1 POP JUMPDEST DUP3 DUP2 LT ISZERO PUSH2 0xEA2 JUMPI PUSH1 0x40 MLOAD PUSH32 0x8C379A000000000000000000000000000000000000000000000000000000000 DUP2 MSTORE PUSH1 0x4 ADD PUSH2 0xE99 SWAP1 PUSH2 0x267F JUMP JUMPDEST PUSH1 0x40 MLOAD DUP1 SWAP2 SUB SWAP1 REVERT JUMPDEST PUSH2 0x104B PUSH1 0x5 PUSH1 0x0 CALLER PUSH20 0xFFFFFFFFFFFFFFFFFFFFFFFFFFFFFFFFFFFFFFFF AND PUSH20 0xFFFFFFFFFFFFFFFFFFFFFFFFFFFFFFFFFFFFFFFF AND DUP2 MSTORE PUSH1 0x20 ADD SWAP1 DUP2 MSTORE PUSH1 0x20 ADD PUSH1 0x0 KECCAK256 PUSH1 0x0 DUP11 DUP2 MSTORE PUSH1 0x20 ADD SWAP1 DUP2 MSTORE PUSH1 0x20 ADD PUSH1 0x0 KECCAK256 PUSH1 0x40 MLOAD DUP1 PUSH2 0x100 ADD PUSH1 0x40 MSTORE SWAP1 DUP2 PUSH1 0x0 DUP3 ADD PUSH1 0x0 SWAP1 SLOAD SWAP1 PUSH2 0x100 EXP SWAP1 DIV PUSH20 0xFFFFFFFFFFFFFFFFFFFFFFFFFFFFFFFFFFFFFFFF AND PUSH20 0xFFFFFFFFFFFFFFFFFFFFFFFFFFFFFFFFFFFFFFFF AND PUSH20 0xFFFFFFFFFFFFFFFFFFFFFFFFFFFFFFFFFFFFFFFF AND DUP2 MSTORE PUSH1 0x20 ADD PUSH1 0x1 DUP3 ADD PUSH1 0x0 SWAP1 SLOAD SWAP1 PUSH2 0x100 EXP SWAP1 DIV PUSH20 0xFFFFFFFFFFFFFFFFFFFFFFFFFFFFFFFFFFFFFFFF AND PUSH20 0xFFFFFFFFFFFFFFFFFFFFFFFFFFFFFFFFFFFFFFFF AND PUSH20 0xFFFFFFFFFFFFFFFFFFFFFFFFFFFFFFFFFFFFFFFF AND DUP2 MSTORE PUSH1 0x20 ADD PUSH1 0x1 DUP3 ADD PUSH1 0x14 SWAP1 SLOAD SWAP1 PUSH2 0x100 EXP SWAP1 DIV PUSH1 0xFF AND ISZERO ISZERO ISZERO ISZERO DUP2 MSTORE PUSH1 0x20 ADD PUSH1 0x2 DUP3 ADD PUSH1 0x0 SWAP1 SLOAD SWAP1 PUSH2 0x100 EXP SWAP1 DIV PUSH20 0xFFFFFFFFFFFFFFFFFFFFFFFFFFFFFFFFFFFFFFFF AND PUSH20 0xFFFFFFFFFFFFFFFFFFFFFFFFFFFFFFFFFFFFFFFF AND PUSH20 0xFFFFFFFFFFFFFFFFFFFFFFFFFFFFFFFFFFFFFFFF AND DUP2 MSTORE PUSH1 0x20 ADD PUSH1 0x3 DUP3 ADD SLOAD DUP2 MSTORE PUSH1 0x20 ADD PUSH1 0x4 DUP3 ADD SLOAD DUP2 MSTORE PUSH1 0x20 ADD PUSH1 0x5 DUP3 ADD SLOAD DUP2 MSTORE PUSH1 0x20 ADD PUSH1 0x6 DUP3 ADD SLOAD DUP2 MSTORE POP POP PUSH2 0x1960 JUMP JUMPDEST ISZERO PUSH2 0x108B JUMPI PUSH1 0x40 MLOAD PUSH32 0x8C379A000000000000000000000000000000000000000000000000000000000 DUP2 MSTORE PUSH1 0x4 ADD PUSH2 0x1082 SWAP1 PUSH2 0x2711 JUMP JUMPDEST PUSH1 0x40 MLOAD DUP1 SWAP2 SUB SWAP1 REVERT JUMPDEST PUSH2 0x1093 PUSH2 0x1AB3 JUMP JUMPDEST PUSH1 0x40 MLOAD DUP1 PUSH2 0x100 ADD PUSH1 0x40 MSTORE DUP1 CALLER PUSH20 0xFFFFFFFFFFFFFFFFFFFFFFFFFFFFFFFFFFFFFFFF AND DUP2 MSTORE PUSH1 0x20 ADD DUP7 PUSH20 0xFFFFFFFFFFFFFFFFFFFFFFFFFFFFFFFFFFFFFFFF AND DUP2 MSTORE PUSH1 0x20 ADD DUP4 ISZERO ISZERO DUP2 MSTORE PUSH1 0x20 ADD DUP9 PUSH20 0xFFFFFFFFFFFFFFFFFFFFFFFFFFFFFFFFFFFFFFFF AND DUP2 MSTORE PUSH1 0x20 ADD DUP3 DUP2 MSTORE PUSH1 0x20 ADD DUP5 DUP2 MSTORE PUSH1 0x20 ADD DUP6 DUP2 MSTORE PUSH1 0x20 ADD PUSH1 0x2 SLOAD DUP2 MSTORE POP PUSH1 0x5 PUSH1 0x0 CALLER PUSH20 0xFFFFFFFFFFFFFFFFFFFFFFFFFFFFFFFFFFFFFFFF AND PUSH20 0xFFFFFFFFFFFFFFFFFFFFFFFFFFFFFFFFFFFFFFFF AND DUP2 MSTORE PUSH1 0x20 ADD SWAP1 DUP2 MSTORE PUSH1 0x20 ADD PUSH1 0x0 KECCAK256 PUSH1 0x0 DUP11 DUP2 MSTORE PUSH1 0x20 ADD SWAP1 DUP2 MSTORE PUSH1 0x20 ADD PUSH1 0x0 KECCAK256 PUSH1 0x0 DUP3 ADD MLOAD DUP2 PUSH1 0x0 ADD PUSH1 0x0 PUSH2 0x100 EXP DUP2 SLOAD DUP2 PUSH20 0xFFFFFFFFFFFFFFFFFFFFFFFFFFFFFFFFFFFFFFFF MUL NOT AND SWAP1 DUP4 PUSH20 0xFFFFFFFFFFFFFFFFFFFFFFFFFFFFFFFFFFFFFFFF AND MUL OR SWAP1 SSTORE POP PUSH1 0x20 DUP3 ADD MLOAD DUP2 PUSH1 0x1 ADD PUSH1 0x0 PUSH2 0x100 EXP DUP2 SLOAD DUP2 PUSH20 0xFFFFFFFFFFFFFFFFFFFFFFFFFFFFFFFFFFFFFFFF MUL NOT AND SWAP1 DUP4 PUSH20 0xFFFFFFFFFFFFFFFFFFFFFFFFFFFFFFFFFFFFFFFF AND MUL OR SWAP1 SSTORE POP PUSH1 0x40 DUP3 ADD MLOAD DUP2 PUSH1 0x1 ADD PUSH1 0x14 PUSH2 0x100 EXP DUP2 SLOAD DUP2 PUSH1 0xFF MUL NOT AND SWAP1 DUP4 ISZERO ISZERO MUL OR SWAP1 SSTORE POP PUSH1 0x60 DUP3 ADD MLOAD DUP2 PUSH1 0x2 ADD PUSH1 0x0 PUSH2 0x100 EXP DUP2 SLOAD DUP2 PUSH20 0xFFFFFFFFFFFFFFFFFFFFFFFFFFFFFFFFFFFFFFFF MUL NOT AND SWAP1 DUP4 PUSH20 0xFFFFFFFFFFFFFFFFFFFFFFFFFFFFFFFFFFFFFFFF AND MUL OR SWAP1 SSTORE POP PUSH1 0x80 DUP3 ADD MLOAD DUP2 PUSH1 0x3 ADD SSTORE PUSH1 0xA0 DUP3 ADD MLOAD DUP2 PUSH1 0x4 ADD SSTORE PUSH1 0xC0 DUP3 ADD MLOAD DUP2 PUSH1 0x5 ADD SSTORE PUSH1 0xE0 DUP3 ADD MLOAD DUP2 PUSH1 0x6 ADD SSTORE SWAP1 POP POP DUP2 ISZERO PUSH2 0x1313 JUMPI DUP7 PUSH20 0xFFFFFFFFFFFFFFFFFFFFFFFFFFFFFFFFFFFFFFFF AND PUSH4 0x23B872DD CALLER ADDRESS DUP5 PUSH1 0x40 MLOAD DUP5 PUSH4 0xFFFFFFFF AND PUSH1 0xE0 SHL DUP2 MSTORE PUSH1 0x4 ADD PUSH2 0x12C6 SWAP4 SWAP3 SWAP2 SWAP1 PUSH2 0x20B9 JUMP JUMPDEST PUSH1 0x20 PUSH1 0x40 MLOAD DUP1 DUP4 SUB DUP2 PUSH1 0x0 DUP8 GAS CALL ISZERO DUP1 ISZERO PUSH2 0x12E5 JUMPI RETURNDATASIZE PUSH1 0x0 DUP1 RETURNDATACOPY RETURNDATASIZE PUSH1 0x0 REVERT JUMPDEST POP POP POP POP PUSH1 0x40 MLOAD RETURNDATASIZE PUSH1 0x1F NOT PUSH1 0x1F DUP3 ADD AND DUP3 ADD DUP1 PUSH1 0x40 MSTORE POP DUP2 ADD SWAP1 PUSH2 0x1309 SWAP2 SWAP1 PUSH2 0x211C JUMP JUMPDEST PUSH2 0x1312 JUMPI PUSH1 0x0 DUP1 REVERT JUMPDEST JUMPDEST POP POP PUSH2 0x131D PUSH2 0x199D JUMP JUMPDEST POP POP POP POP POP POP JUMP JUMPDEST PUSH1 0x0 DUP1 PUSH1 0x0 SWAP1 SLOAD SWAP1 PUSH2 0x100 EXP SWAP1 DIV PUSH20 0xFFFFFFFFFFFFFFFFFFFFFFFFFFFFFFFFFFFFFFFF AND SWAP1 POP SWAP1 JUMP JUMPDEST PUSH2 0x1356 PUSH2 0x1893 JUMP JUMPDEST DUP1 PUSH1 0x3 DUP2 SWAP1 SSTORE POP PUSH2 0x1365 PUSH2 0x1A6A JUMP JUMPDEST POP JUMP JUMPDEST PUSH1 0x4 SLOAD DUP2 JUMP JUMPDEST PUSH1 0x6 SLOAD DUP2 JUMP JUMPDEST PUSH2 0x137C PUSH2 0x1893 JUMP JUMPDEST PUSH2 0x1384 PUSH2 0x1911 JUMP JUMPDEST PUSH1 0x0 PUSH1 0x5 PUSH1 0x0 DUP10 PUSH20 0xFFFFFFFFFFFFFFFFFFFFFFFFFFFFFFFFFFFFFFFF AND PUSH20 0xFFFFFFFFFFFFFFFFFFFFFFFFFFFFFFFFFFFFFFFF AND DUP2 MSTORE PUSH1 0x20 ADD SWAP1 DUP2 MSTORE PUSH1 0x20 ADD PUSH1 0x0 KECCAK256 PUSH1 0x0 DUP9 DUP2 MSTORE PUSH1 0x20 ADD SWAP1 DUP2 MSTORE PUSH1 0x20 ADD PUSH1 0x0 KECCAK256 PUSH1 0x40 MLOAD DUP1 PUSH2 0x100 ADD PUSH1 0x40 MSTORE SWAP1 DUP2 PUSH1 0x0 DUP3 ADD PUSH1 0x0 SWAP1 SLOAD SWAP1 PUSH2 0x100 EXP SWAP1 DIV PUSH20 0xFFFFFFFFFFFFFFFFFFFFFFFFFFFFFFFFFFFFFFFF AND PUSH20 0xFFFFFFFFFFFFFFFFFFFFFFFFFFFFFFFFFFFFFFFF AND PUSH20 0xFFFFFFFFFFFFFFFFFFFFFFFFFFFFFFFFFFFFFFFF AND DUP2 MSTORE PUSH1 0x20 ADD PUSH1 0x1 DUP3 ADD PUSH1 0x0 SWAP1 SLOAD SWAP1 PUSH2 0x100 EXP SWAP1 DIV PUSH20 0xFFFFFFFFFFFFFFFFFFFFFFFFFFFFFFFFFFFFFFFF AND PUSH20 0xFFFFFFFFFFFFFFFFFFFFFFFFFFFFFFFFFFFFFFFF AND PUSH20 0xFFFFFFFFFFFFFFFFFFFFFFFFFFFFFFFFFFFFFFFF AND DUP2 MSTORE PUSH1 0x20 ADD PUSH1 0x1 DUP3 ADD PUSH1 0x14 SWAP1 SLOAD SWAP1 PUSH2 0x100 EXP SWAP1 DIV PUSH1 0xFF AND ISZERO ISZERO ISZERO ISZERO DUP2 MSTORE PUSH1 0x20 ADD PUSH1 0x2 DUP3 ADD PUSH1 0x0 SWAP1 SLOAD SWAP1 PUSH2 0x100 EXP SWAP1 DIV PUSH20 0xFFFFFFFFFFFFFFFFFFFFFFFFFFFFFFFFFFFFFFFF AND PUSH20 0xFFFFFFFFFFFFFFFFFFFFFFFFFFFFFFFFFFFFFFFF AND PUSH20 0xFFFFFFFFFFFFFFFFFFFFFFFFFFFFFFFFFFFFFFFF AND DUP2 MSTORE PUSH1 0x20 ADD PUSH1 0x3 DUP3 ADD SLOAD DUP2 MSTORE PUSH1 0x20 ADD PUSH1 0x4 DUP3 ADD SLOAD DUP2 MSTORE PUSH1 0x20 ADD PUSH1 0x5 DUP3 ADD SLOAD DUP2 MSTORE PUSH1 0x20 ADD PUSH1 0x6 DUP3 ADD SLOAD DUP2 MSTORE POP POP SWAP1 POP PUSH2 0x1532 DUP2 PUSH2 0x1960 JUMP JUMPDEST PUSH2 0x1571 JUMPI PUSH1 0x40 MLOAD PUSH32 0x8C379A000000000000000000000000000000000000000000000000000000000 DUP2 MSTORE PUSH1 0x4 ADD PUSH2 0x1568 SWAP1 PUSH2 0x277D JUMP JUMPDEST PUSH1 0x40 MLOAD DUP1 SWAP2 SUB SWAP1 REVERT JUMPDEST DUP6 DUP2 PUSH1 0x80 ADD MLOAD LT ISZERO PUSH2 0x15B8 JUMPI PUSH1 0x40 MLOAD PUSH32 0x8C379A000000000000000000000000000000000000000000000000000000000 DUP2 MSTORE PUSH1 0x4 ADD PUSH2 0x15AF SWAP1 PUSH2 0x27E9 JUMP JUMPDEST PUSH1 0x40 MLOAD DUP1 SWAP2 SUB SWAP1 REVERT JUMPDEST PUSH1 0x0 DUP2 PUSH1 0x40 ADD MLOAD PUSH2 0x15CD JUMPI DUP2 PUSH1 0x80 ADD MLOAD PUSH2 0x15D0 JUMP JUMPDEST PUSH1 0x0 JUMPDEST SWAP1 POP PUSH1 0x0 PUSH1 0x7 PUSH1 0x0 DUP5 PUSH1 0x60 ADD MLOAD PUSH20 0xFFFFFFFFFFFFFFFFFFFFFFFFFFFFFFFFFFFFFFFF AND PUSH20 0xFFFFFFFFFFFFFFFFFFFFFFFFFFFFFFFFFFFFFFFF AND DUP2 MSTORE PUSH1 0x20 ADD SWAP1 DUP2 MSTORE PUSH1 0x20 ADD PUSH1 0x0 KECCAK256 PUSH1 0x0 SWAP1 SLOAD SWAP1 PUSH2 0x100 EXP SWAP1 DIV PUSH20 0xFFFFFFFFFFFFFFFFFFFFFFFFFFFFFFFFFFFFFFFF AND SWAP1 POP PUSH1 0x5 PUSH1 0x0 DUP12 PUSH20 0xFFFFFFFFFFFFFFFFFFFFFFFFFFFFFFFFFFFFFFFF AND PUSH20 0xFFFFFFFFFFFFFFFFFFFFFFFFFFFFFFFFFFFFFFFF AND DUP2 MSTORE PUSH1 0x20 ADD SWAP1 DUP2 MSTORE PUSH1 0x20 ADD PUSH1 0x0 KECCAK256 PUSH1 0x0 DUP11 DUP2 MSTORE PUSH1 0x20 ADD SWAP1 DUP2 MSTORE PUSH1 0x20 ADD PUSH1 0x0 KECCAK256 PUSH1 0x0 DUP1 DUP3 ADD PUSH1 0x0 PUSH2 0x100 EXP DUP2 SLOAD SWAP1 PUSH20 0xFFFFFFFFFFFFFFFFFFFFFFFFFFFFFFFFFFFFFFFF MUL NOT AND SWAP1 SSTORE PUSH1 0x1 DUP3 ADD PUSH1 0x0 PUSH2 0x100 EXP DUP2 SLOAD SWAP1 PUSH20 0xFFFFFFFFFFFFFFFFFFFFFFFFFFFFFFFFFFFFFFFF MUL NOT AND SWAP1 SSTORE PUSH1 0x1 DUP3 ADD PUSH1 0x14 PUSH2 0x100 EXP DUP2 SLOAD SWAP1 PUSH1 0xFF MUL NOT AND SWAP1 SSTORE PUSH1 0x2 DUP3 ADD PUSH1 0x0 PUSH2 0x100 EXP DUP2 SLOAD SWAP1 PUSH20 0xFFFFFFFFFFFFFFFFFFFFFFFFFFFFFFFFFFFFFFFF MUL NOT AND SWAP1 SSTORE PUSH1 0x3 DUP3 ADD PUSH1 0x0 SWAP1 SSTORE PUSH1 0x4 DUP3 ADD PUSH1 0x0 SWAP1 SSTORE PUSH1 0x5 DUP3 ADD PUSH1 0x0 SWAP1 SSTORE PUSH1 0x6 DUP3 ADD PUSH1 0x0 SWAP1 SSTORE POP POP DUP1 PUSH20 0xFFFFFFFFFFFFFFFFFFFFFFFFFFFFFFFFFFFFFFFF AND PUSH4 0xEEA0D7B2 DUP4 PUSH1 0x6 SLOAD DUP7 PUSH1 0x20 ADD MLOAD DUP8 PUSH1 0x80 ADD MLOAD DUP14 DUP14 DUP14 DUP14 DUP14 PUSH1 0x40 MLOAD DUP11 PUSH4 0xFFFFFFFF AND PUSH1 0xE0 SHL DUP2 MSTORE PUSH1 0x4 ADD PUSH2 0x1788 SWAP9 SWAP8 SWAP7 SWAP6 SWAP5 SWAP4 SWAP3 SWAP2 SWAP1 PUSH2 0x2809 JUMP JUMPDEST PUSH1 0x0 PUSH1 0x40 MLOAD DUP1 DUP4 SUB DUP2 DUP6 DUP9 DUP1 EXTCODESIZE ISZERO DUP1 ISZERO PUSH2 0x17A1 JUMPI PUSH1 0x0 DUP1 REVERT JUMPDEST POP GAS CALL ISZERO DUP1 ISZERO PUSH2 0x17B5 JUMPI RETURNDATASIZE PUSH1 0x0 DUP1 RETURNDATACOPY RETURNDATASIZE PUSH1 0x0 REVERT JUMPDEST POP POP POP POP POP CALLER PUSH20 0xFFFFFFFFFFFFFFFFFFFFFFFFFFFFFFFFFFFFFFFF AND PUSH2 0x8FC DUP5 PUSH1 0xE0 ADD MLOAD SWAP1 DUP2 ISZERO MUL SWAP1 PUSH1 0x40 MLOAD PUSH1 0x0 PUSH1 0x40 MLOAD DUP1 DUP4 SUB DUP2 DUP6 DUP9 DUP9 CALL SWAP4 POP POP POP POP PUSH2 0x17FC JUMPI PUSH1 0x0 DUP1 REVERT JUMPDEST POP POP POP PUSH2 0x1807 PUSH2 0x199D JUMP JUMPDEST POP POP POP POP POP POP POP JUMP JUMPDEST PUSH2 0x1818 PUSH2 0x1893 JUMP JUMPDEST PUSH1 0x0 PUSH20 0xFFFFFFFFFFFFFFFFFFFFFFFFFFFFFFFFFFFFFFFF AND DUP2 PUSH20 0xFFFFFFFFFFFFFFFFFFFFFFFFFFFFFFFFFFFFFFFF AND SUB PUSH2 0x1887 JUMPI PUSH1 0x40 MLOAD PUSH32 0x8C379A000000000000000000000000000000000000000000000000000000000 DUP2 MSTORE PUSH1 0x4 ADD PUSH2 0x187E SWAP1 PUSH2 0x28F9 JUMP JUMPDEST PUSH1 0x40 MLOAD DUP1 SWAP2 SUB SWAP1 REVERT JUMPDEST PUSH2 0x1890 DUP2 PUSH2 0x19A6 JUMP JUMPDEST POP JUMP JUMPDEST PUSH2 0x189B PUSH2 0x1ADD JUMP JUMPDEST PUSH20 0xFFFFFFFFFFFFFFFFFFFFFFFFFFFFFFFFFFFFFFFF AND PUSH2 0x18B9 PUSH2 0x1325 JUMP JUMPDEST PUSH20 0xFFFFFFFFFFFFFFFFFFFFFFFFFFFFFFFFFFFFFFFF AND EQ PUSH2 0x190F JUMPI PUSH1 0x40 MLOAD PUSH32 0x8C379A000000000000000000000000000000000000000000000000000000000 DUP2 MSTORE PUSH1 0x4 ADD PUSH2 0x1906 SWAP1 PUSH2 0x2965 JUMP JUMPDEST PUSH1 0x40 MLOAD DUP1 SWAP2 SUB SWAP1 REVERT JUMPDEST JUMP JUMPDEST PUSH1 0x2 PUSH1 0x1 SLOAD SUB PUSH2 0x1956 JUMPI PUSH1 0x40 MLOAD PUSH32 0x8C379A000000000000000000000000000000000000000000000000000000000 DUP2 MSTORE PUSH1 0x4 ADD PUSH2 0x194D SWAP1 PUSH2 0x29D1 JUMP JUMPDEST PUSH1 0x40 MLOAD DUP1 SWAP2 SUB SWAP1 REVERT JUMPDEST PUSH1 0x2 PUSH1 0x1 DUP2 SWAP1 SSTORE POP JUMP JUMPDEST PUSH1 0x0 DUP1 PUSH20 0xFFFFFFFFFFFFFFFFFFFFFFFFFFFFFFFFFFFFFFFF AND DUP3 PUSH1 0x0 ADD MLOAD PUSH20 0xFFFFFFFFFFFFFFFFFFFFFFFFFFFFFFFFFFFFFFFF AND EQ ISZERO SWAP1 POP SWAP2 SWAP1 POP JUMP JUMPDEST PUSH1 0x1 DUP1 DUP2 SWAP1 SSTORE POP JUMP JUMPDEST PUSH1 0x0 DUP1 PUSH1 0x0 SWAP1 SLOAD SWAP1 PUSH2 0x100 EXP SWAP1 DIV PUSH20 0xFFFFFFFFFFFFFFFFFFFFFFFFFFFFFFFFFFFFFFFF AND SWAP1 POP DUP2 PUSH1 0x0 DUP1 PUSH2 0x100 EXP DUP2 SLOAD DUP2 PUSH20 0xFFFFFFFFFFFFFFFFFFFFFFFFFFFFFFFFFFFFFFFF MUL NOT AND SWAP1 DUP4 PUSH20 0xFFFFFFFFFFFFFFFFFFFFFFFFFFFFFFFFFFFFFFFF AND MUL OR SWAP1 SSTORE POP DUP2 PUSH20 0xFFFFFFFFFFFFFFFFFFFFFFFFFFFFFFFFFFFFFFFF AND DUP2 PUSH20 0xFFFFFFFFFFFFFFFFFFFFFFFFFFFFFFFFFFFFFFFF AND PUSH32 0x8BE0079C531659141344CD1FD0A4F28419497F9722A3DAAFE3B4186F6B6457E0 PUSH1 0x40 MLOAD PUSH1 0x40 MLOAD DUP1 SWAP2 SUB SWAP1 LOG3 POP POP JUMP JUMPDEST PUSH1 0x2 SLOAD PUSH1 0x3 SLOAD LT ISZERO PUSH2 0x1AB1 JUMPI PUSH1 0x40 MLOAD PUSH32 0x8C379A000000000000000000000000000000000000000000000000000000000 DUP2 MSTORE PUSH1 0x4 ADD PUSH2 0x1AA8 SWAP1 PUSH2 0x2A63 JUMP JUMPDEST PUSH1 0x40 MLOAD DUP1 SWAP2 SUB SWAP1 REVERT JUMPDEST JUMP JUMPDEST PUSH1 0x2 SLOAD PUSH1 0x3 SLOAD PUSH2 0x1AC3 SWAP2 SWAP1 PUSH2 0x2201 JUMP JUMPDEST PUSH1 0x4 PUSH1 0x0 DUP3 DUP3 SLOAD PUSH2 0x1AD4 SWAP2 SWAP1 PUSH2 0x2085 JUMP JUMPDEST SWAP3 POP POP DUP2 SWAP1 SSTORE POP JUMP JUMPDEST PUSH1 0x0 CALLER SWAP1 POP SWAP1 JUMP JUMPDEST PUSH1 0x0 DUP1 REVERT JUMPDEST PUSH1 0x0 PUSH20 0xFFFFFFFFFFFFFFFFFFFFFFFFFFFFFFFFFFFFFFFF DUP3 AND SWAP1 POP SWAP2 SWAP1 POP JUMP JUMPDEST PUSH1 0x0 PUSH2 0x1B15 DUP3 PUSH2 0x1AEA JUMP JUMPDEST SWAP1 POP SWAP2 SWAP1 POP JUMP JUMPDEST PUSH1 0x0 PUSH2 0x1B27 DUP3 PUSH2 0x1B0A JUMP JUMPDEST SWAP1 POP SWAP2 SWAP1 POP JUMP JUMPDEST PUSH2 0x1B37 DUP2 PUSH2 0x1B1C JUMP JUMPDEST DUP2 EQ PUSH2 0x1B42 JUMPI PUSH1 0x0 DUP1 REVERT JUMPDEST POP JUMP JUMPDEST PUSH1 0x0 DUP2 CALLDATALOAD SWAP1 POP PUSH2 0x1B54 DUP2 PUSH2 0x1B2E JUMP JUMPDEST SWAP3 SWAP2 POP POP JUMP JUMPDEST PUSH2 0x1B63 DUP2 PUSH2 0x1B0A JUMP JUMPDEST DUP2 EQ PUSH2 0x1B6E JUMPI PUSH1 0x0 DUP1 REVERT JUMPDEST POP JUMP JUMPDEST PUSH1 0x0 DUP2 CALLDATALOAD SWAP1 POP PUSH2 0x1B80 DUP2 PUSH2 0x1B5A JUMP JUMPDEST SWAP3 SWAP2 POP POP JUMP JUMPDEST PUSH1 0x0 DUP1 PUSH1 0x40 DUP4 DUP6 SUB SLT ISZERO PUSH2 0x1B9D JUMPI PUSH2 0x1B9C PUSH2 0x1AE5 JUMP JUMPDEST JUMPDEST PUSH1 0x0 PUSH2 0x1BAB DUP6 DUP3 DUP7 ADD PUSH2 0x1B45 JUMP JUMPDEST SWAP3 POP POP PUSH1 0x20 PUSH2 0x1BBC DUP6 DUP3 DUP7 ADD PUSH2 0x1B71 JUMP JUMPDEST SWAP2 POP POP SWAP3 POP SWAP3 SWAP1 POP JUMP JUMPDEST PUSH1 0x0 DUP2 SWAP1 POP SWAP2 SWAP1 POP JUMP JUMPDEST PUSH2 0x1BD9 DUP2 PUSH2 0x1BC6 JUMP JUMPDEST DUP3 MSTORE POP POP JUMP JUMPDEST PUSH1 0x0 PUSH1 0x20 DUP3 ADD SWAP1 POP PUSH2 0x1BF4 PUSH1 0x0 DUP4 ADD DUP5 PUSH2 0x1BD0 JUMP JUMPDEST SWAP3 SWAP2 POP POP JUMP JUMPDEST PUSH2 0x1C03 DUP2 PUSH2 0x1BC6 JUMP JUMPDEST DUP2 EQ PUSH2 0x1C0E JUMPI PUSH1 0x0 DUP1 REVERT JUMPDEST POP JUMP JUMPDEST PUSH1 0x0 DUP2 CALLDATALOAD SWAP1 POP PUSH2 0x1C20 DUP2 PUSH2 0x1BFA JUMP JUMPDEST SWAP3 SWAP2 POP POP JUMP JUMPDEST PUSH1 0x0 PUSH1 0x20 DUP3 DUP5 SUB SLT ISZERO PUSH2 0x1C3C JUMPI PUSH2 0x1C3B PUSH2 0x1AE5 JUMP JUMPDEST JUMPDEST PUSH1 0x0 PUSH2 0x1C4A DUP5 DUP3 DUP6 ADD PUSH2 0x1C11 JUMP JUMPDEST SWAP2 POP POP SWAP3 SWAP2 POP POP JUMP JUMPDEST PUSH1 0x0 DUP1 PUSH1 0x40 DUP4 DUP6 SUB SLT ISZERO PUSH2 0x1C6A JUMPI PUSH2 0x1C69 PUSH2 0x1AE5 JUMP JUMPDEST JUMPDEST PUSH1 0x0 PUSH2 0x1C78 DUP6 DUP3 DUP7 ADD PUSH2 0x1B71 JUMP JUMPDEST SWAP3 POP POP PUSH1 0x20 PUSH2 0x1C89 DUP6 DUP3 DUP7 ADD PUSH2 0x1C11 JUMP JUMPDEST SWAP2 POP POP SWAP3 POP SWAP3 SWAP1 POP JUMP JUMPDEST PUSH2 0x1C9C DUP2 PUSH2 0x1B0A JUMP JUMPDEST DUP3 MSTORE POP POP JUMP JUMPDEST PUSH1 0x0 DUP2 ISZERO ISZERO SWAP1 POP SWAP2 SWAP1 POP JUMP JUMPDEST PUSH2 0x1CB7 DUP2 PUSH2 0x1CA2 JUMP JUMPDEST DUP3 MSTORE POP POP JUMP JUMPDEST PUSH1 0x0 DUP2 SWAP1 POP SWAP2 SWAP1 POP JUMP JUMPDEST PUSH1 0x0 PUSH2 0x1CE2 PUSH2 0x1CDD PUSH2 0x1CD8 DUP5 PUSH2 0x1AEA JUMP JUMPDEST PUSH2 0x1CBD JUMP JUMPDEST PUSH2 0x1AEA JUMP JUMPDEST SWAP1 POP SWAP2 SWAP1 POP JUMP JUMPDEST PUSH1 0x0 PUSH2 0x1CF4 DUP3 PUSH2 0x1CC7 JUMP JUMPDEST SWAP1 POP SWAP2 SWAP1 POP JUMP JUMPDEST PUSH1 0x0 PUSH2 0x1D06 DUP3 PUSH2 0x1CE9 JUMP JUMPDEST SWAP1 POP SWAP2 SWAP1 POP JUMP JUMPDEST PUSH2 0x1D16 DUP2 PUSH2 0x1CFB JUMP JUMPDEST DUP3 MSTORE POP POP JUMP JUMPDEST PUSH1 0x0 PUSH2 0x100 DUP3 ADD SWAP1 POP PUSH2 0x1D32 PUSH1 0x0 DUP4 ADD DUP12 PUSH2 0x1C93 JUMP JUMPDEST PUSH2 0x1D3F PUSH1 0x20 DUP4 ADD DUP11 PUSH2 0x1C93 JUMP JUMPDEST PUSH2 0x1D4C PUSH1 0x40 DUP4 ADD DUP10 PUSH2 0x1CAE JUMP JUMPDEST PUSH2 0x1D59 PUSH1 0x60 DUP4 ADD DUP9 PUSH2 0x1D0D JUMP JUMPDEST PUSH2 0x1D66 PUSH1 0x80 DUP4 ADD DUP8 PUSH2 0x1BD0 JUMP JUMPDEST PUSH2 0x1D73 PUSH1 0xA0 DUP4 ADD DUP7 PUSH2 0x1BD0 JUMP JUMPDEST PUSH2 0x1D80 PUSH1 0xC0 DUP4 ADD DUP6 PUSH2 0x1BD0 JUMP JUMPDEST PUSH2 0x1D8D PUSH1 0xE0 DUP4 ADD DUP5 PUSH2 0x1BD0 JUMP JUMPDEST SWAP10 SWAP9 POP POP POP POP POP POP POP POP POP JUMP JUMPDEST PUSH1 0x0 PUSH1 0x20 DUP3 DUP5 SUB SLT ISZERO PUSH2 0x1DB0 JUMPI PUSH2 0x1DAF PUSH2 0x1AE5 JUMP JUMPDEST JUMPDEST PUSH1 0x0 PUSH2 0x1DBE DUP5 DUP3 DUP6 ADD PUSH2 0x1B45 JUMP JUMPDEST SWAP2 POP POP SWAP3 SWAP2 POP POP JUMP JUMPDEST PUSH1 0x0 PUSH1 0x20 DUP3 ADD SWAP1 POP PUSH2 0x1DDC PUSH1 0x0 DUP4 ADD DUP5 PUSH2 0x1C93 JUMP JUMPDEST SWAP3 SWAP2 POP POP JUMP JUMPDEST PUSH1 0x0 DUP1 PUSH1 0x0 DUP1 PUSH1 0x0 DUP1 PUSH1 0xC0 DUP8 DUP10 SUB SLT ISZERO PUSH2 0x1DFF JUMPI PUSH2 0x1DFE PUSH2 0x1AE5 JUMP JUMPDEST JUMPDEST PUSH1 0x0 PUSH2 0x1E0D DUP10 DUP3 DUP11 ADD PUSH2 0x1C11 JUMP JUMPDEST SWAP7 POP POP PUSH1 0x20 PUSH2 0x1E1E DUP10 DUP3 DUP11 ADD PUSH2 0x1B45 JUMP JUMPDEST SWAP6 POP POP PUSH1 0x40 PUSH2 0x1E2F DUP10 DUP3 DUP11 ADD PUSH2 0x1C11 JUMP JUMPDEST SWAP5 POP POP PUSH1 0x60 PUSH2 0x1E40 DUP10 DUP3 DUP11 ADD PUSH2 0x1B71 JUMP JUMPDEST SWAP4 POP POP PUSH1 0x80 PUSH2 0x1E51 DUP10 DUP3 DUP11 ADD PUSH2 0x1C11 JUMP JUMPDEST SWAP3 POP POP PUSH1 0xA0 PUSH2 0x1E62 DUP10 DUP3 DUP11 ADD PUSH2 0x1C11 JUMP JUMPDEST SWAP2 POP POP SWAP3 SWAP6 POP SWAP3 SWAP6 POP SWAP3 SWAP6 JUMP JUMPDEST PUSH1 0x0 DUP1 PUSH1 0x0 DUP1 PUSH1 0x0 DUP1 PUSH1 0x0 PUSH1 0xE0 DUP9 DUP11 SUB SLT ISZERO PUSH2 0x1E8E JUMPI PUSH2 0x1E8D PUSH2 0x1AE5 JUMP JUMPDEST JUMPDEST PUSH1 0x0 PUSH2 0x1E9C DUP11 DUP3 DUP12 ADD PUSH2 0x1B71 JUMP JUMPDEST SWAP8 POP POP PUSH1 0x20 PUSH2 0x1EAD DUP11 DUP3 DUP12 ADD PUSH2 0x1C11 JUMP JUMPDEST SWAP7 POP POP PUSH1 0x40 PUSH2 0x1EBE DUP11 DUP3 DUP12 ADD PUSH2 0x1C11 JUMP JUMPDEST SWAP6 POP POP PUSH1 0x60 PUSH2 0x1ECF DUP11 DUP3 DUP12 ADD PUSH2 0x1C11 JUMP JUMPDEST SWAP5 POP POP PUSH1 0x80 PUSH2 0x1EE0 DUP11 DUP3 DUP12 ADD PUSH2 0x1C11 JUMP JUMPDEST SWAP4 POP POP PUSH1 0xA0 PUSH2 0x1EF1 DUP11 DUP3 DUP12 ADD PUSH2 0x1C11 JUMP JUMPDEST SWAP3 POP POP PUSH1 0xC0 PUSH2 0x1F02 DUP11 DUP3 DUP12 ADD PUSH2 0x1C11 JUMP JUMPDEST SWAP2 POP POP SWAP3 SWAP6 SWAP9 SWAP2 SWAP5 SWAP8 POP SWAP3 SWAP6 POP JUMP JUMPDEST PUSH1 0x0 PUSH1 0x20 DUP3 DUP5 SUB SLT ISZERO PUSH2 0x1F27 JUMPI PUSH2 0x1F26 PUSH2 0x1AE5 JUMP JUMPDEST JUMPDEST PUSH1 0x0 PUSH2 0x1F35 DUP5 DUP3 DUP6 ADD PUSH2 0x1B71 JUMP JUMPDEST SWAP2 POP POP SWAP3 SWAP2 POP POP JUMP JUMPDEST PUSH1 0x0 DUP3 DUP3 MSTORE PUSH1 0x20 DUP3 ADD SWAP1 POP SWAP3 SWAP2 POP POP JUMP JUMPDEST PUSH32 0x546F6B656E20616C726561647920737570706F727465642E0000000000000000 PUSH1 0x0 DUP3 ADD MSTORE POP JUMP JUMPDEST PUSH1 0x0 PUSH2 0x1F85 PUSH1 0x18 DUP4 PUSH2 0x1F3E JUMP JUMPDEST SWAP2 POP PUSH2 0x1F90 DUP3 PUSH2 0x1F4F JUMP JUMPDEST PUSH1 0x20 DUP3 ADD SWAP1 POP SWAP2 SWAP1 POP JUMP JUMPDEST PUSH1 0x0 PUSH1 0x20 DUP3 ADD SWAP1 POP DUP2 DUP2 SUB PUSH1 0x0 DUP4 ADD MSTORE PUSH2 0x1FB4 DUP2 PUSH2 0x1F78 JUMP JUMPDEST SWAP1 POP SWAP2 SWAP1 POP JUMP JUMPDEST PUSH32 0x4E6F207265717565737420746F2077697468647261772E000000000000000000 PUSH1 0x0 DUP3 ADD MSTORE POP JUMP JUMPDEST PUSH1 0x0 PUSH2 0x1FF1 PUSH1 0x17 DUP4 PUSH2 0x1F3E JUMP JUMPDEST SWAP2 POP PUSH2 0x1FFC DUP3 PUSH2 0x1FBB JUMP JUMPDEST PUSH1 0x20 DUP3 ADD SWAP1 POP SWAP2 SWAP1 POP JUMP JUMPDEST PUSH1 0x0 PUSH1 0x20 DUP3 ADD SWAP1 POP DUP2 DUP2 SUB PUSH1 0x0 DUP4 ADD MSTORE PUSH2 0x2020 DUP2 PUSH2 0x1FE4 JUMP JUMPDEST SWAP1 POP SWAP2 SWAP1 POP JUMP JUMPDEST PUSH32 0x4E487B7100000000000000000000000000000000000000000000000000000000 PUSH1 0x0 MSTORE PUSH1 0x1 PUSH1 0x4 MSTORE PUSH1 0x24 PUSH1 0x0 REVERT JUMPDEST PUSH32 0x4E487B7100000000000000000000000000000000000000000000000000000000 PUSH1 0x0 MSTORE PUSH1 0x11 PUSH1 0x4 MSTORE PUSH1 0x24 PUSH1 0x0 REVERT JUMPDEST PUSH1 0x0 PUSH2 0x2090 DUP3 PUSH2 0x1BC6 JUMP JUMPDEST SWAP2 POP PUSH2 0x209B DUP4 PUSH2 0x1BC6 JUMP JUMPDEST SWAP3 POP DUP3 DUP3 ADD SWAP1 POP DUP1 DUP3 GT ISZERO PUSH2 0x20B3 JUMPI PUSH2 0x20B2 PUSH2 0x2056 JUMP JUMPDEST JUMPDEST SWAP3 SWAP2 POP POP JUMP JUMPDEST PUSH1 0x0 PUSH1 0x60 DUP3 ADD SWAP1 POP PUSH2 0x20CE PUSH1 0x0 DUP4 ADD DUP7 PUSH2 0x1C93 JUMP JUMPDEST PUSH2 0x20DB PUSH1 0x20 DUP4 ADD DUP6 PUSH2 0x1C93 JUMP JUMPDEST PUSH2 0x20E8 PUSH1 0x40 DUP4 ADD DUP5 PUSH2 0x1BD0 JUMP JUMPDEST SWAP5 SWAP4 POP POP POP POP JUMP JUMPDEST PUSH2 0x20F9 DUP2 PUSH2 0x1CA2 JUMP JUMPDEST DUP2 EQ PUSH2 0x2104 JUMPI PUSH1 0x0 DUP1 REVERT JUMPDEST POP JUMP JUMPDEST PUSH1 0x0 DUP2 MLOAD SWAP1 POP PUSH2 0x2116 DUP2 PUSH2 0x20F0 JUMP JUMPDEST SWAP3 SWAP2 POP POP JUMP JUMPDEST PUSH1 0x0 PUSH1 0x20 DUP3 DUP5 SUB SLT ISZERO PUSH2 0x2132 JUMPI PUSH2 0x2131 PUSH2 0x1AE5 JUMP JUMPDEST JUMPDEST PUSH1 0x0 PUSH2 0x2140 DUP5 DUP3 DUP6 ADD PUSH2 0x2107 JUMP JUMPDEST SWAP2 POP POP SWAP3 SWAP2 POP POP JUMP JUMPDEST PUSH32 0x43616E6E6F74207769746864726177206D6F72652066756E6473207468616E20 PUSH1 0x0 DUP3 ADD MSTORE PUSH32 0x74686520636F6C6C6563746564206E6F6E206761732073657276696365206665 PUSH1 0x20 DUP3 ADD MSTORE PUSH32 0x65732E0000000000000000000000000000000000000000000000000000000000 PUSH1 0x40 DUP3 ADD MSTORE POP JUMP JUMPDEST PUSH1 0x0 PUSH2 0x21CB PUSH1 0x43 DUP4 PUSH2 0x1F3E JUMP JUMPDEST SWAP2 POP PUSH2 0x21D6 DUP3 PUSH2 0x2149 JUMP JUMPDEST PUSH1 0x60 DUP3 ADD SWAP1 POP SWAP2 SWAP1 POP JUMP JUMPDEST PUSH1 0x0 PUSH1 0x20 DUP3 ADD SWAP1 POP DUP2 DUP2 SUB PUSH1 0x0 DUP4 ADD MSTORE PUSH2 0x21FA DUP2 PUSH2 0x21BE JUMP JUMPDEST SWAP1 POP SWAP2 SWAP1 POP JUMP JUMPDEST PUSH1 0x0 PUSH2 0x220C DUP3 PUSH2 0x1BC6 JUMP JUMPDEST SWAP2 POP PUSH2 0x2217 DUP4 PUSH2 0x1BC6 JUMP JUMPDEST SWAP3 POP DUP3 DUP3 SUB SWAP1 POP DUP2 DUP2 GT ISZERO PUSH2 0x222F JUMPI PUSH2 0x222E PUSH2 0x2056 JUMP JUMPDEST JUMPDEST SWAP3 SWAP2 POP POP JUMP JUMPDEST PUSH32 0x53656E646572206D6179206E6F74206265203020616464726573730000000000 PUSH1 0x0 DUP3 ADD MSTORE POP JUMP JUMPDEST PUSH1 0x0 PUSH2 0x226B PUSH1 0x1B DUP4 PUSH2 0x1F3E JUMP JUMPDEST SWAP2 POP PUSH2 0x2276 DUP3 PUSH2 0x2235 JUMP JUMPDEST PUSH1 0x20 DUP3 ADD SWAP1 POP SWAP2 SWAP1 POP JUMP JUMPDEST PUSH1 0x0 PUSH1 0x20 DUP3 ADD SWAP1 POP DUP2 DUP2 SUB PUSH1 0x0 DUP4 ADD MSTORE PUSH2 0x229A DUP2 PUSH2 0x225E JUMP JUMPDEST SWAP1 POP SWAP2 SWAP1 POP JUMP JUMPDEST PUSH32 0x44657374696E6174696F6E2061646472657373206D6179206E6F742062652030 PUSH1 0x0 DUP3 ADD MSTORE PUSH32 0x2061646472657373000000000000000000000000000000000000000000000000 PUSH1 0x20 DUP3 ADD MSTORE POP JUMP JUMPDEST PUSH1 0x0 PUSH2 0x22FD PUSH1 0x28 DUP4 PUSH2 0x1F3E JUMP JUMPDEST SWAP2 POP PUSH2 0x2308 DUP3 PUSH2 0x22A1 JUMP JUMPDEST PUSH1 0x40 DUP3 ADD SWAP1 POP SWAP2 SWAP1 POP JUMP JUMPDEST PUSH1 0x0 PUSH1 0x20 DUP3 ADD SWAP1 POP DUP2 DUP2 SUB PUSH1 0x0 DUP4 ADD MSTORE PUSH2 0x232C DUP2 PUSH2 0x22F0 JUMP JUMPDEST SWAP1 POP SWAP2 SWAP1 POP JUMP JUMPDEST PUSH32 0x57616E746564204C3120676173207072696365206D7573742062652073747269 PUSH1 0x0 DUP3 ADD MSTORE PUSH32 0x63746C7920706F73697469766500000000000000000000000000000000000000 PUSH1 0x20 DUP3 ADD MSTORE POP JUMP JUMPDEST PUSH1 0x0 PUSH2 0x238F PUSH1 0x2D DUP4 PUSH2 0x1F3E JUMP JUMPDEST SWAP2 POP PUSH2 0x239A DUP3 PUSH2 0x2333 JUMP JUMPDEST PUSH1 0x40 DUP3 ADD SWAP1 POP SWAP2 SWAP1 POP JUMP JUMPDEST PUSH1 0x0 PUSH1 0x20 DUP3 ADD SWAP1 POP DUP2 DUP2 SUB PUSH1 0x0 DUP4 ADD MSTORE PUSH2 0x23BE DUP2 PUSH2 0x2382 JUMP JUMPDEST SWAP1 POP SWAP2 SWAP1 POP JUMP JUMPDEST PUSH32 0x4E6F7420656E6F7567682066756E647320746F2070617920666F722064656C61 PUSH1 0x0 DUP3 ADD MSTORE PUSH32 0x79656420657865637574696F6E00000000000000000000000000000000000000 PUSH1 0x20 DUP3 ADD MSTORE POP JUMP JUMPDEST PUSH1 0x0 PUSH2 0x2421 PUSH1 0x2D DUP4 PUSH2 0x1F3E JUMP JUMPDEST SWAP2 POP PUSH2 0x242C DUP3 PUSH2 0x23C5 JUMP JUMPDEST PUSH1 0x40 DUP3 ADD SWAP1 POP SWAP2 SWAP1 POP JUMP JUMPDEST PUSH1 0x0 PUSH1 0x20 DUP3 ADD SWAP1 POP DUP2 DUP2 SUB PUSH1 0x0 DUP4 ADD MSTORE PUSH2 0x2450 DUP2 PUSH2 0x2414 JUMP JUMPDEST SWAP1 POP SWAP2 SWAP1 POP JUMP JUMPDEST PUSH32 0x546F6B656E206973206E6F7420737570706F727465642E000000000000000000 PUSH1 0x0 DUP3 ADD MSTORE POP JUMP JUMPDEST PUSH1 0x0 PUSH2 0x248D PUSH1 0x17 DUP4 PUSH2 0x1F3E JUMP JUMPDEST SWAP2 POP PUSH2 0x2498 DUP3 PUSH2 0x2457 JUMP JUMPDEST PUSH1 0x20 DUP3 ADD SWAP1 POP SWAP2 SWAP1 POP JUMP JUMPDEST PUSH1 0x0 PUSH1 0x20 DUP3 ADD SWAP1 POP DUP2 DUP2 SUB PUSH1 0x0 DUP4 ADD MSTORE PUSH2 0x24BC DUP2 PUSH2 0x2480 JUMP JUMPDEST SWAP1 POP SWAP2 SWAP1 POP JUMP JUMPDEST PUSH32 0x466F7220746F6B656E206465706F736974732C20706179207468652073657276 PUSH1 0x0 DUP3 ADD MSTORE PUSH32 0x696365206665652065786163746C792E00000000000000000000000000000000 PUSH1 0x20 DUP3 ADD MSTORE POP JUMP JUMPDEST PUSH1 0x0 PUSH2 0x251F PUSH1 0x30 DUP4 PUSH2 0x1F3E JUMP JUMPDEST SWAP2 POP PUSH2 0x252A DUP3 PUSH2 0x24C3 JUMP JUMPDEST PUSH1 0x40 DUP3 ADD SWAP1 POP SWAP2 SWAP1 POP JUMP JUMPDEST PUSH1 0x0 PUSH1 0x20 DUP3 ADD SWAP1 POP DUP2 DUP2 SUB PUSH1 0x0 DUP4 ADD MSTORE PUSH2 0x254E DUP2 PUSH2 0x2512 JUMP JUMPDEST SWAP1 POP SWAP2 SWAP1 POP JUMP JUMPDEST PUSH32 0x546F6B656E206D757374206265203020616464726573732C207768656E206465 PUSH1 0x0 DUP3 ADD MSTORE PUSH32 0x706F736974696E67206E61746976652065746865722E00000000000000000000 PUSH1 0x20 DUP3 ADD MSTORE POP JUMP JUMPDEST PUSH1 0x0 PUSH2 0x25B1 PUSH1 0x36 DUP4 PUSH2 0x1F3E JUMP JUMPDEST SWAP2 POP PUSH2 0x25BC DUP3 PUSH2 0x2555 JUMP JUMPDEST PUSH1 0x40 DUP3 ADD SWAP1 POP SWAP2 SWAP1 POP JUMP JUMPDEST PUSH1 0x0 PUSH1 0x20 DUP3 ADD SWAP1 POP DUP2 DUP2 SUB PUSH1 0x0 DUP4 ADD MSTORE PUSH2 0x25E0 DUP2 PUSH2 0x25A4 JUMP JUMPDEST SWAP1 POP SWAP2 SWAP1 POP JUMP JUMPDEST PUSH32 0x43616C63756C617465642073656E7420616D6F756E74206D757374206265206C PUSH1 0x0 DUP3 ADD MSTORE PUSH32 0x6172676572207468616E207468652064657369726564206D696E696D756D2061 PUSH1 0x20 DUP3 ADD MSTORE PUSH32 0x6D6F756E74206172726976696E672061742064657374696E6174696F6E2E0000 PUSH1 0x40 DUP3 ADD MSTORE POP JUMP JUMPDEST PUSH1 0x0 PUSH2 0x2669 PUSH1 0x5E DUP4 PUSH2 0x1F3E JUMP JUMPDEST SWAP2 POP PUSH2 0x2674 DUP3 PUSH2 0x25E7 JUMP JUMPDEST PUSH1 0x60 DUP3 ADD SWAP1 POP SWAP2 SWAP1 POP JUMP JUMPDEST PUSH1 0x0 PUSH1 0x20 DUP3 ADD SWAP1 POP DUP2 DUP2 SUB PUSH1 0x0 DUP4 ADD MSTORE PUSH2 0x2698 DUP2 PUSH2 0x265C JUMP JUMPDEST SWAP1 POP SWAP2 SWAP1 POP JUMP JUMPDEST PUSH32 0x526571756573742077697468207468652073616D6520696420666F7220746865 PUSH1 0x0 DUP3 ADD MSTORE PUSH32 0x20726571756573746F7220616C7265616479206578697374732E000000000000 PUSH1 0x20 DUP3 ADD MSTORE POP JUMP JUMPDEST PUSH1 0x0 PUSH2 0x26FB PUSH1 0x3A DUP4 PUSH2 0x1F3E JUMP JUMPDEST SWAP2 POP PUSH2 0x2706 DUP3 PUSH2 0x269F JUMP JUMPDEST PUSH1 0x40 DUP3 ADD SWAP1 POP SWAP2 SWAP1 POP JUMP JUMPDEST PUSH1 0x0 PUSH1 0x20 DUP3 ADD SWAP1 POP DUP2 DUP2 SUB PUSH1 0x0 DUP4 ADD MSTORE PUSH2 0x272A DUP2 PUSH2 0x26EE JUMP JUMPDEST SWAP1 POP SWAP2 SWAP1 POP JUMP JUMPDEST PUSH32 0x4E6F207265717565737420746F2070726F636573730000000000000000000000 PUSH1 0x0 DUP3 ADD MSTORE POP JUMP JUMPDEST PUSH1 0x0 PUSH2 0x2767 PUSH1 0x15 DUP4 PUSH2 0x1F3E JUMP JUMPDEST SWAP2 POP PUSH2 0x2772 DUP3 PUSH2 0x2731 JUMP JUMPDEST PUSH1 0x20 DUP3 ADD SWAP1 POP SWAP2 SWAP1 POP JUMP JUMPDEST PUSH1 0x0 PUSH1 0x20 DUP3 ADD SWAP1 POP DUP2 DUP2 SUB PUSH1 0x0 DUP4 ADD MSTORE PUSH2 0x2796 DUP2 PUSH2 0x275A JUMP JUMPDEST SWAP1 POP SWAP2 SWAP1 POP JUMP JUMPDEST PUSH32 0x426F6E646572206665652063616E6E6F742065786365656420616D6F756E742E PUSH1 0x0 DUP3 ADD MSTORE POP JUMP JUMPDEST PUSH1 0x0 PUSH2 0x27D3 PUSH1 0x20 DUP4 PUSH2 0x1F3E JUMP JUMPDEST SWAP2 POP PUSH2 0x27DE DUP3 PUSH2 0x279D JUMP JUMPDEST PUSH1 0x20 DUP3 ADD SWAP1 POP SWAP2 SWAP1 POP JUMP JUMPDEST PUSH1 0x0 PUSH1 0x20 DUP3 ADD SWAP1 POP DUP2 DUP2 SUB PUSH1 0x0 DUP4 ADD MSTORE PUSH2 0x2802 DUP2 PUSH2 0x27C6 JUMP JUMPDEST SWAP1 POP SWAP2 SWAP1 POP JUMP JUMPDEST PUSH1 0x0 PUSH2 0x100 DUP3 ADD SWAP1 POP PUSH2 0x281F PUSH1 0x0 DUP4 ADD DUP12 PUSH2 0x1BD0 JUMP JUMPDEST PUSH2 0x282C PUSH1 0x20 DUP4 ADD DUP11 PUSH2 0x1C93 JUMP JUMPDEST PUSH2 0x2839 PUSH1 0x40 DUP4 ADD DUP10 PUSH2 0x1BD0 JUMP JUMPDEST PUSH2 0x2846 PUSH1 0x60 DUP4 ADD DUP9 PUSH2 0x1BD0 JUMP JUMPDEST PUSH2 0x2853 PUSH1 0x80 DUP4 ADD DUP8 PUSH2 0x1BD0 JUMP JUMPDEST PUSH2 0x2860 PUSH1 0xA0 DUP4 ADD DUP7 PUSH2 0x1BD0 JUMP JUMPDEST PUSH2 0x286D PUSH1 0xC0 DUP4 ADD DUP6 PUSH2 0x1BD0 JUMP JUMPDEST PUSH2 0x287A PUSH1 0xE0 DUP4 ADD DUP5 PUSH2 0x1BD0 JUMP JUMPDEST SWAP10 SWAP9 POP POP POP POP POP POP POP POP POP JUMP JUMPDEST PUSH32 0x4F776E61626C653A206E6577206F776E657220697320746865207A65726F2061 PUSH1 0x0 DUP3 ADD MSTORE PUSH32 0x6464726573730000000000000000000000000000000000000000000000000000 PUSH1 0x20 DUP3 ADD MSTORE POP JUMP JUMPDEST PUSH1 0x0 PUSH2 0x28E3 PUSH1 0x26 DUP4 PUSH2 0x1F3E JUMP JUMPDEST SWAP2 POP PUSH2 0x28EE DUP3 PUSH2 0x2887 JUMP JUMPDEST PUSH1 0x40 DUP3 ADD SWAP1 POP SWAP2 SWAP1 POP JUMP JUMPDEST PUSH1 0x0 PUSH1 0x20 DUP3 ADD SWAP1 POP DUP2 DUP2 SUB PUSH1 0x0 DUP4 ADD MSTORE PUSH2 0x2912 DUP2 PUSH2 0x28D6 JUMP JUMPDEST SWAP1 POP SWAP2 SWAP1 POP JUMP JUMPDEST PUSH32 0x4F776E61626C653A2063616C6C6572206973206E6F7420746865206F776E6572 PUSH1 0x0 DUP3 ADD MSTORE POP JUMP JUMPDEST PUSH1 0x0 PUSH2 0x294F PUSH1 0x20 DUP4 PUSH2 0x1F3E JUMP JUMPDEST SWAP2 POP PUSH2 0x295A DUP3 PUSH2 0x2919 JUMP JUMPDEST PUSH1 0x20 DUP3 ADD SWAP1 POP SWAP2 SWAP1 POP JUMP JUMPDEST PUSH1 0x0 PUSH1 0x20 DUP3 ADD SWAP1 POP DUP2 DUP2 SUB PUSH1 0x0 DUP4 ADD MSTORE PUSH2 0x297E DUP2 PUSH2 0x2942 JUMP JUMPDEST SWAP1 POP SWAP2 SWAP1 POP JUMP JUMPDEST PUSH32 0x5265656E7472616E637947756172643A207265656E7472616E742063616C6C00 PUSH1 0x0 DUP3 ADD MSTORE POP JUMP JUMPDEST PUSH1 0x0 PUSH2 0x29BB PUSH1 0x1F DUP4 PUSH2 0x1F3E JUMP JUMPDEST SWAP2 POP PUSH2 0x29C6 DUP3 PUSH2 0x2985 JUMP JUMPDEST PUSH1 0x20 DUP3 ADD SWAP1 POP SWAP2 SWAP1 POP JUMP JUMPDEST PUSH1 0x0 PUSH1 0x20 DUP3 ADD SWAP1 POP DUP2 DUP2 SUB PUSH1 0x0 DUP4 ADD MSTORE PUSH2 0x29EA DUP2 PUSH2 0x29AE JUMP JUMPDEST SWAP1 POP SWAP2 SWAP1 POP JUMP JUMPDEST PUSH32 0x5365727669636520666565206D75737420636F766572206174206C6561737420 PUSH1 0x0 DUP3 ADD MSTORE PUSH32 0x74686520657865637574696F6E2067617320726571756972656D656E742E0000 PUSH1 0x20 DUP3 ADD MSTORE POP JUMP JUMPDEST PUSH1 0x0 PUSH2 0x2A4D PUSH1 0x3E DUP4 PUSH2 0x1F3E JUMP JUMPDEST SWAP2 POP PUSH2 0x2A58 DUP3 PUSH2 0x29F1 JUMP JUMPDEST PUSH1 0x40 DUP3 ADD SWAP1 POP SWAP2 SWAP1 POP JUMP JUMPDEST PUSH1 0x0 PUSH1 0x20 DUP3 ADD SWAP1 POP DUP2 DUP2 SUB PUSH1 0x0 DUP4 ADD MSTORE PUSH2 0x2A7C DUP2 PUSH2 0x2A40 JUMP JUMPDEST SWAP1 POP SWAP2 SWAP1 POP JUMP INVALID LOG2 PUSH5 0x6970667358 0x22 SLT KECCAK256 0xBA BASEFEE 0xF8 0xAA CODESIZE 0xB1 0xC8 PUSH15 0xC670EB946481A6D592F34AA5A571A6 MSIZE 0x2F 0xDA 0xAD PUSH5 0x97CD372B64 PUSH20 0x6F6C634300081200330000000000000000000000 "
		},
		"gasEstimates": {
			"creation": {
				"codeDepositCost": "2187400",
				"executionCost": "infinite",
				"totalCost": "infinite"
			},
			"external": {
				"addSupportForNewToken(address,address)": "infinite",
				"bridgeContractOf(address)": "infinite",
				"collectedServiceFeeExcludingGas()": "2473",
				"deposit(uint256,address,uint256,address,uint256,uint256)": "infinite",
				"executeRequest(address,uint256,uint256,uint256,uint256,uint256,uint256)": "infinite",
				"l2execGasFeeDeposit()": "2475",
				"layer1ChainId()": "2495",
				"owner()": "2611",
				"ownerDeposit()": "2753",
				"ownerWithdraw(uint256)": "infinite",
				"pendingRequests(address,uint256)": "infinite",
				"renounceOwnership()": "30443",
				"serviceFee()": "2474",
				"setL2execGasFeeDeposit(uint256)": "29353",
				"setserviceFee(uint256)": "29352",
				"transferOwnership(address)": "30854",
				"withdraw(uint256)": "infinite"
			},
			"internal": {
				"checkFeeInvariants()": "infinite",
				"isDefined(struct BridgeRequest memory)": "infinite",
				"recordCollectedServiceFeeExcludingGas()": "infinite"
			}
		},
		"methodIdentifiers": {
			"addSupportForNewToken(address,address)": "1485351e",
			"bridgeContractOf(address)": "7394e49c",
			"collectedServiceFeeExcludingGas()": "a1f66306",
			"deposit(uint256,address,uint256,address,uint256,uint256)": "8c13bc08",
			"executeRequest(address,uint256,uint256,uint256,uint256,uint256,uint256)": "d043ba19",
			"l2execGasFeeDeposit()": "242f4046",
			"layer1ChainId()": "b6502943",
			"owner()": "8da5cb5b",
			"ownerDeposit()": "7b1aa45f",
			"ownerWithdraw(uint256)": "33f707d1",
			"pendingRequests(address,uint256)": "488ff1c8",
			"renounceOwnership()": "715018a6",
			"serviceFee()": "8abdf5aa",
			"setL2execGasFeeDeposit(uint256)": "87d6161b",
			"setserviceFee(uint256)": "a191078a",
			"transferOwnership(address)": "f2fde38b",
			"withdraw(uint256)": "2e1a7d4d"
		}
	},
	"abi": [
		{
			"inputs": [
				{
					"internalType": "uint256",
					"name": "_l2execGasFeeDeposit",
					"type": "uint256"
				},
				{
					"internalType": "uint256",
					"name": "_serviceFee",
					"type": "uint256"
				},
				{
					"internalType": "uint256",
					"name": "_layer1ChainId",
					"type": "uint256"
				}
			],
			"stateMutability": "nonpayable",
			"type": "constructor"
		},
		{
			"anonymous": false,
			"inputs": [
				{
					"indexed": true,
					"internalType": "address",
					"name": "previousOwner",
					"type": "address"
				},
				{
					"indexed": true,
					"internalType": "address",
					"name": "newOwner",
					"type": "address"
				}
			],
			"name": "OwnershipTransferred",
			"type": "event"
		},
		{
			"inputs": [
				{
					"internalType": "contract IERC20",
					"name": "token",
					"type": "address"
				},
				{
					"internalType": "address",
					"name": "tokenHopBridge",
					"type": "address"
				}
			],
			"name": "addSupportForNewToken",
			"outputs": [],
			"stateMutability": "nonpayable",
			"type": "function"
		},
		{
			"inputs": [
				{
					"internalType": "contract IERC20",
					"name": "",
					"type": "address"
				}
			],
			"name": "bridgeContractOf",
			"outputs": [
				{
					"internalType": "address",
					"name": "",
					"type": "address"
				}
			],
			"stateMutability": "view",
			"type": "function"
		},
		{
			"inputs": [],
			"name": "collectedServiceFeeExcludingGas",
			"outputs": [
				{
					"internalType": "uint256",
					"name": "",
					"type": "uint256"
				}
			],
			"stateMutability": "view",
			"type": "function"
		},
		{
			"inputs": [
				{
					"internalType": "uint256",
					"name": "requestId",
					"type": "uint256"
				},
				{
					"internalType": "contract IERC20",
					"name": "token",
					"type": "address"
				},
				{
					"internalType": "uint256",
					"name": "tokenAmount",
					"type": "uint256"
				},
				{
					"internalType": "address",
					"name": "destination",
					"type": "address"
				},
				{
					"internalType": "uint256",
					"name": "wantedL1GasPrice",
					"type": "uint256"
				},
				{
					"internalType": "uint256",
					"name": "amountOutMin",
					"type": "uint256"
				}
			],
			"name": "deposit",
			"outputs": [],
			"stateMutability": "payable",
			"type": "function"
		},
		{
			"inputs": [
				{
					"internalType": "address",
					"name": "requestor",
					"type": "address"
				},
				{
					"internalType": "uint256",
					"name": "requestId",
					"type": "uint256"
				},
				{
					"internalType": "uint256",
					"name": "bonderFee",
					"type": "uint256"
				},
				{
					"internalType": "uint256",
					"name": "amountOutMin",
					"type": "uint256"
				},
				{
					"internalType": "uint256",
					"name": "deadline",
					"type": "uint256"
				},
				{
					"internalType": "uint256",
					"name": "destAmountOutMin",
					"type": "uint256"
				},
				{
					"internalType": "uint256",
					"name": "destDeadline",
					"type": "uint256"
				}
			],
			"name": "executeRequest",
			"outputs": [],
			"stateMutability": "nonpayable",
			"type": "function"
		},
		{
			"inputs": [],
			"name": "l2execGasFeeDeposit",
			"outputs": [
				{
					"internalType": "uint256",
					"name": "",
					"type": "uint256"
				}
			],
			"stateMutability": "view",
			"type": "function"
		},
		{
			"inputs": [],
			"name": "layer1ChainId",
			"outputs": [
				{
					"internalType": "uint256",
					"name": "",
					"type": "uint256"
				}
			],
			"stateMutability": "view",
			"type": "function"
		},
		{
			"inputs": [],
			"name": "owner",
			"outputs": [
				{
					"internalType": "address",
					"name": "",
					"type": "address"
				}
			],
			"stateMutability": "view",
			"type": "function"
		},
		{
			"inputs": [],
			"name": "ownerDeposit",
			"outputs": [],
			"stateMutability": "payable",
			"type": "function"
		},
		{
			"inputs": [
				{
					"internalType": "uint256",
					"name": "amount",
					"type": "uint256"
				}
			],
			"name": "ownerWithdraw",
			"outputs": [],
			"stateMutability": "nonpayable",
			"type": "function"
		},
		{
			"inputs": [
				{
					"internalType": "address",
					"name": "",
					"type": "address"
				},
				{
					"internalType": "uint256",
					"name": "",
					"type": "uint256"
				}
			],
			"name": "pendingRequests",
			"outputs": [
				{
					"internalType": "address",
					"name": "source",
					"type": "address"
				},
				{
					"internalType": "address",
					"name": "destination",
					"type": "address"
				},
				{
					"internalType": "bool",
					"name": "isTokenTransfer",
					"type": "bool"
				},
				{
					"internalType": "contract IERC20",
					"name": "token",
					"type": "address"
				},
				{
					"internalType": "uint256",
					"name": "amount",
					"type": "uint256"
				},
				{
					"internalType": "uint256",
					"name": "amountOutMin",
					"type": "uint256"
				},
				{
					"internalType": "uint256",
					"name": "wantedL1GasPrice",
					"type": "uint256"
				},
				{
					"internalType": "uint256",
					"name": "l2execGasFeeDeposit",
					"type": "uint256"
				}
			],
			"stateMutability": "view",
			"type": "function"
		},
		{
			"inputs": [],
			"name": "renounceOwnership",
			"outputs": [],
			"stateMutability": "nonpayable",
			"type": "function"
		},
		{
			"inputs": [],
			"name": "serviceFee",
			"outputs": [
				{
					"internalType": "uint256",
					"name": "",
					"type": "uint256"
				}
			],
			"stateMutability": "view",
			"type": "function"
		},
		{
			"inputs": [
				{
					"internalType": "uint256",
					"name": "amount",
					"type": "uint256"
				}
			],
			"name": "setL2execGasFeeDeposit",
			"outputs": [],
			"stateMutability": "nonpayable",
			"type": "function"
		},
		{
			"inputs": [
				{
					"internalType": "uint256",
					"name": "amount",
					"type": "uint256"
				}
			],
			"name": "setserviceFee",
			"outputs": [],
			"stateMutability": "nonpayable",
			"type": "function"
		},
		{
			"inputs": [
				{
					"internalType": "address",
					"name": "newOwner",
					"type": "address"
				}
			],
			"name": "transferOwnership",
			"outputs": [],
			"stateMutability": "nonpayable",
			"type": "function"
		},
		{
			"inputs": [
				{
					"internalType": "uint256",
					"name": "requestId",
					"type": "uint256"
				}
			],
			"name": "withdraw",
			"outputs": [],
			"stateMutability": "nonpayable",
			"type": "function"
		}
	]
}