{
	"data": {
		"bytecode": {
			"linkReferences": {},
			"object": "608060405234801561001057600080fd5b5060405161169638038061169683398101604081905261002f9161012b565b6100383361005b565b600180556002839055600382905560068190556100536100ab565b505050610159565b600080546001600160a01b038381166001600160a01b0319831681178455604051919092169283917f8be0079c531659141344cd1fd0a4f28419497f9722a3daafe3b4186f6b6457e09190a35050565b60025460035410156101295760405162461bcd60e51b815260206004820152603e60248201527f5365727669636520666565206d75737420636f766572206174206c656173742060448201527f74686520657865637574696f6e2067617320726571756972656d656e742e0000606482015260840160405180910390fd5b565b60008060006060848603121561014057600080fd5b8351925060208401519150604084015190509250925092565b61152e806101686000396000f3fe6080604052600436106100fe5760003560e01c806387d6161b11610095578063a191078a11610064578063a191078a1461032a578063a1f663061461034a578063b650294314610360578063d043ba1914610376578063f2fde38b1461039657600080fd5b806387d6161b146102c35780638abdf5aa146102e35780638c13bc08146102f95780638da5cb5b1461030c57600080fd5b8063488ff1c8116100d1578063488ff1c81461018e578063715018a6146102585780637394e49c1461026d5780637b1aa45f146102bb57600080fd5b80631485351e14610103578063242f4046146101255780632e1a7d4d1461014e57806333f707d11461016e575b600080fd5b34801561010f57600080fd5b5061012361011e36600461132b565b6103b6565b005b34801561013157600080fd5b5061013b60025481565b6040519081526020015b60405180910390f35b34801561015a57600080fd5b50610123610169366004611364565b610459565b34801561017a57600080fd5b50610123610189366004611364565b6106a6565b34801561019a57600080fd5b506102096101a936600461137d565b6005602081815260009384526040808520909152918352912080546001820154600283015460038401546004850154958501546006909501546001600160a01b039485169685851696600160a01b90950460ff1695909316939192919088565b604080516001600160a01b03998a168152978916602089015295151595870195909552959092166060850152608084015260a083015260c082019290925260e081019190915261010001610145565b34801561026457600080fd5b5061012361077f565b34801561027957600080fd5b506102a36102883660046113a9565b6007602052600090815260409020546001600160a01b031681565b6040516001600160a01b039091168152602001610145565b610123610793565b3480156102cf57600080fd5b506101236102de366004611364565b61079b565b3480156102ef57600080fd5b5061013b60035481565b6101236103073660046113cd565b6107b0565b34801561031857600080fd5b506000546001600160a01b03166102a3565b34801561033657600080fd5b50610123610345366004611364565b610e45565b34801561035657600080fd5b5061013b60045481565b34801561036c57600080fd5b5061013b60065481565b34801561038257600080fd5b50610123610391366004611429565b610e5a565b3480156103a257600080fd5b506101236103b13660046113a9565b6110fb565b6103be611171565b6001600160a01b03828116600090815260076020526040902054161561042b5760405162461bcd60e51b815260206004820152601860248201527f546f6b656e20616c726561647920737570706f727465642e000000000000000060448201526064015b60405180910390fd5b6001600160a01b03918216600090815260076020526040902080546001600160a01b03191691909216179055565b6104616111cb565b33600090815260056020818152604080842085855282529283902083516101008101855281546001600160a01b03908116808352600184015480831695840195909552600160a01b90940460ff161515958201959095526002820154909416606085015260038101546080850152600481015460a08501529182015460c084015260069091015460e08301526105395760405162461bcd60e51b815260206004820152601760248201527f4e6f207265717565737420746f2077697468647261772e0000000000000000006044820152606401610422565b80516001600160a01b031633146105525761055261147e565b60e08101516040820151600091901561057b57608083015161057490836114aa565b915061058d565b608083015161058a90826114aa565b90505b33600081815260056020818152604080842089855290915280832080546001600160a01b031990811682556001820180546001600160a81b03191690556002820180549091169055600381018490556004810184905591820183905560069091018290555183156108fc0291849190818181858888f1935050505061061157600080fd5b60608301516040516323b872dd60e01b8152306004820152336024820152604481018490526001600160a01b03909116906323b872dd906064016020604051808303816000875af115801561066a573d6000803e3d6000fd5b505050506040513d601f19601f8201168201806040525081019061068e91906114c3565b61069757600080fd5b5050506106a360018055565b50565b6106ae611171565b6106b66111cb565b80600454101561073a5760405162461bcd60e51b815260206004820152604360248201527f43616e6e6f74207769746864726177206d6f72652066756e6473207468616e2060448201527f74686520636f6c6c6563746564206e6f6e20676173207365727669636520666560648201526232b99760e91b608482015260a401610422565b806004600082825461074c91906114e5565b9091555050604051339082156108fc029083906000818181858888f1935050505061077657600080fd5b6106a360018055565b610787611171565b6107916000611224565b565b610791611171565b6107a3611171565b60028190556106a3611274565b6107b86111cb565b336108055760405162461bcd60e51b815260206004820152601b60248201527f53656e646572206d6179206e6f742062652030206164647265737300000000006044820152606401610422565b6001600160a01b03831661086c5760405162461bcd60e51b815260206004820152602860248201527f44657374696e6174696f6e2061646472657373206d6179206e6f742062652030604482015267206164647265737360c01b6064820152608401610422565b600082116108d25760405162461bcd60e51b815260206004820152602d60248201527f57616e746564204c3120676173207072696365206d757374206265207374726960448201526c63746c7920706f73697469766560981b6064820152608401610422565b60035434101561093a5760405162461bcd60e51b815260206004820152602d60248201527f4e6f7420656e6f7567682066756e647320746f2070617920666f722064656c6160448201526c3cb2b21032bc32b1baba34b7b760991b6064820152608401610422565b8315801590600090610a1e576001600160a01b03878116600090815260076020526040902054166109ad5760405162461bcd60e51b815260206004820152601760248201527f546f6b656e206973206e6f7420737570706f727465642e0000000000000000006044820152606401610422565b6003543414610a175760405162461bcd60e51b815260206004820152603060248201527f466f7220746f6b656e206465706f736974732c2070617920746865207365727660448201526f34b1b2903332b29032bc30b1ba363c9760811b6064820152608401610422565b5084610aa4565b6001600160a01b03871615610a945760405162461bcd60e51b815260206004820152603660248201527f546f6b656e206d757374206265203020616464726573732c207768656e2064656044820152753837b9b4ba34b733903730ba34bb329032ba3432b91760511b6064820152608401610422565b600354610aa190346114e5565b90505b82811015610b405760405162461bcd60e51b815260206004820152605e60248201527f43616c63756c617465642073656e7420616d6f756e74206d757374206265206c60448201527f6172676572207468616e207468652064657369726564206d696e696d756d206160648201527f6d6f756e74206172726976696e672061742064657374696e6174696f6e2e0000608482015260a401610422565b3360009081526005602081815260408084208c855282529283902083516101008101855281546001600160a01b03908116808352600184015480831695840195909552600160a01b90940460ff161515958201959095526002820154909416606085015260038101546080850152600481015460a08501529182015460c084015260069091015460e09092019190915215610c435760405162461bcd60e51b815260206004820152603a60248201527f526571756573742077697468207468652073616d6520696420666f722074686560448201527f20726571756573746f7220616c7265616479206578697374732e0000000000006064820152608401610422565b610c4b6112ee565b604051806101000160405280336001600160a01b03168152602001866001600160a01b031681526020018315158152602001886001600160a01b0316815260200182815260200184815260200185815260200160025481525060056000336001600160a01b03166001600160a01b0316815260200190815260200160002060008a815260200190815260200160002060008201518160000160006101000a8154816001600160a01b0302191690836001600160a01b0316021790555060208201518160010160006101000a8154816001600160a01b0302191690836001600160a01b0316021790555060408201518160010160146101000a81548160ff02191690831515021790555060608201518160020160006101000a8154816001600160a01b0302191690836001600160a01b031602179055506080820151816003015560a0820151816004015560c0820151816005015560e082015181600601559050508115610e32576040516323b872dd60e01b8152336004820152306024820152604481018290526001600160a01b038816906323b872dd906064016020604051808303816000875af1158015610e05573d6000803e3d6000fd5b505050506040513d601f19601f82011682018060405250810190610e2991906114c3565b610e3257600080fd5b5050610e3d60018055565b505050505050565b610e4d611171565b60038190556106a3611274565b610e62611171565b610e6a6111cb565b6001600160a01b0387811660009081526005602081815260408084208b855282529283902083516101008101855281548616808252600183015480881694830194909452600160a01b90930460ff161515948101949094526002810154909416606084015260038401546080840152600484015460a08401529083015460c083015260069092015460e082015290610f3c5760405162461bcd60e51b81526020600482015260156024820152744e6f207265717565737420746f2070726f6365737360581b6044820152606401610422565b8581608001511015610f905760405162461bcd60e51b815260206004820181905260248201527f426f6e646572206665652063616e6e6f742065786365656420616d6f756e742e6044820152606401610422565b60008160400151610fa5578160800151610fa8565b60005b60608301516001600160a01b039081166000908152600760209081526040808320548e8516845260058084528285208f8652845282852080546001600160a01b031990811682556001820180546001600160a81b03191690556002820180549091169055600381018690556004808201879055918101869055600690810195909555935492880151608089015192516377506bd960e11b81529485019390935291841660248401526044830152606482018b9052608482018a905260a4820189905260c4820188905260e48201879052929350911690819063eea0d7b2908490610104016000604051808303818588803b1580156110a557600080fd5b505af11580156110b9573d6000803e3d6000fd5b50505060e085015160405133935081156108fc0292506000818181858888f193505050506110e657600080fd5b5050506110f260018055565b50505050505050565b611103611171565b6001600160a01b0381166111685760405162461bcd60e51b815260206004820152602660248201527f4f776e61626c653a206e6577206f776e657220697320746865207a65726f206160448201526564647265737360d01b6064820152608401610422565b6106a381611224565b6000546001600160a01b031633146107915760405162461bcd60e51b815260206004820181905260248201527f4f776e61626c653a2063616c6c6572206973206e6f7420746865206f776e65726044820152606401610422565b60026001540361121d5760405162461bcd60e51b815260206004820152601f60248201527f5265656e7472616e637947756172643a207265656e7472616e742063616c6c006044820152606401610422565b6002600155565b600080546001600160a01b038381166001600160a01b0319831681178455604051919092169283917f8be0079c531659141344cd1fd0a4f28419497f9722a3daafe3b4186f6b6457e09190a35050565b60025460035410156107915760405162461bcd60e51b815260206004820152603e60248201527f5365727669636520666565206d75737420636f766572206174206c656173742060448201527f74686520657865637574696f6e2067617320726571756972656d656e742e00006064820152608401610422565b6002546003546112fe91906114e5565b6004600082825461130f91906114aa565b9091555050565b6001600160a01b03811681146106a357600080fd5b6000806040838503121561133e57600080fd5b823561134981611316565b9150602083013561135981611316565b809150509250929050565b60006020828403121561137657600080fd5b5035919050565b6000806040838503121561139057600080fd5b823561139b81611316565b946020939093013593505050565b6000602082840312156113bb57600080fd5b81356113c681611316565b9392505050565b60008060008060008060c087890312156113e657600080fd5b8635955060208701356113f881611316565b945060408701359350606087013561140f81611316565b9598949750929560808101359460a0909101359350915050565b600080600080600080600060e0888a03121561144457600080fd5b873561144f81611316565b9960208901359950604089013598606081013598506080810135975060a0810135965060c00135945092505050565b634e487b7160e01b600052600160045260246000fd5b634e487b7160e01b600052601160045260246000fd5b808201808211156114bd576114bd611494565b92915050565b6000602082840312156114d557600080fd5b815180151581146113c657600080fd5b818103818111156114bd576114bd61149456fea26469706673582212200b018a75015d14662f35c9b2e31f9a916fdda57963a4ce1572595459dff12f6f64736f6c63430008130033",
			"opcodes": "PUSH1 0x80 PUSH1 0x40 MSTORE CALLVALUE DUP1 ISZERO PUSH2 0x10 JUMPI PUSH1 0x0 DUP1 REVERT JUMPDEST POP PUSH1 0x40 MLOAD PUSH2 0x1696 CODESIZE SUB DUP1 PUSH2 0x1696 DUP4 CODECOPY DUP2 ADD PUSH1 0x40 DUP2 SWAP1 MSTORE PUSH2 0x2F SWAP2 PUSH2 0x12B JUMP JUMPDEST PUSH2 0x38 CALLER PUSH2 0x5B JUMP JUMPDEST PUSH1 0x1 DUP1 SSTORE PUSH1 0x2 DUP4 SWAP1 SSTORE PUSH1 0x3 DUP3 SWAP1 SSTORE PUSH1 0x6 DUP2 SWAP1 SSTORE PUSH2 0x53 PUSH2 0xAB JUMP JUMPDEST POP POP POP PUSH2 0x159 JUMP JUMPDEST PUSH1 0x0 DUP1 SLOAD PUSH1 0x1 PUSH1 0x1 PUSH1 0xA0 SHL SUB DUP4 DUP2 AND PUSH1 0x1 PUSH1 0x1 PUSH1 0xA0 SHL SUB NOT DUP4 AND DUP2 OR DUP5 SSTORE PUSH1 0x40 MLOAD SWAP2 SWAP1 SWAP3 AND SWAP3 DUP4 SWAP2 PUSH32 0x8BE0079C531659141344CD1FD0A4F28419497F9722A3DAAFE3B4186F6B6457E0 SWAP2 SWAP1 LOG3 POP POP JUMP JUMPDEST PUSH1 0x2 SLOAD PUSH1 0x3 SLOAD LT ISZERO PUSH2 0x129 JUMPI PUSH1 0x40 MLOAD PUSH3 0x461BCD PUSH1 0xE5 SHL DUP2 MSTORE PUSH1 0x20 PUSH1 0x4 DUP3 ADD MSTORE PUSH1 0x3E PUSH1 0x24 DUP3 ADD MSTORE PUSH32 0x5365727669636520666565206D75737420636F766572206174206C6561737420 PUSH1 0x44 DUP3 ADD MSTORE PUSH32 0x74686520657865637574696F6E2067617320726571756972656D656E742E0000 PUSH1 0x64 DUP3 ADD MSTORE PUSH1 0x84 ADD PUSH1 0x40 MLOAD DUP1 SWAP2 SUB SWAP1 REVERT JUMPDEST JUMP JUMPDEST PUSH1 0x0 DUP1 PUSH1 0x0 PUSH1 0x60 DUP5 DUP7 SUB SLT ISZERO PUSH2 0x140 JUMPI PUSH1 0x0 DUP1 REVERT JUMPDEST DUP4 MLOAD SWAP3 POP PUSH1 0x20 DUP5 ADD MLOAD SWAP2 POP PUSH1 0x40 DUP5 ADD MLOAD SWAP1 POP SWAP3 POP SWAP3 POP SWAP3 JUMP JUMPDEST PUSH2 0x152E DUP1 PUSH2 0x168 PUSH1 0x0 CODECOPY PUSH1 0x0 RETURN INVALID PUSH1 0x80 PUSH1 0x40 MSTORE PUSH1 0x4 CALLDATASIZE LT PUSH2 0xFE JUMPI PUSH1 0x0 CALLDATALOAD PUSH1 0xE0 SHR DUP1 PUSH4 0x87D6161B GT PUSH2 0x95 JUMPI DUP1 PUSH4 0xA191078A GT PUSH2 0x64 JUMPI DUP1 PUSH4 0xA191078A EQ PUSH2 0x32A JUMPI DUP1 PUSH4 0xA1F66306 EQ PUSH2 0x34A JUMPI DUP1 PUSH4 0xB6502943 EQ PUSH2 0x360 JUMPI DUP1 PUSH4 0xD043BA19 EQ PUSH2 0x376 JUMPI DUP1 PUSH4 0xF2FDE38B EQ PUSH2 0x396 JUMPI PUSH1 0x0 DUP1 REVERT JUMPDEST DUP1 PUSH4 0x87D6161B EQ PUSH2 0x2C3 JUMPI DUP1 PUSH4 0x8ABDF5AA EQ PUSH2 0x2E3 JUMPI DUP1 PUSH4 0x8C13BC08 EQ PUSH2 0x2F9 JUMPI DUP1 PUSH4 0x8DA5CB5B EQ PUSH2 0x30C JUMPI PUSH1 0x0 DUP1 REVERT JUMPDEST DUP1 PUSH4 0x488FF1C8 GT PUSH2 0xD1 JUMPI DUP1 PUSH4 0x488FF1C8 EQ PUSH2 0x18E JUMPI DUP1 PUSH4 0x715018A6 EQ PUSH2 0x258 JUMPI DUP1 PUSH4 0x7394E49C EQ PUSH2 0x26D JUMPI DUP1 PUSH4 0x7B1AA45F EQ PUSH2 0x2BB JUMPI PUSH1 0x0 DUP1 REVERT JUMPDEST DUP1 PUSH4 0x1485351E EQ PUSH2 0x103 JUMPI DUP1 PUSH4 0x242F4046 EQ PUSH2 0x125 JUMPI DUP1 PUSH4 0x2E1A7D4D EQ PUSH2 0x14E JUMPI DUP1 PUSH4 0x33F707D1 EQ PUSH2 0x16E JUMPI JUMPDEST PUSH1 0x0 DUP1 REVERT JUMPDEST CALLVALUE DUP1 ISZERO PUSH2 0x10F JUMPI PUSH1 0x0 DUP1 REVERT JUMPDEST POP PUSH2 0x123 PUSH2 0x11E CALLDATASIZE PUSH1 0x4 PUSH2 0x132B JUMP JUMPDEST PUSH2 0x3B6 JUMP JUMPDEST STOP JUMPDEST CALLVALUE DUP1 ISZERO PUSH2 0x131 JUMPI PUSH1 0x0 DUP1 REVERT JUMPDEST POP PUSH2 0x13B PUSH1 0x2 SLOAD DUP2 JUMP JUMPDEST PUSH1 0x40 MLOAD SWAP1 DUP2 MSTORE PUSH1 0x20 ADD JUMPDEST PUSH1 0x40 MLOAD DUP1 SWAP2 SUB SWAP1 RETURN JUMPDEST CALLVALUE DUP1 ISZERO PUSH2 0x15A JUMPI PUSH1 0x0 DUP1 REVERT JUMPDEST POP PUSH2 0x123 PUSH2 0x169 CALLDATASIZE PUSH1 0x4 PUSH2 0x1364 JUMP JUMPDEST PUSH2 0x459 JUMP JUMPDEST CALLVALUE DUP1 ISZERO PUSH2 0x17A JUMPI PUSH1 0x0 DUP1 REVERT JUMPDEST POP PUSH2 0x123 PUSH2 0x189 CALLDATASIZE PUSH1 0x4 PUSH2 0x1364 JUMP JUMPDEST PUSH2 0x6A6 JUMP JUMPDEST CALLVALUE DUP1 ISZERO PUSH2 0x19A JUMPI PUSH1 0x0 DUP1 REVERT JUMPDEST POP PUSH2 0x209 PUSH2 0x1A9 CALLDATASIZE PUSH1 0x4 PUSH2 0x137D JUMP JUMPDEST PUSH1 0x5 PUSH1 0x20 DUP2 DUP2 MSTORE PUSH1 0x0 SWAP4 DUP5 MSTORE PUSH1 0x40 DUP1 DUP6 KECCAK256 SWAP1 SWAP2 MSTORE SWAP2 DUP4 MSTORE SWAP2 KECCAK256 DUP1 SLOAD PUSH1 0x1 DUP3 ADD SLOAD PUSH1 0x2 DUP4 ADD SLOAD PUSH1 0x3 DUP5 ADD SLOAD PUSH1 0x4 DUP6 ADD SLOAD SWAP6 DUP6 ADD SLOAD PUSH1 0x6 SWAP1 SWAP6 ADD SLOAD PUSH1 0x1 PUSH1 0x1 PUSH1 0xA0 SHL SUB SWAP5 DUP6 AND SWAP7 DUP6 DUP6 AND SWAP7 PUSH1 0x1 PUSH1 0xA0 SHL SWAP1 SWAP6 DIV PUSH1 0xFF AND SWAP6 SWAP1 SWAP4 AND SWAP4 SWAP2 SWAP3 SWAP2 SWAP1 DUP9 JUMP JUMPDEST PUSH1 0x40 DUP1 MLOAD PUSH1 0x1 PUSH1 0x1 PUSH1 0xA0 SHL SUB SWAP10 DUP11 AND DUP2 MSTORE SWAP8 DUP10 AND PUSH1 0x20 DUP10 ADD MSTORE SWAP6 ISZERO ISZERO SWAP6 DUP8 ADD SWAP6 SWAP1 SWAP6 MSTORE SWAP6 SWAP1 SWAP3 AND PUSH1 0x60 DUP6 ADD MSTORE PUSH1 0x80 DUP5 ADD MSTORE PUSH1 0xA0 DUP4 ADD MSTORE PUSH1 0xC0 DUP3 ADD SWAP3 SWAP1 SWAP3 MSTORE PUSH1 0xE0 DUP2 ADD SWAP2 SWAP1 SWAP2 MSTORE PUSH2 0x100 ADD PUSH2 0x145 JUMP JUMPDEST CALLVALUE DUP1 ISZERO PUSH2 0x264 JUMPI PUSH1 0x0 DUP1 REVERT JUMPDEST POP PUSH2 0x123 PUSH2 0x77F JUMP JUMPDEST CALLVALUE DUP1 ISZERO PUSH2 0x279 JUMPI PUSH1 0x0 DUP1 REVERT JUMPDEST POP PUSH2 0x2A3 PUSH2 0x288 CALLDATASIZE PUSH1 0x4 PUSH2 0x13A9 JUMP JUMPDEST PUSH1 0x7 PUSH1 0x20 MSTORE PUSH1 0x0 SWAP1 DUP2 MSTORE PUSH1 0x40 SWAP1 KECCAK256 SLOAD PUSH1 0x1 PUSH1 0x1 PUSH1 0xA0 SHL SUB AND DUP2 JUMP JUMPDEST PUSH1 0x40 MLOAD PUSH1 0x1 PUSH1 0x1 PUSH1 0xA0 SHL SUB SWAP1 SWAP2 AND DUP2 MSTORE PUSH1 0x20 ADD PUSH2 0x145 JUMP JUMPDEST PUSH2 0x123 PUSH2 0x793 JUMP JUMPDEST CALLVALUE DUP1 ISZERO PUSH2 0x2CF JUMPI PUSH1 0x0 DUP1 REVERT JUMPDEST POP PUSH2 0x123 PUSH2 0x2DE CALLDATASIZE PUSH1 0x4 PUSH2 0x1364 JUMP JUMPDEST PUSH2 0x79B JUMP JUMPDEST CALLVALUE DUP1 ISZERO PUSH2 0x2EF JUMPI PUSH1 0x0 DUP1 REVERT JUMPDEST POP PUSH2 0x13B PUSH1 0x3 SLOAD DUP2 JUMP JUMPDEST PUSH2 0x123 PUSH2 0x307 CALLDATASIZE PUSH1 0x4 PUSH2 0x13CD JUMP JUMPDEST PUSH2 0x7B0 JUMP JUMPDEST CALLVALUE DUP1 ISZERO PUSH2 0x318 JUMPI PUSH1 0x0 DUP1 REVERT JUMPDEST POP PUSH1 0x0 SLOAD PUSH1 0x1 PUSH1 0x1 PUSH1 0xA0 SHL SUB AND PUSH2 0x2A3 JUMP JUMPDEST CALLVALUE DUP1 ISZERO PUSH2 0x336 JUMPI PUSH1 0x0 DUP1 REVERT JUMPDEST POP PUSH2 0x123 PUSH2 0x345 CALLDATASIZE PUSH1 0x4 PUSH2 0x1364 JUMP JUMPDEST PUSH2 0xE45 JUMP JUMPDEST CALLVALUE DUP1 ISZERO PUSH2 0x356 JUMPI PUSH1 0x0 DUP1 REVERT JUMPDEST POP PUSH2 0x13B PUSH1 0x4 SLOAD DUP2 JUMP JUMPDEST CALLVALUE DUP1 ISZERO PUSH2 0x36C JUMPI PUSH1 0x0 DUP1 REVERT JUMPDEST POP PUSH2 0x13B PUSH1 0x6 SLOAD DUP2 JUMP JUMPDEST CALLVALUE DUP1 ISZERO PUSH2 0x382 JUMPI PUSH1 0x0 DUP1 REVERT JUMPDEST POP PUSH2 0x123 PUSH2 0x391 CALLDATASIZE PUSH1 0x4 PUSH2 0x1429 JUMP JUMPDEST PUSH2 0xE5A JUMP JUMPDEST CALLVALUE DUP1 ISZERO PUSH2 0x3A2 JUMPI PUSH1 0x0 DUP1 REVERT JUMPDEST POP PUSH2 0x123 PUSH2 0x3B1 CALLDATASIZE PUSH1 0x4 PUSH2 0x13A9 JUMP JUMPDEST PUSH2 0x10FB JUMP JUMPDEST PUSH2 0x3BE PUSH2 0x1171 JUMP JUMPDEST PUSH1 0x1 PUSH1 0x1 PUSH1 0xA0 SHL SUB DUP3 DUP2 AND PUSH1 0x0 SWAP1 DUP2 MSTORE PUSH1 0x7 PUSH1 0x20 MSTORE PUSH1 0x40 SWAP1 KECCAK256 SLOAD AND ISZERO PUSH2 0x42B JUMPI PUSH1 0x40 MLOAD PUSH3 0x461BCD PUSH1 0xE5 SHL DUP2 MSTORE PUSH1 0x20 PUSH1 0x4 DUP3 ADD MSTORE PUSH1 0x18 PUSH1 0x24 DUP3 ADD MSTORE PUSH32 0x546F6B656E20616C726561647920737570706F727465642E0000000000000000 PUSH1 0x44 DUP3 ADD MSTORE PUSH1 0x64 ADD JUMPDEST PUSH1 0x40 MLOAD DUP1 SWAP2 SUB SWAP1 REVERT JUMPDEST PUSH1 0x1 PUSH1 0x1 PUSH1 0xA0 SHL SUB SWAP2 DUP3 AND PUSH1 0x0 SWAP1 DUP2 MSTORE PUSH1 0x7 PUSH1 0x20 MSTORE PUSH1 0x40 SWAP1 KECCAK256 DUP1 SLOAD PUSH1 0x1 PUSH1 0x1 PUSH1 0xA0 SHL SUB NOT AND SWAP2 SWAP1 SWAP3 AND OR SWAP1 SSTORE JUMP JUMPDEST PUSH2 0x461 PUSH2 0x11CB JUMP JUMPDEST CALLER PUSH1 0x0 SWAP1 DUP2 MSTORE PUSH1 0x5 PUSH1 0x20 DUP2 DUP2 MSTORE PUSH1 0x40 DUP1 DUP5 KECCAK256 DUP6 DUP6 MSTORE DUP3 MSTORE SWAP3 DUP4 SWAP1 KECCAK256 DUP4 MLOAD PUSH2 0x100 DUP2 ADD DUP6 MSTORE DUP2 SLOAD PUSH1 0x1 PUSH1 0x1 PUSH1 0xA0 SHL SUB SWAP1 DUP2 AND DUP1 DUP4 MSTORE PUSH1 0x1 DUP5 ADD SLOAD DUP1 DUP4 AND SWAP6 DUP5 ADD SWAP6 SWAP1 SWAP6 MSTORE PUSH1 0x1 PUSH1 0xA0 SHL SWAP1 SWAP5 DIV PUSH1 0xFF AND ISZERO ISZERO SWAP6 DUP3 ADD SWAP6 SWAP1 SWAP6 MSTORE PUSH1 0x2 DUP3 ADD SLOAD SWAP1 SWAP5 AND PUSH1 0x60 DUP6 ADD MSTORE PUSH1 0x3 DUP2 ADD SLOAD PUSH1 0x80 DUP6 ADD MSTORE PUSH1 0x4 DUP2 ADD SLOAD PUSH1 0xA0 DUP6 ADD MSTORE SWAP2 DUP3 ADD SLOAD PUSH1 0xC0 DUP5 ADD MSTORE PUSH1 0x6 SWAP1 SWAP2 ADD SLOAD PUSH1 0xE0 DUP4 ADD MSTORE PUSH2 0x539 JUMPI PUSH1 0x40 MLOAD PUSH3 0x461BCD PUSH1 0xE5 SHL DUP2 MSTORE PUSH1 0x20 PUSH1 0x4 DUP3 ADD MSTORE PUSH1 0x17 PUSH1 0x24 DUP3 ADD MSTORE PUSH32 0x4E6F207265717565737420746F2077697468647261772E000000000000000000 PUSH1 0x44 DUP3 ADD MSTORE PUSH1 0x64 ADD PUSH2 0x422 JUMP JUMPDEST DUP1 MLOAD PUSH1 0x1 PUSH1 0x1 PUSH1 0xA0 SHL SUB AND CALLER EQ PUSH2 0x552 JUMPI PUSH2 0x552 PUSH2 0x147E JUMP JUMPDEST PUSH1 0xE0 DUP2 ADD MLOAD PUSH1 0x40 DUP3 ADD MLOAD PUSH1 0x0 SWAP2 SWAP1 ISZERO PUSH2 0x57B JUMPI PUSH1 0x80 DUP4 ADD MLOAD PUSH2 0x574 SWAP1 DUP4 PUSH2 0x14AA JUMP JUMPDEST SWAP2 POP PUSH2 0x58D JUMP JUMPDEST PUSH1 0x80 DUP4 ADD MLOAD PUSH2 0x58A SWAP1 DUP3 PUSH2 0x14AA JUMP JUMPDEST SWAP1 POP JUMPDEST CALLER PUSH1 0x0 DUP2 DUP2 MSTORE PUSH1 0x5 PUSH1 0x20 DUP2 DUP2 MSTORE PUSH1 0x40 DUP1 DUP5 KECCAK256 DUP10 DUP6 MSTORE SWAP1 SWAP2 MSTORE DUP1 DUP4 KECCAK256 DUP1 SLOAD PUSH1 0x1 PUSH1 0x1 PUSH1 0xA0 SHL SUB NOT SWAP1 DUP2 AND DUP3 SSTORE PUSH1 0x1 DUP3 ADD DUP1 SLOAD PUSH1 0x1 PUSH1 0x1 PUSH1 0xA8 SHL SUB NOT AND SWAP1 SSTORE PUSH1 0x2 DUP3 ADD DUP1 SLOAD SWAP1 SWAP2 AND SWAP1 SSTORE PUSH1 0x3 DUP2 ADD DUP5 SWAP1 SSTORE PUSH1 0x4 DUP2 ADD DUP5 SWAP1 SSTORE SWAP2 DUP3 ADD DUP4 SWAP1 SSTORE PUSH1 0x6 SWAP1 SWAP2 ADD DUP3 SWAP1 SSTORE MLOAD DUP4 ISZERO PUSH2 0x8FC MUL SWAP2 DUP5 SWAP2 SWAP1 DUP2 DUP2 DUP2 DUP6 DUP9 DUP9 CALL SWAP4 POP POP POP POP PUSH2 0x611 JUMPI PUSH1 0x0 DUP1 REVERT JUMPDEST PUSH1 0x60 DUP4 ADD MLOAD PUSH1 0x40 MLOAD PUSH4 0x23B872DD PUSH1 0xE0 SHL DUP2 MSTORE ADDRESS PUSH1 0x4 DUP3 ADD MSTORE CALLER PUSH1 0x24 DUP3 ADD MSTORE PUSH1 0x44 DUP2 ADD DUP5 SWAP1 MSTORE PUSH1 0x1 PUSH1 0x1 PUSH1 0xA0 SHL SUB SWAP1 SWAP2 AND SWAP1 PUSH4 0x23B872DD SWAP1 PUSH1 0x64 ADD PUSH1 0x20 PUSH1 0x40 MLOAD DUP1 DUP4 SUB DUP2 PUSH1 0x0 DUP8 GAS CALL ISZERO DUP1 ISZERO PUSH2 0x66A JUMPI RETURNDATASIZE PUSH1 0x0 DUP1 RETURNDATACOPY RETURNDATASIZE PUSH1 0x0 REVERT JUMPDEST POP POP POP POP PUSH1 0x40 MLOAD RETURNDATASIZE PUSH1 0x1F NOT PUSH1 0x1F DUP3 ADD AND DUP3 ADD DUP1 PUSH1 0x40 MSTORE POP DUP2 ADD SWAP1 PUSH2 0x68E SWAP2 SWAP1 PUSH2 0x14C3 JUMP JUMPDEST PUSH2 0x697 JUMPI PUSH1 0x0 DUP1 REVERT JUMPDEST POP POP POP PUSH2 0x6A3 PUSH1 0x1 DUP1 SSTORE JUMP JUMPDEST POP JUMP JUMPDEST PUSH2 0x6AE PUSH2 0x1171 JUMP JUMPDEST PUSH2 0x6B6 PUSH2 0x11CB JUMP JUMPDEST DUP1 PUSH1 0x4 SLOAD LT ISZERO PUSH2 0x73A JUMPI PUSH1 0x40 MLOAD PUSH3 0x461BCD PUSH1 0xE5 SHL DUP2 MSTORE PUSH1 0x20 PUSH1 0x4 DUP3 ADD MSTORE PUSH1 0x43 PUSH1 0x24 DUP3 ADD MSTORE PUSH32 0x43616E6E6F74207769746864726177206D6F72652066756E6473207468616E20 PUSH1 0x44 DUP3 ADD MSTORE PUSH32 0x74686520636F6C6C6563746564206E6F6E206761732073657276696365206665 PUSH1 0x64 DUP3 ADD MSTORE PUSH3 0x32B997 PUSH1 0xE9 SHL PUSH1 0x84 DUP3 ADD MSTORE PUSH1 0xA4 ADD PUSH2 0x422 JUMP JUMPDEST DUP1 PUSH1 0x4 PUSH1 0x0 DUP3 DUP3 SLOAD PUSH2 0x74C SWAP2 SWAP1 PUSH2 0x14E5 JUMP JUMPDEST SWAP1 SWAP2 SSTORE POP POP PUSH1 0x40 MLOAD CALLER SWAP1 DUP3 ISZERO PUSH2 0x8FC MUL SWAP1 DUP4 SWAP1 PUSH1 0x0 DUP2 DUP2 DUP2 DUP6 DUP9 DUP9 CALL SWAP4 POP POP POP POP PUSH2 0x776 JUMPI PUSH1 0x0 DUP1 REVERT JUMPDEST PUSH2 0x6A3 PUSH1 0x1 DUP1 SSTORE JUMP JUMPDEST PUSH2 0x787 PUSH2 0x1171 JUMP JUMPDEST PUSH2 0x791 PUSH1 0x0 PUSH2 0x1224 JUMP JUMPDEST JUMP JUMPDEST PUSH2 0x791 PUSH2 0x1171 JUMP JUMPDEST PUSH2 0x7A3 PUSH2 0x1171 JUMP JUMPDEST PUSH1 0x2 DUP2 SWAP1 SSTORE PUSH2 0x6A3 PUSH2 0x1274 JUMP JUMPDEST PUSH2 0x7B8 PUSH2 0x11CB JUMP JUMPDEST CALLER PUSH2 0x805 JUMPI PUSH1 0x40 MLOAD PUSH3 0x461BCD PUSH1 0xE5 SHL DUP2 MSTORE PUSH1 0x20 PUSH1 0x4 DUP3 ADD MSTORE PUSH1 0x1B PUSH1 0x24 DUP3 ADD MSTORE PUSH32 0x53656E646572206D6179206E6F74206265203020616464726573730000000000 PUSH1 0x44 DUP3 ADD MSTORE PUSH1 0x64 ADD PUSH2 0x422 JUMP JUMPDEST PUSH1 0x1 PUSH1 0x1 PUSH1 0xA0 SHL SUB DUP4 AND PUSH2 0x86C JUMPI PUSH1 0x40 MLOAD PUSH3 0x461BCD PUSH1 0xE5 SHL DUP2 MSTORE PUSH1 0x20 PUSH1 0x4 DUP3 ADD MSTORE PUSH1 0x28 PUSH1 0x24 DUP3 ADD MSTORE PUSH32 0x44657374696E6174696F6E2061646472657373206D6179206E6F742062652030 PUSH1 0x44 DUP3 ADD MSTORE PUSH8 0x2061646472657373 PUSH1 0xC0 SHL PUSH1 0x64 DUP3 ADD MSTORE PUSH1 0x84 ADD PUSH2 0x422 JUMP JUMPDEST PUSH1 0x0 DUP3 GT PUSH2 0x8D2 JUMPI PUSH1 0x40 MLOAD PUSH3 0x461BCD PUSH1 0xE5 SHL DUP2 MSTORE PUSH1 0x20 PUSH1 0x4 DUP3 ADD MSTORE PUSH1 0x2D PUSH1 0x24 DUP3 ADD MSTORE PUSH32 0x57616E746564204C3120676173207072696365206D7573742062652073747269 PUSH1 0x44 DUP3 ADD MSTORE PUSH13 0x63746C7920706F736974697665 PUSH1 0x98 SHL PUSH1 0x64 DUP3 ADD MSTORE PUSH1 0x84 ADD PUSH2 0x422 JUMP JUMPDEST PUSH1 0x3 SLOAD CALLVALUE LT ISZERO PUSH2 0x93A JUMPI PUSH1 0x40 MLOAD PUSH3 0x461BCD PUSH1 0xE5 SHL DUP2 MSTORE PUSH1 0x20 PUSH1 0x4 DUP3 ADD MSTORE PUSH1 0x2D PUSH1 0x24 DUP3 ADD MSTORE PUSH32 0x4E6F7420656E6F7567682066756E647320746F2070617920666F722064656C61 PUSH1 0x44 DUP3 ADD MSTORE PUSH13 0x3CB2B21032BC32B1BABA34B7B7 PUSH1 0x99 SHL PUSH1 0x64 DUP3 ADD MSTORE PUSH1 0x84 ADD PUSH2 0x422 JUMP JUMPDEST DUP4 ISZERO DUP1 ISZERO SWAP1 PUSH1 0x0 SWAP1 PUSH2 0xA1E JUMPI PUSH1 0x1 PUSH1 0x1 PUSH1 0xA0 SHL SUB DUP8 DUP2 AND PUSH1 0x0 SWAP1 DUP2 MSTORE PUSH1 0x7 PUSH1 0x20 MSTORE PUSH1 0x40 SWAP1 KECCAK256 SLOAD AND PUSH2 0x9AD JUMPI PUSH1 0x40 MLOAD PUSH3 0x461BCD PUSH1 0xE5 SHL DUP2 MSTORE PUSH1 0x20 PUSH1 0x4 DUP3 ADD MSTORE PUSH1 0x17 PUSH1 0x24 DUP3 ADD MSTORE PUSH32 0x546F6B656E206973206E6F7420737570706F727465642E000000000000000000 PUSH1 0x44 DUP3 ADD MSTORE PUSH1 0x64 ADD PUSH2 0x422 JUMP JUMPDEST PUSH1 0x3 SLOAD CALLVALUE EQ PUSH2 0xA17 JUMPI PUSH1 0x40 MLOAD PUSH3 0x461BCD PUSH1 0xE5 SHL DUP2 MSTORE PUSH1 0x20 PUSH1 0x4 DUP3 ADD MSTORE PUSH1 0x30 PUSH1 0x24 DUP3 ADD MSTORE PUSH32 0x466F7220746F6B656E206465706F736974732C20706179207468652073657276 PUSH1 0x44 DUP3 ADD MSTORE PUSH16 0x34B1B2903332B29032BC30B1BA363C97 PUSH1 0x81 SHL PUSH1 0x64 DUP3 ADD MSTORE PUSH1 0x84 ADD PUSH2 0x422 JUMP JUMPDEST POP DUP5 PUSH2 0xAA4 JUMP JUMPDEST PUSH1 0x1 PUSH1 0x1 PUSH1 0xA0 SHL SUB DUP8 AND ISZERO PUSH2 0xA94 JUMPI PUSH1 0x40 MLOAD PUSH3 0x461BCD PUSH1 0xE5 SHL DUP2 MSTORE PUSH1 0x20 PUSH1 0x4 DUP3 ADD MSTORE PUSH1 0x36 PUSH1 0x24 DUP3 ADD MSTORE PUSH32 0x546F6B656E206D757374206265203020616464726573732C207768656E206465 PUSH1 0x44 DUP3 ADD MSTORE PUSH22 0x3837B9B4BA34B733903730BA34BB329032BA3432B917 PUSH1 0x51 SHL PUSH1 0x64 DUP3 ADD MSTORE PUSH1 0x84 ADD PUSH2 0x422 JUMP JUMPDEST PUSH1 0x3 SLOAD PUSH2 0xAA1 SWAP1 CALLVALUE PUSH2 0x14E5 JUMP JUMPDEST SWAP1 POP JUMPDEST DUP3 DUP2 LT ISZERO PUSH2 0xB40 JUMPI PUSH1 0x40 MLOAD PUSH3 0x461BCD PUSH1 0xE5 SHL DUP2 MSTORE PUSH1 0x20 PUSH1 0x4 DUP3 ADD MSTORE PUSH1 0x5E PUSH1 0x24 DUP3 ADD MSTORE PUSH32 0x43616C63756C617465642073656E7420616D6F756E74206D757374206265206C PUSH1 0x44 DUP3 ADD MSTORE PUSH32 0x6172676572207468616E207468652064657369726564206D696E696D756D2061 PUSH1 0x64 DUP3 ADD MSTORE PUSH32 0x6D6F756E74206172726976696E672061742064657374696E6174696F6E2E0000 PUSH1 0x84 DUP3 ADD MSTORE PUSH1 0xA4 ADD PUSH2 0x422 JUMP JUMPDEST CALLER PUSH1 0x0 SWAP1 DUP2 MSTORE PUSH1 0x5 PUSH1 0x20 DUP2 DUP2 MSTORE PUSH1 0x40 DUP1 DUP5 KECCAK256 DUP13 DUP6 MSTORE DUP3 MSTORE SWAP3 DUP4 SWAP1 KECCAK256 DUP4 MLOAD PUSH2 0x100 DUP2 ADD DUP6 MSTORE DUP2 SLOAD PUSH1 0x1 PUSH1 0x1 PUSH1 0xA0 SHL SUB SWAP1 DUP2 AND DUP1 DUP4 MSTORE PUSH1 0x1 DUP5 ADD SLOAD DUP1 DUP4 AND SWAP6 DUP5 ADD SWAP6 SWAP1 SWAP6 MSTORE PUSH1 0x1 PUSH1 0xA0 SHL SWAP1 SWAP5 DIV PUSH1 0xFF AND ISZERO ISZERO SWAP6 DUP3 ADD SWAP6 SWAP1 SWAP6 MSTORE PUSH1 0x2 DUP3 ADD SLOAD SWAP1 SWAP5 AND PUSH1 0x60 DUP6 ADD MSTORE PUSH1 0x3 DUP2 ADD SLOAD PUSH1 0x80 DUP6 ADD MSTORE PUSH1 0x4 DUP2 ADD SLOAD PUSH1 0xA0 DUP6 ADD MSTORE SWAP2 DUP3 ADD SLOAD PUSH1 0xC0 DUP5 ADD MSTORE PUSH1 0x6 SWAP1 SWAP2 ADD SLOAD PUSH1 0xE0 SWAP1 SWAP3 ADD SWAP2 SWAP1 SWAP2 MSTORE ISZERO PUSH2 0xC43 JUMPI PUSH1 0x40 MLOAD PUSH3 0x461BCD PUSH1 0xE5 SHL DUP2 MSTORE PUSH1 0x20 PUSH1 0x4 DUP3 ADD MSTORE PUSH1 0x3A PUSH1 0x24 DUP3 ADD MSTORE PUSH32 0x526571756573742077697468207468652073616D6520696420666F7220746865 PUSH1 0x44 DUP3 ADD MSTORE PUSH32 0x20726571756573746F7220616C7265616479206578697374732E000000000000 PUSH1 0x64 DUP3 ADD MSTORE PUSH1 0x84 ADD PUSH2 0x422 JUMP JUMPDEST PUSH2 0xC4B PUSH2 0x12EE JUMP JUMPDEST PUSH1 0x40 MLOAD DUP1 PUSH2 0x100 ADD PUSH1 0x40 MSTORE DUP1 CALLER PUSH1 0x1 PUSH1 0x1 PUSH1 0xA0 SHL SUB AND DUP2 MSTORE PUSH1 0x20 ADD DUP7 PUSH1 0x1 PUSH1 0x1 PUSH1 0xA0 SHL SUB AND DUP2 MSTORE PUSH1 0x20 ADD DUP4 ISZERO ISZERO DUP2 MSTORE PUSH1 0x20 ADD DUP9 PUSH1 0x1 PUSH1 0x1 PUSH1 0xA0 SHL SUB AND DUP2 MSTORE PUSH1 0x20 ADD DUP3 DUP2 MSTORE PUSH1 0x20 ADD DUP5 DUP2 MSTORE PUSH1 0x20 ADD DUP6 DUP2 MSTORE PUSH1 0x20 ADD PUSH1 0x2 SLOAD DUP2 MSTORE POP PUSH1 0x5 PUSH1 0x0 CALLER PUSH1 0x1 PUSH1 0x1 PUSH1 0xA0 SHL SUB AND PUSH1 0x1 PUSH1 0x1 PUSH1 0xA0 SHL SUB AND DUP2 MSTORE PUSH1 0x20 ADD SWAP1 DUP2 MSTORE PUSH1 0x20 ADD PUSH1 0x0 KECCAK256 PUSH1 0x0 DUP11 DUP2 MSTORE PUSH1 0x20 ADD SWAP1 DUP2 MSTORE PUSH1 0x20 ADD PUSH1 0x0 KECCAK256 PUSH1 0x0 DUP3 ADD MLOAD DUP2 PUSH1 0x0 ADD PUSH1 0x0 PUSH2 0x100 EXP DUP2 SLOAD DUP2 PUSH1 0x1 PUSH1 0x1 PUSH1 0xA0 SHL SUB MUL NOT AND SWAP1 DUP4 PUSH1 0x1 PUSH1 0x1 PUSH1 0xA0 SHL SUB AND MUL OR SWAP1 SSTORE POP PUSH1 0x20 DUP3 ADD MLOAD DUP2 PUSH1 0x1 ADD PUSH1 0x0 PUSH2 0x100 EXP DUP2 SLOAD DUP2 PUSH1 0x1 PUSH1 0x1 PUSH1 0xA0 SHL SUB MUL NOT AND SWAP1 DUP4 PUSH1 0x1 PUSH1 0x1 PUSH1 0xA0 SHL SUB AND MUL OR SWAP1 SSTORE POP PUSH1 0x40 DUP3 ADD MLOAD DUP2 PUSH1 0x1 ADD PUSH1 0x14 PUSH2 0x100 EXP DUP2 SLOAD DUP2 PUSH1 0xFF MUL NOT AND SWAP1 DUP4 ISZERO ISZERO MUL OR SWAP1 SSTORE POP PUSH1 0x60 DUP3 ADD MLOAD DUP2 PUSH1 0x2 ADD PUSH1 0x0 PUSH2 0x100 EXP DUP2 SLOAD DUP2 PUSH1 0x1 PUSH1 0x1 PUSH1 0xA0 SHL SUB MUL NOT AND SWAP1 DUP4 PUSH1 0x1 PUSH1 0x1 PUSH1 0xA0 SHL SUB AND MUL OR SWAP1 SSTORE POP PUSH1 0x80 DUP3 ADD MLOAD DUP2 PUSH1 0x3 ADD SSTORE PUSH1 0xA0 DUP3 ADD MLOAD DUP2 PUSH1 0x4 ADD SSTORE PUSH1 0xC0 DUP3 ADD MLOAD DUP2 PUSH1 0x5 ADD SSTORE PUSH1 0xE0 DUP3 ADD MLOAD DUP2 PUSH1 0x6 ADD SSTORE SWAP1 POP POP DUP2 ISZERO PUSH2 0xE32 JUMPI PUSH1 0x40 MLOAD PUSH4 0x23B872DD PUSH1 0xE0 SHL DUP2 MSTORE CALLER PUSH1 0x4 DUP3 ADD MSTORE ADDRESS PUSH1 0x24 DUP3 ADD MSTORE PUSH1 0x44 DUP2 ADD DUP3 SWAP1 MSTORE PUSH1 0x1 PUSH1 0x1 PUSH1 0xA0 SHL SUB DUP9 AND SWAP1 PUSH4 0x23B872DD SWAP1 PUSH1 0x64 ADD PUSH1 0x20 PUSH1 0x40 MLOAD DUP1 DUP4 SUB DUP2 PUSH1 0x0 DUP8 GAS CALL ISZERO DUP1 ISZERO PUSH2 0xE05 JUMPI RETURNDATASIZE PUSH1 0x0 DUP1 RETURNDATACOPY RETURNDATASIZE PUSH1 0x0 REVERT JUMPDEST POP POP POP POP PUSH1 0x40 MLOAD RETURNDATASIZE PUSH1 0x1F NOT PUSH1 0x1F DUP3 ADD AND DUP3 ADD DUP1 PUSH1 0x40 MSTORE POP DUP2 ADD SWAP1 PUSH2 0xE29 SWAP2 SWAP1 PUSH2 0x14C3 JUMP JUMPDEST PUSH2 0xE32 JUMPI PUSH1 0x0 DUP1 REVERT JUMPDEST POP POP PUSH2 0xE3D PUSH1 0x1 DUP1 SSTORE JUMP JUMPDEST POP POP POP POP POP POP JUMP JUMPDEST PUSH2 0xE4D PUSH2 0x1171 JUMP JUMPDEST PUSH1 0x3 DUP2 SWAP1 SSTORE PUSH2 0x6A3 PUSH2 0x1274 JUMP JUMPDEST PUSH2 0xE62 PUSH2 0x1171 JUMP JUMPDEST PUSH2 0xE6A PUSH2 0x11CB JUMP JUMPDEST PUSH1 0x1 PUSH1 0x1 PUSH1 0xA0 SHL SUB DUP8 DUP2 AND PUSH1 0x0 SWAP1 DUP2 MSTORE PUSH1 0x5 PUSH1 0x20 DUP2 DUP2 MSTORE PUSH1 0x40 DUP1 DUP5 KECCAK256 DUP12 DUP6 MSTORE DUP3 MSTORE SWAP3 DUP4 SWAP1 KECCAK256 DUP4 MLOAD PUSH2 0x100 DUP2 ADD DUP6 MSTORE DUP2 SLOAD DUP7 AND DUP1 DUP3 MSTORE PUSH1 0x1 DUP4 ADD SLOAD DUP1 DUP9 AND SWAP5 DUP4 ADD SWAP5 SWAP1 SWAP5 MSTORE PUSH1 0x1 PUSH1 0xA0 SHL SWAP1 SWAP4 DIV PUSH1 0xFF AND ISZERO ISZERO SWAP5 DUP2 ADD SWAP5 SWAP1 SWAP5 MSTORE PUSH1 0x2 DUP2 ADD SLOAD SWAP1 SWAP5 AND PUSH1 0x60 DUP5 ADD MSTORE PUSH1 0x3 DUP5 ADD SLOAD PUSH1 0x80 DUP5 ADD MSTORE PUSH1 0x4 DUP5 ADD SLOAD PUSH1 0xA0 DUP5 ADD MSTORE SWAP1 DUP4 ADD SLOAD PUSH1 0xC0 DUP4 ADD MSTORE PUSH1 0x6 SWAP1 SWAP3 ADD SLOAD PUSH1 0xE0 DUP3 ADD MSTORE SWAP1 PUSH2 0xF3C JUMPI PUSH1 0x40 MLOAD PUSH3 0x461BCD PUSH1 0xE5 SHL DUP2 MSTORE PUSH1 0x20 PUSH1 0x4 DUP3 ADD MSTORE PUSH1 0x15 PUSH1 0x24 DUP3 ADD MSTORE PUSH21 0x4E6F207265717565737420746F2070726F63657373 PUSH1 0x58 SHL PUSH1 0x44 DUP3 ADD MSTORE PUSH1 0x64 ADD PUSH2 0x422 JUMP JUMPDEST DUP6 DUP2 PUSH1 0x80 ADD MLOAD LT ISZERO PUSH2 0xF90 JUMPI PUSH1 0x40 MLOAD PUSH3 0x461BCD PUSH1 0xE5 SHL DUP2 MSTORE PUSH1 0x20 PUSH1 0x4 DUP3 ADD DUP2 SWAP1 MSTORE PUSH1 0x24 DUP3 ADD MSTORE PUSH32 0x426F6E646572206665652063616E6E6F742065786365656420616D6F756E742E PUSH1 0x44 DUP3 ADD MSTORE PUSH1 0x64 ADD PUSH2 0x422 JUMP JUMPDEST PUSH1 0x0 DUP2 PUSH1 0x40 ADD MLOAD PUSH2 0xFA5 JUMPI DUP2 PUSH1 0x80 ADD MLOAD PUSH2 0xFA8 JUMP JUMPDEST PUSH1 0x0 JUMPDEST PUSH1 0x60 DUP4 ADD MLOAD PUSH1 0x1 PUSH1 0x1 PUSH1 0xA0 SHL SUB SWAP1 DUP2 AND PUSH1 0x0 SWAP1 DUP2 MSTORE PUSH1 0x7 PUSH1 0x20 SWAP1 DUP2 MSTORE PUSH1 0x40 DUP1 DUP4 KECCAK256 SLOAD DUP15 DUP6 AND DUP5 MSTORE PUSH1 0x5 DUP1 DUP5 MSTORE DUP3 DUP6 KECCAK256 DUP16 DUP7 MSTORE DUP5 MSTORE DUP3 DUP6 KECCAK256 DUP1 SLOAD PUSH1 0x1 PUSH1 0x1 PUSH1 0xA0 SHL SUB NOT SWAP1 DUP2 AND DUP3 SSTORE PUSH1 0x1 DUP3 ADD DUP1 SLOAD PUSH1 0x1 PUSH1 0x1 PUSH1 0xA8 SHL SUB NOT AND SWAP1 SSTORE PUSH1 0x2 DUP3 ADD DUP1 SLOAD SWAP1 SWAP2 AND SWAP1 SSTORE PUSH1 0x3 DUP2 ADD DUP7 SWAP1 SSTORE PUSH1 0x4 DUP1 DUP3 ADD DUP8 SWAP1 SSTORE SWAP2 DUP2 ADD DUP7 SWAP1 SSTORE PUSH1 0x6 SWAP1 DUP2 ADD SWAP6 SWAP1 SWAP6 SSTORE SWAP4 SLOAD SWAP3 DUP9 ADD MLOAD PUSH1 0x80 DUP10 ADD MLOAD SWAP3 MLOAD PUSH4 0x77506BD9 PUSH1 0xE1 SHL DUP2 MSTORE SWAP5 DUP6 ADD SWAP4 SWAP1 SWAP4 MSTORE SWAP2 DUP5 AND PUSH1 0x24 DUP5 ADD MSTORE PUSH1 0x44 DUP4 ADD MSTORE PUSH1 0x64 DUP3 ADD DUP12 SWAP1 MSTORE PUSH1 0x84 DUP3 ADD DUP11 SWAP1 MSTORE PUSH1 0xA4 DUP3 ADD DUP10 SWAP1 MSTORE PUSH1 0xC4 DUP3 ADD DUP9 SWAP1 MSTORE PUSH1 0xE4 DUP3 ADD DUP8 SWAP1 MSTORE SWAP3 SWAP4 POP SWAP2 AND SWAP1 DUP2 SWAP1 PUSH4 0xEEA0D7B2 SWAP1 DUP5 SWAP1 PUSH2 0x104 ADD PUSH1 0x0 PUSH1 0x40 MLOAD DUP1 DUP4 SUB DUP2 DUP6 DUP9 DUP1 EXTCODESIZE ISZERO DUP1 ISZERO PUSH2 0x10A5 JUMPI PUSH1 0x0 DUP1 REVERT JUMPDEST POP GAS CALL ISZERO DUP1 ISZERO PUSH2 0x10B9 JUMPI RETURNDATASIZE PUSH1 0x0 DUP1 RETURNDATACOPY RETURNDATASIZE PUSH1 0x0 REVERT JUMPDEST POP POP POP PUSH1 0xE0 DUP6 ADD MLOAD PUSH1 0x40 MLOAD CALLER SWAP4 POP DUP2 ISZERO PUSH2 0x8FC MUL SWAP3 POP PUSH1 0x0 DUP2 DUP2 DUP2 DUP6 DUP9 DUP9 CALL SWAP4 POP POP POP POP PUSH2 0x10E6 JUMPI PUSH1 0x0 DUP1 REVERT JUMPDEST POP POP POP PUSH2 0x10F2 PUSH1 0x1 DUP1 SSTORE JUMP JUMPDEST POP POP POP POP POP POP POP JUMP JUMPDEST PUSH2 0x1103 PUSH2 0x1171 JUMP JUMPDEST PUSH1 0x1 PUSH1 0x1 PUSH1 0xA0 SHL SUB DUP2 AND PUSH2 0x1168 JUMPI PUSH1 0x40 MLOAD PUSH3 0x461BCD PUSH1 0xE5 SHL DUP2 MSTORE PUSH1 0x20 PUSH1 0x4 DUP3 ADD MSTORE PUSH1 0x26 PUSH1 0x24 DUP3 ADD MSTORE PUSH32 0x4F776E61626C653A206E6577206F776E657220697320746865207A65726F2061 PUSH1 0x44 DUP3 ADD MSTORE PUSH6 0x646472657373 PUSH1 0xD0 SHL PUSH1 0x64 DUP3 ADD MSTORE PUSH1 0x84 ADD PUSH2 0x422 JUMP JUMPDEST PUSH2 0x6A3 DUP2 PUSH2 0x1224 JUMP JUMPDEST PUSH1 0x0 SLOAD PUSH1 0x1 PUSH1 0x1 PUSH1 0xA0 SHL SUB AND CALLER EQ PUSH2 0x791 JUMPI PUSH1 0x40 MLOAD PUSH3 0x461BCD PUSH1 0xE5 SHL DUP2 MSTORE PUSH1 0x20 PUSH1 0x4 DUP3 ADD DUP2 SWAP1 MSTORE PUSH1 0x24 DUP3 ADD MSTORE PUSH32 0x4F776E61626C653A2063616C6C6572206973206E6F7420746865206F776E6572 PUSH1 0x44 DUP3 ADD MSTORE PUSH1 0x64 ADD PUSH2 0x422 JUMP JUMPDEST PUSH1 0x2 PUSH1 0x1 SLOAD SUB PUSH2 0x121D JUMPI PUSH1 0x40 MLOAD PUSH3 0x461BCD PUSH1 0xE5 SHL DUP2 MSTORE PUSH1 0x20 PUSH1 0x4 DUP3 ADD MSTORE PUSH1 0x1F PUSH1 0x24 DUP3 ADD MSTORE PUSH32 0x5265656E7472616E637947756172643A207265656E7472616E742063616C6C00 PUSH1 0x44 DUP3 ADD MSTORE PUSH1 0x64 ADD PUSH2 0x422 JUMP JUMPDEST PUSH1 0x2 PUSH1 0x1 SSTORE JUMP JUMPDEST PUSH1 0x0 DUP1 SLOAD PUSH1 0x1 PUSH1 0x1 PUSH1 0xA0 SHL SUB DUP4 DUP2 AND PUSH1 0x1 PUSH1 0x1 PUSH1 0xA0 SHL SUB NOT DUP4 AND DUP2 OR DUP5 SSTORE PUSH1 0x40 MLOAD SWAP2 SWAP1 SWAP3 AND SWAP3 DUP4 SWAP2 PUSH32 0x8BE0079C531659141344CD1FD0A4F28419497F9722A3DAAFE3B4186F6B6457E0 SWAP2 SWAP1 LOG3 POP POP JUMP JUMPDEST PUSH1 0x2 SLOAD PUSH1 0x3 SLOAD LT ISZERO PUSH2 0x791 JUMPI PUSH1 0x40 MLOAD PUSH3 0x461BCD PUSH1 0xE5 SHL DUP2 MSTORE PUSH1 0x20 PUSH1 0x4 DUP3 ADD MSTORE PUSH1 0x3E PUSH1 0x24 DUP3 ADD MSTORE PUSH32 0x5365727669636520666565206D75737420636F766572206174206C6561737420 PUSH1 0x44 DUP3 ADD MSTORE PUSH32 0x74686520657865637574696F6E2067617320726571756972656D656E742E0000 PUSH1 0x64 DUP3 ADD MSTORE PUSH1 0x84 ADD PUSH2 0x422 JUMP JUMPDEST PUSH1 0x2 SLOAD PUSH1 0x3 SLOAD PUSH2 0x12FE SWAP2 SWAP1 PUSH2 0x14E5 JUMP JUMPDEST PUSH1 0x4 PUSH1 0x0 DUP3 DUP3 SLOAD PUSH2 0x130F SWAP2 SWAP1 PUSH2 0x14AA JUMP JUMPDEST SWAP1 SWAP2 SSTORE POP POP JUMP JUMPDEST PUSH1 0x1 PUSH1 0x1 PUSH1 0xA0 SHL SUB DUP2 AND DUP2 EQ PUSH2 0x6A3 JUMPI PUSH1 0x0 DUP1 REVERT JUMPDEST PUSH1 0x0 DUP1 PUSH1 0x40 DUP4 DUP6 SUB SLT ISZERO PUSH2 0x133E JUMPI PUSH1 0x0 DUP1 REVERT JUMPDEST DUP3 CALLDATALOAD PUSH2 0x1349 DUP2 PUSH2 0x1316 JUMP JUMPDEST SWAP2 POP PUSH1 0x20 DUP4 ADD CALLDATALOAD PUSH2 0x1359 DUP2 PUSH2 0x1316 JUMP JUMPDEST DUP1 SWAP2 POP POP SWAP3 POP SWAP3 SWAP1 POP JUMP JUMPDEST PUSH1 0x0 PUSH1 0x20 DUP3 DUP5 SUB SLT ISZERO PUSH2 0x1376 JUMPI PUSH1 0x0 DUP1 REVERT JUMPDEST POP CALLDATALOAD SWAP2 SWAP1 POP JUMP JUMPDEST PUSH1 0x0 DUP1 PUSH1 0x40 DUP4 DUP6 SUB SLT ISZERO PUSH2 0x1390 JUMPI PUSH1 0x0 DUP1 REVERT JUMPDEST DUP3 CALLDATALOAD PUSH2 0x139B DUP2 PUSH2 0x1316 JUMP JUMPDEST SWAP5 PUSH1 0x20 SWAP4 SWAP1 SWAP4 ADD CALLDATALOAD SWAP4 POP POP POP JUMP JUMPDEST PUSH1 0x0 PUSH1 0x20 DUP3 DUP5 SUB SLT ISZERO PUSH2 0x13BB JUMPI PUSH1 0x0 DUP1 REVERT JUMPDEST DUP2 CALLDATALOAD PUSH2 0x13C6 DUP2 PUSH2 0x1316 JUMP JUMPDEST SWAP4 SWAP3 POP POP POP JUMP JUMPDEST PUSH1 0x0 DUP1 PUSH1 0x0 DUP1 PUSH1 0x0 DUP1 PUSH1 0xC0 DUP8 DUP10 SUB SLT ISZERO PUSH2 0x13E6 JUMPI PUSH1 0x0 DUP1 REVERT JUMPDEST DUP7 CALLDATALOAD SWAP6 POP PUSH1 0x20 DUP8 ADD CALLDATALOAD PUSH2 0x13F8 DUP2 PUSH2 0x1316 JUMP JUMPDEST SWAP5 POP PUSH1 0x40 DUP8 ADD CALLDATALOAD SWAP4 POP PUSH1 0x60 DUP8 ADD CALLDATALOAD PUSH2 0x140F DUP2 PUSH2 0x1316 JUMP JUMPDEST SWAP6 SWAP9 SWAP5 SWAP8 POP SWAP3 SWAP6 PUSH1 0x80 DUP2 ADD CALLDATALOAD SWAP5 PUSH1 0xA0 SWAP1 SWAP2 ADD CALLDATALOAD SWAP4 POP SWAP2 POP POP JUMP JUMPDEST PUSH1 0x0 DUP1 PUSH1 0x0 DUP1 PUSH1 0x0 DUP1 PUSH1 0x0 PUSH1 0xE0 DUP9 DUP11 SUB SLT ISZERO PUSH2 0x1444 JUMPI PUSH1 0x0 DUP1 REVERT JUMPDEST DUP8 CALLDATALOAD PUSH2 0x144F DUP2 PUSH2 0x1316 JUMP JUMPDEST SWAP10 PUSH1 0x20 DUP10 ADD CALLDATALOAD SWAP10 POP PUSH1 0x40 DUP10 ADD CALLDATALOAD SWAP9 PUSH1 0x60 DUP2 ADD CALLDATALOAD SWAP9 POP PUSH1 0x80 DUP2 ADD CALLDATALOAD SWAP8 POP PUSH1 0xA0 DUP2 ADD CALLDATALOAD SWAP7 POP PUSH1 0xC0 ADD CALLDATALOAD SWAP5 POP SWAP3 POP POP POP JUMP JUMPDEST PUSH4 0x4E487B71 PUSH1 0xE0 SHL PUSH1 0x0 MSTORE PUSH1 0x1 PUSH1 0x4 MSTORE PUSH1 0x24 PUSH1 0x0 REVERT JUMPDEST PUSH4 0x4E487B71 PUSH1 0xE0 SHL PUSH1 0x0 MSTORE PUSH1 0x11 PUSH1 0x4 MSTORE PUSH1 0x24 PUSH1 0x0 REVERT JUMPDEST DUP1 DUP3 ADD DUP1 DUP3 GT ISZERO PUSH2 0x14BD JUMPI PUSH2 0x14BD PUSH2 0x1494 JUMP JUMPDEST SWAP3 SWAP2 POP POP JUMP JUMPDEST PUSH1 0x0 PUSH1 0x20 DUP3 DUP5 SUB SLT ISZERO PUSH2 0x14D5 JUMPI PUSH1 0x0 DUP1 REVERT JUMPDEST DUP2 MLOAD DUP1 ISZERO ISZERO DUP2 EQ PUSH2 0x13C6 JUMPI PUSH1 0x0 DUP1 REVERT JUMPDEST DUP2 DUP2 SUB DUP2 DUP2 GT ISZERO PUSH2 0x14BD JUMPI PUSH2 0x14BD PUSH2 0x1494 JUMP INVALID LOG2 PUSH5 0x6970667358 0x22 SLT KECCAK256 SIGNEXTEND ADD DUP11 PUSH22 0x15D14662F35C9B2E31F9A916FDDA57963A4CE157259 SLOAD MSIZE 0xDF CALL 0x2F PUSH16 0x64736F6C634300081300330000000000 "
		},
		"gasEstimates": {
			"creation": {
				"codeDepositCost": "1084400",
				"executionCost": "infinite",
				"totalCost": "infinite"
			},
			"external": {
				"addSupportForNewToken(address,address)": "infinite",
				"bridgeContractOf(address)": "2619",
				"collectedServiceFeeExcludingGas()": "2328",
				"deposit(uint256,address,uint256,address,uint256,uint256)": "infinite",
				"executeRequest(address,uint256,uint256,uint256,uint256,uint256,uint256)": "infinite",
				"l2execGasFeeDeposit()": "2330",
				"layer1ChainId()": "2350",
				"owner()": "2420",
				"ownerDeposit()": "infinite",
				"ownerWithdraw(uint256)": "infinite",
				"pendingRequests(address,uint256)": "15567",
				"renounceOwnership()": "infinite",
				"serviceFee()": "2329",
				"setL2execGasFeeDeposit(uint256)": "infinite",
				"setserviceFee(uint256)": "infinite",
				"transferOwnership(address)": "infinite",
				"withdraw(uint256)": "infinite"
			},
			"internal": {
				"checkFeeInvariants()": "infinite",
				"isDefined(struct BridgeRequest memory)": "infinite",
				"recordCollectedServiceFeeExcludingGas()": "infinite"
			}
		},
		"methodIdentifiers": {
			"addSupportForNewToken(address,address)": "1485351e",
			"bridgeContractOf(address)": "7394e49c",
			"collectedServiceFeeExcludingGas()": "a1f66306",
			"deposit(uint256,address,uint256,address,uint256,uint256)": "8c13bc08",
			"executeRequest(address,uint256,uint256,uint256,uint256,uint256,uint256)": "d043ba19",
			"l2execGasFeeDeposit()": "242f4046",
			"layer1ChainId()": "b6502943",
			"owner()": "8da5cb5b",
			"ownerDeposit()": "7b1aa45f",
			"ownerWithdraw(uint256)": "33f707d1",
			"pendingRequests(address,uint256)": "488ff1c8",
			"renounceOwnership()": "715018a6",
			"serviceFee()": "8abdf5aa",
			"setL2execGasFeeDeposit(uint256)": "87d6161b",
			"setserviceFee(uint256)": "a191078a",
			"transferOwnership(address)": "f2fde38b",
			"withdraw(uint256)": "2e1a7d4d"
		}
	},
	"abi": [
		{
			"inputs": [
				{
					"internalType": "uint256",
					"name": "_l2execGasFeeDeposit",
					"type": "uint256"
				},
				{
					"internalType": "uint256",
					"name": "_serviceFee",
					"type": "uint256"
				},
				{
					"internalType": "uint256",
					"name": "_layer1ChainId",
					"type": "uint256"
				}
			],
			"stateMutability": "nonpayable",
			"type": "constructor"
		},
		{
			"anonymous": false,
			"inputs": [
				{
					"indexed": true,
					"internalType": "address",
					"name": "previousOwner",
					"type": "address"
				},
				{
					"indexed": true,
					"internalType": "address",
					"name": "newOwner",
					"type": "address"
				}
			],
			"name": "OwnershipTransferred",
			"type": "event"
		},
		{
			"inputs": [
				{
					"internalType": "contract IERC20",
					"name": "token",
					"type": "address"
				},
				{
					"internalType": "address",
					"name": "tokenHopBridge",
					"type": "address"
				}
			],
			"name": "addSupportForNewToken",
			"outputs": [],
			"stateMutability": "nonpayable",
			"type": "function"
		},
		{
			"inputs": [
				{
					"internalType": "contract IERC20",
					"name": "",
					"type": "address"
				}
			],
			"name": "bridgeContractOf",
			"outputs": [
				{
					"internalType": "address",
					"name": "",
					"type": "address"
				}
			],
			"stateMutability": "view",
			"type": "function"
		},
		{
			"inputs": [],
			"name": "collectedServiceFeeExcludingGas",
			"outputs": [
				{
					"internalType": "uint256",
					"name": "",
					"type": "uint256"
				}
			],
			"stateMutability": "view",
			"type": "function"
		},
		{
			"inputs": [
				{
					"internalType": "uint256",
					"name": "requestId",
					"type": "uint256"
				},
				{
					"internalType": "contract IERC20",
					"name": "token",
					"type": "address"
				},
				{
					"internalType": "uint256",
					"name": "tokenAmount",
					"type": "uint256"
				},
				{
					"internalType": "address",
					"name": "destination",
					"type": "address"
				},
				{
					"internalType": "uint256",
					"name": "wantedL1GasPrice",
					"type": "uint256"
				},
				{
					"internalType": "uint256",
					"name": "amountOutMin",
					"type": "uint256"
				}
			],
			"name": "deposit",
			"outputs": [],
			"stateMutability": "payable",
			"type": "function"
		},
		{
			"inputs": [
				{
					"internalType": "address",
					"name": "requestor",
					"type": "address"
				},
				{
					"internalType": "uint256",
					"name": "requestId",
					"type": "uint256"
				},
				{
					"internalType": "uint256",
					"name": "bonderFee",
					"type": "uint256"
				},
				{
					"internalType": "uint256",
					"name": "amountOutMin",
					"type": "uint256"
				},
				{
					"internalType": "uint256",
					"name": "deadline",
					"type": "uint256"
				},
				{
					"internalType": "uint256",
					"name": "destAmountOutMin",
					"type": "uint256"
				},
				{
					"internalType": "uint256",
					"name": "destDeadline",
					"type": "uint256"
				}
			],
			"name": "executeRequest",
			"outputs": [],
			"stateMutability": "nonpayable",
			"type": "function"
		},
		{
			"inputs": [],
			"name": "l2execGasFeeDeposit",
			"outputs": [
				{
					"internalType": "uint256",
					"name": "",
					"type": "uint256"
				}
			],
			"stateMutability": "view",
			"type": "function"
		},
		{
			"inputs": [],
			"name": "layer1ChainId",
			"outputs": [
				{
					"internalType": "uint256",
					"name": "",
					"type": "uint256"
				}
			],
			"stateMutability": "view",
			"type": "function"
		},
		{
			"inputs": [],
			"name": "owner",
			"outputs": [
				{
					"internalType": "address",
					"name": "",
					"type": "address"
				}
			],
			"stateMutability": "view",
			"type": "function"
		},
		{
			"inputs": [],
			"name": "ownerDeposit",
			"outputs": [],
			"stateMutability": "payable",
			"type": "function"
		},
		{
			"inputs": [
				{
					"internalType": "uint256",
					"name": "amount",
					"type": "uint256"
				}
			],
			"name": "ownerWithdraw",
			"outputs": [],
			"stateMutability": "nonpayable",
			"type": "function"
		},
		{
			"inputs": [
				{
					"internalType": "address",
					"name": "",
					"type": "address"
				},
				{
					"internalType": "uint256",
					"name": "",
					"type": "uint256"
				}
			],
			"name": "pendingRequests",
			"outputs": [
				{
					"internalType": "address",
					"name": "source",
					"type": "address"
				},
				{
					"internalType": "address",
					"name": "destination",
					"type": "address"
				},
				{
					"internalType": "bool",
					"name": "isTokenTransfer",
					"type": "bool"
				},
				{
					"internalType": "contract IERC20",
					"name": "token",
					"type": "address"
				},
				{
					"internalType": "uint256",
					"name": "amount",
					"type": "uint256"
				},
				{
					"internalType": "uint256",
					"name": "amountOutMin",
					"type": "uint256"
				},
				{
					"internalType": "uint256",
					"name": "wantedL1GasPrice",
					"type": "uint256"
				},
				{
					"internalType": "uint256",
					"name": "l2execGasFeeDeposit",
					"type": "uint256"
				}
			],
			"stateMutability": "view",
			"type": "function"
		},
		{
			"inputs": [],
			"name": "renounceOwnership",
			"outputs": [],
			"stateMutability": "nonpayable",
			"type": "function"
		},
		{
			"inputs": [],
			"name": "serviceFee",
			"outputs": [
				{
					"internalType": "uint256",
					"name": "",
					"type": "uint256"
				}
			],
			"stateMutability": "view",
			"type": "function"
		},
		{
			"inputs": [
				{
					"internalType": "uint256",
					"name": "amount",
					"type": "uint256"
				}
			],
			"name": "setL2execGasFeeDeposit",
			"outputs": [],
			"stateMutability": "nonpayable",
			"type": "function"
		},
		{
			"inputs": [
				{
					"internalType": "uint256",
					"name": "amount",
					"type": "uint256"
				}
			],
			"name": "setserviceFee",
			"outputs": [],
			"stateMutability": "nonpayable",
			"type": "function"
		},
		{
			"inputs": [
				{
					"internalType": "address",
					"name": "newOwner",
					"type": "address"
				}
			],
			"name": "transferOwnership",
			"outputs": [],
			"stateMutability": "nonpayable",
			"type": "function"
		},
		{
			"inputs": [
				{
					"internalType": "uint256",
					"name": "requestId",
					"type": "uint256"
				}
			],
			"name": "withdraw",
			"outputs": [],
			"stateMutability": "nonpayable",
			"type": "function"
		}
	]
}