{
	"data": {
		"bytecode": {
			"linkReferences": {},
			"object": "608060405234801561001057600080fd5b506101ce806100206000396000f3fe60806040526004361061001e5760003560e01c8063eea0d7b214610023575b600080fd5b61003d600480360381019061003891906100e2565b61003f565b005b5050505050505050565b600080fd5b6000819050919050565b6100618161004e565b811461006c57600080fd5b50565b60008135905061007e81610058565b92915050565b600073ffffffffffffffffffffffffffffffffffffffff82169050919050565b60006100af82610084565b9050919050565b6100bf816100a4565b81146100ca57600080fd5b50565b6000813590506100dc816100b6565b92915050565b600080600080600080600080610100898b03121561010357610102610049565b5b60006101118b828c0161006f565b98505060206101228b828c016100cd565b97505060406101338b828c0161006f565b96505060606101448b828c0161006f565b95505060806101558b828c0161006f565b94505060a06101668b828c0161006f565b93505060c06101778b828c0161006f565b92505060e06101888b828c0161006f565b915050929598509295989093965056fea2646970667358221220d8e4f8f78bbde92e60821c1c58aeccc5e4f8c337d61b8e5fc050c7447ad1522e64736f6c63430008120033",
			"opcodes": "PUSH1 0x80 PUSH1 0x40 MSTORE CALLVALUE DUP1 ISZERO PUSH2 0x10 JUMPI PUSH1 0x0 DUP1 REVERT JUMPDEST POP PUSH2 0x1CE DUP1 PUSH2 0x20 PUSH1 0x0 CODECOPY PUSH1 0x0 RETURN INVALID PUSH1 0x80 PUSH1 0x40 MSTORE PUSH1 0x4 CALLDATASIZE LT PUSH2 0x1E JUMPI PUSH1 0x0 CALLDATALOAD PUSH1 0xE0 SHR DUP1 PUSH4 0xEEA0D7B2 EQ PUSH2 0x23 JUMPI JUMPDEST PUSH1 0x0 DUP1 REVERT JUMPDEST PUSH2 0x3D PUSH1 0x4 DUP1 CALLDATASIZE SUB DUP2 ADD SWAP1 PUSH2 0x38 SWAP2 SWAP1 PUSH2 0xE2 JUMP JUMPDEST PUSH2 0x3F JUMP JUMPDEST STOP JUMPDEST POP POP POP POP POP POP POP POP JUMP JUMPDEST PUSH1 0x0 DUP1 REVERT JUMPDEST PUSH1 0x0 DUP2 SWAP1 POP SWAP2 SWAP1 POP JUMP JUMPDEST PUSH2 0x61 DUP2 PUSH2 0x4E JUMP JUMPDEST DUP2 EQ PUSH2 0x6C JUMPI PUSH1 0x0 DUP1 REVERT JUMPDEST POP JUMP JUMPDEST PUSH1 0x0 DUP2 CALLDATALOAD SWAP1 POP PUSH2 0x7E DUP2 PUSH2 0x58 JUMP JUMPDEST SWAP3 SWAP2 POP POP JUMP JUMPDEST PUSH1 0x0 PUSH20 0xFFFFFFFFFFFFFFFFFFFFFFFFFFFFFFFFFFFFFFFF DUP3 AND SWAP1 POP SWAP2 SWAP1 POP JUMP JUMPDEST PUSH1 0x0 PUSH2 0xAF DUP3 PUSH2 0x84 JUMP JUMPDEST SWAP1 POP SWAP2 SWAP1 POP JUMP JUMPDEST PUSH2 0xBF DUP2 PUSH2 0xA4 JUMP JUMPDEST DUP2 EQ PUSH2 0xCA JUMPI PUSH1 0x0 DUP1 REVERT JUMPDEST POP JUMP JUMPDEST PUSH1 0x0 DUP2 CALLDATALOAD SWAP1 POP PUSH2 0xDC DUP2 PUSH2 0xB6 JUMP JUMPDEST SWAP3 SWAP2 POP POP JUMP JUMPDEST PUSH1 0x0 DUP1 PUSH1 0x0 DUP1 PUSH1 0x0 DUP1 PUSH1 0x0 DUP1 PUSH2 0x100 DUP10 DUP12 SUB SLT ISZERO PUSH2 0x103 JUMPI PUSH2 0x102 PUSH2 0x49 JUMP JUMPDEST JUMPDEST PUSH1 0x0 PUSH2 0x111 DUP12 DUP3 DUP13 ADD PUSH2 0x6F JUMP JUMPDEST SWAP9 POP POP PUSH1 0x20 PUSH2 0x122 DUP12 DUP3 DUP13 ADD PUSH2 0xCD JUMP JUMPDEST SWAP8 POP POP PUSH1 0x40 PUSH2 0x133 DUP12 DUP3 DUP13 ADD PUSH2 0x6F JUMP JUMPDEST SWAP7 POP POP PUSH1 0x60 PUSH2 0x144 DUP12 DUP3 DUP13 ADD PUSH2 0x6F JUMP JUMPDEST SWAP6 POP POP PUSH1 0x80 PUSH2 0x155 DUP12 DUP3 DUP13 ADD PUSH2 0x6F JUMP JUMPDEST SWAP5 POP POP PUSH1 0xA0 PUSH2 0x166 DUP12 DUP3 DUP13 ADD PUSH2 0x6F JUMP JUMPDEST SWAP4 POP POP PUSH1 0xC0 PUSH2 0x177 DUP12 DUP3 DUP13 ADD PUSH2 0x6F JUMP JUMPDEST SWAP3 POP POP PUSH1 0xE0 PUSH2 0x188 DUP12 DUP3 DUP13 ADD PUSH2 0x6F JUMP JUMPDEST SWAP2 POP POP SWAP3 SWAP6 SWAP9 POP SWAP3 SWAP6 SWAP9 SWAP1 SWAP4 SWAP7 POP JUMP INVALID LOG2 PUSH5 0x6970667358 0x22 SLT KECCAK256 0xD8 0xE4 0xF8 0xF7 DUP12 0xBD 0xE9 0x2E PUSH1 0x82 SHR SHR PC 0xAE 0xCC 0xC5 0xE4 0xF8 0xC3 CALLDATACOPY 0xD6 SHL DUP15 0x5F 0xC0 POP 0xC7 PREVRANDAO PUSH27 0xD1522E64736F6C6343000812003300000000000000000000000000 "
		},
		"gasEstimates": {
			"creation": {
				"codeDepositCost": "92400",
				"executionCost": "141",
				"totalCost": "92541"
			},
			"external": {
				"swapAndSend(uint256,address,uint256,uint256,uint256,uint256,uint256,uint256)": "infinite"
			}
		},
		"methodIdentifiers": {
			"swapAndSend(uint256,address,uint256,uint256,uint256,uint256,uint256,uint256)": "eea0d7b2"
		}
	},
	"abi": [
		{
			"inputs": [],
			"stateMutability": "nonpayable",
			"type": "constructor"
		},
		{
			"inputs": [
				{
					"internalType": "uint256",
					"name": "chainId",
					"type": "uint256"
				},
				{
					"internalType": "address",
					"name": "recipient",
					"type": "address"
				},
				{
					"internalType": "uint256",
					"name": "amount",
					"type": "uint256"
				},
				{
					"internalType": "uint256",
					"name": "bonderFee",
					"type": "uint256"
				},
				{
					"internalType": "uint256",
					"name": "amountOutMin",
					"type": "uint256"
				},
				{
					"internalType": "uint256",
					"name": "deadline",
					"type": "uint256"
				},
				{
					"internalType": "uint256",
					"name": "destAmountOutMin",
					"type": "uint256"
				},
				{
					"internalType": "uint256",
					"name": "destDeadline",
					"type": "uint256"
				}
			],
			"name": "swapAndSend",
			"outputs": [],
			"stateMutability": "payable",
			"type": "function"
		}
	]
}